{
	"TFGv3/Contracts/SCStorage.sol": {
		"SCStorage": {
			"abi": [
				{
					"inputs": [],
					"stateMutability": "nonpayable",
					"type": "constructor"
				},
				{
					"stateMutability": "payable",
					"type": "fallback"
				},
				{
					"inputs": [],
					"name": "NAV",
					"outputs": [
						{
							"internalType": "uint256",
							"name": "",
							"type": "uint256"
						}
					],
					"stateMutability": "view",
					"type": "function"
				},
				{
					"inputs": [
						{
							"internalType": "address",
							"name": "coinAddr",
							"type": "address"
						},
						{
							"internalType": "uint256",
							"name": "stable",
							"type": "uint256"
						}
					],
					"name": "addCoin",
					"outputs": [],
					"stateMutability": "nonpayable",
					"type": "function"
				},
				{
					"inputs": [
						{
							"internalType": "uint256",
							"name": "",
							"type": "uint256"
						}
					],
					"name": "coinArray",
					"outputs": [
						{
							"internalType": "address",
							"name": "",
							"type": "address"
						}
					],
					"stateMutability": "view",
					"type": "function"
				},
				{
					"inputs": [
						{
							"internalType": "address",
							"name": "",
							"type": "address"
						}
					],
					"name": "coinOracleAddr",
					"outputs": [
						{
							"internalType": "address",
							"name": "",
							"type": "address"
						}
					],
					"stateMutability": "view",
					"type": "function"
				},
				{
					"inputs": [
						{
							"internalType": "address",
							"name": "",
							"type": "address"
						}
					],
					"name": "coins",
					"outputs": [
						{
							"internalType": "uint256",
							"name": "",
							"type": "uint256"
						}
					],
					"stateMutability": "view",
					"type": "function"
				},
				{
					"inputs": [
						{
							"internalType": "address",
							"name": "coinAddr",
							"type": "address"
						}
					],
					"name": "delCoin",
					"outputs": [],
					"stateMutability": "nonpayable",
					"type": "function"
				},
				{
					"inputs": [
						{
							"internalType": "address",
							"name": "newAddr",
							"type": "address"
						}
					],
					"name": "deleteContract",
					"outputs": [],
					"stateMutability": "nonpayable",
					"type": "function"
				},
				{
					"inputs": [
						{
							"internalType": "address",
							"name": "proxyAddr",
							"type": "address"
						}
					],
					"name": "initContract",
					"outputs": [],
					"stateMutability": "nonpayable",
					"type": "function"
				},
				{
					"inputs": [],
					"name": "initDone",
					"outputs": [
						{
							"internalType": "uint8",
							"name": "",
							"type": "uint8"
						}
					],
					"stateMutability": "view",
					"type": "function"
				},
				{
					"inputs": [],
					"name": "oracleNAV",
					"outputs": [
						{
							"internalType": "uint256",
							"name": "",
							"type": "uint256"
						},
						{
							"internalType": "uint256",
							"name": "",
							"type": "uint256"
						}
					],
					"stateMutability": "view",
					"type": "function"
				},
				{
					"inputs": [],
					"name": "proxy",
					"outputs": [
						{
							"internalType": "address",
							"name": "",
							"type": "address"
						}
					],
					"stateMutability": "view",
					"type": "function"
				},
				{
					"inputs": [
						{
							"internalType": "address",
							"name": "",
							"type": "address"
						}
					],
					"name": "quoteIn",
					"outputs": [
						{
							"internalType": "address",
							"name": "",
							"type": "address"
						}
					],
					"stateMutability": "view",
					"type": "function"
				},
				{
					"inputs": [
						{
							"internalType": "address",
							"name": "to",
							"type": "address"
						},
						{
							"internalType": "uint256",
							"name": "totalToTransfer",
							"type": "uint256"
						}
					],
					"name": "transferFunds",
					"outputs": [
						{
							"internalType": "bool",
							"name": "",
							"type": "bool"
						}
					],
					"stateMutability": "nonpayable",
					"type": "function"
				},
				{
					"inputs": [
						{
							"internalType": "uint256",
							"name": "comission",
							"type": "uint256"
						}
					],
					"name": "updateNAV",
					"outputs": [
						{
							"internalType": "uint256",
							"name": "newNAV",
							"type": "uint256"
						}
					],
					"stateMutability": "nonpayable",
					"type": "function"
				},
				{
					"inputs": [
						{
							"internalType": "address",
							"name": "newAddr",
							"type": "address"
						}
					],
					"name": "updateProxy",
					"outputs": [],
					"stateMutability": "nonpayable",
					"type": "function"
				},
				{
					"stateMutability": "payable",
					"type": "receive"
				}
			],
			"devdoc": {
				"kind": "dev",
				"methods": {},
				"version": 1
			},
			"evm": {
				"assembly": "    /* \"TFGv3/Contracts/SCStorage.sol\":148:5019  contract SCStorage is ISCStorage... */\n  mstore(0x40, 0xa0)\n    /* \"TFGv3/Contracts/SCStorage.sol\":608:664  constructor()... */\n  callvalue\n  dup1\n  iszero\n  tag_1\n  jumpi\n  0x00\n  dup1\n  revert\ntag_1:\n  pop\n    /* \"TFGv3/Contracts/SCStorage.sol\":647:657  msg.sender */\n  caller\n    /* \"TFGv3/Contracts/SCStorage.sol\":636:657  deployer = msg.sender */\n  0x80\n  mstore\n    /* \"TFGv3/Contracts/SCStorage.sol\":148:5019  contract SCStorage is ISCStorage... */\n  mload(0x80)\n  codecopy(0x00, dataOffset(sub_0), dataSize(sub_0))\n  0x00\n  assignImmutable(\"0xcdf1dd2e8742ccca482be714f2ab38acb16e66300c9790cd19a8abbcdf150d1c\")\n  return(0x00, dataSize(sub_0))\nstop\n\nsub_0: assembly {\n        /* \"TFGv3/Contracts/SCStorage.sol\":148:5019  contract SCStorage is ISCStorage... */\n      mstore(0x40, 0x80)\n      jumpi(tag_1, lt(calldatasize, 0x04))\n      shr(0xe0, calldataload(0x00))\n      dup1\n      0x990dc9db\n      gt\n      tag_18\n      jumpi\n      dup1\n      0xd825bfff\n      gt\n      tag_19\n      jumpi\n      dup1\n      0xd825bfff\n      eq\n      tag_14\n      jumpi\n      dup1\n      0xdef1a5e8\n      eq\n      tag_15\n      jumpi\n      dup1\n      0xec556889\n      eq\n      tag_16\n      jumpi\n      dup1\n      0xfed0a20e\n      eq\n      tag_17\n      jumpi\n        /* \"TFGv3/Contracts/SCStorage.sol\":5002:5010  revert() */\n      0x00\n      dup1\n      revert\n        /* \"TFGv3/Contracts/SCStorage.sol\":148:5019  contract SCStorage is ISCStorage... */\n    tag_19:\n      dup1\n      0x990dc9db\n      eq\n      tag_10\n      jumpi\n      dup1\n      0x9e955149\n      eq\n      tag_11\n      jumpi\n      dup1\n      0xb4014879\n      eq\n      tag_12\n      jumpi\n      dup1\n      0xcf9d4afa\n      eq\n      tag_13\n      jumpi\n        /* \"TFGv3/Contracts/SCStorage.sol\":5002:5010  revert() */\n      0x00\n      dup1\n      revert\n        /* \"TFGv3/Contracts/SCStorage.sol\":148:5019  contract SCStorage is ISCStorage... */\n    tag_18:\n      dup1\n      0x4051b9aa\n      gt\n      tag_20\n      jumpi\n      dup1\n      0x4051b9aa\n      eq\n      tag_6\n      jumpi\n      dup1\n      0x52fd856b\n      eq\n      tag_7\n      jumpi\n      dup1\n      0x63b48ee6\n      eq\n      tag_8\n      jumpi\n      dup1\n      0x7d0f7a88\n      eq\n      tag_9\n      jumpi\n        /* \"TFGv3/Contracts/SCStorage.sol\":5002:5010  revert() */\n      0x00\n      dup1\n      revert\n        /* \"TFGv3/Contracts/SCStorage.sol\":148:5019  contract SCStorage is ISCStorage... */\n    tag_20:\n      dup1\n      0x0cb1982b\n      eq\n      tag_3\n      jumpi\n      dup1\n      0x0fbbfa3e\n      eq\n      tag_4\n      jumpi\n      dup1\n      0x2637a477\n      eq\n      tag_5\n      jumpi\n        /* \"TFGv3/Contracts/SCStorage.sol\":5002:5010  revert() */\n      0x00\n      dup1\n      revert\n        /* \"TFGv3/Contracts/SCStorage.sol\":148:5019  contract SCStorage is ISCStorage... */\n    tag_1:\n      jumpi(tag_2, calldatasize)\n        /* \"TFGv3/Contracts/SCStorage.sol\":4935:4943  revert() */\n      0x00\n      dup1\n      revert\n        /* \"TFGv3/Contracts/SCStorage.sol\":148:5019  contract SCStorage is ISCStorage... */\n    tag_2:\n        /* \"TFGv3/Contracts/SCStorage.sol\":5002:5010  revert() */\n      0x00\n      dup1\n      revert\n        /* \"TFGv3/Contracts/SCStorage.sol\":980:1206  function updateNAV(uint comission) external virtual override returns (uint newNAV)... */\n    tag_3:\n      callvalue\n      dup1\n      iszero\n      tag_25\n      jumpi\n      0x00\n      dup1\n      revert\n    tag_25:\n      pop\n      tag_26\n      tag_27\n      calldatasize\n      0x04\n      tag_28\n      jump\t// in\n    tag_27:\n      tag_29\n      jump\t// in\n    tag_26:\n      mload(0x40)\n        /* \"#utility.yul\":345:370   */\n      swap1\n      dup2\n      mstore\n        /* \"#utility.yul\":333:335   */\n      0x20\n        /* \"#utility.yul\":318:336   */\n      add\n        /* \"TFGv3/Contracts/SCStorage.sol\":980:1206  function updateNAV(uint comission) external virtual override returns (uint newNAV)... */\n    tag_30:\n      mload(0x40)\n      dup1\n      swap2\n      sub\n      swap1\n      return\n        /* \"TFGv3/Contracts/SCStorage.sol\":405:455  mapping (address => address) public coinOracleAddr */\n    tag_4:\n      callvalue\n      dup1\n      iszero\n      tag_32\n      jumpi\n      0x00\n      dup1\n      revert\n    tag_32:\n      pop\n      tag_33\n      tag_34\n      calldatasize\n      0x04\n      tag_35\n      jump\t// in\n    tag_34:\n      mstore(0x20, 0x04)\n      0x00\n      swap1\n      dup2\n      mstore\n      0x40\n      swap1\n      keccak256\n      sload\n      sub(shl(0xa0, 0x01), 0x01)\n      and\n      dup2\n      jump\n    tag_33:\n      mload(0x40)\n      sub(shl(0xa0, 0x01), 0x01)\n        /* \"#utility.yul\":956:1011   */\n      swap1\n      swap2\n      and\n        /* \"#utility.yul\":938:1012   */\n      dup2\n      mstore\n        /* \"#utility.yul\":926:928   */\n      0x20\n        /* \"#utility.yul\":911:929   */\n      add\n        /* \"TFGv3/Contracts/SCStorage.sol\":405:455  mapping (address => address) public coinOracleAddr */\n      tag_30\n        /* \"#utility.yul\":792:1018   */\n      jump\n        /* \"TFGv3/Contracts/SCStorage.sol\":4327:4884  function deleteContract(address newAddr) external virtual override OnlyDeployer... */\n    tag_5:\n      callvalue\n      dup1\n      iszero\n      tag_39\n      jumpi\n      0x00\n      dup1\n      revert\n    tag_39:\n      pop\n      tag_40\n      tag_41\n      calldatasize\n      0x04\n      tag_35\n      jump\t// in\n    tag_41:\n      tag_42\n      jump\t// in\n    tag_40:\n      stop\n        /* \"TFGv3/Contracts/SCStorage.sol\":3714:4173  function delCoin(address coinAddr) external... */\n    tag_6:\n      callvalue\n      dup1\n      iszero\n      tag_43\n      jumpi\n      0x00\n      dup1\n      revert\n    tag_43:\n      pop\n      tag_40\n      tag_45\n      calldatasize\n      0x04\n      tag_35\n      jump\t// in\n    tag_45:\n      tag_46\n      jump\t// in\n        /* \"TFGv3/Contracts/SCStorage.sol\":215:230  uint public NAV */\n    tag_7:\n      callvalue\n      dup1\n      iszero\n      tag_47\n      jumpi\n      0x00\n      dup1\n      revert\n    tag_47:\n      pop\n      tag_26\n      sload(0x00)\n      dup2\n      jump\n        /* \"TFGv3/Contracts/SCStorage.sol\":308:334  address[] public coinArray */\n    tag_8:\n      callvalue\n      dup1\n      iszero\n      tag_51\n      jumpi\n      0x00\n      dup1\n      revert\n    tag_51:\n      pop\n      tag_33\n      tag_53\n      calldatasize\n      0x04\n      tag_28\n      jump\t// in\n    tag_53:\n      tag_54\n      jump\t// in\n        /* \"TFGv3/Contracts/SCStorage.sol\":337:375  mapping (address => uint) public coins */\n    tag_9:\n      callvalue\n      dup1\n      iszero\n      tag_56\n      jumpi\n      0x00\n      dup1\n      revert\n    tag_56:\n      pop\n      tag_26\n      tag_58\n      calldatasize\n      0x04\n      tag_35\n      jump\t// in\n    tag_58:\n      mstore(0x20, 0x03)\n      0x00\n      swap1\n      dup2\n      mstore\n      0x40\n      swap1\n      keccak256\n      sload\n      dup2\n      jump\n        /* \"TFGv3/Contracts/SCStorage.sol\":1216:1988  function transferFunds(address to, uint totalToTransfer) external virtual override returns (bool)... */\n    tag_10:\n      callvalue\n      dup1\n      iszero\n      tag_61\n      jumpi\n      0x00\n      dup1\n      revert\n    tag_61:\n      pop\n      tag_62\n      tag_63\n      calldatasize\n      0x04\n      tag_64\n      jump\t// in\n    tag_63:\n      tag_65\n      jump\t// in\n    tag_62:\n      mload(0x40)\n        /* \"#utility.yul\":1508:1522   */\n      swap1\n      iszero\n        /* \"#utility.yul\":1501:1523   */\n      iszero\n        /* \"#utility.yul\":1483:1524   */\n      dup2\n      mstore\n        /* \"#utility.yul\":1471:1473   */\n      0x20\n        /* \"#utility.yul\":1456:1474   */\n      add\n        /* \"TFGv3/Contracts/SCStorage.sol\":1216:1988  function transferFunds(address to, uint totalToTransfer) external virtual override returns (bool)... */\n      tag_30\n        /* \"#utility.yul\":1343:1530   */\n      jump\n        /* \"TFGv3/Contracts/SCStorage.sol\":4179:4317  function updateProxy(address newAddr) external virtual override... */\n    tag_11:\n      callvalue\n      dup1\n      iszero\n      tag_68\n      jumpi\n      0x00\n      dup1\n      revert\n    tag_68:\n      pop\n      tag_40\n      tag_70\n      calldatasize\n      0x04\n      tag_35\n      jump\t// in\n    tag_70:\n      tag_71\n      jump\t// in\n        /* \"TFGv3/Contracts/SCStorage.sol\":3438:3704  function addCoin(address coinAddr, uint stable) external  OnlyDeployer... */\n    tag_12:\n      callvalue\n      dup1\n      iszero\n      tag_72\n      jumpi\n      0x00\n      dup1\n      revert\n    tag_72:\n      pop\n      tag_40\n      tag_74\n      calldatasize\n      0x04\n      tag_64\n      jump\t// in\n    tag_74:\n      tag_75\n      jump\t// in\n        /* \"TFGv3/Contracts/SCStorage.sol\":843:974  function initContract(address proxyAddr) external OnlyDeployer NonInit... */\n    tag_13:\n      callvalue\n      dup1\n      iszero\n      tag_76\n      jumpi\n      0x00\n      dup1\n      revert\n    tag_76:\n      pop\n      tag_40\n      tag_78\n      calldatasize\n      0x04\n      tag_35\n      jump\t// in\n    tag_78:\n      tag_79\n      jump\t// in\n        /* \"TFGv3/Contracts/SCStorage.sol\":484:527  mapping (address => address) public quoteIn */\n    tag_14:\n      callvalue\n      dup1\n      iszero\n      tag_80\n      jumpi\n      0x00\n      dup1\n      revert\n    tag_80:\n      pop\n      tag_33\n      tag_82\n      calldatasize\n      0x04\n      tag_35\n      jump\t// in\n    tag_82:\n      mstore(0x20, 0x05)\n      0x00\n      swap1\n      dup2\n      mstore\n      0x40\n      swap1\n      keccak256\n      sload\n      sub(shl(0xa0, 0x01), 0x01)\n      and\n      dup2\n      jump\n        /* \"TFGv3/Contracts/SCStorage.sol\":1998:2528  function oracleNAV() external view returns (uint, uint)... */\n    tag_15:\n      callvalue\n      dup1\n      iszero\n      tag_85\n      jumpi\n      0x00\n      dup1\n      revert\n    tag_85:\n      pop\n      tag_86\n      tag_87\n      jump\t// in\n    tag_86:\n      0x40\n      dup1\n      mload\n        /* \"#utility.yul\":1709:1734   */\n      swap3\n      dup4\n      mstore\n        /* \"#utility.yul\":1765:1767   */\n      0x20\n        /* \"#utility.yul\":1750:1768   */\n      dup4\n      add\n        /* \"#utility.yul\":1743:1777   */\n      swap2\n      swap1\n      swap2\n      mstore\n        /* \"#utility.yul\":1682:1700   */\n      add\n        /* \"TFGv3/Contracts/SCStorage.sol\":1998:2528  function oracleNAV() external view returns (uint, uint)... */\n      tag_30\n        /* \"#utility.yul\":1535:1783   */\n      jump\n        /* \"TFGv3/Contracts/SCStorage.sol\":284:304  address public proxy */\n    tag_16:\n      callvalue\n      dup1\n      iszero\n      tag_90\n      jumpi\n      0x00\n      dup1\n      revert\n    tag_90:\n      pop\n      sload(0x01)\n      tag_33\n      swap1\n      0x010000\n      swap1\n      div\n      sub(shl(0xa0, 0x01), 0x01)\n      and\n      dup2\n      jump\n        /* \"TFGv3/Contracts/SCStorage.sol\":236:257  uint8 public initDone */\n    tag_17:\n      callvalue\n      dup1\n      iszero\n      tag_94\n      jumpi\n      0x00\n      dup1\n      revert\n    tag_94:\n      pop\n      sload(0x01)\n      tag_95\n      swap1\n      0xff\n      and\n      dup2\n      jump\n    tag_95:\n      mload(0x40)\n        /* \"#utility.yul\":1960:1964   */\n      0xff\n        /* \"#utility.yul\":1948:1965   */\n      swap1\n      swap2\n      and\n        /* \"#utility.yul\":1930:1966   */\n      dup2\n      mstore\n        /* \"#utility.yul\":1918:1920   */\n      0x20\n        /* \"#utility.yul\":1903:1921   */\n      add\n        /* \"TFGv3/Contracts/SCStorage.sol\":236:257  uint8 public initDone */\n      tag_30\n        /* \"#utility.yul\":1788:1972   */\n      jump\n        /* \"TFGv3/Contracts/SCStorage.sol\":980:1206  function updateNAV(uint comission) external virtual override returns (uint newNAV)... */\n    tag_29:\n        /* \"TFGv3/Contracts/SCStorage.sol\":1050:1061  uint newNAV */\n      0x00\n        /* \"TFGv3/Contracts/SCStorage.sol\":1106:1111  proxy */\n      0x01\n      0x02\n      swap1\n      sload\n      swap1\n      0x0100\n      exp\n      swap1\n      div\n      sub(shl(0xa0, 0x01), 0x01)\n      and\n      sub(shl(0xa0, 0x01), 0x01)\n        /* \"TFGv3/Contracts/SCStorage.sol\":1099:1129  IProxy(proxy).exchangeContract */\n      and\n      0x3f0a0797\n        /* \"TFGv3/Contracts/SCStorage.sol\":1099:1131  IProxy(proxy).exchangeContract() */\n      mload(0x40)\n      dup2\n      0xffffffff\n      and\n      0xe0\n      shl\n      dup2\n      mstore\n      0x04\n      add\n      0x20\n      mload(0x40)\n      dup1\n      dup4\n      sub\n      dup2\n      dup7\n      gas\n      staticcall\n      iszero\n      dup1\n      iszero\n      tag_101\n      jumpi\n      returndatasize\n      0x00\n      dup1\n      returndatacopy\n      revert(0x00, returndatasize)\n    tag_101:\n      pop\n      pop\n      pop\n      pop\n      mload(0x40)\n      returndatasize\n      not(0x1f)\n      0x1f\n      dup3\n      add\n      and\n      dup3\n      add\n      dup1\n      0x40\n      mstore\n      pop\n      dup2\n      add\n      swap1\n      tag_102\n      swap2\n      swap1\n      tag_103\n      jump\t// in\n    tag_102:\n      sub(shl(0xa0, 0x01), 0x01)\n        /* \"TFGv3/Contracts/SCStorage.sol\":1085:1131  msg.sender == IProxy(proxy).exchangeContract() */\n      and\n        /* \"TFGv3/Contracts/SCStorage.sol\":1085:1095  msg.sender */\n      caller\n      sub(shl(0xa0, 0x01), 0x01)\n        /* \"TFGv3/Contracts/SCStorage.sol\":1085:1131  msg.sender == IProxy(proxy).exchangeContract() */\n      and\n      eq\n        /* \"TFGv3/Contracts/SCStorage.sol\":1077:1132  require(msg.sender == IProxy(proxy).exchangeContract()) */\n      tag_104\n      jumpi\n      0x00\n      dup1\n      revert\n    tag_104:\n        /* \"TFGv3/Contracts/SCStorage.sol\":1168:1177  comission */\n      dup2\n        /* \"TFGv3/Contracts/SCStorage.sol\":1151:1165  calculateNAV() */\n      tag_105\n        /* \"TFGv3/Contracts/SCStorage.sol\":1151:1163  calculateNAV */\n      tag_106\n        /* \"TFGv3/Contracts/SCStorage.sol\":1151:1165  calculateNAV() */\n      jump\t// in\n    tag_105:\n        /* \"TFGv3/Contracts/SCStorage.sol\":1151:1177  calculateNAV() - comission */\n      tag_107\n      swap2\n      swap1\n      tag_108\n      jump\t// in\n    tag_107:\n        /* \"TFGv3/Contracts/SCStorage.sol\":1187:1190  NAV */\n      0x00\n        /* \"TFGv3/Contracts/SCStorage.sol\":1187:1199  NAV = newNAV */\n      dup2\n      swap1\n      sstore\n        /* \"TFGv3/Contracts/SCStorage.sol\":1142:1177  newNAV = calculateNAV() - comission */\n      swap3\n        /* \"TFGv3/Contracts/SCStorage.sol\":980:1206  function updateNAV(uint comission) external virtual override returns (uint newNAV)... */\n      swap2\n      pop\n      pop\n      jump\t// out\n        /* \"TFGv3/Contracts/SCStorage.sol\":4327:4884  function deleteContract(address newAddr) external virtual override OnlyDeployer... */\n    tag_42:\n        /* \"TFGv3/Contracts/SCStorage.sol\":717:727  msg.sender */\n      caller\n      sub(shl(0xa0, 0x01), 0x01)\n        /* \"TFGv3/Contracts/SCStorage.sol\":731:739  deployer */\n      immutable(\"0xcdf1dd2e8742ccca482be714f2ab38acb16e66300c9790cd19a8abbcdf150d1c\")\n        /* \"TFGv3/Contracts/SCStorage.sol\":717:739  msg.sender == deployer */\n      and\n      eq\n        /* \"TFGv3/Contracts/SCStorage.sol\":709:740  require(msg.sender == deployer) */\n      tag_110\n      jumpi\n      0x00\n      dup1\n      revert\n    tag_110:\n        /* \"TFGv3/Contracts/SCStorage.sol\":4441:4446  proxy */\n      sload(0x01)\n        /* \"TFGv3/Contracts/SCStorage.sol\":4456:4497  IProxy(proxyAddr).setStorageAddr(newAddr) */\n      mload(0x40)\n      0xa6fa0b7b00000000000000000000000000000000000000000000000000000000\n      dup2\n      mstore\n      sub(shl(0xa0, 0x01), 0x01)\n        /* \"#utility.yul\":956:1011   */\n      dup4\n      dup2\n      and\n        /* \"TFGv3/Contracts/SCStorage.sol\":4456:4497  IProxy(proxyAddr).setStorageAddr(newAddr) */\n      0x04\n      dup4\n      add\n        /* \"#utility.yul\":938:1012   */\n      mstore\n        /* \"TFGv3/Contracts/SCStorage.sol\":4441:4446  proxy */\n      0x010000\n      swap1\n      swap3\n      div\n      swap1\n      swap2\n      and\n      swap1\n      dup2\n      swap1\n        /* \"TFGv3/Contracts/SCStorage.sol\":4456:4488  IProxy(proxyAddr).setStorageAddr */\n      0xa6fa0b7b\n      swap1\n        /* \"#utility.yul\":911:929   */\n      0x24\n      add\n        /* \"TFGv3/Contracts/SCStorage.sol\":4456:4497  IProxy(proxyAddr).setStorageAddr(newAddr) */\n      0x00\n      mload(0x40)\n      dup1\n      dup4\n      sub\n      dup2\n      0x00\n      dup8\n      dup1\n      extcodesize\n      iszero\n      dup1\n      iszero\n      tag_113\n      jumpi\n      0x00\n      dup1\n      revert\n    tag_113:\n      pop\n      gas\n      call\n      iszero\n      dup1\n      iszero\n      tag_115\n      jumpi\n      returndatasize\n      0x00\n      dup1\n      returndatacopy\n      revert(0x00, returndatasize)\n    tag_115:\n      pop\n      pop\n        /* \"TFGv3/Contracts/SCStorage.sol\":4528:4587  abi.encodeWithSignature(\"initContract(address)\", proxyAddr) */\n      mload(0x40)\n      sub(shl(0xa0, 0x01), 0x01)\n        /* \"#utility.yul\":956:1011   */\n      dup5\n      dup2\n      and\n        /* \"TFGv3/Contracts/SCStorage.sol\":4528:4587  abi.encodeWithSignature(\"initContract(address)\", proxyAddr) */\n      0x24\n      dup4\n      add\n        /* \"#utility.yul\":938:1012   */\n      mstore\n        /* \"TFGv3/Contracts/SCStorage.sol\":4507:4527  newAddr.delegatecall */\n      dup6\n      and\n      swap3\n      pop\n        /* \"#utility.yul\":911:929   */\n      0x44\n      add\n      swap1\n      pop\n        /* \"TFGv3/Contracts/SCStorage.sol\":4528:4587  abi.encodeWithSignature(\"initContract(address)\", proxyAddr) */\n      0x40\n      dup1\n      mload\n      not(0x1f)\n      dup2\n      dup5\n      sub\n      add\n      dup2\n      mstore\n      swap2\n      dup2\n      mstore\n      0x20\n      dup3\n      add\n      dup1\n      mload\n      0xffffffffffffffffffffffffffffffffffffffffffffffffffffffff\n      and\n      0xcf9d4afa00000000000000000000000000000000000000000000000000000000\n      or\n      swap1\n      mstore\n        /* \"TFGv3/Contracts/SCStorage.sol\":4507:4588  newAddr.delegatecall(abi.encodeWithSignature(\"initContract(address)\", proxyAddr)) */\n      mload\n      tag_117\n      swap2\n        /* \"TFGv3/Contracts/SCStorage.sol\":4528:4587  abi.encodeWithSignature(\"initContract(address)\", proxyAddr) */\n      swap1\n        /* \"TFGv3/Contracts/SCStorage.sol\":4507:4588  newAddr.delegatecall(abi.encodeWithSignature(\"initContract(address)\", proxyAddr)) */\n      tag_118\n      jump\t// in\n    tag_117:\n      0x00\n      mload(0x40)\n      dup1\n      dup4\n      sub\n      dup2\n      dup6\n      gas\n      delegatecall\n      swap2\n      pop\n      pop\n      returndatasize\n      dup1\n      0x00\n      dup2\n      eq\n      tag_121\n      jumpi\n      mload(0x40)\n      swap2\n      pop\n      and(add(returndatasize, 0x3f), not(0x1f))\n      dup3\n      add\n      0x40\n      mstore\n      returndatasize\n      dup3\n      mstore\n      returndatasize\n      0x00\n      0x20\n      dup5\n      add\n      returndatacopy\n      jump(tag_120)\n    tag_121:\n      0x60\n      swap2\n      pop\n    tag_120:\n      pop\n      pop\n        /* \"TFGv3/Contracts/SCStorage.sol\":4607:4616  coinArray */\n      0x02\n        /* \"TFGv3/Contracts/SCStorage.sol\":4607:4623  coinArray.length */\n      sload\n      swap1\n      pop\n        /* \"TFGv3/Contracts/SCStorage.sol\":4598:4604  uint n */\n      0x00\n        /* \"TFGv3/Contracts/SCStorage.sol\":4633:4837  for(uint i = 0; i < n; i++)... */\n    tag_122:\n        /* \"TFGv3/Contracts/SCStorage.sol\":4653:4654  n */\n      dup2\n        /* \"TFGv3/Contracts/SCStorage.sol\":4649:4650  i */\n      dup2\n        /* \"TFGv3/Contracts/SCStorage.sol\":4649:4654  i < n */\n      lt\n        /* \"TFGv3/Contracts/SCStorage.sol\":4633:4837  for(uint i = 0; i < n; i++)... */\n      iszero\n      tag_123\n      jumpi\n        /* \"TFGv3/Contracts/SCStorage.sol\":4683:4706  address tokenToTransfer */\n      0x00\n        /* \"TFGv3/Contracts/SCStorage.sol\":4709:4718  coinArray */\n      0x02\n        /* \"TFGv3/Contracts/SCStorage.sol\":4719:4720  i */\n      dup3\n        /* \"TFGv3/Contracts/SCStorage.sol\":4709:4721  coinArray[i] */\n      dup2\n      sload\n      dup2\n      lt\n      tag_126\n      jumpi\n      tag_126\n      tag_127\n      jump\t// in\n    tag_126:\n      0x00\n      swap2\n      dup3\n      mstore\n      0x20\n      swap1\n      swap2\n      keccak256\n      add\n      sload\n        /* \"TFGv3/Contracts/SCStorage.sol\":4777:4825  IERC20(tokenToTransfer).balanceOf(address(this)) */\n      mload(0x40)\n      0x70a0823100000000000000000000000000000000000000000000000000000000\n      dup2\n      mstore\n        /* \"TFGv3/Contracts/SCStorage.sol\":4819:4823  this */\n      address\n        /* \"TFGv3/Contracts/SCStorage.sol\":4777:4825  IERC20(tokenToTransfer).balanceOf(address(this)) */\n      0x04\n      dup3\n      add\n        /* \"#utility.yul\":938:1012   */\n      mstore\n      sub(shl(0xa0, 0x01), 0x01)\n        /* \"TFGv3/Contracts/SCStorage.sol\":4709:4721  coinArray[i] */\n      swap1\n      swap2\n      and\n      swap2\n      pop\n      dup2\n      swap1\n        /* \"TFGv3/Contracts/SCStorage.sol\":4735:4767  IERC20(tokenToTransfer).transfer */\n      0xa9059cbb\n      swap1\n        /* \"TFGv3/Contracts/SCStorage.sol\":4768:4775  newAddr */\n      dup8\n      swap1\n        /* \"TFGv3/Contracts/SCStorage.sol\":4709:4721  coinArray[i] */\n      dup4\n      swap1\n        /* \"TFGv3/Contracts/SCStorage.sol\":4777:4810  IERC20(tokenToTransfer).balanceOf */\n      0x70a08231\n      swap1\n        /* \"#utility.yul\":911:929   */\n      0x24\n      add\n        /* \"TFGv3/Contracts/SCStorage.sol\":4777:4825  IERC20(tokenToTransfer).balanceOf(address(this)) */\n      0x20\n      mload(0x40)\n      dup1\n      dup4\n      sub\n      dup2\n      dup7\n      gas\n      staticcall\n      iszero\n      dup1\n      iszero\n      tag_131\n      jumpi\n      returndatasize\n      0x00\n      dup1\n      returndatacopy\n      revert(0x00, returndatasize)\n    tag_131:\n      pop\n      pop\n      pop\n      pop\n      mload(0x40)\n      returndatasize\n      not(0x1f)\n      0x1f\n      dup3\n      add\n      and\n      dup3\n      add\n      dup1\n      0x40\n      mstore\n      pop\n      dup2\n      add\n      swap1\n      tag_132\n      swap2\n      swap1\n      tag_133\n      jump\t// in\n    tag_132:\n        /* \"TFGv3/Contracts/SCStorage.sol\":4735:4826  IERC20(tokenToTransfer).transfer(newAddr, IERC20(tokenToTransfer).balanceOf(address(this))) */\n      mload(0x40)\n      0xffffffff00000000000000000000000000000000000000000000000000000000\n      0xe0\n      dup6\n      swap1\n      shl\n      and\n      dup2\n      mstore\n      sub(shl(0xa0, 0x01), 0x01)\n        /* \"#utility.yul\":3553:3608   */\n      swap1\n      swap3\n      and\n        /* \"TFGv3/Contracts/SCStorage.sol\":4735:4826  IERC20(tokenToTransfer).transfer(newAddr, IERC20(tokenToTransfer).balanceOf(address(this))) */\n      0x04\n      dup4\n      add\n        /* \"#utility.yul\":3535:3609   */\n      mstore\n        /* \"#utility.yul\":3625:3643   */\n      0x24\n      dup3\n      add\n        /* \"#utility.yul\":3618:3652   */\n      mstore\n        /* \"#utility.yul\":3508:3526   */\n      0x44\n      add\n        /* \"TFGv3/Contracts/SCStorage.sol\":4735:4826  IERC20(tokenToTransfer).transfer(newAddr, IERC20(tokenToTransfer).balanceOf(address(this))) */\n      0x20\n      mload(0x40)\n      dup1\n      dup4\n      sub\n      dup2\n      0x00\n      dup8\n      gas\n      call\n      iszero\n      dup1\n      iszero\n      tag_137\n      jumpi\n      returndatasize\n      0x00\n      dup1\n      returndatacopy\n      revert(0x00, returndatasize)\n    tag_137:\n      pop\n      pop\n      pop\n      pop\n      mload(0x40)\n      returndatasize\n      not(0x1f)\n      0x1f\n      dup3\n      add\n      and\n      dup3\n      add\n      dup1\n      0x40\n      mstore\n      pop\n      dup2\n      add\n      swap1\n      tag_138\n      swap2\n      swap1\n      tag_139\n      jump\t// in\n    tag_138:\n      pop\n        /* \"TFGv3/Contracts/SCStorage.sol\":4669:4837  {... */\n      pop\n        /* \"TFGv3/Contracts/SCStorage.sol\":4656:4659  i++ */\n      dup1\n      dup1\n      tag_140\n      swap1\n      tag_141\n      jump\t// in\n    tag_140:\n      swap2\n      pop\n      pop\n        /* \"TFGv3/Contracts/SCStorage.sol\":4633:4837  for(uint i = 0; i < n; i++)... */\n      jump(tag_122)\n    tag_123:\n      pop\n        /* \"TFGv3/Contracts/SCStorage.sol\":4867:4875  deployer */\n      immutable(\"0xcdf1dd2e8742ccca482be714f2ab38acb16e66300c9790cd19a8abbcdf150d1c\")\n      sub(shl(0xa0, 0x01), 0x01)\n        /* \"TFGv3/Contracts/SCStorage.sol\":4846:4877  selfdestruct(payable(deployer)) */\n      and\n      selfdestruct\n        /* \"TFGv3/Contracts/SCStorage.sol\":3714:4173  function delCoin(address coinAddr) external... */\n    tag_46:\n        /* \"TFGv3/Contracts/SCStorage.sol\":3780:3790  msg.sender */\n      caller\n      sub(shl(0xa0, 0x01), 0x01)\n        /* \"TFGv3/Contracts/SCStorage.sol\":3794:3802  deployer */\n      immutable(\"0xcdf1dd2e8742ccca482be714f2ab38acb16e66300c9790cd19a8abbcdf150d1c\")\n        /* \"TFGv3/Contracts/SCStorage.sol\":3780:3802  msg.sender == deployer */\n      and\n      eq\n      dup1\n        /* \"TFGv3/Contracts/SCStorage.sol\":3780:3852  msg.sender == deployer || msg.sender == IProxy(proxy).exchangeContract() */\n      tag_143\n      jumpi\n      pop\n        /* \"TFGv3/Contracts/SCStorage.sol\":3827:3832  proxy */\n      0x01\n      0x02\n      swap1\n      sload\n      swap1\n      0x0100\n      exp\n      swap1\n      div\n      sub(shl(0xa0, 0x01), 0x01)\n      and\n      sub(shl(0xa0, 0x01), 0x01)\n        /* \"TFGv3/Contracts/SCStorage.sol\":3820:3850  IProxy(proxy).exchangeContract */\n      and\n      0x3f0a0797\n        /* \"TFGv3/Contracts/SCStorage.sol\":3820:3852  IProxy(proxy).exchangeContract() */\n      mload(0x40)\n      dup2\n      0xffffffff\n      and\n      0xe0\n      shl\n      dup2\n      mstore\n      0x04\n      add\n      0x20\n      mload(0x40)\n      dup1\n      dup4\n      sub\n      dup2\n      dup7\n      gas\n      staticcall\n      iszero\n      dup1\n      iszero\n      tag_145\n      jumpi\n      returndatasize\n      0x00\n      dup1\n      returndatacopy\n      revert(0x00, returndatasize)\n    tag_145:\n      pop\n      pop\n      pop\n      pop\n      mload(0x40)\n      returndatasize\n      not(0x1f)\n      0x1f\n      dup3\n      add\n      and\n      dup3\n      add\n      dup1\n      0x40\n      mstore\n      pop\n      dup2\n      add\n      swap1\n      tag_146\n      swap2\n      swap1\n      tag_103\n      jump\t// in\n    tag_146:\n      sub(shl(0xa0, 0x01), 0x01)\n        /* \"TFGv3/Contracts/SCStorage.sol\":3806:3852  msg.sender == IProxy(proxy).exchangeContract() */\n      and\n        /* \"TFGv3/Contracts/SCStorage.sol\":3806:3816  msg.sender */\n      caller\n      sub(shl(0xa0, 0x01), 0x01)\n        /* \"TFGv3/Contracts/SCStorage.sol\":3806:3852  msg.sender == IProxy(proxy).exchangeContract() */\n      and\n      eq\n        /* \"TFGv3/Contracts/SCStorage.sol\":3780:3852  msg.sender == deployer || msg.sender == IProxy(proxy).exchangeContract() */\n    tag_143:\n        /* \"TFGv3/Contracts/SCStorage.sol\":3772:3853  require(msg.sender == deployer || msg.sender == IProxy(proxy).exchangeContract()) */\n      tag_147\n      jumpi\n      0x00\n      dup1\n      revert\n    tag_147:\n      sub(shl(0xa0, 0x01), 0x01)\n        /* \"TFGv3/Contracts/SCStorage.sol\":3866:3881  coins[coinAddr] */\n      dup2\n      and\n      0x00\n      swap1\n      dup2\n      mstore\n        /* \"TFGv3/Contracts/SCStorage.sol\":3866:3871  coins */\n      0x03\n        /* \"TFGv3/Contracts/SCStorage.sol\":3866:3881  coins[coinAddr] */\n      0x20\n      mstore\n      0x40\n      swap1\n      keccak256\n      sload\n        /* \"TFGv3/Contracts/SCStorage.sol\":3885:3886  2 */\n      0x02\n        /* \"TFGv3/Contracts/SCStorage.sol\":3866:3886  coins[coinAddr] == 2 */\n      sub\n        /* \"TFGv3/Contracts/SCStorage.sol\":3863:3897  if(coins[coinAddr] == 2) nStable-- */\n      tag_148\n      jumpi\n        /* \"TFGv3/Contracts/SCStorage.sol\":3888:3895  nStable */\n      0x01\n        /* \"TFGv3/Contracts/SCStorage.sol\":3888:3897  nStable-- */\n      dup1\n      sload\n      0x0100\n      swap1\n      div\n      0xff\n      and\n      swap1\n        /* \"TFGv3/Contracts/SCStorage.sol\":3888:3895  nStable */\n      dup1\n        /* \"TFGv3/Contracts/SCStorage.sol\":3888:3897  nStable-- */\n      tag_149\n      dup4\n      tag_150\n      jump\t// in\n    tag_149:\n      swap2\n      swap1\n      0x0100\n      exp\n      dup2\n      sload\n      dup2\n      0xff\n      mul\n      not\n      and\n      swap1\n      dup4\n      0xff\n      and\n      mul\n      or\n      swap1\n      sstore\n      pop\n      pop\n        /* \"TFGv3/Contracts/SCStorage.sol\":3863:3897  if(coins[coinAddr] == 2) nStable-- */\n    tag_148:\n      sub(shl(0xa0, 0x01), 0x01)\n        /* \"TFGv3/Contracts/SCStorage.sol\":3907:3922  coins[coinAddr] */\n      dup2\n      and\n        /* \"TFGv3/Contracts/SCStorage.sol\":3925:3926  0 */\n      0x00\n        /* \"TFGv3/Contracts/SCStorage.sol\":3907:3922  coins[coinAddr] */\n      swap1\n      dup2\n      mstore\n        /* \"TFGv3/Contracts/SCStorage.sol\":3907:3912  coins */\n      0x03\n        /* \"TFGv3/Contracts/SCStorage.sol\":3907:3922  coins[coinAddr] */\n      0x20\n      mstore\n      0x40\n      dup2\n      keccak256\n        /* \"TFGv3/Contracts/SCStorage.sol\":3907:3926  coins[coinAddr] = 0 */\n      dup2\n      swap1\n      sstore\n        /* \"TFGv3/Contracts/SCStorage.sol\":3945:3954  coinArray */\n      0x02\n        /* \"TFGv3/Contracts/SCStorage.sol\":3945:3961  coinArray.length */\n      sload\n      swap1\n        /* \"TFGv3/Contracts/SCStorage.sol\":3971:4167  for(uint i = 0; i < n; i++)... */\n    tag_151:\n        /* \"TFGv3/Contracts/SCStorage.sol\":3991:3992  n */\n      dup2\n        /* \"TFGv3/Contracts/SCStorage.sol\":3987:3988  i */\n      dup2\n        /* \"TFGv3/Contracts/SCStorage.sol\":3987:3992  i < n */\n      lt\n        /* \"TFGv3/Contracts/SCStorage.sol\":3971:4167  for(uint i = 0; i < n; i++)... */\n      iszero\n      tag_152\n      jumpi\n        /* \"TFGv3/Contracts/SCStorage.sol\":4040:4048  coinAddr */\n      dup3\n      sub(shl(0xa0, 0x01), 0x01)\n        /* \"TFGv3/Contracts/SCStorage.sol\":4024:4048  coinArray[i] == coinAddr */\n      and\n        /* \"TFGv3/Contracts/SCStorage.sol\":4024:4033  coinArray */\n      0x02\n        /* \"TFGv3/Contracts/SCStorage.sol\":4034:4035  i */\n      dup3\n        /* \"TFGv3/Contracts/SCStorage.sol\":4024:4036  coinArray[i] */\n      dup2\n      sload\n      dup2\n      lt\n      tag_155\n      jumpi\n      tag_155\n      tag_127\n      jump\t// in\n    tag_155:\n      0x00\n      swap2\n      dup3\n      mstore\n      0x20\n      swap1\n      swap2\n      keccak256\n      add\n      sload\n      sub(shl(0xa0, 0x01), 0x01)\n      and\n        /* \"TFGv3/Contracts/SCStorage.sol\":4024:4048  coinArray[i] == coinAddr */\n      sub\n        /* \"TFGv3/Contracts/SCStorage.sol\":4021:4157  if(coinArray[i] == coinAddr)... */\n      tag_157\n      jumpi\n        /* \"TFGv3/Contracts/SCStorage.sol\":4095:4104  coinArray */\n      0x02\n        /* \"TFGv3/Contracts/SCStorage.sol\":4105:4108  n-1 */\n      tag_158\n        /* \"TFGv3/Contracts/SCStorage.sol\":4107:4108  1 */\n      0x01\n        /* \"TFGv3/Contracts/SCStorage.sol\":4105:4106  n */\n      dup5\n        /* \"TFGv3/Contracts/SCStorage.sol\":4105:4108  n-1 */\n      tag_108\n      jump\t// in\n    tag_158:\n        /* \"TFGv3/Contracts/SCStorage.sol\":4095:4109  coinArray[n-1] */\n      dup2\n      sload\n      dup2\n      lt\n      tag_160\n      jumpi\n      tag_160\n      tag_127\n      jump\t// in\n    tag_160:\n      0x00\n      swap2\n      dup3\n      mstore\n      0x20\n      swap1\n      swap2\n      keccak256\n      add\n      sload\n        /* \"TFGv3/Contracts/SCStorage.sol\":4080:4089  coinArray */\n      0x02\n        /* \"TFGv3/Contracts/SCStorage.sol\":4080:4092  coinArray[i] */\n      dup1\n      sload\n      sub(shl(0xa0, 0x01), 0x01)\n        /* \"TFGv3/Contracts/SCStorage.sol\":4095:4109  coinArray[n-1] */\n      swap1\n      swap3\n      and\n      swap2\n        /* \"TFGv3/Contracts/SCStorage.sol\":4090:4091  i */\n      dup4\n      swap1\n        /* \"TFGv3/Contracts/SCStorage.sol\":4080:4092  coinArray[i] */\n      dup2\n      lt\n      tag_163\n      jumpi\n      tag_163\n      tag_127\n      jump\t// in\n    tag_163:\n      swap1\n      0x00\n      mstore\n      keccak256(0x00, 0x20)\n      add\n      0x00\n        /* \"TFGv3/Contracts/SCStorage.sol\":4080:4109  coinArray[i] = coinArray[n-1] */\n      0x0100\n      exp\n      dup2\n      sload\n      dup2\n      sub(shl(0xa0, 0x01), 0x01)\n      mul\n      not\n      and\n      swap1\n      dup4\n      sub(shl(0xa0, 0x01), 0x01)\n      and\n      mul\n      or\n      swap1\n      sstore\n      pop\n        /* \"TFGv3/Contracts/SCStorage.sol\":4127:4136  coinArray */\n      0x02\n        /* \"TFGv3/Contracts/SCStorage.sol\":4127:4142  coinArray.pop() */\n      dup1\n      sload\n      dup1\n      tag_166\n      jumpi\n      tag_166\n      tag_167\n      jump\t// in\n    tag_166:\n      0x00\n      dup3\n      dup2\n      mstore\n      0x20\n      swap1\n      keccak256\n      dup2\n      add\n      not(0x00)\n      swap1\n      dup2\n      add\n      dup1\n      sload\n      0xffffffffffffffffffffffff0000000000000000000000000000000000000000\n      and\n      swap1\n      sstore\n      add\n      swap1\n      sstore\n        /* \"TFGv3/Contracts/SCStorage.sol\":4021:4157  if(coinArray[i] == coinAddr)... */\n    tag_157:\n        /* \"TFGv3/Contracts/SCStorage.sol\":3994:3997  i++ */\n      dup1\n      tag_169\n      dup2\n      tag_141\n      jump\t// in\n    tag_169:\n      swap2\n      pop\n      pop\n        /* \"TFGv3/Contracts/SCStorage.sol\":3971:4167  for(uint i = 0; i < n; i++)... */\n      jump(tag_151)\n    tag_152:\n      pop\n        /* \"TFGv3/Contracts/SCStorage.sol\":3762:4173  {... */\n      pop\n        /* \"TFGv3/Contracts/SCStorage.sol\":3714:4173  function delCoin(address coinAddr) external... */\n      pop\n      jump\t// out\n        /* \"TFGv3/Contracts/SCStorage.sol\":308:334  address[] public coinArray */\n    tag_54:\n      0x02\n      dup2\n      dup2\n      sload\n      dup2\n      lt\n      tag_170\n      jumpi\n      0x00\n      dup1\n      revert\n    tag_170:\n      0x00\n      swap2\n      dup3\n      mstore\n      0x20\n      swap1\n      swap2\n      keccak256\n      add\n      sload\n      sub(shl(0xa0, 0x01), 0x01)\n      and\n      swap1\n      pop\n      dup2\n      jump\t// out\n        /* \"TFGv3/Contracts/SCStorage.sol\":1216:1988  function transferFunds(address to, uint totalToTransfer) external virtual override returns (bool)... */\n    tag_65:\n        /* \"TFGv3/Contracts/SCStorage.sol\":1308:1312  bool */\n      0x00\n        /* \"TFGv3/Contracts/SCStorage.sol\":1328:1345  address proxyAddr */\n      dup1\n        /* \"TFGv3/Contracts/SCStorage.sol\":1348:1353  proxy */\n      0x01\n      0x02\n      swap1\n      sload\n      swap1\n      0x0100\n      exp\n      swap1\n      div\n      sub(shl(0xa0, 0x01), 0x01)\n      and\n        /* \"TFGv3/Contracts/SCStorage.sol\":1328:1353  address proxyAddr = proxy */\n      swap1\n      pop\n        /* \"TFGv3/Contracts/SCStorage.sol\":1392:1401  proxyAddr */\n      dup1\n      sub(shl(0xa0, 0x01), 0x01)\n        /* \"TFGv3/Contracts/SCStorage.sol\":1385:1419  IProxy(proxyAddr).exchangeContract */\n      and\n      0x3f0a0797\n        /* \"TFGv3/Contracts/SCStorage.sol\":1385:1421  IProxy(proxyAddr).exchangeContract() */\n      mload(0x40)\n      dup2\n      0xffffffff\n      and\n      0xe0\n      shl\n      dup2\n      mstore\n      0x04\n      add\n      0x20\n      mload(0x40)\n      dup1\n      dup4\n      sub\n      dup2\n      dup7\n      gas\n      staticcall\n      iszero\n      dup1\n      iszero\n      tag_174\n      jumpi\n      returndatasize\n      0x00\n      dup1\n      returndatacopy\n      revert(0x00, returndatasize)\n    tag_174:\n      pop\n      pop\n      pop\n      pop\n      mload(0x40)\n      returndatasize\n      not(0x1f)\n      0x1f\n      dup3\n      add\n      and\n      dup3\n      add\n      dup1\n      0x40\n      mstore\n      pop\n      dup2\n      add\n      swap1\n      tag_175\n      swap2\n      swap1\n      tag_103\n      jump\t// in\n    tag_175:\n      sub(shl(0xa0, 0x01), 0x01)\n        /* \"TFGv3/Contracts/SCStorage.sol\":1371:1421  msg.sender == IProxy(proxyAddr).exchangeContract() */\n      and\n        /* \"TFGv3/Contracts/SCStorage.sol\":1371:1381  msg.sender */\n      caller\n      sub(shl(0xa0, 0x01), 0x01)\n        /* \"TFGv3/Contracts/SCStorage.sol\":1371:1421  msg.sender == IProxy(proxyAddr).exchangeContract() */\n      and\n      eq\n        /* \"TFGv3/Contracts/SCStorage.sol\":1371:1477  msg.sender == IProxy(proxyAddr).exchangeContract() || msg.sender == IProxy(proxyAddr).commissionContract() */\n      dup1\n      tag_176\n      jumpi\n      pop\n        /* \"TFGv3/Contracts/SCStorage.sol\":1446:1455  proxyAddr */\n      dup1\n      sub(shl(0xa0, 0x01), 0x01)\n        /* \"TFGv3/Contracts/SCStorage.sol\":1439:1475  IProxy(proxyAddr).commissionContract */\n      and\n      0xda8909e5\n        /* \"TFGv3/Contracts/SCStorage.sol\":1439:1477  IProxy(proxyAddr).commissionContract() */\n      mload(0x40)\n      dup2\n      0xffffffff\n      and\n      0xe0\n      shl\n      dup2\n      mstore\n      0x04\n      add\n      0x20\n      mload(0x40)\n      dup1\n      dup4\n      sub\n      dup2\n      dup7\n      gas\n      staticcall\n      iszero\n      dup1\n      iszero\n      tag_178\n      jumpi\n      returndatasize\n      0x00\n      dup1\n      returndatacopy\n      revert(0x00, returndatasize)\n    tag_178:\n      pop\n      pop\n      pop\n      pop\n      mload(0x40)\n      returndatasize\n      not(0x1f)\n      0x1f\n      dup3\n      add\n      and\n      dup3\n      add\n      dup1\n      0x40\n      mstore\n      pop\n      dup2\n      add\n      swap1\n      tag_179\n      swap2\n      swap1\n      tag_103\n      jump\t// in\n    tag_179:\n      sub(shl(0xa0, 0x01), 0x01)\n        /* \"TFGv3/Contracts/SCStorage.sol\":1425:1477  msg.sender == IProxy(proxyAddr).commissionContract() */\n      and\n        /* \"TFGv3/Contracts/SCStorage.sol\":1425:1435  msg.sender */\n      caller\n      sub(shl(0xa0, 0x01), 0x01)\n        /* \"TFGv3/Contracts/SCStorage.sol\":1425:1477  msg.sender == IProxy(proxyAddr).commissionContract() */\n      and\n      eq\n        /* \"TFGv3/Contracts/SCStorage.sol\":1371:1477  msg.sender == IProxy(proxyAddr).exchangeContract() || msg.sender == IProxy(proxyAddr).commissionContract() */\n    tag_176:\n        /* \"TFGv3/Contracts/SCStorage.sol\":1363:1478  require(msg.sender == IProxy(proxyAddr).exchangeContract() || msg.sender == IProxy(proxyAddr).commissionContract()) */\n      tag_180\n      jumpi\n      0x00\n      dup1\n      revert\n    tag_180:\n        /* \"TFGv3/Contracts/SCStorage.sol\":1497:1506  coinArray */\n      0x02\n        /* \"TFGv3/Contracts/SCStorage.sol\":1497:1513  coinArray.length */\n      sload\n        /* \"TFGv3/Contracts/SCStorage.sol\":1488:1494  uint n */\n      0x00\n        /* \"TFGv3/Contracts/SCStorage.sol\":1532:1961  for(uint i = 0; i < n; i++)... */\n    tag_181:\n        /* \"TFGv3/Contracts/SCStorage.sol\":1552:1553  n */\n      dup2\n        /* \"TFGv3/Contracts/SCStorage.sol\":1548:1549  i */\n      dup2\n        /* \"TFGv3/Contracts/SCStorage.sol\":1548:1553  i < n */\n      lt\n        /* \"TFGv3/Contracts/SCStorage.sol\":1532:1961  for(uint i = 0; i < n; i++)... */\n      iszero\n      tag_182\n      jumpi\n        /* \"TFGv3/Contracts/SCStorage.sol\":1582:1598  address coinAddr */\n      0x00\n        /* \"TFGv3/Contracts/SCStorage.sol\":1601:1610  coinArray */\n      0x02\n        /* \"TFGv3/Contracts/SCStorage.sol\":1611:1612  i */\n      dup3\n        /* \"TFGv3/Contracts/SCStorage.sol\":1601:1613  coinArray[i] */\n      dup2\n      sload\n      dup2\n      lt\n      tag_185\n      jumpi\n      tag_185\n      tag_127\n      jump\t// in\n    tag_185:\n      0x00\n      swap2\n      dup3\n      mstore\n      0x20\n      dup1\n      dup4\n      keccak256\n      swap1\n      swap2\n      add\n      sload\n      sub(shl(0xa0, 0x01), 0x01)\n      and\n        /* \"TFGv3/Contracts/SCStorage.sol\":1630:1645  coins[coinAddr] */\n      dup1\n      dup4\n      mstore\n        /* \"TFGv3/Contracts/SCStorage.sol\":1630:1635  coins */\n      0x03\n        /* \"TFGv3/Contracts/SCStorage.sol\":1630:1645  coins[coinAddr] */\n      swap1\n      swap2\n      mstore\n      0x40\n      swap1\n      swap2\n      keccak256\n      sload\n        /* \"TFGv3/Contracts/SCStorage.sol\":1601:1613  coinArray[i] */\n      swap1\n      swap2\n      pop\n        /* \"TFGv3/Contracts/SCStorage.sol\":1649:1650  2 */\n      0x02\n        /* \"TFGv3/Contracts/SCStorage.sol\":1630:1650  coins[coinAddr] == 2 */\n      sub\n        /* \"TFGv3/Contracts/SCStorage.sol\":1627:1951  if(coins[coinAddr] == 2)... */\n      tag_187\n      jumpi\n        /* \"TFGv3/Contracts/SCStorage.sol\":1682:1696  uint8 decimals */\n      0x00\n        /* \"TFGv3/Contracts/SCStorage.sol\":1706:1714  coinAddr */\n      dup2\n      sub(shl(0xa0, 0x01), 0x01)\n        /* \"TFGv3/Contracts/SCStorage.sol\":1699:1724  IERC20(coinAddr).decimals */\n      and\n      0x313ce567\n        /* \"TFGv3/Contracts/SCStorage.sol\":1699:1726  IERC20(coinAddr).decimals() */\n      mload(0x40)\n      dup2\n      0xffffffff\n      and\n      0xe0\n      shl\n      dup2\n      mstore\n      0x04\n      add\n      0x20\n      mload(0x40)\n      dup1\n      dup4\n      sub\n      dup2\n      dup7\n      gas\n      staticcall\n      iszero\n      dup1\n      iszero\n      tag_189\n      jumpi\n      returndatasize\n      0x00\n      dup1\n      returndatacopy\n      revert(0x00, returndatasize)\n    tag_189:\n      pop\n      pop\n      pop\n      pop\n      mload(0x40)\n      returndatasize\n      not(0x1f)\n      0x1f\n      dup3\n      add\n      and\n      dup3\n      add\n      dup1\n      0x40\n      mstore\n      pop\n      dup2\n      add\n      swap1\n      tag_190\n      swap2\n      swap1\n      tag_191\n      jump\t// in\n    tag_190:\n        /* \"TFGv3/Contracts/SCStorage.sol\":1682:1726  uint8 decimals = IERC20(coinAddr).decimals() */\n      swap1\n      pop\n        /* \"TFGv3/Contracts/SCStorage.sol\":1758:1760  18 */\n      0x12\n        /* \"TFGv3/Contracts/SCStorage.sol\":1747:1755  decimals */\n      dup2\n        /* \"TFGv3/Contracts/SCStorage.sol\":1747:1760  decimals < 18 */\n      0xff\n      and\n      lt\n        /* \"TFGv3/Contracts/SCStorage.sol\":1744:1936  if(decimals < 18) IERC20(coinAddr).transfer(to, totalToTransfer/nStable/10**(uint(decimals)-18));... */\n      iszero\n      tag_192\n      jumpi\n      sub(shl(0xa0, 0x01), 0x01)\n        /* \"TFGv3/Contracts/SCStorage.sol\":1762:1787  IERC20(coinAddr).transfer */\n      dup3\n      and\n      0xa9059cbb\n        /* \"TFGv3/Contracts/SCStorage.sol\":1788:1790  to */\n      dup10\n        /* \"TFGv3/Contracts/SCStorage.sol\":1821:1838  uint(decimals)-18 */\n      tag_193\n        /* \"TFGv3/Contracts/SCStorage.sol\":1836:1838  18 */\n      0x12\n        /* \"TFGv3/Contracts/SCStorage.sol\":1821:1835  uint(decimals) */\n      0xff\n      dup7\n      and\n        /* \"TFGv3/Contracts/SCStorage.sol\":1821:1838  uint(decimals)-18 */\n      tag_108\n      jump\t// in\n    tag_193:\n        /* \"TFGv3/Contracts/SCStorage.sol\":1816:1839  10**(uint(decimals)-18) */\n      tag_194\n      swap1\n        /* \"TFGv3/Contracts/SCStorage.sol\":1816:1818  10 */\n      0x0a\n        /* \"TFGv3/Contracts/SCStorage.sol\":1816:1839  10**(uint(decimals)-18) */\n      tag_195\n      jump\t// in\n    tag_194:\n        /* \"TFGv3/Contracts/SCStorage.sol\":1808:1815  nStable */\n      sload(0x01)\n        /* \"TFGv3/Contracts/SCStorage.sol\":1792:1815  totalToTransfer/nStable */\n      tag_196\n      swap1\n        /* \"TFGv3/Contracts/SCStorage.sol\":1808:1815  nStable */\n      0x0100\n      swap1\n      div\n      0xff\n      and\n        /* \"TFGv3/Contracts/SCStorage.sol\":1792:1807  totalToTransfer */\n      dup13\n        /* \"TFGv3/Contracts/SCStorage.sol\":1792:1815  totalToTransfer/nStable */\n      tag_197\n      jump\t// in\n    tag_196:\n        /* \"TFGv3/Contracts/SCStorage.sol\":1792:1839  totalToTransfer/nStable/10**(uint(decimals)-18) */\n      tag_198\n      swap2\n      swap1\n      tag_197\n      jump\t// in\n    tag_198:\n        /* \"TFGv3/Contracts/SCStorage.sol\":1762:1840  IERC20(coinAddr).transfer(to, totalToTransfer/nStable/10**(uint(decimals)-18)) */\n      mload(0x40)\n      0xffffffff00000000000000000000000000000000000000000000000000000000\n      0xe0\n      dup6\n      swap1\n      shl\n      and\n      dup2\n      mstore\n      sub(shl(0xa0, 0x01), 0x01)\n        /* \"#utility.yul\":3553:3608   */\n      swap1\n      swap3\n      and\n        /* \"TFGv3/Contracts/SCStorage.sol\":1762:1840  IERC20(coinAddr).transfer(to, totalToTransfer/nStable/10**(uint(decimals)-18)) */\n      0x04\n      dup4\n      add\n        /* \"#utility.yul\":3535:3609   */\n      mstore\n        /* \"#utility.yul\":3625:3643   */\n      0x24\n      dup3\n      add\n        /* \"#utility.yul\":3618:3652   */\n      mstore\n        /* \"#utility.yul\":3508:3526   */\n      0x44\n      add\n        /* \"TFGv3/Contracts/SCStorage.sol\":1762:1840  IERC20(coinAddr).transfer(to, totalToTransfer/nStable/10**(uint(decimals)-18)) */\n      0x20\n      mload(0x40)\n      dup1\n      dup4\n      sub\n      dup2\n      0x00\n      dup8\n      gas\n      call\n      iszero\n      dup1\n      iszero\n      tag_201\n      jumpi\n      returndatasize\n      0x00\n      dup1\n      returndatacopy\n      revert(0x00, returndatasize)\n    tag_201:\n      pop\n      pop\n      pop\n      pop\n      mload(0x40)\n      returndatasize\n      not(0x1f)\n      0x1f\n      dup3\n      add\n      and\n      dup3\n      add\n      dup1\n      0x40\n      mstore\n      pop\n      dup2\n      add\n      swap1\n      tag_202\n      swap2\n      swap1\n      tag_139\n      jump\t// in\n    tag_202:\n      pop\n        /* \"TFGv3/Contracts/SCStorage.sol\":1744:1936  if(decimals < 18) IERC20(coinAddr).transfer(to, totalToTransfer/nStable/10**(uint(decimals)-18));... */\n      jump(tag_204)\n    tag_192:\n        /* \"TFGv3/Contracts/SCStorage.sol\":1866:1874  decimals */\n      dup1\n        /* \"TFGv3/Contracts/SCStorage.sol\":1866:1880  decimals == 18 */\n      0xff\n      and\n        /* \"TFGv3/Contracts/SCStorage.sol\":1878:1880  18 */\n      0x12\n        /* \"TFGv3/Contracts/SCStorage.sol\":1866:1880  decimals == 18 */\n      sub\n        /* \"TFGv3/Contracts/SCStorage.sol\":1863:1936  if(decimals == 18) IERC20(coinAddr).transfer(to, totalToTransfer/nStable) */\n      tag_204\n      jumpi\n        /* \"TFGv3/Contracts/SCStorage.sol\":1928:1935  nStable */\n      sload(0x01)\n      sub(shl(0xa0, 0x01), 0x01)\n        /* \"TFGv3/Contracts/SCStorage.sol\":1882:1907  IERC20(coinAddr).transfer */\n      dup4\n      and\n      swap1\n      0xa9059cbb\n      swap1\n        /* \"TFGv3/Contracts/SCStorage.sol\":1908:1910  to */\n      dup11\n      swap1\n        /* \"TFGv3/Contracts/SCStorage.sol\":1912:1935  totalToTransfer/nStable */\n      tag_205\n      swap1\n        /* \"TFGv3/Contracts/SCStorage.sol\":1928:1935  nStable */\n      0x0100\n      swap1\n      div\n      0xff\n      and\n        /* \"TFGv3/Contracts/SCStorage.sol\":1912:1927  totalToTransfer */\n      dup12\n        /* \"TFGv3/Contracts/SCStorage.sol\":1912:1935  totalToTransfer/nStable */\n      tag_197\n      jump\t// in\n    tag_205:\n        /* \"TFGv3/Contracts/SCStorage.sol\":1882:1936  IERC20(coinAddr).transfer(to, totalToTransfer/nStable) */\n      mload(0x40)\n      0xffffffff00000000000000000000000000000000000000000000000000000000\n      0xe0\n      dup6\n      swap1\n      shl\n      and\n      dup2\n      mstore\n      sub(shl(0xa0, 0x01), 0x01)\n        /* \"#utility.yul\":3553:3608   */\n      swap1\n      swap3\n      and\n        /* \"TFGv3/Contracts/SCStorage.sol\":1882:1936  IERC20(coinAddr).transfer(to, totalToTransfer/nStable) */\n      0x04\n      dup4\n      add\n        /* \"#utility.yul\":3535:3609   */\n      mstore\n        /* \"#utility.yul\":3625:3643   */\n      0x24\n      dup3\n      add\n        /* \"#utility.yul\":3618:3652   */\n      mstore\n        /* \"#utility.yul\":3508:3526   */\n      0x44\n      add\n        /* \"TFGv3/Contracts/SCStorage.sol\":1882:1936  IERC20(coinAddr).transfer(to, totalToTransfer/nStable) */\n      0x20\n      mload(0x40)\n      dup1\n      dup4\n      sub\n      dup2\n      0x00\n      dup8\n      gas\n      call\n      iszero\n      dup1\n      iszero\n      tag_208\n      jumpi\n      returndatasize\n      0x00\n      dup1\n      returndatacopy\n      revert(0x00, returndatasize)\n    tag_208:\n      pop\n      pop\n      pop\n      pop\n      mload(0x40)\n      returndatasize\n      not(0x1f)\n      0x1f\n      dup3\n      add\n      and\n      dup3\n      add\n      dup1\n      0x40\n      mstore\n      pop\n      dup2\n      add\n      swap1\n      tag_209\n      swap2\n      swap1\n      tag_139\n      jump\t// in\n    tag_209:\n      pop\n        /* \"TFGv3/Contracts/SCStorage.sol\":1863:1936  if(decimals == 18) IERC20(coinAddr).transfer(to, totalToTransfer/nStable) */\n    tag_204:\n        /* \"TFGv3/Contracts/SCStorage.sol\":1664:1951  {... */\n      pop\n        /* \"TFGv3/Contracts/SCStorage.sol\":1627:1951  if(coins[coinAddr] == 2)... */\n    tag_187:\n      pop\n        /* \"TFGv3/Contracts/SCStorage.sol\":1555:1558  i++ */\n      dup1\n      tag_210\n      dup2\n      tag_141\n      jump\t// in\n    tag_210:\n      swap2\n      pop\n      pop\n        /* \"TFGv3/Contracts/SCStorage.sol\":1532:1961  for(uint i = 0; i < n; i++)... */\n      jump(tag_181)\n    tag_182:\n      pop\n        /* \"TFGv3/Contracts/SCStorage.sol\":1977:1981  true */\n      0x01\n        /* \"TFGv3/Contracts/SCStorage.sol\":1970:1981  return true */\n      swap3\n      pop\n      pop\n      pop\n        /* \"TFGv3/Contracts/SCStorage.sol\":1216:1988  function transferFunds(address to, uint totalToTransfer) external virtual override returns (bool)... */\n    tag_172:\n      swap3\n      swap2\n      pop\n      pop\n      jump\t// out\n        /* \"TFGv3/Contracts/SCStorage.sol\":4179:4317  function updateProxy(address newAddr) external virtual override... */\n    tag_71:\n        /* \"TFGv3/Contracts/SCStorage.sol\":4279:4284  proxy */\n      sload(0x01)\n      0x010000\n      swap1\n      div\n      sub(shl(0xa0, 0x01), 0x01)\n      and\n        /* \"TFGv3/Contracts/SCStorage.sol\":4265:4275  msg.sender */\n      caller\n        /* \"TFGv3/Contracts/SCStorage.sol\":4265:4284  msg.sender == proxy */\n      eq\n        /* \"TFGv3/Contracts/SCStorage.sol\":4257:4285  require(msg.sender == proxy) */\n      tag_212\n      jumpi\n      0x00\n      dup1\n      revert\n    tag_212:\n        /* \"TFGv3/Contracts/SCStorage.sol\":4295:4300  proxy */\n      0x01\n        /* \"TFGv3/Contracts/SCStorage.sol\":4295:4310  proxy = newAddr */\n      dup1\n      sload\n      sub(shl(0xa0, 0x01), 0x01)\n      swap1\n      swap3\n      and\n      0x010000\n      mul\n      0xffffffffffffffffffff0000000000000000000000000000000000000000ffff\n      swap1\n      swap3\n      and\n      swap2\n      swap1\n      swap2\n      or\n      swap1\n      sstore\n        /* \"TFGv3/Contracts/SCStorage.sol\":4179:4317  function updateProxy(address newAddr) external virtual override... */\n      jump\t// out\n        /* \"TFGv3/Contracts/SCStorage.sol\":3438:3704  function addCoin(address coinAddr, uint stable) external  OnlyDeployer... */\n    tag_75:\n        /* \"TFGv3/Contracts/SCStorage.sol\":717:727  msg.sender */\n      caller\n      sub(shl(0xa0, 0x01), 0x01)\n        /* \"TFGv3/Contracts/SCStorage.sol\":731:739  deployer */\n      immutable(\"0xcdf1dd2e8742ccca482be714f2ab38acb16e66300c9790cd19a8abbcdf150d1c\")\n        /* \"TFGv3/Contracts/SCStorage.sol\":717:739  msg.sender == deployer */\n      and\n      eq\n        /* \"TFGv3/Contracts/SCStorage.sol\":709:740  require(msg.sender == deployer) */\n      tag_214\n      jumpi\n      0x00\n      dup1\n      revert\n    tag_214:\n        /* \"TFGv3/Contracts/SCStorage.sol\":3526:3532  stable */\n      dup1\n        /* \"TFGv3/Contracts/SCStorage.sol\":3536:3537  0 */\n      0x00\n        /* \"TFGv3/Contracts/SCStorage.sol\":3526:3537  stable == 0 */\n      sub\n        /* \"TFGv3/Contracts/SCStorage.sol\":3523:3664  if(stable == 0) coins[coinAddr] = 1;... */\n      tag_216\n      jumpi\n      sub(shl(0xa0, 0x01), 0x01)\n        /* \"TFGv3/Contracts/SCStorage.sol\":3539:3554  coins[coinAddr] */\n      dup3\n      and\n      0x00\n      swap1\n      dup2\n      mstore\n        /* \"TFGv3/Contracts/SCStorage.sol\":3539:3544  coins */\n      0x03\n        /* \"TFGv3/Contracts/SCStorage.sol\":3539:3554  coins[coinAddr] */\n      0x20\n      mstore\n      0x40\n      swap1\n      keccak256\n        /* \"TFGv3/Contracts/SCStorage.sol\":3557:3558  1 */\n      0x01\n        /* \"TFGv3/Contracts/SCStorage.sol\":3539:3558  coins[coinAddr] = 1 */\n      swap1\n      sstore\n        /* \"TFGv3/Contracts/SCStorage.sol\":3523:3664  if(stable == 0) coins[coinAddr] = 1;... */\n      jump(tag_218)\n    tag_216:\n        /* \"TFGv3/Contracts/SCStorage.sol\":3576:3582  stable */\n      dup1\n        /* \"TFGv3/Contracts/SCStorage.sol\":3586:3587  1 */\n      0x01\n        /* \"TFGv3/Contracts/SCStorage.sol\":3576:3587  stable == 1 */\n      sub\n        /* \"TFGv3/Contracts/SCStorage.sol\":3573:3664  if(stable == 1)... */\n      tag_218\n      jumpi\n      sub(shl(0xa0, 0x01), 0x01)\n        /* \"TFGv3/Contracts/SCStorage.sol\":3611:3626  coins[coinAddr] */\n      dup3\n      and\n      0x00\n      swap1\n      dup2\n      mstore\n        /* \"TFGv3/Contracts/SCStorage.sol\":3611:3616  coins */\n      0x03\n        /* \"TFGv3/Contracts/SCStorage.sol\":3611:3626  coins[coinAddr] */\n      0x20\n      mstore\n      0x40\n      swap1\n      keccak256\n        /* \"TFGv3/Contracts/SCStorage.sol\":3629:3630  2 */\n      0x02\n        /* \"TFGv3/Contracts/SCStorage.sol\":3611:3630  coins[coinAddr] = 2 */\n      swap1\n      sstore\n        /* \"TFGv3/Contracts/SCStorage.sol\":3644:3651  nStable */\n      0x01\n        /* \"TFGv3/Contracts/SCStorage.sol\":3644:3653  nStable++ */\n      dup1\n      sload\n      0x0100\n      swap1\n      div\n      0xff\n      and\n      swap1\n        /* \"TFGv3/Contracts/SCStorage.sol\":3644:3651  nStable */\n      dup1\n        /* \"TFGv3/Contracts/SCStorage.sol\":3644:3653  nStable++ */\n      tag_219\n      dup4\n      tag_220\n      jump\t// in\n    tag_219:\n      swap2\n      swap1\n      0x0100\n      exp\n      dup2\n      sload\n      dup2\n      0xff\n      mul\n      not\n      and\n      swap1\n      dup4\n      0xff\n      and\n      mul\n      or\n      swap1\n      sstore\n      pop\n      pop\n        /* \"TFGv3/Contracts/SCStorage.sol\":3573:3664  if(stable == 1)... */\n    tag_218:\n      pop\n        /* \"TFGv3/Contracts/SCStorage.sol\":3673:3682  coinArray */\n      0x02\n        /* \"TFGv3/Contracts/SCStorage.sol\":3673:3697  coinArray.push(coinAddr) */\n      dup1\n      sload\n      0x01\n      dup2\n      add\n      dup3\n      sstore\n      0x00\n      swap2\n      swap1\n      swap2\n      mstore\n      0x405787fa12a823e0f2b7631cc41b3ba8828b3321ca811111fa75cd3aa3bb5ace\n      add\n      dup1\n      sload\n      0xffffffffffffffffffffffff0000000000000000000000000000000000000000\n      and\n      sub(shl(0xa0, 0x01), 0x01)\n      swap3\n      swap1\n      swap3\n      and\n      swap2\n      swap1\n      swap2\n      or\n      swap1\n      sstore\n        /* \"TFGv3/Contracts/SCStorage.sol\":3438:3704  function addCoin(address coinAddr, uint stable) external  OnlyDeployer... */\n      jump\t// out\n        /* \"TFGv3/Contracts/SCStorage.sol\":843:974  function initContract(address proxyAddr) external OnlyDeployer NonInit... */\n    tag_79:\n        /* \"TFGv3/Contracts/SCStorage.sol\":717:727  msg.sender */\n      caller\n      sub(shl(0xa0, 0x01), 0x01)\n        /* \"TFGv3/Contracts/SCStorage.sol\":731:739  deployer */\n      immutable(\"0xcdf1dd2e8742ccca482be714f2ab38acb16e66300c9790cd19a8abbcdf150d1c\")\n        /* \"TFGv3/Contracts/SCStorage.sol\":717:739  msg.sender == deployer */\n      and\n      eq\n        /* \"TFGv3/Contracts/SCStorage.sol\":709:740  require(msg.sender == deployer) */\n      tag_223\n      jumpi\n      0x00\n      dup1\n      revert\n    tag_223:\n        /* \"TFGv3/Contracts/SCStorage.sol\":805:813  initDone */\n      and(0xff, sload(0x01))\n        /* \"TFGv3/Contracts/SCStorage.sol\":805:818  initDone == 0 */\n      iszero\n        /* \"TFGv3/Contracts/SCStorage.sol\":797:819  require(initDone == 0) */\n      tag_225\n      jumpi\n      0x00\n      dup1\n      revert\n    tag_225:\n        /* \"TFGv3/Contracts/SCStorage.sol\":928:933  proxy */\n      0x01\n        /* \"TFGv3/Contracts/SCStorage.sol\":928:945  proxy = proxyAddr */\n      dup1\n      sload\n        /* \"TFGv3/Contracts/SCStorage.sol\":955:967  initDone = 1 */\n      0xffffffffffffffffffff0000000000000000000000000000000000000000ff00\n      and\n        /* \"TFGv3/Contracts/SCStorage.sol\":928:945  proxy = proxyAddr */\n      0x010000\n      sub(shl(0xa0, 0x01), 0x01)\n      swap4\n      swap1\n      swap4\n      and\n      swap3\n      swap1\n      swap3\n      mul\n        /* \"TFGv3/Contracts/SCStorage.sol\":955:967  initDone = 1 */\n      0xffffffffffffffffffffffffffffffffffffffffffffffffffffffffffffff00\n      and\n      swap2\n      swap1\n      swap2\n      or\n      dup2\n      or\n      swap1\n      sstore\n        /* \"TFGv3/Contracts/SCStorage.sol\":843:974  function initContract(address proxyAddr) external OnlyDeployer NonInit... */\n      jump\t// out\n        /* \"TFGv3/Contracts/SCStorage.sol\":1998:2528  function oracleNAV() external view returns (uint, uint)... */\n    tag_87:\n        /* \"TFGv3/Contracts/SCStorage.sol\":2042:2046  uint */\n      0x00\n        /* \"TFGv3/Contracts/SCStorage.sol\":2048:2052  uint */\n      dup1\n        /* \"TFGv3/Contracts/SCStorage.sol\":2297:2313  uint lastUpdated */\n      0x00\n        /* \"TFGv3/Contracts/SCStorage.sol\":2337:2342  proxy */\n      0x01\n      0x02\n      swap1\n      sload\n      swap1\n      0x0100\n      exp\n      swap1\n      div\n      sub(shl(0xa0, 0x01), 0x01)\n      and\n      sub(shl(0xa0, 0x01), 0x01)\n        /* \"TFGv3/Contracts/SCStorage.sol\":2330:2362  IProxy(proxy).commissionContract */\n      and\n      0xda8909e5\n        /* \"TFGv3/Contracts/SCStorage.sol\":2330:2364  IProxy(proxy).commissionContract() */\n      mload(0x40)\n      dup2\n      0xffffffff\n      and\n      0xe0\n      shl\n      dup2\n      mstore\n      0x04\n      add\n      0x20\n      mload(0x40)\n      dup1\n      dup4\n      sub\n      dup2\n      dup7\n      gas\n      staticcall\n      iszero\n      dup1\n      iszero\n      tag_229\n      jumpi\n      returndatasize\n      0x00\n      dup1\n      returndatacopy\n      revert(0x00, returndatasize)\n    tag_229:\n      pop\n      pop\n      pop\n      pop\n      mload(0x40)\n      returndatasize\n      not(0x1f)\n      0x1f\n      dup3\n      add\n      and\n      dup3\n      add\n      dup1\n      0x40\n      mstore\n      pop\n      dup2\n      add\n      swap1\n      tag_230\n      swap2\n      swap1\n      tag_103\n      jump\t// in\n    tag_230:\n      sub(shl(0xa0, 0x01), 0x01)\n        /* \"TFGv3/Contracts/SCStorage.sol\":2316:2377  ISCCommission(IProxy(proxy).commissionContract()).lastUpdated */\n      and\n      0xd0b06f5d\n        /* \"TFGv3/Contracts/SCStorage.sol\":2316:2379  ISCCommission(IProxy(proxy).commissionContract()).lastUpdated() */\n      mload(0x40)\n      dup2\n      0xffffffff\n      and\n      0xe0\n      shl\n      dup2\n      mstore\n      0x04\n      add\n      0x20\n      mload(0x40)\n      dup1\n      dup4\n      sub\n      dup2\n      dup7\n      gas\n      staticcall\n      iszero\n      dup1\n      iszero\n      tag_232\n      jumpi\n      returndatasize\n      0x00\n      dup1\n      returndatacopy\n      revert(0x00, returndatasize)\n    tag_232:\n      pop\n      pop\n      pop\n      pop\n      mload(0x40)\n      returndatasize\n      not(0x1f)\n      0x1f\n      dup3\n      add\n      and\n      dup3\n      add\n      dup1\n      0x40\n      mstore\n      pop\n      dup2\n      add\n      swap1\n      tag_233\n      swap2\n      swap1\n      tag_133\n      jump\t// in\n    tag_233:\n        /* \"TFGv3/Contracts/SCStorage.sol\":2297:2379  uint lastUpdated = ISCCommission(IProxy(proxy).commissionContract()).lastUpdated() */\n      swap1\n      pop\n        /* \"TFGv3/Contracts/SCStorage.sol\":2389:2398  uint acum */\n      0x00\n        /* \"TFGv3/Contracts/SCStorage.sol\":2422:2427  proxy */\n      0x01\n      0x02\n      swap1\n      sload\n      swap1\n      0x0100\n      exp\n      swap1\n      div\n      sub(shl(0xa0, 0x01), 0x01)\n      and\n      sub(shl(0xa0, 0x01), 0x01)\n        /* \"TFGv3/Contracts/SCStorage.sol\":2415:2447  IProxy(proxy).commissionContract */\n      and\n      0xda8909e5\n        /* \"TFGv3/Contracts/SCStorage.sol\":2415:2449  IProxy(proxy).commissionContract() */\n      mload(0x40)\n      dup2\n      0xffffffff\n      and\n      0xe0\n      shl\n      dup2\n      mstore\n      0x04\n      add\n      0x20\n      mload(0x40)\n      dup1\n      dup4\n      sub\n      dup2\n      dup7\n      gas\n      staticcall\n      iszero\n      dup1\n      iszero\n      tag_235\n      jumpi\n      returndatasize\n      0x00\n      dup1\n      returndatacopy\n      revert(0x00, returndatasize)\n    tag_235:\n      pop\n      pop\n      pop\n      pop\n      mload(0x40)\n      returndatasize\n      not(0x1f)\n      0x1f\n      dup3\n      add\n      and\n      dup3\n      add\n      dup1\n      0x40\n      mstore\n      pop\n      dup2\n      add\n      swap1\n      tag_236\n      swap2\n      swap1\n      tag_103\n      jump\t// in\n    tag_236:\n      sub(shl(0xa0, 0x01), 0x01)\n        /* \"TFGv3/Contracts/SCStorage.sol\":2401:2466  ISCCommission(IProxy(proxy).commissionContract()).accumCommission */\n      and\n      0x7f8483a4\n        /* \"TFGv3/Contracts/SCStorage.sol\":2401:2468  ISCCommission(IProxy(proxy).commissionContract()).accumCommission() */\n      mload(0x40)\n      dup2\n      0xffffffff\n      and\n      0xe0\n      shl\n      dup2\n      mstore\n      0x04\n      add\n      0x20\n      mload(0x40)\n      dup1\n      dup4\n      sub\n      dup2\n      dup7\n      gas\n      staticcall\n      iszero\n      dup1\n      iszero\n      tag_238\n      jumpi\n      returndatasize\n      0x00\n      dup1\n      returndatacopy\n      revert(0x00, returndatasize)\n    tag_238:\n      pop\n      pop\n      pop\n      pop\n      mload(0x40)\n      returndatasize\n      not(0x1f)\n      0x1f\n      dup3\n      add\n      and\n      dup3\n      add\n      dup1\n      0x40\n      mstore\n      pop\n      dup2\n      add\n      swap1\n      tag_239\n      swap2\n      swap1\n      tag_133\n      jump\t// in\n    tag_239:\n        /* \"TFGv3/Contracts/SCStorage.sol\":2389:2468  uint acum = ISCCommission(IProxy(proxy).commissionContract()).accumCommission() */\n      swap1\n      pop\n        /* \"TFGv3/Contracts/SCStorage.sol\":2503:2507  acum */\n      dup1\n        /* \"TFGv3/Contracts/SCStorage.sol\":2486:2500  calculateNAV() */\n      tag_240\n        /* \"TFGv3/Contracts/SCStorage.sol\":2486:2498  calculateNAV */\n      tag_106\n        /* \"TFGv3/Contracts/SCStorage.sol\":2486:2500  calculateNAV() */\n      jump\t// in\n    tag_240:\n        /* \"TFGv3/Contracts/SCStorage.sol\":2486:2507  calculateNAV() - acum */\n      tag_241\n      swap2\n      swap1\n      tag_108\n      jump\t// in\n    tag_241:\n        /* \"TFGv3/Contracts/SCStorage.sol\":2478:2521  return (calculateNAV() - acum, lastUpdated) */\n      swap5\n        /* \"TFGv3/Contracts/SCStorage.sol\":2509:2520  lastUpdated */\n      swap2\n      swap4\n      pop\n        /* \"TFGv3/Contracts/SCStorage.sol\":1998:2528  function oracleNAV() external view returns (uint, uint)... */\n      swap1\n      swap2\n      pop\n      pop\n      jump\t// out\n        /* \"TFGv3/Contracts/SCStorage.sol\":2538:3428  function calculateNAV() internal view returns (uint newNAV)... */\n    tag_106:\n        /* \"TFGv3/Contracts/SCStorage.sol\":2751:2760  coinArray */\n      0x02\n        /* \"TFGv3/Contracts/SCStorage.sol\":2751:2767  coinArray.length */\n      sload\n        /* \"TFGv3/Contracts/SCStorage.sol\":2585:2596  uint newNAV */\n      0x00\n      swap1\n      dup2\n        /* \"TFGv3/Contracts/SCStorage.sol\":2777:3422  for(uint i = 0; i < n; i++)... */\n    tag_243:\n        /* \"TFGv3/Contracts/SCStorage.sol\":2797:2798  n */\n      dup2\n        /* \"TFGv3/Contracts/SCStorage.sol\":2793:2794  i */\n      dup2\n        /* \"TFGv3/Contracts/SCStorage.sol\":2793:2798  i < n */\n      lt\n        /* \"TFGv3/Contracts/SCStorage.sol\":2777:3422  for(uint i = 0; i < n; i++)... */\n      iszero\n      tag_244\n      jumpi\n        /* \"TFGv3/Contracts/SCStorage.sol\":2827:2839  address coin */\n      0x00\n        /* \"TFGv3/Contracts/SCStorage.sol\":2842:2851  coinArray */\n      0x02\n        /* \"TFGv3/Contracts/SCStorage.sol\":2852:2853  i */\n      dup3\n        /* \"TFGv3/Contracts/SCStorage.sol\":2842:2854  coinArray[i] */\n      dup2\n      sload\n      dup2\n      lt\n      tag_247\n      jumpi\n      tag_247\n      tag_127\n      jump\t// in\n    tag_247:\n      0x00\n      swap2\n      dup3\n      mstore\n      0x20\n      dup3\n      keccak256\n      add\n      sload\n        /* \"TFGv3/Contracts/SCStorage.sol\":2883:2920  IERC20(coin).balanceOf(address(this)) */\n      mload(0x40)\n      0x70a0823100000000000000000000000000000000000000000000000000000000\n      dup2\n      mstore\n        /* \"TFGv3/Contracts/SCStorage.sol\":2914:2918  this */\n      address\n        /* \"TFGv3/Contracts/SCStorage.sol\":2883:2920  IERC20(coin).balanceOf(address(this)) */\n      0x04\n      dup3\n      add\n        /* \"#utility.yul\":938:1012   */\n      mstore\n      sub(shl(0xa0, 0x01), 0x01)\n        /* \"TFGv3/Contracts/SCStorage.sol\":2842:2854  coinArray[i] */\n      swap1\n      swap2\n      and\n      swap3\n      pop\n      dup3\n      swap1\n        /* \"TFGv3/Contracts/SCStorage.sol\":2883:2905  IERC20(coin).balanceOf */\n      0x70a08231\n      swap1\n        /* \"#utility.yul\":911:929   */\n      0x24\n      add\n        /* \"TFGv3/Contracts/SCStorage.sol\":2883:2920  IERC20(coin).balanceOf(address(this)) */\n      0x20\n      mload(0x40)\n      dup1\n      dup4\n      sub\n      dup2\n      dup7\n      gas\n      staticcall\n      iszero\n      dup1\n      iszero\n      tag_251\n      jumpi\n      returndatasize\n      0x00\n      dup1\n      returndatacopy\n      revert(0x00, returndatasize)\n    tag_251:\n      pop\n      pop\n      pop\n      pop\n      mload(0x40)\n      returndatasize\n      not(0x1f)\n      0x1f\n      dup3\n      add\n      and\n      dup3\n      add\n      dup1\n      0x40\n      mstore\n      pop\n      dup2\n      add\n      swap1\n      tag_252\n      swap2\n      swap1\n      tag_133\n      jump\t// in\n    tag_252:\n      sub(shl(0xa0, 0x01), 0x01)\n        /* \"TFGv3/Contracts/SCStorage.sol\":2948:2959  coins[coin] */\n      dup4\n      and\n        /* \"TFGv3/Contracts/SCStorage.sol\":2934:2945  uint stable */\n      0x00\n        /* \"TFGv3/Contracts/SCStorage.sol\":2948:2959  coins[coin] */\n      swap1\n      dup2\n      mstore\n        /* \"TFGv3/Contracts/SCStorage.sol\":2948:2953  coins */\n      0x03\n        /* \"TFGv3/Contracts/SCStorage.sol\":2948:2959  coins[coin] */\n      0x20\n      mstore\n      0x40\n      swap1\n      keccak256\n      sload\n        /* \"TFGv3/Contracts/SCStorage.sol\":2868:2920  uint balance = IERC20(coin).balanceOf(address(this)) */\n      swap1\n      swap2\n      pop\n        /* \"TFGv3/Contracts/SCStorage.sol\":2999:3000  1 */\n      0x01\n        /* \"TFGv3/Contracts/SCStorage.sol\":2989:3000  stable == 1 */\n      dup2\n      swap1\n      sub\n        /* \"TFGv3/Contracts/SCStorage.sol\":2986:3411  if(stable == 1)... */\n      tag_253\n      jumpi\n      sub(shl(0xa0, 0x01), 0x01)\n        /* \"TFGv3/Contracts/SCStorage.sol\":3143:3163  coinOracleAddr[coin] */\n      dup1\n      dup5\n      and\n        /* \"TFGv3/Contracts/SCStorage.sol\":3032:3042  uint quote */\n      0x00\n        /* \"TFGv3/Contracts/SCStorage.sol\":3143:3163  coinOracleAddr[coin] */\n      swap1\n      dup2\n      mstore\n        /* \"TFGv3/Contracts/SCStorage.sol\":3143:3157  coinOracleAddr */\n      0x04\n        /* \"TFGv3/Contracts/SCStorage.sol\":3143:3163  coinOracleAddr[coin] */\n      0x20\n      mstore\n      0x40\n      dup2\n      keccak256\n      sload\n        /* \"TFGv3/Contracts/SCStorage.sol\":3032:3042  uint quote */\n      swap1\n      swap2\n      dup3\n      swap2\n        /* \"TFGv3/Contracts/SCStorage.sol\":3121:3167  OracleLibrary.consult(coinOracleAddr[coin], 0) */\n      tag_254\n      swap2\n        /* \"TFGv3/Contracts/SCStorage.sol\":3143:3163  coinOracleAddr[coin] */\n      and\n        /* \"TFGv3/Contracts/SCStorage.sol\":3032:3042  uint quote */\n      dup3\n        /* \"TFGv3/Contracts/SCStorage.sol\":3121:3142  OracleLibrary.consult */\n      tag_255\n        /* \"TFGv3/Contracts/SCStorage.sol\":3121:3167  OracleLibrary.consult(coinOracleAddr[coin], 0) */\n      jump\t// in\n    tag_254:\n      pop\n      sub(shl(0xa0, 0x01), 0x01)\n        /* \"TFGv3/Contracts/SCStorage.sol\":3270:3283  quoteIn[coin] */\n      dup1\n      dup8\n      and\n      0x00\n      swap1\n      dup2\n      mstore\n        /* \"TFGv3/Contracts/SCStorage.sol\":3270:3277  quoteIn */\n      0x05\n        /* \"TFGv3/Contracts/SCStorage.sol\":3270:3283  quoteIn[coin] */\n      0x20\n      mstore\n      0x40\n      swap1\n      keccak256\n      sload\n        /* \"TFGv3/Contracts/SCStorage.sol\":3091:3167  (int24 arithmeticMeanTick,) = OracleLibrary.consult(coinOracleAddr[coin], 0) */\n      swap2\n      swap3\n      pop\n        /* \"TFGv3/Contracts/SCStorage.sol\":3197:3284  OracleLibrary.getQuoteAtTick(arithmeticMeanTick, uint128(balance), coin, quoteIn[coin]) */\n      tag_256\n      swap2\n        /* \"TFGv3/Contracts/SCStorage.sol\":3091:3167  (int24 arithmeticMeanTick,) = OracleLibrary.consult(coinOracleAddr[coin], 0) */\n      dup4\n      swap2\n        /* \"TFGv3/Contracts/SCStorage.sol\":3254:3261  balance */\n      dup8\n      swap2\n        /* \"TFGv3/Contracts/SCStorage.sol\":3264:3268  coin */\n      dup10\n      swap2\n        /* \"TFGv3/Contracts/SCStorage.sol\":3270:3283  quoteIn[coin] */\n      and\n        /* \"TFGv3/Contracts/SCStorage.sol\":3197:3225  OracleLibrary.getQuoteAtTick */\n      tag_257\n        /* \"TFGv3/Contracts/SCStorage.sol\":3197:3284  OracleLibrary.getQuoteAtTick(arithmeticMeanTick, uint128(balance), coin, quoteIn[coin]) */\n      jump\t// in\n    tag_256:\n        /* \"TFGv3/Contracts/SCStorage.sol\":3189:3284  quote = OracleLibrary.getQuoteAtTick(arithmeticMeanTick, uint128(balance), coin, quoteIn[coin]) */\n      swap2\n      pop\n        /* \"TFGv3/Contracts/SCStorage.sol\":3330:3345  balance * quote */\n      tag_258\n      swap1\n      pop\n        /* \"TFGv3/Contracts/SCStorage.sol\":3189:3284  quote = OracleLibrary.getQuoteAtTick(arithmeticMeanTick, uint128(balance), coin, quoteIn[coin]) */\n      dup2\n        /* \"TFGv3/Contracts/SCStorage.sol\":3330:3337  balance */\n      dup5\n        /* \"TFGv3/Contracts/SCStorage.sol\":3330:3345  balance * quote */\n      tag_259\n      jump\t// in\n    tag_258:\n        /* \"TFGv3/Contracts/SCStorage.sol\":3320:3345  newNAV += balance * quote */\n      tag_260\n      swap1\n      dup9\n      tag_261\n      jump\t// in\n    tag_260:\n      swap7\n      pop\n        /* \"TFGv3/Contracts/SCStorage.sol\":3014:3360  {... */\n      pop\n        /* \"TFGv3/Contracts/SCStorage.sol\":2986:3411  if(stable == 1)... */\n      jump(tag_263)\n    tag_253:\n        /* \"TFGv3/Contracts/SCStorage.sol\":3381:3387  stable */\n      dup1\n        /* \"TFGv3/Contracts/SCStorage.sol\":3391:3392  2 */\n      0x02\n        /* \"TFGv3/Contracts/SCStorage.sol\":3381:3392  stable == 2 */\n      sub\n        /* \"TFGv3/Contracts/SCStorage.sol\":3378:3411  if(stable == 2) newNAV += balance */\n      tag_263\n      jumpi\n        /* \"TFGv3/Contracts/SCStorage.sol\":3394:3411  newNAV += balance */\n      tag_264\n        /* \"TFGv3/Contracts/SCStorage.sol\":3404:3411  balance */\n      dup3\n        /* \"TFGv3/Contracts/SCStorage.sol\":3394:3411  newNAV += balance */\n      dup8\n      tag_261\n      jump\t// in\n    tag_264:\n      swap6\n      pop\n        /* \"TFGv3/Contracts/SCStorage.sol\":3378:3411  if(stable == 2) newNAV += balance */\n    tag_263:\n        /* \"TFGv3/Contracts/SCStorage.sol\":2813:3422  {... */\n      pop\n      pop\n      pop\n        /* \"TFGv3/Contracts/SCStorage.sol\":2800:2803  i++ */\n      dup1\n      dup1\n      tag_265\n      swap1\n      tag_141\n      jump\t// in\n    tag_265:\n      swap2\n      pop\n      pop\n        /* \"TFGv3/Contracts/SCStorage.sol\":2777:3422  for(uint i = 0; i < n; i++)... */\n      jump(tag_243)\n    tag_244:\n      pop\n        /* \"TFGv3/Contracts/SCStorage.sol\":2602:3428  {... */\n      pop\n        /* \"TFGv3/Contracts/SCStorage.sol\":2538:3428  function calculateNAV() internal view returns (uint newNAV)... */\n      swap1\n      jump\t// out\n        /* \"TFGv3/Contracts/libraries/OracleLibrary.sol\":808:2049  function consult(address pool, uint32 secondsAgo)... */\n    tag_255:\n        /* \"TFGv3/Contracts/libraries/OracleLibrary.sol\":905:929  int24 arithmeticMeanTick */\n      0x00\n        /* \"TFGv3/Contracts/libraries/OracleLibrary.sol\":931:960  uint128 harmonicMeanLiquidity */\n      dup1\n        /* \"TFGv3/Contracts/libraries/OracleLibrary.sol\":984:994  secondsAgo */\n      dup3\n        /* \"TFGv3/Contracts/libraries/OracleLibrary.sol\":984:999  secondsAgo != 0 */\n      0xffffffff\n      and\n        /* \"TFGv3/Contracts/libraries/OracleLibrary.sol\":998:999  0 */\n      0x00\n        /* \"TFGv3/Contracts/libraries/OracleLibrary.sol\":984:999  secondsAgo != 0 */\n      sub\n        /* \"TFGv3/Contracts/libraries/OracleLibrary.sol\":976:1006  require(secondsAgo != 0, 'BP') */\n      tag_267\n      jumpi\n      mload(0x40)\n      0x08c379a000000000000000000000000000000000000000000000000000000000\n      dup2\n      mstore\n        /* \"#utility.yul\":7411:7413   */\n      0x20\n        /* \"TFGv3/Contracts/libraries/OracleLibrary.sol\":976:1006  require(secondsAgo != 0, 'BP') */\n      0x04\n      dup3\n      add\n        /* \"#utility.yul\":7393:7414   */\n      mstore\n        /* \"#utility.yul\":7450:7451   */\n      0x02\n        /* \"#utility.yul\":7430:7448   */\n      0x24\n      dup3\n      add\n        /* \"#utility.yul\":7423:7452   */\n      mstore\n        /* \"#utility.yul\":7488:7492   */\n      0x4250000000000000000000000000000000000000000000000000000000000000\n        /* \"#utility.yul\":7468:7486   */\n      0x44\n      dup3\n      add\n        /* \"#utility.yul\":7461:7493   */\n      mstore\n        /* \"#utility.yul\":7510:7528   */\n      0x64\n      add\n        /* \"TFGv3/Contracts/libraries/OracleLibrary.sol\":976:1006  require(secondsAgo != 0, 'BP') */\n    tag_268:\n      mload(0x40)\n      dup1\n      swap2\n      sub\n      swap1\n      revert\n    tag_267:\n        /* \"TFGv3/Contracts/libraries/OracleLibrary.sol\":1047:1062  new uint32[](2) */\n      0x40\n      dup1\n      mload\n        /* \"TFGv3/Contracts/libraries/OracleLibrary.sol\":1060:1061  2 */\n      0x02\n        /* \"TFGv3/Contracts/libraries/OracleLibrary.sol\":1047:1062  new uint32[](2) */\n      dup1\n      dup3\n      mstore\n      0x60\n      dup3\n      add\n      dup4\n      mstore\n        /* \"TFGv3/Contracts/libraries/OracleLibrary.sol\":1017:1044  uint32[] memory secondsAgos */\n      0x00\n      swap3\n        /* \"TFGv3/Contracts/libraries/OracleLibrary.sol\":1047:1062  new uint32[](2) */\n      0x20\n      dup4\n      add\n      swap1\n      dup1\n      calldatasize\n      dup4\n      calldatacopy\n      add\n      swap1\n      pop\n      pop\n        /* \"TFGv3/Contracts/libraries/OracleLibrary.sol\":1017:1062  uint32[] memory secondsAgos = new uint32[](2) */\n      swap1\n      pop\n        /* \"TFGv3/Contracts/libraries/OracleLibrary.sol\":1089:1099  secondsAgo */\n      dup4\n        /* \"TFGv3/Contracts/libraries/OracleLibrary.sol\":1072:1083  secondsAgos */\n      dup2\n        /* \"TFGv3/Contracts/libraries/OracleLibrary.sol\":1084:1085  0 */\n      0x00\n        /* \"TFGv3/Contracts/libraries/OracleLibrary.sol\":1072:1086  secondsAgos[0] */\n      dup2\n      mload\n      dup2\n      lt\n      tag_275\n      jumpi\n      tag_275\n      tag_127\n      jump\t// in\n    tag_275:\n      0x20\n      mul\n      0x20\n      add\n      add\n        /* \"TFGv3/Contracts/libraries/OracleLibrary.sol\":1072:1099  secondsAgos[0] = secondsAgo */\n      swap1\n      0xffffffff\n      and\n      swap1\n      dup2\n      0xffffffff\n      and\n      dup2\n      mstore\n      pop\n      pop\n        /* \"TFGv3/Contracts/libraries/OracleLibrary.sol\":1126:1127  0 */\n      0x00\n        /* \"TFGv3/Contracts/libraries/OracleLibrary.sol\":1109:1120  secondsAgos */\n      dup2\n        /* \"TFGv3/Contracts/libraries/OracleLibrary.sol\":1121:1122  1 */\n      0x01\n        /* \"TFGv3/Contracts/libraries/OracleLibrary.sol\":1109:1123  secondsAgos[1] */\n      dup2\n      mload\n      dup2\n      lt\n      tag_277\n      jumpi\n      tag_277\n      tag_127\n      jump\t// in\n    tag_277:\n      0x20\n      mul\n      0x20\n      add\n      add\n        /* \"TFGv3/Contracts/libraries/OracleLibrary.sol\":1109:1127  secondsAgos[1] = 0 */\n      swap1\n      0xffffffff\n      and\n      swap1\n      dup2\n      0xffffffff\n      and\n      dup2\n      mstore\n      pop\n      pop\n        /* \"TFGv3/Contracts/libraries/OracleLibrary.sol\":1139:1169  int56[] memory tickCumulatives */\n      0x00\n        /* \"TFGv3/Contracts/libraries/OracleLibrary.sol\":1171:1222  uint160[] memory secondsPerLiquidityCumulativeX128s */\n      dup1\n        /* \"TFGv3/Contracts/libraries/OracleLibrary.sol\":1253:1257  pool */\n      dup7\n      sub(shl(0xa0, 0x01), 0x01)\n        /* \"TFGv3/Contracts/libraries/OracleLibrary.sol\":1238:1266  IUniswapV3Pool(pool).observe */\n      and\n      0x883bdbfd\n        /* \"TFGv3/Contracts/libraries/OracleLibrary.sol\":1267:1278  secondsAgos */\n      dup5\n        /* \"TFGv3/Contracts/libraries/OracleLibrary.sol\":1238:1279  IUniswapV3Pool(pool).observe(secondsAgos) */\n      mload(0x40)\n      dup3\n      0xffffffff\n      and\n      0xe0\n      shl\n      dup2\n      mstore\n      0x04\n      add\n      tag_278\n      swap2\n      swap1\n      tag_279\n      jump\t// in\n    tag_278:\n      0x00\n      mload(0x40)\n      dup1\n      dup4\n      sub\n      dup2\n      dup7\n      gas\n      staticcall\n      iszero\n      dup1\n      iszero\n      tag_281\n      jumpi\n      returndatasize\n      0x00\n      dup1\n      returndatacopy\n      revert(0x00, returndatasize)\n    tag_281:\n      pop\n      pop\n      pop\n      pop\n      mload(0x40)\n      returndatasize\n      0x00\n      dup3\n      returndatacopy\n      0x1f\n      returndatasize\n      swap1\n      dup2\n      add\n      not(0x1f)\n      and\n      dup3\n      add\n      0x40\n      mstore\n      tag_282\n      swap2\n      swap1\n      dup2\n      add\n      swap1\n      tag_283\n      jump\t// in\n    tag_282:\n        /* \"TFGv3/Contracts/libraries/OracleLibrary.sol\":1138:1279  (int56[] memory tickCumulatives, uint160[] memory secondsPerLiquidityCumulativeX128s) =... */\n      swap2\n      pop\n      swap2\n      pop\n        /* \"TFGv3/Contracts/libraries/OracleLibrary.sol\":1290:1316  int56 tickCumulativesDelta */\n      0x00\n        /* \"TFGv3/Contracts/libraries/OracleLibrary.sol\":1340:1355  tickCumulatives */\n      dup3\n        /* \"TFGv3/Contracts/libraries/OracleLibrary.sol\":1356:1357  0 */\n      0x00\n        /* \"TFGv3/Contracts/libraries/OracleLibrary.sol\":1340:1358  tickCumulatives[0] */\n      dup2\n      mload\n      dup2\n      lt\n      tag_285\n      jumpi\n      tag_285\n      tag_127\n      jump\t// in\n    tag_285:\n      0x20\n      mul\n      0x20\n      add\n      add\n      mload\n        /* \"TFGv3/Contracts/libraries/OracleLibrary.sol\":1319:1334  tickCumulatives */\n      dup4\n        /* \"TFGv3/Contracts/libraries/OracleLibrary.sol\":1335:1336  1 */\n      0x01\n        /* \"TFGv3/Contracts/libraries/OracleLibrary.sol\":1319:1337  tickCumulatives[1] */\n      dup2\n      mload\n      dup2\n      lt\n      tag_287\n      jumpi\n      tag_287\n      tag_127\n      jump\t// in\n    tag_287:\n      0x20\n      mul\n      0x20\n      add\n      add\n      mload\n        /* \"TFGv3/Contracts/libraries/OracleLibrary.sol\":1319:1358  tickCumulatives[1] - tickCumulatives[0] */\n      tag_288\n      swap2\n      swap1\n      tag_289\n      jump\t// in\n    tag_288:\n        /* \"TFGv3/Contracts/libraries/OracleLibrary.sol\":1290:1358  int56 tickCumulativesDelta = tickCumulatives[1] - tickCumulatives[0] */\n      swap1\n      pop\n        /* \"TFGv3/Contracts/libraries/OracleLibrary.sol\":1368:1411  uint160 secondsPerLiquidityCumulativesDelta */\n      0x00\n        /* \"TFGv3/Contracts/libraries/OracleLibrary.sol\":1466:1500  secondsPerLiquidityCumulativeX128s */\n      dup3\n        /* \"TFGv3/Contracts/libraries/OracleLibrary.sol\":1501:1502  0 */\n      0x00\n        /* \"TFGv3/Contracts/libraries/OracleLibrary.sol\":1466:1503  secondsPerLiquidityCumulativeX128s[0] */\n      dup2\n      mload\n      dup2\n      lt\n      tag_291\n      jumpi\n      tag_291\n      tag_127\n      jump\t// in\n    tag_291:\n      0x20\n      mul\n      0x20\n      add\n      add\n      mload\n        /* \"TFGv3/Contracts/libraries/OracleLibrary.sol\":1426:1460  secondsPerLiquidityCumulativeX128s */\n      dup4\n        /* \"TFGv3/Contracts/libraries/OracleLibrary.sol\":1461:1462  1 */\n      0x01\n        /* \"TFGv3/Contracts/libraries/OracleLibrary.sol\":1426:1463  secondsPerLiquidityCumulativeX128s[1] */\n      dup2\n      mload\n      dup2\n      lt\n      tag_293\n      jumpi\n      tag_293\n      tag_127\n      jump\t// in\n    tag_293:\n      0x20\n      mul\n      0x20\n      add\n      add\n      mload\n        /* \"TFGv3/Contracts/libraries/OracleLibrary.sol\":1426:1503  secondsPerLiquidityCumulativeX128s[1] - secondsPerLiquidityCumulativeX128s[0] */\n      tag_294\n      swap2\n      swap1\n      tag_295\n      jump\t// in\n    tag_294:\n        /* \"TFGv3/Contracts/libraries/OracleLibrary.sol\":1368:1503  uint160 secondsPerLiquidityCumulativesDelta =... */\n      swap1\n      pop\n        /* \"TFGv3/Contracts/libraries/OracleLibrary.sol\":1541:1581  tickCumulativesDelta / int32(secondsAgo) */\n      tag_296\n      0x03\n      dup10\n      swap1\n      signextend\n        /* \"TFGv3/Contracts/libraries/OracleLibrary.sol\":1541:1561  tickCumulativesDelta */\n      dup4\n        /* \"TFGv3/Contracts/libraries/OracleLibrary.sol\":1541:1581  tickCumulativesDelta / int32(secondsAgo) */\n      tag_297\n      jump\t// in\n    tag_296:\n        /* \"TFGv3/Contracts/libraries/OracleLibrary.sol\":1514:1582  arithmeticMeanTick = int24(tickCumulativesDelta / int32(secondsAgo)) */\n      swap7\n      pop\n        /* \"TFGv3/Contracts/libraries/OracleLibrary.sol\":1664:1665  0 */\n      0x00\n        /* \"TFGv3/Contracts/libraries/OracleLibrary.sol\":1641:1661  tickCumulativesDelta */\n      dup3\n        /* \"TFGv3/Contracts/libraries/OracleLibrary.sol\":1641:1665  tickCumulativesDelta < 0 */\n      0x06\n      signextend\n      slt\n        /* \"TFGv3/Contracts/libraries/OracleLibrary.sol\":1641:1716  tickCumulativesDelta < 0 && (tickCumulativesDelta % int32(secondsAgo) != 0) */\n      dup1\n      iszero\n      tag_298\n      jumpi\n      pop\n        /* \"TFGv3/Contracts/libraries/OracleLibrary.sol\":1670:1710  tickCumulativesDelta % int32(secondsAgo) */\n      tag_299\n      0x03\n      dup10\n      swap1\n      signextend\n        /* \"TFGv3/Contracts/libraries/OracleLibrary.sol\":1670:1690  tickCumulativesDelta */\n      dup4\n        /* \"TFGv3/Contracts/libraries/OracleLibrary.sol\":1670:1710  tickCumulativesDelta % int32(secondsAgo) */\n      tag_300\n      jump\t// in\n    tag_299:\n        /* \"TFGv3/Contracts/libraries/OracleLibrary.sol\":1670:1715  tickCumulativesDelta % int32(secondsAgo) != 0 */\n      0x06\n      signextend\n      iszero\n      iszero\n        /* \"TFGv3/Contracts/libraries/OracleLibrary.sol\":1641:1716  tickCumulativesDelta < 0 && (tickCumulativesDelta % int32(secondsAgo) != 0) */\n    tag_298:\n        /* \"TFGv3/Contracts/libraries/OracleLibrary.sol\":1637:1738  if (tickCumulativesDelta < 0 && (tickCumulativesDelta % int32(secondsAgo) != 0)) arithmeticMeanTick-- */\n      iszero\n      tag_301\n      jumpi\n        /* \"TFGv3/Contracts/libraries/OracleLibrary.sol\":1718:1738  arithmeticMeanTick-- */\n      dup7\n      tag_302\n      dup2\n      tag_303\n      jump\t// in\n    tag_302:\n      swap8\n      pop\n      pop\n        /* \"TFGv3/Contracts/libraries/OracleLibrary.sol\":1637:1738  if (tickCumulativesDelta < 0 && (tickCumulativesDelta % int32(secondsAgo) != 0)) arithmeticMeanTick-- */\n    tag_301:\n        /* \"TFGv3/Contracts/libraries/OracleLibrary.sol\":1866:1888  uint192 secondsAgoX160 */\n      0x00\n        /* \"TFGv3/Contracts/libraries/OracleLibrary.sol\":1891:1930  uint192(secondsAgo) * type(uint160).max */\n      tag_304\n      sub(shl(0xa0, 0x01), 0x01)\n        /* \"TFGv3/Contracts/libraries/OracleLibrary.sol\":1891:1910  uint192(secondsAgo) */\n      0xffffffff\n      dup12\n      and\n        /* \"TFGv3/Contracts/libraries/OracleLibrary.sol\":1891:1930  uint192(secondsAgo) * type(uint160).max */\n      tag_305\n      jump\t// in\n    tag_304:\n        /* \"TFGv3/Contracts/libraries/OracleLibrary.sol\":1866:1930  uint192 secondsAgoX160 = uint192(secondsAgo) * type(uint160).max */\n      swap1\n      pop\n        /* \"TFGv3/Contracts/libraries/OracleLibrary.sol\":1972:2041  secondsAgoX160 / (uint192(secondsPerLiquidityCumulativesDelta) << 32) */\n      tag_306\n        /* \"TFGv3/Contracts/libraries/OracleLibrary.sol\":1990:2040  uint192(secondsPerLiquidityCumulativesDelta) << 32 */\n      0xffffffffffffffffffffffffffffffffffffffff00000000\n        /* \"TFGv3/Contracts/libraries/OracleLibrary.sol\":2038:2040  32 */\n      0x20\n        /* \"TFGv3/Contracts/libraries/OracleLibrary.sol\":1990:2040  uint192(secondsPerLiquidityCumulativesDelta) << 32 */\n      dup5\n      swap1\n      shl\n      and\n        /* \"TFGv3/Contracts/libraries/OracleLibrary.sol\":1866:1930  uint192 secondsAgoX160 = uint192(secondsAgo) * type(uint160).max */\n      dup3\n        /* \"TFGv3/Contracts/libraries/OracleLibrary.sol\":1972:2041  secondsAgoX160 / (uint192(secondsPerLiquidityCumulativesDelta) << 32) */\n      tag_307\n      jump\t// in\n    tag_306:\n        /* \"TFGv3/Contracts/libraries/OracleLibrary.sol\":1940:2042  harmonicMeanLiquidity = uint128(secondsAgoX160 / (uint192(secondsPerLiquidityCumulativesDelta) << 32)) */\n      swap7\n      pop\n        /* \"TFGv3/Contracts/libraries/OracleLibrary.sol\":966:2049  {... */\n      pop\n      pop\n      pop\n      pop\n      pop\n      pop\n        /* \"TFGv3/Contracts/libraries/OracleLibrary.sol\":808:2049  function consult(address pool, uint32 secondsAgo)... */\n      swap3\n      pop\n      swap3\n      swap1\n      pop\n      jump\t// out\n        /* \"TFGv3/Contracts/libraries/OracleLibrary.sol\":2553:3508  function getQuoteAtTick(... */\n    tag_257:\n        /* \"TFGv3/Contracts/libraries/OracleLibrary.sol\":2709:2728  uint256 quoteAmount */\n      0x00\n        /* \"TFGv3/Contracts/libraries/OracleLibrary.sol\":2740:2760  uint160 sqrtRatioX96 */\n      dup1\n        /* \"TFGv3/Contracts/libraries/OracleLibrary.sol\":2763:2796  TickMath.getSqrtRatioAtTick(tick) */\n      tag_309\n        /* \"TFGv3/Contracts/libraries/OracleLibrary.sol\":2791:2795  tick */\n      dup7\n        /* \"TFGv3/Contracts/libraries/OracleLibrary.sol\":2763:2790  TickMath.getSqrtRatioAtTick */\n      tag_310\n        /* \"TFGv3/Contracts/libraries/OracleLibrary.sol\":2763:2796  TickMath.getSqrtRatioAtTick(tick) */\n      jump\t// in\n    tag_309:\n        /* \"TFGv3/Contracts/libraries/OracleLibrary.sol\":2740:2796  uint160 sqrtRatioX96 = TickMath.getSqrtRatioAtTick(tick) */\n      swap1\n      pop\n        /* \"TFGv3/Contracts/libraries/OracleLibrary.sol\":2931:2948  type(uint128).max */\n      0xffffffffffffffffffffffffffffffff\n      sub(shl(0xa0, 0x01), 0x01)\n        /* \"TFGv3/Contracts/libraries/OracleLibrary.sol\":2915:2948  sqrtRatioX96 <= type(uint128).max */\n      dup3\n      and\n      gt\n        /* \"TFGv3/Contracts/libraries/OracleLibrary.sol\":2911:3502  if (sqrtRatioX96 <= type(uint128).max) {... */\n      tag_311\n      jumpi\n        /* \"TFGv3/Contracts/libraries/OracleLibrary.sol\":2964:2981  uint256 ratioX192 */\n      0x00\n        /* \"TFGv3/Contracts/libraries/OracleLibrary.sol\":2984:3020  uint256(sqrtRatioX96) * sqrtRatioX96 */\n      tag_312\n      sub(shl(0xa0, 0x01), 0x01)\n      dup4\n      and\n      dup1\n      tag_259\n      jump\t// in\n    tag_312:\n        /* \"TFGv3/Contracts/libraries/OracleLibrary.sol\":2964:3020  uint256 ratioX192 = uint256(sqrtRatioX96) * sqrtRatioX96 */\n      swap1\n      pop\n        /* \"TFGv3/Contracts/libraries/OracleLibrary.sol\":3060:3070  quoteToken */\n      dup4\n      sub(shl(0xa0, 0x01), 0x01)\n        /* \"TFGv3/Contracts/libraries/OracleLibrary.sol\":3048:3070  baseToken < quoteToken */\n      and\n        /* \"TFGv3/Contracts/libraries/OracleLibrary.sol\":3048:3057  baseToken */\n      dup6\n      sub(shl(0xa0, 0x01), 0x01)\n        /* \"TFGv3/Contracts/libraries/OracleLibrary.sol\":3048:3070  baseToken < quoteToken */\n      and\n      lt\n        /* \"TFGv3/Contracts/libraries/OracleLibrary.sol\":3048:3204  baseToken < quoteToken... */\n      tag_313\n      jumpi\n        /* \"TFGv3/Contracts/libraries/OracleLibrary.sol\":3156:3204  FullMath.mulDiv(1 << 192, baseAmount, ratioX192) */\n      tag_314\n        /* \"TFGv3/Contracts/libraries/OracleLibrary.sol\":3172:3180  1 << 192 */\n      0x01000000000000000000000000000000000000000000000000\n        /* \"TFGv3/Contracts/libraries/OracleLibrary.sol\":3182:3192  baseAmount */\n      dup8\n        /* \"TFGv3/Contracts/libraries/OracleLibrary.sol\":3156:3204  FullMath.mulDiv(1 << 192, baseAmount, ratioX192) */\n      0xffffffffffffffffffffffffffffffff\n      and\n        /* \"TFGv3/Contracts/libraries/OracleLibrary.sol\":3194:3203  ratioX192 */\n      dup4\n        /* \"TFGv3/Contracts/libraries/OracleLibrary.sol\":3156:3171  FullMath.mulDiv */\n      tag_315\n        /* \"TFGv3/Contracts/libraries/OracleLibrary.sol\":3156:3204  FullMath.mulDiv(1 << 192, baseAmount, ratioX192) */\n      jump\t// in\n    tag_314:\n        /* \"TFGv3/Contracts/libraries/OracleLibrary.sol\":3048:3204  baseToken < quoteToken... */\n      jump(tag_317)\n    tag_313:\n        /* \"TFGv3/Contracts/libraries/OracleLibrary.sol\":3089:3137  FullMath.mulDiv(ratioX192, baseAmount, 1 << 192) */\n      tag_317\n        /* \"TFGv3/Contracts/libraries/OracleLibrary.sol\":3105:3114  ratioX192 */\n      dup2\n        /* \"TFGv3/Contracts/libraries/OracleLibrary.sol\":3116:3126  baseAmount */\n      dup8\n        /* \"TFGv3/Contracts/libraries/OracleLibrary.sol\":3089:3137  FullMath.mulDiv(ratioX192, baseAmount, 1 << 192) */\n      0xffffffffffffffffffffffffffffffff\n      and\n        /* \"TFGv3/Contracts/libraries/OracleLibrary.sol\":3128:3136  1 << 192 */\n      0x01000000000000000000000000000000000000000000000000\n        /* \"TFGv3/Contracts/libraries/OracleLibrary.sol\":3089:3104  FullMath.mulDiv */\n      tag_315\n        /* \"TFGv3/Contracts/libraries/OracleLibrary.sol\":3089:3137  FullMath.mulDiv(ratioX192, baseAmount, 1 << 192) */\n      jump\t// in\n    tag_317:\n        /* \"TFGv3/Contracts/libraries/OracleLibrary.sol\":3034:3204  quoteAmount = baseToken < quoteToken... */\n      swap3\n      pop\n        /* \"TFGv3/Contracts/libraries/OracleLibrary.sol\":2950:3215  {... */\n      pop\n        /* \"TFGv3/Contracts/libraries/OracleLibrary.sol\":2911:3502  if (sqrtRatioX96 <= type(uint128).max) {... */\n      jump(tag_318)\n    tag_311:\n        /* \"TFGv3/Contracts/libraries/OracleLibrary.sol\":3235:3252  uint256 ratioX128 */\n      0x00\n        /* \"TFGv3/Contracts/libraries/OracleLibrary.sol\":3255:3307  FullMath.mulDiv(sqrtRatioX96, sqrtRatioX96, 1 << 64) */\n      tag_319\n      sub(shl(0xa0, 0x01), 0x01)\n      dup4\n      and\n      dup1\n        /* \"TFGv3/Contracts/libraries/OracleLibrary.sol\":3299:3306  1 << 64 */\n      0x010000000000000000\n        /* \"TFGv3/Contracts/libraries/OracleLibrary.sol\":3255:3270  FullMath.mulDiv */\n      tag_315\n        /* \"TFGv3/Contracts/libraries/OracleLibrary.sol\":3255:3307  FullMath.mulDiv(sqrtRatioX96, sqrtRatioX96, 1 << 64) */\n      jump\t// in\n    tag_319:\n        /* \"TFGv3/Contracts/libraries/OracleLibrary.sol\":3235:3307  uint256 ratioX128 = FullMath.mulDiv(sqrtRatioX96, sqrtRatioX96, 1 << 64) */\n      swap1\n      pop\n        /* \"TFGv3/Contracts/libraries/OracleLibrary.sol\":3347:3357  quoteToken */\n      dup4\n      sub(shl(0xa0, 0x01), 0x01)\n        /* \"TFGv3/Contracts/libraries/OracleLibrary.sol\":3335:3357  baseToken < quoteToken */\n      and\n        /* \"TFGv3/Contracts/libraries/OracleLibrary.sol\":3335:3344  baseToken */\n      dup6\n      sub(shl(0xa0, 0x01), 0x01)\n        /* \"TFGv3/Contracts/libraries/OracleLibrary.sol\":3335:3357  baseToken < quoteToken */\n      and\n      lt\n        /* \"TFGv3/Contracts/libraries/OracleLibrary.sol\":3335:3491  baseToken < quoteToken... */\n      tag_320\n      jumpi\n        /* \"TFGv3/Contracts/libraries/OracleLibrary.sol\":3443:3491  FullMath.mulDiv(1 << 128, baseAmount, ratioX128) */\n      tag_321\n        /* \"TFGv3/Contracts/libraries/OracleLibrary.sol\":3459:3467  1 << 128 */\n      0x0100000000000000000000000000000000\n        /* \"TFGv3/Contracts/libraries/OracleLibrary.sol\":3469:3479  baseAmount */\n      dup8\n        /* \"TFGv3/Contracts/libraries/OracleLibrary.sol\":3443:3491  FullMath.mulDiv(1 << 128, baseAmount, ratioX128) */\n      0xffffffffffffffffffffffffffffffff\n      and\n        /* \"TFGv3/Contracts/libraries/OracleLibrary.sol\":3481:3490  ratioX128 */\n      dup4\n        /* \"TFGv3/Contracts/libraries/OracleLibrary.sol\":3443:3458  FullMath.mulDiv */\n      tag_315\n        /* \"TFGv3/Contracts/libraries/OracleLibrary.sol\":3443:3491  FullMath.mulDiv(1 << 128, baseAmount, ratioX128) */\n      jump\t// in\n    tag_321:\n        /* \"TFGv3/Contracts/libraries/OracleLibrary.sol\":3335:3491  baseToken < quoteToken... */\n      jump(tag_323)\n    tag_320:\n        /* \"TFGv3/Contracts/libraries/OracleLibrary.sol\":3376:3424  FullMath.mulDiv(ratioX128, baseAmount, 1 << 128) */\n      tag_323\n        /* \"TFGv3/Contracts/libraries/OracleLibrary.sol\":3392:3401  ratioX128 */\n      dup2\n        /* \"TFGv3/Contracts/libraries/OracleLibrary.sol\":3403:3413  baseAmount */\n      dup8\n        /* \"TFGv3/Contracts/libraries/OracleLibrary.sol\":3376:3424  FullMath.mulDiv(ratioX128, baseAmount, 1 << 128) */\n      0xffffffffffffffffffffffffffffffff\n      and\n        /* \"TFGv3/Contracts/libraries/OracleLibrary.sol\":3415:3423  1 << 128 */\n      0x0100000000000000000000000000000000\n        /* \"TFGv3/Contracts/libraries/OracleLibrary.sol\":3376:3391  FullMath.mulDiv */\n      tag_315\n        /* \"TFGv3/Contracts/libraries/OracleLibrary.sol\":3376:3424  FullMath.mulDiv(ratioX128, baseAmount, 1 << 128) */\n      jump\t// in\n    tag_323:\n        /* \"TFGv3/Contracts/libraries/OracleLibrary.sol\":3321:3491  quoteAmount = baseToken < quoteToken... */\n      swap3\n      pop\n        /* \"TFGv3/Contracts/libraries/OracleLibrary.sol\":3221:3502  {... */\n      pop\n        /* \"TFGv3/Contracts/libraries/OracleLibrary.sol\":2911:3502  if (sqrtRatioX96 <= type(uint128).max) {... */\n    tag_318:\n        /* \"TFGv3/Contracts/libraries/OracleLibrary.sol\":2730:3508  {... */\n      pop\n        /* \"TFGv3/Contracts/libraries/OracleLibrary.sol\":2553:3508  function getQuoteAtTick(... */\n      swap5\n      swap4\n      pop\n      pop\n      pop\n      pop\n      jump\t// out\n        /* \"TFGv3/Contracts/libraries/TickMath.sol\":1355:3943  function getSqrtRatioAtTick(int24 tick) internal pure returns (uint160 sqrtPriceX96) {... */\n    tag_310:\n        /* \"TFGv3/Contracts/libraries/TickMath.sol\":1418:1438  uint160 sqrtPriceX96 */\n      0x00\n        /* \"TFGv3/Contracts/libraries/TickMath.sol\":1450:1465  uint256 absTick */\n      dup1\n        /* \"TFGv3/Contracts/libraries/TickMath.sol\":1475:1476  0 */\n      0x00\n        /* \"TFGv3/Contracts/libraries/TickMath.sol\":1468:1472  tick */\n      dup4\n        /* \"TFGv3/Contracts/libraries/TickMath.sol\":1468:1476  tick < 0 */\n      0x02\n      signextend\n      slt\n        /* \"TFGv3/Contracts/libraries/TickMath.sol\":1468:1525  tick < 0 ? uint256(-int256(tick)) : uint256(int256(tick)) */\n      tag_325\n      jumpi\n        /* \"TFGv3/Contracts/libraries/TickMath.sol\":1519:1523  tick */\n      dup3\n        /* \"TFGv3/Contracts/libraries/TickMath.sol\":1512:1524  int256(tick) */\n      0x02\n      signextend\n        /* \"TFGv3/Contracts/libraries/TickMath.sol\":1468:1525  tick < 0 ? uint256(-int256(tick)) : uint256(int256(tick)) */\n      jump(tag_327)\n    tag_325:\n        /* \"TFGv3/Contracts/libraries/TickMath.sol\":1495:1499  tick */\n      dup3\n        /* \"TFGv3/Contracts/libraries/TickMath.sol\":1488:1500  int256(tick) */\n      0x02\n      signextend\n        /* \"TFGv3/Contracts/libraries/TickMath.sol\":1487:1500  -int256(tick) */\n      tag_327\n      swap1\n      tag_328\n      jump\t// in\n    tag_327:\n        /* \"TFGv3/Contracts/libraries/TickMath.sol\":1450:1525  uint256 absTick = tick < 0 ? uint256(-int256(tick)) : uint256(int256(tick)) */\n      swap1\n      pop\n        /* \"TFGv3/Contracts/libraries/TickMath.sol\":637:646  -MIN_TICK */\n      tag_329\n        /* \"TFGv3/Contracts/libraries/TickMath.sol\":477:484  -887272 */\n      0xfffffffffffffffffffffffffffffffffffffffffffffffffffffffffff27618\n        /* \"TFGv3/Contracts/libraries/TickMath.sol\":637:646  -MIN_TICK */\n      tag_330\n      jump\t// in\n    tag_329:\n        /* \"TFGv3/Contracts/libraries/TickMath.sol\":1554:1579  uint256(uint24(MAX_TICK)) */\n      0xffffff\n      and\n        /* \"TFGv3/Contracts/libraries/TickMath.sol\":1543:1550  absTick */\n      dup2\n        /* \"TFGv3/Contracts/libraries/TickMath.sol\":1543:1579  absTick <= uint256(uint24(MAX_TICK)) */\n      gt\n      iszero\n        /* \"TFGv3/Contracts/libraries/TickMath.sol\":1535:1585  require(absTick <= uint256(uint24(MAX_TICK)), 'T') */\n      tag_331\n      jumpi\n      mload(0x40)\n      0x08c379a000000000000000000000000000000000000000000000000000000000\n      dup2\n      mstore\n        /* \"#utility.yul\":13680:13682   */\n      0x20\n        /* \"TFGv3/Contracts/libraries/TickMath.sol\":1535:1585  require(absTick <= uint256(uint24(MAX_TICK)), 'T') */\n      0x04\n      dup3\n      add\n        /* \"#utility.yul\":13662:13683   */\n      mstore\n        /* \"#utility.yul\":13719:13720   */\n      0x01\n        /* \"#utility.yul\":13699:13717   */\n      0x24\n      dup3\n      add\n        /* \"#utility.yul\":13692:13721   */\n      mstore\n        /* \"#utility.yul\":13757:13760   */\n      0x5400000000000000000000000000000000000000000000000000000000000000\n        /* \"#utility.yul\":13737:13755   */\n      0x44\n      dup3\n      add\n        /* \"#utility.yul\":13730:13761   */\n      mstore\n        /* \"#utility.yul\":13778:13796   */\n      0x64\n      add\n        /* \"TFGv3/Contracts/libraries/TickMath.sol\":1535:1585  require(absTick <= uint256(uint24(MAX_TICK)), 'T') */\n      tag_268\n        /* \"#utility.yul\":13478:13802   */\n      jump\n        /* \"TFGv3/Contracts/libraries/TickMath.sol\":1535:1585  require(absTick <= uint256(uint24(MAX_TICK)), 'T') */\n    tag_331:\n        /* \"TFGv3/Contracts/libraries/TickMath.sol\":1596:1609  uint256 ratio */\n      0x00\n        /* \"TFGv3/Contracts/libraries/TickMath.sol\":1612:1619  absTick */\n      dup2\n        /* \"TFGv3/Contracts/libraries/TickMath.sol\":1622:1625  0x1 */\n      0x01\n        /* \"TFGv3/Contracts/libraries/TickMath.sol\":1612:1625  absTick & 0x1 */\n      and\n        /* \"TFGv3/Contracts/libraries/TickMath.sol\":1629:1630  0 */\n      0x00\n        /* \"TFGv3/Contracts/libraries/TickMath.sol\":1612:1630  absTick & 0x1 != 0 */\n      sub\n        /* \"TFGv3/Contracts/libraries/TickMath.sol\":1612:1705  absTick & 0x1 != 0 ? 0xfffcb933bd6fad37aa2d162d1a594001 : 0x100000000000000000000000000000000 */\n      tag_334\n      jumpi\n        /* \"TFGv3/Contracts/libraries/TickMath.sol\":1670:1705  0x100000000000000000000000000000000 */\n      0x0100000000000000000000000000000000\n        /* \"TFGv3/Contracts/libraries/TickMath.sol\":1612:1705  absTick & 0x1 != 0 ? 0xfffcb933bd6fad37aa2d162d1a594001 : 0x100000000000000000000000000000000 */\n      jump(tag_335)\n    tag_334:\n        /* \"TFGv3/Contracts/libraries/TickMath.sol\":1633:1667  0xfffcb933bd6fad37aa2d162d1a594001 */\n      0xfffcb933bd6fad37aa2d162d1a594001\n        /* \"TFGv3/Contracts/libraries/TickMath.sol\":1612:1705  absTick & 0x1 != 0 ? 0xfffcb933bd6fad37aa2d162d1a594001 : 0x100000000000000000000000000000000 */\n    tag_335:\n        /* \"TFGv3/Contracts/libraries/TickMath.sol\":1596:1705  uint256 ratio = absTick & 0x1 != 0 ? 0xfffcb933bd6fad37aa2d162d1a594001 : 0x100000000000000000000000000000000 */\n      0xffffffffffffffffffffffffffffffffff\n      and\n      swap1\n      pop\n        /* \"TFGv3/Contracts/libraries/TickMath.sol\":1729:1732  0x2 */\n      0x02\n        /* \"TFGv3/Contracts/libraries/TickMath.sol\":1719:1732  absTick & 0x2 */\n      dup3\n      and\n        /* \"TFGv3/Contracts/libraries/TickMath.sol\":1719:1737  absTick & 0x2 != 0 */\n      iszero\n        /* \"TFGv3/Contracts/libraries/TickMath.sol\":1715:1798  if (absTick & 0x2 != 0) ratio = (ratio * 0xfff97272373d413259a46990580e213a) >> 128 */\n      tag_336\n      jumpi\n        /* \"TFGv3/Contracts/libraries/TickMath.sol\":1795:1798  128 */\n      0x80\n        /* \"TFGv3/Contracts/libraries/TickMath.sol\":1748:1790  ratio * 0xfff97272373d413259a46990580e213a */\n      tag_337\n        /* \"TFGv3/Contracts/libraries/TickMath.sol\":1748:1753  ratio */\n      dup3\n        /* \"TFGv3/Contracts/libraries/TickMath.sol\":1756:1790  0xfff97272373d413259a46990580e213a */\n      0xfff97272373d413259a46990580e213a\n        /* \"TFGv3/Contracts/libraries/TickMath.sol\":1748:1790  ratio * 0xfff97272373d413259a46990580e213a */\n      tag_259\n      jump\t// in\n    tag_337:\n        /* \"TFGv3/Contracts/libraries/TickMath.sol\":1747:1798  (ratio * 0xfff97272373d413259a46990580e213a) >> 128 */\n      swap1\n      shr\n        /* \"TFGv3/Contracts/libraries/TickMath.sol\":1739:1798  ratio = (ratio * 0xfff97272373d413259a46990580e213a) >> 128 */\n      swap1\n      pop\n        /* \"TFGv3/Contracts/libraries/TickMath.sol\":1715:1798  if (absTick & 0x2 != 0) ratio = (ratio * 0xfff97272373d413259a46990580e213a) >> 128 */\n    tag_336:\n        /* \"TFGv3/Contracts/libraries/TickMath.sol\":1822:1825  0x4 */\n      0x04\n        /* \"TFGv3/Contracts/libraries/TickMath.sol\":1812:1825  absTick & 0x4 */\n      dup3\n      and\n        /* \"TFGv3/Contracts/libraries/TickMath.sol\":1812:1830  absTick & 0x4 != 0 */\n      iszero\n        /* \"TFGv3/Contracts/libraries/TickMath.sol\":1808:1891  if (absTick & 0x4 != 0) ratio = (ratio * 0xfff2e50f5f656932ef12357cf3c7fdcc) >> 128 */\n      tag_338\n      jumpi\n        /* \"TFGv3/Contracts/libraries/TickMath.sol\":1888:1891  128 */\n      0x80\n        /* \"TFGv3/Contracts/libraries/TickMath.sol\":1841:1883  ratio * 0xfff2e50f5f656932ef12357cf3c7fdcc */\n      tag_339\n        /* \"TFGv3/Contracts/libraries/TickMath.sol\":1841:1846  ratio */\n      dup3\n        /* \"TFGv3/Contracts/libraries/TickMath.sol\":1849:1883  0xfff2e50f5f656932ef12357cf3c7fdcc */\n      0xfff2e50f5f656932ef12357cf3c7fdcc\n        /* \"TFGv3/Contracts/libraries/TickMath.sol\":1841:1883  ratio * 0xfff2e50f5f656932ef12357cf3c7fdcc */\n      tag_259\n      jump\t// in\n    tag_339:\n        /* \"TFGv3/Contracts/libraries/TickMath.sol\":1840:1891  (ratio * 0xfff2e50f5f656932ef12357cf3c7fdcc) >> 128 */\n      swap1\n      shr\n        /* \"TFGv3/Contracts/libraries/TickMath.sol\":1832:1891  ratio = (ratio * 0xfff2e50f5f656932ef12357cf3c7fdcc) >> 128 */\n      swap1\n      pop\n        /* \"TFGv3/Contracts/libraries/TickMath.sol\":1808:1891  if (absTick & 0x4 != 0) ratio = (ratio * 0xfff2e50f5f656932ef12357cf3c7fdcc) >> 128 */\n    tag_338:\n        /* \"TFGv3/Contracts/libraries/TickMath.sol\":1915:1918  0x8 */\n      0x08\n        /* \"TFGv3/Contracts/libraries/TickMath.sol\":1905:1918  absTick & 0x8 */\n      dup3\n      and\n        /* \"TFGv3/Contracts/libraries/TickMath.sol\":1905:1923  absTick & 0x8 != 0 */\n      iszero\n        /* \"TFGv3/Contracts/libraries/TickMath.sol\":1901:1984  if (absTick & 0x8 != 0) ratio = (ratio * 0xffe5caca7e10e4e61c3624eaa0941cd0) >> 128 */\n      tag_340\n      jumpi\n        /* \"TFGv3/Contracts/libraries/TickMath.sol\":1981:1984  128 */\n      0x80\n        /* \"TFGv3/Contracts/libraries/TickMath.sol\":1934:1976  ratio * 0xffe5caca7e10e4e61c3624eaa0941cd0 */\n      tag_341\n        /* \"TFGv3/Contracts/libraries/TickMath.sol\":1934:1939  ratio */\n      dup3\n        /* \"TFGv3/Contracts/libraries/TickMath.sol\":1942:1976  0xffe5caca7e10e4e61c3624eaa0941cd0 */\n      0xffe5caca7e10e4e61c3624eaa0941cd0\n        /* \"TFGv3/Contracts/libraries/TickMath.sol\":1934:1976  ratio * 0xffe5caca7e10e4e61c3624eaa0941cd0 */\n      tag_259\n      jump\t// in\n    tag_341:\n        /* \"TFGv3/Contracts/libraries/TickMath.sol\":1933:1984  (ratio * 0xffe5caca7e10e4e61c3624eaa0941cd0) >> 128 */\n      swap1\n      shr\n        /* \"TFGv3/Contracts/libraries/TickMath.sol\":1925:1984  ratio = (ratio * 0xffe5caca7e10e4e61c3624eaa0941cd0) >> 128 */\n      swap1\n      pop\n        /* \"TFGv3/Contracts/libraries/TickMath.sol\":1901:1984  if (absTick & 0x8 != 0) ratio = (ratio * 0xffe5caca7e10e4e61c3624eaa0941cd0) >> 128 */\n    tag_340:\n        /* \"TFGv3/Contracts/libraries/TickMath.sol\":2008:2012  0x10 */\n      0x10\n        /* \"TFGv3/Contracts/libraries/TickMath.sol\":1998:2012  absTick & 0x10 */\n      dup3\n      and\n        /* \"TFGv3/Contracts/libraries/TickMath.sol\":1998:2017  absTick & 0x10 != 0 */\n      iszero\n        /* \"TFGv3/Contracts/libraries/TickMath.sol\":1994:2078  if (absTick & 0x10 != 0) ratio = (ratio * 0xffcb9843d60f6159c9db58835c926644) >> 128 */\n      tag_342\n      jumpi\n        /* \"TFGv3/Contracts/libraries/TickMath.sol\":2075:2078  128 */\n      0x80\n        /* \"TFGv3/Contracts/libraries/TickMath.sol\":2028:2070  ratio * 0xffcb9843d60f6159c9db58835c926644 */\n      tag_343\n        /* \"TFGv3/Contracts/libraries/TickMath.sol\":2028:2033  ratio */\n      dup3\n        /* \"TFGv3/Contracts/libraries/TickMath.sol\":2036:2070  0xffcb9843d60f6159c9db58835c926644 */\n      0xffcb9843d60f6159c9db58835c926644\n        /* \"TFGv3/Contracts/libraries/TickMath.sol\":2028:2070  ratio * 0xffcb9843d60f6159c9db58835c926644 */\n      tag_259\n      jump\t// in\n    tag_343:\n        /* \"TFGv3/Contracts/libraries/TickMath.sol\":2027:2078  (ratio * 0xffcb9843d60f6159c9db58835c926644) >> 128 */\n      swap1\n      shr\n        /* \"TFGv3/Contracts/libraries/TickMath.sol\":2019:2078  ratio = (ratio * 0xffcb9843d60f6159c9db58835c926644) >> 128 */\n      swap1\n      pop\n        /* \"TFGv3/Contracts/libraries/TickMath.sol\":1994:2078  if (absTick & 0x10 != 0) ratio = (ratio * 0xffcb9843d60f6159c9db58835c926644) >> 128 */\n    tag_342:\n        /* \"TFGv3/Contracts/libraries/TickMath.sol\":2102:2106  0x20 */\n      0x20\n        /* \"TFGv3/Contracts/libraries/TickMath.sol\":2092:2106  absTick & 0x20 */\n      dup3\n      and\n        /* \"TFGv3/Contracts/libraries/TickMath.sol\":2092:2111  absTick & 0x20 != 0 */\n      iszero\n        /* \"TFGv3/Contracts/libraries/TickMath.sol\":2088:2172  if (absTick & 0x20 != 0) ratio = (ratio * 0xff973b41fa98c081472e6896dfb254c0) >> 128 */\n      tag_344\n      jumpi\n        /* \"TFGv3/Contracts/libraries/TickMath.sol\":2169:2172  128 */\n      0x80\n        /* \"TFGv3/Contracts/libraries/TickMath.sol\":2122:2164  ratio * 0xff973b41fa98c081472e6896dfb254c0 */\n      tag_345\n        /* \"TFGv3/Contracts/libraries/TickMath.sol\":2122:2127  ratio */\n      dup3\n        /* \"TFGv3/Contracts/libraries/TickMath.sol\":2130:2164  0xff973b41fa98c081472e6896dfb254c0 */\n      0xff973b41fa98c081472e6896dfb254c0\n        /* \"TFGv3/Contracts/libraries/TickMath.sol\":2122:2164  ratio * 0xff973b41fa98c081472e6896dfb254c0 */\n      tag_259\n      jump\t// in\n    tag_345:\n        /* \"TFGv3/Contracts/libraries/TickMath.sol\":2121:2172  (ratio * 0xff973b41fa98c081472e6896dfb254c0) >> 128 */\n      swap1\n      shr\n        /* \"TFGv3/Contracts/libraries/TickMath.sol\":2113:2172  ratio = (ratio * 0xff973b41fa98c081472e6896dfb254c0) >> 128 */\n      swap1\n      pop\n        /* \"TFGv3/Contracts/libraries/TickMath.sol\":2088:2172  if (absTick & 0x20 != 0) ratio = (ratio * 0xff973b41fa98c081472e6896dfb254c0) >> 128 */\n    tag_344:\n        /* \"TFGv3/Contracts/libraries/TickMath.sol\":2196:2200  0x40 */\n      0x40\n        /* \"TFGv3/Contracts/libraries/TickMath.sol\":2186:2200  absTick & 0x40 */\n      dup3\n      and\n        /* \"TFGv3/Contracts/libraries/TickMath.sol\":2186:2205  absTick & 0x40 != 0 */\n      iszero\n        /* \"TFGv3/Contracts/libraries/TickMath.sol\":2182:2266  if (absTick & 0x40 != 0) ratio = (ratio * 0xff2ea16466c96a3843ec78b326b52861) >> 128 */\n      tag_346\n      jumpi\n        /* \"TFGv3/Contracts/libraries/TickMath.sol\":2263:2266  128 */\n      0x80\n        /* \"TFGv3/Contracts/libraries/TickMath.sol\":2216:2258  ratio * 0xff2ea16466c96a3843ec78b326b52861 */\n      tag_347\n        /* \"TFGv3/Contracts/libraries/TickMath.sol\":2216:2221  ratio */\n      dup3\n        /* \"TFGv3/Contracts/libraries/TickMath.sol\":2224:2258  0xff2ea16466c96a3843ec78b326b52861 */\n      0xff2ea16466c96a3843ec78b326b52861\n        /* \"TFGv3/Contracts/libraries/TickMath.sol\":2216:2258  ratio * 0xff2ea16466c96a3843ec78b326b52861 */\n      tag_259\n      jump\t// in\n    tag_347:\n        /* \"TFGv3/Contracts/libraries/TickMath.sol\":2215:2266  (ratio * 0xff2ea16466c96a3843ec78b326b52861) >> 128 */\n      swap1\n      shr\n        /* \"TFGv3/Contracts/libraries/TickMath.sol\":2207:2266  ratio = (ratio * 0xff2ea16466c96a3843ec78b326b52861) >> 128 */\n      swap1\n      pop\n        /* \"TFGv3/Contracts/libraries/TickMath.sol\":2182:2266  if (absTick & 0x40 != 0) ratio = (ratio * 0xff2ea16466c96a3843ec78b326b52861) >> 128 */\n    tag_346:\n        /* \"TFGv3/Contracts/libraries/TickMath.sol\":2290:2294  0x80 */\n      0x80\n        /* \"TFGv3/Contracts/libraries/TickMath.sol\":2280:2294  absTick & 0x80 */\n      dup3\n      and\n        /* \"TFGv3/Contracts/libraries/TickMath.sol\":2280:2299  absTick & 0x80 != 0 */\n      iszero\n        /* \"TFGv3/Contracts/libraries/TickMath.sol\":2276:2360  if (absTick & 0x80 != 0) ratio = (ratio * 0xfe5dee046a99a2a811c461f1969c3053) >> 128 */\n      tag_348\n      jumpi\n        /* \"TFGv3/Contracts/libraries/TickMath.sol\":2357:2360  128 */\n      0x80\n        /* \"TFGv3/Contracts/libraries/TickMath.sol\":2310:2352  ratio * 0xfe5dee046a99a2a811c461f1969c3053 */\n      tag_349\n        /* \"TFGv3/Contracts/libraries/TickMath.sol\":2310:2315  ratio */\n      dup3\n        /* \"TFGv3/Contracts/libraries/TickMath.sol\":2318:2352  0xfe5dee046a99a2a811c461f1969c3053 */\n      0xfe5dee046a99a2a811c461f1969c3053\n        /* \"TFGv3/Contracts/libraries/TickMath.sol\":2310:2352  ratio * 0xfe5dee046a99a2a811c461f1969c3053 */\n      tag_259\n      jump\t// in\n    tag_349:\n        /* \"TFGv3/Contracts/libraries/TickMath.sol\":2309:2360  (ratio * 0xfe5dee046a99a2a811c461f1969c3053) >> 128 */\n      swap1\n      shr\n        /* \"TFGv3/Contracts/libraries/TickMath.sol\":2301:2360  ratio = (ratio * 0xfe5dee046a99a2a811c461f1969c3053) >> 128 */\n      swap1\n      pop\n        /* \"TFGv3/Contracts/libraries/TickMath.sol\":2276:2360  if (absTick & 0x80 != 0) ratio = (ratio * 0xfe5dee046a99a2a811c461f1969c3053) >> 128 */\n    tag_348:\n        /* \"TFGv3/Contracts/libraries/TickMath.sol\":2384:2389  0x100 */\n      0x0100\n        /* \"TFGv3/Contracts/libraries/TickMath.sol\":2374:2389  absTick & 0x100 */\n      dup3\n      and\n        /* \"TFGv3/Contracts/libraries/TickMath.sol\":2374:2394  absTick & 0x100 != 0 */\n      iszero\n        /* \"TFGv3/Contracts/libraries/TickMath.sol\":2370:2455  if (absTick & 0x100 != 0) ratio = (ratio * 0xfcbe86c7900a88aedcffc83b479aa3a4) >> 128 */\n      tag_350\n      jumpi\n        /* \"TFGv3/Contracts/libraries/TickMath.sol\":2452:2455  128 */\n      0x80\n        /* \"TFGv3/Contracts/libraries/TickMath.sol\":2405:2447  ratio * 0xfcbe86c7900a88aedcffc83b479aa3a4 */\n      tag_351\n        /* \"TFGv3/Contracts/libraries/TickMath.sol\":2405:2410  ratio */\n      dup3\n        /* \"TFGv3/Contracts/libraries/TickMath.sol\":2413:2447  0xfcbe86c7900a88aedcffc83b479aa3a4 */\n      0xfcbe86c7900a88aedcffc83b479aa3a4\n        /* \"TFGv3/Contracts/libraries/TickMath.sol\":2405:2447  ratio * 0xfcbe86c7900a88aedcffc83b479aa3a4 */\n      tag_259\n      jump\t// in\n    tag_351:\n        /* \"TFGv3/Contracts/libraries/TickMath.sol\":2404:2455  (ratio * 0xfcbe86c7900a88aedcffc83b479aa3a4) >> 128 */\n      swap1\n      shr\n        /* \"TFGv3/Contracts/libraries/TickMath.sol\":2396:2455  ratio = (ratio * 0xfcbe86c7900a88aedcffc83b479aa3a4) >> 128 */\n      swap1\n      pop\n        /* \"TFGv3/Contracts/libraries/TickMath.sol\":2370:2455  if (absTick & 0x100 != 0) ratio = (ratio * 0xfcbe86c7900a88aedcffc83b479aa3a4) >> 128 */\n    tag_350:\n        /* \"TFGv3/Contracts/libraries/TickMath.sol\":2479:2484  0x200 */\n      0x0200\n        /* \"TFGv3/Contracts/libraries/TickMath.sol\":2469:2484  absTick & 0x200 */\n      dup3\n      and\n        /* \"TFGv3/Contracts/libraries/TickMath.sol\":2469:2489  absTick & 0x200 != 0 */\n      iszero\n        /* \"TFGv3/Contracts/libraries/TickMath.sol\":2465:2550  if (absTick & 0x200 != 0) ratio = (ratio * 0xf987a7253ac413176f2b074cf7815e54) >> 128 */\n      tag_352\n      jumpi\n        /* \"TFGv3/Contracts/libraries/TickMath.sol\":2547:2550  128 */\n      0x80\n        /* \"TFGv3/Contracts/libraries/TickMath.sol\":2500:2542  ratio * 0xf987a7253ac413176f2b074cf7815e54 */\n      tag_353\n        /* \"TFGv3/Contracts/libraries/TickMath.sol\":2500:2505  ratio */\n      dup3\n        /* \"TFGv3/Contracts/libraries/TickMath.sol\":2508:2542  0xf987a7253ac413176f2b074cf7815e54 */\n      0xf987a7253ac413176f2b074cf7815e54\n        /* \"TFGv3/Contracts/libraries/TickMath.sol\":2500:2542  ratio * 0xf987a7253ac413176f2b074cf7815e54 */\n      tag_259\n      jump\t// in\n    tag_353:\n        /* \"TFGv3/Contracts/libraries/TickMath.sol\":2499:2550  (ratio * 0xf987a7253ac413176f2b074cf7815e54) >> 128 */\n      swap1\n      shr\n        /* \"TFGv3/Contracts/libraries/TickMath.sol\":2491:2550  ratio = (ratio * 0xf987a7253ac413176f2b074cf7815e54) >> 128 */\n      swap1\n      pop\n        /* \"TFGv3/Contracts/libraries/TickMath.sol\":2465:2550  if (absTick & 0x200 != 0) ratio = (ratio * 0xf987a7253ac413176f2b074cf7815e54) >> 128 */\n    tag_352:\n        /* \"TFGv3/Contracts/libraries/TickMath.sol\":2574:2579  0x400 */\n      0x0400\n        /* \"TFGv3/Contracts/libraries/TickMath.sol\":2564:2579  absTick & 0x400 */\n      dup3\n      and\n        /* \"TFGv3/Contracts/libraries/TickMath.sol\":2564:2584  absTick & 0x400 != 0 */\n      iszero\n        /* \"TFGv3/Contracts/libraries/TickMath.sol\":2560:2645  if (absTick & 0x400 != 0) ratio = (ratio * 0xf3392b0822b70005940c7a398e4b70f3) >> 128 */\n      tag_354\n      jumpi\n        /* \"TFGv3/Contracts/libraries/TickMath.sol\":2642:2645  128 */\n      0x80\n        /* \"TFGv3/Contracts/libraries/TickMath.sol\":2595:2637  ratio * 0xf3392b0822b70005940c7a398e4b70f3 */\n      tag_355\n        /* \"TFGv3/Contracts/libraries/TickMath.sol\":2595:2600  ratio */\n      dup3\n        /* \"TFGv3/Contracts/libraries/TickMath.sol\":2603:2637  0xf3392b0822b70005940c7a398e4b70f3 */\n      0xf3392b0822b70005940c7a398e4b70f3\n        /* \"TFGv3/Contracts/libraries/TickMath.sol\":2595:2637  ratio * 0xf3392b0822b70005940c7a398e4b70f3 */\n      tag_259\n      jump\t// in\n    tag_355:\n        /* \"TFGv3/Contracts/libraries/TickMath.sol\":2594:2645  (ratio * 0xf3392b0822b70005940c7a398e4b70f3) >> 128 */\n      swap1\n      shr\n        /* \"TFGv3/Contracts/libraries/TickMath.sol\":2586:2645  ratio = (ratio * 0xf3392b0822b70005940c7a398e4b70f3) >> 128 */\n      swap1\n      pop\n        /* \"TFGv3/Contracts/libraries/TickMath.sol\":2560:2645  if (absTick & 0x400 != 0) ratio = (ratio * 0xf3392b0822b70005940c7a398e4b70f3) >> 128 */\n    tag_354:\n        /* \"TFGv3/Contracts/libraries/TickMath.sol\":2669:2674  0x800 */\n      0x0800\n        /* \"TFGv3/Contracts/libraries/TickMath.sol\":2659:2674  absTick & 0x800 */\n      dup3\n      and\n        /* \"TFGv3/Contracts/libraries/TickMath.sol\":2659:2679  absTick & 0x800 != 0 */\n      iszero\n        /* \"TFGv3/Contracts/libraries/TickMath.sol\":2655:2740  if (absTick & 0x800 != 0) ratio = (ratio * 0xe7159475a2c29b7443b29c7fa6e889d9) >> 128 */\n      tag_356\n      jumpi\n        /* \"TFGv3/Contracts/libraries/TickMath.sol\":2737:2740  128 */\n      0x80\n        /* \"TFGv3/Contracts/libraries/TickMath.sol\":2690:2732  ratio * 0xe7159475a2c29b7443b29c7fa6e889d9 */\n      tag_357\n        /* \"TFGv3/Contracts/libraries/TickMath.sol\":2690:2695  ratio */\n      dup3\n        /* \"TFGv3/Contracts/libraries/TickMath.sol\":2698:2732  0xe7159475a2c29b7443b29c7fa6e889d9 */\n      0xe7159475a2c29b7443b29c7fa6e889d9\n        /* \"TFGv3/Contracts/libraries/TickMath.sol\":2690:2732  ratio * 0xe7159475a2c29b7443b29c7fa6e889d9 */\n      tag_259\n      jump\t// in\n    tag_357:\n        /* \"TFGv3/Contracts/libraries/TickMath.sol\":2689:2740  (ratio * 0xe7159475a2c29b7443b29c7fa6e889d9) >> 128 */\n      swap1\n      shr\n        /* \"TFGv3/Contracts/libraries/TickMath.sol\":2681:2740  ratio = (ratio * 0xe7159475a2c29b7443b29c7fa6e889d9) >> 128 */\n      swap1\n      pop\n        /* \"TFGv3/Contracts/libraries/TickMath.sol\":2655:2740  if (absTick & 0x800 != 0) ratio = (ratio * 0xe7159475a2c29b7443b29c7fa6e889d9) >> 128 */\n    tag_356:\n        /* \"TFGv3/Contracts/libraries/TickMath.sol\":2764:2770  0x1000 */\n      0x1000\n        /* \"TFGv3/Contracts/libraries/TickMath.sol\":2754:2770  absTick & 0x1000 */\n      dup3\n      and\n        /* \"TFGv3/Contracts/libraries/TickMath.sol\":2754:2775  absTick & 0x1000 != 0 */\n      iszero\n        /* \"TFGv3/Contracts/libraries/TickMath.sol\":2750:2836  if (absTick & 0x1000 != 0) ratio = (ratio * 0xd097f3bdfd2022b8845ad8f792aa5825) >> 128 */\n      tag_358\n      jumpi\n        /* \"TFGv3/Contracts/libraries/TickMath.sol\":2833:2836  128 */\n      0x80\n        /* \"TFGv3/Contracts/libraries/TickMath.sol\":2786:2828  ratio * 0xd097f3bdfd2022b8845ad8f792aa5825 */\n      tag_359\n        /* \"TFGv3/Contracts/libraries/TickMath.sol\":2786:2791  ratio */\n      dup3\n        /* \"TFGv3/Contracts/libraries/TickMath.sol\":2794:2828  0xd097f3bdfd2022b8845ad8f792aa5825 */\n      0xd097f3bdfd2022b8845ad8f792aa5825\n        /* \"TFGv3/Contracts/libraries/TickMath.sol\":2786:2828  ratio * 0xd097f3bdfd2022b8845ad8f792aa5825 */\n      tag_259\n      jump\t// in\n    tag_359:\n        /* \"TFGv3/Contracts/libraries/TickMath.sol\":2785:2836  (ratio * 0xd097f3bdfd2022b8845ad8f792aa5825) >> 128 */\n      swap1\n      shr\n        /* \"TFGv3/Contracts/libraries/TickMath.sol\":2777:2836  ratio = (ratio * 0xd097f3bdfd2022b8845ad8f792aa5825) >> 128 */\n      swap1\n      pop\n        /* \"TFGv3/Contracts/libraries/TickMath.sol\":2750:2836  if (absTick & 0x1000 != 0) ratio = (ratio * 0xd097f3bdfd2022b8845ad8f792aa5825) >> 128 */\n    tag_358:\n        /* \"TFGv3/Contracts/libraries/TickMath.sol\":2860:2866  0x2000 */\n      0x2000\n        /* \"TFGv3/Contracts/libraries/TickMath.sol\":2850:2866  absTick & 0x2000 */\n      dup3\n      and\n        /* \"TFGv3/Contracts/libraries/TickMath.sol\":2850:2871  absTick & 0x2000 != 0 */\n      iszero\n        /* \"TFGv3/Contracts/libraries/TickMath.sol\":2846:2932  if (absTick & 0x2000 != 0) ratio = (ratio * 0xa9f746462d870fdf8a65dc1f90e061e5) >> 128 */\n      tag_360\n      jumpi\n        /* \"TFGv3/Contracts/libraries/TickMath.sol\":2929:2932  128 */\n      0x80\n        /* \"TFGv3/Contracts/libraries/TickMath.sol\":2882:2924  ratio * 0xa9f746462d870fdf8a65dc1f90e061e5 */\n      tag_361\n        /* \"TFGv3/Contracts/libraries/TickMath.sol\":2882:2887  ratio */\n      dup3\n        /* \"TFGv3/Contracts/libraries/TickMath.sol\":2890:2924  0xa9f746462d870fdf8a65dc1f90e061e5 */\n      0xa9f746462d870fdf8a65dc1f90e061e5\n        /* \"TFGv3/Contracts/libraries/TickMath.sol\":2882:2924  ratio * 0xa9f746462d870fdf8a65dc1f90e061e5 */\n      tag_259\n      jump\t// in\n    tag_361:\n        /* \"TFGv3/Contracts/libraries/TickMath.sol\":2881:2932  (ratio * 0xa9f746462d870fdf8a65dc1f90e061e5) >> 128 */\n      swap1\n      shr\n        /* \"TFGv3/Contracts/libraries/TickMath.sol\":2873:2932  ratio = (ratio * 0xa9f746462d870fdf8a65dc1f90e061e5) >> 128 */\n      swap1\n      pop\n        /* \"TFGv3/Contracts/libraries/TickMath.sol\":2846:2932  if (absTick & 0x2000 != 0) ratio = (ratio * 0xa9f746462d870fdf8a65dc1f90e061e5) >> 128 */\n    tag_360:\n        /* \"TFGv3/Contracts/libraries/TickMath.sol\":2956:2962  0x4000 */\n      0x4000\n        /* \"TFGv3/Contracts/libraries/TickMath.sol\":2946:2962  absTick & 0x4000 */\n      dup3\n      and\n        /* \"TFGv3/Contracts/libraries/TickMath.sol\":2946:2967  absTick & 0x4000 != 0 */\n      iszero\n        /* \"TFGv3/Contracts/libraries/TickMath.sol\":2942:3028  if (absTick & 0x4000 != 0) ratio = (ratio * 0x70d869a156d2a1b890bb3df62baf32f7) >> 128 */\n      tag_362\n      jumpi\n        /* \"TFGv3/Contracts/libraries/TickMath.sol\":3025:3028  128 */\n      0x80\n        /* \"TFGv3/Contracts/libraries/TickMath.sol\":2978:3020  ratio * 0x70d869a156d2a1b890bb3df62baf32f7 */\n      tag_363\n        /* \"TFGv3/Contracts/libraries/TickMath.sol\":2978:2983  ratio */\n      dup3\n        /* \"TFGv3/Contracts/libraries/TickMath.sol\":2986:3020  0x70d869a156d2a1b890bb3df62baf32f7 */\n      0x70d869a156d2a1b890bb3df62baf32f7\n        /* \"TFGv3/Contracts/libraries/TickMath.sol\":2978:3020  ratio * 0x70d869a156d2a1b890bb3df62baf32f7 */\n      tag_259\n      jump\t// in\n    tag_363:\n        /* \"TFGv3/Contracts/libraries/TickMath.sol\":2977:3028  (ratio * 0x70d869a156d2a1b890bb3df62baf32f7) >> 128 */\n      swap1\n      shr\n        /* \"TFGv3/Contracts/libraries/TickMath.sol\":2969:3028  ratio = (ratio * 0x70d869a156d2a1b890bb3df62baf32f7) >> 128 */\n      swap1\n      pop\n        /* \"TFGv3/Contracts/libraries/TickMath.sol\":2942:3028  if (absTick & 0x4000 != 0) ratio = (ratio * 0x70d869a156d2a1b890bb3df62baf32f7) >> 128 */\n    tag_362:\n        /* \"TFGv3/Contracts/libraries/TickMath.sol\":3052:3058  0x8000 */\n      0x8000\n        /* \"TFGv3/Contracts/libraries/TickMath.sol\":3042:3058  absTick & 0x8000 */\n      dup3\n      and\n        /* \"TFGv3/Contracts/libraries/TickMath.sol\":3042:3063  absTick & 0x8000 != 0 */\n      iszero\n        /* \"TFGv3/Contracts/libraries/TickMath.sol\":3038:3124  if (absTick & 0x8000 != 0) ratio = (ratio * 0x31be135f97d08fd981231505542fcfa6) >> 128 */\n      tag_364\n      jumpi\n        /* \"TFGv3/Contracts/libraries/TickMath.sol\":3121:3124  128 */\n      0x80\n        /* \"TFGv3/Contracts/libraries/TickMath.sol\":3074:3116  ratio * 0x31be135f97d08fd981231505542fcfa6 */\n      tag_365\n        /* \"TFGv3/Contracts/libraries/TickMath.sol\":3074:3079  ratio */\n      dup3\n        /* \"TFGv3/Contracts/libraries/TickMath.sol\":3082:3116  0x31be135f97d08fd981231505542fcfa6 */\n      0x31be135f97d08fd981231505542fcfa6\n        /* \"TFGv3/Contracts/libraries/TickMath.sol\":3074:3116  ratio * 0x31be135f97d08fd981231505542fcfa6 */\n      tag_259\n      jump\t// in\n    tag_365:\n        /* \"TFGv3/Contracts/libraries/TickMath.sol\":3073:3124  (ratio * 0x31be135f97d08fd981231505542fcfa6) >> 128 */\n      swap1\n      shr\n        /* \"TFGv3/Contracts/libraries/TickMath.sol\":3065:3124  ratio = (ratio * 0x31be135f97d08fd981231505542fcfa6) >> 128 */\n      swap1\n      pop\n        /* \"TFGv3/Contracts/libraries/TickMath.sol\":3038:3124  if (absTick & 0x8000 != 0) ratio = (ratio * 0x31be135f97d08fd981231505542fcfa6) >> 128 */\n    tag_364:\n        /* \"TFGv3/Contracts/libraries/TickMath.sol\":3148:3155  0x10000 */\n      0x010000\n        /* \"TFGv3/Contracts/libraries/TickMath.sol\":3138:3155  absTick & 0x10000 */\n      dup3\n      and\n        /* \"TFGv3/Contracts/libraries/TickMath.sol\":3138:3160  absTick & 0x10000 != 0 */\n      iszero\n        /* \"TFGv3/Contracts/libraries/TickMath.sol\":3134:3220  if (absTick & 0x10000 != 0) ratio = (ratio * 0x9aa508b5b7a84e1c677de54f3e99bc9) >> 128 */\n      tag_366\n      jumpi\n        /* \"TFGv3/Contracts/libraries/TickMath.sol\":3217:3220  128 */\n      0x80\n        /* \"TFGv3/Contracts/libraries/TickMath.sol\":3171:3212  ratio * 0x9aa508b5b7a84e1c677de54f3e99bc9 */\n      tag_367\n        /* \"TFGv3/Contracts/libraries/TickMath.sol\":3171:3176  ratio */\n      dup3\n        /* \"TFGv3/Contracts/libraries/TickMath.sol\":3179:3212  0x9aa508b5b7a84e1c677de54f3e99bc9 */\n      0x09aa508b5b7a84e1c677de54f3e99bc9\n        /* \"TFGv3/Contracts/libraries/TickMath.sol\":3171:3212  ratio * 0x9aa508b5b7a84e1c677de54f3e99bc9 */\n      tag_259\n      jump\t// in\n    tag_367:\n        /* \"TFGv3/Contracts/libraries/TickMath.sol\":3170:3220  (ratio * 0x9aa508b5b7a84e1c677de54f3e99bc9) >> 128 */\n      swap1\n      shr\n        /* \"TFGv3/Contracts/libraries/TickMath.sol\":3162:3220  ratio = (ratio * 0x9aa508b5b7a84e1c677de54f3e99bc9) >> 128 */\n      swap1\n      pop\n        /* \"TFGv3/Contracts/libraries/TickMath.sol\":3134:3220  if (absTick & 0x10000 != 0) ratio = (ratio * 0x9aa508b5b7a84e1c677de54f3e99bc9) >> 128 */\n    tag_366:\n        /* \"TFGv3/Contracts/libraries/TickMath.sol\":3244:3251  0x20000 */\n      0x020000\n        /* \"TFGv3/Contracts/libraries/TickMath.sol\":3234:3251  absTick & 0x20000 */\n      dup3\n      and\n        /* \"TFGv3/Contracts/libraries/TickMath.sol\":3234:3256  absTick & 0x20000 != 0 */\n      iszero\n        /* \"TFGv3/Contracts/libraries/TickMath.sol\":3230:3315  if (absTick & 0x20000 != 0) ratio = (ratio * 0x5d6af8dedb81196699c329225ee604) >> 128 */\n      tag_368\n      jumpi\n        /* \"TFGv3/Contracts/libraries/TickMath.sol\":3312:3315  128 */\n      0x80\n        /* \"TFGv3/Contracts/libraries/TickMath.sol\":3267:3307  ratio * 0x5d6af8dedb81196699c329225ee604 */\n      tag_369\n        /* \"TFGv3/Contracts/libraries/TickMath.sol\":3267:3272  ratio */\n      dup3\n        /* \"TFGv3/Contracts/libraries/TickMath.sol\":3275:3307  0x5d6af8dedb81196699c329225ee604 */\n      0x5d6af8dedb81196699c329225ee604\n        /* \"TFGv3/Contracts/libraries/TickMath.sol\":3267:3307  ratio * 0x5d6af8dedb81196699c329225ee604 */\n      tag_259\n      jump\t// in\n    tag_369:\n        /* \"TFGv3/Contracts/libraries/TickMath.sol\":3266:3315  (ratio * 0x5d6af8dedb81196699c329225ee604) >> 128 */\n      swap1\n      shr\n        /* \"TFGv3/Contracts/libraries/TickMath.sol\":3258:3315  ratio = (ratio * 0x5d6af8dedb81196699c329225ee604) >> 128 */\n      swap1\n      pop\n        /* \"TFGv3/Contracts/libraries/TickMath.sol\":3230:3315  if (absTick & 0x20000 != 0) ratio = (ratio * 0x5d6af8dedb81196699c329225ee604) >> 128 */\n    tag_368:\n        /* \"TFGv3/Contracts/libraries/TickMath.sol\":3339:3346  0x40000 */\n      0x040000\n        /* \"TFGv3/Contracts/libraries/TickMath.sol\":3329:3346  absTick & 0x40000 */\n      dup3\n      and\n        /* \"TFGv3/Contracts/libraries/TickMath.sol\":3329:3351  absTick & 0x40000 != 0 */\n      iszero\n        /* \"TFGv3/Contracts/libraries/TickMath.sol\":3325:3408  if (absTick & 0x40000 != 0) ratio = (ratio * 0x2216e584f5fa1ea926041bedfe98) >> 128 */\n      tag_370\n      jumpi\n        /* \"TFGv3/Contracts/libraries/TickMath.sol\":3405:3408  128 */\n      0x80\n        /* \"TFGv3/Contracts/libraries/TickMath.sol\":3362:3400  ratio * 0x2216e584f5fa1ea926041bedfe98 */\n      tag_371\n        /* \"TFGv3/Contracts/libraries/TickMath.sol\":3362:3367  ratio */\n      dup3\n        /* \"TFGv3/Contracts/libraries/TickMath.sol\":3370:3400  0x2216e584f5fa1ea926041bedfe98 */\n      0x2216e584f5fa1ea926041bedfe98\n        /* \"TFGv3/Contracts/libraries/TickMath.sol\":3362:3400  ratio * 0x2216e584f5fa1ea926041bedfe98 */\n      tag_259\n      jump\t// in\n    tag_371:\n        /* \"TFGv3/Contracts/libraries/TickMath.sol\":3361:3408  (ratio * 0x2216e584f5fa1ea926041bedfe98) >> 128 */\n      swap1\n      shr\n        /* \"TFGv3/Contracts/libraries/TickMath.sol\":3353:3408  ratio = (ratio * 0x2216e584f5fa1ea926041bedfe98) >> 128 */\n      swap1\n      pop\n        /* \"TFGv3/Contracts/libraries/TickMath.sol\":3325:3408  if (absTick & 0x40000 != 0) ratio = (ratio * 0x2216e584f5fa1ea926041bedfe98) >> 128 */\n    tag_370:\n        /* \"TFGv3/Contracts/libraries/TickMath.sol\":3432:3439  0x80000 */\n      0x080000\n        /* \"TFGv3/Contracts/libraries/TickMath.sol\":3422:3439  absTick & 0x80000 */\n      dup3\n      and\n        /* \"TFGv3/Contracts/libraries/TickMath.sol\":3422:3444  absTick & 0x80000 != 0 */\n      iszero\n        /* \"TFGv3/Contracts/libraries/TickMath.sol\":3418:3496  if (absTick & 0x80000 != 0) ratio = (ratio * 0x48a170391f7dc42444e8fa2) >> 128 */\n      tag_372\n      jumpi\n        /* \"TFGv3/Contracts/libraries/TickMath.sol\":3493:3496  128 */\n      0x80\n        /* \"TFGv3/Contracts/libraries/TickMath.sol\":3455:3488  ratio * 0x48a170391f7dc42444e8fa2 */\n      tag_373\n        /* \"TFGv3/Contracts/libraries/TickMath.sol\":3455:3460  ratio */\n      dup3\n        /* \"TFGv3/Contracts/libraries/TickMath.sol\":3463:3488  0x48a170391f7dc42444e8fa2 */\n      0x048a170391f7dc42444e8fa2\n        /* \"TFGv3/Contracts/libraries/TickMath.sol\":3455:3488  ratio * 0x48a170391f7dc42444e8fa2 */\n      tag_259\n      jump\t// in\n    tag_373:\n        /* \"TFGv3/Contracts/libraries/TickMath.sol\":3454:3496  (ratio * 0x48a170391f7dc42444e8fa2) >> 128 */\n      swap1\n      shr\n        /* \"TFGv3/Contracts/libraries/TickMath.sol\":3446:3496  ratio = (ratio * 0x48a170391f7dc42444e8fa2) >> 128 */\n      swap1\n      pop\n        /* \"TFGv3/Contracts/libraries/TickMath.sol\":3418:3496  if (absTick & 0x80000 != 0) ratio = (ratio * 0x48a170391f7dc42444e8fa2) >> 128 */\n    tag_372:\n        /* \"TFGv3/Contracts/libraries/TickMath.sol\":3518:3519  0 */\n      0x00\n        /* \"TFGv3/Contracts/libraries/TickMath.sol\":3511:3515  tick */\n      dup5\n        /* \"TFGv3/Contracts/libraries/TickMath.sol\":3511:3519  tick > 0 */\n      0x02\n      signextend\n      sgt\n        /* \"TFGv3/Contracts/libraries/TickMath.sol\":3507:3554  if (tick > 0) ratio = type(uint256).max / ratio */\n      iszero\n      tag_374\n      jumpi\n        /* \"TFGv3/Contracts/libraries/TickMath.sol\":3529:3554  type(uint256).max / ratio */\n      tag_375\n        /* \"TFGv3/Contracts/libraries/TickMath.sol\":3549:3554  ratio */\n      dup2\n      not(0x00)\n        /* \"TFGv3/Contracts/libraries/TickMath.sol\":3529:3554  type(uint256).max / ratio */\n      tag_197\n      jump\t// in\n    tag_375:\n        /* \"TFGv3/Contracts/libraries/TickMath.sol\":3521:3554  ratio = type(uint256).max / ratio */\n      swap1\n      pop\n        /* \"TFGv3/Contracts/libraries/TickMath.sol\":3507:3554  if (tick > 0) ratio = type(uint256).max / ratio */\n    tag_374:\n        /* \"TFGv3/Contracts/libraries/TickMath.sol\":3904:3921  ratio % (1 << 32) */\n      tag_376\n        /* \"TFGv3/Contracts/libraries/TickMath.sol\":3913:3920  1 << 32 */\n      0x0100000000\n        /* \"TFGv3/Contracts/libraries/TickMath.sol\":3904:3909  ratio */\n      dup3\n        /* \"TFGv3/Contracts/libraries/TickMath.sol\":3904:3921  ratio % (1 << 32) */\n      tag_377\n      jump\t// in\n    tag_376:\n        /* \"TFGv3/Contracts/libraries/TickMath.sol\":3904:3926  ratio % (1 << 32) == 0 */\n      iszero\n        /* \"TFGv3/Contracts/libraries/TickMath.sol\":3904:3934  ratio % (1 << 32) == 0 ? 0 : 1 */\n      tag_378\n      jumpi\n        /* \"TFGv3/Contracts/libraries/TickMath.sol\":3933:3934  1 */\n      0x01\n        /* \"TFGv3/Contracts/libraries/TickMath.sol\":3904:3934  ratio % (1 << 32) == 0 ? 0 : 1 */\n      jump(tag_379)\n    tag_378:\n        /* \"TFGv3/Contracts/libraries/TickMath.sol\":3929:3930  0 */\n      0x00\n        /* \"TFGv3/Contracts/libraries/TickMath.sol\":3904:3934  ratio % (1 << 32) == 0 ? 0 : 1 */\n    tag_379:\n        /* \"TFGv3/Contracts/libraries/TickMath.sol\":3887:3935  (ratio >> 32) + (ratio % (1 << 32) == 0 ? 0 : 1) */\n      tag_380\n      swap1\n      0xff\n      and\n        /* \"TFGv3/Contracts/libraries/TickMath.sol\":3897:3899  32 */\n      0x20\n        /* \"TFGv3/Contracts/libraries/TickMath.sol\":3888:3899  ratio >> 32 */\n      dup4\n      swap1\n      shr\n        /* \"TFGv3/Contracts/libraries/TickMath.sol\":3887:3935  (ratio >> 32) + (ratio % (1 << 32) == 0 ? 0 : 1) */\n      tag_261\n      jump\t// in\n    tag_380:\n        /* \"TFGv3/Contracts/libraries/TickMath.sol\":3864:3936  sqrtPriceX96 = uint160((ratio >> 32) + (ratio % (1 << 32) == 0 ? 0 : 1)) */\n      swap5\n        /* \"TFGv3/Contracts/libraries/TickMath.sol\":1355:3943  function getSqrtRatioAtTick(int24 tick) internal pure returns (uint160 sqrtPriceX96) {... */\n      swap4\n      pop\n      pop\n      pop\n      pop\n      jump\t// out\n        /* \"TFGv3/Contracts/libraries/FullMath.sol\":742:4543  function mulDiv(... */\n    tag_315:\n        /* \"TFGv3/Contracts/libraries/FullMath.sol\":854:868  uint256 result */\n      0x00\n      dup1\n      dup1\n      not(0x00)\n        /* \"TFGv3/Contracts/libraries/FullMath.sol\":1361:1362  b */\n      dup6\n        /* \"TFGv3/Contracts/libraries/FullMath.sol\":1358:1359  a */\n      dup8\n        /* \"TFGv3/Contracts/libraries/FullMath.sol\":1351:1371  mulmod(a, b, not(0)) */\n      mulmod\n        /* \"TFGv3/Contracts/libraries/FullMath.sol\":1400:1401  b */\n      dup6\n        /* \"TFGv3/Contracts/libraries/FullMath.sol\":1397:1398  a */\n      dup8\n        /* \"TFGv3/Contracts/libraries/FullMath.sol\":1393:1402  mul(a, b) */\n      mul\n        /* \"TFGv3/Contracts/libraries/FullMath.sol\":1384:1402  prod0 := mul(a, b) */\n      swap3\n      pop\n        /* \"TFGv3/Contracts/libraries/FullMath.sol\":1451:1456  prod0 */\n      dup3\n        /* \"TFGv3/Contracts/libraries/FullMath.sol\":1447:1449  mm */\n      dup2\n        /* \"TFGv3/Contracts/libraries/FullMath.sol\":1444:1457  lt(mm, prod0) */\n      lt\n        /* \"TFGv3/Contracts/libraries/FullMath.sol\":1436:1441  prod0 */\n      dup4\n        /* \"TFGv3/Contracts/libraries/FullMath.sol\":1432:1434  mm */\n      dup3\n        /* \"TFGv3/Contracts/libraries/FullMath.sol\":1428:1442  sub(mm, prod0) */\n      sub\n        /* \"TFGv3/Contracts/libraries/FullMath.sol\":1424:1458  sub(sub(mm, prod0), lt(mm, prod0)) */\n      sub\n        /* \"TFGv3/Contracts/libraries/FullMath.sol\":1415:1458  prod1 := sub(sub(mm, prod0), lt(mm, prod0)) */\n      swap2\n      pop\n      pop\n        /* \"TFGv3/Contracts/libraries/FullMath.sol\":1540:1545  prod1 */\n      dup1\n        /* \"TFGv3/Contracts/libraries/FullMath.sol\":1549:1550  0 */\n      0x00\n        /* \"TFGv3/Contracts/libraries/FullMath.sol\":1540:1550  prod1 == 0 */\n      sub\n        /* \"TFGv3/Contracts/libraries/FullMath.sol\":1536:1715  if (prod1 == 0) {... */\n      tag_382\n      jumpi\n        /* \"TFGv3/Contracts/libraries/FullMath.sol\":1588:1589  0 */\n      0x00\n        /* \"TFGv3/Contracts/libraries/FullMath.sol\":1574:1585  denominator */\n      dup5\n        /* \"TFGv3/Contracts/libraries/FullMath.sol\":1574:1589  denominator > 0 */\n      gt\n        /* \"TFGv3/Contracts/libraries/FullMath.sol\":1566:1590  require(denominator > 0) */\n      tag_383\n      jumpi\n      0x00\n      dup1\n      revert\n    tag_383:\n      pop\n        /* \"TFGv3/Contracts/libraries/FullMath.sol\":1641:1664  div(prod0, denominator) */\n      dup3\n      swap1\n      div\n      swap1\n      pop\n        /* \"TFGv3/Contracts/libraries/FullMath.sol\":1691:1704  return result */\n      jump(tag_381)\n        /* \"TFGv3/Contracts/libraries/FullMath.sol\":1536:1715  if (prod1 == 0) {... */\n    tag_382:\n        /* \"TFGv3/Contracts/libraries/FullMath.sol\":1842:1847  prod1 */\n      dup1\n        /* \"TFGv3/Contracts/libraries/FullMath.sol\":1828:1839  denominator */\n      dup5\n        /* \"TFGv3/Contracts/libraries/FullMath.sol\":1828:1847  denominator > prod1 */\n      gt\n        /* \"TFGv3/Contracts/libraries/FullMath.sol\":1820:1848  require(denominator > prod1) */\n      tag_384\n      jumpi\n      0x00\n      dup1\n      revert\n    tag_384:\n        /* \"TFGv3/Contracts/libraries/FullMath.sol\":2125:2142  uint256 remainder */\n      0x00\n        /* \"TFGv3/Contracts/libraries/FullMath.sol\":2201:2212  denominator */\n      dup5\n        /* \"TFGv3/Contracts/libraries/FullMath.sol\":2198:2199  b */\n      dup7\n        /* \"TFGv3/Contracts/libraries/FullMath.sol\":2195:2196  a */\n      dup9\n        /* \"TFGv3/Contracts/libraries/FullMath.sol\":2188:2213  mulmod(a, b, denominator) */\n      mulmod\n        /* \"TFGv3/Contracts/libraries/FullMath.sol\":2373:2394  sub(prod0, remainder) */\n      dup1\n      dup5\n      sub\n      swap4\n        /* \"TFGv3/Contracts/libraries/FullMath.sol\":2330:2350  gt(remainder, prod0) */\n      dup2\n      gt\n        /* \"TFGv3/Contracts/libraries/FullMath.sol\":2319:2351  sub(prod1, gt(remainder, prod0)) */\n      swap1\n      swap3\n      sub\n      swap2\n        /* \"TFGv3/Contracts/libraries/FullMath.sol\":2175:2213  remainder := mulmod(a, b, denominator) */\n      swap1\n      pop\n        /* \"TFGv3/Contracts/libraries/FullMath.sol\":2553:2565  uint256 twos */\n      0x00\n        /* \"TFGv3/Contracts/libraries/FullMath.sol\":2608:2619  denominator */\n      dup6\n        /* \"TFGv3/Contracts/libraries/FullMath.sol\":2569:2600  type(uint256).max - denominator */\n      tag_385\n        /* \"TFGv3/Contracts/libraries/FullMath.sol\":2608:2619  denominator */\n      dup2\n      not(0x00)\n        /* \"TFGv3/Contracts/libraries/FullMath.sol\":2569:2600  type(uint256).max - denominator */\n      tag_108\n      jump\t// in\n    tag_385:\n        /* \"TFGv3/Contracts/libraries/FullMath.sol\":2569:2604  type(uint256).max - denominator + 1 */\n      tag_386\n      swap1\n        /* \"TFGv3/Contracts/libraries/FullMath.sol\":2603:2604  1 */\n      0x01\n        /* \"TFGv3/Contracts/libraries/FullMath.sol\":2569:2604  type(uint256).max - denominator + 1 */\n      tag_261\n      jump\t// in\n    tag_386:\n        /* \"TFGv3/Contracts/libraries/FullMath.sol\":2568:2619  (type(uint256).max - denominator + 1) & denominator */\n      and\n        /* \"TFGv3/Contracts/libraries/FullMath.sol\":2713:2735  div(denominator, twos) */\n      swap6\n      dup7\n      swap1\n      div\n      swap6\n        /* \"TFGv3/Contracts/libraries/FullMath.sol\":2841:2857  div(prod0, twos) */\n      swap4\n      dup5\n      swap1\n      div\n      swap4\n        /* \"TFGv3/Contracts/libraries/FullMath.sol\":3089:3090  0 */\n      0x00\n        /* \"TFGv3/Contracts/libraries/FullMath.sol\":3085:3097  sub(0, twos) */\n      dup2\n      swap1\n      sub\n        /* \"TFGv3/Contracts/libraries/FullMath.sol\":3081:3104  div(sub(0, twos), twos) */\n      div\n        /* \"TFGv3/Contracts/libraries/FullMath.sol\":3106:3107  1 */\n      0x01\n        /* \"TFGv3/Contracts/libraries/FullMath.sol\":3077:3108  add(div(sub(0, twos), twos), 1) */\n      add\n      swap1\n      pop\n        /* \"TFGv3/Contracts/libraries/FullMath.sol\":3136:3148  prod1 * twos */\n      tag_387\n        /* \"TFGv3/Contracts/libraries/FullMath.sol\":3077:3108  add(div(sub(0, twos), twos), 1) */\n      dup2\n        /* \"TFGv3/Contracts/libraries/FullMath.sol\":3136:3141  prod1 */\n      dup5\n        /* \"TFGv3/Contracts/libraries/FullMath.sol\":3136:3148  prod1 * twos */\n      tag_259\n      jump\t// in\n    tag_387:\n        /* \"TFGv3/Contracts/libraries/FullMath.sol\":3127:3148  prod0 |= prod1 * twos */\n      swap1\n      swap4\n      or\n      swap3\n        /* \"TFGv3/Contracts/libraries/FullMath.sol\":3482:3493  uint256 inv */\n      0x00\n        /* \"TFGv3/Contracts/libraries/FullMath.sol\":3497:3512  3 * denominator */\n      tag_388\n        /* \"TFGv3/Contracts/libraries/FullMath.sol\":3501:3512  denominator */\n      dup8\n        /* \"TFGv3/Contracts/libraries/FullMath.sol\":3497:3498  3 */\n      0x03\n        /* \"TFGv3/Contracts/libraries/FullMath.sol\":3497:3512  3 * denominator */\n      tag_259\n      jump\t// in\n    tag_388:\n        /* \"TFGv3/Contracts/libraries/FullMath.sol\":3516:3517  2 */\n      0x02\n        /* \"TFGv3/Contracts/libraries/FullMath.sol\":3496:3517  (3 * denominator) ^ 2 */\n      xor\n      swap1\n      pop\n        /* \"TFGv3/Contracts/libraries/FullMath.sol\":3743:3760  denominator * inv */\n      tag_389\n        /* \"TFGv3/Contracts/libraries/FullMath.sol\":3496:3517  (3 * denominator) ^ 2 */\n      dup2\n        /* \"TFGv3/Contracts/libraries/FullMath.sol\":3743:3754  denominator */\n      dup9\n        /* \"TFGv3/Contracts/libraries/FullMath.sol\":3743:3760  denominator * inv */\n      tag_259\n      jump\t// in\n    tag_389:\n        /* \"TFGv3/Contracts/libraries/FullMath.sol\":3739:3760  2 - denominator * inv */\n      tag_390\n      swap1\n        /* \"TFGv3/Contracts/libraries/FullMath.sol\":3739:3740  2 */\n      0x02\n        /* \"TFGv3/Contracts/libraries/FullMath.sol\":3739:3760  2 - denominator * inv */\n      tag_108\n      jump\t// in\n    tag_390:\n        /* \"TFGv3/Contracts/libraries/FullMath.sol\":3732:3760  inv *= 2 - denominator * inv */\n      tag_391\n      swap1\n      dup3\n      tag_259\n      jump\t// in\n    tag_391:\n      swap1\n      pop\n        /* \"TFGv3/Contracts/libraries/FullMath.sol\":3801:3818  denominator * inv */\n      tag_392\n        /* \"TFGv3/Contracts/libraries/FullMath.sol\":3732:3760  inv *= 2 - denominator * inv */\n      dup2\n        /* \"TFGv3/Contracts/libraries/FullMath.sol\":3801:3812  denominator */\n      dup9\n        /* \"TFGv3/Contracts/libraries/FullMath.sol\":3801:3818  denominator * inv */\n      tag_259\n      jump\t// in\n    tag_392:\n        /* \"TFGv3/Contracts/libraries/FullMath.sol\":3797:3818  2 - denominator * inv */\n      tag_393\n      swap1\n        /* \"TFGv3/Contracts/libraries/FullMath.sol\":3797:3798  2 */\n      0x02\n        /* \"TFGv3/Contracts/libraries/FullMath.sol\":3797:3818  2 - denominator * inv */\n      tag_108\n      jump\t// in\n    tag_393:\n        /* \"TFGv3/Contracts/libraries/FullMath.sol\":3790:3818  inv *= 2 - denominator * inv */\n      tag_394\n      swap1\n      dup3\n      tag_259\n      jump\t// in\n    tag_394:\n      swap1\n      pop\n        /* \"TFGv3/Contracts/libraries/FullMath.sol\":3860:3877  denominator * inv */\n      tag_395\n        /* \"TFGv3/Contracts/libraries/FullMath.sol\":3790:3818  inv *= 2 - denominator * inv */\n      dup2\n        /* \"TFGv3/Contracts/libraries/FullMath.sol\":3860:3871  denominator */\n      dup9\n        /* \"TFGv3/Contracts/libraries/FullMath.sol\":3860:3877  denominator * inv */\n      tag_259\n      jump\t// in\n    tag_395:\n        /* \"TFGv3/Contracts/libraries/FullMath.sol\":3856:3877  2 - denominator * inv */\n      tag_396\n      swap1\n        /* \"TFGv3/Contracts/libraries/FullMath.sol\":3856:3857  2 */\n      0x02\n        /* \"TFGv3/Contracts/libraries/FullMath.sol\":3856:3877  2 - denominator * inv */\n      tag_108\n      jump\t// in\n    tag_396:\n        /* \"TFGv3/Contracts/libraries/FullMath.sol\":3849:3877  inv *= 2 - denominator * inv */\n      tag_397\n      swap1\n      dup3\n      tag_259\n      jump\t// in\n    tag_397:\n      swap1\n      pop\n        /* \"TFGv3/Contracts/libraries/FullMath.sol\":3919:3936  denominator * inv */\n      tag_398\n        /* \"TFGv3/Contracts/libraries/FullMath.sol\":3849:3877  inv *= 2 - denominator * inv */\n      dup2\n        /* \"TFGv3/Contracts/libraries/FullMath.sol\":3919:3930  denominator */\n      dup9\n        /* \"TFGv3/Contracts/libraries/FullMath.sol\":3919:3936  denominator * inv */\n      tag_259\n      jump\t// in\n    tag_398:\n        /* \"TFGv3/Contracts/libraries/FullMath.sol\":3915:3936  2 - denominator * inv */\n      tag_399\n      swap1\n        /* \"TFGv3/Contracts/libraries/FullMath.sol\":3915:3916  2 */\n      0x02\n        /* \"TFGv3/Contracts/libraries/FullMath.sol\":3915:3936  2 - denominator * inv */\n      tag_108\n      jump\t// in\n    tag_399:\n        /* \"TFGv3/Contracts/libraries/FullMath.sol\":3908:3936  inv *= 2 - denominator * inv */\n      tag_400\n      swap1\n      dup3\n      tag_259\n      jump\t// in\n    tag_400:\n      swap1\n      pop\n        /* \"TFGv3/Contracts/libraries/FullMath.sol\":3978:3995  denominator * inv */\n      tag_401\n        /* \"TFGv3/Contracts/libraries/FullMath.sol\":3908:3936  inv *= 2 - denominator * inv */\n      dup2\n        /* \"TFGv3/Contracts/libraries/FullMath.sol\":3978:3989  denominator */\n      dup9\n        /* \"TFGv3/Contracts/libraries/FullMath.sol\":3978:3995  denominator * inv */\n      tag_259\n      jump\t// in\n    tag_401:\n        /* \"TFGv3/Contracts/libraries/FullMath.sol\":3974:3995  2 - denominator * inv */\n      tag_402\n      swap1\n        /* \"TFGv3/Contracts/libraries/FullMath.sol\":3974:3975  2 */\n      0x02\n        /* \"TFGv3/Contracts/libraries/FullMath.sol\":3974:3995  2 - denominator * inv */\n      tag_108\n      jump\t// in\n    tag_402:\n        /* \"TFGv3/Contracts/libraries/FullMath.sol\":3967:3995  inv *= 2 - denominator * inv */\n      tag_403\n      swap1\n      dup3\n      tag_259\n      jump\t// in\n    tag_403:\n      swap1\n      pop\n        /* \"TFGv3/Contracts/libraries/FullMath.sol\":4038:4055  denominator * inv */\n      tag_404\n        /* \"TFGv3/Contracts/libraries/FullMath.sol\":3967:3995  inv *= 2 - denominator * inv */\n      dup2\n        /* \"TFGv3/Contracts/libraries/FullMath.sol\":4038:4049  denominator */\n      dup9\n        /* \"TFGv3/Contracts/libraries/FullMath.sol\":4038:4055  denominator * inv */\n      tag_259\n      jump\t// in\n    tag_404:\n        /* \"TFGv3/Contracts/libraries/FullMath.sol\":4034:4055  2 - denominator * inv */\n      tag_405\n      swap1\n        /* \"TFGv3/Contracts/libraries/FullMath.sol\":4034:4035  2 */\n      0x02\n        /* \"TFGv3/Contracts/libraries/FullMath.sol\":4034:4055  2 - denominator * inv */\n      tag_108\n      jump\t// in\n    tag_405:\n        /* \"TFGv3/Contracts/libraries/FullMath.sol\":4027:4055  inv *= 2 - denominator * inv */\n      tag_406\n      swap1\n      dup3\n      tag_259\n      jump\t// in\n    tag_406:\n      swap1\n      pop\n        /* \"TFGv3/Contracts/libraries/FullMath.sol\":4502:4513  prod0 * inv */\n      tag_407\n        /* \"TFGv3/Contracts/libraries/FullMath.sol\":4027:4055  inv *= 2 - denominator * inv */\n      dup2\n        /* \"TFGv3/Contracts/libraries/FullMath.sol\":4502:4507  prod0 */\n      dup7\n        /* \"TFGv3/Contracts/libraries/FullMath.sol\":4502:4513  prod0 * inv */\n      tag_259\n      jump\t// in\n    tag_407:\n        /* \"TFGv3/Contracts/libraries/FullMath.sol\":4493:4513  result = prod0 * inv */\n      swap6\n      pop\n        /* \"TFGv3/Contracts/libraries/FullMath.sol\":4523:4536  return result */\n      pop\n      pop\n      pop\n      pop\n      pop\n        /* \"TFGv3/Contracts/libraries/FullMath.sol\":742:4543  function mulDiv(... */\n    tag_381:\n      swap4\n      swap3\n      pop\n      pop\n      pop\n      jump\t// out\n        /* \"#utility.yul\":14:194   */\n    tag_28:\n        /* \"#utility.yul\":73:79   */\n      0x00\n        /* \"#utility.yul\":126:128   */\n      0x20\n        /* \"#utility.yul\":114:123   */\n      dup3\n        /* \"#utility.yul\":105:112   */\n      dup5\n        /* \"#utility.yul\":101:124   */\n      sub\n        /* \"#utility.yul\":97:129   */\n      slt\n        /* \"#utility.yul\":94:146   */\n      iszero\n      tag_418\n      jumpi\n        /* \"#utility.yul\":142:143   */\n      0x00\n        /* \"#utility.yul\":139:140   */\n      dup1\n        /* \"#utility.yul\":132:144   */\n      revert\n        /* \"#utility.yul\":94:146   */\n    tag_418:\n      pop\n        /* \"#utility.yul\":165:188   */\n      calldataload\n      swap2\n        /* \"#utility.yul\":14:194   */\n      swap1\n      pop\n      jump\t// out\n        /* \"#utility.yul\":381:535   */\n    tag_408:\n      sub(shl(0xa0, 0x01), 0x01)\n        /* \"#utility.yul\":460:465   */\n      dup2\n        /* \"#utility.yul\":456:510   */\n      and\n        /* \"#utility.yul\":449:454   */\n      dup2\n        /* \"#utility.yul\":446:511   */\n      eq\n        /* \"#utility.yul\":436:529   */\n      tag_421\n      jumpi\n        /* \"#utility.yul\":525:526   */\n      0x00\n        /* \"#utility.yul\":522:523   */\n      dup1\n        /* \"#utility.yul\":515:527   */\n      revert\n        /* \"#utility.yul\":436:529   */\n    tag_421:\n        /* \"#utility.yul\":381:535   */\n      pop\n      jump\t// out\n        /* \"#utility.yul\":540:787   */\n    tag_35:\n        /* \"#utility.yul\":599:605   */\n      0x00\n        /* \"#utility.yul\":652:654   */\n      0x20\n        /* \"#utility.yul\":640:649   */\n      dup3\n        /* \"#utility.yul\":631:638   */\n      dup5\n        /* \"#utility.yul\":627:650   */\n      sub\n        /* \"#utility.yul\":623:655   */\n      slt\n        /* \"#utility.yul\":620:672   */\n      iszero\n      tag_423\n      jumpi\n        /* \"#utility.yul\":668:669   */\n      0x00\n        /* \"#utility.yul\":665:666   */\n      dup1\n        /* \"#utility.yul\":658:670   */\n      revert\n        /* \"#utility.yul\":620:672   */\n    tag_423:\n        /* \"#utility.yul\":707:716   */\n      dup2\n        /* \"#utility.yul\":694:717   */\n      calldataload\n        /* \"#utility.yul\":726:757   */\n      tag_381\n        /* \"#utility.yul\":751:756   */\n      dup2\n        /* \"#utility.yul\":726:757   */\n      tag_408\n      jump\t// in\n        /* \"#utility.yul\":1023:1338   */\n    tag_64:\n        /* \"#utility.yul\":1091:1097   */\n      0x00\n        /* \"#utility.yul\":1099:1105   */\n      dup1\n        /* \"#utility.yul\":1152:1154   */\n      0x40\n        /* \"#utility.yul\":1140:1149   */\n      dup4\n        /* \"#utility.yul\":1131:1138   */\n      dup6\n        /* \"#utility.yul\":1127:1150   */\n      sub\n        /* \"#utility.yul\":1123:1155   */\n      slt\n        /* \"#utility.yul\":1120:1172   */\n      iszero\n      tag_427\n      jumpi\n        /* \"#utility.yul\":1168:1169   */\n      0x00\n        /* \"#utility.yul\":1165:1166   */\n      dup1\n        /* \"#utility.yul\":1158:1170   */\n      revert\n        /* \"#utility.yul\":1120:1172   */\n    tag_427:\n        /* \"#utility.yul\":1207:1216   */\n      dup3\n        /* \"#utility.yul\":1194:1217   */\n      calldataload\n        /* \"#utility.yul\":1226:1257   */\n      tag_428\n        /* \"#utility.yul\":1251:1256   */\n      dup2\n        /* \"#utility.yul\":1226:1257   */\n      tag_408\n      jump\t// in\n    tag_428:\n        /* \"#utility.yul\":1276:1281   */\n      swap5\n        /* \"#utility.yul\":1328:1330   */\n      0x20\n        /* \"#utility.yul\":1313:1331   */\n      swap4\n      swap1\n      swap4\n      add\n        /* \"#utility.yul\":1300:1332   */\n      calldataload\n      swap4\n      pop\n      pop\n      pop\n        /* \"#utility.yul\":1023:1338   */\n      jump\t// out\n        /* \"#utility.yul\":1977:2228   */\n    tag_103:\n        /* \"#utility.yul\":2047:2053   */\n      0x00\n        /* \"#utility.yul\":2100:2102   */\n      0x20\n        /* \"#utility.yul\":2088:2097   */\n      dup3\n        /* \"#utility.yul\":2079:2086   */\n      dup5\n        /* \"#utility.yul\":2075:2098   */\n      sub\n        /* \"#utility.yul\":2071:2103   */\n      slt\n        /* \"#utility.yul\":2068:2120   */\n      iszero\n      tag_433\n      jumpi\n        /* \"#utility.yul\":2116:2117   */\n      0x00\n        /* \"#utility.yul\":2113:2114   */\n      dup1\n        /* \"#utility.yul\":2106:2118   */\n      revert\n        /* \"#utility.yul\":2068:2120   */\n    tag_433:\n        /* \"#utility.yul\":2148:2157   */\n      dup2\n        /* \"#utility.yul\":2142:2158   */\n      mload\n        /* \"#utility.yul\":2167:2198   */\n      tag_381\n        /* \"#utility.yul\":2192:2197   */\n      dup2\n        /* \"#utility.yul\":2167:2198   */\n      tag_408\n      jump\t// in\n        /* \"#utility.yul\":2233:2417   */\n    tag_409:\n        /* \"#utility.yul\":2285:2362   */\n      0x4e487b7100000000000000000000000000000000000000000000000000000000\n        /* \"#utility.yul\":2282:2283   */\n      0x00\n        /* \"#utility.yul\":2275:2363   */\n      mstore\n        /* \"#utility.yul\":2382:2386   */\n      0x11\n        /* \"#utility.yul\":2379:2380   */\n      0x04\n        /* \"#utility.yul\":2372:2387   */\n      mstore\n        /* \"#utility.yul\":2406:2410   */\n      0x24\n        /* \"#utility.yul\":2403:2404   */\n      0x00\n        /* \"#utility.yul\":2396:2411   */\n      revert\n        /* \"#utility.yul\":2422:2547   */\n    tag_108:\n        /* \"#utility.yul\":2462:2466   */\n      0x00\n        /* \"#utility.yul\":2490:2491   */\n      dup3\n        /* \"#utility.yul\":2487:2488   */\n      dup3\n        /* \"#utility.yul\":2484:2492   */\n      lt\n        /* \"#utility.yul\":2481:2515   */\n      iszero\n      tag_438\n      jumpi\n        /* \"#utility.yul\":2495:2513   */\n      tag_438\n      tag_409\n      jump\t// in\n    tag_438:\n      pop\n        /* \"#utility.yul\":2532:2541   */\n      sub\n      swap1\n        /* \"#utility.yul\":2422:2547   */\n      jump\t// out\n        /* \"#utility.yul\":2552:2978   */\n    tag_118:\n        /* \"#utility.yul\":2681:2684   */\n      0x00\n        /* \"#utility.yul\":2719:2725   */\n      dup3\n        /* \"#utility.yul\":2713:2726   */\n      mload\n        /* \"#utility.yul\":2744:2745   */\n      0x00\n        /* \"#utility.yul\":2754:2883   */\n    tag_440:\n        /* \"#utility.yul\":2768:2774   */\n      dup2\n        /* \"#utility.yul\":2765:2766   */\n      dup2\n        /* \"#utility.yul\":2762:2775   */\n      lt\n        /* \"#utility.yul\":2754:2883   */\n      iszero\n      tag_442\n      jumpi\n        /* \"#utility.yul\":2866:2870   */\n      0x20\n        /* \"#utility.yul\":2850:2864   */\n      dup2\n      dup7\n      add\n        /* \"#utility.yul\":2846:2871   */\n      dup2\n      add\n        /* \"#utility.yul\":2840:2872   */\n      mload\n        /* \"#utility.yul\":2827:2838   */\n      dup6\n      dup4\n      add\n        /* \"#utility.yul\":2820:2873   */\n      mstore\n        /* \"#utility.yul\":2783:2795   */\n      add\n        /* \"#utility.yul\":2754:2883   */\n      jump(tag_440)\n    tag_442:\n        /* \"#utility.yul\":2901:2907   */\n      dup2\n        /* \"#utility.yul\":2898:2899   */\n      dup2\n        /* \"#utility.yul\":2895:2908   */\n      gt\n        /* \"#utility.yul\":2892:2940   */\n      iszero\n      tag_443\n      jumpi\n        /* \"#utility.yul\":2936:2937   */\n      0x00\n        /* \"#utility.yul\":2927:2933   */\n      dup3\n        /* \"#utility.yul\":2922:2925   */\n      dup6\n        /* \"#utility.yul\":2918:2934   */\n      add\n        /* \"#utility.yul\":2911:2938   */\n      mstore\n        /* \"#utility.yul\":2892:2940   */\n    tag_443:\n      pop\n        /* \"#utility.yul\":2956:2972   */\n      swap2\n      swap1\n      swap2\n      add\n      swap3\n        /* \"#utility.yul\":2552:2978   */\n      swap2\n      pop\n      pop\n      jump\t// out\n        /* \"#utility.yul\":2983:3167   */\n    tag_127:\n        /* \"#utility.yul\":3035:3112   */\n      0x4e487b7100000000000000000000000000000000000000000000000000000000\n        /* \"#utility.yul\":3032:3033   */\n      0x00\n        /* \"#utility.yul\":3025:3113   */\n      mstore\n        /* \"#utility.yul\":3132:3136   */\n      0x32\n        /* \"#utility.yul\":3129:3130   */\n      0x04\n        /* \"#utility.yul\":3122:3137   */\n      mstore\n        /* \"#utility.yul\":3156:3160   */\n      0x24\n        /* \"#utility.yul\":3153:3154   */\n      0x00\n        /* \"#utility.yul\":3146:3161   */\n      revert\n        /* \"#utility.yul\":3172:3356   */\n    tag_133:\n        /* \"#utility.yul\":3242:3248   */\n      0x00\n        /* \"#utility.yul\":3295:3297   */\n      0x20\n        /* \"#utility.yul\":3283:3292   */\n      dup3\n        /* \"#utility.yul\":3274:3281   */\n      dup5\n        /* \"#utility.yul\":3270:3293   */\n      sub\n        /* \"#utility.yul\":3266:3298   */\n      slt\n        /* \"#utility.yul\":3263:3315   */\n      iszero\n      tag_446\n      jumpi\n        /* \"#utility.yul\":3311:3312   */\n      0x00\n        /* \"#utility.yul\":3308:3309   */\n      dup1\n        /* \"#utility.yul\":3301:3313   */\n      revert\n        /* \"#utility.yul\":3263:3315   */\n    tag_446:\n      pop\n        /* \"#utility.yul\":3334:3350   */\n      mload\n      swap2\n        /* \"#utility.yul\":3172:3356   */\n      swap1\n      pop\n      jump\t// out\n        /* \"#utility.yul\":3663:3940   */\n    tag_139:\n        /* \"#utility.yul\":3730:3736   */\n      0x00\n        /* \"#utility.yul\":3783:3785   */\n      0x20\n        /* \"#utility.yul\":3771:3780   */\n      dup3\n        /* \"#utility.yul\":3762:3769   */\n      dup5\n        /* \"#utility.yul\":3758:3781   */\n      sub\n        /* \"#utility.yul\":3754:3786   */\n      slt\n        /* \"#utility.yul\":3751:3803   */\n      iszero\n      tag_449\n      jumpi\n        /* \"#utility.yul\":3799:3800   */\n      0x00\n        /* \"#utility.yul\":3796:3797   */\n      dup1\n        /* \"#utility.yul\":3789:3801   */\n      revert\n        /* \"#utility.yul\":3751:3803   */\n    tag_449:\n        /* \"#utility.yul\":3831:3840   */\n      dup2\n        /* \"#utility.yul\":3825:3841   */\n      mload\n        /* \"#utility.yul\":3884:3889   */\n      dup1\n        /* \"#utility.yul\":3877:3890   */\n      iszero\n        /* \"#utility.yul\":3870:3891   */\n      iszero\n        /* \"#utility.yul\":3863:3868   */\n      dup2\n        /* \"#utility.yul\":3860:3892   */\n      eq\n        /* \"#utility.yul\":3850:3910   */\n      tag_381\n      jumpi\n        /* \"#utility.yul\":3906:3907   */\n      0x00\n        /* \"#utility.yul\":3903:3904   */\n      dup1\n        /* \"#utility.yul\":3896:3908   */\n      revert\n        /* \"#utility.yul\":3945:4140   */\n    tag_141:\n        /* \"#utility.yul\":3984:3987   */\n      0x00\n      not(0x00)\n        /* \"#utility.yul\":4008:4013   */\n      dup3\n        /* \"#utility.yul\":4005:4082   */\n      sub\n        /* \"#utility.yul\":4002:4105   */\n      tag_453\n      jumpi\n        /* \"#utility.yul\":4085:4103   */\n      tag_453\n      tag_409\n      jump\t// in\n    tag_453:\n      pop\n        /* \"#utility.yul\":4132:4133   */\n      0x01\n        /* \"#utility.yul\":4121:4134   */\n      add\n      swap1\n        /* \"#utility.yul\":3945:4140   */\n      jump\t// out\n        /* \"#utility.yul\":4145:4383   */\n    tag_150:\n        /* \"#utility.yul\":4182:4185   */\n      0x00\n        /* \"#utility.yul\":4226:4230   */\n      0xff\n        /* \"#utility.yul\":4219:4224   */\n      dup3\n        /* \"#utility.yul\":4215:4231   */\n      and\n        /* \"#utility.yul\":4250:4257   */\n      dup1\n        /* \"#utility.yul\":4240:4281   */\n      tag_456\n      jumpi\n        /* \"#utility.yul\":4261:4279   */\n      tag_456\n      tag_409\n      jump\t// in\n    tag_456:\n      not(0x00)\n        /* \"#utility.yul\":4297:4377   */\n      add\n      swap3\n        /* \"#utility.yul\":4145:4383   */\n      swap2\n      pop\n      pop\n      jump\t// out\n        /* \"#utility.yul\":4388:4572   */\n    tag_167:\n        /* \"#utility.yul\":4440:4517   */\n      0x4e487b7100000000000000000000000000000000000000000000000000000000\n        /* \"#utility.yul\":4437:4438   */\n      0x00\n        /* \"#utility.yul\":4430:4518   */\n      mstore\n        /* \"#utility.yul\":4537:4541   */\n      0x31\n        /* \"#utility.yul\":4534:4535   */\n      0x04\n        /* \"#utility.yul\":4527:4542   */\n      mstore\n        /* \"#utility.yul\":4561:4565   */\n      0x24\n        /* \"#utility.yul\":4558:4559   */\n      0x00\n        /* \"#utility.yul\":4551:4566   */\n      revert\n        /* \"#utility.yul\":4577:4850   */\n    tag_191:\n        /* \"#utility.yul\":4645:4651   */\n      0x00\n        /* \"#utility.yul\":4698:4700   */\n      0x20\n        /* \"#utility.yul\":4686:4695   */\n      dup3\n        /* \"#utility.yul\":4677:4684   */\n      dup5\n        /* \"#utility.yul\":4673:4696   */\n      sub\n        /* \"#utility.yul\":4669:4701   */\n      slt\n        /* \"#utility.yul\":4666:4718   */\n      iszero\n      tag_459\n      jumpi\n        /* \"#utility.yul\":4714:4715   */\n      0x00\n        /* \"#utility.yul\":4711:4712   */\n      dup1\n        /* \"#utility.yul\":4704:4716   */\n      revert\n        /* \"#utility.yul\":4666:4718   */\n    tag_459:\n        /* \"#utility.yul\":4746:4755   */\n      dup2\n        /* \"#utility.yul\":4740:4756   */\n      mload\n        /* \"#utility.yul\":4796:4800   */\n      0xff\n        /* \"#utility.yul\":4789:4794   */\n      dup2\n        /* \"#utility.yul\":4785:4801   */\n      and\n        /* \"#utility.yul\":4778:4783   */\n      dup2\n        /* \"#utility.yul\":4775:4802   */\n      eq\n        /* \"#utility.yul\":4765:4820   */\n      tag_381\n      jumpi\n        /* \"#utility.yul\":4816:4817   */\n      0x00\n        /* \"#utility.yul\":4813:4814   */\n      dup1\n        /* \"#utility.yul\":4806:4818   */\n      revert\n        /* \"#utility.yul\":4855:5337   */\n    tag_410:\n        /* \"#utility.yul\":4944:4945   */\n      0x01\n        /* \"#utility.yul\":4987:4992   */\n      dup2\n        /* \"#utility.yul\":4944:4945   */\n      dup2\n        /* \"#utility.yul\":5001:5331   */\n    tag_462:\n        /* \"#utility.yul\":5022:5029   */\n      dup1\n        /* \"#utility.yul\":5012:5020   */\n      dup6\n        /* \"#utility.yul\":5009:5030   */\n      gt\n        /* \"#utility.yul\":5001:5331   */\n      iszero\n      tag_464\n      jumpi\n        /* \"#utility.yul\":5141:5145   */\n      dup2\n      not(0x00)\n        /* \"#utility.yul\":5069:5146   */\n      div\n        /* \"#utility.yul\":5063:5067   */\n      dup3\n        /* \"#utility.yul\":5060:5147   */\n      gt\n        /* \"#utility.yul\":5057:5170   */\n      iszero\n      tag_466\n      jumpi\n        /* \"#utility.yul\":5150:5168   */\n      tag_466\n      tag_409\n      jump\t// in\n    tag_466:\n        /* \"#utility.yul\":5200:5207   */\n      dup1\n        /* \"#utility.yul\":5190:5198   */\n      dup6\n        /* \"#utility.yul\":5186:5208   */\n      and\n        /* \"#utility.yul\":5183:5238   */\n      iszero\n      tag_467\n      jumpi\n        /* \"#utility.yul\":5220:5236   */\n      swap2\n      dup2\n      mul\n      swap2\n        /* \"#utility.yul\":5183:5238   */\n    tag_467:\n        /* \"#utility.yul\":5299:5321   */\n      swap4\n      dup5\n      shr\n      swap4\n        /* \"#utility.yul\":5259:5274   */\n      swap1\n      dup1\n      mul\n      swap1\n        /* \"#utility.yul\":5001:5331   */\n      jump(tag_462)\n    tag_464:\n        /* \"#utility.yul\":5005:5008   */\n      pop\n        /* \"#utility.yul\":4855:5337   */\n      swap3\n      pop\n      swap3\n      swap1\n      pop\n      jump\t// out\n        /* \"#utility.yul\":5342:6208   */\n    tag_411:\n        /* \"#utility.yul\":5391:5396   */\n      0x00\n        /* \"#utility.yul\":5421:5429   */\n      dup3\n        /* \"#utility.yul\":5411:5491   */\n      tag_469\n      jumpi\n      pop\n        /* \"#utility.yul\":5462:5463   */\n      0x01\n        /* \"#utility.yul\":5476:5481   */\n      jump(tag_172)\n        /* \"#utility.yul\":5411:5491   */\n    tag_469:\n        /* \"#utility.yul\":5510:5514   */\n      dup2\n        /* \"#utility.yul\":5500:5576   */\n      tag_470\n      jumpi\n      pop\n        /* \"#utility.yul\":5547:5548   */\n      0x00\n        /* \"#utility.yul\":5561:5566   */\n      jump(tag_172)\n        /* \"#utility.yul\":5500:5576   */\n    tag_470:\n        /* \"#utility.yul\":5592:5596   */\n      dup2\n        /* \"#utility.yul\":5610:5611   */\n      0x01\n        /* \"#utility.yul\":5605:5664   */\n      dup2\n      eq\n      tag_472\n      jumpi\n        /* \"#utility.yul\":5678:5679   */\n      0x02\n        /* \"#utility.yul\":5673:5803   */\n      dup2\n      eq\n      tag_473\n      jumpi\n        /* \"#utility.yul\":5585:5803   */\n      jump(tag_471)\n        /* \"#utility.yul\":5605:5664   */\n    tag_472:\n        /* \"#utility.yul\":5635:5636   */\n      0x01\n        /* \"#utility.yul\":5626:5636   */\n      swap2\n      pop\n        /* \"#utility.yul\":5649:5654   */\n      pop\n      jump(tag_172)\n        /* \"#utility.yul\":5673:5803   */\n    tag_473:\n        /* \"#utility.yul\":5710:5713   */\n      0xff\n        /* \"#utility.yul\":5700:5708   */\n      dup5\n        /* \"#utility.yul\":5697:5714   */\n      gt\n        /* \"#utility.yul\":5694:5737   */\n      iszero\n      tag_475\n      jumpi\n        /* \"#utility.yul\":5717:5735   */\n      tag_475\n      tag_409\n      jump\t// in\n    tag_475:\n      pop\n      pop\n        /* \"#utility.yul\":5773:5774   */\n      0x01\n        /* \"#utility.yul\":5759:5775   */\n      dup3\n      shl\n        /* \"#utility.yul\":5788:5793   */\n      jump(tag_172)\n        /* \"#utility.yul\":5585:5803   */\n    tag_471:\n      pop\n        /* \"#utility.yul\":5887:5889   */\n      0x20\n        /* \"#utility.yul\":5877:5885   */\n      dup4\n        /* \"#utility.yul\":5874:5890   */\n      lt\n        /* \"#utility.yul\":5868:5871   */\n      0x0133\n        /* \"#utility.yul\":5862:5866   */\n      dup4\n        /* \"#utility.yul\":5859:5872   */\n      lt\n        /* \"#utility.yul\":5855:5891   */\n      and\n        /* \"#utility.yul\":5849:5851   */\n      0x4e\n        /* \"#utility.yul\":5839:5847   */\n      dup5\n        /* \"#utility.yul\":5836:5852   */\n      lt\n        /* \"#utility.yul\":5831:5833   */\n      0x0b\n        /* \"#utility.yul\":5825:5829   */\n      dup5\n        /* \"#utility.yul\":5822:5834   */\n      lt\n        /* \"#utility.yul\":5818:5853   */\n      and\n        /* \"#utility.yul\":5815:5892   */\n      or\n        /* \"#utility.yul\":5812:5971   */\n      iszero\n      tag_476\n      jumpi\n      pop\n        /* \"#utility.yul\":5924:5943   */\n      dup2\n      dup2\n      exp\n        /* \"#utility.yul\":5956:5961   */\n      jump(tag_172)\n        /* \"#utility.yul\":5812:5971   */\n    tag_476:\n        /* \"#utility.yul\":6003:6037   */\n      tag_477\n        /* \"#utility.yul\":6028:6036   */\n      dup4\n        /* \"#utility.yul\":6022:6026   */\n      dup4\n        /* \"#utility.yul\":6003:6037   */\n      tag_410\n      jump\t// in\n    tag_477:\n        /* \"#utility.yul\":6133:6139   */\n      dup1\n      not(0x00)\n        /* \"#utility.yul\":6061:6140   */\n      div\n        /* \"#utility.yul\":6052:6059   */\n      dup3\n        /* \"#utility.yul\":6049:6141   */\n      gt\n        /* \"#utility.yul\":6046:6164   */\n      iszero\n      tag_479\n      jumpi\n        /* \"#utility.yul\":6144:6162   */\n      tag_479\n      tag_409\n      jump\t// in\n    tag_479:\n        /* \"#utility.yul\":6182:6202   */\n      mul\n      swap4\n        /* \"#utility.yul\":5342:6208   */\n      swap3\n      pop\n      pop\n      pop\n      jump\t// out\n        /* \"#utility.yul\":6213:6344   */\n    tag_195:\n        /* \"#utility.yul\":6273:6278   */\n      0x00\n        /* \"#utility.yul\":6302:6338   */\n      tag_381\n        /* \"#utility.yul\":6329:6337   */\n      dup4\n        /* \"#utility.yul\":6323:6327   */\n      dup4\n        /* \"#utility.yul\":6302:6338   */\n      tag_411\n      jump\t// in\n        /* \"#utility.yul\":6349:6533   */\n    tag_412:\n        /* \"#utility.yul\":6401:6478   */\n      0x4e487b7100000000000000000000000000000000000000000000000000000000\n        /* \"#utility.yul\":6398:6399   */\n      0x00\n        /* \"#utility.yul\":6391:6479   */\n      mstore\n        /* \"#utility.yul\":6498:6502   */\n      0x12\n        /* \"#utility.yul\":6495:6496   */\n      0x04\n        /* \"#utility.yul\":6488:6503   */\n      mstore\n        /* \"#utility.yul\":6522:6526   */\n      0x24\n        /* \"#utility.yul\":6519:6520   */\n      0x00\n        /* \"#utility.yul\":6512:6527   */\n      revert\n        /* \"#utility.yul\":6538:6658   */\n    tag_197:\n        /* \"#utility.yul\":6578:6579   */\n      0x00\n        /* \"#utility.yul\":6604:6605   */\n      dup3\n        /* \"#utility.yul\":6594:6629   */\n      tag_485\n      jumpi\n        /* \"#utility.yul\":6609:6627   */\n      tag_485\n      tag_412\n      jump\t// in\n    tag_485:\n      pop\n        /* \"#utility.yul\":6643:6652   */\n      div\n      swap1\n        /* \"#utility.yul\":6538:6658   */\n      jump\t// out\n        /* \"#utility.yul\":6663:6838   */\n    tag_220:\n        /* \"#utility.yul\":6700:6703   */\n      0x00\n        /* \"#utility.yul\":6744:6748   */\n      0xff\n        /* \"#utility.yul\":6737:6742   */\n      dup3\n        /* \"#utility.yul\":6733:6749   */\n      and\n        /* \"#utility.yul\":6773:6777   */\n      0xff\n        /* \"#utility.yul\":6764:6771   */\n      dup2\n        /* \"#utility.yul\":6761:6778   */\n      sub\n        /* \"#utility.yul\":6758:6801   */\n      tag_488\n      jumpi\n        /* \"#utility.yul\":6781:6799   */\n      tag_488\n      tag_409\n      jump\t// in\n    tag_488:\n        /* \"#utility.yul\":6830:6831   */\n      0x01\n        /* \"#utility.yul\":6817:6832   */\n      add\n      swap3\n        /* \"#utility.yul\":6663:6838   */\n      swap2\n      pop\n      pop\n      jump\t// out\n        /* \"#utility.yul\":6843:7071   */\n    tag_259:\n        /* \"#utility.yul\":6883:6890   */\n      0x00\n        /* \"#utility.yul\":7009:7010   */\n      dup2\n      not(0x00)\n        /* \"#utility.yul\":6937:7011   */\n      div\n        /* \"#utility.yul\":6934:6935   */\n      dup4\n        /* \"#utility.yul\":6931:7012   */\n      gt\n        /* \"#utility.yul\":6926:6927   */\n      dup3\n        /* \"#utility.yul\":6919:6928   */\n      iszero\n        /* \"#utility.yul\":6912:6929   */\n      iszero\n        /* \"#utility.yul\":6908:7013   */\n      and\n        /* \"#utility.yul\":6905:7036   */\n      iszero\n      tag_491\n      jumpi\n        /* \"#utility.yul\":7016:7034   */\n      tag_491\n      tag_409\n      jump\t// in\n    tag_491:\n      pop\n        /* \"#utility.yul\":7056:7065   */\n      mul\n      swap1\n        /* \"#utility.yul\":6843:7071   */\n      jump\t// out\n        /* \"#utility.yul\":7076:7204   */\n    tag_261:\n        /* \"#utility.yul\":7116:7119   */\n      0x00\n        /* \"#utility.yul\":7147:7148   */\n      dup3\n        /* \"#utility.yul\":7143:7149   */\n      not\n        /* \"#utility.yul\":7140:7141   */\n      dup3\n        /* \"#utility.yul\":7137:7150   */\n      gt\n        /* \"#utility.yul\":7134:7173   */\n      iszero\n      tag_494\n      jumpi\n        /* \"#utility.yul\":7153:7171   */\n      tag_494\n      tag_409\n      jump\t// in\n    tag_494:\n      pop\n        /* \"#utility.yul\":7189:7198   */\n      add\n      swap1\n        /* \"#utility.yul\":7076:7204   */\n      jump\t// out\n        /* \"#utility.yul\":7539:7723   */\n    tag_272:\n        /* \"#utility.yul\":7591:7668   */\n      0x4e487b7100000000000000000000000000000000000000000000000000000000\n        /* \"#utility.yul\":7588:7589   */\n      0x00\n        /* \"#utility.yul\":7581:7669   */\n      mstore\n        /* \"#utility.yul\":7688:7692   */\n      0x41\n        /* \"#utility.yul\":7685:7686   */\n      0x04\n        /* \"#utility.yul\":7678:7693   */\n      mstore\n        /* \"#utility.yul\":7712:7716   */\n      0x24\n        /* \"#utility.yul\":7709:7710   */\n      0x00\n        /* \"#utility.yul\":7702:7717   */\n      revert\n        /* \"#utility.yul\":7728:8375   */\n    tag_279:\n        /* \"#utility.yul\":7897:7899   */\n      0x20\n        /* \"#utility.yul\":7949:7970   */\n      dup1\n      dup3\n      mstore\n        /* \"#utility.yul\":8019:8032   */\n      dup3\n      mload\n        /* \"#utility.yul\":7922:7940   */\n      dup3\n      dup3\n      add\n        /* \"#utility.yul\":8041:8063   */\n      dup2\n      swap1\n      mstore\n        /* \"#utility.yul\":7868:7872   */\n      0x00\n      swap2\n        /* \"#utility.yul\":7897:7899   */\n      swap1\n        /* \"#utility.yul\":8120:8135   */\n      dup5\n      dup3\n      add\n      swap1\n        /* \"#utility.yul\":8094:8096   */\n      0x40\n        /* \"#utility.yul\":8079:8097   */\n      dup6\n      add\n      swap1\n        /* \"#utility.yul\":7868:7872   */\n      dup5\n        /* \"#utility.yul\":8163:8349   */\n    tag_498:\n        /* \"#utility.yul\":8177:8183   */\n      dup2\n        /* \"#utility.yul\":8174:8175   */\n      dup2\n        /* \"#utility.yul\":8171:8184   */\n      lt\n        /* \"#utility.yul\":8163:8349   */\n      iszero\n      tag_500\n      jumpi\n        /* \"#utility.yul\":8242:8255   */\n      dup4\n      mload\n        /* \"#utility.yul\":8257:8267   */\n      0xffffffff\n        /* \"#utility.yul\":8238:8268   */\n      and\n        /* \"#utility.yul\":8226:8269   */\n      dup4\n      mstore\n        /* \"#utility.yul\":8324:8339   */\n      swap3\n      dup5\n      add\n      swap3\n        /* \"#utility.yul\":8289:8301   */\n      swap2\n      dup5\n      add\n      swap2\n        /* \"#utility.yul\":8199:8200   */\n      0x01\n        /* \"#utility.yul\":8192:8201   */\n      add\n        /* \"#utility.yul\":8163:8349   */\n      jump(tag_498)\n    tag_500:\n      pop\n        /* \"#utility.yul\":8366:8369   */\n      swap1\n      swap7\n        /* \"#utility.yul\":7728:8375   */\n      swap6\n      pop\n      pop\n      pop\n      pop\n      pop\n      pop\n      jump\t// out\n        /* \"#utility.yul\":8380:8714   */\n    tag_413:\n        /* \"#utility.yul\":8451:8453   */\n      0x40\n        /* \"#utility.yul\":8445:8454   */\n      mload\n        /* \"#utility.yul\":8507:8509   */\n      0x1f\n        /* \"#utility.yul\":8497:8510   */\n      dup3\n      add\n      not(0x1f)\n        /* \"#utility.yul\":8493:8579   */\n      and\n        /* \"#utility.yul\":8481:8580   */\n      dup2\n      add\n        /* \"#utility.yul\":8610:8628   */\n      0xffffffffffffffff\n        /* \"#utility.yul\":8595:8629   */\n      dup2\n      gt\n        /* \"#utility.yul\":8631:8653   */\n      dup3\n      dup3\n      lt\n        /* \"#utility.yul\":8592:8654   */\n      or\n        /* \"#utility.yul\":8589:8677   */\n      iszero\n      tag_503\n      jumpi\n        /* \"#utility.yul\":8657:8675   */\n      tag_503\n      tag_272\n      jump\t// in\n    tag_503:\n        /* \"#utility.yul\":8693:8695   */\n      0x40\n        /* \"#utility.yul\":8686:8708   */\n      mstore\n        /* \"#utility.yul\":8380:8714   */\n      swap2\n      swap1\n      pop\n      jump\t// out\n        /* \"#utility.yul\":8719:8900   */\n    tag_414:\n        /* \"#utility.yul\":8777:8781   */\n      0x00\n        /* \"#utility.yul\":8810:8828   */\n      0xffffffffffffffff\n        /* \"#utility.yul\":8802:8808   */\n      dup3\n        /* \"#utility.yul\":8799:8829   */\n      gt\n        /* \"#utility.yul\":8796:8852   */\n      iszero\n      tag_506\n      jumpi\n        /* \"#utility.yul\":8832:8850   */\n      tag_506\n      tag_272\n      jump\t// in\n    tag_506:\n      pop\n        /* \"#utility.yul\":8877:8878   */\n      0x05\n        /* \"#utility.yul\":8873:8887   */\n      shl\n        /* \"#utility.yul\":8889:8893   */\n      0x20\n        /* \"#utility.yul\":8869:8894   */\n      add\n      swap1\n        /* \"#utility.yul\":8719:8900   */\n      jump\t// out\n        /* \"#utility.yul\":8905:9637   */\n    tag_415:\n        /* \"#utility.yul\":8970:8975   */\n      0x00\n        /* \"#utility.yul\":9023:9026   */\n      dup3\n        /* \"#utility.yul\":9016:9020   */\n      0x1f\n        /* \"#utility.yul\":9008:9014   */\n      dup4\n        /* \"#utility.yul\":9004:9021   */\n      add\n        /* \"#utility.yul\":9000:9027   */\n      slt\n        /* \"#utility.yul\":8990:9045   */\n      tag_508\n      jumpi\n        /* \"#utility.yul\":9041:9042   */\n      0x00\n        /* \"#utility.yul\":9038:9039   */\n      dup1\n        /* \"#utility.yul\":9031:9043   */\n      revert\n        /* \"#utility.yul\":8990:9045   */\n    tag_508:\n        /* \"#utility.yul\":9070:9076   */\n      dup2\n        /* \"#utility.yul\":9064:9077   */\n      mload\n        /* \"#utility.yul\":9096:9100   */\n      0x20\n        /* \"#utility.yul\":9120:9178   */\n      tag_509\n        /* \"#utility.yul\":9136:9177   */\n      tag_510\n        /* \"#utility.yul\":9174:9176   */\n      dup4\n        /* \"#utility.yul\":9136:9177   */\n      tag_414\n      jump\t// in\n    tag_510:\n        /* \"#utility.yul\":9120:9178   */\n      tag_413\n      jump\t// in\n    tag_509:\n        /* \"#utility.yul\":9212:9227   */\n      dup3\n      dup2\n      mstore\n        /* \"#utility.yul\":9298:9299   */\n      0x05\n        /* \"#utility.yul\":9294:9304   */\n      swap3\n      swap1\n      swap3\n      shl\n        /* \"#utility.yul\":9282:9305   */\n      dup5\n      add\n        /* \"#utility.yul\":9278:9310   */\n      dup2\n      add\n      swap2\n        /* \"#utility.yul\":9243:9255   */\n      dup2\n      dup2\n      add\n      swap1\n        /* \"#utility.yul\":9322:9337   */\n      dup7\n      dup5\n      gt\n        /* \"#utility.yul\":9319:9354   */\n      iszero\n      tag_511\n      jumpi\n        /* \"#utility.yul\":9350:9351   */\n      0x00\n        /* \"#utility.yul\":9347:9348   */\n      dup1\n        /* \"#utility.yul\":9340:9352   */\n      revert\n        /* \"#utility.yul\":9319:9354   */\n    tag_511:\n        /* \"#utility.yul\":9386:9388   */\n      dup3\n        /* \"#utility.yul\":9378:9384   */\n      dup7\n        /* \"#utility.yul\":9374:9389   */\n      add\n        /* \"#utility.yul\":9398:9608   */\n    tag_512:\n        /* \"#utility.yul\":9414:9420   */\n      dup5\n        /* \"#utility.yul\":9409:9412   */\n      dup2\n        /* \"#utility.yul\":9406:9421   */\n      lt\n        /* \"#utility.yul\":9398:9608   */\n      iszero\n      tag_514\n      jumpi\n        /* \"#utility.yul\":9487:9490   */\n      dup1\n        /* \"#utility.yul\":9481:9491   */\n      mload\n        /* \"#utility.yul\":9504:9535   */\n      tag_515\n        /* \"#utility.yul\":9529:9534   */\n      dup2\n        /* \"#utility.yul\":9504:9535   */\n      tag_408\n      jump\t// in\n    tag_515:\n        /* \"#utility.yul\":9548:9566   */\n      dup4\n      mstore\n        /* \"#utility.yul\":9586:9598   */\n      swap2\n      dup4\n      add\n      swap2\n        /* \"#utility.yul\":9431:9443   */\n      dup4\n      add\n        /* \"#utility.yul\":9398:9608   */\n      jump(tag_512)\n    tag_514:\n      pop\n        /* \"#utility.yul\":9626:9631   */\n      swap7\n        /* \"#utility.yul\":8905:9637   */\n      swap6\n      pop\n      pop\n      pop\n      pop\n      pop\n      pop\n      jump\t// out\n        /* \"#utility.yul\":9642:10945   */\n    tag_283:\n        /* \"#utility.yul\":9769:9775   */\n      0x00\n        /* \"#utility.yul\":9777:9783   */\n      dup1\n        /* \"#utility.yul\":9830:9832   */\n      0x40\n        /* \"#utility.yul\":9818:9827   */\n      dup4\n        /* \"#utility.yul\":9809:9816   */\n      dup6\n        /* \"#utility.yul\":9805:9828   */\n      sub\n        /* \"#utility.yul\":9801:9833   */\n      slt\n        /* \"#utility.yul\":9798:9850   */\n      iszero\n      tag_517\n      jumpi\n        /* \"#utility.yul\":9846:9847   */\n      0x00\n        /* \"#utility.yul\":9843:9844   */\n      dup1\n        /* \"#utility.yul\":9836:9848   */\n      revert\n        /* \"#utility.yul\":9798:9850   */\n    tag_517:\n        /* \"#utility.yul\":9879:9888   */\n      dup3\n        /* \"#utility.yul\":9873:9889   */\n      mload\n        /* \"#utility.yul\":9908:9926   */\n      0xffffffffffffffff\n        /* \"#utility.yul\":9949:9951   */\n      dup1\n        /* \"#utility.yul\":9941:9947   */\n      dup3\n        /* \"#utility.yul\":9938:9952   */\n      gt\n        /* \"#utility.yul\":9935:9969   */\n      iszero\n      tag_518\n      jumpi\n        /* \"#utility.yul\":9965:9966   */\n      0x00\n        /* \"#utility.yul\":9962:9963   */\n      dup1\n        /* \"#utility.yul\":9955:9967   */\n      revert\n        /* \"#utility.yul\":9935:9969   */\n    tag_518:\n        /* \"#utility.yul\":10003:10009   */\n      dup2\n        /* \"#utility.yul\":9992:10001   */\n      dup6\n        /* \"#utility.yul\":9988:10010   */\n      add\n        /* \"#utility.yul\":9978:10010   */\n      swap2\n      pop\n        /* \"#utility.yul\":10048:10055   */\n      dup6\n        /* \"#utility.yul\":10041:10045   */\n      0x1f\n        /* \"#utility.yul\":10037:10039   */\n      dup4\n        /* \"#utility.yul\":10033:10046   */\n      add\n        /* \"#utility.yul\":10029:10056   */\n      slt\n        /* \"#utility.yul\":10019:10074   */\n      tag_519\n      jumpi\n        /* \"#utility.yul\":10070:10071   */\n      0x00\n        /* \"#utility.yul\":10067:10068   */\n      dup1\n        /* \"#utility.yul\":10060:10072   */\n      revert\n        /* \"#utility.yul\":10019:10074   */\n    tag_519:\n        /* \"#utility.yul\":10099:10101   */\n      dup2\n        /* \"#utility.yul\":10093:10102   */\n      mload\n        /* \"#utility.yul\":10121:10125   */\n      0x20\n        /* \"#utility.yul\":10145:10203   */\n      tag_520\n        /* \"#utility.yul\":10161:10202   */\n      tag_510\n        /* \"#utility.yul\":10199:10201   */\n      dup4\n        /* \"#utility.yul\":10161:10202   */\n      tag_414\n      jump\t// in\n        /* \"#utility.yul\":10145:10203   */\n    tag_520:\n        /* \"#utility.yul\":10237:10252   */\n      dup3\n      dup2\n      mstore\n        /* \"#utility.yul\":10319:10320   */\n      0x05\n        /* \"#utility.yul\":10315:10325   */\n      swap3\n      swap1\n      swap3\n      shl\n        /* \"#utility.yul\":10307:10326   */\n      dup5\n      add\n        /* \"#utility.yul\":10303:10331   */\n      dup2\n      add\n      swap2\n        /* \"#utility.yul\":10268:10280   */\n      dup2\n      dup2\n      add\n      swap1\n        /* \"#utility.yul\":10343:10362   */\n      dup10\n      dup5\n      gt\n        /* \"#utility.yul\":10340:10379   */\n      iszero\n      tag_522\n      jumpi\n        /* \"#utility.yul\":10375:10376   */\n      0x00\n        /* \"#utility.yul\":10372:10373   */\n      dup1\n        /* \"#utility.yul\":10365:10377   */\n      revert\n        /* \"#utility.yul\":10340:10379   */\n    tag_522:\n        /* \"#utility.yul\":10399:10410   */\n      swap5\n      dup3\n      add\n      swap5\n        /* \"#utility.yul\":10419:10727   */\n    tag_523:\n        /* \"#utility.yul\":10435:10441   */\n      dup4\n        /* \"#utility.yul\":10430:10433   */\n      dup7\n        /* \"#utility.yul\":10427:10442   */\n      lt\n        /* \"#utility.yul\":10419:10727   */\n      iszero\n      tag_525\n      jumpi\n        /* \"#utility.yul\":10508:10511   */\n      dup6\n        /* \"#utility.yul\":10502:10512   */\n      mload\n        /* \"#utility.yul\":10559:10564   */\n      dup1\n        /* \"#utility.yul\":10556:10557   */\n      0x06\n        /* \"#utility.yul\":10545:10565   */\n      signextend\n        /* \"#utility.yul\":10538:10543   */\n      dup2\n        /* \"#utility.yul\":10535:10566   */\n      eq\n        /* \"#utility.yul\":10525:10654   */\n      tag_526\n      jumpi\n        /* \"#utility.yul\":10608:10609   */\n      0x00\n        /* \"#utility.yul\":10637:10639   */\n      dup1\n        /* \"#utility.yul\":10633:10635   */\n      dup2\n        /* \"#utility.yul\":10626:10640   */\n      revert\n        /* \"#utility.yul\":10525:10654   */\n    tag_526:\n        /* \"#utility.yul\":10667:10685   */\n      dup3\n      mstore\n        /* \"#utility.yul\":10452:10464   */\n      swap5\n      dup3\n      add\n      swap5\n        /* \"#utility.yul\":10705:10717   */\n      swap1\n      dup3\n      add\n      swap1\n        /* \"#utility.yul\":10419:10727   */\n      jump(tag_523)\n    tag_525:\n        /* \"#utility.yul\":10782:10800   */\n      swap2\n      dup9\n      add\n        /* \"#utility.yul\":10776:10801   */\n      mload\n        /* \"#utility.yul\":10746:10751   */\n      swap2\n      swap7\n      pop\n        /* \"#utility.yul\":10776:10801   */\n      swap1\n      swap4\n      pop\n      pop\n      pop\n        /* \"#utility.yul\":10813:10829   */\n      dup1\n      dup3\n      gt\n        /* \"#utility.yul\":10810:10846   */\n      iszero\n      tag_527\n      jumpi\n        /* \"#utility.yul\":10842:10843   */\n      0x00\n        /* \"#utility.yul\":10839:10840   */\n      dup1\n        /* \"#utility.yul\":10832:10844   */\n      revert\n        /* \"#utility.yul\":10810:10846   */\n    tag_527:\n      pop\n        /* \"#utility.yul\":10865:10939   */\n      tag_528\n        /* \"#utility.yul\":10931:10938   */\n      dup6\n        /* \"#utility.yul\":10920:10928   */\n      dup3\n        /* \"#utility.yul\":10909:10918   */\n      dup7\n        /* \"#utility.yul\":10905:10929   */\n      add\n        /* \"#utility.yul\":10865:10939   */\n      tag_415\n      jump\t// in\n    tag_528:\n        /* \"#utility.yul\":10855:10939   */\n      swap2\n      pop\n      pop\n        /* \"#utility.yul\":9642:10945   */\n      swap3\n      pop\n      swap3\n      swap1\n      pop\n      jump\t// out\n        /* \"#utility.yul\":10950:11354   */\n    tag_289:\n        /* \"#utility.yul\":10988:10992   */\n      0x00\n        /* \"#utility.yul\":11032:11033   */\n      dup2\n        /* \"#utility.yul\":11029:11030   */\n      0x06\n        /* \"#utility.yul\":11018:11034   */\n      signextend\n        /* \"#utility.yul\":11068:11069   */\n      dup4\n        /* \"#utility.yul\":11065:11066   */\n      0x06\n        /* \"#utility.yul\":11054:11070   */\n      signextend\n        /* \"#utility.yul\":11098:11099   */\n      0x00\n        /* \"#utility.yul\":11093:11096   */\n      dup2\n        /* \"#utility.yul\":11089:11100   */\n      slt\n        /* \"#utility.yul\":11209:11212   */\n      dup2\n        /* \"#utility.yul\":11141:11207   */\n      0xffffffffffffffffffffffffffffffffffffffffffffffffff80000000000000\n        /* \"#utility.yul\":11137:11213   */\n      add\n        /* \"#utility.yul\":11132:11135   */\n      dup4\n        /* \"#utility.yul\":11128:11214   */\n      slt\n        /* \"#utility.yul\":11123:11125   */\n      dup2\n        /* \"#utility.yul\":11116:11126   */\n      iszero\n        /* \"#utility.yul\":11112:11215   */\n      and\n        /* \"#utility.yul\":11109:11238   */\n      iszero\n      tag_531\n      jumpi\n        /* \"#utility.yul\":11218:11236   */\n      tag_531\n      tag_409\n      jump\t// in\n    tag_531:\n        /* \"#utility.yul\":11289:11292   */\n      dup2\n        /* \"#utility.yul\":11271:11287   */\n      0x7fffffffffffff\n        /* \"#utility.yul\":11267:11293   */\n      add\n        /* \"#utility.yul\":11262:11265   */\n      dup4\n        /* \"#utility.yul\":11258:11294   */\n      sgt\n        /* \"#utility.yul\":11254:11256   */\n      dup2\n        /* \"#utility.yul\":11250:11295   */\n      and\n        /* \"#utility.yul\":11247:11318   */\n      iszero\n      tag_533\n      jumpi\n        /* \"#utility.yul\":11298:11316   */\n      tag_533\n      tag_409\n      jump\t// in\n    tag_533:\n      pop\n        /* \"#utility.yul\":11335:11348   */\n      swap1\n      sub\n      swap4\n        /* \"#utility.yul\":10950:11354   */\n      swap3\n      pop\n      pop\n      pop\n      jump\t// out\n        /* \"#utility.yul\":11359:11613   */\n    tag_295:\n        /* \"#utility.yul\":11399:11403   */\n      0x00\n      sub(shl(0xa0, 0x01), 0x01)\n        /* \"#utility.yul\":11520:11530   */\n      dup4\n      dup2\n      and\n      swap1\n        /* \"#utility.yul\":11490:11500   */\n      dup4\n      and\n        /* \"#utility.yul\":11542:11554   */\n      dup2\n      dup2\n      lt\n        /* \"#utility.yul\":11539:11577   */\n      iszero\n      tag_536\n      jumpi\n        /* \"#utility.yul\":11557:11575   */\n      tag_536\n      tag_409\n      jump\t// in\n    tag_536:\n        /* \"#utility.yul\":11594:11607   */\n      sub\n      swap4\n        /* \"#utility.yul\":11359:11613   */\n      swap3\n      pop\n      pop\n      pop\n      jump\t// out\n        /* \"#utility.yul\":11618:12007   */\n    tag_297:\n        /* \"#utility.yul\":11656:11657   */\n      0x00\n        /* \"#utility.yul\":11697:11698   */\n      dup2\n        /* \"#utility.yul\":11694:11695   */\n      0x06\n        /* \"#utility.yul\":11683:11699   */\n      signextend\n        /* \"#utility.yul\":11733:11734   */\n      dup4\n        /* \"#utility.yul\":11730:11731   */\n      0x06\n        /* \"#utility.yul\":11719:11735   */\n      signextend\n        /* \"#utility.yul\":11754:11757   */\n      dup1\n        /* \"#utility.yul\":11744:11781   */\n      tag_539\n      jumpi\n        /* \"#utility.yul\":11761:11779   */\n      tag_539\n      tag_412\n      jump\t// in\n    tag_539:\n      not(0x00)\n        /* \"#utility.yul\":11877:11880   */\n      dup2\n        /* \"#utility.yul\":11874:11949   */\n      eq\n        /* \"#utility.yul\":11805:11871   */\n      0xffffffffffffffffffffffffffffffffffffffffffffffffff80000000000000\n        /* \"#utility.yul\":11800:11803   */\n      dup4\n        /* \"#utility.yul\":11797:11872   */\n      eq\n        /* \"#utility.yul\":11793:11950   */\n      and\n        /* \"#utility.yul\":11790:11973   */\n      iszero\n      tag_541\n      jumpi\n        /* \"#utility.yul\":11953:11971   */\n      tag_541\n      tag_409\n      jump\t// in\n    tag_541:\n        /* \"#utility.yul\":11987:12001   */\n      swap1\n      sdiv\n      swap4\n        /* \"#utility.yul\":11618:12007   */\n      swap3\n      pop\n      pop\n      pop\n      jump\t// out\n        /* \"#utility.yul\":12012:12178   */\n    tag_300:\n        /* \"#utility.yul\":12042:12043   */\n      0x00\n        /* \"#utility.yul\":12083:12084   */\n      dup3\n        /* \"#utility.yul\":12080:12081   */\n      0x06\n        /* \"#utility.yul\":12069:12085   */\n      signextend\n        /* \"#utility.yul\":12104:12107   */\n      dup1\n        /* \"#utility.yul\":12094:12131   */\n      tag_544\n      jumpi\n        /* \"#utility.yul\":12111:12129   */\n      tag_544\n      tag_412\n      jump\t// in\n    tag_544:\n        /* \"#utility.yul\":12168:12171   */\n      dup1\n        /* \"#utility.yul\":12164:12165   */\n      dup4\n        /* \"#utility.yul\":12161:12162   */\n      0x06\n        /* \"#utility.yul\":12150:12166   */\n      signextend\n        /* \"#utility.yul\":12145:12172   */\n      smod\n        /* \"#utility.yul\":12140:12172   */\n      swap2\n      pop\n      pop\n        /* \"#utility.yul\":12012:12178   */\n      swap3\n      swap2\n      pop\n      pop\n      jump\t// out\n        /* \"#utility.yul\":12183:12489   */\n    tag_303:\n        /* \"#utility.yul\":12220:12223   */\n      0x00\n        /* \"#utility.yul\":12267:12272   */\n      dup2\n        /* \"#utility.yul\":12264:12265   */\n      0x02\n        /* \"#utility.yul\":12253:12273   */\n      signextend\n        /* \"#utility.yul\":12297:12363   */\n      0xffffffffffffffffffffffffffffffffffffffffffffffffffffffffff800000\n        /* \"#utility.yul\":12288:12295   */\n      dup2\n        /* \"#utility.yul\":12285:12364   */\n      sub\n        /* \"#utility.yul\":12282:12387   */\n      tag_456\n      jumpi\n        /* \"#utility.yul\":12367:12385   */\n      tag_456\n      tag_409\n      jump\t// in\n        /* \"#utility.yul\":12494:12797   */\n    tag_305:\n        /* \"#utility.yul\":12534:12541   */\n      0x00\n        /* \"#utility.yul\":12566:12616   */\n      0xffffffffffffffffffffffffffffffffffffffffffffffff\n        /* \"#utility.yul\":12643:12645   */\n      dup1\n        /* \"#utility.yul\":12640:12641   */\n      dup4\n        /* \"#utility.yul\":12636:12646   */\n      and\n        /* \"#utility.yul\":12673:12675   */\n      dup2\n        /* \"#utility.yul\":12670:12671   */\n      dup6\n        /* \"#utility.yul\":12666:12676   */\n      and\n        /* \"#utility.yul\":12729:12732   */\n      dup2\n        /* \"#utility.yul\":12725:12727   */\n      dup4\n        /* \"#utility.yul\":12721:12733   */\n      div\n        /* \"#utility.yul\":12716:12719   */\n      dup2\n        /* \"#utility.yul\":12713:12734   */\n      gt\n        /* \"#utility.yul\":12706:12709   */\n      dup3\n        /* \"#utility.yul\":12699:12710   */\n      iszero\n        /* \"#utility.yul\":12692:12711   */\n      iszero\n        /* \"#utility.yul\":12688:12735   */\n      and\n        /* \"#utility.yul\":12685:12758   */\n      iszero\n      tag_550\n      jumpi\n        /* \"#utility.yul\":12738:12756   */\n      tag_550\n      tag_409\n      jump\t// in\n    tag_550:\n        /* \"#utility.yul\":12778:12791   */\n      mul\n      swap5\n        /* \"#utility.yul\":12494:12797   */\n      swap4\n      pop\n      pop\n      pop\n      pop\n      jump\t// out\n        /* \"#utility.yul\":12802:13034   */\n    tag_307:\n        /* \"#utility.yul\":12842:12843   */\n      0x00\n        /* \"#utility.yul\":12868:12918   */\n      0xffffffffffffffffffffffffffffffffffffffffffffffff\n        /* \"#utility.yul\":12945:12947   */\n      dup1\n        /* \"#utility.yul\":12942:12943   */\n      dup5\n        /* \"#utility.yul\":12938:12948   */\n      and\n        /* \"#utility.yul\":12967:12970   */\n      dup1\n        /* \"#utility.yul\":12957:12994   */\n      tag_553\n      jumpi\n        /* \"#utility.yul\":12974:12992   */\n      tag_553\n      tag_412\n      jump\t// in\n    tag_553:\n        /* \"#utility.yul\":13012:13022   */\n      swap3\n      and\n        /* \"#utility.yul\":13008:13028   */\n      swap2\n      swap1\n      swap2\n      div\n      swap3\n        /* \"#utility.yul\":12802:13034   */\n      swap2\n      pop\n      pop\n      jump\t// out\n        /* \"#utility.yul\":13039:13230   */\n    tag_328:\n        /* \"#utility.yul\":13074:13077   */\n      0x00\n        /* \"#utility.yul\":13105:13171   */\n      0x8000000000000000000000000000000000000000000000000000000000000000\n        /* \"#utility.yul\":13098:13103   */\n      dup3\n        /* \"#utility.yul\":13095:13172   */\n      sub\n        /* \"#utility.yul\":13092:13195   */\n      tag_556\n      jumpi\n        /* \"#utility.yul\":13175:13193   */\n      tag_556\n      tag_409\n      jump\t// in\n    tag_556:\n      pop\n        /* \"#utility.yul\":13215:13216   */\n      0x00\n        /* \"#utility.yul\":13211:13224   */\n      sub\n      swap1\n        /* \"#utility.yul\":13039:13230   */\n      jump\t// out\n        /* \"#utility.yul\":13235:13473   */\n    tag_330:\n        /* \"#utility.yul\":13269:13272   */\n      0x00\n        /* \"#utility.yul\":13316:13321   */\n      dup2\n        /* \"#utility.yul\":13313:13314   */\n      0x02\n        /* \"#utility.yul\":13302:13322   */\n      signextend\n        /* \"#utility.yul\":13346:13412   */\n      0xffffffffffffffffffffffffffffffffffffffffffffffffffffffffff800000\n        /* \"#utility.yul\":13337:13344   */\n      dup2\n        /* \"#utility.yul\":13334:13413   */\n      sub\n        /* \"#utility.yul\":13331:13436   */\n      tag_559\n      jumpi\n        /* \"#utility.yul\":13416:13434   */\n      tag_559\n      tag_409\n      jump\t// in\n    tag_559:\n        /* \"#utility.yul\":13456:13457   */\n      0x00\n        /* \"#utility.yul\":13452:13467   */\n      sub\n      swap3\n        /* \"#utility.yul\":13235:13473   */\n      swap2\n      pop\n      pop\n      jump\t// out\n        /* \"#utility.yul\":13807:13919   */\n    tag_377:\n        /* \"#utility.yul\":13839:13840   */\n      0x00\n        /* \"#utility.yul\":13865:13866   */\n      dup3\n        /* \"#utility.yul\":13855:13890   */\n      tag_563\n      jumpi\n        /* \"#utility.yul\":13870:13888   */\n      tag_563\n      tag_412\n      jump\t// in\n    tag_563:\n      pop\n        /* \"#utility.yul\":13904:13913   */\n      mod\n      swap1\n        /* \"#utility.yul\":13807:13919   */\n      jump\t// out\n\n    auxdata: 0xa2646970667358221220ecec9a795266c982911a3ab5a99e3b530f7adc6c687bfca8d89c788007d5650a64736f6c634300080e0033\n}\n",
				"bytecode": {
					"linkReferences": {},
					"object": "60a060405234801561001057600080fd5b50336080526080516124c761004c60003960008181610422015281816106eb0152818161072001528181610d870152610ea501526124c76000f3fe6080604052600436106100ec5760003560e01c8063990dc9db1161008a578063d825bfff11610059578063d825bfff146102b1578063def1a5e8146102e7578063ec55688914610311578063fed0a20e1461033757600080fd5b8063990dc9db146102215780639e95514914610251578063b401487914610271578063cf9d4afa1461029157600080fd5b80634051b9aa116100c65780634051b9aa1461019e57806352fd856b146101be57806363b48ee6146101d45780637d0f7a88146101f457600080fd5b80630cb1982b146100fb5780630fbbfa3e1461012e5780632637a4771461017c57600080fd5b366100f657600080fd5b600080fd5b34801561010757600080fd5b5061011b610116366004611cb1565b610363565b6040519081526020015b60405180910390f35b34801561013a57600080fd5b50610164610149366004611ce2565b6004602052600090815260409020546001600160a01b031681565b6040516001600160a01b039091168152602001610125565b34801561018857600080fd5b5061019c610197366004611ce2565b610417565b005b3480156101aa57600080fd5b5061019c6101b9366004611ce2565b610715565b3480156101ca57600080fd5b5061011b60005481565b3480156101e057600080fd5b506101646101ef366004611cb1565b610966565b34801561020057600080fd5b5061011b61020f366004611ce2565b60036020526000908152604090205481565b34801561022d57600080fd5b5061024161023c366004611cff565b610990565b6040519015158152602001610125565b34801561025d57600080fd5b5061019c61026c366004611ce2565b610d1f565b34801561027d57600080fd5b5061019c61028c366004611cff565b610d7c565b34801561029d57600080fd5b5061019c6102ac366004611ce2565b610e9a565b3480156102bd57600080fd5b506101646102cc366004611ce2565b6005602052600090815260409020546001600160a01b031681565b3480156102f357600080fd5b506102fc610f45565b60408051928352602083019190915201610125565b34801561031d57600080fd5b50600154610164906201000090046001600160a01b031681565b34801561034357600080fd5b506001546103519060ff1681565b60405160ff9091168152602001610125565b6000600160029054906101000a90046001600160a01b03166001600160a01b0316633f0a07976040518163ffffffff1660e01b8152600401602060405180830381865afa1580156103b8573d6000803e3d6000fd5b505050506040513d601f19601f820116820180604052508101906103dc9190611d2b565b6001600160a01b0316336001600160a01b0316146103f957600080fd5b8161040261111d565b61040c9190611d77565b600081905592915050565b336001600160a01b037f0000000000000000000000000000000000000000000000000000000000000000161461044c57600080fd5b6001546040517fa6fa0b7b0000000000000000000000000000000000000000000000000000000081526001600160a01b0383811660048301526201000090920490911690819063a6fa0b7b90602401600060405180830381600087803b1580156104b557600080fd5b505af11580156104c9573d6000803e3d6000fd5b50506040516001600160a01b03848116602483015285169250604401905060408051601f198184030181529181526020820180517bffffffffffffffffffffffffffffffffffffffffffffffffffffffff167fcf9d4afa000000000000000000000000000000000000000000000000000000001790525161054a9190611d8e565b600060405180830381855af49150503d8060008114610585576040519150601f19603f3d011682016040523d82523d6000602084013e61058a565b606091505b5050600254905060005b818110156106e8576000600282815481106105b1576105b1611dc9565b6000918252602090912001546040517f70a082310000000000000000000000000000000000000000000000000000000081523060048201526001600160a01b039091169150819063a9059cbb90879083906370a0823190602401602060405180830381865afa158015610628573d6000803e3d6000fd5b505050506040513d601f19601f8201168201806040525081019061064c9190611df8565b6040517fffffffff0000000000000000000000000000000000000000000000000000000060e085901b1681526001600160a01b03909216600483015260248201526044016020604051808303816000875af11580156106af573d6000803e3d6000fd5b505050506040513d601f19601f820116820180604052508101906106d39190611e11565b505080806106e090611e33565b915050610594565b507f00000000000000000000000000000000000000000000000000000000000000006001600160a01b0316ff5b336001600160a01b037f00000000000000000000000000000000000000000000000000000000000000001614806107d35750600160029054906101000a90046001600160a01b03166001600160a01b0316633f0a07976040518163ffffffff1660e01b8152600401602060405180830381865afa15801561079a573d6000803e3d6000fd5b505050506040513d601f19601f820116820180604052508101906107be9190611d2b565b6001600160a01b0316336001600160a01b0316145b6107dc57600080fd5b6001600160a01b03811660009081526003602052604090205460020361082d5760018054610100900460ff16908061081383611e4d565b91906101000a81548160ff021916908360ff160217905550505b6001600160a01b0381166000908152600360205260408120819055600254905b8181101561096157826001600160a01b03166002828154811061087257610872611dc9565b6000918252602090912001546001600160a01b03160361094f576002610899600184611d77565b815481106108a9576108a9611dc9565b600091825260209091200154600280546001600160a01b0390921691839081106108d5576108d5611dc9565b9060005260206000200160006101000a8154816001600160a01b0302191690836001600160a01b03160217905550600280548061091457610914611e6a565b600082815260209020810160001990810180547fffffffffffffffffffffffff00000000000000000000000000000000000000001690550190555b8061095981611e33565b91505061084d565b505050565b6002818154811061097657600080fd5b6000918252602090912001546001600160a01b0316905081565b600080600160029054906101000a90046001600160a01b03169050806001600160a01b0316633f0a07976040518163ffffffff1660e01b8152600401602060405180830381865afa1580156109e9573d6000803e3d6000fd5b505050506040513d601f19601f82011682018060405250810190610a0d9190611d2b565b6001600160a01b0316336001600160a01b03161480610a9e5750806001600160a01b031663da8909e56040518163ffffffff1660e01b8152600401602060405180830381865afa158015610a65573d6000803e3d6000fd5b505050506040513d601f19601f82011682018060405250810190610a899190611d2b565b6001600160a01b0316336001600160a01b0316145b610aa757600080fd5b60025460005b81811015610d1157600060028281548110610aca57610aca611dc9565b60009182526020808320909101546001600160a01b03168083526003909152604090912054909150600203610cfe576000816001600160a01b031663313ce5676040518163ffffffff1660e01b8152600401602060405180830381865afa158015610b39573d6000803e3d6000fd5b505050506040513d601f19601f82011682018060405250810190610b5d9190611e99565b905060128160ff161015610c40576001600160a01b03821663a9059cbb89610b89601260ff8616611d77565b610b9490600a611fa0565b600154610ba990610100900460ff168c611fdb565b610bb39190611fdb565b6040517fffffffff0000000000000000000000000000000000000000000000000000000060e085901b1681526001600160a01b03909216600483015260248201526044016020604051808303816000875af1158015610c16573d6000803e3d6000fd5b505050506040513d601f19601f82011682018060405250810190610c3a9190611e11565b50610cfc565b8060ff16601203610cfc576001546001600160a01b0383169063a9059cbb908a90610c7390610100900460ff168b611fdb565b6040517fffffffff0000000000000000000000000000000000000000000000000000000060e085901b1681526001600160a01b03909216600483015260248201526044016020604051808303816000875af1158015610cd6573d6000803e3d6000fd5b505050506040513d601f19601f82011682018060405250810190610cfa9190611e11565b505b505b5080610d0981611e33565b915050610aad565b506001925050505b92915050565b6001546201000090046001600160a01b03163314610d3c57600080fd5b600180546001600160a01b0390921662010000027fffffffffffffffffffff0000000000000000000000000000000000000000ffff909216919091179055565b336001600160a01b037f00000000000000000000000000000000000000000000000000000000000000001614610db157600080fd5b80600003610dda576001600160a01b038216600090815260036020526040902060019055610e2f565b80600103610e2f576001600160a01b03821660009081526003602052604090206002905560018054610100900460ff169080610e1583611fef565b91906101000a81548160ff021916908360ff160217905550505b50600280546001810182556000919091527f405787fa12a823e0f2b7631cc41b3ba8828b3321ca811111fa75cd3aa3bb5ace0180547fffffffffffffffffffffffff0000000000000000000000000000000000000000166001600160a01b0392909216919091179055565b336001600160a01b037f00000000000000000000000000000000000000000000000000000000000000001614610ecf57600080fd5b60015460ff1615610edf57600080fd5b600180547fffffffffffffffffffff0000000000000000000000000000000000000000ff0016620100006001600160a01b0393909316929092027fffffffffffffffffffffffffffffffffffffffffffffffffffffffffffffff00169190911781179055565b6000806000600160029054906101000a90046001600160a01b03166001600160a01b031663da8909e56040518163ffffffff1660e01b8152600401602060405180830381865afa158015610f9d573d6000803e3d6000fd5b505050506040513d601f19601f82011682018060405250810190610fc19190611d2b565b6001600160a01b031663d0b06f5d6040518163ffffffff1660e01b8152600401602060405180830381865afa158015610ffe573d6000803e3d6000fd5b505050506040513d601f19601f820116820180604052508101906110229190611df8565b90506000600160029054906101000a90046001600160a01b03166001600160a01b031663da8909e56040518163ffffffff1660e01b8152600401602060405180830381865afa158015611079573d6000803e3d6000fd5b505050506040513d601f19601f8201168201806040525081019061109d9190611d2b565b6001600160a01b0316637f8483a46040518163ffffffff1660e01b8152600401602060405180830381865afa1580156110da573d6000803e3d6000fd5b505050506040513d601f19601f820116820180604052508101906110fe9190611df8565b90508061110961111d565b6111139190611d77565b9491935090915050565b600254600090815b818110156112995760006002828154811061114257611142611dc9565b60009182526020822001546040517f70a082310000000000000000000000000000000000000000000000000000000081523060048201526001600160a01b03909116925082906370a0823190602401602060405180830381865afa1580156111ae573d6000803e3d6000fd5b505050506040513d601f19601f820116820180604052508101906111d29190611df8565b6001600160a01b038316600090815260036020526040902054909150600181900361126e576001600160a01b038084166000908152600460205260408120549091829161122091168261129e565b506001600160a01b0380871660009081526005602052604090205491925061124e918391879189911661152b565b915061125c9050818461200e565b611266908861202d565b965050611283565b8060020361128357611280828761202d565b95505b505050808061129190611e33565b915050611125565b505090565b6000808263ffffffff16600003611316576040517f08c379a000000000000000000000000000000000000000000000000000000000815260206004820152600260248201527f425000000000000000000000000000000000000000000000000000000000000060448201526064015b60405180910390fd5b604080516002808252606082018352600092602083019080368337019050509050838160008151811061134b5761134b611dc9565b602002602001019063ffffffff16908163ffffffff168152505060008160018151811061137a5761137a611dc9565b602002602001019063ffffffff16908163ffffffff1681525050600080866001600160a01b031663883bdbfd846040518263ffffffff1660e01b81526004016113c39190612074565b600060405180830381865afa1580156113e0573d6000803e3d6000fd5b505050506040513d6000823e601f3d908101601f191682016040526114089190810190612187565b9150915060008260008151811061142157611421611dc9565b60200260200101518360018151811061143c5761143c611dc9565b602002602001015161144e9190612253565b905060008260008151811061146557611465611dc9565b60200260200101518360018151811061148057611480611dc9565b602002602001015161149291906122bb565b90506114a2600389900b836122e3565b965060008260060b1280156114c657506114c0600389900b83612339565b60060b15155b156114d957866114d58161235b565b9750505b60006114f26001600160a01b0363ffffffff8b16612390565b905061151c77ffffffffffffffffffffffffffffffffffffffff00000000602084901b16826123d0565b96505050505050509250929050565b600080611537866116aa565b90506fffffffffffffffffffffffffffffffff6001600160a01b0382161161160257600061156e6001600160a01b0383168061200e565b9050836001600160a01b0316856001600160a01b0316106115c4576115bf7801000000000000000000000000000000000000000000000000876fffffffffffffffffffffffffffffffff1683611b2b565b6115fa565b6115fa81876fffffffffffffffffffffffffffffffff167801000000000000000000000000000000000000000000000000611b2b565b9250506116a1565b60006116216001600160a01b0383168068010000000000000000611b2b565b9050836001600160a01b0316856001600160a01b03161061166f5761166a700100000000000000000000000000000000876fffffffffffffffffffffffffffffffff1683611b2b565b61169d565b61169d81876fffffffffffffffffffffffffffffffff16700100000000000000000000000000000000611b2b565b9250505b50949350505050565b60008060008360020b126116c1578260020b6116ce565b8260020b6116ce90612407565b90506116f97ffffffffffffffffffffffffffffffffffffffffffffffffffffffffffff2761861243f565b62ffffff16811115611767576040517f08c379a000000000000000000000000000000000000000000000000000000000815260206004820152600160248201527f5400000000000000000000000000000000000000000000000000000000000000604482015260640161130d565b60008160011660000361178b5770010000000000000000000000000000000061179d565b6ffffcb933bd6fad37aa2d162d1a5940015b70ffffffffffffffffffffffffffffffffff16905060028216156117dc5760806117d7826ffff97272373d413259a46990580e213a61200e565b901c90505b6004821615611806576080611801826ffff2e50f5f656932ef12357cf3c7fdcc61200e565b901c90505b600882161561183057608061182b826fffe5caca7e10e4e61c3624eaa0941cd061200e565b901c90505b601082161561185a576080611855826fffcb9843d60f6159c9db58835c92664461200e565b901c90505b602082161561188457608061187f826fff973b41fa98c081472e6896dfb254c061200e565b901c90505b60408216156118ae5760806118a9826fff2ea16466c96a3843ec78b326b5286161200e565b901c90505b60808216156118d85760806118d3826ffe5dee046a99a2a811c461f1969c305361200e565b901c90505b6101008216156119035760806118fe826ffcbe86c7900a88aedcffc83b479aa3a461200e565b901c90505b61020082161561192e576080611929826ff987a7253ac413176f2b074cf7815e5461200e565b901c90505b610400821615611959576080611954826ff3392b0822b70005940c7a398e4b70f361200e565b901c90505b61080082161561198457608061197f826fe7159475a2c29b7443b29c7fa6e889d961200e565b901c90505b6110008216156119af5760806119aa826fd097f3bdfd2022b8845ad8f792aa582561200e565b901c90505b6120008216156119da5760806119d5826fa9f746462d870fdf8a65dc1f90e061e561200e565b901c90505b614000821615611a05576080611a00826f70d869a156d2a1b890bb3df62baf32f761200e565b901c90505b618000821615611a30576080611a2b826f31be135f97d08fd981231505542fcfa661200e565b901c90505b62010000821615611a5c576080611a57826f09aa508b5b7a84e1c677de54f3e99bc961200e565b901c90505b62020000821615611a87576080611a82826e5d6af8dedb81196699c329225ee60461200e565b901c90505b62040000821615611ab1576080611aac826d2216e584f5fa1ea926041bedfe9861200e565b901c90505b62080000821615611ad9576080611ad4826b048a170391f7dc42444e8fa261200e565b901c90505b60008460020b1315611af457611af181600019611fdb565b90505b611b036401000000008261247d565b15611b0f576001611b12565b60005b611b239060ff16602083901c61202d565b949350505050565b6000808060001985870985870292508281108382030391505080600003611b645760008411611b5957600080fd5b508290049050611caa565b808411611b7057600080fd5b600084868809808403938111909203919050600085611b9181600019611d77565b611b9c90600161202d565b16958690049593849004936000819003046001019050611bbc818461200e565b909317926000611bcd87600361200e565b6002189050611bdc818861200e565b611be7906002611d77565b611bf1908261200e565b9050611bfd818861200e565b611c08906002611d77565b611c12908261200e565b9050611c1e818861200e565b611c29906002611d77565b611c33908261200e565b9050611c3f818861200e565b611c4a906002611d77565b611c54908261200e565b9050611c60818861200e565b611c6b906002611d77565b611c75908261200e565b9050611c81818861200e565b611c8c906002611d77565b611c96908261200e565b9050611ca2818661200e565b955050505050505b9392505050565b600060208284031215611cc357600080fd5b5035919050565b6001600160a01b0381168114611cdf57600080fd5b50565b600060208284031215611cf457600080fd5b8135611caa81611cca565b60008060408385031215611d1257600080fd5b8235611d1d81611cca565b946020939093013593505050565b600060208284031215611d3d57600080fd5b8151611caa81611cca565b7f4e487b7100000000000000000000000000000000000000000000000000000000600052601160045260246000fd5b600082821015611d8957611d89611d48565b500390565b6000825160005b81811015611daf5760208186018101518583015201611d95565b81811115611dbe576000828501525b509190910192915050565b7f4e487b7100000000000000000000000000000000000000000000000000000000600052603260045260246000fd5b600060208284031215611e0a57600080fd5b5051919050565b600060208284031215611e2357600080fd5b81518015158114611caa57600080fd5b60006000198203611e4657611e46611d48565b5060010190565b600060ff821680611e6057611e60611d48565b6000190192915050565b7f4e487b7100000000000000000000000000000000000000000000000000000000600052603160045260246000fd5b600060208284031215611eab57600080fd5b815160ff81168114611caa57600080fd5b600181815b80851115611ef7578160001904821115611edd57611edd611d48565b80851615611eea57918102915b93841c9390800290611ec1565b509250929050565b600082611f0e57506001610d19565b81611f1b57506000610d19565b8160018114611f315760028114611f3b57611f57565b6001915050610d19565b60ff841115611f4c57611f4c611d48565b50506001821b610d19565b5060208310610133831016604e8410600b8410161715611f7a575081810a610d19565b611f848383611ebc565b8060001904821115611f9857611f98611d48565b029392505050565b6000611caa8383611eff565b7f4e487b7100000000000000000000000000000000000000000000000000000000600052601260045260246000fd5b600082611fea57611fea611fac565b500490565b600060ff821660ff810361200557612005611d48565b60010192915050565b600081600019048311821515161561202857612028611d48565b500290565b6000821982111561204057612040611d48565b500190565b7f4e487b7100000000000000000000000000000000000000000000000000000000600052604160045260246000fd5b6020808252825182820181905260009190848201906040850190845b818110156120b257835163ffffffff1683529284019291840191600101612090565b50909695505050505050565b604051601f8201601f1916810167ffffffffffffffff811182821017156120e7576120e7612045565b604052919050565b600067ffffffffffffffff82111561210957612109612045565b5060051b60200190565b600082601f83011261212457600080fd5b81516020612139612134836120ef565b6120be565b82815260059290921b8401810191818101908684111561215857600080fd5b8286015b8481101561217c57805161216f81611cca565b835291830191830161215c565b509695505050505050565b6000806040838503121561219a57600080fd5b825167ffffffffffffffff808211156121b257600080fd5b818501915085601f8301126121c657600080fd5b815160206121d6612134836120ef565b82815260059290921b840181019181810190898411156121f557600080fd5b948201945b838610156122235785518060060b81146122145760008081fd5b825294820194908201906121fa565b9188015191965090935050508082111561223c57600080fd5b5061224985828601612113565b9150509250929050565b60008160060b8360060b60008112817fffffffffffffffffffffffffffffffffffffffffffffffffff800000000000000183128115161561229657612296611d48565b81667fffffffffffff0183138116156122b1576122b1611d48565b5090039392505050565b60006001600160a01b03838116908316818110156122db576122db611d48565b039392505050565b60008160060b8360060b806122fa576122fa611fac565b60001981147fffffffffffffffffffffffffffffffffffffffffffffffffff800000000000008314161561233057612330611d48565b90059392505050565b60008260060b8061234c5761234c611fac565b808360060b0791505092915050565b60008160020b7fffffffffffffffffffffffffffffffffffffffffffffffffffffffffff8000008103611e6057611e60611d48565b600077ffffffffffffffffffffffffffffffffffffffffffffffff808316818516818304811182151516156123c7576123c7611d48565b02949350505050565b600077ffffffffffffffffffffffffffffffffffffffffffffffff808416806123fb576123fb611fac565b92169190910492915050565b60007f8000000000000000000000000000000000000000000000000000000000000000820361243857612438611d48565b5060000390565b60008160020b7fffffffffffffffffffffffffffffffffffffffffffffffffffffffffff800000810361247457612474611d48565b60000392915050565b60008261248c5761248c611fac565b50069056fea2646970667358221220ecec9a795266c982911a3ab5a99e3b530f7adc6c687bfca8d89c788007d5650a64736f6c634300080e0033",
					"opcodes": "PUSH1 0xA0 PUSH1 0x40 MSTORE CALLVALUE DUP1 ISZERO PUSH2 0x10 JUMPI PUSH1 0x0 DUP1 REVERT JUMPDEST POP CALLER PUSH1 0x80 MSTORE PUSH1 0x80 MLOAD PUSH2 0x24C7 PUSH2 0x4C PUSH1 0x0 CODECOPY PUSH1 0x0 DUP2 DUP2 PUSH2 0x422 ADD MSTORE DUP2 DUP2 PUSH2 0x6EB ADD MSTORE DUP2 DUP2 PUSH2 0x720 ADD MSTORE DUP2 DUP2 PUSH2 0xD87 ADD MSTORE PUSH2 0xEA5 ADD MSTORE PUSH2 0x24C7 PUSH1 0x0 RETURN INVALID PUSH1 0x80 PUSH1 0x40 MSTORE PUSH1 0x4 CALLDATASIZE LT PUSH2 0xEC JUMPI PUSH1 0x0 CALLDATALOAD PUSH1 0xE0 SHR DUP1 PUSH4 0x990DC9DB GT PUSH2 0x8A JUMPI DUP1 PUSH4 0xD825BFFF GT PUSH2 0x59 JUMPI DUP1 PUSH4 0xD825BFFF EQ PUSH2 0x2B1 JUMPI DUP1 PUSH4 0xDEF1A5E8 EQ PUSH2 0x2E7 JUMPI DUP1 PUSH4 0xEC556889 EQ PUSH2 0x311 JUMPI DUP1 PUSH4 0xFED0A20E EQ PUSH2 0x337 JUMPI PUSH1 0x0 DUP1 REVERT JUMPDEST DUP1 PUSH4 0x990DC9DB EQ PUSH2 0x221 JUMPI DUP1 PUSH4 0x9E955149 EQ PUSH2 0x251 JUMPI DUP1 PUSH4 0xB4014879 EQ PUSH2 0x271 JUMPI DUP1 PUSH4 0xCF9D4AFA EQ PUSH2 0x291 JUMPI PUSH1 0x0 DUP1 REVERT JUMPDEST DUP1 PUSH4 0x4051B9AA GT PUSH2 0xC6 JUMPI DUP1 PUSH4 0x4051B9AA EQ PUSH2 0x19E JUMPI DUP1 PUSH4 0x52FD856B EQ PUSH2 0x1BE JUMPI DUP1 PUSH4 0x63B48EE6 EQ PUSH2 0x1D4 JUMPI DUP1 PUSH4 0x7D0F7A88 EQ PUSH2 0x1F4 JUMPI PUSH1 0x0 DUP1 REVERT JUMPDEST DUP1 PUSH4 0xCB1982B EQ PUSH2 0xFB JUMPI DUP1 PUSH4 0xFBBFA3E EQ PUSH2 0x12E JUMPI DUP1 PUSH4 0x2637A477 EQ PUSH2 0x17C JUMPI PUSH1 0x0 DUP1 REVERT JUMPDEST CALLDATASIZE PUSH2 0xF6 JUMPI PUSH1 0x0 DUP1 REVERT JUMPDEST PUSH1 0x0 DUP1 REVERT JUMPDEST CALLVALUE DUP1 ISZERO PUSH2 0x107 JUMPI PUSH1 0x0 DUP1 REVERT JUMPDEST POP PUSH2 0x11B PUSH2 0x116 CALLDATASIZE PUSH1 0x4 PUSH2 0x1CB1 JUMP JUMPDEST PUSH2 0x363 JUMP JUMPDEST PUSH1 0x40 MLOAD SWAP1 DUP2 MSTORE PUSH1 0x20 ADD JUMPDEST PUSH1 0x40 MLOAD DUP1 SWAP2 SUB SWAP1 RETURN JUMPDEST CALLVALUE DUP1 ISZERO PUSH2 0x13A JUMPI PUSH1 0x0 DUP1 REVERT JUMPDEST POP PUSH2 0x164 PUSH2 0x149 CALLDATASIZE PUSH1 0x4 PUSH2 0x1CE2 JUMP JUMPDEST PUSH1 0x4 PUSH1 0x20 MSTORE PUSH1 0x0 SWAP1 DUP2 MSTORE PUSH1 0x40 SWAP1 KECCAK256 SLOAD PUSH1 0x1 PUSH1 0x1 PUSH1 0xA0 SHL SUB AND DUP2 JUMP JUMPDEST PUSH1 0x40 MLOAD PUSH1 0x1 PUSH1 0x1 PUSH1 0xA0 SHL SUB SWAP1 SWAP2 AND DUP2 MSTORE PUSH1 0x20 ADD PUSH2 0x125 JUMP JUMPDEST CALLVALUE DUP1 ISZERO PUSH2 0x188 JUMPI PUSH1 0x0 DUP1 REVERT JUMPDEST POP PUSH2 0x19C PUSH2 0x197 CALLDATASIZE PUSH1 0x4 PUSH2 0x1CE2 JUMP JUMPDEST PUSH2 0x417 JUMP JUMPDEST STOP JUMPDEST CALLVALUE DUP1 ISZERO PUSH2 0x1AA JUMPI PUSH1 0x0 DUP1 REVERT JUMPDEST POP PUSH2 0x19C PUSH2 0x1B9 CALLDATASIZE PUSH1 0x4 PUSH2 0x1CE2 JUMP JUMPDEST PUSH2 0x715 JUMP JUMPDEST CALLVALUE DUP1 ISZERO PUSH2 0x1CA JUMPI PUSH1 0x0 DUP1 REVERT JUMPDEST POP PUSH2 0x11B PUSH1 0x0 SLOAD DUP2 JUMP JUMPDEST CALLVALUE DUP1 ISZERO PUSH2 0x1E0 JUMPI PUSH1 0x0 DUP1 REVERT JUMPDEST POP PUSH2 0x164 PUSH2 0x1EF CALLDATASIZE PUSH1 0x4 PUSH2 0x1CB1 JUMP JUMPDEST PUSH2 0x966 JUMP JUMPDEST CALLVALUE DUP1 ISZERO PUSH2 0x200 JUMPI PUSH1 0x0 DUP1 REVERT JUMPDEST POP PUSH2 0x11B PUSH2 0x20F CALLDATASIZE PUSH1 0x4 PUSH2 0x1CE2 JUMP JUMPDEST PUSH1 0x3 PUSH1 0x20 MSTORE PUSH1 0x0 SWAP1 DUP2 MSTORE PUSH1 0x40 SWAP1 KECCAK256 SLOAD DUP2 JUMP JUMPDEST CALLVALUE DUP1 ISZERO PUSH2 0x22D JUMPI PUSH1 0x0 DUP1 REVERT JUMPDEST POP PUSH2 0x241 PUSH2 0x23C CALLDATASIZE PUSH1 0x4 PUSH2 0x1CFF JUMP JUMPDEST PUSH2 0x990 JUMP JUMPDEST PUSH1 0x40 MLOAD SWAP1 ISZERO ISZERO DUP2 MSTORE PUSH1 0x20 ADD PUSH2 0x125 JUMP JUMPDEST CALLVALUE DUP1 ISZERO PUSH2 0x25D JUMPI PUSH1 0x0 DUP1 REVERT JUMPDEST POP PUSH2 0x19C PUSH2 0x26C CALLDATASIZE PUSH1 0x4 PUSH2 0x1CE2 JUMP JUMPDEST PUSH2 0xD1F JUMP JUMPDEST CALLVALUE DUP1 ISZERO PUSH2 0x27D JUMPI PUSH1 0x0 DUP1 REVERT JUMPDEST POP PUSH2 0x19C PUSH2 0x28C CALLDATASIZE PUSH1 0x4 PUSH2 0x1CFF JUMP JUMPDEST PUSH2 0xD7C JUMP JUMPDEST CALLVALUE DUP1 ISZERO PUSH2 0x29D JUMPI PUSH1 0x0 DUP1 REVERT JUMPDEST POP PUSH2 0x19C PUSH2 0x2AC CALLDATASIZE PUSH1 0x4 PUSH2 0x1CE2 JUMP JUMPDEST PUSH2 0xE9A JUMP JUMPDEST CALLVALUE DUP1 ISZERO PUSH2 0x2BD JUMPI PUSH1 0x0 DUP1 REVERT JUMPDEST POP PUSH2 0x164 PUSH2 0x2CC CALLDATASIZE PUSH1 0x4 PUSH2 0x1CE2 JUMP JUMPDEST PUSH1 0x5 PUSH1 0x20 MSTORE PUSH1 0x0 SWAP1 DUP2 MSTORE PUSH1 0x40 SWAP1 KECCAK256 SLOAD PUSH1 0x1 PUSH1 0x1 PUSH1 0xA0 SHL SUB AND DUP2 JUMP JUMPDEST CALLVALUE DUP1 ISZERO PUSH2 0x2F3 JUMPI PUSH1 0x0 DUP1 REVERT JUMPDEST POP PUSH2 0x2FC PUSH2 0xF45 JUMP JUMPDEST PUSH1 0x40 DUP1 MLOAD SWAP3 DUP4 MSTORE PUSH1 0x20 DUP4 ADD SWAP2 SWAP1 SWAP2 MSTORE ADD PUSH2 0x125 JUMP JUMPDEST CALLVALUE DUP1 ISZERO PUSH2 0x31D JUMPI PUSH1 0x0 DUP1 REVERT JUMPDEST POP PUSH1 0x1 SLOAD PUSH2 0x164 SWAP1 PUSH3 0x10000 SWAP1 DIV PUSH1 0x1 PUSH1 0x1 PUSH1 0xA0 SHL SUB AND DUP2 JUMP JUMPDEST CALLVALUE DUP1 ISZERO PUSH2 0x343 JUMPI PUSH1 0x0 DUP1 REVERT JUMPDEST POP PUSH1 0x1 SLOAD PUSH2 0x351 SWAP1 PUSH1 0xFF AND DUP2 JUMP JUMPDEST PUSH1 0x40 MLOAD PUSH1 0xFF SWAP1 SWAP2 AND DUP2 MSTORE PUSH1 0x20 ADD PUSH2 0x125 JUMP JUMPDEST PUSH1 0x0 PUSH1 0x1 PUSH1 0x2 SWAP1 SLOAD SWAP1 PUSH2 0x100 EXP SWAP1 DIV PUSH1 0x1 PUSH1 0x1 PUSH1 0xA0 SHL SUB AND PUSH1 0x1 PUSH1 0x1 PUSH1 0xA0 SHL SUB AND PUSH4 0x3F0A0797 PUSH1 0x40 MLOAD DUP2 PUSH4 0xFFFFFFFF AND PUSH1 0xE0 SHL DUP2 MSTORE PUSH1 0x4 ADD PUSH1 0x20 PUSH1 0x40 MLOAD DUP1 DUP4 SUB DUP2 DUP7 GAS STATICCALL ISZERO DUP1 ISZERO PUSH2 0x3B8 JUMPI RETURNDATASIZE PUSH1 0x0 DUP1 RETURNDATACOPY RETURNDATASIZE PUSH1 0x0 REVERT JUMPDEST POP POP POP POP PUSH1 0x40 MLOAD RETURNDATASIZE PUSH1 0x1F NOT PUSH1 0x1F DUP3 ADD AND DUP3 ADD DUP1 PUSH1 0x40 MSTORE POP DUP2 ADD SWAP1 PUSH2 0x3DC SWAP2 SWAP1 PUSH2 0x1D2B JUMP JUMPDEST PUSH1 0x1 PUSH1 0x1 PUSH1 0xA0 SHL SUB AND CALLER PUSH1 0x1 PUSH1 0x1 PUSH1 0xA0 SHL SUB AND EQ PUSH2 0x3F9 JUMPI PUSH1 0x0 DUP1 REVERT JUMPDEST DUP2 PUSH2 0x402 PUSH2 0x111D JUMP JUMPDEST PUSH2 0x40C SWAP2 SWAP1 PUSH2 0x1D77 JUMP JUMPDEST PUSH1 0x0 DUP2 SWAP1 SSTORE SWAP3 SWAP2 POP POP JUMP JUMPDEST CALLER PUSH1 0x1 PUSH1 0x1 PUSH1 0xA0 SHL SUB PUSH32 0x0 AND EQ PUSH2 0x44C JUMPI PUSH1 0x0 DUP1 REVERT JUMPDEST PUSH1 0x1 SLOAD PUSH1 0x40 MLOAD PUSH32 0xA6FA0B7B00000000000000000000000000000000000000000000000000000000 DUP2 MSTORE PUSH1 0x1 PUSH1 0x1 PUSH1 0xA0 SHL SUB DUP4 DUP2 AND PUSH1 0x4 DUP4 ADD MSTORE PUSH3 0x10000 SWAP1 SWAP3 DIV SWAP1 SWAP2 AND SWAP1 DUP2 SWAP1 PUSH4 0xA6FA0B7B SWAP1 PUSH1 0x24 ADD PUSH1 0x0 PUSH1 0x40 MLOAD DUP1 DUP4 SUB DUP2 PUSH1 0x0 DUP8 DUP1 EXTCODESIZE ISZERO DUP1 ISZERO PUSH2 0x4B5 JUMPI PUSH1 0x0 DUP1 REVERT JUMPDEST POP GAS CALL ISZERO DUP1 ISZERO PUSH2 0x4C9 JUMPI RETURNDATASIZE PUSH1 0x0 DUP1 RETURNDATACOPY RETURNDATASIZE PUSH1 0x0 REVERT JUMPDEST POP POP PUSH1 0x40 MLOAD PUSH1 0x1 PUSH1 0x1 PUSH1 0xA0 SHL SUB DUP5 DUP2 AND PUSH1 0x24 DUP4 ADD MSTORE DUP6 AND SWAP3 POP PUSH1 0x44 ADD SWAP1 POP PUSH1 0x40 DUP1 MLOAD PUSH1 0x1F NOT DUP2 DUP5 SUB ADD DUP2 MSTORE SWAP2 DUP2 MSTORE PUSH1 0x20 DUP3 ADD DUP1 MLOAD PUSH28 0xFFFFFFFFFFFFFFFFFFFFFFFFFFFFFFFFFFFFFFFFFFFFFFFFFFFFFFFF AND PUSH32 0xCF9D4AFA00000000000000000000000000000000000000000000000000000000 OR SWAP1 MSTORE MLOAD PUSH2 0x54A SWAP2 SWAP1 PUSH2 0x1D8E JUMP JUMPDEST PUSH1 0x0 PUSH1 0x40 MLOAD DUP1 DUP4 SUB DUP2 DUP6 GAS DELEGATECALL SWAP2 POP POP RETURNDATASIZE DUP1 PUSH1 0x0 DUP2 EQ PUSH2 0x585 JUMPI PUSH1 0x40 MLOAD SWAP2 POP PUSH1 0x1F NOT PUSH1 0x3F RETURNDATASIZE ADD AND DUP3 ADD PUSH1 0x40 MSTORE RETURNDATASIZE DUP3 MSTORE RETURNDATASIZE PUSH1 0x0 PUSH1 0x20 DUP5 ADD RETURNDATACOPY PUSH2 0x58A JUMP JUMPDEST PUSH1 0x60 SWAP2 POP JUMPDEST POP POP PUSH1 0x2 SLOAD SWAP1 POP PUSH1 0x0 JUMPDEST DUP2 DUP2 LT ISZERO PUSH2 0x6E8 JUMPI PUSH1 0x0 PUSH1 0x2 DUP3 DUP2 SLOAD DUP2 LT PUSH2 0x5B1 JUMPI PUSH2 0x5B1 PUSH2 0x1DC9 JUMP JUMPDEST PUSH1 0x0 SWAP2 DUP3 MSTORE PUSH1 0x20 SWAP1 SWAP2 KECCAK256 ADD SLOAD PUSH1 0x40 MLOAD PUSH32 0x70A0823100000000000000000000000000000000000000000000000000000000 DUP2 MSTORE ADDRESS PUSH1 0x4 DUP3 ADD MSTORE PUSH1 0x1 PUSH1 0x1 PUSH1 0xA0 SHL SUB SWAP1 SWAP2 AND SWAP2 POP DUP2 SWAP1 PUSH4 0xA9059CBB SWAP1 DUP8 SWAP1 DUP4 SWAP1 PUSH4 0x70A08231 SWAP1 PUSH1 0x24 ADD PUSH1 0x20 PUSH1 0x40 MLOAD DUP1 DUP4 SUB DUP2 DUP7 GAS STATICCALL ISZERO DUP1 ISZERO PUSH2 0x628 JUMPI RETURNDATASIZE PUSH1 0x0 DUP1 RETURNDATACOPY RETURNDATASIZE PUSH1 0x0 REVERT JUMPDEST POP POP POP POP PUSH1 0x40 MLOAD RETURNDATASIZE PUSH1 0x1F NOT PUSH1 0x1F DUP3 ADD AND DUP3 ADD DUP1 PUSH1 0x40 MSTORE POP DUP2 ADD SWAP1 PUSH2 0x64C SWAP2 SWAP1 PUSH2 0x1DF8 JUMP JUMPDEST PUSH1 0x40 MLOAD PUSH32 0xFFFFFFFF00000000000000000000000000000000000000000000000000000000 PUSH1 0xE0 DUP6 SWAP1 SHL AND DUP2 MSTORE PUSH1 0x1 PUSH1 0x1 PUSH1 0xA0 SHL SUB SWAP1 SWAP3 AND PUSH1 0x4 DUP4 ADD MSTORE PUSH1 0x24 DUP3 ADD MSTORE PUSH1 0x44 ADD PUSH1 0x20 PUSH1 0x40 MLOAD DUP1 DUP4 SUB DUP2 PUSH1 0x0 DUP8 GAS CALL ISZERO DUP1 ISZERO PUSH2 0x6AF JUMPI RETURNDATASIZE PUSH1 0x0 DUP1 RETURNDATACOPY RETURNDATASIZE PUSH1 0x0 REVERT JUMPDEST POP POP POP POP PUSH1 0x40 MLOAD RETURNDATASIZE PUSH1 0x1F NOT PUSH1 0x1F DUP3 ADD AND DUP3 ADD DUP1 PUSH1 0x40 MSTORE POP DUP2 ADD SWAP1 PUSH2 0x6D3 SWAP2 SWAP1 PUSH2 0x1E11 JUMP JUMPDEST POP POP DUP1 DUP1 PUSH2 0x6E0 SWAP1 PUSH2 0x1E33 JUMP JUMPDEST SWAP2 POP POP PUSH2 0x594 JUMP JUMPDEST POP PUSH32 0x0 PUSH1 0x1 PUSH1 0x1 PUSH1 0xA0 SHL SUB AND SELFDESTRUCT JUMPDEST CALLER PUSH1 0x1 PUSH1 0x1 PUSH1 0xA0 SHL SUB PUSH32 0x0 AND EQ DUP1 PUSH2 0x7D3 JUMPI POP PUSH1 0x1 PUSH1 0x2 SWAP1 SLOAD SWAP1 PUSH2 0x100 EXP SWAP1 DIV PUSH1 0x1 PUSH1 0x1 PUSH1 0xA0 SHL SUB AND PUSH1 0x1 PUSH1 0x1 PUSH1 0xA0 SHL SUB AND PUSH4 0x3F0A0797 PUSH1 0x40 MLOAD DUP2 PUSH4 0xFFFFFFFF AND PUSH1 0xE0 SHL DUP2 MSTORE PUSH1 0x4 ADD PUSH1 0x20 PUSH1 0x40 MLOAD DUP1 DUP4 SUB DUP2 DUP7 GAS STATICCALL ISZERO DUP1 ISZERO PUSH2 0x79A JUMPI RETURNDATASIZE PUSH1 0x0 DUP1 RETURNDATACOPY RETURNDATASIZE PUSH1 0x0 REVERT JUMPDEST POP POP POP POP PUSH1 0x40 MLOAD RETURNDATASIZE PUSH1 0x1F NOT PUSH1 0x1F DUP3 ADD AND DUP3 ADD DUP1 PUSH1 0x40 MSTORE POP DUP2 ADD SWAP1 PUSH2 0x7BE SWAP2 SWAP1 PUSH2 0x1D2B JUMP JUMPDEST PUSH1 0x1 PUSH1 0x1 PUSH1 0xA0 SHL SUB AND CALLER PUSH1 0x1 PUSH1 0x1 PUSH1 0xA0 SHL SUB AND EQ JUMPDEST PUSH2 0x7DC JUMPI PUSH1 0x0 DUP1 REVERT JUMPDEST PUSH1 0x1 PUSH1 0x1 PUSH1 0xA0 SHL SUB DUP2 AND PUSH1 0x0 SWAP1 DUP2 MSTORE PUSH1 0x3 PUSH1 0x20 MSTORE PUSH1 0x40 SWAP1 KECCAK256 SLOAD PUSH1 0x2 SUB PUSH2 0x82D JUMPI PUSH1 0x1 DUP1 SLOAD PUSH2 0x100 SWAP1 DIV PUSH1 0xFF AND SWAP1 DUP1 PUSH2 0x813 DUP4 PUSH2 0x1E4D JUMP JUMPDEST SWAP2 SWAP1 PUSH2 0x100 EXP DUP2 SLOAD DUP2 PUSH1 0xFF MUL NOT AND SWAP1 DUP4 PUSH1 0xFF AND MUL OR SWAP1 SSTORE POP POP JUMPDEST PUSH1 0x1 PUSH1 0x1 PUSH1 0xA0 SHL SUB DUP2 AND PUSH1 0x0 SWAP1 DUP2 MSTORE PUSH1 0x3 PUSH1 0x20 MSTORE PUSH1 0x40 DUP2 KECCAK256 DUP2 SWAP1 SSTORE PUSH1 0x2 SLOAD SWAP1 JUMPDEST DUP2 DUP2 LT ISZERO PUSH2 0x961 JUMPI DUP3 PUSH1 0x1 PUSH1 0x1 PUSH1 0xA0 SHL SUB AND PUSH1 0x2 DUP3 DUP2 SLOAD DUP2 LT PUSH2 0x872 JUMPI PUSH2 0x872 PUSH2 0x1DC9 JUMP JUMPDEST PUSH1 0x0 SWAP2 DUP3 MSTORE PUSH1 0x20 SWAP1 SWAP2 KECCAK256 ADD SLOAD PUSH1 0x1 PUSH1 0x1 PUSH1 0xA0 SHL SUB AND SUB PUSH2 0x94F JUMPI PUSH1 0x2 PUSH2 0x899 PUSH1 0x1 DUP5 PUSH2 0x1D77 JUMP JUMPDEST DUP2 SLOAD DUP2 LT PUSH2 0x8A9 JUMPI PUSH2 0x8A9 PUSH2 0x1DC9 JUMP JUMPDEST PUSH1 0x0 SWAP2 DUP3 MSTORE PUSH1 0x20 SWAP1 SWAP2 KECCAK256 ADD SLOAD PUSH1 0x2 DUP1 SLOAD PUSH1 0x1 PUSH1 0x1 PUSH1 0xA0 SHL SUB SWAP1 SWAP3 AND SWAP2 DUP4 SWAP1 DUP2 LT PUSH2 0x8D5 JUMPI PUSH2 0x8D5 PUSH2 0x1DC9 JUMP JUMPDEST SWAP1 PUSH1 0x0 MSTORE PUSH1 0x20 PUSH1 0x0 KECCAK256 ADD PUSH1 0x0 PUSH2 0x100 EXP DUP2 SLOAD DUP2 PUSH1 0x1 PUSH1 0x1 PUSH1 0xA0 SHL SUB MUL NOT AND SWAP1 DUP4 PUSH1 0x1 PUSH1 0x1 PUSH1 0xA0 SHL SUB AND MUL OR SWAP1 SSTORE POP PUSH1 0x2 DUP1 SLOAD DUP1 PUSH2 0x914 JUMPI PUSH2 0x914 PUSH2 0x1E6A JUMP JUMPDEST PUSH1 0x0 DUP3 DUP2 MSTORE PUSH1 0x20 SWAP1 KECCAK256 DUP2 ADD PUSH1 0x0 NOT SWAP1 DUP2 ADD DUP1 SLOAD PUSH32 0xFFFFFFFFFFFFFFFFFFFFFFFF0000000000000000000000000000000000000000 AND SWAP1 SSTORE ADD SWAP1 SSTORE JUMPDEST DUP1 PUSH2 0x959 DUP2 PUSH2 0x1E33 JUMP JUMPDEST SWAP2 POP POP PUSH2 0x84D JUMP JUMPDEST POP POP POP JUMP JUMPDEST PUSH1 0x2 DUP2 DUP2 SLOAD DUP2 LT PUSH2 0x976 JUMPI PUSH1 0x0 DUP1 REVERT JUMPDEST PUSH1 0x0 SWAP2 DUP3 MSTORE PUSH1 0x20 SWAP1 SWAP2 KECCAK256 ADD SLOAD PUSH1 0x1 PUSH1 0x1 PUSH1 0xA0 SHL SUB AND SWAP1 POP DUP2 JUMP JUMPDEST PUSH1 0x0 DUP1 PUSH1 0x1 PUSH1 0x2 SWAP1 SLOAD SWAP1 PUSH2 0x100 EXP SWAP1 DIV PUSH1 0x1 PUSH1 0x1 PUSH1 0xA0 SHL SUB AND SWAP1 POP DUP1 PUSH1 0x1 PUSH1 0x1 PUSH1 0xA0 SHL SUB AND PUSH4 0x3F0A0797 PUSH1 0x40 MLOAD DUP2 PUSH4 0xFFFFFFFF AND PUSH1 0xE0 SHL DUP2 MSTORE PUSH1 0x4 ADD PUSH1 0x20 PUSH1 0x40 MLOAD DUP1 DUP4 SUB DUP2 DUP7 GAS STATICCALL ISZERO DUP1 ISZERO PUSH2 0x9E9 JUMPI RETURNDATASIZE PUSH1 0x0 DUP1 RETURNDATACOPY RETURNDATASIZE PUSH1 0x0 REVERT JUMPDEST POP POP POP POP PUSH1 0x40 MLOAD RETURNDATASIZE PUSH1 0x1F NOT PUSH1 0x1F DUP3 ADD AND DUP3 ADD DUP1 PUSH1 0x40 MSTORE POP DUP2 ADD SWAP1 PUSH2 0xA0D SWAP2 SWAP1 PUSH2 0x1D2B JUMP JUMPDEST PUSH1 0x1 PUSH1 0x1 PUSH1 0xA0 SHL SUB AND CALLER PUSH1 0x1 PUSH1 0x1 PUSH1 0xA0 SHL SUB AND EQ DUP1 PUSH2 0xA9E JUMPI POP DUP1 PUSH1 0x1 PUSH1 0x1 PUSH1 0xA0 SHL SUB AND PUSH4 0xDA8909E5 PUSH1 0x40 MLOAD DUP2 PUSH4 0xFFFFFFFF AND PUSH1 0xE0 SHL DUP2 MSTORE PUSH1 0x4 ADD PUSH1 0x20 PUSH1 0x40 MLOAD DUP1 DUP4 SUB DUP2 DUP7 GAS STATICCALL ISZERO DUP1 ISZERO PUSH2 0xA65 JUMPI RETURNDATASIZE PUSH1 0x0 DUP1 RETURNDATACOPY RETURNDATASIZE PUSH1 0x0 REVERT JUMPDEST POP POP POP POP PUSH1 0x40 MLOAD RETURNDATASIZE PUSH1 0x1F NOT PUSH1 0x1F DUP3 ADD AND DUP3 ADD DUP1 PUSH1 0x40 MSTORE POP DUP2 ADD SWAP1 PUSH2 0xA89 SWAP2 SWAP1 PUSH2 0x1D2B JUMP JUMPDEST PUSH1 0x1 PUSH1 0x1 PUSH1 0xA0 SHL SUB AND CALLER PUSH1 0x1 PUSH1 0x1 PUSH1 0xA0 SHL SUB AND EQ JUMPDEST PUSH2 0xAA7 JUMPI PUSH1 0x0 DUP1 REVERT JUMPDEST PUSH1 0x2 SLOAD PUSH1 0x0 JUMPDEST DUP2 DUP2 LT ISZERO PUSH2 0xD11 JUMPI PUSH1 0x0 PUSH1 0x2 DUP3 DUP2 SLOAD DUP2 LT PUSH2 0xACA JUMPI PUSH2 0xACA PUSH2 0x1DC9 JUMP JUMPDEST PUSH1 0x0 SWAP2 DUP3 MSTORE PUSH1 0x20 DUP1 DUP4 KECCAK256 SWAP1 SWAP2 ADD SLOAD PUSH1 0x1 PUSH1 0x1 PUSH1 0xA0 SHL SUB AND DUP1 DUP4 MSTORE PUSH1 0x3 SWAP1 SWAP2 MSTORE PUSH1 0x40 SWAP1 SWAP2 KECCAK256 SLOAD SWAP1 SWAP2 POP PUSH1 0x2 SUB PUSH2 0xCFE JUMPI PUSH1 0x0 DUP2 PUSH1 0x1 PUSH1 0x1 PUSH1 0xA0 SHL SUB AND PUSH4 0x313CE567 PUSH1 0x40 MLOAD DUP2 PUSH4 0xFFFFFFFF AND PUSH1 0xE0 SHL DUP2 MSTORE PUSH1 0x4 ADD PUSH1 0x20 PUSH1 0x40 MLOAD DUP1 DUP4 SUB DUP2 DUP7 GAS STATICCALL ISZERO DUP1 ISZERO PUSH2 0xB39 JUMPI RETURNDATASIZE PUSH1 0x0 DUP1 RETURNDATACOPY RETURNDATASIZE PUSH1 0x0 REVERT JUMPDEST POP POP POP POP PUSH1 0x40 MLOAD RETURNDATASIZE PUSH1 0x1F NOT PUSH1 0x1F DUP3 ADD AND DUP3 ADD DUP1 PUSH1 0x40 MSTORE POP DUP2 ADD SWAP1 PUSH2 0xB5D SWAP2 SWAP1 PUSH2 0x1E99 JUMP JUMPDEST SWAP1 POP PUSH1 0x12 DUP2 PUSH1 0xFF AND LT ISZERO PUSH2 0xC40 JUMPI PUSH1 0x1 PUSH1 0x1 PUSH1 0xA0 SHL SUB DUP3 AND PUSH4 0xA9059CBB DUP10 PUSH2 0xB89 PUSH1 0x12 PUSH1 0xFF DUP7 AND PUSH2 0x1D77 JUMP JUMPDEST PUSH2 0xB94 SWAP1 PUSH1 0xA PUSH2 0x1FA0 JUMP JUMPDEST PUSH1 0x1 SLOAD PUSH2 0xBA9 SWAP1 PUSH2 0x100 SWAP1 DIV PUSH1 0xFF AND DUP13 PUSH2 0x1FDB JUMP JUMPDEST PUSH2 0xBB3 SWAP2 SWAP1 PUSH2 0x1FDB JUMP JUMPDEST PUSH1 0x40 MLOAD PUSH32 0xFFFFFFFF00000000000000000000000000000000000000000000000000000000 PUSH1 0xE0 DUP6 SWAP1 SHL AND DUP2 MSTORE PUSH1 0x1 PUSH1 0x1 PUSH1 0xA0 SHL SUB SWAP1 SWAP3 AND PUSH1 0x4 DUP4 ADD MSTORE PUSH1 0x24 DUP3 ADD MSTORE PUSH1 0x44 ADD PUSH1 0x20 PUSH1 0x40 MLOAD DUP1 DUP4 SUB DUP2 PUSH1 0x0 DUP8 GAS CALL ISZERO DUP1 ISZERO PUSH2 0xC16 JUMPI RETURNDATASIZE PUSH1 0x0 DUP1 RETURNDATACOPY RETURNDATASIZE PUSH1 0x0 REVERT JUMPDEST POP POP POP POP PUSH1 0x40 MLOAD RETURNDATASIZE PUSH1 0x1F NOT PUSH1 0x1F DUP3 ADD AND DUP3 ADD DUP1 PUSH1 0x40 MSTORE POP DUP2 ADD SWAP1 PUSH2 0xC3A SWAP2 SWAP1 PUSH2 0x1E11 JUMP JUMPDEST POP PUSH2 0xCFC JUMP JUMPDEST DUP1 PUSH1 0xFF AND PUSH1 0x12 SUB PUSH2 0xCFC JUMPI PUSH1 0x1 SLOAD PUSH1 0x1 PUSH1 0x1 PUSH1 0xA0 SHL SUB DUP4 AND SWAP1 PUSH4 0xA9059CBB SWAP1 DUP11 SWAP1 PUSH2 0xC73 SWAP1 PUSH2 0x100 SWAP1 DIV PUSH1 0xFF AND DUP12 PUSH2 0x1FDB JUMP JUMPDEST PUSH1 0x40 MLOAD PUSH32 0xFFFFFFFF00000000000000000000000000000000000000000000000000000000 PUSH1 0xE0 DUP6 SWAP1 SHL AND DUP2 MSTORE PUSH1 0x1 PUSH1 0x1 PUSH1 0xA0 SHL SUB SWAP1 SWAP3 AND PUSH1 0x4 DUP4 ADD MSTORE PUSH1 0x24 DUP3 ADD MSTORE PUSH1 0x44 ADD PUSH1 0x20 PUSH1 0x40 MLOAD DUP1 DUP4 SUB DUP2 PUSH1 0x0 DUP8 GAS CALL ISZERO DUP1 ISZERO PUSH2 0xCD6 JUMPI RETURNDATASIZE PUSH1 0x0 DUP1 RETURNDATACOPY RETURNDATASIZE PUSH1 0x0 REVERT JUMPDEST POP POP POP POP PUSH1 0x40 MLOAD RETURNDATASIZE PUSH1 0x1F NOT PUSH1 0x1F DUP3 ADD AND DUP3 ADD DUP1 PUSH1 0x40 MSTORE POP DUP2 ADD SWAP1 PUSH2 0xCFA SWAP2 SWAP1 PUSH2 0x1E11 JUMP JUMPDEST POP JUMPDEST POP JUMPDEST POP DUP1 PUSH2 0xD09 DUP2 PUSH2 0x1E33 JUMP JUMPDEST SWAP2 POP POP PUSH2 0xAAD JUMP JUMPDEST POP PUSH1 0x1 SWAP3 POP POP POP JUMPDEST SWAP3 SWAP2 POP POP JUMP JUMPDEST PUSH1 0x1 SLOAD PUSH3 0x10000 SWAP1 DIV PUSH1 0x1 PUSH1 0x1 PUSH1 0xA0 SHL SUB AND CALLER EQ PUSH2 0xD3C JUMPI PUSH1 0x0 DUP1 REVERT JUMPDEST PUSH1 0x1 DUP1 SLOAD PUSH1 0x1 PUSH1 0x1 PUSH1 0xA0 SHL SUB SWAP1 SWAP3 AND PUSH3 0x10000 MUL PUSH32 0xFFFFFFFFFFFFFFFFFFFF0000000000000000000000000000000000000000FFFF SWAP1 SWAP3 AND SWAP2 SWAP1 SWAP2 OR SWAP1 SSTORE JUMP JUMPDEST CALLER PUSH1 0x1 PUSH1 0x1 PUSH1 0xA0 SHL SUB PUSH32 0x0 AND EQ PUSH2 0xDB1 JUMPI PUSH1 0x0 DUP1 REVERT JUMPDEST DUP1 PUSH1 0x0 SUB PUSH2 0xDDA JUMPI PUSH1 0x1 PUSH1 0x1 PUSH1 0xA0 SHL SUB DUP3 AND PUSH1 0x0 SWAP1 DUP2 MSTORE PUSH1 0x3 PUSH1 0x20 MSTORE PUSH1 0x40 SWAP1 KECCAK256 PUSH1 0x1 SWAP1 SSTORE PUSH2 0xE2F JUMP JUMPDEST DUP1 PUSH1 0x1 SUB PUSH2 0xE2F JUMPI PUSH1 0x1 PUSH1 0x1 PUSH1 0xA0 SHL SUB DUP3 AND PUSH1 0x0 SWAP1 DUP2 MSTORE PUSH1 0x3 PUSH1 0x20 MSTORE PUSH1 0x40 SWAP1 KECCAK256 PUSH1 0x2 SWAP1 SSTORE PUSH1 0x1 DUP1 SLOAD PUSH2 0x100 SWAP1 DIV PUSH1 0xFF AND SWAP1 DUP1 PUSH2 0xE15 DUP4 PUSH2 0x1FEF JUMP JUMPDEST SWAP2 SWAP1 PUSH2 0x100 EXP DUP2 SLOAD DUP2 PUSH1 0xFF MUL NOT AND SWAP1 DUP4 PUSH1 0xFF AND MUL OR SWAP1 SSTORE POP POP JUMPDEST POP PUSH1 0x2 DUP1 SLOAD PUSH1 0x1 DUP2 ADD DUP3 SSTORE PUSH1 0x0 SWAP2 SWAP1 SWAP2 MSTORE PUSH32 0x405787FA12A823E0F2B7631CC41B3BA8828B3321CA811111FA75CD3AA3BB5ACE ADD DUP1 SLOAD PUSH32 0xFFFFFFFFFFFFFFFFFFFFFFFF0000000000000000000000000000000000000000 AND PUSH1 0x1 PUSH1 0x1 PUSH1 0xA0 SHL SUB SWAP3 SWAP1 SWAP3 AND SWAP2 SWAP1 SWAP2 OR SWAP1 SSTORE JUMP JUMPDEST CALLER PUSH1 0x1 PUSH1 0x1 PUSH1 0xA0 SHL SUB PUSH32 0x0 AND EQ PUSH2 0xECF JUMPI PUSH1 0x0 DUP1 REVERT JUMPDEST PUSH1 0x1 SLOAD PUSH1 0xFF AND ISZERO PUSH2 0xEDF JUMPI PUSH1 0x0 DUP1 REVERT JUMPDEST PUSH1 0x1 DUP1 SLOAD PUSH32 0xFFFFFFFFFFFFFFFFFFFF0000000000000000000000000000000000000000FF00 AND PUSH3 0x10000 PUSH1 0x1 PUSH1 0x1 PUSH1 0xA0 SHL SUB SWAP4 SWAP1 SWAP4 AND SWAP3 SWAP1 SWAP3 MUL PUSH32 0xFFFFFFFFFFFFFFFFFFFFFFFFFFFFFFFFFFFFFFFFFFFFFFFFFFFFFFFFFFFFFF00 AND SWAP2 SWAP1 SWAP2 OR DUP2 OR SWAP1 SSTORE JUMP JUMPDEST PUSH1 0x0 DUP1 PUSH1 0x0 PUSH1 0x1 PUSH1 0x2 SWAP1 SLOAD SWAP1 PUSH2 0x100 EXP SWAP1 DIV PUSH1 0x1 PUSH1 0x1 PUSH1 0xA0 SHL SUB AND PUSH1 0x1 PUSH1 0x1 PUSH1 0xA0 SHL SUB AND PUSH4 0xDA8909E5 PUSH1 0x40 MLOAD DUP2 PUSH4 0xFFFFFFFF AND PUSH1 0xE0 SHL DUP2 MSTORE PUSH1 0x4 ADD PUSH1 0x20 PUSH1 0x40 MLOAD DUP1 DUP4 SUB DUP2 DUP7 GAS STATICCALL ISZERO DUP1 ISZERO PUSH2 0xF9D JUMPI RETURNDATASIZE PUSH1 0x0 DUP1 RETURNDATACOPY RETURNDATASIZE PUSH1 0x0 REVERT JUMPDEST POP POP POP POP PUSH1 0x40 MLOAD RETURNDATASIZE PUSH1 0x1F NOT PUSH1 0x1F DUP3 ADD AND DUP3 ADD DUP1 PUSH1 0x40 MSTORE POP DUP2 ADD SWAP1 PUSH2 0xFC1 SWAP2 SWAP1 PUSH2 0x1D2B JUMP JUMPDEST PUSH1 0x1 PUSH1 0x1 PUSH1 0xA0 SHL SUB AND PUSH4 0xD0B06F5D PUSH1 0x40 MLOAD DUP2 PUSH4 0xFFFFFFFF AND PUSH1 0xE0 SHL DUP2 MSTORE PUSH1 0x4 ADD PUSH1 0x20 PUSH1 0x40 MLOAD DUP1 DUP4 SUB DUP2 DUP7 GAS STATICCALL ISZERO DUP1 ISZERO PUSH2 0xFFE JUMPI RETURNDATASIZE PUSH1 0x0 DUP1 RETURNDATACOPY RETURNDATASIZE PUSH1 0x0 REVERT JUMPDEST POP POP POP POP PUSH1 0x40 MLOAD RETURNDATASIZE PUSH1 0x1F NOT PUSH1 0x1F DUP3 ADD AND DUP3 ADD DUP1 PUSH1 0x40 MSTORE POP DUP2 ADD SWAP1 PUSH2 0x1022 SWAP2 SWAP1 PUSH2 0x1DF8 JUMP JUMPDEST SWAP1 POP PUSH1 0x0 PUSH1 0x1 PUSH1 0x2 SWAP1 SLOAD SWAP1 PUSH2 0x100 EXP SWAP1 DIV PUSH1 0x1 PUSH1 0x1 PUSH1 0xA0 SHL SUB AND PUSH1 0x1 PUSH1 0x1 PUSH1 0xA0 SHL SUB AND PUSH4 0xDA8909E5 PUSH1 0x40 MLOAD DUP2 PUSH4 0xFFFFFFFF AND PUSH1 0xE0 SHL DUP2 MSTORE PUSH1 0x4 ADD PUSH1 0x20 PUSH1 0x40 MLOAD DUP1 DUP4 SUB DUP2 DUP7 GAS STATICCALL ISZERO DUP1 ISZERO PUSH2 0x1079 JUMPI RETURNDATASIZE PUSH1 0x0 DUP1 RETURNDATACOPY RETURNDATASIZE PUSH1 0x0 REVERT JUMPDEST POP POP POP POP PUSH1 0x40 MLOAD RETURNDATASIZE PUSH1 0x1F NOT PUSH1 0x1F DUP3 ADD AND DUP3 ADD DUP1 PUSH1 0x40 MSTORE POP DUP2 ADD SWAP1 PUSH2 0x109D SWAP2 SWAP1 PUSH2 0x1D2B JUMP JUMPDEST PUSH1 0x1 PUSH1 0x1 PUSH1 0xA0 SHL SUB AND PUSH4 0x7F8483A4 PUSH1 0x40 MLOAD DUP2 PUSH4 0xFFFFFFFF AND PUSH1 0xE0 SHL DUP2 MSTORE PUSH1 0x4 ADD PUSH1 0x20 PUSH1 0x40 MLOAD DUP1 DUP4 SUB DUP2 DUP7 GAS STATICCALL ISZERO DUP1 ISZERO PUSH2 0x10DA JUMPI RETURNDATASIZE PUSH1 0x0 DUP1 RETURNDATACOPY RETURNDATASIZE PUSH1 0x0 REVERT JUMPDEST POP POP POP POP PUSH1 0x40 MLOAD RETURNDATASIZE PUSH1 0x1F NOT PUSH1 0x1F DUP3 ADD AND DUP3 ADD DUP1 PUSH1 0x40 MSTORE POP DUP2 ADD SWAP1 PUSH2 0x10FE SWAP2 SWAP1 PUSH2 0x1DF8 JUMP JUMPDEST SWAP1 POP DUP1 PUSH2 0x1109 PUSH2 0x111D JUMP JUMPDEST PUSH2 0x1113 SWAP2 SWAP1 PUSH2 0x1D77 JUMP JUMPDEST SWAP5 SWAP2 SWAP4 POP SWAP1 SWAP2 POP POP JUMP JUMPDEST PUSH1 0x2 SLOAD PUSH1 0x0 SWAP1 DUP2 JUMPDEST DUP2 DUP2 LT ISZERO PUSH2 0x1299 JUMPI PUSH1 0x0 PUSH1 0x2 DUP3 DUP2 SLOAD DUP2 LT PUSH2 0x1142 JUMPI PUSH2 0x1142 PUSH2 0x1DC9 JUMP JUMPDEST PUSH1 0x0 SWAP2 DUP3 MSTORE PUSH1 0x20 DUP3 KECCAK256 ADD SLOAD PUSH1 0x40 MLOAD PUSH32 0x70A0823100000000000000000000000000000000000000000000000000000000 DUP2 MSTORE ADDRESS PUSH1 0x4 DUP3 ADD MSTORE PUSH1 0x1 PUSH1 0x1 PUSH1 0xA0 SHL SUB SWAP1 SWAP2 AND SWAP3 POP DUP3 SWAP1 PUSH4 0x70A08231 SWAP1 PUSH1 0x24 ADD PUSH1 0x20 PUSH1 0x40 MLOAD DUP1 DUP4 SUB DUP2 DUP7 GAS STATICCALL ISZERO DUP1 ISZERO PUSH2 0x11AE JUMPI RETURNDATASIZE PUSH1 0x0 DUP1 RETURNDATACOPY RETURNDATASIZE PUSH1 0x0 REVERT JUMPDEST POP POP POP POP PUSH1 0x40 MLOAD RETURNDATASIZE PUSH1 0x1F NOT PUSH1 0x1F DUP3 ADD AND DUP3 ADD DUP1 PUSH1 0x40 MSTORE POP DUP2 ADD SWAP1 PUSH2 0x11D2 SWAP2 SWAP1 PUSH2 0x1DF8 JUMP JUMPDEST PUSH1 0x1 PUSH1 0x1 PUSH1 0xA0 SHL SUB DUP4 AND PUSH1 0x0 SWAP1 DUP2 MSTORE PUSH1 0x3 PUSH1 0x20 MSTORE PUSH1 0x40 SWAP1 KECCAK256 SLOAD SWAP1 SWAP2 POP PUSH1 0x1 DUP2 SWAP1 SUB PUSH2 0x126E JUMPI PUSH1 0x1 PUSH1 0x1 PUSH1 0xA0 SHL SUB DUP1 DUP5 AND PUSH1 0x0 SWAP1 DUP2 MSTORE PUSH1 0x4 PUSH1 0x20 MSTORE PUSH1 0x40 DUP2 KECCAK256 SLOAD SWAP1 SWAP2 DUP3 SWAP2 PUSH2 0x1220 SWAP2 AND DUP3 PUSH2 0x129E JUMP JUMPDEST POP PUSH1 0x1 PUSH1 0x1 PUSH1 0xA0 SHL SUB DUP1 DUP8 AND PUSH1 0x0 SWAP1 DUP2 MSTORE PUSH1 0x5 PUSH1 0x20 MSTORE PUSH1 0x40 SWAP1 KECCAK256 SLOAD SWAP2 SWAP3 POP PUSH2 0x124E SWAP2 DUP4 SWAP2 DUP8 SWAP2 DUP10 SWAP2 AND PUSH2 0x152B JUMP JUMPDEST SWAP2 POP PUSH2 0x125C SWAP1 POP DUP2 DUP5 PUSH2 0x200E JUMP JUMPDEST PUSH2 0x1266 SWAP1 DUP9 PUSH2 0x202D JUMP JUMPDEST SWAP7 POP POP PUSH2 0x1283 JUMP JUMPDEST DUP1 PUSH1 0x2 SUB PUSH2 0x1283 JUMPI PUSH2 0x1280 DUP3 DUP8 PUSH2 0x202D JUMP JUMPDEST SWAP6 POP JUMPDEST POP POP POP DUP1 DUP1 PUSH2 0x1291 SWAP1 PUSH2 0x1E33 JUMP JUMPDEST SWAP2 POP POP PUSH2 0x1125 JUMP JUMPDEST POP POP SWAP1 JUMP JUMPDEST PUSH1 0x0 DUP1 DUP3 PUSH4 0xFFFFFFFF AND PUSH1 0x0 SUB PUSH2 0x1316 JUMPI PUSH1 0x40 MLOAD PUSH32 0x8C379A000000000000000000000000000000000000000000000000000000000 DUP2 MSTORE PUSH1 0x20 PUSH1 0x4 DUP3 ADD MSTORE PUSH1 0x2 PUSH1 0x24 DUP3 ADD MSTORE PUSH32 0x4250000000000000000000000000000000000000000000000000000000000000 PUSH1 0x44 DUP3 ADD MSTORE PUSH1 0x64 ADD JUMPDEST PUSH1 0x40 MLOAD DUP1 SWAP2 SUB SWAP1 REVERT JUMPDEST PUSH1 0x40 DUP1 MLOAD PUSH1 0x2 DUP1 DUP3 MSTORE PUSH1 0x60 DUP3 ADD DUP4 MSTORE PUSH1 0x0 SWAP3 PUSH1 0x20 DUP4 ADD SWAP1 DUP1 CALLDATASIZE DUP4 CALLDATACOPY ADD SWAP1 POP POP SWAP1 POP DUP4 DUP2 PUSH1 0x0 DUP2 MLOAD DUP2 LT PUSH2 0x134B JUMPI PUSH2 0x134B PUSH2 0x1DC9 JUMP JUMPDEST PUSH1 0x20 MUL PUSH1 0x20 ADD ADD SWAP1 PUSH4 0xFFFFFFFF AND SWAP1 DUP2 PUSH4 0xFFFFFFFF AND DUP2 MSTORE POP POP PUSH1 0x0 DUP2 PUSH1 0x1 DUP2 MLOAD DUP2 LT PUSH2 0x137A JUMPI PUSH2 0x137A PUSH2 0x1DC9 JUMP JUMPDEST PUSH1 0x20 MUL PUSH1 0x20 ADD ADD SWAP1 PUSH4 0xFFFFFFFF AND SWAP1 DUP2 PUSH4 0xFFFFFFFF AND DUP2 MSTORE POP POP PUSH1 0x0 DUP1 DUP7 PUSH1 0x1 PUSH1 0x1 PUSH1 0xA0 SHL SUB AND PUSH4 0x883BDBFD DUP5 PUSH1 0x40 MLOAD DUP3 PUSH4 0xFFFFFFFF AND PUSH1 0xE0 SHL DUP2 MSTORE PUSH1 0x4 ADD PUSH2 0x13C3 SWAP2 SWAP1 PUSH2 0x2074 JUMP JUMPDEST PUSH1 0x0 PUSH1 0x40 MLOAD DUP1 DUP4 SUB DUP2 DUP7 GAS STATICCALL ISZERO DUP1 ISZERO PUSH2 0x13E0 JUMPI RETURNDATASIZE PUSH1 0x0 DUP1 RETURNDATACOPY RETURNDATASIZE PUSH1 0x0 REVERT JUMPDEST POP POP POP POP PUSH1 0x40 MLOAD RETURNDATASIZE PUSH1 0x0 DUP3 RETURNDATACOPY PUSH1 0x1F RETURNDATASIZE SWAP1 DUP2 ADD PUSH1 0x1F NOT AND DUP3 ADD PUSH1 0x40 MSTORE PUSH2 0x1408 SWAP2 SWAP1 DUP2 ADD SWAP1 PUSH2 0x2187 JUMP JUMPDEST SWAP2 POP SWAP2 POP PUSH1 0x0 DUP3 PUSH1 0x0 DUP2 MLOAD DUP2 LT PUSH2 0x1421 JUMPI PUSH2 0x1421 PUSH2 0x1DC9 JUMP JUMPDEST PUSH1 0x20 MUL PUSH1 0x20 ADD ADD MLOAD DUP4 PUSH1 0x1 DUP2 MLOAD DUP2 LT PUSH2 0x143C JUMPI PUSH2 0x143C PUSH2 0x1DC9 JUMP JUMPDEST PUSH1 0x20 MUL PUSH1 0x20 ADD ADD MLOAD PUSH2 0x144E SWAP2 SWAP1 PUSH2 0x2253 JUMP JUMPDEST SWAP1 POP PUSH1 0x0 DUP3 PUSH1 0x0 DUP2 MLOAD DUP2 LT PUSH2 0x1465 JUMPI PUSH2 0x1465 PUSH2 0x1DC9 JUMP JUMPDEST PUSH1 0x20 MUL PUSH1 0x20 ADD ADD MLOAD DUP4 PUSH1 0x1 DUP2 MLOAD DUP2 LT PUSH2 0x1480 JUMPI PUSH2 0x1480 PUSH2 0x1DC9 JUMP JUMPDEST PUSH1 0x20 MUL PUSH1 0x20 ADD ADD MLOAD PUSH2 0x1492 SWAP2 SWAP1 PUSH2 0x22BB JUMP JUMPDEST SWAP1 POP PUSH2 0x14A2 PUSH1 0x3 DUP10 SWAP1 SIGNEXTEND DUP4 PUSH2 0x22E3 JUMP JUMPDEST SWAP7 POP PUSH1 0x0 DUP3 PUSH1 0x6 SIGNEXTEND SLT DUP1 ISZERO PUSH2 0x14C6 JUMPI POP PUSH2 0x14C0 PUSH1 0x3 DUP10 SWAP1 SIGNEXTEND DUP4 PUSH2 0x2339 JUMP JUMPDEST PUSH1 0x6 SIGNEXTEND ISZERO ISZERO JUMPDEST ISZERO PUSH2 0x14D9 JUMPI DUP7 PUSH2 0x14D5 DUP2 PUSH2 0x235B JUMP JUMPDEST SWAP8 POP POP JUMPDEST PUSH1 0x0 PUSH2 0x14F2 PUSH1 0x1 PUSH1 0x1 PUSH1 0xA0 SHL SUB PUSH4 0xFFFFFFFF DUP12 AND PUSH2 0x2390 JUMP JUMPDEST SWAP1 POP PUSH2 0x151C PUSH24 0xFFFFFFFFFFFFFFFFFFFFFFFFFFFFFFFFFFFFFFFF00000000 PUSH1 0x20 DUP5 SWAP1 SHL AND DUP3 PUSH2 0x23D0 JUMP JUMPDEST SWAP7 POP POP POP POP POP POP POP SWAP3 POP SWAP3 SWAP1 POP JUMP JUMPDEST PUSH1 0x0 DUP1 PUSH2 0x1537 DUP7 PUSH2 0x16AA JUMP JUMPDEST SWAP1 POP PUSH16 0xFFFFFFFFFFFFFFFFFFFFFFFFFFFFFFFF PUSH1 0x1 PUSH1 0x1 PUSH1 0xA0 SHL SUB DUP3 AND GT PUSH2 0x1602 JUMPI PUSH1 0x0 PUSH2 0x156E PUSH1 0x1 PUSH1 0x1 PUSH1 0xA0 SHL SUB DUP4 AND DUP1 PUSH2 0x200E JUMP JUMPDEST SWAP1 POP DUP4 PUSH1 0x1 PUSH1 0x1 PUSH1 0xA0 SHL SUB AND DUP6 PUSH1 0x1 PUSH1 0x1 PUSH1 0xA0 SHL SUB AND LT PUSH2 0x15C4 JUMPI PUSH2 0x15BF PUSH25 0x1000000000000000000000000000000000000000000000000 DUP8 PUSH16 0xFFFFFFFFFFFFFFFFFFFFFFFFFFFFFFFF AND DUP4 PUSH2 0x1B2B JUMP JUMPDEST PUSH2 0x15FA JUMP JUMPDEST PUSH2 0x15FA DUP2 DUP8 PUSH16 0xFFFFFFFFFFFFFFFFFFFFFFFFFFFFFFFF AND PUSH25 0x1000000000000000000000000000000000000000000000000 PUSH2 0x1B2B JUMP JUMPDEST SWAP3 POP POP PUSH2 0x16A1 JUMP JUMPDEST PUSH1 0x0 PUSH2 0x1621 PUSH1 0x1 PUSH1 0x1 PUSH1 0xA0 SHL SUB DUP4 AND DUP1 PUSH9 0x10000000000000000 PUSH2 0x1B2B JUMP JUMPDEST SWAP1 POP DUP4 PUSH1 0x1 PUSH1 0x1 PUSH1 0xA0 SHL SUB AND DUP6 PUSH1 0x1 PUSH1 0x1 PUSH1 0xA0 SHL SUB AND LT PUSH2 0x166F JUMPI PUSH2 0x166A PUSH17 0x100000000000000000000000000000000 DUP8 PUSH16 0xFFFFFFFFFFFFFFFFFFFFFFFFFFFFFFFF AND DUP4 PUSH2 0x1B2B JUMP JUMPDEST PUSH2 0x169D JUMP JUMPDEST PUSH2 0x169D DUP2 DUP8 PUSH16 0xFFFFFFFFFFFFFFFFFFFFFFFFFFFFFFFF AND PUSH17 0x100000000000000000000000000000000 PUSH2 0x1B2B JUMP JUMPDEST SWAP3 POP POP JUMPDEST POP SWAP5 SWAP4 POP POP POP POP JUMP JUMPDEST PUSH1 0x0 DUP1 PUSH1 0x0 DUP4 PUSH1 0x2 SIGNEXTEND SLT PUSH2 0x16C1 JUMPI DUP3 PUSH1 0x2 SIGNEXTEND PUSH2 0x16CE JUMP JUMPDEST DUP3 PUSH1 0x2 SIGNEXTEND PUSH2 0x16CE SWAP1 PUSH2 0x2407 JUMP JUMPDEST SWAP1 POP PUSH2 0x16F9 PUSH32 0xFFFFFFFFFFFFFFFFFFFFFFFFFFFFFFFFFFFFFFFFFFFFFFFFFFFFFFFFFFF27618 PUSH2 0x243F JUMP JUMPDEST PUSH3 0xFFFFFF AND DUP2 GT ISZERO PUSH2 0x1767 JUMPI PUSH1 0x40 MLOAD PUSH32 0x8C379A000000000000000000000000000000000000000000000000000000000 DUP2 MSTORE PUSH1 0x20 PUSH1 0x4 DUP3 ADD MSTORE PUSH1 0x1 PUSH1 0x24 DUP3 ADD MSTORE PUSH32 0x5400000000000000000000000000000000000000000000000000000000000000 PUSH1 0x44 DUP3 ADD MSTORE PUSH1 0x64 ADD PUSH2 0x130D JUMP JUMPDEST PUSH1 0x0 DUP2 PUSH1 0x1 AND PUSH1 0x0 SUB PUSH2 0x178B JUMPI PUSH17 0x100000000000000000000000000000000 PUSH2 0x179D JUMP JUMPDEST PUSH16 0xFFFCB933BD6FAD37AA2D162D1A594001 JUMPDEST PUSH17 0xFFFFFFFFFFFFFFFFFFFFFFFFFFFFFFFFFF AND SWAP1 POP PUSH1 0x2 DUP3 AND ISZERO PUSH2 0x17DC JUMPI PUSH1 0x80 PUSH2 0x17D7 DUP3 PUSH16 0xFFF97272373D413259A46990580E213A PUSH2 0x200E JUMP JUMPDEST SWAP1 SHR SWAP1 POP JUMPDEST PUSH1 0x4 DUP3 AND ISZERO PUSH2 0x1806 JUMPI PUSH1 0x80 PUSH2 0x1801 DUP3 PUSH16 0xFFF2E50F5F656932EF12357CF3C7FDCC PUSH2 0x200E JUMP JUMPDEST SWAP1 SHR SWAP1 POP JUMPDEST PUSH1 0x8 DUP3 AND ISZERO PUSH2 0x1830 JUMPI PUSH1 0x80 PUSH2 0x182B DUP3 PUSH16 0xFFE5CACA7E10E4E61C3624EAA0941CD0 PUSH2 0x200E JUMP JUMPDEST SWAP1 SHR SWAP1 POP JUMPDEST PUSH1 0x10 DUP3 AND ISZERO PUSH2 0x185A JUMPI PUSH1 0x80 PUSH2 0x1855 DUP3 PUSH16 0xFFCB9843D60F6159C9DB58835C926644 PUSH2 0x200E JUMP JUMPDEST SWAP1 SHR SWAP1 POP JUMPDEST PUSH1 0x20 DUP3 AND ISZERO PUSH2 0x1884 JUMPI PUSH1 0x80 PUSH2 0x187F DUP3 PUSH16 0xFF973B41FA98C081472E6896DFB254C0 PUSH2 0x200E JUMP JUMPDEST SWAP1 SHR SWAP1 POP JUMPDEST PUSH1 0x40 DUP3 AND ISZERO PUSH2 0x18AE JUMPI PUSH1 0x80 PUSH2 0x18A9 DUP3 PUSH16 0xFF2EA16466C96A3843EC78B326B52861 PUSH2 0x200E JUMP JUMPDEST SWAP1 SHR SWAP1 POP JUMPDEST PUSH1 0x80 DUP3 AND ISZERO PUSH2 0x18D8 JUMPI PUSH1 0x80 PUSH2 0x18D3 DUP3 PUSH16 0xFE5DEE046A99A2A811C461F1969C3053 PUSH2 0x200E JUMP JUMPDEST SWAP1 SHR SWAP1 POP JUMPDEST PUSH2 0x100 DUP3 AND ISZERO PUSH2 0x1903 JUMPI PUSH1 0x80 PUSH2 0x18FE DUP3 PUSH16 0xFCBE86C7900A88AEDCFFC83B479AA3A4 PUSH2 0x200E JUMP JUMPDEST SWAP1 SHR SWAP1 POP JUMPDEST PUSH2 0x200 DUP3 AND ISZERO PUSH2 0x192E JUMPI PUSH1 0x80 PUSH2 0x1929 DUP3 PUSH16 0xF987A7253AC413176F2B074CF7815E54 PUSH2 0x200E JUMP JUMPDEST SWAP1 SHR SWAP1 POP JUMPDEST PUSH2 0x400 DUP3 AND ISZERO PUSH2 0x1959 JUMPI PUSH1 0x80 PUSH2 0x1954 DUP3 PUSH16 0xF3392B0822B70005940C7A398E4B70F3 PUSH2 0x200E JUMP JUMPDEST SWAP1 SHR SWAP1 POP JUMPDEST PUSH2 0x800 DUP3 AND ISZERO PUSH2 0x1984 JUMPI PUSH1 0x80 PUSH2 0x197F DUP3 PUSH16 0xE7159475A2C29B7443B29C7FA6E889D9 PUSH2 0x200E JUMP JUMPDEST SWAP1 SHR SWAP1 POP JUMPDEST PUSH2 0x1000 DUP3 AND ISZERO PUSH2 0x19AF JUMPI PUSH1 0x80 PUSH2 0x19AA DUP3 PUSH16 0xD097F3BDFD2022B8845AD8F792AA5825 PUSH2 0x200E JUMP JUMPDEST SWAP1 SHR SWAP1 POP JUMPDEST PUSH2 0x2000 DUP3 AND ISZERO PUSH2 0x19DA JUMPI PUSH1 0x80 PUSH2 0x19D5 DUP3 PUSH16 0xA9F746462D870FDF8A65DC1F90E061E5 PUSH2 0x200E JUMP JUMPDEST SWAP1 SHR SWAP1 POP JUMPDEST PUSH2 0x4000 DUP3 AND ISZERO PUSH2 0x1A05 JUMPI PUSH1 0x80 PUSH2 0x1A00 DUP3 PUSH16 0x70D869A156D2A1B890BB3DF62BAF32F7 PUSH2 0x200E JUMP JUMPDEST SWAP1 SHR SWAP1 POP JUMPDEST PUSH2 0x8000 DUP3 AND ISZERO PUSH2 0x1A30 JUMPI PUSH1 0x80 PUSH2 0x1A2B DUP3 PUSH16 0x31BE135F97D08FD981231505542FCFA6 PUSH2 0x200E JUMP JUMPDEST SWAP1 SHR SWAP1 POP JUMPDEST PUSH3 0x10000 DUP3 AND ISZERO PUSH2 0x1A5C JUMPI PUSH1 0x80 PUSH2 0x1A57 DUP3 PUSH16 0x9AA508B5B7A84E1C677DE54F3E99BC9 PUSH2 0x200E JUMP JUMPDEST SWAP1 SHR SWAP1 POP JUMPDEST PUSH3 0x20000 DUP3 AND ISZERO PUSH2 0x1A87 JUMPI PUSH1 0x80 PUSH2 0x1A82 DUP3 PUSH15 0x5D6AF8DEDB81196699C329225EE604 PUSH2 0x200E JUMP JUMPDEST SWAP1 SHR SWAP1 POP JUMPDEST PUSH3 0x40000 DUP3 AND ISZERO PUSH2 0x1AB1 JUMPI PUSH1 0x80 PUSH2 0x1AAC DUP3 PUSH14 0x2216E584F5FA1EA926041BEDFE98 PUSH2 0x200E JUMP JUMPDEST SWAP1 SHR SWAP1 POP JUMPDEST PUSH3 0x80000 DUP3 AND ISZERO PUSH2 0x1AD9 JUMPI PUSH1 0x80 PUSH2 0x1AD4 DUP3 PUSH12 0x48A170391F7DC42444E8FA2 PUSH2 0x200E JUMP JUMPDEST SWAP1 SHR SWAP1 POP JUMPDEST PUSH1 0x0 DUP5 PUSH1 0x2 SIGNEXTEND SGT ISZERO PUSH2 0x1AF4 JUMPI PUSH2 0x1AF1 DUP2 PUSH1 0x0 NOT PUSH2 0x1FDB JUMP JUMPDEST SWAP1 POP JUMPDEST PUSH2 0x1B03 PUSH5 0x100000000 DUP3 PUSH2 0x247D JUMP JUMPDEST ISZERO PUSH2 0x1B0F JUMPI PUSH1 0x1 PUSH2 0x1B12 JUMP JUMPDEST PUSH1 0x0 JUMPDEST PUSH2 0x1B23 SWAP1 PUSH1 0xFF AND PUSH1 0x20 DUP4 SWAP1 SHR PUSH2 0x202D JUMP JUMPDEST SWAP5 SWAP4 POP POP POP POP JUMP JUMPDEST PUSH1 0x0 DUP1 DUP1 PUSH1 0x0 NOT DUP6 DUP8 MULMOD DUP6 DUP8 MUL SWAP3 POP DUP3 DUP2 LT DUP4 DUP3 SUB SUB SWAP2 POP POP DUP1 PUSH1 0x0 SUB PUSH2 0x1B64 JUMPI PUSH1 0x0 DUP5 GT PUSH2 0x1B59 JUMPI PUSH1 0x0 DUP1 REVERT JUMPDEST POP DUP3 SWAP1 DIV SWAP1 POP PUSH2 0x1CAA JUMP JUMPDEST DUP1 DUP5 GT PUSH2 0x1B70 JUMPI PUSH1 0x0 DUP1 REVERT JUMPDEST PUSH1 0x0 DUP5 DUP7 DUP9 MULMOD DUP1 DUP5 SUB SWAP4 DUP2 GT SWAP1 SWAP3 SUB SWAP2 SWAP1 POP PUSH1 0x0 DUP6 PUSH2 0x1B91 DUP2 PUSH1 0x0 NOT PUSH2 0x1D77 JUMP JUMPDEST PUSH2 0x1B9C SWAP1 PUSH1 0x1 PUSH2 0x202D JUMP JUMPDEST AND SWAP6 DUP7 SWAP1 DIV SWAP6 SWAP4 DUP5 SWAP1 DIV SWAP4 PUSH1 0x0 DUP2 SWAP1 SUB DIV PUSH1 0x1 ADD SWAP1 POP PUSH2 0x1BBC DUP2 DUP5 PUSH2 0x200E JUMP JUMPDEST SWAP1 SWAP4 OR SWAP3 PUSH1 0x0 PUSH2 0x1BCD DUP8 PUSH1 0x3 PUSH2 0x200E JUMP JUMPDEST PUSH1 0x2 XOR SWAP1 POP PUSH2 0x1BDC DUP2 DUP9 PUSH2 0x200E JUMP JUMPDEST PUSH2 0x1BE7 SWAP1 PUSH1 0x2 PUSH2 0x1D77 JUMP JUMPDEST PUSH2 0x1BF1 SWAP1 DUP3 PUSH2 0x200E JUMP JUMPDEST SWAP1 POP PUSH2 0x1BFD DUP2 DUP9 PUSH2 0x200E JUMP JUMPDEST PUSH2 0x1C08 SWAP1 PUSH1 0x2 PUSH2 0x1D77 JUMP JUMPDEST PUSH2 0x1C12 SWAP1 DUP3 PUSH2 0x200E JUMP JUMPDEST SWAP1 POP PUSH2 0x1C1E DUP2 DUP9 PUSH2 0x200E JUMP JUMPDEST PUSH2 0x1C29 SWAP1 PUSH1 0x2 PUSH2 0x1D77 JUMP JUMPDEST PUSH2 0x1C33 SWAP1 DUP3 PUSH2 0x200E JUMP JUMPDEST SWAP1 POP PUSH2 0x1C3F DUP2 DUP9 PUSH2 0x200E JUMP JUMPDEST PUSH2 0x1C4A SWAP1 PUSH1 0x2 PUSH2 0x1D77 JUMP JUMPDEST PUSH2 0x1C54 SWAP1 DUP3 PUSH2 0x200E JUMP JUMPDEST SWAP1 POP PUSH2 0x1C60 DUP2 DUP9 PUSH2 0x200E JUMP JUMPDEST PUSH2 0x1C6B SWAP1 PUSH1 0x2 PUSH2 0x1D77 JUMP JUMPDEST PUSH2 0x1C75 SWAP1 DUP3 PUSH2 0x200E JUMP JUMPDEST SWAP1 POP PUSH2 0x1C81 DUP2 DUP9 PUSH2 0x200E JUMP JUMPDEST PUSH2 0x1C8C SWAP1 PUSH1 0x2 PUSH2 0x1D77 JUMP JUMPDEST PUSH2 0x1C96 SWAP1 DUP3 PUSH2 0x200E JUMP JUMPDEST SWAP1 POP PUSH2 0x1CA2 DUP2 DUP7 PUSH2 0x200E JUMP JUMPDEST SWAP6 POP POP POP POP POP POP JUMPDEST SWAP4 SWAP3 POP POP POP JUMP JUMPDEST PUSH1 0x0 PUSH1 0x20 DUP3 DUP5 SUB SLT ISZERO PUSH2 0x1CC3 JUMPI PUSH1 0x0 DUP1 REVERT JUMPDEST POP CALLDATALOAD SWAP2 SWAP1 POP JUMP JUMPDEST PUSH1 0x1 PUSH1 0x1 PUSH1 0xA0 SHL SUB DUP2 AND DUP2 EQ PUSH2 0x1CDF JUMPI PUSH1 0x0 DUP1 REVERT JUMPDEST POP JUMP JUMPDEST PUSH1 0x0 PUSH1 0x20 DUP3 DUP5 SUB SLT ISZERO PUSH2 0x1CF4 JUMPI PUSH1 0x0 DUP1 REVERT JUMPDEST DUP2 CALLDATALOAD PUSH2 0x1CAA DUP2 PUSH2 0x1CCA JUMP JUMPDEST PUSH1 0x0 DUP1 PUSH1 0x40 DUP4 DUP6 SUB SLT ISZERO PUSH2 0x1D12 JUMPI PUSH1 0x0 DUP1 REVERT JUMPDEST DUP3 CALLDATALOAD PUSH2 0x1D1D DUP2 PUSH2 0x1CCA JUMP JUMPDEST SWAP5 PUSH1 0x20 SWAP4 SWAP1 SWAP4 ADD CALLDATALOAD SWAP4 POP POP POP JUMP JUMPDEST PUSH1 0x0 PUSH1 0x20 DUP3 DUP5 SUB SLT ISZERO PUSH2 0x1D3D JUMPI PUSH1 0x0 DUP1 REVERT JUMPDEST DUP2 MLOAD PUSH2 0x1CAA DUP2 PUSH2 0x1CCA JUMP JUMPDEST PUSH32 0x4E487B7100000000000000000000000000000000000000000000000000000000 PUSH1 0x0 MSTORE PUSH1 0x11 PUSH1 0x4 MSTORE PUSH1 0x24 PUSH1 0x0 REVERT JUMPDEST PUSH1 0x0 DUP3 DUP3 LT ISZERO PUSH2 0x1D89 JUMPI PUSH2 0x1D89 PUSH2 0x1D48 JUMP JUMPDEST POP SUB SWAP1 JUMP JUMPDEST PUSH1 0x0 DUP3 MLOAD PUSH1 0x0 JUMPDEST DUP2 DUP2 LT ISZERO PUSH2 0x1DAF JUMPI PUSH1 0x20 DUP2 DUP7 ADD DUP2 ADD MLOAD DUP6 DUP4 ADD MSTORE ADD PUSH2 0x1D95 JUMP JUMPDEST DUP2 DUP2 GT ISZERO PUSH2 0x1DBE JUMPI PUSH1 0x0 DUP3 DUP6 ADD MSTORE JUMPDEST POP SWAP2 SWAP1 SWAP2 ADD SWAP3 SWAP2 POP POP JUMP JUMPDEST PUSH32 0x4E487B7100000000000000000000000000000000000000000000000000000000 PUSH1 0x0 MSTORE PUSH1 0x32 PUSH1 0x4 MSTORE PUSH1 0x24 PUSH1 0x0 REVERT JUMPDEST PUSH1 0x0 PUSH1 0x20 DUP3 DUP5 SUB SLT ISZERO PUSH2 0x1E0A JUMPI PUSH1 0x0 DUP1 REVERT JUMPDEST POP MLOAD SWAP2 SWAP1 POP JUMP JUMPDEST PUSH1 0x0 PUSH1 0x20 DUP3 DUP5 SUB SLT ISZERO PUSH2 0x1E23 JUMPI PUSH1 0x0 DUP1 REVERT JUMPDEST DUP2 MLOAD DUP1 ISZERO ISZERO DUP2 EQ PUSH2 0x1CAA JUMPI PUSH1 0x0 DUP1 REVERT JUMPDEST PUSH1 0x0 PUSH1 0x0 NOT DUP3 SUB PUSH2 0x1E46 JUMPI PUSH2 0x1E46 PUSH2 0x1D48 JUMP JUMPDEST POP PUSH1 0x1 ADD SWAP1 JUMP JUMPDEST PUSH1 0x0 PUSH1 0xFF DUP3 AND DUP1 PUSH2 0x1E60 JUMPI PUSH2 0x1E60 PUSH2 0x1D48 JUMP JUMPDEST PUSH1 0x0 NOT ADD SWAP3 SWAP2 POP POP JUMP JUMPDEST PUSH32 0x4E487B7100000000000000000000000000000000000000000000000000000000 PUSH1 0x0 MSTORE PUSH1 0x31 PUSH1 0x4 MSTORE PUSH1 0x24 PUSH1 0x0 REVERT JUMPDEST PUSH1 0x0 PUSH1 0x20 DUP3 DUP5 SUB SLT ISZERO PUSH2 0x1EAB JUMPI PUSH1 0x0 DUP1 REVERT JUMPDEST DUP2 MLOAD PUSH1 0xFF DUP2 AND DUP2 EQ PUSH2 0x1CAA JUMPI PUSH1 0x0 DUP1 REVERT JUMPDEST PUSH1 0x1 DUP2 DUP2 JUMPDEST DUP1 DUP6 GT ISZERO PUSH2 0x1EF7 JUMPI DUP2 PUSH1 0x0 NOT DIV DUP3 GT ISZERO PUSH2 0x1EDD JUMPI PUSH2 0x1EDD PUSH2 0x1D48 JUMP JUMPDEST DUP1 DUP6 AND ISZERO PUSH2 0x1EEA JUMPI SWAP2 DUP2 MUL SWAP2 JUMPDEST SWAP4 DUP5 SHR SWAP4 SWAP1 DUP1 MUL SWAP1 PUSH2 0x1EC1 JUMP JUMPDEST POP SWAP3 POP SWAP3 SWAP1 POP JUMP JUMPDEST PUSH1 0x0 DUP3 PUSH2 0x1F0E JUMPI POP PUSH1 0x1 PUSH2 0xD19 JUMP JUMPDEST DUP2 PUSH2 0x1F1B JUMPI POP PUSH1 0x0 PUSH2 0xD19 JUMP JUMPDEST DUP2 PUSH1 0x1 DUP2 EQ PUSH2 0x1F31 JUMPI PUSH1 0x2 DUP2 EQ PUSH2 0x1F3B JUMPI PUSH2 0x1F57 JUMP JUMPDEST PUSH1 0x1 SWAP2 POP POP PUSH2 0xD19 JUMP JUMPDEST PUSH1 0xFF DUP5 GT ISZERO PUSH2 0x1F4C JUMPI PUSH2 0x1F4C PUSH2 0x1D48 JUMP JUMPDEST POP POP PUSH1 0x1 DUP3 SHL PUSH2 0xD19 JUMP JUMPDEST POP PUSH1 0x20 DUP4 LT PUSH2 0x133 DUP4 LT AND PUSH1 0x4E DUP5 LT PUSH1 0xB DUP5 LT AND OR ISZERO PUSH2 0x1F7A JUMPI POP DUP2 DUP2 EXP PUSH2 0xD19 JUMP JUMPDEST PUSH2 0x1F84 DUP4 DUP4 PUSH2 0x1EBC JUMP JUMPDEST DUP1 PUSH1 0x0 NOT DIV DUP3 GT ISZERO PUSH2 0x1F98 JUMPI PUSH2 0x1F98 PUSH2 0x1D48 JUMP JUMPDEST MUL SWAP4 SWAP3 POP POP POP JUMP JUMPDEST PUSH1 0x0 PUSH2 0x1CAA DUP4 DUP4 PUSH2 0x1EFF JUMP JUMPDEST PUSH32 0x4E487B7100000000000000000000000000000000000000000000000000000000 PUSH1 0x0 MSTORE PUSH1 0x12 PUSH1 0x4 MSTORE PUSH1 0x24 PUSH1 0x0 REVERT JUMPDEST PUSH1 0x0 DUP3 PUSH2 0x1FEA JUMPI PUSH2 0x1FEA PUSH2 0x1FAC JUMP JUMPDEST POP DIV SWAP1 JUMP JUMPDEST PUSH1 0x0 PUSH1 0xFF DUP3 AND PUSH1 0xFF DUP2 SUB PUSH2 0x2005 JUMPI PUSH2 0x2005 PUSH2 0x1D48 JUMP JUMPDEST PUSH1 0x1 ADD SWAP3 SWAP2 POP POP JUMP JUMPDEST PUSH1 0x0 DUP2 PUSH1 0x0 NOT DIV DUP4 GT DUP3 ISZERO ISZERO AND ISZERO PUSH2 0x2028 JUMPI PUSH2 0x2028 PUSH2 0x1D48 JUMP JUMPDEST POP MUL SWAP1 JUMP JUMPDEST PUSH1 0x0 DUP3 NOT DUP3 GT ISZERO PUSH2 0x2040 JUMPI PUSH2 0x2040 PUSH2 0x1D48 JUMP JUMPDEST POP ADD SWAP1 JUMP JUMPDEST PUSH32 0x4E487B7100000000000000000000000000000000000000000000000000000000 PUSH1 0x0 MSTORE PUSH1 0x41 PUSH1 0x4 MSTORE PUSH1 0x24 PUSH1 0x0 REVERT JUMPDEST PUSH1 0x20 DUP1 DUP3 MSTORE DUP3 MLOAD DUP3 DUP3 ADD DUP2 SWAP1 MSTORE PUSH1 0x0 SWAP2 SWAP1 DUP5 DUP3 ADD SWAP1 PUSH1 0x40 DUP6 ADD SWAP1 DUP5 JUMPDEST DUP2 DUP2 LT ISZERO PUSH2 0x20B2 JUMPI DUP4 MLOAD PUSH4 0xFFFFFFFF AND DUP4 MSTORE SWAP3 DUP5 ADD SWAP3 SWAP2 DUP5 ADD SWAP2 PUSH1 0x1 ADD PUSH2 0x2090 JUMP JUMPDEST POP SWAP1 SWAP7 SWAP6 POP POP POP POP POP POP JUMP JUMPDEST PUSH1 0x40 MLOAD PUSH1 0x1F DUP3 ADD PUSH1 0x1F NOT AND DUP2 ADD PUSH8 0xFFFFFFFFFFFFFFFF DUP2 GT DUP3 DUP3 LT OR ISZERO PUSH2 0x20E7 JUMPI PUSH2 0x20E7 PUSH2 0x2045 JUMP JUMPDEST PUSH1 0x40 MSTORE SWAP2 SWAP1 POP JUMP JUMPDEST PUSH1 0x0 PUSH8 0xFFFFFFFFFFFFFFFF DUP3 GT ISZERO PUSH2 0x2109 JUMPI PUSH2 0x2109 PUSH2 0x2045 JUMP JUMPDEST POP PUSH1 0x5 SHL PUSH1 0x20 ADD SWAP1 JUMP JUMPDEST PUSH1 0x0 DUP3 PUSH1 0x1F DUP4 ADD SLT PUSH2 0x2124 JUMPI PUSH1 0x0 DUP1 REVERT JUMPDEST DUP2 MLOAD PUSH1 0x20 PUSH2 0x2139 PUSH2 0x2134 DUP4 PUSH2 0x20EF JUMP JUMPDEST PUSH2 0x20BE JUMP JUMPDEST DUP3 DUP2 MSTORE PUSH1 0x5 SWAP3 SWAP1 SWAP3 SHL DUP5 ADD DUP2 ADD SWAP2 DUP2 DUP2 ADD SWAP1 DUP7 DUP5 GT ISZERO PUSH2 0x2158 JUMPI PUSH1 0x0 DUP1 REVERT JUMPDEST DUP3 DUP7 ADD JUMPDEST DUP5 DUP2 LT ISZERO PUSH2 0x217C JUMPI DUP1 MLOAD PUSH2 0x216F DUP2 PUSH2 0x1CCA JUMP JUMPDEST DUP4 MSTORE SWAP2 DUP4 ADD SWAP2 DUP4 ADD PUSH2 0x215C JUMP JUMPDEST POP SWAP7 SWAP6 POP POP POP POP POP POP JUMP JUMPDEST PUSH1 0x0 DUP1 PUSH1 0x40 DUP4 DUP6 SUB SLT ISZERO PUSH2 0x219A JUMPI PUSH1 0x0 DUP1 REVERT JUMPDEST DUP3 MLOAD PUSH8 0xFFFFFFFFFFFFFFFF DUP1 DUP3 GT ISZERO PUSH2 0x21B2 JUMPI PUSH1 0x0 DUP1 REVERT JUMPDEST DUP2 DUP6 ADD SWAP2 POP DUP6 PUSH1 0x1F DUP4 ADD SLT PUSH2 0x21C6 JUMPI PUSH1 0x0 DUP1 REVERT JUMPDEST DUP2 MLOAD PUSH1 0x20 PUSH2 0x21D6 PUSH2 0x2134 DUP4 PUSH2 0x20EF JUMP JUMPDEST DUP3 DUP2 MSTORE PUSH1 0x5 SWAP3 SWAP1 SWAP3 SHL DUP5 ADD DUP2 ADD SWAP2 DUP2 DUP2 ADD SWAP1 DUP10 DUP5 GT ISZERO PUSH2 0x21F5 JUMPI PUSH1 0x0 DUP1 REVERT JUMPDEST SWAP5 DUP3 ADD SWAP5 JUMPDEST DUP4 DUP7 LT ISZERO PUSH2 0x2223 JUMPI DUP6 MLOAD DUP1 PUSH1 0x6 SIGNEXTEND DUP2 EQ PUSH2 0x2214 JUMPI PUSH1 0x0 DUP1 DUP2 REVERT JUMPDEST DUP3 MSTORE SWAP5 DUP3 ADD SWAP5 SWAP1 DUP3 ADD SWAP1 PUSH2 0x21FA JUMP JUMPDEST SWAP2 DUP9 ADD MLOAD SWAP2 SWAP7 POP SWAP1 SWAP4 POP POP POP DUP1 DUP3 GT ISZERO PUSH2 0x223C JUMPI PUSH1 0x0 DUP1 REVERT JUMPDEST POP PUSH2 0x2249 DUP6 DUP3 DUP7 ADD PUSH2 0x2113 JUMP JUMPDEST SWAP2 POP POP SWAP3 POP SWAP3 SWAP1 POP JUMP JUMPDEST PUSH1 0x0 DUP2 PUSH1 0x6 SIGNEXTEND DUP4 PUSH1 0x6 SIGNEXTEND PUSH1 0x0 DUP2 SLT DUP2 PUSH32 0xFFFFFFFFFFFFFFFFFFFFFFFFFFFFFFFFFFFFFFFFFFFFFFFFFF80000000000000 ADD DUP4 SLT DUP2 ISZERO AND ISZERO PUSH2 0x2296 JUMPI PUSH2 0x2296 PUSH2 0x1D48 JUMP JUMPDEST DUP2 PUSH7 0x7FFFFFFFFFFFFF ADD DUP4 SGT DUP2 AND ISZERO PUSH2 0x22B1 JUMPI PUSH2 0x22B1 PUSH2 0x1D48 JUMP JUMPDEST POP SWAP1 SUB SWAP4 SWAP3 POP POP POP JUMP JUMPDEST PUSH1 0x0 PUSH1 0x1 PUSH1 0x1 PUSH1 0xA0 SHL SUB DUP4 DUP2 AND SWAP1 DUP4 AND DUP2 DUP2 LT ISZERO PUSH2 0x22DB JUMPI PUSH2 0x22DB PUSH2 0x1D48 JUMP JUMPDEST SUB SWAP4 SWAP3 POP POP POP JUMP JUMPDEST PUSH1 0x0 DUP2 PUSH1 0x6 SIGNEXTEND DUP4 PUSH1 0x6 SIGNEXTEND DUP1 PUSH2 0x22FA JUMPI PUSH2 0x22FA PUSH2 0x1FAC JUMP JUMPDEST PUSH1 0x0 NOT DUP2 EQ PUSH32 0xFFFFFFFFFFFFFFFFFFFFFFFFFFFFFFFFFFFFFFFFFFFFFFFFFF80000000000000 DUP4 EQ AND ISZERO PUSH2 0x2330 JUMPI PUSH2 0x2330 PUSH2 0x1D48 JUMP JUMPDEST SWAP1 SDIV SWAP4 SWAP3 POP POP POP JUMP JUMPDEST PUSH1 0x0 DUP3 PUSH1 0x6 SIGNEXTEND DUP1 PUSH2 0x234C JUMPI PUSH2 0x234C PUSH2 0x1FAC JUMP JUMPDEST DUP1 DUP4 PUSH1 0x6 SIGNEXTEND SMOD SWAP2 POP POP SWAP3 SWAP2 POP POP JUMP JUMPDEST PUSH1 0x0 DUP2 PUSH1 0x2 SIGNEXTEND PUSH32 0xFFFFFFFFFFFFFFFFFFFFFFFFFFFFFFFFFFFFFFFFFFFFFFFFFFFFFFFFFF800000 DUP2 SUB PUSH2 0x1E60 JUMPI PUSH2 0x1E60 PUSH2 0x1D48 JUMP JUMPDEST PUSH1 0x0 PUSH24 0xFFFFFFFFFFFFFFFFFFFFFFFFFFFFFFFFFFFFFFFFFFFFFFFF DUP1 DUP4 AND DUP2 DUP6 AND DUP2 DUP4 DIV DUP2 GT DUP3 ISZERO ISZERO AND ISZERO PUSH2 0x23C7 JUMPI PUSH2 0x23C7 PUSH2 0x1D48 JUMP JUMPDEST MUL SWAP5 SWAP4 POP POP POP POP JUMP JUMPDEST PUSH1 0x0 PUSH24 0xFFFFFFFFFFFFFFFFFFFFFFFFFFFFFFFFFFFFFFFFFFFFFFFF DUP1 DUP5 AND DUP1 PUSH2 0x23FB JUMPI PUSH2 0x23FB PUSH2 0x1FAC JUMP JUMPDEST SWAP3 AND SWAP2 SWAP1 SWAP2 DIV SWAP3 SWAP2 POP POP JUMP JUMPDEST PUSH1 0x0 PUSH32 0x8000000000000000000000000000000000000000000000000000000000000000 DUP3 SUB PUSH2 0x2438 JUMPI PUSH2 0x2438 PUSH2 0x1D48 JUMP JUMPDEST POP PUSH1 0x0 SUB SWAP1 JUMP JUMPDEST PUSH1 0x0 DUP2 PUSH1 0x2 SIGNEXTEND PUSH32 0xFFFFFFFFFFFFFFFFFFFFFFFFFFFFFFFFFFFFFFFFFFFFFFFFFFFFFFFFFF800000 DUP2 SUB PUSH2 0x2474 JUMPI PUSH2 0x2474 PUSH2 0x1D48 JUMP JUMPDEST PUSH1 0x0 SUB SWAP3 SWAP2 POP POP JUMP JUMPDEST PUSH1 0x0 DUP3 PUSH2 0x248C JUMPI PUSH2 0x248C PUSH2 0x1FAC JUMP JUMPDEST POP MOD SWAP1 JUMP INVALID LOG2 PUSH5 0x6970667358 0x22 SLT KECCAK256 0xEC 0xEC SWAP11 PUSH26 0x5266C982911A3AB5A99E3B530F7ADC6C687BFCA8D89C788007D5 PUSH6 0xA64736F6C63 NUMBER STOP ADDMOD 0xE STOP CALLER "
				},
				"gasEstimates": {
					"creation": {
						"codeDepositCost": "1883000",
						"executionCost": "infinite",
						"totalCost": "infinite"
					},
					"external": {
						"": "169",
						"NAV()": "2329",
						"addCoin(address,uint256)": "infinite",
						"coinArray(uint256)": "4681",
						"coinOracleAddr(address)": "2598",
						"coins(address)": "2591",
						"delCoin(address)": "infinite",
						"deleteContract(address)": "infinite",
						"initContract(address)": "infinite",
						"initDone()": "2401",
						"oracleNAV()": "infinite",
						"proxy()": "2414",
						"quoteIn(address)": "2574",
						"transferFunds(address,uint256)": "infinite",
						"updateNAV(uint256)": "infinite",
						"updateProxy(address)": "26757"
					},
					"internal": {
						"calculateNAV()": "infinite"
					}
				},
				"methodIdentifiers": {
					"NAV()": "52fd856b",
					"addCoin(address,uint256)": "b4014879",
					"coinArray(uint256)": "63b48ee6",
					"coinOracleAddr(address)": "0fbbfa3e",
					"coins(address)": "7d0f7a88",
					"delCoin(address)": "4051b9aa",
					"deleteContract(address)": "2637a477",
					"initContract(address)": "cf9d4afa",
					"initDone()": "fed0a20e",
					"oracleNAV()": "def1a5e8",
					"proxy()": "ec556889",
					"quoteIn(address)": "d825bfff",
					"transferFunds(address,uint256)": "990dc9db",
					"updateNAV(uint256)": "0cb1982b",
					"updateProxy(address)": "9e955149"
				}
			},
			"storageLayout": {
				"storage": [
					{
						"astId": 830,
						"contract": "TFGv3/Contracts/SCStorage.sol:SCStorage",
						"label": "NAV",
						"offset": 0,
						"slot": "0",
						"type": "t_uint256"
					},
					{
						"astId": 832,
						"contract": "TFGv3/Contracts/SCStorage.sol:SCStorage",
						"label": "initDone",
						"offset": 0,
						"slot": "1",
						"type": "t_uint8"
					},
					{
						"astId": 834,
						"contract": "TFGv3/Contracts/SCStorage.sol:SCStorage",
						"label": "nStable",
						"offset": 1,
						"slot": "1",
						"type": "t_uint8"
					},
					{
						"astId": 836,
						"contract": "TFGv3/Contracts/SCStorage.sol:SCStorage",
						"label": "proxy",
						"offset": 2,
						"slot": "1",
						"type": "t_address"
					},
					{
						"astId": 839,
						"contract": "TFGv3/Contracts/SCStorage.sol:SCStorage",
						"label": "coinArray",
						"offset": 0,
						"slot": "2",
						"type": "t_array(t_address)dyn_storage"
					},
					{
						"astId": 843,
						"contract": "TFGv3/Contracts/SCStorage.sol:SCStorage",
						"label": "coins",
						"offset": 0,
						"slot": "3",
						"type": "t_mapping(t_address,t_uint256)"
					},
					{
						"astId": 847,
						"contract": "TFGv3/Contracts/SCStorage.sol:SCStorage",
						"label": "coinOracleAddr",
						"offset": 0,
						"slot": "4",
						"type": "t_mapping(t_address,t_address)"
					},
					{
						"astId": 851,
						"contract": "TFGv3/Contracts/SCStorage.sol:SCStorage",
						"label": "quoteIn",
						"offset": 0,
						"slot": "5",
						"type": "t_mapping(t_address,t_address)"
					}
				],
				"types": {
					"t_address": {
						"encoding": "inplace",
						"label": "address",
						"numberOfBytes": "20"
					},
					"t_array(t_address)dyn_storage": {
						"base": "t_address",
						"encoding": "dynamic_array",
						"label": "address[]",
						"numberOfBytes": "32"
					},
					"t_mapping(t_address,t_address)": {
						"encoding": "mapping",
						"key": "t_address",
						"label": "mapping(address => address)",
						"numberOfBytes": "32",
						"value": "t_address"
					},
					"t_mapping(t_address,t_uint256)": {
						"encoding": "mapping",
						"key": "t_address",
						"label": "mapping(address => uint256)",
						"numberOfBytes": "32",
						"value": "t_uint256"
					},
					"t_uint256": {
						"encoding": "inplace",
						"label": "uint256",
						"numberOfBytes": "32"
					},
					"t_uint8": {
						"encoding": "inplace",
						"label": "uint8",
						"numberOfBytes": "1"
					}
				}
			},
			"userdoc": {
				"kind": "user",
				"methods": {},
				"version": 1
			}
		}
	}
}