{
	"TFGv3/Contracts/SCOps.sol": {
		"SCOps": {
			"abi": [
				{
					"inputs": [],
					"stateMutability": "nonpayable",
					"type": "constructor"
				},
				{
					"stateMutability": "payable",
					"type": "fallback"
				},
				{
					"inputs": [
						{
							"internalType": "address",
							"name": "newContract",
							"type": "address"
						}
					],
					"name": "deleteContract",
					"outputs": [],
					"stateMutability": "nonpayable",
					"type": "function"
				},
				{
					"inputs": [
						{
							"internalType": "address",
							"name": "proxyAddr",
							"type": "address"
						}
					],
					"name": "initContract",
					"outputs": [],
					"stateMutability": "nonpayable",
					"type": "function"
				},
				{
					"inputs": [],
					"name": "initDone",
					"outputs": [
						{
							"internalType": "uint8",
							"name": "",
							"type": "uint8"
						}
					],
					"stateMutability": "view",
					"type": "function"
				},
				{
					"inputs": [],
					"name": "proxy",
					"outputs": [
						{
							"internalType": "address",
							"name": "",
							"type": "address"
						}
					],
					"stateMutability": "view",
					"type": "function"
				},
				{
					"inputs": [
						{
							"internalType": "address",
							"name": "factory",
							"type": "address"
						}
					],
					"name": "setFactory",
					"outputs": [],
					"stateMutability": "nonpayable",
					"type": "function"
				},
				{
					"inputs": [
						{
							"internalType": "address[]",
							"name": "path",
							"type": "address[]"
						},
						{
							"internalType": "uint256",
							"name": "amount",
							"type": "uint256"
						}
					],
					"name": "uniSwap",
					"outputs": [],
					"stateMutability": "nonpayable",
					"type": "function"
				},
				{
					"inputs": [
						{
							"internalType": "address",
							"name": "newAddr",
							"type": "address"
						}
					],
					"name": "updateProxy",
					"outputs": [],
					"stateMutability": "nonpayable",
					"type": "function"
				},
				{
					"inputs": [],
					"name": "v2factory",
					"outputs": [
						{
							"internalType": "address",
							"name": "",
							"type": "address"
						}
					],
					"stateMutability": "view",
					"type": "function"
				},
				{
					"stateMutability": "payable",
					"type": "receive"
				}
			],
			"devdoc": {
				"kind": "dev",
				"methods": {},
				"version": 1
			},
			"evm": {
				"assembly": "    /* \"TFGv3/Contracts/SCOps.sol\":421:3059  contract SCOps is ISCOps... */\n  mstore(0x40, 0xa0)\n    /* \"TFGv3/Contracts/SCOps.sol\":603:659  constructor()... */\n  callvalue\n  dup1\n  iszero\n  tag_1\n  jumpi\n  0x00\n  dup1\n  revert\ntag_1:\n  pop\n    /* \"TFGv3/Contracts/SCOps.sol\":642:652  msg.sender */\n  caller\n    /* \"TFGv3/Contracts/SCOps.sol\":631:652  deployer = msg.sender */\n  0x80\n  mstore\n    /* \"TFGv3/Contracts/SCOps.sol\":421:3059  contract SCOps is ISCOps... */\n  mload(0x80)\n  codecopy(0x00, dataOffset(sub_0), dataSize(sub_0))\n  0x00\n  assignImmutable(\"0x8ef666e6fda79053a53004a1b98be61a93ed2779d67f49986ff52dca2c41336b\")\n  return(0x00, dataSize(sub_0))\nstop\n\nsub_0: assembly {\n        /* \"TFGv3/Contracts/SCOps.sol\":421:3059  contract SCOps is ISCOps... */\n      mstore(0x40, 0x80)\n      jumpi(tag_1, lt(calldatasize, 0x04))\n      shr(0xe0, calldataload(0x00))\n      dup1\n      0x9e955149\n      gt\n      tag_11\n      jumpi\n      dup1\n      0x9e955149\n      eq\n      tag_7\n      jumpi\n      dup1\n      0xcf9d4afa\n      eq\n      tag_8\n      jumpi\n      dup1\n      0xec556889\n      eq\n      tag_9\n      jumpi\n      dup1\n      0xfed0a20e\n      eq\n      tag_10\n      jumpi\n        /* \"TFGv3/Contracts/SCOps.sol\":3042:3050  revert() */\n      0x00\n      dup1\n      revert\n        /* \"TFGv3/Contracts/SCOps.sol\":421:3059  contract SCOps is ISCOps... */\n    tag_11:\n      dup1\n      0x1fa4e970\n      eq\n      tag_3\n      jumpi\n      dup1\n      0x2637a477\n      eq\n      tag_4\n      jumpi\n      dup1\n      0x330807a9\n      eq\n      tag_5\n      jumpi\n      dup1\n      0x5bb47808\n      eq\n      tag_6\n      jumpi\n        /* \"TFGv3/Contracts/SCOps.sol\":3042:3050  revert() */\n      0x00\n      dup1\n      revert\n        /* \"TFGv3/Contracts/SCOps.sol\":421:3059  contract SCOps is ISCOps... */\n    tag_1:\n      jumpi(tag_2, calldatasize)\n        /* \"TFGv3/Contracts/SCOps.sol\":2975:2983  revert() */\n      0x00\n      dup1\n      revert\n        /* \"TFGv3/Contracts/SCOps.sol\":421:3059  contract SCOps is ISCOps... */\n    tag_2:\n        /* \"TFGv3/Contracts/SCOps.sol\":3042:3050  revert() */\n      0x00\n      dup1\n      revert\n        /* \"TFGv3/Contracts/SCOps.sol\":1181:2350  function uniSwap(address[] calldata path, uint amount) external virtual override OnlyDeployer... */\n    tag_3:\n      callvalue\n      dup1\n      iszero\n      tag_16\n      jumpi\n      0x00\n      dup1\n      revert\n    tag_16:\n      pop\n      tag_17\n      tag_18\n      calldatasize\n      0x04\n      tag_19\n      jump\t// in\n    tag_18:\n      tag_20\n      jump\t// in\n    tag_17:\n      stop\n        /* \"TFGv3/Contracts/SCOps.sol\":2659:2924  function deleteContract(address newContract) external virtual override OnlyDeployer... */\n    tag_4:\n      callvalue\n      dup1\n      iszero\n      tag_21\n      jumpi\n      0x00\n      dup1\n      revert\n    tag_21:\n      pop\n      tag_17\n      tag_23\n      calldatasize\n      0x04\n      tag_24\n      jump\t// in\n    tag_23:\n      tag_25\n      jump\t// in\n        /* \"TFGv3/Contracts/SCOps.sol\":532:556  address public v2factory */\n    tag_5:\n      callvalue\n      dup1\n      iszero\n      tag_26\n      jumpi\n      0x00\n      dup1\n      revert\n    tag_26:\n      pop\n      sload(0x01)\n      tag_27\n      swap1\n      sub(shl(0xa0, 0x01), 0x01)\n      and\n      dup2\n      jump\n    tag_27:\n      mload(0x40)\n      sub(shl(0xa0, 0x01), 0x01)\n        /* \"#utility.yul\":1283:1338   */\n      swap1\n      swap2\n      and\n        /* \"#utility.yul\":1265:1339   */\n      dup2\n      mstore\n        /* \"#utility.yul\":1253:1255   */\n      0x20\n        /* \"#utility.yul\":1238:1256   */\n      add\n        /* \"TFGv3/Contracts/SCOps.sol\":532:556  address public v2factory */\n    tag_29:\n      mload(0x40)\n      dup1\n      swap2\n      sub\n      swap1\n      return\n        /* \"TFGv3/Contracts/SCOps.sol\":970:1069  function setFactory(address factory) external OnlyDeployer... */\n    tag_6:\n      callvalue\n      dup1\n      iszero\n      tag_31\n      jumpi\n      0x00\n      dup1\n      revert\n    tag_31:\n      pop\n      tag_17\n      tag_33\n      calldatasize\n      0x04\n      tag_24\n      jump\t// in\n    tag_33:\n      tag_34\n      jump\t// in\n        /* \"TFGv3/Contracts/SCOps.sol\":2498:2649  function updateProxy(address newAddr) external virtual override OnlyDeployer... */\n    tag_7:\n      callvalue\n      dup1\n      iszero\n      tag_35\n      jumpi\n      0x00\n      dup1\n      revert\n    tag_35:\n      pop\n      tag_17\n      tag_37\n      calldatasize\n      0x04\n      tag_24\n      jump\t// in\n    tag_37:\n      tag_38\n      jump\t// in\n        /* \"TFGv3/Contracts/SCOps.sol\":838:964  function initContract(address proxyAddr) external virtual override OnlyDeployer NonInit... */\n    tag_8:\n      callvalue\n      dup1\n      iszero\n      tag_39\n      jumpi\n      0x00\n      dup1\n      revert\n    tag_39:\n      pop\n      tag_17\n      tag_41\n      calldatasize\n      0x04\n      tag_24\n      jump\t// in\n    tag_41:\n      tag_42\n      jump\t// in\n        /* \"TFGv3/Contracts/SCOps.sol\":478:498  address public proxy */\n    tag_9:\n      callvalue\n      dup1\n      iszero\n      tag_43\n      jumpi\n      0x00\n      dup1\n      revert\n    tag_43:\n      pop\n      sload(0x00)\n      tag_27\n      swap1\n      sub(shl(0xa0, 0x01), 0x01)\n      and\n      dup2\n      jump\n        /* \"TFGv3/Contracts/SCOps.sol\":504:525  uint8 public initDone */\n    tag_10:\n      callvalue\n      dup1\n      iszero\n      tag_47\n      jumpi\n      0x00\n      dup1\n      revert\n    tag_47:\n      pop\n      sload(0x00)\n      tag_48\n      swap1\n      0x010000000000000000000000000000000000000000\n      swap1\n      div\n      0xff\n      and\n      dup2\n      jump\n    tag_48:\n      mload(0x40)\n        /* \"#utility.yul\":1522:1526   */\n      0xff\n        /* \"#utility.yul\":1510:1527   */\n      swap1\n      swap2\n      and\n        /* \"#utility.yul\":1492:1528   */\n      dup2\n      mstore\n        /* \"#utility.yul\":1480:1482   */\n      0x20\n        /* \"#utility.yul\":1465:1483   */\n      add\n        /* \"TFGv3/Contracts/SCOps.sol\":504:525  uint8 public initDone */\n      tag_29\n        /* \"#utility.yul\":1350:1534   */\n      jump\n        /* \"TFGv3/Contracts/SCOps.sol\":1181:2350  function uniSwap(address[] calldata path, uint amount) external virtual override OnlyDeployer... */\n    tag_20:\n        /* \"TFGv3/Contracts/SCOps.sol\":712:722  msg.sender */\n      caller\n      sub(shl(0xa0, 0x01), 0x01)\n        /* \"TFGv3/Contracts/SCOps.sol\":726:734  deployer */\n      immutable(\"0x8ef666e6fda79053a53004a1b98be61a93ed2779d67f49986ff52dca2c41336b\")\n        /* \"TFGv3/Contracts/SCOps.sol\":712:734  msg.sender == deployer */\n      and\n      eq\n        /* \"TFGv3/Contracts/SCOps.sol\":704:735  require(msg.sender == deployer) */\n      tag_53\n      jumpi\n      0x00\n      dup1\n      revert\n    tag_53:\n        /* \"TFGv3/Contracts/SCOps.sol\":1307:1316  v2factory */\n      and(sub(shl(0xa0, 0x01), 0x01), sload(0x01))\n        /* \"TFGv3/Contracts/SCOps.sol\":1339:1345  amount */\n      dup2\n        /* \"TFGv3/Contracts/SCOps.sol\":1289:1304  address factory */\n      0x00\n        /* \"TFGv3/Contracts/SCOps.sol\":1355:2344  for(uint i = 0; i < path.length-1; i++)... */\n    tag_55:\n        /* \"TFGv3/Contracts/SCOps.sol\":1375:1388  path.length-1 */\n      tag_58\n        /* \"TFGv3/Contracts/SCOps.sol\":1387:1388  1 */\n      0x01\n        /* \"TFGv3/Contracts/SCOps.sol\":1375:1379  path */\n      dup7\n        /* \"TFGv3/Contracts/SCOps.sol\":1375:1388  path.length-1 */\n      tag_59\n      jump\t// in\n    tag_58:\n        /* \"TFGv3/Contracts/SCOps.sol\":1371:1372  i */\n      dup2\n        /* \"TFGv3/Contracts/SCOps.sol\":1371:1388  i < path.length-1 */\n      lt\n        /* \"TFGv3/Contracts/SCOps.sol\":1355:2344  for(uint i = 0; i < path.length-1; i++)... */\n      iszero\n      tag_56\n      jumpi\n        /* \"TFGv3/Contracts/SCOps.sol\":1417:1434  address inputPair */\n      0x00\n        /* \"TFGv3/Contracts/SCOps.sol\":1437:1490  UniswapV2Library.pairFor(factory, path[i], path[i+1]) */\n      tag_60\n        /* \"TFGv3/Contracts/SCOps.sol\":1462:1469  factory */\n      dup5\n        /* \"TFGv3/Contracts/SCOps.sol\":1471:1475  path */\n      dup9\n      dup9\n        /* \"TFGv3/Contracts/SCOps.sol\":1476:1477  i */\n      dup6\n        /* \"TFGv3/Contracts/SCOps.sol\":1471:1478  path[i] */\n      dup2\n      dup2\n      lt\n      tag_62\n      jumpi\n      tag_62\n      tag_63\n      jump\t// in\n    tag_62:\n      swap1\n      pop\n      0x20\n      mul\n      add\n      0x20\n      dup2\n      add\n      swap1\n      tag_64\n      swap2\n      swap1\n      tag_24\n      jump\t// in\n    tag_64:\n        /* \"TFGv3/Contracts/SCOps.sol\":1480:1484  path */\n      dup10\n      dup10\n        /* \"TFGv3/Contracts/SCOps.sol\":1485:1488  i+1 */\n      tag_65\n        /* \"TFGv3/Contracts/SCOps.sol\":1485:1486  i */\n      dup8\n        /* \"TFGv3/Contracts/SCOps.sol\":1487:1488  1 */\n      0x01\n        /* \"TFGv3/Contracts/SCOps.sol\":1485:1488  i+1 */\n      tag_66\n      jump\t// in\n    tag_65:\n        /* \"TFGv3/Contracts/SCOps.sol\":1480:1489  path[i+1] */\n      dup2\n      dup2\n      lt\n      tag_68\n      jumpi\n      tag_68\n      tag_63\n      jump\t// in\n    tag_68:\n      swap1\n      pop\n      0x20\n      mul\n      add\n      0x20\n      dup2\n      add\n      swap1\n      tag_69\n      swap2\n      swap1\n      tag_24\n      jump\t// in\n    tag_69:\n        /* \"TFGv3/Contracts/SCOps.sol\":1437:1461  UniswapV2Library.pairFor */\n      tag_70\n        /* \"TFGv3/Contracts/SCOps.sol\":1437:1490  UniswapV2Library.pairFor(factory, path[i], path[i+1]) */\n      jump\t// in\n    tag_60:\n        /* \"TFGv3/Contracts/SCOps.sol\":1417:1490  address inputPair = UniswapV2Library.pairFor(factory, path[i], path[i+1]) */\n      swap1\n      pop\n        /* \"TFGv3/Contracts/SCOps.sol\":1505:1519  uint aReserves */\n      0x00\n        /* \"TFGv3/Contracts/SCOps.sol\":1521:1535  uint bReserves */\n      dup1\n        /* \"TFGv3/Contracts/SCOps.sol\":1539:1596  UniswapV2Library.getReserves(factory, path[i], path[i+1]) */\n      tag_71\n        /* \"TFGv3/Contracts/SCOps.sol\":1568:1575  factory */\n      dup7\n        /* \"TFGv3/Contracts/SCOps.sol\":1577:1581  path */\n      dup11\n      dup11\n        /* \"TFGv3/Contracts/SCOps.sol\":1582:1583  i */\n      dup8\n        /* \"TFGv3/Contracts/SCOps.sol\":1577:1584  path[i] */\n      dup2\n      dup2\n      lt\n      tag_73\n      jumpi\n      tag_73\n      tag_63\n      jump\t// in\n    tag_73:\n      swap1\n      pop\n      0x20\n      mul\n      add\n      0x20\n      dup2\n      add\n      swap1\n      tag_74\n      swap2\n      swap1\n      tag_24\n      jump\t// in\n    tag_74:\n        /* \"TFGv3/Contracts/SCOps.sol\":1586:1590  path */\n      dup12\n      dup12\n        /* \"TFGv3/Contracts/SCOps.sol\":1591:1594  i+1 */\n      tag_75\n        /* \"TFGv3/Contracts/SCOps.sol\":1591:1592  i */\n      dup10\n        /* \"TFGv3/Contracts/SCOps.sol\":1593:1594  1 */\n      0x01\n        /* \"TFGv3/Contracts/SCOps.sol\":1591:1594  i+1 */\n      tag_66\n      jump\t// in\n    tag_75:\n        /* \"TFGv3/Contracts/SCOps.sol\":1586:1595  path[i+1] */\n      dup2\n      dup2\n      lt\n      tag_77\n      jumpi\n      tag_77\n      tag_63\n      jump\t// in\n    tag_77:\n      swap1\n      pop\n      0x20\n      mul\n      add\n      0x20\n      dup2\n      add\n      swap1\n      tag_78\n      swap2\n      swap1\n      tag_24\n      jump\t// in\n    tag_78:\n        /* \"TFGv3/Contracts/SCOps.sol\":1539:1567  UniswapV2Library.getReserves */\n      tag_79\n        /* \"TFGv3/Contracts/SCOps.sol\":1539:1596  UniswapV2Library.getReserves(factory, path[i], path[i+1]) */\n      jump\t// in\n    tag_71:\n        /* \"TFGv3/Contracts/SCOps.sol\":1504:1596  (uint aReserves, uint bReserves) = UniswapV2Library.getReserves(factory, path[i], path[i+1]) */\n      swap2\n      pop\n      swap2\n      pop\n        /* \"TFGv3/Contracts/SCOps.sol\":1611:1626  uint amount0Out */\n      0x00\n        /* \"TFGv3/Contracts/SCOps.sol\":1640:1655  uint amount1Out */\n      dup1\n        /* \"TFGv3/Contracts/SCOps.sol\":1700:1709  inputPair */\n      dup5\n      sub(shl(0xa0, 0x01), 0x01)\n        /* \"TFGv3/Contracts/SCOps.sol\":1685:1717  IUniswapV2Pair(inputPair).token0 */\n      and\n      0x0dfe1681\n        /* \"TFGv3/Contracts/SCOps.sol\":1685:1719  IUniswapV2Pair(inputPair).token0() */\n      mload(0x40)\n      dup2\n      0xffffffff\n      and\n      0xe0\n      shl\n      dup2\n      mstore\n      0x04\n      add\n      0x20\n      mload(0x40)\n      dup1\n      dup4\n      sub\n      dup2\n      dup7\n      gas\n      staticcall\n      iszero\n      dup1\n      iszero\n      tag_81\n      jumpi\n      returndatasize\n      0x00\n      dup1\n      returndatacopy\n      revert(0x00, returndatasize)\n    tag_81:\n      pop\n      pop\n      pop\n      pop\n      mload(0x40)\n      returndatasize\n      not(0x1f)\n      0x1f\n      dup3\n      add\n      and\n      dup3\n      add\n      dup1\n      0x40\n      mstore\n      pop\n      dup2\n      add\n      swap1\n      tag_82\n      swap2\n      swap1\n      tag_83\n      jump\t// in\n    tag_82:\n      sub(shl(0xa0, 0x01), 0x01)\n        /* \"TFGv3/Contracts/SCOps.sol\":1674:1719  path[i] == IUniswapV2Pair(inputPair).token0() */\n      and\n        /* \"TFGv3/Contracts/SCOps.sol\":1674:1678  path */\n      dup12\n      dup12\n        /* \"TFGv3/Contracts/SCOps.sol\":1679:1680  i */\n      dup9\n        /* \"TFGv3/Contracts/SCOps.sol\":1674:1681  path[i] */\n      dup2\n      dup2\n      lt\n      tag_85\n      jumpi\n      tag_85\n      tag_63\n      jump\t// in\n    tag_85:\n      swap1\n      pop\n      0x20\n      mul\n      add\n      0x20\n      dup2\n      add\n      swap1\n      tag_86\n      swap2\n      swap1\n      tag_24\n      jump\t// in\n    tag_86:\n      sub(shl(0xa0, 0x01), 0x01)\n        /* \"TFGv3/Contracts/SCOps.sol\":1674:1719  path[i] == IUniswapV2Pair(inputPair).token0() */\n      and\n      sub\n        /* \"TFGv3/Contracts/SCOps.sol\":1670:2229  if (path[i] == IUniswapV2Pair(inputPair).token0())... */\n      tag_87\n      jumpi\n        /* \"TFGv3/Contracts/SCOps.sol\":1764:1765  0 */\n      0x00\n        /* \"TFGv3/Contracts/SCOps.sol\":1751:1765  amount0Out = 0 */\n      swap2\n      pop\n        /* \"TFGv3/Contracts/SCOps.sol\":1796:1854  UniswapV2Library.getAmountOut(qtyIn, aReserves, bReserves) */\n      tag_88\n        /* \"TFGv3/Contracts/SCOps.sol\":1826:1831  qtyIn */\n      dup8\n        /* \"TFGv3/Contracts/SCOps.sol\":1833:1842  aReserves */\n      dup6\n        /* \"TFGv3/Contracts/SCOps.sol\":1844:1853  bReserves */\n      dup6\n        /* \"TFGv3/Contracts/SCOps.sol\":1796:1825  UniswapV2Library.getAmountOut */\n      tag_89\n        /* \"TFGv3/Contracts/SCOps.sol\":1796:1854  UniswapV2Library.getAmountOut(qtyIn, aReserves, bReserves) */\n      jump\t// in\n    tag_88:\n        /* \"TFGv3/Contracts/SCOps.sol\":1783:1854  amount1Out = UniswapV2Library.getAmountOut(qtyIn, aReserves, bReserves) */\n      swap1\n      pop\n        /* \"TFGv3/Contracts/SCOps.sol\":1880:1890  amount1Out */\n      dup1\n        /* \"TFGv3/Contracts/SCOps.sol\":1872:1890  qtyIn = amount1Out */\n      swap7\n      pop\n        /* \"TFGv3/Contracts/SCOps.sol\":1915:1919  path */\n      dup11\n      dup11\n        /* \"TFGv3/Contracts/SCOps.sol\":1920:1921  i */\n      dup8\n        /* \"TFGv3/Contracts/SCOps.sol\":1915:1922  path[i] */\n      dup2\n      dup2\n      lt\n      tag_91\n      jumpi\n      tag_91\n      tag_63\n      jump\t// in\n    tag_91:\n      swap1\n      pop\n      0x20\n      mul\n      add\n      0x20\n      dup2\n      add\n      swap1\n      tag_92\n      swap2\n      swap1\n      tag_24\n      jump\t// in\n    tag_92:\n        /* \"TFGv3/Contracts/SCOps.sol\":1908:1950  IERC20(path[i]).transfer(inputPair, qtyIn) */\n      mload(0x40)\n      0xa9059cbb00000000000000000000000000000000000000000000000000000000\n      dup2\n      mstore\n      sub(shl(0xa0, 0x01), 0x01)\n        /* \"#utility.yul\":2628:2683   */\n      dup8\n      dup2\n      and\n        /* \"TFGv3/Contracts/SCOps.sol\":1908:1950  IERC20(path[i]).transfer(inputPair, qtyIn) */\n      0x04\n      dup4\n      add\n        /* \"#utility.yul\":2610:2684   */\n      mstore\n        /* \"#utility.yul\":2700:2718   */\n      0x24\n      dup3\n      add\n        /* \"#utility.yul\":2693:2727   */\n      dup11\n      swap1\n      mstore\n        /* \"TFGv3/Contracts/SCOps.sol\":1908:1932  IERC20(path[i]).transfer */\n      swap2\n      swap1\n      swap2\n      and\n      swap1\n      0xa9059cbb\n      swap1\n        /* \"#utility.yul\":2583:2601   */\n      0x44\n      add\n        /* \"TFGv3/Contracts/SCOps.sol\":1908:1950  IERC20(path[i]).transfer(inputPair, qtyIn) */\n      0x20\n      mload(0x40)\n      dup1\n      dup4\n      sub\n      dup2\n      0x00\n      dup8\n      gas\n      call\n      iszero\n      dup1\n      iszero\n      tag_96\n      jumpi\n      returndatasize\n      0x00\n      dup1\n      returndatacopy\n      revert(0x00, returndatasize)\n    tag_96:\n      pop\n      pop\n      pop\n      pop\n      mload(0x40)\n      returndatasize\n      not(0x1f)\n      0x1f\n      dup3\n      add\n      and\n      dup3\n      add\n      dup1\n      0x40\n      mstore\n      pop\n      dup2\n      add\n      swap1\n      tag_97\n      swap2\n      swap1\n      tag_98\n      jump\t// in\n    tag_97:\n      pop\n        /* \"TFGv3/Contracts/SCOps.sol\":1670:2229  if (path[i] == IUniswapV2Pair(inputPair).token0())... */\n      jump(tag_99)\n    tag_87:\n        /* \"TFGv3/Contracts/SCOps.sol\":2026:2084  UniswapV2Library.getAmountOut(qtyIn, bReserves, aReserves) */\n      tag_100\n        /* \"TFGv3/Contracts/SCOps.sol\":2056:2061  qtyIn */\n      dup8\n        /* \"TFGv3/Contracts/SCOps.sol\":2063:2072  bReserves */\n      dup5\n        /* \"TFGv3/Contracts/SCOps.sol\":2074:2083  aReserves */\n      dup7\n        /* \"TFGv3/Contracts/SCOps.sol\":2026:2055  UniswapV2Library.getAmountOut */\n      tag_89\n        /* \"TFGv3/Contracts/SCOps.sol\":2026:2084  UniswapV2Library.getAmountOut(qtyIn, bReserves, aReserves) */\n      jump\t// in\n    tag_100:\n        /* \"TFGv3/Contracts/SCOps.sol\":2013:2084  amount0Out = UniswapV2Library.getAmountOut(qtyIn, bReserves, aReserves) */\n      swap7\n      pop\n      dup7\n      swap2\n      pop\n        /* \"TFGv3/Contracts/SCOps.sol\":2115:2116  0 */\n      0x00\n      swap1\n      pop\n        /* \"TFGv3/Contracts/SCOps.sol\":2177:2181  path */\n      dup11\n      dup11\n        /* \"TFGv3/Contracts/SCOps.sol\":2182:2185  i+1 */\n      tag_101\n        /* \"TFGv3/Contracts/SCOps.sol\":2182:2183  i */\n      dup9\n        /* \"TFGv3/Contracts/SCOps.sol\":2184:2185  1 */\n      0x01\n        /* \"TFGv3/Contracts/SCOps.sol\":2182:2185  i+1 */\n      tag_66\n      jump\t// in\n    tag_101:\n        /* \"TFGv3/Contracts/SCOps.sol\":2177:2186  path[i+1] */\n      dup2\n      dup2\n      lt\n      tag_103\n      jumpi\n      tag_103\n      tag_63\n      jump\t// in\n    tag_103:\n      swap1\n      pop\n      0x20\n      mul\n      add\n      0x20\n      dup2\n      add\n      swap1\n      tag_104\n      swap2\n      swap1\n      tag_24\n      jump\t// in\n    tag_104:\n        /* \"TFGv3/Contracts/SCOps.sol\":2170:2214  IERC20(path[i+1]).transfer(inputPair, qtyIn) */\n      mload(0x40)\n      0xa9059cbb00000000000000000000000000000000000000000000000000000000\n      dup2\n      mstore\n      sub(shl(0xa0, 0x01), 0x01)\n        /* \"#utility.yul\":2628:2683   */\n      dup8\n      dup2\n      and\n        /* \"TFGv3/Contracts/SCOps.sol\":2170:2214  IERC20(path[i+1]).transfer(inputPair, qtyIn) */\n      0x04\n      dup4\n      add\n        /* \"#utility.yul\":2610:2684   */\n      mstore\n        /* \"#utility.yul\":2700:2718   */\n      0x24\n      dup3\n      add\n        /* \"#utility.yul\":2693:2727   */\n      dup11\n      swap1\n      mstore\n        /* \"TFGv3/Contracts/SCOps.sol\":2170:2196  IERC20(path[i+1]).transfer */\n      swap2\n      swap1\n      swap2\n      and\n      swap1\n      0xa9059cbb\n      swap1\n        /* \"#utility.yul\":2583:2601   */\n      0x44\n      add\n        /* \"TFGv3/Contracts/SCOps.sol\":2170:2214  IERC20(path[i+1]).transfer(inputPair, qtyIn) */\n      0x20\n      mload(0x40)\n      dup1\n      dup4\n      sub\n      dup2\n      0x00\n      dup8\n      gas\n      call\n      iszero\n      dup1\n      iszero\n      tag_107\n      jumpi\n      returndatasize\n      0x00\n      dup1\n      returndatacopy\n      revert(0x00, returndatasize)\n    tag_107:\n      pop\n      pop\n      pop\n      pop\n      mload(0x40)\n      returndatasize\n      not(0x1f)\n      0x1f\n      dup3\n      add\n      and\n      dup3\n      add\n      dup1\n      0x40\n      mstore\n      pop\n      dup2\n      add\n      swap1\n      tag_108\n      swap2\n      swap1\n      tag_98\n      jump\t// in\n    tag_108:\n      pop\n        /* \"TFGv3/Contracts/SCOps.sol\":1670:2229  if (path[i] == IUniswapV2Pair(inputPair).token0())... */\n    tag_99:\n        /* \"TFGv3/Contracts/SCOps.sol\":2257:2266  inputPair */\n      dup5\n      sub(shl(0xa0, 0x01), 0x01)\n        /* \"TFGv3/Contracts/SCOps.sol\":2242:2272  IUniswapV2Pair(inputPair).swap */\n      and\n      0x022c0d9f\n        /* \"TFGv3/Contracts/SCOps.sol\":2273:2283  amount0Out */\n      dup4\n        /* \"TFGv3/Contracts/SCOps.sol\":2285:2295  amount1Out */\n      dup4\n        /* \"TFGv3/Contracts/SCOps.sol\":2304:2309  proxy */\n      0x00\n      dup1\n      sload\n      swap1\n      0x0100\n      exp\n      swap1\n      div\n      sub(shl(0xa0, 0x01), 0x01)\n      and\n      sub(shl(0xa0, 0x01), 0x01)\n        /* \"TFGv3/Contracts/SCOps.sol\":2297:2326  IProxy(proxy).storageContract */\n      and\n      0x11ce0267\n        /* \"TFGv3/Contracts/SCOps.sol\":2297:2328  IProxy(proxy).storageContract() */\n      mload(0x40)\n      dup2\n      0xffffffff\n      and\n      0xe0\n      shl\n      dup2\n      mstore\n      0x04\n      add\n      0x20\n      mload(0x40)\n      dup1\n      dup4\n      sub\n      dup2\n      dup7\n      gas\n      staticcall\n      iszero\n      dup1\n      iszero\n      tag_110\n      jumpi\n      returndatasize\n      0x00\n      dup1\n      returndatacopy\n      revert(0x00, returndatasize)\n    tag_110:\n      pop\n      pop\n      pop\n      pop\n      mload(0x40)\n      returndatasize\n      not(0x1f)\n      0x1f\n      dup3\n      add\n      and\n      dup3\n      add\n      dup1\n      0x40\n      mstore\n      pop\n      dup2\n      add\n      swap1\n      tag_111\n      swap2\n      swap1\n      tag_83\n      jump\t// in\n    tag_111:\n        /* \"TFGv3/Contracts/SCOps.sol\":2242:2333  IUniswapV2Pair(inputPair).swap(amount0Out, amount1Out, IProxy(proxy).storageContract(), \"\") */\n      mload(0x40)\n      0xffffffff00000000000000000000000000000000000000000000000000000000\n      0xe0\n      dup7\n      swap1\n      shl\n      and\n      dup2\n      mstore\n      0x04\n      dup2\n      add\n        /* \"#utility.yul\":3287:3312   */\n      swap4\n      swap1\n      swap4\n      mstore\n        /* \"#utility.yul\":3328:3346   */\n      0x24\n      dup4\n      add\n        /* \"#utility.yul\":3321:3355   */\n      swap2\n      swap1\n      swap2\n      mstore\n      sub(shl(0xa0, 0x01), 0x01)\n        /* \"#utility.yul\":3391:3446   */\n      and\n        /* \"#utility.yul\":3371:3389   */\n      0x44\n      dup3\n      add\n        /* \"#utility.yul\":3364:3447   */\n      mstore\n        /* \"#utility.yul\":3483:3486   */\n      0x80\n        /* \"#utility.yul\":3463:3481   */\n      0x64\n      dup3\n      add\n        /* \"#utility.yul\":3456:3487   */\n      mstore\n      0x00\n        /* \"#utility.yul\":3503:3522   */\n      0x84\n      dup3\n      add\n        /* \"#utility.yul\":3496:3526   */\n      mstore\n        /* \"#utility.yul\":3543:3562   */\n      0xa4\n      add\n        /* \"TFGv3/Contracts/SCOps.sol\":2242:2333  IUniswapV2Pair(inputPair).swap(amount0Out, amount1Out, IProxy(proxy).storageContract(), \"\") */\n      0x00\n      mload(0x40)\n      dup1\n      dup4\n      sub\n      dup2\n      0x00\n      dup8\n      dup1\n      extcodesize\n      iszero\n      dup1\n      iszero\n      tag_114\n      jumpi\n      0x00\n      dup1\n      revert\n    tag_114:\n      pop\n      gas\n      call\n      iszero\n      dup1\n      iszero\n      tag_116\n      jumpi\n      returndatasize\n      0x00\n      dup1\n      returndatacopy\n      revert(0x00, returndatasize)\n    tag_116:\n      pop\n      pop\n      pop\n      pop\n        /* \"TFGv3/Contracts/SCOps.sol\":1403:2344  {... */\n      pop\n      pop\n      pop\n      pop\n      pop\n        /* \"TFGv3/Contracts/SCOps.sol\":1390:1393  i++ */\n      dup1\n      dup1\n      tag_117\n      swap1\n      tag_118\n      jump\t// in\n    tag_117:\n      swap2\n      pop\n      pop\n        /* \"TFGv3/Contracts/SCOps.sol\":1355:2344  for(uint i = 0; i < path.length-1; i++)... */\n      jump(tag_55)\n    tag_56:\n      pop\n        /* \"TFGv3/Contracts/SCOps.sol\":1279:2350  {... */\n      pop\n      pop\n        /* \"TFGv3/Contracts/SCOps.sol\":1181:2350  function uniSwap(address[] calldata path, uint amount) external virtual override OnlyDeployer... */\n      pop\n      pop\n      pop\n      jump\t// out\n        /* \"TFGv3/Contracts/SCOps.sol\":2659:2924  function deleteContract(address newContract) external virtual override OnlyDeployer... */\n    tag_25:\n        /* \"TFGv3/Contracts/SCOps.sol\":712:722  msg.sender */\n      caller\n      sub(shl(0xa0, 0x01), 0x01)\n        /* \"TFGv3/Contracts/SCOps.sol\":726:734  deployer */\n      immutable(\"0x8ef666e6fda79053a53004a1b98be61a93ed2779d67f49986ff52dca2c41336b\")\n        /* \"TFGv3/Contracts/SCOps.sol\":712:734  msg.sender == deployer */\n      and\n      eq\n        /* \"TFGv3/Contracts/SCOps.sol\":704:735  require(msg.sender == deployer) */\n      tag_120\n      jumpi\n      0x00\n      dup1\n      revert\n    tag_120:\n        /* \"TFGv3/Contracts/SCOps.sol\":2846:2851  proxy */\n      sload(0x00)\n        /* \"TFGv3/Contracts/SCOps.sol\":2839:2876  IProxy(proxy).setOpsAddr(newContract) */\n      mload(0x40)\n      0xcf368a3900000000000000000000000000000000000000000000000000000000\n      dup2\n      mstore\n      sub(shl(0xa0, 0x01), 0x01)\n        /* \"#utility.yul\":1283:1338   */\n      dup4\n      dup2\n      and\n        /* \"TFGv3/Contracts/SCOps.sol\":2839:2876  IProxy(proxy).setOpsAddr(newContract) */\n      0x04\n      dup4\n      add\n        /* \"#utility.yul\":1265:1339   */\n      mstore\n        /* \"TFGv3/Contracts/SCOps.sol\":2846:2851  proxy */\n      swap1\n      swap2\n      and\n      swap1\n        /* \"TFGv3/Contracts/SCOps.sol\":2839:2863  IProxy(proxy).setOpsAddr */\n      0xcf368a39\n      swap1\n        /* \"#utility.yul\":1238:1256   */\n      0x24\n      add\n        /* \"TFGv3/Contracts/SCOps.sol\":2839:2876  IProxy(proxy).setOpsAddr(newContract) */\n      0x00\n      mload(0x40)\n      dup1\n      dup4\n      sub\n      dup2\n      0x00\n      dup8\n      dup1\n      extcodesize\n      iszero\n      dup1\n      iszero\n      tag_123\n      jumpi\n      0x00\n      dup1\n      revert\n    tag_123:\n      pop\n      gas\n      call\n      iszero\n      dup1\n      iszero\n      tag_125\n      jumpi\n      returndatasize\n      0x00\n      dup1\n      returndatacopy\n      revert(0x00, returndatasize)\n    tag_125:\n      pop\n      pop\n      pop\n      pop\n        /* \"TFGv3/Contracts/SCOps.sol\":2907:2915  deployer */\n      immutable(\"0x8ef666e6fda79053a53004a1b98be61a93ed2779d67f49986ff52dca2c41336b\")\n      sub(shl(0xa0, 0x01), 0x01)\n        /* \"TFGv3/Contracts/SCOps.sol\":2886:2917  selfdestruct(payable(deployer)) */\n      and\n      selfdestruct\n        /* \"TFGv3/Contracts/SCOps.sol\":970:1069  function setFactory(address factory) external OnlyDeployer... */\n    tag_34:\n        /* \"TFGv3/Contracts/SCOps.sol\":712:722  msg.sender */\n      caller\n      sub(shl(0xa0, 0x01), 0x01)\n        /* \"TFGv3/Contracts/SCOps.sol\":726:734  deployer */\n      immutable(\"0x8ef666e6fda79053a53004a1b98be61a93ed2779d67f49986ff52dca2c41336b\")\n        /* \"TFGv3/Contracts/SCOps.sol\":712:734  msg.sender == deployer */\n      and\n      eq\n        /* \"TFGv3/Contracts/SCOps.sol\":704:735  require(msg.sender == deployer) */\n      tag_127\n      jumpi\n      0x00\n      dup1\n      revert\n    tag_127:\n        /* \"TFGv3/Contracts/SCOps.sol\":1043:1052  v2factory */\n      0x01\n        /* \"TFGv3/Contracts/SCOps.sol\":1043:1062  v2factory = factory */\n      dup1\n      sload\n      0xffffffffffffffffffffffff0000000000000000000000000000000000000000\n      and\n      sub(shl(0xa0, 0x01), 0x01)\n      swap3\n      swap1\n      swap3\n      and\n      swap2\n      swap1\n      swap2\n      or\n      swap1\n      sstore\n        /* \"TFGv3/Contracts/SCOps.sol\":970:1069  function setFactory(address factory) external OnlyDeployer... */\n      jump\t// out\n        /* \"TFGv3/Contracts/SCOps.sol\":2498:2649  function updateProxy(address newAddr) external virtual override OnlyDeployer... */\n    tag_38:\n        /* \"TFGv3/Contracts/SCOps.sol\":712:722  msg.sender */\n      caller\n      sub(shl(0xa0, 0x01), 0x01)\n        /* \"TFGv3/Contracts/SCOps.sol\":726:734  deployer */\n      immutable(\"0x8ef666e6fda79053a53004a1b98be61a93ed2779d67f49986ff52dca2c41336b\")\n        /* \"TFGv3/Contracts/SCOps.sol\":712:734  msg.sender == deployer */\n      and\n      eq\n        /* \"TFGv3/Contracts/SCOps.sol\":704:735  require(msg.sender == deployer) */\n      tag_130\n      jumpi\n      0x00\n      dup1\n      revert\n    tag_130:\n        /* \"TFGv3/Contracts/SCOps.sol\":2611:2616  proxy */\n      and(sub(shl(0xa0, 0x01), 0x01), sload(0x00))\n        /* \"TFGv3/Contracts/SCOps.sol\":2597:2607  msg.sender */\n      caller\n        /* \"TFGv3/Contracts/SCOps.sol\":2597:2616  msg.sender == proxy */\n      eq\n        /* \"TFGv3/Contracts/SCOps.sol\":2589:2617  require(msg.sender == proxy) */\n      tag_132\n      jumpi\n      0x00\n      dup1\n      revert\n    tag_132:\n        /* \"TFGv3/Contracts/SCOps.sol\":2627:2632  proxy */\n      0x00\n        /* \"TFGv3/Contracts/SCOps.sol\":2627:2642  proxy = newAddr */\n      dup1\n      sload\n      0xffffffffffffffffffffffff0000000000000000000000000000000000000000\n      and\n      sub(shl(0xa0, 0x01), 0x01)\n      swap3\n      swap1\n      swap3\n      and\n      swap2\n      swap1\n      swap2\n      or\n      swap1\n      sstore\n        /* \"TFGv3/Contracts/SCOps.sol\":2498:2649  function updateProxy(address newAddr) external virtual override OnlyDeployer... */\n      jump\t// out\n        /* \"TFGv3/Contracts/SCOps.sol\":838:964  function initContract(address proxyAddr) external virtual override OnlyDeployer NonInit... */\n    tag_42:\n        /* \"TFGv3/Contracts/SCOps.sol\":712:722  msg.sender */\n      caller\n      sub(shl(0xa0, 0x01), 0x01)\n        /* \"TFGv3/Contracts/SCOps.sol\":726:734  deployer */\n      immutable(\"0x8ef666e6fda79053a53004a1b98be61a93ed2779d67f49986ff52dca2c41336b\")\n        /* \"TFGv3/Contracts/SCOps.sol\":712:734  msg.sender == deployer */\n      and\n      eq\n        /* \"TFGv3/Contracts/SCOps.sol\":704:735  require(msg.sender == deployer) */\n      tag_134\n      jumpi\n      0x00\n      dup1\n      revert\n    tag_134:\n        /* \"TFGv3/Contracts/SCOps.sol\":800:808  initDone */\n      sload(0x00)\n      0x010000000000000000000000000000000000000000\n      swap1\n      div\n      0xff\n      and\n        /* \"TFGv3/Contracts/SCOps.sol\":800:813  initDone == 0 */\n      iszero\n        /* \"TFGv3/Contracts/SCOps.sol\":792:814  require(initDone == 0) */\n      tag_132\n      jumpi\n      0x00\n      dup1\n      revert\n        /* \"TFGv3/Contracts/libraries/UniswapV2Library.sol\":760:1239  function pairFor(address factory, address tokenA, address tokenB) internal pure returns (address pair) {... */\n    tag_70:\n        /* \"TFGv3/Contracts/libraries/UniswapV2Library.sol\":849:861  address pair */\n      0x00\n        /* \"TFGv3/Contracts/libraries/UniswapV2Library.sol\":874:888  address token0 */\n      dup1\n        /* \"TFGv3/Contracts/libraries/UniswapV2Library.sol\":890:904  address token1 */\n      0x00\n        /* \"TFGv3/Contracts/libraries/UniswapV2Library.sol\":908:934  sortTokens(tokenA, tokenB) */\n      tag_139\n        /* \"TFGv3/Contracts/libraries/UniswapV2Library.sol\":919:925  tokenA */\n      dup6\n        /* \"TFGv3/Contracts/libraries/UniswapV2Library.sol\":927:933  tokenB */\n      dup6\n        /* \"TFGv3/Contracts/libraries/UniswapV2Library.sol\":908:918  sortTokens */\n      tag_140\n        /* \"TFGv3/Contracts/libraries/UniswapV2Library.sol\":908:934  sortTokens(tokenA, tokenB) */\n      jump\t// in\n    tag_139:\n        /* \"TFGv3/Contracts/libraries/UniswapV2Library.sol\":1076:1108  abi.encodePacked(token0, token1) */\n      mload(0x40)\n        /* \"#utility.yul\":3940:4006   */\n      0xffffffffffffffffffffffffffffffffffffffff000000000000000000000000\n        /* \"#utility.yul\":4035:4037   */\n      0x60\n        /* \"#utility.yul\":4031:4046   */\n      dup5\n      dup2\n      shl\n        /* \"#utility.yul\":4027:4051   */\n      dup3\n      and\n        /* \"TFGv3/Contracts/libraries/UniswapV2Library.sol\":1076:1108  abi.encodePacked(token0, token1) */\n      0x20\n      dup5\n      add\n        /* \"#utility.yul\":4015:4052   */\n      mstore\n        /* \"#utility.yul\":4086:4101   */\n      dup4\n      swap1\n      shl\n        /* \"#utility.yul\":4082:4106   */\n      and\n        /* \"#utility.yul\":4068:4080   */\n      0x34\n      dup3\n      add\n        /* \"#utility.yul\":4061:4107   */\n      mstore\n        /* \"TFGv3/Contracts/libraries/UniswapV2Library.sol\":873:934  (address token0, address token1) = sortTokens(tokenA, tokenB) */\n      swap2\n      swap4\n      pop\n      swap2\n      pop\n        /* \"TFGv3/Contracts/libraries/UniswapV2Library.sol\":1041:1048  factory */\n      dup7\n      swap1\n        /* \"#utility.yul\":4123:4135   */\n      0x48\n      add\n        /* \"TFGv3/Contracts/libraries/UniswapV2Library.sol\":1076:1108  abi.encodePacked(token0, token1) */\n      mload(0x40)\n      0x20\n      dup2\n      dup4\n      sub\n      sub\n      dup2\n      mstore\n      swap1\n      0x40\n      mstore\n        /* \"TFGv3/Contracts/libraries/UniswapV2Library.sol\":1066:1109  keccak256(abi.encodePacked(token0, token1)) */\n      dup1\n      mload\n      swap1\n      0x20\n      add\n      keccak256\n        /* \"TFGv3/Contracts/libraries/UniswapV2Library.sol\":982:1228  abi.encodePacked(... */\n      add(0x20, mload(0x40))\n      tag_143\n      swap3\n      swap2\n      swap1\n        /* \"#utility.yul\":4517:4583   */\n      0xff00000000000000000000000000000000000000000000000000000000000000\n        /* \"#utility.yul\":4505:4584   */\n      dup2\n      mstore\n        /* \"#utility.yul\":4621:4623   */\n      0x60\n        /* \"#utility.yul\":4617:4632   */\n      swap3\n      swap1\n      swap3\n      shl\n        /* \"#utility.yul\":4634:4700   */\n      0xffffffffffffffffffffffffffffffffffffffff000000000000000000000000\n        /* \"#utility.yul\":4613:4701   */\n      and\n        /* \"#utility.yul\":4609:4610   */\n      0x01\n        /* \"#utility.yul\":4600:4611   */\n      dup4\n      add\n        /* \"#utility.yul\":4593:4702   */\n      mstore\n        /* \"#utility.yul\":4727:4729   */\n      0x15\n        /* \"#utility.yul\":4718:4730   */\n      dup3\n      add\n        /* \"#utility.yul\":4711:4739   */\n      mstore\n        /* \"#utility.yul\":4769:4835   */\n      0x96e8ac4277198ff8b6f785478aa9a39f403cb768dd02cbee326c3e7da348845f\n        /* \"#utility.yul\":4764:4766   */\n      0x35\n        /* \"#utility.yul\":4755:4767   */\n      dup3\n      add\n        /* \"#utility.yul\":4748:4836   */\n      mstore\n        /* \"#utility.yul\":4861:4863   */\n      0x55\n        /* \"#utility.yul\":4852:4864   */\n      add\n      swap1\n        /* \"#utility.yul\":4146:4870   */\n      jump\n        /* \"TFGv3/Contracts/libraries/UniswapV2Library.sol\":982:1228  abi.encodePacked(... */\n    tag_143:\n      0x40\n      dup1\n      mload\n      0xffffffffffffffffffffffffffffffffffffffffffffffffffffffffffffffe0\n      dup2\n      dup5\n      sub\n      add\n      dup2\n      mstore\n      swap2\n      swap1\n      mstore\n        /* \"TFGv3/Contracts/libraries/UniswapV2Library.sol\":972:1229  keccak256(abi.encodePacked(... */\n      dup1\n      mload\n        /* \"TFGv3/Contracts/libraries/UniswapV2Library.sol\":982:1228  abi.encodePacked(... */\n      0x20\n        /* \"TFGv3/Contracts/libraries/UniswapV2Library.sol\":972:1229  keccak256(abi.encodePacked(... */\n      swap1\n      swap2\n      add\n      keccak256\n      swap7\n        /* \"TFGv3/Contracts/libraries/UniswapV2Library.sol\":760:1239  function pairFor(address factory, address tokenA, address tokenB) internal pure returns (address pair) {... */\n      swap6\n      pop\n      pop\n      pop\n      pop\n      pop\n      pop\n      jump\t// out\n        /* \"TFGv3/Contracts/libraries/UniswapV2Library.sol\":1294:1681  function getReserves(address factory, address tokenA, address tokenB) internal view returns (uint reserveA, uint reserveB) {... */\n    tag_79:\n        /* \"TFGv3/Contracts/libraries/UniswapV2Library.sol\":1387:1400  uint reserveA */\n      0x00\n        /* \"TFGv3/Contracts/libraries/UniswapV2Library.sol\":1402:1415  uint reserveB */\n      dup1\n        /* \"TFGv3/Contracts/libraries/UniswapV2Library.sol\":1428:1442  address token0 */\n      0x00\n        /* \"TFGv3/Contracts/libraries/UniswapV2Library.sol\":1447:1473  sortTokens(tokenA, tokenB) */\n      tag_146\n        /* \"TFGv3/Contracts/libraries/UniswapV2Library.sol\":1458:1464  tokenA */\n      dup6\n        /* \"TFGv3/Contracts/libraries/UniswapV2Library.sol\":1466:1472  tokenB */\n      dup6\n        /* \"TFGv3/Contracts/libraries/UniswapV2Library.sol\":1447:1457  sortTokens */\n      tag_140\n        /* \"TFGv3/Contracts/libraries/UniswapV2Library.sol\":1447:1473  sortTokens(tokenA, tokenB) */\n      jump\t// in\n    tag_146:\n        /* \"TFGv3/Contracts/libraries/UniswapV2Library.sol\":1427:1473  (address token0,) = sortTokens(tokenA, tokenB) */\n      pop\n      swap1\n      pop\n        /* \"TFGv3/Contracts/libraries/UniswapV2Library.sol\":1484:1497  uint reserve0 */\n      0x00\n        /* \"TFGv3/Contracts/libraries/UniswapV2Library.sol\":1499:1512  uint reserve1 */\n      dup1\n        /* \"TFGv3/Contracts/libraries/UniswapV2Library.sol\":1532:1564  pairFor(factory, tokenA, tokenB) */\n      tag_147\n        /* \"TFGv3/Contracts/libraries/UniswapV2Library.sol\":1540:1547  factory */\n      dup9\n        /* \"TFGv3/Contracts/libraries/UniswapV2Library.sol\":1549:1555  tokenA */\n      dup9\n        /* \"TFGv3/Contracts/libraries/UniswapV2Library.sol\":1557:1563  tokenB */\n      dup9\n        /* \"TFGv3/Contracts/libraries/UniswapV2Library.sol\":1532:1539  pairFor */\n      tag_70\n        /* \"TFGv3/Contracts/libraries/UniswapV2Library.sol\":1532:1564  pairFor(factory, tokenA, tokenB) */\n      jump\t// in\n    tag_147:\n      sub(shl(0xa0, 0x01), 0x01)\n        /* \"TFGv3/Contracts/libraries/UniswapV2Library.sol\":1517:1577  IUniswapV2Pair(pairFor(factory, tokenA, tokenB)).getReserves */\n      and\n      0x0902f1ac\n        /* \"TFGv3/Contracts/libraries/UniswapV2Library.sol\":1517:1579  IUniswapV2Pair(pairFor(factory, tokenA, tokenB)).getReserves() */\n      mload(0x40)\n      dup2\n      0xffffffff\n      and\n      0xe0\n      shl\n      dup2\n      mstore\n      0x04\n      add\n      0x60\n      mload(0x40)\n      dup1\n      dup4\n      sub\n      dup2\n      dup7\n      gas\n      staticcall\n      iszero\n      dup1\n      iszero\n      tag_149\n      jumpi\n      returndatasize\n      0x00\n      dup1\n      returndatacopy\n      revert(0x00, returndatasize)\n    tag_149:\n      pop\n      pop\n      pop\n      pop\n      mload(0x40)\n      returndatasize\n      not(0x1f)\n      0x1f\n      dup3\n      add\n      and\n      dup3\n      add\n      dup1\n      0x40\n      mstore\n      pop\n      dup2\n      add\n      swap1\n      tag_150\n      swap2\n      swap1\n      tag_151\n      jump\t// in\n    tag_150:\n        /* \"TFGv3/Contracts/libraries/UniswapV2Library.sol\":1483:1579  (uint reserve0, uint reserve1,) = IUniswapV2Pair(pairFor(factory, tokenA, tokenB)).getReserves() */\n      pop\n      0xffffffffffffffffffffffffffff\n      and\n      swap2\n      pop\n      0xffffffffffffffffffffffffffff\n      and\n      swap2\n      pop\n        /* \"TFGv3/Contracts/libraries/UniswapV2Library.sol\":1622:1628  token0 */\n      dup3\n      sub(shl(0xa0, 0x01), 0x01)\n        /* \"TFGv3/Contracts/libraries/UniswapV2Library.sol\":1612:1628  tokenA == token0 */\n      and\n        /* \"TFGv3/Contracts/libraries/UniswapV2Library.sol\":1612:1618  tokenA */\n      dup8\n      sub(shl(0xa0, 0x01), 0x01)\n        /* \"TFGv3/Contracts/libraries/UniswapV2Library.sol\":1612:1628  tokenA == token0 */\n      and\n      eq\n        /* \"TFGv3/Contracts/libraries/UniswapV2Library.sol\":1612:1674  tokenA == token0 ? (reserve0, reserve1) : (reserve1, reserve0) */\n      tag_152\n      jumpi\n        /* \"TFGv3/Contracts/libraries/UniswapV2Library.sol\":1655:1663  reserve1 */\n      dup1\n        /* \"TFGv3/Contracts/libraries/UniswapV2Library.sol\":1665:1673  reserve0 */\n      dup3\n        /* \"TFGv3/Contracts/libraries/UniswapV2Library.sol\":1612:1674  tokenA == token0 ? (reserve0, reserve1) : (reserve1, reserve0) */\n      jump(tag_153)\n    tag_152:\n        /* \"TFGv3/Contracts/libraries/UniswapV2Library.sol\":1632:1640  reserve0 */\n      dup2\n        /* \"TFGv3/Contracts/libraries/UniswapV2Library.sol\":1642:1650  reserve1 */\n      dup2\n        /* \"TFGv3/Contracts/libraries/UniswapV2Library.sol\":1612:1674  tokenA == token0 ? (reserve0, reserve1) : (reserve1, reserve0) */\n    tag_153:\n        /* \"TFGv3/Contracts/libraries/UniswapV2Library.sol\":1589:1674  (reserveA, reserveB) = tokenA == token0 ? (reserve0, reserve1) : (reserve1, reserve0) */\n      swap1\n      swap10\n      swap1\n      swap9\n      pop\n        /* \"TFGv3/Contracts/libraries/UniswapV2Library.sol\":1294:1681  function getReserves(address factory, address tokenA, address tokenB) internal view returns (uint reserveA, uint reserveB) {... */\n      swap7\n      pop\n      pop\n      pop\n      pop\n      pop\n      pop\n      pop\n      jump\t// out\n        /* \"TFGv3/Contracts/libraries/UniswapV2Library.sol\":2227:2737  function getAmountOut(uint amountIn, uint reserveIn, uint reserveOut) internal pure returns (uint amountOut) {... */\n    tag_89:\n        /* \"TFGv3/Contracts/libraries/UniswapV2Library.sol\":2320:2334  uint amountOut */\n      0x00\n        /* \"TFGv3/Contracts/libraries/UniswapV2Library.sol\":2365:2366  0 */\n      dup1\n        /* \"TFGv3/Contracts/libraries/UniswapV2Library.sol\":2354:2362  amountIn */\n      dup5\n        /* \"TFGv3/Contracts/libraries/UniswapV2Library.sol\":2354:2366  amountIn > 0 */\n      gt\n        /* \"TFGv3/Contracts/libraries/UniswapV2Library.sol\":2346:2414  require(amountIn > 0, 'UniswapV2Library: INSUFFICIENT_INPUT_AMOUNT') */\n      tag_155\n      jumpi\n      mload(0x40)\n      shl(0xe5, 0x461bcd)\n      dup2\n      mstore\n        /* \"#utility.yul\":5725:5727   */\n      0x20\n        /* \"TFGv3/Contracts/libraries/UniswapV2Library.sol\":2346:2414  require(amountIn > 0, 'UniswapV2Library: INSUFFICIENT_INPUT_AMOUNT') */\n      0x04\n      dup3\n      add\n        /* \"#utility.yul\":5707:5728   */\n      mstore\n        /* \"#utility.yul\":5764:5766   */\n      0x2b\n        /* \"#utility.yul\":5744:5762   */\n      0x24\n      dup3\n      add\n        /* \"#utility.yul\":5737:5767   */\n      mstore\n        /* \"#utility.yul\":5803:5837   */\n      0x556e697377617056324c6962726172793a20494e53554646494349454e545f49\n        /* \"#utility.yul\":5783:5801   */\n      0x44\n      dup3\n      add\n        /* \"#utility.yul\":5776:5838   */\n      mstore\n        /* \"#utility.yul\":5874:5887   */\n      0x4e5055545f414d4f554e54000000000000000000000000000000000000000000\n        /* \"#utility.yul\":5854:5872   */\n      0x64\n      dup3\n      add\n        /* \"#utility.yul\":5847:5888   */\n      mstore\n        /* \"#utility.yul\":5905:5924   */\n      0x84\n      add\n        /* \"TFGv3/Contracts/libraries/UniswapV2Library.sol\":2346:2414  require(amountIn > 0, 'UniswapV2Library: INSUFFICIENT_INPUT_AMOUNT') */\n    tag_156:\n      mload(0x40)\n      dup1\n      swap2\n      sub\n      swap1\n      revert\n    tag_155:\n        /* \"TFGv3/Contracts/libraries/UniswapV2Library.sol\":2444:2445  0 */\n      0x00\n        /* \"TFGv3/Contracts/libraries/UniswapV2Library.sol\":2432:2441  reserveIn */\n      dup4\n        /* \"TFGv3/Contracts/libraries/UniswapV2Library.sol\":2432:2445  reserveIn > 0 */\n      gt\n        /* \"TFGv3/Contracts/libraries/UniswapV2Library.sol\":2432:2463  reserveIn > 0 && reserveOut > 0 */\n      dup1\n      iszero\n      tag_158\n      jumpi\n      pop\n        /* \"TFGv3/Contracts/libraries/UniswapV2Library.sol\":2462:2463  0 */\n      0x00\n        /* \"TFGv3/Contracts/libraries/UniswapV2Library.sol\":2449:2459  reserveOut */\n      dup3\n        /* \"TFGv3/Contracts/libraries/UniswapV2Library.sol\":2449:2463  reserveOut > 0 */\n      gt\n        /* \"TFGv3/Contracts/libraries/UniswapV2Library.sol\":2432:2463  reserveIn > 0 && reserveOut > 0 */\n    tag_158:\n        /* \"TFGv3/Contracts/libraries/UniswapV2Library.sol\":2424:2508  require(reserveIn > 0 && reserveOut > 0, 'UniswapV2Library: INSUFFICIENT_LIQUIDITY') */\n      tag_159\n      jumpi\n      mload(0x40)\n      shl(0xe5, 0x461bcd)\n      dup2\n      mstore\n        /* \"#utility.yul\":6137:6139   */\n      0x20\n        /* \"TFGv3/Contracts/libraries/UniswapV2Library.sol\":2424:2508  require(reserveIn > 0 && reserveOut > 0, 'UniswapV2Library: INSUFFICIENT_LIQUIDITY') */\n      0x04\n      dup3\n      add\n        /* \"#utility.yul\":6119:6140   */\n      mstore\n        /* \"#utility.yul\":6176:6178   */\n      0x28\n        /* \"#utility.yul\":6156:6174   */\n      0x24\n      dup3\n      add\n        /* \"#utility.yul\":6149:6179   */\n      mstore\n        /* \"#utility.yul\":6215:6249   */\n      0x556e697377617056324c6962726172793a20494e53554646494349454e545f4c\n        /* \"#utility.yul\":6195:6213   */\n      0x44\n      dup3\n      add\n        /* \"#utility.yul\":6188:6250   */\n      mstore\n        /* \"#utility.yul\":6286:6296   */\n      0x4951554944495459000000000000000000000000000000000000000000000000\n        /* \"#utility.yul\":6266:6284   */\n      0x64\n      dup3\n      add\n        /* \"#utility.yul\":6259:6297   */\n      mstore\n        /* \"#utility.yul\":6314:6333   */\n      0x84\n      add\n        /* \"TFGv3/Contracts/libraries/UniswapV2Library.sol\":2424:2508  require(reserveIn > 0 && reserveOut > 0, 'UniswapV2Library: INSUFFICIENT_LIQUIDITY') */\n      tag_156\n        /* \"#utility.yul\":5935:6339   */\n      jump\n        /* \"TFGv3/Contracts/libraries/UniswapV2Library.sol\":2424:2508  require(reserveIn > 0 && reserveOut > 0, 'UniswapV2Library: INSUFFICIENT_LIQUIDITY') */\n    tag_159:\n        /* \"TFGv3/Contracts/libraries/UniswapV2Library.sol\":2518:2538  uint amountInWithFee */\n      0x00\n        /* \"TFGv3/Contracts/libraries/UniswapV2Library.sol\":2541:2558  amountIn.mul(997) */\n      tag_162\n        /* \"TFGv3/Contracts/libraries/UniswapV2Library.sol\":2541:2549  amountIn */\n      dup6\n        /* \"TFGv3/Contracts/libraries/UniswapV2Library.sol\":2554:2557  997 */\n      0x03e5\n        /* \"TFGv3/Contracts/libraries/UniswapV2Library.sol\":2541:2553  amountIn.mul */\n      tag_163\n        /* \"TFGv3/Contracts/libraries/UniswapV2Library.sol\":2541:2558  amountIn.mul(997) */\n      jump\t// in\n    tag_162:\n        /* \"TFGv3/Contracts/libraries/UniswapV2Library.sol\":2518:2558  uint amountInWithFee = amountIn.mul(997) */\n      swap1\n      pop\n        /* \"TFGv3/Contracts/libraries/UniswapV2Library.sol\":2568:2582  uint numerator */\n      0x00\n        /* \"TFGv3/Contracts/libraries/UniswapV2Library.sol\":2585:2616  amountInWithFee.mul(reserveOut) */\n      tag_164\n        /* \"TFGv3/Contracts/libraries/UniswapV2Library.sol\":2518:2558  uint amountInWithFee = amountIn.mul(997) */\n      dup3\n        /* \"TFGv3/Contracts/libraries/UniswapV2Library.sol\":2605:2615  reserveOut */\n      dup6\n        /* \"TFGv3/Contracts/libraries/UniswapV2Library.sol\":2585:2604  amountInWithFee.mul */\n      tag_163\n        /* \"TFGv3/Contracts/libraries/UniswapV2Library.sol\":2585:2616  amountInWithFee.mul(reserveOut) */\n      jump\t// in\n    tag_164:\n        /* \"TFGv3/Contracts/libraries/UniswapV2Library.sol\":2568:2616  uint numerator = amountInWithFee.mul(reserveOut) */\n      swap1\n      pop\n        /* \"TFGv3/Contracts/libraries/UniswapV2Library.sol\":2626:2642  uint denominator */\n      0x00\n        /* \"TFGv3/Contracts/libraries/UniswapV2Library.sol\":2645:2685  reserveIn.mul(1000).add(amountInWithFee) */\n      tag_165\n        /* \"TFGv3/Contracts/libraries/UniswapV2Library.sol\":2669:2684  amountInWithFee */\n      dup4\n        /* \"TFGv3/Contracts/libraries/UniswapV2Library.sol\":2645:2664  reserveIn.mul(1000) */\n      tag_166\n        /* \"TFGv3/Contracts/libraries/UniswapV2Library.sol\":2645:2654  reserveIn */\n      dup9\n        /* \"TFGv3/Contracts/libraries/UniswapV2Library.sol\":2659:2663  1000 */\n      0x03e8\n        /* \"TFGv3/Contracts/libraries/UniswapV2Library.sol\":2645:2658  reserveIn.mul */\n      tag_163\n        /* \"TFGv3/Contracts/libraries/UniswapV2Library.sol\":2645:2664  reserveIn.mul(1000) */\n      jump\t// in\n    tag_166:\n        /* \"TFGv3/Contracts/libraries/UniswapV2Library.sol\":2645:2668  reserveIn.mul(1000).add */\n      swap1\n      tag_167\n        /* \"TFGv3/Contracts/libraries/UniswapV2Library.sol\":2645:2685  reserveIn.mul(1000).add(amountInWithFee) */\n      jump\t// in\n    tag_165:\n        /* \"TFGv3/Contracts/libraries/UniswapV2Library.sol\":2626:2685  uint denominator = reserveIn.mul(1000).add(amountInWithFee) */\n      swap1\n      pop\n        /* \"TFGv3/Contracts/libraries/UniswapV2Library.sol\":2707:2730  numerator / denominator */\n      tag_168\n        /* \"TFGv3/Contracts/libraries/UniswapV2Library.sol\":2626:2685  uint denominator = reserveIn.mul(1000).add(amountInWithFee) */\n      dup2\n        /* \"TFGv3/Contracts/libraries/UniswapV2Library.sol\":2707:2716  numerator */\n      dup4\n        /* \"TFGv3/Contracts/libraries/UniswapV2Library.sol\":2707:2730  numerator / denominator */\n      tag_169\n      jump\t// in\n    tag_168:\n        /* \"TFGv3/Contracts/libraries/UniswapV2Library.sol\":2695:2730  amountOut = numerator / denominator */\n      swap8\n        /* \"TFGv3/Contracts/libraries/UniswapV2Library.sol\":2227:2737  function getAmountOut(uint amountIn, uint reserveIn, uint reserveOut) internal pure returns (uint amountOut) {... */\n      swap7\n      pop\n      pop\n      pop\n      pop\n      pop\n      pop\n      pop\n      jump\t// out\n        /* \"TFGv3/Contracts/libraries/UniswapV2Library.sol\":326:671  function sortTokens(address tokenA, address tokenB) internal pure returns (address token0, address token1) {... */\n    tag_140:\n        /* \"TFGv3/Contracts/libraries/UniswapV2Library.sol\":401:415  address token0 */\n      0x00\n        /* \"TFGv3/Contracts/libraries/UniswapV2Library.sol\":417:431  address token1 */\n      dup1\n        /* \"TFGv3/Contracts/libraries/UniswapV2Library.sol\":461:467  tokenB */\n      dup3\n      sub(shl(0xa0, 0x01), 0x01)\n        /* \"TFGv3/Contracts/libraries/UniswapV2Library.sol\":451:467  tokenA != tokenB */\n      and\n        /* \"TFGv3/Contracts/libraries/UniswapV2Library.sol\":451:457  tokenA */\n      dup5\n      sub(shl(0xa0, 0x01), 0x01)\n        /* \"TFGv3/Contracts/libraries/UniswapV2Library.sol\":451:467  tokenA != tokenB */\n      and\n      sub\n        /* \"TFGv3/Contracts/libraries/UniswapV2Library.sol\":443:509  require(tokenA != tokenB, 'UniswapV2Library: IDENTICAL_ADDRESSES') */\n      tag_171\n      jumpi\n      mload(0x40)\n      shl(0xe5, 0x461bcd)\n      dup2\n      mstore\n        /* \"#utility.yul\":6825:6827   */\n      0x20\n        /* \"TFGv3/Contracts/libraries/UniswapV2Library.sol\":443:509  require(tokenA != tokenB, 'UniswapV2Library: IDENTICAL_ADDRESSES') */\n      0x04\n      dup3\n      add\n        /* \"#utility.yul\":6807:6828   */\n      mstore\n        /* \"#utility.yul\":6864:6866   */\n      0x25\n        /* \"#utility.yul\":6844:6862   */\n      0x24\n      dup3\n      add\n        /* \"#utility.yul\":6837:6867   */\n      mstore\n        /* \"#utility.yul\":6903:6937   */\n      0x556e697377617056324c6962726172793a204944454e544943414c5f41444452\n        /* \"#utility.yul\":6883:6901   */\n      0x44\n      dup3\n      add\n        /* \"#utility.yul\":6876:6938   */\n      mstore\n        /* \"#utility.yul\":6974:6981   */\n      0x4553534553000000000000000000000000000000000000000000000000000000\n        /* \"#utility.yul\":6954:6972   */\n      0x64\n      dup3\n      add\n        /* \"#utility.yul\":6947:6982   */\n      mstore\n        /* \"#utility.yul\":6999:7018   */\n      0x84\n      add\n        /* \"TFGv3/Contracts/libraries/UniswapV2Library.sol\":443:509  require(tokenA != tokenB, 'UniswapV2Library: IDENTICAL_ADDRESSES') */\n      tag_156\n        /* \"#utility.yul\":6623:7024   */\n      jump\n        /* \"TFGv3/Contracts/libraries/UniswapV2Library.sol\":443:509  require(tokenA != tokenB, 'UniswapV2Library: IDENTICAL_ADDRESSES') */\n    tag_171:\n        /* \"TFGv3/Contracts/libraries/UniswapV2Library.sol\":547:553  tokenB */\n      dup3\n      sub(shl(0xa0, 0x01), 0x01)\n        /* \"TFGv3/Contracts/libraries/UniswapV2Library.sol\":538:553  tokenA < tokenB */\n      and\n        /* \"TFGv3/Contracts/libraries/UniswapV2Library.sol\":538:544  tokenA */\n      dup5\n      sub(shl(0xa0, 0x01), 0x01)\n        /* \"TFGv3/Contracts/libraries/UniswapV2Library.sol\":538:553  tokenA < tokenB */\n      and\n      lt\n        /* \"TFGv3/Contracts/libraries/UniswapV2Library.sol\":538:591  tokenA < tokenB ? (tokenA, tokenB) : (tokenB, tokenA) */\n      tag_174\n      jumpi\n        /* \"TFGv3/Contracts/libraries/UniswapV2Library.sol\":576:582  tokenB */\n      dup3\n        /* \"TFGv3/Contracts/libraries/UniswapV2Library.sol\":584:590  tokenA */\n      dup5\n        /* \"TFGv3/Contracts/libraries/UniswapV2Library.sol\":538:591  tokenA < tokenB ? (tokenA, tokenB) : (tokenB, tokenA) */\n      jump(tag_175)\n    tag_174:\n        /* \"TFGv3/Contracts/libraries/UniswapV2Library.sol\":557:563  tokenA */\n      dup4\n        /* \"TFGv3/Contracts/libraries/UniswapV2Library.sol\":565:571  tokenB */\n      dup4\n        /* \"TFGv3/Contracts/libraries/UniswapV2Library.sol\":538:591  tokenA < tokenB ? (tokenA, tokenB) : (tokenB, tokenA) */\n    tag_175:\n        /* \"TFGv3/Contracts/libraries/UniswapV2Library.sol\":519:591  (token0, token1) = tokenA < tokenB ? (tokenA, tokenB) : (tokenB, tokenA) */\n      swap1\n      swap3\n      pop\n      swap1\n      pop\n      sub(shl(0xa0, 0x01), 0x01)\n        /* \"TFGv3/Contracts/libraries/UniswapV2Library.sol\":609:629  token0 != address(0) */\n      dup3\n      and\n        /* \"TFGv3/Contracts/libraries/UniswapV2Library.sol\":601:664  require(token0 != address(0), 'UniswapV2Library: ZERO_ADDRESS') */\n      tag_176\n      jumpi\n      mload(0x40)\n      shl(0xe5, 0x461bcd)\n      dup2\n      mstore\n        /* \"#utility.yul\":7231:7233   */\n      0x20\n        /* \"TFGv3/Contracts/libraries/UniswapV2Library.sol\":601:664  require(token0 != address(0), 'UniswapV2Library: ZERO_ADDRESS') */\n      0x04\n      dup3\n      add\n        /* \"#utility.yul\":7213:7234   */\n      mstore\n        /* \"#utility.yul\":7270:7272   */\n      0x1e\n        /* \"#utility.yul\":7250:7268   */\n      0x24\n      dup3\n      add\n        /* \"#utility.yul\":7243:7273   */\n      mstore\n        /* \"#utility.yul\":7309:7341   */\n      0x556e697377617056324c6962726172793a205a45524f5f414444524553530000\n        /* \"#utility.yul\":7289:7307   */\n      0x44\n      dup3\n      add\n        /* \"#utility.yul\":7282:7342   */\n      mstore\n        /* \"#utility.yul\":7359:7377   */\n      0x64\n      add\n        /* \"TFGv3/Contracts/libraries/UniswapV2Library.sol\":601:664  require(token0 != address(0), 'UniswapV2Library: ZERO_ADDRESS') */\n      tag_156\n        /* \"#utility.yul\":7029:7383   */\n      jump\n        /* \"TFGv3/Contracts/libraries/UniswapV2Library.sol\":601:664  require(token0 != address(0), 'UniswapV2Library: ZERO_ADDRESS') */\n    tag_176:\n        /* \"TFGv3/Contracts/libraries/UniswapV2Library.sol\":326:671  function sortTokens(address tokenA, address tokenB) internal pure returns (address token0, address token1) {... */\n      swap3\n      pop\n      swap3\n      swap1\n      pop\n      jump\t// out\n        /* \"TFGv3/Contracts/libraries/SafeMath.sol\":3531:3746  function mul(uint256 a, uint256 b) internal pure returns (uint256) {... */\n    tag_163:\n        /* \"TFGv3/Contracts/libraries/SafeMath.sol\":3589:3596  uint256 */\n      0x00\n        /* \"TFGv3/Contracts/libraries/SafeMath.sol\":3612:3613  a */\n      dup3\n        /* \"TFGv3/Contracts/libraries/SafeMath.sol\":3617:3618  0 */\n      0x00\n        /* \"TFGv3/Contracts/libraries/SafeMath.sol\":3612:3618  a == 0 */\n      sub\n        /* \"TFGv3/Contracts/libraries/SafeMath.sol\":3608:3628  if (a == 0) return 0 */\n      tag_180\n      jumpi\n      pop\n        /* \"TFGv3/Contracts/libraries/SafeMath.sol\":3627:3628  0 */\n      0x00\n        /* \"TFGv3/Contracts/libraries/SafeMath.sol\":3620:3628  return 0 */\n      jump(tag_179)\n        /* \"TFGv3/Contracts/libraries/SafeMath.sol\":3608:3628  if (a == 0) return 0 */\n    tag_180:\n        /* \"TFGv3/Contracts/libraries/SafeMath.sol\":3638:3647  uint256 c */\n      0x00\n        /* \"TFGv3/Contracts/libraries/SafeMath.sol\":3650:3655  a * b */\n      tag_181\n        /* \"TFGv3/Contracts/libraries/SafeMath.sol\":3654:3655  b */\n      dup4\n        /* \"TFGv3/Contracts/libraries/SafeMath.sol\":3650:3651  a */\n      dup6\n        /* \"TFGv3/Contracts/libraries/SafeMath.sol\":3650:3655  a * b */\n      tag_182\n      jump\t// in\n    tag_181:\n        /* \"TFGv3/Contracts/libraries/SafeMath.sol\":3638:3655  uint256 c = a * b */\n      swap1\n      pop\n        /* \"TFGv3/Contracts/libraries/SafeMath.sol\":3682:3683  b */\n      dup3\n        /* \"TFGv3/Contracts/libraries/SafeMath.sol\":3673:3678  c / a */\n      tag_183\n        /* \"TFGv3/Contracts/libraries/SafeMath.sol\":3677:3678  a */\n      dup6\n        /* \"TFGv3/Contracts/libraries/SafeMath.sol\":3638:3655  uint256 c = a * b */\n      dup4\n        /* \"TFGv3/Contracts/libraries/SafeMath.sol\":3673:3678  c / a */\n      tag_169\n      jump\t// in\n    tag_183:\n        /* \"TFGv3/Contracts/libraries/SafeMath.sol\":3673:3683  c / a == b */\n      eq\n        /* \"TFGv3/Contracts/libraries/SafeMath.sol\":3665:3721  require(c / a == b, \"SafeMath: multiplication overflow\") */\n      tag_184\n      jumpi\n      mload(0x40)\n      shl(0xe5, 0x461bcd)\n      dup2\n      mstore\n        /* \"#utility.yul\":7823:7825   */\n      0x20\n        /* \"TFGv3/Contracts/libraries/SafeMath.sol\":3665:3721  require(c / a == b, \"SafeMath: multiplication overflow\") */\n      0x04\n      dup3\n      add\n        /* \"#utility.yul\":7805:7826   */\n      mstore\n        /* \"#utility.yul\":7862:7864   */\n      0x21\n        /* \"#utility.yul\":7842:7860   */\n      0x24\n      dup3\n      add\n        /* \"#utility.yul\":7835:7865   */\n      mstore\n        /* \"#utility.yul\":7901:7935   */\n      0x536166654d6174683a206d756c7469706c69636174696f6e206f766572666c6f\n        /* \"#utility.yul\":7881:7899   */\n      0x44\n      dup3\n      add\n        /* \"#utility.yul\":7874:7936   */\n      mstore\n        /* \"#utility.yul\":7972:7975   */\n      0x7700000000000000000000000000000000000000000000000000000000000000\n        /* \"#utility.yul\":7952:7970   */\n      0x64\n      dup3\n      add\n        /* \"#utility.yul\":7945:7976   */\n      mstore\n        /* \"#utility.yul\":7993:8012   */\n      0x84\n      add\n        /* \"TFGv3/Contracts/libraries/SafeMath.sol\":3665:3721  require(c / a == b, \"SafeMath: multiplication overflow\") */\n      tag_156\n        /* \"#utility.yul\":7621:8018   */\n      jump\n        /* \"TFGv3/Contracts/libraries/SafeMath.sol\":3665:3721  require(c / a == b, \"SafeMath: multiplication overflow\") */\n    tag_184:\n        /* \"TFGv3/Contracts/libraries/SafeMath.sol\":3738:3739  c */\n      swap1\n      pop\n        /* \"TFGv3/Contracts/libraries/SafeMath.sol\":3531:3746  function mul(uint256 a, uint256 b) internal pure returns (uint256) {... */\n    tag_179:\n      swap3\n      swap2\n      pop\n      pop\n      jump\t// out\n        /* \"TFGv3/Contracts/libraries/SafeMath.sol\":2683:2858  function add(uint256 a, uint256 b) internal pure returns (uint256) {... */\n    tag_167:\n        /* \"TFGv3/Contracts/libraries/SafeMath.sol\":2741:2748  uint256 */\n      0x00\n      dup1\n        /* \"TFGv3/Contracts/libraries/SafeMath.sol\":2772:2777  a + b */\n      tag_188\n        /* \"TFGv3/Contracts/libraries/SafeMath.sol\":2776:2777  b */\n      dup4\n        /* \"TFGv3/Contracts/libraries/SafeMath.sol\":2772:2773  a */\n      dup6\n        /* \"TFGv3/Contracts/libraries/SafeMath.sol\":2772:2777  a + b */\n      tag_66\n      jump\t// in\n    tag_188:\n        /* \"TFGv3/Contracts/libraries/SafeMath.sol\":2760:2777  uint256 c = a + b */\n      swap1\n      pop\n        /* \"TFGv3/Contracts/libraries/SafeMath.sol\":2800:2801  a */\n      dup4\n        /* \"TFGv3/Contracts/libraries/SafeMath.sol\":2795:2796  c */\n      dup2\n        /* \"TFGv3/Contracts/libraries/SafeMath.sol\":2795:2801  c >= a */\n      lt\n      iszero\n        /* \"TFGv3/Contracts/libraries/SafeMath.sol\":2787:2833  require(c >= a, \"SafeMath: addition overflow\") */\n      tag_184\n      jumpi\n      mload(0x40)\n      shl(0xe5, 0x461bcd)\n      dup2\n      mstore\n        /* \"#utility.yul\":8225:8227   */\n      0x20\n        /* \"TFGv3/Contracts/libraries/SafeMath.sol\":2787:2833  require(c >= a, \"SafeMath: addition overflow\") */\n      0x04\n      dup3\n      add\n        /* \"#utility.yul\":8207:8228   */\n      mstore\n        /* \"#utility.yul\":8264:8266   */\n      0x1b\n        /* \"#utility.yul\":8244:8262   */\n      0x24\n      dup3\n      add\n        /* \"#utility.yul\":8237:8267   */\n      mstore\n        /* \"#utility.yul\":8303:8332   */\n      0x536166654d6174683a206164646974696f6e206f766572666c6f770000000000\n        /* \"#utility.yul\":8283:8301   */\n      0x44\n      dup3\n      add\n        /* \"#utility.yul\":8276:8333   */\n      mstore\n        /* \"#utility.yul\":8350:8368   */\n      0x64\n      add\n        /* \"TFGv3/Contracts/libraries/SafeMath.sol\":2787:2833  require(c >= a, \"SafeMath: addition overflow\") */\n      tag_156\n        /* \"#utility.yul\":8023:8374   */\n      jump\n        /* \"#utility.yul\":14:703   */\n    tag_19:\n        /* \"#utility.yul\":109:115   */\n      0x00\n        /* \"#utility.yul\":117:123   */\n      dup1\n        /* \"#utility.yul\":125:131   */\n      0x00\n        /* \"#utility.yul\":178:180   */\n      0x40\n        /* \"#utility.yul\":166:175   */\n      dup5\n        /* \"#utility.yul\":157:164   */\n      dup7\n        /* \"#utility.yul\":153:176   */\n      sub\n        /* \"#utility.yul\":149:181   */\n      slt\n        /* \"#utility.yul\":146:198   */\n      iszero\n      tag_197\n      jumpi\n        /* \"#utility.yul\":194:195   */\n      0x00\n        /* \"#utility.yul\":191:192   */\n      dup1\n        /* \"#utility.yul\":184:196   */\n      revert\n        /* \"#utility.yul\":146:198   */\n    tag_197:\n        /* \"#utility.yul\":234:243   */\n      dup4\n        /* \"#utility.yul\":221:244   */\n      calldataload\n        /* \"#utility.yul\":263:281   */\n      0xffffffffffffffff\n        /* \"#utility.yul\":304:306   */\n      dup1\n        /* \"#utility.yul\":296:302   */\n      dup3\n        /* \"#utility.yul\":293:307   */\n      gt\n        /* \"#utility.yul\":290:324   */\n      iszero\n      tag_198\n      jumpi\n        /* \"#utility.yul\":320:321   */\n      0x00\n        /* \"#utility.yul\":317:318   */\n      dup1\n        /* \"#utility.yul\":310:322   */\n      revert\n        /* \"#utility.yul\":290:324   */\n    tag_198:\n        /* \"#utility.yul\":358:364   */\n      dup2\n        /* \"#utility.yul\":347:356   */\n      dup7\n        /* \"#utility.yul\":343:365   */\n      add\n        /* \"#utility.yul\":333:365   */\n      swap2\n      pop\n        /* \"#utility.yul\":403:410   */\n      dup7\n        /* \"#utility.yul\":396:400   */\n      0x1f\n        /* \"#utility.yul\":392:394   */\n      dup4\n        /* \"#utility.yul\":388:401   */\n      add\n        /* \"#utility.yul\":384:411   */\n      slt\n        /* \"#utility.yul\":374:429   */\n      tag_199\n      jumpi\n        /* \"#utility.yul\":425:426   */\n      0x00\n        /* \"#utility.yul\":422:423   */\n      dup1\n        /* \"#utility.yul\":415:427   */\n      revert\n        /* \"#utility.yul\":374:429   */\n    tag_199:\n        /* \"#utility.yul\":465:467   */\n      dup2\n        /* \"#utility.yul\":452:468   */\n      calldataload\n        /* \"#utility.yul\":491:493   */\n      dup2\n        /* \"#utility.yul\":483:489   */\n      dup2\n        /* \"#utility.yul\":480:494   */\n      gt\n        /* \"#utility.yul\":477:511   */\n      iszero\n      tag_200\n      jumpi\n        /* \"#utility.yul\":507:508   */\n      0x00\n        /* \"#utility.yul\":504:505   */\n      dup1\n        /* \"#utility.yul\":497:509   */\n      revert\n        /* \"#utility.yul\":477:511   */\n    tag_200:\n        /* \"#utility.yul\":562:569   */\n      dup8\n        /* \"#utility.yul\":555:559   */\n      0x20\n        /* \"#utility.yul\":545:551   */\n      dup3\n        /* \"#utility.yul\":542:543   */\n      0x05\n        /* \"#utility.yul\":538:552   */\n      shl\n        /* \"#utility.yul\":534:536   */\n      dup6\n        /* \"#utility.yul\":530:553   */\n      add\n        /* \"#utility.yul\":526:560   */\n      add\n        /* \"#utility.yul\":523:570   */\n      gt\n        /* \"#utility.yul\":520:587   */\n      iszero\n      tag_201\n      jumpi\n        /* \"#utility.yul\":583:584   */\n      0x00\n        /* \"#utility.yul\":580:581   */\n      dup1\n        /* \"#utility.yul\":573:585   */\n      revert\n        /* \"#utility.yul\":520:587   */\n    tag_201:\n        /* \"#utility.yul\":614:618   */\n      0x20\n        /* \"#utility.yul\":606:619   */\n      swap3\n      dup4\n      add\n      swap9\n        /* \"#utility.yul\":638:644   */\n      swap1\n      swap8\n      pop\n        /* \"#utility.yul\":676:696   */\n      swap6\n      swap1\n      swap2\n      add\n        /* \"#utility.yul\":663:697   */\n      calldataload\n      swap5\n        /* \"#utility.yul\":14:703   */\n      swap4\n      pop\n      pop\n      pop\n      pop\n      jump\t// out\n        /* \"#utility.yul\":708:862   */\n    tag_192:\n      sub(shl(0xa0, 0x01), 0x01)\n        /* \"#utility.yul\":787:792   */\n      dup2\n        /* \"#utility.yul\":783:837   */\n      and\n        /* \"#utility.yul\":776:781   */\n      dup2\n        /* \"#utility.yul\":773:838   */\n      eq\n        /* \"#utility.yul\":763:856   */\n      tag_203\n      jumpi\n        /* \"#utility.yul\":852:853   */\n      0x00\n        /* \"#utility.yul\":849:850   */\n      dup1\n        /* \"#utility.yul\":842:854   */\n      revert\n        /* \"#utility.yul\":763:856   */\n    tag_203:\n        /* \"#utility.yul\":708:862   */\n      pop\n      jump\t// out\n        /* \"#utility.yul\":867:1114   */\n    tag_24:\n        /* \"#utility.yul\":926:932   */\n      0x00\n        /* \"#utility.yul\":979:981   */\n      0x20\n        /* \"#utility.yul\":967:976   */\n      dup3\n        /* \"#utility.yul\":958:965   */\n      dup5\n        /* \"#utility.yul\":954:977   */\n      sub\n        /* \"#utility.yul\":950:982   */\n      slt\n        /* \"#utility.yul\":947:999   */\n      iszero\n      tag_205\n      jumpi\n        /* \"#utility.yul\":995:996   */\n      0x00\n        /* \"#utility.yul\":992:993   */\n      dup1\n        /* \"#utility.yul\":985:997   */\n      revert\n        /* \"#utility.yul\":947:999   */\n    tag_205:\n        /* \"#utility.yul\":1034:1043   */\n      dup2\n        /* \"#utility.yul\":1021:1044   */\n      calldataload\n        /* \"#utility.yul\":1053:1084   */\n      tag_184\n        /* \"#utility.yul\":1078:1083   */\n      dup2\n        /* \"#utility.yul\":1053:1084   */\n      tag_192\n      jump\t// in\n        /* \"#utility.yul\":1539:1723   */\n    tag_193:\n        /* \"#utility.yul\":1591:1668   */\n      0x4e487b7100000000000000000000000000000000000000000000000000000000\n        /* \"#utility.yul\":1588:1589   */\n      0x00\n        /* \"#utility.yul\":1581:1669   */\n      mstore\n        /* \"#utility.yul\":1688:1692   */\n      0x11\n        /* \"#utility.yul\":1685:1686   */\n      0x04\n        /* \"#utility.yul\":1678:1693   */\n      mstore\n        /* \"#utility.yul\":1712:1716   */\n      0x24\n        /* \"#utility.yul\":1709:1710   */\n      0x00\n        /* \"#utility.yul\":1702:1717   */\n      revert\n        /* \"#utility.yul\":1728:1853   */\n    tag_59:\n        /* \"#utility.yul\":1768:1772   */\n      0x00\n        /* \"#utility.yul\":1796:1797   */\n      dup3\n        /* \"#utility.yul\":1793:1794   */\n      dup3\n        /* \"#utility.yul\":1790:1798   */\n      lt\n        /* \"#utility.yul\":1787:1821   */\n      iszero\n      tag_212\n      jumpi\n        /* \"#utility.yul\":1801:1819   */\n      tag_212\n      tag_193\n      jump\t// in\n    tag_212:\n      pop\n        /* \"#utility.yul\":1838:1847   */\n      sub\n      swap1\n        /* \"#utility.yul\":1728:1853   */\n      jump\t// out\n        /* \"#utility.yul\":1858:2042   */\n    tag_63:\n        /* \"#utility.yul\":1910:1987   */\n      0x4e487b7100000000000000000000000000000000000000000000000000000000\n        /* \"#utility.yul\":1907:1908   */\n      0x00\n        /* \"#utility.yul\":1900:1988   */\n      mstore\n        /* \"#utility.yul\":2007:2011   */\n      0x32\n        /* \"#utility.yul\":2004:2005   */\n      0x04\n        /* \"#utility.yul\":1997:2012   */\n      mstore\n        /* \"#utility.yul\":2031:2035   */\n      0x24\n        /* \"#utility.yul\":2028:2029   */\n      0x00\n        /* \"#utility.yul\":2021:2036   */\n      revert\n        /* \"#utility.yul\":2047:2175   */\n    tag_66:\n        /* \"#utility.yul\":2087:2090   */\n      0x00\n        /* \"#utility.yul\":2118:2119   */\n      dup3\n        /* \"#utility.yul\":2114:2120   */\n      not\n        /* \"#utility.yul\":2111:2112   */\n      dup3\n        /* \"#utility.yul\":2108:2121   */\n      gt\n        /* \"#utility.yul\":2105:2144   */\n      iszero\n      tag_216\n      jumpi\n        /* \"#utility.yul\":2124:2142   */\n      tag_216\n      tag_193\n      jump\t// in\n    tag_216:\n      pop\n        /* \"#utility.yul\":2160:2169   */\n      add\n      swap1\n        /* \"#utility.yul\":2047:2175   */\n      jump\t// out\n        /* \"#utility.yul\":2180:2431   */\n    tag_83:\n        /* \"#utility.yul\":2250:2256   */\n      0x00\n        /* \"#utility.yul\":2303:2305   */\n      0x20\n        /* \"#utility.yul\":2291:2300   */\n      dup3\n        /* \"#utility.yul\":2282:2289   */\n      dup5\n        /* \"#utility.yul\":2278:2301   */\n      sub\n        /* \"#utility.yul\":2274:2306   */\n      slt\n        /* \"#utility.yul\":2271:2323   */\n      iszero\n      tag_218\n      jumpi\n        /* \"#utility.yul\":2319:2320   */\n      0x00\n        /* \"#utility.yul\":2316:2317   */\n      dup1\n        /* \"#utility.yul\":2309:2321   */\n      revert\n        /* \"#utility.yul\":2271:2323   */\n    tag_218:\n        /* \"#utility.yul\":2351:2360   */\n      dup2\n        /* \"#utility.yul\":2345:2361   */\n      mload\n        /* \"#utility.yul\":2370:2401   */\n      tag_184\n        /* \"#utility.yul\":2395:2400   */\n      dup2\n        /* \"#utility.yul\":2370:2401   */\n      tag_192\n      jump\t// in\n        /* \"#utility.yul\":2738:3015   */\n    tag_98:\n        /* \"#utility.yul\":2805:2811   */\n      0x00\n        /* \"#utility.yul\":2858:2860   */\n      0x20\n        /* \"#utility.yul\":2846:2855   */\n      dup3\n        /* \"#utility.yul\":2837:2844   */\n      dup5\n        /* \"#utility.yul\":2833:2856   */\n      sub\n        /* \"#utility.yul\":2829:2861   */\n      slt\n        /* \"#utility.yul\":2826:2878   */\n      iszero\n      tag_222\n      jumpi\n        /* \"#utility.yul\":2874:2875   */\n      0x00\n        /* \"#utility.yul\":2871:2872   */\n      dup1\n        /* \"#utility.yul\":2864:2876   */\n      revert\n        /* \"#utility.yul\":2826:2878   */\n    tag_222:\n        /* \"#utility.yul\":2906:2915   */\n      dup2\n        /* \"#utility.yul\":2900:2916   */\n      mload\n        /* \"#utility.yul\":2959:2964   */\n      dup1\n        /* \"#utility.yul\":2952:2965   */\n      iszero\n        /* \"#utility.yul\":2945:2966   */\n      iszero\n        /* \"#utility.yul\":2938:2943   */\n      dup2\n        /* \"#utility.yul\":2935:2967   */\n      eq\n        /* \"#utility.yul\":2925:2985   */\n      tag_184\n      jumpi\n        /* \"#utility.yul\":2981:2982   */\n      0x00\n        /* \"#utility.yul\":2978:2979   */\n      dup1\n        /* \"#utility.yul\":2971:2983   */\n      revert\n        /* \"#utility.yul\":3573:3768   */\n    tag_118:\n        /* \"#utility.yul\":3612:3615   */\n      0x00\n        /* \"#utility.yul\":3643:3709   */\n      0xffffffffffffffffffffffffffffffffffffffffffffffffffffffffffffffff\n        /* \"#utility.yul\":3636:3641   */\n      dup3\n        /* \"#utility.yul\":3633:3710   */\n      sub\n        /* \"#utility.yul\":3630:3733   */\n      tag_227\n      jumpi\n        /* \"#utility.yul\":3713:3731   */\n      tag_227\n      tag_193\n      jump\t// in\n    tag_227:\n      pop\n        /* \"#utility.yul\":3760:3761   */\n      0x01\n        /* \"#utility.yul\":3749:3762   */\n      add\n      swap1\n        /* \"#utility.yul\":3573:3768   */\n      jump\t// out\n        /* \"#utility.yul\":4875:5063   */\n    tag_194:\n        /* \"#utility.yul\":4954:4967   */\n      dup1\n      mload\n        /* \"#utility.yul\":5007:5037   */\n      0xffffffffffffffffffffffffffff\n        /* \"#utility.yul\":4996:5038   */\n      dup2\n      and\n        /* \"#utility.yul\":4986:5039   */\n      dup2\n      eq\n        /* \"#utility.yul\":4976:5057   */\n      tag_231\n      jumpi\n        /* \"#utility.yul\":5053:5054   */\n      0x00\n        /* \"#utility.yul\":5050:5051   */\n      dup1\n        /* \"#utility.yul\":5043:5055   */\n      revert\n        /* \"#utility.yul\":4976:5057   */\n    tag_231:\n        /* \"#utility.yul\":4875:5063   */\n      swap2\n      swap1\n      pop\n      jump\t// out\n        /* \"#utility.yul\":5068:5518   */\n    tag_151:\n        /* \"#utility.yul\":5155:5161   */\n      0x00\n        /* \"#utility.yul\":5163:5169   */\n      dup1\n        /* \"#utility.yul\":5171:5177   */\n      0x00\n        /* \"#utility.yul\":5224:5226   */\n      0x60\n        /* \"#utility.yul\":5212:5221   */\n      dup5\n        /* \"#utility.yul\":5203:5210   */\n      dup7\n        /* \"#utility.yul\":5199:5222   */\n      sub\n        /* \"#utility.yul\":5195:5227   */\n      slt\n        /* \"#utility.yul\":5192:5244   */\n      iszero\n      tag_233\n      jumpi\n        /* \"#utility.yul\":5240:5241   */\n      0x00\n        /* \"#utility.yul\":5237:5238   */\n      dup1\n        /* \"#utility.yul\":5230:5242   */\n      revert\n        /* \"#utility.yul\":5192:5244   */\n    tag_233:\n        /* \"#utility.yul\":5263:5303   */\n      tag_234\n        /* \"#utility.yul\":5293:5302   */\n      dup5\n        /* \"#utility.yul\":5263:5303   */\n      tag_194\n      jump\t// in\n    tag_234:\n        /* \"#utility.yul\":5253:5303   */\n      swap3\n      pop\n        /* \"#utility.yul\":5322:5371   */\n      tag_235\n        /* \"#utility.yul\":5367:5369   */\n      0x20\n        /* \"#utility.yul\":5356:5365   */\n      dup6\n        /* \"#utility.yul\":5352:5370   */\n      add\n        /* \"#utility.yul\":5322:5371   */\n      tag_194\n      jump\t// in\n    tag_235:\n        /* \"#utility.yul\":5312:5371   */\n      swap2\n      pop\n        /* \"#utility.yul\":5414:5416   */\n      0x40\n        /* \"#utility.yul\":5403:5412   */\n      dup5\n        /* \"#utility.yul\":5399:5417   */\n      add\n        /* \"#utility.yul\":5393:5418   */\n      mload\n        /* \"#utility.yul\":5458:5468   */\n      0xffffffff\n        /* \"#utility.yul\":5451:5456   */\n      dup2\n        /* \"#utility.yul\":5447:5469   */\n      and\n        /* \"#utility.yul\":5440:5445   */\n      dup2\n        /* \"#utility.yul\":5437:5470   */\n      eq\n        /* \"#utility.yul\":5427:5488   */\n      tag_236\n      jumpi\n        /* \"#utility.yul\":5484:5485   */\n      0x00\n        /* \"#utility.yul\":5481:5482   */\n      dup1\n        /* \"#utility.yul\":5474:5486   */\n      revert\n        /* \"#utility.yul\":5427:5488   */\n    tag_236:\n        /* \"#utility.yul\":5507:5512   */\n      dup1\n        /* \"#utility.yul\":5497:5512   */\n      swap2\n      pop\n      pop\n        /* \"#utility.yul\":5068:5518   */\n      swap3\n      pop\n      swap3\n      pop\n      swap3\n      jump\t// out\n        /* \"#utility.yul\":6344:6618   */\n    tag_169:\n        /* \"#utility.yul\":6384:6385   */\n      0x00\n        /* \"#utility.yul\":6410:6411   */\n      dup3\n        /* \"#utility.yul\":6400:6589   */\n      tag_240\n      jumpi\n        /* \"#utility.yul\":6445:6522   */\n      0x4e487b7100000000000000000000000000000000000000000000000000000000\n        /* \"#utility.yul\":6442:6443   */\n      0x00\n        /* \"#utility.yul\":6435:6523   */\n      mstore\n        /* \"#utility.yul\":6546:6550   */\n      0x12\n        /* \"#utility.yul\":6543:6544   */\n      0x04\n        /* \"#utility.yul\":6536:6551   */\n      mstore\n        /* \"#utility.yul\":6574:6578   */\n      0x24\n        /* \"#utility.yul\":6571:6572   */\n      0x00\n        /* \"#utility.yul\":6564:6579   */\n      revert\n        /* \"#utility.yul\":6400:6589   */\n    tag_240:\n      pop\n        /* \"#utility.yul\":6603:6612   */\n      div\n      swap1\n        /* \"#utility.yul\":6344:6618   */\n      jump\t// out\n        /* \"#utility.yul\":7388:7616   */\n    tag_182:\n        /* \"#utility.yul\":7428:7435   */\n      0x00\n        /* \"#utility.yul\":7554:7555   */\n      dup2\n        /* \"#utility.yul\":7486:7552   */\n      0xffffffffffffffffffffffffffffffffffffffffffffffffffffffffffffffff\n        /* \"#utility.yul\":7482:7556   */\n      div\n        /* \"#utility.yul\":7479:7480   */\n      dup4\n        /* \"#utility.yul\":7476:7557   */\n      gt\n        /* \"#utility.yul\":7471:7472   */\n      dup3\n        /* \"#utility.yul\":7464:7473   */\n      iszero\n        /* \"#utility.yul\":7457:7474   */\n      iszero\n        /* \"#utility.yul\":7453:7558   */\n      and\n        /* \"#utility.yul\":7450:7581   */\n      iszero\n      tag_245\n      jumpi\n        /* \"#utility.yul\":7561:7579   */\n      tag_245\n      tag_193\n      jump\t// in\n    tag_245:\n      pop\n        /* \"#utility.yul\":7601:7610   */\n      mul\n      swap1\n        /* \"#utility.yul\":7388:7616   */\n      jump\t// out\n\n    auxdata: 0xa2646970667358221220bf250a691bb87a574b2eb8f039dbbb51ba331d68d30849b25ce7be92316da2f664736f6c634300080e0033\n}\n",
				"bytecode": {
					"linkReferences": {},
					"object": "60a060405234801561001057600080fd5b50336080526080516110dc610053600039600081816101dc0152818161067a0152818161071e01528181610753015281816107c2015261084801526110dc6000f3fe60806040526004361061007f5760003560e01c80639e9551491161004e5780639e9551491461012d578063cf9d4afa1461014d578063ec5568891461016d578063fed0a20e1461018d57600080fd5b80631fa4e9701461008e5780632637a477146100b0578063330807a9146100d05780635bb478081461010d57600080fd5b3661008957600080fd5b600080fd5b34801561009a57600080fd5b506100ae6100a9366004610e07565b6101d1565b005b3480156100bc57600080fd5b506100ae6100cb366004610e9a565b61066f565b3480156100dc57600080fd5b506001546100f0906001600160a01b031681565b6040516001600160a01b0390911681526020015b60405180910390f35b34801561011957600080fd5b506100ae610128366004610e9a565b610748565b34801561013957600080fd5b506100ae610148366004610e9a565b6107b7565b34801561015957600080fd5b506100ae610168366004610e9a565b61083d565b34801561017957600080fd5b506000546100f0906001600160a01b031681565b34801561019957600080fd5b506000546101bf9074010000000000000000000000000000000000000000900460ff1681565b60405160ff9091168152602001610104565b336001600160a01b037f0000000000000000000000000000000000000000000000000000000000000000161461020657600080fd5b6001546001600160a01b03168160005b610221600186610ee6565b81101561066757600061028b8488888581811061024057610240610efd565b90506020020160208101906102559190610e9a565b8989610262876001610f2c565b81811061027157610271610efd565b90506020020160208101906102869190610e9a565b61089a565b90506000806102f1868a8a878181106102a6576102a6610efd565b90506020020160208101906102bb9190610e9a565b8b8b6102c8896001610f2c565b8181106102d7576102d7610efd565b90506020020160208101906102ec9190610e9a565b6109cf565b91509150600080846001600160a01b0316630dfe16816040518163ffffffff1660e01b8152600401602060405180830381865afa158015610336573d6000803e3d6000fd5b505050506040513d601f19601f8201168201806040525081019061035a9190610f44565b6001600160a01b03168b8b8881811061037557610375610efd565b905060200201602081019061038a9190610e9a565b6001600160a01b03160361046757600091506103a7878585610aa7565b90508096508a8a878181106103be576103be610efd565b90506020020160208101906103d39190610e9a565b6040517fa9059cbb0000000000000000000000000000000000000000000000000000000081526001600160a01b038781166004830152602482018a9052919091169063a9059cbb906044016020604051808303816000875af115801561043d573d6000803e3d6000fd5b505050506040513d601f19601f820116820180604052508101906104619190610f61565b5061053c565b610472878486610aa7565b9650869150600090508a8a610488886001610f2c565b81811061049757610497610efd565b90506020020160208101906104ac9190610e9a565b6040517fa9059cbb0000000000000000000000000000000000000000000000000000000081526001600160a01b038781166004830152602482018a9052919091169063a9059cbb906044016020604051808303816000875af1158015610516573d6000803e3d6000fd5b505050506040513d601f19601f8201168201806040525081019061053a9190610f61565b505b846001600160a01b031663022c0d9f838360008054906101000a90046001600160a01b03166001600160a01b03166311ce02676040518163ffffffff1660e01b8152600401602060405180830381865afa15801561059e573d6000803e3d6000fd5b505050506040513d601f19601f820116820180604052508101906105c29190610f44565b6040517fffffffff0000000000000000000000000000000000000000000000000000000060e086901b168152600481019390935260248301919091526001600160a01b03166044820152608060648201526000608482015260a401600060405180830381600087803b15801561063757600080fd5b505af115801561064b573d6000803e3d6000fd5b505050505050505050808061065f90610f83565b915050610216565b505050505050565b336001600160a01b037f000000000000000000000000000000000000000000000000000000000000000016146106a457600080fd5b6000546040517fcf368a390000000000000000000000000000000000000000000000000000000081526001600160a01b0383811660048301529091169063cf368a3990602401600060405180830381600087803b15801561070457600080fd5b505af1158015610718573d6000803e3d6000fd5b505050507f00000000000000000000000000000000000000000000000000000000000000006001600160a01b0316ff5b336001600160a01b037f0000000000000000000000000000000000000000000000000000000000000000161461077d57600080fd5b600180547fffffffffffffffffffffffff0000000000000000000000000000000000000000166001600160a01b0392909216919091179055565b336001600160a01b037f000000000000000000000000000000000000000000000000000000000000000016146107ec57600080fd5b6000546001600160a01b0316331461080357600080fd5b600080547fffffffffffffffffffffffff0000000000000000000000000000000000000000166001600160a01b0392909216919091179055565b336001600160a01b037f0000000000000000000000000000000000000000000000000000000000000000161461087257600080fd5b60005474010000000000000000000000000000000000000000900460ff161561080357600080fd5b60008060006108a98585610bf2565b6040517fffffffffffffffffffffffffffffffffffffffff000000000000000000000000606084811b8216602084015283901b166034820152919350915086906048016040516020818303038152906040528051906020012060405160200161098f9291907fff00000000000000000000000000000000000000000000000000000000000000815260609290921b7fffffffffffffffffffffffffffffffffffffffff00000000000000000000000016600183015260158201527f96e8ac4277198ff8b6f785478aa9a39f403cb768dd02cbee326c3e7da348845f603582015260550190565b604080517fffffffffffffffffffffffffffffffffffffffffffffffffffffffffffffffe081840301815291905280516020909101209695505050505050565b60008060006109de8585610bf2565b5090506000806109ef88888861089a565b6001600160a01b0316630902f1ac6040518163ffffffff1660e01b8152600401606060405180830381865afa158015610a2c573d6000803e3d6000fd5b505050506040513d601f19601f82011682018060405250810190610a509190610fde565b506dffffffffffffffffffffffffffff1691506dffffffffffffffffffffffffffff169150826001600160a01b0316876001600160a01b031614610a95578082610a98565b81815b90999098509650505050505050565b6000808411610b235760405162461bcd60e51b815260206004820152602b60248201527f556e697377617056324c6962726172793a20494e53554646494349454e545f4960448201527f4e5055545f414d4f554e5400000000000000000000000000000000000000000060648201526084015b60405180910390fd5b600083118015610b335750600082115b610ba55760405162461bcd60e51b815260206004820152602860248201527f556e697377617056324c6962726172793a20494e53554646494349454e545f4c60448201527f49515549444954590000000000000000000000000000000000000000000000006064820152608401610b1a565b6000610bb3856103e5610d01565b90506000610bc18285610d01565b90506000610bdb83610bd5886103e8610d01565b90610da8565b9050610be7818361102e565b979650505050505050565b600080826001600160a01b0316846001600160a01b031603610c7c5760405162461bcd60e51b815260206004820152602560248201527f556e697377617056324c6962726172793a204944454e544943414c5f4144445260448201527f45535345530000000000000000000000000000000000000000000000000000006064820152608401610b1a565b826001600160a01b0316846001600160a01b031610610c9c578284610c9f565b83835b90925090506001600160a01b038216610cfa5760405162461bcd60e51b815260206004820152601e60248201527f556e697377617056324c6962726172793a205a45524f5f4144445245535300006044820152606401610b1a565b9250929050565b600082600003610d1357506000610da2565b6000610d1f8385611069565b905082610d2c858361102e565b14610d9f5760405162461bcd60e51b815260206004820152602160248201527f536166654d6174683a206d756c7469706c69636174696f6e206f766572666c6f60448201527f77000000000000000000000000000000000000000000000000000000000000006064820152608401610b1a565b90505b92915050565b600080610db58385610f2c565b905083811015610d9f5760405162461bcd60e51b815260206004820152601b60248201527f536166654d6174683a206164646974696f6e206f766572666c6f7700000000006044820152606401610b1a565b600080600060408486031215610e1c57600080fd5b833567ffffffffffffffff80821115610e3457600080fd5b818601915086601f830112610e4857600080fd5b813581811115610e5757600080fd5b8760208260051b8501011115610e6c57600080fd5b6020928301989097509590910135949350505050565b6001600160a01b0381168114610e9757600080fd5b50565b600060208284031215610eac57600080fd5b8135610d9f81610e82565b7f4e487b7100000000000000000000000000000000000000000000000000000000600052601160045260246000fd5b600082821015610ef857610ef8610eb7565b500390565b7f4e487b7100000000000000000000000000000000000000000000000000000000600052603260045260246000fd5b60008219821115610f3f57610f3f610eb7565b500190565b600060208284031215610f5657600080fd5b8151610d9f81610e82565b600060208284031215610f7357600080fd5b81518015158114610d9f57600080fd5b60007fffffffffffffffffffffffffffffffffffffffffffffffffffffffffffffffff8203610fb457610fb4610eb7565b5060010190565b80516dffffffffffffffffffffffffffff81168114610fd957600080fd5b919050565b600080600060608486031215610ff357600080fd5b610ffc84610fbb565b925061100a60208501610fbb565b9150604084015163ffffffff8116811461102357600080fd5b809150509250925092565b600082611064577f4e487b7100000000000000000000000000000000000000000000000000000000600052601260045260246000fd5b500490565b6000817fffffffffffffffffffffffffffffffffffffffffffffffffffffffffffffffff04831182151516156110a1576110a1610eb7565b50029056fea2646970667358221220bf250a691bb87a574b2eb8f039dbbb51ba331d68d30849b25ce7be92316da2f664736f6c634300080e0033",
					"opcodes": "PUSH1 0xA0 PUSH1 0x40 MSTORE CALLVALUE DUP1 ISZERO PUSH2 0x10 JUMPI PUSH1 0x0 DUP1 REVERT JUMPDEST POP CALLER PUSH1 0x80 MSTORE PUSH1 0x80 MLOAD PUSH2 0x10DC PUSH2 0x53 PUSH1 0x0 CODECOPY PUSH1 0x0 DUP2 DUP2 PUSH2 0x1DC ADD MSTORE DUP2 DUP2 PUSH2 0x67A ADD MSTORE DUP2 DUP2 PUSH2 0x71E ADD MSTORE DUP2 DUP2 PUSH2 0x753 ADD MSTORE DUP2 DUP2 PUSH2 0x7C2 ADD MSTORE PUSH2 0x848 ADD MSTORE PUSH2 0x10DC PUSH1 0x0 RETURN INVALID PUSH1 0x80 PUSH1 0x40 MSTORE PUSH1 0x4 CALLDATASIZE LT PUSH2 0x7F JUMPI PUSH1 0x0 CALLDATALOAD PUSH1 0xE0 SHR DUP1 PUSH4 0x9E955149 GT PUSH2 0x4E JUMPI DUP1 PUSH4 0x9E955149 EQ PUSH2 0x12D JUMPI DUP1 PUSH4 0xCF9D4AFA EQ PUSH2 0x14D JUMPI DUP1 PUSH4 0xEC556889 EQ PUSH2 0x16D JUMPI DUP1 PUSH4 0xFED0A20E EQ PUSH2 0x18D JUMPI PUSH1 0x0 DUP1 REVERT JUMPDEST DUP1 PUSH4 0x1FA4E970 EQ PUSH2 0x8E JUMPI DUP1 PUSH4 0x2637A477 EQ PUSH2 0xB0 JUMPI DUP1 PUSH4 0x330807A9 EQ PUSH2 0xD0 JUMPI DUP1 PUSH4 0x5BB47808 EQ PUSH2 0x10D JUMPI PUSH1 0x0 DUP1 REVERT JUMPDEST CALLDATASIZE PUSH2 0x89 JUMPI PUSH1 0x0 DUP1 REVERT JUMPDEST PUSH1 0x0 DUP1 REVERT JUMPDEST CALLVALUE DUP1 ISZERO PUSH2 0x9A JUMPI PUSH1 0x0 DUP1 REVERT JUMPDEST POP PUSH2 0xAE PUSH2 0xA9 CALLDATASIZE PUSH1 0x4 PUSH2 0xE07 JUMP JUMPDEST PUSH2 0x1D1 JUMP JUMPDEST STOP JUMPDEST CALLVALUE DUP1 ISZERO PUSH2 0xBC JUMPI PUSH1 0x0 DUP1 REVERT JUMPDEST POP PUSH2 0xAE PUSH2 0xCB CALLDATASIZE PUSH1 0x4 PUSH2 0xE9A JUMP JUMPDEST PUSH2 0x66F JUMP JUMPDEST CALLVALUE DUP1 ISZERO PUSH2 0xDC JUMPI PUSH1 0x0 DUP1 REVERT JUMPDEST POP PUSH1 0x1 SLOAD PUSH2 0xF0 SWAP1 PUSH1 0x1 PUSH1 0x1 PUSH1 0xA0 SHL SUB AND DUP2 JUMP JUMPDEST PUSH1 0x40 MLOAD PUSH1 0x1 PUSH1 0x1 PUSH1 0xA0 SHL SUB SWAP1 SWAP2 AND DUP2 MSTORE PUSH1 0x20 ADD JUMPDEST PUSH1 0x40 MLOAD DUP1 SWAP2 SUB SWAP1 RETURN JUMPDEST CALLVALUE DUP1 ISZERO PUSH2 0x119 JUMPI PUSH1 0x0 DUP1 REVERT JUMPDEST POP PUSH2 0xAE PUSH2 0x128 CALLDATASIZE PUSH1 0x4 PUSH2 0xE9A JUMP JUMPDEST PUSH2 0x748 JUMP JUMPDEST CALLVALUE DUP1 ISZERO PUSH2 0x139 JUMPI PUSH1 0x0 DUP1 REVERT JUMPDEST POP PUSH2 0xAE PUSH2 0x148 CALLDATASIZE PUSH1 0x4 PUSH2 0xE9A JUMP JUMPDEST PUSH2 0x7B7 JUMP JUMPDEST CALLVALUE DUP1 ISZERO PUSH2 0x159 JUMPI PUSH1 0x0 DUP1 REVERT JUMPDEST POP PUSH2 0xAE PUSH2 0x168 CALLDATASIZE PUSH1 0x4 PUSH2 0xE9A JUMP JUMPDEST PUSH2 0x83D JUMP JUMPDEST CALLVALUE DUP1 ISZERO PUSH2 0x179 JUMPI PUSH1 0x0 DUP1 REVERT JUMPDEST POP PUSH1 0x0 SLOAD PUSH2 0xF0 SWAP1 PUSH1 0x1 PUSH1 0x1 PUSH1 0xA0 SHL SUB AND DUP2 JUMP JUMPDEST CALLVALUE DUP1 ISZERO PUSH2 0x199 JUMPI PUSH1 0x0 DUP1 REVERT JUMPDEST POP PUSH1 0x0 SLOAD PUSH2 0x1BF SWAP1 PUSH21 0x10000000000000000000000000000000000000000 SWAP1 DIV PUSH1 0xFF AND DUP2 JUMP JUMPDEST PUSH1 0x40 MLOAD PUSH1 0xFF SWAP1 SWAP2 AND DUP2 MSTORE PUSH1 0x20 ADD PUSH2 0x104 JUMP JUMPDEST CALLER PUSH1 0x1 PUSH1 0x1 PUSH1 0xA0 SHL SUB PUSH32 0x0 AND EQ PUSH2 0x206 JUMPI PUSH1 0x0 DUP1 REVERT JUMPDEST PUSH1 0x1 SLOAD PUSH1 0x1 PUSH1 0x1 PUSH1 0xA0 SHL SUB AND DUP2 PUSH1 0x0 JUMPDEST PUSH2 0x221 PUSH1 0x1 DUP7 PUSH2 0xEE6 JUMP JUMPDEST DUP2 LT ISZERO PUSH2 0x667 JUMPI PUSH1 0x0 PUSH2 0x28B DUP5 DUP9 DUP9 DUP6 DUP2 DUP2 LT PUSH2 0x240 JUMPI PUSH2 0x240 PUSH2 0xEFD JUMP JUMPDEST SWAP1 POP PUSH1 0x20 MUL ADD PUSH1 0x20 DUP2 ADD SWAP1 PUSH2 0x255 SWAP2 SWAP1 PUSH2 0xE9A JUMP JUMPDEST DUP10 DUP10 PUSH2 0x262 DUP8 PUSH1 0x1 PUSH2 0xF2C JUMP JUMPDEST DUP2 DUP2 LT PUSH2 0x271 JUMPI PUSH2 0x271 PUSH2 0xEFD JUMP JUMPDEST SWAP1 POP PUSH1 0x20 MUL ADD PUSH1 0x20 DUP2 ADD SWAP1 PUSH2 0x286 SWAP2 SWAP1 PUSH2 0xE9A JUMP JUMPDEST PUSH2 0x89A JUMP JUMPDEST SWAP1 POP PUSH1 0x0 DUP1 PUSH2 0x2F1 DUP7 DUP11 DUP11 DUP8 DUP2 DUP2 LT PUSH2 0x2A6 JUMPI PUSH2 0x2A6 PUSH2 0xEFD JUMP JUMPDEST SWAP1 POP PUSH1 0x20 MUL ADD PUSH1 0x20 DUP2 ADD SWAP1 PUSH2 0x2BB SWAP2 SWAP1 PUSH2 0xE9A JUMP JUMPDEST DUP12 DUP12 PUSH2 0x2C8 DUP10 PUSH1 0x1 PUSH2 0xF2C JUMP JUMPDEST DUP2 DUP2 LT PUSH2 0x2D7 JUMPI PUSH2 0x2D7 PUSH2 0xEFD JUMP JUMPDEST SWAP1 POP PUSH1 0x20 MUL ADD PUSH1 0x20 DUP2 ADD SWAP1 PUSH2 0x2EC SWAP2 SWAP1 PUSH2 0xE9A JUMP JUMPDEST PUSH2 0x9CF JUMP JUMPDEST SWAP2 POP SWAP2 POP PUSH1 0x0 DUP1 DUP5 PUSH1 0x1 PUSH1 0x1 PUSH1 0xA0 SHL SUB AND PUSH4 0xDFE1681 PUSH1 0x40 MLOAD DUP2 PUSH4 0xFFFFFFFF AND PUSH1 0xE0 SHL DUP2 MSTORE PUSH1 0x4 ADD PUSH1 0x20 PUSH1 0x40 MLOAD DUP1 DUP4 SUB DUP2 DUP7 GAS STATICCALL ISZERO DUP1 ISZERO PUSH2 0x336 JUMPI RETURNDATASIZE PUSH1 0x0 DUP1 RETURNDATACOPY RETURNDATASIZE PUSH1 0x0 REVERT JUMPDEST POP POP POP POP PUSH1 0x40 MLOAD RETURNDATASIZE PUSH1 0x1F NOT PUSH1 0x1F DUP3 ADD AND DUP3 ADD DUP1 PUSH1 0x40 MSTORE POP DUP2 ADD SWAP1 PUSH2 0x35A SWAP2 SWAP1 PUSH2 0xF44 JUMP JUMPDEST PUSH1 0x1 PUSH1 0x1 PUSH1 0xA0 SHL SUB AND DUP12 DUP12 DUP9 DUP2 DUP2 LT PUSH2 0x375 JUMPI PUSH2 0x375 PUSH2 0xEFD JUMP JUMPDEST SWAP1 POP PUSH1 0x20 MUL ADD PUSH1 0x20 DUP2 ADD SWAP1 PUSH2 0x38A SWAP2 SWAP1 PUSH2 0xE9A JUMP JUMPDEST PUSH1 0x1 PUSH1 0x1 PUSH1 0xA0 SHL SUB AND SUB PUSH2 0x467 JUMPI PUSH1 0x0 SWAP2 POP PUSH2 0x3A7 DUP8 DUP6 DUP6 PUSH2 0xAA7 JUMP JUMPDEST SWAP1 POP DUP1 SWAP7 POP DUP11 DUP11 DUP8 DUP2 DUP2 LT PUSH2 0x3BE JUMPI PUSH2 0x3BE PUSH2 0xEFD JUMP JUMPDEST SWAP1 POP PUSH1 0x20 MUL ADD PUSH1 0x20 DUP2 ADD SWAP1 PUSH2 0x3D3 SWAP2 SWAP1 PUSH2 0xE9A JUMP JUMPDEST PUSH1 0x40 MLOAD PUSH32 0xA9059CBB00000000000000000000000000000000000000000000000000000000 DUP2 MSTORE PUSH1 0x1 PUSH1 0x1 PUSH1 0xA0 SHL SUB DUP8 DUP2 AND PUSH1 0x4 DUP4 ADD MSTORE PUSH1 0x24 DUP3 ADD DUP11 SWAP1 MSTORE SWAP2 SWAP1 SWAP2 AND SWAP1 PUSH4 0xA9059CBB SWAP1 PUSH1 0x44 ADD PUSH1 0x20 PUSH1 0x40 MLOAD DUP1 DUP4 SUB DUP2 PUSH1 0x0 DUP8 GAS CALL ISZERO DUP1 ISZERO PUSH2 0x43D JUMPI RETURNDATASIZE PUSH1 0x0 DUP1 RETURNDATACOPY RETURNDATASIZE PUSH1 0x0 REVERT JUMPDEST POP POP POP POP PUSH1 0x40 MLOAD RETURNDATASIZE PUSH1 0x1F NOT PUSH1 0x1F DUP3 ADD AND DUP3 ADD DUP1 PUSH1 0x40 MSTORE POP DUP2 ADD SWAP1 PUSH2 0x461 SWAP2 SWAP1 PUSH2 0xF61 JUMP JUMPDEST POP PUSH2 0x53C JUMP JUMPDEST PUSH2 0x472 DUP8 DUP5 DUP7 PUSH2 0xAA7 JUMP JUMPDEST SWAP7 POP DUP7 SWAP2 POP PUSH1 0x0 SWAP1 POP DUP11 DUP11 PUSH2 0x488 DUP9 PUSH1 0x1 PUSH2 0xF2C JUMP JUMPDEST DUP2 DUP2 LT PUSH2 0x497 JUMPI PUSH2 0x497 PUSH2 0xEFD JUMP JUMPDEST SWAP1 POP PUSH1 0x20 MUL ADD PUSH1 0x20 DUP2 ADD SWAP1 PUSH2 0x4AC SWAP2 SWAP1 PUSH2 0xE9A JUMP JUMPDEST PUSH1 0x40 MLOAD PUSH32 0xA9059CBB00000000000000000000000000000000000000000000000000000000 DUP2 MSTORE PUSH1 0x1 PUSH1 0x1 PUSH1 0xA0 SHL SUB DUP8 DUP2 AND PUSH1 0x4 DUP4 ADD MSTORE PUSH1 0x24 DUP3 ADD DUP11 SWAP1 MSTORE SWAP2 SWAP1 SWAP2 AND SWAP1 PUSH4 0xA9059CBB SWAP1 PUSH1 0x44 ADD PUSH1 0x20 PUSH1 0x40 MLOAD DUP1 DUP4 SUB DUP2 PUSH1 0x0 DUP8 GAS CALL ISZERO DUP1 ISZERO PUSH2 0x516 JUMPI RETURNDATASIZE PUSH1 0x0 DUP1 RETURNDATACOPY RETURNDATASIZE PUSH1 0x0 REVERT JUMPDEST POP POP POP POP PUSH1 0x40 MLOAD RETURNDATASIZE PUSH1 0x1F NOT PUSH1 0x1F DUP3 ADD AND DUP3 ADD DUP1 PUSH1 0x40 MSTORE POP DUP2 ADD SWAP1 PUSH2 0x53A SWAP2 SWAP1 PUSH2 0xF61 JUMP JUMPDEST POP JUMPDEST DUP5 PUSH1 0x1 PUSH1 0x1 PUSH1 0xA0 SHL SUB AND PUSH4 0x22C0D9F DUP4 DUP4 PUSH1 0x0 DUP1 SLOAD SWAP1 PUSH2 0x100 EXP SWAP1 DIV PUSH1 0x1 PUSH1 0x1 PUSH1 0xA0 SHL SUB AND PUSH1 0x1 PUSH1 0x1 PUSH1 0xA0 SHL SUB AND PUSH4 0x11CE0267 PUSH1 0x40 MLOAD DUP2 PUSH4 0xFFFFFFFF AND PUSH1 0xE0 SHL DUP2 MSTORE PUSH1 0x4 ADD PUSH1 0x20 PUSH1 0x40 MLOAD DUP1 DUP4 SUB DUP2 DUP7 GAS STATICCALL ISZERO DUP1 ISZERO PUSH2 0x59E JUMPI RETURNDATASIZE PUSH1 0x0 DUP1 RETURNDATACOPY RETURNDATASIZE PUSH1 0x0 REVERT JUMPDEST POP POP POP POP PUSH1 0x40 MLOAD RETURNDATASIZE PUSH1 0x1F NOT PUSH1 0x1F DUP3 ADD AND DUP3 ADD DUP1 PUSH1 0x40 MSTORE POP DUP2 ADD SWAP1 PUSH2 0x5C2 SWAP2 SWAP1 PUSH2 0xF44 JUMP JUMPDEST PUSH1 0x40 MLOAD PUSH32 0xFFFFFFFF00000000000000000000000000000000000000000000000000000000 PUSH1 0xE0 DUP7 SWAP1 SHL AND DUP2 MSTORE PUSH1 0x4 DUP2 ADD SWAP4 SWAP1 SWAP4 MSTORE PUSH1 0x24 DUP4 ADD SWAP2 SWAP1 SWAP2 MSTORE PUSH1 0x1 PUSH1 0x1 PUSH1 0xA0 SHL SUB AND PUSH1 0x44 DUP3 ADD MSTORE PUSH1 0x80 PUSH1 0x64 DUP3 ADD MSTORE PUSH1 0x0 PUSH1 0x84 DUP3 ADD MSTORE PUSH1 0xA4 ADD PUSH1 0x0 PUSH1 0x40 MLOAD DUP1 DUP4 SUB DUP2 PUSH1 0x0 DUP8 DUP1 EXTCODESIZE ISZERO DUP1 ISZERO PUSH2 0x637 JUMPI PUSH1 0x0 DUP1 REVERT JUMPDEST POP GAS CALL ISZERO DUP1 ISZERO PUSH2 0x64B JUMPI RETURNDATASIZE PUSH1 0x0 DUP1 RETURNDATACOPY RETURNDATASIZE PUSH1 0x0 REVERT JUMPDEST POP POP POP POP POP POP POP POP POP DUP1 DUP1 PUSH2 0x65F SWAP1 PUSH2 0xF83 JUMP JUMPDEST SWAP2 POP POP PUSH2 0x216 JUMP JUMPDEST POP POP POP POP POP POP JUMP JUMPDEST CALLER PUSH1 0x1 PUSH1 0x1 PUSH1 0xA0 SHL SUB PUSH32 0x0 AND EQ PUSH2 0x6A4 JUMPI PUSH1 0x0 DUP1 REVERT JUMPDEST PUSH1 0x0 SLOAD PUSH1 0x40 MLOAD PUSH32 0xCF368A3900000000000000000000000000000000000000000000000000000000 DUP2 MSTORE PUSH1 0x1 PUSH1 0x1 PUSH1 0xA0 SHL SUB DUP4 DUP2 AND PUSH1 0x4 DUP4 ADD MSTORE SWAP1 SWAP2 AND SWAP1 PUSH4 0xCF368A39 SWAP1 PUSH1 0x24 ADD PUSH1 0x0 PUSH1 0x40 MLOAD DUP1 DUP4 SUB DUP2 PUSH1 0x0 DUP8 DUP1 EXTCODESIZE ISZERO DUP1 ISZERO PUSH2 0x704 JUMPI PUSH1 0x0 DUP1 REVERT JUMPDEST POP GAS CALL ISZERO DUP1 ISZERO PUSH2 0x718 JUMPI RETURNDATASIZE PUSH1 0x0 DUP1 RETURNDATACOPY RETURNDATASIZE PUSH1 0x0 REVERT JUMPDEST POP POP POP POP PUSH32 0x0 PUSH1 0x1 PUSH1 0x1 PUSH1 0xA0 SHL SUB AND SELFDESTRUCT JUMPDEST CALLER PUSH1 0x1 PUSH1 0x1 PUSH1 0xA0 SHL SUB PUSH32 0x0 AND EQ PUSH2 0x77D JUMPI PUSH1 0x0 DUP1 REVERT JUMPDEST PUSH1 0x1 DUP1 SLOAD PUSH32 0xFFFFFFFFFFFFFFFFFFFFFFFF0000000000000000000000000000000000000000 AND PUSH1 0x1 PUSH1 0x1 PUSH1 0xA0 SHL SUB SWAP3 SWAP1 SWAP3 AND SWAP2 SWAP1 SWAP2 OR SWAP1 SSTORE JUMP JUMPDEST CALLER PUSH1 0x1 PUSH1 0x1 PUSH1 0xA0 SHL SUB PUSH32 0x0 AND EQ PUSH2 0x7EC JUMPI PUSH1 0x0 DUP1 REVERT JUMPDEST PUSH1 0x0 SLOAD PUSH1 0x1 PUSH1 0x1 PUSH1 0xA0 SHL SUB AND CALLER EQ PUSH2 0x803 JUMPI PUSH1 0x0 DUP1 REVERT JUMPDEST PUSH1 0x0 DUP1 SLOAD PUSH32 0xFFFFFFFFFFFFFFFFFFFFFFFF0000000000000000000000000000000000000000 AND PUSH1 0x1 PUSH1 0x1 PUSH1 0xA0 SHL SUB SWAP3 SWAP1 SWAP3 AND SWAP2 SWAP1 SWAP2 OR SWAP1 SSTORE JUMP JUMPDEST CALLER PUSH1 0x1 PUSH1 0x1 PUSH1 0xA0 SHL SUB PUSH32 0x0 AND EQ PUSH2 0x872 JUMPI PUSH1 0x0 DUP1 REVERT JUMPDEST PUSH1 0x0 SLOAD PUSH21 0x10000000000000000000000000000000000000000 SWAP1 DIV PUSH1 0xFF AND ISZERO PUSH2 0x803 JUMPI PUSH1 0x0 DUP1 REVERT JUMPDEST PUSH1 0x0 DUP1 PUSH1 0x0 PUSH2 0x8A9 DUP6 DUP6 PUSH2 0xBF2 JUMP JUMPDEST PUSH1 0x40 MLOAD PUSH32 0xFFFFFFFFFFFFFFFFFFFFFFFFFFFFFFFFFFFFFFFF000000000000000000000000 PUSH1 0x60 DUP5 DUP2 SHL DUP3 AND PUSH1 0x20 DUP5 ADD MSTORE DUP4 SWAP1 SHL AND PUSH1 0x34 DUP3 ADD MSTORE SWAP2 SWAP4 POP SWAP2 POP DUP7 SWAP1 PUSH1 0x48 ADD PUSH1 0x40 MLOAD PUSH1 0x20 DUP2 DUP4 SUB SUB DUP2 MSTORE SWAP1 PUSH1 0x40 MSTORE DUP1 MLOAD SWAP1 PUSH1 0x20 ADD KECCAK256 PUSH1 0x40 MLOAD PUSH1 0x20 ADD PUSH2 0x98F SWAP3 SWAP2 SWAP1 PUSH32 0xFF00000000000000000000000000000000000000000000000000000000000000 DUP2 MSTORE PUSH1 0x60 SWAP3 SWAP1 SWAP3 SHL PUSH32 0xFFFFFFFFFFFFFFFFFFFFFFFFFFFFFFFFFFFFFFFF000000000000000000000000 AND PUSH1 0x1 DUP4 ADD MSTORE PUSH1 0x15 DUP3 ADD MSTORE PUSH32 0x96E8AC4277198FF8B6F785478AA9A39F403CB768DD02CBEE326C3E7DA348845F PUSH1 0x35 DUP3 ADD MSTORE PUSH1 0x55 ADD SWAP1 JUMP JUMPDEST PUSH1 0x40 DUP1 MLOAD PUSH32 0xFFFFFFFFFFFFFFFFFFFFFFFFFFFFFFFFFFFFFFFFFFFFFFFFFFFFFFFFFFFFFFE0 DUP2 DUP5 SUB ADD DUP2 MSTORE SWAP2 SWAP1 MSTORE DUP1 MLOAD PUSH1 0x20 SWAP1 SWAP2 ADD KECCAK256 SWAP7 SWAP6 POP POP POP POP POP POP JUMP JUMPDEST PUSH1 0x0 DUP1 PUSH1 0x0 PUSH2 0x9DE DUP6 DUP6 PUSH2 0xBF2 JUMP JUMPDEST POP SWAP1 POP PUSH1 0x0 DUP1 PUSH2 0x9EF DUP9 DUP9 DUP9 PUSH2 0x89A JUMP JUMPDEST PUSH1 0x1 PUSH1 0x1 PUSH1 0xA0 SHL SUB AND PUSH4 0x902F1AC PUSH1 0x40 MLOAD DUP2 PUSH4 0xFFFFFFFF AND PUSH1 0xE0 SHL DUP2 MSTORE PUSH1 0x4 ADD PUSH1 0x60 PUSH1 0x40 MLOAD DUP1 DUP4 SUB DUP2 DUP7 GAS STATICCALL ISZERO DUP1 ISZERO PUSH2 0xA2C JUMPI RETURNDATASIZE PUSH1 0x0 DUP1 RETURNDATACOPY RETURNDATASIZE PUSH1 0x0 REVERT JUMPDEST POP POP POP POP PUSH1 0x40 MLOAD RETURNDATASIZE PUSH1 0x1F NOT PUSH1 0x1F DUP3 ADD AND DUP3 ADD DUP1 PUSH1 0x40 MSTORE POP DUP2 ADD SWAP1 PUSH2 0xA50 SWAP2 SWAP1 PUSH2 0xFDE JUMP JUMPDEST POP PUSH14 0xFFFFFFFFFFFFFFFFFFFFFFFFFFFF AND SWAP2 POP PUSH14 0xFFFFFFFFFFFFFFFFFFFFFFFFFFFF AND SWAP2 POP DUP3 PUSH1 0x1 PUSH1 0x1 PUSH1 0xA0 SHL SUB AND DUP8 PUSH1 0x1 PUSH1 0x1 PUSH1 0xA0 SHL SUB AND EQ PUSH2 0xA95 JUMPI DUP1 DUP3 PUSH2 0xA98 JUMP JUMPDEST DUP2 DUP2 JUMPDEST SWAP1 SWAP10 SWAP1 SWAP9 POP SWAP7 POP POP POP POP POP POP POP JUMP JUMPDEST PUSH1 0x0 DUP1 DUP5 GT PUSH2 0xB23 JUMPI PUSH1 0x40 MLOAD PUSH3 0x461BCD PUSH1 0xE5 SHL DUP2 MSTORE PUSH1 0x20 PUSH1 0x4 DUP3 ADD MSTORE PUSH1 0x2B PUSH1 0x24 DUP3 ADD MSTORE PUSH32 0x556E697377617056324C6962726172793A20494E53554646494349454E545F49 PUSH1 0x44 DUP3 ADD MSTORE PUSH32 0x4E5055545F414D4F554E54000000000000000000000000000000000000000000 PUSH1 0x64 DUP3 ADD MSTORE PUSH1 0x84 ADD JUMPDEST PUSH1 0x40 MLOAD DUP1 SWAP2 SUB SWAP1 REVERT JUMPDEST PUSH1 0x0 DUP4 GT DUP1 ISZERO PUSH2 0xB33 JUMPI POP PUSH1 0x0 DUP3 GT JUMPDEST PUSH2 0xBA5 JUMPI PUSH1 0x40 MLOAD PUSH3 0x461BCD PUSH1 0xE5 SHL DUP2 MSTORE PUSH1 0x20 PUSH1 0x4 DUP3 ADD MSTORE PUSH1 0x28 PUSH1 0x24 DUP3 ADD MSTORE PUSH32 0x556E697377617056324C6962726172793A20494E53554646494349454E545F4C PUSH1 0x44 DUP3 ADD MSTORE PUSH32 0x4951554944495459000000000000000000000000000000000000000000000000 PUSH1 0x64 DUP3 ADD MSTORE PUSH1 0x84 ADD PUSH2 0xB1A JUMP JUMPDEST PUSH1 0x0 PUSH2 0xBB3 DUP6 PUSH2 0x3E5 PUSH2 0xD01 JUMP JUMPDEST SWAP1 POP PUSH1 0x0 PUSH2 0xBC1 DUP3 DUP6 PUSH2 0xD01 JUMP JUMPDEST SWAP1 POP PUSH1 0x0 PUSH2 0xBDB DUP4 PUSH2 0xBD5 DUP9 PUSH2 0x3E8 PUSH2 0xD01 JUMP JUMPDEST SWAP1 PUSH2 0xDA8 JUMP JUMPDEST SWAP1 POP PUSH2 0xBE7 DUP2 DUP4 PUSH2 0x102E JUMP JUMPDEST SWAP8 SWAP7 POP POP POP POP POP POP POP JUMP JUMPDEST PUSH1 0x0 DUP1 DUP3 PUSH1 0x1 PUSH1 0x1 PUSH1 0xA0 SHL SUB AND DUP5 PUSH1 0x1 PUSH1 0x1 PUSH1 0xA0 SHL SUB AND SUB PUSH2 0xC7C JUMPI PUSH1 0x40 MLOAD PUSH3 0x461BCD PUSH1 0xE5 SHL DUP2 MSTORE PUSH1 0x20 PUSH1 0x4 DUP3 ADD MSTORE PUSH1 0x25 PUSH1 0x24 DUP3 ADD MSTORE PUSH32 0x556E697377617056324C6962726172793A204944454E544943414C5F41444452 PUSH1 0x44 DUP3 ADD MSTORE PUSH32 0x4553534553000000000000000000000000000000000000000000000000000000 PUSH1 0x64 DUP3 ADD MSTORE PUSH1 0x84 ADD PUSH2 0xB1A JUMP JUMPDEST DUP3 PUSH1 0x1 PUSH1 0x1 PUSH1 0xA0 SHL SUB AND DUP5 PUSH1 0x1 PUSH1 0x1 PUSH1 0xA0 SHL SUB AND LT PUSH2 0xC9C JUMPI DUP3 DUP5 PUSH2 0xC9F JUMP JUMPDEST DUP4 DUP4 JUMPDEST SWAP1 SWAP3 POP SWAP1 POP PUSH1 0x1 PUSH1 0x1 PUSH1 0xA0 SHL SUB DUP3 AND PUSH2 0xCFA JUMPI PUSH1 0x40 MLOAD PUSH3 0x461BCD PUSH1 0xE5 SHL DUP2 MSTORE PUSH1 0x20 PUSH1 0x4 DUP3 ADD MSTORE PUSH1 0x1E PUSH1 0x24 DUP3 ADD MSTORE PUSH32 0x556E697377617056324C6962726172793A205A45524F5F414444524553530000 PUSH1 0x44 DUP3 ADD MSTORE PUSH1 0x64 ADD PUSH2 0xB1A JUMP JUMPDEST SWAP3 POP SWAP3 SWAP1 POP JUMP JUMPDEST PUSH1 0x0 DUP3 PUSH1 0x0 SUB PUSH2 0xD13 JUMPI POP PUSH1 0x0 PUSH2 0xDA2 JUMP JUMPDEST PUSH1 0x0 PUSH2 0xD1F DUP4 DUP6 PUSH2 0x1069 JUMP JUMPDEST SWAP1 POP DUP3 PUSH2 0xD2C DUP6 DUP4 PUSH2 0x102E JUMP JUMPDEST EQ PUSH2 0xD9F JUMPI PUSH1 0x40 MLOAD PUSH3 0x461BCD PUSH1 0xE5 SHL DUP2 MSTORE PUSH1 0x20 PUSH1 0x4 DUP3 ADD MSTORE PUSH1 0x21 PUSH1 0x24 DUP3 ADD MSTORE PUSH32 0x536166654D6174683A206D756C7469706C69636174696F6E206F766572666C6F PUSH1 0x44 DUP3 ADD MSTORE PUSH32 0x7700000000000000000000000000000000000000000000000000000000000000 PUSH1 0x64 DUP3 ADD MSTORE PUSH1 0x84 ADD PUSH2 0xB1A JUMP JUMPDEST SWAP1 POP JUMPDEST SWAP3 SWAP2 POP POP JUMP JUMPDEST PUSH1 0x0 DUP1 PUSH2 0xDB5 DUP4 DUP6 PUSH2 0xF2C JUMP JUMPDEST SWAP1 POP DUP4 DUP2 LT ISZERO PUSH2 0xD9F JUMPI PUSH1 0x40 MLOAD PUSH3 0x461BCD PUSH1 0xE5 SHL DUP2 MSTORE PUSH1 0x20 PUSH1 0x4 DUP3 ADD MSTORE PUSH1 0x1B PUSH1 0x24 DUP3 ADD MSTORE PUSH32 0x536166654D6174683A206164646974696F6E206F766572666C6F770000000000 PUSH1 0x44 DUP3 ADD MSTORE PUSH1 0x64 ADD PUSH2 0xB1A JUMP JUMPDEST PUSH1 0x0 DUP1 PUSH1 0x0 PUSH1 0x40 DUP5 DUP7 SUB SLT ISZERO PUSH2 0xE1C JUMPI PUSH1 0x0 DUP1 REVERT JUMPDEST DUP4 CALLDATALOAD PUSH8 0xFFFFFFFFFFFFFFFF DUP1 DUP3 GT ISZERO PUSH2 0xE34 JUMPI PUSH1 0x0 DUP1 REVERT JUMPDEST DUP2 DUP7 ADD SWAP2 POP DUP7 PUSH1 0x1F DUP4 ADD SLT PUSH2 0xE48 JUMPI PUSH1 0x0 DUP1 REVERT JUMPDEST DUP2 CALLDATALOAD DUP2 DUP2 GT ISZERO PUSH2 0xE57 JUMPI PUSH1 0x0 DUP1 REVERT JUMPDEST DUP8 PUSH1 0x20 DUP3 PUSH1 0x5 SHL DUP6 ADD ADD GT ISZERO PUSH2 0xE6C JUMPI PUSH1 0x0 DUP1 REVERT JUMPDEST PUSH1 0x20 SWAP3 DUP4 ADD SWAP9 SWAP1 SWAP8 POP SWAP6 SWAP1 SWAP2 ADD CALLDATALOAD SWAP5 SWAP4 POP POP POP POP JUMP JUMPDEST PUSH1 0x1 PUSH1 0x1 PUSH1 0xA0 SHL SUB DUP2 AND DUP2 EQ PUSH2 0xE97 JUMPI PUSH1 0x0 DUP1 REVERT JUMPDEST POP JUMP JUMPDEST PUSH1 0x0 PUSH1 0x20 DUP3 DUP5 SUB SLT ISZERO PUSH2 0xEAC JUMPI PUSH1 0x0 DUP1 REVERT JUMPDEST DUP2 CALLDATALOAD PUSH2 0xD9F DUP2 PUSH2 0xE82 JUMP JUMPDEST PUSH32 0x4E487B7100000000000000000000000000000000000000000000000000000000 PUSH1 0x0 MSTORE PUSH1 0x11 PUSH1 0x4 MSTORE PUSH1 0x24 PUSH1 0x0 REVERT JUMPDEST PUSH1 0x0 DUP3 DUP3 LT ISZERO PUSH2 0xEF8 JUMPI PUSH2 0xEF8 PUSH2 0xEB7 JUMP JUMPDEST POP SUB SWAP1 JUMP JUMPDEST PUSH32 0x4E487B7100000000000000000000000000000000000000000000000000000000 PUSH1 0x0 MSTORE PUSH1 0x32 PUSH1 0x4 MSTORE PUSH1 0x24 PUSH1 0x0 REVERT JUMPDEST PUSH1 0x0 DUP3 NOT DUP3 GT ISZERO PUSH2 0xF3F JUMPI PUSH2 0xF3F PUSH2 0xEB7 JUMP JUMPDEST POP ADD SWAP1 JUMP JUMPDEST PUSH1 0x0 PUSH1 0x20 DUP3 DUP5 SUB SLT ISZERO PUSH2 0xF56 JUMPI PUSH1 0x0 DUP1 REVERT JUMPDEST DUP2 MLOAD PUSH2 0xD9F DUP2 PUSH2 0xE82 JUMP JUMPDEST PUSH1 0x0 PUSH1 0x20 DUP3 DUP5 SUB SLT ISZERO PUSH2 0xF73 JUMPI PUSH1 0x0 DUP1 REVERT JUMPDEST DUP2 MLOAD DUP1 ISZERO ISZERO DUP2 EQ PUSH2 0xD9F JUMPI PUSH1 0x0 DUP1 REVERT JUMPDEST PUSH1 0x0 PUSH32 0xFFFFFFFFFFFFFFFFFFFFFFFFFFFFFFFFFFFFFFFFFFFFFFFFFFFFFFFFFFFFFFFF DUP3 SUB PUSH2 0xFB4 JUMPI PUSH2 0xFB4 PUSH2 0xEB7 JUMP JUMPDEST POP PUSH1 0x1 ADD SWAP1 JUMP JUMPDEST DUP1 MLOAD PUSH14 0xFFFFFFFFFFFFFFFFFFFFFFFFFFFF DUP2 AND DUP2 EQ PUSH2 0xFD9 JUMPI PUSH1 0x0 DUP1 REVERT JUMPDEST SWAP2 SWAP1 POP JUMP JUMPDEST PUSH1 0x0 DUP1 PUSH1 0x0 PUSH1 0x60 DUP5 DUP7 SUB SLT ISZERO PUSH2 0xFF3 JUMPI PUSH1 0x0 DUP1 REVERT JUMPDEST PUSH2 0xFFC DUP5 PUSH2 0xFBB JUMP JUMPDEST SWAP3 POP PUSH2 0x100A PUSH1 0x20 DUP6 ADD PUSH2 0xFBB JUMP JUMPDEST SWAP2 POP PUSH1 0x40 DUP5 ADD MLOAD PUSH4 0xFFFFFFFF DUP2 AND DUP2 EQ PUSH2 0x1023 JUMPI PUSH1 0x0 DUP1 REVERT JUMPDEST DUP1 SWAP2 POP POP SWAP3 POP SWAP3 POP SWAP3 JUMP JUMPDEST PUSH1 0x0 DUP3 PUSH2 0x1064 JUMPI PUSH32 0x4E487B7100000000000000000000000000000000000000000000000000000000 PUSH1 0x0 MSTORE PUSH1 0x12 PUSH1 0x4 MSTORE PUSH1 0x24 PUSH1 0x0 REVERT JUMPDEST POP DIV SWAP1 JUMP JUMPDEST PUSH1 0x0 DUP2 PUSH32 0xFFFFFFFFFFFFFFFFFFFFFFFFFFFFFFFFFFFFFFFFFFFFFFFFFFFFFFFFFFFFFFFF DIV DUP4 GT DUP3 ISZERO ISZERO AND ISZERO PUSH2 0x10A1 JUMPI PUSH2 0x10A1 PUSH2 0xEB7 JUMP JUMPDEST POP MUL SWAP1 JUMP INVALID LOG2 PUSH5 0x6970667358 0x22 SLT KECCAK256 0xBF 0x25 EXP PUSH10 0x1BB87A574B2EB8F039DB 0xBB MLOAD 0xBA CALLER SAR PUSH9 0xD30849B25CE7BE9231 PUSH14 0xA2F664736F6C634300080E003300 "
				},
				"gasEstimates": {
					"creation": {
						"codeDepositCost": "863200",
						"executionCost": "infinite",
						"totalCost": "infinite"
					},
					"external": {
						"": "168",
						"deleteContract(address)": "infinite",
						"initContract(address)": "infinite",
						"initDone()": "2390",
						"proxy()": "2370",
						"setFactory(address)": "infinite",
						"uniSwap(address[],uint256)": "infinite",
						"updateProxy(address)": "infinite",
						"v2factory()": "2371"
					}
				},
				"methodIdentifiers": {
					"deleteContract(address)": "2637a477",
					"initContract(address)": "cf9d4afa",
					"initDone()": "fed0a20e",
					"proxy()": "ec556889",
					"setFactory(address)": "5bb47808",
					"uniSwap(address[],uint256)": "1fa4e970",
					"updateProxy(address)": "9e955149",
					"v2factory()": "330807a9"
				}
			},
			"storageLayout": {
				"storage": [
					{
						"astId": 647,
						"contract": "TFGv3/Contracts/SCOps.sol:SCOps",
						"label": "proxy",
						"offset": 0,
						"slot": "0",
						"type": "t_address"
					},
					{
						"astId": 649,
						"contract": "TFGv3/Contracts/SCOps.sol:SCOps",
						"label": "initDone",
						"offset": 20,
						"slot": "0",
						"type": "t_uint8"
					},
					{
						"astId": 651,
						"contract": "TFGv3/Contracts/SCOps.sol:SCOps",
						"label": "v2factory",
						"offset": 0,
						"slot": "1",
						"type": "t_address"
					}
				],
				"types": {
					"t_address": {
						"encoding": "inplace",
						"label": "address",
						"numberOfBytes": "20"
					},
					"t_uint8": {
						"encoding": "inplace",
						"label": "uint8",
						"numberOfBytes": "1"
					}
				}
			},
			"userdoc": {
				"kind": "user",
				"methods": {},
				"version": 1
			}
		}
	}
}