{
	"TFGv3/Contracts/SCCommission.sol": {
		"SCCommission": {
			"abi": [
				{
					"inputs": [],
					"stateMutability": "nonpayable",
					"type": "constructor"
				},
				{
					"stateMutability": "payable",
					"type": "fallback"
				},
				{
					"inputs": [],
					"name": "accumCommission",
					"outputs": [
						{
							"internalType": "uint256",
							"name": "",
							"type": "uint256"
						}
					],
					"stateMutability": "view",
					"type": "function"
				},
				{
					"inputs": [
						{
							"internalType": "address[]",
							"name": "tokensToTransfer",
							"type": "address[]"
						},
						{
							"internalType": "uint256[]",
							"name": "qty",
							"type": "uint256[]"
						}
					],
					"name": "collectCommission",
					"outputs": [],
					"stateMutability": "nonpayable",
					"type": "function"
				},
				{
					"inputs": [
						{
							"internalType": "address",
							"name": "newAddr",
							"type": "address"
						},
						{
							"internalType": "address[]",
							"name": "tokensToTransfer",
							"type": "address[]"
						},
						{
							"internalType": "uint256[]",
							"name": "qty",
							"type": "uint256[]"
						}
					],
					"name": "deleteContract",
					"outputs": [],
					"stateMutability": "nonpayable",
					"type": "function"
				},
				{
					"inputs": [],
					"name": "feeYear",
					"outputs": [
						{
							"internalType": "uint256",
							"name": "",
							"type": "uint256"
						}
					],
					"stateMutability": "view",
					"type": "function"
				},
				{
					"inputs": [
						{
							"internalType": "address",
							"name": "proxyAddr",
							"type": "address"
						},
						{
							"internalType": "uint256",
							"name": "lastUpdated_",
							"type": "uint256"
						},
						{
							"internalType": "uint256",
							"name": "accumCommission_",
							"type": "uint256"
						},
						{
							"internalType": "uint256",
							"name": "feeYear_",
							"type": "uint256"
						},
						{
							"internalType": "uint256",
							"name": "r_",
							"type": "uint256"
						}
					],
					"name": "initContract",
					"outputs": [],
					"stateMutability": "nonpayable",
					"type": "function"
				},
				{
					"inputs": [],
					"name": "initDone",
					"outputs": [
						{
							"internalType": "uint256",
							"name": "",
							"type": "uint256"
						}
					],
					"stateMutability": "view",
					"type": "function"
				},
				{
					"inputs": [],
					"name": "lastUpdated",
					"outputs": [
						{
							"internalType": "uint256",
							"name": "",
							"type": "uint256"
						}
					],
					"stateMutability": "view",
					"type": "function"
				},
				{
					"inputs": [
						{
							"internalType": "uint256",
							"name": "buyOrSell",
							"type": "uint256"
						}
					],
					"name": "payComissions",
					"outputs": [
						{
							"internalType": "uint256",
							"name": "payedComissions",
							"type": "uint256"
						}
					],
					"stateMutability": "nonpayable",
					"type": "function"
				},
				{
					"inputs": [],
					"name": "proxy",
					"outputs": [
						{
							"internalType": "address",
							"name": "",
							"type": "address"
						}
					],
					"stateMutability": "view",
					"type": "function"
				},
				{
					"inputs": [],
					"name": "r",
					"outputs": [
						{
							"internalType": "uint256",
							"name": "",
							"type": "uint256"
						}
					],
					"stateMutability": "view",
					"type": "function"
				},
				{
					"inputs": [
						{
							"internalType": "uint256",
							"name": "newFee",
							"type": "uint256"
						}
					],
					"name": "setFeeYear",
					"outputs": [],
					"stateMutability": "nonpayable",
					"type": "function"
				},
				{
					"inputs": [
						{
							"internalType": "uint256",
							"name": "newR",
							"type": "uint256"
						}
					],
					"name": "setR",
					"outputs": [],
					"stateMutability": "nonpayable",
					"type": "function"
				},
				{
					"inputs": [
						{
							"internalType": "address",
							"name": "newAddr",
							"type": "address"
						}
					],
					"name": "updateProxy",
					"outputs": [],
					"stateMutability": "nonpayable",
					"type": "function"
				},
				{
					"stateMutability": "payable",
					"type": "receive"
				}
			],
			"devdoc": {
				"kind": "dev",
				"methods": {},
				"version": 1
			},
			"evm": {
				"assembly": "    /* \"TFGv3/Contracts/SCCommission.sol\":108:4088  contract SCCommission is ISCCommission... */\n  mstore(0x40, 0xa0)\n    /* \"TFGv3/Contracts/SCCommission.sol\":676:754  constructor()... */\n  callvalue\n  dup1\n  iszero\n  tag_1\n  jumpi\n  0x00\n  dup1\n  revert\ntag_1:\n  pop\n    /* \"TFGv3/Contracts/SCCommission.sol\":715:725  msg.sender */\n  caller\n    /* \"TFGv3/Contracts/SCCommission.sol\":704:725  deployer = msg.sender */\n  0xffffffffffffffffffffffffffffffffffffffff\n  and\n  0x80\n  dup2\n  0xffffffffffffffffffffffffffffffffffffffff\n  and\n  dup2\n  mstore\n  pop\n  pop\n    /* \"TFGv3/Contracts/SCCommission.sol\":746:747  0 */\n  0x00\n    /* \"TFGv3/Contracts/SCCommission.sol\":735:743  initDone */\n  0x05\n    /* \"TFGv3/Contracts/SCCommission.sol\":735:747  initDone = 0 */\n  dup2\n  swap1\n  sstore\n  pop\n    /* \"TFGv3/Contracts/SCCommission.sol\":108:4088  contract SCCommission is ISCCommission... */\n  mload(0x80)\n  codecopy(0x00, dataOffset(sub_0), dataSize(sub_0))\n  0x00\n  assignImmutable(\"0x44caf484852acee09d52b2802dba26d3c8ab3d28c7abcc1398b87898115633ec\")\n  return(0x00, dataSize(sub_0))\nstop\n\nsub_0: assembly {\n        /* \"TFGv3/Contracts/SCCommission.sol\":108:4088  contract SCCommission is ISCCommission... */\n      mstore(0x40, 0x80)\n      jumpi(tag_1, lt(calldatasize, 0x04))\n      shr(0xe0, calldataload(0x00))\n      dup1\n      0x7f8483a4\n      gt\n      tag_16\n      jumpi\n      dup1\n      0xd0b06f5d\n      gt\n      tag_17\n      jumpi\n      dup1\n      0xd0b06f5d\n      eq\n      tag_12\n      jumpi\n      dup1\n      0xec556889\n      eq\n      tag_13\n      jumpi\n      dup1\n      0xfc693786\n      eq\n      tag_14\n      jumpi\n      dup1\n      0xfed0a20e\n      eq\n      tag_15\n      jumpi\n      jump(tag_2)\n    tag_17:\n      dup1\n      0x7f8483a4\n      eq\n      tag_9\n      jumpi\n      dup1\n      0x9e955149\n      eq\n      tag_10\n      jumpi\n      dup1\n      0xbdedd45e\n      eq\n      tag_11\n      jumpi\n      jump(tag_2)\n    tag_16:\n      dup1\n      0x13ab7042\n      eq\n      tag_3\n      jumpi\n      dup1\n      0x1d69b196\n      eq\n      tag_4\n      jumpi\n      dup1\n      0x37799661\n      eq\n      tag_5\n      jumpi\n      dup1\n      0x674eb5ac\n      eq\n      tag_6\n      jumpi\n      dup1\n      0x6c8ae38c\n      eq\n      tag_7\n      jumpi\n      dup1\n      0x75450f1b\n      eq\n      tag_8\n      jumpi\n      jump(tag_2)\n    tag_1:\n      jumpi(tag_2, calldatasize)\n        /* \"TFGv3/Contracts/SCCommission.sol\":4004:4012  revert() */\n      0x00\n      dup1\n      revert\n        /* \"TFGv3/Contracts/SCCommission.sol\":108:4088  contract SCCommission is ISCCommission... */\n    tag_2:\n        /* \"TFGv3/Contracts/SCCommission.sol\":4071:4079  revert() */\n      0x00\n      dup1\n      revert\n        /* \"TFGv3/Contracts/SCCommission.sol\":262:281  uint public feeYear */\n    tag_3:\n      callvalue\n      dup1\n      iszero\n      tag_22\n      jumpi\n      0x00\n      dup1\n      revert\n    tag_22:\n      pop\n      tag_23\n      tag_24\n      jump\t// in\n    tag_23:\n      mload(0x40)\n      tag_25\n      swap2\n      swap1\n      tag_26\n      jump\t// in\n    tag_25:\n      mload(0x40)\n      dup1\n      swap2\n      sub\n      swap1\n      return\n        /* \"TFGv3/Contracts/SCCommission.sol\":3276:3953  function deleteContract(address newAddr, address[] calldata tokensToTransfer, uint[] calldata qty) external virtual override OnlyDeployer... */\n    tag_4:\n      callvalue\n      dup1\n      iszero\n      tag_27\n      jumpi\n      0x00\n      dup1\n      revert\n    tag_27:\n      pop\n      tag_28\n      0x04\n      dup1\n      calldatasize\n      sub\n      dup2\n      add\n      swap1\n      tag_29\n      swap2\n      swap1\n      tag_30\n      jump\t// in\n    tag_29:\n      tag_31\n      jump\t// in\n    tag_28:\n      stop\n        /* \"TFGv3/Contracts/SCCommission.sol\":933:1271  function initContract(address proxyAddr, uint lastUpdated_, uint accumCommission_, uint feeYear_, uint r_) external virtual override OnlyDeployer NonInit... */\n    tag_5:\n      callvalue\n      dup1\n      iszero\n      tag_32\n      jumpi\n      0x00\n      dup1\n      revert\n    tag_32:\n      pop\n      tag_33\n      0x04\n      dup1\n      calldatasize\n      sub\n      dup2\n      add\n      swap1\n      tag_34\n      swap2\n      swap1\n      tag_35\n      jump\t// in\n    tag_34:\n      tag_36\n      jump\t// in\n    tag_33:\n      stop\n        /* \"TFGv3/Contracts/SCCommission.sol\":1277:1353  function setR(uint newR) external OnlyDeployer... */\n    tag_6:\n      callvalue\n      dup1\n      iszero\n      tag_37\n      jumpi\n      0x00\n      dup1\n      revert\n    tag_37:\n      pop\n      tag_38\n      0x04\n      dup1\n      calldatasize\n      sub\n      dup2\n      add\n      swap1\n      tag_39\n      swap2\n      swap1\n      tag_40\n      jump\t// in\n    tag_39:\n      tag_41\n      jump\t// in\n    tag_38:\n      stop\n        /* \"TFGv3/Contracts/SCCommission.sol\":347:360  uint public r */\n    tag_7:\n      callvalue\n      dup1\n      iszero\n      tag_42\n      jumpi\n      0x00\n      dup1\n      revert\n    tag_42:\n      pop\n      tag_43\n      tag_44\n      jump\t// in\n    tag_43:\n      mload(0x40)\n      tag_45\n      swap2\n      swap1\n      tag_26\n      jump\t// in\n    tag_45:\n      mload(0x40)\n      dup1\n      swap2\n      sub\n      swap1\n      return\n        /* \"TFGv3/Contracts/SCCommission.sol\":1359:1451  function setFeeYear(uint newFee) external OnlyDeployer... */\n    tag_8:\n      callvalue\n      dup1\n      iszero\n      tag_46\n      jumpi\n      0x00\n      dup1\n      revert\n    tag_46:\n      pop\n      tag_47\n      0x04\n      dup1\n      calldatasize\n      sub\n      dup2\n      add\n      swap1\n      tag_48\n      swap2\n      swap1\n      tag_40\n      jump\t// in\n    tag_48:\n      tag_49\n      jump\t// in\n    tag_47:\n      stop\n        /* \"TFGv3/Contracts/SCCommission.sol\":232:259  uint public accumCommission */\n    tag_9:\n      callvalue\n      dup1\n      iszero\n      tag_50\n      jumpi\n      0x00\n      dup1\n      revert\n    tag_50:\n      pop\n      tag_51\n      tag_52\n      jump\t// in\n    tag_51:\n      mload(0x40)\n      tag_53\n      swap2\n      swap1\n      tag_26\n      jump\t// in\n    tag_53:\n      mload(0x40)\n      dup1\n      swap2\n      sub\n      swap1\n      return\n        /* \"TFGv3/Contracts/SCCommission.sol\":3128:3266  function updateProxy(address newAddr) external virtual override... */\n    tag_10:\n      callvalue\n      dup1\n      iszero\n      tag_54\n      jumpi\n      0x00\n      dup1\n      revert\n    tag_54:\n      pop\n      tag_55\n      0x04\n      dup1\n      calldatasize\n      sub\n      dup2\n      add\n      swap1\n      tag_56\n      swap2\n      swap1\n      tag_57\n      jump\t// in\n    tag_56:\n      tag_58\n      jump\t// in\n    tag_55:\n      stop\n        /* \"TFGv3/Contracts/SCCommission.sol\":2188:2855  function payComissions(uint buyOrSell) external virtual override returns (uint payedComissions)... */\n    tag_11:\n      callvalue\n      dup1\n      iszero\n      tag_59\n      jumpi\n      0x00\n      dup1\n      revert\n    tag_59:\n      pop\n      tag_60\n      0x04\n      dup1\n      calldatasize\n      sub\n      dup2\n      add\n      swap1\n      tag_61\n      swap2\n      swap1\n      tag_40\n      jump\t// in\n    tag_61:\n      tag_62\n      jump\t// in\n    tag_60:\n      mload(0x40)\n      tag_63\n      swap2\n      swap1\n      tag_26\n      jump\t// in\n    tag_63:\n      mload(0x40)\n      dup1\n      swap2\n      sub\n      swap1\n      return\n        /* \"TFGv3/Contracts/SCCommission.sol\":206:229  uint public lastUpdated */\n    tag_12:\n      callvalue\n      dup1\n      iszero\n      tag_64\n      jumpi\n      0x00\n      dup1\n      revert\n    tag_64:\n      pop\n      tag_65\n      tag_66\n      jump\t// in\n    tag_65:\n      mload(0x40)\n      tag_67\n      swap2\n      swap1\n      tag_26\n      jump\t// in\n    tag_67:\n      mload(0x40)\n      dup1\n      swap2\n      sub\n      swap1\n      return\n        /* \"TFGv3/Contracts/SCCommission.sol\":181:201  address public proxy */\n    tag_13:\n      callvalue\n      dup1\n      iszero\n      tag_68\n      jumpi\n      0x00\n      dup1\n      revert\n    tag_68:\n      pop\n      tag_69\n      tag_70\n      jump\t// in\n    tag_69:\n      mload(0x40)\n      tag_71\n      swap2\n      swap1\n      tag_72\n      jump\t// in\n    tag_71:\n      mload(0x40)\n      dup1\n      swap2\n      sub\n      swap1\n      return\n        /* \"TFGv3/Contracts/SCCommission.sol\":2861:3122  function collectCommission(address[] calldata tokensToTransfer, uint[] calldata qty) external virtual override OnlyDeployer... */\n    tag_14:\n      callvalue\n      dup1\n      iszero\n      tag_73\n      jumpi\n      0x00\n      dup1\n      revert\n    tag_73:\n      pop\n      tag_74\n      0x04\n      dup1\n      calldatasize\n      sub\n      dup2\n      add\n      swap1\n      tag_75\n      swap2\n      swap1\n      tag_76\n      jump\t// in\n    tag_75:\n      tag_77\n      jump\t// in\n    tag_74:\n      stop\n        /* \"TFGv3/Contracts/SCCommission.sol\":645:665  uint public initDone */\n    tag_15:\n      callvalue\n      dup1\n      iszero\n      tag_78\n      jumpi\n      0x00\n      dup1\n      revert\n    tag_78:\n      pop\n      tag_79\n      tag_80\n      jump\t// in\n    tag_79:\n      mload(0x40)\n      tag_81\n      swap2\n      swap1\n      tag_26\n      jump\t// in\n    tag_81:\n      mload(0x40)\n      dup1\n      swap2\n      sub\n      swap1\n      return\n        /* \"TFGv3/Contracts/SCCommission.sol\":262:281  uint public feeYear */\n    tag_24:\n      sload(0x03)\n      dup2\n      jump\t// out\n        /* \"TFGv3/Contracts/SCCommission.sol\":3276:3953  function deleteContract(address newAddr, address[] calldata tokensToTransfer, uint[] calldata qty) external virtual override OnlyDeployer... */\n    tag_31:\n        /* \"TFGv3/Contracts/SCCommission.sol\":821:829  deployer */\n      immutable(\"0x44caf484852acee09d52b2802dba26d3c8ab3d28c7abcc1398b87898115633ec\")\n        /* \"TFGv3/Contracts/SCCommission.sol\":807:829  msg.sender == deployer */\n      0xffffffffffffffffffffffffffffffffffffffff\n      and\n        /* \"TFGv3/Contracts/SCCommission.sol\":807:817  msg.sender */\n      caller\n        /* \"TFGv3/Contracts/SCCommission.sol\":807:829  msg.sender == deployer */\n      0xffffffffffffffffffffffffffffffffffffffff\n      and\n      eq\n        /* \"TFGv3/Contracts/SCCommission.sol\":799:830  require(msg.sender == deployer) */\n      tag_83\n      jumpi\n      0x00\n      dup1\n      revert\n    tag_83:\n        /* \"TFGv3/Contracts/SCCommission.sol\":3428:3445  address proxyAddr */\n      0x00\n        /* \"TFGv3/Contracts/SCCommission.sol\":3448:3453  proxy */\n      dup1\n      0x00\n      swap1\n      sload\n      swap1\n      0x0100\n      exp\n      swap1\n      div\n      0xffffffffffffffffffffffffffffffffffffffff\n      and\n        /* \"TFGv3/Contracts/SCCommission.sol\":3428:3453  address proxyAddr = proxy */\n      swap1\n      pop\n        /* \"TFGv3/Contracts/SCCommission.sol\":3470:3479  proxyAddr */\n      dup1\n        /* \"TFGv3/Contracts/SCCommission.sol\":3463:3498  IProxy(proxyAddr).setCommissionAddr */\n      0xffffffffffffffffffffffffffffffffffffffff\n      and\n      0x101dfd19\n        /* \"TFGv3/Contracts/SCCommission.sol\":3499:3506  newAddr */\n      dup8\n        /* \"TFGv3/Contracts/SCCommission.sol\":3463:3507  IProxy(proxyAddr).setCommissionAddr(newAddr) */\n      mload(0x40)\n      dup3\n      0xffffffff\n      and\n      0xe0\n      shl\n      dup2\n      mstore\n      0x04\n      add\n      tag_85\n      swap2\n      swap1\n      tag_72\n      jump\t// in\n    tag_85:\n      0x00\n      mload(0x40)\n      dup1\n      dup4\n      sub\n      dup2\n      0x00\n      dup8\n      dup1\n      extcodesize\n      iszero\n      dup1\n      iszero\n      tag_86\n      jumpi\n      0x00\n      dup1\n      revert\n    tag_86:\n      pop\n      gas\n      call\n      iszero\n      dup1\n      iszero\n      tag_88\n      jumpi\n      returndatasize\n      0x00\n      dup1\n      returndatacopy\n      revert(0x00, returndatasize)\n    tag_88:\n      pop\n      pop\n      pop\n      pop\n        /* \"TFGv3/Contracts/SCCommission.sol\":3517:3524  newAddr */\n      dup6\n        /* \"TFGv3/Contracts/SCCommission.sol\":3517:3537  newAddr.delegatecall */\n      0xffffffffffffffffffffffffffffffffffffffff\n      and\n        /* \"TFGv3/Contracts/SCCommission.sol\":3607:3616  proxyAddr */\n      dup2\n        /* \"TFGv3/Contracts/SCCommission.sol\":3618:3629  lastUpdated */\n      sload(0x01)\n        /* \"TFGv3/Contracts/SCCommission.sol\":3631:3646  accumCommission */\n      sload(0x02)\n        /* \"TFGv3/Contracts/SCCommission.sol\":3648:3655  feeYear */\n      sload(0x03)\n        /* \"TFGv3/Contracts/SCCommission.sol\":3657:3658  r */\n      sload(0x04)\n        /* \"TFGv3/Contracts/SCCommission.sol\":3538:3659  abi.encodeWithSignature(\"initContract(address,uint,uint,uint,uint)\", proxyAddr, lastUpdated, accumCommission, feeYear, r) */\n      add(0x24, mload(0x40))\n      tag_89\n      swap6\n      swap5\n      swap4\n      swap3\n      swap2\n      swap1\n      tag_90\n      jump\t// in\n    tag_89:\n      mload(0x40)\n      0x20\n      dup2\n      dup4\n      sub\n      sub\n      dup2\n      mstore\n      swap1\n      0x40\n      mstore\n      and(not(0xffffffffffffffffffffffffffffffffffffffffffffffffffffffff), 0x941ac60700000000000000000000000000000000000000000000000000000000)\n      0x20\n      dup3\n      add\n      dup1\n      mload\n      0xffffffffffffffffffffffffffffffffffffffffffffffffffffffff\n      dup4\n      dup2\n      dup4\n      and\n      or\n      dup4\n      mstore\n      pop\n      pop\n      pop\n      pop\n        /* \"TFGv3/Contracts/SCCommission.sol\":3517:3660  newAddr.delegatecall(abi.encodeWithSignature(\"initContract(address,uint,uint,uint,uint)\", proxyAddr, lastUpdated, accumCommission, feeYear, r)) */\n      mload(0x40)\n      tag_91\n      swap2\n      swap1\n      tag_92\n      jump\t// in\n    tag_91:\n      0x00\n      mload(0x40)\n      dup1\n      dup4\n      sub\n      dup2\n      dup6\n      gas\n      delegatecall\n      swap2\n      pop\n      pop\n      returndatasize\n      dup1\n      0x00\n      dup2\n      eq\n      tag_95\n      jumpi\n      mload(0x40)\n      swap2\n      pop\n      and(add(returndatasize, 0x3f), not(0x1f))\n      dup3\n      add\n      0x40\n      mstore\n      returndatasize\n      dup3\n      mstore\n      returndatasize\n      0x00\n      0x20\n      dup5\n      add\n      returndatacopy\n      jump(tag_94)\n    tag_95:\n      0x60\n      swap2\n      pop\n    tag_94:\n      pop\n      pop\n      pop\n        /* \"TFGv3/Contracts/SCCommission.sol\":3690:3691  0 */\n      0x00\n        /* \"TFGv3/Contracts/SCCommission.sol\":3670:3692  proxyAddr = address(0) */\n      swap1\n      pop\n        /* \"TFGv3/Contracts/SCCommission.sol\":3716:3717  0 */\n      0x00\n        /* \"TFGv3/Contracts/SCCommission.sol\":3702:3713  lastUpdated */\n      0x01\n        /* \"TFGv3/Contracts/SCCommission.sol\":3702:3717  lastUpdated = 0 */\n      dup2\n      swap1\n      sstore\n      pop\n        /* \"TFGv3/Contracts/SCCommission.sol\":3745:3746  0 */\n      0x00\n        /* \"TFGv3/Contracts/SCCommission.sol\":3727:3742  accumCommission */\n      0x02\n        /* \"TFGv3/Contracts/SCCommission.sol\":3727:3746  accumCommission = 0 */\n      dup2\n      swap1\n      sstore\n      pop\n        /* \"TFGv3/Contracts/SCCommission.sol\":3766:3767  0 */\n      0x00\n        /* \"TFGv3/Contracts/SCCommission.sol\":3756:3763  feeYear */\n      0x03\n        /* \"TFGv3/Contracts/SCCommission.sol\":3756:3767  feeYear = 0 */\n      dup2\n      swap1\n      sstore\n      pop\n        /* \"TFGv3/Contracts/SCCommission.sol\":3781:3782  0 */\n      0x00\n        /* \"TFGv3/Contracts/SCCommission.sol\":3777:3778  r */\n      0x04\n        /* \"TFGv3/Contracts/SCCommission.sol\":3777:3782  r = 0 */\n      dup2\n      swap1\n      sstore\n      pop\n        /* \"TFGv3/Contracts/SCCommission.sol\":3800:3804  this */\n      address\n        /* \"TFGv3/Contracts/SCCommission.sol\":3792:3818  address(this).delegatecall */\n      0xffffffffffffffffffffffffffffffffffffffff\n      and\n        /* \"TFGv3/Contracts/SCCommission.sol\":3882:3898  tokensToTransfer */\n      dup6\n      dup6\n        /* \"TFGv3/Contracts/SCCommission.sol\":3900:3903  qty */\n      dup6\n      dup6\n        /* \"TFGv3/Contracts/SCCommission.sol\":3819:3904  abi.encodeWithSignature(\"collectCommission(address[],uint[])\", tokensToTransfer, qty) */\n      add(0x24, mload(0x40))\n      tag_96\n      swap5\n      swap4\n      swap3\n      swap2\n      swap1\n      tag_97\n      jump\t// in\n    tag_96:\n      mload(0x40)\n      0x20\n      dup2\n      dup4\n      sub\n      sub\n      dup2\n      mstore\n      swap1\n      0x40\n      mstore\n      and(not(0xffffffffffffffffffffffffffffffffffffffffffffffffffffffff), 0x4abcc5d500000000000000000000000000000000000000000000000000000000)\n      0x20\n      dup3\n      add\n      dup1\n      mload\n      0xffffffffffffffffffffffffffffffffffffffffffffffffffffffff\n      dup4\n      dup2\n      dup4\n      and\n      or\n      dup4\n      mstore\n      pop\n      pop\n      pop\n      pop\n        /* \"TFGv3/Contracts/SCCommission.sol\":3792:3905  address(this).delegatecall(abi.encodeWithSignature(\"collectCommission(address[],uint[])\", tokensToTransfer, qty)) */\n      mload(0x40)\n      tag_98\n      swap2\n      swap1\n      tag_92\n      jump\t// in\n    tag_98:\n      0x00\n      mload(0x40)\n      dup1\n      dup4\n      sub\n      dup2\n      dup6\n      gas\n      delegatecall\n      swap2\n      pop\n      pop\n      returndatasize\n      dup1\n      0x00\n      dup2\n      eq\n      tag_101\n      jumpi\n      mload(0x40)\n      swap2\n      pop\n      and(add(returndatasize, 0x3f), not(0x1f))\n      dup3\n      add\n      0x40\n      mstore\n      returndatasize\n      dup3\n      mstore\n      returndatasize\n      0x00\n      0x20\n      dup5\n      add\n      returndatacopy\n      jump(tag_100)\n    tag_101:\n      0x60\n      swap2\n      pop\n    tag_100:\n      pop\n      pop\n      pop\n        /* \"TFGv3/Contracts/SCCommission.sol\":3936:3944  deployer */\n      immutable(\"0x44caf484852acee09d52b2802dba26d3c8ab3d28c7abcc1398b87898115633ec\")\n        /* \"TFGv3/Contracts/SCCommission.sol\":3915:3946  selfdestruct(payable(deployer)) */\n      0xffffffffffffffffffffffffffffffffffffffff\n      and\n      selfdestruct\n        /* \"TFGv3/Contracts/SCCommission.sol\":933:1271  function initContract(address proxyAddr, uint lastUpdated_, uint accumCommission_, uint feeYear_, uint r_) external virtual override OnlyDeployer NonInit... */\n    tag_36:\n        /* \"TFGv3/Contracts/SCCommission.sol\":821:829  deployer */\n      immutable(\"0x44caf484852acee09d52b2802dba26d3c8ab3d28c7abcc1398b87898115633ec\")\n        /* \"TFGv3/Contracts/SCCommission.sol\":807:829  msg.sender == deployer */\n      0xffffffffffffffffffffffffffffffffffffffff\n      and\n        /* \"TFGv3/Contracts/SCCommission.sol\":807:817  msg.sender */\n      caller\n        /* \"TFGv3/Contracts/SCCommission.sol\":807:829  msg.sender == deployer */\n      0xffffffffffffffffffffffffffffffffffffffff\n      and\n      eq\n        /* \"TFGv3/Contracts/SCCommission.sol\":799:830  require(msg.sender == deployer) */\n      tag_103\n      jumpi\n      0x00\n      dup1\n      revert\n    tag_103:\n        /* \"TFGv3/Contracts/SCCommission.sol\":907:908  0 */\n      0x00\n        /* \"TFGv3/Contracts/SCCommission.sol\":895:903  initDone */\n      sload(0x05)\n        /* \"TFGv3/Contracts/SCCommission.sol\":895:908  initDone == 0 */\n      eq\n        /* \"TFGv3/Contracts/SCCommission.sol\":887:909  require(initDone == 0) */\n      tag_105\n      jumpi\n      0x00\n      dup1\n      revert\n    tag_105:\n        /* \"TFGv3/Contracts/SCCommission.sol\":1109:1118  proxyAddr */\n      dup5\n        /* \"TFGv3/Contracts/SCCommission.sol\":1101:1106  proxy */\n      0x00\n      dup1\n        /* \"TFGv3/Contracts/SCCommission.sol\":1101:1118  proxy = proxyAddr */\n      0x0100\n      exp\n      dup2\n      sload\n      dup2\n      0xffffffffffffffffffffffffffffffffffffffff\n      mul\n      not\n      and\n      swap1\n      dup4\n      0xffffffffffffffffffffffffffffffffffffffff\n      and\n      mul\n      or\n      swap1\n      sstore\n      pop\n        /* \"TFGv3/Contracts/SCCommission.sol\":1142:1154  lastUpdated_ */\n      dup4\n        /* \"TFGv3/Contracts/SCCommission.sol\":1128:1139  lastUpdated */\n      0x01\n        /* \"TFGv3/Contracts/SCCommission.sol\":1128:1154  lastUpdated = lastUpdated_ */\n      dup2\n      swap1\n      sstore\n      pop\n        /* \"TFGv3/Contracts/SCCommission.sol\":1182:1198  accumCommission_ */\n      dup3\n        /* \"TFGv3/Contracts/SCCommission.sol\":1164:1179  accumCommission */\n      0x02\n        /* \"TFGv3/Contracts/SCCommission.sol\":1164:1198  accumCommission = accumCommission_ */\n      dup2\n      swap1\n      sstore\n      pop\n        /* \"TFGv3/Contracts/SCCommission.sol\":1218:1226  feeYear_ */\n      dup2\n        /* \"TFGv3/Contracts/SCCommission.sol\":1208:1215  feeYear */\n      0x03\n        /* \"TFGv3/Contracts/SCCommission.sol\":1208:1226  feeYear = feeYear_ */\n      dup2\n      swap1\n      sstore\n      pop\n        /* \"TFGv3/Contracts/SCCommission.sol\":1240:1242  r_ */\n      dup1\n        /* \"TFGv3/Contracts/SCCommission.sol\":1236:1237  r */\n      0x04\n        /* \"TFGv3/Contracts/SCCommission.sol\":1236:1242  r = r_ */\n      dup2\n      swap1\n      sstore\n      pop\n        /* \"TFGv3/Contracts/SCCommission.sol\":1263:1264  1 */\n      0x01\n        /* \"TFGv3/Contracts/SCCommission.sol\":1252:1260  initDone */\n      0x05\n        /* \"TFGv3/Contracts/SCCommission.sol\":1252:1264  initDone = 1 */\n      dup2\n      swap1\n      sstore\n      pop\n        /* \"TFGv3/Contracts/SCCommission.sol\":933:1271  function initContract(address proxyAddr, uint lastUpdated_, uint accumCommission_, uint feeYear_, uint r_) external virtual override OnlyDeployer NonInit... */\n      pop\n      pop\n      pop\n      pop\n      pop\n      jump\t// out\n        /* \"TFGv3/Contracts/SCCommission.sol\":1277:1353  function setR(uint newR) external OnlyDeployer... */\n    tag_41:\n        /* \"TFGv3/Contracts/SCCommission.sol\":821:829  deployer */\n      immutable(\"0x44caf484852acee09d52b2802dba26d3c8ab3d28c7abcc1398b87898115633ec\")\n        /* \"TFGv3/Contracts/SCCommission.sol\":807:829  msg.sender == deployer */\n      0xffffffffffffffffffffffffffffffffffffffff\n      and\n        /* \"TFGv3/Contracts/SCCommission.sol\":807:817  msg.sender */\n      caller\n        /* \"TFGv3/Contracts/SCCommission.sol\":807:829  msg.sender == deployer */\n      0xffffffffffffffffffffffffffffffffffffffff\n      and\n      eq\n        /* \"TFGv3/Contracts/SCCommission.sol\":799:830  require(msg.sender == deployer) */\n      tag_108\n      jumpi\n      0x00\n      dup1\n      revert\n    tag_108:\n        /* \"TFGv3/Contracts/SCCommission.sol\":1342:1346  newR */\n      dup1\n        /* \"TFGv3/Contracts/SCCommission.sol\":1338:1339  r */\n      0x04\n        /* \"TFGv3/Contracts/SCCommission.sol\":1338:1346  r = newR */\n      dup2\n      swap1\n      sstore\n      pop\n        /* \"TFGv3/Contracts/SCCommission.sol\":1277:1353  function setR(uint newR) external OnlyDeployer... */\n      pop\n      jump\t// out\n        /* \"TFGv3/Contracts/SCCommission.sol\":347:360  uint public r */\n    tag_44:\n      sload(0x04)\n      dup2\n      jump\t// out\n        /* \"TFGv3/Contracts/SCCommission.sol\":1359:1451  function setFeeYear(uint newFee) external OnlyDeployer... */\n    tag_49:\n        /* \"TFGv3/Contracts/SCCommission.sol\":821:829  deployer */\n      immutable(\"0x44caf484852acee09d52b2802dba26d3c8ab3d28c7abcc1398b87898115633ec\")\n        /* \"TFGv3/Contracts/SCCommission.sol\":807:829  msg.sender == deployer */\n      0xffffffffffffffffffffffffffffffffffffffff\n      and\n        /* \"TFGv3/Contracts/SCCommission.sol\":807:817  msg.sender */\n      caller\n        /* \"TFGv3/Contracts/SCCommission.sol\":807:829  msg.sender == deployer */\n      0xffffffffffffffffffffffffffffffffffffffff\n      and\n      eq\n        /* \"TFGv3/Contracts/SCCommission.sol\":799:830  require(msg.sender == deployer) */\n      tag_111\n      jumpi\n      0x00\n      dup1\n      revert\n    tag_111:\n        /* \"TFGv3/Contracts/SCCommission.sol\":1438:1444  newFee */\n      dup1\n        /* \"TFGv3/Contracts/SCCommission.sol\":1428:1435  feeYear */\n      0x03\n        /* \"TFGv3/Contracts/SCCommission.sol\":1428:1444  feeYear = newFee */\n      dup2\n      swap1\n      sstore\n      pop\n        /* \"TFGv3/Contracts/SCCommission.sol\":1359:1451  function setFeeYear(uint newFee) external OnlyDeployer... */\n      pop\n      jump\t// out\n        /* \"TFGv3/Contracts/SCCommission.sol\":232:259  uint public accumCommission */\n    tag_52:\n      sload(0x02)\n      dup2\n      jump\t// out\n        /* \"TFGv3/Contracts/SCCommission.sol\":3128:3266  function updateProxy(address newAddr) external virtual override... */\n    tag_58:\n        /* \"TFGv3/Contracts/SCCommission.sol\":3228:3233  proxy */\n      0x00\n      dup1\n      sload\n      swap1\n      0x0100\n      exp\n      swap1\n      div\n      0xffffffffffffffffffffffffffffffffffffffff\n      and\n        /* \"TFGv3/Contracts/SCCommission.sol\":3214:3233  msg.sender == proxy */\n      0xffffffffffffffffffffffffffffffffffffffff\n      and\n        /* \"TFGv3/Contracts/SCCommission.sol\":3214:3224  msg.sender */\n      caller\n        /* \"TFGv3/Contracts/SCCommission.sol\":3214:3233  msg.sender == proxy */\n      0xffffffffffffffffffffffffffffffffffffffff\n      and\n      eq\n        /* \"TFGv3/Contracts/SCCommission.sol\":3206:3234  require(msg.sender == proxy) */\n      tag_114\n      jumpi\n      0x00\n      dup1\n      revert\n    tag_114:\n        /* \"TFGv3/Contracts/SCCommission.sol\":3252:3259  newAddr */\n      dup1\n        /* \"TFGv3/Contracts/SCCommission.sol\":3244:3249  proxy */\n      0x00\n      dup1\n        /* \"TFGv3/Contracts/SCCommission.sol\":3244:3259  proxy = newAddr */\n      0x0100\n      exp\n      dup2\n      sload\n      dup2\n      0xffffffffffffffffffffffffffffffffffffffff\n      mul\n      not\n      and\n      swap1\n      dup4\n      0xffffffffffffffffffffffffffffffffffffffff\n      and\n      mul\n      or\n      swap1\n      sstore\n      pop\n        /* \"TFGv3/Contracts/SCCommission.sol\":3128:3266  function updateProxy(address newAddr) external virtual override... */\n      pop\n      jump\t// out\n        /* \"TFGv3/Contracts/SCCommission.sol\":2188:2855  function payComissions(uint buyOrSell) external virtual override returns (uint payedComissions)... */\n    tag_62:\n        /* \"TFGv3/Contracts/SCCommission.sol\":2262:2282  uint payedComissions */\n      0x00\n        /* \"TFGv3/Contracts/SCCommission.sol\":2298:2315  address proxyAddr */\n      dup1\n        /* \"TFGv3/Contracts/SCCommission.sol\":2318:2323  proxy */\n      0x00\n      dup1\n      sload\n      swap1\n      0x0100\n      exp\n      swap1\n      div\n      0xffffffffffffffffffffffffffffffffffffffff\n      and\n        /* \"TFGv3/Contracts/SCCommission.sol\":2298:2323  address proxyAddr = proxy */\n      swap1\n      pop\n        /* \"TFGv3/Contracts/SCCommission.sol\":2381:2391  msg.sender */\n      caller\n        /* \"TFGv3/Contracts/SCCommission.sol\":2341:2391  IProxy(proxyAddr).exchangeContract() == msg.sender */\n      0xffffffffffffffffffffffffffffffffffffffff\n      and\n        /* \"TFGv3/Contracts/SCCommission.sol\":2348:2357  proxyAddr */\n      dup2\n        /* \"TFGv3/Contracts/SCCommission.sol\":2341:2375  IProxy(proxyAddr).exchangeContract */\n      0xffffffffffffffffffffffffffffffffffffffff\n      and\n      0x3f0a0797\n        /* \"TFGv3/Contracts/SCCommission.sol\":2341:2377  IProxy(proxyAddr).exchangeContract() */\n      mload(0x40)\n      dup2\n      0xffffffff\n      and\n      0xe0\n      shl\n      dup2\n      mstore\n      0x04\n      add\n      0x20\n      mload(0x40)\n      dup1\n      dup4\n      sub\n      dup2\n      dup7\n      gas\n      staticcall\n      iszero\n      dup1\n      iszero\n      tag_117\n      jumpi\n      returndatasize\n      0x00\n      dup1\n      returndatacopy\n      revert(0x00, returndatasize)\n    tag_117:\n      pop\n      pop\n      pop\n      pop\n      mload(0x40)\n      returndatasize\n      not(0x1f)\n      0x1f\n      dup3\n      add\n      and\n      dup3\n      add\n      dup1\n      0x40\n      mstore\n      pop\n      dup2\n      add\n      swap1\n      tag_118\n      swap2\n      swap1\n      tag_119\n      jump\t// in\n    tag_118:\n        /* \"TFGv3/Contracts/SCCommission.sol\":2341:2391  IProxy(proxyAddr).exchangeContract() == msg.sender */\n      0xffffffffffffffffffffffffffffffffffffffff\n      and\n      eq\n        /* \"TFGv3/Contracts/SCCommission.sol\":2333:2392  require(IProxy(proxyAddr).exchangeContract() == msg.sender) */\n      tag_120\n      jumpi\n      0x00\n      dup1\n      revert\n    tag_120:\n        /* \"TFGv3/Contracts/SCCommission.sol\":2402:2417  uint commission */\n      0x00\n        /* \"TFGv3/Contracts/SCCommission.sol\":2420:2439  computeCommission() */\n      tag_121\n        /* \"TFGv3/Contracts/SCCommission.sol\":2420:2437  computeCommission */\n      tag_122\n        /* \"TFGv3/Contracts/SCCommission.sol\":2420:2439  computeCommission() */\n      jump\t// in\n    tag_121:\n        /* \"TFGv3/Contracts/SCCommission.sol\":2402:2439  uint commission = computeCommission() */\n      swap1\n      pop\n        /* \"TFGv3/Contracts/SCCommission.sol\":2465:2466  0 */\n      0x00\n        /* \"TFGv3/Contracts/SCCommission.sol\":2452:2461  buyOrSell */\n      dup5\n        /* \"TFGv3/Contracts/SCCommission.sol\":2452:2466  buyOrSell == 0 */\n      sub\n        /* \"TFGv3/Contracts/SCCommission.sol\":2449:2849  if(buyOrSell == 0)... */\n      tag_123\n      jumpi\n        /* \"TFGv3/Contracts/SCCommission.sol\":2526:2536  commission */\n      dup1\n        /* \"TFGv3/Contracts/SCCommission.sol\":2508:2523  accumCommission */\n      sload(0x02)\n        /* \"TFGv3/Contracts/SCCommission.sol\":2508:2536  accumCommission + commission */\n      tag_124\n      swap2\n      swap1\n      tag_125\n      jump\t// in\n    tag_124:\n        /* \"TFGv3/Contracts/SCCommission.sol\":2490:2536  payedComissions = accumCommission + commission */\n      swap3\n      pop\n        /* \"TFGv3/Contracts/SCCommission.sol\":2568:2583  payedComissions */\n      dup3\n        /* \"TFGv3/Contracts/SCCommission.sol\":2550:2565  accumCommission */\n      0x02\n        /* \"TFGv3/Contracts/SCCommission.sol\":2550:2583  accumCommission = payedComissions */\n      dup2\n      swap1\n      sstore\n      pop\n        /* \"TFGv3/Contracts/SCCommission.sol\":2449:2849  if(buyOrSell == 0)... */\n      jump(tag_126)\n    tag_123:\n        /* \"TFGv3/Contracts/SCCommission.sol\":2624:2625  1 */\n      0x01\n        /* \"TFGv3/Contracts/SCCommission.sol\":2611:2620  buyOrSell */\n      dup5\n        /* \"TFGv3/Contracts/SCCommission.sol\":2611:2625  buyOrSell == 1 */\n      sub\n        /* \"TFGv3/Contracts/SCCommission.sol\":2608:2849  if(buyOrSell == 1)... */\n      tag_127\n      jumpi\n        /* \"TFGv3/Contracts/SCCommission.sol\":2680:2695  accumCommission */\n      sload(0x02)\n        /* \"TFGv3/Contracts/SCCommission.sol\":2667:2677  commission */\n      dup2\n        /* \"TFGv3/Contracts/SCCommission.sol\":2667:2695  commission + accumCommission */\n      tag_128\n      swap2\n      swap1\n      tag_125\n      jump\t// in\n    tag_128:\n        /* \"TFGv3/Contracts/SCCommission.sol\":2649:2695  payedComissions = commission + accumCommission */\n      swap3\n      pop\n        /* \"TFGv3/Contracts/SCCommission.sol\":2727:2736  proxyAddr */\n      dup2\n        /* \"TFGv3/Contracts/SCCommission.sol\":2720:2756  IProxy(proxyAddr).commissionContract */\n      0xffffffffffffffffffffffffffffffffffffffff\n      and\n      0xda8909e5\n        /* \"TFGv3/Contracts/SCCommission.sol\":2720:2758  IProxy(proxyAddr).commissionContract() */\n      mload(0x40)\n      dup2\n      0xffffffff\n      and\n      0xe0\n      shl\n      dup2\n      mstore\n      0x04\n      add\n      0x20\n      mload(0x40)\n      dup1\n      dup4\n      sub\n      dup2\n      dup7\n      gas\n      staticcall\n      iszero\n      dup1\n      iszero\n      tag_130\n      jumpi\n      returndatasize\n      0x00\n      dup1\n      returndatacopy\n      revert(0x00, returndatasize)\n    tag_130:\n      pop\n      pop\n      pop\n      pop\n      mload(0x40)\n      returndatasize\n      not(0x1f)\n      0x1f\n      dup3\n      add\n      and\n      dup3\n      add\n      dup1\n      0x40\n      mstore\n      pop\n      dup2\n      add\n      swap1\n      tag_131\n      swap2\n      swap1\n      tag_119\n      jump\t// in\n    tag_131:\n        /* \"TFGv3/Contracts/SCCommission.sol\":2709:2773  ISCStorage(IProxy(proxyAddr).commissionContract()).transferFunds */\n      0xffffffffffffffffffffffffffffffffffffffff\n      and\n      0x990dc9db\n        /* \"TFGv3/Contracts/SCCommission.sol\":2782:2786  this */\n      address\n        /* \"TFGv3/Contracts/SCCommission.sol\":2789:2804  payedComissions */\n      dup6\n        /* \"TFGv3/Contracts/SCCommission.sol\":2709:2805  ISCStorage(IProxy(proxyAddr).commissionContract()).transferFunds(address(this), payedComissions) */\n      mload(0x40)\n      dup4\n      0xffffffff\n      and\n      0xe0\n      shl\n      dup2\n      mstore\n      0x04\n      add\n      tag_132\n      swap3\n      swap2\n      swap1\n      tag_133\n      jump\t// in\n    tag_132:\n      0x20\n      mload(0x40)\n      dup1\n      dup4\n      sub\n      dup2\n      0x00\n      dup8\n      gas\n      call\n      iszero\n      dup1\n      iszero\n      tag_135\n      jumpi\n      returndatasize\n      0x00\n      dup1\n      returndatacopy\n      revert(0x00, returndatasize)\n    tag_135:\n      pop\n      pop\n      pop\n      pop\n      mload(0x40)\n      returndatasize\n      not(0x1f)\n      0x1f\n      dup3\n      add\n      and\n      dup3\n      add\n      dup1\n      0x40\n      mstore\n      pop\n      dup2\n      add\n      swap1\n      tag_136\n      swap2\n      swap1\n      tag_137\n      jump\t// in\n    tag_136:\n      pop\n        /* \"TFGv3/Contracts/SCCommission.sol\":2837:2838  0 */\n      0x00\n        /* \"TFGv3/Contracts/SCCommission.sol\":2819:2834  accumCommission */\n      0x02\n        /* \"TFGv3/Contracts/SCCommission.sol\":2819:2838  accumCommission = 0 */\n      dup2\n      swap1\n      sstore\n      pop\n        /* \"TFGv3/Contracts/SCCommission.sol\":2608:2849  if(buyOrSell == 1)... */\n    tag_127:\n        /* \"TFGv3/Contracts/SCCommission.sol\":2449:2849  if(buyOrSell == 0)... */\n    tag_126:\n        /* \"TFGv3/Contracts/SCCommission.sol\":2288:2855  {... */\n      pop\n      pop\n        /* \"TFGv3/Contracts/SCCommission.sol\":2188:2855  function payComissions(uint buyOrSell) external virtual override returns (uint payedComissions)... */\n      swap2\n      swap1\n      pop\n      jump\t// out\n        /* \"TFGv3/Contracts/SCCommission.sol\":206:229  uint public lastUpdated */\n    tag_66:\n      sload(0x01)\n      dup2\n      jump\t// out\n        /* \"TFGv3/Contracts/SCCommission.sol\":181:201  address public proxy */\n    tag_70:\n      0x00\n      dup1\n      sload\n      swap1\n      0x0100\n      exp\n      swap1\n      div\n      0xffffffffffffffffffffffffffffffffffffffff\n      and\n      dup2\n      jump\t// out\n        /* \"TFGv3/Contracts/SCCommission.sol\":2861:3122  function collectCommission(address[] calldata tokensToTransfer, uint[] calldata qty) external virtual override OnlyDeployer... */\n    tag_77:\n        /* \"TFGv3/Contracts/SCCommission.sol\":821:829  deployer */\n      immutable(\"0x44caf484852acee09d52b2802dba26d3c8ab3d28c7abcc1398b87898115633ec\")\n        /* \"TFGv3/Contracts/SCCommission.sol\":807:829  msg.sender == deployer */\n      0xffffffffffffffffffffffffffffffffffffffff\n      and\n        /* \"TFGv3/Contracts/SCCommission.sol\":807:817  msg.sender */\n      caller\n        /* \"TFGv3/Contracts/SCCommission.sol\":807:829  msg.sender == deployer */\n      0xffffffffffffffffffffffffffffffffffffffff\n      and\n      eq\n        /* \"TFGv3/Contracts/SCCommission.sol\":799:830  require(msg.sender == deployer) */\n      tag_139\n      jumpi\n      0x00\n      dup1\n      revert\n    tag_139:\n        /* \"TFGv3/Contracts/SCCommission.sol\":2999:3009  address to */\n      0x00\n        /* \"TFGv3/Contracts/SCCommission.sol\":3012:3020  deployer */\n      immutable(\"0x44caf484852acee09d52b2802dba26d3c8ab3d28c7abcc1398b87898115633ec\")\n        /* \"TFGv3/Contracts/SCCommission.sol\":2999:3020  address to = deployer */\n      swap1\n      pop\n        /* \"TFGv3/Contracts/SCCommission.sol\":3034:3040  uint i */\n      0x00\n        /* \"TFGv3/Contracts/SCCommission.sol\":3030:3115  for(uint i = 0; i < qty.length; i++) IERC20(tokensToTransfer[i]).transfer(to, qty[i]) */\n    tag_141:\n        /* \"TFGv3/Contracts/SCCommission.sol\":3050:3053  qty */\n      dup4\n      dup4\n        /* \"TFGv3/Contracts/SCCommission.sol\":3050:3060  qty.length */\n      swap1\n      pop\n        /* \"TFGv3/Contracts/SCCommission.sol\":3046:3047  i */\n      dup2\n        /* \"TFGv3/Contracts/SCCommission.sol\":3046:3060  i < qty.length */\n      lt\n        /* \"TFGv3/Contracts/SCCommission.sol\":3030:3115  for(uint i = 0; i < qty.length; i++) IERC20(tokensToTransfer[i]).transfer(to, qty[i]) */\n      iszero\n      tag_142\n      jumpi\n        /* \"TFGv3/Contracts/SCCommission.sol\":3074:3090  tokensToTransfer */\n      dup6\n      dup6\n        /* \"TFGv3/Contracts/SCCommission.sol\":3091:3092  i */\n      dup3\n        /* \"TFGv3/Contracts/SCCommission.sol\":3074:3093  tokensToTransfer[i] */\n      dup2\n      dup2\n      lt\n      tag_144\n      jumpi\n      tag_145\n      tag_146\n      jump\t// in\n    tag_145:\n    tag_144:\n      swap1\n      pop\n      0x20\n      mul\n      add\n      0x20\n      dup2\n      add\n      swap1\n      tag_147\n      swap2\n      swap1\n      tag_57\n      jump\t// in\n    tag_147:\n        /* \"TFGv3/Contracts/SCCommission.sol\":3067:3103  IERC20(tokensToTransfer[i]).transfer */\n      0xffffffffffffffffffffffffffffffffffffffff\n      and\n      0xa9059cbb\n        /* \"TFGv3/Contracts/SCCommission.sol\":3104:3106  to */\n      dup4\n        /* \"TFGv3/Contracts/SCCommission.sol\":3108:3111  qty */\n      dup7\n      dup7\n        /* \"TFGv3/Contracts/SCCommission.sol\":3112:3113  i */\n      dup6\n        /* \"TFGv3/Contracts/SCCommission.sol\":3108:3114  qty[i] */\n      dup2\n      dup2\n      lt\n      tag_148\n      jumpi\n      tag_149\n      tag_146\n      jump\t// in\n    tag_149:\n    tag_148:\n      swap1\n      pop\n      0x20\n      mul\n      add\n      calldataload\n        /* \"TFGv3/Contracts/SCCommission.sol\":3067:3115  IERC20(tokensToTransfer[i]).transfer(to, qty[i]) */\n      mload(0x40)\n      dup4\n      0xffffffff\n      and\n      0xe0\n      shl\n      dup2\n      mstore\n      0x04\n      add\n      tag_150\n      swap3\n      swap2\n      swap1\n      tag_133\n      jump\t// in\n    tag_150:\n      0x20\n      mload(0x40)\n      dup1\n      dup4\n      sub\n      dup2\n      0x00\n      dup8\n      gas\n      call\n      iszero\n      dup1\n      iszero\n      tag_152\n      jumpi\n      returndatasize\n      0x00\n      dup1\n      returndatacopy\n      revert(0x00, returndatasize)\n    tag_152:\n      pop\n      pop\n      pop\n      pop\n      mload(0x40)\n      returndatasize\n      not(0x1f)\n      0x1f\n      dup3\n      add\n      and\n      dup3\n      add\n      dup1\n      0x40\n      mstore\n      pop\n      dup2\n      add\n      swap1\n      tag_153\n      swap2\n      swap1\n      tag_137\n      jump\t// in\n    tag_153:\n      pop\n        /* \"TFGv3/Contracts/SCCommission.sol\":3062:3065  i++ */\n      dup1\n      dup1\n      tag_154\n      swap1\n      tag_155\n      jump\t// in\n    tag_154:\n      swap2\n      pop\n      pop\n        /* \"TFGv3/Contracts/SCCommission.sol\":3030:3115  for(uint i = 0; i < qty.length; i++) IERC20(tokensToTransfer[i]).transfer(to, qty[i]) */\n      jump(tag_141)\n    tag_142:\n      pop\n        /* \"TFGv3/Contracts/SCCommission.sol\":2989:3122  {... */\n      pop\n        /* \"TFGv3/Contracts/SCCommission.sol\":2861:3122  function collectCommission(address[] calldata tokensToTransfer, uint[] calldata qty) external virtual override OnlyDeployer... */\n      pop\n      pop\n      pop\n      pop\n      jump\t// out\n        /* \"TFGv3/Contracts/SCCommission.sol\":645:665  uint public initDone */\n    tag_80:\n      sload(0x05)\n      dup2\n      jump\t// out\n        /* \"TFGv3/Contracts/SCCommission.sol\":1457:2182  function computeCommission() internal view returns (uint commission)... */\n    tag_122:\n        /* \"TFGv3/Contracts/SCCommission.sol\":1509:1524  uint commission */\n      0x00\n        /* \"TFGv3/Contracts/SCCommission.sol\":1579:1598  address storageAddr */\n      dup1\n        /* \"TFGv3/Contracts/SCCommission.sol\":1608:1617  uint time */\n      0x00\n        /* \"TFGv3/Contracts/SCCommission.sol\":1620:1631  lastUpdated */\n      sload(0x01)\n        /* \"TFGv3/Contracts/SCCommission.sol\":1608:1631  uint time = lastUpdated */\n      swap1\n      pop\n        /* \"TFGv3/Contracts/SCCommission.sol\":1653:1668  block.timestamp */\n      timestamp\n        /* \"TFGv3/Contracts/SCCommission.sol\":1645:1649  time */\n      dup2\n        /* \"TFGv3/Contracts/SCCommission.sol\":1645:1668  time == block.timestamp */\n      sub\n        /* \"TFGv3/Contracts/SCCommission.sol\":1642:2176  if(time == block.timestamp) commission = 0;... */\n      tag_157\n      jumpi\n        /* \"TFGv3/Contracts/SCCommission.sol\":1683:1684  0 */\n      0x00\n        /* \"TFGv3/Contracts/SCCommission.sol\":1670:1684  commission = 0 */\n      swap3\n      pop\n        /* \"TFGv3/Contracts/SCCommission.sol\":1642:2176  if(time == block.timestamp) commission = 0;... */\n      jump(tag_158)\n    tag_157:\n        /* \"TFGv3/Contracts/SCCommission.sol\":1721:1728  uint dt */\n      0x00\n        /* \"TFGv3/Contracts/SCCommission.sol\":1749:1753  time */\n      dup2\n        /* \"TFGv3/Contracts/SCCommission.sol\":1731:1746  block.timestamp */\n      timestamp\n        /* \"TFGv3/Contracts/SCCommission.sol\":1731:1753  block.timestamp - time */\n      tag_159\n      swap2\n      swap1\n      tag_160\n      jump\t// in\n    tag_159:\n        /* \"TFGv3/Contracts/SCCommission.sol\":1721:1753  uint dt = block.timestamp - time */\n      swap1\n      pop\n        /* \"TFGv3/Contracts/SCCommission.sol\":1767:1776  uint rFee */\n      0x00\n        /* \"TFGv3/Contracts/SCCommission.sol\":1779:1780  r */\n      sload(0x04)\n        /* \"TFGv3/Contracts/SCCommission.sol\":1767:1780  uint rFee = r */\n      swap1\n      pop\n        /* \"TFGv3/Contracts/SCCommission.sol\":1815:1820  proxy */\n      0x00\n      dup1\n      sload\n      swap1\n      0x0100\n      exp\n      swap1\n      div\n      0xffffffffffffffffffffffffffffffffffffffff\n      and\n        /* \"TFGv3/Contracts/SCCommission.sol\":1808:1837  IProxy(proxy).storageContract */\n      0xffffffffffffffffffffffffffffffffffffffff\n      and\n      0x11ce0267\n        /* \"TFGv3/Contracts/SCCommission.sol\":1808:1839  IProxy(proxy).storageContract() */\n      mload(0x40)\n      dup2\n      0xffffffff\n      and\n      0xe0\n      shl\n      dup2\n      mstore\n      0x04\n      add\n      0x20\n      mload(0x40)\n      dup1\n      dup4\n      sub\n      dup2\n      dup7\n      gas\n      staticcall\n      iszero\n      dup1\n      iszero\n      tag_162\n      jumpi\n      returndatasize\n      0x00\n      dup1\n      returndatacopy\n      revert(0x00, returndatasize)\n    tag_162:\n      pop\n      pop\n      pop\n      pop\n      mload(0x40)\n      returndatasize\n      not(0x1f)\n      0x1f\n      dup3\n      add\n      and\n      dup3\n      add\n      dup1\n      0x40\n      mstore\n      pop\n      dup2\n      add\n      swap1\n      tag_163\n      swap2\n      swap1\n      tag_119\n      jump\t// in\n    tag_163:\n        /* \"TFGv3/Contracts/SCCommission.sol\":1794:1839  storageAddr = IProxy(proxy).storageContract() */\n      swap4\n      pop\n        /* \"TFGv3/Contracts/SCCommission.sol\":1866:1879  uint NAVvalue */\n      0x00\n        /* \"TFGv3/Contracts/SCCommission.sol\":1893:1904  storageAddr */\n      dup5\n        /* \"TFGv3/Contracts/SCCommission.sol\":1882:1909  ISCStorage(storageAddr).NAV */\n      0xffffffffffffffffffffffffffffffffffffffff\n      and\n      0x52fd856b\n        /* \"TFGv3/Contracts/SCCommission.sol\":1882:1911  ISCStorage(storageAddr).NAV() */\n      mload(0x40)\n      dup2\n      0xffffffff\n      and\n      0xe0\n      shl\n      dup2\n      mstore\n      0x04\n      add\n      0x20\n      mload(0x40)\n      dup1\n      dup4\n      sub\n      dup2\n      dup7\n      gas\n      staticcall\n      iszero\n      dup1\n      iszero\n      tag_165\n      jumpi\n      returndatasize\n      0x00\n      dup1\n      returndatacopy\n      revert(0x00, returndatasize)\n    tag_165:\n      pop\n      pop\n      pop\n      pop\n      mload(0x40)\n      returndatasize\n      not(0x1f)\n      0x1f\n      dup3\n      add\n      and\n      dup3\n      add\n      dup1\n      0x40\n      mstore\n      pop\n      dup2\n      add\n      swap1\n      tag_166\n      swap2\n      swap1\n      tag_167\n      jump\t// in\n    tag_166:\n        /* \"TFGv3/Contracts/SCCommission.sol\":1866:1911  uint NAVvalue = ISCStorage(storageAddr).NAV() */\n      swap1\n      pop\n        /* \"TFGv3/Contracts/SCCommission.sol\":2163:2165  24 */\n      0x18\n        /* \"TFGv3/Contracts/SCCommission.sol\":2158:2162  1e18 */\n      0x0de0b6b3a7640000\n        /* \"TFGv3/Contracts/SCCommission.sol\":2153:2157  rFee */\n      dup4\n        /* \"TFGv3/Contracts/SCCommission.sol\":2148:2152  1e18 */\n      0x0de0b6b3a7640000\n        /* \"TFGv3/Contracts/SCCommission.sol\":2143:2147  rFee */\n      dup6\n        /* \"TFGv3/Contracts/SCCommission.sol\":2138:2142  1e18 */\n      0x0de0b6b3a7640000\n        /* \"TFGv3/Contracts/SCCommission.sol\":2133:2137  rFee */\n      dup8\n        /* \"TFGv3/Contracts/SCCommission.sol\":2128:2132  1e18 */\n      0x0de0b6b3a7640000\n        /* \"TFGv3/Contracts/SCCommission.sol\":2123:2127  rFee */\n      dup10\n        /* \"TFGv3/Contracts/SCCommission.sol\":2120:2121  3 */\n      0x03\n        /* \"TFGv3/Contracts/SCCommission.sol\":2117:2119  dt */\n      dup13\n        /* \"TFGv3/Contracts/SCCommission.sol\":2117:2121  dt-3 */\n      tag_168\n      swap2\n      swap1\n      tag_160\n      jump\t// in\n    tag_168:\n        /* \"TFGv3/Contracts/SCCommission.sol\":2113:2114  2 */\n      0x02\n        /* \"TFGv3/Contracts/SCCommission.sol\":2110:2112  dt */\n      dup14\n        /* \"TFGv3/Contracts/SCCommission.sol\":2110:2114  dt-2 */\n      tag_169\n      swap2\n      swap1\n      tag_160\n      jump\t// in\n    tag_169:\n        /* \"TFGv3/Contracts/SCCommission.sol\":2106:2107  1 */\n      0x01\n        /* \"TFGv3/Contracts/SCCommission.sol\":2103:2105  dt */\n      dup15\n        /* \"TFGv3/Contracts/SCCommission.sol\":2103:2107  dt-1 */\n      tag_170\n      swap2\n      swap1\n      tag_160\n      jump\t// in\n    tag_170:\n        /* \"TFGv3/Contracts/SCCommission.sol\":2099:2101  dt */\n      dup15\n        /* \"TFGv3/Contracts/SCCommission.sol\":2090:2098  NAVvalue */\n      dup14\n        /* \"TFGv3/Contracts/SCCommission.sol\":2090:2101  NAVvalue*dt */\n      tag_171\n      swap2\n      swap1\n      tag_172\n      jump\t// in\n    tag_171:\n        /* \"TFGv3/Contracts/SCCommission.sol\":2090:2108  NAVvalue*dt*(dt-1) */\n      tag_173\n      swap2\n      swap1\n      tag_172\n      jump\t// in\n    tag_173:\n        /* \"TFGv3/Contracts/SCCommission.sol\":2090:2115  NAVvalue*dt*(dt-1)*(dt-2) */\n      tag_174\n      swap2\n      swap1\n      tag_172\n      jump\t// in\n    tag_174:\n        /* \"TFGv3/Contracts/SCCommission.sol\":2090:2122  NAVvalue*dt*(dt-1)*(dt-2)*(dt-3) */\n      tag_175\n      swap2\n      swap1\n      tag_172\n      jump\t// in\n    tag_175:\n        /* \"TFGv3/Contracts/SCCommission.sol\":2090:2127  NAVvalue*dt*(dt-1)*(dt-2)*(dt-3)*rFee */\n      tag_176\n      swap2\n      swap1\n      tag_172\n      jump\t// in\n    tag_176:\n        /* \"TFGv3/Contracts/SCCommission.sol\":2090:2132  NAVvalue*dt*(dt-1)*(dt-2)*(dt-3)*rFee/1e18 */\n      tag_177\n      swap2\n      swap1\n      tag_178\n      jump\t// in\n    tag_177:\n        /* \"TFGv3/Contracts/SCCommission.sol\":2090:2137  NAVvalue*dt*(dt-1)*(dt-2)*(dt-3)*rFee/1e18*rFee */\n      tag_179\n      swap2\n      swap1\n      tag_172\n      jump\t// in\n    tag_179:\n        /* \"TFGv3/Contracts/SCCommission.sol\":2090:2142  NAVvalue*dt*(dt-1)*(dt-2)*(dt-3)*rFee/1e18*rFee/1e18 */\n      tag_180\n      swap2\n      swap1\n      tag_178\n      jump\t// in\n    tag_180:\n        /* \"TFGv3/Contracts/SCCommission.sol\":2090:2147  NAVvalue*dt*(dt-1)*(dt-2)*(dt-3)*rFee/1e18*rFee/1e18*rFee */\n      tag_181\n      swap2\n      swap1\n      tag_172\n      jump\t// in\n    tag_181:\n        /* \"TFGv3/Contracts/SCCommission.sol\":2090:2152  NAVvalue*dt*(dt-1)*(dt-2)*(dt-3)*rFee/1e18*rFee/1e18*rFee/1e18 */\n      tag_182\n      swap2\n      swap1\n      tag_178\n      jump\t// in\n    tag_182:\n        /* \"TFGv3/Contracts/SCCommission.sol\":2090:2157  NAVvalue*dt*(dt-1)*(dt-2)*(dt-3)*rFee/1e18*rFee/1e18*rFee/1e18*rFee */\n      tag_183\n      swap2\n      swap1\n      tag_172\n      jump\t// in\n    tag_183:\n        /* \"TFGv3/Contracts/SCCommission.sol\":2090:2162  NAVvalue*dt*(dt-1)*(dt-2)*(dt-3)*rFee/1e18*rFee/1e18*rFee/1e18*rFee/1e18 */\n      tag_184\n      swap2\n      swap1\n      tag_178\n      jump\t// in\n    tag_184:\n        /* \"TFGv3/Contracts/SCCommission.sol\":2090:2165  NAVvalue*dt*(dt-1)*(dt-2)*(dt-3)*rFee/1e18*rFee/1e18*rFee/1e18*rFee/1e18/24 */\n      tag_185\n      swap2\n      swap1\n      tag_178\n      jump\t// in\n    tag_185:\n        /* \"TFGv3/Contracts/SCCommission.sol\":2083:2087  1e36 */\n      0xc097ce7bc90715b34b9f1000000000\n        /* \"TFGv3/Contracts/SCCommission.sol\":2080:2081  6 */\n      0x06\n        /* \"TFGv3/Contracts/SCCommission.sol\":2075:2079  rFee */\n      dup5\n        /* \"TFGv3/Contracts/SCCommission.sol\":2070:2074  1e18 */\n      0x0de0b6b3a7640000\n        /* \"TFGv3/Contracts/SCCommission.sol\":2065:2069  rFee */\n      dup7\n        /* \"TFGv3/Contracts/SCCommission.sol\":2060:2064  rFee */\n      dup8\n        /* \"TFGv3/Contracts/SCCommission.sol\":2057:2058  2 */\n      0x02\n        /* \"TFGv3/Contracts/SCCommission.sol\":2054:2056  dt */\n      dup11\n        /* \"TFGv3/Contracts/SCCommission.sol\":2054:2058  dt-2 */\n      tag_186\n      swap2\n      swap1\n      tag_160\n      jump\t// in\n    tag_186:\n        /* \"TFGv3/Contracts/SCCommission.sol\":2050:2051  1 */\n      0x01\n        /* \"TFGv3/Contracts/SCCommission.sol\":2047:2049  dt */\n      dup12\n        /* \"TFGv3/Contracts/SCCommission.sol\":2047:2051  dt-1 */\n      tag_187\n      swap2\n      swap1\n      tag_160\n      jump\t// in\n    tag_187:\n        /* \"TFGv3/Contracts/SCCommission.sol\":2043:2045  dt */\n      dup12\n        /* \"TFGv3/Contracts/SCCommission.sol\":2043:2052  dt*(dt-1) */\n      tag_188\n      swap2\n      swap1\n      tag_172\n      jump\t// in\n    tag_188:\n        /* \"TFGv3/Contracts/SCCommission.sol\":2043:2059  dt*(dt-1)*(dt-2) */\n      tag_189\n      swap2\n      swap1\n      tag_172\n      jump\t// in\n    tag_189:\n        /* \"TFGv3/Contracts/SCCommission.sol\":2043:2064  dt*(dt-1)*(dt-2)*rFee */\n      tag_190\n      swap2\n      swap1\n      tag_172\n      jump\t// in\n    tag_190:\n        /* \"TFGv3/Contracts/SCCommission.sol\":2043:2069  dt*(dt-1)*(dt-2)*rFee*rFee */\n      tag_191\n      swap2\n      swap1\n      tag_172\n      jump\t// in\n    tag_191:\n        /* \"TFGv3/Contracts/SCCommission.sol\":2043:2074  dt*(dt-1)*(dt-2)*rFee*rFee/1e18 */\n      tag_192\n      swap2\n      swap1\n      tag_178\n      jump\t// in\n    tag_192:\n        /* \"TFGv3/Contracts/SCCommission.sol\":2043:2079  dt*(dt-1)*(dt-2)*rFee*rFee/1e18*rFee */\n      tag_193\n      swap2\n      swap1\n      tag_172\n      jump\t// in\n    tag_193:\n        /* \"TFGv3/Contracts/SCCommission.sol\":2043:2081  dt*(dt-1)*(dt-2)*rFee*rFee/1e18*rFee/6 */\n      tag_194\n      swap2\n      swap1\n      tag_178\n      jump\t// in\n    tag_194:\n        /* \"TFGv3/Contracts/SCCommission.sol\":2033:2041  NAVvalue */\n      dup4\n        /* \"TFGv3/Contracts/SCCommission.sol\":2033:2082  NAVvalue*(dt*(dt-1)*(dt-2)*rFee*rFee/1e18*rFee/6) */\n      tag_195\n      swap2\n      swap1\n      tag_172\n      jump\t// in\n    tag_195:\n        /* \"TFGv3/Contracts/SCCommission.sol\":2033:2087  NAVvalue*(dt*(dt-1)*(dt-2)*rFee*rFee/1e18*rFee/6)/1e36 */\n      tag_196\n      swap2\n      swap1\n      tag_178\n      jump\t// in\n    tag_196:\n        /* \"TFGv3/Contracts/SCCommission.sol\":2026:2030  1e36 */\n      0xc097ce7bc90715b34b9f1000000000\n        /* \"TFGv3/Contracts/SCCommission.sol\":2023:2024  2 */\n      0x02\n        /* \"TFGv3/Contracts/SCCommission.sol\":2018:2022  rFee */\n      dup6\n        /* \"TFGv3/Contracts/SCCommission.sol\":2013:2017  rFee */\n      dup7\n        /* \"TFGv3/Contracts/SCCommission.sol\":2010:2011  1 */\n      0x01\n        /* \"TFGv3/Contracts/SCCommission.sol\":2007:2009  dt */\n      dup10\n        /* \"TFGv3/Contracts/SCCommission.sol\":2007:2011  dt-1 */\n      tag_197\n      swap2\n      swap1\n      tag_160\n      jump\t// in\n    tag_197:\n        /* \"TFGv3/Contracts/SCCommission.sol\":2003:2005  dt */\n      dup10\n        /* \"TFGv3/Contracts/SCCommission.sol\":2003:2012  dt*(dt-1) */\n      tag_198\n      swap2\n      swap1\n      tag_172\n      jump\t// in\n    tag_198:\n        /* \"TFGv3/Contracts/SCCommission.sol\":2003:2017  dt*(dt-1)*rFee */\n      tag_199\n      swap2\n      swap1\n      tag_172\n      jump\t// in\n    tag_199:\n        /* \"TFGv3/Contracts/SCCommission.sol\":2003:2022  dt*(dt-1)*rFee*rFee */\n      tag_200\n      swap2\n      swap1\n      tag_172\n      jump\t// in\n    tag_200:\n        /* \"TFGv3/Contracts/SCCommission.sol\":2003:2024  dt*(dt-1)*rFee*rFee/2 */\n      tag_201\n      swap2\n      swap1\n      tag_178\n      jump\t// in\n    tag_201:\n        /* \"TFGv3/Contracts/SCCommission.sol\":1993:2001  NAVvalue */\n      dup5\n        /* \"TFGv3/Contracts/SCCommission.sol\":1993:2025  NAVvalue*(dt*(dt-1)*rFee*rFee/2) */\n      tag_202\n      swap2\n      swap1\n      tag_172\n      jump\t// in\n    tag_202:\n        /* \"TFGv3/Contracts/SCCommission.sol\":1993:2030  NAVvalue*(dt*(dt-1)*rFee*rFee/2)/1e36 */\n      tag_203\n      swap2\n      swap1\n      tag_178\n      jump\t// in\n    tag_203:\n        /* \"TFGv3/Contracts/SCCommission.sol\":1986:1990  1e18 */\n      0x0de0b6b3a7640000\n        /* \"TFGv3/Contracts/SCCommission.sol\":1979:1983  rFee */\n      dup6\n        /* \"TFGv3/Contracts/SCCommission.sol\":1976:1978  dt */\n      dup8\n        /* \"TFGv3/Contracts/SCCommission.sol\":1976:1983  dt*rFee */\n      tag_204\n      swap2\n      swap1\n      tag_172\n      jump\t// in\n    tag_204:\n        /* \"TFGv3/Contracts/SCCommission.sol\":1969:1973  1e18 */\n      0x0de0b6b3a7640000\n        /* \"TFGv3/Contracts/SCCommission.sol\":1969:1983  1e18 - dt*rFee */\n      tag_205\n      swap2\n      swap1\n      tag_160\n      jump\t// in\n    tag_205:\n        /* \"TFGv3/Contracts/SCCommission.sol\":1961:1965  1e18 */\n      0x0de0b6b3a7640000\n        /* \"TFGv3/Contracts/SCCommission.sol\":1961:1984  1e18 - (1e18 - dt*rFee) */\n      tag_206\n      swap2\n      swap1\n      tag_160\n      jump\t// in\n    tag_206:\n        /* \"TFGv3/Contracts/SCCommission.sol\":1951:1959  NAVvalue */\n      dup6\n        /* \"TFGv3/Contracts/SCCommission.sol\":1951:1985  NAVvalue*(1e18 - (1e18 - dt*rFee)) */\n      tag_207\n      swap2\n      swap1\n      tag_172\n      jump\t// in\n    tag_207:\n        /* \"TFGv3/Contracts/SCCommission.sol\":1951:1990  NAVvalue*(1e18 - (1e18 - dt*rFee))/1e18 */\n      tag_208\n      swap2\n      swap1\n      tag_178\n      jump\t// in\n    tag_208:\n        /* \"TFGv3/Contracts/SCCommission.sol\":1951:2030  NAVvalue*(1e18 - (1e18 - dt*rFee))/1e18 - NAVvalue*(dt*(dt-1)*rFee*rFee/2)/1e36 */\n      tag_209\n      swap2\n      swap1\n      tag_160\n      jump\t// in\n    tag_209:\n        /* \"TFGv3/Contracts/SCCommission.sol\":1951:2087  NAVvalue*(1e18 - (1e18 - dt*rFee))/1e18 - NAVvalue*(dt*(dt-1)*rFee*rFee/2)/1e36 + NAVvalue*(dt*(dt-1)*(dt-2)*rFee*rFee/1e18*rFee/6)/1e36 */\n      tag_210\n      swap2\n      swap1\n      tag_125\n      jump\t// in\n    tag_210:\n        /* \"TFGv3/Contracts/SCCommission.sol\":1951:2165  NAVvalue*(1e18 - (1e18 - dt*rFee))/1e18 - NAVvalue*(dt*(dt-1)*rFee*rFee/2)/1e36 + NAVvalue*(dt*(dt-1)*(dt-2)*rFee*rFee/1e18*rFee/6)/1e36 - NAVvalue*dt*(dt-1)*(dt-2)*(dt-3)*rFee/1e18*rFee/1e18*rFee/1e18*rFee/1e18/24 */\n      tag_211\n      swap2\n      swap1\n      tag_160\n      jump\t// in\n    tag_211:\n        /* \"TFGv3/Contracts/SCCommission.sol\":1938:2165  commission = NAVvalue*(1e18 - (1e18 - dt*rFee))/1e18 - NAVvalue*(dt*(dt-1)*rFee*rFee/2)/1e36 + NAVvalue*(dt*(dt-1)*(dt-2)*rFee*rFee/1e18*rFee/6)/1e36 - NAVvalue*dt*(dt-1)*(dt-2)*(dt-3)*rFee/1e18*rFee/1e18*rFee/1e18*rFee/1e18/24 */\n      swap6\n      pop\n        /* \"TFGv3/Contracts/SCCommission.sol\":1707:2176  {... */\n      pop\n      pop\n      pop\n        /* \"TFGv3/Contracts/SCCommission.sol\":1642:2176  if(time == block.timestamp) commission = 0;... */\n    tag_158:\n        /* \"TFGv3/Contracts/SCCommission.sol\":1530:2182  {... */\n      pop\n      pop\n        /* \"TFGv3/Contracts/SCCommission.sol\":1457:2182  function computeCommission() internal view returns (uint commission)... */\n      swap1\n      jump\t// out\n        /* \"#utility.yul\":7:84   */\n    tag_212:\n        /* \"#utility.yul\":44:51   */\n      0x00\n        /* \"#utility.yul\":73:78   */\n      dup2\n        /* \"#utility.yul\":62:78   */\n      swap1\n      pop\n        /* \"#utility.yul\":7:84   */\n      swap2\n      swap1\n      pop\n      jump\t// out\n        /* \"#utility.yul\":90:208   */\n    tag_213:\n        /* \"#utility.yul\":177:201   */\n      tag_254\n        /* \"#utility.yul\":195:200   */\n      dup2\n        /* \"#utility.yul\":177:201   */\n      tag_212\n      jump\t// in\n    tag_254:\n        /* \"#utility.yul\":172:175   */\n      dup3\n        /* \"#utility.yul\":165:202   */\n      mstore\n        /* \"#utility.yul\":90:208   */\n      pop\n      pop\n      jump\t// out\n        /* \"#utility.yul\":214:436   */\n    tag_26:\n        /* \"#utility.yul\":307:311   */\n      0x00\n        /* \"#utility.yul\":345:347   */\n      0x20\n        /* \"#utility.yul\":334:343   */\n      dup3\n        /* \"#utility.yul\":330:348   */\n      add\n        /* \"#utility.yul\":322:348   */\n      swap1\n      pop\n        /* \"#utility.yul\":358:429   */\n      tag_256\n        /* \"#utility.yul\":426:427   */\n      0x00\n        /* \"#utility.yul\":415:424   */\n      dup4\n        /* \"#utility.yul\":411:428   */\n      add\n        /* \"#utility.yul\":402:408   */\n      dup5\n        /* \"#utility.yul\":358:429   */\n      tag_213\n      jump\t// in\n    tag_256:\n        /* \"#utility.yul\":214:436   */\n      swap3\n      swap2\n      pop\n      pop\n      jump\t// out\n        /* \"#utility.yul\":523:640   */\n    tag_215:\n        /* \"#utility.yul\":632:633   */\n      0x00\n        /* \"#utility.yul\":629:630   */\n      dup1\n        /* \"#utility.yul\":622:634   */\n      revert\n        /* \"#utility.yul\":646:763   */\n    tag_216:\n        /* \"#utility.yul\":755:756   */\n      0x00\n        /* \"#utility.yul\":752:753   */\n      dup1\n        /* \"#utility.yul\":745:757   */\n      revert\n        /* \"#utility.yul\":769:895   */\n    tag_217:\n        /* \"#utility.yul\":806:813   */\n      0x00\n        /* \"#utility.yul\":846:888   */\n      0xffffffffffffffffffffffffffffffffffffffff\n        /* \"#utility.yul\":839:844   */\n      dup3\n        /* \"#utility.yul\":835:889   */\n      and\n        /* \"#utility.yul\":824:889   */\n      swap1\n      pop\n        /* \"#utility.yul\":769:895   */\n      swap2\n      swap1\n      pop\n      jump\t// out\n        /* \"#utility.yul\":901:997   */\n    tag_218:\n        /* \"#utility.yul\":938:945   */\n      0x00\n        /* \"#utility.yul\":967:991   */\n      tag_262\n        /* \"#utility.yul\":985:990   */\n      dup3\n        /* \"#utility.yul\":967:991   */\n      tag_217\n      jump\t// in\n    tag_262:\n        /* \"#utility.yul\":956:991   */\n      swap1\n      pop\n        /* \"#utility.yul\":901:997   */\n      swap2\n      swap1\n      pop\n      jump\t// out\n        /* \"#utility.yul\":1003:1125   */\n    tag_219:\n        /* \"#utility.yul\":1076:1100   */\n      tag_264\n        /* \"#utility.yul\":1094:1099   */\n      dup2\n        /* \"#utility.yul\":1076:1100   */\n      tag_218\n      jump\t// in\n    tag_264:\n        /* \"#utility.yul\":1069:1074   */\n      dup2\n        /* \"#utility.yul\":1066:1101   */\n      eq\n        /* \"#utility.yul\":1056:1119   */\n      tag_265\n      jumpi\n        /* \"#utility.yul\":1115:1116   */\n      0x00\n        /* \"#utility.yul\":1112:1113   */\n      dup1\n        /* \"#utility.yul\":1105:1117   */\n      revert\n        /* \"#utility.yul\":1056:1119   */\n    tag_265:\n        /* \"#utility.yul\":1003:1125   */\n      pop\n      jump\t// out\n        /* \"#utility.yul\":1131:1270   */\n    tag_220:\n        /* \"#utility.yul\":1177:1182   */\n      0x00\n        /* \"#utility.yul\":1215:1221   */\n      dup2\n        /* \"#utility.yul\":1202:1222   */\n      calldataload\n        /* \"#utility.yul\":1193:1222   */\n      swap1\n      pop\n        /* \"#utility.yul\":1231:1264   */\n      tag_267\n        /* \"#utility.yul\":1258:1263   */\n      dup2\n        /* \"#utility.yul\":1231:1264   */\n      tag_219\n      jump\t// in\n    tag_267:\n        /* \"#utility.yul\":1131:1270   */\n      swap3\n      swap2\n      pop\n      pop\n      jump\t// out\n        /* \"#utility.yul\":1276:1393   */\n    tag_221:\n        /* \"#utility.yul\":1385:1386   */\n      0x00\n        /* \"#utility.yul\":1382:1383   */\n      dup1\n        /* \"#utility.yul\":1375:1387   */\n      revert\n        /* \"#utility.yul\":1399:1516   */\n    tag_222:\n        /* \"#utility.yul\":1508:1509   */\n      0x00\n        /* \"#utility.yul\":1505:1506   */\n      dup1\n        /* \"#utility.yul\":1498:1510   */\n      revert\n        /* \"#utility.yul\":1522:1639   */\n    tag_223:\n        /* \"#utility.yul\":1631:1632   */\n      0x00\n        /* \"#utility.yul\":1628:1629   */\n      dup1\n        /* \"#utility.yul\":1621:1633   */\n      revert\n        /* \"#utility.yul\":1662:2230   */\n    tag_224:\n        /* \"#utility.yul\":1735:1743   */\n      0x00\n        /* \"#utility.yul\":1745:1751   */\n      dup1\n        /* \"#utility.yul\":1795:1798   */\n      dup4\n        /* \"#utility.yul\":1788:1792   */\n      0x1f\n        /* \"#utility.yul\":1780:1786   */\n      dup5\n        /* \"#utility.yul\":1776:1793   */\n      add\n        /* \"#utility.yul\":1772:1799   */\n      slt\n        /* \"#utility.yul\":1762:1884   */\n      tag_272\n      jumpi\n        /* \"#utility.yul\":1803:1882   */\n      tag_273\n      tag_221\n      jump\t// in\n    tag_273:\n        /* \"#utility.yul\":1762:1884   */\n    tag_272:\n        /* \"#utility.yul\":1916:1922   */\n      dup3\n        /* \"#utility.yul\":1903:1923   */\n      calldataload\n        /* \"#utility.yul\":1893:1923   */\n      swap1\n      pop\n        /* \"#utility.yul\":1946:1964   */\n      0xffffffffffffffff\n        /* \"#utility.yul\":1938:1944   */\n      dup2\n        /* \"#utility.yul\":1935:1965   */\n      gt\n        /* \"#utility.yul\":1932:2049   */\n      iszero\n      tag_274\n      jumpi\n        /* \"#utility.yul\":1968:2047   */\n      tag_275\n      tag_222\n      jump\t// in\n    tag_275:\n        /* \"#utility.yul\":1932:2049   */\n    tag_274:\n        /* \"#utility.yul\":2082:2086   */\n      0x20\n        /* \"#utility.yul\":2074:2080   */\n      dup4\n        /* \"#utility.yul\":2070:2087   */\n      add\n        /* \"#utility.yul\":2058:2087   */\n      swap2\n      pop\n        /* \"#utility.yul\":2136:2139   */\n      dup4\n        /* \"#utility.yul\":2128:2132   */\n      0x20\n        /* \"#utility.yul\":2120:2126   */\n      dup3\n        /* \"#utility.yul\":2116:2133   */\n      mul\n        /* \"#utility.yul\":2106:2114   */\n      dup4\n        /* \"#utility.yul\":2102:2134   */\n      add\n        /* \"#utility.yul\":2099:2140   */\n      gt\n        /* \"#utility.yul\":2096:2224   */\n      iszero\n      tag_276\n      jumpi\n        /* \"#utility.yul\":2143:2222   */\n      tag_277\n      tag_223\n      jump\t// in\n    tag_277:\n        /* \"#utility.yul\":2096:2224   */\n    tag_276:\n        /* \"#utility.yul\":1662:2230   */\n      swap3\n      pop\n      swap3\n      swap1\n      pop\n      jump\t// out\n        /* \"#utility.yul\":2253:2821   */\n    tag_225:\n        /* \"#utility.yul\":2326:2334   */\n      0x00\n        /* \"#utility.yul\":2336:2342   */\n      dup1\n        /* \"#utility.yul\":2386:2389   */\n      dup4\n        /* \"#utility.yul\":2379:2383   */\n      0x1f\n        /* \"#utility.yul\":2371:2377   */\n      dup5\n        /* \"#utility.yul\":2367:2384   */\n      add\n        /* \"#utility.yul\":2363:2390   */\n      slt\n        /* \"#utility.yul\":2353:2475   */\n      tag_279\n      jumpi\n        /* \"#utility.yul\":2394:2473   */\n      tag_280\n      tag_221\n      jump\t// in\n    tag_280:\n        /* \"#utility.yul\":2353:2475   */\n    tag_279:\n        /* \"#utility.yul\":2507:2513   */\n      dup3\n        /* \"#utility.yul\":2494:2514   */\n      calldataload\n        /* \"#utility.yul\":2484:2514   */\n      swap1\n      pop\n        /* \"#utility.yul\":2537:2555   */\n      0xffffffffffffffff\n        /* \"#utility.yul\":2529:2535   */\n      dup2\n        /* \"#utility.yul\":2526:2556   */\n      gt\n        /* \"#utility.yul\":2523:2640   */\n      iszero\n      tag_281\n      jumpi\n        /* \"#utility.yul\":2559:2638   */\n      tag_282\n      tag_222\n      jump\t// in\n    tag_282:\n        /* \"#utility.yul\":2523:2640   */\n    tag_281:\n        /* \"#utility.yul\":2673:2677   */\n      0x20\n        /* \"#utility.yul\":2665:2671   */\n      dup4\n        /* \"#utility.yul\":2661:2678   */\n      add\n        /* \"#utility.yul\":2649:2678   */\n      swap2\n      pop\n        /* \"#utility.yul\":2727:2730   */\n      dup4\n        /* \"#utility.yul\":2719:2723   */\n      0x20\n        /* \"#utility.yul\":2711:2717   */\n      dup3\n        /* \"#utility.yul\":2707:2724   */\n      mul\n        /* \"#utility.yul\":2697:2705   */\n      dup4\n        /* \"#utility.yul\":2693:2725   */\n      add\n        /* \"#utility.yul\":2690:2731   */\n      gt\n        /* \"#utility.yul\":2687:2815   */\n      iszero\n      tag_283\n      jumpi\n        /* \"#utility.yul\":2734:2813   */\n      tag_284\n      tag_223\n      jump\t// in\n    tag_284:\n        /* \"#utility.yul\":2687:2815   */\n    tag_283:\n        /* \"#utility.yul\":2253:2821   */\n      swap3\n      pop\n      swap3\n      swap1\n      pop\n      jump\t// out\n        /* \"#utility.yul\":2827:3906   */\n    tag_30:\n        /* \"#utility.yul\":2958:2964   */\n      0x00\n        /* \"#utility.yul\":2966:2972   */\n      dup1\n        /* \"#utility.yul\":2974:2980   */\n      0x00\n        /* \"#utility.yul\":2982:2988   */\n      dup1\n        /* \"#utility.yul\":2990:2996   */\n      0x00\n        /* \"#utility.yul\":3039:3041   */\n      0x60\n        /* \"#utility.yul\":3027:3036   */\n      dup7\n        /* \"#utility.yul\":3018:3025   */\n      dup9\n        /* \"#utility.yul\":3014:3037   */\n      sub\n        /* \"#utility.yul\":3010:3042   */\n      slt\n        /* \"#utility.yul\":3007:3126   */\n      iszero\n      tag_286\n      jumpi\n        /* \"#utility.yul\":3045:3124   */\n      tag_287\n      tag_215\n      jump\t// in\n    tag_287:\n        /* \"#utility.yul\":3007:3126   */\n    tag_286:\n        /* \"#utility.yul\":3165:3166   */\n      0x00\n        /* \"#utility.yul\":3190:3243   */\n      tag_288\n        /* \"#utility.yul\":3235:3242   */\n      dup9\n        /* \"#utility.yul\":3226:3232   */\n      dup3\n        /* \"#utility.yul\":3215:3224   */\n      dup10\n        /* \"#utility.yul\":3211:3233   */\n      add\n        /* \"#utility.yul\":3190:3243   */\n      tag_220\n      jump\t// in\n    tag_288:\n        /* \"#utility.yul\":3180:3243   */\n      swap6\n      pop\n        /* \"#utility.yul\":3136:3253   */\n      pop\n        /* \"#utility.yul\":3320:3322   */\n      0x20\n        /* \"#utility.yul\":3309:3318   */\n      dup7\n        /* \"#utility.yul\":3305:3323   */\n      add\n        /* \"#utility.yul\":3292:3324   */\n      calldataload\n        /* \"#utility.yul\":3351:3369   */\n      0xffffffffffffffff\n        /* \"#utility.yul\":3343:3349   */\n      dup2\n        /* \"#utility.yul\":3340:3370   */\n      gt\n        /* \"#utility.yul\":3337:3454   */\n      iszero\n      tag_289\n      jumpi\n        /* \"#utility.yul\":3373:3452   */\n      tag_290\n      tag_216\n      jump\t// in\n    tag_290:\n        /* \"#utility.yul\":3337:3454   */\n    tag_289:\n        /* \"#utility.yul\":3486:3566   */\n      tag_291\n        /* \"#utility.yul\":3558:3565   */\n      dup9\n        /* \"#utility.yul\":3549:3555   */\n      dup3\n        /* \"#utility.yul\":3538:3547   */\n      dup10\n        /* \"#utility.yul\":3534:3556   */\n      add\n        /* \"#utility.yul\":3486:3566   */\n      tag_224\n      jump\t// in\n    tag_291:\n        /* \"#utility.yul\":3468:3566   */\n      swap5\n      pop\n      swap5\n      pop\n        /* \"#utility.yul\":3263:3576   */\n      pop\n        /* \"#utility.yul\":3643:3645   */\n      0x40\n        /* \"#utility.yul\":3632:3641   */\n      dup7\n        /* \"#utility.yul\":3628:3646   */\n      add\n        /* \"#utility.yul\":3615:3647   */\n      calldataload\n        /* \"#utility.yul\":3674:3692   */\n      0xffffffffffffffff\n        /* \"#utility.yul\":3666:3672   */\n      dup2\n        /* \"#utility.yul\":3663:3693   */\n      gt\n        /* \"#utility.yul\":3660:3777   */\n      iszero\n      tag_292\n      jumpi\n        /* \"#utility.yul\":3696:3775   */\n      tag_293\n      tag_216\n      jump\t// in\n    tag_293:\n        /* \"#utility.yul\":3660:3777   */\n    tag_292:\n        /* \"#utility.yul\":3809:3889   */\n      tag_294\n        /* \"#utility.yul\":3881:3888   */\n      dup9\n        /* \"#utility.yul\":3872:3878   */\n      dup3\n        /* \"#utility.yul\":3861:3870   */\n      dup10\n        /* \"#utility.yul\":3857:3879   */\n      add\n        /* \"#utility.yul\":3809:3889   */\n      tag_225\n      jump\t// in\n    tag_294:\n        /* \"#utility.yul\":3791:3889   */\n      swap3\n      pop\n      swap3\n      pop\n        /* \"#utility.yul\":3586:3899   */\n      pop\n        /* \"#utility.yul\":2827:3906   */\n      swap3\n      swap6\n      pop\n      swap3\n      swap6\n      swap1\n      swap4\n      pop\n      jump\t// out\n        /* \"#utility.yul\":3912:4034   */\n    tag_226:\n        /* \"#utility.yul\":3985:4009   */\n      tag_296\n        /* \"#utility.yul\":4003:4008   */\n      dup2\n        /* \"#utility.yul\":3985:4009   */\n      tag_212\n      jump\t// in\n    tag_296:\n        /* \"#utility.yul\":3978:3983   */\n      dup2\n        /* \"#utility.yul\":3975:4010   */\n      eq\n        /* \"#utility.yul\":3965:4028   */\n      tag_297\n      jumpi\n        /* \"#utility.yul\":4024:4025   */\n      0x00\n        /* \"#utility.yul\":4021:4022   */\n      dup1\n        /* \"#utility.yul\":4014:4026   */\n      revert\n        /* \"#utility.yul\":3965:4028   */\n    tag_297:\n        /* \"#utility.yul\":3912:4034   */\n      pop\n      jump\t// out\n        /* \"#utility.yul\":4040:4179   */\n    tag_227:\n        /* \"#utility.yul\":4086:4091   */\n      0x00\n        /* \"#utility.yul\":4124:4130   */\n      dup2\n        /* \"#utility.yul\":4111:4131   */\n      calldataload\n        /* \"#utility.yul\":4102:4131   */\n      swap1\n      pop\n        /* \"#utility.yul\":4140:4173   */\n      tag_299\n        /* \"#utility.yul\":4167:4172   */\n      dup2\n        /* \"#utility.yul\":4140:4173   */\n      tag_226\n      jump\t// in\n    tag_299:\n        /* \"#utility.yul\":4040:4179   */\n      swap3\n      swap2\n      pop\n      pop\n      jump\t// out\n        /* \"#utility.yul\":4185:5096   */\n    tag_35:\n        /* \"#utility.yul\":4280:4286   */\n      0x00\n        /* \"#utility.yul\":4288:4294   */\n      dup1\n        /* \"#utility.yul\":4296:4302   */\n      0x00\n        /* \"#utility.yul\":4304:4310   */\n      dup1\n        /* \"#utility.yul\":4312:4318   */\n      0x00\n        /* \"#utility.yul\":4361:4364   */\n      0xa0\n        /* \"#utility.yul\":4349:4358   */\n      dup7\n        /* \"#utility.yul\":4340:4347   */\n      dup9\n        /* \"#utility.yul\":4336:4359   */\n      sub\n        /* \"#utility.yul\":4332:4365   */\n      slt\n        /* \"#utility.yul\":4329:4449   */\n      iszero\n      tag_301\n      jumpi\n        /* \"#utility.yul\":4368:4447   */\n      tag_302\n      tag_215\n      jump\t// in\n    tag_302:\n        /* \"#utility.yul\":4329:4449   */\n    tag_301:\n        /* \"#utility.yul\":4488:4489   */\n      0x00\n        /* \"#utility.yul\":4513:4566   */\n      tag_303\n        /* \"#utility.yul\":4558:4565   */\n      dup9\n        /* \"#utility.yul\":4549:4555   */\n      dup3\n        /* \"#utility.yul\":4538:4547   */\n      dup10\n        /* \"#utility.yul\":4534:4556   */\n      add\n        /* \"#utility.yul\":4513:4566   */\n      tag_220\n      jump\t// in\n    tag_303:\n        /* \"#utility.yul\":4503:4566   */\n      swap6\n      pop\n        /* \"#utility.yul\":4459:4576   */\n      pop\n        /* \"#utility.yul\":4615:4617   */\n      0x20\n        /* \"#utility.yul\":4641:4694   */\n      tag_304\n        /* \"#utility.yul\":4686:4693   */\n      dup9\n        /* \"#utility.yul\":4677:4683   */\n      dup3\n        /* \"#utility.yul\":4666:4675   */\n      dup10\n        /* \"#utility.yul\":4662:4684   */\n      add\n        /* \"#utility.yul\":4641:4694   */\n      tag_227\n      jump\t// in\n    tag_304:\n        /* \"#utility.yul\":4631:4694   */\n      swap5\n      pop\n        /* \"#utility.yul\":4586:4704   */\n      pop\n        /* \"#utility.yul\":4743:4745   */\n      0x40\n        /* \"#utility.yul\":4769:4822   */\n      tag_305\n        /* \"#utility.yul\":4814:4821   */\n      dup9\n        /* \"#utility.yul\":4805:4811   */\n      dup3\n        /* \"#utility.yul\":4794:4803   */\n      dup10\n        /* \"#utility.yul\":4790:4812   */\n      add\n        /* \"#utility.yul\":4769:4822   */\n      tag_227\n      jump\t// in\n    tag_305:\n        /* \"#utility.yul\":4759:4822   */\n      swap4\n      pop\n        /* \"#utility.yul\":4714:4832   */\n      pop\n        /* \"#utility.yul\":4871:4873   */\n      0x60\n        /* \"#utility.yul\":4897:4950   */\n      tag_306\n        /* \"#utility.yul\":4942:4949   */\n      dup9\n        /* \"#utility.yul\":4933:4939   */\n      dup3\n        /* \"#utility.yul\":4922:4931   */\n      dup10\n        /* \"#utility.yul\":4918:4940   */\n      add\n        /* \"#utility.yul\":4897:4950   */\n      tag_227\n      jump\t// in\n    tag_306:\n        /* \"#utility.yul\":4887:4950   */\n      swap3\n      pop\n        /* \"#utility.yul\":4842:4960   */\n      pop\n        /* \"#utility.yul\":4999:5002   */\n      0x80\n        /* \"#utility.yul\":5026:5079   */\n      tag_307\n        /* \"#utility.yul\":5071:5078   */\n      dup9\n        /* \"#utility.yul\":5062:5068   */\n      dup3\n        /* \"#utility.yul\":5051:5060   */\n      dup10\n        /* \"#utility.yul\":5047:5069   */\n      add\n        /* \"#utility.yul\":5026:5079   */\n      tag_227\n      jump\t// in\n    tag_307:\n        /* \"#utility.yul\":5016:5079   */\n      swap2\n      pop\n        /* \"#utility.yul\":4970:5089   */\n      pop\n        /* \"#utility.yul\":4185:5096   */\n      swap3\n      swap6\n      pop\n      swap3\n      swap6\n      swap1\n      swap4\n      pop\n      jump\t// out\n        /* \"#utility.yul\":5102:5431   */\n    tag_40:\n        /* \"#utility.yul\":5161:5167   */\n      0x00\n        /* \"#utility.yul\":5210:5212   */\n      0x20\n        /* \"#utility.yul\":5198:5207   */\n      dup3\n        /* \"#utility.yul\":5189:5196   */\n      dup5\n        /* \"#utility.yul\":5185:5208   */\n      sub\n        /* \"#utility.yul\":5181:5213   */\n      slt\n        /* \"#utility.yul\":5178:5297   */\n      iszero\n      tag_309\n      jumpi\n        /* \"#utility.yul\":5216:5295   */\n      tag_310\n      tag_215\n      jump\t// in\n    tag_310:\n        /* \"#utility.yul\":5178:5297   */\n    tag_309:\n        /* \"#utility.yul\":5336:5337   */\n      0x00\n        /* \"#utility.yul\":5361:5414   */\n      tag_311\n        /* \"#utility.yul\":5406:5413   */\n      dup5\n        /* \"#utility.yul\":5397:5403   */\n      dup3\n        /* \"#utility.yul\":5386:5395   */\n      dup6\n        /* \"#utility.yul\":5382:5404   */\n      add\n        /* \"#utility.yul\":5361:5414   */\n      tag_227\n      jump\t// in\n    tag_311:\n        /* \"#utility.yul\":5351:5414   */\n      swap2\n      pop\n        /* \"#utility.yul\":5307:5424   */\n      pop\n        /* \"#utility.yul\":5102:5431   */\n      swap3\n      swap2\n      pop\n      pop\n      jump\t// out\n        /* \"#utility.yul\":5437:5766   */\n    tag_57:\n        /* \"#utility.yul\":5496:5502   */\n      0x00\n        /* \"#utility.yul\":5545:5547   */\n      0x20\n        /* \"#utility.yul\":5533:5542   */\n      dup3\n        /* \"#utility.yul\":5524:5531   */\n      dup5\n        /* \"#utility.yul\":5520:5543   */\n      sub\n        /* \"#utility.yul\":5516:5548   */\n      slt\n        /* \"#utility.yul\":5513:5632   */\n      iszero\n      tag_313\n      jumpi\n        /* \"#utility.yul\":5551:5630   */\n      tag_314\n      tag_215\n      jump\t// in\n    tag_314:\n        /* \"#utility.yul\":5513:5632   */\n    tag_313:\n        /* \"#utility.yul\":5671:5672   */\n      0x00\n        /* \"#utility.yul\":5696:5749   */\n      tag_315\n        /* \"#utility.yul\":5741:5748   */\n      dup5\n        /* \"#utility.yul\":5732:5738   */\n      dup3\n        /* \"#utility.yul\":5721:5730   */\n      dup6\n        /* \"#utility.yul\":5717:5739   */\n      add\n        /* \"#utility.yul\":5696:5749   */\n      tag_220\n      jump\t// in\n    tag_315:\n        /* \"#utility.yul\":5686:5749   */\n      swap2\n      pop\n        /* \"#utility.yul\":5642:5759   */\n      pop\n        /* \"#utility.yul\":5437:5766   */\n      swap3\n      swap2\n      pop\n      pop\n      jump\t// out\n        /* \"#utility.yul\":5772:5890   */\n    tag_228:\n        /* \"#utility.yul\":5859:5883   */\n      tag_317\n        /* \"#utility.yul\":5877:5882   */\n      dup2\n        /* \"#utility.yul\":5859:5883   */\n      tag_218\n      jump\t// in\n    tag_317:\n        /* \"#utility.yul\":5854:5857   */\n      dup3\n        /* \"#utility.yul\":5847:5884   */\n      mstore\n        /* \"#utility.yul\":5772:5890   */\n      pop\n      pop\n      jump\t// out\n        /* \"#utility.yul\":5896:6118   */\n    tag_72:\n        /* \"#utility.yul\":5989:5993   */\n      0x00\n        /* \"#utility.yul\":6027:6029   */\n      0x20\n        /* \"#utility.yul\":6016:6025   */\n      dup3\n        /* \"#utility.yul\":6012:6030   */\n      add\n        /* \"#utility.yul\":6004:6030   */\n      swap1\n      pop\n        /* \"#utility.yul\":6040:6111   */\n      tag_319\n        /* \"#utility.yul\":6108:6109   */\n      0x00\n        /* \"#utility.yul\":6097:6106   */\n      dup4\n        /* \"#utility.yul\":6093:6110   */\n      add\n        /* \"#utility.yul\":6084:6090   */\n      dup5\n        /* \"#utility.yul\":6040:6111   */\n      tag_228\n      jump\t// in\n    tag_319:\n        /* \"#utility.yul\":5896:6118   */\n      swap3\n      swap2\n      pop\n      pop\n      jump\t// out\n        /* \"#utility.yul\":6124:7058   */\n    tag_76:\n        /* \"#utility.yul\":6246:6252   */\n      0x00\n        /* \"#utility.yul\":6254:6260   */\n      dup1\n        /* \"#utility.yul\":6262:6268   */\n      0x00\n        /* \"#utility.yul\":6270:6276   */\n      dup1\n        /* \"#utility.yul\":6319:6321   */\n      0x40\n        /* \"#utility.yul\":6307:6316   */\n      dup6\n        /* \"#utility.yul\":6298:6305   */\n      dup8\n        /* \"#utility.yul\":6294:6317   */\n      sub\n        /* \"#utility.yul\":6290:6322   */\n      slt\n        /* \"#utility.yul\":6287:6406   */\n      iszero\n      tag_321\n      jumpi\n        /* \"#utility.yul\":6325:6404   */\n      tag_322\n      tag_215\n      jump\t// in\n    tag_322:\n        /* \"#utility.yul\":6287:6406   */\n    tag_321:\n        /* \"#utility.yul\":6473:6474   */\n      0x00\n        /* \"#utility.yul\":6462:6471   */\n      dup6\n        /* \"#utility.yul\":6458:6475   */\n      add\n        /* \"#utility.yul\":6445:6476   */\n      calldataload\n        /* \"#utility.yul\":6503:6521   */\n      0xffffffffffffffff\n        /* \"#utility.yul\":6495:6501   */\n      dup2\n        /* \"#utility.yul\":6492:6522   */\n      gt\n        /* \"#utility.yul\":6489:6606   */\n      iszero\n      tag_323\n      jumpi\n        /* \"#utility.yul\":6525:6604   */\n      tag_324\n      tag_216\n      jump\t// in\n    tag_324:\n        /* \"#utility.yul\":6489:6606   */\n    tag_323:\n        /* \"#utility.yul\":6638:6718   */\n      tag_325\n        /* \"#utility.yul\":6710:6717   */\n      dup8\n        /* \"#utility.yul\":6701:6707   */\n      dup3\n        /* \"#utility.yul\":6690:6699   */\n      dup9\n        /* \"#utility.yul\":6686:6708   */\n      add\n        /* \"#utility.yul\":6638:6718   */\n      tag_224\n      jump\t// in\n    tag_325:\n        /* \"#utility.yul\":6620:6718   */\n      swap5\n      pop\n      swap5\n      pop\n        /* \"#utility.yul\":6416:6728   */\n      pop\n        /* \"#utility.yul\":6795:6797   */\n      0x20\n        /* \"#utility.yul\":6784:6793   */\n      dup6\n        /* \"#utility.yul\":6780:6798   */\n      add\n        /* \"#utility.yul\":6767:6799   */\n      calldataload\n        /* \"#utility.yul\":6826:6844   */\n      0xffffffffffffffff\n        /* \"#utility.yul\":6818:6824   */\n      dup2\n        /* \"#utility.yul\":6815:6845   */\n      gt\n        /* \"#utility.yul\":6812:6929   */\n      iszero\n      tag_326\n      jumpi\n        /* \"#utility.yul\":6848:6927   */\n      tag_327\n      tag_216\n      jump\t// in\n    tag_327:\n        /* \"#utility.yul\":6812:6929   */\n    tag_326:\n        /* \"#utility.yul\":6961:7041   */\n      tag_328\n        /* \"#utility.yul\":7033:7040   */\n      dup8\n        /* \"#utility.yul\":7024:7030   */\n      dup3\n        /* \"#utility.yul\":7013:7022   */\n      dup9\n        /* \"#utility.yul\":7009:7031   */\n      add\n        /* \"#utility.yul\":6961:7041   */\n      tag_225\n      jump\t// in\n    tag_328:\n        /* \"#utility.yul\":6943:7041   */\n      swap3\n      pop\n      swap3\n      pop\n        /* \"#utility.yul\":6738:7051   */\n      pop\n        /* \"#utility.yul\":6124:7058   */\n      swap3\n      swap6\n      swap2\n      swap5\n      pop\n      swap3\n      pop\n      jump\t// out\n        /* \"#utility.yul\":7064:7728   */\n    tag_90:\n        /* \"#utility.yul\":7269:7273   */\n      0x00\n        /* \"#utility.yul\":7307:7310   */\n      0xa0\n        /* \"#utility.yul\":7296:7305   */\n      dup3\n        /* \"#utility.yul\":7292:7311   */\n      add\n        /* \"#utility.yul\":7284:7311   */\n      swap1\n      pop\n        /* \"#utility.yul\":7321:7392   */\n      tag_330\n        /* \"#utility.yul\":7389:7390   */\n      0x00\n        /* \"#utility.yul\":7378:7387   */\n      dup4\n        /* \"#utility.yul\":7374:7391   */\n      add\n        /* \"#utility.yul\":7365:7371   */\n      dup9\n        /* \"#utility.yul\":7321:7392   */\n      tag_228\n      jump\t// in\n    tag_330:\n        /* \"#utility.yul\":7402:7474   */\n      tag_331\n        /* \"#utility.yul\":7470:7472   */\n      0x20\n        /* \"#utility.yul\":7459:7468   */\n      dup4\n        /* \"#utility.yul\":7455:7473   */\n      add\n        /* \"#utility.yul\":7446:7452   */\n      dup8\n        /* \"#utility.yul\":7402:7474   */\n      tag_213\n      jump\t// in\n    tag_331:\n        /* \"#utility.yul\":7484:7556   */\n      tag_332\n        /* \"#utility.yul\":7552:7554   */\n      0x40\n        /* \"#utility.yul\":7541:7550   */\n      dup4\n        /* \"#utility.yul\":7537:7555   */\n      add\n        /* \"#utility.yul\":7528:7534   */\n      dup7\n        /* \"#utility.yul\":7484:7556   */\n      tag_213\n      jump\t// in\n    tag_332:\n        /* \"#utility.yul\":7566:7638   */\n      tag_333\n        /* \"#utility.yul\":7634:7636   */\n      0x60\n        /* \"#utility.yul\":7623:7632   */\n      dup4\n        /* \"#utility.yul\":7619:7637   */\n      add\n        /* \"#utility.yul\":7610:7616   */\n      dup6\n        /* \"#utility.yul\":7566:7638   */\n      tag_213\n      jump\t// in\n    tag_333:\n        /* \"#utility.yul\":7648:7721   */\n      tag_334\n        /* \"#utility.yul\":7716:7719   */\n      0x80\n        /* \"#utility.yul\":7705:7714   */\n      dup4\n        /* \"#utility.yul\":7701:7720   */\n      add\n        /* \"#utility.yul\":7692:7698   */\n      dup5\n        /* \"#utility.yul\":7648:7721   */\n      tag_213\n      jump\t// in\n    tag_334:\n        /* \"#utility.yul\":7064:7728   */\n      swap7\n      swap6\n      pop\n      pop\n      pop\n      pop\n      pop\n      pop\n      jump\t// out\n        /* \"#utility.yul\":7734:7832   */\n    tag_229:\n        /* \"#utility.yul\":7785:7791   */\n      0x00\n        /* \"#utility.yul\":7819:7824   */\n      dup2\n        /* \"#utility.yul\":7813:7825   */\n      mload\n        /* \"#utility.yul\":7803:7825   */\n      swap1\n      pop\n        /* \"#utility.yul\":7734:7832   */\n      swap2\n      swap1\n      pop\n      jump\t// out\n        /* \"#utility.yul\":7838:7985   */\n    tag_230:\n        /* \"#utility.yul\":7939:7950   */\n      0x00\n        /* \"#utility.yul\":7976:7979   */\n      dup2\n        /* \"#utility.yul\":7961:7979   */\n      swap1\n      pop\n        /* \"#utility.yul\":7838:7985   */\n      swap3\n      swap2\n      pop\n      pop\n      jump\t// out\n        /* \"#utility.yul\":7991:8298   */\n    tag_231:\n        /* \"#utility.yul\":8059:8060   */\n      0x00\n        /* \"#utility.yul\":8069:8182   */\n    tag_338:\n        /* \"#utility.yul\":8083:8089   */\n      dup4\n        /* \"#utility.yul\":8080:8081   */\n      dup2\n        /* \"#utility.yul\":8077:8090   */\n      lt\n        /* \"#utility.yul\":8069:8182   */\n      iszero\n      tag_340\n      jumpi\n        /* \"#utility.yul\":8168:8169   */\n      dup1\n        /* \"#utility.yul\":8163:8166   */\n      dup3\n        /* \"#utility.yul\":8159:8170   */\n      add\n        /* \"#utility.yul\":8153:8171   */\n      mload\n        /* \"#utility.yul\":8149:8150   */\n      dup2\n        /* \"#utility.yul\":8144:8147   */\n      dup5\n        /* \"#utility.yul\":8140:8151   */\n      add\n        /* \"#utility.yul\":8133:8172   */\n      mstore\n        /* \"#utility.yul\":8105:8107   */\n      0x20\n        /* \"#utility.yul\":8102:8103   */\n      dup2\n        /* \"#utility.yul\":8098:8108   */\n      add\n        /* \"#utility.yul\":8093:8108   */\n      swap1\n      pop\n        /* \"#utility.yul\":8069:8182   */\n      jump(tag_338)\n    tag_340:\n        /* \"#utility.yul\":8200:8206   */\n      dup4\n        /* \"#utility.yul\":8197:8198   */\n      dup2\n        /* \"#utility.yul\":8194:8207   */\n      gt\n        /* \"#utility.yul\":8191:8292   */\n      iszero\n      tag_341\n      jumpi\n        /* \"#utility.yul\":8280:8281   */\n      0x00\n        /* \"#utility.yul\":8271:8277   */\n      dup5\n        /* \"#utility.yul\":8266:8269   */\n      dup5\n        /* \"#utility.yul\":8262:8278   */\n      add\n        /* \"#utility.yul\":8255:8282   */\n      mstore\n        /* \"#utility.yul\":8191:8292   */\n    tag_341:\n        /* \"#utility.yul\":8040:8298   */\n      pop\n        /* \"#utility.yul\":7991:8298   */\n      pop\n      pop\n      pop\n      jump\t// out\n        /* \"#utility.yul\":8304:8677   */\n    tag_232:\n        /* \"#utility.yul\":8408:8411   */\n      0x00\n        /* \"#utility.yul\":8436:8474   */\n      tag_343\n        /* \"#utility.yul\":8468:8473   */\n      dup3\n        /* \"#utility.yul\":8436:8474   */\n      tag_229\n      jump\t// in\n    tag_343:\n        /* \"#utility.yul\":8490:8578   */\n      tag_344\n        /* \"#utility.yul\":8571:8577   */\n      dup2\n        /* \"#utility.yul\":8566:8569   */\n      dup6\n        /* \"#utility.yul\":8490:8578   */\n      tag_230\n      jump\t// in\n    tag_344:\n        /* \"#utility.yul\":8483:8578   */\n      swap4\n      pop\n        /* \"#utility.yul\":8587:8639   */\n      tag_345\n        /* \"#utility.yul\":8632:8638   */\n      dup2\n        /* \"#utility.yul\":8627:8630   */\n      dup6\n        /* \"#utility.yul\":8620:8624   */\n      0x20\n        /* \"#utility.yul\":8613:8618   */\n      dup7\n        /* \"#utility.yul\":8609:8625   */\n      add\n        /* \"#utility.yul\":8587:8639   */\n      tag_231\n      jump\t// in\n    tag_345:\n        /* \"#utility.yul\":8664:8670   */\n      dup1\n        /* \"#utility.yul\":8659:8662   */\n      dup5\n        /* \"#utility.yul\":8655:8671   */\n      add\n        /* \"#utility.yul\":8648:8671   */\n      swap2\n      pop\n        /* \"#utility.yul\":8412:8677   */\n      pop\n        /* \"#utility.yul\":8304:8677   */\n      swap3\n      swap2\n      pop\n      pop\n      jump\t// out\n        /* \"#utility.yul\":8683:8954   */\n    tag_92:\n        /* \"#utility.yul\":8813:8816   */\n      0x00\n        /* \"#utility.yul\":8835:8928   */\n      tag_347\n        /* \"#utility.yul\":8924:8927   */\n      dup3\n        /* \"#utility.yul\":8915:8921   */\n      dup5\n        /* \"#utility.yul\":8835:8928   */\n      tag_232\n      jump\t// in\n    tag_347:\n        /* \"#utility.yul\":8828:8928   */\n      swap2\n      pop\n        /* \"#utility.yul\":8945:8948   */\n      dup2\n        /* \"#utility.yul\":8938:8948   */\n      swap1\n      pop\n        /* \"#utility.yul\":8683:8954   */\n      swap3\n      swap2\n      pop\n      pop\n      jump\t// out\n        /* \"#utility.yul\":8960:9144   */\n    tag_233:\n        /* \"#utility.yul\":9059:9070   */\n      0x00\n        /* \"#utility.yul\":9093:9099   */\n      dup3\n        /* \"#utility.yul\":9088:9091   */\n      dup3\n        /* \"#utility.yul\":9081:9100   */\n      mstore\n        /* \"#utility.yul\":9133:9137   */\n      0x20\n        /* \"#utility.yul\":9128:9131   */\n      dup3\n        /* \"#utility.yul\":9124:9138   */\n      add\n        /* \"#utility.yul\":9109:9138   */\n      swap1\n      pop\n        /* \"#utility.yul\":8960:9144   */\n      swap3\n      swap2\n      pop\n      pop\n      jump\t// out\n        /* \"#utility.yul\":9150:9252   */\n    tag_234:\n        /* \"#utility.yul\":9219:9223   */\n      0x00\n        /* \"#utility.yul\":9242:9245   */\n      dup2\n        /* \"#utility.yul\":9234:9245   */\n      swap1\n      pop\n        /* \"#utility.yul\":9150:9252   */\n      swap2\n      swap1\n      pop\n      jump\t// out\n        /* \"#utility.yul\":9258:9366   */\n    tag_235:\n        /* \"#utility.yul\":9335:9359   */\n      tag_351\n        /* \"#utility.yul\":9353:9358   */\n      dup2\n        /* \"#utility.yul\":9335:9359   */\n      tag_218\n      jump\t// in\n    tag_351:\n        /* \"#utility.yul\":9330:9333   */\n      dup3\n        /* \"#utility.yul\":9323:9360   */\n      mstore\n        /* \"#utility.yul\":9258:9366   */\n      pop\n      pop\n      jump\t// out\n        /* \"#utility.yul\":9372:9551   */\n    tag_236:\n        /* \"#utility.yul\":9441:9451   */\n      0x00\n        /* \"#utility.yul\":9462:9508   */\n      tag_353\n        /* \"#utility.yul\":9504:9507   */\n      dup4\n        /* \"#utility.yul\":9496:9502   */\n      dup4\n        /* \"#utility.yul\":9462:9508   */\n      tag_235\n      jump\t// in\n    tag_353:\n        /* \"#utility.yul\":9540:9544   */\n      0x20\n        /* \"#utility.yul\":9535:9538   */\n      dup4\n        /* \"#utility.yul\":9531:9545   */\n      add\n        /* \"#utility.yul\":9517:9545   */\n      swap1\n      pop\n        /* \"#utility.yul\":9372:9551   */\n      swap3\n      swap2\n      pop\n      pop\n      jump\t// out\n        /* \"#utility.yul\":9557:9679   */\n    tag_237:\n        /* \"#utility.yul\":9609:9614   */\n      0x00\n        /* \"#utility.yul\":9634:9673   */\n      tag_355\n        /* \"#utility.yul\":9669:9671   */\n      0x20\n        /* \"#utility.yul\":9664:9667   */\n      dup5\n        /* \"#utility.yul\":9660:9672   */\n      add\n        /* \"#utility.yul\":9655:9658   */\n      dup5\n        /* \"#utility.yul\":9634:9673   */\n      tag_220\n      jump\t// in\n    tag_355:\n        /* \"#utility.yul\":9625:9673   */\n      swap1\n      pop\n        /* \"#utility.yul\":9557:9679   */\n      swap3\n      swap2\n      pop\n      pop\n      jump\t// out\n        /* \"#utility.yul\":9685:9800   */\n    tag_238:\n        /* \"#utility.yul\":9757:9761   */\n      0x00\n        /* \"#utility.yul\":9789:9793   */\n      0x20\n        /* \"#utility.yul\":9784:9787   */\n      dup3\n        /* \"#utility.yul\":9780:9794   */\n      add\n        /* \"#utility.yul\":9772:9794   */\n      swap1\n      pop\n        /* \"#utility.yul\":9685:9800   */\n      swap2\n      swap1\n      pop\n      jump\t// out\n        /* \"#utility.yul\":9836:10535   */\n    tag_239:\n        /* \"#utility.yul\":9965:9968   */\n      0x00\n        /* \"#utility.yul\":9988:10074   */\n      tag_358\n        /* \"#utility.yul\":10067:10073   */\n      dup4\n        /* \"#utility.yul\":10062:10065   */\n      dup6\n        /* \"#utility.yul\":9988:10074   */\n      tag_233\n      jump\t// in\n    tag_358:\n        /* \"#utility.yul\":9981:10074   */\n      swap4\n      pop\n        /* \"#utility.yul\":10098:10156   */\n      tag_359\n        /* \"#utility.yul\":10150:10155   */\n      dup3\n        /* \"#utility.yul\":10098:10156   */\n      tag_234\n      jump\t// in\n    tag_359:\n        /* \"#utility.yul\":10179:10186   */\n      dup1\n        /* \"#utility.yul\":10210:10211   */\n      0x00\n        /* \"#utility.yul\":10195:10510   */\n    tag_360:\n        /* \"#utility.yul\":10220:10226   */\n      dup6\n        /* \"#utility.yul\":10217:10218   */\n      dup2\n        /* \"#utility.yul\":10214:10227   */\n      lt\n        /* \"#utility.yul\":10195:10510   */\n      iszero\n      tag_362\n      jumpi\n        /* \"#utility.yul\":10290:10332   */\n      tag_363\n        /* \"#utility.yul\":10325:10331   */\n      dup3\n        /* \"#utility.yul\":10316:10323   */\n      dup5\n        /* \"#utility.yul\":10290:10332   */\n      tag_237\n      jump\t// in\n    tag_363:\n        /* \"#utility.yul\":10352:10415   */\n      tag_364\n        /* \"#utility.yul\":10411:10414   */\n      dup9\n        /* \"#utility.yul\":10396:10409   */\n      dup3\n        /* \"#utility.yul\":10352:10415   */\n      tag_236\n      jump\t// in\n    tag_364:\n        /* \"#utility.yul\":10345:10415   */\n      swap8\n      pop\n        /* \"#utility.yul\":10438:10500   */\n      tag_365\n        /* \"#utility.yul\":10493:10499   */\n      dup4\n        /* \"#utility.yul\":10438:10500   */\n      tag_238\n      jump\t// in\n    tag_365:\n        /* \"#utility.yul\":10428:10500   */\n      swap3\n      pop\n        /* \"#utility.yul\":10255:10510   */\n      pop\n        /* \"#utility.yul\":10242:10243   */\n      0x01\n        /* \"#utility.yul\":10239:10240   */\n      dup2\n        /* \"#utility.yul\":10235:10244   */\n      add\n        /* \"#utility.yul\":10230:10244   */\n      swap1\n      pop\n        /* \"#utility.yul\":10195:10510   */\n      jump(tag_360)\n    tag_362:\n        /* \"#utility.yul\":10199:10213   */\n      pop\n        /* \"#utility.yul\":10526:10529   */\n      dup6\n        /* \"#utility.yul\":10519:10529   */\n      swap3\n      pop\n        /* \"#utility.yul\":9970:10535   */\n      pop\n      pop\n        /* \"#utility.yul\":9836:10535   */\n      swap4\n      swap3\n      pop\n      pop\n      pop\n      jump\t// out\n        /* \"#utility.yul\":10541:10725   */\n    tag_240:\n        /* \"#utility.yul\":10640:10651   */\n      0x00\n        /* \"#utility.yul\":10674:10680   */\n      dup3\n        /* \"#utility.yul\":10669:10672   */\n      dup3\n        /* \"#utility.yul\":10662:10681   */\n      mstore\n        /* \"#utility.yul\":10714:10718   */\n      0x20\n        /* \"#utility.yul\":10709:10712   */\n      dup3\n        /* \"#utility.yul\":10705:10719   */\n      add\n        /* \"#utility.yul\":10690:10719   */\n      swap1\n      pop\n        /* \"#utility.yul\":10541:10725   */\n      swap3\n      swap2\n      pop\n      pop\n      jump\t// out\n        /* \"#utility.yul\":10731:10848   */\n    tag_241:\n        /* \"#utility.yul\":10840:10841   */\n      0x00\n        /* \"#utility.yul\":10837:10838   */\n      dup1\n        /* \"#utility.yul\":10830:10842   */\n      revert\n        /* \"#utility.yul\":10854:11008   */\n    tag_242:\n        /* \"#utility.yul\":10938:10944   */\n      dup3\n        /* \"#utility.yul\":10933:10936   */\n      dup2\n        /* \"#utility.yul\":10928:10931   */\n      dup4\n        /* \"#utility.yul\":10915:10945   */\n      calldatacopy\n        /* \"#utility.yul\":11000:11001   */\n      0x00\n        /* \"#utility.yul\":10991:10997   */\n      dup4\n        /* \"#utility.yul\":10986:10989   */\n      dup4\n        /* \"#utility.yul\":10982:10998   */\n      add\n        /* \"#utility.yul\":10975:11002   */\n      mstore\n        /* \"#utility.yul\":10854:11008   */\n      pop\n      pop\n      pop\n      jump\t// out\n        /* \"#utility.yul\":11044:11581   */\n    tag_243:\n        /* \"#utility.yul\":11172:11175   */\n      0x00\n        /* \"#utility.yul\":11193:11279   */\n      tag_370\n        /* \"#utility.yul\":11272:11278   */\n      dup4\n        /* \"#utility.yul\":11267:11270   */\n      dup6\n        /* \"#utility.yul\":11193:11279   */\n      tag_240\n      jump\t// in\n    tag_370:\n        /* \"#utility.yul\":11186:11279   */\n      swap4\n      pop\n        /* \"#utility.yul\":11303:11369   */\n      0x07ffffffffffffffffffffffffffffffffffffffffffffffffffffffffffffff\n        /* \"#utility.yul\":11295:11301   */\n      dup4\n        /* \"#utility.yul\":11292:11370   */\n      gt\n        /* \"#utility.yul\":11289:11454   */\n      iszero\n      tag_371\n      jumpi\n        /* \"#utility.yul\":11373:11452   */\n      tag_372\n      tag_241\n      jump\t// in\n    tag_372:\n        /* \"#utility.yul\":11289:11454   */\n    tag_371:\n        /* \"#utility.yul\":11485:11489   */\n      0x20\n        /* \"#utility.yul\":11477:11483   */\n      dup4\n        /* \"#utility.yul\":11473:11490   */\n      mul\n        /* \"#utility.yul\":11463:11490   */\n      swap3\n      pop\n        /* \"#utility.yul\":11500:11543   */\n      tag_373\n        /* \"#utility.yul\":11536:11542   */\n      dup4\n        /* \"#utility.yul\":11531:11534   */\n      dup6\n        /* \"#utility.yul\":11524:11529   */\n      dup5\n        /* \"#utility.yul\":11500:11543   */\n      tag_242\n      jump\t// in\n    tag_373:\n        /* \"#utility.yul\":11568:11574   */\n      dup3\n        /* \"#utility.yul\":11563:11566   */\n      dup5\n        /* \"#utility.yul\":11559:11575   */\n      add\n        /* \"#utility.yul\":11552:11575   */\n      swap1\n      pop\n        /* \"#utility.yul\":11044:11581   */\n      swap4\n      swap3\n      pop\n      pop\n      pop\n      jump\t// out\n        /* \"#utility.yul\":11587:12261   */\n    tag_97:\n        /* \"#utility.yul\":11828:11832   */\n      0x00\n        /* \"#utility.yul\":11866:11868   */\n      0x40\n        /* \"#utility.yul\":11855:11864   */\n      dup3\n        /* \"#utility.yul\":11851:11869   */\n      add\n        /* \"#utility.yul\":11843:11869   */\n      swap1\n      pop\n        /* \"#utility.yul\":11915:11924   */\n      dup2\n        /* \"#utility.yul\":11909:11913   */\n      dup2\n        /* \"#utility.yul\":11905:11925   */\n      sub\n        /* \"#utility.yul\":11901:11902   */\n      0x00\n        /* \"#utility.yul\":11890:11899   */\n      dup4\n        /* \"#utility.yul\":11886:11903   */\n      add\n        /* \"#utility.yul\":11879:11926   */\n      mstore\n        /* \"#utility.yul\":11943:12061   */\n      tag_375\n        /* \"#utility.yul\":12056:12060   */\n      dup2\n        /* \"#utility.yul\":12047:12053   */\n      dup7\n        /* \"#utility.yul\":12039:12045   */\n      dup9\n        /* \"#utility.yul\":11943:12061   */\n      tag_239\n      jump\t// in\n    tag_375:\n        /* \"#utility.yul\":11935:12061   */\n      swap1\n      pop\n        /* \"#utility.yul\":12108:12117   */\n      dup2\n        /* \"#utility.yul\":12102:12106   */\n      dup2\n        /* \"#utility.yul\":12098:12118   */\n      sub\n        /* \"#utility.yul\":12093:12095   */\n      0x20\n        /* \"#utility.yul\":12082:12091   */\n      dup4\n        /* \"#utility.yul\":12078:12096   */\n      add\n        /* \"#utility.yul\":12071:12119   */\n      mstore\n        /* \"#utility.yul\":12136:12254   */\n      tag_376\n        /* \"#utility.yul\":12249:12253   */\n      dup2\n        /* \"#utility.yul\":12240:12246   */\n      dup5\n        /* \"#utility.yul\":12232:12238   */\n      dup7\n        /* \"#utility.yul\":12136:12254   */\n      tag_243\n      jump\t// in\n    tag_376:\n        /* \"#utility.yul\":12128:12254   */\n      swap1\n      pop\n        /* \"#utility.yul\":11587:12261   */\n      swap6\n      swap5\n      pop\n      pop\n      pop\n      pop\n      pop\n      jump\t// out\n        /* \"#utility.yul\":12267:12410   */\n    tag_244:\n        /* \"#utility.yul\":12324:12329   */\n      0x00\n        /* \"#utility.yul\":12355:12361   */\n      dup2\n        /* \"#utility.yul\":12349:12362   */\n      mload\n        /* \"#utility.yul\":12340:12362   */\n      swap1\n      pop\n        /* \"#utility.yul\":12371:12404   */\n      tag_378\n        /* \"#utility.yul\":12398:12403   */\n      dup2\n        /* \"#utility.yul\":12371:12404   */\n      tag_219\n      jump\t// in\n    tag_378:\n        /* \"#utility.yul\":12267:12410   */\n      swap3\n      swap2\n      pop\n      pop\n      jump\t// out\n        /* \"#utility.yul\":12416:12767   */\n    tag_119:\n        /* \"#utility.yul\":12486:12492   */\n      0x00\n        /* \"#utility.yul\":12535:12537   */\n      0x20\n        /* \"#utility.yul\":12523:12532   */\n      dup3\n        /* \"#utility.yul\":12514:12521   */\n      dup5\n        /* \"#utility.yul\":12510:12533   */\n      sub\n        /* \"#utility.yul\":12506:12538   */\n      slt\n        /* \"#utility.yul\":12503:12622   */\n      iszero\n      tag_380\n      jumpi\n        /* \"#utility.yul\":12541:12620   */\n      tag_381\n      tag_215\n      jump\t// in\n    tag_381:\n        /* \"#utility.yul\":12503:12622   */\n    tag_380:\n        /* \"#utility.yul\":12661:12662   */\n      0x00\n        /* \"#utility.yul\":12686:12750   */\n      tag_382\n        /* \"#utility.yul\":12742:12749   */\n      dup5\n        /* \"#utility.yul\":12733:12739   */\n      dup3\n        /* \"#utility.yul\":12722:12731   */\n      dup6\n        /* \"#utility.yul\":12718:12740   */\n      add\n        /* \"#utility.yul\":12686:12750   */\n      tag_244\n      jump\t// in\n    tag_382:\n        /* \"#utility.yul\":12676:12750   */\n      swap2\n      pop\n        /* \"#utility.yul\":12632:12760   */\n      pop\n        /* \"#utility.yul\":12416:12767   */\n      swap3\n      swap2\n      pop\n      pop\n      jump\t// out\n        /* \"#utility.yul\":12773:12953   */\n    tag_245:\n        /* \"#utility.yul\":12821:12898   */\n      0x4e487b7100000000000000000000000000000000000000000000000000000000\n        /* \"#utility.yul\":12818:12819   */\n      0x00\n        /* \"#utility.yul\":12811:12899   */\n      mstore\n        /* \"#utility.yul\":12918:12922   */\n      0x11\n        /* \"#utility.yul\":12915:12916   */\n      0x04\n        /* \"#utility.yul\":12908:12923   */\n      mstore\n        /* \"#utility.yul\":12942:12946   */\n      0x24\n        /* \"#utility.yul\":12939:12940   */\n      0x00\n        /* \"#utility.yul\":12932:12947   */\n      revert\n        /* \"#utility.yul\":12959:13264   */\n    tag_125:\n        /* \"#utility.yul\":12999:13002   */\n      0x00\n        /* \"#utility.yul\":13018:13038   */\n      tag_385\n        /* \"#utility.yul\":13036:13037   */\n      dup3\n        /* \"#utility.yul\":13018:13038   */\n      tag_212\n      jump\t// in\n    tag_385:\n        /* \"#utility.yul\":13013:13038   */\n      swap2\n      pop\n        /* \"#utility.yul\":13052:13072   */\n      tag_386\n        /* \"#utility.yul\":13070:13071   */\n      dup4\n        /* \"#utility.yul\":13052:13072   */\n      tag_212\n      jump\t// in\n    tag_386:\n        /* \"#utility.yul\":13047:13072   */\n      swap3\n      pop\n        /* \"#utility.yul\":13206:13207   */\n      dup3\n        /* \"#utility.yul\":13138:13204   */\n      0xffffffffffffffffffffffffffffffffffffffffffffffffffffffffffffffff\n        /* \"#utility.yul\":13134:13208   */\n      sub\n        /* \"#utility.yul\":13131:13132   */\n      dup3\n        /* \"#utility.yul\":13128:13209   */\n      gt\n        /* \"#utility.yul\":13125:13232   */\n      iszero\n      tag_387\n      jumpi\n        /* \"#utility.yul\":13212:13230   */\n      tag_388\n      tag_245\n      jump\t// in\n    tag_388:\n        /* \"#utility.yul\":13125:13232   */\n    tag_387:\n        /* \"#utility.yul\":13256:13257   */\n      dup3\n        /* \"#utility.yul\":13253:13254   */\n      dup3\n        /* \"#utility.yul\":13249:13258   */\n      add\n        /* \"#utility.yul\":13242:13258   */\n      swap1\n      pop\n        /* \"#utility.yul\":12959:13264   */\n      swap3\n      swap2\n      pop\n      pop\n      jump\t// out\n        /* \"#utility.yul\":13270:13602   */\n    tag_133:\n        /* \"#utility.yul\":13391:13395   */\n      0x00\n        /* \"#utility.yul\":13429:13431   */\n      0x40\n        /* \"#utility.yul\":13418:13427   */\n      dup3\n        /* \"#utility.yul\":13414:13432   */\n      add\n        /* \"#utility.yul\":13406:13432   */\n      swap1\n      pop\n        /* \"#utility.yul\":13442:13513   */\n      tag_390\n        /* \"#utility.yul\":13510:13511   */\n      0x00\n        /* \"#utility.yul\":13499:13508   */\n      dup4\n        /* \"#utility.yul\":13495:13512   */\n      add\n        /* \"#utility.yul\":13486:13492   */\n      dup6\n        /* \"#utility.yul\":13442:13513   */\n      tag_228\n      jump\t// in\n    tag_390:\n        /* \"#utility.yul\":13523:13595   */\n      tag_391\n        /* \"#utility.yul\":13591:13593   */\n      0x20\n        /* \"#utility.yul\":13580:13589   */\n      dup4\n        /* \"#utility.yul\":13576:13594   */\n      add\n        /* \"#utility.yul\":13567:13573   */\n      dup5\n        /* \"#utility.yul\":13523:13595   */\n      tag_213\n      jump\t// in\n    tag_391:\n        /* \"#utility.yul\":13270:13602   */\n      swap4\n      swap3\n      pop\n      pop\n      pop\n      jump\t// out\n        /* \"#utility.yul\":13608:13698   */\n    tag_246:\n        /* \"#utility.yul\":13642:13649   */\n      0x00\n        /* \"#utility.yul\":13685:13690   */\n      dup2\n        /* \"#utility.yul\":13678:13691   */\n      iszero\n        /* \"#utility.yul\":13671:13692   */\n      iszero\n        /* \"#utility.yul\":13660:13692   */\n      swap1\n      pop\n        /* \"#utility.yul\":13608:13698   */\n      swap2\n      swap1\n      pop\n      jump\t// out\n        /* \"#utility.yul\":13704:13820   */\n    tag_247:\n        /* \"#utility.yul\":13774:13795   */\n      tag_394\n        /* \"#utility.yul\":13789:13794   */\n      dup2\n        /* \"#utility.yul\":13774:13795   */\n      tag_246\n      jump\t// in\n    tag_394:\n        /* \"#utility.yul\":13767:13772   */\n      dup2\n        /* \"#utility.yul\":13764:13796   */\n      eq\n        /* \"#utility.yul\":13754:13814   */\n      tag_395\n      jumpi\n        /* \"#utility.yul\":13810:13811   */\n      0x00\n        /* \"#utility.yul\":13807:13808   */\n      dup1\n        /* \"#utility.yul\":13800:13812   */\n      revert\n        /* \"#utility.yul\":13754:13814   */\n    tag_395:\n        /* \"#utility.yul\":13704:13820   */\n      pop\n      jump\t// out\n        /* \"#utility.yul\":13826:13963   */\n    tag_248:\n        /* \"#utility.yul\":13880:13885   */\n      0x00\n        /* \"#utility.yul\":13911:13917   */\n      dup2\n        /* \"#utility.yul\":13905:13918   */\n      mload\n        /* \"#utility.yul\":13896:13918   */\n      swap1\n      pop\n        /* \"#utility.yul\":13927:13957   */\n      tag_397\n        /* \"#utility.yul\":13951:13956   */\n      dup2\n        /* \"#utility.yul\":13927:13957   */\n      tag_247\n      jump\t// in\n    tag_397:\n        /* \"#utility.yul\":13826:13963   */\n      swap3\n      swap2\n      pop\n      pop\n      jump\t// out\n        /* \"#utility.yul\":13969:14314   */\n    tag_137:\n        /* \"#utility.yul\":14036:14042   */\n      0x00\n        /* \"#utility.yul\":14085:14087   */\n      0x20\n        /* \"#utility.yul\":14073:14082   */\n      dup3\n        /* \"#utility.yul\":14064:14071   */\n      dup5\n        /* \"#utility.yul\":14060:14083   */\n      sub\n        /* \"#utility.yul\":14056:14088   */\n      slt\n        /* \"#utility.yul\":14053:14172   */\n      iszero\n      tag_399\n      jumpi\n        /* \"#utility.yul\":14091:14170   */\n      tag_400\n      tag_215\n      jump\t// in\n    tag_400:\n        /* \"#utility.yul\":14053:14172   */\n    tag_399:\n        /* \"#utility.yul\":14211:14212   */\n      0x00\n        /* \"#utility.yul\":14236:14297   */\n      tag_401\n        /* \"#utility.yul\":14289:14296   */\n      dup5\n        /* \"#utility.yul\":14280:14286   */\n      dup3\n        /* \"#utility.yul\":14269:14278   */\n      dup6\n        /* \"#utility.yul\":14265:14287   */\n      add\n        /* \"#utility.yul\":14236:14297   */\n      tag_248\n      jump\t// in\n    tag_401:\n        /* \"#utility.yul\":14226:14297   */\n      swap2\n      pop\n        /* \"#utility.yul\":14182:14307   */\n      pop\n        /* \"#utility.yul\":13969:14314   */\n      swap3\n      swap2\n      pop\n      pop\n      jump\t// out\n        /* \"#utility.yul\":14320:14500   */\n    tag_146:\n        /* \"#utility.yul\":14368:14445   */\n      0x4e487b7100000000000000000000000000000000000000000000000000000000\n        /* \"#utility.yul\":14365:14366   */\n      0x00\n        /* \"#utility.yul\":14358:14446   */\n      mstore\n        /* \"#utility.yul\":14465:14469   */\n      0x32\n        /* \"#utility.yul\":14462:14463   */\n      0x04\n        /* \"#utility.yul\":14455:14470   */\n      mstore\n        /* \"#utility.yul\":14489:14493   */\n      0x24\n        /* \"#utility.yul\":14486:14487   */\n      0x00\n        /* \"#utility.yul\":14479:14494   */\n      revert\n        /* \"#utility.yul\":14506:14739   */\n    tag_155:\n        /* \"#utility.yul\":14545:14548   */\n      0x00\n        /* \"#utility.yul\":14568:14592   */\n      tag_404\n        /* \"#utility.yul\":14586:14591   */\n      dup3\n        /* \"#utility.yul\":14568:14592   */\n      tag_212\n      jump\t// in\n    tag_404:\n        /* \"#utility.yul\":14559:14592   */\n      swap2\n      pop\n        /* \"#utility.yul\":14614:14680   */\n      0xffffffffffffffffffffffffffffffffffffffffffffffffffffffffffffffff\n        /* \"#utility.yul\":14607:14612   */\n      dup3\n        /* \"#utility.yul\":14604:14681   */\n      sub\n        /* \"#utility.yul\":14601:14704   */\n      tag_405\n      jumpi\n        /* \"#utility.yul\":14684:14702   */\n      tag_406\n      tag_245\n      jump\t// in\n    tag_406:\n        /* \"#utility.yul\":14601:14704   */\n    tag_405:\n        /* \"#utility.yul\":14731:14732   */\n      0x01\n        /* \"#utility.yul\":14724:14729   */\n      dup3\n        /* \"#utility.yul\":14720:14733   */\n      add\n        /* \"#utility.yul\":14713:14733   */\n      swap1\n      pop\n        /* \"#utility.yul\":14506:14739   */\n      swap2\n      swap1\n      pop\n      jump\t// out\n        /* \"#utility.yul\":14745:14936   */\n    tag_160:\n        /* \"#utility.yul\":14785:14789   */\n      0x00\n        /* \"#utility.yul\":14805:14825   */\n      tag_408\n        /* \"#utility.yul\":14823:14824   */\n      dup3\n        /* \"#utility.yul\":14805:14825   */\n      tag_212\n      jump\t// in\n    tag_408:\n        /* \"#utility.yul\":14800:14825   */\n      swap2\n      pop\n        /* \"#utility.yul\":14839:14859   */\n      tag_409\n        /* \"#utility.yul\":14857:14858   */\n      dup4\n        /* \"#utility.yul\":14839:14859   */\n      tag_212\n      jump\t// in\n    tag_409:\n        /* \"#utility.yul\":14834:14859   */\n      swap3\n      pop\n        /* \"#utility.yul\":14878:14879   */\n      dup3\n        /* \"#utility.yul\":14875:14876   */\n      dup3\n        /* \"#utility.yul\":14872:14880   */\n      lt\n        /* \"#utility.yul\":14869:14903   */\n      iszero\n      tag_410\n      jumpi\n        /* \"#utility.yul\":14883:14901   */\n      tag_411\n      tag_245\n      jump\t// in\n    tag_411:\n        /* \"#utility.yul\":14869:14903   */\n    tag_410:\n        /* \"#utility.yul\":14928:14929   */\n      dup3\n        /* \"#utility.yul\":14925:14926   */\n      dup3\n        /* \"#utility.yul\":14921:14930   */\n      sub\n        /* \"#utility.yul\":14913:14930   */\n      swap1\n      pop\n        /* \"#utility.yul\":14745:14936   */\n      swap3\n      swap2\n      pop\n      pop\n      jump\t// out\n        /* \"#utility.yul\":14942:15085   */\n    tag_249:\n        /* \"#utility.yul\":14999:15004   */\n      0x00\n        /* \"#utility.yul\":15030:15036   */\n      dup2\n        /* \"#utility.yul\":15024:15037   */\n      mload\n        /* \"#utility.yul\":15015:15037   */\n      swap1\n      pop\n        /* \"#utility.yul\":15046:15079   */\n      tag_413\n        /* \"#utility.yul\":15073:15078   */\n      dup2\n        /* \"#utility.yul\":15046:15079   */\n      tag_226\n      jump\t// in\n    tag_413:\n        /* \"#utility.yul\":14942:15085   */\n      swap3\n      swap2\n      pop\n      pop\n      jump\t// out\n        /* \"#utility.yul\":15091:15442   */\n    tag_167:\n        /* \"#utility.yul\":15161:15167   */\n      0x00\n        /* \"#utility.yul\":15210:15212   */\n      0x20\n        /* \"#utility.yul\":15198:15207   */\n      dup3\n        /* \"#utility.yul\":15189:15196   */\n      dup5\n        /* \"#utility.yul\":15185:15208   */\n      sub\n        /* \"#utility.yul\":15181:15213   */\n      slt\n        /* \"#utility.yul\":15178:15297   */\n      iszero\n      tag_415\n      jumpi\n        /* \"#utility.yul\":15216:15295   */\n      tag_416\n      tag_215\n      jump\t// in\n    tag_416:\n        /* \"#utility.yul\":15178:15297   */\n    tag_415:\n        /* \"#utility.yul\":15336:15337   */\n      0x00\n        /* \"#utility.yul\":15361:15425   */\n      tag_417\n        /* \"#utility.yul\":15417:15424   */\n      dup5\n        /* \"#utility.yul\":15408:15414   */\n      dup3\n        /* \"#utility.yul\":15397:15406   */\n      dup6\n        /* \"#utility.yul\":15393:15415   */\n      add\n        /* \"#utility.yul\":15361:15425   */\n      tag_249\n      jump\t// in\n    tag_417:\n        /* \"#utility.yul\":15351:15425   */\n      swap2\n      pop\n        /* \"#utility.yul\":15307:15435   */\n      pop\n        /* \"#utility.yul\":15091:15442   */\n      swap3\n      swap2\n      pop\n      pop\n      jump\t// out\n        /* \"#utility.yul\":15448:15796   */\n    tag_172:\n        /* \"#utility.yul\":15488:15495   */\n      0x00\n        /* \"#utility.yul\":15511:15531   */\n      tag_419\n        /* \"#utility.yul\":15529:15530   */\n      dup3\n        /* \"#utility.yul\":15511:15531   */\n      tag_212\n      jump\t// in\n    tag_419:\n        /* \"#utility.yul\":15506:15531   */\n      swap2\n      pop\n        /* \"#utility.yul\":15545:15565   */\n      tag_420\n        /* \"#utility.yul\":15563:15564   */\n      dup4\n        /* \"#utility.yul\":15545:15565   */\n      tag_212\n      jump\t// in\n    tag_420:\n        /* \"#utility.yul\":15540:15565   */\n      swap3\n      pop\n        /* \"#utility.yul\":15733:15734   */\n      dup2\n        /* \"#utility.yul\":15665:15731   */\n      0xffffffffffffffffffffffffffffffffffffffffffffffffffffffffffffffff\n        /* \"#utility.yul\":15661:15735   */\n      div\n        /* \"#utility.yul\":15658:15659   */\n      dup4\n        /* \"#utility.yul\":15655:15736   */\n      gt\n        /* \"#utility.yul\":15650:15651   */\n      dup3\n        /* \"#utility.yul\":15643:15652   */\n      iszero\n        /* \"#utility.yul\":15636:15653   */\n      iszero\n        /* \"#utility.yul\":15632:15737   */\n      and\n        /* \"#utility.yul\":15629:15760   */\n      iszero\n      tag_421\n      jumpi\n        /* \"#utility.yul\":15740:15758   */\n      tag_422\n      tag_245\n      jump\t// in\n    tag_422:\n        /* \"#utility.yul\":15629:15760   */\n    tag_421:\n        /* \"#utility.yul\":15788:15789   */\n      dup3\n        /* \"#utility.yul\":15785:15786   */\n      dup3\n        /* \"#utility.yul\":15781:15790   */\n      mul\n        /* \"#utility.yul\":15770:15790   */\n      swap1\n      pop\n        /* \"#utility.yul\":15448:15796   */\n      swap3\n      swap2\n      pop\n      pop\n      jump\t// out\n        /* \"#utility.yul\":15802:15982   */\n    tag_250:\n        /* \"#utility.yul\":15850:15927   */\n      0x4e487b7100000000000000000000000000000000000000000000000000000000\n        /* \"#utility.yul\":15847:15848   */\n      0x00\n        /* \"#utility.yul\":15840:15928   */\n      mstore\n        /* \"#utility.yul\":15947:15951   */\n      0x12\n        /* \"#utility.yul\":15944:15945   */\n      0x04\n        /* \"#utility.yul\":15937:15952   */\n      mstore\n        /* \"#utility.yul\":15971:15975   */\n      0x24\n        /* \"#utility.yul\":15968:15969   */\n      0x00\n        /* \"#utility.yul\":15961:15976   */\n      revert\n        /* \"#utility.yul\":15988:16173   */\n    tag_178:\n        /* \"#utility.yul\":16028:16029   */\n      0x00\n        /* \"#utility.yul\":16045:16065   */\n      tag_425\n        /* \"#utility.yul\":16063:16064   */\n      dup3\n        /* \"#utility.yul\":16045:16065   */\n      tag_212\n      jump\t// in\n    tag_425:\n        /* \"#utility.yul\":16040:16065   */\n      swap2\n      pop\n        /* \"#utility.yul\":16079:16099   */\n      tag_426\n        /* \"#utility.yul\":16097:16098   */\n      dup4\n        /* \"#utility.yul\":16079:16099   */\n      tag_212\n      jump\t// in\n    tag_426:\n        /* \"#utility.yul\":16074:16099   */\n      swap3\n      pop\n        /* \"#utility.yul\":16118:16119   */\n      dup3\n        /* \"#utility.yul\":16108:16143   */\n      tag_427\n      jumpi\n        /* \"#utility.yul\":16123:16141   */\n      tag_428\n      tag_250\n      jump\t// in\n    tag_428:\n        /* \"#utility.yul\":16108:16143   */\n    tag_427:\n        /* \"#utility.yul\":16165:16166   */\n      dup3\n        /* \"#utility.yul\":16162:16163   */\n      dup3\n        /* \"#utility.yul\":16158:16167   */\n      div\n        /* \"#utility.yul\":16153:16167   */\n      swap1\n      pop\n        /* \"#utility.yul\":15988:16173   */\n      swap3\n      swap2\n      pop\n      pop\n      jump\t// out\n\n    auxdata: 0xa2646970667358221220a487d0b5817b8eaa4cc6b9db198c0aed76e6217ed49f178964dbfcce579f8c9d64736f6c634300080e0033\n}\n",
				"bytecode": {
					"linkReferences": {},
					"object": "60a060405234801561001057600080fd5b503373ffffffffffffffffffffffffffffffffffffffff1660808173ffffffffffffffffffffffffffffffffffffffff168152505060006005819055506080516118dd610092600039600081816103120152818161061f015281816106580152818161072a0152818161079201528181610ad10152610b2b01526118dd6000f3fe6080604052600436106100c65760003560e01c80637f8483a41161007f578063d0b06f5d11610059578063d0b06f5d14610260578063ec5568891461028b578063fc693786146102b6578063fed0a20e146102df576100d0565b80637f8483a4146101cf5780639e955149146101fa578063bdedd45e14610223576100d0565b806313ab7042146100d55780631d69b196146101005780633779966114610129578063674eb5ac146101525780636c8ae38c1461017b57806375450f1b146101a6576100d0565b366100d057600080fd5b600080fd5b3480156100e157600080fd5b506100ea61030a565b6040516100f79190610fc9565b60405180910390f35b34801561010c57600080fd5b5061012760048036038101906101229190611107565b610310565b005b34801561013557600080fd5b50610150600480360381019061014b91906111c8565b610656565b005b34801561015e57600080fd5b5061017960048036038101906101749190611243565b610728565b005b34801561018757600080fd5b5061019061078a565b60405161019d9190610fc9565b60405180910390f35b3480156101b257600080fd5b506101cd60048036038101906101c89190611243565b610790565b005b3480156101db57600080fd5b506101e46107f2565b6040516101f19190610fc9565b60405180910390f35b34801561020657600080fd5b50610221600480360381019061021c9190611270565b6107f8565b005b34801561022f57600080fd5b5061024a60048036038101906102459190611243565b610893565b6040516102579190610fc9565b60405180910390f35b34801561026c57600080fd5b50610275610aa5565b6040516102829190610fc9565b60405180910390f35b34801561029757600080fd5b506102a0610aab565b6040516102ad91906112ac565b60405180910390f35b3480156102c257600080fd5b506102dd60048036038101906102d891906112c7565b610acf565b005b3480156102eb57600080fd5b506102f4610c34565b6040516103019190610fc9565b60405180910390f35b60035481565b7f000000000000000000000000000000000000000000000000000000000000000073ffffffffffffffffffffffffffffffffffffffff163373ffffffffffffffffffffffffffffffffffffffff161461036857600080fd5b60008060009054906101000a900473ffffffffffffffffffffffffffffffffffffffff1690508073ffffffffffffffffffffffffffffffffffffffff1663101dfd19876040518263ffffffff1660e01b81526004016103c791906112ac565b600060405180830381600087803b1580156103e157600080fd5b505af11580156103f5573d6000803e3d6000fd5b505050508573ffffffffffffffffffffffffffffffffffffffff1681600154600254600354600454604051602401610431959493929190611348565b6040516020818303038152906040527f941ac607000000000000000000000000000000000000000000000000000000007bffffffffffffffffffffffffffffffffffffffffffffffffffffffff19166020820180517bffffffffffffffffffffffffffffffffffffffffffffffffffffffff83818316178352505050506040516104bb9190611415565b600060405180830381855af49150503d80600081146104f6576040519150601f19603f3d011682016040523d82523d6000602084013e6104fb565b606091505b5050506000905060006001819055506000600281905550600060038190555060006004819055503073ffffffffffffffffffffffffffffffffffffffff16858585856040516024016105509493929190611570565b6040516020818303038152906040527f4abcc5d5000000000000000000000000000000000000000000000000000000007bffffffffffffffffffffffffffffffffffffffffffffffffffffffff19166020820180517bffffffffffffffffffffffffffffffffffffffffffffffffffffffff83818316178352505050506040516105da9190611415565b600060405180830381855af49150503d8060008114610615576040519150601f19603f3d011682016040523d82523d6000602084013e61061a565b606091505b5050507f000000000000000000000000000000000000000000000000000000000000000073ffffffffffffffffffffffffffffffffffffffff16ff5b7f000000000000000000000000000000000000000000000000000000000000000073ffffffffffffffffffffffffffffffffffffffff163373ffffffffffffffffffffffffffffffffffffffff16146106ae57600080fd5b6000600554146106bd57600080fd5b846000806101000a81548173ffffffffffffffffffffffffffffffffffffffff021916908373ffffffffffffffffffffffffffffffffffffffff1602179055508360018190555082600281905550816003819055508060048190555060016005819055505050505050565b7f000000000000000000000000000000000000000000000000000000000000000073ffffffffffffffffffffffffffffffffffffffff163373ffffffffffffffffffffffffffffffffffffffff161461078057600080fd5b8060048190555050565b60045481565b7f000000000000000000000000000000000000000000000000000000000000000073ffffffffffffffffffffffffffffffffffffffff163373ffffffffffffffffffffffffffffffffffffffff16146107e857600080fd5b8060038190555050565b60025481565b60008054906101000a900473ffffffffffffffffffffffffffffffffffffffff1673ffffffffffffffffffffffffffffffffffffffff163373ffffffffffffffffffffffffffffffffffffffff161461085057600080fd5b806000806101000a81548173ffffffffffffffffffffffffffffffffffffffff021916908373ffffffffffffffffffffffffffffffffffffffff16021790555050565b60008060008054906101000a900473ffffffffffffffffffffffffffffffffffffffff1690503373ffffffffffffffffffffffffffffffffffffffff168173ffffffffffffffffffffffffffffffffffffffff16633f0a07976040518163ffffffff1660e01b8152600401602060405180830381865afa15801561091b573d6000803e3d6000fd5b505050506040513d601f19601f8201168201806040525081019061093f91906115c0565b73ffffffffffffffffffffffffffffffffffffffff161461095f57600080fd5b6000610969610c3a565b90506000840361098f5780600254610981919061161c565b925082600281905550610a9e565b60018403610a9d57600254816109a5919061161c565b92508173ffffffffffffffffffffffffffffffffffffffff1663da8909e56040518163ffffffff1660e01b8152600401602060405180830381865afa1580156109f2573d6000803e3d6000fd5b505050506040513d601f19601f82011682018060405250810190610a1691906115c0565b73ffffffffffffffffffffffffffffffffffffffff1663990dc9db30856040518363ffffffff1660e01b8152600401610a50929190611672565b6020604051808303816000875af1158015610a6f573d6000803e3d6000fd5b505050506040513d601f19601f82011682018060405250810190610a9391906116d3565b5060006002819055505b5b5050919050565b60015481565b60008054906101000a900473ffffffffffffffffffffffffffffffffffffffff1681565b7f000000000000000000000000000000000000000000000000000000000000000073ffffffffffffffffffffffffffffffffffffffff163373ffffffffffffffffffffffffffffffffffffffff1614610b2757600080fd5b60007f0000000000000000000000000000000000000000000000000000000000000000905060005b83839050811015610c2c57858582818110610b6d57610b6c611700565b5b9050602002016020810190610b829190611270565b73ffffffffffffffffffffffffffffffffffffffff1663a9059cbb83868685818110610bb157610bb0611700565b5b905060200201356040518363ffffffff1660e01b8152600401610bd5929190611672565b6020604051808303816000875af1158015610bf4573d6000803e3d6000fd5b505050506040513d601f19601f82011682018060405250810190610c1891906116d3565b508080610c249061172f565b915050610b4f565b505050505050565b60055481565b60008060006001549050428103610c545760009250610fab565b60008142610c629190611777565b90506000600454905060008054906101000a900473ffffffffffffffffffffffffffffffffffffffff1673ffffffffffffffffffffffffffffffffffffffff166311ce02676040518163ffffffff1660e01b8152600401602060405180830381865afa158015610cd6573d6000803e3d6000fd5b505050506040513d601f19601f82011682018060405250810190610cfa91906115c0565b935060008473ffffffffffffffffffffffffffffffffffffffff166352fd856b6040518163ffffffff1660e01b8152600401602060405180830381865afa158015610d49573d6000803e3d6000fd5b505050506040513d601f19601f82011682018060405250810190610d6d91906117c0565b90506018670de0b6b3a764000083670de0b6b3a764000085670de0b6b3a764000087670de0b6b3a76400008960038c610da69190611777565b60028d610db39190611777565b60018e610dc09190611777565b8e8d610dcc91906117ed565b610dd691906117ed565b610de091906117ed565b610dea91906117ed565b610df491906117ed565b610dfe9190611876565b610e0891906117ed565b610e129190611876565b610e1c91906117ed565b610e269190611876565b610e3091906117ed565b610e3a9190611876565b610e449190611876565b6ec097ce7bc90715b34b9f1000000000600684670de0b6b3a7640000868760028a610e6f9190611777565b60018b610e7c9190611777565b8b610e8791906117ed565b610e9191906117ed565b610e9b91906117ed565b610ea591906117ed565b610eaf9190611876565b610eb991906117ed565b610ec39190611876565b83610ece91906117ed565b610ed89190611876565b6ec097ce7bc90715b34b9f100000000060028586600189610ef99190611777565b89610f0491906117ed565b610f0e91906117ed565b610f1891906117ed565b610f229190611876565b84610f2d91906117ed565b610f379190611876565b670de0b6b3a76400008587610f4c91906117ed565b670de0b6b3a7640000610f5f9190611777565b670de0b6b3a7640000610f729190611777565b85610f7d91906117ed565b610f879190611876565b610f919190611777565b610f9b919061161c565b610fa59190611777565b95505050505b505090565b6000819050919050565b610fc381610fb0565b82525050565b6000602082019050610fde6000830184610fba565b92915050565b600080fd5b600080fd5b600073ffffffffffffffffffffffffffffffffffffffff82169050919050565b600061101982610fee565b9050919050565b6110298161100e565b811461103457600080fd5b50565b60008135905061104681611020565b92915050565b600080fd5b600080fd5b600080fd5b60008083601f8401126110715761107061104c565b5b8235905067ffffffffffffffff81111561108e5761108d611051565b5b6020830191508360208202830111156110aa576110a9611056565b5b9250929050565b60008083601f8401126110c7576110c661104c565b5b8235905067ffffffffffffffff8111156110e4576110e3611051565b5b602083019150836020820283011115611100576110ff611056565b5b9250929050565b60008060008060006060868803121561112357611122610fe4565b5b600061113188828901611037565b955050602086013567ffffffffffffffff81111561115257611151610fe9565b5b61115e8882890161105b565b9450945050604086013567ffffffffffffffff81111561118157611180610fe9565b5b61118d888289016110b1565b92509250509295509295909350565b6111a581610fb0565b81146111b057600080fd5b50565b6000813590506111c28161119c565b92915050565b600080600080600060a086880312156111e4576111e3610fe4565b5b60006111f288828901611037565b9550506020611203888289016111b3565b9450506040611214888289016111b3565b9350506060611225888289016111b3565b9250506080611236888289016111b3565b9150509295509295909350565b60006020828403121561125957611258610fe4565b5b6000611267848285016111b3565b91505092915050565b60006020828403121561128657611285610fe4565b5b600061129484828501611037565b91505092915050565b6112a68161100e565b82525050565b60006020820190506112c1600083018461129d565b92915050565b600080600080604085870312156112e1576112e0610fe4565b5b600085013567ffffffffffffffff8111156112ff576112fe610fe9565b5b61130b8782880161105b565b9450945050602085013567ffffffffffffffff81111561132e5761132d610fe9565b5b61133a878288016110b1565b925092505092959194509250565b600060a08201905061135d600083018861129d565b61136a6020830187610fba565b6113776040830186610fba565b6113846060830185610fba565b6113916080830184610fba565b9695505050505050565b600081519050919050565b600081905092915050565b60005b838110156113cf5780820151818401526020810190506113b4565b838111156113de576000848401525b50505050565b60006113ef8261139b565b6113f981856113a6565b93506114098185602086016113b1565b80840191505092915050565b600061142182846113e4565b915081905092915050565b600082825260208201905092915050565b6000819050919050565b6114508161100e565b82525050565b60006114628383611447565b60208301905092915050565b600061147d6020840184611037565b905092915050565b6000602082019050919050565b600061149e838561142c565b93506114a98261143d565b8060005b858110156114e2576114bf828461146e565b6114c98882611456565b97506114d483611485565b9250506001810190506114ad565b5085925050509392505050565b600082825260208201905092915050565b600080fd5b82818337600083830152505050565b600061152083856114ef565b93507f07ffffffffffffffffffffffffffffffffffffffffffffffffffffffffffffff83111561155357611552611500565b5b602083029250611564838584611505565b82840190509392505050565b6000604082019050818103600083015261158b818688611492565b905081810360208301526115a0818486611514565b905095945050505050565b6000815190506115ba81611020565b92915050565b6000602082840312156115d6576115d5610fe4565b5b60006115e4848285016115ab565b91505092915050565b7f4e487b7100000000000000000000000000000000000000000000000000000000600052601160045260246000fd5b600061162782610fb0565b915061163283610fb0565b9250827fffffffffffffffffffffffffffffffffffffffffffffffffffffffffffffffff03821115611667576116666115ed565b5b828201905092915050565b6000604082019050611687600083018561129d565b6116946020830184610fba565b9392505050565b60008115159050919050565b6116b08161169b565b81146116bb57600080fd5b50565b6000815190506116cd816116a7565b92915050565b6000602082840312156116e9576116e8610fe4565b5b60006116f7848285016116be565b91505092915050565b7f4e487b7100000000000000000000000000000000000000000000000000000000600052603260045260246000fd5b600061173a82610fb0565b91507fffffffffffffffffffffffffffffffffffffffffffffffffffffffffffffffff820361176c5761176b6115ed565b5b600182019050919050565b600061178282610fb0565b915061178d83610fb0565b9250828210156117a05761179f6115ed565b5b828203905092915050565b6000815190506117ba8161119c565b92915050565b6000602082840312156117d6576117d5610fe4565b5b60006117e4848285016117ab565b91505092915050565b60006117f882610fb0565b915061180383610fb0565b9250817fffffffffffffffffffffffffffffffffffffffffffffffffffffffffffffffff048311821515161561183c5761183b6115ed565b5b828202905092915050565b7f4e487b7100000000000000000000000000000000000000000000000000000000600052601260045260246000fd5b600061188182610fb0565b915061188c83610fb0565b92508261189c5761189b611847565b5b82820490509291505056fea2646970667358221220a487d0b5817b8eaa4cc6b9db198c0aed76e6217ed49f178964dbfcce579f8c9d64736f6c634300080e0033",
					"opcodes": "PUSH1 0xA0 PUSH1 0x40 MSTORE CALLVALUE DUP1 ISZERO PUSH2 0x10 JUMPI PUSH1 0x0 DUP1 REVERT JUMPDEST POP CALLER PUSH20 0xFFFFFFFFFFFFFFFFFFFFFFFFFFFFFFFFFFFFFFFF AND PUSH1 0x80 DUP2 PUSH20 0xFFFFFFFFFFFFFFFFFFFFFFFFFFFFFFFFFFFFFFFF AND DUP2 MSTORE POP POP PUSH1 0x0 PUSH1 0x5 DUP2 SWAP1 SSTORE POP PUSH1 0x80 MLOAD PUSH2 0x18DD PUSH2 0x92 PUSH1 0x0 CODECOPY PUSH1 0x0 DUP2 DUP2 PUSH2 0x312 ADD MSTORE DUP2 DUP2 PUSH2 0x61F ADD MSTORE DUP2 DUP2 PUSH2 0x658 ADD MSTORE DUP2 DUP2 PUSH2 0x72A ADD MSTORE DUP2 DUP2 PUSH2 0x792 ADD MSTORE DUP2 DUP2 PUSH2 0xAD1 ADD MSTORE PUSH2 0xB2B ADD MSTORE PUSH2 0x18DD PUSH1 0x0 RETURN INVALID PUSH1 0x80 PUSH1 0x40 MSTORE PUSH1 0x4 CALLDATASIZE LT PUSH2 0xC6 JUMPI PUSH1 0x0 CALLDATALOAD PUSH1 0xE0 SHR DUP1 PUSH4 0x7F8483A4 GT PUSH2 0x7F JUMPI DUP1 PUSH4 0xD0B06F5D GT PUSH2 0x59 JUMPI DUP1 PUSH4 0xD0B06F5D EQ PUSH2 0x260 JUMPI DUP1 PUSH4 0xEC556889 EQ PUSH2 0x28B JUMPI DUP1 PUSH4 0xFC693786 EQ PUSH2 0x2B6 JUMPI DUP1 PUSH4 0xFED0A20E EQ PUSH2 0x2DF JUMPI PUSH2 0xD0 JUMP JUMPDEST DUP1 PUSH4 0x7F8483A4 EQ PUSH2 0x1CF JUMPI DUP1 PUSH4 0x9E955149 EQ PUSH2 0x1FA JUMPI DUP1 PUSH4 0xBDEDD45E EQ PUSH2 0x223 JUMPI PUSH2 0xD0 JUMP JUMPDEST DUP1 PUSH4 0x13AB7042 EQ PUSH2 0xD5 JUMPI DUP1 PUSH4 0x1D69B196 EQ PUSH2 0x100 JUMPI DUP1 PUSH4 0x37799661 EQ PUSH2 0x129 JUMPI DUP1 PUSH4 0x674EB5AC EQ PUSH2 0x152 JUMPI DUP1 PUSH4 0x6C8AE38C EQ PUSH2 0x17B JUMPI DUP1 PUSH4 0x75450F1B EQ PUSH2 0x1A6 JUMPI PUSH2 0xD0 JUMP JUMPDEST CALLDATASIZE PUSH2 0xD0 JUMPI PUSH1 0x0 DUP1 REVERT JUMPDEST PUSH1 0x0 DUP1 REVERT JUMPDEST CALLVALUE DUP1 ISZERO PUSH2 0xE1 JUMPI PUSH1 0x0 DUP1 REVERT JUMPDEST POP PUSH2 0xEA PUSH2 0x30A JUMP JUMPDEST PUSH1 0x40 MLOAD PUSH2 0xF7 SWAP2 SWAP1 PUSH2 0xFC9 JUMP JUMPDEST PUSH1 0x40 MLOAD DUP1 SWAP2 SUB SWAP1 RETURN JUMPDEST CALLVALUE DUP1 ISZERO PUSH2 0x10C JUMPI PUSH1 0x0 DUP1 REVERT JUMPDEST POP PUSH2 0x127 PUSH1 0x4 DUP1 CALLDATASIZE SUB DUP2 ADD SWAP1 PUSH2 0x122 SWAP2 SWAP1 PUSH2 0x1107 JUMP JUMPDEST PUSH2 0x310 JUMP JUMPDEST STOP JUMPDEST CALLVALUE DUP1 ISZERO PUSH2 0x135 JUMPI PUSH1 0x0 DUP1 REVERT JUMPDEST POP PUSH2 0x150 PUSH1 0x4 DUP1 CALLDATASIZE SUB DUP2 ADD SWAP1 PUSH2 0x14B SWAP2 SWAP1 PUSH2 0x11C8 JUMP JUMPDEST PUSH2 0x656 JUMP JUMPDEST STOP JUMPDEST CALLVALUE DUP1 ISZERO PUSH2 0x15E JUMPI PUSH1 0x0 DUP1 REVERT JUMPDEST POP PUSH2 0x179 PUSH1 0x4 DUP1 CALLDATASIZE SUB DUP2 ADD SWAP1 PUSH2 0x174 SWAP2 SWAP1 PUSH2 0x1243 JUMP JUMPDEST PUSH2 0x728 JUMP JUMPDEST STOP JUMPDEST CALLVALUE DUP1 ISZERO PUSH2 0x187 JUMPI PUSH1 0x0 DUP1 REVERT JUMPDEST POP PUSH2 0x190 PUSH2 0x78A JUMP JUMPDEST PUSH1 0x40 MLOAD PUSH2 0x19D SWAP2 SWAP1 PUSH2 0xFC9 JUMP JUMPDEST PUSH1 0x40 MLOAD DUP1 SWAP2 SUB SWAP1 RETURN JUMPDEST CALLVALUE DUP1 ISZERO PUSH2 0x1B2 JUMPI PUSH1 0x0 DUP1 REVERT JUMPDEST POP PUSH2 0x1CD PUSH1 0x4 DUP1 CALLDATASIZE SUB DUP2 ADD SWAP1 PUSH2 0x1C8 SWAP2 SWAP1 PUSH2 0x1243 JUMP JUMPDEST PUSH2 0x790 JUMP JUMPDEST STOP JUMPDEST CALLVALUE DUP1 ISZERO PUSH2 0x1DB JUMPI PUSH1 0x0 DUP1 REVERT JUMPDEST POP PUSH2 0x1E4 PUSH2 0x7F2 JUMP JUMPDEST PUSH1 0x40 MLOAD PUSH2 0x1F1 SWAP2 SWAP1 PUSH2 0xFC9 JUMP JUMPDEST PUSH1 0x40 MLOAD DUP1 SWAP2 SUB SWAP1 RETURN JUMPDEST CALLVALUE DUP1 ISZERO PUSH2 0x206 JUMPI PUSH1 0x0 DUP1 REVERT JUMPDEST POP PUSH2 0x221 PUSH1 0x4 DUP1 CALLDATASIZE SUB DUP2 ADD SWAP1 PUSH2 0x21C SWAP2 SWAP1 PUSH2 0x1270 JUMP JUMPDEST PUSH2 0x7F8 JUMP JUMPDEST STOP JUMPDEST CALLVALUE DUP1 ISZERO PUSH2 0x22F JUMPI PUSH1 0x0 DUP1 REVERT JUMPDEST POP PUSH2 0x24A PUSH1 0x4 DUP1 CALLDATASIZE SUB DUP2 ADD SWAP1 PUSH2 0x245 SWAP2 SWAP1 PUSH2 0x1243 JUMP JUMPDEST PUSH2 0x893 JUMP JUMPDEST PUSH1 0x40 MLOAD PUSH2 0x257 SWAP2 SWAP1 PUSH2 0xFC9 JUMP JUMPDEST PUSH1 0x40 MLOAD DUP1 SWAP2 SUB SWAP1 RETURN JUMPDEST CALLVALUE DUP1 ISZERO PUSH2 0x26C JUMPI PUSH1 0x0 DUP1 REVERT JUMPDEST POP PUSH2 0x275 PUSH2 0xAA5 JUMP JUMPDEST PUSH1 0x40 MLOAD PUSH2 0x282 SWAP2 SWAP1 PUSH2 0xFC9 JUMP JUMPDEST PUSH1 0x40 MLOAD DUP1 SWAP2 SUB SWAP1 RETURN JUMPDEST CALLVALUE DUP1 ISZERO PUSH2 0x297 JUMPI PUSH1 0x0 DUP1 REVERT JUMPDEST POP PUSH2 0x2A0 PUSH2 0xAAB JUMP JUMPDEST PUSH1 0x40 MLOAD PUSH2 0x2AD SWAP2 SWAP1 PUSH2 0x12AC JUMP JUMPDEST PUSH1 0x40 MLOAD DUP1 SWAP2 SUB SWAP1 RETURN JUMPDEST CALLVALUE DUP1 ISZERO PUSH2 0x2C2 JUMPI PUSH1 0x0 DUP1 REVERT JUMPDEST POP PUSH2 0x2DD PUSH1 0x4 DUP1 CALLDATASIZE SUB DUP2 ADD SWAP1 PUSH2 0x2D8 SWAP2 SWAP1 PUSH2 0x12C7 JUMP JUMPDEST PUSH2 0xACF JUMP JUMPDEST STOP JUMPDEST CALLVALUE DUP1 ISZERO PUSH2 0x2EB JUMPI PUSH1 0x0 DUP1 REVERT JUMPDEST POP PUSH2 0x2F4 PUSH2 0xC34 JUMP JUMPDEST PUSH1 0x40 MLOAD PUSH2 0x301 SWAP2 SWAP1 PUSH2 0xFC9 JUMP JUMPDEST PUSH1 0x40 MLOAD DUP1 SWAP2 SUB SWAP1 RETURN JUMPDEST PUSH1 0x3 SLOAD DUP2 JUMP JUMPDEST PUSH32 0x0 PUSH20 0xFFFFFFFFFFFFFFFFFFFFFFFFFFFFFFFFFFFFFFFF AND CALLER PUSH20 0xFFFFFFFFFFFFFFFFFFFFFFFFFFFFFFFFFFFFFFFF AND EQ PUSH2 0x368 JUMPI PUSH1 0x0 DUP1 REVERT JUMPDEST PUSH1 0x0 DUP1 PUSH1 0x0 SWAP1 SLOAD SWAP1 PUSH2 0x100 EXP SWAP1 DIV PUSH20 0xFFFFFFFFFFFFFFFFFFFFFFFFFFFFFFFFFFFFFFFF AND SWAP1 POP DUP1 PUSH20 0xFFFFFFFFFFFFFFFFFFFFFFFFFFFFFFFFFFFFFFFF AND PUSH4 0x101DFD19 DUP8 PUSH1 0x40 MLOAD DUP3 PUSH4 0xFFFFFFFF AND PUSH1 0xE0 SHL DUP2 MSTORE PUSH1 0x4 ADD PUSH2 0x3C7 SWAP2 SWAP1 PUSH2 0x12AC JUMP JUMPDEST PUSH1 0x0 PUSH1 0x40 MLOAD DUP1 DUP4 SUB DUP2 PUSH1 0x0 DUP8 DUP1 EXTCODESIZE ISZERO DUP1 ISZERO PUSH2 0x3E1 JUMPI PUSH1 0x0 DUP1 REVERT JUMPDEST POP GAS CALL ISZERO DUP1 ISZERO PUSH2 0x3F5 JUMPI RETURNDATASIZE PUSH1 0x0 DUP1 RETURNDATACOPY RETURNDATASIZE PUSH1 0x0 REVERT JUMPDEST POP POP POP POP DUP6 PUSH20 0xFFFFFFFFFFFFFFFFFFFFFFFFFFFFFFFFFFFFFFFF AND DUP2 PUSH1 0x1 SLOAD PUSH1 0x2 SLOAD PUSH1 0x3 SLOAD PUSH1 0x4 SLOAD PUSH1 0x40 MLOAD PUSH1 0x24 ADD PUSH2 0x431 SWAP6 SWAP5 SWAP4 SWAP3 SWAP2 SWAP1 PUSH2 0x1348 JUMP JUMPDEST PUSH1 0x40 MLOAD PUSH1 0x20 DUP2 DUP4 SUB SUB DUP2 MSTORE SWAP1 PUSH1 0x40 MSTORE PUSH32 0x941AC60700000000000000000000000000000000000000000000000000000000 PUSH28 0xFFFFFFFFFFFFFFFFFFFFFFFFFFFFFFFFFFFFFFFFFFFFFFFFFFFFFFFF NOT AND PUSH1 0x20 DUP3 ADD DUP1 MLOAD PUSH28 0xFFFFFFFFFFFFFFFFFFFFFFFFFFFFFFFFFFFFFFFFFFFFFFFFFFFFFFFF DUP4 DUP2 DUP4 AND OR DUP4 MSTORE POP POP POP POP PUSH1 0x40 MLOAD PUSH2 0x4BB SWAP2 SWAP1 PUSH2 0x1415 JUMP JUMPDEST PUSH1 0x0 PUSH1 0x40 MLOAD DUP1 DUP4 SUB DUP2 DUP6 GAS DELEGATECALL SWAP2 POP POP RETURNDATASIZE DUP1 PUSH1 0x0 DUP2 EQ PUSH2 0x4F6 JUMPI PUSH1 0x40 MLOAD SWAP2 POP PUSH1 0x1F NOT PUSH1 0x3F RETURNDATASIZE ADD AND DUP3 ADD PUSH1 0x40 MSTORE RETURNDATASIZE DUP3 MSTORE RETURNDATASIZE PUSH1 0x0 PUSH1 0x20 DUP5 ADD RETURNDATACOPY PUSH2 0x4FB JUMP JUMPDEST PUSH1 0x60 SWAP2 POP JUMPDEST POP POP POP PUSH1 0x0 SWAP1 POP PUSH1 0x0 PUSH1 0x1 DUP2 SWAP1 SSTORE POP PUSH1 0x0 PUSH1 0x2 DUP2 SWAP1 SSTORE POP PUSH1 0x0 PUSH1 0x3 DUP2 SWAP1 SSTORE POP PUSH1 0x0 PUSH1 0x4 DUP2 SWAP1 SSTORE POP ADDRESS PUSH20 0xFFFFFFFFFFFFFFFFFFFFFFFFFFFFFFFFFFFFFFFF AND DUP6 DUP6 DUP6 DUP6 PUSH1 0x40 MLOAD PUSH1 0x24 ADD PUSH2 0x550 SWAP5 SWAP4 SWAP3 SWAP2 SWAP1 PUSH2 0x1570 JUMP JUMPDEST PUSH1 0x40 MLOAD PUSH1 0x20 DUP2 DUP4 SUB SUB DUP2 MSTORE SWAP1 PUSH1 0x40 MSTORE PUSH32 0x4ABCC5D500000000000000000000000000000000000000000000000000000000 PUSH28 0xFFFFFFFFFFFFFFFFFFFFFFFFFFFFFFFFFFFFFFFFFFFFFFFFFFFFFFFF NOT AND PUSH1 0x20 DUP3 ADD DUP1 MLOAD PUSH28 0xFFFFFFFFFFFFFFFFFFFFFFFFFFFFFFFFFFFFFFFFFFFFFFFFFFFFFFFF DUP4 DUP2 DUP4 AND OR DUP4 MSTORE POP POP POP POP PUSH1 0x40 MLOAD PUSH2 0x5DA SWAP2 SWAP1 PUSH2 0x1415 JUMP JUMPDEST PUSH1 0x0 PUSH1 0x40 MLOAD DUP1 DUP4 SUB DUP2 DUP6 GAS DELEGATECALL SWAP2 POP POP RETURNDATASIZE DUP1 PUSH1 0x0 DUP2 EQ PUSH2 0x615 JUMPI PUSH1 0x40 MLOAD SWAP2 POP PUSH1 0x1F NOT PUSH1 0x3F RETURNDATASIZE ADD AND DUP3 ADD PUSH1 0x40 MSTORE RETURNDATASIZE DUP3 MSTORE RETURNDATASIZE PUSH1 0x0 PUSH1 0x20 DUP5 ADD RETURNDATACOPY PUSH2 0x61A JUMP JUMPDEST PUSH1 0x60 SWAP2 POP JUMPDEST POP POP POP PUSH32 0x0 PUSH20 0xFFFFFFFFFFFFFFFFFFFFFFFFFFFFFFFFFFFFFFFF AND SELFDESTRUCT JUMPDEST PUSH32 0x0 PUSH20 0xFFFFFFFFFFFFFFFFFFFFFFFFFFFFFFFFFFFFFFFF AND CALLER PUSH20 0xFFFFFFFFFFFFFFFFFFFFFFFFFFFFFFFFFFFFFFFF AND EQ PUSH2 0x6AE JUMPI PUSH1 0x0 DUP1 REVERT JUMPDEST PUSH1 0x0 PUSH1 0x5 SLOAD EQ PUSH2 0x6BD JUMPI PUSH1 0x0 DUP1 REVERT JUMPDEST DUP5 PUSH1 0x0 DUP1 PUSH2 0x100 EXP DUP2 SLOAD DUP2 PUSH20 0xFFFFFFFFFFFFFFFFFFFFFFFFFFFFFFFFFFFFFFFF MUL NOT AND SWAP1 DUP4 PUSH20 0xFFFFFFFFFFFFFFFFFFFFFFFFFFFFFFFFFFFFFFFF AND MUL OR SWAP1 SSTORE POP DUP4 PUSH1 0x1 DUP2 SWAP1 SSTORE POP DUP3 PUSH1 0x2 DUP2 SWAP1 SSTORE POP DUP2 PUSH1 0x3 DUP2 SWAP1 SSTORE POP DUP1 PUSH1 0x4 DUP2 SWAP1 SSTORE POP PUSH1 0x1 PUSH1 0x5 DUP2 SWAP1 SSTORE POP POP POP POP POP POP JUMP JUMPDEST PUSH32 0x0 PUSH20 0xFFFFFFFFFFFFFFFFFFFFFFFFFFFFFFFFFFFFFFFF AND CALLER PUSH20 0xFFFFFFFFFFFFFFFFFFFFFFFFFFFFFFFFFFFFFFFF AND EQ PUSH2 0x780 JUMPI PUSH1 0x0 DUP1 REVERT JUMPDEST DUP1 PUSH1 0x4 DUP2 SWAP1 SSTORE POP POP JUMP JUMPDEST PUSH1 0x4 SLOAD DUP2 JUMP JUMPDEST PUSH32 0x0 PUSH20 0xFFFFFFFFFFFFFFFFFFFFFFFFFFFFFFFFFFFFFFFF AND CALLER PUSH20 0xFFFFFFFFFFFFFFFFFFFFFFFFFFFFFFFFFFFFFFFF AND EQ PUSH2 0x7E8 JUMPI PUSH1 0x0 DUP1 REVERT JUMPDEST DUP1 PUSH1 0x3 DUP2 SWAP1 SSTORE POP POP JUMP JUMPDEST PUSH1 0x2 SLOAD DUP2 JUMP JUMPDEST PUSH1 0x0 DUP1 SLOAD SWAP1 PUSH2 0x100 EXP SWAP1 DIV PUSH20 0xFFFFFFFFFFFFFFFFFFFFFFFFFFFFFFFFFFFFFFFF AND PUSH20 0xFFFFFFFFFFFFFFFFFFFFFFFFFFFFFFFFFFFFFFFF AND CALLER PUSH20 0xFFFFFFFFFFFFFFFFFFFFFFFFFFFFFFFFFFFFFFFF AND EQ PUSH2 0x850 JUMPI PUSH1 0x0 DUP1 REVERT JUMPDEST DUP1 PUSH1 0x0 DUP1 PUSH2 0x100 EXP DUP2 SLOAD DUP2 PUSH20 0xFFFFFFFFFFFFFFFFFFFFFFFFFFFFFFFFFFFFFFFF MUL NOT AND SWAP1 DUP4 PUSH20 0xFFFFFFFFFFFFFFFFFFFFFFFFFFFFFFFFFFFFFFFF AND MUL OR SWAP1 SSTORE POP POP JUMP JUMPDEST PUSH1 0x0 DUP1 PUSH1 0x0 DUP1 SLOAD SWAP1 PUSH2 0x100 EXP SWAP1 DIV PUSH20 0xFFFFFFFFFFFFFFFFFFFFFFFFFFFFFFFFFFFFFFFF AND SWAP1 POP CALLER PUSH20 0xFFFFFFFFFFFFFFFFFFFFFFFFFFFFFFFFFFFFFFFF AND DUP2 PUSH20 0xFFFFFFFFFFFFFFFFFFFFFFFFFFFFFFFFFFFFFFFF AND PUSH4 0x3F0A0797 PUSH1 0x40 MLOAD DUP2 PUSH4 0xFFFFFFFF AND PUSH1 0xE0 SHL DUP2 MSTORE PUSH1 0x4 ADD PUSH1 0x20 PUSH1 0x40 MLOAD DUP1 DUP4 SUB DUP2 DUP7 GAS STATICCALL ISZERO DUP1 ISZERO PUSH2 0x91B JUMPI RETURNDATASIZE PUSH1 0x0 DUP1 RETURNDATACOPY RETURNDATASIZE PUSH1 0x0 REVERT JUMPDEST POP POP POP POP PUSH1 0x40 MLOAD RETURNDATASIZE PUSH1 0x1F NOT PUSH1 0x1F DUP3 ADD AND DUP3 ADD DUP1 PUSH1 0x40 MSTORE POP DUP2 ADD SWAP1 PUSH2 0x93F SWAP2 SWAP1 PUSH2 0x15C0 JUMP JUMPDEST PUSH20 0xFFFFFFFFFFFFFFFFFFFFFFFFFFFFFFFFFFFFFFFF AND EQ PUSH2 0x95F JUMPI PUSH1 0x0 DUP1 REVERT JUMPDEST PUSH1 0x0 PUSH2 0x969 PUSH2 0xC3A JUMP JUMPDEST SWAP1 POP PUSH1 0x0 DUP5 SUB PUSH2 0x98F JUMPI DUP1 PUSH1 0x2 SLOAD PUSH2 0x981 SWAP2 SWAP1 PUSH2 0x161C JUMP JUMPDEST SWAP3 POP DUP3 PUSH1 0x2 DUP2 SWAP1 SSTORE POP PUSH2 0xA9E JUMP JUMPDEST PUSH1 0x1 DUP5 SUB PUSH2 0xA9D JUMPI PUSH1 0x2 SLOAD DUP2 PUSH2 0x9A5 SWAP2 SWAP1 PUSH2 0x161C JUMP JUMPDEST SWAP3 POP DUP2 PUSH20 0xFFFFFFFFFFFFFFFFFFFFFFFFFFFFFFFFFFFFFFFF AND PUSH4 0xDA8909E5 PUSH1 0x40 MLOAD DUP2 PUSH4 0xFFFFFFFF AND PUSH1 0xE0 SHL DUP2 MSTORE PUSH1 0x4 ADD PUSH1 0x20 PUSH1 0x40 MLOAD DUP1 DUP4 SUB DUP2 DUP7 GAS STATICCALL ISZERO DUP1 ISZERO PUSH2 0x9F2 JUMPI RETURNDATASIZE PUSH1 0x0 DUP1 RETURNDATACOPY RETURNDATASIZE PUSH1 0x0 REVERT JUMPDEST POP POP POP POP PUSH1 0x40 MLOAD RETURNDATASIZE PUSH1 0x1F NOT PUSH1 0x1F DUP3 ADD AND DUP3 ADD DUP1 PUSH1 0x40 MSTORE POP DUP2 ADD SWAP1 PUSH2 0xA16 SWAP2 SWAP1 PUSH2 0x15C0 JUMP JUMPDEST PUSH20 0xFFFFFFFFFFFFFFFFFFFFFFFFFFFFFFFFFFFFFFFF AND PUSH4 0x990DC9DB ADDRESS DUP6 PUSH1 0x40 MLOAD DUP4 PUSH4 0xFFFFFFFF AND PUSH1 0xE0 SHL DUP2 MSTORE PUSH1 0x4 ADD PUSH2 0xA50 SWAP3 SWAP2 SWAP1 PUSH2 0x1672 JUMP JUMPDEST PUSH1 0x20 PUSH1 0x40 MLOAD DUP1 DUP4 SUB DUP2 PUSH1 0x0 DUP8 GAS CALL ISZERO DUP1 ISZERO PUSH2 0xA6F JUMPI RETURNDATASIZE PUSH1 0x0 DUP1 RETURNDATACOPY RETURNDATASIZE PUSH1 0x0 REVERT JUMPDEST POP POP POP POP PUSH1 0x40 MLOAD RETURNDATASIZE PUSH1 0x1F NOT PUSH1 0x1F DUP3 ADD AND DUP3 ADD DUP1 PUSH1 0x40 MSTORE POP DUP2 ADD SWAP1 PUSH2 0xA93 SWAP2 SWAP1 PUSH2 0x16D3 JUMP JUMPDEST POP PUSH1 0x0 PUSH1 0x2 DUP2 SWAP1 SSTORE POP JUMPDEST JUMPDEST POP POP SWAP2 SWAP1 POP JUMP JUMPDEST PUSH1 0x1 SLOAD DUP2 JUMP JUMPDEST PUSH1 0x0 DUP1 SLOAD SWAP1 PUSH2 0x100 EXP SWAP1 DIV PUSH20 0xFFFFFFFFFFFFFFFFFFFFFFFFFFFFFFFFFFFFFFFF AND DUP2 JUMP JUMPDEST PUSH32 0x0 PUSH20 0xFFFFFFFFFFFFFFFFFFFFFFFFFFFFFFFFFFFFFFFF AND CALLER PUSH20 0xFFFFFFFFFFFFFFFFFFFFFFFFFFFFFFFFFFFFFFFF AND EQ PUSH2 0xB27 JUMPI PUSH1 0x0 DUP1 REVERT JUMPDEST PUSH1 0x0 PUSH32 0x0 SWAP1 POP PUSH1 0x0 JUMPDEST DUP4 DUP4 SWAP1 POP DUP2 LT ISZERO PUSH2 0xC2C JUMPI DUP6 DUP6 DUP3 DUP2 DUP2 LT PUSH2 0xB6D JUMPI PUSH2 0xB6C PUSH2 0x1700 JUMP JUMPDEST JUMPDEST SWAP1 POP PUSH1 0x20 MUL ADD PUSH1 0x20 DUP2 ADD SWAP1 PUSH2 0xB82 SWAP2 SWAP1 PUSH2 0x1270 JUMP JUMPDEST PUSH20 0xFFFFFFFFFFFFFFFFFFFFFFFFFFFFFFFFFFFFFFFF AND PUSH4 0xA9059CBB DUP4 DUP7 DUP7 DUP6 DUP2 DUP2 LT PUSH2 0xBB1 JUMPI PUSH2 0xBB0 PUSH2 0x1700 JUMP JUMPDEST JUMPDEST SWAP1 POP PUSH1 0x20 MUL ADD CALLDATALOAD PUSH1 0x40 MLOAD DUP4 PUSH4 0xFFFFFFFF AND PUSH1 0xE0 SHL DUP2 MSTORE PUSH1 0x4 ADD PUSH2 0xBD5 SWAP3 SWAP2 SWAP1 PUSH2 0x1672 JUMP JUMPDEST PUSH1 0x20 PUSH1 0x40 MLOAD DUP1 DUP4 SUB DUP2 PUSH1 0x0 DUP8 GAS CALL ISZERO DUP1 ISZERO PUSH2 0xBF4 JUMPI RETURNDATASIZE PUSH1 0x0 DUP1 RETURNDATACOPY RETURNDATASIZE PUSH1 0x0 REVERT JUMPDEST POP POP POP POP PUSH1 0x40 MLOAD RETURNDATASIZE PUSH1 0x1F NOT PUSH1 0x1F DUP3 ADD AND DUP3 ADD DUP1 PUSH1 0x40 MSTORE POP DUP2 ADD SWAP1 PUSH2 0xC18 SWAP2 SWAP1 PUSH2 0x16D3 JUMP JUMPDEST POP DUP1 DUP1 PUSH2 0xC24 SWAP1 PUSH2 0x172F JUMP JUMPDEST SWAP2 POP POP PUSH2 0xB4F JUMP JUMPDEST POP POP POP POP POP POP JUMP JUMPDEST PUSH1 0x5 SLOAD DUP2 JUMP JUMPDEST PUSH1 0x0 DUP1 PUSH1 0x0 PUSH1 0x1 SLOAD SWAP1 POP TIMESTAMP DUP2 SUB PUSH2 0xC54 JUMPI PUSH1 0x0 SWAP3 POP PUSH2 0xFAB JUMP JUMPDEST PUSH1 0x0 DUP2 TIMESTAMP PUSH2 0xC62 SWAP2 SWAP1 PUSH2 0x1777 JUMP JUMPDEST SWAP1 POP PUSH1 0x0 PUSH1 0x4 SLOAD SWAP1 POP PUSH1 0x0 DUP1 SLOAD SWAP1 PUSH2 0x100 EXP SWAP1 DIV PUSH20 0xFFFFFFFFFFFFFFFFFFFFFFFFFFFFFFFFFFFFFFFF AND PUSH20 0xFFFFFFFFFFFFFFFFFFFFFFFFFFFFFFFFFFFFFFFF AND PUSH4 0x11CE0267 PUSH1 0x40 MLOAD DUP2 PUSH4 0xFFFFFFFF AND PUSH1 0xE0 SHL DUP2 MSTORE PUSH1 0x4 ADD PUSH1 0x20 PUSH1 0x40 MLOAD DUP1 DUP4 SUB DUP2 DUP7 GAS STATICCALL ISZERO DUP1 ISZERO PUSH2 0xCD6 JUMPI RETURNDATASIZE PUSH1 0x0 DUP1 RETURNDATACOPY RETURNDATASIZE PUSH1 0x0 REVERT JUMPDEST POP POP POP POP PUSH1 0x40 MLOAD RETURNDATASIZE PUSH1 0x1F NOT PUSH1 0x1F DUP3 ADD AND DUP3 ADD DUP1 PUSH1 0x40 MSTORE POP DUP2 ADD SWAP1 PUSH2 0xCFA SWAP2 SWAP1 PUSH2 0x15C0 JUMP JUMPDEST SWAP4 POP PUSH1 0x0 DUP5 PUSH20 0xFFFFFFFFFFFFFFFFFFFFFFFFFFFFFFFFFFFFFFFF AND PUSH4 0x52FD856B PUSH1 0x40 MLOAD DUP2 PUSH4 0xFFFFFFFF AND PUSH1 0xE0 SHL DUP2 MSTORE PUSH1 0x4 ADD PUSH1 0x20 PUSH1 0x40 MLOAD DUP1 DUP4 SUB DUP2 DUP7 GAS STATICCALL ISZERO DUP1 ISZERO PUSH2 0xD49 JUMPI RETURNDATASIZE PUSH1 0x0 DUP1 RETURNDATACOPY RETURNDATASIZE PUSH1 0x0 REVERT JUMPDEST POP POP POP POP PUSH1 0x40 MLOAD RETURNDATASIZE PUSH1 0x1F NOT PUSH1 0x1F DUP3 ADD AND DUP3 ADD DUP1 PUSH1 0x40 MSTORE POP DUP2 ADD SWAP1 PUSH2 0xD6D SWAP2 SWAP1 PUSH2 0x17C0 JUMP JUMPDEST SWAP1 POP PUSH1 0x18 PUSH8 0xDE0B6B3A7640000 DUP4 PUSH8 0xDE0B6B3A7640000 DUP6 PUSH8 0xDE0B6B3A7640000 DUP8 PUSH8 0xDE0B6B3A7640000 DUP10 PUSH1 0x3 DUP13 PUSH2 0xDA6 SWAP2 SWAP1 PUSH2 0x1777 JUMP JUMPDEST PUSH1 0x2 DUP14 PUSH2 0xDB3 SWAP2 SWAP1 PUSH2 0x1777 JUMP JUMPDEST PUSH1 0x1 DUP15 PUSH2 0xDC0 SWAP2 SWAP1 PUSH2 0x1777 JUMP JUMPDEST DUP15 DUP14 PUSH2 0xDCC SWAP2 SWAP1 PUSH2 0x17ED JUMP JUMPDEST PUSH2 0xDD6 SWAP2 SWAP1 PUSH2 0x17ED JUMP JUMPDEST PUSH2 0xDE0 SWAP2 SWAP1 PUSH2 0x17ED JUMP JUMPDEST PUSH2 0xDEA SWAP2 SWAP1 PUSH2 0x17ED JUMP JUMPDEST PUSH2 0xDF4 SWAP2 SWAP1 PUSH2 0x17ED JUMP JUMPDEST PUSH2 0xDFE SWAP2 SWAP1 PUSH2 0x1876 JUMP JUMPDEST PUSH2 0xE08 SWAP2 SWAP1 PUSH2 0x17ED JUMP JUMPDEST PUSH2 0xE12 SWAP2 SWAP1 PUSH2 0x1876 JUMP JUMPDEST PUSH2 0xE1C SWAP2 SWAP1 PUSH2 0x17ED JUMP JUMPDEST PUSH2 0xE26 SWAP2 SWAP1 PUSH2 0x1876 JUMP JUMPDEST PUSH2 0xE30 SWAP2 SWAP1 PUSH2 0x17ED JUMP JUMPDEST PUSH2 0xE3A SWAP2 SWAP1 PUSH2 0x1876 JUMP JUMPDEST PUSH2 0xE44 SWAP2 SWAP1 PUSH2 0x1876 JUMP JUMPDEST PUSH15 0xC097CE7BC90715B34B9F1000000000 PUSH1 0x6 DUP5 PUSH8 0xDE0B6B3A7640000 DUP7 DUP8 PUSH1 0x2 DUP11 PUSH2 0xE6F SWAP2 SWAP1 PUSH2 0x1777 JUMP JUMPDEST PUSH1 0x1 DUP12 PUSH2 0xE7C SWAP2 SWAP1 PUSH2 0x1777 JUMP JUMPDEST DUP12 PUSH2 0xE87 SWAP2 SWAP1 PUSH2 0x17ED JUMP JUMPDEST PUSH2 0xE91 SWAP2 SWAP1 PUSH2 0x17ED JUMP JUMPDEST PUSH2 0xE9B SWAP2 SWAP1 PUSH2 0x17ED JUMP JUMPDEST PUSH2 0xEA5 SWAP2 SWAP1 PUSH2 0x17ED JUMP JUMPDEST PUSH2 0xEAF SWAP2 SWAP1 PUSH2 0x1876 JUMP JUMPDEST PUSH2 0xEB9 SWAP2 SWAP1 PUSH2 0x17ED JUMP JUMPDEST PUSH2 0xEC3 SWAP2 SWAP1 PUSH2 0x1876 JUMP JUMPDEST DUP4 PUSH2 0xECE SWAP2 SWAP1 PUSH2 0x17ED JUMP JUMPDEST PUSH2 0xED8 SWAP2 SWAP1 PUSH2 0x1876 JUMP JUMPDEST PUSH15 0xC097CE7BC90715B34B9F1000000000 PUSH1 0x2 DUP6 DUP7 PUSH1 0x1 DUP10 PUSH2 0xEF9 SWAP2 SWAP1 PUSH2 0x1777 JUMP JUMPDEST DUP10 PUSH2 0xF04 SWAP2 SWAP1 PUSH2 0x17ED JUMP JUMPDEST PUSH2 0xF0E SWAP2 SWAP1 PUSH2 0x17ED JUMP JUMPDEST PUSH2 0xF18 SWAP2 SWAP1 PUSH2 0x17ED JUMP JUMPDEST PUSH2 0xF22 SWAP2 SWAP1 PUSH2 0x1876 JUMP JUMPDEST DUP5 PUSH2 0xF2D SWAP2 SWAP1 PUSH2 0x17ED JUMP JUMPDEST PUSH2 0xF37 SWAP2 SWAP1 PUSH2 0x1876 JUMP JUMPDEST PUSH8 0xDE0B6B3A7640000 DUP6 DUP8 PUSH2 0xF4C SWAP2 SWAP1 PUSH2 0x17ED JUMP JUMPDEST PUSH8 0xDE0B6B3A7640000 PUSH2 0xF5F SWAP2 SWAP1 PUSH2 0x1777 JUMP JUMPDEST PUSH8 0xDE0B6B3A7640000 PUSH2 0xF72 SWAP2 SWAP1 PUSH2 0x1777 JUMP JUMPDEST DUP6 PUSH2 0xF7D SWAP2 SWAP1 PUSH2 0x17ED JUMP JUMPDEST PUSH2 0xF87 SWAP2 SWAP1 PUSH2 0x1876 JUMP JUMPDEST PUSH2 0xF91 SWAP2 SWAP1 PUSH2 0x1777 JUMP JUMPDEST PUSH2 0xF9B SWAP2 SWAP1 PUSH2 0x161C JUMP JUMPDEST PUSH2 0xFA5 SWAP2 SWAP1 PUSH2 0x1777 JUMP JUMPDEST SWAP6 POP POP POP POP JUMPDEST POP POP SWAP1 JUMP JUMPDEST PUSH1 0x0 DUP2 SWAP1 POP SWAP2 SWAP1 POP JUMP JUMPDEST PUSH2 0xFC3 DUP2 PUSH2 0xFB0 JUMP JUMPDEST DUP3 MSTORE POP POP JUMP JUMPDEST PUSH1 0x0 PUSH1 0x20 DUP3 ADD SWAP1 POP PUSH2 0xFDE PUSH1 0x0 DUP4 ADD DUP5 PUSH2 0xFBA JUMP JUMPDEST SWAP3 SWAP2 POP POP JUMP JUMPDEST PUSH1 0x0 DUP1 REVERT JUMPDEST PUSH1 0x0 DUP1 REVERT JUMPDEST PUSH1 0x0 PUSH20 0xFFFFFFFFFFFFFFFFFFFFFFFFFFFFFFFFFFFFFFFF DUP3 AND SWAP1 POP SWAP2 SWAP1 POP JUMP JUMPDEST PUSH1 0x0 PUSH2 0x1019 DUP3 PUSH2 0xFEE JUMP JUMPDEST SWAP1 POP SWAP2 SWAP1 POP JUMP JUMPDEST PUSH2 0x1029 DUP2 PUSH2 0x100E JUMP JUMPDEST DUP2 EQ PUSH2 0x1034 JUMPI PUSH1 0x0 DUP1 REVERT JUMPDEST POP JUMP JUMPDEST PUSH1 0x0 DUP2 CALLDATALOAD SWAP1 POP PUSH2 0x1046 DUP2 PUSH2 0x1020 JUMP JUMPDEST SWAP3 SWAP2 POP POP JUMP JUMPDEST PUSH1 0x0 DUP1 REVERT JUMPDEST PUSH1 0x0 DUP1 REVERT JUMPDEST PUSH1 0x0 DUP1 REVERT JUMPDEST PUSH1 0x0 DUP1 DUP4 PUSH1 0x1F DUP5 ADD SLT PUSH2 0x1071 JUMPI PUSH2 0x1070 PUSH2 0x104C JUMP JUMPDEST JUMPDEST DUP3 CALLDATALOAD SWAP1 POP PUSH8 0xFFFFFFFFFFFFFFFF DUP2 GT ISZERO PUSH2 0x108E JUMPI PUSH2 0x108D PUSH2 0x1051 JUMP JUMPDEST JUMPDEST PUSH1 0x20 DUP4 ADD SWAP2 POP DUP4 PUSH1 0x20 DUP3 MUL DUP4 ADD GT ISZERO PUSH2 0x10AA JUMPI PUSH2 0x10A9 PUSH2 0x1056 JUMP JUMPDEST JUMPDEST SWAP3 POP SWAP3 SWAP1 POP JUMP JUMPDEST PUSH1 0x0 DUP1 DUP4 PUSH1 0x1F DUP5 ADD SLT PUSH2 0x10C7 JUMPI PUSH2 0x10C6 PUSH2 0x104C JUMP JUMPDEST JUMPDEST DUP3 CALLDATALOAD SWAP1 POP PUSH8 0xFFFFFFFFFFFFFFFF DUP2 GT ISZERO PUSH2 0x10E4 JUMPI PUSH2 0x10E3 PUSH2 0x1051 JUMP JUMPDEST JUMPDEST PUSH1 0x20 DUP4 ADD SWAP2 POP DUP4 PUSH1 0x20 DUP3 MUL DUP4 ADD GT ISZERO PUSH2 0x1100 JUMPI PUSH2 0x10FF PUSH2 0x1056 JUMP JUMPDEST JUMPDEST SWAP3 POP SWAP3 SWAP1 POP JUMP JUMPDEST PUSH1 0x0 DUP1 PUSH1 0x0 DUP1 PUSH1 0x0 PUSH1 0x60 DUP7 DUP9 SUB SLT ISZERO PUSH2 0x1123 JUMPI PUSH2 0x1122 PUSH2 0xFE4 JUMP JUMPDEST JUMPDEST PUSH1 0x0 PUSH2 0x1131 DUP9 DUP3 DUP10 ADD PUSH2 0x1037 JUMP JUMPDEST SWAP6 POP POP PUSH1 0x20 DUP7 ADD CALLDATALOAD PUSH8 0xFFFFFFFFFFFFFFFF DUP2 GT ISZERO PUSH2 0x1152 JUMPI PUSH2 0x1151 PUSH2 0xFE9 JUMP JUMPDEST JUMPDEST PUSH2 0x115E DUP9 DUP3 DUP10 ADD PUSH2 0x105B JUMP JUMPDEST SWAP5 POP SWAP5 POP POP PUSH1 0x40 DUP7 ADD CALLDATALOAD PUSH8 0xFFFFFFFFFFFFFFFF DUP2 GT ISZERO PUSH2 0x1181 JUMPI PUSH2 0x1180 PUSH2 0xFE9 JUMP JUMPDEST JUMPDEST PUSH2 0x118D DUP9 DUP3 DUP10 ADD PUSH2 0x10B1 JUMP JUMPDEST SWAP3 POP SWAP3 POP POP SWAP3 SWAP6 POP SWAP3 SWAP6 SWAP1 SWAP4 POP JUMP JUMPDEST PUSH2 0x11A5 DUP2 PUSH2 0xFB0 JUMP JUMPDEST DUP2 EQ PUSH2 0x11B0 JUMPI PUSH1 0x0 DUP1 REVERT JUMPDEST POP JUMP JUMPDEST PUSH1 0x0 DUP2 CALLDATALOAD SWAP1 POP PUSH2 0x11C2 DUP2 PUSH2 0x119C JUMP JUMPDEST SWAP3 SWAP2 POP POP JUMP JUMPDEST PUSH1 0x0 DUP1 PUSH1 0x0 DUP1 PUSH1 0x0 PUSH1 0xA0 DUP7 DUP9 SUB SLT ISZERO PUSH2 0x11E4 JUMPI PUSH2 0x11E3 PUSH2 0xFE4 JUMP JUMPDEST JUMPDEST PUSH1 0x0 PUSH2 0x11F2 DUP9 DUP3 DUP10 ADD PUSH2 0x1037 JUMP JUMPDEST SWAP6 POP POP PUSH1 0x20 PUSH2 0x1203 DUP9 DUP3 DUP10 ADD PUSH2 0x11B3 JUMP JUMPDEST SWAP5 POP POP PUSH1 0x40 PUSH2 0x1214 DUP9 DUP3 DUP10 ADD PUSH2 0x11B3 JUMP JUMPDEST SWAP4 POP POP PUSH1 0x60 PUSH2 0x1225 DUP9 DUP3 DUP10 ADD PUSH2 0x11B3 JUMP JUMPDEST SWAP3 POP POP PUSH1 0x80 PUSH2 0x1236 DUP9 DUP3 DUP10 ADD PUSH2 0x11B3 JUMP JUMPDEST SWAP2 POP POP SWAP3 SWAP6 POP SWAP3 SWAP6 SWAP1 SWAP4 POP JUMP JUMPDEST PUSH1 0x0 PUSH1 0x20 DUP3 DUP5 SUB SLT ISZERO PUSH2 0x1259 JUMPI PUSH2 0x1258 PUSH2 0xFE4 JUMP JUMPDEST JUMPDEST PUSH1 0x0 PUSH2 0x1267 DUP5 DUP3 DUP6 ADD PUSH2 0x11B3 JUMP JUMPDEST SWAP2 POP POP SWAP3 SWAP2 POP POP JUMP JUMPDEST PUSH1 0x0 PUSH1 0x20 DUP3 DUP5 SUB SLT ISZERO PUSH2 0x1286 JUMPI PUSH2 0x1285 PUSH2 0xFE4 JUMP JUMPDEST JUMPDEST PUSH1 0x0 PUSH2 0x1294 DUP5 DUP3 DUP6 ADD PUSH2 0x1037 JUMP JUMPDEST SWAP2 POP POP SWAP3 SWAP2 POP POP JUMP JUMPDEST PUSH2 0x12A6 DUP2 PUSH2 0x100E JUMP JUMPDEST DUP3 MSTORE POP POP JUMP JUMPDEST PUSH1 0x0 PUSH1 0x20 DUP3 ADD SWAP1 POP PUSH2 0x12C1 PUSH1 0x0 DUP4 ADD DUP5 PUSH2 0x129D JUMP JUMPDEST SWAP3 SWAP2 POP POP JUMP JUMPDEST PUSH1 0x0 DUP1 PUSH1 0x0 DUP1 PUSH1 0x40 DUP6 DUP8 SUB SLT ISZERO PUSH2 0x12E1 JUMPI PUSH2 0x12E0 PUSH2 0xFE4 JUMP JUMPDEST JUMPDEST PUSH1 0x0 DUP6 ADD CALLDATALOAD PUSH8 0xFFFFFFFFFFFFFFFF DUP2 GT ISZERO PUSH2 0x12FF JUMPI PUSH2 0x12FE PUSH2 0xFE9 JUMP JUMPDEST JUMPDEST PUSH2 0x130B DUP8 DUP3 DUP9 ADD PUSH2 0x105B JUMP JUMPDEST SWAP5 POP SWAP5 POP POP PUSH1 0x20 DUP6 ADD CALLDATALOAD PUSH8 0xFFFFFFFFFFFFFFFF DUP2 GT ISZERO PUSH2 0x132E JUMPI PUSH2 0x132D PUSH2 0xFE9 JUMP JUMPDEST JUMPDEST PUSH2 0x133A DUP8 DUP3 DUP9 ADD PUSH2 0x10B1 JUMP JUMPDEST SWAP3 POP SWAP3 POP POP SWAP3 SWAP6 SWAP2 SWAP5 POP SWAP3 POP JUMP JUMPDEST PUSH1 0x0 PUSH1 0xA0 DUP3 ADD SWAP1 POP PUSH2 0x135D PUSH1 0x0 DUP4 ADD DUP9 PUSH2 0x129D JUMP JUMPDEST PUSH2 0x136A PUSH1 0x20 DUP4 ADD DUP8 PUSH2 0xFBA JUMP JUMPDEST PUSH2 0x1377 PUSH1 0x40 DUP4 ADD DUP7 PUSH2 0xFBA JUMP JUMPDEST PUSH2 0x1384 PUSH1 0x60 DUP4 ADD DUP6 PUSH2 0xFBA JUMP JUMPDEST PUSH2 0x1391 PUSH1 0x80 DUP4 ADD DUP5 PUSH2 0xFBA JUMP JUMPDEST SWAP7 SWAP6 POP POP POP POP POP POP JUMP JUMPDEST PUSH1 0x0 DUP2 MLOAD SWAP1 POP SWAP2 SWAP1 POP JUMP JUMPDEST PUSH1 0x0 DUP2 SWAP1 POP SWAP3 SWAP2 POP POP JUMP JUMPDEST PUSH1 0x0 JUMPDEST DUP4 DUP2 LT ISZERO PUSH2 0x13CF JUMPI DUP1 DUP3 ADD MLOAD DUP2 DUP5 ADD MSTORE PUSH1 0x20 DUP2 ADD SWAP1 POP PUSH2 0x13B4 JUMP JUMPDEST DUP4 DUP2 GT ISZERO PUSH2 0x13DE JUMPI PUSH1 0x0 DUP5 DUP5 ADD MSTORE JUMPDEST POP POP POP POP JUMP JUMPDEST PUSH1 0x0 PUSH2 0x13EF DUP3 PUSH2 0x139B JUMP JUMPDEST PUSH2 0x13F9 DUP2 DUP6 PUSH2 0x13A6 JUMP JUMPDEST SWAP4 POP PUSH2 0x1409 DUP2 DUP6 PUSH1 0x20 DUP7 ADD PUSH2 0x13B1 JUMP JUMPDEST DUP1 DUP5 ADD SWAP2 POP POP SWAP3 SWAP2 POP POP JUMP JUMPDEST PUSH1 0x0 PUSH2 0x1421 DUP3 DUP5 PUSH2 0x13E4 JUMP JUMPDEST SWAP2 POP DUP2 SWAP1 POP SWAP3 SWAP2 POP POP JUMP JUMPDEST PUSH1 0x0 DUP3 DUP3 MSTORE PUSH1 0x20 DUP3 ADD SWAP1 POP SWAP3 SWAP2 POP POP JUMP JUMPDEST PUSH1 0x0 DUP2 SWAP1 POP SWAP2 SWAP1 POP JUMP JUMPDEST PUSH2 0x1450 DUP2 PUSH2 0x100E JUMP JUMPDEST DUP3 MSTORE POP POP JUMP JUMPDEST PUSH1 0x0 PUSH2 0x1462 DUP4 DUP4 PUSH2 0x1447 JUMP JUMPDEST PUSH1 0x20 DUP4 ADD SWAP1 POP SWAP3 SWAP2 POP POP JUMP JUMPDEST PUSH1 0x0 PUSH2 0x147D PUSH1 0x20 DUP5 ADD DUP5 PUSH2 0x1037 JUMP JUMPDEST SWAP1 POP SWAP3 SWAP2 POP POP JUMP JUMPDEST PUSH1 0x0 PUSH1 0x20 DUP3 ADD SWAP1 POP SWAP2 SWAP1 POP JUMP JUMPDEST PUSH1 0x0 PUSH2 0x149E DUP4 DUP6 PUSH2 0x142C JUMP JUMPDEST SWAP4 POP PUSH2 0x14A9 DUP3 PUSH2 0x143D JUMP JUMPDEST DUP1 PUSH1 0x0 JUMPDEST DUP6 DUP2 LT ISZERO PUSH2 0x14E2 JUMPI PUSH2 0x14BF DUP3 DUP5 PUSH2 0x146E JUMP JUMPDEST PUSH2 0x14C9 DUP9 DUP3 PUSH2 0x1456 JUMP JUMPDEST SWAP8 POP PUSH2 0x14D4 DUP4 PUSH2 0x1485 JUMP JUMPDEST SWAP3 POP POP PUSH1 0x1 DUP2 ADD SWAP1 POP PUSH2 0x14AD JUMP JUMPDEST POP DUP6 SWAP3 POP POP POP SWAP4 SWAP3 POP POP POP JUMP JUMPDEST PUSH1 0x0 DUP3 DUP3 MSTORE PUSH1 0x20 DUP3 ADD SWAP1 POP SWAP3 SWAP2 POP POP JUMP JUMPDEST PUSH1 0x0 DUP1 REVERT JUMPDEST DUP3 DUP2 DUP4 CALLDATACOPY PUSH1 0x0 DUP4 DUP4 ADD MSTORE POP POP POP JUMP JUMPDEST PUSH1 0x0 PUSH2 0x1520 DUP4 DUP6 PUSH2 0x14EF JUMP JUMPDEST SWAP4 POP PUSH32 0x7FFFFFFFFFFFFFFFFFFFFFFFFFFFFFFFFFFFFFFFFFFFFFFFFFFFFFFFFFFFFFF DUP4 GT ISZERO PUSH2 0x1553 JUMPI PUSH2 0x1552 PUSH2 0x1500 JUMP JUMPDEST JUMPDEST PUSH1 0x20 DUP4 MUL SWAP3 POP PUSH2 0x1564 DUP4 DUP6 DUP5 PUSH2 0x1505 JUMP JUMPDEST DUP3 DUP5 ADD SWAP1 POP SWAP4 SWAP3 POP POP POP JUMP JUMPDEST PUSH1 0x0 PUSH1 0x40 DUP3 ADD SWAP1 POP DUP2 DUP2 SUB PUSH1 0x0 DUP4 ADD MSTORE PUSH2 0x158B DUP2 DUP7 DUP9 PUSH2 0x1492 JUMP JUMPDEST SWAP1 POP DUP2 DUP2 SUB PUSH1 0x20 DUP4 ADD MSTORE PUSH2 0x15A0 DUP2 DUP5 DUP7 PUSH2 0x1514 JUMP JUMPDEST SWAP1 POP SWAP6 SWAP5 POP POP POP POP POP JUMP JUMPDEST PUSH1 0x0 DUP2 MLOAD SWAP1 POP PUSH2 0x15BA DUP2 PUSH2 0x1020 JUMP JUMPDEST SWAP3 SWAP2 POP POP JUMP JUMPDEST PUSH1 0x0 PUSH1 0x20 DUP3 DUP5 SUB SLT ISZERO PUSH2 0x15D6 JUMPI PUSH2 0x15D5 PUSH2 0xFE4 JUMP JUMPDEST JUMPDEST PUSH1 0x0 PUSH2 0x15E4 DUP5 DUP3 DUP6 ADD PUSH2 0x15AB JUMP JUMPDEST SWAP2 POP POP SWAP3 SWAP2 POP POP JUMP JUMPDEST PUSH32 0x4E487B7100000000000000000000000000000000000000000000000000000000 PUSH1 0x0 MSTORE PUSH1 0x11 PUSH1 0x4 MSTORE PUSH1 0x24 PUSH1 0x0 REVERT JUMPDEST PUSH1 0x0 PUSH2 0x1627 DUP3 PUSH2 0xFB0 JUMP JUMPDEST SWAP2 POP PUSH2 0x1632 DUP4 PUSH2 0xFB0 JUMP JUMPDEST SWAP3 POP DUP3 PUSH32 0xFFFFFFFFFFFFFFFFFFFFFFFFFFFFFFFFFFFFFFFFFFFFFFFFFFFFFFFFFFFFFFFF SUB DUP3 GT ISZERO PUSH2 0x1667 JUMPI PUSH2 0x1666 PUSH2 0x15ED JUMP JUMPDEST JUMPDEST DUP3 DUP3 ADD SWAP1 POP SWAP3 SWAP2 POP POP JUMP JUMPDEST PUSH1 0x0 PUSH1 0x40 DUP3 ADD SWAP1 POP PUSH2 0x1687 PUSH1 0x0 DUP4 ADD DUP6 PUSH2 0x129D JUMP JUMPDEST PUSH2 0x1694 PUSH1 0x20 DUP4 ADD DUP5 PUSH2 0xFBA JUMP JUMPDEST SWAP4 SWAP3 POP POP POP JUMP JUMPDEST PUSH1 0x0 DUP2 ISZERO ISZERO SWAP1 POP SWAP2 SWAP1 POP JUMP JUMPDEST PUSH2 0x16B0 DUP2 PUSH2 0x169B JUMP JUMPDEST DUP2 EQ PUSH2 0x16BB JUMPI PUSH1 0x0 DUP1 REVERT JUMPDEST POP JUMP JUMPDEST PUSH1 0x0 DUP2 MLOAD SWAP1 POP PUSH2 0x16CD DUP2 PUSH2 0x16A7 JUMP JUMPDEST SWAP3 SWAP2 POP POP JUMP JUMPDEST PUSH1 0x0 PUSH1 0x20 DUP3 DUP5 SUB SLT ISZERO PUSH2 0x16E9 JUMPI PUSH2 0x16E8 PUSH2 0xFE4 JUMP JUMPDEST JUMPDEST PUSH1 0x0 PUSH2 0x16F7 DUP5 DUP3 DUP6 ADD PUSH2 0x16BE JUMP JUMPDEST SWAP2 POP POP SWAP3 SWAP2 POP POP JUMP JUMPDEST PUSH32 0x4E487B7100000000000000000000000000000000000000000000000000000000 PUSH1 0x0 MSTORE PUSH1 0x32 PUSH1 0x4 MSTORE PUSH1 0x24 PUSH1 0x0 REVERT JUMPDEST PUSH1 0x0 PUSH2 0x173A DUP3 PUSH2 0xFB0 JUMP JUMPDEST SWAP2 POP PUSH32 0xFFFFFFFFFFFFFFFFFFFFFFFFFFFFFFFFFFFFFFFFFFFFFFFFFFFFFFFFFFFFFFFF DUP3 SUB PUSH2 0x176C JUMPI PUSH2 0x176B PUSH2 0x15ED JUMP JUMPDEST JUMPDEST PUSH1 0x1 DUP3 ADD SWAP1 POP SWAP2 SWAP1 POP JUMP JUMPDEST PUSH1 0x0 PUSH2 0x1782 DUP3 PUSH2 0xFB0 JUMP JUMPDEST SWAP2 POP PUSH2 0x178D DUP4 PUSH2 0xFB0 JUMP JUMPDEST SWAP3 POP DUP3 DUP3 LT ISZERO PUSH2 0x17A0 JUMPI PUSH2 0x179F PUSH2 0x15ED JUMP JUMPDEST JUMPDEST DUP3 DUP3 SUB SWAP1 POP SWAP3 SWAP2 POP POP JUMP JUMPDEST PUSH1 0x0 DUP2 MLOAD SWAP1 POP PUSH2 0x17BA DUP2 PUSH2 0x119C JUMP JUMPDEST SWAP3 SWAP2 POP POP JUMP JUMPDEST PUSH1 0x0 PUSH1 0x20 DUP3 DUP5 SUB SLT ISZERO PUSH2 0x17D6 JUMPI PUSH2 0x17D5 PUSH2 0xFE4 JUMP JUMPDEST JUMPDEST PUSH1 0x0 PUSH2 0x17E4 DUP5 DUP3 DUP6 ADD PUSH2 0x17AB JUMP JUMPDEST SWAP2 POP POP SWAP3 SWAP2 POP POP JUMP JUMPDEST PUSH1 0x0 PUSH2 0x17F8 DUP3 PUSH2 0xFB0 JUMP JUMPDEST SWAP2 POP PUSH2 0x1803 DUP4 PUSH2 0xFB0 JUMP JUMPDEST SWAP3 POP DUP2 PUSH32 0xFFFFFFFFFFFFFFFFFFFFFFFFFFFFFFFFFFFFFFFFFFFFFFFFFFFFFFFFFFFFFFFF DIV DUP4 GT DUP3 ISZERO ISZERO AND ISZERO PUSH2 0x183C JUMPI PUSH2 0x183B PUSH2 0x15ED JUMP JUMPDEST JUMPDEST DUP3 DUP3 MUL SWAP1 POP SWAP3 SWAP2 POP POP JUMP JUMPDEST PUSH32 0x4E487B7100000000000000000000000000000000000000000000000000000000 PUSH1 0x0 MSTORE PUSH1 0x12 PUSH1 0x4 MSTORE PUSH1 0x24 PUSH1 0x0 REVERT JUMPDEST PUSH1 0x0 PUSH2 0x1881 DUP3 PUSH2 0xFB0 JUMP JUMPDEST SWAP2 POP PUSH2 0x188C DUP4 PUSH2 0xFB0 JUMP JUMPDEST SWAP3 POP DUP3 PUSH2 0x189C JUMPI PUSH2 0x189B PUSH2 0x1847 JUMP JUMPDEST JUMPDEST DUP3 DUP3 DIV SWAP1 POP SWAP3 SWAP2 POP POP JUMP INVALID LOG2 PUSH5 0x6970667358 0x22 SLT KECCAK256 LOG4 DUP8 0xD0 0xB5 DUP2 PUSH28 0x8EAA4CC6B9DB198C0AED76E6217ED49F178964DBFCCE579F8C9D6473 PUSH16 0x6C634300080E00330000000000000000 "
				},
				"gasEstimates": {
					"creation": {
						"codeDepositCost": "1273000",
						"executionCost": "infinite",
						"totalCost": "infinite"
					},
					"external": {
						"": "224",
						"accumCommission()": "2452",
						"collectCommission(address[],uint256[])": "infinite",
						"deleteContract(address,address[],uint256[])": "infinite",
						"feeYear()": "2430",
						"initContract(address,uint256,uint256,uint256,uint256)": "infinite",
						"initDone()": "2517",
						"lastUpdated()": "2451",
						"payComissions(uint256)": "infinite",
						"proxy()": "2555",
						"r()": "2518",
						"setFeeYear(uint256)": "infinite",
						"setR(uint256)": "infinite",
						"updateProxy(address)": "26934"
					},
					"internal": {
						"computeCommission()": "infinite"
					}
				},
				"methodIdentifiers": {
					"accumCommission()": "7f8483a4",
					"collectCommission(address[],uint256[])": "fc693786",
					"deleteContract(address,address[],uint256[])": "1d69b196",
					"feeYear()": "13ab7042",
					"initContract(address,uint256,uint256,uint256,uint256)": "37799661",
					"initDone()": "fed0a20e",
					"lastUpdated()": "d0b06f5d",
					"payComissions(uint256)": "bdedd45e",
					"proxy()": "ec556889",
					"r()": "6c8ae38c",
					"setFeeYear(uint256)": "75450f1b",
					"setR(uint256)": "674eb5ac",
					"updateProxy(address)": "9e955149"
				}
			},
			"storageLayout": {
				"storage": [
					{
						"astId": 411,
						"contract": "TFGv3/Contracts/SCCommission.sol:SCCommission",
						"label": "proxy",
						"offset": 0,
						"slot": "0",
						"type": "t_address"
					},
					{
						"astId": 413,
						"contract": "TFGv3/Contracts/SCCommission.sol:SCCommission",
						"label": "lastUpdated",
						"offset": 0,
						"slot": "1",
						"type": "t_uint256"
					},
					{
						"astId": 415,
						"contract": "TFGv3/Contracts/SCCommission.sol:SCCommission",
						"label": "accumCommission",
						"offset": 0,
						"slot": "2",
						"type": "t_uint256"
					},
					{
						"astId": 417,
						"contract": "TFGv3/Contracts/SCCommission.sol:SCCommission",
						"label": "feeYear",
						"offset": 0,
						"slot": "3",
						"type": "t_uint256"
					},
					{
						"astId": 419,
						"contract": "TFGv3/Contracts/SCCommission.sol:SCCommission",
						"label": "r",
						"offset": 0,
						"slot": "4",
						"type": "t_uint256"
					},
					{
						"astId": 421,
						"contract": "TFGv3/Contracts/SCCommission.sol:SCCommission",
						"label": "initDone",
						"offset": 0,
						"slot": "5",
						"type": "t_uint256"
					}
				],
				"types": {
					"t_address": {
						"encoding": "inplace",
						"label": "address",
						"numberOfBytes": "20"
					},
					"t_uint256": {
						"encoding": "inplace",
						"label": "uint256",
						"numberOfBytes": "32"
					}
				}
			},
			"userdoc": {
				"kind": "user",
				"methods": {},
				"version": 1
			}
		}
	}
}