{
	"TFGv3/Contracts/CryptoFundToken.sol": {
		"CryptoFundToken": {
			"abi": [
				{
					"inputs": [
						{
							"internalType": "string",
							"name": "name_",
							"type": "string"
						},
						{
							"internalType": "string",
							"name": "symbol_",
							"type": "string"
						},
						{
							"internalType": "uint8",
							"name": "decimals_",
							"type": "uint8"
						}
					],
					"stateMutability": "nonpayable",
					"type": "constructor"
				},
				{
					"anonymous": false,
					"inputs": [
						{
							"indexed": true,
							"internalType": "address",
							"name": "owner",
							"type": "address"
						},
						{
							"indexed": true,
							"internalType": "address",
							"name": "spender",
							"type": "address"
						},
						{
							"indexed": false,
							"internalType": "uint256",
							"name": "value",
							"type": "uint256"
						}
					],
					"name": "Approval",
					"type": "event"
				},
				{
					"anonymous": false,
					"inputs": [
						{
							"indexed": true,
							"internalType": "address",
							"name": "to",
							"type": "address"
						},
						{
							"indexed": false,
							"internalType": "uint256",
							"name": "value",
							"type": "uint256"
						}
					],
					"name": "Mint",
					"type": "event"
				},
				{
					"anonymous": false,
					"inputs": [
						{
							"indexed": true,
							"internalType": "address",
							"name": "from",
							"type": "address"
						},
						{
							"indexed": true,
							"internalType": "address",
							"name": "to",
							"type": "address"
						},
						{
							"indexed": false,
							"internalType": "uint256",
							"name": "value",
							"type": "uint256"
						}
					],
					"name": "Transfer",
					"type": "event"
				},
				{
					"inputs": [],
					"name": "_totalSupply",
					"outputs": [
						{
							"internalType": "uint256",
							"name": "",
							"type": "uint256"
						}
					],
					"stateMutability": "view",
					"type": "function"
				},
				{
					"inputs": [
						{
							"internalType": "address",
							"name": "owner",
							"type": "address"
						},
						{
							"internalType": "address",
							"name": "spender",
							"type": "address"
						}
					],
					"name": "allowance",
					"outputs": [
						{
							"internalType": "uint256",
							"name": "",
							"type": "uint256"
						}
					],
					"stateMutability": "view",
					"type": "function"
				},
				{
					"inputs": [
						{
							"internalType": "address",
							"name": "spender",
							"type": "address"
						},
						{
							"internalType": "uint256",
							"name": "amount",
							"type": "uint256"
						}
					],
					"name": "approve",
					"outputs": [
						{
							"internalType": "bool",
							"name": "",
							"type": "bool"
						}
					],
					"stateMutability": "nonpayable",
					"type": "function"
				},
				{
					"inputs": [
						{
							"internalType": "address",
							"name": "account",
							"type": "address"
						}
					],
					"name": "balanceOf",
					"outputs": [
						{
							"internalType": "uint256",
							"name": "",
							"type": "uint256"
						}
					],
					"stateMutability": "view",
					"type": "function"
				},
				{
					"inputs": [
						{
							"internalType": "uint256",
							"name": "amount",
							"type": "uint256"
						}
					],
					"name": "burn",
					"outputs": [
						{
							"internalType": "bool",
							"name": "",
							"type": "bool"
						}
					],
					"stateMutability": "nonpayable",
					"type": "function"
				},
				{
					"inputs": [
						{
							"internalType": "address",
							"name": "from",
							"type": "address"
						},
						{
							"internalType": "uint256",
							"name": "amount",
							"type": "uint256"
						}
					],
					"name": "burnFrom",
					"outputs": [
						{
							"internalType": "bool",
							"name": "",
							"type": "bool"
						}
					],
					"stateMutability": "nonpayable",
					"type": "function"
				},
				{
					"inputs": [],
					"name": "decimals",
					"outputs": [
						{
							"internalType": "uint8",
							"name": "",
							"type": "uint8"
						}
					],
					"stateMutability": "view",
					"type": "function"
				},
				{
					"inputs": [
						{
							"internalType": "address",
							"name": "spender",
							"type": "address"
						},
						{
							"internalType": "uint256",
							"name": "subtractedValue",
							"type": "uint256"
						}
					],
					"name": "decreaseAllowance",
					"outputs": [
						{
							"internalType": "bool",
							"name": "",
							"type": "bool"
						}
					],
					"stateMutability": "nonpayable",
					"type": "function"
				},
				{
					"inputs": [
						{
							"internalType": "address",
							"name": "spender",
							"type": "address"
						},
						{
							"internalType": "uint256",
							"name": "addedValue",
							"type": "uint256"
						}
					],
					"name": "increaseAllowance",
					"outputs": [
						{
							"internalType": "bool",
							"name": "",
							"type": "bool"
						}
					],
					"stateMutability": "nonpayable",
					"type": "function"
				},
				{
					"inputs": [
						{
							"internalType": "address",
							"name": "account",
							"type": "address"
						},
						{
							"internalType": "uint256",
							"name": "amount",
							"type": "uint256"
						}
					],
					"name": "mint",
					"outputs": [
						{
							"internalType": "bool",
							"name": "",
							"type": "bool"
						}
					],
					"stateMutability": "nonpayable",
					"type": "function"
				},
				{
					"inputs": [],
					"name": "name",
					"outputs": [
						{
							"internalType": "string",
							"name": "",
							"type": "string"
						}
					],
					"stateMutability": "view",
					"type": "function"
				},
				{
					"inputs": [
						{
							"internalType": "address",
							"name": "newOwner",
							"type": "address"
						}
					],
					"name": "setOwner",
					"outputs": [],
					"stateMutability": "nonpayable",
					"type": "function"
				},
				{
					"inputs": [],
					"name": "symbol",
					"outputs": [
						{
							"internalType": "string",
							"name": "",
							"type": "string"
						}
					],
					"stateMutability": "view",
					"type": "function"
				},
				{
					"inputs": [],
					"name": "totalSupply",
					"outputs": [
						{
							"internalType": "uint256",
							"name": "",
							"type": "uint256"
						}
					],
					"stateMutability": "view",
					"type": "function"
				},
				{
					"inputs": [
						{
							"internalType": "address",
							"name": "to",
							"type": "address"
						},
						{
							"internalType": "uint256",
							"name": "amount",
							"type": "uint256"
						}
					],
					"name": "transfer",
					"outputs": [
						{
							"internalType": "bool",
							"name": "",
							"type": "bool"
						}
					],
					"stateMutability": "nonpayable",
					"type": "function"
				},
				{
					"inputs": [
						{
							"internalType": "address",
							"name": "from",
							"type": "address"
						},
						{
							"internalType": "address",
							"name": "to",
							"type": "address"
						},
						{
							"internalType": "uint256",
							"name": "amount",
							"type": "uint256"
						}
					],
					"name": "transferFrom",
					"outputs": [
						{
							"internalType": "bool",
							"name": "",
							"type": "bool"
						}
					],
					"stateMutability": "nonpayable",
					"type": "function"
				}
			],
			"devdoc": {
				"kind": "dev",
				"methods": {},
				"version": 1
			},
			"evm": {
				"assembly": "    /* \"TFGv3/Contracts/CryptoFundToken.sol\":108:5507  contract CryptoFundToken is IERC20... */\n  mstore(0x40, 0xa0)\n    /* \"TFGv3/Contracts/CryptoFundToken.sol\":447:669  constructor(string memory name_, string memory symbol_, uint8 decimals_)... */\n  callvalue\n  dup1\n  iszero\n  tag_1\n  jumpi\n  0x00\n  dup1\n  revert\ntag_1:\n  pop\n  mload(0x40)\n  sub(codesize, bytecodeSize)\n  dup1\n  bytecodeSize\n  dup4\n  codecopy\n  dup2\n  dup2\n  add\n  0x40\n  mstore\n  dup2\n  add\n  swap1\n  tag_2\n  swap2\n  swap1\n  tag_3\n  jump\t// in\ntag_2:\n    /* \"TFGv3/Contracts/CryptoFundToken.sol\":541:546  name_ */\n  dup3\n    /* \"TFGv3/Contracts/CryptoFundToken.sol\":534:538  name */\n  0x04\n    /* \"TFGv3/Contracts/CryptoFundToken.sol\":534:546  name = name_ */\n  swap1\n  dup1\n  mload\n  swap1\n  0x20\n  add\n  swap1\n  tag_6\n  swap3\n  swap2\n  swap1\n  tag_7\n  jump\t// in\ntag_6:\n  pop\n    /* \"TFGv3/Contracts/CryptoFundToken.sol\":565:572  symbol_ */\n  dup2\n    /* \"TFGv3/Contracts/CryptoFundToken.sol\":556:562  symbol */\n  0x05\n    /* \"TFGv3/Contracts/CryptoFundToken.sol\":556:572  symbol = symbol_ */\n  swap1\n  dup1\n  mload\n  swap1\n  0x20\n  add\n  swap1\n  tag_8\n  swap3\n  swap2\n  swap1\n  tag_7\n  jump\t// in\ntag_8:\n  pop\n    /* \"TFGv3/Contracts/CryptoFundToken.sol\":593:602  decimals_ */\n  dup1\n    /* \"TFGv3/Contracts/CryptoFundToken.sol\":582:590  decimals */\n  0x06\n  0x00\n    /* \"TFGv3/Contracts/CryptoFundToken.sol\":582:602  decimals = decimals_ */\n  0x0100\n  exp\n  dup2\n  sload\n  dup2\n  0xff\n  mul\n  not\n  and\n  swap1\n  dup4\n  0xff\n  and\n  mul\n  or\n  swap1\n  sstore\n  pop\n    /* \"TFGv3/Contracts/CryptoFundToken.sol\":623:633  msg.sender */\n  caller\n    /* \"TFGv3/Contracts/CryptoFundToken.sol\":612:633  deployer = msg.sender */\n  0xffffffffffffffffffffffffffffffffffffffff\n  and\n  0x80\n  dup2\n  0xffffffffffffffffffffffffffffffffffffffff\n  and\n  dup2\n  mstore\n  pop\n  pop\n    /* \"TFGv3/Contracts/CryptoFundToken.sol\":652:662  msg.sender */\n  caller\n    /* \"TFGv3/Contracts/CryptoFundToken.sol\":643:649  _owner */\n  0x02\n  0x00\n    /* \"TFGv3/Contracts/CryptoFundToken.sol\":643:662  _owner = msg.sender */\n  0x0100\n  exp\n  dup2\n  sload\n  dup2\n  0xffffffffffffffffffffffffffffffffffffffff\n  mul\n  not\n  and\n  swap1\n  dup4\n  0xffffffffffffffffffffffffffffffffffffffff\n  and\n  mul\n  or\n  swap1\n  sstore\n  pop\n    /* \"TFGv3/Contracts/CryptoFundToken.sol\":447:669  constructor(string memory name_, string memory symbol_, uint8 decimals_)... */\n  pop\n  pop\n  pop\n    /* \"TFGv3/Contracts/CryptoFundToken.sol\":108:5507  contract CryptoFundToken is IERC20... */\n  jump(tag_9)\ntag_7:\n  dup3\n  dup1\n  sload\n  tag_10\n  swap1\n  tag_11\n  jump\t// in\ntag_10:\n  swap1\n  0x00\n  mstore\n  keccak256(0x00, 0x20)\n  swap1\n  0x1f\n  add\n  0x20\n  swap1\n  div\n  dup2\n  add\n  swap3\n  dup3\n  tag_13\n  jumpi\n  0x00\n  dup6\n  sstore\n  jump(tag_12)\ntag_13:\n  dup3\n  0x1f\n  lt\n  tag_14\n  jumpi\n  dup1\n  mload\n  not(0xff)\n  and\n  dup4\n  dup1\n  add\n  or\n  dup6\n  sstore\n  jump(tag_12)\ntag_14:\n  dup3\n  dup1\n  add\n  0x01\n  add\n  dup6\n  sstore\n  dup3\n  iszero\n  tag_12\n  jumpi\n  swap2\n  dup3\n  add\ntag_15:\n  dup3\n  dup2\n  gt\n  iszero\n  tag_16\n  jumpi\n  dup3\n  mload\n  dup3\n  sstore\n  swap2\n  0x20\n  add\n  swap2\n  swap1\n  0x01\n  add\n  swap1\n  jump(tag_15)\ntag_16:\ntag_12:\n  pop\n  swap1\n  pop\n  tag_17\n  swap2\n  swap1\n  tag_18\n  jump\t// in\ntag_17:\n  pop\n  swap1\n  jump\t// out\ntag_18:\ntag_19:\n  dup1\n  dup3\n  gt\n  iszero\n  tag_20\n  jumpi\n  0x00\n  dup2\n  0x00\n  swap1\n  sstore\n  pop\n  0x01\n  add\n  jump(tag_19)\ntag_20:\n  pop\n  swap1\n  jump\t// out\n    /* \"#utility.yul\":7:82   */\ntag_21:\n    /* \"#utility.yul\":40:46   */\n  0x00\n    /* \"#utility.yul\":73:75   */\n  0x40\n    /* \"#utility.yul\":67:76   */\n  mload\n    /* \"#utility.yul\":57:76   */\n  swap1\n  pop\n    /* \"#utility.yul\":7:82   */\n  swap1\n  jump\t// out\n    /* \"#utility.yul\":88:205   */\ntag_22:\n    /* \"#utility.yul\":197:198   */\n  0x00\n    /* \"#utility.yul\":194:195   */\n  dup1\n    /* \"#utility.yul\":187:199   */\n  revert\n    /* \"#utility.yul\":211:328   */\ntag_23:\n    /* \"#utility.yul\":320:321   */\n  0x00\n    /* \"#utility.yul\":317:318   */\n  dup1\n    /* \"#utility.yul\":310:322   */\n  revert\n    /* \"#utility.yul\":334:451   */\ntag_24:\n    /* \"#utility.yul\":443:444   */\n  0x00\n    /* \"#utility.yul\":440:441   */\n  dup1\n    /* \"#utility.yul\":433:445   */\n  revert\n    /* \"#utility.yul\":457:574   */\ntag_25:\n    /* \"#utility.yul\":566:567   */\n  0x00\n    /* \"#utility.yul\":563:564   */\n  dup1\n    /* \"#utility.yul\":556:568   */\n  revert\n    /* \"#utility.yul\":580:682   */\ntag_26:\n    /* \"#utility.yul\":621:627   */\n  0x00\n    /* \"#utility.yul\":672:674   */\n  0x1f\n    /* \"#utility.yul\":668:675   */\n  not\n    /* \"#utility.yul\":663:665   */\n  0x1f\n    /* \"#utility.yul\":656:661   */\n  dup4\n    /* \"#utility.yul\":652:666   */\n  add\n    /* \"#utility.yul\":648:676   */\n  and\n    /* \"#utility.yul\":638:676   */\n  swap1\n  pop\n    /* \"#utility.yul\":580:682   */\n  swap2\n  swap1\n  pop\n  jump\t// out\n    /* \"#utility.yul\":688:868   */\ntag_27:\n    /* \"#utility.yul\":736:813   */\n  0x4e487b7100000000000000000000000000000000000000000000000000000000\n    /* \"#utility.yul\":733:734   */\n  0x00\n    /* \"#utility.yul\":726:814   */\n  mstore\n    /* \"#utility.yul\":833:837   */\n  0x41\n    /* \"#utility.yul\":830:831   */\n  0x04\n    /* \"#utility.yul\":823:838   */\n  mstore\n    /* \"#utility.yul\":857:861   */\n  0x24\n    /* \"#utility.yul\":854:855   */\n  0x00\n    /* \"#utility.yul\":847:862   */\n  revert\n    /* \"#utility.yul\":874:1155   */\ntag_28:\n    /* \"#utility.yul\":957:984   */\n  tag_47\n    /* \"#utility.yul\":979:983   */\n  dup3\n    /* \"#utility.yul\":957:984   */\n  tag_26\n  jump\t// in\ntag_47:\n    /* \"#utility.yul\":949:955   */\n  dup2\n    /* \"#utility.yul\":945:985   */\n  add\n    /* \"#utility.yul\":1087:1093   */\n  dup2\n    /* \"#utility.yul\":1075:1085   */\n  dup2\n    /* \"#utility.yul\":1072:1094   */\n  lt\n    /* \"#utility.yul\":1051:1069   */\n  0xffffffffffffffff\n    /* \"#utility.yul\":1039:1049   */\n  dup3\n    /* \"#utility.yul\":1036:1070   */\n  gt\n    /* \"#utility.yul\":1033:1095   */\n  or\n    /* \"#utility.yul\":1030:1118   */\n  iszero\n  tag_48\n  jumpi\n    /* \"#utility.yul\":1098:1116   */\n  tag_49\n  tag_27\n  jump\t// in\ntag_49:\n    /* \"#utility.yul\":1030:1118   */\ntag_48:\n    /* \"#utility.yul\":1138:1148   */\n  dup1\n    /* \"#utility.yul\":1134:1136   */\n  0x40\n    /* \"#utility.yul\":1127:1149   */\n  mstore\n    /* \"#utility.yul\":917:1155   */\n  pop\n    /* \"#utility.yul\":874:1155   */\n  pop\n  pop\n  jump\t// out\n    /* \"#utility.yul\":1161:1290   */\ntag_29:\n    /* \"#utility.yul\":1195:1201   */\n  0x00\n    /* \"#utility.yul\":1222:1242   */\n  tag_51\n  tag_21\n  jump\t// in\ntag_51:\n    /* \"#utility.yul\":1212:1242   */\n  swap1\n  pop\n    /* \"#utility.yul\":1251:1284   */\n  tag_52\n    /* \"#utility.yul\":1279:1283   */\n  dup3\n    /* \"#utility.yul\":1271:1277   */\n  dup3\n    /* \"#utility.yul\":1251:1284   */\n  tag_28\n  jump\t// in\ntag_52:\n    /* \"#utility.yul\":1161:1290   */\n  swap2\n  swap1\n  pop\n  jump\t// out\n    /* \"#utility.yul\":1296:1604   */\ntag_30:\n    /* \"#utility.yul\":1358:1362   */\n  0x00\n    /* \"#utility.yul\":1448:1466   */\n  0xffffffffffffffff\n    /* \"#utility.yul\":1440:1446   */\n  dup3\n    /* \"#utility.yul\":1437:1467   */\n  gt\n    /* \"#utility.yul\":1434:1490   */\n  iszero\n  tag_54\n  jumpi\n    /* \"#utility.yul\":1470:1488   */\n  tag_55\n  tag_27\n  jump\t// in\ntag_55:\n    /* \"#utility.yul\":1434:1490   */\ntag_54:\n    /* \"#utility.yul\":1508:1537   */\n  tag_56\n    /* \"#utility.yul\":1530:1536   */\n  dup3\n    /* \"#utility.yul\":1508:1537   */\n  tag_26\n  jump\t// in\ntag_56:\n    /* \"#utility.yul\":1500:1537   */\n  swap1\n  pop\n    /* \"#utility.yul\":1592:1596   */\n  0x20\n    /* \"#utility.yul\":1586:1590   */\n  dup2\n    /* \"#utility.yul\":1582:1597   */\n  add\n    /* \"#utility.yul\":1574:1597   */\n  swap1\n  pop\n    /* \"#utility.yul\":1296:1604   */\n  swap2\n  swap1\n  pop\n  jump\t// out\n    /* \"#utility.yul\":1610:1917   */\ntag_31:\n    /* \"#utility.yul\":1678:1679   */\n  0x00\n    /* \"#utility.yul\":1688:1801   */\ntag_58:\n    /* \"#utility.yul\":1702:1708   */\n  dup4\n    /* \"#utility.yul\":1699:1700   */\n  dup2\n    /* \"#utility.yul\":1696:1709   */\n  lt\n    /* \"#utility.yul\":1688:1801   */\n  iszero\n  tag_60\n  jumpi\n    /* \"#utility.yul\":1787:1788   */\n  dup1\n    /* \"#utility.yul\":1782:1785   */\n  dup3\n    /* \"#utility.yul\":1778:1789   */\n  add\n    /* \"#utility.yul\":1772:1790   */\n  mload\n    /* \"#utility.yul\":1768:1769   */\n  dup2\n    /* \"#utility.yul\":1763:1766   */\n  dup5\n    /* \"#utility.yul\":1759:1770   */\n  add\n    /* \"#utility.yul\":1752:1791   */\n  mstore\n    /* \"#utility.yul\":1724:1726   */\n  0x20\n    /* \"#utility.yul\":1721:1722   */\n  dup2\n    /* \"#utility.yul\":1717:1727   */\n  add\n    /* \"#utility.yul\":1712:1727   */\n  swap1\n  pop\n    /* \"#utility.yul\":1688:1801   */\n  jump(tag_58)\ntag_60:\n    /* \"#utility.yul\":1819:1825   */\n  dup4\n    /* \"#utility.yul\":1816:1817   */\n  dup2\n    /* \"#utility.yul\":1813:1826   */\n  gt\n    /* \"#utility.yul\":1810:1911   */\n  iszero\n  tag_61\n  jumpi\n    /* \"#utility.yul\":1899:1900   */\n  0x00\n    /* \"#utility.yul\":1890:1896   */\n  dup5\n    /* \"#utility.yul\":1885:1888   */\n  dup5\n    /* \"#utility.yul\":1881:1897   */\n  add\n    /* \"#utility.yul\":1874:1901   */\n  mstore\n    /* \"#utility.yul\":1810:1911   */\ntag_61:\n    /* \"#utility.yul\":1659:1917   */\n  pop\n    /* \"#utility.yul\":1610:1917   */\n  pop\n  pop\n  pop\n  jump\t// out\n    /* \"#utility.yul\":1923:2344   */\ntag_32:\n    /* \"#utility.yul\":2012:2017   */\n  0x00\n    /* \"#utility.yul\":2037:2103   */\n  tag_63\n    /* \"#utility.yul\":2053:2102   */\n  tag_64\n    /* \"#utility.yul\":2095:2101   */\n  dup5\n    /* \"#utility.yul\":2053:2102   */\n  tag_30\n  jump\t// in\ntag_64:\n    /* \"#utility.yul\":2037:2103   */\n  tag_29\n  jump\t// in\ntag_63:\n    /* \"#utility.yul\":2028:2103   */\n  swap1\n  pop\n    /* \"#utility.yul\":2126:2132   */\n  dup3\n    /* \"#utility.yul\":2119:2124   */\n  dup2\n    /* \"#utility.yul\":2112:2133   */\n  mstore\n    /* \"#utility.yul\":2164:2168   */\n  0x20\n    /* \"#utility.yul\":2157:2162   */\n  dup2\n    /* \"#utility.yul\":2153:2169   */\n  add\n    /* \"#utility.yul\":2202:2205   */\n  dup5\n    /* \"#utility.yul\":2193:2199   */\n  dup5\n    /* \"#utility.yul\":2188:2191   */\n  dup5\n    /* \"#utility.yul\":2184:2200   */\n  add\n    /* \"#utility.yul\":2181:2206   */\n  gt\n    /* \"#utility.yul\":2178:2290   */\n  iszero\n  tag_65\n  jumpi\n    /* \"#utility.yul\":2209:2288   */\n  tag_66\n  tag_25\n  jump\t// in\ntag_66:\n    /* \"#utility.yul\":2178:2290   */\ntag_65:\n    /* \"#utility.yul\":2299:2338   */\n  tag_67\n    /* \"#utility.yul\":2331:2337   */\n  dup5\n    /* \"#utility.yul\":2326:2329   */\n  dup3\n    /* \"#utility.yul\":2321:2324   */\n  dup6\n    /* \"#utility.yul\":2299:2338   */\n  tag_31\n  jump\t// in\ntag_67:\n    /* \"#utility.yul\":2018:2344   */\n  pop\n    /* \"#utility.yul\":1923:2344   */\n  swap4\n  swap3\n  pop\n  pop\n  pop\n  jump\t// out\n    /* \"#utility.yul\":2364:2719   */\ntag_33:\n    /* \"#utility.yul\":2431:2436   */\n  0x00\n    /* \"#utility.yul\":2480:2483   */\n  dup3\n    /* \"#utility.yul\":2473:2477   */\n  0x1f\n    /* \"#utility.yul\":2465:2471   */\n  dup4\n    /* \"#utility.yul\":2461:2478   */\n  add\n    /* \"#utility.yul\":2457:2484   */\n  slt\n    /* \"#utility.yul\":2447:2569   */\n  tag_69\n  jumpi\n    /* \"#utility.yul\":2488:2567   */\n  tag_70\n  tag_24\n  jump\t// in\ntag_70:\n    /* \"#utility.yul\":2447:2569   */\ntag_69:\n    /* \"#utility.yul\":2598:2604   */\n  dup2\n    /* \"#utility.yul\":2592:2605   */\n  mload\n    /* \"#utility.yul\":2623:2713   */\n  tag_71\n    /* \"#utility.yul\":2709:2712   */\n  dup5\n    /* \"#utility.yul\":2701:2707   */\n  dup3\n    /* \"#utility.yul\":2694:2698   */\n  0x20\n    /* \"#utility.yul\":2686:2692   */\n  dup7\n    /* \"#utility.yul\":2682:2699   */\n  add\n    /* \"#utility.yul\":2623:2713   */\n  tag_32\n  jump\t// in\ntag_71:\n    /* \"#utility.yul\":2614:2713   */\n  swap2\n  pop\n    /* \"#utility.yul\":2437:2719   */\n  pop\n    /* \"#utility.yul\":2364:2719   */\n  swap3\n  swap2\n  pop\n  pop\n  jump\t// out\n    /* \"#utility.yul\":2725:2811   */\ntag_34:\n    /* \"#utility.yul\":2760:2767   */\n  0x00\n    /* \"#utility.yul\":2800:2804   */\n  0xff\n    /* \"#utility.yul\":2793:2798   */\n  dup3\n    /* \"#utility.yul\":2789:2805   */\n  and\n    /* \"#utility.yul\":2778:2805   */\n  swap1\n  pop\n    /* \"#utility.yul\":2725:2811   */\n  swap2\n  swap1\n  pop\n  jump\t// out\n    /* \"#utility.yul\":2817:2935   */\ntag_35:\n    /* \"#utility.yul\":2888:2910   */\n  tag_74\n    /* \"#utility.yul\":2904:2909   */\n  dup2\n    /* \"#utility.yul\":2888:2910   */\n  tag_34\n  jump\t// in\ntag_74:\n    /* \"#utility.yul\":2881:2886   */\n  dup2\n    /* \"#utility.yul\":2878:2911   */\n  eq\n    /* \"#utility.yul\":2868:2929   */\n  tag_75\n  jumpi\n    /* \"#utility.yul\":2925:2926   */\n  0x00\n    /* \"#utility.yul\":2922:2923   */\n  dup1\n    /* \"#utility.yul\":2915:2927   */\n  revert\n    /* \"#utility.yul\":2868:2929   */\ntag_75:\n    /* \"#utility.yul\":2817:2935   */\n  pop\n  jump\t// out\n    /* \"#utility.yul\":2941:3080   */\ntag_36:\n    /* \"#utility.yul\":2996:3001   */\n  0x00\n    /* \"#utility.yul\":3027:3033   */\n  dup2\n    /* \"#utility.yul\":3021:3034   */\n  mload\n    /* \"#utility.yul\":3012:3034   */\n  swap1\n  pop\n    /* \"#utility.yul\":3043:3074   */\n  tag_77\n    /* \"#utility.yul\":3068:3073   */\n  dup2\n    /* \"#utility.yul\":3043:3074   */\n  tag_35\n  jump\t// in\ntag_77:\n    /* \"#utility.yul\":2941:3080   */\n  swap3\n  swap2\n  pop\n  pop\n  jump\t// out\n    /* \"#utility.yul\":3086:4091   */\ntag_3:\n    /* \"#utility.yul\":3192:3198   */\n  0x00\n    /* \"#utility.yul\":3200:3206   */\n  dup1\n    /* \"#utility.yul\":3208:3214   */\n  0x00\n    /* \"#utility.yul\":3257:3259   */\n  0x60\n    /* \"#utility.yul\":3245:3254   */\n  dup5\n    /* \"#utility.yul\":3236:3243   */\n  dup7\n    /* \"#utility.yul\":3232:3255   */\n  sub\n    /* \"#utility.yul\":3228:3260   */\n  slt\n    /* \"#utility.yul\":3225:3344   */\n  iszero\n  tag_79\n  jumpi\n    /* \"#utility.yul\":3263:3342   */\n  tag_80\n  tag_22\n  jump\t// in\ntag_80:\n    /* \"#utility.yul\":3225:3344   */\ntag_79:\n    /* \"#utility.yul\":3404:3405   */\n  0x00\n    /* \"#utility.yul\":3393:3402   */\n  dup5\n    /* \"#utility.yul\":3389:3406   */\n  add\n    /* \"#utility.yul\":3383:3407   */\n  mload\n    /* \"#utility.yul\":3434:3452   */\n  0xffffffffffffffff\n    /* \"#utility.yul\":3426:3432   */\n  dup2\n    /* \"#utility.yul\":3423:3453   */\n  gt\n    /* \"#utility.yul\":3420:3537   */\n  iszero\n  tag_81\n  jumpi\n    /* \"#utility.yul\":3456:3535   */\n  tag_82\n  tag_23\n  jump\t// in\ntag_82:\n    /* \"#utility.yul\":3420:3537   */\ntag_81:\n    /* \"#utility.yul\":3561:3635   */\n  tag_83\n    /* \"#utility.yul\":3627:3634   */\n  dup7\n    /* \"#utility.yul\":3618:3624   */\n  dup3\n    /* \"#utility.yul\":3607:3616   */\n  dup8\n    /* \"#utility.yul\":3603:3625   */\n  add\n    /* \"#utility.yul\":3561:3635   */\n  tag_33\n  jump\t// in\ntag_83:\n    /* \"#utility.yul\":3551:3635   */\n  swap4\n  pop\n    /* \"#utility.yul\":3354:3645   */\n  pop\n    /* \"#utility.yul\":3705:3707   */\n  0x20\n    /* \"#utility.yul\":3694:3703   */\n  dup5\n    /* \"#utility.yul\":3690:3708   */\n  add\n    /* \"#utility.yul\":3684:3709   */\n  mload\n    /* \"#utility.yul\":3736:3754   */\n  0xffffffffffffffff\n    /* \"#utility.yul\":3728:3734   */\n  dup2\n    /* \"#utility.yul\":3725:3755   */\n  gt\n    /* \"#utility.yul\":3722:3839   */\n  iszero\n  tag_84\n  jumpi\n    /* \"#utility.yul\":3758:3837   */\n  tag_85\n  tag_23\n  jump\t// in\ntag_85:\n    /* \"#utility.yul\":3722:3839   */\ntag_84:\n    /* \"#utility.yul\":3863:3937   */\n  tag_86\n    /* \"#utility.yul\":3929:3936   */\n  dup7\n    /* \"#utility.yul\":3920:3926   */\n  dup3\n    /* \"#utility.yul\":3909:3918   */\n  dup8\n    /* \"#utility.yul\":3905:3927   */\n  add\n    /* \"#utility.yul\":3863:3937   */\n  tag_33\n  jump\t// in\ntag_86:\n    /* \"#utility.yul\":3853:3937   */\n  swap3\n  pop\n    /* \"#utility.yul\":3655:3947   */\n  pop\n    /* \"#utility.yul\":3986:3988   */\n  0x40\n    /* \"#utility.yul\":4012:4074   */\n  tag_87\n    /* \"#utility.yul\":4066:4073   */\n  dup7\n    /* \"#utility.yul\":4057:4063   */\n  dup3\n    /* \"#utility.yul\":4046:4055   */\n  dup8\n    /* \"#utility.yul\":4042:4064   */\n  add\n    /* \"#utility.yul\":4012:4074   */\n  tag_36\n  jump\t// in\ntag_87:\n    /* \"#utility.yul\":4002:4074   */\n  swap2\n  pop\n    /* \"#utility.yul\":3957:4084   */\n  pop\n    /* \"#utility.yul\":3086:4091   */\n  swap3\n  pop\n  swap3\n  pop\n  swap3\n  jump\t// out\n    /* \"#utility.yul\":4097:4277   */\ntag_37:\n    /* \"#utility.yul\":4145:4222   */\n  0x4e487b7100000000000000000000000000000000000000000000000000000000\n    /* \"#utility.yul\":4142:4143   */\n  0x00\n    /* \"#utility.yul\":4135:4223   */\n  mstore\n    /* \"#utility.yul\":4242:4246   */\n  0x22\n    /* \"#utility.yul\":4239:4240   */\n  0x04\n    /* \"#utility.yul\":4232:4247   */\n  mstore\n    /* \"#utility.yul\":4266:4270   */\n  0x24\n    /* \"#utility.yul\":4263:4264   */\n  0x00\n    /* \"#utility.yul\":4256:4271   */\n  revert\n    /* \"#utility.yul\":4283:4603   */\ntag_11:\n    /* \"#utility.yul\":4327:4333   */\n  0x00\n    /* \"#utility.yul\":4364:4365   */\n  0x02\n    /* \"#utility.yul\":4358:4362   */\n  dup3\n    /* \"#utility.yul\":4354:4366   */\n  div\n    /* \"#utility.yul\":4344:4366   */\n  swap1\n  pop\n    /* \"#utility.yul\":4411:4412   */\n  0x01\n    /* \"#utility.yul\":4405:4409   */\n  dup3\n    /* \"#utility.yul\":4401:4413   */\n  and\n    /* \"#utility.yul\":4432:4450   */\n  dup1\n    /* \"#utility.yul\":4422:4503   */\n  tag_90\n  jumpi\n    /* \"#utility.yul\":4488:4492   */\n  0x7f\n    /* \"#utility.yul\":4480:4486   */\n  dup3\n    /* \"#utility.yul\":4476:4493   */\n  and\n    /* \"#utility.yul\":4466:4493   */\n  swap2\n  pop\n    /* \"#utility.yul\":4422:4503   */\ntag_90:\n    /* \"#utility.yul\":4550:4552   */\n  0x20\n    /* \"#utility.yul\":4542:4548   */\n  dup3\n    /* \"#utility.yul\":4539:4553   */\n  lt\n    /* \"#utility.yul\":4519:4537   */\n  dup2\n    /* \"#utility.yul\":4516:4554   */\n  sub\n    /* \"#utility.yul\":4513:4597   */\n  tag_91\n  jumpi\n    /* \"#utility.yul\":4569:4587   */\n  tag_92\n  tag_37\n  jump\t// in\ntag_92:\n    /* \"#utility.yul\":4513:4597   */\ntag_91:\n    /* \"#utility.yul\":4334:4603   */\n  pop\n    /* \"#utility.yul\":4283:4603   */\n  swap2\n  swap1\n  pop\n  jump\t// out\n    /* \"TFGv3/Contracts/CryptoFundToken.sol\":108:5507  contract CryptoFundToken is IERC20... */\ntag_9:\n  mload(0x80)\n  codecopy(0x00, dataOffset(sub_0), dataSize(sub_0))\n  0x00\n  assignImmutable(\"0x277ab82e5a4641341820a4a2933a62c1de997e42e92548657ae21b3728d580fe\")\n  return(0x00, dataSize(sub_0))\nstop\n\nsub_0: assembly {\n        /* \"TFGv3/Contracts/CryptoFundToken.sol\":108:5507  contract CryptoFundToken is IERC20... */\n      mstore(0x40, 0x80)\n      callvalue\n      dup1\n      iszero\n      tag_1\n      jumpi\n      0x00\n      dup1\n      revert\n    tag_1:\n      pop\n      jumpi(tag_2, lt(calldatasize, 0x04))\n      shr(0xe0, calldataload(0x00))\n      dup1\n      0x40c10f19\n      gt\n      tag_19\n      jumpi\n      dup1\n      0x95d89b41\n      gt\n      tag_20\n      jumpi\n      dup1\n      0x95d89b41\n      eq\n      tag_15\n      jumpi\n      dup1\n      0xa457c2d7\n      eq\n      tag_16\n      jumpi\n      dup1\n      0xa9059cbb\n      eq\n      tag_17\n      jumpi\n      dup1\n      0xdd62ed3e\n      eq\n      tag_18\n      jumpi\n      jump(tag_2)\n    tag_20:\n      dup1\n      0x40c10f19\n      eq\n      tag_11\n      jumpi\n      dup1\n      0x42966c68\n      eq\n      tag_12\n      jumpi\n      dup1\n      0x70a08231\n      eq\n      tag_13\n      jumpi\n      dup1\n      0x79cc6790\n      eq\n      tag_14\n      jumpi\n      jump(tag_2)\n    tag_19:\n      dup1\n      0x23b872dd\n      gt\n      tag_21\n      jumpi\n      dup1\n      0x23b872dd\n      eq\n      tag_7\n      jumpi\n      dup1\n      0x313ce567\n      eq\n      tag_8\n      jumpi\n      dup1\n      0x39509351\n      eq\n      tag_9\n      jumpi\n      dup1\n      0x3eaaf86b\n      eq\n      tag_10\n      jumpi\n      jump(tag_2)\n    tag_21:\n      dup1\n      0x06fdde03\n      eq\n      tag_3\n      jumpi\n      dup1\n      0x095ea7b3\n      eq\n      tag_4\n      jumpi\n      dup1\n      0x13af4035\n      eq\n      tag_5\n      jumpi\n      dup1\n      0x18160ddd\n      eq\n      tag_6\n      jumpi\n    tag_2:\n      0x00\n      dup1\n      revert\n        /* \"TFGv3/Contracts/CryptoFundToken.sol\":369:387  string public name */\n    tag_3:\n      tag_22\n      tag_23\n      jump\t// in\n    tag_22:\n      mload(0x40)\n      tag_24\n      swap2\n      swap1\n      tag_25\n      jump\t// in\n    tag_24:\n      mload(0x40)\n      dup1\n      swap2\n      sub\n      swap1\n      return\n        /* \"TFGv3/Contracts/CryptoFundToken.sol\":1732:1902  function approve(address spender, uint256 amount) external virtual override returns (bool)... */\n    tag_4:\n      tag_26\n      0x04\n      dup1\n      calldatasize\n      sub\n      dup2\n      add\n      swap1\n      tag_27\n      swap2\n      swap1\n      tag_28\n      jump\t// in\n    tag_27:\n      tag_29\n      jump\t// in\n    tag_26:\n      mload(0x40)\n      tag_30\n      swap2\n      swap1\n      tag_31\n      jump\t// in\n    tag_30:\n      mload(0x40)\n      dup1\n      swap2\n      sub\n      swap1\n      return\n        /* \"TFGv3/Contracts/CryptoFundToken.sol\":926:1022  function setOwner(address newOwner) external OnlyDeployer... */\n    tag_5:\n      tag_32\n      0x04\n      dup1\n      calldatasize\n      sub\n      dup2\n      add\n      swap1\n      tag_33\n      swap2\n      swap1\n      tag_34\n      jump\t// in\n    tag_33:\n      tag_35\n      jump\t// in\n    tag_32:\n      stop\n        /* \"TFGv3/Contracts/CryptoFundToken.sol\":1028:1140  function totalSupply() external view virtual override returns (uint256)... */\n    tag_6:\n      tag_36\n      tag_37\n      jump\t// in\n    tag_36:\n      mload(0x40)\n      tag_38\n      swap2\n      swap1\n      tag_39\n      jump\t// in\n    tag_38:\n      mload(0x40)\n      dup1\n      swap2\n      sub\n      swap1\n      return\n        /* \"TFGv3/Contracts/CryptoFundToken.sol\":1908:2133  function transferFrom(address from, address to, uint256 amount) external virtual override returns (bool)... */\n    tag_7:\n      tag_40\n      0x04\n      dup1\n      calldatasize\n      sub\n      dup2\n      add\n      swap1\n      tag_41\n      swap2\n      swap1\n      tag_42\n      jump\t// in\n    tag_41:\n      tag_43\n      jump\t// in\n    tag_40:\n      mload(0x40)\n      tag_44\n      swap2\n      swap1\n      tag_31\n      jump\t// in\n    tag_44:\n      mload(0x40)\n      dup1\n      swap2\n      sub\n      swap1\n      return\n        /* \"TFGv3/Contracts/CryptoFundToken.sol\":419:440  uint8 public decimals */\n    tag_8:\n      tag_45\n      tag_46\n      jump\t// in\n    tag_45:\n      mload(0x40)\n      tag_47\n      swap2\n      swap1\n      tag_48\n      jump\t// in\n    tag_47:\n      mload(0x40)\n      dup1\n      swap2\n      sub\n      swap1\n      return\n        /* \"TFGv3/Contracts/CryptoFundToken.sol\":2139:2353  function increaseAllowance(address spender, uint256 addedValue) external virtual returns (bool)... */\n    tag_9:\n      tag_49\n      0x04\n      dup1\n      calldatasize\n      sub\n      dup2\n      add\n      swap1\n      tag_50\n      swap2\n      swap1\n      tag_28\n      jump\t// in\n    tag_50:\n      tag_51\n      jump\t// in\n    tag_49:\n      mload(0x40)\n      tag_52\n      swap2\n      swap1\n      tag_31\n      jump\t// in\n    tag_52:\n      mload(0x40)\n      dup1\n      swap2\n      sub\n      swap1\n      return\n        /* \"TFGv3/Contracts/CryptoFundToken.sol\":335:362  uint256 public _totalSupply */\n    tag_10:\n      tag_53\n      tag_54\n      jump\t// in\n    tag_53:\n      mload(0x40)\n      tag_55\n      swap2\n      swap1\n      tag_39\n      jump\t// in\n    tag_55:\n      mload(0x40)\n      dup1\n      swap2\n      sub\n      swap1\n      return\n        /* \"TFGv3/Contracts/CryptoFundToken.sol\":4994:5154  function mint(address account, uint amount) external virtual override OnlyOwners returns (bool)... */\n    tag_11:\n      tag_56\n      0x04\n      dup1\n      calldatasize\n      sub\n      dup2\n      add\n      swap1\n      tag_57\n      swap2\n      swap1\n      tag_28\n      jump\t// in\n    tag_57:\n      tag_58\n      jump\t// in\n    tag_56:\n      mload(0x40)\n      tag_59\n      swap2\n      swap1\n      tag_31\n      jump\t// in\n    tag_59:\n      mload(0x40)\n      dup1\n      swap2\n      sub\n      swap1\n      return\n        /* \"TFGv3/Contracts/CryptoFundToken.sol\":5160:5298  function burn(uint256 amount) external virtual override returns (bool)... */\n    tag_12:\n      tag_60\n      0x04\n      dup1\n      calldatasize\n      sub\n      dup2\n      add\n      swap1\n      tag_61\n      swap2\n      swap1\n      tag_62\n      jump\t// in\n    tag_61:\n      tag_63\n      jump\t// in\n    tag_60:\n      mload(0x40)\n      tag_64\n      swap2\n      swap1\n      tag_31\n      jump\t// in\n    tag_64:\n      mload(0x40)\n      dup1\n      swap2\n      sub\n      swap1\n      return\n        /* \"TFGv3/Contracts/CryptoFundToken.sol\":1146:1277  function balanceOf(address account) external view virtual override returns (uint256)... */\n    tag_13:\n      tag_65\n      0x04\n      dup1\n      calldatasize\n      sub\n      dup2\n      add\n      swap1\n      tag_66\n      swap2\n      swap1\n      tag_34\n      jump\t// in\n    tag_66:\n      tag_67\n      jump\t// in\n    tag_65:\n      mload(0x40)\n      tag_68\n      swap2\n      swap1\n      tag_39\n      jump\t// in\n    tag_68:\n      mload(0x40)\n      dup1\n      swap2\n      sub\n      swap1\n      return\n        /* \"TFGv3/Contracts/CryptoFundToken.sol\":5304:5505  function burnFrom(address from, uint256 amount) external virtual override returns (bool)... */\n    tag_14:\n      tag_69\n      0x04\n      dup1\n      calldatasize\n      sub\n      dup2\n      add\n      swap1\n      tag_70\n      swap2\n      swap1\n      tag_28\n      jump\t// in\n    tag_70:\n      tag_71\n      jump\t// in\n    tag_69:\n      mload(0x40)\n      tag_72\n      swap2\n      swap1\n      tag_31\n      jump\t// in\n    tag_72:\n      mload(0x40)\n      dup1\n      swap2\n      sub\n      swap1\n      return\n        /* \"TFGv3/Contracts/CryptoFundToken.sol\":393:413  string public symbol */\n    tag_15:\n      tag_73\n      tag_74\n      jump\t// in\n    tag_73:\n      mload(0x40)\n      tag_75\n      swap2\n      swap1\n      tag_25\n      jump\t// in\n    tag_75:\n      mload(0x40)\n      dup1\n      swap2\n      sub\n      swap1\n      return\n        /* \"TFGv3/Contracts/CryptoFundToken.sol\":2359:2773  function decreaseAllowance(address spender, uint256 subtractedValue) external virtual returns (bool)... */\n    tag_16:\n      tag_76\n      0x04\n      dup1\n      calldatasize\n      sub\n      dup2\n      add\n      swap1\n      tag_77\n      swap2\n      swap1\n      tag_28\n      jump\t// in\n    tag_77:\n      tag_78\n      jump\t// in\n    tag_76:\n      mload(0x40)\n      tag_79\n      swap2\n      swap1\n      tag_31\n      jump\t// in\n    tag_79:\n      mload(0x40)\n      dup1\n      swap2\n      sub\n      swap1\n      return\n        /* \"TFGv3/Contracts/CryptoFundToken.sol\":1403:1565  function transfer(address to, uint256 amount) external virtual override returns (bool)... */\n    tag_17:\n      tag_80\n      0x04\n      dup1\n      calldatasize\n      sub\n      dup2\n      add\n      swap1\n      tag_81\n      swap2\n      swap1\n      tag_28\n      jump\t// in\n    tag_81:\n      tag_82\n      jump\t// in\n    tag_80:\n      mload(0x40)\n      tag_83\n      swap2\n      swap1\n      tag_31\n      jump\t// in\n    tag_83:\n      mload(0x40)\n      dup1\n      swap2\n      sub\n      swap1\n      return\n        /* \"TFGv3/Contracts/CryptoFundToken.sol\":1571:1726  function allowance(address owner, address spender) external view virtual override returns (uint256)... */\n    tag_18:\n      tag_84\n      0x04\n      dup1\n      calldatasize\n      sub\n      dup2\n      add\n      swap1\n      tag_85\n      swap2\n      swap1\n      tag_86\n      jump\t// in\n    tag_85:\n      tag_87\n      jump\t// in\n    tag_84:\n      mload(0x40)\n      tag_88\n      swap2\n      swap1\n      tag_39\n      jump\t// in\n    tag_88:\n      mload(0x40)\n      dup1\n      swap2\n      sub\n      swap1\n      return\n        /* \"TFGv3/Contracts/CryptoFundToken.sol\":369:387  string public name */\n    tag_23:\n      0x04\n      dup1\n      sload\n      tag_89\n      swap1\n      tag_90\n      jump\t// in\n    tag_89:\n      dup1\n      0x1f\n      add\n      0x20\n      dup1\n      swap2\n      div\n      mul\n      0x20\n      add\n      mload(0x40)\n      swap1\n      dup2\n      add\n      0x40\n      mstore\n      dup1\n      swap3\n      swap2\n      swap1\n      dup2\n      dup2\n      mstore\n      0x20\n      add\n      dup3\n      dup1\n      sload\n      tag_91\n      swap1\n      tag_90\n      jump\t// in\n    tag_91:\n      dup1\n      iszero\n      tag_92\n      jumpi\n      dup1\n      0x1f\n      lt\n      tag_93\n      jumpi\n      0x0100\n      dup1\n      dup4\n      sload\n      div\n      mul\n      dup4\n      mstore\n      swap2\n      0x20\n      add\n      swap2\n      jump(tag_92)\n    tag_93:\n      dup3\n      add\n      swap2\n      swap1\n      0x00\n      mstore\n      keccak256(0x00, 0x20)\n      swap1\n    tag_94:\n      dup2\n      sload\n      dup2\n      mstore\n      swap1\n      0x01\n      add\n      swap1\n      0x20\n      add\n      dup1\n      dup4\n      gt\n      tag_94\n      jumpi\n      dup3\n      swap1\n      sub\n      0x1f\n      and\n      dup3\n      add\n      swap2\n    tag_92:\n      pop\n      pop\n      pop\n      pop\n      pop\n      dup2\n      jump\t// out\n        /* \"TFGv3/Contracts/CryptoFundToken.sol\":1732:1902  function approve(address spender, uint256 amount) external virtual override returns (bool)... */\n    tag_29:\n        /* \"TFGv3/Contracts/CryptoFundToken.sol\":1817:1821  bool */\n      0x00\n        /* \"TFGv3/Contracts/CryptoFundToken.sol\":1837:1874  _approve(msg.sender, spender, amount) */\n      tag_96\n        /* \"TFGv3/Contracts/CryptoFundToken.sol\":1846:1856  msg.sender */\n      caller\n        /* \"TFGv3/Contracts/CryptoFundToken.sol\":1858:1865  spender */\n      dup5\n        /* \"TFGv3/Contracts/CryptoFundToken.sol\":1867:1873  amount */\n      dup5\n        /* \"TFGv3/Contracts/CryptoFundToken.sol\":1837:1845  _approve */\n      tag_97\n        /* \"TFGv3/Contracts/CryptoFundToken.sol\":1837:1874  _approve(msg.sender, spender, amount) */\n      jump\t// in\n    tag_96:\n        /* \"TFGv3/Contracts/CryptoFundToken.sol\":1891:1895  true */\n      0x01\n        /* \"TFGv3/Contracts/CryptoFundToken.sol\":1884:1895  return true */\n      swap1\n      pop\n        /* \"TFGv3/Contracts/CryptoFundToken.sol\":1732:1902  function approve(address spender, uint256 amount) external virtual override returns (bool)... */\n      swap3\n      swap2\n      pop\n      pop\n      jump\t// out\n        /* \"TFGv3/Contracts/CryptoFundToken.sol\":926:1022  function setOwner(address newOwner) external OnlyDeployer... */\n    tag_35:\n        /* \"TFGv3/Contracts/CryptoFundToken.sol\":735:743  deployer */\n      immutable(\"0x277ab82e5a4641341820a4a2933a62c1de997e42e92548657ae21b3728d580fe\")\n        /* \"TFGv3/Contracts/CryptoFundToken.sol\":721:743  msg.sender == deployer */\n      0xffffffffffffffffffffffffffffffffffffffff\n      and\n        /* \"TFGv3/Contracts/CryptoFundToken.sol\":721:731  msg.sender */\n      caller\n        /* \"TFGv3/Contracts/CryptoFundToken.sol\":721:743  msg.sender == deployer */\n      0xffffffffffffffffffffffffffffffffffffffff\n      and\n      eq\n        /* \"TFGv3/Contracts/CryptoFundToken.sol\":713:767  require(msg.sender == deployer, \"Sender not deployer\") */\n      tag_99\n      jumpi\n      mload(0x40)\n      0x08c379a000000000000000000000000000000000000000000000000000000000\n      dup2\n      mstore\n      0x04\n      add\n      tag_100\n      swap1\n      tag_101\n      jump\t// in\n    tag_100:\n      mload(0x40)\n      dup1\n      swap2\n      sub\n      swap1\n      revert\n    tag_99:\n        /* \"TFGv3/Contracts/CryptoFundToken.sol\":1007:1015  newOwner */\n      dup1\n        /* \"TFGv3/Contracts/CryptoFundToken.sol\":998:1004  _owner */\n      0x02\n      0x00\n        /* \"TFGv3/Contracts/CryptoFundToken.sol\":998:1015  _owner = newOwner */\n      0x0100\n      exp\n      dup2\n      sload\n      dup2\n      0xffffffffffffffffffffffffffffffffffffffff\n      mul\n      not\n      and\n      swap1\n      dup4\n      0xffffffffffffffffffffffffffffffffffffffff\n      and\n      mul\n      or\n      swap1\n      sstore\n      pop\n        /* \"TFGv3/Contracts/CryptoFundToken.sol\":926:1022  function setOwner(address newOwner) external OnlyDeployer... */\n      pop\n      jump\t// out\n        /* \"TFGv3/Contracts/CryptoFundToken.sol\":1028:1140  function totalSupply() external view virtual override returns (uint256)... */\n    tag_37:\n        /* \"TFGv3/Contracts/CryptoFundToken.sol\":1091:1098  uint256 */\n      0x00\n        /* \"TFGv3/Contracts/CryptoFundToken.sol\":1121:1133  _totalSupply */\n      sload(0x03)\n        /* \"TFGv3/Contracts/CryptoFundToken.sol\":1114:1133  return _totalSupply */\n      swap1\n      pop\n        /* \"TFGv3/Contracts/CryptoFundToken.sol\":1028:1140  function totalSupply() external view virtual override returns (uint256)... */\n      swap1\n      jump\t// out\n        /* \"TFGv3/Contracts/CryptoFundToken.sol\":1908:2133  function transferFrom(address from, address to, uint256 amount) external virtual override returns (bool)... */\n    tag_43:\n        /* \"TFGv3/Contracts/CryptoFundToken.sol\":2007:2011  bool */\n      0x00\n        /* \"TFGv3/Contracts/CryptoFundToken.sol\":2027:2068  _spendAllowance(from, msg.sender, amount) */\n      tag_105\n        /* \"TFGv3/Contracts/CryptoFundToken.sol\":2043:2047  from */\n      dup5\n        /* \"TFGv3/Contracts/CryptoFundToken.sol\":2049:2059  msg.sender */\n      caller\n        /* \"TFGv3/Contracts/CryptoFundToken.sol\":2061:2067  amount */\n      dup5\n        /* \"TFGv3/Contracts/CryptoFundToken.sol\":2027:2042  _spendAllowance */\n      tag_106\n        /* \"TFGv3/Contracts/CryptoFundToken.sol\":2027:2068  _spendAllowance(from, msg.sender, amount) */\n      jump\t// in\n    tag_105:\n        /* \"TFGv3/Contracts/CryptoFundToken.sol\":2078:2105  _transfer(from, to, amount) */\n      tag_107\n        /* \"TFGv3/Contracts/CryptoFundToken.sol\":2088:2092  from */\n      dup5\n        /* \"TFGv3/Contracts/CryptoFundToken.sol\":2094:2096  to */\n      dup5\n        /* \"TFGv3/Contracts/CryptoFundToken.sol\":2098:2104  amount */\n      dup5\n        /* \"TFGv3/Contracts/CryptoFundToken.sol\":2078:2087  _transfer */\n      tag_108\n        /* \"TFGv3/Contracts/CryptoFundToken.sol\":2078:2105  _transfer(from, to, amount) */\n      jump\t// in\n    tag_107:\n        /* \"TFGv3/Contracts/CryptoFundToken.sol\":2122:2126  true */\n      0x01\n        /* \"TFGv3/Contracts/CryptoFundToken.sol\":2115:2126  return true */\n      swap1\n      pop\n        /* \"TFGv3/Contracts/CryptoFundToken.sol\":1908:2133  function transferFrom(address from, address to, uint256 amount) external virtual override returns (bool)... */\n      swap4\n      swap3\n      pop\n      pop\n      pop\n      jump\t// out\n        /* \"TFGv3/Contracts/CryptoFundToken.sol\":419:440  uint8 public decimals */\n    tag_46:\n      0x06\n      0x00\n      swap1\n      sload\n      swap1\n      0x0100\n      exp\n      swap1\n      div\n      0xff\n      and\n      dup2\n      jump\t// out\n        /* \"TFGv3/Contracts/CryptoFundToken.sol\":2139:2353  function increaseAllowance(address spender, uint256 addedValue) external virtual returns (bool)... */\n    tag_51:\n        /* \"TFGv3/Contracts/CryptoFundToken.sol\":2229:2233  bool */\n      0x00\n        /* \"TFGv3/Contracts/CryptoFundToken.sol\":2249:2325  _approve(msg.sender, spender, _allowances[msg.sender][spender] + addedValue) */\n      tag_110\n        /* \"TFGv3/Contracts/CryptoFundToken.sol\":2258:2268  msg.sender */\n      caller\n        /* \"TFGv3/Contracts/CryptoFundToken.sol\":2270:2277  spender */\n      dup5\n        /* \"TFGv3/Contracts/CryptoFundToken.sol\":2314:2324  addedValue */\n      dup5\n        /* \"TFGv3/Contracts/CryptoFundToken.sol\":2279:2290  _allowances */\n      0x01\n        /* \"TFGv3/Contracts/CryptoFundToken.sol\":2279:2302  _allowances[msg.sender] */\n      0x00\n        /* \"TFGv3/Contracts/CryptoFundToken.sol\":2291:2301  msg.sender */\n      caller\n        /* \"TFGv3/Contracts/CryptoFundToken.sol\":2279:2302  _allowances[msg.sender] */\n      0xffffffffffffffffffffffffffffffffffffffff\n      and\n      0xffffffffffffffffffffffffffffffffffffffff\n      and\n      dup2\n      mstore\n      0x20\n      add\n      swap1\n      dup2\n      mstore\n      0x20\n      add\n      0x00\n      keccak256\n        /* \"TFGv3/Contracts/CryptoFundToken.sol\":2279:2311  _allowances[msg.sender][spender] */\n      0x00\n        /* \"TFGv3/Contracts/CryptoFundToken.sol\":2303:2310  spender */\n      dup9\n        /* \"TFGv3/Contracts/CryptoFundToken.sol\":2279:2311  _allowances[msg.sender][spender] */\n      0xffffffffffffffffffffffffffffffffffffffff\n      and\n      0xffffffffffffffffffffffffffffffffffffffff\n      and\n      dup2\n      mstore\n      0x20\n      add\n      swap1\n      dup2\n      mstore\n      0x20\n      add\n      0x00\n      keccak256\n      sload\n        /* \"TFGv3/Contracts/CryptoFundToken.sol\":2279:2324  _allowances[msg.sender][spender] + addedValue */\n      tag_111\n      swap2\n      swap1\n      tag_112\n      jump\t// in\n    tag_111:\n        /* \"TFGv3/Contracts/CryptoFundToken.sol\":2249:2257  _approve */\n      tag_97\n        /* \"TFGv3/Contracts/CryptoFundToken.sol\":2249:2325  _approve(msg.sender, spender, _allowances[msg.sender][spender] + addedValue) */\n      jump\t// in\n    tag_110:\n        /* \"TFGv3/Contracts/CryptoFundToken.sol\":2342:2346  true */\n      0x01\n        /* \"TFGv3/Contracts/CryptoFundToken.sol\":2335:2346  return true */\n      swap1\n      pop\n        /* \"TFGv3/Contracts/CryptoFundToken.sol\":2139:2353  function increaseAllowance(address spender, uint256 addedValue) external virtual returns (bool)... */\n      swap3\n      swap2\n      pop\n      pop\n      jump\t// out\n        /* \"TFGv3/Contracts/CryptoFundToken.sol\":335:362  uint256 public _totalSupply */\n    tag_54:\n      sload(0x03)\n      dup2\n      jump\t// out\n        /* \"TFGv3/Contracts/CryptoFundToken.sol\":4994:5154  function mint(address account, uint amount) external virtual override OnlyOwners returns (bool)... */\n    tag_58:\n        /* \"TFGv3/Contracts/CryptoFundToken.sol\":5084:5088  bool */\n      0x00\n        /* \"TFGv3/Contracts/CryptoFundToken.sol\":849:855  _owner */\n      0x02\n      0x00\n      swap1\n      sload\n      swap1\n      0x0100\n      exp\n      swap1\n      div\n      0xffffffffffffffffffffffffffffffffffffffff\n      and\n        /* \"TFGv3/Contracts/CryptoFundToken.sol\":835:855  msg.sender == _owner */\n      0xffffffffffffffffffffffffffffffffffffffff\n      and\n        /* \"TFGv3/Contracts/CryptoFundToken.sol\":835:845  msg.sender */\n      caller\n        /* \"TFGv3/Contracts/CryptoFundToken.sol\":835:855  msg.sender == _owner */\n      0xffffffffffffffffffffffffffffffffffffffff\n      and\n      eq\n        /* \"TFGv3/Contracts/CryptoFundToken.sol\":835:881  msg.sender == _owner || msg.sender == deployer */\n      dup1\n      tag_114\n      jumpi\n      pop\n        /* \"TFGv3/Contracts/CryptoFundToken.sol\":873:881  deployer */\n      immutable(\"0x277ab82e5a4641341820a4a2933a62c1de997e42e92548657ae21b3728d580fe\")\n        /* \"TFGv3/Contracts/CryptoFundToken.sol\":859:881  msg.sender == deployer */\n      0xffffffffffffffffffffffffffffffffffffffff\n      and\n        /* \"TFGv3/Contracts/CryptoFundToken.sol\":859:869  msg.sender */\n      caller\n        /* \"TFGv3/Contracts/CryptoFundToken.sol\":859:881  msg.sender == deployer */\n      0xffffffffffffffffffffffffffffffffffffffff\n      and\n      eq\n        /* \"TFGv3/Contracts/CryptoFundToken.sol\":835:881  msg.sender == _owner || msg.sender == deployer */\n    tag_114:\n        /* \"TFGv3/Contracts/CryptoFundToken.sol\":827:902  require(msg.sender == _owner || msg.sender == deployer, \"Sender not owner\") */\n      tag_115\n      jumpi\n      mload(0x40)\n      0x08c379a000000000000000000000000000000000000000000000000000000000\n      dup2\n      mstore\n      0x04\n      add\n      tag_116\n      swap1\n      tag_117\n      jump\t// in\n    tag_116:\n      mload(0x40)\n      dup1\n      swap2\n      sub\n      swap1\n      revert\n    tag_115:\n        /* \"TFGv3/Contracts/CryptoFundToken.sol\":5104:5126  _mint(account, amount) */\n      tag_119\n        /* \"TFGv3/Contracts/CryptoFundToken.sol\":5110:5117  account */\n      dup4\n        /* \"TFGv3/Contracts/CryptoFundToken.sol\":5119:5125  amount */\n      dup4\n        /* \"TFGv3/Contracts/CryptoFundToken.sol\":5104:5109  _mint */\n      tag_120\n        /* \"TFGv3/Contracts/CryptoFundToken.sol\":5104:5126  _mint(account, amount) */\n      jump\t// in\n    tag_119:\n        /* \"TFGv3/Contracts/CryptoFundToken.sol\":5143:5147  true */\n      0x01\n        /* \"TFGv3/Contracts/CryptoFundToken.sol\":5136:5147  return true */\n      swap1\n      pop\n        /* \"TFGv3/Contracts/CryptoFundToken.sol\":4994:5154  function mint(address account, uint amount) external virtual override OnlyOwners returns (bool)... */\n      swap3\n      swap2\n      pop\n      pop\n      jump\t// out\n        /* \"TFGv3/Contracts/CryptoFundToken.sol\":5160:5298  function burn(uint256 amount) external virtual override returns (bool)... */\n    tag_63:\n        /* \"TFGv3/Contracts/CryptoFundToken.sol\":5225:5229  bool */\n      0x00\n        /* \"TFGv3/Contracts/CryptoFundToken.sol\":5245:5270  _burn(msg.sender, amount) */\n      tag_122\n        /* \"TFGv3/Contracts/CryptoFundToken.sol\":5251:5261  msg.sender */\n      caller\n        /* \"TFGv3/Contracts/CryptoFundToken.sol\":5263:5269  amount */\n      dup4\n        /* \"TFGv3/Contracts/CryptoFundToken.sol\":5245:5250  _burn */\n      tag_123\n        /* \"TFGv3/Contracts/CryptoFundToken.sol\":5245:5270  _burn(msg.sender, amount) */\n      jump\t// in\n    tag_122:\n        /* \"TFGv3/Contracts/CryptoFundToken.sol\":5287:5291  true */\n      0x01\n        /* \"TFGv3/Contracts/CryptoFundToken.sol\":5280:5291  return true */\n      swap1\n      pop\n        /* \"TFGv3/Contracts/CryptoFundToken.sol\":5160:5298  function burn(uint256 amount) external virtual override returns (bool)... */\n      swap2\n      swap1\n      pop\n      jump\t// out\n        /* \"TFGv3/Contracts/CryptoFundToken.sol\":1146:1277  function balanceOf(address account) external view virtual override returns (uint256)... */\n    tag_67:\n        /* \"TFGv3/Contracts/CryptoFundToken.sol\":1222:1229  uint256 */\n      0x00\n        /* \"TFGv3/Contracts/CryptoFundToken.sol\":1252:1261  _balances */\n      dup1\n        /* \"TFGv3/Contracts/CryptoFundToken.sol\":1252:1270  _balances[account] */\n      0x00\n        /* \"TFGv3/Contracts/CryptoFundToken.sol\":1262:1269  account */\n      dup4\n        /* \"TFGv3/Contracts/CryptoFundToken.sol\":1252:1270  _balances[account] */\n      0xffffffffffffffffffffffffffffffffffffffff\n      and\n      0xffffffffffffffffffffffffffffffffffffffff\n      and\n      dup2\n      mstore\n      0x20\n      add\n      swap1\n      dup2\n      mstore\n      0x20\n      add\n      0x00\n      keccak256\n      sload\n        /* \"TFGv3/Contracts/CryptoFundToken.sol\":1245:1270  return _balances[account] */\n      swap1\n      pop\n        /* \"TFGv3/Contracts/CryptoFundToken.sol\":1146:1277  function balanceOf(address account) external view virtual override returns (uint256)... */\n      swap2\n      swap1\n      pop\n      jump\t// out\n        /* \"TFGv3/Contracts/CryptoFundToken.sol\":5304:5505  function burnFrom(address from, uint256 amount) external virtual override returns (bool)... */\n    tag_71:\n        /* \"TFGv3/Contracts/CryptoFundToken.sol\":5387:5391  bool */\n      0x00\n        /* \"TFGv3/Contracts/CryptoFundToken.sol\":5407:5448  _spendAllowance(from, msg.sender, amount) */\n      tag_126\n        /* \"TFGv3/Contracts/CryptoFundToken.sol\":5423:5427  from */\n      dup4\n        /* \"TFGv3/Contracts/CryptoFundToken.sol\":5429:5439  msg.sender */\n      caller\n        /* \"TFGv3/Contracts/CryptoFundToken.sol\":5441:5447  amount */\n      dup5\n        /* \"TFGv3/Contracts/CryptoFundToken.sol\":5407:5422  _spendAllowance */\n      tag_106\n        /* \"TFGv3/Contracts/CryptoFundToken.sol\":5407:5448  _spendAllowance(from, msg.sender, amount) */\n      jump\t// in\n    tag_126:\n        /* \"TFGv3/Contracts/CryptoFundToken.sol\":5458:5477  _burn(from, amount) */\n      tag_127\n        /* \"TFGv3/Contracts/CryptoFundToken.sol\":5464:5468  from */\n      dup4\n        /* \"TFGv3/Contracts/CryptoFundToken.sol\":5470:5476  amount */\n      dup4\n        /* \"TFGv3/Contracts/CryptoFundToken.sol\":5458:5463  _burn */\n      tag_123\n        /* \"TFGv3/Contracts/CryptoFundToken.sol\":5458:5477  _burn(from, amount) */\n      jump\t// in\n    tag_127:\n        /* \"TFGv3/Contracts/CryptoFundToken.sol\":5494:5498  true */\n      0x01\n        /* \"TFGv3/Contracts/CryptoFundToken.sol\":5487:5498  return true */\n      swap1\n      pop\n        /* \"TFGv3/Contracts/CryptoFundToken.sol\":5304:5505  function burnFrom(address from, uint256 amount) external virtual override returns (bool)... */\n      swap3\n      swap2\n      pop\n      pop\n      jump\t// out\n        /* \"TFGv3/Contracts/CryptoFundToken.sol\":393:413  string public symbol */\n    tag_74:\n      0x05\n      dup1\n      sload\n      tag_128\n      swap1\n      tag_90\n      jump\t// in\n    tag_128:\n      dup1\n      0x1f\n      add\n      0x20\n      dup1\n      swap2\n      div\n      mul\n      0x20\n      add\n      mload(0x40)\n      swap1\n      dup2\n      add\n      0x40\n      mstore\n      dup1\n      swap3\n      swap2\n      swap1\n      dup2\n      dup2\n      mstore\n      0x20\n      add\n      dup3\n      dup1\n      sload\n      tag_129\n      swap1\n      tag_90\n      jump\t// in\n    tag_129:\n      dup1\n      iszero\n      tag_130\n      jumpi\n      dup1\n      0x1f\n      lt\n      tag_131\n      jumpi\n      0x0100\n      dup1\n      dup4\n      sload\n      div\n      mul\n      dup4\n      mstore\n      swap2\n      0x20\n      add\n      swap2\n      jump(tag_130)\n    tag_131:\n      dup3\n      add\n      swap2\n      swap1\n      0x00\n      mstore\n      keccak256(0x00, 0x20)\n      swap1\n    tag_132:\n      dup2\n      sload\n      dup2\n      mstore\n      swap1\n      0x01\n      add\n      swap1\n      0x20\n      add\n      dup1\n      dup4\n      gt\n      tag_132\n      jumpi\n      dup3\n      swap1\n      sub\n      0x1f\n      and\n      dup3\n      add\n      swap2\n    tag_130:\n      pop\n      pop\n      pop\n      pop\n      pop\n      dup2\n      jump\t// out\n        /* \"TFGv3/Contracts/CryptoFundToken.sol\":2359:2773  function decreaseAllowance(address spender, uint256 subtractedValue) external virtual returns (bool)... */\n    tag_78:\n        /* \"TFGv3/Contracts/CryptoFundToken.sol\":2454:2458  bool */\n      0x00\n        /* \"TFGv3/Contracts/CryptoFundToken.sol\":2474:2498  uint256 currentAllowance */\n      dup1\n        /* \"TFGv3/Contracts/CryptoFundToken.sol\":2501:2512  _allowances */\n      0x01\n        /* \"TFGv3/Contracts/CryptoFundToken.sol\":2501:2524  _allowances[msg.sender] */\n      0x00\n        /* \"TFGv3/Contracts/CryptoFundToken.sol\":2513:2523  msg.sender */\n      caller\n        /* \"TFGv3/Contracts/CryptoFundToken.sol\":2501:2524  _allowances[msg.sender] */\n      0xffffffffffffffffffffffffffffffffffffffff\n      and\n      0xffffffffffffffffffffffffffffffffffffffff\n      and\n      dup2\n      mstore\n      0x20\n      add\n      swap1\n      dup2\n      mstore\n      0x20\n      add\n      0x00\n      keccak256\n        /* \"TFGv3/Contracts/CryptoFundToken.sol\":2501:2533  _allowances[msg.sender][spender] */\n      0x00\n        /* \"TFGv3/Contracts/CryptoFundToken.sol\":2525:2532  spender */\n      dup6\n        /* \"TFGv3/Contracts/CryptoFundToken.sol\":2501:2533  _allowances[msg.sender][spender] */\n      0xffffffffffffffffffffffffffffffffffffffff\n      and\n      0xffffffffffffffffffffffffffffffffffffffff\n      and\n      dup2\n      mstore\n      0x20\n      add\n      swap1\n      dup2\n      mstore\n      0x20\n      add\n      0x00\n      keccak256\n      sload\n        /* \"TFGv3/Contracts/CryptoFundToken.sol\":2474:2533  uint256 currentAllowance = _allowances[msg.sender][spender] */\n      swap1\n      pop\n        /* \"TFGv3/Contracts/CryptoFundToken.sol\":2571:2586  subtractedValue */\n      dup3\n        /* \"TFGv3/Contracts/CryptoFundToken.sol\":2551:2567  currentAllowance */\n      dup2\n        /* \"TFGv3/Contracts/CryptoFundToken.sol\":2551:2586  currentAllowance >= subtractedValue */\n      lt\n      iszero\n        /* \"TFGv3/Contracts/CryptoFundToken.sol\":2543:2628  require(currentAllowance >= subtractedValue, \"ERC20: decreased allowance below zero\") */\n      tag_134\n      jumpi\n      mload(0x40)\n      0x08c379a000000000000000000000000000000000000000000000000000000000\n      dup2\n      mstore\n      0x04\n      add\n      tag_135\n      swap1\n      tag_136\n      jump\t// in\n    tag_135:\n      mload(0x40)\n      dup1\n      swap2\n      sub\n      swap1\n      revert\n    tag_134:\n        /* \"TFGv3/Contracts/CryptoFundToken.sol\":2670:2735  _approve(msg.sender, spender, currentAllowance - subtractedValue) */\n      tag_137\n        /* \"TFGv3/Contracts/CryptoFundToken.sol\":2679:2689  msg.sender */\n      caller\n        /* \"TFGv3/Contracts/CryptoFundToken.sol\":2691:2698  spender */\n      dup6\n        /* \"TFGv3/Contracts/CryptoFundToken.sol\":2719:2734  subtractedValue */\n      dup6\n        /* \"TFGv3/Contracts/CryptoFundToken.sol\":2700:2716  currentAllowance */\n      dup5\n        /* \"TFGv3/Contracts/CryptoFundToken.sol\":2700:2734  currentAllowance - subtractedValue */\n      sub\n        /* \"TFGv3/Contracts/CryptoFundToken.sol\":2670:2678  _approve */\n      tag_97\n        /* \"TFGv3/Contracts/CryptoFundToken.sol\":2670:2735  _approve(msg.sender, spender, currentAllowance - subtractedValue) */\n      jump\t// in\n    tag_137:\n        /* \"TFGv3/Contracts/CryptoFundToken.sol\":2762:2766  true */\n      0x01\n        /* \"TFGv3/Contracts/CryptoFundToken.sol\":2755:2766  return true */\n      swap2\n      pop\n      pop\n        /* \"TFGv3/Contracts/CryptoFundToken.sol\":2359:2773  function decreaseAllowance(address spender, uint256 subtractedValue) external virtual returns (bool)... */\n      swap3\n      swap2\n      pop\n      pop\n      jump\t// out\n        /* \"TFGv3/Contracts/CryptoFundToken.sol\":1403:1565  function transfer(address to, uint256 amount) external virtual override returns (bool)... */\n    tag_82:\n        /* \"TFGv3/Contracts/CryptoFundToken.sol\":1484:1488  bool */\n      0x00\n        /* \"TFGv3/Contracts/CryptoFundToken.sol\":1504:1537  _transfer(msg.sender, to, amount) */\n      tag_139\n        /* \"TFGv3/Contracts/CryptoFundToken.sol\":1514:1524  msg.sender */\n      caller\n        /* \"TFGv3/Contracts/CryptoFundToken.sol\":1526:1528  to */\n      dup5\n        /* \"TFGv3/Contracts/CryptoFundToken.sol\":1530:1536  amount */\n      dup5\n        /* \"TFGv3/Contracts/CryptoFundToken.sol\":1504:1513  _transfer */\n      tag_108\n        /* \"TFGv3/Contracts/CryptoFundToken.sol\":1504:1537  _transfer(msg.sender, to, amount) */\n      jump\t// in\n    tag_139:\n        /* \"TFGv3/Contracts/CryptoFundToken.sol\":1554:1558  true */\n      0x01\n        /* \"TFGv3/Contracts/CryptoFundToken.sol\":1547:1558  return true */\n      swap1\n      pop\n        /* \"TFGv3/Contracts/CryptoFundToken.sol\":1403:1565  function transfer(address to, uint256 amount) external virtual override returns (bool)... */\n      swap3\n      swap2\n      pop\n      pop\n      jump\t// out\n        /* \"TFGv3/Contracts/CryptoFundToken.sol\":1571:1726  function allowance(address owner, address spender) external view virtual override returns (uint256)... */\n    tag_87:\n        /* \"TFGv3/Contracts/CryptoFundToken.sol\":1662:1669  uint256 */\n      0x00\n        /* \"TFGv3/Contracts/CryptoFundToken.sol\":1692:1703  _allowances */\n      0x01\n        /* \"TFGv3/Contracts/CryptoFundToken.sol\":1692:1710  _allowances[owner] */\n      0x00\n        /* \"TFGv3/Contracts/CryptoFundToken.sol\":1704:1709  owner */\n      dup5\n        /* \"TFGv3/Contracts/CryptoFundToken.sol\":1692:1710  _allowances[owner] */\n      0xffffffffffffffffffffffffffffffffffffffff\n      and\n      0xffffffffffffffffffffffffffffffffffffffff\n      and\n      dup2\n      mstore\n      0x20\n      add\n      swap1\n      dup2\n      mstore\n      0x20\n      add\n      0x00\n      keccak256\n        /* \"TFGv3/Contracts/CryptoFundToken.sol\":1692:1719  _allowances[owner][spender] */\n      0x00\n        /* \"TFGv3/Contracts/CryptoFundToken.sol\":1711:1718  spender */\n      dup4\n        /* \"TFGv3/Contracts/CryptoFundToken.sol\":1692:1719  _allowances[owner][spender] */\n      0xffffffffffffffffffffffffffffffffffffffff\n      and\n      0xffffffffffffffffffffffffffffffffffffffff\n      and\n      dup2\n      mstore\n      0x20\n      add\n      swap1\n      dup2\n      mstore\n      0x20\n      add\n      0x00\n      keccak256\n      sload\n        /* \"TFGv3/Contracts/CryptoFundToken.sol\":1685:1719  return _allowances[owner][spender] */\n      swap1\n      pop\n        /* \"TFGv3/Contracts/CryptoFundToken.sol\":1571:1726  function allowance(address owner, address spender) external view virtual override returns (uint256)... */\n      swap3\n      swap2\n      pop\n      pop\n      jump\t// out\n        /* \"TFGv3/Contracts/CryptoFundToken.sol\":4076:4420  function _approve(address owner, address spender, uint256 amount) internal virtual... */\n    tag_97:\n        /* \"TFGv3/Contracts/CryptoFundToken.sol\":4198:4199  0 */\n      0x00\n        /* \"TFGv3/Contracts/CryptoFundToken.sol\":4181:4200  owner != address(0) */\n      0xffffffffffffffffffffffffffffffffffffffff\n      and\n        /* \"TFGv3/Contracts/CryptoFundToken.sol\":4181:4186  owner */\n      dup4\n        /* \"TFGv3/Contracts/CryptoFundToken.sol\":4181:4200  owner != address(0) */\n      0xffffffffffffffffffffffffffffffffffffffff\n      and\n      sub\n        /* \"TFGv3/Contracts/CryptoFundToken.sol\":4173:4241  require(owner != address(0), \"ERC20: approve from the zero address\") */\n      tag_142\n      jumpi\n      mload(0x40)\n      0x08c379a000000000000000000000000000000000000000000000000000000000\n      dup2\n      mstore\n      0x04\n      add\n      tag_143\n      swap1\n      tag_144\n      jump\t// in\n    tag_143:\n      mload(0x40)\n      dup1\n      swap2\n      sub\n      swap1\n      revert\n    tag_142:\n        /* \"TFGv3/Contracts/CryptoFundToken.sol\":4278:4279  0 */\n      0x00\n        /* \"TFGv3/Contracts/CryptoFundToken.sol\":4259:4280  spender != address(0) */\n      0xffffffffffffffffffffffffffffffffffffffff\n      and\n        /* \"TFGv3/Contracts/CryptoFundToken.sol\":4259:4266  spender */\n      dup3\n        /* \"TFGv3/Contracts/CryptoFundToken.sol\":4259:4280  spender != address(0) */\n      0xffffffffffffffffffffffffffffffffffffffff\n      and\n      sub\n        /* \"TFGv3/Contracts/CryptoFundToken.sol\":4251:4319  require(spender != address(0), \"ERC20: approve to the zero address\") */\n      tag_145\n      jumpi\n      mload(0x40)\n      0x08c379a000000000000000000000000000000000000000000000000000000000\n      dup2\n      mstore\n      0x04\n      add\n      tag_146\n      swap1\n      tag_147\n      jump\t// in\n    tag_146:\n      mload(0x40)\n      dup1\n      swap2\n      sub\n      swap1\n      revert\n    tag_145:\n        /* \"TFGv3/Contracts/CryptoFundToken.sol\":4360:4366  amount */\n      dup1\n        /* \"TFGv3/Contracts/CryptoFundToken.sol\":4330:4341  _allowances */\n      0x01\n        /* \"TFGv3/Contracts/CryptoFundToken.sol\":4330:4348  _allowances[owner] */\n      0x00\n        /* \"TFGv3/Contracts/CryptoFundToken.sol\":4342:4347  owner */\n      dup6\n        /* \"TFGv3/Contracts/CryptoFundToken.sol\":4330:4348  _allowances[owner] */\n      0xffffffffffffffffffffffffffffffffffffffff\n      and\n      0xffffffffffffffffffffffffffffffffffffffff\n      and\n      dup2\n      mstore\n      0x20\n      add\n      swap1\n      dup2\n      mstore\n      0x20\n      add\n      0x00\n      keccak256\n        /* \"TFGv3/Contracts/CryptoFundToken.sol\":4330:4357  _allowances[owner][spender] */\n      0x00\n        /* \"TFGv3/Contracts/CryptoFundToken.sol\":4349:4356  spender */\n      dup5\n        /* \"TFGv3/Contracts/CryptoFundToken.sol\":4330:4357  _allowances[owner][spender] */\n      0xffffffffffffffffffffffffffffffffffffffff\n      and\n      0xffffffffffffffffffffffffffffffffffffffff\n      and\n      dup2\n      mstore\n      0x20\n      add\n      swap1\n      dup2\n      mstore\n      0x20\n      add\n      0x00\n      keccak256\n        /* \"TFGv3/Contracts/CryptoFundToken.sol\":4330:4366  _allowances[owner][spender] = amount */\n      dup2\n      swap1\n      sstore\n      pop\n        /* \"TFGv3/Contracts/CryptoFundToken.sol\":4397:4404  spender */\n      dup2\n        /* \"TFGv3/Contracts/CryptoFundToken.sol\":4381:4413  Approval(owner, spender, amount) */\n      0xffffffffffffffffffffffffffffffffffffffff\n      and\n        /* \"TFGv3/Contracts/CryptoFundToken.sol\":4390:4395  owner */\n      dup4\n        /* \"TFGv3/Contracts/CryptoFundToken.sol\":4381:4413  Approval(owner, spender, amount) */\n      0xffffffffffffffffffffffffffffffffffffffff\n      and\n      0x8c5be1e5ebec7d5bd14f71427d1e84f3dd0314c0f7b2291e5b200ac8c7c3b925\n        /* \"TFGv3/Contracts/CryptoFundToken.sol\":4406:4412  amount */\n      dup4\n        /* \"TFGv3/Contracts/CryptoFundToken.sol\":4381:4413  Approval(owner, spender, amount) */\n      mload(0x40)\n      tag_148\n      swap2\n      swap1\n      tag_39\n      jump\t// in\n    tag_148:\n      mload(0x40)\n      dup1\n      swap2\n      sub\n      swap1\n      log3\n        /* \"TFGv3/Contracts/CryptoFundToken.sol\":4076:4420  function _approve(address owner, address spender, uint256 amount) internal virtual... */\n      pop\n      pop\n      pop\n      jump\t// out\n        /* \"TFGv3/Contracts/CryptoFundToken.sol\":4426:4868  function _spendAllowance(address owner, address spender, uint256 amount) internal virtual... */\n    tag_106:\n        /* \"TFGv3/Contracts/CryptoFundToken.sol\":4530:4554  uint256 currentAllowance */\n      0x00\n        /* \"TFGv3/Contracts/CryptoFundToken.sol\":4557:4568  _allowances */\n      0x01\n        /* \"TFGv3/Contracts/CryptoFundToken.sol\":4557:4580  _allowances[msg.sender] */\n      0x00\n        /* \"TFGv3/Contracts/CryptoFundToken.sol\":4569:4579  msg.sender */\n      caller\n        /* \"TFGv3/Contracts/CryptoFundToken.sol\":4557:4580  _allowances[msg.sender] */\n      0xffffffffffffffffffffffffffffffffffffffff\n      and\n      0xffffffffffffffffffffffffffffffffffffffff\n      and\n      dup2\n      mstore\n      0x20\n      add\n      swap1\n      dup2\n      mstore\n      0x20\n      add\n      0x00\n      keccak256\n        /* \"TFGv3/Contracts/CryptoFundToken.sol\":4557:4589  _allowances[msg.sender][spender] */\n      0x00\n        /* \"TFGv3/Contracts/CryptoFundToken.sol\":4581:4588  spender */\n      dup5\n        /* \"TFGv3/Contracts/CryptoFundToken.sol\":4557:4589  _allowances[msg.sender][spender] */\n      0xffffffffffffffffffffffffffffffffffffffff\n      and\n      0xffffffffffffffffffffffffffffffffffffffff\n      and\n      dup2\n      mstore\n      0x20\n      add\n      swap1\n      dup2\n      mstore\n      0x20\n      add\n      0x00\n      keccak256\n      sload\n        /* \"TFGv3/Contracts/CryptoFundToken.sol\":4530:4589  uint256 currentAllowance = _allowances[msg.sender][spender] */\n      swap1\n      pop\n        /* \"TFGv3/Contracts/CryptoFundToken.sol\":4623:4640  type(uint256).max */\n      0xffffffffffffffffffffffffffffffffffffffffffffffffffffffffffffffff\n        /* \"TFGv3/Contracts/CryptoFundToken.sol\":4603:4619  currentAllowance */\n      dup2\n        /* \"TFGv3/Contracts/CryptoFundToken.sol\":4603:4640  currentAllowance != type(uint256).max */\n      eq\n        /* \"TFGv3/Contracts/CryptoFundToken.sol\":4599:4862  if (currentAllowance != type(uint256).max)... */\n      tag_150\n      jumpi\n        /* \"TFGv3/Contracts/CryptoFundToken.sol\":4692:4698  amount */\n      dup2\n        /* \"TFGv3/Contracts/CryptoFundToken.sol\":4672:4688  currentAllowance */\n      dup2\n        /* \"TFGv3/Contracts/CryptoFundToken.sol\":4672:4698  currentAllowance >= amount */\n      lt\n      iszero\n        /* \"TFGv3/Contracts/CryptoFundToken.sol\":4664:4732  require(currentAllowance >= amount, \"ERC20: insufficient allowance\") */\n      tag_151\n      jumpi\n      mload(0x40)\n      0x08c379a000000000000000000000000000000000000000000000000000000000\n      dup2\n      mstore\n      0x04\n      add\n      tag_152\n      swap1\n      tag_153\n      jump\t// in\n    tag_152:\n      mload(0x40)\n      dup1\n      swap2\n      sub\n      swap1\n      revert\n    tag_151:\n        /* \"TFGv3/Contracts/CryptoFundToken.sol\":4786:4837  _approve(owner, spender, currentAllowance - amount) */\n      tag_154\n        /* \"TFGv3/Contracts/CryptoFundToken.sol\":4795:4800  owner */\n      dup5\n        /* \"TFGv3/Contracts/CryptoFundToken.sol\":4802:4809  spender */\n      dup5\n        /* \"TFGv3/Contracts/CryptoFundToken.sol\":4830:4836  amount */\n      dup5\n        /* \"TFGv3/Contracts/CryptoFundToken.sol\":4811:4827  currentAllowance */\n      dup5\n        /* \"TFGv3/Contracts/CryptoFundToken.sol\":4811:4836  currentAllowance - amount */\n      sub\n        /* \"TFGv3/Contracts/CryptoFundToken.sol\":4786:4794  _approve */\n      tag_97\n        /* \"TFGv3/Contracts/CryptoFundToken.sol\":4786:4837  _approve(owner, spender, currentAllowance - amount) */\n      jump\t// in\n    tag_154:\n        /* \"TFGv3/Contracts/CryptoFundToken.sol\":4599:4862  if (currentAllowance != type(uint256).max)... */\n    tag_150:\n        /* \"TFGv3/Contracts/CryptoFundToken.sol\":4520:4868  {... */\n      pop\n        /* \"TFGv3/Contracts/CryptoFundToken.sol\":4426:4868  function _spendAllowance(address owner, address spender, uint256 amount) internal virtual... */\n      pop\n      pop\n      pop\n      jump\t// out\n        /* \"TFGv3/Contracts/CryptoFundToken.sol\":2779:3315  function _transfer(address from, address to, uint256 amount) internal virtual... */\n    tag_108:\n        /* \"TFGv3/Contracts/CryptoFundToken.sol\":2895:2896  0 */\n      0x00\n        /* \"TFGv3/Contracts/CryptoFundToken.sol\":2879:2897  from != address(0) */\n      0xffffffffffffffffffffffffffffffffffffffff\n      and\n        /* \"TFGv3/Contracts/CryptoFundToken.sol\":2879:2883  from */\n      dup4\n        /* \"TFGv3/Contracts/CryptoFundToken.sol\":2879:2897  from != address(0) */\n      0xffffffffffffffffffffffffffffffffffffffff\n      and\n      sub\n        /* \"TFGv3/Contracts/CryptoFundToken.sol\":2871:2939  require(from != address(0), \"ERC20: transfer from the zero address\") */\n      tag_156\n      jumpi\n      mload(0x40)\n      0x08c379a000000000000000000000000000000000000000000000000000000000\n      dup2\n      mstore\n      0x04\n      add\n      tag_157\n      swap1\n      tag_158\n      jump\t// in\n    tag_157:\n      mload(0x40)\n      dup1\n      swap2\n      sub\n      swap1\n      revert\n    tag_156:\n        /* \"TFGv3/Contracts/CryptoFundToken.sol\":2971:2972  0 */\n      0x00\n        /* \"TFGv3/Contracts/CryptoFundToken.sol\":2957:2973  to != address(0) */\n      0xffffffffffffffffffffffffffffffffffffffff\n      and\n        /* \"TFGv3/Contracts/CryptoFundToken.sol\":2957:2959  to */\n      dup3\n        /* \"TFGv3/Contracts/CryptoFundToken.sol\":2957:2973  to != address(0) */\n      0xffffffffffffffffffffffffffffffffffffffff\n      and\n      sub\n        /* \"TFGv3/Contracts/CryptoFundToken.sol\":2949:3013  require(to != address(0), \"ERC20: transfer to the zero address\") */\n      tag_159\n      jumpi\n      mload(0x40)\n      0x08c379a000000000000000000000000000000000000000000000000000000000\n      dup2\n      mstore\n      0x04\n      add\n      tag_160\n      swap1\n      tag_161\n      jump\t// in\n    tag_160:\n      mload(0x40)\n      dup1\n      swap2\n      sub\n      swap1\n      revert\n    tag_159:\n        /* \"TFGv3/Contracts/CryptoFundToken.sol\":3024:3043  uint256 fromBalance */\n      0x00\n        /* \"TFGv3/Contracts/CryptoFundToken.sol\":3046:3055  _balances */\n      dup1\n        /* \"TFGv3/Contracts/CryptoFundToken.sol\":3046:3061  _balances[from] */\n      0x00\n        /* \"TFGv3/Contracts/CryptoFundToken.sol\":3056:3060  from */\n      dup6\n        /* \"TFGv3/Contracts/CryptoFundToken.sol\":3046:3061  _balances[from] */\n      0xffffffffffffffffffffffffffffffffffffffff\n      and\n      0xffffffffffffffffffffffffffffffffffffffff\n      and\n      dup2\n      mstore\n      0x20\n      add\n      swap1\n      dup2\n      mstore\n      0x20\n      add\n      0x00\n      keccak256\n      sload\n        /* \"TFGv3/Contracts/CryptoFundToken.sol\":3024:3061  uint256 fromBalance = _balances[from] */\n      swap1\n      pop\n        /* \"TFGv3/Contracts/CryptoFundToken.sol\":3094:3100  amount */\n      dup2\n        /* \"TFGv3/Contracts/CryptoFundToken.sol\":3079:3090  fromBalance */\n      dup2\n        /* \"TFGv3/Contracts/CryptoFundToken.sol\":3079:3100  fromBalance >= amount */\n      lt\n      iszero\n        /* \"TFGv3/Contracts/CryptoFundToken.sol\":3071:3143  require(fromBalance >= amount, \"ERC20: transfer amount exceeds balance\") */\n      tag_162\n      jumpi\n      mload(0x40)\n      0x08c379a000000000000000000000000000000000000000000000000000000000\n      dup2\n      mstore\n      0x04\n      add\n      tag_163\n      swap1\n      tag_164\n      jump\t// in\n    tag_163:\n      mload(0x40)\n      dup1\n      swap2\n      sub\n      swap1\n      revert\n    tag_162:\n        /* \"TFGv3/Contracts/CryptoFundToken.sol\":3217:3223  amount */\n      dup2\n        /* \"TFGv3/Contracts/CryptoFundToken.sol\":3203:3214  fromBalance */\n      dup2\n        /* \"TFGv3/Contracts/CryptoFundToken.sol\":3203:3223  fromBalance - amount */\n      sub\n        /* \"TFGv3/Contracts/CryptoFundToken.sol\":3185:3194  _balances */\n      0x00\n        /* \"TFGv3/Contracts/CryptoFundToken.sol\":3185:3200  _balances[from] */\n      dup1\n        /* \"TFGv3/Contracts/CryptoFundToken.sol\":3195:3199  from */\n      dup7\n        /* \"TFGv3/Contracts/CryptoFundToken.sol\":3185:3200  _balances[from] */\n      0xffffffffffffffffffffffffffffffffffffffff\n      and\n      0xffffffffffffffffffffffffffffffffffffffff\n      and\n      dup2\n      mstore\n      0x20\n      add\n      swap1\n      dup2\n      mstore\n      0x20\n      add\n      0x00\n      keccak256\n        /* \"TFGv3/Contracts/CryptoFundToken.sol\":3185:3223  _balances[from] = fromBalance - amount */\n      dup2\n      swap1\n      sstore\n      pop\n        /* \"TFGv3/Contracts/CryptoFundToken.sol\":3260:3266  amount */\n      dup2\n        /* \"TFGv3/Contracts/CryptoFundToken.sol\":3243:3252  _balances */\n      0x00\n        /* \"TFGv3/Contracts/CryptoFundToken.sol\":3243:3256  _balances[to] */\n      dup1\n        /* \"TFGv3/Contracts/CryptoFundToken.sol\":3253:3255  to */\n      dup6\n        /* \"TFGv3/Contracts/CryptoFundToken.sol\":3243:3256  _balances[to] */\n      0xffffffffffffffffffffffffffffffffffffffff\n      and\n      0xffffffffffffffffffffffffffffffffffffffff\n      and\n      dup2\n      mstore\n      0x20\n      add\n      swap1\n      dup2\n      mstore\n      0x20\n      add\n      0x00\n      keccak256\n      0x00\n        /* \"TFGv3/Contracts/CryptoFundToken.sol\":3243:3266  _balances[to] += amount */\n      dup3\n      dup3\n      sload\n      tag_165\n      swap2\n      swap1\n      tag_112\n      jump\t// in\n    tag_165:\n      swap3\n      pop\n      pop\n      dup2\n      swap1\n      sstore\n      pop\n        /* \"TFGv3/Contracts/CryptoFundToken.sol\":3297:3299  to */\n      dup3\n        /* \"TFGv3/Contracts/CryptoFundToken.sol\":3282:3308  Transfer(from, to, amount) */\n      0xffffffffffffffffffffffffffffffffffffffff\n      and\n        /* \"TFGv3/Contracts/CryptoFundToken.sol\":3291:3295  from */\n      dup5\n        /* \"TFGv3/Contracts/CryptoFundToken.sol\":3282:3308  Transfer(from, to, amount) */\n      0xffffffffffffffffffffffffffffffffffffffff\n      and\n      0xddf252ad1be2c89b69c2b068fc378daa952ba7f163c4a11628f55a4df523b3ef\n        /* \"TFGv3/Contracts/CryptoFundToken.sol\":3301:3307  amount */\n      dup5\n        /* \"TFGv3/Contracts/CryptoFundToken.sol\":3282:3308  Transfer(from, to, amount) */\n      mload(0x40)\n      tag_166\n      swap2\n      swap1\n      tag_39\n      jump\t// in\n    tag_166:\n      mload(0x40)\n      dup1\n      swap2\n      sub\n      swap1\n      log3\n        /* \"TFGv3/Contracts/CryptoFundToken.sol\":2861:3315  {... */\n      pop\n        /* \"TFGv3/Contracts/CryptoFundToken.sol\":2779:3315  function _transfer(address from, address to, uint256 amount) internal virtual... */\n      pop\n      pop\n      pop\n      jump\t// out\n        /* \"TFGv3/Contracts/CryptoFundToken.sol\":3321:3595  function _mint(address account, uint256 amount) internal virtual... */\n    tag_120:\n        /* \"TFGv3/Contracts/CryptoFundToken.sol\":3427:3428  0 */\n      0x00\n        /* \"TFGv3/Contracts/CryptoFundToken.sol\":3408:3429  account != address(0) */\n      0xffffffffffffffffffffffffffffffffffffffff\n      and\n        /* \"TFGv3/Contracts/CryptoFundToken.sol\":3408:3415  account */\n      dup3\n        /* \"TFGv3/Contracts/CryptoFundToken.sol\":3408:3429  account != address(0) */\n      0xffffffffffffffffffffffffffffffffffffffff\n      and\n      sub\n        /* \"TFGv3/Contracts/CryptoFundToken.sol\":3400:3465  require(account != address(0), \"ERC20: mint to the zero address\") */\n      tag_168\n      jumpi\n      mload(0x40)\n      0x08c379a000000000000000000000000000000000000000000000000000000000\n      dup2\n      mstore\n      0x04\n      add\n      tag_169\n      swap1\n      tag_170\n      jump\t// in\n    tag_169:\n      mload(0x40)\n      dup1\n      swap2\n      sub\n      swap1\n      revert\n    tag_168:\n        /* \"TFGv3/Contracts/CryptoFundToken.sol\":3492:3498  amount */\n      dup1\n        /* \"TFGv3/Contracts/CryptoFundToken.sol\":3476:3488  _totalSupply */\n      0x03\n      0x00\n        /* \"TFGv3/Contracts/CryptoFundToken.sol\":3476:3498  _totalSupply += amount */\n      dup3\n      dup3\n      sload\n      tag_171\n      swap2\n      swap1\n      tag_112\n      jump\t// in\n    tag_171:\n      swap3\n      pop\n      pop\n      dup2\n      swap1\n      sstore\n      pop\n        /* \"TFGv3/Contracts/CryptoFundToken.sol\":3530:3536  amount */\n      dup1\n        /* \"TFGv3/Contracts/CryptoFundToken.sol\":3508:3517  _balances */\n      0x00\n        /* \"TFGv3/Contracts/CryptoFundToken.sol\":3508:3526  _balances[account] */\n      dup1\n        /* \"TFGv3/Contracts/CryptoFundToken.sol\":3518:3525  account */\n      dup5\n        /* \"TFGv3/Contracts/CryptoFundToken.sol\":3508:3526  _balances[account] */\n      0xffffffffffffffffffffffffffffffffffffffff\n      and\n      0xffffffffffffffffffffffffffffffffffffffff\n      and\n      dup2\n      mstore\n      0x20\n      add\n      swap1\n      dup2\n      mstore\n      0x20\n      add\n      0x00\n      keccak256\n      0x00\n        /* \"TFGv3/Contracts/CryptoFundToken.sol\":3508:3536  _balances[account] += amount */\n      dup3\n      dup3\n      sload\n      tag_172\n      swap2\n      swap1\n      tag_112\n      jump\t// in\n    tag_172:\n      swap3\n      pop\n      pop\n      dup2\n      swap1\n      sstore\n      pop\n        /* \"TFGv3/Contracts/CryptoFundToken.sol\":3572:3579  account */\n      dup2\n        /* \"TFGv3/Contracts/CryptoFundToken.sol\":3551:3588  Transfer(address(0), account, amount) */\n      0xffffffffffffffffffffffffffffffffffffffff\n      and\n        /* \"TFGv3/Contracts/CryptoFundToken.sol\":3568:3569  0 */\n      0x00\n        /* \"TFGv3/Contracts/CryptoFundToken.sol\":3551:3588  Transfer(address(0), account, amount) */\n      0xffffffffffffffffffffffffffffffffffffffff\n      and\n      0xddf252ad1be2c89b69c2b068fc378daa952ba7f163c4a11628f55a4df523b3ef\n        /* \"TFGv3/Contracts/CryptoFundToken.sol\":3581:3587  amount */\n      dup4\n        /* \"TFGv3/Contracts/CryptoFundToken.sol\":3551:3588  Transfer(address(0), account, amount) */\n      mload(0x40)\n      tag_173\n      swap2\n      swap1\n      tag_39\n      jump\t// in\n    tag_173:\n      mload(0x40)\n      dup1\n      swap2\n      sub\n      swap1\n      log3\n        /* \"TFGv3/Contracts/CryptoFundToken.sol\":3321:3595  function _mint(address account, uint256 amount) internal virtual... */\n      pop\n      pop\n      jump\t// out\n        /* \"TFGv3/Contracts/CryptoFundToken.sol\":3601:4070  function _burn(address account, uint256 amount) internal virtual... */\n    tag_123:\n        /* \"TFGv3/Contracts/CryptoFundToken.sol\":3707:3708  0 */\n      0x00\n        /* \"TFGv3/Contracts/CryptoFundToken.sol\":3688:3709  account != address(0) */\n      0xffffffffffffffffffffffffffffffffffffffff\n      and\n        /* \"TFGv3/Contracts/CryptoFundToken.sol\":3688:3695  account */\n      dup3\n        /* \"TFGv3/Contracts/CryptoFundToken.sol\":3688:3709  account != address(0) */\n      0xffffffffffffffffffffffffffffffffffffffff\n      and\n      sub\n        /* \"TFGv3/Contracts/CryptoFundToken.sol\":3680:3747  require(account != address(0), \"ERC20: burn from the zero address\") */\n      tag_175\n      jumpi\n      mload(0x40)\n      0x08c379a000000000000000000000000000000000000000000000000000000000\n      dup2\n      mstore\n      0x04\n      add\n      tag_176\n      swap1\n      tag_177\n      jump\t// in\n    tag_176:\n      mload(0x40)\n      dup1\n      swap2\n      sub\n      swap1\n      revert\n    tag_175:\n        /* \"TFGv3/Contracts/CryptoFundToken.sol\":3758:3780  uint256 accountBalance */\n      0x00\n        /* \"TFGv3/Contracts/CryptoFundToken.sol\":3783:3792  _balances */\n      dup1\n        /* \"TFGv3/Contracts/CryptoFundToken.sol\":3783:3801  _balances[account] */\n      0x00\n        /* \"TFGv3/Contracts/CryptoFundToken.sol\":3793:3800  account */\n      dup5\n        /* \"TFGv3/Contracts/CryptoFundToken.sol\":3783:3801  _balances[account] */\n      0xffffffffffffffffffffffffffffffffffffffff\n      and\n      0xffffffffffffffffffffffffffffffffffffffff\n      and\n      dup2\n      mstore\n      0x20\n      add\n      swap1\n      dup2\n      mstore\n      0x20\n      add\n      0x00\n      keccak256\n      sload\n        /* \"TFGv3/Contracts/CryptoFundToken.sol\":3758:3801  uint256 accountBalance = _balances[account] */\n      swap1\n      pop\n        /* \"TFGv3/Contracts/CryptoFundToken.sol\":3837:3843  amount */\n      dup2\n        /* \"TFGv3/Contracts/CryptoFundToken.sol\":3819:3833  accountBalance */\n      dup2\n        /* \"TFGv3/Contracts/CryptoFundToken.sol\":3819:3843  accountBalance >= amount */\n      lt\n      iszero\n        /* \"TFGv3/Contracts/CryptoFundToken.sol\":3811:3882  require(accountBalance >= amount, \"ERC20: burn amount exceeds balance\") */\n      tag_178\n      jumpi\n      mload(0x40)\n      0x08c379a000000000000000000000000000000000000000000000000000000000\n      dup2\n      mstore\n      0x04\n      add\n      tag_179\n      swap1\n      tag_180\n      jump\t// in\n    tag_179:\n      mload(0x40)\n      dup1\n      swap2\n      sub\n      swap1\n      revert\n    tag_178:\n        /* \"TFGv3/Contracts/CryptoFundToken.sol\":3962:3968  amount */\n      dup2\n        /* \"TFGv3/Contracts/CryptoFundToken.sol\":3945:3959  accountBalance */\n      dup2\n        /* \"TFGv3/Contracts/CryptoFundToken.sol\":3945:3968  accountBalance - amount */\n      sub\n        /* \"TFGv3/Contracts/CryptoFundToken.sol\":3924:3933  _balances */\n      0x00\n        /* \"TFGv3/Contracts/CryptoFundToken.sol\":3924:3942  _balances[account] */\n      dup1\n        /* \"TFGv3/Contracts/CryptoFundToken.sol\":3934:3941  account */\n      dup6\n        /* \"TFGv3/Contracts/CryptoFundToken.sol\":3924:3942  _balances[account] */\n      0xffffffffffffffffffffffffffffffffffffffff\n      and\n      0xffffffffffffffffffffffffffffffffffffffff\n      and\n      dup2\n      mstore\n      0x20\n      add\n      swap1\n      dup2\n      mstore\n      0x20\n      add\n      0x00\n      keccak256\n        /* \"TFGv3/Contracts/CryptoFundToken.sol\":3924:3968  _balances[account] = accountBalance - amount */\n      dup2\n      swap1\n      sstore\n      pop\n        /* \"TFGv3/Contracts/CryptoFundToken.sol\":4004:4010  amount */\n      dup2\n        /* \"TFGv3/Contracts/CryptoFundToken.sol\":3988:4000  _totalSupply */\n      0x03\n      0x00\n        /* \"TFGv3/Contracts/CryptoFundToken.sol\":3988:4010  _totalSupply -= amount */\n      dup3\n      dup3\n      sload\n      tag_181\n      swap2\n      swap1\n      tag_182\n      jump\t// in\n    tag_181:\n      swap3\n      pop\n      pop\n      dup2\n      swap1\n      sstore\n      pop\n        /* \"TFGv3/Contracts/CryptoFundToken.sol\":4052:4053  0 */\n      0x00\n        /* \"TFGv3/Contracts/CryptoFundToken.sol\":4026:4063  Transfer(account, address(0), amount) */\n      0xffffffffffffffffffffffffffffffffffffffff\n      and\n        /* \"TFGv3/Contracts/CryptoFundToken.sol\":4035:4042  account */\n      dup4\n        /* \"TFGv3/Contracts/CryptoFundToken.sol\":4026:4063  Transfer(account, address(0), amount) */\n      0xffffffffffffffffffffffffffffffffffffffff\n      and\n      0xddf252ad1be2c89b69c2b068fc378daa952ba7f163c4a11628f55a4df523b3ef\n        /* \"TFGv3/Contracts/CryptoFundToken.sol\":4056:4062  amount */\n      dup5\n        /* \"TFGv3/Contracts/CryptoFundToken.sol\":4026:4063  Transfer(account, address(0), amount) */\n      mload(0x40)\n      tag_183\n      swap2\n      swap1\n      tag_39\n      jump\t// in\n    tag_183:\n      mload(0x40)\n      dup1\n      swap2\n      sub\n      swap1\n      log3\n        /* \"TFGv3/Contracts/CryptoFundToken.sol\":3670:4070  {... */\n      pop\n        /* \"TFGv3/Contracts/CryptoFundToken.sol\":3601:4070  function _burn(address account, uint256 amount) internal virtual... */\n      pop\n      pop\n      jump\t// out\n        /* \"#utility.yul\":7:106   */\n    tag_184:\n        /* \"#utility.yul\":59:65   */\n      0x00\n        /* \"#utility.yul\":93:98   */\n      dup2\n        /* \"#utility.yul\":87:99   */\n      mload\n        /* \"#utility.yul\":77:99   */\n      swap1\n      pop\n        /* \"#utility.yul\":7:106   */\n      swap2\n      swap1\n      pop\n      jump\t// out\n        /* \"#utility.yul\":112:281   */\n    tag_185:\n        /* \"#utility.yul\":196:207   */\n      0x00\n        /* \"#utility.yul\":230:236   */\n      dup3\n        /* \"#utility.yul\":225:228   */\n      dup3\n        /* \"#utility.yul\":218:237   */\n      mstore\n        /* \"#utility.yul\":270:274   */\n      0x20\n        /* \"#utility.yul\":265:268   */\n      dup3\n        /* \"#utility.yul\":261:275   */\n      add\n        /* \"#utility.yul\":246:275   */\n      swap1\n      pop\n        /* \"#utility.yul\":112:281   */\n      swap3\n      swap2\n      pop\n      pop\n      jump\t// out\n        /* \"#utility.yul\":287:594   */\n    tag_186:\n        /* \"#utility.yul\":355:356   */\n      0x00\n        /* \"#utility.yul\":365:478   */\n    tag_234:\n        /* \"#utility.yul\":379:385   */\n      dup4\n        /* \"#utility.yul\":376:377   */\n      dup2\n        /* \"#utility.yul\":373:386   */\n      lt\n        /* \"#utility.yul\":365:478   */\n      iszero\n      tag_236\n      jumpi\n        /* \"#utility.yul\":464:465   */\n      dup1\n        /* \"#utility.yul\":459:462   */\n      dup3\n        /* \"#utility.yul\":455:466   */\n      add\n        /* \"#utility.yul\":449:467   */\n      mload\n        /* \"#utility.yul\":445:446   */\n      dup2\n        /* \"#utility.yul\":440:443   */\n      dup5\n        /* \"#utility.yul\":436:447   */\n      add\n        /* \"#utility.yul\":429:468   */\n      mstore\n        /* \"#utility.yul\":401:403   */\n      0x20\n        /* \"#utility.yul\":398:399   */\n      dup2\n        /* \"#utility.yul\":394:404   */\n      add\n        /* \"#utility.yul\":389:404   */\n      swap1\n      pop\n        /* \"#utility.yul\":365:478   */\n      jump(tag_234)\n    tag_236:\n        /* \"#utility.yul\":496:502   */\n      dup4\n        /* \"#utility.yul\":493:494   */\n      dup2\n        /* \"#utility.yul\":490:503   */\n      gt\n        /* \"#utility.yul\":487:588   */\n      iszero\n      tag_237\n      jumpi\n        /* \"#utility.yul\":576:577   */\n      0x00\n        /* \"#utility.yul\":567:573   */\n      dup5\n        /* \"#utility.yul\":562:565   */\n      dup5\n        /* \"#utility.yul\":558:574   */\n      add\n        /* \"#utility.yul\":551:578   */\n      mstore\n        /* \"#utility.yul\":487:588   */\n    tag_237:\n        /* \"#utility.yul\":336:594   */\n      pop\n        /* \"#utility.yul\":287:594   */\n      pop\n      pop\n      pop\n      jump\t// out\n        /* \"#utility.yul\":600:702   */\n    tag_187:\n        /* \"#utility.yul\":641:647   */\n      0x00\n        /* \"#utility.yul\":692:694   */\n      0x1f\n        /* \"#utility.yul\":688:695   */\n      not\n        /* \"#utility.yul\":683:685   */\n      0x1f\n        /* \"#utility.yul\":676:681   */\n      dup4\n        /* \"#utility.yul\":672:686   */\n      add\n        /* \"#utility.yul\":668:696   */\n      and\n        /* \"#utility.yul\":658:696   */\n      swap1\n      pop\n        /* \"#utility.yul\":600:702   */\n      swap2\n      swap1\n      pop\n      jump\t// out\n        /* \"#utility.yul\":708:1072   */\n    tag_188:\n        /* \"#utility.yul\":796:799   */\n      0x00\n        /* \"#utility.yul\":824:863   */\n      tag_240\n        /* \"#utility.yul\":857:862   */\n      dup3\n        /* \"#utility.yul\":824:863   */\n      tag_184\n      jump\t// in\n    tag_240:\n        /* \"#utility.yul\":879:950   */\n      tag_241\n        /* \"#utility.yul\":943:949   */\n      dup2\n        /* \"#utility.yul\":938:941   */\n      dup6\n        /* \"#utility.yul\":879:950   */\n      tag_185\n      jump\t// in\n    tag_241:\n        /* \"#utility.yul\":872:950   */\n      swap4\n      pop\n        /* \"#utility.yul\":959:1011   */\n      tag_242\n        /* \"#utility.yul\":1004:1010   */\n      dup2\n        /* \"#utility.yul\":999:1002   */\n      dup6\n        /* \"#utility.yul\":992:996   */\n      0x20\n        /* \"#utility.yul\":985:990   */\n      dup7\n        /* \"#utility.yul\":981:997   */\n      add\n        /* \"#utility.yul\":959:1011   */\n      tag_186\n      jump\t// in\n    tag_242:\n        /* \"#utility.yul\":1036:1065   */\n      tag_243\n        /* \"#utility.yul\":1058:1064   */\n      dup2\n        /* \"#utility.yul\":1036:1065   */\n      tag_187\n      jump\t// in\n    tag_243:\n        /* \"#utility.yul\":1031:1034   */\n      dup5\n        /* \"#utility.yul\":1027:1066   */\n      add\n        /* \"#utility.yul\":1020:1066   */\n      swap2\n      pop\n        /* \"#utility.yul\":800:1072   */\n      pop\n        /* \"#utility.yul\":708:1072   */\n      swap3\n      swap2\n      pop\n      pop\n      jump\t// out\n        /* \"#utility.yul\":1078:1391   */\n    tag_25:\n        /* \"#utility.yul\":1191:1195   */\n      0x00\n        /* \"#utility.yul\":1229:1231   */\n      0x20\n        /* \"#utility.yul\":1218:1227   */\n      dup3\n        /* \"#utility.yul\":1214:1232   */\n      add\n        /* \"#utility.yul\":1206:1232   */\n      swap1\n      pop\n        /* \"#utility.yul\":1278:1287   */\n      dup2\n        /* \"#utility.yul\":1272:1276   */\n      dup2\n        /* \"#utility.yul\":1268:1288   */\n      sub\n        /* \"#utility.yul\":1264:1265   */\n      0x00\n        /* \"#utility.yul\":1253:1262   */\n      dup4\n        /* \"#utility.yul\":1249:1266   */\n      add\n        /* \"#utility.yul\":1242:1289   */\n      mstore\n        /* \"#utility.yul\":1306:1384   */\n      tag_245\n        /* \"#utility.yul\":1379:1383   */\n      dup2\n        /* \"#utility.yul\":1370:1376   */\n      dup5\n        /* \"#utility.yul\":1306:1384   */\n      tag_188\n      jump\t// in\n    tag_245:\n        /* \"#utility.yul\":1298:1384   */\n      swap1\n      pop\n        /* \"#utility.yul\":1078:1391   */\n      swap3\n      swap2\n      pop\n      pop\n      jump\t// out\n        /* \"#utility.yul\":1478:1595   */\n    tag_190:\n        /* \"#utility.yul\":1587:1588   */\n      0x00\n        /* \"#utility.yul\":1584:1585   */\n      dup1\n        /* \"#utility.yul\":1577:1589   */\n      revert\n        /* \"#utility.yul\":1724:1850   */\n    tag_192:\n        /* \"#utility.yul\":1761:1768   */\n      0x00\n        /* \"#utility.yul\":1801:1843   */\n      0xffffffffffffffffffffffffffffffffffffffff\n        /* \"#utility.yul\":1794:1799   */\n      dup3\n        /* \"#utility.yul\":1790:1844   */\n      and\n        /* \"#utility.yul\":1779:1844   */\n      swap1\n      pop\n        /* \"#utility.yul\":1724:1850   */\n      swap2\n      swap1\n      pop\n      jump\t// out\n        /* \"#utility.yul\":1856:1952   */\n    tag_193:\n        /* \"#utility.yul\":1893:1900   */\n      0x00\n        /* \"#utility.yul\":1922:1946   */\n      tag_251\n        /* \"#utility.yul\":1940:1945   */\n      dup3\n        /* \"#utility.yul\":1922:1946   */\n      tag_192\n      jump\t// in\n    tag_251:\n        /* \"#utility.yul\":1911:1946   */\n      swap1\n      pop\n        /* \"#utility.yul\":1856:1952   */\n      swap2\n      swap1\n      pop\n      jump\t// out\n        /* \"#utility.yul\":1958:2080   */\n    tag_194:\n        /* \"#utility.yul\":2031:2055   */\n      tag_253\n        /* \"#utility.yul\":2049:2054   */\n      dup2\n        /* \"#utility.yul\":2031:2055   */\n      tag_193\n      jump\t// in\n    tag_253:\n        /* \"#utility.yul\":2024:2029   */\n      dup2\n        /* \"#utility.yul\":2021:2056   */\n      eq\n        /* \"#utility.yul\":2011:2074   */\n      tag_254\n      jumpi\n        /* \"#utility.yul\":2070:2071   */\n      0x00\n        /* \"#utility.yul\":2067:2068   */\n      dup1\n        /* \"#utility.yul\":2060:2072   */\n      revert\n        /* \"#utility.yul\":2011:2074   */\n    tag_254:\n        /* \"#utility.yul\":1958:2080   */\n      pop\n      jump\t// out\n        /* \"#utility.yul\":2086:2225   */\n    tag_195:\n        /* \"#utility.yul\":2132:2137   */\n      0x00\n        /* \"#utility.yul\":2170:2176   */\n      dup2\n        /* \"#utility.yul\":2157:2177   */\n      calldataload\n        /* \"#utility.yul\":2148:2177   */\n      swap1\n      pop\n        /* \"#utility.yul\":2186:2219   */\n      tag_256\n        /* \"#utility.yul\":2213:2218   */\n      dup2\n        /* \"#utility.yul\":2186:2219   */\n      tag_194\n      jump\t// in\n    tag_256:\n        /* \"#utility.yul\":2086:2225   */\n      swap3\n      swap2\n      pop\n      pop\n      jump\t// out\n        /* \"#utility.yul\":2231:2308   */\n    tag_196:\n        /* \"#utility.yul\":2268:2275   */\n      0x00\n        /* \"#utility.yul\":2297:2302   */\n      dup2\n        /* \"#utility.yul\":2286:2302   */\n      swap1\n      pop\n        /* \"#utility.yul\":2231:2308   */\n      swap2\n      swap1\n      pop\n      jump\t// out\n        /* \"#utility.yul\":2314:2436   */\n    tag_197:\n        /* \"#utility.yul\":2387:2411   */\n      tag_259\n        /* \"#utility.yul\":2405:2410   */\n      dup2\n        /* \"#utility.yul\":2387:2411   */\n      tag_196\n      jump\t// in\n    tag_259:\n        /* \"#utility.yul\":2380:2385   */\n      dup2\n        /* \"#utility.yul\":2377:2412   */\n      eq\n        /* \"#utility.yul\":2367:2430   */\n      tag_260\n      jumpi\n        /* \"#utility.yul\":2426:2427   */\n      0x00\n        /* \"#utility.yul\":2423:2424   */\n      dup1\n        /* \"#utility.yul\":2416:2428   */\n      revert\n        /* \"#utility.yul\":2367:2430   */\n    tag_260:\n        /* \"#utility.yul\":2314:2436   */\n      pop\n      jump\t// out\n        /* \"#utility.yul\":2442:2581   */\n    tag_198:\n        /* \"#utility.yul\":2488:2493   */\n      0x00\n        /* \"#utility.yul\":2526:2532   */\n      dup2\n        /* \"#utility.yul\":2513:2533   */\n      calldataload\n        /* \"#utility.yul\":2504:2533   */\n      swap1\n      pop\n        /* \"#utility.yul\":2542:2575   */\n      tag_262\n        /* \"#utility.yul\":2569:2574   */\n      dup2\n        /* \"#utility.yul\":2542:2575   */\n      tag_197\n      jump\t// in\n    tag_262:\n        /* \"#utility.yul\":2442:2581   */\n      swap3\n      swap2\n      pop\n      pop\n      jump\t// out\n        /* \"#utility.yul\":2587:3061   */\n    tag_28:\n        /* \"#utility.yul\":2655:2661   */\n      0x00\n        /* \"#utility.yul\":2663:2669   */\n      dup1\n        /* \"#utility.yul\":2712:2714   */\n      0x40\n        /* \"#utility.yul\":2700:2709   */\n      dup4\n        /* \"#utility.yul\":2691:2698   */\n      dup6\n        /* \"#utility.yul\":2687:2710   */\n      sub\n        /* \"#utility.yul\":2683:2715   */\n      slt\n        /* \"#utility.yul\":2680:2799   */\n      iszero\n      tag_264\n      jumpi\n        /* \"#utility.yul\":2718:2797   */\n      tag_265\n      tag_190\n      jump\t// in\n    tag_265:\n        /* \"#utility.yul\":2680:2799   */\n    tag_264:\n        /* \"#utility.yul\":2838:2839   */\n      0x00\n        /* \"#utility.yul\":2863:2916   */\n      tag_266\n        /* \"#utility.yul\":2908:2915   */\n      dup6\n        /* \"#utility.yul\":2899:2905   */\n      dup3\n        /* \"#utility.yul\":2888:2897   */\n      dup7\n        /* \"#utility.yul\":2884:2906   */\n      add\n        /* \"#utility.yul\":2863:2916   */\n      tag_195\n      jump\t// in\n    tag_266:\n        /* \"#utility.yul\":2853:2916   */\n      swap3\n      pop\n        /* \"#utility.yul\":2809:2926   */\n      pop\n        /* \"#utility.yul\":2965:2967   */\n      0x20\n        /* \"#utility.yul\":2991:3044   */\n      tag_267\n        /* \"#utility.yul\":3036:3043   */\n      dup6\n        /* \"#utility.yul\":3027:3033   */\n      dup3\n        /* \"#utility.yul\":3016:3025   */\n      dup7\n        /* \"#utility.yul\":3012:3034   */\n      add\n        /* \"#utility.yul\":2991:3044   */\n      tag_198\n      jump\t// in\n    tag_267:\n        /* \"#utility.yul\":2981:3044   */\n      swap2\n      pop\n        /* \"#utility.yul\":2936:3054   */\n      pop\n        /* \"#utility.yul\":2587:3061   */\n      swap3\n      pop\n      swap3\n      swap1\n      pop\n      jump\t// out\n        /* \"#utility.yul\":3067:3157   */\n    tag_199:\n        /* \"#utility.yul\":3101:3108   */\n      0x00\n        /* \"#utility.yul\":3144:3149   */\n      dup2\n        /* \"#utility.yul\":3137:3150   */\n      iszero\n        /* \"#utility.yul\":3130:3151   */\n      iszero\n        /* \"#utility.yul\":3119:3151   */\n      swap1\n      pop\n        /* \"#utility.yul\":3067:3157   */\n      swap2\n      swap1\n      pop\n      jump\t// out\n        /* \"#utility.yul\":3163:3272   */\n    tag_200:\n        /* \"#utility.yul\":3244:3265   */\n      tag_270\n        /* \"#utility.yul\":3259:3264   */\n      dup2\n        /* \"#utility.yul\":3244:3265   */\n      tag_199\n      jump\t// in\n    tag_270:\n        /* \"#utility.yul\":3239:3242   */\n      dup3\n        /* \"#utility.yul\":3232:3266   */\n      mstore\n        /* \"#utility.yul\":3163:3272   */\n      pop\n      pop\n      jump\t// out\n        /* \"#utility.yul\":3278:3488   */\n    tag_31:\n        /* \"#utility.yul\":3365:3369   */\n      0x00\n        /* \"#utility.yul\":3403:3405   */\n      0x20\n        /* \"#utility.yul\":3392:3401   */\n      dup3\n        /* \"#utility.yul\":3388:3406   */\n      add\n        /* \"#utility.yul\":3380:3406   */\n      swap1\n      pop\n        /* \"#utility.yul\":3416:3481   */\n      tag_272\n        /* \"#utility.yul\":3478:3479   */\n      0x00\n        /* \"#utility.yul\":3467:3476   */\n      dup4\n        /* \"#utility.yul\":3463:3480   */\n      add\n        /* \"#utility.yul\":3454:3460   */\n      dup5\n        /* \"#utility.yul\":3416:3481   */\n      tag_200\n      jump\t// in\n    tag_272:\n        /* \"#utility.yul\":3278:3488   */\n      swap3\n      swap2\n      pop\n      pop\n      jump\t// out\n        /* \"#utility.yul\":3494:3823   */\n    tag_34:\n        /* \"#utility.yul\":3553:3559   */\n      0x00\n        /* \"#utility.yul\":3602:3604   */\n      0x20\n        /* \"#utility.yul\":3590:3599   */\n      dup3\n        /* \"#utility.yul\":3581:3588   */\n      dup5\n        /* \"#utility.yul\":3577:3600   */\n      sub\n        /* \"#utility.yul\":3573:3605   */\n      slt\n        /* \"#utility.yul\":3570:3689   */\n      iszero\n      tag_274\n      jumpi\n        /* \"#utility.yul\":3608:3687   */\n      tag_275\n      tag_190\n      jump\t// in\n    tag_275:\n        /* \"#utility.yul\":3570:3689   */\n    tag_274:\n        /* \"#utility.yul\":3728:3729   */\n      0x00\n        /* \"#utility.yul\":3753:3806   */\n      tag_276\n        /* \"#utility.yul\":3798:3805   */\n      dup5\n        /* \"#utility.yul\":3789:3795   */\n      dup3\n        /* \"#utility.yul\":3778:3787   */\n      dup6\n        /* \"#utility.yul\":3774:3796   */\n      add\n        /* \"#utility.yul\":3753:3806   */\n      tag_195\n      jump\t// in\n    tag_276:\n        /* \"#utility.yul\":3743:3806   */\n      swap2\n      pop\n        /* \"#utility.yul\":3699:3816   */\n      pop\n        /* \"#utility.yul\":3494:3823   */\n      swap3\n      swap2\n      pop\n      pop\n      jump\t// out\n        /* \"#utility.yul\":3829:3947   */\n    tag_201:\n        /* \"#utility.yul\":3916:3940   */\n      tag_278\n        /* \"#utility.yul\":3934:3939   */\n      dup2\n        /* \"#utility.yul\":3916:3940   */\n      tag_196\n      jump\t// in\n    tag_278:\n        /* \"#utility.yul\":3911:3914   */\n      dup3\n        /* \"#utility.yul\":3904:3941   */\n      mstore\n        /* \"#utility.yul\":3829:3947   */\n      pop\n      pop\n      jump\t// out\n        /* \"#utility.yul\":3953:4175   */\n    tag_39:\n        /* \"#utility.yul\":4046:4050   */\n      0x00\n        /* \"#utility.yul\":4084:4086   */\n      0x20\n        /* \"#utility.yul\":4073:4082   */\n      dup3\n        /* \"#utility.yul\":4069:4087   */\n      add\n        /* \"#utility.yul\":4061:4087   */\n      swap1\n      pop\n        /* \"#utility.yul\":4097:4168   */\n      tag_280\n        /* \"#utility.yul\":4165:4166   */\n      0x00\n        /* \"#utility.yul\":4154:4163   */\n      dup4\n        /* \"#utility.yul\":4150:4167   */\n      add\n        /* \"#utility.yul\":4141:4147   */\n      dup5\n        /* \"#utility.yul\":4097:4168   */\n      tag_201\n      jump\t// in\n    tag_280:\n        /* \"#utility.yul\":3953:4175   */\n      swap3\n      swap2\n      pop\n      pop\n      jump\t// out\n        /* \"#utility.yul\":4181:4800   */\n    tag_42:\n        /* \"#utility.yul\":4258:4264   */\n      0x00\n        /* \"#utility.yul\":4266:4272   */\n      dup1\n        /* \"#utility.yul\":4274:4280   */\n      0x00\n        /* \"#utility.yul\":4323:4325   */\n      0x60\n        /* \"#utility.yul\":4311:4320   */\n      dup5\n        /* \"#utility.yul\":4302:4309   */\n      dup7\n        /* \"#utility.yul\":4298:4321   */\n      sub\n        /* \"#utility.yul\":4294:4326   */\n      slt\n        /* \"#utility.yul\":4291:4410   */\n      iszero\n      tag_282\n      jumpi\n        /* \"#utility.yul\":4329:4408   */\n      tag_283\n      tag_190\n      jump\t// in\n    tag_283:\n        /* \"#utility.yul\":4291:4410   */\n    tag_282:\n        /* \"#utility.yul\":4449:4450   */\n      0x00\n        /* \"#utility.yul\":4474:4527   */\n      tag_284\n        /* \"#utility.yul\":4519:4526   */\n      dup7\n        /* \"#utility.yul\":4510:4516   */\n      dup3\n        /* \"#utility.yul\":4499:4508   */\n      dup8\n        /* \"#utility.yul\":4495:4517   */\n      add\n        /* \"#utility.yul\":4474:4527   */\n      tag_195\n      jump\t// in\n    tag_284:\n        /* \"#utility.yul\":4464:4527   */\n      swap4\n      pop\n        /* \"#utility.yul\":4420:4537   */\n      pop\n        /* \"#utility.yul\":4576:4578   */\n      0x20\n        /* \"#utility.yul\":4602:4655   */\n      tag_285\n        /* \"#utility.yul\":4647:4654   */\n      dup7\n        /* \"#utility.yul\":4638:4644   */\n      dup3\n        /* \"#utility.yul\":4627:4636   */\n      dup8\n        /* \"#utility.yul\":4623:4645   */\n      add\n        /* \"#utility.yul\":4602:4655   */\n      tag_195\n      jump\t// in\n    tag_285:\n        /* \"#utility.yul\":4592:4655   */\n      swap3\n      pop\n        /* \"#utility.yul\":4547:4665   */\n      pop\n        /* \"#utility.yul\":4704:4706   */\n      0x40\n        /* \"#utility.yul\":4730:4783   */\n      tag_286\n        /* \"#utility.yul\":4775:4782   */\n      dup7\n        /* \"#utility.yul\":4766:4772   */\n      dup3\n        /* \"#utility.yul\":4755:4764   */\n      dup8\n        /* \"#utility.yul\":4751:4773   */\n      add\n        /* \"#utility.yul\":4730:4783   */\n      tag_198\n      jump\t// in\n    tag_286:\n        /* \"#utility.yul\":4720:4783   */\n      swap2\n      pop\n        /* \"#utility.yul\":4675:4793   */\n      pop\n        /* \"#utility.yul\":4181:4800   */\n      swap3\n      pop\n      swap3\n      pop\n      swap3\n      jump\t// out\n        /* \"#utility.yul\":4806:4892   */\n    tag_202:\n        /* \"#utility.yul\":4841:4848   */\n      0x00\n        /* \"#utility.yul\":4881:4885   */\n      0xff\n        /* \"#utility.yul\":4874:4879   */\n      dup3\n        /* \"#utility.yul\":4870:4886   */\n      and\n        /* \"#utility.yul\":4859:4886   */\n      swap1\n      pop\n        /* \"#utility.yul\":4806:4892   */\n      swap2\n      swap1\n      pop\n      jump\t// out\n        /* \"#utility.yul\":4898:5010   */\n    tag_203:\n        /* \"#utility.yul\":4981:5003   */\n      tag_289\n        /* \"#utility.yul\":4997:5002   */\n      dup2\n        /* \"#utility.yul\":4981:5003   */\n      tag_202\n      jump\t// in\n    tag_289:\n        /* \"#utility.yul\":4976:4979   */\n      dup3\n        /* \"#utility.yul\":4969:5004   */\n      mstore\n        /* \"#utility.yul\":4898:5010   */\n      pop\n      pop\n      jump\t// out\n        /* \"#utility.yul\":5016:5230   */\n    tag_48:\n        /* \"#utility.yul\":5105:5109   */\n      0x00\n        /* \"#utility.yul\":5143:5145   */\n      0x20\n        /* \"#utility.yul\":5132:5141   */\n      dup3\n        /* \"#utility.yul\":5128:5146   */\n      add\n        /* \"#utility.yul\":5120:5146   */\n      swap1\n      pop\n        /* \"#utility.yul\":5156:5223   */\n      tag_291\n        /* \"#utility.yul\":5220:5221   */\n      0x00\n        /* \"#utility.yul\":5209:5218   */\n      dup4\n        /* \"#utility.yul\":5205:5222   */\n      add\n        /* \"#utility.yul\":5196:5202   */\n      dup5\n        /* \"#utility.yul\":5156:5223   */\n      tag_203\n      jump\t// in\n    tag_291:\n        /* \"#utility.yul\":5016:5230   */\n      swap3\n      swap2\n      pop\n      pop\n      jump\t// out\n        /* \"#utility.yul\":5236:5565   */\n    tag_62:\n        /* \"#utility.yul\":5295:5301   */\n      0x00\n        /* \"#utility.yul\":5344:5346   */\n      0x20\n        /* \"#utility.yul\":5332:5341   */\n      dup3\n        /* \"#utility.yul\":5323:5330   */\n      dup5\n        /* \"#utility.yul\":5319:5342   */\n      sub\n        /* \"#utility.yul\":5315:5347   */\n      slt\n        /* \"#utility.yul\":5312:5431   */\n      iszero\n      tag_293\n      jumpi\n        /* \"#utility.yul\":5350:5429   */\n      tag_294\n      tag_190\n      jump\t// in\n    tag_294:\n        /* \"#utility.yul\":5312:5431   */\n    tag_293:\n        /* \"#utility.yul\":5470:5471   */\n      0x00\n        /* \"#utility.yul\":5495:5548   */\n      tag_295\n        /* \"#utility.yul\":5540:5547   */\n      dup5\n        /* \"#utility.yul\":5531:5537   */\n      dup3\n        /* \"#utility.yul\":5520:5529   */\n      dup6\n        /* \"#utility.yul\":5516:5538   */\n      add\n        /* \"#utility.yul\":5495:5548   */\n      tag_198\n      jump\t// in\n    tag_295:\n        /* \"#utility.yul\":5485:5548   */\n      swap2\n      pop\n        /* \"#utility.yul\":5441:5558   */\n      pop\n        /* \"#utility.yul\":5236:5565   */\n      swap3\n      swap2\n      pop\n      pop\n      jump\t// out\n        /* \"#utility.yul\":5571:6045   */\n    tag_86:\n        /* \"#utility.yul\":5639:5645   */\n      0x00\n        /* \"#utility.yul\":5647:5653   */\n      dup1\n        /* \"#utility.yul\":5696:5698   */\n      0x40\n        /* \"#utility.yul\":5684:5693   */\n      dup4\n        /* \"#utility.yul\":5675:5682   */\n      dup6\n        /* \"#utility.yul\":5671:5694   */\n      sub\n        /* \"#utility.yul\":5667:5699   */\n      slt\n        /* \"#utility.yul\":5664:5783   */\n      iszero\n      tag_297\n      jumpi\n        /* \"#utility.yul\":5702:5781   */\n      tag_298\n      tag_190\n      jump\t// in\n    tag_298:\n        /* \"#utility.yul\":5664:5783   */\n    tag_297:\n        /* \"#utility.yul\":5822:5823   */\n      0x00\n        /* \"#utility.yul\":5847:5900   */\n      tag_299\n        /* \"#utility.yul\":5892:5899   */\n      dup6\n        /* \"#utility.yul\":5883:5889   */\n      dup3\n        /* \"#utility.yul\":5872:5881   */\n      dup7\n        /* \"#utility.yul\":5868:5890   */\n      add\n        /* \"#utility.yul\":5847:5900   */\n      tag_195\n      jump\t// in\n    tag_299:\n        /* \"#utility.yul\":5837:5900   */\n      swap3\n      pop\n        /* \"#utility.yul\":5793:5910   */\n      pop\n        /* \"#utility.yul\":5949:5951   */\n      0x20\n        /* \"#utility.yul\":5975:6028   */\n      tag_300\n        /* \"#utility.yul\":6020:6027   */\n      dup6\n        /* \"#utility.yul\":6011:6017   */\n      dup3\n        /* \"#utility.yul\":6000:6009   */\n      dup7\n        /* \"#utility.yul\":5996:6018   */\n      add\n        /* \"#utility.yul\":5975:6028   */\n      tag_195\n      jump\t// in\n    tag_300:\n        /* \"#utility.yul\":5965:6028   */\n      swap2\n      pop\n        /* \"#utility.yul\":5920:6038   */\n      pop\n        /* \"#utility.yul\":5571:6045   */\n      swap3\n      pop\n      swap3\n      swap1\n      pop\n      jump\t// out\n        /* \"#utility.yul\":6051:6231   */\n    tag_204:\n        /* \"#utility.yul\":6099:6176   */\n      0x4e487b7100000000000000000000000000000000000000000000000000000000\n        /* \"#utility.yul\":6096:6097   */\n      0x00\n        /* \"#utility.yul\":6089:6177   */\n      mstore\n        /* \"#utility.yul\":6196:6200   */\n      0x22\n        /* \"#utility.yul\":6193:6194   */\n      0x04\n        /* \"#utility.yul\":6186:6201   */\n      mstore\n        /* \"#utility.yul\":6220:6224   */\n      0x24\n        /* \"#utility.yul\":6217:6218   */\n      0x00\n        /* \"#utility.yul\":6210:6225   */\n      revert\n        /* \"#utility.yul\":6237:6557   */\n    tag_90:\n        /* \"#utility.yul\":6281:6287   */\n      0x00\n        /* \"#utility.yul\":6318:6319   */\n      0x02\n        /* \"#utility.yul\":6312:6316   */\n      dup3\n        /* \"#utility.yul\":6308:6320   */\n      div\n        /* \"#utility.yul\":6298:6320   */\n      swap1\n      pop\n        /* \"#utility.yul\":6365:6366   */\n      0x01\n        /* \"#utility.yul\":6359:6363   */\n      dup3\n        /* \"#utility.yul\":6355:6367   */\n      and\n        /* \"#utility.yul\":6386:6404   */\n      dup1\n        /* \"#utility.yul\":6376:6457   */\n      tag_303\n      jumpi\n        /* \"#utility.yul\":6442:6446   */\n      0x7f\n        /* \"#utility.yul\":6434:6440   */\n      dup3\n        /* \"#utility.yul\":6430:6447   */\n      and\n        /* \"#utility.yul\":6420:6447   */\n      swap2\n      pop\n        /* \"#utility.yul\":6376:6457   */\n    tag_303:\n        /* \"#utility.yul\":6504:6506   */\n      0x20\n        /* \"#utility.yul\":6496:6502   */\n      dup3\n        /* \"#utility.yul\":6493:6507   */\n      lt\n        /* \"#utility.yul\":6473:6491   */\n      dup2\n        /* \"#utility.yul\":6470:6508   */\n      sub\n        /* \"#utility.yul\":6467:6551   */\n      tag_304\n      jumpi\n        /* \"#utility.yul\":6523:6541   */\n      tag_305\n      tag_204\n      jump\t// in\n    tag_305:\n        /* \"#utility.yul\":6467:6551   */\n    tag_304:\n        /* \"#utility.yul\":6288:6557   */\n      pop\n        /* \"#utility.yul\":6237:6557   */\n      swap2\n      swap1\n      pop\n      jump\t// out\n        /* \"#utility.yul\":6563:6732   */\n    tag_205:\n        /* \"#utility.yul\":6703:6724   */\n      0x53656e646572206e6f74206465706c6f79657200000000000000000000000000\n        /* \"#utility.yul\":6699:6700   */\n      0x00\n        /* \"#utility.yul\":6691:6697   */\n      dup3\n        /* \"#utility.yul\":6687:6701   */\n      add\n        /* \"#utility.yul\":6680:6725   */\n      mstore\n        /* \"#utility.yul\":6563:6732   */\n      pop\n      jump\t// out\n        /* \"#utility.yul\":6738:7104   */\n    tag_206:\n        /* \"#utility.yul\":6880:6883   */\n      0x00\n        /* \"#utility.yul\":6901:6968   */\n      tag_308\n        /* \"#utility.yul\":6965:6967   */\n      0x13\n        /* \"#utility.yul\":6960:6963   */\n      dup4\n        /* \"#utility.yul\":6901:6968   */\n      tag_185\n      jump\t// in\n    tag_308:\n        /* \"#utility.yul\":6894:6968   */\n      swap2\n      pop\n        /* \"#utility.yul\":6977:7070   */\n      tag_309\n        /* \"#utility.yul\":7066:7069   */\n      dup3\n        /* \"#utility.yul\":6977:7070   */\n      tag_205\n      jump\t// in\n    tag_309:\n        /* \"#utility.yul\":7095:7097   */\n      0x20\n        /* \"#utility.yul\":7090:7093   */\n      dup3\n        /* \"#utility.yul\":7086:7098   */\n      add\n        /* \"#utility.yul\":7079:7098   */\n      swap1\n      pop\n        /* \"#utility.yul\":6738:7104   */\n      swap2\n      swap1\n      pop\n      jump\t// out\n        /* \"#utility.yul\":7110:7529   */\n    tag_101:\n        /* \"#utility.yul\":7276:7280   */\n      0x00\n        /* \"#utility.yul\":7314:7316   */\n      0x20\n        /* \"#utility.yul\":7303:7312   */\n      dup3\n        /* \"#utility.yul\":7299:7317   */\n      add\n        /* \"#utility.yul\":7291:7317   */\n      swap1\n      pop\n        /* \"#utility.yul\":7363:7372   */\n      dup2\n        /* \"#utility.yul\":7357:7361   */\n      dup2\n        /* \"#utility.yul\":7353:7373   */\n      sub\n        /* \"#utility.yul\":7349:7350   */\n      0x00\n        /* \"#utility.yul\":7338:7347   */\n      dup4\n        /* \"#utility.yul\":7334:7351   */\n      add\n        /* \"#utility.yul\":7327:7374   */\n      mstore\n        /* \"#utility.yul\":7391:7522   */\n      tag_311\n        /* \"#utility.yul\":7517:7521   */\n      dup2\n        /* \"#utility.yul\":7391:7522   */\n      tag_206\n      jump\t// in\n    tag_311:\n        /* \"#utility.yul\":7383:7522   */\n      swap1\n      pop\n        /* \"#utility.yul\":7110:7529   */\n      swap2\n      swap1\n      pop\n      jump\t// out\n        /* \"#utility.yul\":7535:7715   */\n    tag_207:\n        /* \"#utility.yul\":7583:7660   */\n      0x4e487b7100000000000000000000000000000000000000000000000000000000\n        /* \"#utility.yul\":7580:7581   */\n      0x00\n        /* \"#utility.yul\":7573:7661   */\n      mstore\n        /* \"#utility.yul\":7680:7684   */\n      0x11\n        /* \"#utility.yul\":7677:7678   */\n      0x04\n        /* \"#utility.yul\":7670:7685   */\n      mstore\n        /* \"#utility.yul\":7704:7708   */\n      0x24\n        /* \"#utility.yul\":7701:7702   */\n      0x00\n        /* \"#utility.yul\":7694:7709   */\n      revert\n        /* \"#utility.yul\":7721:8026   */\n    tag_112:\n        /* \"#utility.yul\":7761:7764   */\n      0x00\n        /* \"#utility.yul\":7780:7800   */\n      tag_314\n        /* \"#utility.yul\":7798:7799   */\n      dup3\n        /* \"#utility.yul\":7780:7800   */\n      tag_196\n      jump\t// in\n    tag_314:\n        /* \"#utility.yul\":7775:7800   */\n      swap2\n      pop\n        /* \"#utility.yul\":7814:7834   */\n      tag_315\n        /* \"#utility.yul\":7832:7833   */\n      dup4\n        /* \"#utility.yul\":7814:7834   */\n      tag_196\n      jump\t// in\n    tag_315:\n        /* \"#utility.yul\":7809:7834   */\n      swap3\n      pop\n        /* \"#utility.yul\":7968:7969   */\n      dup3\n        /* \"#utility.yul\":7900:7966   */\n      0xffffffffffffffffffffffffffffffffffffffffffffffffffffffffffffffff\n        /* \"#utility.yul\":7896:7970   */\n      sub\n        /* \"#utility.yul\":7893:7894   */\n      dup3\n        /* \"#utility.yul\":7890:7971   */\n      gt\n        /* \"#utility.yul\":7887:7994   */\n      iszero\n      tag_316\n      jumpi\n        /* \"#utility.yul\":7974:7992   */\n      tag_317\n      tag_207\n      jump\t// in\n    tag_317:\n        /* \"#utility.yul\":7887:7994   */\n    tag_316:\n        /* \"#utility.yul\":8018:8019   */\n      dup3\n        /* \"#utility.yul\":8015:8016   */\n      dup3\n        /* \"#utility.yul\":8011:8020   */\n      add\n        /* \"#utility.yul\":8004:8020   */\n      swap1\n      pop\n        /* \"#utility.yul\":7721:8026   */\n      swap3\n      swap2\n      pop\n      pop\n      jump\t// out\n        /* \"#utility.yul\":8032:8198   */\n    tag_208:\n        /* \"#utility.yul\":8172:8190   */\n      0x53656e646572206e6f74206f776e657200000000000000000000000000000000\n        /* \"#utility.yul\":8168:8169   */\n      0x00\n        /* \"#utility.yul\":8160:8166   */\n      dup3\n        /* \"#utility.yul\":8156:8170   */\n      add\n        /* \"#utility.yul\":8149:8191   */\n      mstore\n        /* \"#utility.yul\":8032:8198   */\n      pop\n      jump\t// out\n        /* \"#utility.yul\":8204:8570   */\n    tag_209:\n        /* \"#utility.yul\":8346:8349   */\n      0x00\n        /* \"#utility.yul\":8367:8434   */\n      tag_320\n        /* \"#utility.yul\":8431:8433   */\n      0x10\n        /* \"#utility.yul\":8426:8429   */\n      dup4\n        /* \"#utility.yul\":8367:8434   */\n      tag_185\n      jump\t// in\n    tag_320:\n        /* \"#utility.yul\":8360:8434   */\n      swap2\n      pop\n        /* \"#utility.yul\":8443:8536   */\n      tag_321\n        /* \"#utility.yul\":8532:8535   */\n      dup3\n        /* \"#utility.yul\":8443:8536   */\n      tag_208\n      jump\t// in\n    tag_321:\n        /* \"#utility.yul\":8561:8563   */\n      0x20\n        /* \"#utility.yul\":8556:8559   */\n      dup3\n        /* \"#utility.yul\":8552:8564   */\n      add\n        /* \"#utility.yul\":8545:8564   */\n      swap1\n      pop\n        /* \"#utility.yul\":8204:8570   */\n      swap2\n      swap1\n      pop\n      jump\t// out\n        /* \"#utility.yul\":8576:8995   */\n    tag_117:\n        /* \"#utility.yul\":8742:8746   */\n      0x00\n        /* \"#utility.yul\":8780:8782   */\n      0x20\n        /* \"#utility.yul\":8769:8778   */\n      dup3\n        /* \"#utility.yul\":8765:8783   */\n      add\n        /* \"#utility.yul\":8757:8783   */\n      swap1\n      pop\n        /* \"#utility.yul\":8829:8838   */\n      dup2\n        /* \"#utility.yul\":8823:8827   */\n      dup2\n        /* \"#utility.yul\":8819:8839   */\n      sub\n        /* \"#utility.yul\":8815:8816   */\n      0x00\n        /* \"#utility.yul\":8804:8813   */\n      dup4\n        /* \"#utility.yul\":8800:8817   */\n      add\n        /* \"#utility.yul\":8793:8840   */\n      mstore\n        /* \"#utility.yul\":8857:8988   */\n      tag_323\n        /* \"#utility.yul\":8983:8987   */\n      dup2\n        /* \"#utility.yul\":8857:8988   */\n      tag_209\n      jump\t// in\n    tag_323:\n        /* \"#utility.yul\":8849:8988   */\n      swap1\n      pop\n        /* \"#utility.yul\":8576:8995   */\n      swap2\n      swap1\n      pop\n      jump\t// out\n        /* \"#utility.yul\":9001:9225   */\n    tag_210:\n        /* \"#utility.yul\":9141:9175   */\n      0x45524332303a2064656372656173656420616c6c6f77616e63652062656c6f77\n        /* \"#utility.yul\":9137:9138   */\n      0x00\n        /* \"#utility.yul\":9129:9135   */\n      dup3\n        /* \"#utility.yul\":9125:9139   */\n      add\n        /* \"#utility.yul\":9118:9176   */\n      mstore\n        /* \"#utility.yul\":9210:9217   */\n      0x207a65726f000000000000000000000000000000000000000000000000000000\n        /* \"#utility.yul\":9205:9207   */\n      0x20\n        /* \"#utility.yul\":9197:9203   */\n      dup3\n        /* \"#utility.yul\":9193:9208   */\n      add\n        /* \"#utility.yul\":9186:9218   */\n      mstore\n        /* \"#utility.yul\":9001:9225   */\n      pop\n      jump\t// out\n        /* \"#utility.yul\":9231:9597   */\n    tag_211:\n        /* \"#utility.yul\":9373:9376   */\n      0x00\n        /* \"#utility.yul\":9394:9461   */\n      tag_326\n        /* \"#utility.yul\":9458:9460   */\n      0x25\n        /* \"#utility.yul\":9453:9456   */\n      dup4\n        /* \"#utility.yul\":9394:9461   */\n      tag_185\n      jump\t// in\n    tag_326:\n        /* \"#utility.yul\":9387:9461   */\n      swap2\n      pop\n        /* \"#utility.yul\":9470:9563   */\n      tag_327\n        /* \"#utility.yul\":9559:9562   */\n      dup3\n        /* \"#utility.yul\":9470:9563   */\n      tag_210\n      jump\t// in\n    tag_327:\n        /* \"#utility.yul\":9588:9590   */\n      0x40\n        /* \"#utility.yul\":9583:9586   */\n      dup3\n        /* \"#utility.yul\":9579:9591   */\n      add\n        /* \"#utility.yul\":9572:9591   */\n      swap1\n      pop\n        /* \"#utility.yul\":9231:9597   */\n      swap2\n      swap1\n      pop\n      jump\t// out\n        /* \"#utility.yul\":9603:10022   */\n    tag_136:\n        /* \"#utility.yul\":9769:9773   */\n      0x00\n        /* \"#utility.yul\":9807:9809   */\n      0x20\n        /* \"#utility.yul\":9796:9805   */\n      dup3\n        /* \"#utility.yul\":9792:9810   */\n      add\n        /* \"#utility.yul\":9784:9810   */\n      swap1\n      pop\n        /* \"#utility.yul\":9856:9865   */\n      dup2\n        /* \"#utility.yul\":9850:9854   */\n      dup2\n        /* \"#utility.yul\":9846:9866   */\n      sub\n        /* \"#utility.yul\":9842:9843   */\n      0x00\n        /* \"#utility.yul\":9831:9840   */\n      dup4\n        /* \"#utility.yul\":9827:9844   */\n      add\n        /* \"#utility.yul\":9820:9867   */\n      mstore\n        /* \"#utility.yul\":9884:10015   */\n      tag_329\n        /* \"#utility.yul\":10010:10014   */\n      dup2\n        /* \"#utility.yul\":9884:10015   */\n      tag_211\n      jump\t// in\n    tag_329:\n        /* \"#utility.yul\":9876:10015   */\n      swap1\n      pop\n        /* \"#utility.yul\":9603:10022   */\n      swap2\n      swap1\n      pop\n      jump\t// out\n        /* \"#utility.yul\":10028:10251   */\n    tag_212:\n        /* \"#utility.yul\":10168:10202   */\n      0x45524332303a20617070726f76652066726f6d20746865207a65726f20616464\n        /* \"#utility.yul\":10164:10165   */\n      0x00\n        /* \"#utility.yul\":10156:10162   */\n      dup3\n        /* \"#utility.yul\":10152:10166   */\n      add\n        /* \"#utility.yul\":10145:10203   */\n      mstore\n        /* \"#utility.yul\":10237:10243   */\n      0x7265737300000000000000000000000000000000000000000000000000000000\n        /* \"#utility.yul\":10232:10234   */\n      0x20\n        /* \"#utility.yul\":10224:10230   */\n      dup3\n        /* \"#utility.yul\":10220:10235   */\n      add\n        /* \"#utility.yul\":10213:10244   */\n      mstore\n        /* \"#utility.yul\":10028:10251   */\n      pop\n      jump\t// out\n        /* \"#utility.yul\":10257:10623   */\n    tag_213:\n        /* \"#utility.yul\":10399:10402   */\n      0x00\n        /* \"#utility.yul\":10420:10487   */\n      tag_332\n        /* \"#utility.yul\":10484:10486   */\n      0x24\n        /* \"#utility.yul\":10479:10482   */\n      dup4\n        /* \"#utility.yul\":10420:10487   */\n      tag_185\n      jump\t// in\n    tag_332:\n        /* \"#utility.yul\":10413:10487   */\n      swap2\n      pop\n        /* \"#utility.yul\":10496:10589   */\n      tag_333\n        /* \"#utility.yul\":10585:10588   */\n      dup3\n        /* \"#utility.yul\":10496:10589   */\n      tag_212\n      jump\t// in\n    tag_333:\n        /* \"#utility.yul\":10614:10616   */\n      0x40\n        /* \"#utility.yul\":10609:10612   */\n      dup3\n        /* \"#utility.yul\":10605:10617   */\n      add\n        /* \"#utility.yul\":10598:10617   */\n      swap1\n      pop\n        /* \"#utility.yul\":10257:10623   */\n      swap2\n      swap1\n      pop\n      jump\t// out\n        /* \"#utility.yul\":10629:11048   */\n    tag_144:\n        /* \"#utility.yul\":10795:10799   */\n      0x00\n        /* \"#utility.yul\":10833:10835   */\n      0x20\n        /* \"#utility.yul\":10822:10831   */\n      dup3\n        /* \"#utility.yul\":10818:10836   */\n      add\n        /* \"#utility.yul\":10810:10836   */\n      swap1\n      pop\n        /* \"#utility.yul\":10882:10891   */\n      dup2\n        /* \"#utility.yul\":10876:10880   */\n      dup2\n        /* \"#utility.yul\":10872:10892   */\n      sub\n        /* \"#utility.yul\":10868:10869   */\n      0x00\n        /* \"#utility.yul\":10857:10866   */\n      dup4\n        /* \"#utility.yul\":10853:10870   */\n      add\n        /* \"#utility.yul\":10846:10893   */\n      mstore\n        /* \"#utility.yul\":10910:11041   */\n      tag_335\n        /* \"#utility.yul\":11036:11040   */\n      dup2\n        /* \"#utility.yul\":10910:11041   */\n      tag_213\n      jump\t// in\n    tag_335:\n        /* \"#utility.yul\":10902:11041   */\n      swap1\n      pop\n        /* \"#utility.yul\":10629:11048   */\n      swap2\n      swap1\n      pop\n      jump\t// out\n        /* \"#utility.yul\":11054:11275   */\n    tag_214:\n        /* \"#utility.yul\":11194:11228   */\n      0x45524332303a20617070726f766520746f20746865207a65726f206164647265\n        /* \"#utility.yul\":11190:11191   */\n      0x00\n        /* \"#utility.yul\":11182:11188   */\n      dup3\n        /* \"#utility.yul\":11178:11192   */\n      add\n        /* \"#utility.yul\":11171:11229   */\n      mstore\n        /* \"#utility.yul\":11263:11267   */\n      0x7373000000000000000000000000000000000000000000000000000000000000\n        /* \"#utility.yul\":11258:11260   */\n      0x20\n        /* \"#utility.yul\":11250:11256   */\n      dup3\n        /* \"#utility.yul\":11246:11261   */\n      add\n        /* \"#utility.yul\":11239:11268   */\n      mstore\n        /* \"#utility.yul\":11054:11275   */\n      pop\n      jump\t// out\n        /* \"#utility.yul\":11281:11647   */\n    tag_215:\n        /* \"#utility.yul\":11423:11426   */\n      0x00\n        /* \"#utility.yul\":11444:11511   */\n      tag_338\n        /* \"#utility.yul\":11508:11510   */\n      0x22\n        /* \"#utility.yul\":11503:11506   */\n      dup4\n        /* \"#utility.yul\":11444:11511   */\n      tag_185\n      jump\t// in\n    tag_338:\n        /* \"#utility.yul\":11437:11511   */\n      swap2\n      pop\n        /* \"#utility.yul\":11520:11613   */\n      tag_339\n        /* \"#utility.yul\":11609:11612   */\n      dup3\n        /* \"#utility.yul\":11520:11613   */\n      tag_214\n      jump\t// in\n    tag_339:\n        /* \"#utility.yul\":11638:11640   */\n      0x40\n        /* \"#utility.yul\":11633:11636   */\n      dup3\n        /* \"#utility.yul\":11629:11641   */\n      add\n        /* \"#utility.yul\":11622:11641   */\n      swap1\n      pop\n        /* \"#utility.yul\":11281:11647   */\n      swap2\n      swap1\n      pop\n      jump\t// out\n        /* \"#utility.yul\":11653:12072   */\n    tag_147:\n        /* \"#utility.yul\":11819:11823   */\n      0x00\n        /* \"#utility.yul\":11857:11859   */\n      0x20\n        /* \"#utility.yul\":11846:11855   */\n      dup3\n        /* \"#utility.yul\":11842:11860   */\n      add\n        /* \"#utility.yul\":11834:11860   */\n      swap1\n      pop\n        /* \"#utility.yul\":11906:11915   */\n      dup2\n        /* \"#utility.yul\":11900:11904   */\n      dup2\n        /* \"#utility.yul\":11896:11916   */\n      sub\n        /* \"#utility.yul\":11892:11893   */\n      0x00\n        /* \"#utility.yul\":11881:11890   */\n      dup4\n        /* \"#utility.yul\":11877:11894   */\n      add\n        /* \"#utility.yul\":11870:11917   */\n      mstore\n        /* \"#utility.yul\":11934:12065   */\n      tag_341\n        /* \"#utility.yul\":12060:12064   */\n      dup2\n        /* \"#utility.yul\":11934:12065   */\n      tag_215\n      jump\t// in\n    tag_341:\n        /* \"#utility.yul\":11926:12065   */\n      swap1\n      pop\n        /* \"#utility.yul\":11653:12072   */\n      swap2\n      swap1\n      pop\n      jump\t// out\n        /* \"#utility.yul\":12078:12257   */\n    tag_216:\n        /* \"#utility.yul\":12218:12249   */\n      0x45524332303a20696e73756666696369656e7420616c6c6f77616e6365000000\n        /* \"#utility.yul\":12214:12215   */\n      0x00\n        /* \"#utility.yul\":12206:12212   */\n      dup3\n        /* \"#utility.yul\":12202:12216   */\n      add\n        /* \"#utility.yul\":12195:12250   */\n      mstore\n        /* \"#utility.yul\":12078:12257   */\n      pop\n      jump\t// out\n        /* \"#utility.yul\":12263:12629   */\n    tag_217:\n        /* \"#utility.yul\":12405:12408   */\n      0x00\n        /* \"#utility.yul\":12426:12493   */\n      tag_344\n        /* \"#utility.yul\":12490:12492   */\n      0x1d\n        /* \"#utility.yul\":12485:12488   */\n      dup4\n        /* \"#utility.yul\":12426:12493   */\n      tag_185\n      jump\t// in\n    tag_344:\n        /* \"#utility.yul\":12419:12493   */\n      swap2\n      pop\n        /* \"#utility.yul\":12502:12595   */\n      tag_345\n        /* \"#utility.yul\":12591:12594   */\n      dup3\n        /* \"#utility.yul\":12502:12595   */\n      tag_216\n      jump\t// in\n    tag_345:\n        /* \"#utility.yul\":12620:12622   */\n      0x20\n        /* \"#utility.yul\":12615:12618   */\n      dup3\n        /* \"#utility.yul\":12611:12623   */\n      add\n        /* \"#utility.yul\":12604:12623   */\n      swap1\n      pop\n        /* \"#utility.yul\":12263:12629   */\n      swap2\n      swap1\n      pop\n      jump\t// out\n        /* \"#utility.yul\":12635:13054   */\n    tag_153:\n        /* \"#utility.yul\":12801:12805   */\n      0x00\n        /* \"#utility.yul\":12839:12841   */\n      0x20\n        /* \"#utility.yul\":12828:12837   */\n      dup3\n        /* \"#utility.yul\":12824:12842   */\n      add\n        /* \"#utility.yul\":12816:12842   */\n      swap1\n      pop\n        /* \"#utility.yul\":12888:12897   */\n      dup2\n        /* \"#utility.yul\":12882:12886   */\n      dup2\n        /* \"#utility.yul\":12878:12898   */\n      sub\n        /* \"#utility.yul\":12874:12875   */\n      0x00\n        /* \"#utility.yul\":12863:12872   */\n      dup4\n        /* \"#utility.yul\":12859:12876   */\n      add\n        /* \"#utility.yul\":12852:12899   */\n      mstore\n        /* \"#utility.yul\":12916:13047   */\n      tag_347\n        /* \"#utility.yul\":13042:13046   */\n      dup2\n        /* \"#utility.yul\":12916:13047   */\n      tag_217\n      jump\t// in\n    tag_347:\n        /* \"#utility.yul\":12908:13047   */\n      swap1\n      pop\n        /* \"#utility.yul\":12635:13054   */\n      swap2\n      swap1\n      pop\n      jump\t// out\n        /* \"#utility.yul\":13060:13284   */\n    tag_218:\n        /* \"#utility.yul\":13200:13234   */\n      0x45524332303a207472616e736665722066726f6d20746865207a65726f206164\n        /* \"#utility.yul\":13196:13197   */\n      0x00\n        /* \"#utility.yul\":13188:13194   */\n      dup3\n        /* \"#utility.yul\":13184:13198   */\n      add\n        /* \"#utility.yul\":13177:13235   */\n      mstore\n        /* \"#utility.yul\":13269:13276   */\n      0x6472657373000000000000000000000000000000000000000000000000000000\n        /* \"#utility.yul\":13264:13266   */\n      0x20\n        /* \"#utility.yul\":13256:13262   */\n      dup3\n        /* \"#utility.yul\":13252:13267   */\n      add\n        /* \"#utility.yul\":13245:13277   */\n      mstore\n        /* \"#utility.yul\":13060:13284   */\n      pop\n      jump\t// out\n        /* \"#utility.yul\":13290:13656   */\n    tag_219:\n        /* \"#utility.yul\":13432:13435   */\n      0x00\n        /* \"#utility.yul\":13453:13520   */\n      tag_350\n        /* \"#utility.yul\":13517:13519   */\n      0x25\n        /* \"#utility.yul\":13512:13515   */\n      dup4\n        /* \"#utility.yul\":13453:13520   */\n      tag_185\n      jump\t// in\n    tag_350:\n        /* \"#utility.yul\":13446:13520   */\n      swap2\n      pop\n        /* \"#utility.yul\":13529:13622   */\n      tag_351\n        /* \"#utility.yul\":13618:13621   */\n      dup3\n        /* \"#utility.yul\":13529:13622   */\n      tag_218\n      jump\t// in\n    tag_351:\n        /* \"#utility.yul\":13647:13649   */\n      0x40\n        /* \"#utility.yul\":13642:13645   */\n      dup3\n        /* \"#utility.yul\":13638:13650   */\n      add\n        /* \"#utility.yul\":13631:13650   */\n      swap1\n      pop\n        /* \"#utility.yul\":13290:13656   */\n      swap2\n      swap1\n      pop\n      jump\t// out\n        /* \"#utility.yul\":13662:14081   */\n    tag_158:\n        /* \"#utility.yul\":13828:13832   */\n      0x00\n        /* \"#utility.yul\":13866:13868   */\n      0x20\n        /* \"#utility.yul\":13855:13864   */\n      dup3\n        /* \"#utility.yul\":13851:13869   */\n      add\n        /* \"#utility.yul\":13843:13869   */\n      swap1\n      pop\n        /* \"#utility.yul\":13915:13924   */\n      dup2\n        /* \"#utility.yul\":13909:13913   */\n      dup2\n        /* \"#utility.yul\":13905:13925   */\n      sub\n        /* \"#utility.yul\":13901:13902   */\n      0x00\n        /* \"#utility.yul\":13890:13899   */\n      dup4\n        /* \"#utility.yul\":13886:13903   */\n      add\n        /* \"#utility.yul\":13879:13926   */\n      mstore\n        /* \"#utility.yul\":13943:14074   */\n      tag_353\n        /* \"#utility.yul\":14069:14073   */\n      dup2\n        /* \"#utility.yul\":13943:14074   */\n      tag_219\n      jump\t// in\n    tag_353:\n        /* \"#utility.yul\":13935:14074   */\n      swap1\n      pop\n        /* \"#utility.yul\":13662:14081   */\n      swap2\n      swap1\n      pop\n      jump\t// out\n        /* \"#utility.yul\":14087:14309   */\n    tag_220:\n        /* \"#utility.yul\":14227:14261   */\n      0x45524332303a207472616e7366657220746f20746865207a65726f2061646472\n        /* \"#utility.yul\":14223:14224   */\n      0x00\n        /* \"#utility.yul\":14215:14221   */\n      dup3\n        /* \"#utility.yul\":14211:14225   */\n      add\n        /* \"#utility.yul\":14204:14262   */\n      mstore\n        /* \"#utility.yul\":14296:14301   */\n      0x6573730000000000000000000000000000000000000000000000000000000000\n        /* \"#utility.yul\":14291:14293   */\n      0x20\n        /* \"#utility.yul\":14283:14289   */\n      dup3\n        /* \"#utility.yul\":14279:14294   */\n      add\n        /* \"#utility.yul\":14272:14302   */\n      mstore\n        /* \"#utility.yul\":14087:14309   */\n      pop\n      jump\t// out\n        /* \"#utility.yul\":14315:14681   */\n    tag_221:\n        /* \"#utility.yul\":14457:14460   */\n      0x00\n        /* \"#utility.yul\":14478:14545   */\n      tag_356\n        /* \"#utility.yul\":14542:14544   */\n      0x23\n        /* \"#utility.yul\":14537:14540   */\n      dup4\n        /* \"#utility.yul\":14478:14545   */\n      tag_185\n      jump\t// in\n    tag_356:\n        /* \"#utility.yul\":14471:14545   */\n      swap2\n      pop\n        /* \"#utility.yul\":14554:14647   */\n      tag_357\n        /* \"#utility.yul\":14643:14646   */\n      dup3\n        /* \"#utility.yul\":14554:14647   */\n      tag_220\n      jump\t// in\n    tag_357:\n        /* \"#utility.yul\":14672:14674   */\n      0x40\n        /* \"#utility.yul\":14667:14670   */\n      dup3\n        /* \"#utility.yul\":14663:14675   */\n      add\n        /* \"#utility.yul\":14656:14675   */\n      swap1\n      pop\n        /* \"#utility.yul\":14315:14681   */\n      swap2\n      swap1\n      pop\n      jump\t// out\n        /* \"#utility.yul\":14687:15106   */\n    tag_161:\n        /* \"#utility.yul\":14853:14857   */\n      0x00\n        /* \"#utility.yul\":14891:14893   */\n      0x20\n        /* \"#utility.yul\":14880:14889   */\n      dup3\n        /* \"#utility.yul\":14876:14894   */\n      add\n        /* \"#utility.yul\":14868:14894   */\n      swap1\n      pop\n        /* \"#utility.yul\":14940:14949   */\n      dup2\n        /* \"#utility.yul\":14934:14938   */\n      dup2\n        /* \"#utility.yul\":14930:14950   */\n      sub\n        /* \"#utility.yul\":14926:14927   */\n      0x00\n        /* \"#utility.yul\":14915:14924   */\n      dup4\n        /* \"#utility.yul\":14911:14928   */\n      add\n        /* \"#utility.yul\":14904:14951   */\n      mstore\n        /* \"#utility.yul\":14968:15099   */\n      tag_359\n        /* \"#utility.yul\":15094:15098   */\n      dup2\n        /* \"#utility.yul\":14968:15099   */\n      tag_221\n      jump\t// in\n    tag_359:\n        /* \"#utility.yul\":14960:15099   */\n      swap1\n      pop\n        /* \"#utility.yul\":14687:15106   */\n      swap2\n      swap1\n      pop\n      jump\t// out\n        /* \"#utility.yul\":15112:15337   */\n    tag_222:\n        /* \"#utility.yul\":15252:15286   */\n      0x45524332303a207472616e7366657220616d6f756e7420657863656564732062\n        /* \"#utility.yul\":15248:15249   */\n      0x00\n        /* \"#utility.yul\":15240:15246   */\n      dup3\n        /* \"#utility.yul\":15236:15250   */\n      add\n        /* \"#utility.yul\":15229:15287   */\n      mstore\n        /* \"#utility.yul\":15321:15329   */\n      0x616c616e63650000000000000000000000000000000000000000000000000000\n        /* \"#utility.yul\":15316:15318   */\n      0x20\n        /* \"#utility.yul\":15308:15314   */\n      dup3\n        /* \"#utility.yul\":15304:15319   */\n      add\n        /* \"#utility.yul\":15297:15330   */\n      mstore\n        /* \"#utility.yul\":15112:15337   */\n      pop\n      jump\t// out\n        /* \"#utility.yul\":15343:15709   */\n    tag_223:\n        /* \"#utility.yul\":15485:15488   */\n      0x00\n        /* \"#utility.yul\":15506:15573   */\n      tag_362\n        /* \"#utility.yul\":15570:15572   */\n      0x26\n        /* \"#utility.yul\":15565:15568   */\n      dup4\n        /* \"#utility.yul\":15506:15573   */\n      tag_185\n      jump\t// in\n    tag_362:\n        /* \"#utility.yul\":15499:15573   */\n      swap2\n      pop\n        /* \"#utility.yul\":15582:15675   */\n      tag_363\n        /* \"#utility.yul\":15671:15674   */\n      dup3\n        /* \"#utility.yul\":15582:15675   */\n      tag_222\n      jump\t// in\n    tag_363:\n        /* \"#utility.yul\":15700:15702   */\n      0x40\n        /* \"#utility.yul\":15695:15698   */\n      dup3\n        /* \"#utility.yul\":15691:15703   */\n      add\n        /* \"#utility.yul\":15684:15703   */\n      swap1\n      pop\n        /* \"#utility.yul\":15343:15709   */\n      swap2\n      swap1\n      pop\n      jump\t// out\n        /* \"#utility.yul\":15715:16134   */\n    tag_164:\n        /* \"#utility.yul\":15881:15885   */\n      0x00\n        /* \"#utility.yul\":15919:15921   */\n      0x20\n        /* \"#utility.yul\":15908:15917   */\n      dup3\n        /* \"#utility.yul\":15904:15922   */\n      add\n        /* \"#utility.yul\":15896:15922   */\n      swap1\n      pop\n        /* \"#utility.yul\":15968:15977   */\n      dup2\n        /* \"#utility.yul\":15962:15966   */\n      dup2\n        /* \"#utility.yul\":15958:15978   */\n      sub\n        /* \"#utility.yul\":15954:15955   */\n      0x00\n        /* \"#utility.yul\":15943:15952   */\n      dup4\n        /* \"#utility.yul\":15939:15956   */\n      add\n        /* \"#utility.yul\":15932:15979   */\n      mstore\n        /* \"#utility.yul\":15996:16127   */\n      tag_365\n        /* \"#utility.yul\":16122:16126   */\n      dup2\n        /* \"#utility.yul\":15996:16127   */\n      tag_223\n      jump\t// in\n    tag_365:\n        /* \"#utility.yul\":15988:16127   */\n      swap1\n      pop\n        /* \"#utility.yul\":15715:16134   */\n      swap2\n      swap1\n      pop\n      jump\t// out\n        /* \"#utility.yul\":16140:16321   */\n    tag_224:\n        /* \"#utility.yul\":16280:16313   */\n      0x45524332303a206d696e7420746f20746865207a65726f206164647265737300\n        /* \"#utility.yul\":16276:16277   */\n      0x00\n        /* \"#utility.yul\":16268:16274   */\n      dup3\n        /* \"#utility.yul\":16264:16278   */\n      add\n        /* \"#utility.yul\":16257:16314   */\n      mstore\n        /* \"#utility.yul\":16140:16321   */\n      pop\n      jump\t// out\n        /* \"#utility.yul\":16327:16693   */\n    tag_225:\n        /* \"#utility.yul\":16469:16472   */\n      0x00\n        /* \"#utility.yul\":16490:16557   */\n      tag_368\n        /* \"#utility.yul\":16554:16556   */\n      0x1f\n        /* \"#utility.yul\":16549:16552   */\n      dup4\n        /* \"#utility.yul\":16490:16557   */\n      tag_185\n      jump\t// in\n    tag_368:\n        /* \"#utility.yul\":16483:16557   */\n      swap2\n      pop\n        /* \"#utility.yul\":16566:16659   */\n      tag_369\n        /* \"#utility.yul\":16655:16658   */\n      dup3\n        /* \"#utility.yul\":16566:16659   */\n      tag_224\n      jump\t// in\n    tag_369:\n        /* \"#utility.yul\":16684:16686   */\n      0x20\n        /* \"#utility.yul\":16679:16682   */\n      dup3\n        /* \"#utility.yul\":16675:16687   */\n      add\n        /* \"#utility.yul\":16668:16687   */\n      swap1\n      pop\n        /* \"#utility.yul\":16327:16693   */\n      swap2\n      swap1\n      pop\n      jump\t// out\n        /* \"#utility.yul\":16699:17118   */\n    tag_170:\n        /* \"#utility.yul\":16865:16869   */\n      0x00\n        /* \"#utility.yul\":16903:16905   */\n      0x20\n        /* \"#utility.yul\":16892:16901   */\n      dup3\n        /* \"#utility.yul\":16888:16906   */\n      add\n        /* \"#utility.yul\":16880:16906   */\n      swap1\n      pop\n        /* \"#utility.yul\":16952:16961   */\n      dup2\n        /* \"#utility.yul\":16946:16950   */\n      dup2\n        /* \"#utility.yul\":16942:16962   */\n      sub\n        /* \"#utility.yul\":16938:16939   */\n      0x00\n        /* \"#utility.yul\":16927:16936   */\n      dup4\n        /* \"#utility.yul\":16923:16940   */\n      add\n        /* \"#utility.yul\":16916:16963   */\n      mstore\n        /* \"#utility.yul\":16980:17111   */\n      tag_371\n        /* \"#utility.yul\":17106:17110   */\n      dup2\n        /* \"#utility.yul\":16980:17111   */\n      tag_225\n      jump\t// in\n    tag_371:\n        /* \"#utility.yul\":16972:17111   */\n      swap1\n      pop\n        /* \"#utility.yul\":16699:17118   */\n      swap2\n      swap1\n      pop\n      jump\t// out\n        /* \"#utility.yul\":17124:17344   */\n    tag_226:\n        /* \"#utility.yul\":17264:17298   */\n      0x45524332303a206275726e2066726f6d20746865207a65726f20616464726573\n        /* \"#utility.yul\":17260:17261   */\n      0x00\n        /* \"#utility.yul\":17252:17258   */\n      dup3\n        /* \"#utility.yul\":17248:17262   */\n      add\n        /* \"#utility.yul\":17241:17299   */\n      mstore\n        /* \"#utility.yul\":17333:17336   */\n      0x7300000000000000000000000000000000000000000000000000000000000000\n        /* \"#utility.yul\":17328:17330   */\n      0x20\n        /* \"#utility.yul\":17320:17326   */\n      dup3\n        /* \"#utility.yul\":17316:17331   */\n      add\n        /* \"#utility.yul\":17309:17337   */\n      mstore\n        /* \"#utility.yul\":17124:17344   */\n      pop\n      jump\t// out\n        /* \"#utility.yul\":17350:17716   */\n    tag_227:\n        /* \"#utility.yul\":17492:17495   */\n      0x00\n        /* \"#utility.yul\":17513:17580   */\n      tag_374\n        /* \"#utility.yul\":17577:17579   */\n      0x21\n        /* \"#utility.yul\":17572:17575   */\n      dup4\n        /* \"#utility.yul\":17513:17580   */\n      tag_185\n      jump\t// in\n    tag_374:\n        /* \"#utility.yul\":17506:17580   */\n      swap2\n      pop\n        /* \"#utility.yul\":17589:17682   */\n      tag_375\n        /* \"#utility.yul\":17678:17681   */\n      dup3\n        /* \"#utility.yul\":17589:17682   */\n      tag_226\n      jump\t// in\n    tag_375:\n        /* \"#utility.yul\":17707:17709   */\n      0x40\n        /* \"#utility.yul\":17702:17705   */\n      dup3\n        /* \"#utility.yul\":17698:17710   */\n      add\n        /* \"#utility.yul\":17691:17710   */\n      swap1\n      pop\n        /* \"#utility.yul\":17350:17716   */\n      swap2\n      swap1\n      pop\n      jump\t// out\n        /* \"#utility.yul\":17722:18141   */\n    tag_177:\n        /* \"#utility.yul\":17888:17892   */\n      0x00\n        /* \"#utility.yul\":17926:17928   */\n      0x20\n        /* \"#utility.yul\":17915:17924   */\n      dup3\n        /* \"#utility.yul\":17911:17929   */\n      add\n        /* \"#utility.yul\":17903:17929   */\n      swap1\n      pop\n        /* \"#utility.yul\":17975:17984   */\n      dup2\n        /* \"#utility.yul\":17969:17973   */\n      dup2\n        /* \"#utility.yul\":17965:17985   */\n      sub\n        /* \"#utility.yul\":17961:17962   */\n      0x00\n        /* \"#utility.yul\":17950:17959   */\n      dup4\n        /* \"#utility.yul\":17946:17963   */\n      add\n        /* \"#utility.yul\":17939:17986   */\n      mstore\n        /* \"#utility.yul\":18003:18134   */\n      tag_377\n        /* \"#utility.yul\":18129:18133   */\n      dup2\n        /* \"#utility.yul\":18003:18134   */\n      tag_227\n      jump\t// in\n    tag_377:\n        /* \"#utility.yul\":17995:18134   */\n      swap1\n      pop\n        /* \"#utility.yul\":17722:18141   */\n      swap2\n      swap1\n      pop\n      jump\t// out\n        /* \"#utility.yul\":18147:18368   */\n    tag_228:\n        /* \"#utility.yul\":18287:18321   */\n      0x45524332303a206275726e20616d6f756e7420657863656564732062616c616e\n        /* \"#utility.yul\":18283:18284   */\n      0x00\n        /* \"#utility.yul\":18275:18281   */\n      dup3\n        /* \"#utility.yul\":18271:18285   */\n      add\n        /* \"#utility.yul\":18264:18322   */\n      mstore\n        /* \"#utility.yul\":18356:18360   */\n      0x6365000000000000000000000000000000000000000000000000000000000000\n        /* \"#utility.yul\":18351:18353   */\n      0x20\n        /* \"#utility.yul\":18343:18349   */\n      dup3\n        /* \"#utility.yul\":18339:18354   */\n      add\n        /* \"#utility.yul\":18332:18361   */\n      mstore\n        /* \"#utility.yul\":18147:18368   */\n      pop\n      jump\t// out\n        /* \"#utility.yul\":18374:18740   */\n    tag_229:\n        /* \"#utility.yul\":18516:18519   */\n      0x00\n        /* \"#utility.yul\":18537:18604   */\n      tag_380\n        /* \"#utility.yul\":18601:18603   */\n      0x22\n        /* \"#utility.yul\":18596:18599   */\n      dup4\n        /* \"#utility.yul\":18537:18604   */\n      tag_185\n      jump\t// in\n    tag_380:\n        /* \"#utility.yul\":18530:18604   */\n      swap2\n      pop\n        /* \"#utility.yul\":18613:18706   */\n      tag_381\n        /* \"#utility.yul\":18702:18705   */\n      dup3\n        /* \"#utility.yul\":18613:18706   */\n      tag_228\n      jump\t// in\n    tag_381:\n        /* \"#utility.yul\":18731:18733   */\n      0x40\n        /* \"#utility.yul\":18726:18729   */\n      dup3\n        /* \"#utility.yul\":18722:18734   */\n      add\n        /* \"#utility.yul\":18715:18734   */\n      swap1\n      pop\n        /* \"#utility.yul\":18374:18740   */\n      swap2\n      swap1\n      pop\n      jump\t// out\n        /* \"#utility.yul\":18746:19165   */\n    tag_180:\n        /* \"#utility.yul\":18912:18916   */\n      0x00\n        /* \"#utility.yul\":18950:18952   */\n      0x20\n        /* \"#utility.yul\":18939:18948   */\n      dup3\n        /* \"#utility.yul\":18935:18953   */\n      add\n        /* \"#utility.yul\":18927:18953   */\n      swap1\n      pop\n        /* \"#utility.yul\":18999:19008   */\n      dup2\n        /* \"#utility.yul\":18993:18997   */\n      dup2\n        /* \"#utility.yul\":18989:19009   */\n      sub\n        /* \"#utility.yul\":18985:18986   */\n      0x00\n        /* \"#utility.yul\":18974:18983   */\n      dup4\n        /* \"#utility.yul\":18970:18987   */\n      add\n        /* \"#utility.yul\":18963:19010   */\n      mstore\n        /* \"#utility.yul\":19027:19158   */\n      tag_383\n        /* \"#utility.yul\":19153:19157   */\n      dup2\n        /* \"#utility.yul\":19027:19158   */\n      tag_229\n      jump\t// in\n    tag_383:\n        /* \"#utility.yul\":19019:19158   */\n      swap1\n      pop\n        /* \"#utility.yul\":18746:19165   */\n      swap2\n      swap1\n      pop\n      jump\t// out\n        /* \"#utility.yul\":19171:19362   */\n    tag_182:\n        /* \"#utility.yul\":19211:19215   */\n      0x00\n        /* \"#utility.yul\":19231:19251   */\n      tag_385\n        /* \"#utility.yul\":19249:19250   */\n      dup3\n        /* \"#utility.yul\":19231:19251   */\n      tag_196\n      jump\t// in\n    tag_385:\n        /* \"#utility.yul\":19226:19251   */\n      swap2\n      pop\n        /* \"#utility.yul\":19265:19285   */\n      tag_386\n        /* \"#utility.yul\":19283:19284   */\n      dup4\n        /* \"#utility.yul\":19265:19285   */\n      tag_196\n      jump\t// in\n    tag_386:\n        /* \"#utility.yul\":19260:19285   */\n      swap3\n      pop\n        /* \"#utility.yul\":19304:19305   */\n      dup3\n        /* \"#utility.yul\":19301:19302   */\n      dup3\n        /* \"#utility.yul\":19298:19306   */\n      lt\n        /* \"#utility.yul\":19295:19329   */\n      iszero\n      tag_387\n      jumpi\n        /* \"#utility.yul\":19309:19327   */\n      tag_388\n      tag_207\n      jump\t// in\n    tag_388:\n        /* \"#utility.yul\":19295:19329   */\n    tag_387:\n        /* \"#utility.yul\":19354:19355   */\n      dup3\n        /* \"#utility.yul\":19351:19352   */\n      dup3\n        /* \"#utility.yul\":19347:19356   */\n      sub\n        /* \"#utility.yul\":19339:19356   */\n      swap1\n      pop\n        /* \"#utility.yul\":19171:19362   */\n      swap3\n      swap2\n      pop\n      pop\n      jump\t// out\n\n    auxdata: 0xa26469706673582212207aa090a451795b238e0b4519290c80759d05dc55740b330448d3c424cec5309164736f6c634300080e0033\n}\n",
				"bytecode": {
					"linkReferences": {},
					"object": "60a06040523480156200001157600080fd5b50604051620021003803806200210083398181016040528101906200003791906200038d565b82600490805190602001906200004f92919062000102565b5081600590805190602001906200006892919062000102565b5080600660006101000a81548160ff021916908360ff1602179055503373ffffffffffffffffffffffffffffffffffffffff1660808173ffffffffffffffffffffffffffffffffffffffff168152505033600260006101000a81548173ffffffffffffffffffffffffffffffffffffffff021916908373ffffffffffffffffffffffffffffffffffffffff1602179055505050506200048b565b828054620001109062000456565b90600052602060002090601f01602090048101928262000134576000855562000180565b82601f106200014f57805160ff191683800117855562000180565b8280016001018555821562000180579182015b828111156200017f57825182559160200191906001019062000162565b5b5090506200018f919062000193565b5090565b5b80821115620001ae57600081600090555060010162000194565b5090565b6000604051905090565b600080fd5b600080fd5b600080fd5b600080fd5b6000601f19601f8301169050919050565b7f4e487b7100000000000000000000000000000000000000000000000000000000600052604160045260246000fd5b6200021b82620001d0565b810181811067ffffffffffffffff821117156200023d576200023c620001e1565b5b80604052505050565b600062000252620001b2565b905062000260828262000210565b919050565b600067ffffffffffffffff821115620002835762000282620001e1565b5b6200028e82620001d0565b9050602081019050919050565b60005b83811015620002bb5780820151818401526020810190506200029e565b83811115620002cb576000848401525b50505050565b6000620002e8620002e28462000265565b62000246565b905082815260208101848484011115620003075762000306620001cb565b5b620003148482856200029b565b509392505050565b600082601f830112620003345762000333620001c6565b5b815162000346848260208601620002d1565b91505092915050565b600060ff82169050919050565b62000367816200034f565b81146200037357600080fd5b50565b60008151905062000387816200035c565b92915050565b600080600060608486031215620003a957620003a8620001bc565b5b600084015167ffffffffffffffff811115620003ca57620003c9620001c1565b5b620003d8868287016200031c565b935050602084015167ffffffffffffffff811115620003fc57620003fb620001c1565b5b6200040a868287016200031c565b92505060406200041d8682870162000376565b9150509250925092565b7f4e487b7100000000000000000000000000000000000000000000000000000000600052602260045260246000fd5b600060028204905060018216806200046f57607f821691505b60208210810362000485576200048462000427565b5b50919050565b608051611c52620004ae6000396000818161043e015261064d0152611c526000f3fe608060405234801561001057600080fd5b50600436106101005760003560e01c806340c10f191161009757806395d89b411161006657806395d89b41146102e9578063a457c2d714610307578063a9059cbb14610337578063dd62ed3e1461036757610100565b806340c10f191461022957806342966c681461025957806370a082311461028957806379cc6790146102b957610100565b806323b872dd116100d357806323b872dd1461018d578063313ce567146101bd57806339509351146101db5780633eaaf86b1461020b57610100565b806306fdde0314610105578063095ea7b31461012357806313af40351461015357806318160ddd1461016f575b600080fd5b61010d610397565b60405161011a9190611244565b60405180910390f35b61013d600480360381019061013891906112ff565b610425565b60405161014a919061135a565b60405180910390f35b61016d60048036038101906101689190611375565b61043c565b005b61017761050e565b60405161018491906113b1565b60405180910390f35b6101a760048036038101906101a291906113cc565b610518565b6040516101b4919061135a565b60405180910390f35b6101c561053b565b6040516101d2919061143b565b60405180910390f35b6101f560048036038101906101f091906112ff565b61054e565b604051610202919061135a565b60405180910390f35b6102136105ec565b60405161022091906113b1565b60405180910390f35b610243600480360381019061023e91906112ff565b6105f2565b604051610250919061135a565b60405180910390f35b610273600480360381019061026e9190611456565b6106ee565b604051610280919061135a565b60405180910390f35b6102a3600480360381019061029e9190611375565b610703565b6040516102b091906113b1565b60405180910390f35b6102d360048036038101906102ce91906112ff565b61074b565b6040516102e0919061135a565b60405180910390f35b6102f161076c565b6040516102fe9190611244565b60405180910390f35b610321600480360381019061031c91906112ff565b6107fa565b60405161032e919061135a565b60405180910390f35b610351600480360381019061034c91906112ff565b6108d7565b60405161035e919061135a565b60405180910390f35b610381600480360381019061037c9190611483565b6108ee565b60405161038e91906113b1565b60405180910390f35b600480546103a4906114f2565b80601f01602080910402602001604051908101604052809291908181526020018280546103d0906114f2565b801561041d5780601f106103f25761010080835404028352916020019161041d565b820191906000526020600020905b81548152906001019060200180831161040057829003601f168201915b505050505081565b6000610432338484610975565b6001905092915050565b7f000000000000000000000000000000000000000000000000000000000000000073ffffffffffffffffffffffffffffffffffffffff163373ffffffffffffffffffffffffffffffffffffffff16146104ca576040517f08c379a00000000000000000000000000000000000000000000000000000000081526004016104c19061156f565b60405180910390fd5b80600260006101000a81548173ffffffffffffffffffffffffffffffffffffffff021916908373ffffffffffffffffffffffffffffffffffffffff16021790555050565b6000600354905090565b6000610525843384610b3e565b610530848484610c3d565b600190509392505050565b600660009054906101000a900460ff1681565b60006105e2338484600160003373ffffffffffffffffffffffffffffffffffffffff1673ffffffffffffffffffffffffffffffffffffffff16815260200190815260200160002060008873ffffffffffffffffffffffffffffffffffffffff1673ffffffffffffffffffffffffffffffffffffffff168152602001908152602001600020546105dd91906115be565b610975565b6001905092915050565b60035481565b6000600260009054906101000a900473ffffffffffffffffffffffffffffffffffffffff1673ffffffffffffffffffffffffffffffffffffffff163373ffffffffffffffffffffffffffffffffffffffff16148061069b57507f000000000000000000000000000000000000000000000000000000000000000073ffffffffffffffffffffffffffffffffffffffff163373ffffffffffffffffffffffffffffffffffffffff16145b6106da576040517f08c379a00000000000000000000000000000000000000000000000000000000081526004016106d190611660565b60405180910390fd5b6106e48383610ea6565b6001905092915050565b60006106fa3383610fed565b60019050919050565b60008060008373ffffffffffffffffffffffffffffffffffffffff1673ffffffffffffffffffffffffffffffffffffffff168152602001908152602001600020549050919050565b6000610758833384610b3e565b6107628383610fed565b6001905092915050565b60058054610779906114f2565b80601f01602080910402602001604051908101604052809291908181526020018280546107a5906114f2565b80156107f25780601f106107c7576101008083540402835291602001916107f2565b820191906000526020600020905b8154815290600101906020018083116107d557829003601f168201915b505050505081565b600080600160003373ffffffffffffffffffffffffffffffffffffffff1673ffffffffffffffffffffffffffffffffffffffff16815260200190815260200160002060008573ffffffffffffffffffffffffffffffffffffffff1673ffffffffffffffffffffffffffffffffffffffff168152602001908152602001600020549050828110156108bf576040517f08c379a00000000000000000000000000000000000000000000000000000000081526004016108b6906116f2565b60405180910390fd5b6108cc3385858403610975565b600191505092915050565b60006108e4338484610c3d565b6001905092915050565b6000600160008473ffffffffffffffffffffffffffffffffffffffff1673ffffffffffffffffffffffffffffffffffffffff16815260200190815260200160002060008373ffffffffffffffffffffffffffffffffffffffff1673ffffffffffffffffffffffffffffffffffffffff16815260200190815260200160002054905092915050565b600073ffffffffffffffffffffffffffffffffffffffff168373ffffffffffffffffffffffffffffffffffffffff16036109e4576040517f08c379a00000000000000000000000000000000000000000000000000000000081526004016109db90611784565b60405180910390fd5b600073ffffffffffffffffffffffffffffffffffffffff168273ffffffffffffffffffffffffffffffffffffffff1603610a53576040517f08c379a0000000000000000000000000000000000000000000000000000000008152600401610a4a90611816565b60405180910390fd5b80600160008573ffffffffffffffffffffffffffffffffffffffff1673ffffffffffffffffffffffffffffffffffffffff16815260200190815260200160002060008473ffffffffffffffffffffffffffffffffffffffff1673ffffffffffffffffffffffffffffffffffffffff168152602001908152602001600020819055508173ffffffffffffffffffffffffffffffffffffffff168373ffffffffffffffffffffffffffffffffffffffff167f8c5be1e5ebec7d5bd14f71427d1e84f3dd0314c0f7b2291e5b200ac8c7c3b92583604051610b3191906113b1565b60405180910390a3505050565b6000600160003373ffffffffffffffffffffffffffffffffffffffff1673ffffffffffffffffffffffffffffffffffffffff16815260200190815260200160002060008473ffffffffffffffffffffffffffffffffffffffff1673ffffffffffffffffffffffffffffffffffffffff1681526020019081526020016000205490507fffffffffffffffffffffffffffffffffffffffffffffffffffffffffffffffff8114610c375781811015610c29576040517f08c379a0000000000000000000000000000000000000000000000000000000008152600401610c2090611882565b60405180910390fd5b610c368484848403610975565b5b50505050565b600073ffffffffffffffffffffffffffffffffffffffff168373ffffffffffffffffffffffffffffffffffffffff1603610cac576040517f08c379a0000000000000000000000000000000000000000000000000000000008152600401610ca390611914565b60405180910390fd5b600073ffffffffffffffffffffffffffffffffffffffff168273ffffffffffffffffffffffffffffffffffffffff1603610d1b576040517f08c379a0000000000000000000000000000000000000000000000000000000008152600401610d12906119a6565b60405180910390fd5b60008060008573ffffffffffffffffffffffffffffffffffffffff1673ffffffffffffffffffffffffffffffffffffffff16815260200190815260200160002054905081811015610da1576040517f08c379a0000000000000000000000000000000000000000000000000000000008152600401610d9890611a38565b60405180910390fd5b8181036000808673ffffffffffffffffffffffffffffffffffffffff1673ffffffffffffffffffffffffffffffffffffffff16815260200190815260200160002081905550816000808573ffffffffffffffffffffffffffffffffffffffff1673ffffffffffffffffffffffffffffffffffffffff1681526020019081526020016000206000828254610e3491906115be565b925050819055508273ffffffffffffffffffffffffffffffffffffffff168473ffffffffffffffffffffffffffffffffffffffff167fddf252ad1be2c89b69c2b068fc378daa952ba7f163c4a11628f55a4df523b3ef84604051610e9891906113b1565b60405180910390a350505050565b600073ffffffffffffffffffffffffffffffffffffffff168273ffffffffffffffffffffffffffffffffffffffff1603610f15576040517f08c379a0000000000000000000000000000000000000000000000000000000008152600401610f0c90611aa4565b60405180910390fd5b8060036000828254610f2791906115be565b92505081905550806000808473ffffffffffffffffffffffffffffffffffffffff1673ffffffffffffffffffffffffffffffffffffffff1681526020019081526020016000206000828254610f7c91906115be565b925050819055508173ffffffffffffffffffffffffffffffffffffffff16600073ffffffffffffffffffffffffffffffffffffffff167fddf252ad1be2c89b69c2b068fc378daa952ba7f163c4a11628f55a4df523b3ef83604051610fe191906113b1565b60405180910390a35050565b600073ffffffffffffffffffffffffffffffffffffffff168273ffffffffffffffffffffffffffffffffffffffff160361105c576040517f08c379a000000000000000000000000000000000000000000000000000000000815260040161105390611b36565b60405180910390fd5b60008060008473ffffffffffffffffffffffffffffffffffffffff1673ffffffffffffffffffffffffffffffffffffffff168152602001908152602001600020549050818110156110e2576040517f08c379a00000000000000000000000000000000000000000000000000000000081526004016110d990611bc8565b60405180910390fd5b8181036000808573ffffffffffffffffffffffffffffffffffffffff1673ffffffffffffffffffffffffffffffffffffffff1681526020019081526020016000208190555081600360008282546111399190611be8565b92505081905550600073ffffffffffffffffffffffffffffffffffffffff168373ffffffffffffffffffffffffffffffffffffffff167fddf252ad1be2c89b69c2b068fc378daa952ba7f163c4a11628f55a4df523b3ef8460405161119e91906113b1565b60405180910390a3505050565b600081519050919050565b600082825260208201905092915050565b60005b838110156111e55780820151818401526020810190506111ca565b838111156111f4576000848401525b50505050565b6000601f19601f8301169050919050565b6000611216826111ab565b61122081856111b6565b93506112308185602086016111c7565b611239816111fa565b840191505092915050565b6000602082019050818103600083015261125e818461120b565b905092915050565b600080fd5b600073ffffffffffffffffffffffffffffffffffffffff82169050919050565b60006112968261126b565b9050919050565b6112a68161128b565b81146112b157600080fd5b50565b6000813590506112c38161129d565b92915050565b6000819050919050565b6112dc816112c9565b81146112e757600080fd5b50565b6000813590506112f9816112d3565b92915050565b6000806040838503121561131657611315611266565b5b6000611324858286016112b4565b9250506020611335858286016112ea565b9150509250929050565b60008115159050919050565b6113548161133f565b82525050565b600060208201905061136f600083018461134b565b92915050565b60006020828403121561138b5761138a611266565b5b6000611399848285016112b4565b91505092915050565b6113ab816112c9565b82525050565b60006020820190506113c660008301846113a2565b92915050565b6000806000606084860312156113e5576113e4611266565b5b60006113f3868287016112b4565b9350506020611404868287016112b4565b9250506040611415868287016112ea565b9150509250925092565b600060ff82169050919050565b6114358161141f565b82525050565b6000602082019050611450600083018461142c565b92915050565b60006020828403121561146c5761146b611266565b5b600061147a848285016112ea565b91505092915050565b6000806040838503121561149a57611499611266565b5b60006114a8858286016112b4565b92505060206114b9858286016112b4565b9150509250929050565b7f4e487b7100000000000000000000000000000000000000000000000000000000600052602260045260246000fd5b6000600282049050600182168061150a57607f821691505b60208210810361151d5761151c6114c3565b5b50919050565b7f53656e646572206e6f74206465706c6f79657200000000000000000000000000600082015250565b60006115596013836111b6565b915061156482611523565b602082019050919050565b600060208201905081810360008301526115888161154c565b9050919050565b7f4e487b7100000000000000000000000000000000000000000000000000000000600052601160045260246000fd5b60006115c9826112c9565b91506115d4836112c9565b9250827fffffffffffffffffffffffffffffffffffffffffffffffffffffffffffffffff038211156116095761160861158f565b5b828201905092915050565b7f53656e646572206e6f74206f776e657200000000000000000000000000000000600082015250565b600061164a6010836111b6565b915061165582611614565b602082019050919050565b600060208201905081810360008301526116798161163d565b9050919050565b7f45524332303a2064656372656173656420616c6c6f77616e63652062656c6f7760008201527f207a65726f000000000000000000000000000000000000000000000000000000602082015250565b60006116dc6025836111b6565b91506116e782611680565b604082019050919050565b6000602082019050818103600083015261170b816116cf565b9050919050565b7f45524332303a20617070726f76652066726f6d20746865207a65726f2061646460008201527f7265737300000000000000000000000000000000000000000000000000000000602082015250565b600061176e6024836111b6565b915061177982611712565b604082019050919050565b6000602082019050818103600083015261179d81611761565b9050919050565b7f45524332303a20617070726f766520746f20746865207a65726f20616464726560008201527f7373000000000000000000000000000000000000000000000000000000000000602082015250565b60006118006022836111b6565b915061180b826117a4565b604082019050919050565b6000602082019050818103600083015261182f816117f3565b9050919050565b7f45524332303a20696e73756666696369656e7420616c6c6f77616e6365000000600082015250565b600061186c601d836111b6565b915061187782611836565b602082019050919050565b6000602082019050818103600083015261189b8161185f565b9050919050565b7f45524332303a207472616e736665722066726f6d20746865207a65726f20616460008201527f6472657373000000000000000000000000000000000000000000000000000000602082015250565b60006118fe6025836111b6565b9150611909826118a2565b604082019050919050565b6000602082019050818103600083015261192d816118f1565b9050919050565b7f45524332303a207472616e7366657220746f20746865207a65726f206164647260008201527f6573730000000000000000000000000000000000000000000000000000000000602082015250565b60006119906023836111b6565b915061199b82611934565b604082019050919050565b600060208201905081810360008301526119bf81611983565b9050919050565b7f45524332303a207472616e7366657220616d6f756e742065786365656473206260008201527f616c616e63650000000000000000000000000000000000000000000000000000602082015250565b6000611a226026836111b6565b9150611a2d826119c6565b604082019050919050565b60006020820190508181036000830152611a5181611a15565b9050919050565b7f45524332303a206d696e7420746f20746865207a65726f206164647265737300600082015250565b6000611a8e601f836111b6565b9150611a9982611a58565b602082019050919050565b60006020820190508181036000830152611abd81611a81565b9050919050565b7f45524332303a206275726e2066726f6d20746865207a65726f2061646472657360008201527f7300000000000000000000000000000000000000000000000000000000000000602082015250565b6000611b206021836111b6565b9150611b2b82611ac4565b604082019050919050565b60006020820190508181036000830152611b4f81611b13565b9050919050565b7f45524332303a206275726e20616d6f756e7420657863656564732062616c616e60008201527f6365000000000000000000000000000000000000000000000000000000000000602082015250565b6000611bb26022836111b6565b9150611bbd82611b56565b604082019050919050565b60006020820190508181036000830152611be181611ba5565b9050919050565b6000611bf3826112c9565b9150611bfe836112c9565b925082821015611c1157611c1061158f565b5b82820390509291505056fea26469706673582212207aa090a451795b238e0b4519290c80759d05dc55740b330448d3c424cec5309164736f6c634300080e0033",
					"opcodes": "PUSH1 0xA0 PUSH1 0x40 MSTORE CALLVALUE DUP1 ISZERO PUSH3 0x11 JUMPI PUSH1 0x0 DUP1 REVERT JUMPDEST POP PUSH1 0x40 MLOAD PUSH3 0x2100 CODESIZE SUB DUP1 PUSH3 0x2100 DUP4 CODECOPY DUP2 DUP2 ADD PUSH1 0x40 MSTORE DUP2 ADD SWAP1 PUSH3 0x37 SWAP2 SWAP1 PUSH3 0x38D JUMP JUMPDEST DUP3 PUSH1 0x4 SWAP1 DUP1 MLOAD SWAP1 PUSH1 0x20 ADD SWAP1 PUSH3 0x4F SWAP3 SWAP2 SWAP1 PUSH3 0x102 JUMP JUMPDEST POP DUP2 PUSH1 0x5 SWAP1 DUP1 MLOAD SWAP1 PUSH1 0x20 ADD SWAP1 PUSH3 0x68 SWAP3 SWAP2 SWAP1 PUSH3 0x102 JUMP JUMPDEST POP DUP1 PUSH1 0x6 PUSH1 0x0 PUSH2 0x100 EXP DUP2 SLOAD DUP2 PUSH1 0xFF MUL NOT AND SWAP1 DUP4 PUSH1 0xFF AND MUL OR SWAP1 SSTORE POP CALLER PUSH20 0xFFFFFFFFFFFFFFFFFFFFFFFFFFFFFFFFFFFFFFFF AND PUSH1 0x80 DUP2 PUSH20 0xFFFFFFFFFFFFFFFFFFFFFFFFFFFFFFFFFFFFFFFF AND DUP2 MSTORE POP POP CALLER PUSH1 0x2 PUSH1 0x0 PUSH2 0x100 EXP DUP2 SLOAD DUP2 PUSH20 0xFFFFFFFFFFFFFFFFFFFFFFFFFFFFFFFFFFFFFFFF MUL NOT AND SWAP1 DUP4 PUSH20 0xFFFFFFFFFFFFFFFFFFFFFFFFFFFFFFFFFFFFFFFF AND MUL OR SWAP1 SSTORE POP POP POP POP PUSH3 0x48B JUMP JUMPDEST DUP3 DUP1 SLOAD PUSH3 0x110 SWAP1 PUSH3 0x456 JUMP JUMPDEST SWAP1 PUSH1 0x0 MSTORE PUSH1 0x20 PUSH1 0x0 KECCAK256 SWAP1 PUSH1 0x1F ADD PUSH1 0x20 SWAP1 DIV DUP2 ADD SWAP3 DUP3 PUSH3 0x134 JUMPI PUSH1 0x0 DUP6 SSTORE PUSH3 0x180 JUMP JUMPDEST DUP3 PUSH1 0x1F LT PUSH3 0x14F JUMPI DUP1 MLOAD PUSH1 0xFF NOT AND DUP4 DUP1 ADD OR DUP6 SSTORE PUSH3 0x180 JUMP JUMPDEST DUP3 DUP1 ADD PUSH1 0x1 ADD DUP6 SSTORE DUP3 ISZERO PUSH3 0x180 JUMPI SWAP2 DUP3 ADD JUMPDEST DUP3 DUP2 GT ISZERO PUSH3 0x17F JUMPI DUP3 MLOAD DUP3 SSTORE SWAP2 PUSH1 0x20 ADD SWAP2 SWAP1 PUSH1 0x1 ADD SWAP1 PUSH3 0x162 JUMP JUMPDEST JUMPDEST POP SWAP1 POP PUSH3 0x18F SWAP2 SWAP1 PUSH3 0x193 JUMP JUMPDEST POP SWAP1 JUMP JUMPDEST JUMPDEST DUP1 DUP3 GT ISZERO PUSH3 0x1AE JUMPI PUSH1 0x0 DUP2 PUSH1 0x0 SWAP1 SSTORE POP PUSH1 0x1 ADD PUSH3 0x194 JUMP JUMPDEST POP SWAP1 JUMP JUMPDEST PUSH1 0x0 PUSH1 0x40 MLOAD SWAP1 POP SWAP1 JUMP JUMPDEST PUSH1 0x0 DUP1 REVERT JUMPDEST PUSH1 0x0 DUP1 REVERT JUMPDEST PUSH1 0x0 DUP1 REVERT JUMPDEST PUSH1 0x0 DUP1 REVERT JUMPDEST PUSH1 0x0 PUSH1 0x1F NOT PUSH1 0x1F DUP4 ADD AND SWAP1 POP SWAP2 SWAP1 POP JUMP JUMPDEST PUSH32 0x4E487B7100000000000000000000000000000000000000000000000000000000 PUSH1 0x0 MSTORE PUSH1 0x41 PUSH1 0x4 MSTORE PUSH1 0x24 PUSH1 0x0 REVERT JUMPDEST PUSH3 0x21B DUP3 PUSH3 0x1D0 JUMP JUMPDEST DUP2 ADD DUP2 DUP2 LT PUSH8 0xFFFFFFFFFFFFFFFF DUP3 GT OR ISZERO PUSH3 0x23D JUMPI PUSH3 0x23C PUSH3 0x1E1 JUMP JUMPDEST JUMPDEST DUP1 PUSH1 0x40 MSTORE POP POP POP JUMP JUMPDEST PUSH1 0x0 PUSH3 0x252 PUSH3 0x1B2 JUMP JUMPDEST SWAP1 POP PUSH3 0x260 DUP3 DUP3 PUSH3 0x210 JUMP JUMPDEST SWAP2 SWAP1 POP JUMP JUMPDEST PUSH1 0x0 PUSH8 0xFFFFFFFFFFFFFFFF DUP3 GT ISZERO PUSH3 0x283 JUMPI PUSH3 0x282 PUSH3 0x1E1 JUMP JUMPDEST JUMPDEST PUSH3 0x28E DUP3 PUSH3 0x1D0 JUMP JUMPDEST SWAP1 POP PUSH1 0x20 DUP2 ADD SWAP1 POP SWAP2 SWAP1 POP JUMP JUMPDEST PUSH1 0x0 JUMPDEST DUP4 DUP2 LT ISZERO PUSH3 0x2BB JUMPI DUP1 DUP3 ADD MLOAD DUP2 DUP5 ADD MSTORE PUSH1 0x20 DUP2 ADD SWAP1 POP PUSH3 0x29E JUMP JUMPDEST DUP4 DUP2 GT ISZERO PUSH3 0x2CB JUMPI PUSH1 0x0 DUP5 DUP5 ADD MSTORE JUMPDEST POP POP POP POP JUMP JUMPDEST PUSH1 0x0 PUSH3 0x2E8 PUSH3 0x2E2 DUP5 PUSH3 0x265 JUMP JUMPDEST PUSH3 0x246 JUMP JUMPDEST SWAP1 POP DUP3 DUP2 MSTORE PUSH1 0x20 DUP2 ADD DUP5 DUP5 DUP5 ADD GT ISZERO PUSH3 0x307 JUMPI PUSH3 0x306 PUSH3 0x1CB JUMP JUMPDEST JUMPDEST PUSH3 0x314 DUP5 DUP3 DUP6 PUSH3 0x29B JUMP JUMPDEST POP SWAP4 SWAP3 POP POP POP JUMP JUMPDEST PUSH1 0x0 DUP3 PUSH1 0x1F DUP4 ADD SLT PUSH3 0x334 JUMPI PUSH3 0x333 PUSH3 0x1C6 JUMP JUMPDEST JUMPDEST DUP2 MLOAD PUSH3 0x346 DUP5 DUP3 PUSH1 0x20 DUP7 ADD PUSH3 0x2D1 JUMP JUMPDEST SWAP2 POP POP SWAP3 SWAP2 POP POP JUMP JUMPDEST PUSH1 0x0 PUSH1 0xFF DUP3 AND SWAP1 POP SWAP2 SWAP1 POP JUMP JUMPDEST PUSH3 0x367 DUP2 PUSH3 0x34F JUMP JUMPDEST DUP2 EQ PUSH3 0x373 JUMPI PUSH1 0x0 DUP1 REVERT JUMPDEST POP JUMP JUMPDEST PUSH1 0x0 DUP2 MLOAD SWAP1 POP PUSH3 0x387 DUP2 PUSH3 0x35C JUMP JUMPDEST SWAP3 SWAP2 POP POP JUMP JUMPDEST PUSH1 0x0 DUP1 PUSH1 0x0 PUSH1 0x60 DUP5 DUP7 SUB SLT ISZERO PUSH3 0x3A9 JUMPI PUSH3 0x3A8 PUSH3 0x1BC JUMP JUMPDEST JUMPDEST PUSH1 0x0 DUP5 ADD MLOAD PUSH8 0xFFFFFFFFFFFFFFFF DUP2 GT ISZERO PUSH3 0x3CA JUMPI PUSH3 0x3C9 PUSH3 0x1C1 JUMP JUMPDEST JUMPDEST PUSH3 0x3D8 DUP7 DUP3 DUP8 ADD PUSH3 0x31C JUMP JUMPDEST SWAP4 POP POP PUSH1 0x20 DUP5 ADD MLOAD PUSH8 0xFFFFFFFFFFFFFFFF DUP2 GT ISZERO PUSH3 0x3FC JUMPI PUSH3 0x3FB PUSH3 0x1C1 JUMP JUMPDEST JUMPDEST PUSH3 0x40A DUP7 DUP3 DUP8 ADD PUSH3 0x31C JUMP JUMPDEST SWAP3 POP POP PUSH1 0x40 PUSH3 0x41D DUP7 DUP3 DUP8 ADD PUSH3 0x376 JUMP JUMPDEST SWAP2 POP POP SWAP3 POP SWAP3 POP SWAP3 JUMP JUMPDEST PUSH32 0x4E487B7100000000000000000000000000000000000000000000000000000000 PUSH1 0x0 MSTORE PUSH1 0x22 PUSH1 0x4 MSTORE PUSH1 0x24 PUSH1 0x0 REVERT JUMPDEST PUSH1 0x0 PUSH1 0x2 DUP3 DIV SWAP1 POP PUSH1 0x1 DUP3 AND DUP1 PUSH3 0x46F JUMPI PUSH1 0x7F DUP3 AND SWAP2 POP JUMPDEST PUSH1 0x20 DUP3 LT DUP2 SUB PUSH3 0x485 JUMPI PUSH3 0x484 PUSH3 0x427 JUMP JUMPDEST JUMPDEST POP SWAP2 SWAP1 POP JUMP JUMPDEST PUSH1 0x80 MLOAD PUSH2 0x1C52 PUSH3 0x4AE PUSH1 0x0 CODECOPY PUSH1 0x0 DUP2 DUP2 PUSH2 0x43E ADD MSTORE PUSH2 0x64D ADD MSTORE PUSH2 0x1C52 PUSH1 0x0 RETURN INVALID PUSH1 0x80 PUSH1 0x40 MSTORE CALLVALUE DUP1 ISZERO PUSH2 0x10 JUMPI PUSH1 0x0 DUP1 REVERT JUMPDEST POP PUSH1 0x4 CALLDATASIZE LT PUSH2 0x100 JUMPI PUSH1 0x0 CALLDATALOAD PUSH1 0xE0 SHR DUP1 PUSH4 0x40C10F19 GT PUSH2 0x97 JUMPI DUP1 PUSH4 0x95D89B41 GT PUSH2 0x66 JUMPI DUP1 PUSH4 0x95D89B41 EQ PUSH2 0x2E9 JUMPI DUP1 PUSH4 0xA457C2D7 EQ PUSH2 0x307 JUMPI DUP1 PUSH4 0xA9059CBB EQ PUSH2 0x337 JUMPI DUP1 PUSH4 0xDD62ED3E EQ PUSH2 0x367 JUMPI PUSH2 0x100 JUMP JUMPDEST DUP1 PUSH4 0x40C10F19 EQ PUSH2 0x229 JUMPI DUP1 PUSH4 0x42966C68 EQ PUSH2 0x259 JUMPI DUP1 PUSH4 0x70A08231 EQ PUSH2 0x289 JUMPI DUP1 PUSH4 0x79CC6790 EQ PUSH2 0x2B9 JUMPI PUSH2 0x100 JUMP JUMPDEST DUP1 PUSH4 0x23B872DD GT PUSH2 0xD3 JUMPI DUP1 PUSH4 0x23B872DD EQ PUSH2 0x18D JUMPI DUP1 PUSH4 0x313CE567 EQ PUSH2 0x1BD JUMPI DUP1 PUSH4 0x39509351 EQ PUSH2 0x1DB JUMPI DUP1 PUSH4 0x3EAAF86B EQ PUSH2 0x20B JUMPI PUSH2 0x100 JUMP JUMPDEST DUP1 PUSH4 0x6FDDE03 EQ PUSH2 0x105 JUMPI DUP1 PUSH4 0x95EA7B3 EQ PUSH2 0x123 JUMPI DUP1 PUSH4 0x13AF4035 EQ PUSH2 0x153 JUMPI DUP1 PUSH4 0x18160DDD EQ PUSH2 0x16F JUMPI JUMPDEST PUSH1 0x0 DUP1 REVERT JUMPDEST PUSH2 0x10D PUSH2 0x397 JUMP JUMPDEST PUSH1 0x40 MLOAD PUSH2 0x11A SWAP2 SWAP1 PUSH2 0x1244 JUMP JUMPDEST PUSH1 0x40 MLOAD DUP1 SWAP2 SUB SWAP1 RETURN JUMPDEST PUSH2 0x13D PUSH1 0x4 DUP1 CALLDATASIZE SUB DUP2 ADD SWAP1 PUSH2 0x138 SWAP2 SWAP1 PUSH2 0x12FF JUMP JUMPDEST PUSH2 0x425 JUMP JUMPDEST PUSH1 0x40 MLOAD PUSH2 0x14A SWAP2 SWAP1 PUSH2 0x135A JUMP JUMPDEST PUSH1 0x40 MLOAD DUP1 SWAP2 SUB SWAP1 RETURN JUMPDEST PUSH2 0x16D PUSH1 0x4 DUP1 CALLDATASIZE SUB DUP2 ADD SWAP1 PUSH2 0x168 SWAP2 SWAP1 PUSH2 0x1375 JUMP JUMPDEST PUSH2 0x43C JUMP JUMPDEST STOP JUMPDEST PUSH2 0x177 PUSH2 0x50E JUMP JUMPDEST PUSH1 0x40 MLOAD PUSH2 0x184 SWAP2 SWAP1 PUSH2 0x13B1 JUMP JUMPDEST PUSH1 0x40 MLOAD DUP1 SWAP2 SUB SWAP1 RETURN JUMPDEST PUSH2 0x1A7 PUSH1 0x4 DUP1 CALLDATASIZE SUB DUP2 ADD SWAP1 PUSH2 0x1A2 SWAP2 SWAP1 PUSH2 0x13CC JUMP JUMPDEST PUSH2 0x518 JUMP JUMPDEST PUSH1 0x40 MLOAD PUSH2 0x1B4 SWAP2 SWAP1 PUSH2 0x135A JUMP JUMPDEST PUSH1 0x40 MLOAD DUP1 SWAP2 SUB SWAP1 RETURN JUMPDEST PUSH2 0x1C5 PUSH2 0x53B JUMP JUMPDEST PUSH1 0x40 MLOAD PUSH2 0x1D2 SWAP2 SWAP1 PUSH2 0x143B JUMP JUMPDEST PUSH1 0x40 MLOAD DUP1 SWAP2 SUB SWAP1 RETURN JUMPDEST PUSH2 0x1F5 PUSH1 0x4 DUP1 CALLDATASIZE SUB DUP2 ADD SWAP1 PUSH2 0x1F0 SWAP2 SWAP1 PUSH2 0x12FF JUMP JUMPDEST PUSH2 0x54E JUMP JUMPDEST PUSH1 0x40 MLOAD PUSH2 0x202 SWAP2 SWAP1 PUSH2 0x135A JUMP JUMPDEST PUSH1 0x40 MLOAD DUP1 SWAP2 SUB SWAP1 RETURN JUMPDEST PUSH2 0x213 PUSH2 0x5EC JUMP JUMPDEST PUSH1 0x40 MLOAD PUSH2 0x220 SWAP2 SWAP1 PUSH2 0x13B1 JUMP JUMPDEST PUSH1 0x40 MLOAD DUP1 SWAP2 SUB SWAP1 RETURN JUMPDEST PUSH2 0x243 PUSH1 0x4 DUP1 CALLDATASIZE SUB DUP2 ADD SWAP1 PUSH2 0x23E SWAP2 SWAP1 PUSH2 0x12FF JUMP JUMPDEST PUSH2 0x5F2 JUMP JUMPDEST PUSH1 0x40 MLOAD PUSH2 0x250 SWAP2 SWAP1 PUSH2 0x135A JUMP JUMPDEST PUSH1 0x40 MLOAD DUP1 SWAP2 SUB SWAP1 RETURN JUMPDEST PUSH2 0x273 PUSH1 0x4 DUP1 CALLDATASIZE SUB DUP2 ADD SWAP1 PUSH2 0x26E SWAP2 SWAP1 PUSH2 0x1456 JUMP JUMPDEST PUSH2 0x6EE JUMP JUMPDEST PUSH1 0x40 MLOAD PUSH2 0x280 SWAP2 SWAP1 PUSH2 0x135A JUMP JUMPDEST PUSH1 0x40 MLOAD DUP1 SWAP2 SUB SWAP1 RETURN JUMPDEST PUSH2 0x2A3 PUSH1 0x4 DUP1 CALLDATASIZE SUB DUP2 ADD SWAP1 PUSH2 0x29E SWAP2 SWAP1 PUSH2 0x1375 JUMP JUMPDEST PUSH2 0x703 JUMP JUMPDEST PUSH1 0x40 MLOAD PUSH2 0x2B0 SWAP2 SWAP1 PUSH2 0x13B1 JUMP JUMPDEST PUSH1 0x40 MLOAD DUP1 SWAP2 SUB SWAP1 RETURN JUMPDEST PUSH2 0x2D3 PUSH1 0x4 DUP1 CALLDATASIZE SUB DUP2 ADD SWAP1 PUSH2 0x2CE SWAP2 SWAP1 PUSH2 0x12FF JUMP JUMPDEST PUSH2 0x74B JUMP JUMPDEST PUSH1 0x40 MLOAD PUSH2 0x2E0 SWAP2 SWAP1 PUSH2 0x135A JUMP JUMPDEST PUSH1 0x40 MLOAD DUP1 SWAP2 SUB SWAP1 RETURN JUMPDEST PUSH2 0x2F1 PUSH2 0x76C JUMP JUMPDEST PUSH1 0x40 MLOAD PUSH2 0x2FE SWAP2 SWAP1 PUSH2 0x1244 JUMP JUMPDEST PUSH1 0x40 MLOAD DUP1 SWAP2 SUB SWAP1 RETURN JUMPDEST PUSH2 0x321 PUSH1 0x4 DUP1 CALLDATASIZE SUB DUP2 ADD SWAP1 PUSH2 0x31C SWAP2 SWAP1 PUSH2 0x12FF JUMP JUMPDEST PUSH2 0x7FA JUMP JUMPDEST PUSH1 0x40 MLOAD PUSH2 0x32E SWAP2 SWAP1 PUSH2 0x135A JUMP JUMPDEST PUSH1 0x40 MLOAD DUP1 SWAP2 SUB SWAP1 RETURN JUMPDEST PUSH2 0x351 PUSH1 0x4 DUP1 CALLDATASIZE SUB DUP2 ADD SWAP1 PUSH2 0x34C SWAP2 SWAP1 PUSH2 0x12FF JUMP JUMPDEST PUSH2 0x8D7 JUMP JUMPDEST PUSH1 0x40 MLOAD PUSH2 0x35E SWAP2 SWAP1 PUSH2 0x135A JUMP JUMPDEST PUSH1 0x40 MLOAD DUP1 SWAP2 SUB SWAP1 RETURN JUMPDEST PUSH2 0x381 PUSH1 0x4 DUP1 CALLDATASIZE SUB DUP2 ADD SWAP1 PUSH2 0x37C SWAP2 SWAP1 PUSH2 0x1483 JUMP JUMPDEST PUSH2 0x8EE JUMP JUMPDEST PUSH1 0x40 MLOAD PUSH2 0x38E SWAP2 SWAP1 PUSH2 0x13B1 JUMP JUMPDEST PUSH1 0x40 MLOAD DUP1 SWAP2 SUB SWAP1 RETURN JUMPDEST PUSH1 0x4 DUP1 SLOAD PUSH2 0x3A4 SWAP1 PUSH2 0x14F2 JUMP JUMPDEST DUP1 PUSH1 0x1F ADD PUSH1 0x20 DUP1 SWAP2 DIV MUL PUSH1 0x20 ADD PUSH1 0x40 MLOAD SWAP1 DUP2 ADD PUSH1 0x40 MSTORE DUP1 SWAP3 SWAP2 SWAP1 DUP2 DUP2 MSTORE PUSH1 0x20 ADD DUP3 DUP1 SLOAD PUSH2 0x3D0 SWAP1 PUSH2 0x14F2 JUMP JUMPDEST DUP1 ISZERO PUSH2 0x41D JUMPI DUP1 PUSH1 0x1F LT PUSH2 0x3F2 JUMPI PUSH2 0x100 DUP1 DUP4 SLOAD DIV MUL DUP4 MSTORE SWAP2 PUSH1 0x20 ADD SWAP2 PUSH2 0x41D JUMP JUMPDEST DUP3 ADD SWAP2 SWAP1 PUSH1 0x0 MSTORE PUSH1 0x20 PUSH1 0x0 KECCAK256 SWAP1 JUMPDEST DUP2 SLOAD DUP2 MSTORE SWAP1 PUSH1 0x1 ADD SWAP1 PUSH1 0x20 ADD DUP1 DUP4 GT PUSH2 0x400 JUMPI DUP3 SWAP1 SUB PUSH1 0x1F AND DUP3 ADD SWAP2 JUMPDEST POP POP POP POP POP DUP2 JUMP JUMPDEST PUSH1 0x0 PUSH2 0x432 CALLER DUP5 DUP5 PUSH2 0x975 JUMP JUMPDEST PUSH1 0x1 SWAP1 POP SWAP3 SWAP2 POP POP JUMP JUMPDEST PUSH32 0x0 PUSH20 0xFFFFFFFFFFFFFFFFFFFFFFFFFFFFFFFFFFFFFFFF AND CALLER PUSH20 0xFFFFFFFFFFFFFFFFFFFFFFFFFFFFFFFFFFFFFFFF AND EQ PUSH2 0x4CA JUMPI PUSH1 0x40 MLOAD PUSH32 0x8C379A000000000000000000000000000000000000000000000000000000000 DUP2 MSTORE PUSH1 0x4 ADD PUSH2 0x4C1 SWAP1 PUSH2 0x156F JUMP JUMPDEST PUSH1 0x40 MLOAD DUP1 SWAP2 SUB SWAP1 REVERT JUMPDEST DUP1 PUSH1 0x2 PUSH1 0x0 PUSH2 0x100 EXP DUP2 SLOAD DUP2 PUSH20 0xFFFFFFFFFFFFFFFFFFFFFFFFFFFFFFFFFFFFFFFF MUL NOT AND SWAP1 DUP4 PUSH20 0xFFFFFFFFFFFFFFFFFFFFFFFFFFFFFFFFFFFFFFFF AND MUL OR SWAP1 SSTORE POP POP JUMP JUMPDEST PUSH1 0x0 PUSH1 0x3 SLOAD SWAP1 POP SWAP1 JUMP JUMPDEST PUSH1 0x0 PUSH2 0x525 DUP5 CALLER DUP5 PUSH2 0xB3E JUMP JUMPDEST PUSH2 0x530 DUP5 DUP5 DUP5 PUSH2 0xC3D JUMP JUMPDEST PUSH1 0x1 SWAP1 POP SWAP4 SWAP3 POP POP POP JUMP JUMPDEST PUSH1 0x6 PUSH1 0x0 SWAP1 SLOAD SWAP1 PUSH2 0x100 EXP SWAP1 DIV PUSH1 0xFF AND DUP2 JUMP JUMPDEST PUSH1 0x0 PUSH2 0x5E2 CALLER DUP5 DUP5 PUSH1 0x1 PUSH1 0x0 CALLER PUSH20 0xFFFFFFFFFFFFFFFFFFFFFFFFFFFFFFFFFFFFFFFF AND PUSH20 0xFFFFFFFFFFFFFFFFFFFFFFFFFFFFFFFFFFFFFFFF AND DUP2 MSTORE PUSH1 0x20 ADD SWAP1 DUP2 MSTORE PUSH1 0x20 ADD PUSH1 0x0 KECCAK256 PUSH1 0x0 DUP9 PUSH20 0xFFFFFFFFFFFFFFFFFFFFFFFFFFFFFFFFFFFFFFFF AND PUSH20 0xFFFFFFFFFFFFFFFFFFFFFFFFFFFFFFFFFFFFFFFF AND DUP2 MSTORE PUSH1 0x20 ADD SWAP1 DUP2 MSTORE PUSH1 0x20 ADD PUSH1 0x0 KECCAK256 SLOAD PUSH2 0x5DD SWAP2 SWAP1 PUSH2 0x15BE JUMP JUMPDEST PUSH2 0x975 JUMP JUMPDEST PUSH1 0x1 SWAP1 POP SWAP3 SWAP2 POP POP JUMP JUMPDEST PUSH1 0x3 SLOAD DUP2 JUMP JUMPDEST PUSH1 0x0 PUSH1 0x2 PUSH1 0x0 SWAP1 SLOAD SWAP1 PUSH2 0x100 EXP SWAP1 DIV PUSH20 0xFFFFFFFFFFFFFFFFFFFFFFFFFFFFFFFFFFFFFFFF AND PUSH20 0xFFFFFFFFFFFFFFFFFFFFFFFFFFFFFFFFFFFFFFFF AND CALLER PUSH20 0xFFFFFFFFFFFFFFFFFFFFFFFFFFFFFFFFFFFFFFFF AND EQ DUP1 PUSH2 0x69B JUMPI POP PUSH32 0x0 PUSH20 0xFFFFFFFFFFFFFFFFFFFFFFFFFFFFFFFFFFFFFFFF AND CALLER PUSH20 0xFFFFFFFFFFFFFFFFFFFFFFFFFFFFFFFFFFFFFFFF AND EQ JUMPDEST PUSH2 0x6DA JUMPI PUSH1 0x40 MLOAD PUSH32 0x8C379A000000000000000000000000000000000000000000000000000000000 DUP2 MSTORE PUSH1 0x4 ADD PUSH2 0x6D1 SWAP1 PUSH2 0x1660 JUMP JUMPDEST PUSH1 0x40 MLOAD DUP1 SWAP2 SUB SWAP1 REVERT JUMPDEST PUSH2 0x6E4 DUP4 DUP4 PUSH2 0xEA6 JUMP JUMPDEST PUSH1 0x1 SWAP1 POP SWAP3 SWAP2 POP POP JUMP JUMPDEST PUSH1 0x0 PUSH2 0x6FA CALLER DUP4 PUSH2 0xFED JUMP JUMPDEST PUSH1 0x1 SWAP1 POP SWAP2 SWAP1 POP JUMP JUMPDEST PUSH1 0x0 DUP1 PUSH1 0x0 DUP4 PUSH20 0xFFFFFFFFFFFFFFFFFFFFFFFFFFFFFFFFFFFFFFFF AND PUSH20 0xFFFFFFFFFFFFFFFFFFFFFFFFFFFFFFFFFFFFFFFF AND DUP2 MSTORE PUSH1 0x20 ADD SWAP1 DUP2 MSTORE PUSH1 0x20 ADD PUSH1 0x0 KECCAK256 SLOAD SWAP1 POP SWAP2 SWAP1 POP JUMP JUMPDEST PUSH1 0x0 PUSH2 0x758 DUP4 CALLER DUP5 PUSH2 0xB3E JUMP JUMPDEST PUSH2 0x762 DUP4 DUP4 PUSH2 0xFED JUMP JUMPDEST PUSH1 0x1 SWAP1 POP SWAP3 SWAP2 POP POP JUMP JUMPDEST PUSH1 0x5 DUP1 SLOAD PUSH2 0x779 SWAP1 PUSH2 0x14F2 JUMP JUMPDEST DUP1 PUSH1 0x1F ADD PUSH1 0x20 DUP1 SWAP2 DIV MUL PUSH1 0x20 ADD PUSH1 0x40 MLOAD SWAP1 DUP2 ADD PUSH1 0x40 MSTORE DUP1 SWAP3 SWAP2 SWAP1 DUP2 DUP2 MSTORE PUSH1 0x20 ADD DUP3 DUP1 SLOAD PUSH2 0x7A5 SWAP1 PUSH2 0x14F2 JUMP JUMPDEST DUP1 ISZERO PUSH2 0x7F2 JUMPI DUP1 PUSH1 0x1F LT PUSH2 0x7C7 JUMPI PUSH2 0x100 DUP1 DUP4 SLOAD DIV MUL DUP4 MSTORE SWAP2 PUSH1 0x20 ADD SWAP2 PUSH2 0x7F2 JUMP JUMPDEST DUP3 ADD SWAP2 SWAP1 PUSH1 0x0 MSTORE PUSH1 0x20 PUSH1 0x0 KECCAK256 SWAP1 JUMPDEST DUP2 SLOAD DUP2 MSTORE SWAP1 PUSH1 0x1 ADD SWAP1 PUSH1 0x20 ADD DUP1 DUP4 GT PUSH2 0x7D5 JUMPI DUP3 SWAP1 SUB PUSH1 0x1F AND DUP3 ADD SWAP2 JUMPDEST POP POP POP POP POP DUP2 JUMP JUMPDEST PUSH1 0x0 DUP1 PUSH1 0x1 PUSH1 0x0 CALLER PUSH20 0xFFFFFFFFFFFFFFFFFFFFFFFFFFFFFFFFFFFFFFFF AND PUSH20 0xFFFFFFFFFFFFFFFFFFFFFFFFFFFFFFFFFFFFFFFF AND DUP2 MSTORE PUSH1 0x20 ADD SWAP1 DUP2 MSTORE PUSH1 0x20 ADD PUSH1 0x0 KECCAK256 PUSH1 0x0 DUP6 PUSH20 0xFFFFFFFFFFFFFFFFFFFFFFFFFFFFFFFFFFFFFFFF AND PUSH20 0xFFFFFFFFFFFFFFFFFFFFFFFFFFFFFFFFFFFFFFFF AND DUP2 MSTORE PUSH1 0x20 ADD SWAP1 DUP2 MSTORE PUSH1 0x20 ADD PUSH1 0x0 KECCAK256 SLOAD SWAP1 POP DUP3 DUP2 LT ISZERO PUSH2 0x8BF JUMPI PUSH1 0x40 MLOAD PUSH32 0x8C379A000000000000000000000000000000000000000000000000000000000 DUP2 MSTORE PUSH1 0x4 ADD PUSH2 0x8B6 SWAP1 PUSH2 0x16F2 JUMP JUMPDEST PUSH1 0x40 MLOAD DUP1 SWAP2 SUB SWAP1 REVERT JUMPDEST PUSH2 0x8CC CALLER DUP6 DUP6 DUP5 SUB PUSH2 0x975 JUMP JUMPDEST PUSH1 0x1 SWAP2 POP POP SWAP3 SWAP2 POP POP JUMP JUMPDEST PUSH1 0x0 PUSH2 0x8E4 CALLER DUP5 DUP5 PUSH2 0xC3D JUMP JUMPDEST PUSH1 0x1 SWAP1 POP SWAP3 SWAP2 POP POP JUMP JUMPDEST PUSH1 0x0 PUSH1 0x1 PUSH1 0x0 DUP5 PUSH20 0xFFFFFFFFFFFFFFFFFFFFFFFFFFFFFFFFFFFFFFFF AND PUSH20 0xFFFFFFFFFFFFFFFFFFFFFFFFFFFFFFFFFFFFFFFF AND DUP2 MSTORE PUSH1 0x20 ADD SWAP1 DUP2 MSTORE PUSH1 0x20 ADD PUSH1 0x0 KECCAK256 PUSH1 0x0 DUP4 PUSH20 0xFFFFFFFFFFFFFFFFFFFFFFFFFFFFFFFFFFFFFFFF AND PUSH20 0xFFFFFFFFFFFFFFFFFFFFFFFFFFFFFFFFFFFFFFFF AND DUP2 MSTORE PUSH1 0x20 ADD SWAP1 DUP2 MSTORE PUSH1 0x20 ADD PUSH1 0x0 KECCAK256 SLOAD SWAP1 POP SWAP3 SWAP2 POP POP JUMP JUMPDEST PUSH1 0x0 PUSH20 0xFFFFFFFFFFFFFFFFFFFFFFFFFFFFFFFFFFFFFFFF AND DUP4 PUSH20 0xFFFFFFFFFFFFFFFFFFFFFFFFFFFFFFFFFFFFFFFF AND SUB PUSH2 0x9E4 JUMPI PUSH1 0x40 MLOAD PUSH32 0x8C379A000000000000000000000000000000000000000000000000000000000 DUP2 MSTORE PUSH1 0x4 ADD PUSH2 0x9DB SWAP1 PUSH2 0x1784 JUMP JUMPDEST PUSH1 0x40 MLOAD DUP1 SWAP2 SUB SWAP1 REVERT JUMPDEST PUSH1 0x0 PUSH20 0xFFFFFFFFFFFFFFFFFFFFFFFFFFFFFFFFFFFFFFFF AND DUP3 PUSH20 0xFFFFFFFFFFFFFFFFFFFFFFFFFFFFFFFFFFFFFFFF AND SUB PUSH2 0xA53 JUMPI PUSH1 0x40 MLOAD PUSH32 0x8C379A000000000000000000000000000000000000000000000000000000000 DUP2 MSTORE PUSH1 0x4 ADD PUSH2 0xA4A SWAP1 PUSH2 0x1816 JUMP JUMPDEST PUSH1 0x40 MLOAD DUP1 SWAP2 SUB SWAP1 REVERT JUMPDEST DUP1 PUSH1 0x1 PUSH1 0x0 DUP6 PUSH20 0xFFFFFFFFFFFFFFFFFFFFFFFFFFFFFFFFFFFFFFFF AND PUSH20 0xFFFFFFFFFFFFFFFFFFFFFFFFFFFFFFFFFFFFFFFF AND DUP2 MSTORE PUSH1 0x20 ADD SWAP1 DUP2 MSTORE PUSH1 0x20 ADD PUSH1 0x0 KECCAK256 PUSH1 0x0 DUP5 PUSH20 0xFFFFFFFFFFFFFFFFFFFFFFFFFFFFFFFFFFFFFFFF AND PUSH20 0xFFFFFFFFFFFFFFFFFFFFFFFFFFFFFFFFFFFFFFFF AND DUP2 MSTORE PUSH1 0x20 ADD SWAP1 DUP2 MSTORE PUSH1 0x20 ADD PUSH1 0x0 KECCAK256 DUP2 SWAP1 SSTORE POP DUP2 PUSH20 0xFFFFFFFFFFFFFFFFFFFFFFFFFFFFFFFFFFFFFFFF AND DUP4 PUSH20 0xFFFFFFFFFFFFFFFFFFFFFFFFFFFFFFFFFFFFFFFF AND PUSH32 0x8C5BE1E5EBEC7D5BD14F71427D1E84F3DD0314C0F7B2291E5B200AC8C7C3B925 DUP4 PUSH1 0x40 MLOAD PUSH2 0xB31 SWAP2 SWAP1 PUSH2 0x13B1 JUMP JUMPDEST PUSH1 0x40 MLOAD DUP1 SWAP2 SUB SWAP1 LOG3 POP POP POP JUMP JUMPDEST PUSH1 0x0 PUSH1 0x1 PUSH1 0x0 CALLER PUSH20 0xFFFFFFFFFFFFFFFFFFFFFFFFFFFFFFFFFFFFFFFF AND PUSH20 0xFFFFFFFFFFFFFFFFFFFFFFFFFFFFFFFFFFFFFFFF AND DUP2 MSTORE PUSH1 0x20 ADD SWAP1 DUP2 MSTORE PUSH1 0x20 ADD PUSH1 0x0 KECCAK256 PUSH1 0x0 DUP5 PUSH20 0xFFFFFFFFFFFFFFFFFFFFFFFFFFFFFFFFFFFFFFFF AND PUSH20 0xFFFFFFFFFFFFFFFFFFFFFFFFFFFFFFFFFFFFFFFF AND DUP2 MSTORE PUSH1 0x20 ADD SWAP1 DUP2 MSTORE PUSH1 0x20 ADD PUSH1 0x0 KECCAK256 SLOAD SWAP1 POP PUSH32 0xFFFFFFFFFFFFFFFFFFFFFFFFFFFFFFFFFFFFFFFFFFFFFFFFFFFFFFFFFFFFFFFF DUP2 EQ PUSH2 0xC37 JUMPI DUP2 DUP2 LT ISZERO PUSH2 0xC29 JUMPI PUSH1 0x40 MLOAD PUSH32 0x8C379A000000000000000000000000000000000000000000000000000000000 DUP2 MSTORE PUSH1 0x4 ADD PUSH2 0xC20 SWAP1 PUSH2 0x1882 JUMP JUMPDEST PUSH1 0x40 MLOAD DUP1 SWAP2 SUB SWAP1 REVERT JUMPDEST PUSH2 0xC36 DUP5 DUP5 DUP5 DUP5 SUB PUSH2 0x975 JUMP JUMPDEST JUMPDEST POP POP POP POP JUMP JUMPDEST PUSH1 0x0 PUSH20 0xFFFFFFFFFFFFFFFFFFFFFFFFFFFFFFFFFFFFFFFF AND DUP4 PUSH20 0xFFFFFFFFFFFFFFFFFFFFFFFFFFFFFFFFFFFFFFFF AND SUB PUSH2 0xCAC JUMPI PUSH1 0x40 MLOAD PUSH32 0x8C379A000000000000000000000000000000000000000000000000000000000 DUP2 MSTORE PUSH1 0x4 ADD PUSH2 0xCA3 SWAP1 PUSH2 0x1914 JUMP JUMPDEST PUSH1 0x40 MLOAD DUP1 SWAP2 SUB SWAP1 REVERT JUMPDEST PUSH1 0x0 PUSH20 0xFFFFFFFFFFFFFFFFFFFFFFFFFFFFFFFFFFFFFFFF AND DUP3 PUSH20 0xFFFFFFFFFFFFFFFFFFFFFFFFFFFFFFFFFFFFFFFF AND SUB PUSH2 0xD1B JUMPI PUSH1 0x40 MLOAD PUSH32 0x8C379A000000000000000000000000000000000000000000000000000000000 DUP2 MSTORE PUSH1 0x4 ADD PUSH2 0xD12 SWAP1 PUSH2 0x19A6 JUMP JUMPDEST PUSH1 0x40 MLOAD DUP1 SWAP2 SUB SWAP1 REVERT JUMPDEST PUSH1 0x0 DUP1 PUSH1 0x0 DUP6 PUSH20 0xFFFFFFFFFFFFFFFFFFFFFFFFFFFFFFFFFFFFFFFF AND PUSH20 0xFFFFFFFFFFFFFFFFFFFFFFFFFFFFFFFFFFFFFFFF AND DUP2 MSTORE PUSH1 0x20 ADD SWAP1 DUP2 MSTORE PUSH1 0x20 ADD PUSH1 0x0 KECCAK256 SLOAD SWAP1 POP DUP2 DUP2 LT ISZERO PUSH2 0xDA1 JUMPI PUSH1 0x40 MLOAD PUSH32 0x8C379A000000000000000000000000000000000000000000000000000000000 DUP2 MSTORE PUSH1 0x4 ADD PUSH2 0xD98 SWAP1 PUSH2 0x1A38 JUMP JUMPDEST PUSH1 0x40 MLOAD DUP1 SWAP2 SUB SWAP1 REVERT JUMPDEST DUP2 DUP2 SUB PUSH1 0x0 DUP1 DUP7 PUSH20 0xFFFFFFFFFFFFFFFFFFFFFFFFFFFFFFFFFFFFFFFF AND PUSH20 0xFFFFFFFFFFFFFFFFFFFFFFFFFFFFFFFFFFFFFFFF AND DUP2 MSTORE PUSH1 0x20 ADD SWAP1 DUP2 MSTORE PUSH1 0x20 ADD PUSH1 0x0 KECCAK256 DUP2 SWAP1 SSTORE POP DUP2 PUSH1 0x0 DUP1 DUP6 PUSH20 0xFFFFFFFFFFFFFFFFFFFFFFFFFFFFFFFFFFFFFFFF AND PUSH20 0xFFFFFFFFFFFFFFFFFFFFFFFFFFFFFFFFFFFFFFFF AND DUP2 MSTORE PUSH1 0x20 ADD SWAP1 DUP2 MSTORE PUSH1 0x20 ADD PUSH1 0x0 KECCAK256 PUSH1 0x0 DUP3 DUP3 SLOAD PUSH2 0xE34 SWAP2 SWAP1 PUSH2 0x15BE JUMP JUMPDEST SWAP3 POP POP DUP2 SWAP1 SSTORE POP DUP3 PUSH20 0xFFFFFFFFFFFFFFFFFFFFFFFFFFFFFFFFFFFFFFFF AND DUP5 PUSH20 0xFFFFFFFFFFFFFFFFFFFFFFFFFFFFFFFFFFFFFFFF AND PUSH32 0xDDF252AD1BE2C89B69C2B068FC378DAA952BA7F163C4A11628F55A4DF523B3EF DUP5 PUSH1 0x40 MLOAD PUSH2 0xE98 SWAP2 SWAP1 PUSH2 0x13B1 JUMP JUMPDEST PUSH1 0x40 MLOAD DUP1 SWAP2 SUB SWAP1 LOG3 POP POP POP POP JUMP JUMPDEST PUSH1 0x0 PUSH20 0xFFFFFFFFFFFFFFFFFFFFFFFFFFFFFFFFFFFFFFFF AND DUP3 PUSH20 0xFFFFFFFFFFFFFFFFFFFFFFFFFFFFFFFFFFFFFFFF AND SUB PUSH2 0xF15 JUMPI PUSH1 0x40 MLOAD PUSH32 0x8C379A000000000000000000000000000000000000000000000000000000000 DUP2 MSTORE PUSH1 0x4 ADD PUSH2 0xF0C SWAP1 PUSH2 0x1AA4 JUMP JUMPDEST PUSH1 0x40 MLOAD DUP1 SWAP2 SUB SWAP1 REVERT JUMPDEST DUP1 PUSH1 0x3 PUSH1 0x0 DUP3 DUP3 SLOAD PUSH2 0xF27 SWAP2 SWAP1 PUSH2 0x15BE JUMP JUMPDEST SWAP3 POP POP DUP2 SWAP1 SSTORE POP DUP1 PUSH1 0x0 DUP1 DUP5 PUSH20 0xFFFFFFFFFFFFFFFFFFFFFFFFFFFFFFFFFFFFFFFF AND PUSH20 0xFFFFFFFFFFFFFFFFFFFFFFFFFFFFFFFFFFFFFFFF AND DUP2 MSTORE PUSH1 0x20 ADD SWAP1 DUP2 MSTORE PUSH1 0x20 ADD PUSH1 0x0 KECCAK256 PUSH1 0x0 DUP3 DUP3 SLOAD PUSH2 0xF7C SWAP2 SWAP1 PUSH2 0x15BE JUMP JUMPDEST SWAP3 POP POP DUP2 SWAP1 SSTORE POP DUP2 PUSH20 0xFFFFFFFFFFFFFFFFFFFFFFFFFFFFFFFFFFFFFFFF AND PUSH1 0x0 PUSH20 0xFFFFFFFFFFFFFFFFFFFFFFFFFFFFFFFFFFFFFFFF AND PUSH32 0xDDF252AD1BE2C89B69C2B068FC378DAA952BA7F163C4A11628F55A4DF523B3EF DUP4 PUSH1 0x40 MLOAD PUSH2 0xFE1 SWAP2 SWAP1 PUSH2 0x13B1 JUMP JUMPDEST PUSH1 0x40 MLOAD DUP1 SWAP2 SUB SWAP1 LOG3 POP POP JUMP JUMPDEST PUSH1 0x0 PUSH20 0xFFFFFFFFFFFFFFFFFFFFFFFFFFFFFFFFFFFFFFFF AND DUP3 PUSH20 0xFFFFFFFFFFFFFFFFFFFFFFFFFFFFFFFFFFFFFFFF AND SUB PUSH2 0x105C JUMPI PUSH1 0x40 MLOAD PUSH32 0x8C379A000000000000000000000000000000000000000000000000000000000 DUP2 MSTORE PUSH1 0x4 ADD PUSH2 0x1053 SWAP1 PUSH2 0x1B36 JUMP JUMPDEST PUSH1 0x40 MLOAD DUP1 SWAP2 SUB SWAP1 REVERT JUMPDEST PUSH1 0x0 DUP1 PUSH1 0x0 DUP5 PUSH20 0xFFFFFFFFFFFFFFFFFFFFFFFFFFFFFFFFFFFFFFFF AND PUSH20 0xFFFFFFFFFFFFFFFFFFFFFFFFFFFFFFFFFFFFFFFF AND DUP2 MSTORE PUSH1 0x20 ADD SWAP1 DUP2 MSTORE PUSH1 0x20 ADD PUSH1 0x0 KECCAK256 SLOAD SWAP1 POP DUP2 DUP2 LT ISZERO PUSH2 0x10E2 JUMPI PUSH1 0x40 MLOAD PUSH32 0x8C379A000000000000000000000000000000000000000000000000000000000 DUP2 MSTORE PUSH1 0x4 ADD PUSH2 0x10D9 SWAP1 PUSH2 0x1BC8 JUMP JUMPDEST PUSH1 0x40 MLOAD DUP1 SWAP2 SUB SWAP1 REVERT JUMPDEST DUP2 DUP2 SUB PUSH1 0x0 DUP1 DUP6 PUSH20 0xFFFFFFFFFFFFFFFFFFFFFFFFFFFFFFFFFFFFFFFF AND PUSH20 0xFFFFFFFFFFFFFFFFFFFFFFFFFFFFFFFFFFFFFFFF AND DUP2 MSTORE PUSH1 0x20 ADD SWAP1 DUP2 MSTORE PUSH1 0x20 ADD PUSH1 0x0 KECCAK256 DUP2 SWAP1 SSTORE POP DUP2 PUSH1 0x3 PUSH1 0x0 DUP3 DUP3 SLOAD PUSH2 0x1139 SWAP2 SWAP1 PUSH2 0x1BE8 JUMP JUMPDEST SWAP3 POP POP DUP2 SWAP1 SSTORE POP PUSH1 0x0 PUSH20 0xFFFFFFFFFFFFFFFFFFFFFFFFFFFFFFFFFFFFFFFF AND DUP4 PUSH20 0xFFFFFFFFFFFFFFFFFFFFFFFFFFFFFFFFFFFFFFFF AND PUSH32 0xDDF252AD1BE2C89B69C2B068FC378DAA952BA7F163C4A11628F55A4DF523B3EF DUP5 PUSH1 0x40 MLOAD PUSH2 0x119E SWAP2 SWAP1 PUSH2 0x13B1 JUMP JUMPDEST PUSH1 0x40 MLOAD DUP1 SWAP2 SUB SWAP1 LOG3 POP POP POP JUMP JUMPDEST PUSH1 0x0 DUP2 MLOAD SWAP1 POP SWAP2 SWAP1 POP JUMP JUMPDEST PUSH1 0x0 DUP3 DUP3 MSTORE PUSH1 0x20 DUP3 ADD SWAP1 POP SWAP3 SWAP2 POP POP JUMP JUMPDEST PUSH1 0x0 JUMPDEST DUP4 DUP2 LT ISZERO PUSH2 0x11E5 JUMPI DUP1 DUP3 ADD MLOAD DUP2 DUP5 ADD MSTORE PUSH1 0x20 DUP2 ADD SWAP1 POP PUSH2 0x11CA JUMP JUMPDEST DUP4 DUP2 GT ISZERO PUSH2 0x11F4 JUMPI PUSH1 0x0 DUP5 DUP5 ADD MSTORE JUMPDEST POP POP POP POP JUMP JUMPDEST PUSH1 0x0 PUSH1 0x1F NOT PUSH1 0x1F DUP4 ADD AND SWAP1 POP SWAP2 SWAP1 POP JUMP JUMPDEST PUSH1 0x0 PUSH2 0x1216 DUP3 PUSH2 0x11AB JUMP JUMPDEST PUSH2 0x1220 DUP2 DUP6 PUSH2 0x11B6 JUMP JUMPDEST SWAP4 POP PUSH2 0x1230 DUP2 DUP6 PUSH1 0x20 DUP7 ADD PUSH2 0x11C7 JUMP JUMPDEST PUSH2 0x1239 DUP2 PUSH2 0x11FA JUMP JUMPDEST DUP5 ADD SWAP2 POP POP SWAP3 SWAP2 POP POP JUMP JUMPDEST PUSH1 0x0 PUSH1 0x20 DUP3 ADD SWAP1 POP DUP2 DUP2 SUB PUSH1 0x0 DUP4 ADD MSTORE PUSH2 0x125E DUP2 DUP5 PUSH2 0x120B JUMP JUMPDEST SWAP1 POP SWAP3 SWAP2 POP POP JUMP JUMPDEST PUSH1 0x0 DUP1 REVERT JUMPDEST PUSH1 0x0 PUSH20 0xFFFFFFFFFFFFFFFFFFFFFFFFFFFFFFFFFFFFFFFF DUP3 AND SWAP1 POP SWAP2 SWAP1 POP JUMP JUMPDEST PUSH1 0x0 PUSH2 0x1296 DUP3 PUSH2 0x126B JUMP JUMPDEST SWAP1 POP SWAP2 SWAP1 POP JUMP JUMPDEST PUSH2 0x12A6 DUP2 PUSH2 0x128B JUMP JUMPDEST DUP2 EQ PUSH2 0x12B1 JUMPI PUSH1 0x0 DUP1 REVERT JUMPDEST POP JUMP JUMPDEST PUSH1 0x0 DUP2 CALLDATALOAD SWAP1 POP PUSH2 0x12C3 DUP2 PUSH2 0x129D JUMP JUMPDEST SWAP3 SWAP2 POP POP JUMP JUMPDEST PUSH1 0x0 DUP2 SWAP1 POP SWAP2 SWAP1 POP JUMP JUMPDEST PUSH2 0x12DC DUP2 PUSH2 0x12C9 JUMP JUMPDEST DUP2 EQ PUSH2 0x12E7 JUMPI PUSH1 0x0 DUP1 REVERT JUMPDEST POP JUMP JUMPDEST PUSH1 0x0 DUP2 CALLDATALOAD SWAP1 POP PUSH2 0x12F9 DUP2 PUSH2 0x12D3 JUMP JUMPDEST SWAP3 SWAP2 POP POP JUMP JUMPDEST PUSH1 0x0 DUP1 PUSH1 0x40 DUP4 DUP6 SUB SLT ISZERO PUSH2 0x1316 JUMPI PUSH2 0x1315 PUSH2 0x1266 JUMP JUMPDEST JUMPDEST PUSH1 0x0 PUSH2 0x1324 DUP6 DUP3 DUP7 ADD PUSH2 0x12B4 JUMP JUMPDEST SWAP3 POP POP PUSH1 0x20 PUSH2 0x1335 DUP6 DUP3 DUP7 ADD PUSH2 0x12EA JUMP JUMPDEST SWAP2 POP POP SWAP3 POP SWAP3 SWAP1 POP JUMP JUMPDEST PUSH1 0x0 DUP2 ISZERO ISZERO SWAP1 POP SWAP2 SWAP1 POP JUMP JUMPDEST PUSH2 0x1354 DUP2 PUSH2 0x133F JUMP JUMPDEST DUP3 MSTORE POP POP JUMP JUMPDEST PUSH1 0x0 PUSH1 0x20 DUP3 ADD SWAP1 POP PUSH2 0x136F PUSH1 0x0 DUP4 ADD DUP5 PUSH2 0x134B JUMP JUMPDEST SWAP3 SWAP2 POP POP JUMP JUMPDEST PUSH1 0x0 PUSH1 0x20 DUP3 DUP5 SUB SLT ISZERO PUSH2 0x138B JUMPI PUSH2 0x138A PUSH2 0x1266 JUMP JUMPDEST JUMPDEST PUSH1 0x0 PUSH2 0x1399 DUP5 DUP3 DUP6 ADD PUSH2 0x12B4 JUMP JUMPDEST SWAP2 POP POP SWAP3 SWAP2 POP POP JUMP JUMPDEST PUSH2 0x13AB DUP2 PUSH2 0x12C9 JUMP JUMPDEST DUP3 MSTORE POP POP JUMP JUMPDEST PUSH1 0x0 PUSH1 0x20 DUP3 ADD SWAP1 POP PUSH2 0x13C6 PUSH1 0x0 DUP4 ADD DUP5 PUSH2 0x13A2 JUMP JUMPDEST SWAP3 SWAP2 POP POP JUMP JUMPDEST PUSH1 0x0 DUP1 PUSH1 0x0 PUSH1 0x60 DUP5 DUP7 SUB SLT ISZERO PUSH2 0x13E5 JUMPI PUSH2 0x13E4 PUSH2 0x1266 JUMP JUMPDEST JUMPDEST PUSH1 0x0 PUSH2 0x13F3 DUP7 DUP3 DUP8 ADD PUSH2 0x12B4 JUMP JUMPDEST SWAP4 POP POP PUSH1 0x20 PUSH2 0x1404 DUP7 DUP3 DUP8 ADD PUSH2 0x12B4 JUMP JUMPDEST SWAP3 POP POP PUSH1 0x40 PUSH2 0x1415 DUP7 DUP3 DUP8 ADD PUSH2 0x12EA JUMP JUMPDEST SWAP2 POP POP SWAP3 POP SWAP3 POP SWAP3 JUMP JUMPDEST PUSH1 0x0 PUSH1 0xFF DUP3 AND SWAP1 POP SWAP2 SWAP1 POP JUMP JUMPDEST PUSH2 0x1435 DUP2 PUSH2 0x141F JUMP JUMPDEST DUP3 MSTORE POP POP JUMP JUMPDEST PUSH1 0x0 PUSH1 0x20 DUP3 ADD SWAP1 POP PUSH2 0x1450 PUSH1 0x0 DUP4 ADD DUP5 PUSH2 0x142C JUMP JUMPDEST SWAP3 SWAP2 POP POP JUMP JUMPDEST PUSH1 0x0 PUSH1 0x20 DUP3 DUP5 SUB SLT ISZERO PUSH2 0x146C JUMPI PUSH2 0x146B PUSH2 0x1266 JUMP JUMPDEST JUMPDEST PUSH1 0x0 PUSH2 0x147A DUP5 DUP3 DUP6 ADD PUSH2 0x12EA JUMP JUMPDEST SWAP2 POP POP SWAP3 SWAP2 POP POP JUMP JUMPDEST PUSH1 0x0 DUP1 PUSH1 0x40 DUP4 DUP6 SUB SLT ISZERO PUSH2 0x149A JUMPI PUSH2 0x1499 PUSH2 0x1266 JUMP JUMPDEST JUMPDEST PUSH1 0x0 PUSH2 0x14A8 DUP6 DUP3 DUP7 ADD PUSH2 0x12B4 JUMP JUMPDEST SWAP3 POP POP PUSH1 0x20 PUSH2 0x14B9 DUP6 DUP3 DUP7 ADD PUSH2 0x12B4 JUMP JUMPDEST SWAP2 POP POP SWAP3 POP SWAP3 SWAP1 POP JUMP JUMPDEST PUSH32 0x4E487B7100000000000000000000000000000000000000000000000000000000 PUSH1 0x0 MSTORE PUSH1 0x22 PUSH1 0x4 MSTORE PUSH1 0x24 PUSH1 0x0 REVERT JUMPDEST PUSH1 0x0 PUSH1 0x2 DUP3 DIV SWAP1 POP PUSH1 0x1 DUP3 AND DUP1 PUSH2 0x150A JUMPI PUSH1 0x7F DUP3 AND SWAP2 POP JUMPDEST PUSH1 0x20 DUP3 LT DUP2 SUB PUSH2 0x151D JUMPI PUSH2 0x151C PUSH2 0x14C3 JUMP JUMPDEST JUMPDEST POP SWAP2 SWAP1 POP JUMP JUMPDEST PUSH32 0x53656E646572206E6F74206465706C6F79657200000000000000000000000000 PUSH1 0x0 DUP3 ADD MSTORE POP JUMP JUMPDEST PUSH1 0x0 PUSH2 0x1559 PUSH1 0x13 DUP4 PUSH2 0x11B6 JUMP JUMPDEST SWAP2 POP PUSH2 0x1564 DUP3 PUSH2 0x1523 JUMP JUMPDEST PUSH1 0x20 DUP3 ADD SWAP1 POP SWAP2 SWAP1 POP JUMP JUMPDEST PUSH1 0x0 PUSH1 0x20 DUP3 ADD SWAP1 POP DUP2 DUP2 SUB PUSH1 0x0 DUP4 ADD MSTORE PUSH2 0x1588 DUP2 PUSH2 0x154C JUMP JUMPDEST SWAP1 POP SWAP2 SWAP1 POP JUMP JUMPDEST PUSH32 0x4E487B7100000000000000000000000000000000000000000000000000000000 PUSH1 0x0 MSTORE PUSH1 0x11 PUSH1 0x4 MSTORE PUSH1 0x24 PUSH1 0x0 REVERT JUMPDEST PUSH1 0x0 PUSH2 0x15C9 DUP3 PUSH2 0x12C9 JUMP JUMPDEST SWAP2 POP PUSH2 0x15D4 DUP4 PUSH2 0x12C9 JUMP JUMPDEST SWAP3 POP DUP3 PUSH32 0xFFFFFFFFFFFFFFFFFFFFFFFFFFFFFFFFFFFFFFFFFFFFFFFFFFFFFFFFFFFFFFFF SUB DUP3 GT ISZERO PUSH2 0x1609 JUMPI PUSH2 0x1608 PUSH2 0x158F JUMP JUMPDEST JUMPDEST DUP3 DUP3 ADD SWAP1 POP SWAP3 SWAP2 POP POP JUMP JUMPDEST PUSH32 0x53656E646572206E6F74206F776E657200000000000000000000000000000000 PUSH1 0x0 DUP3 ADD MSTORE POP JUMP JUMPDEST PUSH1 0x0 PUSH2 0x164A PUSH1 0x10 DUP4 PUSH2 0x11B6 JUMP JUMPDEST SWAP2 POP PUSH2 0x1655 DUP3 PUSH2 0x1614 JUMP JUMPDEST PUSH1 0x20 DUP3 ADD SWAP1 POP SWAP2 SWAP1 POP JUMP JUMPDEST PUSH1 0x0 PUSH1 0x20 DUP3 ADD SWAP1 POP DUP2 DUP2 SUB PUSH1 0x0 DUP4 ADD MSTORE PUSH2 0x1679 DUP2 PUSH2 0x163D JUMP JUMPDEST SWAP1 POP SWAP2 SWAP1 POP JUMP JUMPDEST PUSH32 0x45524332303A2064656372656173656420616C6C6F77616E63652062656C6F77 PUSH1 0x0 DUP3 ADD MSTORE PUSH32 0x207A65726F000000000000000000000000000000000000000000000000000000 PUSH1 0x20 DUP3 ADD MSTORE POP JUMP JUMPDEST PUSH1 0x0 PUSH2 0x16DC PUSH1 0x25 DUP4 PUSH2 0x11B6 JUMP JUMPDEST SWAP2 POP PUSH2 0x16E7 DUP3 PUSH2 0x1680 JUMP JUMPDEST PUSH1 0x40 DUP3 ADD SWAP1 POP SWAP2 SWAP1 POP JUMP JUMPDEST PUSH1 0x0 PUSH1 0x20 DUP3 ADD SWAP1 POP DUP2 DUP2 SUB PUSH1 0x0 DUP4 ADD MSTORE PUSH2 0x170B DUP2 PUSH2 0x16CF JUMP JUMPDEST SWAP1 POP SWAP2 SWAP1 POP JUMP JUMPDEST PUSH32 0x45524332303A20617070726F76652066726F6D20746865207A65726F20616464 PUSH1 0x0 DUP3 ADD MSTORE PUSH32 0x7265737300000000000000000000000000000000000000000000000000000000 PUSH1 0x20 DUP3 ADD MSTORE POP JUMP JUMPDEST PUSH1 0x0 PUSH2 0x176E PUSH1 0x24 DUP4 PUSH2 0x11B6 JUMP JUMPDEST SWAP2 POP PUSH2 0x1779 DUP3 PUSH2 0x1712 JUMP JUMPDEST PUSH1 0x40 DUP3 ADD SWAP1 POP SWAP2 SWAP1 POP JUMP JUMPDEST PUSH1 0x0 PUSH1 0x20 DUP3 ADD SWAP1 POP DUP2 DUP2 SUB PUSH1 0x0 DUP4 ADD MSTORE PUSH2 0x179D DUP2 PUSH2 0x1761 JUMP JUMPDEST SWAP1 POP SWAP2 SWAP1 POP JUMP JUMPDEST PUSH32 0x45524332303A20617070726F766520746F20746865207A65726F206164647265 PUSH1 0x0 DUP3 ADD MSTORE PUSH32 0x7373000000000000000000000000000000000000000000000000000000000000 PUSH1 0x20 DUP3 ADD MSTORE POP JUMP JUMPDEST PUSH1 0x0 PUSH2 0x1800 PUSH1 0x22 DUP4 PUSH2 0x11B6 JUMP JUMPDEST SWAP2 POP PUSH2 0x180B DUP3 PUSH2 0x17A4 JUMP JUMPDEST PUSH1 0x40 DUP3 ADD SWAP1 POP SWAP2 SWAP1 POP JUMP JUMPDEST PUSH1 0x0 PUSH1 0x20 DUP3 ADD SWAP1 POP DUP2 DUP2 SUB PUSH1 0x0 DUP4 ADD MSTORE PUSH2 0x182F DUP2 PUSH2 0x17F3 JUMP JUMPDEST SWAP1 POP SWAP2 SWAP1 POP JUMP JUMPDEST PUSH32 0x45524332303A20696E73756666696369656E7420616C6C6F77616E6365000000 PUSH1 0x0 DUP3 ADD MSTORE POP JUMP JUMPDEST PUSH1 0x0 PUSH2 0x186C PUSH1 0x1D DUP4 PUSH2 0x11B6 JUMP JUMPDEST SWAP2 POP PUSH2 0x1877 DUP3 PUSH2 0x1836 JUMP JUMPDEST PUSH1 0x20 DUP3 ADD SWAP1 POP SWAP2 SWAP1 POP JUMP JUMPDEST PUSH1 0x0 PUSH1 0x20 DUP3 ADD SWAP1 POP DUP2 DUP2 SUB PUSH1 0x0 DUP4 ADD MSTORE PUSH2 0x189B DUP2 PUSH2 0x185F JUMP JUMPDEST SWAP1 POP SWAP2 SWAP1 POP JUMP JUMPDEST PUSH32 0x45524332303A207472616E736665722066726F6D20746865207A65726F206164 PUSH1 0x0 DUP3 ADD MSTORE PUSH32 0x6472657373000000000000000000000000000000000000000000000000000000 PUSH1 0x20 DUP3 ADD MSTORE POP JUMP JUMPDEST PUSH1 0x0 PUSH2 0x18FE PUSH1 0x25 DUP4 PUSH2 0x11B6 JUMP JUMPDEST SWAP2 POP PUSH2 0x1909 DUP3 PUSH2 0x18A2 JUMP JUMPDEST PUSH1 0x40 DUP3 ADD SWAP1 POP SWAP2 SWAP1 POP JUMP JUMPDEST PUSH1 0x0 PUSH1 0x20 DUP3 ADD SWAP1 POP DUP2 DUP2 SUB PUSH1 0x0 DUP4 ADD MSTORE PUSH2 0x192D DUP2 PUSH2 0x18F1 JUMP JUMPDEST SWAP1 POP SWAP2 SWAP1 POP JUMP JUMPDEST PUSH32 0x45524332303A207472616E7366657220746F20746865207A65726F2061646472 PUSH1 0x0 DUP3 ADD MSTORE PUSH32 0x6573730000000000000000000000000000000000000000000000000000000000 PUSH1 0x20 DUP3 ADD MSTORE POP JUMP JUMPDEST PUSH1 0x0 PUSH2 0x1990 PUSH1 0x23 DUP4 PUSH2 0x11B6 JUMP JUMPDEST SWAP2 POP PUSH2 0x199B DUP3 PUSH2 0x1934 JUMP JUMPDEST PUSH1 0x40 DUP3 ADD SWAP1 POP SWAP2 SWAP1 POP JUMP JUMPDEST PUSH1 0x0 PUSH1 0x20 DUP3 ADD SWAP1 POP DUP2 DUP2 SUB PUSH1 0x0 DUP4 ADD MSTORE PUSH2 0x19BF DUP2 PUSH2 0x1983 JUMP JUMPDEST SWAP1 POP SWAP2 SWAP1 POP JUMP JUMPDEST PUSH32 0x45524332303A207472616E7366657220616D6F756E7420657863656564732062 PUSH1 0x0 DUP3 ADD MSTORE PUSH32 0x616C616E63650000000000000000000000000000000000000000000000000000 PUSH1 0x20 DUP3 ADD MSTORE POP JUMP JUMPDEST PUSH1 0x0 PUSH2 0x1A22 PUSH1 0x26 DUP4 PUSH2 0x11B6 JUMP JUMPDEST SWAP2 POP PUSH2 0x1A2D DUP3 PUSH2 0x19C6 JUMP JUMPDEST PUSH1 0x40 DUP3 ADD SWAP1 POP SWAP2 SWAP1 POP JUMP JUMPDEST PUSH1 0x0 PUSH1 0x20 DUP3 ADD SWAP1 POP DUP2 DUP2 SUB PUSH1 0x0 DUP4 ADD MSTORE PUSH2 0x1A51 DUP2 PUSH2 0x1A15 JUMP JUMPDEST SWAP1 POP SWAP2 SWAP1 POP JUMP JUMPDEST PUSH32 0x45524332303A206D696E7420746F20746865207A65726F206164647265737300 PUSH1 0x0 DUP3 ADD MSTORE POP JUMP JUMPDEST PUSH1 0x0 PUSH2 0x1A8E PUSH1 0x1F DUP4 PUSH2 0x11B6 JUMP JUMPDEST SWAP2 POP PUSH2 0x1A99 DUP3 PUSH2 0x1A58 JUMP JUMPDEST PUSH1 0x20 DUP3 ADD SWAP1 POP SWAP2 SWAP1 POP JUMP JUMPDEST PUSH1 0x0 PUSH1 0x20 DUP3 ADD SWAP1 POP DUP2 DUP2 SUB PUSH1 0x0 DUP4 ADD MSTORE PUSH2 0x1ABD DUP2 PUSH2 0x1A81 JUMP JUMPDEST SWAP1 POP SWAP2 SWAP1 POP JUMP JUMPDEST PUSH32 0x45524332303A206275726E2066726F6D20746865207A65726F20616464726573 PUSH1 0x0 DUP3 ADD MSTORE PUSH32 0x7300000000000000000000000000000000000000000000000000000000000000 PUSH1 0x20 DUP3 ADD MSTORE POP JUMP JUMPDEST PUSH1 0x0 PUSH2 0x1B20 PUSH1 0x21 DUP4 PUSH2 0x11B6 JUMP JUMPDEST SWAP2 POP PUSH2 0x1B2B DUP3 PUSH2 0x1AC4 JUMP JUMPDEST PUSH1 0x40 DUP3 ADD SWAP1 POP SWAP2 SWAP1 POP JUMP JUMPDEST PUSH1 0x0 PUSH1 0x20 DUP3 ADD SWAP1 POP DUP2 DUP2 SUB PUSH1 0x0 DUP4 ADD MSTORE PUSH2 0x1B4F DUP2 PUSH2 0x1B13 JUMP JUMPDEST SWAP1 POP SWAP2 SWAP1 POP JUMP JUMPDEST PUSH32 0x45524332303A206275726E20616D6F756E7420657863656564732062616C616E PUSH1 0x0 DUP3 ADD MSTORE PUSH32 0x6365000000000000000000000000000000000000000000000000000000000000 PUSH1 0x20 DUP3 ADD MSTORE POP JUMP JUMPDEST PUSH1 0x0 PUSH2 0x1BB2 PUSH1 0x22 DUP4 PUSH2 0x11B6 JUMP JUMPDEST SWAP2 POP PUSH2 0x1BBD DUP3 PUSH2 0x1B56 JUMP JUMPDEST PUSH1 0x40 DUP3 ADD SWAP1 POP SWAP2 SWAP1 POP JUMP JUMPDEST PUSH1 0x0 PUSH1 0x20 DUP3 ADD SWAP1 POP DUP2 DUP2 SUB PUSH1 0x0 DUP4 ADD MSTORE PUSH2 0x1BE1 DUP2 PUSH2 0x1BA5 JUMP JUMPDEST SWAP1 POP SWAP2 SWAP1 POP JUMP JUMPDEST PUSH1 0x0 PUSH2 0x1BF3 DUP3 PUSH2 0x12C9 JUMP JUMPDEST SWAP2 POP PUSH2 0x1BFE DUP4 PUSH2 0x12C9 JUMP JUMPDEST SWAP3 POP DUP3 DUP3 LT ISZERO PUSH2 0x1C11 JUMPI PUSH2 0x1C10 PUSH2 0x158F JUMP JUMPDEST JUMPDEST DUP3 DUP3 SUB SWAP1 POP SWAP3 SWAP2 POP POP JUMP INVALID LOG2 PUSH5 0x6970667358 0x22 SLT KECCAK256 PUSH27 0xA090A451795B238E0B4519290C80759D05DC55740B330448D3C424 0xCE 0xC5 ADDRESS SWAP2 PUSH5 0x736F6C6343 STOP ADDMOD 0xE STOP CALLER "
				},
				"gasEstimates": {
					"creation": {
						"codeDepositCost": "1450000",
						"executionCost": "infinite",
						"totalCost": "infinite"
					},
					"external": {
						"_totalSupply()": "2518",
						"allowance(address,address)": "infinite",
						"approve(address,uint256)": "infinite",
						"balanceOf(address)": "2908",
						"burn(uint256)": "infinite",
						"burnFrom(address,uint256)": "infinite",
						"decimals()": "2516",
						"decreaseAllowance(address,uint256)": "infinite",
						"increaseAllowance(address,uint256)": "infinite",
						"mint(address,uint256)": "infinite",
						"name()": "infinite",
						"setOwner(address)": "infinite",
						"symbol()": "infinite",
						"totalSupply()": "2527",
						"transfer(address,uint256)": "infinite",
						"transferFrom(address,address,uint256)": "infinite"
					},
					"internal": {
						"_approve(address,address,uint256)": "infinite",
						"_burn(address,uint256)": "infinite",
						"_mint(address,uint256)": "infinite",
						"_spendAllowance(address,address,uint256)": "infinite",
						"_transfer(address,address,uint256)": "infinite"
					}
				},
				"methodIdentifiers": {
					"_totalSupply()": "3eaaf86b",
					"allowance(address,address)": "dd62ed3e",
					"approve(address,uint256)": "095ea7b3",
					"balanceOf(address)": "70a08231",
					"burn(uint256)": "42966c68",
					"burnFrom(address,uint256)": "79cc6790",
					"decimals()": "313ce567",
					"decreaseAllowance(address,uint256)": "a457c2d7",
					"increaseAllowance(address,uint256)": "39509351",
					"mint(address,uint256)": "40c10f19",
					"name()": "06fdde03",
					"setOwner(address)": "13af4035",
					"symbol()": "95d89b41",
					"totalSupply()": "18160ddd",
					"transfer(address,uint256)": "a9059cbb",
					"transferFrom(address,address,uint256)": "23b872dd"
				}
			},
			"storageLayout": {
				"storage": [
					{
						"astId": 8,
						"contract": "TFGv3/Contracts/CryptoFundToken.sol:CryptoFundToken",
						"label": "_balances",
						"offset": 0,
						"slot": "0",
						"type": "t_mapping(t_address,t_uint256)"
					},
					{
						"astId": 14,
						"contract": "TFGv3/Contracts/CryptoFundToken.sol:CryptoFundToken",
						"label": "_allowances",
						"offset": 0,
						"slot": "1",
						"type": "t_mapping(t_address,t_mapping(t_address,t_uint256))"
					},
					{
						"astId": 18,
						"contract": "TFGv3/Contracts/CryptoFundToken.sol:CryptoFundToken",
						"label": "_owner",
						"offset": 0,
						"slot": "2",
						"type": "t_address"
					},
					{
						"astId": 20,
						"contract": "TFGv3/Contracts/CryptoFundToken.sol:CryptoFundToken",
						"label": "_totalSupply",
						"offset": 0,
						"slot": "3",
						"type": "t_uint256"
					},
					{
						"astId": 22,
						"contract": "TFGv3/Contracts/CryptoFundToken.sol:CryptoFundToken",
						"label": "name",
						"offset": 0,
						"slot": "4",
						"type": "t_string_storage"
					},
					{
						"astId": 24,
						"contract": "TFGv3/Contracts/CryptoFundToken.sol:CryptoFundToken",
						"label": "symbol",
						"offset": 0,
						"slot": "5",
						"type": "t_string_storage"
					},
					{
						"astId": 26,
						"contract": "TFGv3/Contracts/CryptoFundToken.sol:CryptoFundToken",
						"label": "decimals",
						"offset": 0,
						"slot": "6",
						"type": "t_uint8"
					}
				],
				"types": {
					"t_address": {
						"encoding": "inplace",
						"label": "address",
						"numberOfBytes": "20"
					},
					"t_mapping(t_address,t_mapping(t_address,t_uint256))": {
						"encoding": "mapping",
						"key": "t_address",
						"label": "mapping(address => mapping(address => uint256))",
						"numberOfBytes": "32",
						"value": "t_mapping(t_address,t_uint256)"
					},
					"t_mapping(t_address,t_uint256)": {
						"encoding": "mapping",
						"key": "t_address",
						"label": "mapping(address => uint256)",
						"numberOfBytes": "32",
						"value": "t_uint256"
					},
					"t_string_storage": {
						"encoding": "bytes",
						"label": "string",
						"numberOfBytes": "32"
					},
					"t_uint256": {
						"encoding": "inplace",
						"label": "uint256",
						"numberOfBytes": "32"
					},
					"t_uint8": {
						"encoding": "inplace",
						"label": "uint8",
						"numberOfBytes": "1"
					}
				}
			},
			"userdoc": {
				"kind": "user",
				"methods": {},
				"version": 1
			}
		}
	}
}