{
	"TFGv3/Contracts/SCCommission.sol": {
		"SCCommission": {
			"abi": [
				{
					"inputs": [],
					"stateMutability": "nonpayable",
					"type": "constructor"
				},
				{
					"stateMutability": "payable",
					"type": "fallback"
				},
				{
					"inputs": [],
					"name": "accumCommission",
					"outputs": [
						{
							"internalType": "uint256",
							"name": "",
							"type": "uint256"
						}
					],
					"stateMutability": "view",
					"type": "function"
				},
				{
					"inputs": [
						{
							"internalType": "address[]",
							"name": "tokensToTransfer",
							"type": "address[]"
						},
						{
							"internalType": "uint256[]",
							"name": "qty",
							"type": "uint256[]"
						}
					],
					"name": "collectCommission",
					"outputs": [],
					"stateMutability": "nonpayable",
					"type": "function"
				},
				{
					"inputs": [
						{
							"internalType": "address",
							"name": "newAddr",
							"type": "address"
						},
						{
							"internalType": "address[]",
							"name": "tokensToTransfer",
							"type": "address[]"
						},
						{
							"internalType": "uint256[]",
							"name": "qty",
							"type": "uint256[]"
						}
					],
					"name": "deleteContract",
					"outputs": [],
					"stateMutability": "nonpayable",
					"type": "function"
				},
				{
					"inputs": [],
					"name": "feeYear",
					"outputs": [
						{
							"internalType": "uint256",
							"name": "",
							"type": "uint256"
						}
					],
					"stateMutability": "view",
					"type": "function"
				},
				{
					"inputs": [
						{
							"internalType": "address",
							"name": "proxyAddr",
							"type": "address"
						},
						{
							"internalType": "uint256",
							"name": "lastUpdated_",
							"type": "uint256"
						},
						{
							"internalType": "uint256",
							"name": "accumCommission_",
							"type": "uint256"
						},
						{
							"internalType": "uint256",
							"name": "feeYear_",
							"type": "uint256"
						},
						{
							"internalType": "uint256",
							"name": "r_",
							"type": "uint256"
						}
					],
					"name": "initContract",
					"outputs": [],
					"stateMutability": "nonpayable",
					"type": "function"
				},
				{
					"inputs": [],
					"name": "initDone",
					"outputs": [
						{
							"internalType": "uint256",
							"name": "",
							"type": "uint256"
						}
					],
					"stateMutability": "view",
					"type": "function"
				},
				{
					"inputs": [],
					"name": "lastUpdated",
					"outputs": [
						{
							"internalType": "uint256",
							"name": "",
							"type": "uint256"
						}
					],
					"stateMutability": "view",
					"type": "function"
				},
				{
					"inputs": [
						{
							"internalType": "uint256",
							"name": "buyOrSell",
							"type": "uint256"
						}
					],
					"name": "payComissions",
					"outputs": [
						{
							"internalType": "uint256",
							"name": "payedComissions",
							"type": "uint256"
						}
					],
					"stateMutability": "nonpayable",
					"type": "function"
				},
				{
					"inputs": [],
					"name": "proxy",
					"outputs": [
						{
							"internalType": "address",
							"name": "",
							"type": "address"
						}
					],
					"stateMutability": "view",
					"type": "function"
				},
				{
					"inputs": [],
					"name": "r",
					"outputs": [
						{
							"internalType": "uint256",
							"name": "",
							"type": "uint256"
						}
					],
					"stateMutability": "view",
					"type": "function"
				},
				{
					"inputs": [
						{
							"internalType": "uint256",
							"name": "newFee",
							"type": "uint256"
						}
					],
					"name": "setFeeYear",
					"outputs": [],
					"stateMutability": "nonpayable",
					"type": "function"
				},
				{
					"inputs": [
						{
							"internalType": "uint256",
							"name": "newR",
							"type": "uint256"
						}
					],
					"name": "setR",
					"outputs": [],
					"stateMutability": "nonpayable",
					"type": "function"
				},
				{
					"inputs": [
						{
							"internalType": "address",
							"name": "newAddr",
							"type": "address"
						}
					],
					"name": "updateProxy",
					"outputs": [],
					"stateMutability": "nonpayable",
					"type": "function"
				},
				{
					"stateMutability": "payable",
					"type": "receive"
				}
			],
			"devdoc": {
				"kind": "dev",
				"methods": {},
				"version": 1
			},
			"evm": {
				"assembly": "    /* \"TFGv3/Contracts/SCCommission.sol\":108:4088  contract SCCommission is ISCCommission... */\n  mstore(0x40, 0xa0)\n    /* \"TFGv3/Contracts/SCCommission.sol\":676:754  constructor()... */\n  callvalue\n  dup1\n  iszero\n  tag_1\n  jumpi\n  0x00\n  dup1\n  revert\ntag_1:\n  pop\n    /* \"TFGv3/Contracts/SCCommission.sol\":715:725  msg.sender */\n  caller\n    /* \"TFGv3/Contracts/SCCommission.sol\":704:725  deployer = msg.sender */\n  0x80\n  mstore\n    /* \"TFGv3/Contracts/SCCommission.sol\":746:747  0 */\n  0x00\n    /* \"TFGv3/Contracts/SCCommission.sol\":735:743  initDone */\n  0x05\n    /* \"TFGv3/Contracts/SCCommission.sol\":735:747  initDone = 0 */\n  sstore\n    /* \"TFGv3/Contracts/SCCommission.sol\":108:4088  contract SCCommission is ISCCommission... */\n  mload(0x80)\n  codecopy(0x00, dataOffset(sub_0), dataSize(sub_0))\n  0x00\n  assignImmutable(\"0x5081277725af21b52adfcd8be9eaf5a350f1ec111a4413c31b8ff210fe7f74ef\")\n  return(0x00, dataSize(sub_0))\nstop\n\nsub_0: assembly {\n        /* \"TFGv3/Contracts/SCCommission.sol\":108:4088  contract SCCommission is ISCCommission... */\n      mstore(0x40, 0x80)\n      jumpi(tag_1, lt(calldatasize, 0x04))\n      shr(0xe0, calldataload(0x00))\n      dup1\n      0x7f8483a4\n      gt\n      tag_16\n      jumpi\n      dup1\n      0xd0b06f5d\n      gt\n      tag_17\n      jumpi\n      dup1\n      0xd0b06f5d\n      eq\n      tag_12\n      jumpi\n      dup1\n      0xec556889\n      eq\n      tag_13\n      jumpi\n      dup1\n      0xfc693786\n      eq\n      tag_14\n      jumpi\n      dup1\n      0xfed0a20e\n      eq\n      tag_15\n      jumpi\n        /* \"TFGv3/Contracts/SCCommission.sol\":4071:4079  revert() */\n      0x00\n      dup1\n      revert\n        /* \"TFGv3/Contracts/SCCommission.sol\":108:4088  contract SCCommission is ISCCommission... */\n    tag_17:\n      dup1\n      0x7f8483a4\n      eq\n      tag_9\n      jumpi\n      dup1\n      0x9e955149\n      eq\n      tag_10\n      jumpi\n      dup1\n      0xbdedd45e\n      eq\n      tag_11\n      jumpi\n        /* \"TFGv3/Contracts/SCCommission.sol\":4071:4079  revert() */\n      0x00\n      dup1\n      revert\n        /* \"TFGv3/Contracts/SCCommission.sol\":108:4088  contract SCCommission is ISCCommission... */\n    tag_16:\n      dup1\n      0x674eb5ac\n      gt\n      tag_18\n      jumpi\n      dup1\n      0x674eb5ac\n      eq\n      tag_6\n      jumpi\n      dup1\n      0x6c8ae38c\n      eq\n      tag_7\n      jumpi\n      dup1\n      0x75450f1b\n      eq\n      tag_8\n      jumpi\n        /* \"TFGv3/Contracts/SCCommission.sol\":4071:4079  revert() */\n      0x00\n      dup1\n      revert\n        /* \"TFGv3/Contracts/SCCommission.sol\":108:4088  contract SCCommission is ISCCommission... */\n    tag_18:\n      dup1\n      0x13ab7042\n      eq\n      tag_3\n      jumpi\n      dup1\n      0x1d69b196\n      eq\n      tag_4\n      jumpi\n      dup1\n      0x37799661\n      eq\n      tag_5\n      jumpi\n        /* \"TFGv3/Contracts/SCCommission.sol\":4071:4079  revert() */\n      0x00\n      dup1\n      revert\n        /* \"TFGv3/Contracts/SCCommission.sol\":108:4088  contract SCCommission is ISCCommission... */\n    tag_1:\n      jumpi(tag_2, calldatasize)\n        /* \"TFGv3/Contracts/SCCommission.sol\":4004:4012  revert() */\n      0x00\n      dup1\n      revert\n        /* \"TFGv3/Contracts/SCCommission.sol\":108:4088  contract SCCommission is ISCCommission... */\n    tag_2:\n        /* \"TFGv3/Contracts/SCCommission.sol\":4071:4079  revert() */\n      0x00\n      dup1\n      revert\n        /* \"TFGv3/Contracts/SCCommission.sol\":262:281  uint public feeYear */\n    tag_3:\n      callvalue\n      dup1\n      iszero\n      tag_23\n      jumpi\n      0x00\n      dup1\n      revert\n    tag_23:\n      pop\n      tag_24\n      sload(0x03)\n      dup2\n      jump\n    tag_24:\n      mload(0x40)\n        /* \"#utility.yul\":160:185   */\n      swap1\n      dup2\n      mstore\n        /* \"#utility.yul\":148:150   */\n      0x20\n        /* \"#utility.yul\":133:151   */\n      add\n        /* \"TFGv3/Contracts/SCCommission.sol\":262:281  uint public feeYear */\n    tag_26:\n      mload(0x40)\n      dup1\n      swap2\n      sub\n      swap1\n      return\n        /* \"TFGv3/Contracts/SCCommission.sol\":3276:3953  function deleteContract(address newAddr, address[] calldata tokensToTransfer, uint[] calldata qty) external virtual override OnlyDeployer... */\n    tag_4:\n      callvalue\n      dup1\n      iszero\n      tag_28\n      jumpi\n      0x00\n      dup1\n      revert\n    tag_28:\n      pop\n      tag_29\n      tag_30\n      calldatasize\n      0x04\n      tag_31\n      jump\t// in\n    tag_30:\n      tag_32\n      jump\t// in\n    tag_29:\n      stop\n        /* \"TFGv3/Contracts/SCCommission.sol\":933:1271  function initContract(address proxyAddr, uint lastUpdated_, uint accumCommission_, uint feeYear_, uint r_) external virtual override OnlyDeployer NonInit... */\n    tag_5:\n      callvalue\n      dup1\n      iszero\n      tag_33\n      jumpi\n      0x00\n      dup1\n      revert\n    tag_33:\n      pop\n      tag_29\n      tag_35\n      calldatasize\n      0x04\n      tag_36\n      jump\t// in\n    tag_35:\n      tag_37\n      jump\t// in\n        /* \"TFGv3/Contracts/SCCommission.sol\":1277:1353  function setR(uint newR) external OnlyDeployer... */\n    tag_6:\n      callvalue\n      dup1\n      iszero\n      tag_38\n      jumpi\n      0x00\n      dup1\n      revert\n    tag_38:\n      pop\n      tag_29\n      tag_40\n      calldatasize\n      0x04\n      tag_41\n      jump\t// in\n    tag_40:\n      tag_42\n      jump\t// in\n        /* \"TFGv3/Contracts/SCCommission.sol\":347:360  uint public r */\n    tag_7:\n      callvalue\n      dup1\n      iszero\n      tag_43\n      jumpi\n      0x00\n      dup1\n      revert\n    tag_43:\n      pop\n      tag_24\n      sload(0x04)\n      dup2\n      jump\n        /* \"TFGv3/Contracts/SCCommission.sol\":1359:1451  function setFeeYear(uint newFee) external OnlyDeployer... */\n    tag_8:\n      callvalue\n      dup1\n      iszero\n      tag_47\n      jumpi\n      0x00\n      dup1\n      revert\n    tag_47:\n      pop\n      tag_29\n      tag_49\n      calldatasize\n      0x04\n      tag_41\n      jump\t// in\n    tag_49:\n      tag_50\n      jump\t// in\n        /* \"TFGv3/Contracts/SCCommission.sol\":232:259  uint public accumCommission */\n    tag_9:\n      callvalue\n      dup1\n      iszero\n      tag_51\n      jumpi\n      0x00\n      dup1\n      revert\n    tag_51:\n      pop\n      tag_24\n      sload(0x02)\n      dup2\n      jump\n        /* \"TFGv3/Contracts/SCCommission.sol\":3128:3266  function updateProxy(address newAddr) external virtual override... */\n    tag_10:\n      callvalue\n      dup1\n      iszero\n      tag_55\n      jumpi\n      0x00\n      dup1\n      revert\n    tag_55:\n      pop\n      tag_29\n      tag_57\n      calldatasize\n      0x04\n      tag_58\n      jump\t// in\n    tag_57:\n      tag_59\n      jump\t// in\n        /* \"TFGv3/Contracts/SCCommission.sol\":2188:2855  function payComissions(uint buyOrSell) external virtual override returns (uint payedComissions)... */\n    tag_11:\n      callvalue\n      dup1\n      iszero\n      tag_60\n      jumpi\n      0x00\n      dup1\n      revert\n    tag_60:\n      pop\n      tag_24\n      tag_62\n      calldatasize\n      0x04\n      tag_41\n      jump\t// in\n    tag_62:\n      tag_63\n      jump\t// in\n        /* \"TFGv3/Contracts/SCCommission.sol\":206:229  uint public lastUpdated */\n    tag_12:\n      callvalue\n      dup1\n      iszero\n      tag_65\n      jumpi\n      0x00\n      dup1\n      revert\n    tag_65:\n      pop\n      tag_24\n      sload(0x01)\n      dup2\n      jump\n        /* \"TFGv3/Contracts/SCCommission.sol\":181:201  address public proxy */\n    tag_13:\n      callvalue\n      dup1\n      iszero\n      tag_69\n      jumpi\n      0x00\n      dup1\n      revert\n    tag_69:\n      pop\n      sload(0x00)\n      tag_70\n      swap1\n      sub(shl(0xa0, 0x01), 0x01)\n      and\n      dup2\n      jump\n    tag_70:\n      mload(0x40)\n      sub(shl(0xa0, 0x01), 0x01)\n        /* \"#utility.yul\":2767:2822   */\n      swap1\n      swap2\n      and\n        /* \"#utility.yul\":2749:2823   */\n      dup2\n      mstore\n        /* \"#utility.yul\":2737:2739   */\n      0x20\n        /* \"#utility.yul\":2722:2740   */\n      add\n        /* \"TFGv3/Contracts/SCCommission.sol\":181:201  address public proxy */\n      tag_26\n        /* \"#utility.yul\":2603:2829   */\n      jump\n        /* \"TFGv3/Contracts/SCCommission.sol\":2861:3122  function collectCommission(address[] calldata tokensToTransfer, uint[] calldata qty) external virtual override OnlyDeployer... */\n    tag_14:\n      callvalue\n      dup1\n      iszero\n      tag_74\n      jumpi\n      0x00\n      dup1\n      revert\n    tag_74:\n      pop\n      tag_29\n      tag_76\n      calldatasize\n      0x04\n      tag_77\n      jump\t// in\n    tag_76:\n      tag_78\n      jump\t// in\n        /* \"TFGv3/Contracts/SCCommission.sol\":645:665  uint public initDone */\n    tag_15:\n      callvalue\n      dup1\n      iszero\n      tag_79\n      jumpi\n      0x00\n      dup1\n      revert\n    tag_79:\n      pop\n      tag_24\n      sload(0x05)\n      dup2\n      jump\n        /* \"TFGv3/Contracts/SCCommission.sol\":3276:3953  function deleteContract(address newAddr, address[] calldata tokensToTransfer, uint[] calldata qty) external virtual override OnlyDeployer... */\n    tag_32:\n        /* \"TFGv3/Contracts/SCCommission.sol\":807:817  msg.sender */\n      caller\n      sub(shl(0xa0, 0x01), 0x01)\n        /* \"TFGv3/Contracts/SCCommission.sol\":821:829  deployer */\n      immutable(\"0x5081277725af21b52adfcd8be9eaf5a350f1ec111a4413c31b8ff210fe7f74ef\")\n        /* \"TFGv3/Contracts/SCCommission.sol\":807:829  msg.sender == deployer */\n      and\n      eq\n        /* \"TFGv3/Contracts/SCCommission.sol\":799:830  require(msg.sender == deployer) */\n      tag_84\n      jumpi\n      0x00\n      dup1\n      revert\n    tag_84:\n        /* \"TFGv3/Contracts/SCCommission.sol\":3428:3445  address proxyAddr */\n      0x00\n        /* \"TFGv3/Contracts/SCCommission.sol\":3448:3453  proxy */\n      sload\n        /* \"TFGv3/Contracts/SCCommission.sol\":3463:3507  IProxy(proxyAddr).setCommissionAddr(newAddr) */\n      mload(0x40)\n      0x101dfd1900000000000000000000000000000000000000000000000000000000\n      dup2\n      mstore\n      sub(shl(0xa0, 0x01), 0x01)\n        /* \"#utility.yul\":2767:2822   */\n      dup8\n      dup2\n      and\n        /* \"TFGv3/Contracts/SCCommission.sol\":3463:3507  IProxy(proxyAddr).setCommissionAddr(newAddr) */\n      0x04\n      dup4\n      add\n        /* \"#utility.yul\":2749:2823   */\n      mstore\n        /* \"TFGv3/Contracts/SCCommission.sol\":3448:3453  proxy */\n      swap1\n      swap2\n      and\n      swap1\n      dup2\n      swap1\n        /* \"TFGv3/Contracts/SCCommission.sol\":3463:3498  IProxy(proxyAddr).setCommissionAddr */\n      0x101dfd19\n      swap1\n        /* \"#utility.yul\":2722:2740   */\n      0x24\n      add\n        /* \"TFGv3/Contracts/SCCommission.sol\":3463:3507  IProxy(proxyAddr).setCommissionAddr(newAddr) */\n      0x00\n      mload(0x40)\n      dup1\n      dup4\n      sub\n      dup2\n      0x00\n      dup8\n      dup1\n      extcodesize\n      iszero\n      dup1\n      iszero\n      tag_87\n      jumpi\n      0x00\n      dup1\n      revert\n    tag_87:\n      pop\n      gas\n      call\n      iszero\n      dup1\n      iszero\n      tag_89\n      jumpi\n      returndatasize\n      0x00\n      dup1\n      returndatacopy\n      revert(0x00, returndatasize)\n    tag_89:\n      pop\n      pop\n        /* \"TFGv3/Contracts/SCCommission.sol\":3618:3629  lastUpdated */\n      sload(0x01)\n        /* \"TFGv3/Contracts/SCCommission.sol\":3631:3646  accumCommission */\n      sload(0x02)\n        /* \"TFGv3/Contracts/SCCommission.sol\":3648:3655  feeYear */\n      sload(0x03)\n        /* \"TFGv3/Contracts/SCCommission.sol\":3657:3658  r */\n      sload(0x04)\n        /* \"TFGv3/Contracts/SCCommission.sol\":3538:3659  abi.encodeWithSignature(\"initContract(address,uint,uint,uint,uint)\", proxyAddr, lastUpdated, accumCommission, feeYear, r) */\n      mload(0x40)\n      sub(shl(0xa0, 0x01), 0x01)\n        /* \"#utility.yul\":3889:3944   */\n      dup9\n      dup2\n      and\n        /* \"TFGv3/Contracts/SCCommission.sol\":3538:3659  abi.encodeWithSignature(\"initContract(address,uint,uint,uint,uint)\", proxyAddr, lastUpdated, accumCommission, feeYear, r) */\n      0x24\n      dup4\n      add\n        /* \"#utility.yul\":3871:3945   */\n      mstore\n        /* \"#utility.yul\":3961:3979   */\n      0x44\n      dup3\n      add\n        /* \"#utility.yul\":3954:3988   */\n      swap6\n      swap1\n      swap6\n      mstore\n        /* \"#utility.yul\":4004:4022   */\n      0x64\n      dup2\n      add\n        /* \"#utility.yul\":3997:4031   */\n      swap4\n      swap1\n      swap4\n      mstore\n        /* \"#utility.yul\":4047:4065   */\n      0x84\n      dup4\n      add\n        /* \"#utility.yul\":4040:4074   */\n      swap2\n      swap1\n      swap2\n      mstore\n        /* \"#utility.yul\":4090:4109   */\n      0xa4\n      dup3\n      add\n        /* \"#utility.yul\":4083:4118   */\n      mstore\n        /* \"TFGv3/Contracts/SCCommission.sol\":3517:3537  newAddr.delegatecall */\n      swap1\n      dup10\n      and\n      swap3\n      pop\n        /* \"#utility.yul\":3843:3862   */\n      0xc4\n      add\n      swap1\n      pop\n        /* \"TFGv3/Contracts/SCCommission.sol\":3538:3659  abi.encodeWithSignature(\"initContract(address,uint,uint,uint,uint)\", proxyAddr, lastUpdated, accumCommission, feeYear, r) */\n      0x40\n      dup1\n      mload\n      0xffffffffffffffffffffffffffffffffffffffffffffffffffffffffffffffe0\n      dup2\n      dup5\n      sub\n      add\n      dup2\n      mstore\n      swap2\n      dup2\n      mstore\n      0x20\n      dup3\n      add\n      dup1\n      mload\n      0xffffffffffffffffffffffffffffffffffffffffffffffffffffffff\n      and\n      0x941ac60700000000000000000000000000000000000000000000000000000000\n      or\n      swap1\n      mstore\n        /* \"TFGv3/Contracts/SCCommission.sol\":3517:3660  newAddr.delegatecall(abi.encodeWithSignature(\"initContract(address,uint,uint,uint,uint)\", proxyAddr, lastUpdated, accumCommission, feeYear, r)) */\n      mload\n      tag_92\n      swap2\n        /* \"TFGv3/Contracts/SCCommission.sol\":3538:3659  abi.encodeWithSignature(\"initContract(address,uint,uint,uint,uint)\", proxyAddr, lastUpdated, accumCommission, feeYear, r) */\n      swap1\n        /* \"TFGv3/Contracts/SCCommission.sol\":3517:3660  newAddr.delegatecall(abi.encodeWithSignature(\"initContract(address,uint,uint,uint,uint)\", proxyAddr, lastUpdated, accumCommission, feeYear, r)) */\n      tag_93\n      jump\t// in\n    tag_92:\n      0x00\n      mload(0x40)\n      dup1\n      dup4\n      sub\n      dup2\n      dup6\n      gas\n      delegatecall\n      swap2\n      pop\n      pop\n      returndatasize\n      dup1\n      0x00\n      dup2\n      eq\n      tag_96\n      jumpi\n      mload(0x40)\n      swap2\n      pop\n      and(add(returndatasize, 0x3f), not(0x1f))\n      dup3\n      add\n      0x40\n      mstore\n      returndatasize\n      dup3\n      mstore\n      returndatasize\n      0x00\n      0x20\n      dup5\n      add\n      returndatacopy\n      jump(tag_95)\n    tag_96:\n      0x60\n      swap2\n      pop\n    tag_95:\n      pop\n      pop\n        /* \"TFGv3/Contracts/SCCommission.sol\":3690:3691  0 */\n      0x00\n        /* \"TFGv3/Contracts/SCCommission.sol\":3702:3713  lastUpdated */\n      0x01\n        /* \"TFGv3/Contracts/SCCommission.sol\":3702:3717  lastUpdated = 0 */\n      dup2\n      swap1\n      sstore\n        /* \"TFGv3/Contracts/SCCommission.sol\":3727:3742  accumCommission */\n      0x02\n        /* \"TFGv3/Contracts/SCCommission.sol\":3727:3746  accumCommission = 0 */\n      dup2\n      swap1\n      sstore\n        /* \"TFGv3/Contracts/SCCommission.sol\":3756:3763  feeYear */\n      0x03\n        /* \"TFGv3/Contracts/SCCommission.sol\":3756:3767  feeYear = 0 */\n      dup2\n      swap1\n      sstore\n        /* \"TFGv3/Contracts/SCCommission.sol\":3777:3778  r */\n      0x04\n        /* \"TFGv3/Contracts/SCCommission.sol\":3777:3782  r = 0 */\n      dup2\n      swap1\n      sstore\n        /* \"TFGv3/Contracts/SCCommission.sol\":3819:3904  abi.encodeWithSignature(\"collectCommission(address[],uint[])\", tokensToTransfer, qty) */\n      mload(0x40)\n        /* \"TFGv3/Contracts/SCCommission.sol\":3690:3691  0 */\n      swap1\n      swap3\n      pop\n        /* \"TFGv3/Contracts/SCCommission.sol\":3800:3804  this */\n      address\n      swap2\n      pop\n        /* \"TFGv3/Contracts/SCCommission.sol\":3819:3904  abi.encodeWithSignature(\"collectCommission(address[],uint[])\", tokensToTransfer, qty) */\n      tag_97\n      swap1\n        /* \"TFGv3/Contracts/SCCommission.sol\":3882:3898  tokensToTransfer */\n      dup8\n      swap1\n      dup8\n      swap1\n        /* \"TFGv3/Contracts/SCCommission.sol\":3900:3903  qty */\n      dup8\n      swap1\n      dup8\n      swap1\n        /* \"TFGv3/Contracts/SCCommission.sol\":3819:3904  abi.encodeWithSignature(\"collectCommission(address[],uint[])\", tokensToTransfer, qty) */\n      0x24\n      add\n      tag_98\n      jump\t// in\n    tag_97:\n      0x40\n      dup1\n      mload\n      0xffffffffffffffffffffffffffffffffffffffffffffffffffffffffffffffe0\n      dup2\n      dup5\n      sub\n      add\n      dup2\n      mstore\n      swap2\n      dup2\n      mstore\n      0x20\n      dup3\n      add\n      dup1\n      mload\n      0xffffffffffffffffffffffffffffffffffffffffffffffffffffffff\n      and\n      0x4abcc5d500000000000000000000000000000000000000000000000000000000\n      or\n      swap1\n      mstore\n        /* \"TFGv3/Contracts/SCCommission.sol\":3792:3905  address(this).delegatecall(abi.encodeWithSignature(\"collectCommission(address[],uint[])\", tokensToTransfer, qty)) */\n      mload\n      tag_99\n      swap2\n        /* \"TFGv3/Contracts/SCCommission.sol\":3819:3904  abi.encodeWithSignature(\"collectCommission(address[],uint[])\", tokensToTransfer, qty) */\n      swap1\n        /* \"TFGv3/Contracts/SCCommission.sol\":3792:3905  address(this).delegatecall(abi.encodeWithSignature(\"collectCommission(address[],uint[])\", tokensToTransfer, qty)) */\n      tag_93\n      jump\t// in\n    tag_99:\n      0x00\n      mload(0x40)\n      dup1\n      dup4\n      sub\n      dup2\n      dup6\n      gas\n      delegatecall\n      swap2\n      pop\n      pop\n      returndatasize\n      dup1\n      0x00\n      dup2\n      eq\n      tag_102\n      jumpi\n      mload(0x40)\n      swap2\n      pop\n      and(add(returndatasize, 0x3f), not(0x1f))\n      dup3\n      add\n      0x40\n      mstore\n      returndatasize\n      dup3\n      mstore\n      returndatasize\n      0x00\n      0x20\n      dup5\n      add\n      returndatacopy\n      jump(tag_101)\n    tag_102:\n      0x60\n      swap2\n      pop\n    tag_101:\n      pop\n      pop\n      pop\n        /* \"TFGv3/Contracts/SCCommission.sol\":3936:3944  deployer */\n      immutable(\"0x5081277725af21b52adfcd8be9eaf5a350f1ec111a4413c31b8ff210fe7f74ef\")\n      sub(shl(0xa0, 0x01), 0x01)\n        /* \"TFGv3/Contracts/SCCommission.sol\":3915:3946  selfdestruct(payable(deployer)) */\n      and\n      selfdestruct\n        /* \"TFGv3/Contracts/SCCommission.sol\":933:1271  function initContract(address proxyAddr, uint lastUpdated_, uint accumCommission_, uint feeYear_, uint r_) external virtual override OnlyDeployer NonInit... */\n    tag_37:\n        /* \"TFGv3/Contracts/SCCommission.sol\":807:817  msg.sender */\n      caller\n      sub(shl(0xa0, 0x01), 0x01)\n        /* \"TFGv3/Contracts/SCCommission.sol\":821:829  deployer */\n      immutable(\"0x5081277725af21b52adfcd8be9eaf5a350f1ec111a4413c31b8ff210fe7f74ef\")\n        /* \"TFGv3/Contracts/SCCommission.sol\":807:829  msg.sender == deployer */\n      and\n      eq\n        /* \"TFGv3/Contracts/SCCommission.sol\":799:830  require(msg.sender == deployer) */\n      tag_104\n      jumpi\n      0x00\n      dup1\n      revert\n    tag_104:\n        /* \"TFGv3/Contracts/SCCommission.sol\":895:903  initDone */\n      sload(0x05)\n        /* \"TFGv3/Contracts/SCCommission.sol\":895:908  initDone == 0 */\n      iszero\n        /* \"TFGv3/Contracts/SCCommission.sol\":887:909  require(initDone == 0) */\n      tag_106\n      jumpi\n      0x00\n      dup1\n      revert\n    tag_106:\n        /* \"TFGv3/Contracts/SCCommission.sol\":1101:1106  proxy */\n      0x00\n        /* \"TFGv3/Contracts/SCCommission.sol\":1101:1118  proxy = proxyAddr */\n      dup1\n      sload\n      0xffffffffffffffffffffffff0000000000000000000000000000000000000000\n      and\n      sub(shl(0xa0, 0x01), 0x01)\n      swap7\n      swap1\n      swap7\n      and\n      swap6\n      swap1\n      swap6\n      or\n      swap1\n      swap5\n      sstore\n      0x01\n        /* \"TFGv3/Contracts/SCCommission.sol\":1128:1154  lastUpdated = lastUpdated_ */\n      swap3\n      dup4\n      sstore\n        /* \"TFGv3/Contracts/SCCommission.sol\":1164:1179  accumCommission */\n      0x02\n        /* \"TFGv3/Contracts/SCCommission.sol\":1164:1198  accumCommission = accumCommission_ */\n      swap2\n      swap1\n      swap2\n      sstore\n        /* \"TFGv3/Contracts/SCCommission.sol\":1208:1215  feeYear */\n      0x03\n        /* \"TFGv3/Contracts/SCCommission.sol\":1208:1226  feeYear = feeYear_ */\n      sstore\n        /* \"TFGv3/Contracts/SCCommission.sol\":1236:1237  r */\n      0x04\n        /* \"TFGv3/Contracts/SCCommission.sol\":1236:1242  r = r_ */\n      swap2\n      swap1\n      swap2\n      sstore\n        /* \"TFGv3/Contracts/SCCommission.sol\":1252:1260  initDone */\n      0x05\n        /* \"TFGv3/Contracts/SCCommission.sol\":1252:1264  initDone = 1 */\n      sstore\n        /* \"TFGv3/Contracts/SCCommission.sol\":933:1271  function initContract(address proxyAddr, uint lastUpdated_, uint accumCommission_, uint feeYear_, uint r_) external virtual override OnlyDeployer NonInit... */\n      jump\t// out\n        /* \"TFGv3/Contracts/SCCommission.sol\":1277:1353  function setR(uint newR) external OnlyDeployer... */\n    tag_42:\n        /* \"TFGv3/Contracts/SCCommission.sol\":807:817  msg.sender */\n      caller\n      sub(shl(0xa0, 0x01), 0x01)\n        /* \"TFGv3/Contracts/SCCommission.sol\":821:829  deployer */\n      immutable(\"0x5081277725af21b52adfcd8be9eaf5a350f1ec111a4413c31b8ff210fe7f74ef\")\n        /* \"TFGv3/Contracts/SCCommission.sol\":807:829  msg.sender == deployer */\n      and\n      eq\n        /* \"TFGv3/Contracts/SCCommission.sol\":799:830  require(msg.sender == deployer) */\n      tag_109\n      jumpi\n      0x00\n      dup1\n      revert\n    tag_109:\n        /* \"TFGv3/Contracts/SCCommission.sol\":1338:1339  r */\n      0x04\n        /* \"TFGv3/Contracts/SCCommission.sol\":1338:1346  r = newR */\n      sstore\n        /* \"TFGv3/Contracts/SCCommission.sol\":1277:1353  function setR(uint newR) external OnlyDeployer... */\n      jump\t// out\n        /* \"TFGv3/Contracts/SCCommission.sol\":1359:1451  function setFeeYear(uint newFee) external OnlyDeployer... */\n    tag_50:\n        /* \"TFGv3/Contracts/SCCommission.sol\":807:817  msg.sender */\n      caller\n      sub(shl(0xa0, 0x01), 0x01)\n        /* \"TFGv3/Contracts/SCCommission.sol\":821:829  deployer */\n      immutable(\"0x5081277725af21b52adfcd8be9eaf5a350f1ec111a4413c31b8ff210fe7f74ef\")\n        /* \"TFGv3/Contracts/SCCommission.sol\":807:829  msg.sender == deployer */\n      and\n      eq\n        /* \"TFGv3/Contracts/SCCommission.sol\":799:830  require(msg.sender == deployer) */\n      tag_112\n      jumpi\n      0x00\n      dup1\n      revert\n    tag_112:\n        /* \"TFGv3/Contracts/SCCommission.sol\":1428:1435  feeYear */\n      0x03\n        /* \"TFGv3/Contracts/SCCommission.sol\":1428:1444  feeYear = newFee */\n      sstore\n        /* \"TFGv3/Contracts/SCCommission.sol\":1359:1451  function setFeeYear(uint newFee) external OnlyDeployer... */\n      jump\t// out\n        /* \"TFGv3/Contracts/SCCommission.sol\":3128:3266  function updateProxy(address newAddr) external virtual override... */\n    tag_59:\n        /* \"TFGv3/Contracts/SCCommission.sol\":3228:3233  proxy */\n      and(sub(shl(0xa0, 0x01), 0x01), sload(0x00))\n        /* \"TFGv3/Contracts/SCCommission.sol\":3214:3224  msg.sender */\n      caller\n        /* \"TFGv3/Contracts/SCCommission.sol\":3214:3233  msg.sender == proxy */\n      eq\n        /* \"TFGv3/Contracts/SCCommission.sol\":3206:3234  require(msg.sender == proxy) */\n      tag_115\n      jumpi\n      0x00\n      dup1\n      revert\n    tag_115:\n        /* \"TFGv3/Contracts/SCCommission.sol\":3244:3249  proxy */\n      0x00\n        /* \"TFGv3/Contracts/SCCommission.sol\":3244:3259  proxy = newAddr */\n      dup1\n      sload\n      0xffffffffffffffffffffffff0000000000000000000000000000000000000000\n      and\n      sub(shl(0xa0, 0x01), 0x01)\n      swap3\n      swap1\n      swap3\n      and\n      swap2\n      swap1\n      swap2\n      or\n      swap1\n      sstore\n        /* \"TFGv3/Contracts/SCCommission.sol\":3128:3266  function updateProxy(address newAddr) external virtual override... */\n      jump\t// out\n        /* \"TFGv3/Contracts/SCCommission.sol\":2188:2855  function payComissions(uint buyOrSell) external virtual override returns (uint payedComissions)... */\n    tag_63:\n        /* \"TFGv3/Contracts/SCCommission.sol\":2262:2282  uint payedComissions */\n      0x00\n        /* \"TFGv3/Contracts/SCCommission.sol\":2318:2323  proxy */\n      dup1\n      sload\n        /* \"TFGv3/Contracts/SCCommission.sol\":2341:2377  IProxy(proxyAddr).exchangeContract() */\n      0x40\n      dup1\n      mload\n      0x3f0a079700000000000000000000000000000000000000000000000000000000\n      dup2\n      mstore\n      swap1\n      mload\n      sub(shl(0xa0, 0x01), 0x01)\n        /* \"TFGv3/Contracts/SCCommission.sol\":2318:2323  proxy */\n      swap1\n      swap3\n      and\n      swap2\n        /* \"TFGv3/Contracts/SCCommission.sol\":2381:2391  msg.sender */\n      caller\n      swap2\n        /* \"TFGv3/Contracts/SCCommission.sol\":2318:2323  proxy */\n      dup4\n      swap2\n        /* \"TFGv3/Contracts/SCCommission.sol\":2341:2375  IProxy(proxyAddr).exchangeContract */\n      0x3f0a0797\n      swap2\n        /* \"TFGv3/Contracts/SCCommission.sol\":2341:2377  IProxy(proxyAddr).exchangeContract() */\n      0x04\n      dup1\n      dup3\n      add\n      swap3\n      0x20\n      swap3\n      swap1\n      swap2\n      swap1\n      dup3\n      swap1\n      sub\n      add\n      dup2\n        /* \"TFGv3/Contracts/SCCommission.sol\":2318:2323  proxy */\n      dup7\n        /* \"TFGv3/Contracts/SCCommission.sol\":2341:2377  IProxy(proxyAddr).exchangeContract() */\n      gas\n      staticcall\n      iszero\n      dup1\n      iszero\n      tag_118\n      jumpi\n      returndatasize\n      0x00\n      dup1\n      returndatacopy\n      revert(0x00, returndatasize)\n    tag_118:\n      pop\n      pop\n      pop\n      pop\n      mload(0x40)\n      returndatasize\n      not(0x1f)\n      0x1f\n      dup3\n      add\n      and\n      dup3\n      add\n      dup1\n      0x40\n      mstore\n      pop\n      dup2\n      add\n      swap1\n      tag_119\n      swap2\n      swap1\n      tag_120\n      jump\t// in\n    tag_119:\n      sub(shl(0xa0, 0x01), 0x01)\n        /* \"TFGv3/Contracts/SCCommission.sol\":2341:2391  IProxy(proxyAddr).exchangeContract() == msg.sender */\n      and\n      eq\n        /* \"TFGv3/Contracts/SCCommission.sol\":2333:2392  require(IProxy(proxyAddr).exchangeContract() == msg.sender) */\n      tag_121\n      jumpi\n      0x00\n      dup1\n      revert\n    tag_121:\n        /* \"TFGv3/Contracts/SCCommission.sol\":2402:2417  uint commission */\n      0x00\n        /* \"TFGv3/Contracts/SCCommission.sol\":2420:2439  computeCommission() */\n      tag_122\n        /* \"TFGv3/Contracts/SCCommission.sol\":2420:2437  computeCommission */\n      tag_123\n        /* \"TFGv3/Contracts/SCCommission.sol\":2420:2439  computeCommission() */\n      jump\t// in\n    tag_122:\n        /* \"TFGv3/Contracts/SCCommission.sol\":2402:2439  uint commission = computeCommission() */\n      swap1\n      pop\n        /* \"TFGv3/Contracts/SCCommission.sol\":2452:2461  buyOrSell */\n      dup4\n        /* \"TFGv3/Contracts/SCCommission.sol\":2465:2466  0 */\n      0x00\n        /* \"TFGv3/Contracts/SCCommission.sol\":2452:2466  buyOrSell == 0 */\n      sub\n        /* \"TFGv3/Contracts/SCCommission.sol\":2449:2849  if(buyOrSell == 0)... */\n      tag_124\n      jumpi\n        /* \"TFGv3/Contracts/SCCommission.sol\":2526:2536  commission */\n      dup1\n        /* \"TFGv3/Contracts/SCCommission.sol\":2508:2523  accumCommission */\n      sload(0x02)\n        /* \"TFGv3/Contracts/SCCommission.sol\":2508:2536  accumCommission + commission */\n      tag_125\n      swap2\n      swap1\n      tag_126\n      jump\t// in\n    tag_125:\n        /* \"TFGv3/Contracts/SCCommission.sol\":2550:2565  accumCommission */\n      0x02\n        /* \"TFGv3/Contracts/SCCommission.sol\":2550:2583  accumCommission = payedComissions */\n      dup2\n      swap1\n      sstore\n        /* \"TFGv3/Contracts/SCCommission.sol\":2490:2536  payedComissions = accumCommission + commission */\n      swap3\n      pop\n        /* \"TFGv3/Contracts/SCCommission.sol\":2449:2849  if(buyOrSell == 0)... */\n      jump(tag_128)\n    tag_124:\n        /* \"TFGv3/Contracts/SCCommission.sol\":2611:2620  buyOrSell */\n      dup4\n        /* \"TFGv3/Contracts/SCCommission.sol\":2624:2625  1 */\n      0x01\n        /* \"TFGv3/Contracts/SCCommission.sol\":2611:2625  buyOrSell == 1 */\n      sub\n        /* \"TFGv3/Contracts/SCCommission.sol\":2608:2849  if(buyOrSell == 1)... */\n      tag_128\n      jumpi\n        /* \"TFGv3/Contracts/SCCommission.sol\":2680:2695  accumCommission */\n      sload(0x02)\n        /* \"TFGv3/Contracts/SCCommission.sol\":2667:2695  commission + accumCommission */\n      tag_129\n      swap1\n        /* \"TFGv3/Contracts/SCCommission.sol\":2667:2677  commission */\n      dup3\n        /* \"TFGv3/Contracts/SCCommission.sol\":2667:2695  commission + accumCommission */\n      tag_126\n      jump\t// in\n    tag_129:\n        /* \"TFGv3/Contracts/SCCommission.sol\":2649:2695  payedComissions = commission + accumCommission */\n      swap3\n      pop\n        /* \"TFGv3/Contracts/SCCommission.sol\":2727:2736  proxyAddr */\n      dup2\n      sub(shl(0xa0, 0x01), 0x01)\n        /* \"TFGv3/Contracts/SCCommission.sol\":2720:2756  IProxy(proxyAddr).commissionContract */\n      and\n      0xda8909e5\n        /* \"TFGv3/Contracts/SCCommission.sol\":2720:2758  IProxy(proxyAddr).commissionContract() */\n      mload(0x40)\n      dup2\n      0xffffffff\n      and\n      0xe0\n      shl\n      dup2\n      mstore\n      0x04\n      add\n      0x20\n      mload(0x40)\n      dup1\n      dup4\n      sub\n      dup2\n      dup7\n      gas\n      staticcall\n      iszero\n      dup1\n      iszero\n      tag_131\n      jumpi\n      returndatasize\n      0x00\n      dup1\n      returndatacopy\n      revert(0x00, returndatasize)\n    tag_131:\n      pop\n      pop\n      pop\n      pop\n      mload(0x40)\n      returndatasize\n      not(0x1f)\n      0x1f\n      dup3\n      add\n      and\n      dup3\n      add\n      dup1\n      0x40\n      mstore\n      pop\n      dup2\n      add\n      swap1\n      tag_132\n      swap2\n      swap1\n      tag_120\n      jump\t// in\n    tag_132:\n        /* \"TFGv3/Contracts/SCCommission.sol\":2709:2805  ISCStorage(IProxy(proxyAddr).commissionContract()).transferFunds(address(this), payedComissions) */\n      mload(0x40)\n      0x990dc9db00000000000000000000000000000000000000000000000000000000\n      dup2\n      mstore\n        /* \"TFGv3/Contracts/SCCommission.sol\":2782:2786  this */\n      address\n        /* \"TFGv3/Contracts/SCCommission.sol\":2709:2805  ISCStorage(IProxy(proxyAddr).commissionContract()).transferFunds(address(this), payedComissions) */\n      0x04\n      dup3\n      add\n        /* \"#utility.yul\":6489:6563   */\n      mstore\n        /* \"#utility.yul\":6579:6597   */\n      0x24\n      dup2\n      add\n        /* \"#utility.yul\":6572:6606   */\n      dup6\n      swap1\n      mstore\n      sub(shl(0xa0, 0x01), 0x01)\n        /* \"TFGv3/Contracts/SCCommission.sol\":2709:2773  ISCStorage(IProxy(proxyAddr).commissionContract()).transferFunds */\n      swap2\n      swap1\n      swap2\n      and\n      swap1\n      0x990dc9db\n      swap1\n        /* \"#utility.yul\":6462:6480   */\n      0x44\n      add\n        /* \"TFGv3/Contracts/SCCommission.sol\":2709:2805  ISCStorage(IProxy(proxyAddr).commissionContract()).transferFunds(address(this), payedComissions) */\n      0x20\n      mload(0x40)\n      dup1\n      dup4\n      sub\n      dup2\n      0x00\n      dup8\n      gas\n      call\n      iszero\n      dup1\n      iszero\n      tag_136\n      jumpi\n      returndatasize\n      0x00\n      dup1\n      returndatacopy\n      revert(0x00, returndatasize)\n    tag_136:\n      pop\n      pop\n      pop\n      pop\n      mload(0x40)\n      returndatasize\n      not(0x1f)\n      0x1f\n      dup3\n      add\n      and\n      dup3\n      add\n      dup1\n      0x40\n      mstore\n      pop\n      dup2\n      add\n      swap1\n      tag_137\n      swap2\n      swap1\n      tag_138\n      jump\t// in\n    tag_137:\n      pop\n        /* \"TFGv3/Contracts/SCCommission.sol\":2837:2838  0 */\n      0x00\n        /* \"TFGv3/Contracts/SCCommission.sol\":2819:2834  accumCommission */\n      0x02\n        /* \"TFGv3/Contracts/SCCommission.sol\":2819:2838  accumCommission = 0 */\n      sstore\n        /* \"TFGv3/Contracts/SCCommission.sol\":2608:2849  if(buyOrSell == 1)... */\n    tag_128:\n        /* \"TFGv3/Contracts/SCCommission.sol\":2288:2855  {... */\n      pop\n      pop\n        /* \"TFGv3/Contracts/SCCommission.sol\":2188:2855  function payComissions(uint buyOrSell) external virtual override returns (uint payedComissions)... */\n      swap2\n      swap1\n      pop\n      jump\t// out\n        /* \"TFGv3/Contracts/SCCommission.sol\":2861:3122  function collectCommission(address[] calldata tokensToTransfer, uint[] calldata qty) external virtual override OnlyDeployer... */\n    tag_78:\n        /* \"TFGv3/Contracts/SCCommission.sol\":807:817  msg.sender */\n      caller\n      sub(shl(0xa0, 0x01), 0x01)\n        /* \"TFGv3/Contracts/SCCommission.sol\":821:829  deployer */\n      immutable(\"0x5081277725af21b52adfcd8be9eaf5a350f1ec111a4413c31b8ff210fe7f74ef\")\n        /* \"TFGv3/Contracts/SCCommission.sol\":807:829  msg.sender == deployer */\n      and\n      eq\n        /* \"TFGv3/Contracts/SCCommission.sol\":799:830  require(msg.sender == deployer) */\n      tag_140\n      jumpi\n      0x00\n      dup1\n      revert\n    tag_140:\n        /* \"TFGv3/Contracts/SCCommission.sol\":3012:3020  deployer */\n      immutable(\"0x5081277725af21b52adfcd8be9eaf5a350f1ec111a4413c31b8ff210fe7f74ef\")\n        /* \"TFGv3/Contracts/SCCommission.sol\":2999:3009  address to */\n      0x00\n        /* \"TFGv3/Contracts/SCCommission.sol\":3030:3115  for(uint i = 0; i < qty.length; i++) IERC20(tokensToTransfer[i]).transfer(to, qty[i]) */\n    tag_142:\n        /* \"TFGv3/Contracts/SCCommission.sol\":3046:3060  i < qty.length */\n      dup3\n      dup2\n      lt\n        /* \"TFGv3/Contracts/SCCommission.sol\":3030:3115  for(uint i = 0; i < qty.length; i++) IERC20(tokensToTransfer[i]).transfer(to, qty[i]) */\n      iszero\n      tag_143\n      jumpi\n        /* \"TFGv3/Contracts/SCCommission.sol\":3074:3090  tokensToTransfer */\n      dup6\n      dup6\n        /* \"TFGv3/Contracts/SCCommission.sol\":3091:3092  i */\n      dup3\n        /* \"TFGv3/Contracts/SCCommission.sol\":3074:3093  tokensToTransfer[i] */\n      dup2\n      dup2\n      lt\n      tag_146\n      jumpi\n      tag_146\n      tag_147\n      jump\t// in\n    tag_146:\n      swap1\n      pop\n      0x20\n      mul\n      add\n      0x20\n      dup2\n      add\n      swap1\n      tag_148\n      swap2\n      swap1\n      tag_58\n      jump\t// in\n    tag_148:\n      sub(shl(0xa0, 0x01), 0x01)\n        /* \"TFGv3/Contracts/SCCommission.sol\":3067:3103  IERC20(tokensToTransfer[i]).transfer */\n      and\n      0xa9059cbb\n        /* \"TFGv3/Contracts/SCCommission.sol\":3104:3106  to */\n      dup4\n        /* \"TFGv3/Contracts/SCCommission.sol\":3108:3111  qty */\n      dup7\n      dup7\n        /* \"TFGv3/Contracts/SCCommission.sol\":3112:3113  i */\n      dup6\n        /* \"TFGv3/Contracts/SCCommission.sol\":3108:3114  qty[i] */\n      dup2\n      dup2\n      lt\n      tag_150\n      jumpi\n      tag_150\n      tag_147\n      jump\t// in\n    tag_150:\n        /* \"TFGv3/Contracts/SCCommission.sol\":3067:3115  IERC20(tokensToTransfer[i]).transfer(to, qty[i]) */\n      mload(0x40)\n      0xffffffff00000000000000000000000000000000000000000000000000000000\n      0xe0\n      dup8\n      swap1\n      shl\n      and\n      dup2\n      mstore\n      sub(shl(0xa0, 0x01), 0x01)\n        /* \"#utility.yul\":6507:6562   */\n      swap1\n      swap5\n      and\n        /* \"TFGv3/Contracts/SCCommission.sol\":3067:3115  IERC20(tokensToTransfer[i]).transfer(to, qty[i]) */\n      0x04\n      dup6\n      add\n        /* \"#utility.yul\":6489:6563   */\n      mstore\n        /* \"TFGv3/Contracts/SCCommission.sol\":3108:3114  qty[i] */\n      0x20\n      mul\n      swap2\n      swap1\n      swap2\n      add\n      calldataload\n        /* \"#utility.yul\":6579:6597   */\n      0x24\n      dup4\n      add\n        /* \"#utility.yul\":6572:6606   */\n      mstore\n      pop\n        /* \"#utility.yul\":6462:6480   */\n      0x44\n      add\n        /* \"TFGv3/Contracts/SCCommission.sol\":3067:3115  IERC20(tokensToTransfer[i]).transfer(to, qty[i]) */\n      0x20\n      mload(0x40)\n      dup1\n      dup4\n      sub\n      dup2\n      0x00\n      dup8\n      gas\n      call\n      iszero\n      dup1\n      iszero\n      tag_153\n      jumpi\n      returndatasize\n      0x00\n      dup1\n      returndatacopy\n      revert(0x00, returndatasize)\n    tag_153:\n      pop\n      pop\n      pop\n      pop\n      mload(0x40)\n      returndatasize\n      not(0x1f)\n      0x1f\n      dup3\n      add\n      and\n      dup3\n      add\n      dup1\n      0x40\n      mstore\n      pop\n      dup2\n      add\n      swap1\n      tag_154\n      swap2\n      swap1\n      tag_138\n      jump\t// in\n    tag_154:\n      pop\n        /* \"TFGv3/Contracts/SCCommission.sol\":3062:3065  i++ */\n      dup1\n      tag_155\n      dup2\n      tag_156\n      jump\t// in\n    tag_155:\n      swap2\n      pop\n      pop\n        /* \"TFGv3/Contracts/SCCommission.sol\":3030:3115  for(uint i = 0; i < qty.length; i++) IERC20(tokensToTransfer[i]).transfer(to, qty[i]) */\n      jump(tag_142)\n    tag_143:\n      pop\n        /* \"TFGv3/Contracts/SCCommission.sol\":2989:3122  {... */\n      pop\n        /* \"TFGv3/Contracts/SCCommission.sol\":2861:3122  function collectCommission(address[] calldata tokensToTransfer, uint[] calldata qty) external virtual override OnlyDeployer... */\n      pop\n      pop\n      pop\n      pop\n      jump\t// out\n        /* \"TFGv3/Contracts/SCCommission.sol\":1457:2182  function computeCommission() internal view returns (uint commission)... */\n    tag_123:\n        /* \"TFGv3/Contracts/SCCommission.sol\":1620:1631  lastUpdated */\n      sload(0x01)\n        /* \"TFGv3/Contracts/SCCommission.sol\":1509:1524  uint commission */\n      0x00\n      swap1\n      dup2\n      swap1\n        /* \"TFGv3/Contracts/SCCommission.sol\":1653:1668  block.timestamp */\n      timestamp\n        /* \"TFGv3/Contracts/SCCommission.sol\":1645:1668  time == block.timestamp */\n      dup2\n      sub\n        /* \"TFGv3/Contracts/SCCommission.sol\":1642:2176  if(time == block.timestamp) commission = 0;... */\n      tag_158\n      jumpi\n        /* \"TFGv3/Contracts/SCCommission.sol\":1683:1684  0 */\n      0x00\n        /* \"TFGv3/Contracts/SCCommission.sol\":1670:1684  commission = 0 */\n      swap3\n      pop\n        /* \"TFGv3/Contracts/SCCommission.sol\":1530:2182  {... */\n      pop\n      pop\n        /* \"TFGv3/Contracts/SCCommission.sol\":1457:2182  function computeCommission() internal view returns (uint commission)... */\n      swap1\n      jump\t// out\n        /* \"TFGv3/Contracts/SCCommission.sol\":1642:2176  if(time == block.timestamp) commission = 0;... */\n    tag_158:\n        /* \"TFGv3/Contracts/SCCommission.sol\":1721:1728  uint dt */\n      0x00\n        /* \"TFGv3/Contracts/SCCommission.sol\":1731:1753  block.timestamp - time */\n      tag_160\n        /* \"TFGv3/Contracts/SCCommission.sol\":1749:1753  time */\n      dup3\n        /* \"TFGv3/Contracts/SCCommission.sol\":1731:1746  block.timestamp */\n      timestamp\n        /* \"TFGv3/Contracts/SCCommission.sol\":1731:1753  block.timestamp - time */\n      tag_161\n      jump\t// in\n    tag_160:\n        /* \"TFGv3/Contracts/SCCommission.sol\":1721:1753  uint dt = block.timestamp - time */\n      swap1\n      pop\n        /* \"TFGv3/Contracts/SCCommission.sol\":1767:1776  uint rFee */\n      0x00\n        /* \"TFGv3/Contracts/SCCommission.sol\":1779:1780  r */\n      sload(0x04)\n        /* \"TFGv3/Contracts/SCCommission.sol\":1767:1780  uint rFee = r */\n      swap1\n      pop\n        /* \"TFGv3/Contracts/SCCommission.sol\":1815:1820  proxy */\n      0x00\n      dup1\n      sload\n      swap1\n      0x0100\n      exp\n      swap1\n      div\n      sub(shl(0xa0, 0x01), 0x01)\n      and\n      sub(shl(0xa0, 0x01), 0x01)\n        /* \"TFGv3/Contracts/SCCommission.sol\":1808:1837  IProxy(proxy).storageContract */\n      and\n      0x11ce0267\n        /* \"TFGv3/Contracts/SCCommission.sol\":1808:1839  IProxy(proxy).storageContract() */\n      mload(0x40)\n      dup2\n      0xffffffff\n      and\n      0xe0\n      shl\n      dup2\n      mstore\n      0x04\n      add\n      0x20\n      mload(0x40)\n      dup1\n      dup4\n      sub\n      dup2\n      dup7\n      gas\n      staticcall\n      iszero\n      dup1\n      iszero\n      tag_163\n      jumpi\n      returndatasize\n      0x00\n      dup1\n      returndatacopy\n      revert(0x00, returndatasize)\n    tag_163:\n      pop\n      pop\n      pop\n      pop\n      mload(0x40)\n      returndatasize\n      not(0x1f)\n      0x1f\n      dup3\n      add\n      and\n      dup3\n      add\n      dup1\n      0x40\n      mstore\n      pop\n      dup2\n      add\n      swap1\n      tag_164\n      swap2\n      swap1\n      tag_120\n      jump\t// in\n    tag_164:\n        /* \"TFGv3/Contracts/SCCommission.sol\":1794:1839  storageAddr = IProxy(proxy).storageContract() */\n      swap4\n      pop\n        /* \"TFGv3/Contracts/SCCommission.sol\":1866:1879  uint NAVvalue */\n      0x00\n        /* \"TFGv3/Contracts/SCCommission.sol\":1893:1904  storageAddr */\n      dup5\n      sub(shl(0xa0, 0x01), 0x01)\n        /* \"TFGv3/Contracts/SCCommission.sol\":1882:1909  ISCStorage(storageAddr).NAV */\n      and\n      0x52fd856b\n        /* \"TFGv3/Contracts/SCCommission.sol\":1882:1911  ISCStorage(storageAddr).NAV() */\n      mload(0x40)\n      dup2\n      0xffffffff\n      and\n      0xe0\n      shl\n      dup2\n      mstore\n      0x04\n      add\n      0x20\n      mload(0x40)\n      dup1\n      dup4\n      sub\n      dup2\n      dup7\n      gas\n      staticcall\n      iszero\n      dup1\n      iszero\n      tag_166\n      jumpi\n      returndatasize\n      0x00\n      dup1\n      returndatacopy\n      revert(0x00, returndatasize)\n    tag_166:\n      pop\n      pop\n      pop\n      pop\n      mload(0x40)\n      returndatasize\n      not(0x1f)\n      0x1f\n      dup3\n      add\n      and\n      dup3\n      add\n      dup1\n      0x40\n      mstore\n      pop\n      dup2\n      add\n      swap1\n      tag_167\n      swap2\n      swap1\n      tag_168\n      jump\t// in\n    tag_167:\n        /* \"TFGv3/Contracts/SCCommission.sol\":1866:1911  uint NAVvalue = ISCStorage(storageAddr).NAV() */\n      swap1\n      pop\n        /* \"TFGv3/Contracts/SCCommission.sol\":2163:2165  24 */\n      0x18\n        /* \"TFGv3/Contracts/SCCommission.sol\":2158:2162  1e18 */\n      0x0de0b6b3a7640000\n        /* \"TFGv3/Contracts/SCCommission.sol\":2153:2157  rFee */\n      dup4\n        /* \"TFGv3/Contracts/SCCommission.sol\":2158:2162  1e18 */\n      dup2\n        /* \"TFGv3/Contracts/SCCommission.sol\":2153:2157  rFee */\n      dup2\n        /* \"TFGv3/Contracts/SCCommission.sol\":2158:2162  1e18 */\n      dup2\n        /* \"TFGv3/Contracts/SCCommission.sol\":2153:2157  rFee */\n      dup2\n        /* \"TFGv3/Contracts/SCCommission.sol\":2158:2162  1e18 */\n      dup2\n        /* \"TFGv3/Contracts/SCCommission.sol\":2153:2157  rFee */\n      dup2\n        /* \"TFGv3/Contracts/SCCommission.sol\":2117:2121  dt-3 */\n      tag_169\n        /* \"TFGv3/Contracts/SCCommission.sol\":2120:2121  3 */\n      0x03\n        /* \"TFGv3/Contracts/SCCommission.sol\":2117:2119  dt */\n      dup14\n        /* \"TFGv3/Contracts/SCCommission.sol\":2117:2121  dt-3 */\n      tag_161\n      jump\t// in\n    tag_169:\n        /* \"TFGv3/Contracts/SCCommission.sol\":2110:2114  dt-2 */\n      tag_170\n        /* \"TFGv3/Contracts/SCCommission.sol\":2113:2114  2 */\n      0x02\n        /* \"TFGv3/Contracts/SCCommission.sol\":2110:2112  dt */\n      dup15\n        /* \"TFGv3/Contracts/SCCommission.sol\":2110:2114  dt-2 */\n      tag_161\n      jump\t// in\n    tag_170:\n        /* \"TFGv3/Contracts/SCCommission.sol\":2103:2107  dt-1 */\n      tag_171\n        /* \"TFGv3/Contracts/SCCommission.sol\":2106:2107  1 */\n      0x01\n        /* \"TFGv3/Contracts/SCCommission.sol\":2103:2105  dt */\n      dup16\n        /* \"TFGv3/Contracts/SCCommission.sol\":2103:2107  dt-1 */\n      tag_161\n      jump\t// in\n    tag_171:\n        /* \"TFGv3/Contracts/SCCommission.sol\":2090:2101  NAVvalue*dt */\n      tag_172\n        /* \"TFGv3/Contracts/SCCommission.sol\":2099:2101  dt */\n      dup16\n        /* \"TFGv3/Contracts/SCCommission.sol\":2090:2098  NAVvalue */\n      dup15\n        /* \"TFGv3/Contracts/SCCommission.sol\":2090:2101  NAVvalue*dt */\n      tag_173\n      jump\t// in\n    tag_172:\n        /* \"TFGv3/Contracts/SCCommission.sol\":2090:2108  NAVvalue*dt*(dt-1) */\n      tag_174\n      swap2\n      swap1\n      tag_173\n      jump\t// in\n    tag_174:\n        /* \"TFGv3/Contracts/SCCommission.sol\":2090:2115  NAVvalue*dt*(dt-1)*(dt-2) */\n      tag_175\n      swap2\n      swap1\n      tag_173\n      jump\t// in\n    tag_175:\n        /* \"TFGv3/Contracts/SCCommission.sol\":2090:2122  NAVvalue*dt*(dt-1)*(dt-2)*(dt-3) */\n      tag_176\n      swap2\n      swap1\n      tag_173\n      jump\t// in\n    tag_176:\n        /* \"TFGv3/Contracts/SCCommission.sol\":2090:2127  NAVvalue*dt*(dt-1)*(dt-2)*(dt-3)*rFee */\n      tag_177\n      swap2\n      swap1\n      tag_173\n      jump\t// in\n    tag_177:\n        /* \"TFGv3/Contracts/SCCommission.sol\":2090:2132  NAVvalue*dt*(dt-1)*(dt-2)*(dt-3)*rFee/1e18 */\n      tag_178\n      swap2\n      swap1\n      tag_179\n      jump\t// in\n    tag_178:\n        /* \"TFGv3/Contracts/SCCommission.sol\":2090:2137  NAVvalue*dt*(dt-1)*(dt-2)*(dt-3)*rFee/1e18*rFee */\n      tag_180\n      swap2\n      swap1\n      tag_173\n      jump\t// in\n    tag_180:\n        /* \"TFGv3/Contracts/SCCommission.sol\":2090:2142  NAVvalue*dt*(dt-1)*(dt-2)*(dt-3)*rFee/1e18*rFee/1e18 */\n      tag_181\n      swap2\n      swap1\n      tag_179\n      jump\t// in\n    tag_181:\n        /* \"TFGv3/Contracts/SCCommission.sol\":2090:2147  NAVvalue*dt*(dt-1)*(dt-2)*(dt-3)*rFee/1e18*rFee/1e18*rFee */\n      tag_182\n      swap2\n      swap1\n      tag_173\n      jump\t// in\n    tag_182:\n        /* \"TFGv3/Contracts/SCCommission.sol\":2090:2152  NAVvalue*dt*(dt-1)*(dt-2)*(dt-3)*rFee/1e18*rFee/1e18*rFee/1e18 */\n      tag_183\n      swap2\n      swap1\n      tag_179\n      jump\t// in\n    tag_183:\n        /* \"TFGv3/Contracts/SCCommission.sol\":2090:2157  NAVvalue*dt*(dt-1)*(dt-2)*(dt-3)*rFee/1e18*rFee/1e18*rFee/1e18*rFee */\n      tag_184\n      swap2\n      swap1\n      tag_173\n      jump\t// in\n    tag_184:\n        /* \"TFGv3/Contracts/SCCommission.sol\":2090:2162  NAVvalue*dt*(dt-1)*(dt-2)*(dt-3)*rFee/1e18*rFee/1e18*rFee/1e18*rFee/1e18 */\n      tag_185\n      swap2\n      swap1\n      tag_179\n      jump\t// in\n    tag_185:\n        /* \"TFGv3/Contracts/SCCommission.sol\":2090:2165  NAVvalue*dt*(dt-1)*(dt-2)*(dt-3)*rFee/1e18*rFee/1e18*rFee/1e18*rFee/1e18/24 */\n      tag_186\n      swap2\n      swap1\n      tag_179\n      jump\t// in\n    tag_186:\n        /* \"TFGv3/Contracts/SCCommission.sol\":2083:2087  1e36 */\n      0xc097ce7bc90715b34b9f1000000000\n        /* \"TFGv3/Contracts/SCCommission.sol\":2080:2081  6 */\n      0x06\n        /* \"TFGv3/Contracts/SCCommission.sol\":2075:2079  rFee */\n      dup5\n        /* \"TFGv3/Contracts/SCCommission.sol\":2070:2074  1e18 */\n      0x0de0b6b3a7640000\n        /* \"TFGv3/Contracts/SCCommission.sol\":2075:2079  rFee */\n      dup2\n      dup1\n        /* \"TFGv3/Contracts/SCCommission.sol\":2054:2058  dt-2 */\n      tag_187\n        /* \"TFGv3/Contracts/SCCommission.sol\":2057:2058  2 */\n      0x02\n        /* \"TFGv3/Contracts/SCCommission.sol\":2054:2056  dt */\n      dup12\n        /* \"TFGv3/Contracts/SCCommission.sol\":2054:2058  dt-2 */\n      tag_161\n      jump\t// in\n    tag_187:\n        /* \"TFGv3/Contracts/SCCommission.sol\":2047:2051  dt-1 */\n      tag_188\n        /* \"TFGv3/Contracts/SCCommission.sol\":2050:2051  1 */\n      0x01\n        /* \"TFGv3/Contracts/SCCommission.sol\":2047:2049  dt */\n      dup13\n        /* \"TFGv3/Contracts/SCCommission.sol\":2047:2051  dt-1 */\n      tag_161\n      jump\t// in\n    tag_188:\n        /* \"TFGv3/Contracts/SCCommission.sol\":2043:2052  dt*(dt-1) */\n      tag_189\n      swap1\n        /* \"TFGv3/Contracts/SCCommission.sol\":2043:2045  dt */\n      dup13\n        /* \"TFGv3/Contracts/SCCommission.sol\":2043:2052  dt*(dt-1) */\n      tag_173\n      jump\t// in\n    tag_189:\n        /* \"TFGv3/Contracts/SCCommission.sol\":2043:2059  dt*(dt-1)*(dt-2) */\n      tag_190\n      swap2\n      swap1\n      tag_173\n      jump\t// in\n    tag_190:\n        /* \"TFGv3/Contracts/SCCommission.sol\":2043:2064  dt*(dt-1)*(dt-2)*rFee */\n      tag_191\n      swap2\n      swap1\n      tag_173\n      jump\t// in\n    tag_191:\n        /* \"TFGv3/Contracts/SCCommission.sol\":2043:2069  dt*(dt-1)*(dt-2)*rFee*rFee */\n      tag_192\n      swap2\n      swap1\n      tag_173\n      jump\t// in\n    tag_192:\n        /* \"TFGv3/Contracts/SCCommission.sol\":2043:2074  dt*(dt-1)*(dt-2)*rFee*rFee/1e18 */\n      tag_193\n      swap2\n      swap1\n      tag_179\n      jump\t// in\n    tag_193:\n        /* \"TFGv3/Contracts/SCCommission.sol\":2043:2079  dt*(dt-1)*(dt-2)*rFee*rFee/1e18*rFee */\n      tag_194\n      swap2\n      swap1\n      tag_173\n      jump\t// in\n    tag_194:\n        /* \"TFGv3/Contracts/SCCommission.sol\":2043:2081  dt*(dt-1)*(dt-2)*rFee*rFee/1e18*rFee/6 */\n      tag_195\n      swap2\n      swap1\n      tag_179\n      jump\t// in\n    tag_195:\n        /* \"TFGv3/Contracts/SCCommission.sol\":2033:2082  NAVvalue*(dt*(dt-1)*(dt-2)*rFee*rFee/1e18*rFee/6) */\n      tag_196\n      swap1\n        /* \"TFGv3/Contracts/SCCommission.sol\":2033:2041  NAVvalue */\n      dup5\n        /* \"TFGv3/Contracts/SCCommission.sol\":2033:2082  NAVvalue*(dt*(dt-1)*(dt-2)*rFee*rFee/1e18*rFee/6) */\n      tag_173\n      jump\t// in\n    tag_196:\n        /* \"TFGv3/Contracts/SCCommission.sol\":2033:2087  NAVvalue*(dt*(dt-1)*(dt-2)*rFee*rFee/1e18*rFee/6)/1e36 */\n      tag_197\n      swap2\n      swap1\n      tag_179\n      jump\t// in\n    tag_197:\n        /* \"TFGv3/Contracts/SCCommission.sol\":2026:2030  1e36 */\n      0xc097ce7bc90715b34b9f1000000000\n        /* \"TFGv3/Contracts/SCCommission.sol\":2023:2024  2 */\n      0x02\n        /* \"TFGv3/Contracts/SCCommission.sol\":2018:2022  rFee */\n      dup6\n      dup1\n        /* \"TFGv3/Contracts/SCCommission.sol\":2007:2011  dt-1 */\n      tag_198\n        /* \"TFGv3/Contracts/SCCommission.sol\":2010:2011  1 */\n      0x01\n        /* \"TFGv3/Contracts/SCCommission.sol\":2007:2009  dt */\n      dup11\n        /* \"TFGv3/Contracts/SCCommission.sol\":2007:2011  dt-1 */\n      tag_161\n      jump\t// in\n    tag_198:\n        /* \"TFGv3/Contracts/SCCommission.sol\":2003:2012  dt*(dt-1) */\n      tag_199\n      swap1\n        /* \"TFGv3/Contracts/SCCommission.sol\":2003:2005  dt */\n      dup11\n        /* \"TFGv3/Contracts/SCCommission.sol\":2003:2012  dt*(dt-1) */\n      tag_173\n      jump\t// in\n    tag_199:\n        /* \"TFGv3/Contracts/SCCommission.sol\":2003:2017  dt*(dt-1)*rFee */\n      tag_200\n      swap2\n      swap1\n      tag_173\n      jump\t// in\n    tag_200:\n        /* \"TFGv3/Contracts/SCCommission.sol\":2003:2022  dt*(dt-1)*rFee*rFee */\n      tag_201\n      swap2\n      swap1\n      tag_173\n      jump\t// in\n    tag_201:\n        /* \"TFGv3/Contracts/SCCommission.sol\":2003:2024  dt*(dt-1)*rFee*rFee/2 */\n      tag_202\n      swap2\n      swap1\n      tag_179\n      jump\t// in\n    tag_202:\n        /* \"TFGv3/Contracts/SCCommission.sol\":1993:2025  NAVvalue*(dt*(dt-1)*rFee*rFee/2) */\n      tag_203\n      swap1\n        /* \"TFGv3/Contracts/SCCommission.sol\":1993:2001  NAVvalue */\n      dup6\n        /* \"TFGv3/Contracts/SCCommission.sol\":1993:2025  NAVvalue*(dt*(dt-1)*rFee*rFee/2) */\n      tag_173\n      jump\t// in\n    tag_203:\n        /* \"TFGv3/Contracts/SCCommission.sol\":1993:2030  NAVvalue*(dt*(dt-1)*rFee*rFee/2)/1e36 */\n      tag_204\n      swap2\n      swap1\n      tag_179\n      jump\t// in\n    tag_204:\n        /* \"TFGv3/Contracts/SCCommission.sol\":1986:1990  1e18 */\n      0x0de0b6b3a7640000\n        /* \"TFGv3/Contracts/SCCommission.sol\":1976:1983  dt*rFee */\n      tag_205\n        /* \"TFGv3/Contracts/SCCommission.sol\":1979:1983  rFee */\n      dup7\n        /* \"TFGv3/Contracts/SCCommission.sol\":1976:1978  dt */\n      dup9\n        /* \"TFGv3/Contracts/SCCommission.sol\":1976:1983  dt*rFee */\n      tag_173\n      jump\t// in\n    tag_205:\n        /* \"TFGv3/Contracts/SCCommission.sol\":1969:1983  1e18 - dt*rFee */\n      tag_206\n      swap1\n        /* \"TFGv3/Contracts/SCCommission.sol\":1969:1973  1e18 */\n      0x0de0b6b3a7640000\n        /* \"TFGv3/Contracts/SCCommission.sol\":1969:1983  1e18 - dt*rFee */\n      tag_161\n      jump\t// in\n    tag_206:\n        /* \"TFGv3/Contracts/SCCommission.sol\":1961:1984  1e18 - (1e18 - dt*rFee) */\n      tag_207\n      swap1\n        /* \"TFGv3/Contracts/SCCommission.sol\":1961:1965  1e18 */\n      0x0de0b6b3a7640000\n        /* \"TFGv3/Contracts/SCCommission.sol\":1961:1984  1e18 - (1e18 - dt*rFee) */\n      tag_161\n      jump\t// in\n    tag_207:\n        /* \"TFGv3/Contracts/SCCommission.sol\":1951:1985  NAVvalue*(1e18 - (1e18 - dt*rFee)) */\n      tag_208\n      swap1\n        /* \"TFGv3/Contracts/SCCommission.sol\":1951:1959  NAVvalue */\n      dup7\n        /* \"TFGv3/Contracts/SCCommission.sol\":1951:1985  NAVvalue*(1e18 - (1e18 - dt*rFee)) */\n      tag_173\n      jump\t// in\n    tag_208:\n        /* \"TFGv3/Contracts/SCCommission.sol\":1951:1990  NAVvalue*(1e18 - (1e18 - dt*rFee))/1e18 */\n      tag_209\n      swap2\n      swap1\n      tag_179\n      jump\t// in\n    tag_209:\n        /* \"TFGv3/Contracts/SCCommission.sol\":1951:2030  NAVvalue*(1e18 - (1e18 - dt*rFee))/1e18 - NAVvalue*(dt*(dt-1)*rFee*rFee/2)/1e36 */\n      tag_210\n      swap2\n      swap1\n      tag_161\n      jump\t// in\n    tag_210:\n        /* \"TFGv3/Contracts/SCCommission.sol\":1951:2087  NAVvalue*(1e18 - (1e18 - dt*rFee))/1e18 - NAVvalue*(dt*(dt-1)*rFee*rFee/2)/1e36 + NAVvalue*(dt*(dt-1)*(dt-2)*rFee*rFee/1e18*rFee/6)/1e36 */\n      tag_211\n      swap2\n      swap1\n      tag_126\n      jump\t// in\n    tag_211:\n        /* \"TFGv3/Contracts/SCCommission.sol\":1951:2165  NAVvalue*(1e18 - (1e18 - dt*rFee))/1e18 - NAVvalue*(dt*(dt-1)*rFee*rFee/2)/1e36 + NAVvalue*(dt*(dt-1)*(dt-2)*rFee*rFee/1e18*rFee/6)/1e36 - NAVvalue*dt*(dt-1)*(dt-2)*(dt-3)*rFee/1e18*rFee/1e18*rFee/1e18*rFee/1e18/24 */\n      tag_212\n      swap2\n      swap1\n      tag_161\n      jump\t// in\n    tag_212:\n        /* \"TFGv3/Contracts/SCCommission.sol\":1938:2165  commission = NAVvalue*(1e18 - (1e18 - dt*rFee))/1e18 - NAVvalue*(dt*(dt-1)*rFee*rFee/2)/1e36 + NAVvalue*(dt*(dt-1)*(dt-2)*rFee*rFee/1e18*rFee/6)/1e36 - NAVvalue*dt*(dt-1)*(dt-2)*(dt-3)*rFee/1e18*rFee/1e18*rFee/1e18*rFee/1e18/24 */\n      swap6\n      pop\n        /* \"TFGv3/Contracts/SCCommission.sol\":1707:2176  {... */\n      pop\n      pop\n      pop\n        /* \"TFGv3/Contracts/SCCommission.sol\":1530:2182  {... */\n      pop\n      pop\n        /* \"TFGv3/Contracts/SCCommission.sol\":1457:2182  function computeCommission() internal view returns (uint commission)... */\n      swap1\n      jump\t// out\n        /* \"#utility.yul\":196:350   */\n    tag_213:\n      sub(shl(0xa0, 0x01), 0x01)\n        /* \"#utility.yul\":275:280   */\n      dup2\n        /* \"#utility.yul\":271:325   */\n      and\n        /* \"#utility.yul\":264:269   */\n      dup2\n        /* \"#utility.yul\":261:326   */\n      eq\n        /* \"#utility.yul\":251:344   */\n      tag_219\n      jumpi\n        /* \"#utility.yul\":340:341   */\n      0x00\n        /* \"#utility.yul\":337:338   */\n      dup1\n        /* \"#utility.yul\":330:342   */\n      revert\n        /* \"#utility.yul\":251:344   */\n    tag_219:\n        /* \"#utility.yul\":196:350   */\n      pop\n      jump\t// out\n        /* \"#utility.yul\":355:722   */\n    tag_214:\n        /* \"#utility.yul\":418:426   */\n      0x00\n        /* \"#utility.yul\":428:434   */\n      dup1\n        /* \"#utility.yul\":482:485   */\n      dup4\n        /* \"#utility.yul\":475:479   */\n      0x1f\n        /* \"#utility.yul\":467:473   */\n      dup5\n        /* \"#utility.yul\":463:480   */\n      add\n        /* \"#utility.yul\":459:486   */\n      slt\n        /* \"#utility.yul\":449:504   */\n      tag_221\n      jumpi\n        /* \"#utility.yul\":500:501   */\n      0x00\n        /* \"#utility.yul\":497:498   */\n      dup1\n        /* \"#utility.yul\":490:502   */\n      revert\n        /* \"#utility.yul\":449:504   */\n    tag_221:\n      pop\n        /* \"#utility.yul\":523:543   */\n      dup2\n      calldataload\n        /* \"#utility.yul\":566:584   */\n      0xffffffffffffffff\n        /* \"#utility.yul\":555:585   */\n      dup2\n      gt\n        /* \"#utility.yul\":552:602   */\n      iszero\n      tag_222\n      jumpi\n        /* \"#utility.yul\":598:599   */\n      0x00\n        /* \"#utility.yul\":595:596   */\n      dup1\n        /* \"#utility.yul\":588:600   */\n      revert\n        /* \"#utility.yul\":552:602   */\n    tag_222:\n        /* \"#utility.yul\":635:639   */\n      0x20\n        /* \"#utility.yul\":627:633   */\n      dup4\n        /* \"#utility.yul\":623:640   */\n      add\n        /* \"#utility.yul\":611:640   */\n      swap2\n      pop\n        /* \"#utility.yul\":695:698   */\n      dup4\n        /* \"#utility.yul\":688:692   */\n      0x20\n        /* \"#utility.yul\":678:684   */\n      dup3\n        /* \"#utility.yul\":675:676   */\n      0x05\n        /* \"#utility.yul\":671:685   */\n      shl\n        /* \"#utility.yul\":663:669   */\n      dup6\n        /* \"#utility.yul\":659:686   */\n      add\n        /* \"#utility.yul\":655:693   */\n      add\n        /* \"#utility.yul\":652:699   */\n      gt\n        /* \"#utility.yul\":649:716   */\n      iszero\n      tag_223\n      jumpi\n        /* \"#utility.yul\":712:713   */\n      0x00\n        /* \"#utility.yul\":709:710   */\n      dup1\n        /* \"#utility.yul\":702:714   */\n      revert\n        /* \"#utility.yul\":649:716   */\n    tag_223:\n        /* \"#utility.yul\":355:722   */\n      swap3\n      pop\n      swap3\n      swap1\n      pop\n      jump\t// out\n        /* \"#utility.yul\":727:1635   */\n    tag_31:\n        /* \"#utility.yul\":858:864   */\n      0x00\n        /* \"#utility.yul\":866:872   */\n      dup1\n        /* \"#utility.yul\":874:880   */\n      0x00\n        /* \"#utility.yul\":882:888   */\n      dup1\n        /* \"#utility.yul\":890:896   */\n      0x00\n        /* \"#utility.yul\":943:945   */\n      0x60\n        /* \"#utility.yul\":931:940   */\n      dup7\n        /* \"#utility.yul\":922:929   */\n      dup9\n        /* \"#utility.yul\":918:941   */\n      sub\n        /* \"#utility.yul\":914:946   */\n      slt\n        /* \"#utility.yul\":911:963   */\n      iszero\n      tag_225\n      jumpi\n        /* \"#utility.yul\":959:960   */\n      0x00\n        /* \"#utility.yul\":956:957   */\n      dup1\n        /* \"#utility.yul\":949:961   */\n      revert\n        /* \"#utility.yul\":911:963   */\n    tag_225:\n        /* \"#utility.yul\":998:1007   */\n      dup6\n        /* \"#utility.yul\":985:1008   */\n      calldataload\n        /* \"#utility.yul\":1017:1048   */\n      tag_226\n        /* \"#utility.yul\":1042:1047   */\n      dup2\n        /* \"#utility.yul\":1017:1048   */\n      tag_213\n      jump\t// in\n    tag_226:\n        /* \"#utility.yul\":1067:1072   */\n      swap5\n      pop\n        /* \"#utility.yul\":1123:1125   */\n      0x20\n        /* \"#utility.yul\":1108:1126   */\n      dup7\n      add\n        /* \"#utility.yul\":1095:1127   */\n      calldataload\n        /* \"#utility.yul\":1146:1164   */\n      0xffffffffffffffff\n        /* \"#utility.yul\":1176:1190   */\n      dup1\n      dup3\n      gt\n        /* \"#utility.yul\":1173:1207   */\n      iszero\n      tag_227\n      jumpi\n        /* \"#utility.yul\":1203:1204   */\n      0x00\n        /* \"#utility.yul\":1200:1201   */\n      dup1\n        /* \"#utility.yul\":1193:1205   */\n      revert\n        /* \"#utility.yul\":1173:1207   */\n    tag_227:\n        /* \"#utility.yul\":1242:1312   */\n      tag_228\n        /* \"#utility.yul\":1304:1311   */\n      dup10\n        /* \"#utility.yul\":1295:1301   */\n      dup4\n        /* \"#utility.yul\":1284:1293   */\n      dup11\n        /* \"#utility.yul\":1280:1302   */\n      add\n        /* \"#utility.yul\":1242:1312   */\n      tag_214\n      jump\t// in\n    tag_228:\n        /* \"#utility.yul\":1331:1339   */\n      swap1\n      swap7\n      pop\n        /* \"#utility.yul\":1216:1312   */\n      swap5\n      pop\n        /* \"#utility.yul\":1419:1421   */\n      0x40\n        /* \"#utility.yul\":1404:1422   */\n      dup9\n      add\n        /* \"#utility.yul\":1391:1423   */\n      calldataload\n      swap2\n      pop\n        /* \"#utility.yul\":1435:1451   */\n      dup1\n      dup3\n      gt\n        /* \"#utility.yul\":1432:1468   */\n      iszero\n      tag_229\n      jumpi\n        /* \"#utility.yul\":1464:1465   */\n      0x00\n        /* \"#utility.yul\":1461:1462   */\n      dup1\n        /* \"#utility.yul\":1454:1466   */\n      revert\n        /* \"#utility.yul\":1432:1468   */\n    tag_229:\n      pop\n        /* \"#utility.yul\":1503:1575   */\n      tag_230\n        /* \"#utility.yul\":1567:1574   */\n      dup9\n        /* \"#utility.yul\":1556:1564   */\n      dup3\n        /* \"#utility.yul\":1545:1554   */\n      dup10\n        /* \"#utility.yul\":1541:1565   */\n      add\n        /* \"#utility.yul\":1503:1575   */\n      tag_214\n      jump\t// in\n    tag_230:\n        /* \"#utility.yul\":727:1635   */\n      swap7\n      swap10\n      swap6\n      swap9\n      pop\n      swap4\n      swap7\n      pop\n        /* \"#utility.yul\":1594:1602   */\n      swap3\n      swap5\n        /* \"#utility.yul\":1477:1575   */\n      swap4\n        /* \"#utility.yul\":727:1635   */\n      swap3\n      pop\n      pop\n      pop\n      jump\t// out\n        /* \"#utility.yul\":1640:2161   */\n    tag_36:\n        /* \"#utility.yul\":1735:1741   */\n      0x00\n        /* \"#utility.yul\":1743:1749   */\n      dup1\n        /* \"#utility.yul\":1751:1757   */\n      0x00\n        /* \"#utility.yul\":1759:1765   */\n      dup1\n        /* \"#utility.yul\":1767:1773   */\n      0x00\n        /* \"#utility.yul\":1820:1823   */\n      0xa0\n        /* \"#utility.yul\":1808:1817   */\n      dup7\n        /* \"#utility.yul\":1799:1806   */\n      dup9\n        /* \"#utility.yul\":1795:1818   */\n      sub\n        /* \"#utility.yul\":1791:1824   */\n      slt\n        /* \"#utility.yul\":1788:1841   */\n      iszero\n      tag_232\n      jumpi\n        /* \"#utility.yul\":1837:1838   */\n      0x00\n        /* \"#utility.yul\":1834:1835   */\n      dup1\n        /* \"#utility.yul\":1827:1839   */\n      revert\n        /* \"#utility.yul\":1788:1841   */\n    tag_232:\n        /* \"#utility.yul\":1876:1885   */\n      dup6\n        /* \"#utility.yul\":1863:1886   */\n      calldataload\n        /* \"#utility.yul\":1895:1926   */\n      tag_233\n        /* \"#utility.yul\":1920:1925   */\n      dup2\n        /* \"#utility.yul\":1895:1926   */\n      tag_213\n      jump\t// in\n    tag_233:\n        /* \"#utility.yul\":1945:1950   */\n      swap8\n        /* \"#utility.yul\":1997:1999   */\n      0x20\n        /* \"#utility.yul\":1982:2000   */\n      dup8\n      add\n        /* \"#utility.yul\":1969:2001   */\n      calldataload\n      swap8\n      pop\n        /* \"#utility.yul\":2048:2050   */\n      0x40\n        /* \"#utility.yul\":2033:2051   */\n      dup8\n      add\n        /* \"#utility.yul\":2020:2052   */\n      calldataload\n      swap7\n        /* \"#utility.yul\":2099:2101   */\n      0x60\n        /* \"#utility.yul\":2084:2102   */\n      dup2\n      add\n        /* \"#utility.yul\":2071:2103   */\n      calldataload\n      swap7\n      pop\n        /* \"#utility.yul\":2150:2153   */\n      0x80\n        /* \"#utility.yul\":2135:2154   */\n      add\n        /* \"#utility.yul\":2122:2155   */\n      calldataload\n      swap5\n      pop\n        /* \"#utility.yul\":1640:2161   */\n      swap3\n      pop\n      pop\n      pop\n      jump\t// out\n        /* \"#utility.yul\":2166:2346   */\n    tag_41:\n        /* \"#utility.yul\":2225:2231   */\n      0x00\n        /* \"#utility.yul\":2278:2280   */\n      0x20\n        /* \"#utility.yul\":2266:2275   */\n      dup3\n        /* \"#utility.yul\":2257:2264   */\n      dup5\n        /* \"#utility.yul\":2253:2276   */\n      sub\n        /* \"#utility.yul\":2249:2281   */\n      slt\n        /* \"#utility.yul\":2246:2298   */\n      iszero\n      tag_235\n      jumpi\n        /* \"#utility.yul\":2294:2295   */\n      0x00\n        /* \"#utility.yul\":2291:2292   */\n      dup1\n        /* \"#utility.yul\":2284:2296   */\n      revert\n        /* \"#utility.yul\":2246:2298   */\n    tag_235:\n      pop\n        /* \"#utility.yul\":2317:2340   */\n      calldataload\n      swap2\n        /* \"#utility.yul\":2166:2346   */\n      swap1\n      pop\n      jump\t// out\n        /* \"#utility.yul\":2351:2598   */\n    tag_58:\n        /* \"#utility.yul\":2410:2416   */\n      0x00\n        /* \"#utility.yul\":2463:2465   */\n      0x20\n        /* \"#utility.yul\":2451:2460   */\n      dup3\n        /* \"#utility.yul\":2442:2449   */\n      dup5\n        /* \"#utility.yul\":2438:2461   */\n      sub\n        /* \"#utility.yul\":2434:2466   */\n      slt\n        /* \"#utility.yul\":2431:2483   */\n      iszero\n      tag_237\n      jumpi\n        /* \"#utility.yul\":2479:2480   */\n      0x00\n        /* \"#utility.yul\":2476:2477   */\n      dup1\n        /* \"#utility.yul\":2469:2481   */\n      revert\n        /* \"#utility.yul\":2431:2483   */\n    tag_237:\n        /* \"#utility.yul\":2518:2527   */\n      dup2\n        /* \"#utility.yul\":2505:2528   */\n      calldataload\n        /* \"#utility.yul\":2537:2568   */\n      tag_238\n        /* \"#utility.yul\":2562:2567   */\n      dup2\n        /* \"#utility.yul\":2537:2568   */\n      tag_213\n      jump\t// in\n    tag_238:\n        /* \"#utility.yul\":2587:2592   */\n      swap4\n        /* \"#utility.yul\":2351:2598   */\n      swap3\n      pop\n      pop\n      pop\n      jump\t// out\n        /* \"#utility.yul\":2834:3607   */\n    tag_77:\n        /* \"#utility.yul\":2956:2962   */\n      0x00\n        /* \"#utility.yul\":2964:2970   */\n      dup1\n        /* \"#utility.yul\":2972:2978   */\n      0x00\n        /* \"#utility.yul\":2980:2986   */\n      dup1\n        /* \"#utility.yul\":3033:3035   */\n      0x40\n        /* \"#utility.yul\":3021:3030   */\n      dup6\n        /* \"#utility.yul\":3012:3019   */\n      dup8\n        /* \"#utility.yul\":3008:3031   */\n      sub\n        /* \"#utility.yul\":3004:3036   */\n      slt\n        /* \"#utility.yul\":3001:3053   */\n      iszero\n      tag_241\n      jumpi\n        /* \"#utility.yul\":3049:3050   */\n      0x00\n        /* \"#utility.yul\":3046:3047   */\n      dup1\n        /* \"#utility.yul\":3039:3051   */\n      revert\n        /* \"#utility.yul\":3001:3053   */\n    tag_241:\n        /* \"#utility.yul\":3089:3098   */\n      dup5\n        /* \"#utility.yul\":3076:3099   */\n      calldataload\n        /* \"#utility.yul\":3118:3136   */\n      0xffffffffffffffff\n        /* \"#utility.yul\":3159:3161   */\n      dup1\n        /* \"#utility.yul\":3151:3157   */\n      dup3\n        /* \"#utility.yul\":3148:3162   */\n      gt\n        /* \"#utility.yul\":3145:3179   */\n      iszero\n      tag_242\n      jumpi\n        /* \"#utility.yul\":3175:3176   */\n      0x00\n        /* \"#utility.yul\":3172:3173   */\n      dup1\n        /* \"#utility.yul\":3165:3177   */\n      revert\n        /* \"#utility.yul\":3145:3179   */\n    tag_242:\n        /* \"#utility.yul\":3214:3284   */\n      tag_243\n        /* \"#utility.yul\":3276:3283   */\n      dup9\n        /* \"#utility.yul\":3267:3273   */\n      dup4\n        /* \"#utility.yul\":3256:3265   */\n      dup10\n        /* \"#utility.yul\":3252:3274   */\n      add\n        /* \"#utility.yul\":3214:3284   */\n      tag_214\n      jump\t// in\n    tag_243:\n        /* \"#utility.yul\":3303:3311   */\n      swap1\n      swap7\n      pop\n        /* \"#utility.yul\":3188:3284   */\n      swap5\n      pop\n        /* \"#utility.yul\":3391:3393   */\n      0x20\n        /* \"#utility.yul\":3376:3394   */\n      dup8\n      add\n        /* \"#utility.yul\":3363:3395   */\n      calldataload\n      swap2\n      pop\n        /* \"#utility.yul\":3407:3423   */\n      dup1\n      dup3\n      gt\n        /* \"#utility.yul\":3404:3440   */\n      iszero\n      tag_244\n      jumpi\n        /* \"#utility.yul\":3436:3437   */\n      0x00\n        /* \"#utility.yul\":3433:3434   */\n      dup1\n        /* \"#utility.yul\":3426:3438   */\n      revert\n        /* \"#utility.yul\":3404:3440   */\n    tag_244:\n      pop\n        /* \"#utility.yul\":3475:3547   */\n      tag_245\n        /* \"#utility.yul\":3539:3546   */\n      dup8\n        /* \"#utility.yul\":3528:3536   */\n      dup3\n        /* \"#utility.yul\":3517:3526   */\n      dup9\n        /* \"#utility.yul\":3513:3537   */\n      add\n        /* \"#utility.yul\":3475:3547   */\n      tag_214\n      jump\t// in\n    tag_245:\n        /* \"#utility.yul\":2834:3607   */\n      swap6\n      swap9\n      swap5\n      swap8\n      pop\n        /* \"#utility.yul\":3566:3574   */\n      swap6\n      pop\n      pop\n      pop\n      pop\n        /* \"#utility.yul\":2834:3607   */\n      jump\t// out\n        /* \"#utility.yul\":4129:4555   */\n    tag_93:\n        /* \"#utility.yul\":4258:4261   */\n      0x00\n        /* \"#utility.yul\":4296:4302   */\n      dup3\n        /* \"#utility.yul\":4290:4303   */\n      mload\n        /* \"#utility.yul\":4321:4322   */\n      0x00\n        /* \"#utility.yul\":4331:4460   */\n    tag_248:\n        /* \"#utility.yul\":4345:4351   */\n      dup2\n        /* \"#utility.yul\":4342:4343   */\n      dup2\n        /* \"#utility.yul\":4339:4352   */\n      lt\n        /* \"#utility.yul\":4331:4460   */\n      iszero\n      tag_250\n      jumpi\n        /* \"#utility.yul\":4443:4447   */\n      0x20\n        /* \"#utility.yul\":4427:4441   */\n      dup2\n      dup7\n      add\n        /* \"#utility.yul\":4423:4448   */\n      dup2\n      add\n        /* \"#utility.yul\":4417:4449   */\n      mload\n        /* \"#utility.yul\":4404:4415   */\n      dup6\n      dup4\n      add\n        /* \"#utility.yul\":4397:4450   */\n      mstore\n        /* \"#utility.yul\":4360:4372   */\n      add\n        /* \"#utility.yul\":4331:4460   */\n      jump(tag_248)\n    tag_250:\n        /* \"#utility.yul\":4478:4484   */\n      dup2\n        /* \"#utility.yul\":4475:4476   */\n      dup2\n        /* \"#utility.yul\":4472:4485   */\n      gt\n        /* \"#utility.yul\":4469:4517   */\n      iszero\n      tag_251\n      jumpi\n        /* \"#utility.yul\":4513:4514   */\n      0x00\n        /* \"#utility.yul\":4504:4510   */\n      dup3\n        /* \"#utility.yul\":4499:4502   */\n      dup6\n        /* \"#utility.yul\":4495:4511   */\n      add\n        /* \"#utility.yul\":4488:4515   */\n      mstore\n        /* \"#utility.yul\":4469:4517   */\n    tag_251:\n      pop\n        /* \"#utility.yul\":4533:4549   */\n      swap2\n      swap1\n      swap2\n      add\n      swap3\n        /* \"#utility.yul\":4129:4555   */\n      swap2\n      pop\n      pop\n      jump\t// out\n        /* \"#utility.yul\":4560:5732   */\n    tag_98:\n        /* \"#utility.yul\":4848:4850   */\n      0x40\n        /* \"#utility.yul\":4860:4881   */\n      dup1\n      dup3\n      mstore\n        /* \"#utility.yul\":4833:4851   */\n      dup2\n      add\n        /* \"#utility.yul\":4916:4938   */\n      dup5\n      swap1\n      mstore\n        /* \"#utility.yul\":4800:4804   */\n      0x00\n        /* \"#utility.yul\":4995:5001   */\n      dup6\n        /* \"#utility.yul\":4969:4971   */\n      0x60\n        /* \"#utility.yul\":4954:4972   */\n      dup4\n      add\n        /* \"#utility.yul\":4800:4804   */\n      dup3\n        /* \"#utility.yul\":5029:5356   */\n    tag_253:\n        /* \"#utility.yul\":5043:5049   */\n      dup8\n        /* \"#utility.yul\":5040:5041   */\n      dup2\n        /* \"#utility.yul\":5037:5050   */\n      lt\n        /* \"#utility.yul\":5029:5356   */\n      iszero\n      tag_255\n      jumpi\n        /* \"#utility.yul\":5118:5124   */\n      dup3\n        /* \"#utility.yul\":5105:5125   */\n      calldataload\n        /* \"#utility.yul\":5138:5169   */\n      tag_256\n        /* \"#utility.yul\":5163:5168   */\n      dup2\n        /* \"#utility.yul\":5138:5169   */\n      tag_213\n      jump\t// in\n    tag_256:\n      sub(shl(0xa0, 0x01), 0x01)\n        /* \"#utility.yul\":5194:5248   */\n      and\n        /* \"#utility.yul\":5182:5249   */\n      dup3\n      mstore\n        /* \"#utility.yul\":5272:5276   */\n      0x20\n        /* \"#utility.yul\":5331:5346   */\n      swap3\n      dup4\n      add\n      swap3\n        /* \"#utility.yul\":5296:5308   */\n      swap1\n      swap2\n      add\n      swap1\n        /* \"#utility.yul\":5065:5066   */\n      0x01\n        /* \"#utility.yul\":5058:5067   */\n      add\n        /* \"#utility.yul\":5029:5356   */\n      jump(tag_253)\n    tag_255:\n        /* \"#utility.yul\":5033:5036   */\n      pop\n        /* \"#utility.yul\":5403:5412   */\n      dup4\n        /* \"#utility.yul\":5398:5401   */\n      dup2\n        /* \"#utility.yul\":5394:5413   */\n      sub\n        /* \"#utility.yul\":5387:5391   */\n      0x20\n        /* \"#utility.yul\":5376:5385   */\n      dup6\n        /* \"#utility.yul\":5372:5392   */\n      add\n        /* \"#utility.yul\":5365:5414   */\n      mstore\n        /* \"#utility.yul\":5435:5441   */\n      dup5\n        /* \"#utility.yul\":5430:5433   */\n      dup2\n        /* \"#utility.yul\":5423:5442   */\n      mstore\n        /* \"#utility.yul\":5465:5531   */\n      0x07ffffffffffffffffffffffffffffffffffffffffffffffffffffffffffffff\n        /* \"#utility.yul\":5457:5463   */\n      dup6\n        /* \"#utility.yul\":5454:5532   */\n      gt\n        /* \"#utility.yul\":5451:5549   */\n      iszero\n      tag_257\n      jumpi\n        /* \"#utility.yul\":5545:5546   */\n      0x00\n        /* \"#utility.yul\":5542:5543   */\n      dup1\n        /* \"#utility.yul\":5535:5547   */\n      revert\n        /* \"#utility.yul\":5451:5549   */\n    tag_257:\n        /* \"#utility.yul\":5579:5585   */\n      dup5\n        /* \"#utility.yul\":5576:5577   */\n      0x05\n        /* \"#utility.yul\":5572:5586   */\n      shl\n        /* \"#utility.yul\":5558:5586   */\n      swap2\n      pop\n        /* \"#utility.yul\":5632:5638   */\n      dup2\n        /* \"#utility.yul\":5624:5630   */\n      dup7\n        /* \"#utility.yul\":5617:5621   */\n      0x20\n        /* \"#utility.yul\":5612:5615   */\n      dup4\n        /* \"#utility.yul\":5608:5622   */\n      add\n        /* \"#utility.yul\":5595:5639   */\n      calldatacopy\n        /* \"#utility.yul\":5705:5706   */\n      0x00\n        /* \"#utility.yul\":5662:5678   */\n      swap2\n      add\n        /* \"#utility.yul\":5680:5684   */\n      0x20\n        /* \"#utility.yul\":5658:5685   */\n      add\n        /* \"#utility.yul\":5694:5707   */\n      swap1\n      dup2\n      mstore\n        /* \"#utility.yul\":5658:5685   */\n      swap7\n        /* \"#utility.yul\":4560:5732   */\n      swap6\n      pop\n      pop\n      pop\n      pop\n      pop\n      pop\n      jump\t// out\n        /* \"#utility.yul\":5737:5988   */\n    tag_120:\n        /* \"#utility.yul\":5807:5813   */\n      0x00\n        /* \"#utility.yul\":5860:5862   */\n      0x20\n        /* \"#utility.yul\":5848:5857   */\n      dup3\n        /* \"#utility.yul\":5839:5846   */\n      dup5\n        /* \"#utility.yul\":5835:5858   */\n      sub\n        /* \"#utility.yul\":5831:5863   */\n      slt\n        /* \"#utility.yul\":5828:5880   */\n      iszero\n      tag_259\n      jumpi\n        /* \"#utility.yul\":5876:5877   */\n      0x00\n        /* \"#utility.yul\":5873:5874   */\n      dup1\n        /* \"#utility.yul\":5866:5878   */\n      revert\n        /* \"#utility.yul\":5828:5880   */\n    tag_259:\n        /* \"#utility.yul\":5908:5917   */\n      dup2\n        /* \"#utility.yul\":5902:5918   */\n      mload\n        /* \"#utility.yul\":5927:5958   */\n      tag_238\n        /* \"#utility.yul\":5952:5957   */\n      dup2\n        /* \"#utility.yul\":5927:5958   */\n      tag_213\n      jump\t// in\n        /* \"#utility.yul\":5993:6177   */\n    tag_215:\n        /* \"#utility.yul\":6045:6122   */\n      0x4e487b7100000000000000000000000000000000000000000000000000000000\n        /* \"#utility.yul\":6042:6043   */\n      0x00\n        /* \"#utility.yul\":6035:6123   */\n      mstore\n        /* \"#utility.yul\":6142:6146   */\n      0x11\n        /* \"#utility.yul\":6139:6140   */\n      0x04\n        /* \"#utility.yul\":6132:6147   */\n      mstore\n        /* \"#utility.yul\":6166:6170   */\n      0x24\n        /* \"#utility.yul\":6163:6164   */\n      0x00\n        /* \"#utility.yul\":6156:6171   */\n      revert\n        /* \"#utility.yul\":6182:6310   */\n    tag_126:\n        /* \"#utility.yul\":6222:6225   */\n      0x00\n        /* \"#utility.yul\":6253:6254   */\n      dup3\n        /* \"#utility.yul\":6249:6255   */\n      not\n        /* \"#utility.yul\":6246:6247   */\n      dup3\n        /* \"#utility.yul\":6243:6256   */\n      gt\n        /* \"#utility.yul\":6240:6279   */\n      iszero\n      tag_264\n      jumpi\n        /* \"#utility.yul\":6259:6277   */\n      tag_264\n      tag_215\n      jump\t// in\n    tag_264:\n      pop\n        /* \"#utility.yul\":6295:6304   */\n      add\n      swap1\n        /* \"#utility.yul\":6182:6310   */\n      jump\t// out\n        /* \"#utility.yul\":6617:6894   */\n    tag_138:\n        /* \"#utility.yul\":6684:6690   */\n      0x00\n        /* \"#utility.yul\":6737:6739   */\n      0x20\n        /* \"#utility.yul\":6725:6734   */\n      dup3\n        /* \"#utility.yul\":6716:6723   */\n      dup5\n        /* \"#utility.yul\":6712:6735   */\n      sub\n        /* \"#utility.yul\":6708:6740   */\n      slt\n        /* \"#utility.yul\":6705:6757   */\n      iszero\n      tag_267\n      jumpi\n        /* \"#utility.yul\":6753:6754   */\n      0x00\n        /* \"#utility.yul\":6750:6751   */\n      dup1\n        /* \"#utility.yul\":6743:6755   */\n      revert\n        /* \"#utility.yul\":6705:6757   */\n    tag_267:\n        /* \"#utility.yul\":6785:6794   */\n      dup2\n        /* \"#utility.yul\":6779:6795   */\n      mload\n        /* \"#utility.yul\":6838:6843   */\n      dup1\n        /* \"#utility.yul\":6831:6844   */\n      iszero\n        /* \"#utility.yul\":6824:6845   */\n      iszero\n        /* \"#utility.yul\":6817:6822   */\n      dup2\n        /* \"#utility.yul\":6814:6846   */\n      eq\n        /* \"#utility.yul\":6804:6864   */\n      tag_238\n      jumpi\n        /* \"#utility.yul\":6860:6861   */\n      0x00\n        /* \"#utility.yul\":6857:6858   */\n      dup1\n        /* \"#utility.yul\":6850:6862   */\n      revert\n        /* \"#utility.yul\":6899:7083   */\n    tag_147:\n        /* \"#utility.yul\":6951:7028   */\n      0x4e487b7100000000000000000000000000000000000000000000000000000000\n        /* \"#utility.yul\":6948:6949   */\n      0x00\n        /* \"#utility.yul\":6941:7029   */\n      mstore\n        /* \"#utility.yul\":7048:7052   */\n      0x32\n        /* \"#utility.yul\":7045:7046   */\n      0x04\n        /* \"#utility.yul\":7038:7053   */\n      mstore\n        /* \"#utility.yul\":7072:7076   */\n      0x24\n        /* \"#utility.yul\":7069:7070   */\n      0x00\n        /* \"#utility.yul\":7062:7077   */\n      revert\n        /* \"#utility.yul\":7088:7283   */\n    tag_156:\n        /* \"#utility.yul\":7127:7130   */\n      0x00\n        /* \"#utility.yul\":7158:7224   */\n      0xffffffffffffffffffffffffffffffffffffffffffffffffffffffffffffffff\n        /* \"#utility.yul\":7151:7156   */\n      dup3\n        /* \"#utility.yul\":7148:7225   */\n      sub\n        /* \"#utility.yul\":7145:7248   */\n      tag_272\n      jumpi\n        /* \"#utility.yul\":7228:7246   */\n      tag_272\n      tag_215\n      jump\t// in\n    tag_272:\n      pop\n        /* \"#utility.yul\":7275:7276   */\n      0x01\n        /* \"#utility.yul\":7264:7277   */\n      add\n      swap1\n        /* \"#utility.yul\":7088:7283   */\n      jump\t// out\n        /* \"#utility.yul\":7288:7413   */\n    tag_161:\n        /* \"#utility.yul\":7328:7332   */\n      0x00\n        /* \"#utility.yul\":7356:7357   */\n      dup3\n        /* \"#utility.yul\":7353:7354   */\n      dup3\n        /* \"#utility.yul\":7350:7358   */\n      lt\n        /* \"#utility.yul\":7347:7381   */\n      iszero\n      tag_275\n      jumpi\n        /* \"#utility.yul\":7361:7379   */\n      tag_275\n      tag_215\n      jump\t// in\n    tag_275:\n      pop\n        /* \"#utility.yul\":7398:7407   */\n      sub\n      swap1\n        /* \"#utility.yul\":7288:7413   */\n      jump\t// out\n        /* \"#utility.yul\":7418:7602   */\n    tag_168:\n        /* \"#utility.yul\":7488:7494   */\n      0x00\n        /* \"#utility.yul\":7541:7543   */\n      0x20\n        /* \"#utility.yul\":7529:7538   */\n      dup3\n        /* \"#utility.yul\":7520:7527   */\n      dup5\n        /* \"#utility.yul\":7516:7539   */\n      sub\n        /* \"#utility.yul\":7512:7544   */\n      slt\n        /* \"#utility.yul\":7509:7561   */\n      iszero\n      tag_277\n      jumpi\n        /* \"#utility.yul\":7557:7558   */\n      0x00\n        /* \"#utility.yul\":7554:7555   */\n      dup1\n        /* \"#utility.yul\":7547:7559   */\n      revert\n        /* \"#utility.yul\":7509:7561   */\n    tag_277:\n      pop\n        /* \"#utility.yul\":7580:7596   */\n      mload\n      swap2\n        /* \"#utility.yul\":7418:7602   */\n      swap1\n      pop\n      jump\t// out\n        /* \"#utility.yul\":7607:7835   */\n    tag_173:\n        /* \"#utility.yul\":7647:7654   */\n      0x00\n        /* \"#utility.yul\":7773:7774   */\n      dup2\n        /* \"#utility.yul\":7705:7771   */\n      0xffffffffffffffffffffffffffffffffffffffffffffffffffffffffffffffff\n        /* \"#utility.yul\":7701:7775   */\n      div\n        /* \"#utility.yul\":7698:7699   */\n      dup4\n        /* \"#utility.yul\":7695:7776   */\n      gt\n        /* \"#utility.yul\":7690:7691   */\n      dup3\n        /* \"#utility.yul\":7683:7692   */\n      iszero\n        /* \"#utility.yul\":7676:7693   */\n      iszero\n        /* \"#utility.yul\":7672:7777   */\n      and\n        /* \"#utility.yul\":7669:7800   */\n      iszero\n      tag_280\n      jumpi\n        /* \"#utility.yul\":7780:7798   */\n      tag_280\n      tag_215\n      jump\t// in\n    tag_280:\n      pop\n        /* \"#utility.yul\":7820:7829   */\n      mul\n      swap1\n        /* \"#utility.yul\":7607:7835   */\n      jump\t// out\n        /* \"#utility.yul\":7840:8114   */\n    tag_179:\n        /* \"#utility.yul\":7880:7881   */\n      0x00\n        /* \"#utility.yul\":7906:7907   */\n      dup3\n        /* \"#utility.yul\":7896:8085   */\n      tag_282\n      jumpi\n        /* \"#utility.yul\":7941:8018   */\n      0x4e487b7100000000000000000000000000000000000000000000000000000000\n        /* \"#utility.yul\":7938:7939   */\n      0x00\n        /* \"#utility.yul\":7931:8019   */\n      mstore\n        /* \"#utility.yul\":8042:8046   */\n      0x12\n        /* \"#utility.yul\":8039:8040   */\n      0x04\n        /* \"#utility.yul\":8032:8047   */\n      mstore\n        /* \"#utility.yul\":8070:8074   */\n      0x24\n        /* \"#utility.yul\":8067:8068   */\n      0x00\n        /* \"#utility.yul\":8060:8075   */\n      revert\n        /* \"#utility.yul\":7896:8085   */\n    tag_282:\n      pop\n        /* \"#utility.yul\":8099:8108   */\n      div\n      swap1\n        /* \"#utility.yul\":7840:8114   */\n      jump\t// out\n\n    auxdata: 0xa2646970667358221220961c050f543aae95a74ca5d1f253e56e1c358812b49d2cf43c85b0842c55445964736f6c634300080e0033\n}\n",
				"bytecode": {
					"linkReferences": {},
					"object": "60a060405234801561001057600080fd5b5033608052600060055560805161117861005f6000396000818161028b0152818161052f01528181610564015281816105f8015281816106320152818161089d01526108c901526111786000f3fe6080604052600436106100d65760003560e01c80637f8483a41161007f578063d0b06f5d11610059578063d0b06f5d146101fc578063ec55688914610212578063fc6937861461024a578063fed0a20e1461026a57600080fd5b80637f8483a4146101a65780639e955149146101bc578063bdedd45e146101dc57600080fd5b8063674eb5ac116100b0578063674eb5ac146101505780636c8ae38c1461017057806375450f1b1461018657600080fd5b806313ab7042146100e55780631d69b1961461010e578063377996611461013057600080fd5b366100e057600080fd5b600080fd5b3480156100f157600080fd5b506100fb60035481565b6040519081526020015b60405180910390f35b34801561011a57600080fd5b5061012e610129366004610d65565b610280565b005b34801561013c57600080fd5b5061012e61014b366004610de8565b610559565b34801561015c57600080fd5b5061012e61016b366004610e2c565b6105ed565b34801561017c57600080fd5b506100fb60045481565b34801561019257600080fd5b5061012e6101a1366004610e2c565b610627565b3480156101b257600080fd5b506100fb60025481565b3480156101c857600080fd5b5061012e6101d7366004610e45565b610661565b3480156101e857600080fd5b506100fb6101f7366004610e2c565b6106b2565b34801561020857600080fd5b506100fb60015481565b34801561021e57600080fd5b50600054610232906001600160a01b031681565b6040516001600160a01b039091168152602001610105565b34801561025657600080fd5b5061012e610265366004610e69565b610892565b34801561027657600080fd5b506100fb60055481565b336001600160a01b037f000000000000000000000000000000000000000000000000000000000000000016146102b557600080fd5b6000546040517f101dfd190000000000000000000000000000000000000000000000000000000081526001600160a01b03878116600483015290911690819063101dfd1990602401600060405180830381600087803b15801561031757600080fd5b505af115801561032b573d6000803e3d6000fd5b50506001546002546003546004546040516001600160a01b03888116602483015260448201959095526064810193909352608483019190915260a4820152908916925060c4019050604080517fffffffffffffffffffffffffffffffffffffffffffffffffffffffffffffffe08184030181529181526020820180517bffffffffffffffffffffffffffffffffffffffffffffffffffffffff167f941ac60700000000000000000000000000000000000000000000000000000000179052516103f49190610ed5565b600060405180830381855af49150503d806000811461042f576040519150601f19603f3d011682016040523d82523d6000602084013e610434565b606091505b505060006001819055600281905560038190556004819055604051909250309150610469908790879087908790602401610f10565b604080517fffffffffffffffffffffffffffffffffffffffffffffffffffffffffffffffe08184030181529181526020820180517bffffffffffffffffffffffffffffffffffffffffffffffffffffffff167f4abcc5d500000000000000000000000000000000000000000000000000000000179052516104ea9190610ed5565b600060405180830381855af49150503d8060008114610525576040519150601f19603f3d011682016040523d82523d6000602084013e61052a565b606091505b5050507f00000000000000000000000000000000000000000000000000000000000000006001600160a01b0316ff5b336001600160a01b037f0000000000000000000000000000000000000000000000000000000000000000161461058e57600080fd5b6005541561059b57600080fd5b600080547fffffffffffffffffffffffff0000000000000000000000000000000000000000166001600160a01b0396909616959095179094556001928355600291909155600355600491909155600555565b336001600160a01b037f0000000000000000000000000000000000000000000000000000000000000000161461062257600080fd5b600455565b336001600160a01b037f0000000000000000000000000000000000000000000000000000000000000000161461065c57600080fd5b600355565b6000546001600160a01b0316331461067857600080fd5b600080547fffffffffffffffffffffffff0000000000000000000000000000000000000000166001600160a01b0392909216919091179055565b60008054604080517f3f0a079700000000000000000000000000000000000000000000000000000000815290516001600160a01b039092169133918391633f0a0797916004808201926020929091908290030181865afa15801561071a573d6000803e3d6000fd5b505050506040513d601f19601f8201168201806040525081019061073e9190610fad565b6001600160a01b03161461075157600080fd5b600061075b6109e6565b90508360000361077f57806002546107739190610ff9565b6002819055925061088b565b8360010361088b576002546107949082610ff9565b9250816001600160a01b031663da8909e56040518163ffffffff1660e01b8152600401602060405180830381865afa1580156107d4573d6000803e3d6000fd5b505050506040513d601f19601f820116820180604052508101906107f89190610fad565b6040517f990dc9db000000000000000000000000000000000000000000000000000000008152306004820152602481018590526001600160a01b03919091169063990dc9db906044016020604051808303816000875af1158015610860573d6000803e3d6000fd5b505050506040513d601f19601f820116820180604052508101906108849190611011565b5060006002555b5050919050565b336001600160a01b037f000000000000000000000000000000000000000000000000000000000000000016146108c757600080fd5b7f000000000000000000000000000000000000000000000000000000000000000060005b828110156109de5785858281811061090557610905611033565b905060200201602081019061091a9190610e45565b6001600160a01b031663a9059cbb8386868581811061093b5761093b611033565b6040517fffffffff0000000000000000000000000000000000000000000000000000000060e087901b1681526001600160a01b03909416600485015260200291909101356024830152506044016020604051808303816000875af11580156109a7573d6000803e3d6000fd5b505050506040513d601f19601f820116820180604052508101906109cb9190611011565b50806109d681611062565b9150506108eb565b505050505050565b60015460009081904281036109fe5760009250505090565b6000610a0a824261109a565b90506000600454905060008054906101000a90046001600160a01b03166001600160a01b03166311ce02676040518163ffffffff1660e01b8152600401602060405180830381865afa158015610a64573d6000803e3d6000fd5b505050506040513d601f19601f82011682018060405250810190610a889190610fad565b93506000846001600160a01b03166352fd856b6040518163ffffffff1660e01b8152600401602060405180830381865afa158015610aca573d6000803e3d6000fd5b505050506040513d601f19601f82011682018060405250810190610aee91906110b1565b90506018670de0b6b3a764000083818181818181610b0d60038d61109a565b610b1860028e61109a565b610b2360018f61109a565b610b2d8f8e6110ca565b610b3791906110ca565b610b4191906110ca565b610b4b91906110ca565b610b5591906110ca565b610b5f9190611107565b610b6991906110ca565b610b739190611107565b610b7d91906110ca565b610b879190611107565b610b9191906110ca565b610b9b9190611107565b610ba59190611107565b6ec097ce7bc90715b34b9f1000000000600684670de0b6b3a76400008180610bce60028b61109a565b610bd960018c61109a565b610be3908c6110ca565b610bed91906110ca565b610bf791906110ca565b610c0191906110ca565b610c0b9190611107565b610c1591906110ca565b610c1f9190611107565b610c2990846110ca565b610c339190611107565b6ec097ce7bc90715b34b9f100000000060028580610c5260018a61109a565b610c5c908a6110ca565b610c6691906110ca565b610c7091906110ca565b610c7a9190611107565b610c8490856110ca565b610c8e9190611107565b670de0b6b3a7640000610ca186886110ca565b610cb390670de0b6b3a764000061109a565b610cc590670de0b6b3a764000061109a565b610ccf90866110ca565b610cd99190611107565b610ce3919061109a565b610ced9190610ff9565b610cf7919061109a565b9550505050505090565b6001600160a01b0381168114610d1657600080fd5b50565b60008083601f840112610d2b57600080fd5b50813567ffffffffffffffff811115610d4357600080fd5b6020830191508360208260051b8501011115610d5e57600080fd5b9250929050565b600080600080600060608688031215610d7d57600080fd5b8535610d8881610d01565b9450602086013567ffffffffffffffff80821115610da557600080fd5b610db189838a01610d19565b90965094506040880135915080821115610dca57600080fd5b50610dd788828901610d19565b969995985093965092949392505050565b600080600080600060a08688031215610e0057600080fd5b8535610e0b81610d01565b97602087013597506040870135966060810135965060800135945092505050565b600060208284031215610e3e57600080fd5b5035919050565b600060208284031215610e5757600080fd5b8135610e6281610d01565b9392505050565b60008060008060408587031215610e7f57600080fd5b843567ffffffffffffffff80821115610e9757600080fd5b610ea388838901610d19565b90965094506020870135915080821115610ebc57600080fd5b50610ec987828801610d19565b95989497509550505050565b6000825160005b81811015610ef65760208186018101518583015201610edc565b81811115610f05576000828501525b509190910192915050565b6040808252810184905260008560608301825b87811015610f53578235610f3681610d01565b6001600160a01b0316825260209283019290910190600101610f23565b5083810360208501528481527f07ffffffffffffffffffffffffffffffffffffffffffffffffffffffffffffff851115610f8c57600080fd5b8460051b915081866020830137600091016020019081529695505050505050565b600060208284031215610fbf57600080fd5b8151610e6281610d01565b7f4e487b7100000000000000000000000000000000000000000000000000000000600052601160045260246000fd5b6000821982111561100c5761100c610fca565b500190565b60006020828403121561102357600080fd5b81518015158114610e6257600080fd5b7f4e487b7100000000000000000000000000000000000000000000000000000000600052603260045260246000fd5b60007fffffffffffffffffffffffffffffffffffffffffffffffffffffffffffffffff820361109357611093610fca565b5060010190565b6000828210156110ac576110ac610fca565b500390565b6000602082840312156110c357600080fd5b5051919050565b6000817fffffffffffffffffffffffffffffffffffffffffffffffffffffffffffffffff048311821515161561110257611102610fca565b500290565b60008261113d577f4e487b7100000000000000000000000000000000000000000000000000000000600052601260045260246000fd5b50049056fea2646970667358221220961c050f543aae95a74ca5d1f253e56e1c358812b49d2cf43c85b0842c55445964736f6c634300080e0033",
					"opcodes": "PUSH1 0xA0 PUSH1 0x40 MSTORE CALLVALUE DUP1 ISZERO PUSH2 0x10 JUMPI PUSH1 0x0 DUP1 REVERT JUMPDEST POP CALLER PUSH1 0x80 MSTORE PUSH1 0x0 PUSH1 0x5 SSTORE PUSH1 0x80 MLOAD PUSH2 0x1178 PUSH2 0x5F PUSH1 0x0 CODECOPY PUSH1 0x0 DUP2 DUP2 PUSH2 0x28B ADD MSTORE DUP2 DUP2 PUSH2 0x52F ADD MSTORE DUP2 DUP2 PUSH2 0x564 ADD MSTORE DUP2 DUP2 PUSH2 0x5F8 ADD MSTORE DUP2 DUP2 PUSH2 0x632 ADD MSTORE DUP2 DUP2 PUSH2 0x89D ADD MSTORE PUSH2 0x8C9 ADD MSTORE PUSH2 0x1178 PUSH1 0x0 RETURN INVALID PUSH1 0x80 PUSH1 0x40 MSTORE PUSH1 0x4 CALLDATASIZE LT PUSH2 0xD6 JUMPI PUSH1 0x0 CALLDATALOAD PUSH1 0xE0 SHR DUP1 PUSH4 0x7F8483A4 GT PUSH2 0x7F JUMPI DUP1 PUSH4 0xD0B06F5D GT PUSH2 0x59 JUMPI DUP1 PUSH4 0xD0B06F5D EQ PUSH2 0x1FC JUMPI DUP1 PUSH4 0xEC556889 EQ PUSH2 0x212 JUMPI DUP1 PUSH4 0xFC693786 EQ PUSH2 0x24A JUMPI DUP1 PUSH4 0xFED0A20E EQ PUSH2 0x26A JUMPI PUSH1 0x0 DUP1 REVERT JUMPDEST DUP1 PUSH4 0x7F8483A4 EQ PUSH2 0x1A6 JUMPI DUP1 PUSH4 0x9E955149 EQ PUSH2 0x1BC JUMPI DUP1 PUSH4 0xBDEDD45E EQ PUSH2 0x1DC JUMPI PUSH1 0x0 DUP1 REVERT JUMPDEST DUP1 PUSH4 0x674EB5AC GT PUSH2 0xB0 JUMPI DUP1 PUSH4 0x674EB5AC EQ PUSH2 0x150 JUMPI DUP1 PUSH4 0x6C8AE38C EQ PUSH2 0x170 JUMPI DUP1 PUSH4 0x75450F1B EQ PUSH2 0x186 JUMPI PUSH1 0x0 DUP1 REVERT JUMPDEST DUP1 PUSH4 0x13AB7042 EQ PUSH2 0xE5 JUMPI DUP1 PUSH4 0x1D69B196 EQ PUSH2 0x10E JUMPI DUP1 PUSH4 0x37799661 EQ PUSH2 0x130 JUMPI PUSH1 0x0 DUP1 REVERT JUMPDEST CALLDATASIZE PUSH2 0xE0 JUMPI PUSH1 0x0 DUP1 REVERT JUMPDEST PUSH1 0x0 DUP1 REVERT JUMPDEST CALLVALUE DUP1 ISZERO PUSH2 0xF1 JUMPI PUSH1 0x0 DUP1 REVERT JUMPDEST POP PUSH2 0xFB PUSH1 0x3 SLOAD DUP2 JUMP JUMPDEST PUSH1 0x40 MLOAD SWAP1 DUP2 MSTORE PUSH1 0x20 ADD JUMPDEST PUSH1 0x40 MLOAD DUP1 SWAP2 SUB SWAP1 RETURN JUMPDEST CALLVALUE DUP1 ISZERO PUSH2 0x11A JUMPI PUSH1 0x0 DUP1 REVERT JUMPDEST POP PUSH2 0x12E PUSH2 0x129 CALLDATASIZE PUSH1 0x4 PUSH2 0xD65 JUMP JUMPDEST PUSH2 0x280 JUMP JUMPDEST STOP JUMPDEST CALLVALUE DUP1 ISZERO PUSH2 0x13C JUMPI PUSH1 0x0 DUP1 REVERT JUMPDEST POP PUSH2 0x12E PUSH2 0x14B CALLDATASIZE PUSH1 0x4 PUSH2 0xDE8 JUMP JUMPDEST PUSH2 0x559 JUMP JUMPDEST CALLVALUE DUP1 ISZERO PUSH2 0x15C JUMPI PUSH1 0x0 DUP1 REVERT JUMPDEST POP PUSH2 0x12E PUSH2 0x16B CALLDATASIZE PUSH1 0x4 PUSH2 0xE2C JUMP JUMPDEST PUSH2 0x5ED JUMP JUMPDEST CALLVALUE DUP1 ISZERO PUSH2 0x17C JUMPI PUSH1 0x0 DUP1 REVERT JUMPDEST POP PUSH2 0xFB PUSH1 0x4 SLOAD DUP2 JUMP JUMPDEST CALLVALUE DUP1 ISZERO PUSH2 0x192 JUMPI PUSH1 0x0 DUP1 REVERT JUMPDEST POP PUSH2 0x12E PUSH2 0x1A1 CALLDATASIZE PUSH1 0x4 PUSH2 0xE2C JUMP JUMPDEST PUSH2 0x627 JUMP JUMPDEST CALLVALUE DUP1 ISZERO PUSH2 0x1B2 JUMPI PUSH1 0x0 DUP1 REVERT JUMPDEST POP PUSH2 0xFB PUSH1 0x2 SLOAD DUP2 JUMP JUMPDEST CALLVALUE DUP1 ISZERO PUSH2 0x1C8 JUMPI PUSH1 0x0 DUP1 REVERT JUMPDEST POP PUSH2 0x12E PUSH2 0x1D7 CALLDATASIZE PUSH1 0x4 PUSH2 0xE45 JUMP JUMPDEST PUSH2 0x661 JUMP JUMPDEST CALLVALUE DUP1 ISZERO PUSH2 0x1E8 JUMPI PUSH1 0x0 DUP1 REVERT JUMPDEST POP PUSH2 0xFB PUSH2 0x1F7 CALLDATASIZE PUSH1 0x4 PUSH2 0xE2C JUMP JUMPDEST PUSH2 0x6B2 JUMP JUMPDEST CALLVALUE DUP1 ISZERO PUSH2 0x208 JUMPI PUSH1 0x0 DUP1 REVERT JUMPDEST POP PUSH2 0xFB PUSH1 0x1 SLOAD DUP2 JUMP JUMPDEST CALLVALUE DUP1 ISZERO PUSH2 0x21E JUMPI PUSH1 0x0 DUP1 REVERT JUMPDEST POP PUSH1 0x0 SLOAD PUSH2 0x232 SWAP1 PUSH1 0x1 PUSH1 0x1 PUSH1 0xA0 SHL SUB AND DUP2 JUMP JUMPDEST PUSH1 0x40 MLOAD PUSH1 0x1 PUSH1 0x1 PUSH1 0xA0 SHL SUB SWAP1 SWAP2 AND DUP2 MSTORE PUSH1 0x20 ADD PUSH2 0x105 JUMP JUMPDEST CALLVALUE DUP1 ISZERO PUSH2 0x256 JUMPI PUSH1 0x0 DUP1 REVERT JUMPDEST POP PUSH2 0x12E PUSH2 0x265 CALLDATASIZE PUSH1 0x4 PUSH2 0xE69 JUMP JUMPDEST PUSH2 0x892 JUMP JUMPDEST CALLVALUE DUP1 ISZERO PUSH2 0x276 JUMPI PUSH1 0x0 DUP1 REVERT JUMPDEST POP PUSH2 0xFB PUSH1 0x5 SLOAD DUP2 JUMP JUMPDEST CALLER PUSH1 0x1 PUSH1 0x1 PUSH1 0xA0 SHL SUB PUSH32 0x0 AND EQ PUSH2 0x2B5 JUMPI PUSH1 0x0 DUP1 REVERT JUMPDEST PUSH1 0x0 SLOAD PUSH1 0x40 MLOAD PUSH32 0x101DFD1900000000000000000000000000000000000000000000000000000000 DUP2 MSTORE PUSH1 0x1 PUSH1 0x1 PUSH1 0xA0 SHL SUB DUP8 DUP2 AND PUSH1 0x4 DUP4 ADD MSTORE SWAP1 SWAP2 AND SWAP1 DUP2 SWAP1 PUSH4 0x101DFD19 SWAP1 PUSH1 0x24 ADD PUSH1 0x0 PUSH1 0x40 MLOAD DUP1 DUP4 SUB DUP2 PUSH1 0x0 DUP8 DUP1 EXTCODESIZE ISZERO DUP1 ISZERO PUSH2 0x317 JUMPI PUSH1 0x0 DUP1 REVERT JUMPDEST POP GAS CALL ISZERO DUP1 ISZERO PUSH2 0x32B JUMPI RETURNDATASIZE PUSH1 0x0 DUP1 RETURNDATACOPY RETURNDATASIZE PUSH1 0x0 REVERT JUMPDEST POP POP PUSH1 0x1 SLOAD PUSH1 0x2 SLOAD PUSH1 0x3 SLOAD PUSH1 0x4 SLOAD PUSH1 0x40 MLOAD PUSH1 0x1 PUSH1 0x1 PUSH1 0xA0 SHL SUB DUP9 DUP2 AND PUSH1 0x24 DUP4 ADD MSTORE PUSH1 0x44 DUP3 ADD SWAP6 SWAP1 SWAP6 MSTORE PUSH1 0x64 DUP2 ADD SWAP4 SWAP1 SWAP4 MSTORE PUSH1 0x84 DUP4 ADD SWAP2 SWAP1 SWAP2 MSTORE PUSH1 0xA4 DUP3 ADD MSTORE SWAP1 DUP10 AND SWAP3 POP PUSH1 0xC4 ADD SWAP1 POP PUSH1 0x40 DUP1 MLOAD PUSH32 0xFFFFFFFFFFFFFFFFFFFFFFFFFFFFFFFFFFFFFFFFFFFFFFFFFFFFFFFFFFFFFFE0 DUP2 DUP5 SUB ADD DUP2 MSTORE SWAP2 DUP2 MSTORE PUSH1 0x20 DUP3 ADD DUP1 MLOAD PUSH28 0xFFFFFFFFFFFFFFFFFFFFFFFFFFFFFFFFFFFFFFFFFFFFFFFFFFFFFFFF AND PUSH32 0x941AC60700000000000000000000000000000000000000000000000000000000 OR SWAP1 MSTORE MLOAD PUSH2 0x3F4 SWAP2 SWAP1 PUSH2 0xED5 JUMP JUMPDEST PUSH1 0x0 PUSH1 0x40 MLOAD DUP1 DUP4 SUB DUP2 DUP6 GAS DELEGATECALL SWAP2 POP POP RETURNDATASIZE DUP1 PUSH1 0x0 DUP2 EQ PUSH2 0x42F JUMPI PUSH1 0x40 MLOAD SWAP2 POP PUSH1 0x1F NOT PUSH1 0x3F RETURNDATASIZE ADD AND DUP3 ADD PUSH1 0x40 MSTORE RETURNDATASIZE DUP3 MSTORE RETURNDATASIZE PUSH1 0x0 PUSH1 0x20 DUP5 ADD RETURNDATACOPY PUSH2 0x434 JUMP JUMPDEST PUSH1 0x60 SWAP2 POP JUMPDEST POP POP PUSH1 0x0 PUSH1 0x1 DUP2 SWAP1 SSTORE PUSH1 0x2 DUP2 SWAP1 SSTORE PUSH1 0x3 DUP2 SWAP1 SSTORE PUSH1 0x4 DUP2 SWAP1 SSTORE PUSH1 0x40 MLOAD SWAP1 SWAP3 POP ADDRESS SWAP2 POP PUSH2 0x469 SWAP1 DUP8 SWAP1 DUP8 SWAP1 DUP8 SWAP1 DUP8 SWAP1 PUSH1 0x24 ADD PUSH2 0xF10 JUMP JUMPDEST PUSH1 0x40 DUP1 MLOAD PUSH32 0xFFFFFFFFFFFFFFFFFFFFFFFFFFFFFFFFFFFFFFFFFFFFFFFFFFFFFFFFFFFFFFE0 DUP2 DUP5 SUB ADD DUP2 MSTORE SWAP2 DUP2 MSTORE PUSH1 0x20 DUP3 ADD DUP1 MLOAD PUSH28 0xFFFFFFFFFFFFFFFFFFFFFFFFFFFFFFFFFFFFFFFFFFFFFFFFFFFFFFFF AND PUSH32 0x4ABCC5D500000000000000000000000000000000000000000000000000000000 OR SWAP1 MSTORE MLOAD PUSH2 0x4EA SWAP2 SWAP1 PUSH2 0xED5 JUMP JUMPDEST PUSH1 0x0 PUSH1 0x40 MLOAD DUP1 DUP4 SUB DUP2 DUP6 GAS DELEGATECALL SWAP2 POP POP RETURNDATASIZE DUP1 PUSH1 0x0 DUP2 EQ PUSH2 0x525 JUMPI PUSH1 0x40 MLOAD SWAP2 POP PUSH1 0x1F NOT PUSH1 0x3F RETURNDATASIZE ADD AND DUP3 ADD PUSH1 0x40 MSTORE RETURNDATASIZE DUP3 MSTORE RETURNDATASIZE PUSH1 0x0 PUSH1 0x20 DUP5 ADD RETURNDATACOPY PUSH2 0x52A JUMP JUMPDEST PUSH1 0x60 SWAP2 POP JUMPDEST POP POP POP PUSH32 0x0 PUSH1 0x1 PUSH1 0x1 PUSH1 0xA0 SHL SUB AND SELFDESTRUCT JUMPDEST CALLER PUSH1 0x1 PUSH1 0x1 PUSH1 0xA0 SHL SUB PUSH32 0x0 AND EQ PUSH2 0x58E JUMPI PUSH1 0x0 DUP1 REVERT JUMPDEST PUSH1 0x5 SLOAD ISZERO PUSH2 0x59B JUMPI PUSH1 0x0 DUP1 REVERT JUMPDEST PUSH1 0x0 DUP1 SLOAD PUSH32 0xFFFFFFFFFFFFFFFFFFFFFFFF0000000000000000000000000000000000000000 AND PUSH1 0x1 PUSH1 0x1 PUSH1 0xA0 SHL SUB SWAP7 SWAP1 SWAP7 AND SWAP6 SWAP1 SWAP6 OR SWAP1 SWAP5 SSTORE PUSH1 0x1 SWAP3 DUP4 SSTORE PUSH1 0x2 SWAP2 SWAP1 SWAP2 SSTORE PUSH1 0x3 SSTORE PUSH1 0x4 SWAP2 SWAP1 SWAP2 SSTORE PUSH1 0x5 SSTORE JUMP JUMPDEST CALLER PUSH1 0x1 PUSH1 0x1 PUSH1 0xA0 SHL SUB PUSH32 0x0 AND EQ PUSH2 0x622 JUMPI PUSH1 0x0 DUP1 REVERT JUMPDEST PUSH1 0x4 SSTORE JUMP JUMPDEST CALLER PUSH1 0x1 PUSH1 0x1 PUSH1 0xA0 SHL SUB PUSH32 0x0 AND EQ PUSH2 0x65C JUMPI PUSH1 0x0 DUP1 REVERT JUMPDEST PUSH1 0x3 SSTORE JUMP JUMPDEST PUSH1 0x0 SLOAD PUSH1 0x1 PUSH1 0x1 PUSH1 0xA0 SHL SUB AND CALLER EQ PUSH2 0x678 JUMPI PUSH1 0x0 DUP1 REVERT JUMPDEST PUSH1 0x0 DUP1 SLOAD PUSH32 0xFFFFFFFFFFFFFFFFFFFFFFFF0000000000000000000000000000000000000000 AND PUSH1 0x1 PUSH1 0x1 PUSH1 0xA0 SHL SUB SWAP3 SWAP1 SWAP3 AND SWAP2 SWAP1 SWAP2 OR SWAP1 SSTORE JUMP JUMPDEST PUSH1 0x0 DUP1 SLOAD PUSH1 0x40 DUP1 MLOAD PUSH32 0x3F0A079700000000000000000000000000000000000000000000000000000000 DUP2 MSTORE SWAP1 MLOAD PUSH1 0x1 PUSH1 0x1 PUSH1 0xA0 SHL SUB SWAP1 SWAP3 AND SWAP2 CALLER SWAP2 DUP4 SWAP2 PUSH4 0x3F0A0797 SWAP2 PUSH1 0x4 DUP1 DUP3 ADD SWAP3 PUSH1 0x20 SWAP3 SWAP1 SWAP2 SWAP1 DUP3 SWAP1 SUB ADD DUP2 DUP7 GAS STATICCALL ISZERO DUP1 ISZERO PUSH2 0x71A JUMPI RETURNDATASIZE PUSH1 0x0 DUP1 RETURNDATACOPY RETURNDATASIZE PUSH1 0x0 REVERT JUMPDEST POP POP POP POP PUSH1 0x40 MLOAD RETURNDATASIZE PUSH1 0x1F NOT PUSH1 0x1F DUP3 ADD AND DUP3 ADD DUP1 PUSH1 0x40 MSTORE POP DUP2 ADD SWAP1 PUSH2 0x73E SWAP2 SWAP1 PUSH2 0xFAD JUMP JUMPDEST PUSH1 0x1 PUSH1 0x1 PUSH1 0xA0 SHL SUB AND EQ PUSH2 0x751 JUMPI PUSH1 0x0 DUP1 REVERT JUMPDEST PUSH1 0x0 PUSH2 0x75B PUSH2 0x9E6 JUMP JUMPDEST SWAP1 POP DUP4 PUSH1 0x0 SUB PUSH2 0x77F JUMPI DUP1 PUSH1 0x2 SLOAD PUSH2 0x773 SWAP2 SWAP1 PUSH2 0xFF9 JUMP JUMPDEST PUSH1 0x2 DUP2 SWAP1 SSTORE SWAP3 POP PUSH2 0x88B JUMP JUMPDEST DUP4 PUSH1 0x1 SUB PUSH2 0x88B JUMPI PUSH1 0x2 SLOAD PUSH2 0x794 SWAP1 DUP3 PUSH2 0xFF9 JUMP JUMPDEST SWAP3 POP DUP2 PUSH1 0x1 PUSH1 0x1 PUSH1 0xA0 SHL SUB AND PUSH4 0xDA8909E5 PUSH1 0x40 MLOAD DUP2 PUSH4 0xFFFFFFFF AND PUSH1 0xE0 SHL DUP2 MSTORE PUSH1 0x4 ADD PUSH1 0x20 PUSH1 0x40 MLOAD DUP1 DUP4 SUB DUP2 DUP7 GAS STATICCALL ISZERO DUP1 ISZERO PUSH2 0x7D4 JUMPI RETURNDATASIZE PUSH1 0x0 DUP1 RETURNDATACOPY RETURNDATASIZE PUSH1 0x0 REVERT JUMPDEST POP POP POP POP PUSH1 0x40 MLOAD RETURNDATASIZE PUSH1 0x1F NOT PUSH1 0x1F DUP3 ADD AND DUP3 ADD DUP1 PUSH1 0x40 MSTORE POP DUP2 ADD SWAP1 PUSH2 0x7F8 SWAP2 SWAP1 PUSH2 0xFAD JUMP JUMPDEST PUSH1 0x40 MLOAD PUSH32 0x990DC9DB00000000000000000000000000000000000000000000000000000000 DUP2 MSTORE ADDRESS PUSH1 0x4 DUP3 ADD MSTORE PUSH1 0x24 DUP2 ADD DUP6 SWAP1 MSTORE PUSH1 0x1 PUSH1 0x1 PUSH1 0xA0 SHL SUB SWAP2 SWAP1 SWAP2 AND SWAP1 PUSH4 0x990DC9DB SWAP1 PUSH1 0x44 ADD PUSH1 0x20 PUSH1 0x40 MLOAD DUP1 DUP4 SUB DUP2 PUSH1 0x0 DUP8 GAS CALL ISZERO DUP1 ISZERO PUSH2 0x860 JUMPI RETURNDATASIZE PUSH1 0x0 DUP1 RETURNDATACOPY RETURNDATASIZE PUSH1 0x0 REVERT JUMPDEST POP POP POP POP PUSH1 0x40 MLOAD RETURNDATASIZE PUSH1 0x1F NOT PUSH1 0x1F DUP3 ADD AND DUP3 ADD DUP1 PUSH1 0x40 MSTORE POP DUP2 ADD SWAP1 PUSH2 0x884 SWAP2 SWAP1 PUSH2 0x1011 JUMP JUMPDEST POP PUSH1 0x0 PUSH1 0x2 SSTORE JUMPDEST POP POP SWAP2 SWAP1 POP JUMP JUMPDEST CALLER PUSH1 0x1 PUSH1 0x1 PUSH1 0xA0 SHL SUB PUSH32 0x0 AND EQ PUSH2 0x8C7 JUMPI PUSH1 0x0 DUP1 REVERT JUMPDEST PUSH32 0x0 PUSH1 0x0 JUMPDEST DUP3 DUP2 LT ISZERO PUSH2 0x9DE JUMPI DUP6 DUP6 DUP3 DUP2 DUP2 LT PUSH2 0x905 JUMPI PUSH2 0x905 PUSH2 0x1033 JUMP JUMPDEST SWAP1 POP PUSH1 0x20 MUL ADD PUSH1 0x20 DUP2 ADD SWAP1 PUSH2 0x91A SWAP2 SWAP1 PUSH2 0xE45 JUMP JUMPDEST PUSH1 0x1 PUSH1 0x1 PUSH1 0xA0 SHL SUB AND PUSH4 0xA9059CBB DUP4 DUP7 DUP7 DUP6 DUP2 DUP2 LT PUSH2 0x93B JUMPI PUSH2 0x93B PUSH2 0x1033 JUMP JUMPDEST PUSH1 0x40 MLOAD PUSH32 0xFFFFFFFF00000000000000000000000000000000000000000000000000000000 PUSH1 0xE0 DUP8 SWAP1 SHL AND DUP2 MSTORE PUSH1 0x1 PUSH1 0x1 PUSH1 0xA0 SHL SUB SWAP1 SWAP5 AND PUSH1 0x4 DUP6 ADD MSTORE PUSH1 0x20 MUL SWAP2 SWAP1 SWAP2 ADD CALLDATALOAD PUSH1 0x24 DUP4 ADD MSTORE POP PUSH1 0x44 ADD PUSH1 0x20 PUSH1 0x40 MLOAD DUP1 DUP4 SUB DUP2 PUSH1 0x0 DUP8 GAS CALL ISZERO DUP1 ISZERO PUSH2 0x9A7 JUMPI RETURNDATASIZE PUSH1 0x0 DUP1 RETURNDATACOPY RETURNDATASIZE PUSH1 0x0 REVERT JUMPDEST POP POP POP POP PUSH1 0x40 MLOAD RETURNDATASIZE PUSH1 0x1F NOT PUSH1 0x1F DUP3 ADD AND DUP3 ADD DUP1 PUSH1 0x40 MSTORE POP DUP2 ADD SWAP1 PUSH2 0x9CB SWAP2 SWAP1 PUSH2 0x1011 JUMP JUMPDEST POP DUP1 PUSH2 0x9D6 DUP2 PUSH2 0x1062 JUMP JUMPDEST SWAP2 POP POP PUSH2 0x8EB JUMP JUMPDEST POP POP POP POP POP POP JUMP JUMPDEST PUSH1 0x1 SLOAD PUSH1 0x0 SWAP1 DUP2 SWAP1 TIMESTAMP DUP2 SUB PUSH2 0x9FE JUMPI PUSH1 0x0 SWAP3 POP POP POP SWAP1 JUMP JUMPDEST PUSH1 0x0 PUSH2 0xA0A DUP3 TIMESTAMP PUSH2 0x109A JUMP JUMPDEST SWAP1 POP PUSH1 0x0 PUSH1 0x4 SLOAD SWAP1 POP PUSH1 0x0 DUP1 SLOAD SWAP1 PUSH2 0x100 EXP SWAP1 DIV PUSH1 0x1 PUSH1 0x1 PUSH1 0xA0 SHL SUB AND PUSH1 0x1 PUSH1 0x1 PUSH1 0xA0 SHL SUB AND PUSH4 0x11CE0267 PUSH1 0x40 MLOAD DUP2 PUSH4 0xFFFFFFFF AND PUSH1 0xE0 SHL DUP2 MSTORE PUSH1 0x4 ADD PUSH1 0x20 PUSH1 0x40 MLOAD DUP1 DUP4 SUB DUP2 DUP7 GAS STATICCALL ISZERO DUP1 ISZERO PUSH2 0xA64 JUMPI RETURNDATASIZE PUSH1 0x0 DUP1 RETURNDATACOPY RETURNDATASIZE PUSH1 0x0 REVERT JUMPDEST POP POP POP POP PUSH1 0x40 MLOAD RETURNDATASIZE PUSH1 0x1F NOT PUSH1 0x1F DUP3 ADD AND DUP3 ADD DUP1 PUSH1 0x40 MSTORE POP DUP2 ADD SWAP1 PUSH2 0xA88 SWAP2 SWAP1 PUSH2 0xFAD JUMP JUMPDEST SWAP4 POP PUSH1 0x0 DUP5 PUSH1 0x1 PUSH1 0x1 PUSH1 0xA0 SHL SUB AND PUSH4 0x52FD856B PUSH1 0x40 MLOAD DUP2 PUSH4 0xFFFFFFFF AND PUSH1 0xE0 SHL DUP2 MSTORE PUSH1 0x4 ADD PUSH1 0x20 PUSH1 0x40 MLOAD DUP1 DUP4 SUB DUP2 DUP7 GAS STATICCALL ISZERO DUP1 ISZERO PUSH2 0xACA JUMPI RETURNDATASIZE PUSH1 0x0 DUP1 RETURNDATACOPY RETURNDATASIZE PUSH1 0x0 REVERT JUMPDEST POP POP POP POP PUSH1 0x40 MLOAD RETURNDATASIZE PUSH1 0x1F NOT PUSH1 0x1F DUP3 ADD AND DUP3 ADD DUP1 PUSH1 0x40 MSTORE POP DUP2 ADD SWAP1 PUSH2 0xAEE SWAP2 SWAP1 PUSH2 0x10B1 JUMP JUMPDEST SWAP1 POP PUSH1 0x18 PUSH8 0xDE0B6B3A7640000 DUP4 DUP2 DUP2 DUP2 DUP2 DUP2 DUP2 PUSH2 0xB0D PUSH1 0x3 DUP14 PUSH2 0x109A JUMP JUMPDEST PUSH2 0xB18 PUSH1 0x2 DUP15 PUSH2 0x109A JUMP JUMPDEST PUSH2 0xB23 PUSH1 0x1 DUP16 PUSH2 0x109A JUMP JUMPDEST PUSH2 0xB2D DUP16 DUP15 PUSH2 0x10CA JUMP JUMPDEST PUSH2 0xB37 SWAP2 SWAP1 PUSH2 0x10CA JUMP JUMPDEST PUSH2 0xB41 SWAP2 SWAP1 PUSH2 0x10CA JUMP JUMPDEST PUSH2 0xB4B SWAP2 SWAP1 PUSH2 0x10CA JUMP JUMPDEST PUSH2 0xB55 SWAP2 SWAP1 PUSH2 0x10CA JUMP JUMPDEST PUSH2 0xB5F SWAP2 SWAP1 PUSH2 0x1107 JUMP JUMPDEST PUSH2 0xB69 SWAP2 SWAP1 PUSH2 0x10CA JUMP JUMPDEST PUSH2 0xB73 SWAP2 SWAP1 PUSH2 0x1107 JUMP JUMPDEST PUSH2 0xB7D SWAP2 SWAP1 PUSH2 0x10CA JUMP JUMPDEST PUSH2 0xB87 SWAP2 SWAP1 PUSH2 0x1107 JUMP JUMPDEST PUSH2 0xB91 SWAP2 SWAP1 PUSH2 0x10CA JUMP JUMPDEST PUSH2 0xB9B SWAP2 SWAP1 PUSH2 0x1107 JUMP JUMPDEST PUSH2 0xBA5 SWAP2 SWAP1 PUSH2 0x1107 JUMP JUMPDEST PUSH15 0xC097CE7BC90715B34B9F1000000000 PUSH1 0x6 DUP5 PUSH8 0xDE0B6B3A7640000 DUP2 DUP1 PUSH2 0xBCE PUSH1 0x2 DUP12 PUSH2 0x109A JUMP JUMPDEST PUSH2 0xBD9 PUSH1 0x1 DUP13 PUSH2 0x109A JUMP JUMPDEST PUSH2 0xBE3 SWAP1 DUP13 PUSH2 0x10CA JUMP JUMPDEST PUSH2 0xBED SWAP2 SWAP1 PUSH2 0x10CA JUMP JUMPDEST PUSH2 0xBF7 SWAP2 SWAP1 PUSH2 0x10CA JUMP JUMPDEST PUSH2 0xC01 SWAP2 SWAP1 PUSH2 0x10CA JUMP JUMPDEST PUSH2 0xC0B SWAP2 SWAP1 PUSH2 0x1107 JUMP JUMPDEST PUSH2 0xC15 SWAP2 SWAP1 PUSH2 0x10CA JUMP JUMPDEST PUSH2 0xC1F SWAP2 SWAP1 PUSH2 0x1107 JUMP JUMPDEST PUSH2 0xC29 SWAP1 DUP5 PUSH2 0x10CA JUMP JUMPDEST PUSH2 0xC33 SWAP2 SWAP1 PUSH2 0x1107 JUMP JUMPDEST PUSH15 0xC097CE7BC90715B34B9F1000000000 PUSH1 0x2 DUP6 DUP1 PUSH2 0xC52 PUSH1 0x1 DUP11 PUSH2 0x109A JUMP JUMPDEST PUSH2 0xC5C SWAP1 DUP11 PUSH2 0x10CA JUMP JUMPDEST PUSH2 0xC66 SWAP2 SWAP1 PUSH2 0x10CA JUMP JUMPDEST PUSH2 0xC70 SWAP2 SWAP1 PUSH2 0x10CA JUMP JUMPDEST PUSH2 0xC7A SWAP2 SWAP1 PUSH2 0x1107 JUMP JUMPDEST PUSH2 0xC84 SWAP1 DUP6 PUSH2 0x10CA JUMP JUMPDEST PUSH2 0xC8E SWAP2 SWAP1 PUSH2 0x1107 JUMP JUMPDEST PUSH8 0xDE0B6B3A7640000 PUSH2 0xCA1 DUP7 DUP9 PUSH2 0x10CA JUMP JUMPDEST PUSH2 0xCB3 SWAP1 PUSH8 0xDE0B6B3A7640000 PUSH2 0x109A JUMP JUMPDEST PUSH2 0xCC5 SWAP1 PUSH8 0xDE0B6B3A7640000 PUSH2 0x109A JUMP JUMPDEST PUSH2 0xCCF SWAP1 DUP7 PUSH2 0x10CA JUMP JUMPDEST PUSH2 0xCD9 SWAP2 SWAP1 PUSH2 0x1107 JUMP JUMPDEST PUSH2 0xCE3 SWAP2 SWAP1 PUSH2 0x109A JUMP JUMPDEST PUSH2 0xCED SWAP2 SWAP1 PUSH2 0xFF9 JUMP JUMPDEST PUSH2 0xCF7 SWAP2 SWAP1 PUSH2 0x109A JUMP JUMPDEST SWAP6 POP POP POP POP POP POP SWAP1 JUMP JUMPDEST PUSH1 0x1 PUSH1 0x1 PUSH1 0xA0 SHL SUB DUP2 AND DUP2 EQ PUSH2 0xD16 JUMPI PUSH1 0x0 DUP1 REVERT JUMPDEST POP JUMP JUMPDEST PUSH1 0x0 DUP1 DUP4 PUSH1 0x1F DUP5 ADD SLT PUSH2 0xD2B JUMPI PUSH1 0x0 DUP1 REVERT JUMPDEST POP DUP2 CALLDATALOAD PUSH8 0xFFFFFFFFFFFFFFFF DUP2 GT ISZERO PUSH2 0xD43 JUMPI PUSH1 0x0 DUP1 REVERT JUMPDEST PUSH1 0x20 DUP4 ADD SWAP2 POP DUP4 PUSH1 0x20 DUP3 PUSH1 0x5 SHL DUP6 ADD ADD GT ISZERO PUSH2 0xD5E JUMPI PUSH1 0x0 DUP1 REVERT JUMPDEST SWAP3 POP SWAP3 SWAP1 POP JUMP JUMPDEST PUSH1 0x0 DUP1 PUSH1 0x0 DUP1 PUSH1 0x0 PUSH1 0x60 DUP7 DUP9 SUB SLT ISZERO PUSH2 0xD7D JUMPI PUSH1 0x0 DUP1 REVERT JUMPDEST DUP6 CALLDATALOAD PUSH2 0xD88 DUP2 PUSH2 0xD01 JUMP JUMPDEST SWAP5 POP PUSH1 0x20 DUP7 ADD CALLDATALOAD PUSH8 0xFFFFFFFFFFFFFFFF DUP1 DUP3 GT ISZERO PUSH2 0xDA5 JUMPI PUSH1 0x0 DUP1 REVERT JUMPDEST PUSH2 0xDB1 DUP10 DUP4 DUP11 ADD PUSH2 0xD19 JUMP JUMPDEST SWAP1 SWAP7 POP SWAP5 POP PUSH1 0x40 DUP9 ADD CALLDATALOAD SWAP2 POP DUP1 DUP3 GT ISZERO PUSH2 0xDCA JUMPI PUSH1 0x0 DUP1 REVERT JUMPDEST POP PUSH2 0xDD7 DUP9 DUP3 DUP10 ADD PUSH2 0xD19 JUMP JUMPDEST SWAP7 SWAP10 SWAP6 SWAP9 POP SWAP4 SWAP7 POP SWAP3 SWAP5 SWAP4 SWAP3 POP POP POP JUMP JUMPDEST PUSH1 0x0 DUP1 PUSH1 0x0 DUP1 PUSH1 0x0 PUSH1 0xA0 DUP7 DUP9 SUB SLT ISZERO PUSH2 0xE00 JUMPI PUSH1 0x0 DUP1 REVERT JUMPDEST DUP6 CALLDATALOAD PUSH2 0xE0B DUP2 PUSH2 0xD01 JUMP JUMPDEST SWAP8 PUSH1 0x20 DUP8 ADD CALLDATALOAD SWAP8 POP PUSH1 0x40 DUP8 ADD CALLDATALOAD SWAP7 PUSH1 0x60 DUP2 ADD CALLDATALOAD SWAP7 POP PUSH1 0x80 ADD CALLDATALOAD SWAP5 POP SWAP3 POP POP POP JUMP JUMPDEST PUSH1 0x0 PUSH1 0x20 DUP3 DUP5 SUB SLT ISZERO PUSH2 0xE3E JUMPI PUSH1 0x0 DUP1 REVERT JUMPDEST POP CALLDATALOAD SWAP2 SWAP1 POP JUMP JUMPDEST PUSH1 0x0 PUSH1 0x20 DUP3 DUP5 SUB SLT ISZERO PUSH2 0xE57 JUMPI PUSH1 0x0 DUP1 REVERT JUMPDEST DUP2 CALLDATALOAD PUSH2 0xE62 DUP2 PUSH2 0xD01 JUMP JUMPDEST SWAP4 SWAP3 POP POP POP JUMP JUMPDEST PUSH1 0x0 DUP1 PUSH1 0x0 DUP1 PUSH1 0x40 DUP6 DUP8 SUB SLT ISZERO PUSH2 0xE7F JUMPI PUSH1 0x0 DUP1 REVERT JUMPDEST DUP5 CALLDATALOAD PUSH8 0xFFFFFFFFFFFFFFFF DUP1 DUP3 GT ISZERO PUSH2 0xE97 JUMPI PUSH1 0x0 DUP1 REVERT JUMPDEST PUSH2 0xEA3 DUP9 DUP4 DUP10 ADD PUSH2 0xD19 JUMP JUMPDEST SWAP1 SWAP7 POP SWAP5 POP PUSH1 0x20 DUP8 ADD CALLDATALOAD SWAP2 POP DUP1 DUP3 GT ISZERO PUSH2 0xEBC JUMPI PUSH1 0x0 DUP1 REVERT JUMPDEST POP PUSH2 0xEC9 DUP8 DUP3 DUP9 ADD PUSH2 0xD19 JUMP JUMPDEST SWAP6 SWAP9 SWAP5 SWAP8 POP SWAP6 POP POP POP POP JUMP JUMPDEST PUSH1 0x0 DUP3 MLOAD PUSH1 0x0 JUMPDEST DUP2 DUP2 LT ISZERO PUSH2 0xEF6 JUMPI PUSH1 0x20 DUP2 DUP7 ADD DUP2 ADD MLOAD DUP6 DUP4 ADD MSTORE ADD PUSH2 0xEDC JUMP JUMPDEST DUP2 DUP2 GT ISZERO PUSH2 0xF05 JUMPI PUSH1 0x0 DUP3 DUP6 ADD MSTORE JUMPDEST POP SWAP2 SWAP1 SWAP2 ADD SWAP3 SWAP2 POP POP JUMP JUMPDEST PUSH1 0x40 DUP1 DUP3 MSTORE DUP2 ADD DUP5 SWAP1 MSTORE PUSH1 0x0 DUP6 PUSH1 0x60 DUP4 ADD DUP3 JUMPDEST DUP8 DUP2 LT ISZERO PUSH2 0xF53 JUMPI DUP3 CALLDATALOAD PUSH2 0xF36 DUP2 PUSH2 0xD01 JUMP JUMPDEST PUSH1 0x1 PUSH1 0x1 PUSH1 0xA0 SHL SUB AND DUP3 MSTORE PUSH1 0x20 SWAP3 DUP4 ADD SWAP3 SWAP1 SWAP2 ADD SWAP1 PUSH1 0x1 ADD PUSH2 0xF23 JUMP JUMPDEST POP DUP4 DUP2 SUB PUSH1 0x20 DUP6 ADD MSTORE DUP5 DUP2 MSTORE PUSH32 0x7FFFFFFFFFFFFFFFFFFFFFFFFFFFFFFFFFFFFFFFFFFFFFFFFFFFFFFFFFFFFFF DUP6 GT ISZERO PUSH2 0xF8C JUMPI PUSH1 0x0 DUP1 REVERT JUMPDEST DUP5 PUSH1 0x5 SHL SWAP2 POP DUP2 DUP7 PUSH1 0x20 DUP4 ADD CALLDATACOPY PUSH1 0x0 SWAP2 ADD PUSH1 0x20 ADD SWAP1 DUP2 MSTORE SWAP7 SWAP6 POP POP POP POP POP POP JUMP JUMPDEST PUSH1 0x0 PUSH1 0x20 DUP3 DUP5 SUB SLT ISZERO PUSH2 0xFBF JUMPI PUSH1 0x0 DUP1 REVERT JUMPDEST DUP2 MLOAD PUSH2 0xE62 DUP2 PUSH2 0xD01 JUMP JUMPDEST PUSH32 0x4E487B7100000000000000000000000000000000000000000000000000000000 PUSH1 0x0 MSTORE PUSH1 0x11 PUSH1 0x4 MSTORE PUSH1 0x24 PUSH1 0x0 REVERT JUMPDEST PUSH1 0x0 DUP3 NOT DUP3 GT ISZERO PUSH2 0x100C JUMPI PUSH2 0x100C PUSH2 0xFCA JUMP JUMPDEST POP ADD SWAP1 JUMP JUMPDEST PUSH1 0x0 PUSH1 0x20 DUP3 DUP5 SUB SLT ISZERO PUSH2 0x1023 JUMPI PUSH1 0x0 DUP1 REVERT JUMPDEST DUP2 MLOAD DUP1 ISZERO ISZERO DUP2 EQ PUSH2 0xE62 JUMPI PUSH1 0x0 DUP1 REVERT JUMPDEST PUSH32 0x4E487B7100000000000000000000000000000000000000000000000000000000 PUSH1 0x0 MSTORE PUSH1 0x32 PUSH1 0x4 MSTORE PUSH1 0x24 PUSH1 0x0 REVERT JUMPDEST PUSH1 0x0 PUSH32 0xFFFFFFFFFFFFFFFFFFFFFFFFFFFFFFFFFFFFFFFFFFFFFFFFFFFFFFFFFFFFFFFF DUP3 SUB PUSH2 0x1093 JUMPI PUSH2 0x1093 PUSH2 0xFCA JUMP JUMPDEST POP PUSH1 0x1 ADD SWAP1 JUMP JUMPDEST PUSH1 0x0 DUP3 DUP3 LT ISZERO PUSH2 0x10AC JUMPI PUSH2 0x10AC PUSH2 0xFCA JUMP JUMPDEST POP SUB SWAP1 JUMP JUMPDEST PUSH1 0x0 PUSH1 0x20 DUP3 DUP5 SUB SLT ISZERO PUSH2 0x10C3 JUMPI PUSH1 0x0 DUP1 REVERT JUMPDEST POP MLOAD SWAP2 SWAP1 POP JUMP JUMPDEST PUSH1 0x0 DUP2 PUSH32 0xFFFFFFFFFFFFFFFFFFFFFFFFFFFFFFFFFFFFFFFFFFFFFFFFFFFFFFFFFFFFFFFF DIV DUP4 GT DUP3 ISZERO ISZERO AND ISZERO PUSH2 0x1102 JUMPI PUSH2 0x1102 PUSH2 0xFCA JUMP JUMPDEST POP MUL SWAP1 JUMP JUMPDEST PUSH1 0x0 DUP3 PUSH2 0x113D JUMPI PUSH32 0x4E487B7100000000000000000000000000000000000000000000000000000000 PUSH1 0x0 MSTORE PUSH1 0x12 PUSH1 0x4 MSTORE PUSH1 0x24 PUSH1 0x0 REVERT JUMPDEST POP DIV SWAP1 JUMP INVALID LOG2 PUSH5 0x6970667358 0x22 SLT KECCAK256 SWAP7 SHR SDIV 0xF SLOAD GASPRICE 0xAE SWAP6 0xA7 0x4C 0xA5 0xD1 CALLCODE MSTORE8 0xE5 PUSH15 0x1C358812B49D2CF43C85B0842C5544 MSIZE PUSH5 0x736F6C6343 STOP ADDMOD 0xE STOP CALLER "
				},
				"gasEstimates": {
					"creation": {
						"codeDepositCost": "894400",
						"executionCost": "infinite",
						"totalCost": "infinite"
					},
					"external": {
						"": "169",
						"accumCommission()": "2307",
						"collectCommission(address[],uint256[])": "infinite",
						"deleteContract(address,address[],uint256[])": "infinite",
						"feeYear()": "2308",
						"initContract(address,uint256,uint256,uint256,uint256)": "infinite",
						"initDone()": "2372",
						"lastUpdated()": "2306",
						"payComissions(uint256)": "infinite",
						"proxy()": "2381",
						"r()": "2329",
						"setFeeYear(uint256)": "infinite",
						"setR(uint256)": "infinite",
						"updateProxy(address)": "26735"
					},
					"internal": {
						"computeCommission()": "infinite"
					}
				},
				"methodIdentifiers": {
					"accumCommission()": "7f8483a4",
					"collectCommission(address[],uint256[])": "fc693786",
					"deleteContract(address,address[],uint256[])": "1d69b196",
					"feeYear()": "13ab7042",
					"initContract(address,uint256,uint256,uint256,uint256)": "37799661",
					"initDone()": "fed0a20e",
					"lastUpdated()": "d0b06f5d",
					"payComissions(uint256)": "bdedd45e",
					"proxy()": "ec556889",
					"r()": "6c8ae38c",
					"setFeeYear(uint256)": "75450f1b",
					"setR(uint256)": "674eb5ac",
					"updateProxy(address)": "9e955149"
				}
			},
			"storageLayout": {
				"storage": [
					{
						"astId": 387,
						"contract": "TFGv3/Contracts/SCCommission.sol:SCCommission",
						"label": "proxy",
						"offset": 0,
						"slot": "0",
						"type": "t_address"
					},
					{
						"astId": 389,
						"contract": "TFGv3/Contracts/SCCommission.sol:SCCommission",
						"label": "lastUpdated",
						"offset": 0,
						"slot": "1",
						"type": "t_uint256"
					},
					{
						"astId": 391,
						"contract": "TFGv3/Contracts/SCCommission.sol:SCCommission",
						"label": "accumCommission",
						"offset": 0,
						"slot": "2",
						"type": "t_uint256"
					},
					{
						"astId": 393,
						"contract": "TFGv3/Contracts/SCCommission.sol:SCCommission",
						"label": "feeYear",
						"offset": 0,
						"slot": "3",
						"type": "t_uint256"
					},
					{
						"astId": 395,
						"contract": "TFGv3/Contracts/SCCommission.sol:SCCommission",
						"label": "r",
						"offset": 0,
						"slot": "4",
						"type": "t_uint256"
					},
					{
						"astId": 397,
						"contract": "TFGv3/Contracts/SCCommission.sol:SCCommission",
						"label": "initDone",
						"offset": 0,
						"slot": "5",
						"type": "t_uint256"
					}
				],
				"types": {
					"t_address": {
						"encoding": "inplace",
						"label": "address",
						"numberOfBytes": "20"
					},
					"t_uint256": {
						"encoding": "inplace",
						"label": "uint256",
						"numberOfBytes": "32"
					}
				}
			},
			"userdoc": {
				"kind": "user",
				"methods": {},
				"version": 1
			}
		}
	}
}