{
	"TFGv3/Contracts/SCOps.sol": {
		"SCOps": {
			"abi": [
				{
					"inputs": [],
					"stateMutability": "nonpayable",
					"type": "constructor"
				},
				{
					"stateMutability": "payable",
					"type": "fallback"
				},
				{
					"inputs": [
						{
							"internalType": "address",
							"name": "newContract",
							"type": "address"
						}
					],
					"name": "deleteContract",
					"outputs": [],
					"stateMutability": "nonpayable",
					"type": "function"
				},
				{
					"inputs": [
						{
							"internalType": "address",
							"name": "proxyAddr",
							"type": "address"
						}
					],
					"name": "initContract",
					"outputs": [],
					"stateMutability": "nonpayable",
					"type": "function"
				},
				{
					"inputs": [],
					"name": "initDone",
					"outputs": [
						{
							"internalType": "uint8",
							"name": "",
							"type": "uint8"
						}
					],
					"stateMutability": "view",
					"type": "function"
				},
				{
					"inputs": [],
					"name": "proxy",
					"outputs": [
						{
							"internalType": "address",
							"name": "",
							"type": "address"
						}
					],
					"stateMutability": "view",
					"type": "function"
				},
				{
					"inputs": [
						{
							"internalType": "address",
							"name": "factory",
							"type": "address"
						}
					],
					"name": "setFactory",
					"outputs": [],
					"stateMutability": "nonpayable",
					"type": "function"
				},
				{
					"inputs": [
						{
							"internalType": "address[]",
							"name": "path",
							"type": "address[]"
						},
						{
							"internalType": "uint256",
							"name": "amount",
							"type": "uint256"
						}
					],
					"name": "uniSwap",
					"outputs": [],
					"stateMutability": "nonpayable",
					"type": "function"
				},
				{
					"inputs": [
						{
							"internalType": "address",
							"name": "newAddr",
							"type": "address"
						}
					],
					"name": "updateProxy",
					"outputs": [],
					"stateMutability": "nonpayable",
					"type": "function"
				},
				{
					"inputs": [],
					"name": "v2factory",
					"outputs": [
						{
							"internalType": "address",
							"name": "",
							"type": "address"
						}
					],
					"stateMutability": "view",
					"type": "function"
				},
				{
					"stateMutability": "payable",
					"type": "receive"
				}
			],
			"devdoc": {
				"kind": "dev",
				"methods": {},
				"version": 1
			},
			"evm": {
				"assembly": "    /* \"TFGv3/Contracts/SCOps.sol\":421:2890  contract SCOps is ISCOps... */\n  mstore(0x40, 0xa0)\n    /* \"TFGv3/Contracts/SCOps.sol\":603:659  constructor()... */\n  callvalue\n  dup1\n  iszero\n  tag_1\n  jumpi\n  0x00\n  dup1\n  revert\ntag_1:\n  pop\n    /* \"TFGv3/Contracts/SCOps.sol\":642:652  msg.sender */\n  caller\n    /* \"TFGv3/Contracts/SCOps.sol\":631:652  deployer = msg.sender */\n  0xffffffffffffffffffffffffffffffffffffffff\n  and\n  0x80\n  dup2\n  0xffffffffffffffffffffffffffffffffffffffff\n  and\n  dup2\n  mstore\n  pop\n  pop\n    /* \"TFGv3/Contracts/SCOps.sol\":421:2890  contract SCOps is ISCOps... */\n  mload(0x80)\n  codecopy(0x00, dataOffset(sub_0), dataSize(sub_0))\n  0x00\n  assignImmutable(\"0x8ef666e6fda79053a53004a1b98be61a93ed2779d67f49986ff52dca2c41336b\")\n  return(0x00, dataSize(sub_0))\nstop\n\nsub_0: assembly {\n        /* \"TFGv3/Contracts/SCOps.sol\":421:2890  contract SCOps is ISCOps... */\n      mstore(0x40, 0x80)\n      jumpi(tag_1, lt(calldatasize, 0x04))\n      shr(0xe0, calldataload(0x00))\n      dup1\n      0x9e955149\n      gt\n      tag_11\n      jumpi\n      dup1\n      0x9e955149\n      eq\n      tag_7\n      jumpi\n      dup1\n      0xcf9d4afa\n      eq\n      tag_8\n      jumpi\n      dup1\n      0xec556889\n      eq\n      tag_9\n      jumpi\n      dup1\n      0xfed0a20e\n      eq\n      tag_10\n      jumpi\n      jump(tag_2)\n    tag_11:\n      dup1\n      0x1fa4e970\n      eq\n      tag_3\n      jumpi\n      dup1\n      0x2637a477\n      eq\n      tag_4\n      jumpi\n      dup1\n      0x330807a9\n      eq\n      tag_5\n      jumpi\n      dup1\n      0x5bb47808\n      eq\n      tag_6\n      jumpi\n      jump(tag_2)\n    tag_1:\n      jumpi(tag_2, calldatasize)\n        /* \"TFGv3/Contracts/SCOps.sol\":2806:2814  revert() */\n      0x00\n      dup1\n      revert\n        /* \"TFGv3/Contracts/SCOps.sol\":421:2890  contract SCOps is ISCOps... */\n    tag_2:\n        /* \"TFGv3/Contracts/SCOps.sol\":2873:2881  revert() */\n      0x00\n      dup1\n      revert\n        /* \"TFGv3/Contracts/SCOps.sol\":1181:2228  function uniSwap(address[] calldata path, uint amount) external virtual override OnlyDeployer... */\n    tag_3:\n      callvalue\n      dup1\n      iszero\n      tag_16\n      jumpi\n      0x00\n      dup1\n      revert\n    tag_16:\n      pop\n      tag_17\n      0x04\n      dup1\n      calldatasize\n      sub\n      dup2\n      add\n      swap1\n      tag_18\n      swap2\n      swap1\n      tag_19\n      jump\t// in\n    tag_18:\n      tag_20\n      jump\t// in\n    tag_17:\n      stop\n        /* \"TFGv3/Contracts/SCOps.sol\":2537:2755  function deleteContract(address newContract) external virtual override OnlyDeployer... */\n    tag_4:\n      callvalue\n      dup1\n      iszero\n      tag_21\n      jumpi\n      0x00\n      dup1\n      revert\n    tag_21:\n      pop\n      tag_22\n      0x04\n      dup1\n      calldatasize\n      sub\n      dup2\n      add\n      swap1\n      tag_23\n      swap2\n      swap1\n      tag_24\n      jump\t// in\n    tag_23:\n      tag_25\n      jump\t// in\n    tag_22:\n      stop\n        /* \"TFGv3/Contracts/SCOps.sol\":532:556  address public v2factory */\n    tag_5:\n      callvalue\n      dup1\n      iszero\n      tag_26\n      jumpi\n      0x00\n      dup1\n      revert\n    tag_26:\n      pop\n      tag_27\n      tag_28\n      jump\t// in\n    tag_27:\n      mload(0x40)\n      tag_29\n      swap2\n      swap1\n      tag_30\n      jump\t// in\n    tag_29:\n      mload(0x40)\n      dup1\n      swap2\n      sub\n      swap1\n      return\n        /* \"TFGv3/Contracts/SCOps.sol\":970:1069  function setFactory(address factory) external OnlyDeployer... */\n    tag_6:\n      callvalue\n      dup1\n      iszero\n      tag_31\n      jumpi\n      0x00\n      dup1\n      revert\n    tag_31:\n      pop\n      tag_32\n      0x04\n      dup1\n      calldatasize\n      sub\n      dup2\n      add\n      swap1\n      tag_33\n      swap2\n      swap1\n      tag_24\n      jump\t// in\n    tag_33:\n      tag_34\n      jump\t// in\n    tag_32:\n      stop\n        /* \"TFGv3/Contracts/SCOps.sol\":2376:2527  function updateProxy(address newAddr) external virtual override OnlyDeployer... */\n    tag_7:\n      callvalue\n      dup1\n      iszero\n      tag_35\n      jumpi\n      0x00\n      dup1\n      revert\n    tag_35:\n      pop\n      tag_36\n      0x04\n      dup1\n      calldatasize\n      sub\n      dup2\n      add\n      swap1\n      tag_37\n      swap2\n      swap1\n      tag_24\n      jump\t// in\n    tag_37:\n      tag_38\n      jump\t// in\n    tag_36:\n      stop\n        /* \"TFGv3/Contracts/SCOps.sol\":838:964  function initContract(address proxyAddr) external virtual override OnlyDeployer NonInit... */\n    tag_8:\n      callvalue\n      dup1\n      iszero\n      tag_39\n      jumpi\n      0x00\n      dup1\n      revert\n    tag_39:\n      pop\n      tag_40\n      0x04\n      dup1\n      calldatasize\n      sub\n      dup2\n      add\n      swap1\n      tag_41\n      swap2\n      swap1\n      tag_24\n      jump\t// in\n    tag_41:\n      tag_42\n      jump\t// in\n    tag_40:\n      stop\n        /* \"TFGv3/Contracts/SCOps.sol\":478:498  address public proxy */\n    tag_9:\n      callvalue\n      dup1\n      iszero\n      tag_43\n      jumpi\n      0x00\n      dup1\n      revert\n    tag_43:\n      pop\n      tag_44\n      tag_45\n      jump\t// in\n    tag_44:\n      mload(0x40)\n      tag_46\n      swap2\n      swap1\n      tag_30\n      jump\t// in\n    tag_46:\n      mload(0x40)\n      dup1\n      swap2\n      sub\n      swap1\n      return\n        /* \"TFGv3/Contracts/SCOps.sol\":504:525  uint8 public initDone */\n    tag_10:\n      callvalue\n      dup1\n      iszero\n      tag_47\n      jumpi\n      0x00\n      dup1\n      revert\n    tag_47:\n      pop\n      tag_48\n      tag_49\n      jump\t// in\n    tag_48:\n      mload(0x40)\n      tag_50\n      swap2\n      swap1\n      tag_51\n      jump\t// in\n    tag_50:\n      mload(0x40)\n      dup1\n      swap2\n      sub\n      swap1\n      return\n        /* \"TFGv3/Contracts/SCOps.sol\":1181:2228  function uniSwap(address[] calldata path, uint amount) external virtual override OnlyDeployer... */\n    tag_20:\n        /* \"TFGv3/Contracts/SCOps.sol\":726:734  deployer */\n      immutable(\"0x8ef666e6fda79053a53004a1b98be61a93ed2779d67f49986ff52dca2c41336b\")\n        /* \"TFGv3/Contracts/SCOps.sol\":712:734  msg.sender == deployer */\n      0xffffffffffffffffffffffffffffffffffffffff\n      and\n        /* \"TFGv3/Contracts/SCOps.sol\":712:722  msg.sender */\n      caller\n        /* \"TFGv3/Contracts/SCOps.sol\":712:734  msg.sender == deployer */\n      0xffffffffffffffffffffffffffffffffffffffff\n      and\n      eq\n        /* \"TFGv3/Contracts/SCOps.sol\":704:735  require(msg.sender == deployer) */\n      tag_53\n      jumpi\n      0x00\n      dup1\n      revert\n    tag_53:\n        /* \"TFGv3/Contracts/SCOps.sol\":1289:1304  address factory */\n      0x00\n        /* \"TFGv3/Contracts/SCOps.sol\":1307:1316  v2factory */\n      0x01\n      0x00\n      swap1\n      sload\n      swap1\n      0x0100\n      exp\n      swap1\n      div\n      0xffffffffffffffffffffffffffffffffffffffff\n      and\n        /* \"TFGv3/Contracts/SCOps.sol\":1289:1316  address factory = v2factory */\n      swap1\n      pop\n        /* \"TFGv3/Contracts/SCOps.sol\":1326:1336  uint qtyIn */\n      0x00\n        /* \"TFGv3/Contracts/SCOps.sol\":1339:1345  amount */\n      dup3\n        /* \"TFGv3/Contracts/SCOps.sol\":1326:1345  uint qtyIn = amount */\n      swap1\n      pop\n        /* \"TFGv3/Contracts/SCOps.sol\":1359:1365  uint i */\n      0x00\n        /* \"TFGv3/Contracts/SCOps.sol\":1355:2222  for(uint i = 0; i < path.length-1; i++)... */\n    tag_55:\n        /* \"TFGv3/Contracts/SCOps.sol\":1387:1388  1 */\n      0x01\n        /* \"TFGv3/Contracts/SCOps.sol\":1375:1379  path */\n      dup7\n      dup7\n        /* \"TFGv3/Contracts/SCOps.sol\":1375:1386  path.length */\n      swap1\n      pop\n        /* \"TFGv3/Contracts/SCOps.sol\":1375:1388  path.length-1 */\n      tag_58\n      swap2\n      swap1\n      tag_59\n      jump\t// in\n    tag_58:\n        /* \"TFGv3/Contracts/SCOps.sol\":1371:1372  i */\n      dup2\n        /* \"TFGv3/Contracts/SCOps.sol\":1371:1388  i < path.length-1 */\n      lt\n        /* \"TFGv3/Contracts/SCOps.sol\":1355:2222  for(uint i = 0; i < path.length-1; i++)... */\n      iszero\n      tag_56\n      jumpi\n        /* \"TFGv3/Contracts/SCOps.sol\":1417:1434  address inputPair */\n      0x00\n        /* \"TFGv3/Contracts/SCOps.sol\":1437:1490  UniswapV2Library.pairFor(factory, path[i], path[i+1]) */\n      tag_60\n        /* \"TFGv3/Contracts/SCOps.sol\":1462:1469  factory */\n      dup5\n        /* \"TFGv3/Contracts/SCOps.sol\":1471:1475  path */\n      dup9\n      dup9\n        /* \"TFGv3/Contracts/SCOps.sol\":1476:1477  i */\n      dup6\n        /* \"TFGv3/Contracts/SCOps.sol\":1471:1478  path[i] */\n      dup2\n      dup2\n      lt\n      tag_61\n      jumpi\n      tag_62\n      tag_63\n      jump\t// in\n    tag_62:\n    tag_61:\n      swap1\n      pop\n      0x20\n      mul\n      add\n      0x20\n      dup2\n      add\n      swap1\n      tag_64\n      swap2\n      swap1\n      tag_24\n      jump\t// in\n    tag_64:\n        /* \"TFGv3/Contracts/SCOps.sol\":1480:1484  path */\n      dup10\n      dup10\n        /* \"TFGv3/Contracts/SCOps.sol\":1487:1488  1 */\n      0x01\n        /* \"TFGv3/Contracts/SCOps.sol\":1485:1486  i */\n      dup8\n        /* \"TFGv3/Contracts/SCOps.sol\":1485:1488  i+1 */\n      tag_65\n      swap2\n      swap1\n      tag_66\n      jump\t// in\n    tag_65:\n        /* \"TFGv3/Contracts/SCOps.sol\":1480:1489  path[i+1] */\n      dup2\n      dup2\n      lt\n      tag_67\n      jumpi\n      tag_68\n      tag_63\n      jump\t// in\n    tag_68:\n    tag_67:\n      swap1\n      pop\n      0x20\n      mul\n      add\n      0x20\n      dup2\n      add\n      swap1\n      tag_69\n      swap2\n      swap1\n      tag_24\n      jump\t// in\n    tag_69:\n        /* \"TFGv3/Contracts/SCOps.sol\":1437:1461  UniswapV2Library.pairFor */\n      tag_70\n        /* \"TFGv3/Contracts/SCOps.sol\":1437:1490  UniswapV2Library.pairFor(factory, path[i], path[i+1]) */\n      jump\t// in\n    tag_60:\n        /* \"TFGv3/Contracts/SCOps.sol\":1417:1490  address inputPair = UniswapV2Library.pairFor(factory, path[i], path[i+1]) */\n      swap1\n      pop\n        /* \"TFGv3/Contracts/SCOps.sol\":1505:1519  uint aReserves */\n      0x00\n        /* \"TFGv3/Contracts/SCOps.sol\":1521:1535  uint bReserves */\n      dup1\n        /* \"TFGv3/Contracts/SCOps.sol\":1539:1596  UniswapV2Library.getReserves(factory, path[i], path[i+1]) */\n      tag_71\n        /* \"TFGv3/Contracts/SCOps.sol\":1568:1575  factory */\n      dup7\n        /* \"TFGv3/Contracts/SCOps.sol\":1577:1581  path */\n      dup11\n      dup11\n        /* \"TFGv3/Contracts/SCOps.sol\":1582:1583  i */\n      dup8\n        /* \"TFGv3/Contracts/SCOps.sol\":1577:1584  path[i] */\n      dup2\n      dup2\n      lt\n      tag_72\n      jumpi\n      tag_73\n      tag_63\n      jump\t// in\n    tag_73:\n    tag_72:\n      swap1\n      pop\n      0x20\n      mul\n      add\n      0x20\n      dup2\n      add\n      swap1\n      tag_74\n      swap2\n      swap1\n      tag_24\n      jump\t// in\n    tag_74:\n        /* \"TFGv3/Contracts/SCOps.sol\":1586:1590  path */\n      dup12\n      dup12\n        /* \"TFGv3/Contracts/SCOps.sol\":1593:1594  1 */\n      0x01\n        /* \"TFGv3/Contracts/SCOps.sol\":1591:1592  i */\n      dup10\n        /* \"TFGv3/Contracts/SCOps.sol\":1591:1594  i+1 */\n      tag_75\n      swap2\n      swap1\n      tag_66\n      jump\t// in\n    tag_75:\n        /* \"TFGv3/Contracts/SCOps.sol\":1586:1595  path[i+1] */\n      dup2\n      dup2\n      lt\n      tag_76\n      jumpi\n      tag_77\n      tag_63\n      jump\t// in\n    tag_77:\n    tag_76:\n      swap1\n      pop\n      0x20\n      mul\n      add\n      0x20\n      dup2\n      add\n      swap1\n      tag_78\n      swap2\n      swap1\n      tag_24\n      jump\t// in\n    tag_78:\n        /* \"TFGv3/Contracts/SCOps.sol\":1539:1567  UniswapV2Library.getReserves */\n      tag_79\n        /* \"TFGv3/Contracts/SCOps.sol\":1539:1596  UniswapV2Library.getReserves(factory, path[i], path[i+1]) */\n      jump\t// in\n    tag_71:\n        /* \"TFGv3/Contracts/SCOps.sol\":1504:1596  (uint aReserves, uint bReserves) = UniswapV2Library.getReserves(factory, path[i], path[i+1]) */\n      swap2\n      pop\n      swap2\n      pop\n        /* \"TFGv3/Contracts/SCOps.sol\":1611:1626  uint amount0Out */\n      0x00\n        /* \"TFGv3/Contracts/SCOps.sol\":1640:1655  uint amount1Out */\n      dup1\n        /* \"TFGv3/Contracts/SCOps.sol\":1700:1709  inputPair */\n      dup5\n        /* \"TFGv3/Contracts/SCOps.sol\":1685:1717  IUniswapV2Pair(inputPair).token0 */\n      0xffffffffffffffffffffffffffffffffffffffff\n      and\n      0x0dfe1681\n        /* \"TFGv3/Contracts/SCOps.sol\":1685:1719  IUniswapV2Pair(inputPair).token0() */\n      mload(0x40)\n      dup2\n      0xffffffff\n      and\n      0xe0\n      shl\n      dup2\n      mstore\n      0x04\n      add\n      0x20\n      mload(0x40)\n      dup1\n      dup4\n      sub\n      dup2\n      dup7\n      gas\n      staticcall\n      iszero\n      dup1\n      iszero\n      tag_81\n      jumpi\n      returndatasize\n      0x00\n      dup1\n      returndatacopy\n      revert(0x00, returndatasize)\n    tag_81:\n      pop\n      pop\n      pop\n      pop\n      mload(0x40)\n      returndatasize\n      not(0x1f)\n      0x1f\n      dup3\n      add\n      and\n      dup3\n      add\n      dup1\n      0x40\n      mstore\n      pop\n      dup2\n      add\n      swap1\n      tag_82\n      swap2\n      swap1\n      tag_83\n      jump\t// in\n    tag_82:\n        /* \"TFGv3/Contracts/SCOps.sol\":1674:1719  path[i] == IUniswapV2Pair(inputPair).token0() */\n      0xffffffffffffffffffffffffffffffffffffffff\n      and\n        /* \"TFGv3/Contracts/SCOps.sol\":1674:1678  path */\n      dup12\n      dup12\n        /* \"TFGv3/Contracts/SCOps.sol\":1679:1680  i */\n      dup9\n        /* \"TFGv3/Contracts/SCOps.sol\":1674:1681  path[i] */\n      dup2\n      dup2\n      lt\n      tag_84\n      jumpi\n      tag_85\n      tag_63\n      jump\t// in\n    tag_85:\n    tag_84:\n      swap1\n      pop\n      0x20\n      mul\n      add\n      0x20\n      dup2\n      add\n      swap1\n      tag_86\n      swap2\n      swap1\n      tag_24\n      jump\t// in\n    tag_86:\n        /* \"TFGv3/Contracts/SCOps.sol\":1674:1719  path[i] == IUniswapV2Pair(inputPair).token0() */\n      0xffffffffffffffffffffffffffffffffffffffff\n      and\n      sub\n        /* \"TFGv3/Contracts/SCOps.sol\":1670:2107  if (path[i] == IUniswapV2Pair(inputPair).token0())... */\n      tag_87\n      jumpi\n        /* \"TFGv3/Contracts/SCOps.sol\":1764:1765  0 */\n      0x00\n        /* \"TFGv3/Contracts/SCOps.sol\":1751:1765  amount0Out = 0 */\n      swap2\n      pop\n        /* \"TFGv3/Contracts/SCOps.sol\":1796:1854  UniswapV2Library.getAmountOut(qtyIn, aReserves, bReserves) */\n      tag_88\n        /* \"TFGv3/Contracts/SCOps.sol\":1826:1831  qtyIn */\n      dup8\n        /* \"TFGv3/Contracts/SCOps.sol\":1833:1842  aReserves */\n      dup6\n        /* \"TFGv3/Contracts/SCOps.sol\":1844:1853  bReserves */\n      dup6\n        /* \"TFGv3/Contracts/SCOps.sol\":1796:1825  UniswapV2Library.getAmountOut */\n      tag_89\n        /* \"TFGv3/Contracts/SCOps.sol\":1796:1854  UniswapV2Library.getAmountOut(qtyIn, aReserves, bReserves) */\n      jump\t// in\n    tag_88:\n        /* \"TFGv3/Contracts/SCOps.sol\":1783:1854  amount1Out = UniswapV2Library.getAmountOut(qtyIn, aReserves, bReserves) */\n      swap1\n      pop\n        /* \"TFGv3/Contracts/SCOps.sol\":1880:1890  amount1Out */\n      dup1\n        /* \"TFGv3/Contracts/SCOps.sol\":1872:1890  qtyIn = amount1Out */\n      swap7\n      pop\n        /* \"TFGv3/Contracts/SCOps.sol\":1670:2107  if (path[i] == IUniswapV2Pair(inputPair).token0())... */\n      jump(tag_90)\n    tag_87:\n        /* \"TFGv3/Contracts/SCOps.sol\":1966:2024  UniswapV2Library.getAmountOut(qtyIn, bReserves, aReserves) */\n      tag_91\n        /* \"TFGv3/Contracts/SCOps.sol\":1996:2001  qtyIn */\n      dup8\n        /* \"TFGv3/Contracts/SCOps.sol\":2003:2012  bReserves */\n      dup5\n        /* \"TFGv3/Contracts/SCOps.sol\":2014:2023  aReserves */\n      dup7\n        /* \"TFGv3/Contracts/SCOps.sol\":1966:1995  UniswapV2Library.getAmountOut */\n      tag_89\n        /* \"TFGv3/Contracts/SCOps.sol\":1966:2024  UniswapV2Library.getAmountOut(qtyIn, bReserves, aReserves) */\n      jump\t// in\n    tag_91:\n        /* \"TFGv3/Contracts/SCOps.sol\":1953:2024  amount0Out = UniswapV2Library.getAmountOut(qtyIn, bReserves, aReserves) */\n      swap2\n      pop\n        /* \"TFGv3/Contracts/SCOps.sol\":2055:2056  0 */\n      0x00\n        /* \"TFGv3/Contracts/SCOps.sol\":2042:2056  amount1Out = 0 */\n      swap1\n      pop\n        /* \"TFGv3/Contracts/SCOps.sol\":2082:2092  amount0Out */\n      dup2\n        /* \"TFGv3/Contracts/SCOps.sol\":2074:2092  qtyIn = amount0Out */\n      swap7\n      pop\n        /* \"TFGv3/Contracts/SCOps.sol\":1670:2107  if (path[i] == IUniswapV2Pair(inputPair).token0())... */\n    tag_90:\n        /* \"TFGv3/Contracts/SCOps.sol\":2135:2144  inputPair */\n      dup5\n        /* \"TFGv3/Contracts/SCOps.sol\":2120:2150  IUniswapV2Pair(inputPair).swap */\n      0xffffffffffffffffffffffffffffffffffffffff\n      and\n      0x022c0d9f\n        /* \"TFGv3/Contracts/SCOps.sol\":2151:2161  amount0Out */\n      dup4\n        /* \"TFGv3/Contracts/SCOps.sol\":2163:2173  amount1Out */\n      dup4\n        /* \"TFGv3/Contracts/SCOps.sol\":2182:2187  proxy */\n      0x00\n      dup1\n      sload\n      swap1\n      0x0100\n      exp\n      swap1\n      div\n      0xffffffffffffffffffffffffffffffffffffffff\n      and\n        /* \"TFGv3/Contracts/SCOps.sol\":2175:2204  IProxy(proxy).storageContract */\n      0xffffffffffffffffffffffffffffffffffffffff\n      and\n      0x11ce0267\n        /* \"TFGv3/Contracts/SCOps.sol\":2175:2206  IProxy(proxy).storageContract() */\n      mload(0x40)\n      dup2\n      0xffffffff\n      and\n      0xe0\n      shl\n      dup2\n      mstore\n      0x04\n      add\n      0x20\n      mload(0x40)\n      dup1\n      dup4\n      sub\n      dup2\n      dup7\n      gas\n      staticcall\n      iszero\n      dup1\n      iszero\n      tag_93\n      jumpi\n      returndatasize\n      0x00\n      dup1\n      returndatacopy\n      revert(0x00, returndatasize)\n    tag_93:\n      pop\n      pop\n      pop\n      pop\n      mload(0x40)\n      returndatasize\n      not(0x1f)\n      0x1f\n      dup3\n      add\n      and\n      dup3\n      add\n      dup1\n      0x40\n      mstore\n      pop\n      dup2\n      add\n      swap1\n      tag_94\n      swap2\n      swap1\n      tag_83\n      jump\t// in\n    tag_94:\n        /* \"TFGv3/Contracts/SCOps.sol\":2120:2211  IUniswapV2Pair(inputPair).swap(amount0Out, amount1Out, IProxy(proxy).storageContract(), \"\") */\n      mload(0x40)\n      dup5\n      0xffffffff\n      and\n      0xe0\n      shl\n      dup2\n      mstore\n      0x04\n      add\n      tag_95\n      swap4\n      swap3\n      swap2\n      swap1\n      tag_96\n      jump\t// in\n    tag_95:\n      0x00\n      mload(0x40)\n      dup1\n      dup4\n      sub\n      dup2\n      0x00\n      dup8\n      dup1\n      extcodesize\n      iszero\n      dup1\n      iszero\n      tag_97\n      jumpi\n      0x00\n      dup1\n      revert\n    tag_97:\n      pop\n      gas\n      call\n      iszero\n      dup1\n      iszero\n      tag_99\n      jumpi\n      returndatasize\n      0x00\n      dup1\n      returndatacopy\n      revert(0x00, returndatasize)\n    tag_99:\n      pop\n      pop\n      pop\n      pop\n        /* \"TFGv3/Contracts/SCOps.sol\":1403:2222  {... */\n      pop\n      pop\n      pop\n      pop\n      pop\n        /* \"TFGv3/Contracts/SCOps.sol\":1390:1393  i++ */\n      dup1\n      dup1\n      tag_100\n      swap1\n      tag_101\n      jump\t// in\n    tag_100:\n      swap2\n      pop\n      pop\n        /* \"TFGv3/Contracts/SCOps.sol\":1355:2222  for(uint i = 0; i < path.length-1; i++)... */\n      jump(tag_55)\n    tag_56:\n      pop\n        /* \"TFGv3/Contracts/SCOps.sol\":1279:2228  {... */\n      pop\n      pop\n        /* \"TFGv3/Contracts/SCOps.sol\":1181:2228  function uniSwap(address[] calldata path, uint amount) external virtual override OnlyDeployer... */\n      pop\n      pop\n      pop\n      jump\t// out\n        /* \"TFGv3/Contracts/SCOps.sol\":2537:2755  function deleteContract(address newContract) external virtual override OnlyDeployer... */\n    tag_25:\n        /* \"TFGv3/Contracts/SCOps.sol\":726:734  deployer */\n      immutable(\"0x8ef666e6fda79053a53004a1b98be61a93ed2779d67f49986ff52dca2c41336b\")\n        /* \"TFGv3/Contracts/SCOps.sol\":712:734  msg.sender == deployer */\n      0xffffffffffffffffffffffffffffffffffffffff\n      and\n        /* \"TFGv3/Contracts/SCOps.sol\":712:722  msg.sender */\n      caller\n        /* \"TFGv3/Contracts/SCOps.sol\":712:734  msg.sender == deployer */\n      0xffffffffffffffffffffffffffffffffffffffff\n      and\n      eq\n        /* \"TFGv3/Contracts/SCOps.sol\":704:735  require(msg.sender == deployer) */\n      tag_103\n      jumpi\n      0x00\n      dup1\n      revert\n    tag_103:\n        /* \"TFGv3/Contracts/SCOps.sol\":2738:2746  deployer */\n      immutable(\"0x8ef666e6fda79053a53004a1b98be61a93ed2779d67f49986ff52dca2c41336b\")\n        /* \"TFGv3/Contracts/SCOps.sol\":2717:2748  selfdestruct(payable(deployer)) */\n      0xffffffffffffffffffffffffffffffffffffffff\n      and\n      selfdestruct\n        /* \"TFGv3/Contracts/SCOps.sol\":532:556  address public v2factory */\n    tag_28:\n      0x01\n      0x00\n      swap1\n      sload\n      swap1\n      0x0100\n      exp\n      swap1\n      div\n      0xffffffffffffffffffffffffffffffffffffffff\n      and\n      dup2\n      jump\t// out\n        /* \"TFGv3/Contracts/SCOps.sol\":970:1069  function setFactory(address factory) external OnlyDeployer... */\n    tag_34:\n        /* \"TFGv3/Contracts/SCOps.sol\":726:734  deployer */\n      immutable(\"0x8ef666e6fda79053a53004a1b98be61a93ed2779d67f49986ff52dca2c41336b\")\n        /* \"TFGv3/Contracts/SCOps.sol\":712:734  msg.sender == deployer */\n      0xffffffffffffffffffffffffffffffffffffffff\n      and\n        /* \"TFGv3/Contracts/SCOps.sol\":712:722  msg.sender */\n      caller\n        /* \"TFGv3/Contracts/SCOps.sol\":712:734  msg.sender == deployer */\n      0xffffffffffffffffffffffffffffffffffffffff\n      and\n      eq\n        /* \"TFGv3/Contracts/SCOps.sol\":704:735  require(msg.sender == deployer) */\n      tag_106\n      jumpi\n      0x00\n      dup1\n      revert\n    tag_106:\n        /* \"TFGv3/Contracts/SCOps.sol\":1055:1062  factory */\n      dup1\n        /* \"TFGv3/Contracts/SCOps.sol\":1043:1052  v2factory */\n      0x01\n      0x00\n        /* \"TFGv3/Contracts/SCOps.sol\":1043:1062  v2factory = factory */\n      0x0100\n      exp\n      dup2\n      sload\n      dup2\n      0xffffffffffffffffffffffffffffffffffffffff\n      mul\n      not\n      and\n      swap1\n      dup4\n      0xffffffffffffffffffffffffffffffffffffffff\n      and\n      mul\n      or\n      swap1\n      sstore\n      pop\n        /* \"TFGv3/Contracts/SCOps.sol\":970:1069  function setFactory(address factory) external OnlyDeployer... */\n      pop\n      jump\t// out\n        /* \"TFGv3/Contracts/SCOps.sol\":2376:2527  function updateProxy(address newAddr) external virtual override OnlyDeployer... */\n    tag_38:\n        /* \"TFGv3/Contracts/SCOps.sol\":726:734  deployer */\n      immutable(\"0x8ef666e6fda79053a53004a1b98be61a93ed2779d67f49986ff52dca2c41336b\")\n        /* \"TFGv3/Contracts/SCOps.sol\":712:734  msg.sender == deployer */\n      0xffffffffffffffffffffffffffffffffffffffff\n      and\n        /* \"TFGv3/Contracts/SCOps.sol\":712:722  msg.sender */\n      caller\n        /* \"TFGv3/Contracts/SCOps.sol\":712:734  msg.sender == deployer */\n      0xffffffffffffffffffffffffffffffffffffffff\n      and\n      eq\n        /* \"TFGv3/Contracts/SCOps.sol\":704:735  require(msg.sender == deployer) */\n      tag_109\n      jumpi\n      0x00\n      dup1\n      revert\n    tag_109:\n        /* \"TFGv3/Contracts/SCOps.sol\":2489:2494  proxy */\n      0x00\n      dup1\n      sload\n      swap1\n      0x0100\n      exp\n      swap1\n      div\n      0xffffffffffffffffffffffffffffffffffffffff\n      and\n        /* \"TFGv3/Contracts/SCOps.sol\":2475:2494  msg.sender == proxy */\n      0xffffffffffffffffffffffffffffffffffffffff\n      and\n        /* \"TFGv3/Contracts/SCOps.sol\":2475:2485  msg.sender */\n      caller\n        /* \"TFGv3/Contracts/SCOps.sol\":2475:2494  msg.sender == proxy */\n      0xffffffffffffffffffffffffffffffffffffffff\n      and\n      eq\n        /* \"TFGv3/Contracts/SCOps.sol\":2467:2495  require(msg.sender == proxy) */\n      tag_111\n      jumpi\n      0x00\n      dup1\n      revert\n    tag_111:\n        /* \"TFGv3/Contracts/SCOps.sol\":2513:2520  newAddr */\n      dup1\n        /* \"TFGv3/Contracts/SCOps.sol\":2505:2510  proxy */\n      0x00\n      dup1\n        /* \"TFGv3/Contracts/SCOps.sol\":2505:2520  proxy = newAddr */\n      0x0100\n      exp\n      dup2\n      sload\n      dup2\n      0xffffffffffffffffffffffffffffffffffffffff\n      mul\n      not\n      and\n      swap1\n      dup4\n      0xffffffffffffffffffffffffffffffffffffffff\n      and\n      mul\n      or\n      swap1\n      sstore\n      pop\n        /* \"TFGv3/Contracts/SCOps.sol\":2376:2527  function updateProxy(address newAddr) external virtual override OnlyDeployer... */\n      pop\n      jump\t// out\n        /* \"TFGv3/Contracts/SCOps.sol\":838:964  function initContract(address proxyAddr) external virtual override OnlyDeployer NonInit... */\n    tag_42:\n        /* \"TFGv3/Contracts/SCOps.sol\":726:734  deployer */\n      immutable(\"0x8ef666e6fda79053a53004a1b98be61a93ed2779d67f49986ff52dca2c41336b\")\n        /* \"TFGv3/Contracts/SCOps.sol\":712:734  msg.sender == deployer */\n      0xffffffffffffffffffffffffffffffffffffffff\n      and\n        /* \"TFGv3/Contracts/SCOps.sol\":712:722  msg.sender */\n      caller\n        /* \"TFGv3/Contracts/SCOps.sol\":712:734  msg.sender == deployer */\n      0xffffffffffffffffffffffffffffffffffffffff\n      and\n      eq\n        /* \"TFGv3/Contracts/SCOps.sol\":704:735  require(msg.sender == deployer) */\n      tag_113\n      jumpi\n      0x00\n      dup1\n      revert\n    tag_113:\n        /* \"TFGv3/Contracts/SCOps.sol\":812:813  0 */\n      0x00\n        /* \"TFGv3/Contracts/SCOps.sol\":800:808  initDone */\n      dup1\n      0x14\n      swap1\n      sload\n      swap1\n      0x0100\n      exp\n      swap1\n      div\n      0xff\n      and\n        /* \"TFGv3/Contracts/SCOps.sol\":800:813  initDone == 0 */\n      0xff\n      and\n      eq\n        /* \"TFGv3/Contracts/SCOps.sol\":792:814  require(initDone == 0) */\n      tag_115\n      jumpi\n      0x00\n      dup1\n      revert\n    tag_115:\n        /* \"TFGv3/Contracts/SCOps.sol\":948:957  proxyAddr */\n      dup1\n        /* \"TFGv3/Contracts/SCOps.sol\":940:945  proxy */\n      0x00\n      dup1\n        /* \"TFGv3/Contracts/SCOps.sol\":940:957  proxy = proxyAddr */\n      0x0100\n      exp\n      dup2\n      sload\n      dup2\n      0xffffffffffffffffffffffffffffffffffffffff\n      mul\n      not\n      and\n      swap1\n      dup4\n      0xffffffffffffffffffffffffffffffffffffffff\n      and\n      mul\n      or\n      swap1\n      sstore\n      pop\n        /* \"TFGv3/Contracts/SCOps.sol\":838:964  function initContract(address proxyAddr) external virtual override OnlyDeployer NonInit... */\n      pop\n      jump\t// out\n        /* \"TFGv3/Contracts/SCOps.sol\":478:498  address public proxy */\n    tag_45:\n      0x00\n      dup1\n      sload\n      swap1\n      0x0100\n      exp\n      swap1\n      div\n      0xffffffffffffffffffffffffffffffffffffffff\n      and\n      dup2\n      jump\t// out\n        /* \"TFGv3/Contracts/SCOps.sol\":504:525  uint8 public initDone */\n    tag_49:\n      0x00\n      0x14\n      swap1\n      sload\n      swap1\n      0x0100\n      exp\n      swap1\n      div\n      0xff\n      and\n      dup2\n      jump\t// out\n        /* \"TFGv3/Contracts/libraries/UniswapV2Library.sol\":760:1239  function pairFor(address factory, address tokenA, address tokenB) internal pure returns (address pair) {... */\n    tag_70:\n        /* \"TFGv3/Contracts/libraries/UniswapV2Library.sol\":849:861  address pair */\n      0x00\n        /* \"TFGv3/Contracts/libraries/UniswapV2Library.sol\":874:888  address token0 */\n      dup1\n        /* \"TFGv3/Contracts/libraries/UniswapV2Library.sol\":890:904  address token1 */\n      0x00\n        /* \"TFGv3/Contracts/libraries/UniswapV2Library.sol\":908:934  sortTokens(tokenA, tokenB) */\n      tag_118\n        /* \"TFGv3/Contracts/libraries/UniswapV2Library.sol\":919:925  tokenA */\n      dup6\n        /* \"TFGv3/Contracts/libraries/UniswapV2Library.sol\":927:933  tokenB */\n      dup6\n        /* \"TFGv3/Contracts/libraries/UniswapV2Library.sol\":908:918  sortTokens */\n      tag_119\n        /* \"TFGv3/Contracts/libraries/UniswapV2Library.sol\":908:934  sortTokens(tokenA, tokenB) */\n      jump\t// in\n    tag_118:\n        /* \"TFGv3/Contracts/libraries/UniswapV2Library.sol\":873:934  (address token0, address token1) = sortTokens(tokenA, tokenB) */\n      swap2\n      pop\n      swap2\n      pop\n        /* \"TFGv3/Contracts/libraries/UniswapV2Library.sol\":1041:1048  factory */\n      dup6\n        /* \"TFGv3/Contracts/libraries/UniswapV2Library.sol\":1093:1099  token0 */\n      dup3\n        /* \"TFGv3/Contracts/libraries/UniswapV2Library.sol\":1101:1107  token1 */\n      dup3\n        /* \"TFGv3/Contracts/libraries/UniswapV2Library.sol\":1076:1108  abi.encodePacked(token0, token1) */\n      add(0x20, mload(0x40))\n      tag_120\n      swap3\n      swap2\n      swap1\n      tag_121\n      jump\t// in\n    tag_120:\n      mload(0x40)\n      0x20\n      dup2\n      dup4\n      sub\n      sub\n      dup2\n      mstore\n      swap1\n      0x40\n      mstore\n        /* \"TFGv3/Contracts/libraries/UniswapV2Library.sol\":1066:1109  keccak256(abi.encodePacked(token0, token1)) */\n      dup1\n      mload\n      swap1\n      0x20\n      add\n      keccak256\n        /* \"TFGv3/Contracts/libraries/UniswapV2Library.sol\":982:1228  abi.encodePacked(... */\n      add(0x20, mload(0x40))\n      tag_122\n      swap3\n      swap2\n      swap1\n      tag_123\n      jump\t// in\n    tag_122:\n      mload(0x40)\n      0x20\n      dup2\n      dup4\n      sub\n      sub\n      dup2\n      mstore\n      swap1\n      0x40\n      mstore\n        /* \"TFGv3/Contracts/libraries/UniswapV2Library.sol\":972:1229  keccak256(abi.encodePacked(... */\n      dup1\n      mload\n      swap1\n      0x20\n      add\n      keccak256\n        /* \"TFGv3/Contracts/libraries/UniswapV2Library.sol\":967:1230  uint(keccak256(abi.encodePacked(... */\n      0x00\n      shr\n        /* \"TFGv3/Contracts/libraries/UniswapV2Library.sol\":944:1232  pair = address(uint160(uint(keccak256(abi.encodePacked(... */\n      swap3\n      pop\n        /* \"TFGv3/Contracts/libraries/UniswapV2Library.sol\":863:1239  {... */\n      pop\n      pop\n        /* \"TFGv3/Contracts/libraries/UniswapV2Library.sol\":760:1239  function pairFor(address factory, address tokenA, address tokenB) internal pure returns (address pair) {... */\n      swap4\n      swap3\n      pop\n      pop\n      pop\n      jump\t// out\n        /* \"TFGv3/Contracts/libraries/UniswapV2Library.sol\":1294:1681  function getReserves(address factory, address tokenA, address tokenB) internal view returns (uint reserveA, uint reserveB) {... */\n    tag_79:\n        /* \"TFGv3/Contracts/libraries/UniswapV2Library.sol\":1387:1400  uint reserveA */\n      0x00\n        /* \"TFGv3/Contracts/libraries/UniswapV2Library.sol\":1402:1415  uint reserveB */\n      dup1\n        /* \"TFGv3/Contracts/libraries/UniswapV2Library.sol\":1428:1442  address token0 */\n      0x00\n        /* \"TFGv3/Contracts/libraries/UniswapV2Library.sol\":1447:1473  sortTokens(tokenA, tokenB) */\n      tag_125\n        /* \"TFGv3/Contracts/libraries/UniswapV2Library.sol\":1458:1464  tokenA */\n      dup6\n        /* \"TFGv3/Contracts/libraries/UniswapV2Library.sol\":1466:1472  tokenB */\n      dup6\n        /* \"TFGv3/Contracts/libraries/UniswapV2Library.sol\":1447:1457  sortTokens */\n      tag_119\n        /* \"TFGv3/Contracts/libraries/UniswapV2Library.sol\":1447:1473  sortTokens(tokenA, tokenB) */\n      jump\t// in\n    tag_125:\n        /* \"TFGv3/Contracts/libraries/UniswapV2Library.sol\":1427:1473  (address token0,) = sortTokens(tokenA, tokenB) */\n      pop\n      swap1\n      pop\n        /* \"TFGv3/Contracts/libraries/UniswapV2Library.sol\":1484:1497  uint reserve0 */\n      0x00\n        /* \"TFGv3/Contracts/libraries/UniswapV2Library.sol\":1499:1512  uint reserve1 */\n      dup1\n        /* \"TFGv3/Contracts/libraries/UniswapV2Library.sol\":1532:1564  pairFor(factory, tokenA, tokenB) */\n      tag_126\n        /* \"TFGv3/Contracts/libraries/UniswapV2Library.sol\":1540:1547  factory */\n      dup9\n        /* \"TFGv3/Contracts/libraries/UniswapV2Library.sol\":1549:1555  tokenA */\n      dup9\n        /* \"TFGv3/Contracts/libraries/UniswapV2Library.sol\":1557:1563  tokenB */\n      dup9\n        /* \"TFGv3/Contracts/libraries/UniswapV2Library.sol\":1532:1539  pairFor */\n      tag_70\n        /* \"TFGv3/Contracts/libraries/UniswapV2Library.sol\":1532:1564  pairFor(factory, tokenA, tokenB) */\n      jump\t// in\n    tag_126:\n        /* \"TFGv3/Contracts/libraries/UniswapV2Library.sol\":1517:1577  IUniswapV2Pair(pairFor(factory, tokenA, tokenB)).getReserves */\n      0xffffffffffffffffffffffffffffffffffffffff\n      and\n      0x0902f1ac\n        /* \"TFGv3/Contracts/libraries/UniswapV2Library.sol\":1517:1579  IUniswapV2Pair(pairFor(factory, tokenA, tokenB)).getReserves() */\n      mload(0x40)\n      dup2\n      0xffffffff\n      and\n      0xe0\n      shl\n      dup2\n      mstore\n      0x04\n      add\n      0x60\n      mload(0x40)\n      dup1\n      dup4\n      sub\n      dup2\n      dup7\n      gas\n      staticcall\n      iszero\n      dup1\n      iszero\n      tag_128\n      jumpi\n      returndatasize\n      0x00\n      dup1\n      returndatacopy\n      revert(0x00, returndatasize)\n    tag_128:\n      pop\n      pop\n      pop\n      pop\n      mload(0x40)\n      returndatasize\n      not(0x1f)\n      0x1f\n      dup3\n      add\n      and\n      dup3\n      add\n      dup1\n      0x40\n      mstore\n      pop\n      dup2\n      add\n      swap1\n      tag_129\n      swap2\n      swap1\n      tag_130\n      jump\t// in\n    tag_129:\n        /* \"TFGv3/Contracts/libraries/UniswapV2Library.sol\":1483:1579  (uint reserve0, uint reserve1,) = IUniswapV2Pair(pairFor(factory, tokenA, tokenB)).getReserves() */\n      pop\n      0xffffffffffffffffffffffffffff\n      and\n      swap2\n      pop\n      0xffffffffffffffffffffffffffff\n      and\n      swap2\n      pop\n        /* \"TFGv3/Contracts/libraries/UniswapV2Library.sol\":1622:1628  token0 */\n      dup3\n        /* \"TFGv3/Contracts/libraries/UniswapV2Library.sol\":1612:1628  tokenA == token0 */\n      0xffffffffffffffffffffffffffffffffffffffff\n      and\n        /* \"TFGv3/Contracts/libraries/UniswapV2Library.sol\":1612:1618  tokenA */\n      dup8\n        /* \"TFGv3/Contracts/libraries/UniswapV2Library.sol\":1612:1628  tokenA == token0 */\n      0xffffffffffffffffffffffffffffffffffffffff\n      and\n      eq\n        /* \"TFGv3/Contracts/libraries/UniswapV2Library.sol\":1612:1674  tokenA == token0 ? (reserve0, reserve1) : (reserve1, reserve0) */\n      tag_131\n      jumpi\n        /* \"TFGv3/Contracts/libraries/UniswapV2Library.sol\":1655:1663  reserve1 */\n      dup1\n        /* \"TFGv3/Contracts/libraries/UniswapV2Library.sol\":1665:1673  reserve0 */\n      dup3\n        /* \"TFGv3/Contracts/libraries/UniswapV2Library.sol\":1612:1674  tokenA == token0 ? (reserve0, reserve1) : (reserve1, reserve0) */\n      jump(tag_132)\n    tag_131:\n        /* \"TFGv3/Contracts/libraries/UniswapV2Library.sol\":1632:1640  reserve0 */\n      dup2\n        /* \"TFGv3/Contracts/libraries/UniswapV2Library.sol\":1642:1650  reserve1 */\n      dup2\n        /* \"TFGv3/Contracts/libraries/UniswapV2Library.sol\":1612:1674  tokenA == token0 ? (reserve0, reserve1) : (reserve1, reserve0) */\n    tag_132:\n        /* \"TFGv3/Contracts/libraries/UniswapV2Library.sol\":1589:1674  (reserveA, reserveB) = tokenA == token0 ? (reserve0, reserve1) : (reserve1, reserve0) */\n      dup1\n      swap6\n      pop\n      dup2\n      swap7\n      pop\n      pop\n      pop\n        /* \"TFGv3/Contracts/libraries/UniswapV2Library.sol\":1417:1681  {... */\n      pop\n      pop\n      pop\n        /* \"TFGv3/Contracts/libraries/UniswapV2Library.sol\":1294:1681  function getReserves(address factory, address tokenA, address tokenB) internal view returns (uint reserveA, uint reserveB) {... */\n      swap4\n      pop\n      swap4\n      swap2\n      pop\n      pop\n      jump\t// out\n        /* \"TFGv3/Contracts/libraries/UniswapV2Library.sol\":2227:2737  function getAmountOut(uint amountIn, uint reserveIn, uint reserveOut) internal pure returns (uint amountOut) {... */\n    tag_89:\n        /* \"TFGv3/Contracts/libraries/UniswapV2Library.sol\":2320:2334  uint amountOut */\n      0x00\n        /* \"TFGv3/Contracts/libraries/UniswapV2Library.sol\":2365:2366  0 */\n      dup1\n        /* \"TFGv3/Contracts/libraries/UniswapV2Library.sol\":2354:2362  amountIn */\n      dup5\n        /* \"TFGv3/Contracts/libraries/UniswapV2Library.sol\":2354:2366  amountIn > 0 */\n      gt\n        /* \"TFGv3/Contracts/libraries/UniswapV2Library.sol\":2346:2414  require(amountIn > 0, 'UniswapV2Library: INSUFFICIENT_INPUT_AMOUNT') */\n      tag_134\n      jumpi\n      mload(0x40)\n      0x08c379a000000000000000000000000000000000000000000000000000000000\n      dup2\n      mstore\n      0x04\n      add\n      tag_135\n      swap1\n      tag_136\n      jump\t// in\n    tag_135:\n      mload(0x40)\n      dup1\n      swap2\n      sub\n      swap1\n      revert\n    tag_134:\n        /* \"TFGv3/Contracts/libraries/UniswapV2Library.sol\":2444:2445  0 */\n      0x00\n        /* \"TFGv3/Contracts/libraries/UniswapV2Library.sol\":2432:2441  reserveIn */\n      dup4\n        /* \"TFGv3/Contracts/libraries/UniswapV2Library.sol\":2432:2445  reserveIn > 0 */\n      gt\n        /* \"TFGv3/Contracts/libraries/UniswapV2Library.sol\":2432:2463  reserveIn > 0 && reserveOut > 0 */\n      dup1\n      iszero\n      tag_137\n      jumpi\n      pop\n        /* \"TFGv3/Contracts/libraries/UniswapV2Library.sol\":2462:2463  0 */\n      0x00\n        /* \"TFGv3/Contracts/libraries/UniswapV2Library.sol\":2449:2459  reserveOut */\n      dup3\n        /* \"TFGv3/Contracts/libraries/UniswapV2Library.sol\":2449:2463  reserveOut > 0 */\n      gt\n        /* \"TFGv3/Contracts/libraries/UniswapV2Library.sol\":2432:2463  reserveIn > 0 && reserveOut > 0 */\n    tag_137:\n        /* \"TFGv3/Contracts/libraries/UniswapV2Library.sol\":2424:2508  require(reserveIn > 0 && reserveOut > 0, 'UniswapV2Library: INSUFFICIENT_LIQUIDITY') */\n      tag_138\n      jumpi\n      mload(0x40)\n      0x08c379a000000000000000000000000000000000000000000000000000000000\n      dup2\n      mstore\n      0x04\n      add\n      tag_139\n      swap1\n      tag_140\n      jump\t// in\n    tag_139:\n      mload(0x40)\n      dup1\n      swap2\n      sub\n      swap1\n      revert\n    tag_138:\n        /* \"TFGv3/Contracts/libraries/UniswapV2Library.sol\":2518:2538  uint amountInWithFee */\n      0x00\n        /* \"TFGv3/Contracts/libraries/UniswapV2Library.sol\":2541:2558  amountIn.mul(997) */\n      tag_141\n        /* \"TFGv3/Contracts/libraries/UniswapV2Library.sol\":2554:2557  997 */\n      0x03e5\n        /* \"TFGv3/Contracts/libraries/UniswapV2Library.sol\":2541:2549  amountIn */\n      dup7\n        /* \"TFGv3/Contracts/libraries/UniswapV2Library.sol\":2541:2553  amountIn.mul */\n      tag_142\n      swap1\n        /* \"TFGv3/Contracts/libraries/UniswapV2Library.sol\":2541:2558  amountIn.mul(997) */\n      swap2\n      swap1\n      0xffffffff\n      and\n      jump\t// in\n    tag_141:\n        /* \"TFGv3/Contracts/libraries/UniswapV2Library.sol\":2518:2558  uint amountInWithFee = amountIn.mul(997) */\n      swap1\n      pop\n        /* \"TFGv3/Contracts/libraries/UniswapV2Library.sol\":2568:2582  uint numerator */\n      0x00\n        /* \"TFGv3/Contracts/libraries/UniswapV2Library.sol\":2585:2616  amountInWithFee.mul(reserveOut) */\n      tag_143\n        /* \"TFGv3/Contracts/libraries/UniswapV2Library.sol\":2605:2615  reserveOut */\n      dup5\n        /* \"TFGv3/Contracts/libraries/UniswapV2Library.sol\":2585:2600  amountInWithFee */\n      dup4\n        /* \"TFGv3/Contracts/libraries/UniswapV2Library.sol\":2585:2604  amountInWithFee.mul */\n      tag_142\n      swap1\n        /* \"TFGv3/Contracts/libraries/UniswapV2Library.sol\":2585:2616  amountInWithFee.mul(reserveOut) */\n      swap2\n      swap1\n      0xffffffff\n      and\n      jump\t// in\n    tag_143:\n        /* \"TFGv3/Contracts/libraries/UniswapV2Library.sol\":2568:2616  uint numerator = amountInWithFee.mul(reserveOut) */\n      swap1\n      pop\n        /* \"TFGv3/Contracts/libraries/UniswapV2Library.sol\":2626:2642  uint denominator */\n      0x00\n        /* \"TFGv3/Contracts/libraries/UniswapV2Library.sol\":2645:2685  reserveIn.mul(1000).add(amountInWithFee) */\n      tag_144\n        /* \"TFGv3/Contracts/libraries/UniswapV2Library.sol\":2669:2684  amountInWithFee */\n      dup4\n        /* \"TFGv3/Contracts/libraries/UniswapV2Library.sol\":2645:2664  reserveIn.mul(1000) */\n      tag_145\n        /* \"TFGv3/Contracts/libraries/UniswapV2Library.sol\":2659:2663  1000 */\n      0x03e8\n        /* \"TFGv3/Contracts/libraries/UniswapV2Library.sol\":2645:2654  reserveIn */\n      dup10\n        /* \"TFGv3/Contracts/libraries/UniswapV2Library.sol\":2645:2658  reserveIn.mul */\n      tag_142\n      swap1\n        /* \"TFGv3/Contracts/libraries/UniswapV2Library.sol\":2645:2664  reserveIn.mul(1000) */\n      swap2\n      swap1\n      0xffffffff\n      and\n      jump\t// in\n    tag_145:\n        /* \"TFGv3/Contracts/libraries/UniswapV2Library.sol\":2645:2668  reserveIn.mul(1000).add */\n      tag_146\n      swap1\n        /* \"TFGv3/Contracts/libraries/UniswapV2Library.sol\":2645:2685  reserveIn.mul(1000).add(amountInWithFee) */\n      swap2\n      swap1\n      0xffffffff\n      and\n      jump\t// in\n    tag_144:\n        /* \"TFGv3/Contracts/libraries/UniswapV2Library.sol\":2626:2685  uint denominator = reserveIn.mul(1000).add(amountInWithFee) */\n      swap1\n      pop\n        /* \"TFGv3/Contracts/libraries/UniswapV2Library.sol\":2719:2730  denominator */\n      dup1\n        /* \"TFGv3/Contracts/libraries/UniswapV2Library.sol\":2707:2716  numerator */\n      dup3\n        /* \"TFGv3/Contracts/libraries/UniswapV2Library.sol\":2707:2730  numerator / denominator */\n      tag_147\n      swap2\n      swap1\n      tag_148\n      jump\t// in\n    tag_147:\n        /* \"TFGv3/Contracts/libraries/UniswapV2Library.sol\":2695:2730  amountOut = numerator / denominator */\n      swap4\n      pop\n        /* \"TFGv3/Contracts/libraries/UniswapV2Library.sol\":2336:2737  {... */\n      pop\n      pop\n      pop\n        /* \"TFGv3/Contracts/libraries/UniswapV2Library.sol\":2227:2737  function getAmountOut(uint amountIn, uint reserveIn, uint reserveOut) internal pure returns (uint amountOut) {... */\n      swap4\n      swap3\n      pop\n      pop\n      pop\n      jump\t// out\n        /* \"TFGv3/Contracts/libraries/UniswapV2Library.sol\":326:671  function sortTokens(address tokenA, address tokenB) internal pure returns (address token0, address token1) {... */\n    tag_119:\n        /* \"TFGv3/Contracts/libraries/UniswapV2Library.sol\":401:415  address token0 */\n      0x00\n        /* \"TFGv3/Contracts/libraries/UniswapV2Library.sol\":417:431  address token1 */\n      dup1\n        /* \"TFGv3/Contracts/libraries/UniswapV2Library.sol\":461:467  tokenB */\n      dup3\n        /* \"TFGv3/Contracts/libraries/UniswapV2Library.sol\":451:467  tokenA != tokenB */\n      0xffffffffffffffffffffffffffffffffffffffff\n      and\n        /* \"TFGv3/Contracts/libraries/UniswapV2Library.sol\":451:457  tokenA */\n      dup5\n        /* \"TFGv3/Contracts/libraries/UniswapV2Library.sol\":451:467  tokenA != tokenB */\n      0xffffffffffffffffffffffffffffffffffffffff\n      and\n      sub\n        /* \"TFGv3/Contracts/libraries/UniswapV2Library.sol\":443:509  require(tokenA != tokenB, 'UniswapV2Library: IDENTICAL_ADDRESSES') */\n      tag_150\n      jumpi\n      mload(0x40)\n      0x08c379a000000000000000000000000000000000000000000000000000000000\n      dup2\n      mstore\n      0x04\n      add\n      tag_151\n      swap1\n      tag_152\n      jump\t// in\n    tag_151:\n      mload(0x40)\n      dup1\n      swap2\n      sub\n      swap1\n      revert\n    tag_150:\n        /* \"TFGv3/Contracts/libraries/UniswapV2Library.sol\":547:553  tokenB */\n      dup3\n        /* \"TFGv3/Contracts/libraries/UniswapV2Library.sol\":538:553  tokenA < tokenB */\n      0xffffffffffffffffffffffffffffffffffffffff\n      and\n        /* \"TFGv3/Contracts/libraries/UniswapV2Library.sol\":538:544  tokenA */\n      dup5\n        /* \"TFGv3/Contracts/libraries/UniswapV2Library.sol\":538:553  tokenA < tokenB */\n      0xffffffffffffffffffffffffffffffffffffffff\n      and\n      lt\n        /* \"TFGv3/Contracts/libraries/UniswapV2Library.sol\":538:591  tokenA < tokenB ? (tokenA, tokenB) : (tokenB, tokenA) */\n      tag_153\n      jumpi\n        /* \"TFGv3/Contracts/libraries/UniswapV2Library.sol\":576:582  tokenB */\n      dup3\n        /* \"TFGv3/Contracts/libraries/UniswapV2Library.sol\":584:590  tokenA */\n      dup5\n        /* \"TFGv3/Contracts/libraries/UniswapV2Library.sol\":538:591  tokenA < tokenB ? (tokenA, tokenB) : (tokenB, tokenA) */\n      jump(tag_154)\n    tag_153:\n        /* \"TFGv3/Contracts/libraries/UniswapV2Library.sol\":557:563  tokenA */\n      dup4\n        /* \"TFGv3/Contracts/libraries/UniswapV2Library.sol\":565:571  tokenB */\n      dup4\n        /* \"TFGv3/Contracts/libraries/UniswapV2Library.sol\":538:591  tokenA < tokenB ? (tokenA, tokenB) : (tokenB, tokenA) */\n    tag_154:\n        /* \"TFGv3/Contracts/libraries/UniswapV2Library.sol\":519:591  (token0, token1) = tokenA < tokenB ? (tokenA, tokenB) : (tokenB, tokenA) */\n      dup1\n      swap3\n      pop\n      dup2\n      swap4\n      pop\n      pop\n      pop\n        /* \"TFGv3/Contracts/libraries/UniswapV2Library.sol\":627:628  0 */\n      0x00\n        /* \"TFGv3/Contracts/libraries/UniswapV2Library.sol\":609:629  token0 != address(0) */\n      0xffffffffffffffffffffffffffffffffffffffff\n      and\n        /* \"TFGv3/Contracts/libraries/UniswapV2Library.sol\":609:615  token0 */\n      dup3\n        /* \"TFGv3/Contracts/libraries/UniswapV2Library.sol\":609:629  token0 != address(0) */\n      0xffffffffffffffffffffffffffffffffffffffff\n      and\n      sub\n        /* \"TFGv3/Contracts/libraries/UniswapV2Library.sol\":601:664  require(token0 != address(0), 'UniswapV2Library: ZERO_ADDRESS') */\n      tag_155\n      jumpi\n      mload(0x40)\n      0x08c379a000000000000000000000000000000000000000000000000000000000\n      dup2\n      mstore\n      0x04\n      add\n      tag_156\n      swap1\n      tag_157\n      jump\t// in\n    tag_156:\n      mload(0x40)\n      dup1\n      swap2\n      sub\n      swap1\n      revert\n    tag_155:\n        /* \"TFGv3/Contracts/libraries/UniswapV2Library.sol\":326:671  function sortTokens(address tokenA, address tokenB) internal pure returns (address token0, address token1) {... */\n      swap3\n      pop\n      swap3\n      swap1\n      pop\n      jump\t// out\n        /* \"TFGv3/Contracts/libraries/SafeMath.sol\":3531:3746  function mul(uint256 a, uint256 b) internal pure returns (uint256) {... */\n    tag_142:\n        /* \"TFGv3/Contracts/libraries/SafeMath.sol\":3589:3596  uint256 */\n      0x00\n        /* \"TFGv3/Contracts/libraries/SafeMath.sol\":3617:3618  0 */\n      dup1\n        /* \"TFGv3/Contracts/libraries/SafeMath.sol\":3612:3613  a */\n      dup4\n        /* \"TFGv3/Contracts/libraries/SafeMath.sol\":3612:3618  a == 0 */\n      sub\n        /* \"TFGv3/Contracts/libraries/SafeMath.sol\":3608:3628  if (a == 0) return 0 */\n      tag_159\n      jumpi\n        /* \"TFGv3/Contracts/libraries/SafeMath.sol\":3627:3628  0 */\n      0x00\n        /* \"TFGv3/Contracts/libraries/SafeMath.sol\":3620:3628  return 0 */\n      swap1\n      pop\n      jump(tag_158)\n        /* \"TFGv3/Contracts/libraries/SafeMath.sol\":3608:3628  if (a == 0) return 0 */\n    tag_159:\n        /* \"TFGv3/Contracts/libraries/SafeMath.sol\":3638:3647  uint256 c */\n      0x00\n        /* \"TFGv3/Contracts/libraries/SafeMath.sol\":3654:3655  b */\n      dup3\n        /* \"TFGv3/Contracts/libraries/SafeMath.sol\":3650:3651  a */\n      dup5\n        /* \"TFGv3/Contracts/libraries/SafeMath.sol\":3650:3655  a * b */\n      tag_160\n      swap2\n      swap1\n      tag_161\n      jump\t// in\n    tag_160:\n        /* \"TFGv3/Contracts/libraries/SafeMath.sol\":3638:3655  uint256 c = a * b */\n      swap1\n      pop\n        /* \"TFGv3/Contracts/libraries/SafeMath.sol\":3682:3683  b */\n      dup3\n        /* \"TFGv3/Contracts/libraries/SafeMath.sol\":3677:3678  a */\n      dup5\n        /* \"TFGv3/Contracts/libraries/SafeMath.sol\":3673:3674  c */\n      dup3\n        /* \"TFGv3/Contracts/libraries/SafeMath.sol\":3673:3678  c / a */\n      tag_162\n      swap2\n      swap1\n      tag_148\n      jump\t// in\n    tag_162:\n        /* \"TFGv3/Contracts/libraries/SafeMath.sol\":3673:3683  c / a == b */\n      eq\n        /* \"TFGv3/Contracts/libraries/SafeMath.sol\":3665:3721  require(c / a == b, \"SafeMath: multiplication overflow\") */\n      tag_163\n      jumpi\n      mload(0x40)\n      0x08c379a000000000000000000000000000000000000000000000000000000000\n      dup2\n      mstore\n      0x04\n      add\n      tag_164\n      swap1\n      tag_165\n      jump\t// in\n    tag_164:\n      mload(0x40)\n      dup1\n      swap2\n      sub\n      swap1\n      revert\n    tag_163:\n        /* \"TFGv3/Contracts/libraries/SafeMath.sol\":3738:3739  c */\n      dup1\n        /* \"TFGv3/Contracts/libraries/SafeMath.sol\":3731:3739  return c */\n      swap2\n      pop\n      pop\n        /* \"TFGv3/Contracts/libraries/SafeMath.sol\":3531:3746  function mul(uint256 a, uint256 b) internal pure returns (uint256) {... */\n    tag_158:\n      swap3\n      swap2\n      pop\n      pop\n      jump\t// out\n        /* \"TFGv3/Contracts/libraries/SafeMath.sol\":2683:2858  function add(uint256 a, uint256 b) internal pure returns (uint256) {... */\n    tag_146:\n        /* \"TFGv3/Contracts/libraries/SafeMath.sol\":2741:2748  uint256 */\n      0x00\n        /* \"TFGv3/Contracts/libraries/SafeMath.sol\":2760:2769  uint256 c */\n      dup1\n        /* \"TFGv3/Contracts/libraries/SafeMath.sol\":2776:2777  b */\n      dup3\n        /* \"TFGv3/Contracts/libraries/SafeMath.sol\":2772:2773  a */\n      dup5\n        /* \"TFGv3/Contracts/libraries/SafeMath.sol\":2772:2777  a + b */\n      tag_167\n      swap2\n      swap1\n      tag_66\n      jump\t// in\n    tag_167:\n        /* \"TFGv3/Contracts/libraries/SafeMath.sol\":2760:2777  uint256 c = a + b */\n      swap1\n      pop\n        /* \"TFGv3/Contracts/libraries/SafeMath.sol\":2800:2801  a */\n      dup4\n        /* \"TFGv3/Contracts/libraries/SafeMath.sol\":2795:2796  c */\n      dup2\n        /* \"TFGv3/Contracts/libraries/SafeMath.sol\":2795:2801  c >= a */\n      lt\n      iszero\n        /* \"TFGv3/Contracts/libraries/SafeMath.sol\":2787:2833  require(c >= a, \"SafeMath: addition overflow\") */\n      tag_168\n      jumpi\n      mload(0x40)\n      0x08c379a000000000000000000000000000000000000000000000000000000000\n      dup2\n      mstore\n      0x04\n      add\n      tag_169\n      swap1\n      tag_170\n      jump\t// in\n    tag_169:\n      mload(0x40)\n      dup1\n      swap2\n      sub\n      swap1\n      revert\n    tag_168:\n        /* \"TFGv3/Contracts/libraries/SafeMath.sol\":2850:2851  c */\n      dup1\n        /* \"TFGv3/Contracts/libraries/SafeMath.sol\":2843:2851  return c */\n      swap2\n      pop\n      pop\n        /* \"TFGv3/Contracts/libraries/SafeMath.sol\":2683:2858  function add(uint256 a, uint256 b) internal pure returns (uint256) {... */\n      swap3\n      swap2\n      pop\n      pop\n      jump\t// out\n        /* \"#utility.yul\":88:205   */\n    tag_172:\n        /* \"#utility.yul\":197:198   */\n      0x00\n        /* \"#utility.yul\":194:195   */\n      dup1\n        /* \"#utility.yul\":187:199   */\n      revert\n        /* \"#utility.yul\":211:328   */\n    tag_173:\n        /* \"#utility.yul\":320:321   */\n      0x00\n        /* \"#utility.yul\":317:318   */\n      dup1\n        /* \"#utility.yul\":310:322   */\n      revert\n        /* \"#utility.yul\":334:451   */\n    tag_174:\n        /* \"#utility.yul\":443:444   */\n      0x00\n        /* \"#utility.yul\":440:441   */\n      dup1\n        /* \"#utility.yul\":433:445   */\n      revert\n        /* \"#utility.yul\":457:574   */\n    tag_175:\n        /* \"#utility.yul\":566:567   */\n      0x00\n        /* \"#utility.yul\":563:564   */\n      dup1\n        /* \"#utility.yul\":556:568   */\n      revert\n        /* \"#utility.yul\":580:697   */\n    tag_176:\n        /* \"#utility.yul\":689:690   */\n      0x00\n        /* \"#utility.yul\":686:687   */\n      dup1\n        /* \"#utility.yul\":679:691   */\n      revert\n        /* \"#utility.yul\":720:1288   */\n    tag_177:\n        /* \"#utility.yul\":793:801   */\n      0x00\n        /* \"#utility.yul\":803:809   */\n      dup1\n        /* \"#utility.yul\":853:856   */\n      dup4\n        /* \"#utility.yul\":846:850   */\n      0x1f\n        /* \"#utility.yul\":838:844   */\n      dup5\n        /* \"#utility.yul\":834:851   */\n      add\n        /* \"#utility.yul\":830:857   */\n      slt\n        /* \"#utility.yul\":820:942   */\n      tag_234\n      jumpi\n        /* \"#utility.yul\":861:940   */\n      tag_235\n      tag_174\n      jump\t// in\n    tag_235:\n        /* \"#utility.yul\":820:942   */\n    tag_234:\n        /* \"#utility.yul\":974:980   */\n      dup3\n        /* \"#utility.yul\":961:981   */\n      calldataload\n        /* \"#utility.yul\":951:981   */\n      swap1\n      pop\n        /* \"#utility.yul\":1004:1022   */\n      0xffffffffffffffff\n        /* \"#utility.yul\":996:1002   */\n      dup2\n        /* \"#utility.yul\":993:1023   */\n      gt\n        /* \"#utility.yul\":990:1107   */\n      iszero\n      tag_236\n      jumpi\n        /* \"#utility.yul\":1026:1105   */\n      tag_237\n      tag_175\n      jump\t// in\n    tag_237:\n        /* \"#utility.yul\":990:1107   */\n    tag_236:\n        /* \"#utility.yul\":1140:1144   */\n      0x20\n        /* \"#utility.yul\":1132:1138   */\n      dup4\n        /* \"#utility.yul\":1128:1145   */\n      add\n        /* \"#utility.yul\":1116:1145   */\n      swap2\n      pop\n        /* \"#utility.yul\":1194:1197   */\n      dup4\n        /* \"#utility.yul\":1186:1190   */\n      0x20\n        /* \"#utility.yul\":1178:1184   */\n      dup3\n        /* \"#utility.yul\":1174:1191   */\n      mul\n        /* \"#utility.yul\":1164:1172   */\n      dup4\n        /* \"#utility.yul\":1160:1192   */\n      add\n        /* \"#utility.yul\":1157:1198   */\n      gt\n        /* \"#utility.yul\":1154:1282   */\n      iszero\n      tag_238\n      jumpi\n        /* \"#utility.yul\":1201:1280   */\n      tag_239\n      tag_176\n      jump\t// in\n    tag_239:\n        /* \"#utility.yul\":1154:1282   */\n    tag_238:\n        /* \"#utility.yul\":720:1288   */\n      swap3\n      pop\n      swap3\n      swap1\n      pop\n      jump\t// out\n        /* \"#utility.yul\":1294:1371   */\n    tag_178:\n        /* \"#utility.yul\":1331:1338   */\n      0x00\n        /* \"#utility.yul\":1360:1365   */\n      dup2\n        /* \"#utility.yul\":1349:1365   */\n      swap1\n      pop\n        /* \"#utility.yul\":1294:1371   */\n      swap2\n      swap1\n      pop\n      jump\t// out\n        /* \"#utility.yul\":1377:1499   */\n    tag_179:\n        /* \"#utility.yul\":1450:1474   */\n      tag_242\n        /* \"#utility.yul\":1468:1473   */\n      dup2\n        /* \"#utility.yul\":1450:1474   */\n      tag_178\n      jump\t// in\n    tag_242:\n        /* \"#utility.yul\":1443:1448   */\n      dup2\n        /* \"#utility.yul\":1440:1475   */\n      eq\n        /* \"#utility.yul\":1430:1493   */\n      tag_243\n      jumpi\n        /* \"#utility.yul\":1489:1490   */\n      0x00\n        /* \"#utility.yul\":1486:1487   */\n      dup1\n        /* \"#utility.yul\":1479:1491   */\n      revert\n        /* \"#utility.yul\":1430:1493   */\n    tag_243:\n        /* \"#utility.yul\":1377:1499   */\n      pop\n      jump\t// out\n        /* \"#utility.yul\":1505:1644   */\n    tag_180:\n        /* \"#utility.yul\":1551:1556   */\n      0x00\n        /* \"#utility.yul\":1589:1595   */\n      dup2\n        /* \"#utility.yul\":1576:1596   */\n      calldataload\n        /* \"#utility.yul\":1567:1596   */\n      swap1\n      pop\n        /* \"#utility.yul\":1605:1638   */\n      tag_245\n        /* \"#utility.yul\":1632:1637   */\n      dup2\n        /* \"#utility.yul\":1605:1638   */\n      tag_179\n      jump\t// in\n    tag_245:\n        /* \"#utility.yul\":1505:1644   */\n      swap3\n      swap2\n      pop\n      pop\n      jump\t// out\n        /* \"#utility.yul\":1650:2354   */\n    tag_19:\n        /* \"#utility.yul\":1745:1751   */\n      0x00\n        /* \"#utility.yul\":1753:1759   */\n      dup1\n        /* \"#utility.yul\":1761:1767   */\n      0x00\n        /* \"#utility.yul\":1810:1812   */\n      0x40\n        /* \"#utility.yul\":1798:1807   */\n      dup5\n        /* \"#utility.yul\":1789:1796   */\n      dup7\n        /* \"#utility.yul\":1785:1808   */\n      sub\n        /* \"#utility.yul\":1781:1813   */\n      slt\n        /* \"#utility.yul\":1778:1897   */\n      iszero\n      tag_247\n      jumpi\n        /* \"#utility.yul\":1816:1895   */\n      tag_248\n      tag_172\n      jump\t// in\n    tag_248:\n        /* \"#utility.yul\":1778:1897   */\n    tag_247:\n        /* \"#utility.yul\":1964:1965   */\n      0x00\n        /* \"#utility.yul\":1953:1962   */\n      dup5\n        /* \"#utility.yul\":1949:1966   */\n      add\n        /* \"#utility.yul\":1936:1967   */\n      calldataload\n        /* \"#utility.yul\":1994:2012   */\n      0xffffffffffffffff\n        /* \"#utility.yul\":1986:1992   */\n      dup2\n        /* \"#utility.yul\":1983:2013   */\n      gt\n        /* \"#utility.yul\":1980:2097   */\n      iszero\n      tag_249\n      jumpi\n        /* \"#utility.yul\":2016:2095   */\n      tag_250\n      tag_173\n      jump\t// in\n    tag_250:\n        /* \"#utility.yul\":1980:2097   */\n    tag_249:\n        /* \"#utility.yul\":2129:2209   */\n      tag_251\n        /* \"#utility.yul\":2201:2208   */\n      dup7\n        /* \"#utility.yul\":2192:2198   */\n      dup3\n        /* \"#utility.yul\":2181:2190   */\n      dup8\n        /* \"#utility.yul\":2177:2199   */\n      add\n        /* \"#utility.yul\":2129:2209   */\n      tag_177\n      jump\t// in\n    tag_251:\n        /* \"#utility.yul\":2111:2209   */\n      swap4\n      pop\n      swap4\n      pop\n        /* \"#utility.yul\":1907:2219   */\n      pop\n        /* \"#utility.yul\":2258:2260   */\n      0x20\n        /* \"#utility.yul\":2284:2337   */\n      tag_252\n        /* \"#utility.yul\":2329:2336   */\n      dup7\n        /* \"#utility.yul\":2320:2326   */\n      dup3\n        /* \"#utility.yul\":2309:2318   */\n      dup8\n        /* \"#utility.yul\":2305:2327   */\n      add\n        /* \"#utility.yul\":2284:2337   */\n      tag_180\n      jump\t// in\n    tag_252:\n        /* \"#utility.yul\":2274:2337   */\n      swap2\n      pop\n        /* \"#utility.yul\":2229:2347   */\n      pop\n        /* \"#utility.yul\":1650:2354   */\n      swap3\n      pop\n      swap3\n      pop\n      swap3\n      jump\t// out\n        /* \"#utility.yul\":2360:2486   */\n    tag_181:\n        /* \"#utility.yul\":2397:2404   */\n      0x00\n        /* \"#utility.yul\":2437:2479   */\n      0xffffffffffffffffffffffffffffffffffffffff\n        /* \"#utility.yul\":2430:2435   */\n      dup3\n        /* \"#utility.yul\":2426:2480   */\n      and\n        /* \"#utility.yul\":2415:2480   */\n      swap1\n      pop\n        /* \"#utility.yul\":2360:2486   */\n      swap2\n      swap1\n      pop\n      jump\t// out\n        /* \"#utility.yul\":2492:2588   */\n    tag_182:\n        /* \"#utility.yul\":2529:2536   */\n      0x00\n        /* \"#utility.yul\":2558:2582   */\n      tag_255\n        /* \"#utility.yul\":2576:2581   */\n      dup3\n        /* \"#utility.yul\":2558:2582   */\n      tag_181\n      jump\t// in\n    tag_255:\n        /* \"#utility.yul\":2547:2582   */\n      swap1\n      pop\n        /* \"#utility.yul\":2492:2588   */\n      swap2\n      swap1\n      pop\n      jump\t// out\n        /* \"#utility.yul\":2594:2716   */\n    tag_183:\n        /* \"#utility.yul\":2667:2691   */\n      tag_257\n        /* \"#utility.yul\":2685:2690   */\n      dup2\n        /* \"#utility.yul\":2667:2691   */\n      tag_182\n      jump\t// in\n    tag_257:\n        /* \"#utility.yul\":2660:2665   */\n      dup2\n        /* \"#utility.yul\":2657:2692   */\n      eq\n        /* \"#utility.yul\":2647:2710   */\n      tag_258\n      jumpi\n        /* \"#utility.yul\":2706:2707   */\n      0x00\n        /* \"#utility.yul\":2703:2704   */\n      dup1\n        /* \"#utility.yul\":2696:2708   */\n      revert\n        /* \"#utility.yul\":2647:2710   */\n    tag_258:\n        /* \"#utility.yul\":2594:2716   */\n      pop\n      jump\t// out\n        /* \"#utility.yul\":2722:2861   */\n    tag_184:\n        /* \"#utility.yul\":2768:2773   */\n      0x00\n        /* \"#utility.yul\":2806:2812   */\n      dup2\n        /* \"#utility.yul\":2793:2813   */\n      calldataload\n        /* \"#utility.yul\":2784:2813   */\n      swap1\n      pop\n        /* \"#utility.yul\":2822:2855   */\n      tag_260\n        /* \"#utility.yul\":2849:2854   */\n      dup2\n        /* \"#utility.yul\":2822:2855   */\n      tag_183\n      jump\t// in\n    tag_260:\n        /* \"#utility.yul\":2722:2861   */\n      swap3\n      swap2\n      pop\n      pop\n      jump\t// out\n        /* \"#utility.yul\":2867:3196   */\n    tag_24:\n        /* \"#utility.yul\":2926:2932   */\n      0x00\n        /* \"#utility.yul\":2975:2977   */\n      0x20\n        /* \"#utility.yul\":2963:2972   */\n      dup3\n        /* \"#utility.yul\":2954:2961   */\n      dup5\n        /* \"#utility.yul\":2950:2973   */\n      sub\n        /* \"#utility.yul\":2946:2978   */\n      slt\n        /* \"#utility.yul\":2943:3062   */\n      iszero\n      tag_262\n      jumpi\n        /* \"#utility.yul\":2981:3060   */\n      tag_263\n      tag_172\n      jump\t// in\n    tag_263:\n        /* \"#utility.yul\":2943:3062   */\n    tag_262:\n        /* \"#utility.yul\":3101:3102   */\n      0x00\n        /* \"#utility.yul\":3126:3179   */\n      tag_264\n        /* \"#utility.yul\":3171:3178   */\n      dup5\n        /* \"#utility.yul\":3162:3168   */\n      dup3\n        /* \"#utility.yul\":3151:3160   */\n      dup6\n        /* \"#utility.yul\":3147:3169   */\n      add\n        /* \"#utility.yul\":3126:3179   */\n      tag_184\n      jump\t// in\n    tag_264:\n        /* \"#utility.yul\":3116:3179   */\n      swap2\n      pop\n        /* \"#utility.yul\":3072:3189   */\n      pop\n        /* \"#utility.yul\":2867:3196   */\n      swap3\n      swap2\n      pop\n      pop\n      jump\t// out\n        /* \"#utility.yul\":3202:3320   */\n    tag_185:\n        /* \"#utility.yul\":3289:3313   */\n      tag_266\n        /* \"#utility.yul\":3307:3312   */\n      dup2\n        /* \"#utility.yul\":3289:3313   */\n      tag_182\n      jump\t// in\n    tag_266:\n        /* \"#utility.yul\":3284:3287   */\n      dup3\n        /* \"#utility.yul\":3277:3314   */\n      mstore\n        /* \"#utility.yul\":3202:3320   */\n      pop\n      pop\n      jump\t// out\n        /* \"#utility.yul\":3326:3548   */\n    tag_30:\n        /* \"#utility.yul\":3419:3423   */\n      0x00\n        /* \"#utility.yul\":3457:3459   */\n      0x20\n        /* \"#utility.yul\":3446:3455   */\n      dup3\n        /* \"#utility.yul\":3442:3460   */\n      add\n        /* \"#utility.yul\":3434:3460   */\n      swap1\n      pop\n        /* \"#utility.yul\":3470:3541   */\n      tag_268\n        /* \"#utility.yul\":3538:3539   */\n      0x00\n        /* \"#utility.yul\":3527:3536   */\n      dup4\n        /* \"#utility.yul\":3523:3540   */\n      add\n        /* \"#utility.yul\":3514:3520   */\n      dup5\n        /* \"#utility.yul\":3470:3541   */\n      tag_185\n      jump\t// in\n    tag_268:\n        /* \"#utility.yul\":3326:3548   */\n      swap3\n      swap2\n      pop\n      pop\n      jump\t// out\n        /* \"#utility.yul\":3554:3640   */\n    tag_186:\n        /* \"#utility.yul\":3589:3596   */\n      0x00\n        /* \"#utility.yul\":3629:3633   */\n      0xff\n        /* \"#utility.yul\":3622:3627   */\n      dup3\n        /* \"#utility.yul\":3618:3634   */\n      and\n        /* \"#utility.yul\":3607:3634   */\n      swap1\n      pop\n        /* \"#utility.yul\":3554:3640   */\n      swap2\n      swap1\n      pop\n      jump\t// out\n        /* \"#utility.yul\":3646:3758   */\n    tag_187:\n        /* \"#utility.yul\":3729:3751   */\n      tag_271\n        /* \"#utility.yul\":3745:3750   */\n      dup2\n        /* \"#utility.yul\":3729:3751   */\n      tag_186\n      jump\t// in\n    tag_271:\n        /* \"#utility.yul\":3724:3727   */\n      dup3\n        /* \"#utility.yul\":3717:3752   */\n      mstore\n        /* \"#utility.yul\":3646:3758   */\n      pop\n      pop\n      jump\t// out\n        /* \"#utility.yul\":3764:3978   */\n    tag_51:\n        /* \"#utility.yul\":3853:3857   */\n      0x00\n        /* \"#utility.yul\":3891:3893   */\n      0x20\n        /* \"#utility.yul\":3880:3889   */\n      dup3\n        /* \"#utility.yul\":3876:3894   */\n      add\n        /* \"#utility.yul\":3868:3894   */\n      swap1\n      pop\n        /* \"#utility.yul\":3904:3971   */\n      tag_273\n        /* \"#utility.yul\":3968:3969   */\n      0x00\n        /* \"#utility.yul\":3957:3966   */\n      dup4\n        /* \"#utility.yul\":3953:3970   */\n      add\n        /* \"#utility.yul\":3944:3950   */\n      dup5\n        /* \"#utility.yul\":3904:3971   */\n      tag_187\n      jump\t// in\n    tag_273:\n        /* \"#utility.yul\":3764:3978   */\n      swap3\n      swap2\n      pop\n      pop\n      jump\t// out\n        /* \"#utility.yul\":3984:4164   */\n    tag_188:\n        /* \"#utility.yul\":4032:4109   */\n      0x4e487b7100000000000000000000000000000000000000000000000000000000\n        /* \"#utility.yul\":4029:4030   */\n      0x00\n        /* \"#utility.yul\":4022:4110   */\n      mstore\n        /* \"#utility.yul\":4129:4133   */\n      0x11\n        /* \"#utility.yul\":4126:4127   */\n      0x04\n        /* \"#utility.yul\":4119:4134   */\n      mstore\n        /* \"#utility.yul\":4153:4157   */\n      0x24\n        /* \"#utility.yul\":4150:4151   */\n      0x00\n        /* \"#utility.yul\":4143:4158   */\n      revert\n        /* \"#utility.yul\":4170:4361   */\n    tag_59:\n        /* \"#utility.yul\":4210:4214   */\n      0x00\n        /* \"#utility.yul\":4230:4250   */\n      tag_276\n        /* \"#utility.yul\":4248:4249   */\n      dup3\n        /* \"#utility.yul\":4230:4250   */\n      tag_178\n      jump\t// in\n    tag_276:\n        /* \"#utility.yul\":4225:4250   */\n      swap2\n      pop\n        /* \"#utility.yul\":4264:4284   */\n      tag_277\n        /* \"#utility.yul\":4282:4283   */\n      dup4\n        /* \"#utility.yul\":4264:4284   */\n      tag_178\n      jump\t// in\n    tag_277:\n        /* \"#utility.yul\":4259:4284   */\n      swap3\n      pop\n        /* \"#utility.yul\":4303:4304   */\n      dup3\n        /* \"#utility.yul\":4300:4301   */\n      dup3\n        /* \"#utility.yul\":4297:4305   */\n      lt\n        /* \"#utility.yul\":4294:4328   */\n      iszero\n      tag_278\n      jumpi\n        /* \"#utility.yul\":4308:4326   */\n      tag_279\n      tag_188\n      jump\t// in\n    tag_279:\n        /* \"#utility.yul\":4294:4328   */\n    tag_278:\n        /* \"#utility.yul\":4353:4354   */\n      dup3\n        /* \"#utility.yul\":4350:4351   */\n      dup3\n        /* \"#utility.yul\":4346:4355   */\n      sub\n        /* \"#utility.yul\":4338:4355   */\n      swap1\n      pop\n        /* \"#utility.yul\":4170:4361   */\n      swap3\n      swap2\n      pop\n      pop\n      jump\t// out\n        /* \"#utility.yul\":4367:4547   */\n    tag_63:\n        /* \"#utility.yul\":4415:4492   */\n      0x4e487b7100000000000000000000000000000000000000000000000000000000\n        /* \"#utility.yul\":4412:4413   */\n      0x00\n        /* \"#utility.yul\":4405:4493   */\n      mstore\n        /* \"#utility.yul\":4512:4516   */\n      0x32\n        /* \"#utility.yul\":4509:4510   */\n      0x04\n        /* \"#utility.yul\":4502:4517   */\n      mstore\n        /* \"#utility.yul\":4536:4540   */\n      0x24\n        /* \"#utility.yul\":4533:4534   */\n      0x00\n        /* \"#utility.yul\":4526:4541   */\n      revert\n        /* \"#utility.yul\":4553:4858   */\n    tag_66:\n        /* \"#utility.yul\":4593:4596   */\n      0x00\n        /* \"#utility.yul\":4612:4632   */\n      tag_282\n        /* \"#utility.yul\":4630:4631   */\n      dup3\n        /* \"#utility.yul\":4612:4632   */\n      tag_178\n      jump\t// in\n    tag_282:\n        /* \"#utility.yul\":4607:4632   */\n      swap2\n      pop\n        /* \"#utility.yul\":4646:4666   */\n      tag_283\n        /* \"#utility.yul\":4664:4665   */\n      dup4\n        /* \"#utility.yul\":4646:4666   */\n      tag_178\n      jump\t// in\n    tag_283:\n        /* \"#utility.yul\":4641:4666   */\n      swap3\n      pop\n        /* \"#utility.yul\":4800:4801   */\n      dup3\n        /* \"#utility.yul\":4732:4798   */\n      0xffffffffffffffffffffffffffffffffffffffffffffffffffffffffffffffff\n        /* \"#utility.yul\":4728:4802   */\n      sub\n        /* \"#utility.yul\":4725:4726   */\n      dup3\n        /* \"#utility.yul\":4722:4803   */\n      gt\n        /* \"#utility.yul\":4719:4826   */\n      iszero\n      tag_284\n      jumpi\n        /* \"#utility.yul\":4806:4824   */\n      tag_285\n      tag_188\n      jump\t// in\n    tag_285:\n        /* \"#utility.yul\":4719:4826   */\n    tag_284:\n        /* \"#utility.yul\":4850:4851   */\n      dup3\n        /* \"#utility.yul\":4847:4848   */\n      dup3\n        /* \"#utility.yul\":4843:4852   */\n      add\n        /* \"#utility.yul\":4836:4852   */\n      swap1\n      pop\n        /* \"#utility.yul\":4553:4858   */\n      swap3\n      swap2\n      pop\n      pop\n      jump\t// out\n        /* \"#utility.yul\":4864:5007   */\n    tag_189:\n        /* \"#utility.yul\":4921:4926   */\n      0x00\n        /* \"#utility.yul\":4952:4958   */\n      dup2\n        /* \"#utility.yul\":4946:4959   */\n      mload\n        /* \"#utility.yul\":4937:4959   */\n      swap1\n      pop\n        /* \"#utility.yul\":4968:5001   */\n      tag_287\n        /* \"#utility.yul\":4995:5000   */\n      dup2\n        /* \"#utility.yul\":4968:5001   */\n      tag_183\n      jump\t// in\n    tag_287:\n        /* \"#utility.yul\":4864:5007   */\n      swap3\n      swap2\n      pop\n      pop\n      jump\t// out\n        /* \"#utility.yul\":5013:5364   */\n    tag_83:\n        /* \"#utility.yul\":5083:5089   */\n      0x00\n        /* \"#utility.yul\":5132:5134   */\n      0x20\n        /* \"#utility.yul\":5120:5129   */\n      dup3\n        /* \"#utility.yul\":5111:5118   */\n      dup5\n        /* \"#utility.yul\":5107:5130   */\n      sub\n        /* \"#utility.yul\":5103:5135   */\n      slt\n        /* \"#utility.yul\":5100:5219   */\n      iszero\n      tag_289\n      jumpi\n        /* \"#utility.yul\":5138:5217   */\n      tag_290\n      tag_172\n      jump\t// in\n    tag_290:\n        /* \"#utility.yul\":5100:5219   */\n    tag_289:\n        /* \"#utility.yul\":5258:5259   */\n      0x00\n        /* \"#utility.yul\":5283:5347   */\n      tag_291\n        /* \"#utility.yul\":5339:5346   */\n      dup5\n        /* \"#utility.yul\":5330:5336   */\n      dup3\n        /* \"#utility.yul\":5319:5328   */\n      dup6\n        /* \"#utility.yul\":5315:5337   */\n      add\n        /* \"#utility.yul\":5283:5347   */\n      tag_189\n      jump\t// in\n    tag_291:\n        /* \"#utility.yul\":5273:5347   */\n      swap2\n      pop\n        /* \"#utility.yul\":5229:5357   */\n      pop\n        /* \"#utility.yul\":5013:5364   */\n      swap3\n      swap2\n      pop\n      pop\n      jump\t// out\n        /* \"#utility.yul\":5370:5488   */\n    tag_190:\n        /* \"#utility.yul\":5457:5481   */\n      tag_293\n        /* \"#utility.yul\":5475:5480   */\n      dup2\n        /* \"#utility.yul\":5457:5481   */\n      tag_178\n      jump\t// in\n    tag_293:\n        /* \"#utility.yul\":5452:5455   */\n      dup3\n        /* \"#utility.yul\":5445:5482   */\n      mstore\n        /* \"#utility.yul\":5370:5488   */\n      pop\n      pop\n      jump\t// out\n        /* \"#utility.yul\":5494:5662   */\n    tag_191:\n        /* \"#utility.yul\":5577:5588   */\n      0x00\n        /* \"#utility.yul\":5611:5617   */\n      dup3\n        /* \"#utility.yul\":5606:5609   */\n      dup3\n        /* \"#utility.yul\":5599:5618   */\n      mstore\n        /* \"#utility.yul\":5651:5655   */\n      0x20\n        /* \"#utility.yul\":5646:5649   */\n      dup3\n        /* \"#utility.yul\":5642:5656   */\n      add\n        /* \"#utility.yul\":5627:5656   */\n      swap1\n      pop\n        /* \"#utility.yul\":5494:5662   */\n      swap3\n      swap2\n      pop\n      pop\n      jump\t// out\n        /* \"#utility.yul\":5668:5782   */\n    tag_192:\n      pop\n      jump\t// out\n        /* \"#utility.yul\":5788:6150   */\n    tag_193:\n        /* \"#utility.yul\":5929:5932   */\n      0x00\n        /* \"#utility.yul\":5950:6015   */\n      tag_297\n        /* \"#utility.yul\":6013:6014   */\n      0x00\n        /* \"#utility.yul\":6008:6011   */\n      dup4\n        /* \"#utility.yul\":5950:6015   */\n      tag_191\n      jump\t// in\n    tag_297:\n        /* \"#utility.yul\":5943:6015   */\n      swap2\n      pop\n        /* \"#utility.yul\":6024:6117   */\n      tag_298\n        /* \"#utility.yul\":6113:6116   */\n      dup3\n        /* \"#utility.yul\":6024:6117   */\n      tag_192\n      jump\t// in\n    tag_298:\n        /* \"#utility.yul\":6142:6143   */\n      0x00\n        /* \"#utility.yul\":6137:6140   */\n      dup3\n        /* \"#utility.yul\":6133:6144   */\n      add\n        /* \"#utility.yul\":6126:6144   */\n      swap1\n      pop\n        /* \"#utility.yul\":5788:6150   */\n      swap2\n      swap1\n      pop\n      jump\t// out\n        /* \"#utility.yul\":6156:6904   */\n    tag_96:\n        /* \"#utility.yul\":6405:6409   */\n      0x00\n        /* \"#utility.yul\":6443:6446   */\n      0x80\n        /* \"#utility.yul\":6432:6441   */\n      dup3\n        /* \"#utility.yul\":6428:6447   */\n      add\n        /* \"#utility.yul\":6420:6447   */\n      swap1\n      pop\n        /* \"#utility.yul\":6457:6528   */\n      tag_300\n        /* \"#utility.yul\":6525:6526   */\n      0x00\n        /* \"#utility.yul\":6514:6523   */\n      dup4\n        /* \"#utility.yul\":6510:6527   */\n      add\n        /* \"#utility.yul\":6501:6507   */\n      dup7\n        /* \"#utility.yul\":6457:6528   */\n      tag_190\n      jump\t// in\n    tag_300:\n        /* \"#utility.yul\":6538:6610   */\n      tag_301\n        /* \"#utility.yul\":6606:6608   */\n      0x20\n        /* \"#utility.yul\":6595:6604   */\n      dup4\n        /* \"#utility.yul\":6591:6609   */\n      add\n        /* \"#utility.yul\":6582:6588   */\n      dup6\n        /* \"#utility.yul\":6538:6610   */\n      tag_190\n      jump\t// in\n    tag_301:\n        /* \"#utility.yul\":6620:6692   */\n      tag_302\n        /* \"#utility.yul\":6688:6690   */\n      0x40\n        /* \"#utility.yul\":6677:6686   */\n      dup4\n        /* \"#utility.yul\":6673:6691   */\n      add\n        /* \"#utility.yul\":6664:6670   */\n      dup5\n        /* \"#utility.yul\":6620:6692   */\n      tag_185\n      jump\t// in\n    tag_302:\n        /* \"#utility.yul\":6739:6748   */\n      dup2\n        /* \"#utility.yul\":6733:6737   */\n      dup2\n        /* \"#utility.yul\":6729:6749   */\n      sub\n        /* \"#utility.yul\":6724:6726   */\n      0x60\n        /* \"#utility.yul\":6713:6722   */\n      dup4\n        /* \"#utility.yul\":6709:6727   */\n      add\n        /* \"#utility.yul\":6702:6750   */\n      mstore\n        /* \"#utility.yul\":6767:6897   */\n      tag_303\n        /* \"#utility.yul\":6892:6896   */\n      dup2\n        /* \"#utility.yul\":6767:6897   */\n      tag_193\n      jump\t// in\n    tag_303:\n        /* \"#utility.yul\":6759:6897   */\n      swap1\n      pop\n        /* \"#utility.yul\":6156:6904   */\n      swap5\n      swap4\n      pop\n      pop\n      pop\n      pop\n      jump\t// out\n        /* \"#utility.yul\":6910:7143   */\n    tag_101:\n        /* \"#utility.yul\":6949:6952   */\n      0x00\n        /* \"#utility.yul\":6972:6996   */\n      tag_305\n        /* \"#utility.yul\":6990:6995   */\n      dup3\n        /* \"#utility.yul\":6972:6996   */\n      tag_178\n      jump\t// in\n    tag_305:\n        /* \"#utility.yul\":6963:6996   */\n      swap2\n      pop\n        /* \"#utility.yul\":7018:7084   */\n      0xffffffffffffffffffffffffffffffffffffffffffffffffffffffffffffffff\n        /* \"#utility.yul\":7011:7016   */\n      dup3\n        /* \"#utility.yul\":7008:7085   */\n      sub\n        /* \"#utility.yul\":7005:7108   */\n      tag_306\n      jumpi\n        /* \"#utility.yul\":7088:7106   */\n      tag_307\n      tag_188\n      jump\t// in\n    tag_307:\n        /* \"#utility.yul\":7005:7108   */\n    tag_306:\n        /* \"#utility.yul\":7135:7136   */\n      0x01\n        /* \"#utility.yul\":7128:7133   */\n      dup3\n        /* \"#utility.yul\":7124:7137   */\n      add\n        /* \"#utility.yul\":7117:7137   */\n      swap1\n      pop\n        /* \"#utility.yul\":6910:7143   */\n      swap2\n      swap1\n      pop\n      jump\t// out\n        /* \"#utility.yul\":7149:7243   */\n    tag_194:\n        /* \"#utility.yul\":7182:7190   */\n      0x00\n        /* \"#utility.yul\":7230:7235   */\n      dup2\n        /* \"#utility.yul\":7226:7228   */\n      0x60\n        /* \"#utility.yul\":7222:7236   */\n      shl\n        /* \"#utility.yul\":7201:7236   */\n      swap1\n      pop\n        /* \"#utility.yul\":7149:7243   */\n      swap2\n      swap1\n      pop\n      jump\t// out\n        /* \"#utility.yul\":7249:7343   */\n    tag_195:\n        /* \"#utility.yul\":7288:7295   */\n      0x00\n        /* \"#utility.yul\":7317:7337   */\n      tag_310\n        /* \"#utility.yul\":7331:7336   */\n      dup3\n        /* \"#utility.yul\":7317:7337   */\n      tag_194\n      jump\t// in\n    tag_310:\n        /* \"#utility.yul\":7306:7337   */\n      swap1\n      pop\n        /* \"#utility.yul\":7249:7343   */\n      swap2\n      swap1\n      pop\n      jump\t// out\n        /* \"#utility.yul\":7349:7449   */\n    tag_196:\n        /* \"#utility.yul\":7388:7395   */\n      0x00\n        /* \"#utility.yul\":7417:7443   */\n      tag_312\n        /* \"#utility.yul\":7437:7442   */\n      dup3\n        /* \"#utility.yul\":7417:7443   */\n      tag_195\n      jump\t// in\n    tag_312:\n        /* \"#utility.yul\":7406:7443   */\n      swap1\n      pop\n        /* \"#utility.yul\":7349:7449   */\n      swap2\n      swap1\n      pop\n      jump\t// out\n        /* \"#utility.yul\":7455:7612   */\n    tag_197:\n        /* \"#utility.yul\":7560:7605   */\n      tag_314\n        /* \"#utility.yul\":7580:7604   */\n      tag_315\n        /* \"#utility.yul\":7598:7603   */\n      dup3\n        /* \"#utility.yul\":7580:7604   */\n      tag_182\n      jump\t// in\n    tag_315:\n        /* \"#utility.yul\":7560:7605   */\n      tag_196\n      jump\t// in\n    tag_314:\n        /* \"#utility.yul\":7555:7558   */\n      dup3\n        /* \"#utility.yul\":7548:7606   */\n      mstore\n        /* \"#utility.yul\":7455:7612   */\n      pop\n      pop\n      jump\t// out\n        /* \"#utility.yul\":7618:8015   */\n    tag_121:\n        /* \"#utility.yul\":7758:7761   */\n      0x00\n        /* \"#utility.yul\":7773:7848   */\n      tag_317\n        /* \"#utility.yul\":7844:7847   */\n      dup3\n        /* \"#utility.yul\":7835:7841   */\n      dup6\n        /* \"#utility.yul\":7773:7848   */\n      tag_197\n      jump\t// in\n    tag_317:\n        /* \"#utility.yul\":7873:7875   */\n      0x14\n        /* \"#utility.yul\":7868:7871   */\n      dup3\n        /* \"#utility.yul\":7864:7876   */\n      add\n        /* \"#utility.yul\":7857:7876   */\n      swap2\n      pop\n        /* \"#utility.yul\":7886:7961   */\n      tag_318\n        /* \"#utility.yul\":7957:7960   */\n      dup3\n        /* \"#utility.yul\":7948:7954   */\n      dup5\n        /* \"#utility.yul\":7886:7961   */\n      tag_197\n      jump\t// in\n    tag_318:\n        /* \"#utility.yul\":7986:7988   */\n      0x14\n        /* \"#utility.yul\":7981:7984   */\n      dup3\n        /* \"#utility.yul\":7977:7989   */\n      add\n        /* \"#utility.yul\":7970:7989   */\n      swap2\n      pop\n        /* \"#utility.yul\":8006:8009   */\n      dup2\n        /* \"#utility.yul\":7999:8009   */\n      swap1\n      pop\n        /* \"#utility.yul\":7618:8015   */\n      swap4\n      swap3\n      pop\n      pop\n      pop\n      jump\t// out\n        /* \"#utility.yul\":8021:8169   */\n    tag_198:\n        /* \"#utility.yul\":8123:8134   */\n      0x00\n        /* \"#utility.yul\":8160:8163   */\n      dup2\n        /* \"#utility.yul\":8145:8163   */\n      swap1\n      pop\n        /* \"#utility.yul\":8021:8169   */\n      swap3\n      swap2\n      pop\n      pop\n      jump\t// out\n        /* \"#utility.yul\":8175:8389   */\n    tag_199:\n        /* \"#utility.yul\":8315:8381   */\n      0xff00000000000000000000000000000000000000000000000000000000000000\n        /* \"#utility.yul\":8311:8312   */\n      0x00\n        /* \"#utility.yul\":8303:8309   */\n      dup3\n        /* \"#utility.yul\":8299:8313   */\n      add\n        /* \"#utility.yul\":8292:8382   */\n      mstore\n        /* \"#utility.yul\":8175:8389   */\n      pop\n      jump\t// out\n        /* \"#utility.yul\":8395:8795   */\n    tag_200:\n        /* \"#utility.yul\":8555:8558   */\n      0x00\n        /* \"#utility.yul\":8576:8660   */\n      tag_322\n        /* \"#utility.yul\":8658:8659   */\n      0x01\n        /* \"#utility.yul\":8653:8656   */\n      dup4\n        /* \"#utility.yul\":8576:8660   */\n      tag_198\n      jump\t// in\n    tag_322:\n        /* \"#utility.yul\":8569:8660   */\n      swap2\n      pop\n        /* \"#utility.yul\":8669:8762   */\n      tag_323\n        /* \"#utility.yul\":8758:8761   */\n      dup3\n        /* \"#utility.yul\":8669:8762   */\n      tag_199\n      jump\t// in\n    tag_323:\n        /* \"#utility.yul\":8787:8788   */\n      0x01\n        /* \"#utility.yul\":8782:8785   */\n      dup3\n        /* \"#utility.yul\":8778:8789   */\n      add\n        /* \"#utility.yul\":8771:8789   */\n      swap1\n      pop\n        /* \"#utility.yul\":8395:8795   */\n      swap2\n      swap1\n      pop\n      jump\t// out\n        /* \"#utility.yul\":8801:8878   */\n    tag_201:\n        /* \"#utility.yul\":8838:8845   */\n      0x00\n        /* \"#utility.yul\":8867:8872   */\n      dup2\n        /* \"#utility.yul\":8856:8872   */\n      swap1\n      pop\n        /* \"#utility.yul\":8801:8878   */\n      swap2\n      swap1\n      pop\n      jump\t// out\n        /* \"#utility.yul\":8884:8963   */\n    tag_202:\n        /* \"#utility.yul\":8923:8930   */\n      0x00\n        /* \"#utility.yul\":8952:8957   */\n      dup2\n        /* \"#utility.yul\":8941:8957   */\n      swap1\n      pop\n        /* \"#utility.yul\":8884:8963   */\n      swap2\n      swap1\n      pop\n      jump\t// out\n        /* \"#utility.yul\":8969:9126   */\n    tag_203:\n        /* \"#utility.yul\":9074:9119   */\n      tag_327\n        /* \"#utility.yul\":9094:9118   */\n      tag_328\n        /* \"#utility.yul\":9112:9117   */\n      dup3\n        /* \"#utility.yul\":9094:9118   */\n      tag_201\n      jump\t// in\n    tag_328:\n        /* \"#utility.yul\":9074:9119   */\n      tag_202\n      jump\t// in\n    tag_327:\n        /* \"#utility.yul\":9069:9072   */\n      dup3\n        /* \"#utility.yul\":9062:9120   */\n      mstore\n        /* \"#utility.yul\":8969:9126   */\n      pop\n      pop\n      jump\t// out\n        /* \"#utility.yul\":9132:9346   */\n    tag_204:\n        /* \"#utility.yul\":9272:9338   */\n      0x96e8ac4277198ff8b6f785478aa9a39f403cb768dd02cbee326c3e7da348845f\n        /* \"#utility.yul\":9268:9269   */\n      0x00\n        /* \"#utility.yul\":9260:9266   */\n      dup3\n        /* \"#utility.yul\":9256:9270   */\n      add\n        /* \"#utility.yul\":9249:9339   */\n      mstore\n        /* \"#utility.yul\":9132:9346   */\n      pop\n      jump\t// out\n        /* \"#utility.yul\":9352:9754   */\n    tag_205:\n        /* \"#utility.yul\":9512:9515   */\n      0x00\n        /* \"#utility.yul\":9533:9618   */\n      tag_331\n        /* \"#utility.yul\":9615:9617   */\n      0x20\n        /* \"#utility.yul\":9610:9613   */\n      dup4\n        /* \"#utility.yul\":9533:9618   */\n      tag_198\n      jump\t// in\n    tag_331:\n        /* \"#utility.yul\":9526:9618   */\n      swap2\n      pop\n        /* \"#utility.yul\":9627:9720   */\n      tag_332\n        /* \"#utility.yul\":9716:9719   */\n      dup3\n        /* \"#utility.yul\":9627:9720   */\n      tag_204\n      jump\t// in\n    tag_332:\n        /* \"#utility.yul\":9745:9747   */\n      0x20\n        /* \"#utility.yul\":9740:9743   */\n      dup3\n        /* \"#utility.yul\":9736:9748   */\n      add\n        /* \"#utility.yul\":9729:9748   */\n      swap1\n      pop\n        /* \"#utility.yul\":9352:9754   */\n      swap2\n      swap1\n      pop\n      jump\t// out\n        /* \"#utility.yul\":9760:10689   */\n    tag_123:\n        /* \"#utility.yul\":10102:10105   */\n      0x00\n        /* \"#utility.yul\":10124:10272   */\n      tag_334\n        /* \"#utility.yul\":10268:10271   */\n      dup3\n        /* \"#utility.yul\":10124:10272   */\n      tag_200\n      jump\t// in\n    tag_334:\n        /* \"#utility.yul\":10117:10272   */\n      swap2\n      pop\n        /* \"#utility.yul\":10282:10357   */\n      tag_335\n        /* \"#utility.yul\":10353:10356   */\n      dup3\n        /* \"#utility.yul\":10344:10350   */\n      dup6\n        /* \"#utility.yul\":10282:10357   */\n      tag_197\n      jump\t// in\n    tag_335:\n        /* \"#utility.yul\":10382:10384   */\n      0x14\n        /* \"#utility.yul\":10377:10380   */\n      dup3\n        /* \"#utility.yul\":10373:10385   */\n      add\n        /* \"#utility.yul\":10366:10385   */\n      swap2\n      pop\n        /* \"#utility.yul\":10395:10470   */\n      tag_336\n        /* \"#utility.yul\":10466:10469   */\n      dup3\n        /* \"#utility.yul\":10457:10463   */\n      dup5\n        /* \"#utility.yul\":10395:10470   */\n      tag_203\n      jump\t// in\n    tag_336:\n        /* \"#utility.yul\":10495:10497   */\n      0x20\n        /* \"#utility.yul\":10490:10493   */\n      dup3\n        /* \"#utility.yul\":10486:10498   */\n      add\n        /* \"#utility.yul\":10479:10498   */\n      swap2\n      pop\n        /* \"#utility.yul\":10515:10663   */\n      tag_337\n        /* \"#utility.yul\":10659:10662   */\n      dup3\n        /* \"#utility.yul\":10515:10663   */\n      tag_205\n      jump\t// in\n    tag_337:\n        /* \"#utility.yul\":10508:10663   */\n      swap2\n      pop\n        /* \"#utility.yul\":10680:10683   */\n      dup2\n        /* \"#utility.yul\":10673:10683   */\n      swap1\n      pop\n        /* \"#utility.yul\":9760:10689   */\n      swap4\n      swap3\n      pop\n      pop\n      pop\n      jump\t// out\n        /* \"#utility.yul\":10695:10809   */\n    tag_206:\n        /* \"#utility.yul\":10732:10739   */\n      0x00\n        /* \"#utility.yul\":10772:10802   */\n      0xffffffffffffffffffffffffffff\n        /* \"#utility.yul\":10765:10770   */\n      dup3\n        /* \"#utility.yul\":10761:10803   */\n      and\n        /* \"#utility.yul\":10750:10803   */\n      swap1\n      pop\n        /* \"#utility.yul\":10695:10809   */\n      swap2\n      swap1\n      pop\n      jump\t// out\n        /* \"#utility.yul\":10815:10937   */\n    tag_207:\n        /* \"#utility.yul\":10888:10912   */\n      tag_340\n        /* \"#utility.yul\":10906:10911   */\n      dup2\n        /* \"#utility.yul\":10888:10912   */\n      tag_206\n      jump\t// in\n    tag_340:\n        /* \"#utility.yul\":10881:10886   */\n      dup2\n        /* \"#utility.yul\":10878:10913   */\n      eq\n        /* \"#utility.yul\":10868:10931   */\n      tag_341\n      jumpi\n        /* \"#utility.yul\":10927:10928   */\n      0x00\n        /* \"#utility.yul\":10924:10925   */\n      dup1\n        /* \"#utility.yul\":10917:10929   */\n      revert\n        /* \"#utility.yul\":10868:10931   */\n    tag_341:\n        /* \"#utility.yul\":10815:10937   */\n      pop\n      jump\t// out\n        /* \"#utility.yul\":10943:11086   */\n    tag_208:\n        /* \"#utility.yul\":11000:11005   */\n      0x00\n        /* \"#utility.yul\":11031:11037   */\n      dup2\n        /* \"#utility.yul\":11025:11038   */\n      mload\n        /* \"#utility.yul\":11016:11038   */\n      swap1\n      pop\n        /* \"#utility.yul\":11047:11080   */\n      tag_343\n        /* \"#utility.yul\":11074:11079   */\n      dup2\n        /* \"#utility.yul\":11047:11080   */\n      tag_207\n      jump\t// in\n    tag_343:\n        /* \"#utility.yul\":10943:11086   */\n      swap3\n      swap2\n      pop\n      pop\n      jump\t// out\n        /* \"#utility.yul\":11092:11185   */\n    tag_209:\n        /* \"#utility.yul\":11128:11135   */\n      0x00\n        /* \"#utility.yul\":11168:11178   */\n      0xffffffff\n        /* \"#utility.yul\":11161:11166   */\n      dup3\n        /* \"#utility.yul\":11157:11179   */\n      and\n        /* \"#utility.yul\":11146:11179   */\n      swap1\n      pop\n        /* \"#utility.yul\":11092:11185   */\n      swap2\n      swap1\n      pop\n      jump\t// out\n        /* \"#utility.yul\":11191:11311   */\n    tag_210:\n        /* \"#utility.yul\":11263:11286   */\n      tag_346\n        /* \"#utility.yul\":11280:11285   */\n      dup2\n        /* \"#utility.yul\":11263:11286   */\n      tag_209\n      jump\t// in\n    tag_346:\n        /* \"#utility.yul\":11256:11261   */\n      dup2\n        /* \"#utility.yul\":11253:11287   */\n      eq\n        /* \"#utility.yul\":11243:11305   */\n      tag_347\n      jumpi\n        /* \"#utility.yul\":11301:11302   */\n      0x00\n        /* \"#utility.yul\":11298:11299   */\n      dup1\n        /* \"#utility.yul\":11291:11303   */\n      revert\n        /* \"#utility.yul\":11243:11305   */\n    tag_347:\n        /* \"#utility.yul\":11191:11311   */\n      pop\n      jump\t// out\n        /* \"#utility.yul\":11317:11458   */\n    tag_211:\n        /* \"#utility.yul\":11373:11378   */\n      0x00\n        /* \"#utility.yul\":11404:11410   */\n      dup2\n        /* \"#utility.yul\":11398:11411   */\n      mload\n        /* \"#utility.yul\":11389:11411   */\n      swap1\n      pop\n        /* \"#utility.yul\":11420:11452   */\n      tag_349\n        /* \"#utility.yul\":11446:11451   */\n      dup2\n        /* \"#utility.yul\":11420:11452   */\n      tag_210\n      jump\t// in\n    tag_349:\n        /* \"#utility.yul\":11317:11458   */\n      swap3\n      swap2\n      pop\n      pop\n      jump\t// out\n        /* \"#utility.yul\":11464:12125   */\n    tag_130:\n        /* \"#utility.yul\":11551:11557   */\n      0x00\n        /* \"#utility.yul\":11559:11565   */\n      dup1\n        /* \"#utility.yul\":11567:11573   */\n      0x00\n        /* \"#utility.yul\":11616:11618   */\n      0x60\n        /* \"#utility.yul\":11604:11613   */\n      dup5\n        /* \"#utility.yul\":11595:11602   */\n      dup7\n        /* \"#utility.yul\":11591:11614   */\n      sub\n        /* \"#utility.yul\":11587:11619   */\n      slt\n        /* \"#utility.yul\":11584:11703   */\n      iszero\n      tag_351\n      jumpi\n        /* \"#utility.yul\":11622:11701   */\n      tag_352\n      tag_172\n      jump\t// in\n    tag_352:\n        /* \"#utility.yul\":11584:11703   */\n    tag_351:\n        /* \"#utility.yul\":11742:11743   */\n      0x00\n        /* \"#utility.yul\":11767:11831   */\n      tag_353\n        /* \"#utility.yul\":11823:11830   */\n      dup7\n        /* \"#utility.yul\":11814:11820   */\n      dup3\n        /* \"#utility.yul\":11803:11812   */\n      dup8\n        /* \"#utility.yul\":11799:11821   */\n      add\n        /* \"#utility.yul\":11767:11831   */\n      tag_208\n      jump\t// in\n    tag_353:\n        /* \"#utility.yul\":11757:11831   */\n      swap4\n      pop\n        /* \"#utility.yul\":11713:11841   */\n      pop\n        /* \"#utility.yul\":11880:11882   */\n      0x20\n        /* \"#utility.yul\":11906:11970   */\n      tag_354\n        /* \"#utility.yul\":11962:11969   */\n      dup7\n        /* \"#utility.yul\":11953:11959   */\n      dup3\n        /* \"#utility.yul\":11942:11951   */\n      dup8\n        /* \"#utility.yul\":11938:11960   */\n      add\n        /* \"#utility.yul\":11906:11970   */\n      tag_208\n      jump\t// in\n    tag_354:\n        /* \"#utility.yul\":11896:11970   */\n      swap3\n      pop\n        /* \"#utility.yul\":11851:11980   */\n      pop\n        /* \"#utility.yul\":12019:12021   */\n      0x40\n        /* \"#utility.yul\":12045:12108   */\n      tag_355\n        /* \"#utility.yul\":12100:12107   */\n      dup7\n        /* \"#utility.yul\":12091:12097   */\n      dup3\n        /* \"#utility.yul\":12080:12089   */\n      dup8\n        /* \"#utility.yul\":12076:12098   */\n      add\n        /* \"#utility.yul\":12045:12108   */\n      tag_211\n      jump\t// in\n    tag_355:\n        /* \"#utility.yul\":12035:12108   */\n      swap2\n      pop\n        /* \"#utility.yul\":11990:12118   */\n      pop\n        /* \"#utility.yul\":11464:12125   */\n      swap3\n      pop\n      swap3\n      pop\n      swap3\n      jump\t// out\n        /* \"#utility.yul\":12131:12300   */\n    tag_212:\n        /* \"#utility.yul\":12215:12226   */\n      0x00\n        /* \"#utility.yul\":12249:12255   */\n      dup3\n        /* \"#utility.yul\":12244:12247   */\n      dup3\n        /* \"#utility.yul\":12237:12256   */\n      mstore\n        /* \"#utility.yul\":12289:12293   */\n      0x20\n        /* \"#utility.yul\":12284:12287   */\n      dup3\n        /* \"#utility.yul\":12280:12294   */\n      add\n        /* \"#utility.yul\":12265:12294   */\n      swap1\n      pop\n        /* \"#utility.yul\":12131:12300   */\n      swap3\n      swap2\n      pop\n      pop\n      jump\t// out\n        /* \"#utility.yul\":12306:12536   */\n    tag_213:\n        /* \"#utility.yul\":12446:12480   */\n      0x556e697377617056324c6962726172793a20494e53554646494349454e545f49\n        /* \"#utility.yul\":12442:12443   */\n      0x00\n        /* \"#utility.yul\":12434:12440   */\n      dup3\n        /* \"#utility.yul\":12430:12444   */\n      add\n        /* \"#utility.yul\":12423:12481   */\n      mstore\n        /* \"#utility.yul\":12515:12528   */\n      0x4e5055545f414d4f554e54000000000000000000000000000000000000000000\n        /* \"#utility.yul\":12510:12512   */\n      0x20\n        /* \"#utility.yul\":12502:12508   */\n      dup3\n        /* \"#utility.yul\":12498:12513   */\n      add\n        /* \"#utility.yul\":12491:12529   */\n      mstore\n        /* \"#utility.yul\":12306:12536   */\n      pop\n      jump\t// out\n        /* \"#utility.yul\":12542:12908   */\n    tag_214:\n        /* \"#utility.yul\":12684:12687   */\n      0x00\n        /* \"#utility.yul\":12705:12772   */\n      tag_359\n        /* \"#utility.yul\":12769:12771   */\n      0x2b\n        /* \"#utility.yul\":12764:12767   */\n      dup4\n        /* \"#utility.yul\":12705:12772   */\n      tag_212\n      jump\t// in\n    tag_359:\n        /* \"#utility.yul\":12698:12772   */\n      swap2\n      pop\n        /* \"#utility.yul\":12781:12874   */\n      tag_360\n        /* \"#utility.yul\":12870:12873   */\n      dup3\n        /* \"#utility.yul\":12781:12874   */\n      tag_213\n      jump\t// in\n    tag_360:\n        /* \"#utility.yul\":12899:12901   */\n      0x40\n        /* \"#utility.yul\":12894:12897   */\n      dup3\n        /* \"#utility.yul\":12890:12902   */\n      add\n        /* \"#utility.yul\":12883:12902   */\n      swap1\n      pop\n        /* \"#utility.yul\":12542:12908   */\n      swap2\n      swap1\n      pop\n      jump\t// out\n        /* \"#utility.yul\":12914:13333   */\n    tag_136:\n        /* \"#utility.yul\":13080:13084   */\n      0x00\n        /* \"#utility.yul\":13118:13120   */\n      0x20\n        /* \"#utility.yul\":13107:13116   */\n      dup3\n        /* \"#utility.yul\":13103:13121   */\n      add\n        /* \"#utility.yul\":13095:13121   */\n      swap1\n      pop\n        /* \"#utility.yul\":13167:13176   */\n      dup2\n        /* \"#utility.yul\":13161:13165   */\n      dup2\n        /* \"#utility.yul\":13157:13177   */\n      sub\n        /* \"#utility.yul\":13153:13154   */\n      0x00\n        /* \"#utility.yul\":13142:13151   */\n      dup4\n        /* \"#utility.yul\":13138:13155   */\n      add\n        /* \"#utility.yul\":13131:13178   */\n      mstore\n        /* \"#utility.yul\":13195:13326   */\n      tag_362\n        /* \"#utility.yul\":13321:13325   */\n      dup2\n        /* \"#utility.yul\":13195:13326   */\n      tag_214\n      jump\t// in\n    tag_362:\n        /* \"#utility.yul\":13187:13326   */\n      swap1\n      pop\n        /* \"#utility.yul\":12914:13333   */\n      swap2\n      swap1\n      pop\n      jump\t// out\n        /* \"#utility.yul\":13339:13566   */\n    tag_215:\n        /* \"#utility.yul\":13479:13513   */\n      0x556e697377617056324c6962726172793a20494e53554646494349454e545f4c\n        /* \"#utility.yul\":13475:13476   */\n      0x00\n        /* \"#utility.yul\":13467:13473   */\n      dup3\n        /* \"#utility.yul\":13463:13477   */\n      add\n        /* \"#utility.yul\":13456:13514   */\n      mstore\n        /* \"#utility.yul\":13548:13558   */\n      0x4951554944495459000000000000000000000000000000000000000000000000\n        /* \"#utility.yul\":13543:13545   */\n      0x20\n        /* \"#utility.yul\":13535:13541   */\n      dup3\n        /* \"#utility.yul\":13531:13546   */\n      add\n        /* \"#utility.yul\":13524:13559   */\n      mstore\n        /* \"#utility.yul\":13339:13566   */\n      pop\n      jump\t// out\n        /* \"#utility.yul\":13572:13938   */\n    tag_216:\n        /* \"#utility.yul\":13714:13717   */\n      0x00\n        /* \"#utility.yul\":13735:13802   */\n      tag_365\n        /* \"#utility.yul\":13799:13801   */\n      0x28\n        /* \"#utility.yul\":13794:13797   */\n      dup4\n        /* \"#utility.yul\":13735:13802   */\n      tag_212\n      jump\t// in\n    tag_365:\n        /* \"#utility.yul\":13728:13802   */\n      swap2\n      pop\n        /* \"#utility.yul\":13811:13904   */\n      tag_366\n        /* \"#utility.yul\":13900:13903   */\n      dup3\n        /* \"#utility.yul\":13811:13904   */\n      tag_215\n      jump\t// in\n    tag_366:\n        /* \"#utility.yul\":13929:13931   */\n      0x40\n        /* \"#utility.yul\":13924:13927   */\n      dup3\n        /* \"#utility.yul\":13920:13932   */\n      add\n        /* \"#utility.yul\":13913:13932   */\n      swap1\n      pop\n        /* \"#utility.yul\":13572:13938   */\n      swap2\n      swap1\n      pop\n      jump\t// out\n        /* \"#utility.yul\":13944:14363   */\n    tag_140:\n        /* \"#utility.yul\":14110:14114   */\n      0x00\n        /* \"#utility.yul\":14148:14150   */\n      0x20\n        /* \"#utility.yul\":14137:14146   */\n      dup3\n        /* \"#utility.yul\":14133:14151   */\n      add\n        /* \"#utility.yul\":14125:14151   */\n      swap1\n      pop\n        /* \"#utility.yul\":14197:14206   */\n      dup2\n        /* \"#utility.yul\":14191:14195   */\n      dup2\n        /* \"#utility.yul\":14187:14207   */\n      sub\n        /* \"#utility.yul\":14183:14184   */\n      0x00\n        /* \"#utility.yul\":14172:14181   */\n      dup4\n        /* \"#utility.yul\":14168:14185   */\n      add\n        /* \"#utility.yul\":14161:14208   */\n      mstore\n        /* \"#utility.yul\":14225:14356   */\n      tag_368\n        /* \"#utility.yul\":14351:14355   */\n      dup2\n        /* \"#utility.yul\":14225:14356   */\n      tag_216\n      jump\t// in\n    tag_368:\n        /* \"#utility.yul\":14217:14356   */\n      swap1\n      pop\n        /* \"#utility.yul\":13944:14363   */\n      swap2\n      swap1\n      pop\n      jump\t// out\n        /* \"#utility.yul\":14369:14549   */\n    tag_217:\n        /* \"#utility.yul\":14417:14494   */\n      0x4e487b7100000000000000000000000000000000000000000000000000000000\n        /* \"#utility.yul\":14414:14415   */\n      0x00\n        /* \"#utility.yul\":14407:14495   */\n      mstore\n        /* \"#utility.yul\":14514:14518   */\n      0x12\n        /* \"#utility.yul\":14511:14512   */\n      0x04\n        /* \"#utility.yul\":14504:14519   */\n      mstore\n        /* \"#utility.yul\":14538:14542   */\n      0x24\n        /* \"#utility.yul\":14535:14536   */\n      0x00\n        /* \"#utility.yul\":14528:14543   */\n      revert\n        /* \"#utility.yul\":14555:14740   */\n    tag_148:\n        /* \"#utility.yul\":14595:14596   */\n      0x00\n        /* \"#utility.yul\":14612:14632   */\n      tag_371\n        /* \"#utility.yul\":14630:14631   */\n      dup3\n        /* \"#utility.yul\":14612:14632   */\n      tag_178\n      jump\t// in\n    tag_371:\n        /* \"#utility.yul\":14607:14632   */\n      swap2\n      pop\n        /* \"#utility.yul\":14646:14666   */\n      tag_372\n        /* \"#utility.yul\":14664:14665   */\n      dup4\n        /* \"#utility.yul\":14646:14666   */\n      tag_178\n      jump\t// in\n    tag_372:\n        /* \"#utility.yul\":14641:14666   */\n      swap3\n      pop\n        /* \"#utility.yul\":14685:14686   */\n      dup3\n        /* \"#utility.yul\":14675:14710   */\n      tag_373\n      jumpi\n        /* \"#utility.yul\":14690:14708   */\n      tag_374\n      tag_217\n      jump\t// in\n    tag_374:\n        /* \"#utility.yul\":14675:14710   */\n    tag_373:\n        /* \"#utility.yul\":14732:14733   */\n      dup3\n        /* \"#utility.yul\":14729:14730   */\n      dup3\n        /* \"#utility.yul\":14725:14734   */\n      div\n        /* \"#utility.yul\":14720:14734   */\n      swap1\n      pop\n        /* \"#utility.yul\":14555:14740   */\n      swap3\n      swap2\n      pop\n      pop\n      jump\t// out\n        /* \"#utility.yul\":14746:14970   */\n    tag_218:\n        /* \"#utility.yul\":14886:14920   */\n      0x556e697377617056324c6962726172793a204944454e544943414c5f41444452\n        /* \"#utility.yul\":14882:14883   */\n      0x00\n        /* \"#utility.yul\":14874:14880   */\n      dup3\n        /* \"#utility.yul\":14870:14884   */\n      add\n        /* \"#utility.yul\":14863:14921   */\n      mstore\n        /* \"#utility.yul\":14955:14962   */\n      0x4553534553000000000000000000000000000000000000000000000000000000\n        /* \"#utility.yul\":14950:14952   */\n      0x20\n        /* \"#utility.yul\":14942:14948   */\n      dup3\n        /* \"#utility.yul\":14938:14953   */\n      add\n        /* \"#utility.yul\":14931:14963   */\n      mstore\n        /* \"#utility.yul\":14746:14970   */\n      pop\n      jump\t// out\n        /* \"#utility.yul\":14976:15342   */\n    tag_219:\n        /* \"#utility.yul\":15118:15121   */\n      0x00\n        /* \"#utility.yul\":15139:15206   */\n      tag_377\n        /* \"#utility.yul\":15203:15205   */\n      0x25\n        /* \"#utility.yul\":15198:15201   */\n      dup4\n        /* \"#utility.yul\":15139:15206   */\n      tag_212\n      jump\t// in\n    tag_377:\n        /* \"#utility.yul\":15132:15206   */\n      swap2\n      pop\n        /* \"#utility.yul\":15215:15308   */\n      tag_378\n        /* \"#utility.yul\":15304:15307   */\n      dup3\n        /* \"#utility.yul\":15215:15308   */\n      tag_218\n      jump\t// in\n    tag_378:\n        /* \"#utility.yul\":15333:15335   */\n      0x40\n        /* \"#utility.yul\":15328:15331   */\n      dup3\n        /* \"#utility.yul\":15324:15336   */\n      add\n        /* \"#utility.yul\":15317:15336   */\n      swap1\n      pop\n        /* \"#utility.yul\":14976:15342   */\n      swap2\n      swap1\n      pop\n      jump\t// out\n        /* \"#utility.yul\":15348:15767   */\n    tag_152:\n        /* \"#utility.yul\":15514:15518   */\n      0x00\n        /* \"#utility.yul\":15552:15554   */\n      0x20\n        /* \"#utility.yul\":15541:15550   */\n      dup3\n        /* \"#utility.yul\":15537:15555   */\n      add\n        /* \"#utility.yul\":15529:15555   */\n      swap1\n      pop\n        /* \"#utility.yul\":15601:15610   */\n      dup2\n        /* \"#utility.yul\":15595:15599   */\n      dup2\n        /* \"#utility.yul\":15591:15611   */\n      sub\n        /* \"#utility.yul\":15587:15588   */\n      0x00\n        /* \"#utility.yul\":15576:15585   */\n      dup4\n        /* \"#utility.yul\":15572:15589   */\n      add\n        /* \"#utility.yul\":15565:15612   */\n      mstore\n        /* \"#utility.yul\":15629:15760   */\n      tag_380\n        /* \"#utility.yul\":15755:15759   */\n      dup2\n        /* \"#utility.yul\":15629:15760   */\n      tag_219\n      jump\t// in\n    tag_380:\n        /* \"#utility.yul\":15621:15760   */\n      swap1\n      pop\n        /* \"#utility.yul\":15348:15767   */\n      swap2\n      swap1\n      pop\n      jump\t// out\n        /* \"#utility.yul\":15773:15953   */\n    tag_220:\n        /* \"#utility.yul\":15913:15945   */\n      0x556e697377617056324c6962726172793a205a45524f5f414444524553530000\n        /* \"#utility.yul\":15909:15910   */\n      0x00\n        /* \"#utility.yul\":15901:15907   */\n      dup3\n        /* \"#utility.yul\":15897:15911   */\n      add\n        /* \"#utility.yul\":15890:15946   */\n      mstore\n        /* \"#utility.yul\":15773:15953   */\n      pop\n      jump\t// out\n        /* \"#utility.yul\":15959:16325   */\n    tag_221:\n        /* \"#utility.yul\":16101:16104   */\n      0x00\n        /* \"#utility.yul\":16122:16189   */\n      tag_383\n        /* \"#utility.yul\":16186:16188   */\n      0x1e\n        /* \"#utility.yul\":16181:16184   */\n      dup4\n        /* \"#utility.yul\":16122:16189   */\n      tag_212\n      jump\t// in\n    tag_383:\n        /* \"#utility.yul\":16115:16189   */\n      swap2\n      pop\n        /* \"#utility.yul\":16198:16291   */\n      tag_384\n        /* \"#utility.yul\":16287:16290   */\n      dup3\n        /* \"#utility.yul\":16198:16291   */\n      tag_220\n      jump\t// in\n    tag_384:\n        /* \"#utility.yul\":16316:16318   */\n      0x20\n        /* \"#utility.yul\":16311:16314   */\n      dup3\n        /* \"#utility.yul\":16307:16319   */\n      add\n        /* \"#utility.yul\":16300:16319   */\n      swap1\n      pop\n        /* \"#utility.yul\":15959:16325   */\n      swap2\n      swap1\n      pop\n      jump\t// out\n        /* \"#utility.yul\":16331:16750   */\n    tag_157:\n        /* \"#utility.yul\":16497:16501   */\n      0x00\n        /* \"#utility.yul\":16535:16537   */\n      0x20\n        /* \"#utility.yul\":16524:16533   */\n      dup3\n        /* \"#utility.yul\":16520:16538   */\n      add\n        /* \"#utility.yul\":16512:16538   */\n      swap1\n      pop\n        /* \"#utility.yul\":16584:16593   */\n      dup2\n        /* \"#utility.yul\":16578:16582   */\n      dup2\n        /* \"#utility.yul\":16574:16594   */\n      sub\n        /* \"#utility.yul\":16570:16571   */\n      0x00\n        /* \"#utility.yul\":16559:16568   */\n      dup4\n        /* \"#utility.yul\":16555:16572   */\n      add\n        /* \"#utility.yul\":16548:16595   */\n      mstore\n        /* \"#utility.yul\":16612:16743   */\n      tag_386\n        /* \"#utility.yul\":16738:16742   */\n      dup2\n        /* \"#utility.yul\":16612:16743   */\n      tag_221\n      jump\t// in\n    tag_386:\n        /* \"#utility.yul\":16604:16743   */\n      swap1\n      pop\n        /* \"#utility.yul\":16331:16750   */\n      swap2\n      swap1\n      pop\n      jump\t// out\n        /* \"#utility.yul\":16756:17104   */\n    tag_161:\n        /* \"#utility.yul\":16796:16803   */\n      0x00\n        /* \"#utility.yul\":16819:16839   */\n      tag_388\n        /* \"#utility.yul\":16837:16838   */\n      dup3\n        /* \"#utility.yul\":16819:16839   */\n      tag_178\n      jump\t// in\n    tag_388:\n        /* \"#utility.yul\":16814:16839   */\n      swap2\n      pop\n        /* \"#utility.yul\":16853:16873   */\n      tag_389\n        /* \"#utility.yul\":16871:16872   */\n      dup4\n        /* \"#utility.yul\":16853:16873   */\n      tag_178\n      jump\t// in\n    tag_389:\n        /* \"#utility.yul\":16848:16873   */\n      swap3\n      pop\n        /* \"#utility.yul\":17041:17042   */\n      dup2\n        /* \"#utility.yul\":16973:17039   */\n      0xffffffffffffffffffffffffffffffffffffffffffffffffffffffffffffffff\n        /* \"#utility.yul\":16969:17043   */\n      div\n        /* \"#utility.yul\":16966:16967   */\n      dup4\n        /* \"#utility.yul\":16963:17044   */\n      gt\n        /* \"#utility.yul\":16958:16959   */\n      dup3\n        /* \"#utility.yul\":16951:16960   */\n      iszero\n        /* \"#utility.yul\":16944:16961   */\n      iszero\n        /* \"#utility.yul\":16940:17045   */\n      and\n        /* \"#utility.yul\":16937:17068   */\n      iszero\n      tag_390\n      jumpi\n        /* \"#utility.yul\":17048:17066   */\n      tag_391\n      tag_188\n      jump\t// in\n    tag_391:\n        /* \"#utility.yul\":16937:17068   */\n    tag_390:\n        /* \"#utility.yul\":17096:17097   */\n      dup3\n        /* \"#utility.yul\":17093:17094   */\n      dup3\n        /* \"#utility.yul\":17089:17098   */\n      mul\n        /* \"#utility.yul\":17078:17098   */\n      swap1\n      pop\n        /* \"#utility.yul\":16756:17104   */\n      swap3\n      swap2\n      pop\n      pop\n      jump\t// out\n        /* \"#utility.yul\":17110:17330   */\n    tag_222:\n        /* \"#utility.yul\":17250:17284   */\n      0x536166654d6174683a206d756c7469706c69636174696f6e206f766572666c6f\n        /* \"#utility.yul\":17246:17247   */\n      0x00\n        /* \"#utility.yul\":17238:17244   */\n      dup3\n        /* \"#utility.yul\":17234:17248   */\n      add\n        /* \"#utility.yul\":17227:17285   */\n      mstore\n        /* \"#utility.yul\":17319:17322   */\n      0x7700000000000000000000000000000000000000000000000000000000000000\n        /* \"#utility.yul\":17314:17316   */\n      0x20\n        /* \"#utility.yul\":17306:17312   */\n      dup3\n        /* \"#utility.yul\":17302:17317   */\n      add\n        /* \"#utility.yul\":17295:17323   */\n      mstore\n        /* \"#utility.yul\":17110:17330   */\n      pop\n      jump\t// out\n        /* \"#utility.yul\":17336:17702   */\n    tag_223:\n        /* \"#utility.yul\":17478:17481   */\n      0x00\n        /* \"#utility.yul\":17499:17566   */\n      tag_394\n        /* \"#utility.yul\":17563:17565   */\n      0x21\n        /* \"#utility.yul\":17558:17561   */\n      dup4\n        /* \"#utility.yul\":17499:17566   */\n      tag_212\n      jump\t// in\n    tag_394:\n        /* \"#utility.yul\":17492:17566   */\n      swap2\n      pop\n        /* \"#utility.yul\":17575:17668   */\n      tag_395\n        /* \"#utility.yul\":17664:17667   */\n      dup3\n        /* \"#utility.yul\":17575:17668   */\n      tag_222\n      jump\t// in\n    tag_395:\n        /* \"#utility.yul\":17693:17695   */\n      0x40\n        /* \"#utility.yul\":17688:17691   */\n      dup3\n        /* \"#utility.yul\":17684:17696   */\n      add\n        /* \"#utility.yul\":17677:17696   */\n      swap1\n      pop\n        /* \"#utility.yul\":17336:17702   */\n      swap2\n      swap1\n      pop\n      jump\t// out\n        /* \"#utility.yul\":17708:18127   */\n    tag_165:\n        /* \"#utility.yul\":17874:17878   */\n      0x00\n        /* \"#utility.yul\":17912:17914   */\n      0x20\n        /* \"#utility.yul\":17901:17910   */\n      dup3\n        /* \"#utility.yul\":17897:17915   */\n      add\n        /* \"#utility.yul\":17889:17915   */\n      swap1\n      pop\n        /* \"#utility.yul\":17961:17970   */\n      dup2\n        /* \"#utility.yul\":17955:17959   */\n      dup2\n        /* \"#utility.yul\":17951:17971   */\n      sub\n        /* \"#utility.yul\":17947:17948   */\n      0x00\n        /* \"#utility.yul\":17936:17945   */\n      dup4\n        /* \"#utility.yul\":17932:17949   */\n      add\n        /* \"#utility.yul\":17925:17972   */\n      mstore\n        /* \"#utility.yul\":17989:18120   */\n      tag_397\n        /* \"#utility.yul\":18115:18119   */\n      dup2\n        /* \"#utility.yul\":17989:18120   */\n      tag_223\n      jump\t// in\n    tag_397:\n        /* \"#utility.yul\":17981:18120   */\n      swap1\n      pop\n        /* \"#utility.yul\":17708:18127   */\n      swap2\n      swap1\n      pop\n      jump\t// out\n        /* \"#utility.yul\":18133:18310   */\n    tag_224:\n        /* \"#utility.yul\":18273:18302   */\n      0x536166654d6174683a206164646974696f6e206f766572666c6f770000000000\n        /* \"#utility.yul\":18269:18270   */\n      0x00\n        /* \"#utility.yul\":18261:18267   */\n      dup3\n        /* \"#utility.yul\":18257:18271   */\n      add\n        /* \"#utility.yul\":18250:18303   */\n      mstore\n        /* \"#utility.yul\":18133:18310   */\n      pop\n      jump\t// out\n        /* \"#utility.yul\":18316:18682   */\n    tag_225:\n        /* \"#utility.yul\":18458:18461   */\n      0x00\n        /* \"#utility.yul\":18479:18546   */\n      tag_400\n        /* \"#utility.yul\":18543:18545   */\n      0x1b\n        /* \"#utility.yul\":18538:18541   */\n      dup4\n        /* \"#utility.yul\":18479:18546   */\n      tag_212\n      jump\t// in\n    tag_400:\n        /* \"#utility.yul\":18472:18546   */\n      swap2\n      pop\n        /* \"#utility.yul\":18555:18648   */\n      tag_401\n        /* \"#utility.yul\":18644:18647   */\n      dup3\n        /* \"#utility.yul\":18555:18648   */\n      tag_224\n      jump\t// in\n    tag_401:\n        /* \"#utility.yul\":18673:18675   */\n      0x20\n        /* \"#utility.yul\":18668:18671   */\n      dup3\n        /* \"#utility.yul\":18664:18676   */\n      add\n        /* \"#utility.yul\":18657:18676   */\n      swap1\n      pop\n        /* \"#utility.yul\":18316:18682   */\n      swap2\n      swap1\n      pop\n      jump\t// out\n        /* \"#utility.yul\":18688:19107   */\n    tag_170:\n        /* \"#utility.yul\":18854:18858   */\n      0x00\n        /* \"#utility.yul\":18892:18894   */\n      0x20\n        /* \"#utility.yul\":18881:18890   */\n      dup3\n        /* \"#utility.yul\":18877:18895   */\n      add\n        /* \"#utility.yul\":18869:18895   */\n      swap1\n      pop\n        /* \"#utility.yul\":18941:18950   */\n      dup2\n        /* \"#utility.yul\":18935:18939   */\n      dup2\n        /* \"#utility.yul\":18931:18951   */\n      sub\n        /* \"#utility.yul\":18927:18928   */\n      0x00\n        /* \"#utility.yul\":18916:18925   */\n      dup4\n        /* \"#utility.yul\":18912:18929   */\n      add\n        /* \"#utility.yul\":18905:18952   */\n      mstore\n        /* \"#utility.yul\":18969:19100   */\n      tag_403\n        /* \"#utility.yul\":19095:19099   */\n      dup2\n        /* \"#utility.yul\":18969:19100   */\n      tag_225\n      jump\t// in\n    tag_403:\n        /* \"#utility.yul\":18961:19100   */\n      swap1\n      pop\n        /* \"#utility.yul\":18688:19107   */\n      swap2\n      swap1\n      pop\n      jump\t// out\n\n    auxdata: 0xa26469706673582212207d47bd00881b70ee470d3f1d7d213d45335c4a1b18d5a7589088b9c7afe32deb64736f6c634300080e0033\n}\n",
				"bytecode": {
					"linkReferences": {},
					"object": "60a060405234801561001057600080fd5b503373ffffffffffffffffffffffffffffffffffffffff1660808173ffffffffffffffffffffffffffffffffffffffff1681525050608051611787610083600039600081816101de01528181610567015281816105bf0152818161061e015281816106ba01526107ad01526117876000f3fe60806040526004361061007f5760003560e01c80639e9551491161004e5780639e95514914610134578063cf9d4afa1461015d578063ec55688914610186578063fed0a20e146101b157610089565b80631fa4e9701461008e5780632637a477146100b7578063330807a9146100e05780635bb478081461010b57610089565b3661008957600080fd5b600080fd5b34801561009a57600080fd5b506100b560048036038101906100b09190610dbf565b6101dc565b005b3480156100c357600080fd5b506100de60048036038101906100d99190610e7d565b610565565b005b3480156100ec57600080fd5b506100f56105f6565b6040516101029190610eb9565b60405180910390f35b34801561011757600080fd5b50610132600480360381019061012d9190610e7d565b61061c565b005b34801561014057600080fd5b5061015b60048036038101906101569190610e7d565b6106b8565b005b34801561016957600080fd5b50610184600480360381019061017f9190610e7d565b6107ab565b005b34801561019257600080fd5b5061019b610864565b6040516101a89190610eb9565b60405180910390f35b3480156101bd57600080fd5b506101c6610888565b6040516101d39190610ef0565b60405180910390f35b7f000000000000000000000000000000000000000000000000000000000000000073ffffffffffffffffffffffffffffffffffffffff163373ffffffffffffffffffffffffffffffffffffffff161461023457600080fd5b6000600160009054906101000a900473ffffffffffffffffffffffffffffffffffffffff169050600082905060005b6001868690506102739190610f3a565b81101561055d5760006102e18488888581811061029357610292610f6e565b5b90506020020160208101906102a89190610e7d565b89896001876102b79190610f9d565b8181106102c7576102c6610f6e565b5b90506020020160208101906102dc9190610e7d565b61089b565b905060008061034b868a8a878181106102fd576102fc610f6e565b5b90506020020160208101906103129190610e7d565b8b8b6001896103219190610f9d565b81811061033157610330610f6e565b5b90506020020160208101906103469190610e7d565b61090d565b915091506000808473ffffffffffffffffffffffffffffffffffffffff16630dfe16816040518163ffffffff1660e01b8152600401602060405180830381865afa15801561039d573d6000803e3d6000fd5b505050506040513d601f19601f820116820180604052508101906103c19190611008565b73ffffffffffffffffffffffffffffffffffffffff168b8b888181106103ea576103e9610f6e565b5b90506020020160208101906103ff9190610e7d565b73ffffffffffffffffffffffffffffffffffffffff16036104335760009150610429878585610a10565b9050809650610448565b61043e878486610a10565b9150600090508196505b8473ffffffffffffffffffffffffffffffffffffffff1663022c0d9f838360008054906101000a900473ffffffffffffffffffffffffffffffffffffffff1673ffffffffffffffffffffffffffffffffffffffff166311ce02676040518163ffffffff1660e01b8152600401602060405180830381865afa1580156104d1573d6000803e3d6000fd5b505050506040513d601f19601f820116820180604052508101906104f59190611008565b6040518463ffffffff1660e01b81526004016105139392919061107b565b600060405180830381600087803b15801561052d57600080fd5b505af1158015610541573d6000803e3d6000fd5b5050505050505050508080610555906110c5565b915050610263565b505050505050565b7f000000000000000000000000000000000000000000000000000000000000000073ffffffffffffffffffffffffffffffffffffffff163373ffffffffffffffffffffffffffffffffffffffff16146105bd57600080fd5b7f000000000000000000000000000000000000000000000000000000000000000073ffffffffffffffffffffffffffffffffffffffff16ff5b600160009054906101000a900473ffffffffffffffffffffffffffffffffffffffff1681565b7f000000000000000000000000000000000000000000000000000000000000000073ffffffffffffffffffffffffffffffffffffffff163373ffffffffffffffffffffffffffffffffffffffff161461067457600080fd5b80600160006101000a81548173ffffffffffffffffffffffffffffffffffffffff021916908373ffffffffffffffffffffffffffffffffffffffff16021790555050565b7f000000000000000000000000000000000000000000000000000000000000000073ffffffffffffffffffffffffffffffffffffffff163373ffffffffffffffffffffffffffffffffffffffff161461071057600080fd5b60008054906101000a900473ffffffffffffffffffffffffffffffffffffffff1673ffffffffffffffffffffffffffffffffffffffff163373ffffffffffffffffffffffffffffffffffffffff161461076857600080fd5b806000806101000a81548173ffffffffffffffffffffffffffffffffffffffff021916908373ffffffffffffffffffffffffffffffffffffffff16021790555050565b7f000000000000000000000000000000000000000000000000000000000000000073ffffffffffffffffffffffffffffffffffffffff163373ffffffffffffffffffffffffffffffffffffffff161461080357600080fd5b60008060149054906101000a900460ff1660ff161461082157600080fd5b806000806101000a81548173ffffffffffffffffffffffffffffffffffffffff021916908373ffffffffffffffffffffffffffffffffffffffff16021790555050565b60008054906101000a900473ffffffffffffffffffffffffffffffffffffffff1681565b600060149054906101000a900460ff1681565b60008060006108aa8585610b16565b915091508582826040516020016108c2929190611155565b604051602081830303815290604052805190602001206040516020016108e992919061124f565b6040516020818303038152906040528051906020012060001c925050509392505050565b600080600061091c8585610b16565b50905060008061092d88888861089b565b73ffffffffffffffffffffffffffffffffffffffff16630902f1ac6040518163ffffffff1660e01b8152600401606060405180830381865afa158015610977573d6000803e3d6000fd5b505050506040513d601f19601f8201168201806040525081019061099b9190611313565b506dffffffffffffffffffffffffffff1691506dffffffffffffffffffffffffffff1691508273ffffffffffffffffffffffffffffffffffffffff168773ffffffffffffffffffffffffffffffffffffffff16146109fa5780826109fd565b81815b8095508196505050505050935093915050565b6000808411610a54576040517f08c379a0000000000000000000000000000000000000000000000000000000008152600401610a4b906113e9565b60405180910390fd5b600083118015610a645750600082115b610aa3576040517f08c379a0000000000000000000000000000000000000000000000000000000008152600401610a9a9061147b565b60405180910390fd5b6000610aba6103e586610c4290919063ffffffff16565b90506000610ad18483610c4290919063ffffffff16565b90506000610afc83610aee6103e889610c4290919063ffffffff16565b610cbc90919063ffffffff16565b90508082610b0a91906114ca565b93505050509392505050565b6000808273ffffffffffffffffffffffffffffffffffffffff168473ffffffffffffffffffffffffffffffffffffffff1603610b87576040517f08c379a0000000000000000000000000000000000000000000000000000000008152600401610b7e9061156d565b60405180910390fd5b8273ffffffffffffffffffffffffffffffffffffffff168473ffffffffffffffffffffffffffffffffffffffff1610610bc1578284610bc4565b83835b8092508193505050600073ffffffffffffffffffffffffffffffffffffffff168273ffffffffffffffffffffffffffffffffffffffff1603610c3b576040517f08c379a0000000000000000000000000000000000000000000000000000000008152600401610c32906115d9565b60405180910390fd5b9250929050565b6000808303610c545760009050610cb6565b60008284610c6291906115f9565b9050828482610c7191906114ca565b14610cb1576040517f08c379a0000000000000000000000000000000000000000000000000000000008152600401610ca8906116c5565b60405180910390fd5b809150505b92915050565b6000808284610ccb9190610f9d565b905083811015610d10576040517f08c379a0000000000000000000000000000000000000000000000000000000008152600401610d0790611731565b60405180910390fd5b8091505092915050565b600080fd5b600080fd5b600080fd5b600080fd5b600080fd5b60008083601f840112610d4957610d48610d24565b5b8235905067ffffffffffffffff811115610d6657610d65610d29565b5b602083019150836020820283011115610d8257610d81610d2e565b5b9250929050565b6000819050919050565b610d9c81610d89565b8114610da757600080fd5b50565b600081359050610db981610d93565b92915050565b600080600060408486031215610dd857610dd7610d1a565b5b600084013567ffffffffffffffff811115610df657610df5610d1f565b5b610e0286828701610d33565b93509350506020610e1586828701610daa565b9150509250925092565b600073ffffffffffffffffffffffffffffffffffffffff82169050919050565b6000610e4a82610e1f565b9050919050565b610e5a81610e3f565b8114610e6557600080fd5b50565b600081359050610e7781610e51565b92915050565b600060208284031215610e9357610e92610d1a565b5b6000610ea184828501610e68565b91505092915050565b610eb381610e3f565b82525050565b6000602082019050610ece6000830184610eaa565b92915050565b600060ff82169050919050565b610eea81610ed4565b82525050565b6000602082019050610f056000830184610ee1565b92915050565b7f4e487b7100000000000000000000000000000000000000000000000000000000600052601160045260246000fd5b6000610f4582610d89565b9150610f5083610d89565b925082821015610f6357610f62610f0b565b5b828203905092915050565b7f4e487b7100000000000000000000000000000000000000000000000000000000600052603260045260246000fd5b6000610fa882610d89565b9150610fb383610d89565b9250827fffffffffffffffffffffffffffffffffffffffffffffffffffffffffffffffff03821115610fe857610fe7610f0b565b5b828201905092915050565b60008151905061100281610e51565b92915050565b60006020828403121561101e5761101d610d1a565b5b600061102c84828501610ff3565b91505092915050565b61103e81610d89565b82525050565b600082825260208201905092915050565b50565b6000611065600083611044565b915061107082611055565b600082019050919050565b60006080820190506110906000830186611035565b61109d6020830185611035565b6110aa6040830184610eaa565b81810360608301526110bb81611058565b9050949350505050565b60006110d082610d89565b91507fffffffffffffffffffffffffffffffffffffffffffffffffffffffffffffffff820361110257611101610f0b565b5b600182019050919050565b60008160601b9050919050565b60006111258261110d565b9050919050565b60006111378261111a565b9050919050565b61114f61114a82610e3f565b61112c565b82525050565b6000611161828561113e565b601482019150611171828461113e565b6014820191508190509392505050565b600081905092915050565b7fff00000000000000000000000000000000000000000000000000000000000000600082015250565b60006111c2600183611181565b91506111cd8261118c565b600182019050919050565b6000819050919050565b6000819050919050565b6111fd6111f8826111d8565b6111e2565b82525050565b7f96e8ac4277198ff8b6f785478aa9a39f403cb768dd02cbee326c3e7da348845f600082015250565b6000611239602083611181565b915061124482611203565b602082019050919050565b600061125a826111b5565b9150611266828561113e565b60148201915061127682846111ec565b6020820191506112858261122c565b91508190509392505050565b60006dffffffffffffffffffffffffffff82169050919050565b6112b481611291565b81146112bf57600080fd5b50565b6000815190506112d1816112ab565b92915050565b600063ffffffff82169050919050565b6112f0816112d7565b81146112fb57600080fd5b50565b60008151905061130d816112e7565b92915050565b60008060006060848603121561132c5761132b610d1a565b5b600061133a868287016112c2565b935050602061134b868287016112c2565b925050604061135c868287016112fe565b9150509250925092565b600082825260208201905092915050565b7f556e697377617056324c6962726172793a20494e53554646494349454e545f4960008201527f4e5055545f414d4f554e54000000000000000000000000000000000000000000602082015250565b60006113d3602b83611366565b91506113de82611377565b604082019050919050565b60006020820190508181036000830152611402816113c6565b9050919050565b7f556e697377617056324c6962726172793a20494e53554646494349454e545f4c60008201527f4951554944495459000000000000000000000000000000000000000000000000602082015250565b6000611465602883611366565b915061147082611409565b604082019050919050565b6000602082019050818103600083015261149481611458565b9050919050565b7f4e487b7100000000000000000000000000000000000000000000000000000000600052601260045260246000fd5b60006114d582610d89565b91506114e083610d89565b9250826114f0576114ef61149b565b5b828204905092915050565b7f556e697377617056324c6962726172793a204944454e544943414c5f4144445260008201527f4553534553000000000000000000000000000000000000000000000000000000602082015250565b6000611557602583611366565b9150611562826114fb565b604082019050919050565b600060208201905081810360008301526115868161154a565b9050919050565b7f556e697377617056324c6962726172793a205a45524f5f414444524553530000600082015250565b60006115c3601e83611366565b91506115ce8261158d565b602082019050919050565b600060208201905081810360008301526115f2816115b6565b9050919050565b600061160482610d89565b915061160f83610d89565b9250817fffffffffffffffffffffffffffffffffffffffffffffffffffffffffffffffff048311821515161561164857611647610f0b565b5b828202905092915050565b7f536166654d6174683a206d756c7469706c69636174696f6e206f766572666c6f60008201527f7700000000000000000000000000000000000000000000000000000000000000602082015250565b60006116af602183611366565b91506116ba82611653565b604082019050919050565b600060208201905081810360008301526116de816116a2565b9050919050565b7f536166654d6174683a206164646974696f6e206f766572666c6f770000000000600082015250565b600061171b601b83611366565b9150611726826116e5565b602082019050919050565b6000602082019050818103600083015261174a8161170e565b905091905056fea26469706673582212207d47bd00881b70ee470d3f1d7d213d45335c4a1b18d5a7589088b9c7afe32deb64736f6c634300080e0033",
					"opcodes": "PUSH1 0xA0 PUSH1 0x40 MSTORE CALLVALUE DUP1 ISZERO PUSH2 0x10 JUMPI PUSH1 0x0 DUP1 REVERT JUMPDEST POP CALLER PUSH20 0xFFFFFFFFFFFFFFFFFFFFFFFFFFFFFFFFFFFFFFFF AND PUSH1 0x80 DUP2 PUSH20 0xFFFFFFFFFFFFFFFFFFFFFFFFFFFFFFFFFFFFFFFF AND DUP2 MSTORE POP POP PUSH1 0x80 MLOAD PUSH2 0x1787 PUSH2 0x83 PUSH1 0x0 CODECOPY PUSH1 0x0 DUP2 DUP2 PUSH2 0x1DE ADD MSTORE DUP2 DUP2 PUSH2 0x567 ADD MSTORE DUP2 DUP2 PUSH2 0x5BF ADD MSTORE DUP2 DUP2 PUSH2 0x61E ADD MSTORE DUP2 DUP2 PUSH2 0x6BA ADD MSTORE PUSH2 0x7AD ADD MSTORE PUSH2 0x1787 PUSH1 0x0 RETURN INVALID PUSH1 0x80 PUSH1 0x40 MSTORE PUSH1 0x4 CALLDATASIZE LT PUSH2 0x7F JUMPI PUSH1 0x0 CALLDATALOAD PUSH1 0xE0 SHR DUP1 PUSH4 0x9E955149 GT PUSH2 0x4E JUMPI DUP1 PUSH4 0x9E955149 EQ PUSH2 0x134 JUMPI DUP1 PUSH4 0xCF9D4AFA EQ PUSH2 0x15D JUMPI DUP1 PUSH4 0xEC556889 EQ PUSH2 0x186 JUMPI DUP1 PUSH4 0xFED0A20E EQ PUSH2 0x1B1 JUMPI PUSH2 0x89 JUMP JUMPDEST DUP1 PUSH4 0x1FA4E970 EQ PUSH2 0x8E JUMPI DUP1 PUSH4 0x2637A477 EQ PUSH2 0xB7 JUMPI DUP1 PUSH4 0x330807A9 EQ PUSH2 0xE0 JUMPI DUP1 PUSH4 0x5BB47808 EQ PUSH2 0x10B JUMPI PUSH2 0x89 JUMP JUMPDEST CALLDATASIZE PUSH2 0x89 JUMPI PUSH1 0x0 DUP1 REVERT JUMPDEST PUSH1 0x0 DUP1 REVERT JUMPDEST CALLVALUE DUP1 ISZERO PUSH2 0x9A JUMPI PUSH1 0x0 DUP1 REVERT JUMPDEST POP PUSH2 0xB5 PUSH1 0x4 DUP1 CALLDATASIZE SUB DUP2 ADD SWAP1 PUSH2 0xB0 SWAP2 SWAP1 PUSH2 0xDBF JUMP JUMPDEST PUSH2 0x1DC JUMP JUMPDEST STOP JUMPDEST CALLVALUE DUP1 ISZERO PUSH2 0xC3 JUMPI PUSH1 0x0 DUP1 REVERT JUMPDEST POP PUSH2 0xDE PUSH1 0x4 DUP1 CALLDATASIZE SUB DUP2 ADD SWAP1 PUSH2 0xD9 SWAP2 SWAP1 PUSH2 0xE7D JUMP JUMPDEST PUSH2 0x565 JUMP JUMPDEST STOP JUMPDEST CALLVALUE DUP1 ISZERO PUSH2 0xEC JUMPI PUSH1 0x0 DUP1 REVERT JUMPDEST POP PUSH2 0xF5 PUSH2 0x5F6 JUMP JUMPDEST PUSH1 0x40 MLOAD PUSH2 0x102 SWAP2 SWAP1 PUSH2 0xEB9 JUMP JUMPDEST PUSH1 0x40 MLOAD DUP1 SWAP2 SUB SWAP1 RETURN JUMPDEST CALLVALUE DUP1 ISZERO PUSH2 0x117 JUMPI PUSH1 0x0 DUP1 REVERT JUMPDEST POP PUSH2 0x132 PUSH1 0x4 DUP1 CALLDATASIZE SUB DUP2 ADD SWAP1 PUSH2 0x12D SWAP2 SWAP1 PUSH2 0xE7D JUMP JUMPDEST PUSH2 0x61C JUMP JUMPDEST STOP JUMPDEST CALLVALUE DUP1 ISZERO PUSH2 0x140 JUMPI PUSH1 0x0 DUP1 REVERT JUMPDEST POP PUSH2 0x15B PUSH1 0x4 DUP1 CALLDATASIZE SUB DUP2 ADD SWAP1 PUSH2 0x156 SWAP2 SWAP1 PUSH2 0xE7D JUMP JUMPDEST PUSH2 0x6B8 JUMP JUMPDEST STOP JUMPDEST CALLVALUE DUP1 ISZERO PUSH2 0x169 JUMPI PUSH1 0x0 DUP1 REVERT JUMPDEST POP PUSH2 0x184 PUSH1 0x4 DUP1 CALLDATASIZE SUB DUP2 ADD SWAP1 PUSH2 0x17F SWAP2 SWAP1 PUSH2 0xE7D JUMP JUMPDEST PUSH2 0x7AB JUMP JUMPDEST STOP JUMPDEST CALLVALUE DUP1 ISZERO PUSH2 0x192 JUMPI PUSH1 0x0 DUP1 REVERT JUMPDEST POP PUSH2 0x19B PUSH2 0x864 JUMP JUMPDEST PUSH1 0x40 MLOAD PUSH2 0x1A8 SWAP2 SWAP1 PUSH2 0xEB9 JUMP JUMPDEST PUSH1 0x40 MLOAD DUP1 SWAP2 SUB SWAP1 RETURN JUMPDEST CALLVALUE DUP1 ISZERO PUSH2 0x1BD JUMPI PUSH1 0x0 DUP1 REVERT JUMPDEST POP PUSH2 0x1C6 PUSH2 0x888 JUMP JUMPDEST PUSH1 0x40 MLOAD PUSH2 0x1D3 SWAP2 SWAP1 PUSH2 0xEF0 JUMP JUMPDEST PUSH1 0x40 MLOAD DUP1 SWAP2 SUB SWAP1 RETURN JUMPDEST PUSH32 0x0 PUSH20 0xFFFFFFFFFFFFFFFFFFFFFFFFFFFFFFFFFFFFFFFF AND CALLER PUSH20 0xFFFFFFFFFFFFFFFFFFFFFFFFFFFFFFFFFFFFFFFF AND EQ PUSH2 0x234 JUMPI PUSH1 0x0 DUP1 REVERT JUMPDEST PUSH1 0x0 PUSH1 0x1 PUSH1 0x0 SWAP1 SLOAD SWAP1 PUSH2 0x100 EXP SWAP1 DIV PUSH20 0xFFFFFFFFFFFFFFFFFFFFFFFFFFFFFFFFFFFFFFFF AND SWAP1 POP PUSH1 0x0 DUP3 SWAP1 POP PUSH1 0x0 JUMPDEST PUSH1 0x1 DUP7 DUP7 SWAP1 POP PUSH2 0x273 SWAP2 SWAP1 PUSH2 0xF3A JUMP JUMPDEST DUP2 LT ISZERO PUSH2 0x55D JUMPI PUSH1 0x0 PUSH2 0x2E1 DUP5 DUP9 DUP9 DUP6 DUP2 DUP2 LT PUSH2 0x293 JUMPI PUSH2 0x292 PUSH2 0xF6E JUMP JUMPDEST JUMPDEST SWAP1 POP PUSH1 0x20 MUL ADD PUSH1 0x20 DUP2 ADD SWAP1 PUSH2 0x2A8 SWAP2 SWAP1 PUSH2 0xE7D JUMP JUMPDEST DUP10 DUP10 PUSH1 0x1 DUP8 PUSH2 0x2B7 SWAP2 SWAP1 PUSH2 0xF9D JUMP JUMPDEST DUP2 DUP2 LT PUSH2 0x2C7 JUMPI PUSH2 0x2C6 PUSH2 0xF6E JUMP JUMPDEST JUMPDEST SWAP1 POP PUSH1 0x20 MUL ADD PUSH1 0x20 DUP2 ADD SWAP1 PUSH2 0x2DC SWAP2 SWAP1 PUSH2 0xE7D JUMP JUMPDEST PUSH2 0x89B JUMP JUMPDEST SWAP1 POP PUSH1 0x0 DUP1 PUSH2 0x34B DUP7 DUP11 DUP11 DUP8 DUP2 DUP2 LT PUSH2 0x2FD JUMPI PUSH2 0x2FC PUSH2 0xF6E JUMP JUMPDEST JUMPDEST SWAP1 POP PUSH1 0x20 MUL ADD PUSH1 0x20 DUP2 ADD SWAP1 PUSH2 0x312 SWAP2 SWAP1 PUSH2 0xE7D JUMP JUMPDEST DUP12 DUP12 PUSH1 0x1 DUP10 PUSH2 0x321 SWAP2 SWAP1 PUSH2 0xF9D JUMP JUMPDEST DUP2 DUP2 LT PUSH2 0x331 JUMPI PUSH2 0x330 PUSH2 0xF6E JUMP JUMPDEST JUMPDEST SWAP1 POP PUSH1 0x20 MUL ADD PUSH1 0x20 DUP2 ADD SWAP1 PUSH2 0x346 SWAP2 SWAP1 PUSH2 0xE7D JUMP JUMPDEST PUSH2 0x90D JUMP JUMPDEST SWAP2 POP SWAP2 POP PUSH1 0x0 DUP1 DUP5 PUSH20 0xFFFFFFFFFFFFFFFFFFFFFFFFFFFFFFFFFFFFFFFF AND PUSH4 0xDFE1681 PUSH1 0x40 MLOAD DUP2 PUSH4 0xFFFFFFFF AND PUSH1 0xE0 SHL DUP2 MSTORE PUSH1 0x4 ADD PUSH1 0x20 PUSH1 0x40 MLOAD DUP1 DUP4 SUB DUP2 DUP7 GAS STATICCALL ISZERO DUP1 ISZERO PUSH2 0x39D JUMPI RETURNDATASIZE PUSH1 0x0 DUP1 RETURNDATACOPY RETURNDATASIZE PUSH1 0x0 REVERT JUMPDEST POP POP POP POP PUSH1 0x40 MLOAD RETURNDATASIZE PUSH1 0x1F NOT PUSH1 0x1F DUP3 ADD AND DUP3 ADD DUP1 PUSH1 0x40 MSTORE POP DUP2 ADD SWAP1 PUSH2 0x3C1 SWAP2 SWAP1 PUSH2 0x1008 JUMP JUMPDEST PUSH20 0xFFFFFFFFFFFFFFFFFFFFFFFFFFFFFFFFFFFFFFFF AND DUP12 DUP12 DUP9 DUP2 DUP2 LT PUSH2 0x3EA JUMPI PUSH2 0x3E9 PUSH2 0xF6E JUMP JUMPDEST JUMPDEST SWAP1 POP PUSH1 0x20 MUL ADD PUSH1 0x20 DUP2 ADD SWAP1 PUSH2 0x3FF SWAP2 SWAP1 PUSH2 0xE7D JUMP JUMPDEST PUSH20 0xFFFFFFFFFFFFFFFFFFFFFFFFFFFFFFFFFFFFFFFF AND SUB PUSH2 0x433 JUMPI PUSH1 0x0 SWAP2 POP PUSH2 0x429 DUP8 DUP6 DUP6 PUSH2 0xA10 JUMP JUMPDEST SWAP1 POP DUP1 SWAP7 POP PUSH2 0x448 JUMP JUMPDEST PUSH2 0x43E DUP8 DUP5 DUP7 PUSH2 0xA10 JUMP JUMPDEST SWAP2 POP PUSH1 0x0 SWAP1 POP DUP2 SWAP7 POP JUMPDEST DUP5 PUSH20 0xFFFFFFFFFFFFFFFFFFFFFFFFFFFFFFFFFFFFFFFF AND PUSH4 0x22C0D9F DUP4 DUP4 PUSH1 0x0 DUP1 SLOAD SWAP1 PUSH2 0x100 EXP SWAP1 DIV PUSH20 0xFFFFFFFFFFFFFFFFFFFFFFFFFFFFFFFFFFFFFFFF AND PUSH20 0xFFFFFFFFFFFFFFFFFFFFFFFFFFFFFFFFFFFFFFFF AND PUSH4 0x11CE0267 PUSH1 0x40 MLOAD DUP2 PUSH4 0xFFFFFFFF AND PUSH1 0xE0 SHL DUP2 MSTORE PUSH1 0x4 ADD PUSH1 0x20 PUSH1 0x40 MLOAD DUP1 DUP4 SUB DUP2 DUP7 GAS STATICCALL ISZERO DUP1 ISZERO PUSH2 0x4D1 JUMPI RETURNDATASIZE PUSH1 0x0 DUP1 RETURNDATACOPY RETURNDATASIZE PUSH1 0x0 REVERT JUMPDEST POP POP POP POP PUSH1 0x40 MLOAD RETURNDATASIZE PUSH1 0x1F NOT PUSH1 0x1F DUP3 ADD AND DUP3 ADD DUP1 PUSH1 0x40 MSTORE POP DUP2 ADD SWAP1 PUSH2 0x4F5 SWAP2 SWAP1 PUSH2 0x1008 JUMP JUMPDEST PUSH1 0x40 MLOAD DUP5 PUSH4 0xFFFFFFFF AND PUSH1 0xE0 SHL DUP2 MSTORE PUSH1 0x4 ADD PUSH2 0x513 SWAP4 SWAP3 SWAP2 SWAP1 PUSH2 0x107B JUMP JUMPDEST PUSH1 0x0 PUSH1 0x40 MLOAD DUP1 DUP4 SUB DUP2 PUSH1 0x0 DUP8 DUP1 EXTCODESIZE ISZERO DUP1 ISZERO PUSH2 0x52D JUMPI PUSH1 0x0 DUP1 REVERT JUMPDEST POP GAS CALL ISZERO DUP1 ISZERO PUSH2 0x541 JUMPI RETURNDATASIZE PUSH1 0x0 DUP1 RETURNDATACOPY RETURNDATASIZE PUSH1 0x0 REVERT JUMPDEST POP POP POP POP POP POP POP POP POP DUP1 DUP1 PUSH2 0x555 SWAP1 PUSH2 0x10C5 JUMP JUMPDEST SWAP2 POP POP PUSH2 0x263 JUMP JUMPDEST POP POP POP POP POP POP JUMP JUMPDEST PUSH32 0x0 PUSH20 0xFFFFFFFFFFFFFFFFFFFFFFFFFFFFFFFFFFFFFFFF AND CALLER PUSH20 0xFFFFFFFFFFFFFFFFFFFFFFFFFFFFFFFFFFFFFFFF AND EQ PUSH2 0x5BD JUMPI PUSH1 0x0 DUP1 REVERT JUMPDEST PUSH32 0x0 PUSH20 0xFFFFFFFFFFFFFFFFFFFFFFFFFFFFFFFFFFFFFFFF AND SELFDESTRUCT JUMPDEST PUSH1 0x1 PUSH1 0x0 SWAP1 SLOAD SWAP1 PUSH2 0x100 EXP SWAP1 DIV PUSH20 0xFFFFFFFFFFFFFFFFFFFFFFFFFFFFFFFFFFFFFFFF AND DUP2 JUMP JUMPDEST PUSH32 0x0 PUSH20 0xFFFFFFFFFFFFFFFFFFFFFFFFFFFFFFFFFFFFFFFF AND CALLER PUSH20 0xFFFFFFFFFFFFFFFFFFFFFFFFFFFFFFFFFFFFFFFF AND EQ PUSH2 0x674 JUMPI PUSH1 0x0 DUP1 REVERT JUMPDEST DUP1 PUSH1 0x1 PUSH1 0x0 PUSH2 0x100 EXP DUP2 SLOAD DUP2 PUSH20 0xFFFFFFFFFFFFFFFFFFFFFFFFFFFFFFFFFFFFFFFF MUL NOT AND SWAP1 DUP4 PUSH20 0xFFFFFFFFFFFFFFFFFFFFFFFFFFFFFFFFFFFFFFFF AND MUL OR SWAP1 SSTORE POP POP JUMP JUMPDEST PUSH32 0x0 PUSH20 0xFFFFFFFFFFFFFFFFFFFFFFFFFFFFFFFFFFFFFFFF AND CALLER PUSH20 0xFFFFFFFFFFFFFFFFFFFFFFFFFFFFFFFFFFFFFFFF AND EQ PUSH2 0x710 JUMPI PUSH1 0x0 DUP1 REVERT JUMPDEST PUSH1 0x0 DUP1 SLOAD SWAP1 PUSH2 0x100 EXP SWAP1 DIV PUSH20 0xFFFFFFFFFFFFFFFFFFFFFFFFFFFFFFFFFFFFFFFF AND PUSH20 0xFFFFFFFFFFFFFFFFFFFFFFFFFFFFFFFFFFFFFFFF AND CALLER PUSH20 0xFFFFFFFFFFFFFFFFFFFFFFFFFFFFFFFFFFFFFFFF AND EQ PUSH2 0x768 JUMPI PUSH1 0x0 DUP1 REVERT JUMPDEST DUP1 PUSH1 0x0 DUP1 PUSH2 0x100 EXP DUP2 SLOAD DUP2 PUSH20 0xFFFFFFFFFFFFFFFFFFFFFFFFFFFFFFFFFFFFFFFF MUL NOT AND SWAP1 DUP4 PUSH20 0xFFFFFFFFFFFFFFFFFFFFFFFFFFFFFFFFFFFFFFFF AND MUL OR SWAP1 SSTORE POP POP JUMP JUMPDEST PUSH32 0x0 PUSH20 0xFFFFFFFFFFFFFFFFFFFFFFFFFFFFFFFFFFFFFFFF AND CALLER PUSH20 0xFFFFFFFFFFFFFFFFFFFFFFFFFFFFFFFFFFFFFFFF AND EQ PUSH2 0x803 JUMPI PUSH1 0x0 DUP1 REVERT JUMPDEST PUSH1 0x0 DUP1 PUSH1 0x14 SWAP1 SLOAD SWAP1 PUSH2 0x100 EXP SWAP1 DIV PUSH1 0xFF AND PUSH1 0xFF AND EQ PUSH2 0x821 JUMPI PUSH1 0x0 DUP1 REVERT JUMPDEST DUP1 PUSH1 0x0 DUP1 PUSH2 0x100 EXP DUP2 SLOAD DUP2 PUSH20 0xFFFFFFFFFFFFFFFFFFFFFFFFFFFFFFFFFFFFFFFF MUL NOT AND SWAP1 DUP4 PUSH20 0xFFFFFFFFFFFFFFFFFFFFFFFFFFFFFFFFFFFFFFFF AND MUL OR SWAP1 SSTORE POP POP JUMP JUMPDEST PUSH1 0x0 DUP1 SLOAD SWAP1 PUSH2 0x100 EXP SWAP1 DIV PUSH20 0xFFFFFFFFFFFFFFFFFFFFFFFFFFFFFFFFFFFFFFFF AND DUP2 JUMP JUMPDEST PUSH1 0x0 PUSH1 0x14 SWAP1 SLOAD SWAP1 PUSH2 0x100 EXP SWAP1 DIV PUSH1 0xFF AND DUP2 JUMP JUMPDEST PUSH1 0x0 DUP1 PUSH1 0x0 PUSH2 0x8AA DUP6 DUP6 PUSH2 0xB16 JUMP JUMPDEST SWAP2 POP SWAP2 POP DUP6 DUP3 DUP3 PUSH1 0x40 MLOAD PUSH1 0x20 ADD PUSH2 0x8C2 SWAP3 SWAP2 SWAP1 PUSH2 0x1155 JUMP JUMPDEST PUSH1 0x40 MLOAD PUSH1 0x20 DUP2 DUP4 SUB SUB DUP2 MSTORE SWAP1 PUSH1 0x40 MSTORE DUP1 MLOAD SWAP1 PUSH1 0x20 ADD KECCAK256 PUSH1 0x40 MLOAD PUSH1 0x20 ADD PUSH2 0x8E9 SWAP3 SWAP2 SWAP1 PUSH2 0x124F JUMP JUMPDEST PUSH1 0x40 MLOAD PUSH1 0x20 DUP2 DUP4 SUB SUB DUP2 MSTORE SWAP1 PUSH1 0x40 MSTORE DUP1 MLOAD SWAP1 PUSH1 0x20 ADD KECCAK256 PUSH1 0x0 SHR SWAP3 POP POP POP SWAP4 SWAP3 POP POP POP JUMP JUMPDEST PUSH1 0x0 DUP1 PUSH1 0x0 PUSH2 0x91C DUP6 DUP6 PUSH2 0xB16 JUMP JUMPDEST POP SWAP1 POP PUSH1 0x0 DUP1 PUSH2 0x92D DUP9 DUP9 DUP9 PUSH2 0x89B JUMP JUMPDEST PUSH20 0xFFFFFFFFFFFFFFFFFFFFFFFFFFFFFFFFFFFFFFFF AND PUSH4 0x902F1AC PUSH1 0x40 MLOAD DUP2 PUSH4 0xFFFFFFFF AND PUSH1 0xE0 SHL DUP2 MSTORE PUSH1 0x4 ADD PUSH1 0x60 PUSH1 0x40 MLOAD DUP1 DUP4 SUB DUP2 DUP7 GAS STATICCALL ISZERO DUP1 ISZERO PUSH2 0x977 JUMPI RETURNDATASIZE PUSH1 0x0 DUP1 RETURNDATACOPY RETURNDATASIZE PUSH1 0x0 REVERT JUMPDEST POP POP POP POP PUSH1 0x40 MLOAD RETURNDATASIZE PUSH1 0x1F NOT PUSH1 0x1F DUP3 ADD AND DUP3 ADD DUP1 PUSH1 0x40 MSTORE POP DUP2 ADD SWAP1 PUSH2 0x99B SWAP2 SWAP1 PUSH2 0x1313 JUMP JUMPDEST POP PUSH14 0xFFFFFFFFFFFFFFFFFFFFFFFFFFFF AND SWAP2 POP PUSH14 0xFFFFFFFFFFFFFFFFFFFFFFFFFFFF AND SWAP2 POP DUP3 PUSH20 0xFFFFFFFFFFFFFFFFFFFFFFFFFFFFFFFFFFFFFFFF AND DUP8 PUSH20 0xFFFFFFFFFFFFFFFFFFFFFFFFFFFFFFFFFFFFFFFF AND EQ PUSH2 0x9FA JUMPI DUP1 DUP3 PUSH2 0x9FD JUMP JUMPDEST DUP2 DUP2 JUMPDEST DUP1 SWAP6 POP DUP2 SWAP7 POP POP POP POP POP POP SWAP4 POP SWAP4 SWAP2 POP POP JUMP JUMPDEST PUSH1 0x0 DUP1 DUP5 GT PUSH2 0xA54 JUMPI PUSH1 0x40 MLOAD PUSH32 0x8C379A000000000000000000000000000000000000000000000000000000000 DUP2 MSTORE PUSH1 0x4 ADD PUSH2 0xA4B SWAP1 PUSH2 0x13E9 JUMP JUMPDEST PUSH1 0x40 MLOAD DUP1 SWAP2 SUB SWAP1 REVERT JUMPDEST PUSH1 0x0 DUP4 GT DUP1 ISZERO PUSH2 0xA64 JUMPI POP PUSH1 0x0 DUP3 GT JUMPDEST PUSH2 0xAA3 JUMPI PUSH1 0x40 MLOAD PUSH32 0x8C379A000000000000000000000000000000000000000000000000000000000 DUP2 MSTORE PUSH1 0x4 ADD PUSH2 0xA9A SWAP1 PUSH2 0x147B JUMP JUMPDEST PUSH1 0x40 MLOAD DUP1 SWAP2 SUB SWAP1 REVERT JUMPDEST PUSH1 0x0 PUSH2 0xABA PUSH2 0x3E5 DUP7 PUSH2 0xC42 SWAP1 SWAP2 SWAP1 PUSH4 0xFFFFFFFF AND JUMP JUMPDEST SWAP1 POP PUSH1 0x0 PUSH2 0xAD1 DUP5 DUP4 PUSH2 0xC42 SWAP1 SWAP2 SWAP1 PUSH4 0xFFFFFFFF AND JUMP JUMPDEST SWAP1 POP PUSH1 0x0 PUSH2 0xAFC DUP4 PUSH2 0xAEE PUSH2 0x3E8 DUP10 PUSH2 0xC42 SWAP1 SWAP2 SWAP1 PUSH4 0xFFFFFFFF AND JUMP JUMPDEST PUSH2 0xCBC SWAP1 SWAP2 SWAP1 PUSH4 0xFFFFFFFF AND JUMP JUMPDEST SWAP1 POP DUP1 DUP3 PUSH2 0xB0A SWAP2 SWAP1 PUSH2 0x14CA JUMP JUMPDEST SWAP4 POP POP POP POP SWAP4 SWAP3 POP POP POP JUMP JUMPDEST PUSH1 0x0 DUP1 DUP3 PUSH20 0xFFFFFFFFFFFFFFFFFFFFFFFFFFFFFFFFFFFFFFFF AND DUP5 PUSH20 0xFFFFFFFFFFFFFFFFFFFFFFFFFFFFFFFFFFFFFFFF AND SUB PUSH2 0xB87 JUMPI PUSH1 0x40 MLOAD PUSH32 0x8C379A000000000000000000000000000000000000000000000000000000000 DUP2 MSTORE PUSH1 0x4 ADD PUSH2 0xB7E SWAP1 PUSH2 0x156D JUMP JUMPDEST PUSH1 0x40 MLOAD DUP1 SWAP2 SUB SWAP1 REVERT JUMPDEST DUP3 PUSH20 0xFFFFFFFFFFFFFFFFFFFFFFFFFFFFFFFFFFFFFFFF AND DUP5 PUSH20 0xFFFFFFFFFFFFFFFFFFFFFFFFFFFFFFFFFFFFFFFF AND LT PUSH2 0xBC1 JUMPI DUP3 DUP5 PUSH2 0xBC4 JUMP JUMPDEST DUP4 DUP4 JUMPDEST DUP1 SWAP3 POP DUP2 SWAP4 POP POP POP PUSH1 0x0 PUSH20 0xFFFFFFFFFFFFFFFFFFFFFFFFFFFFFFFFFFFFFFFF AND DUP3 PUSH20 0xFFFFFFFFFFFFFFFFFFFFFFFFFFFFFFFFFFFFFFFF AND SUB PUSH2 0xC3B JUMPI PUSH1 0x40 MLOAD PUSH32 0x8C379A000000000000000000000000000000000000000000000000000000000 DUP2 MSTORE PUSH1 0x4 ADD PUSH2 0xC32 SWAP1 PUSH2 0x15D9 JUMP JUMPDEST PUSH1 0x40 MLOAD DUP1 SWAP2 SUB SWAP1 REVERT JUMPDEST SWAP3 POP SWAP3 SWAP1 POP JUMP JUMPDEST PUSH1 0x0 DUP1 DUP4 SUB PUSH2 0xC54 JUMPI PUSH1 0x0 SWAP1 POP PUSH2 0xCB6 JUMP JUMPDEST PUSH1 0x0 DUP3 DUP5 PUSH2 0xC62 SWAP2 SWAP1 PUSH2 0x15F9 JUMP JUMPDEST SWAP1 POP DUP3 DUP5 DUP3 PUSH2 0xC71 SWAP2 SWAP1 PUSH2 0x14CA JUMP JUMPDEST EQ PUSH2 0xCB1 JUMPI PUSH1 0x40 MLOAD PUSH32 0x8C379A000000000000000000000000000000000000000000000000000000000 DUP2 MSTORE PUSH1 0x4 ADD PUSH2 0xCA8 SWAP1 PUSH2 0x16C5 JUMP JUMPDEST PUSH1 0x40 MLOAD DUP1 SWAP2 SUB SWAP1 REVERT JUMPDEST DUP1 SWAP2 POP POP JUMPDEST SWAP3 SWAP2 POP POP JUMP JUMPDEST PUSH1 0x0 DUP1 DUP3 DUP5 PUSH2 0xCCB SWAP2 SWAP1 PUSH2 0xF9D JUMP JUMPDEST SWAP1 POP DUP4 DUP2 LT ISZERO PUSH2 0xD10 JUMPI PUSH1 0x40 MLOAD PUSH32 0x8C379A000000000000000000000000000000000000000000000000000000000 DUP2 MSTORE PUSH1 0x4 ADD PUSH2 0xD07 SWAP1 PUSH2 0x1731 JUMP JUMPDEST PUSH1 0x40 MLOAD DUP1 SWAP2 SUB SWAP1 REVERT JUMPDEST DUP1 SWAP2 POP POP SWAP3 SWAP2 POP POP JUMP JUMPDEST PUSH1 0x0 DUP1 REVERT JUMPDEST PUSH1 0x0 DUP1 REVERT JUMPDEST PUSH1 0x0 DUP1 REVERT JUMPDEST PUSH1 0x0 DUP1 REVERT JUMPDEST PUSH1 0x0 DUP1 REVERT JUMPDEST PUSH1 0x0 DUP1 DUP4 PUSH1 0x1F DUP5 ADD SLT PUSH2 0xD49 JUMPI PUSH2 0xD48 PUSH2 0xD24 JUMP JUMPDEST JUMPDEST DUP3 CALLDATALOAD SWAP1 POP PUSH8 0xFFFFFFFFFFFFFFFF DUP2 GT ISZERO PUSH2 0xD66 JUMPI PUSH2 0xD65 PUSH2 0xD29 JUMP JUMPDEST JUMPDEST PUSH1 0x20 DUP4 ADD SWAP2 POP DUP4 PUSH1 0x20 DUP3 MUL DUP4 ADD GT ISZERO PUSH2 0xD82 JUMPI PUSH2 0xD81 PUSH2 0xD2E JUMP JUMPDEST JUMPDEST SWAP3 POP SWAP3 SWAP1 POP JUMP JUMPDEST PUSH1 0x0 DUP2 SWAP1 POP SWAP2 SWAP1 POP JUMP JUMPDEST PUSH2 0xD9C DUP2 PUSH2 0xD89 JUMP JUMPDEST DUP2 EQ PUSH2 0xDA7 JUMPI PUSH1 0x0 DUP1 REVERT JUMPDEST POP JUMP JUMPDEST PUSH1 0x0 DUP2 CALLDATALOAD SWAP1 POP PUSH2 0xDB9 DUP2 PUSH2 0xD93 JUMP JUMPDEST SWAP3 SWAP2 POP POP JUMP JUMPDEST PUSH1 0x0 DUP1 PUSH1 0x0 PUSH1 0x40 DUP5 DUP7 SUB SLT ISZERO PUSH2 0xDD8 JUMPI PUSH2 0xDD7 PUSH2 0xD1A JUMP JUMPDEST JUMPDEST PUSH1 0x0 DUP5 ADD CALLDATALOAD PUSH8 0xFFFFFFFFFFFFFFFF DUP2 GT ISZERO PUSH2 0xDF6 JUMPI PUSH2 0xDF5 PUSH2 0xD1F JUMP JUMPDEST JUMPDEST PUSH2 0xE02 DUP7 DUP3 DUP8 ADD PUSH2 0xD33 JUMP JUMPDEST SWAP4 POP SWAP4 POP POP PUSH1 0x20 PUSH2 0xE15 DUP7 DUP3 DUP8 ADD PUSH2 0xDAA JUMP JUMPDEST SWAP2 POP POP SWAP3 POP SWAP3 POP SWAP3 JUMP JUMPDEST PUSH1 0x0 PUSH20 0xFFFFFFFFFFFFFFFFFFFFFFFFFFFFFFFFFFFFFFFF DUP3 AND SWAP1 POP SWAP2 SWAP1 POP JUMP JUMPDEST PUSH1 0x0 PUSH2 0xE4A DUP3 PUSH2 0xE1F JUMP JUMPDEST SWAP1 POP SWAP2 SWAP1 POP JUMP JUMPDEST PUSH2 0xE5A DUP2 PUSH2 0xE3F JUMP JUMPDEST DUP2 EQ PUSH2 0xE65 JUMPI PUSH1 0x0 DUP1 REVERT JUMPDEST POP JUMP JUMPDEST PUSH1 0x0 DUP2 CALLDATALOAD SWAP1 POP PUSH2 0xE77 DUP2 PUSH2 0xE51 JUMP JUMPDEST SWAP3 SWAP2 POP POP JUMP JUMPDEST PUSH1 0x0 PUSH1 0x20 DUP3 DUP5 SUB SLT ISZERO PUSH2 0xE93 JUMPI PUSH2 0xE92 PUSH2 0xD1A JUMP JUMPDEST JUMPDEST PUSH1 0x0 PUSH2 0xEA1 DUP5 DUP3 DUP6 ADD PUSH2 0xE68 JUMP JUMPDEST SWAP2 POP POP SWAP3 SWAP2 POP POP JUMP JUMPDEST PUSH2 0xEB3 DUP2 PUSH2 0xE3F JUMP JUMPDEST DUP3 MSTORE POP POP JUMP JUMPDEST PUSH1 0x0 PUSH1 0x20 DUP3 ADD SWAP1 POP PUSH2 0xECE PUSH1 0x0 DUP4 ADD DUP5 PUSH2 0xEAA JUMP JUMPDEST SWAP3 SWAP2 POP POP JUMP JUMPDEST PUSH1 0x0 PUSH1 0xFF DUP3 AND SWAP1 POP SWAP2 SWAP1 POP JUMP JUMPDEST PUSH2 0xEEA DUP2 PUSH2 0xED4 JUMP JUMPDEST DUP3 MSTORE POP POP JUMP JUMPDEST PUSH1 0x0 PUSH1 0x20 DUP3 ADD SWAP1 POP PUSH2 0xF05 PUSH1 0x0 DUP4 ADD DUP5 PUSH2 0xEE1 JUMP JUMPDEST SWAP3 SWAP2 POP POP JUMP JUMPDEST PUSH32 0x4E487B7100000000000000000000000000000000000000000000000000000000 PUSH1 0x0 MSTORE PUSH1 0x11 PUSH1 0x4 MSTORE PUSH1 0x24 PUSH1 0x0 REVERT JUMPDEST PUSH1 0x0 PUSH2 0xF45 DUP3 PUSH2 0xD89 JUMP JUMPDEST SWAP2 POP PUSH2 0xF50 DUP4 PUSH2 0xD89 JUMP JUMPDEST SWAP3 POP DUP3 DUP3 LT ISZERO PUSH2 0xF63 JUMPI PUSH2 0xF62 PUSH2 0xF0B JUMP JUMPDEST JUMPDEST DUP3 DUP3 SUB SWAP1 POP SWAP3 SWAP2 POP POP JUMP JUMPDEST PUSH32 0x4E487B7100000000000000000000000000000000000000000000000000000000 PUSH1 0x0 MSTORE PUSH1 0x32 PUSH1 0x4 MSTORE PUSH1 0x24 PUSH1 0x0 REVERT JUMPDEST PUSH1 0x0 PUSH2 0xFA8 DUP3 PUSH2 0xD89 JUMP JUMPDEST SWAP2 POP PUSH2 0xFB3 DUP4 PUSH2 0xD89 JUMP JUMPDEST SWAP3 POP DUP3 PUSH32 0xFFFFFFFFFFFFFFFFFFFFFFFFFFFFFFFFFFFFFFFFFFFFFFFFFFFFFFFFFFFFFFFF SUB DUP3 GT ISZERO PUSH2 0xFE8 JUMPI PUSH2 0xFE7 PUSH2 0xF0B JUMP JUMPDEST JUMPDEST DUP3 DUP3 ADD SWAP1 POP SWAP3 SWAP2 POP POP JUMP JUMPDEST PUSH1 0x0 DUP2 MLOAD SWAP1 POP PUSH2 0x1002 DUP2 PUSH2 0xE51 JUMP JUMPDEST SWAP3 SWAP2 POP POP JUMP JUMPDEST PUSH1 0x0 PUSH1 0x20 DUP3 DUP5 SUB SLT ISZERO PUSH2 0x101E JUMPI PUSH2 0x101D PUSH2 0xD1A JUMP JUMPDEST JUMPDEST PUSH1 0x0 PUSH2 0x102C DUP5 DUP3 DUP6 ADD PUSH2 0xFF3 JUMP JUMPDEST SWAP2 POP POP SWAP3 SWAP2 POP POP JUMP JUMPDEST PUSH2 0x103E DUP2 PUSH2 0xD89 JUMP JUMPDEST DUP3 MSTORE POP POP JUMP JUMPDEST PUSH1 0x0 DUP3 DUP3 MSTORE PUSH1 0x20 DUP3 ADD SWAP1 POP SWAP3 SWAP2 POP POP JUMP JUMPDEST POP JUMP JUMPDEST PUSH1 0x0 PUSH2 0x1065 PUSH1 0x0 DUP4 PUSH2 0x1044 JUMP JUMPDEST SWAP2 POP PUSH2 0x1070 DUP3 PUSH2 0x1055 JUMP JUMPDEST PUSH1 0x0 DUP3 ADD SWAP1 POP SWAP2 SWAP1 POP JUMP JUMPDEST PUSH1 0x0 PUSH1 0x80 DUP3 ADD SWAP1 POP PUSH2 0x1090 PUSH1 0x0 DUP4 ADD DUP7 PUSH2 0x1035 JUMP JUMPDEST PUSH2 0x109D PUSH1 0x20 DUP4 ADD DUP6 PUSH2 0x1035 JUMP JUMPDEST PUSH2 0x10AA PUSH1 0x40 DUP4 ADD DUP5 PUSH2 0xEAA JUMP JUMPDEST DUP2 DUP2 SUB PUSH1 0x60 DUP4 ADD MSTORE PUSH2 0x10BB DUP2 PUSH2 0x1058 JUMP JUMPDEST SWAP1 POP SWAP5 SWAP4 POP POP POP POP JUMP JUMPDEST PUSH1 0x0 PUSH2 0x10D0 DUP3 PUSH2 0xD89 JUMP JUMPDEST SWAP2 POP PUSH32 0xFFFFFFFFFFFFFFFFFFFFFFFFFFFFFFFFFFFFFFFFFFFFFFFFFFFFFFFFFFFFFFFF DUP3 SUB PUSH2 0x1102 JUMPI PUSH2 0x1101 PUSH2 0xF0B JUMP JUMPDEST JUMPDEST PUSH1 0x1 DUP3 ADD SWAP1 POP SWAP2 SWAP1 POP JUMP JUMPDEST PUSH1 0x0 DUP2 PUSH1 0x60 SHL SWAP1 POP SWAP2 SWAP1 POP JUMP JUMPDEST PUSH1 0x0 PUSH2 0x1125 DUP3 PUSH2 0x110D JUMP JUMPDEST SWAP1 POP SWAP2 SWAP1 POP JUMP JUMPDEST PUSH1 0x0 PUSH2 0x1137 DUP3 PUSH2 0x111A JUMP JUMPDEST SWAP1 POP SWAP2 SWAP1 POP JUMP JUMPDEST PUSH2 0x114F PUSH2 0x114A DUP3 PUSH2 0xE3F JUMP JUMPDEST PUSH2 0x112C JUMP JUMPDEST DUP3 MSTORE POP POP JUMP JUMPDEST PUSH1 0x0 PUSH2 0x1161 DUP3 DUP6 PUSH2 0x113E JUMP JUMPDEST PUSH1 0x14 DUP3 ADD SWAP2 POP PUSH2 0x1171 DUP3 DUP5 PUSH2 0x113E JUMP JUMPDEST PUSH1 0x14 DUP3 ADD SWAP2 POP DUP2 SWAP1 POP SWAP4 SWAP3 POP POP POP JUMP JUMPDEST PUSH1 0x0 DUP2 SWAP1 POP SWAP3 SWAP2 POP POP JUMP JUMPDEST PUSH32 0xFF00000000000000000000000000000000000000000000000000000000000000 PUSH1 0x0 DUP3 ADD MSTORE POP JUMP JUMPDEST PUSH1 0x0 PUSH2 0x11C2 PUSH1 0x1 DUP4 PUSH2 0x1181 JUMP JUMPDEST SWAP2 POP PUSH2 0x11CD DUP3 PUSH2 0x118C JUMP JUMPDEST PUSH1 0x1 DUP3 ADD SWAP1 POP SWAP2 SWAP1 POP JUMP JUMPDEST PUSH1 0x0 DUP2 SWAP1 POP SWAP2 SWAP1 POP JUMP JUMPDEST PUSH1 0x0 DUP2 SWAP1 POP SWAP2 SWAP1 POP JUMP JUMPDEST PUSH2 0x11FD PUSH2 0x11F8 DUP3 PUSH2 0x11D8 JUMP JUMPDEST PUSH2 0x11E2 JUMP JUMPDEST DUP3 MSTORE POP POP JUMP JUMPDEST PUSH32 0x96E8AC4277198FF8B6F785478AA9A39F403CB768DD02CBEE326C3E7DA348845F PUSH1 0x0 DUP3 ADD MSTORE POP JUMP JUMPDEST PUSH1 0x0 PUSH2 0x1239 PUSH1 0x20 DUP4 PUSH2 0x1181 JUMP JUMPDEST SWAP2 POP PUSH2 0x1244 DUP3 PUSH2 0x1203 JUMP JUMPDEST PUSH1 0x20 DUP3 ADD SWAP1 POP SWAP2 SWAP1 POP JUMP JUMPDEST PUSH1 0x0 PUSH2 0x125A DUP3 PUSH2 0x11B5 JUMP JUMPDEST SWAP2 POP PUSH2 0x1266 DUP3 DUP6 PUSH2 0x113E JUMP JUMPDEST PUSH1 0x14 DUP3 ADD SWAP2 POP PUSH2 0x1276 DUP3 DUP5 PUSH2 0x11EC JUMP JUMPDEST PUSH1 0x20 DUP3 ADD SWAP2 POP PUSH2 0x1285 DUP3 PUSH2 0x122C JUMP JUMPDEST SWAP2 POP DUP2 SWAP1 POP SWAP4 SWAP3 POP POP POP JUMP JUMPDEST PUSH1 0x0 PUSH14 0xFFFFFFFFFFFFFFFFFFFFFFFFFFFF DUP3 AND SWAP1 POP SWAP2 SWAP1 POP JUMP JUMPDEST PUSH2 0x12B4 DUP2 PUSH2 0x1291 JUMP JUMPDEST DUP2 EQ PUSH2 0x12BF JUMPI PUSH1 0x0 DUP1 REVERT JUMPDEST POP JUMP JUMPDEST PUSH1 0x0 DUP2 MLOAD SWAP1 POP PUSH2 0x12D1 DUP2 PUSH2 0x12AB JUMP JUMPDEST SWAP3 SWAP2 POP POP JUMP JUMPDEST PUSH1 0x0 PUSH4 0xFFFFFFFF DUP3 AND SWAP1 POP SWAP2 SWAP1 POP JUMP JUMPDEST PUSH2 0x12F0 DUP2 PUSH2 0x12D7 JUMP JUMPDEST DUP2 EQ PUSH2 0x12FB JUMPI PUSH1 0x0 DUP1 REVERT JUMPDEST POP JUMP JUMPDEST PUSH1 0x0 DUP2 MLOAD SWAP1 POP PUSH2 0x130D DUP2 PUSH2 0x12E7 JUMP JUMPDEST SWAP3 SWAP2 POP POP JUMP JUMPDEST PUSH1 0x0 DUP1 PUSH1 0x0 PUSH1 0x60 DUP5 DUP7 SUB SLT ISZERO PUSH2 0x132C JUMPI PUSH2 0x132B PUSH2 0xD1A JUMP JUMPDEST JUMPDEST PUSH1 0x0 PUSH2 0x133A DUP7 DUP3 DUP8 ADD PUSH2 0x12C2 JUMP JUMPDEST SWAP4 POP POP PUSH1 0x20 PUSH2 0x134B DUP7 DUP3 DUP8 ADD PUSH2 0x12C2 JUMP JUMPDEST SWAP3 POP POP PUSH1 0x40 PUSH2 0x135C DUP7 DUP3 DUP8 ADD PUSH2 0x12FE JUMP JUMPDEST SWAP2 POP POP SWAP3 POP SWAP3 POP SWAP3 JUMP JUMPDEST PUSH1 0x0 DUP3 DUP3 MSTORE PUSH1 0x20 DUP3 ADD SWAP1 POP SWAP3 SWAP2 POP POP JUMP JUMPDEST PUSH32 0x556E697377617056324C6962726172793A20494E53554646494349454E545F49 PUSH1 0x0 DUP3 ADD MSTORE PUSH32 0x4E5055545F414D4F554E54000000000000000000000000000000000000000000 PUSH1 0x20 DUP3 ADD MSTORE POP JUMP JUMPDEST PUSH1 0x0 PUSH2 0x13D3 PUSH1 0x2B DUP4 PUSH2 0x1366 JUMP JUMPDEST SWAP2 POP PUSH2 0x13DE DUP3 PUSH2 0x1377 JUMP JUMPDEST PUSH1 0x40 DUP3 ADD SWAP1 POP SWAP2 SWAP1 POP JUMP JUMPDEST PUSH1 0x0 PUSH1 0x20 DUP3 ADD SWAP1 POP DUP2 DUP2 SUB PUSH1 0x0 DUP4 ADD MSTORE PUSH2 0x1402 DUP2 PUSH2 0x13C6 JUMP JUMPDEST SWAP1 POP SWAP2 SWAP1 POP JUMP JUMPDEST PUSH32 0x556E697377617056324C6962726172793A20494E53554646494349454E545F4C PUSH1 0x0 DUP3 ADD MSTORE PUSH32 0x4951554944495459000000000000000000000000000000000000000000000000 PUSH1 0x20 DUP3 ADD MSTORE POP JUMP JUMPDEST PUSH1 0x0 PUSH2 0x1465 PUSH1 0x28 DUP4 PUSH2 0x1366 JUMP JUMPDEST SWAP2 POP PUSH2 0x1470 DUP3 PUSH2 0x1409 JUMP JUMPDEST PUSH1 0x40 DUP3 ADD SWAP1 POP SWAP2 SWAP1 POP JUMP JUMPDEST PUSH1 0x0 PUSH1 0x20 DUP3 ADD SWAP1 POP DUP2 DUP2 SUB PUSH1 0x0 DUP4 ADD MSTORE PUSH2 0x1494 DUP2 PUSH2 0x1458 JUMP JUMPDEST SWAP1 POP SWAP2 SWAP1 POP JUMP JUMPDEST PUSH32 0x4E487B7100000000000000000000000000000000000000000000000000000000 PUSH1 0x0 MSTORE PUSH1 0x12 PUSH1 0x4 MSTORE PUSH1 0x24 PUSH1 0x0 REVERT JUMPDEST PUSH1 0x0 PUSH2 0x14D5 DUP3 PUSH2 0xD89 JUMP JUMPDEST SWAP2 POP PUSH2 0x14E0 DUP4 PUSH2 0xD89 JUMP JUMPDEST SWAP3 POP DUP3 PUSH2 0x14F0 JUMPI PUSH2 0x14EF PUSH2 0x149B JUMP JUMPDEST JUMPDEST DUP3 DUP3 DIV SWAP1 POP SWAP3 SWAP2 POP POP JUMP JUMPDEST PUSH32 0x556E697377617056324C6962726172793A204944454E544943414C5F41444452 PUSH1 0x0 DUP3 ADD MSTORE PUSH32 0x4553534553000000000000000000000000000000000000000000000000000000 PUSH1 0x20 DUP3 ADD MSTORE POP JUMP JUMPDEST PUSH1 0x0 PUSH2 0x1557 PUSH1 0x25 DUP4 PUSH2 0x1366 JUMP JUMPDEST SWAP2 POP PUSH2 0x1562 DUP3 PUSH2 0x14FB JUMP JUMPDEST PUSH1 0x40 DUP3 ADD SWAP1 POP SWAP2 SWAP1 POP JUMP JUMPDEST PUSH1 0x0 PUSH1 0x20 DUP3 ADD SWAP1 POP DUP2 DUP2 SUB PUSH1 0x0 DUP4 ADD MSTORE PUSH2 0x1586 DUP2 PUSH2 0x154A JUMP JUMPDEST SWAP1 POP SWAP2 SWAP1 POP JUMP JUMPDEST PUSH32 0x556E697377617056324C6962726172793A205A45524F5F414444524553530000 PUSH1 0x0 DUP3 ADD MSTORE POP JUMP JUMPDEST PUSH1 0x0 PUSH2 0x15C3 PUSH1 0x1E DUP4 PUSH2 0x1366 JUMP JUMPDEST SWAP2 POP PUSH2 0x15CE DUP3 PUSH2 0x158D JUMP JUMPDEST PUSH1 0x20 DUP3 ADD SWAP1 POP SWAP2 SWAP1 POP JUMP JUMPDEST PUSH1 0x0 PUSH1 0x20 DUP3 ADD SWAP1 POP DUP2 DUP2 SUB PUSH1 0x0 DUP4 ADD MSTORE PUSH2 0x15F2 DUP2 PUSH2 0x15B6 JUMP JUMPDEST SWAP1 POP SWAP2 SWAP1 POP JUMP JUMPDEST PUSH1 0x0 PUSH2 0x1604 DUP3 PUSH2 0xD89 JUMP JUMPDEST SWAP2 POP PUSH2 0x160F DUP4 PUSH2 0xD89 JUMP JUMPDEST SWAP3 POP DUP2 PUSH32 0xFFFFFFFFFFFFFFFFFFFFFFFFFFFFFFFFFFFFFFFFFFFFFFFFFFFFFFFFFFFFFFFF DIV DUP4 GT DUP3 ISZERO ISZERO AND ISZERO PUSH2 0x1648 JUMPI PUSH2 0x1647 PUSH2 0xF0B JUMP JUMPDEST JUMPDEST DUP3 DUP3 MUL SWAP1 POP SWAP3 SWAP2 POP POP JUMP JUMPDEST PUSH32 0x536166654D6174683A206D756C7469706C69636174696F6E206F766572666C6F PUSH1 0x0 DUP3 ADD MSTORE PUSH32 0x7700000000000000000000000000000000000000000000000000000000000000 PUSH1 0x20 DUP3 ADD MSTORE POP JUMP JUMPDEST PUSH1 0x0 PUSH2 0x16AF PUSH1 0x21 DUP4 PUSH2 0x1366 JUMP JUMPDEST SWAP2 POP PUSH2 0x16BA DUP3 PUSH2 0x1653 JUMP JUMPDEST PUSH1 0x40 DUP3 ADD SWAP1 POP SWAP2 SWAP1 POP JUMP JUMPDEST PUSH1 0x0 PUSH1 0x20 DUP3 ADD SWAP1 POP DUP2 DUP2 SUB PUSH1 0x0 DUP4 ADD MSTORE PUSH2 0x16DE DUP2 PUSH2 0x16A2 JUMP JUMPDEST SWAP1 POP SWAP2 SWAP1 POP JUMP JUMPDEST PUSH32 0x536166654D6174683A206164646974696F6E206F766572666C6F770000000000 PUSH1 0x0 DUP3 ADD MSTORE POP JUMP JUMPDEST PUSH1 0x0 PUSH2 0x171B PUSH1 0x1B DUP4 PUSH2 0x1366 JUMP JUMPDEST SWAP2 POP PUSH2 0x1726 DUP3 PUSH2 0x16E5 JUMP JUMPDEST PUSH1 0x20 DUP3 ADD SWAP1 POP SWAP2 SWAP1 POP JUMP JUMPDEST PUSH1 0x0 PUSH1 0x20 DUP3 ADD SWAP1 POP DUP2 DUP2 SUB PUSH1 0x0 DUP4 ADD MSTORE PUSH2 0x174A DUP2 PUSH2 0x170E JUMP JUMPDEST SWAP1 POP SWAP2 SWAP1 POP JUMP INVALID LOG2 PUSH5 0x6970667358 0x22 SLT KECCAK256 PUSH30 0x47BD00881B70EE470D3F1D7D213D45335C4A1B18D5A7589088B9C7AFE32D 0xEB PUSH5 0x736F6C6343 STOP ADDMOD 0xE STOP CALLER "
				},
				"gasEstimates": {
					"creation": {
						"codeDepositCost": "1204600",
						"executionCost": "infinite",
						"totalCost": "infinite"
					},
					"external": {
						"": "180",
						"deleteContract(address)": "infinite",
						"initContract(address)": "infinite",
						"initDone()": "2587",
						"proxy()": "2555",
						"setFactory(address)": "infinite",
						"uniSwap(address[],uint256)": "infinite",
						"updateProxy(address)": "infinite",
						"v2factory()": "2559"
					}
				},
				"methodIdentifiers": {
					"deleteContract(address)": "2637a477",
					"initContract(address)": "cf9d4afa",
					"initDone()": "fed0a20e",
					"proxy()": "ec556889",
					"setFactory(address)": "5bb47808",
					"uniSwap(address[],uint256)": "1fa4e970",
					"updateProxy(address)": "9e955149",
					"v2factory()": "330807a9"
				}
			},
			"storageLayout": {
				"storage": [
					{
						"astId": 647,
						"contract": "TFGv3/Contracts/SCOps.sol:SCOps",
						"label": "proxy",
						"offset": 0,
						"slot": "0",
						"type": "t_address"
					},
					{
						"astId": 649,
						"contract": "TFGv3/Contracts/SCOps.sol:SCOps",
						"label": "initDone",
						"offset": 20,
						"slot": "0",
						"type": "t_uint8"
					},
					{
						"astId": 651,
						"contract": "TFGv3/Contracts/SCOps.sol:SCOps",
						"label": "v2factory",
						"offset": 0,
						"slot": "1",
						"type": "t_address"
					}
				],
				"types": {
					"t_address": {
						"encoding": "inplace",
						"label": "address",
						"numberOfBytes": "20"
					},
					"t_uint8": {
						"encoding": "inplace",
						"label": "uint8",
						"numberOfBytes": "1"
					}
				}
			},
			"userdoc": {
				"kind": "user",
				"methods": {},
				"version": 1
			}
		}
	}
}