{
	"TFGv3/Contracts/SCStorage.sol": {
		"SCStorage": {
			"abi": [
				{
					"inputs": [],
					"stateMutability": "nonpayable",
					"type": "constructor"
				},
				{
					"stateMutability": "payable",
					"type": "fallback"
				},
				{
					"inputs": [],
					"name": "NAV",
					"outputs": [
						{
							"internalType": "uint256",
							"name": "",
							"type": "uint256"
						}
					],
					"stateMutability": "view",
					"type": "function"
				},
				{
					"inputs": [
						{
							"internalType": "address",
							"name": "coinAddr",
							"type": "address"
						},
						{
							"internalType": "uint256",
							"name": "stable",
							"type": "uint256"
						}
					],
					"name": "addCoin",
					"outputs": [],
					"stateMutability": "nonpayable",
					"type": "function"
				},
				{
					"inputs": [
						{
							"internalType": "uint256",
							"name": "",
							"type": "uint256"
						}
					],
					"name": "coinArray",
					"outputs": [
						{
							"internalType": "address",
							"name": "",
							"type": "address"
						}
					],
					"stateMutability": "view",
					"type": "function"
				},
				{
					"inputs": [
						{
							"internalType": "address",
							"name": "",
							"type": "address"
						}
					],
					"name": "coinOracleAddr",
					"outputs": [
						{
							"internalType": "address",
							"name": "",
							"type": "address"
						}
					],
					"stateMutability": "view",
					"type": "function"
				},
				{
					"inputs": [
						{
							"internalType": "address",
							"name": "",
							"type": "address"
						}
					],
					"name": "coins",
					"outputs": [
						{
							"internalType": "uint256",
							"name": "",
							"type": "uint256"
						}
					],
					"stateMutability": "view",
					"type": "function"
				},
				{
					"inputs": [
						{
							"internalType": "address",
							"name": "coinAddr",
							"type": "address"
						}
					],
					"name": "delCoin",
					"outputs": [],
					"stateMutability": "nonpayable",
					"type": "function"
				},
				{
					"inputs": [
						{
							"internalType": "address",
							"name": "newAddr",
							"type": "address"
						}
					],
					"name": "deleteContract",
					"outputs": [],
					"stateMutability": "nonpayable",
					"type": "function"
				},
				{
					"inputs": [
						{
							"internalType": "address",
							"name": "proxyAddr",
							"type": "address"
						}
					],
					"name": "initContract",
					"outputs": [],
					"stateMutability": "nonpayable",
					"type": "function"
				},
				{
					"inputs": [],
					"name": "initDone",
					"outputs": [
						{
							"internalType": "uint8",
							"name": "",
							"type": "uint8"
						}
					],
					"stateMutability": "view",
					"type": "function"
				},
				{
					"inputs": [],
					"name": "oracleNAV",
					"outputs": [
						{
							"internalType": "uint256",
							"name": "",
							"type": "uint256"
						},
						{
							"internalType": "uint256",
							"name": "",
							"type": "uint256"
						}
					],
					"stateMutability": "view",
					"type": "function"
				},
				{
					"inputs": [],
					"name": "proxy",
					"outputs": [
						{
							"internalType": "address",
							"name": "",
							"type": "address"
						}
					],
					"stateMutability": "view",
					"type": "function"
				},
				{
					"inputs": [
						{
							"internalType": "address",
							"name": "",
							"type": "address"
						}
					],
					"name": "quoteIn",
					"outputs": [
						{
							"internalType": "address",
							"name": "",
							"type": "address"
						}
					],
					"stateMutability": "view",
					"type": "function"
				},
				{
					"inputs": [
						{
							"internalType": "address",
							"name": "to",
							"type": "address"
						},
						{
							"internalType": "uint256",
							"name": "totalToTransfer",
							"type": "uint256"
						}
					],
					"name": "transferFunds",
					"outputs": [
						{
							"internalType": "bool",
							"name": "",
							"type": "bool"
						}
					],
					"stateMutability": "nonpayable",
					"type": "function"
				},
				{
					"inputs": [
						{
							"internalType": "uint256",
							"name": "comission",
							"type": "uint256"
						}
					],
					"name": "updateNAV",
					"outputs": [
						{
							"internalType": "uint256",
							"name": "newNAV",
							"type": "uint256"
						}
					],
					"stateMutability": "nonpayable",
					"type": "function"
				},
				{
					"inputs": [
						{
							"internalType": "address",
							"name": "newAddr",
							"type": "address"
						}
					],
					"name": "updateProxy",
					"outputs": [],
					"stateMutability": "nonpayable",
					"type": "function"
				},
				{
					"stateMutability": "payable",
					"type": "receive"
				}
			],
			"devdoc": {
				"kind": "dev",
				"methods": {},
				"version": 1
			},
			"evm": {
				"assembly": "    /* \"TFGv3/Contracts/SCStorage.sol\":148:5019  contract SCStorage is ISCStorage... */\n  mstore(0x40, 0xa0)\n    /* \"TFGv3/Contracts/SCStorage.sol\":608:664  constructor()... */\n  callvalue\n  dup1\n  iszero\n  tag_1\n  jumpi\n  0x00\n  dup1\n  revert\ntag_1:\n  pop\n    /* \"TFGv3/Contracts/SCStorage.sol\":647:657  msg.sender */\n  caller\n    /* \"TFGv3/Contracts/SCStorage.sol\":636:657  deployer = msg.sender */\n  0xffffffffffffffffffffffffffffffffffffffff\n  and\n  0x80\n  dup2\n  0xffffffffffffffffffffffffffffffffffffffff\n  and\n  dup2\n  mstore\n  pop\n  pop\n    /* \"TFGv3/Contracts/SCStorage.sol\":148:5019  contract SCStorage is ISCStorage... */\n  mload(0x80)\n  codecopy(0x00, dataOffset(sub_0), dataSize(sub_0))\n  0x00\n  assignImmutable(\"0xcdf1dd2e8742ccca482be714f2ab38acb16e66300c9790cd19a8abbcdf150d1c\")\n  return(0x00, dataSize(sub_0))\nstop\n\nsub_0: assembly {\n        /* \"TFGv3/Contracts/SCStorage.sol\":148:5019  contract SCStorage is ISCStorage... */\n      mstore(0x40, 0x80)\n      jumpi(tag_1, lt(calldatasize, 0x04))\n      shr(0xe0, calldataload(0x00))\n      dup1\n      0x990dc9db\n      gt\n      tag_18\n      jumpi\n      dup1\n      0xd825bfff\n      gt\n      tag_19\n      jumpi\n      dup1\n      0xd825bfff\n      eq\n      tag_14\n      jumpi\n      dup1\n      0xdef1a5e8\n      eq\n      tag_15\n      jumpi\n      dup1\n      0xec556889\n      eq\n      tag_16\n      jumpi\n      dup1\n      0xfed0a20e\n      eq\n      tag_17\n      jumpi\n      jump(tag_2)\n    tag_19:\n      dup1\n      0x990dc9db\n      eq\n      tag_10\n      jumpi\n      dup1\n      0x9e955149\n      eq\n      tag_11\n      jumpi\n      dup1\n      0xb4014879\n      eq\n      tag_12\n      jumpi\n      dup1\n      0xcf9d4afa\n      eq\n      tag_13\n      jumpi\n      jump(tag_2)\n    tag_18:\n      dup1\n      0x4051b9aa\n      gt\n      tag_20\n      jumpi\n      dup1\n      0x4051b9aa\n      eq\n      tag_6\n      jumpi\n      dup1\n      0x52fd856b\n      eq\n      tag_7\n      jumpi\n      dup1\n      0x63b48ee6\n      eq\n      tag_8\n      jumpi\n      dup1\n      0x7d0f7a88\n      eq\n      tag_9\n      jumpi\n      jump(tag_2)\n    tag_20:\n      dup1\n      0x0cb1982b\n      eq\n      tag_3\n      jumpi\n      dup1\n      0x0fbbfa3e\n      eq\n      tag_4\n      jumpi\n      dup1\n      0x2637a477\n      eq\n      tag_5\n      jumpi\n      jump(tag_2)\n    tag_1:\n      jumpi(tag_2, calldatasize)\n        /* \"TFGv3/Contracts/SCStorage.sol\":4935:4943  revert() */\n      0x00\n      dup1\n      revert\n        /* \"TFGv3/Contracts/SCStorage.sol\":148:5019  contract SCStorage is ISCStorage... */\n    tag_2:\n        /* \"TFGv3/Contracts/SCStorage.sol\":5002:5010  revert() */\n      0x00\n      dup1\n      revert\n        /* \"TFGv3/Contracts/SCStorage.sol\":980:1206  function updateNAV(uint comission) external virtual override returns (uint newNAV)... */\n    tag_3:\n      callvalue\n      dup1\n      iszero\n      tag_25\n      jumpi\n      0x00\n      dup1\n      revert\n    tag_25:\n      pop\n      tag_26\n      0x04\n      dup1\n      calldatasize\n      sub\n      dup2\n      add\n      swap1\n      tag_27\n      swap2\n      swap1\n      tag_28\n      jump\t// in\n    tag_27:\n      tag_29\n      jump\t// in\n    tag_26:\n      mload(0x40)\n      tag_30\n      swap2\n      swap1\n      tag_31\n      jump\t// in\n    tag_30:\n      mload(0x40)\n      dup1\n      swap2\n      sub\n      swap1\n      return\n        /* \"TFGv3/Contracts/SCStorage.sol\":405:455  mapping (address => address) public coinOracleAddr */\n    tag_4:\n      callvalue\n      dup1\n      iszero\n      tag_32\n      jumpi\n      0x00\n      dup1\n      revert\n    tag_32:\n      pop\n      tag_33\n      0x04\n      dup1\n      calldatasize\n      sub\n      dup2\n      add\n      swap1\n      tag_34\n      swap2\n      swap1\n      tag_35\n      jump\t// in\n    tag_34:\n      tag_36\n      jump\t// in\n    tag_33:\n      mload(0x40)\n      tag_37\n      swap2\n      swap1\n      tag_38\n      jump\t// in\n    tag_37:\n      mload(0x40)\n      dup1\n      swap2\n      sub\n      swap1\n      return\n        /* \"TFGv3/Contracts/SCStorage.sol\":4327:4884  function deleteContract(address newAddr) external virtual override OnlyDeployer... */\n    tag_5:\n      callvalue\n      dup1\n      iszero\n      tag_39\n      jumpi\n      0x00\n      dup1\n      revert\n    tag_39:\n      pop\n      tag_40\n      0x04\n      dup1\n      calldatasize\n      sub\n      dup2\n      add\n      swap1\n      tag_41\n      swap2\n      swap1\n      tag_35\n      jump\t// in\n    tag_41:\n      tag_42\n      jump\t// in\n    tag_40:\n      stop\n        /* \"TFGv3/Contracts/SCStorage.sol\":3714:4173  function delCoin(address coinAddr) external... */\n    tag_6:\n      callvalue\n      dup1\n      iszero\n      tag_43\n      jumpi\n      0x00\n      dup1\n      revert\n    tag_43:\n      pop\n      tag_44\n      0x04\n      dup1\n      calldatasize\n      sub\n      dup2\n      add\n      swap1\n      tag_45\n      swap2\n      swap1\n      tag_35\n      jump\t// in\n    tag_45:\n      tag_46\n      jump\t// in\n    tag_44:\n      stop\n        /* \"TFGv3/Contracts/SCStorage.sol\":215:230  uint public NAV */\n    tag_7:\n      callvalue\n      dup1\n      iszero\n      tag_47\n      jumpi\n      0x00\n      dup1\n      revert\n    tag_47:\n      pop\n      tag_48\n      tag_49\n      jump\t// in\n    tag_48:\n      mload(0x40)\n      tag_50\n      swap2\n      swap1\n      tag_31\n      jump\t// in\n    tag_50:\n      mload(0x40)\n      dup1\n      swap2\n      sub\n      swap1\n      return\n        /* \"TFGv3/Contracts/SCStorage.sol\":308:334  address[] public coinArray */\n    tag_8:\n      callvalue\n      dup1\n      iszero\n      tag_51\n      jumpi\n      0x00\n      dup1\n      revert\n    tag_51:\n      pop\n      tag_52\n      0x04\n      dup1\n      calldatasize\n      sub\n      dup2\n      add\n      swap1\n      tag_53\n      swap2\n      swap1\n      tag_28\n      jump\t// in\n    tag_53:\n      tag_54\n      jump\t// in\n    tag_52:\n      mload(0x40)\n      tag_55\n      swap2\n      swap1\n      tag_38\n      jump\t// in\n    tag_55:\n      mload(0x40)\n      dup1\n      swap2\n      sub\n      swap1\n      return\n        /* \"TFGv3/Contracts/SCStorage.sol\":337:375  mapping (address => uint) public coins */\n    tag_9:\n      callvalue\n      dup1\n      iszero\n      tag_56\n      jumpi\n      0x00\n      dup1\n      revert\n    tag_56:\n      pop\n      tag_57\n      0x04\n      dup1\n      calldatasize\n      sub\n      dup2\n      add\n      swap1\n      tag_58\n      swap2\n      swap1\n      tag_35\n      jump\t// in\n    tag_58:\n      tag_59\n      jump\t// in\n    tag_57:\n      mload(0x40)\n      tag_60\n      swap2\n      swap1\n      tag_31\n      jump\t// in\n    tag_60:\n      mload(0x40)\n      dup1\n      swap2\n      sub\n      swap1\n      return\n        /* \"TFGv3/Contracts/SCStorage.sol\":1216:1988  function transferFunds(address to, uint totalToTransfer) external virtual override returns (bool)... */\n    tag_10:\n      callvalue\n      dup1\n      iszero\n      tag_61\n      jumpi\n      0x00\n      dup1\n      revert\n    tag_61:\n      pop\n      tag_62\n      0x04\n      dup1\n      calldatasize\n      sub\n      dup2\n      add\n      swap1\n      tag_63\n      swap2\n      swap1\n      tag_64\n      jump\t// in\n    tag_63:\n      tag_65\n      jump\t// in\n    tag_62:\n      mload(0x40)\n      tag_66\n      swap2\n      swap1\n      tag_67\n      jump\t// in\n    tag_66:\n      mload(0x40)\n      dup1\n      swap2\n      sub\n      swap1\n      return\n        /* \"TFGv3/Contracts/SCStorage.sol\":4179:4317  function updateProxy(address newAddr) external virtual override... */\n    tag_11:\n      callvalue\n      dup1\n      iszero\n      tag_68\n      jumpi\n      0x00\n      dup1\n      revert\n    tag_68:\n      pop\n      tag_69\n      0x04\n      dup1\n      calldatasize\n      sub\n      dup2\n      add\n      swap1\n      tag_70\n      swap2\n      swap1\n      tag_35\n      jump\t// in\n    tag_70:\n      tag_71\n      jump\t// in\n    tag_69:\n      stop\n        /* \"TFGv3/Contracts/SCStorage.sol\":3438:3704  function addCoin(address coinAddr, uint stable) external  OnlyDeployer... */\n    tag_12:\n      callvalue\n      dup1\n      iszero\n      tag_72\n      jumpi\n      0x00\n      dup1\n      revert\n    tag_72:\n      pop\n      tag_73\n      0x04\n      dup1\n      calldatasize\n      sub\n      dup2\n      add\n      swap1\n      tag_74\n      swap2\n      swap1\n      tag_64\n      jump\t// in\n    tag_74:\n      tag_75\n      jump\t// in\n    tag_73:\n      stop\n        /* \"TFGv3/Contracts/SCStorage.sol\":843:974  function initContract(address proxyAddr) external OnlyDeployer NonInit... */\n    tag_13:\n      callvalue\n      dup1\n      iszero\n      tag_76\n      jumpi\n      0x00\n      dup1\n      revert\n    tag_76:\n      pop\n      tag_77\n      0x04\n      dup1\n      calldatasize\n      sub\n      dup2\n      add\n      swap1\n      tag_78\n      swap2\n      swap1\n      tag_35\n      jump\t// in\n    tag_78:\n      tag_79\n      jump\t// in\n    tag_77:\n      stop\n        /* \"TFGv3/Contracts/SCStorage.sol\":484:527  mapping (address => address) public quoteIn */\n    tag_14:\n      callvalue\n      dup1\n      iszero\n      tag_80\n      jumpi\n      0x00\n      dup1\n      revert\n    tag_80:\n      pop\n      tag_81\n      0x04\n      dup1\n      calldatasize\n      sub\n      dup2\n      add\n      swap1\n      tag_82\n      swap2\n      swap1\n      tag_35\n      jump\t// in\n    tag_82:\n      tag_83\n      jump\t// in\n    tag_81:\n      mload(0x40)\n      tag_84\n      swap2\n      swap1\n      tag_38\n      jump\t// in\n    tag_84:\n      mload(0x40)\n      dup1\n      swap2\n      sub\n      swap1\n      return\n        /* \"TFGv3/Contracts/SCStorage.sol\":1998:2528  function oracleNAV() external view returns (uint, uint)... */\n    tag_15:\n      callvalue\n      dup1\n      iszero\n      tag_85\n      jumpi\n      0x00\n      dup1\n      revert\n    tag_85:\n      pop\n      tag_86\n      tag_87\n      jump\t// in\n    tag_86:\n      mload(0x40)\n      tag_88\n      swap3\n      swap2\n      swap1\n      tag_89\n      jump\t// in\n    tag_88:\n      mload(0x40)\n      dup1\n      swap2\n      sub\n      swap1\n      return\n        /* \"TFGv3/Contracts/SCStorage.sol\":284:304  address public proxy */\n    tag_16:\n      callvalue\n      dup1\n      iszero\n      tag_90\n      jumpi\n      0x00\n      dup1\n      revert\n    tag_90:\n      pop\n      tag_91\n      tag_92\n      jump\t// in\n    tag_91:\n      mload(0x40)\n      tag_93\n      swap2\n      swap1\n      tag_38\n      jump\t// in\n    tag_93:\n      mload(0x40)\n      dup1\n      swap2\n      sub\n      swap1\n      return\n        /* \"TFGv3/Contracts/SCStorage.sol\":236:257  uint8 public initDone */\n    tag_17:\n      callvalue\n      dup1\n      iszero\n      tag_94\n      jumpi\n      0x00\n      dup1\n      revert\n    tag_94:\n      pop\n      tag_95\n      tag_96\n      jump\t// in\n    tag_95:\n      mload(0x40)\n      tag_97\n      swap2\n      swap1\n      tag_98\n      jump\t// in\n    tag_97:\n      mload(0x40)\n      dup1\n      swap2\n      sub\n      swap1\n      return\n        /* \"TFGv3/Contracts/SCStorage.sol\":980:1206  function updateNAV(uint comission) external virtual override returns (uint newNAV)... */\n    tag_29:\n        /* \"TFGv3/Contracts/SCStorage.sol\":1050:1061  uint newNAV */\n      0x00\n        /* \"TFGv3/Contracts/SCStorage.sol\":1106:1111  proxy */\n      0x01\n      0x02\n      swap1\n      sload\n      swap1\n      0x0100\n      exp\n      swap1\n      div\n      0xffffffffffffffffffffffffffffffffffffffff\n      and\n        /* \"TFGv3/Contracts/SCStorage.sol\":1099:1129  IProxy(proxy).exchangeContract */\n      0xffffffffffffffffffffffffffffffffffffffff\n      and\n      0x3f0a0797\n        /* \"TFGv3/Contracts/SCStorage.sol\":1099:1131  IProxy(proxy).exchangeContract() */\n      mload(0x40)\n      dup2\n      0xffffffff\n      and\n      0xe0\n      shl\n      dup2\n      mstore\n      0x04\n      add\n      0x20\n      mload(0x40)\n      dup1\n      dup4\n      sub\n      dup2\n      dup7\n      gas\n      staticcall\n      iszero\n      dup1\n      iszero\n      tag_101\n      jumpi\n      returndatasize\n      0x00\n      dup1\n      returndatacopy\n      revert(0x00, returndatasize)\n    tag_101:\n      pop\n      pop\n      pop\n      pop\n      mload(0x40)\n      returndatasize\n      not(0x1f)\n      0x1f\n      dup3\n      add\n      and\n      dup3\n      add\n      dup1\n      0x40\n      mstore\n      pop\n      dup2\n      add\n      swap1\n      tag_102\n      swap2\n      swap1\n      tag_103\n      jump\t// in\n    tag_102:\n        /* \"TFGv3/Contracts/SCStorage.sol\":1085:1131  msg.sender == IProxy(proxy).exchangeContract() */\n      0xffffffffffffffffffffffffffffffffffffffff\n      and\n        /* \"TFGv3/Contracts/SCStorage.sol\":1085:1095  msg.sender */\n      caller\n        /* \"TFGv3/Contracts/SCStorage.sol\":1085:1131  msg.sender == IProxy(proxy).exchangeContract() */\n      0xffffffffffffffffffffffffffffffffffffffff\n      and\n      eq\n        /* \"TFGv3/Contracts/SCStorage.sol\":1077:1132  require(msg.sender == IProxy(proxy).exchangeContract()) */\n      tag_104\n      jumpi\n      0x00\n      dup1\n      revert\n    tag_104:\n        /* \"TFGv3/Contracts/SCStorage.sol\":1168:1177  comission */\n      dup2\n        /* \"TFGv3/Contracts/SCStorage.sol\":1151:1165  calculateNAV() */\n      tag_105\n        /* \"TFGv3/Contracts/SCStorage.sol\":1151:1163  calculateNAV */\n      tag_106\n        /* \"TFGv3/Contracts/SCStorage.sol\":1151:1165  calculateNAV() */\n      jump\t// in\n    tag_105:\n        /* \"TFGv3/Contracts/SCStorage.sol\":1151:1177  calculateNAV() - comission */\n      tag_107\n      swap2\n      swap1\n      tag_108\n      jump\t// in\n    tag_107:\n        /* \"TFGv3/Contracts/SCStorage.sol\":1142:1177  newNAV = calculateNAV() - comission */\n      swap1\n      pop\n        /* \"TFGv3/Contracts/SCStorage.sol\":1193:1199  newNAV */\n      dup1\n        /* \"TFGv3/Contracts/SCStorage.sol\":1187:1190  NAV */\n      0x00\n        /* \"TFGv3/Contracts/SCStorage.sol\":1187:1199  NAV = newNAV */\n      dup2\n      swap1\n      sstore\n      pop\n        /* \"TFGv3/Contracts/SCStorage.sol\":980:1206  function updateNAV(uint comission) external virtual override returns (uint newNAV)... */\n      swap2\n      swap1\n      pop\n      jump\t// out\n        /* \"TFGv3/Contracts/SCStorage.sol\":405:455  mapping (address => address) public coinOracleAddr */\n    tag_36:\n      mstore(0x20, 0x04)\n      dup1\n      0x00\n      mstore\n      keccak256(0x00, 0x40)\n      0x00\n      swap2\n      pop\n      sload\n      swap1\n      0x0100\n      exp\n      swap1\n      div\n      0xffffffffffffffffffffffffffffffffffffffff\n      and\n      dup2\n      jump\t// out\n        /* \"TFGv3/Contracts/SCStorage.sol\":4327:4884  function deleteContract(address newAddr) external virtual override OnlyDeployer... */\n    tag_42:\n        /* \"TFGv3/Contracts/SCStorage.sol\":731:739  deployer */\n      immutable(\"0xcdf1dd2e8742ccca482be714f2ab38acb16e66300c9790cd19a8abbcdf150d1c\")\n        /* \"TFGv3/Contracts/SCStorage.sol\":717:739  msg.sender == deployer */\n      0xffffffffffffffffffffffffffffffffffffffff\n      and\n        /* \"TFGv3/Contracts/SCStorage.sol\":717:727  msg.sender */\n      caller\n        /* \"TFGv3/Contracts/SCStorage.sol\":717:739  msg.sender == deployer */\n      0xffffffffffffffffffffffffffffffffffffffff\n      and\n      eq\n        /* \"TFGv3/Contracts/SCStorage.sol\":709:740  require(msg.sender == deployer) */\n      tag_110\n      jumpi\n      0x00\n      dup1\n      revert\n    tag_110:\n        /* \"TFGv3/Contracts/SCStorage.sol\":4421:4438  address proxyAddr */\n      0x00\n        /* \"TFGv3/Contracts/SCStorage.sol\":4441:4446  proxy */\n      0x01\n      0x02\n      swap1\n      sload\n      swap1\n      0x0100\n      exp\n      swap1\n      div\n      0xffffffffffffffffffffffffffffffffffffffff\n      and\n        /* \"TFGv3/Contracts/SCStorage.sol\":4421:4446  address proxyAddr = proxy */\n      swap1\n      pop\n        /* \"TFGv3/Contracts/SCStorage.sol\":4463:4472  proxyAddr */\n      dup1\n        /* \"TFGv3/Contracts/SCStorage.sol\":4456:4488  IProxy(proxyAddr).setStorageAddr */\n      0xffffffffffffffffffffffffffffffffffffffff\n      and\n      0xa6fa0b7b\n        /* \"TFGv3/Contracts/SCStorage.sol\":4489:4496  newAddr */\n      dup4\n        /* \"TFGv3/Contracts/SCStorage.sol\":4456:4497  IProxy(proxyAddr).setStorageAddr(newAddr) */\n      mload(0x40)\n      dup3\n      0xffffffff\n      and\n      0xe0\n      shl\n      dup2\n      mstore\n      0x04\n      add\n      tag_112\n      swap2\n      swap1\n      tag_38\n      jump\t// in\n    tag_112:\n      0x00\n      mload(0x40)\n      dup1\n      dup4\n      sub\n      dup2\n      0x00\n      dup8\n      dup1\n      extcodesize\n      iszero\n      dup1\n      iszero\n      tag_113\n      jumpi\n      0x00\n      dup1\n      revert\n    tag_113:\n      pop\n      gas\n      call\n      iszero\n      dup1\n      iszero\n      tag_115\n      jumpi\n      returndatasize\n      0x00\n      dup1\n      returndatacopy\n      revert(0x00, returndatasize)\n    tag_115:\n      pop\n      pop\n      pop\n      pop\n        /* \"TFGv3/Contracts/SCStorage.sol\":4507:4514  newAddr */\n      dup2\n        /* \"TFGv3/Contracts/SCStorage.sol\":4507:4527  newAddr.delegatecall */\n      0xffffffffffffffffffffffffffffffffffffffff\n      and\n        /* \"TFGv3/Contracts/SCStorage.sol\":4577:4586  proxyAddr */\n      dup2\n        /* \"TFGv3/Contracts/SCStorage.sol\":4528:4587  abi.encodeWithSignature(\"initContract(address)\", proxyAddr) */\n      add(0x24, mload(0x40))\n      tag_116\n      swap2\n      swap1\n      tag_38\n      jump\t// in\n    tag_116:\n      mload(0x40)\n      0x20\n      dup2\n      dup4\n      sub\n      sub\n      dup2\n      mstore\n      swap1\n      0x40\n      mstore\n      and(not(0xffffffffffffffffffffffffffffffffffffffffffffffffffffffff), 0xcf9d4afa00000000000000000000000000000000000000000000000000000000)\n      0x20\n      dup3\n      add\n      dup1\n      mload\n      0xffffffffffffffffffffffffffffffffffffffffffffffffffffffff\n      dup4\n      dup2\n      dup4\n      and\n      or\n      dup4\n      mstore\n      pop\n      pop\n      pop\n      pop\n        /* \"TFGv3/Contracts/SCStorage.sol\":4507:4588  newAddr.delegatecall(abi.encodeWithSignature(\"initContract(address)\", proxyAddr)) */\n      mload(0x40)\n      tag_117\n      swap2\n      swap1\n      tag_118\n      jump\t// in\n    tag_117:\n      0x00\n      mload(0x40)\n      dup1\n      dup4\n      sub\n      dup2\n      dup6\n      gas\n      delegatecall\n      swap2\n      pop\n      pop\n      returndatasize\n      dup1\n      0x00\n      dup2\n      eq\n      tag_121\n      jumpi\n      mload(0x40)\n      swap2\n      pop\n      and(add(returndatasize, 0x3f), not(0x1f))\n      dup3\n      add\n      0x40\n      mstore\n      returndatasize\n      dup3\n      mstore\n      returndatasize\n      0x00\n      0x20\n      dup5\n      add\n      returndatacopy\n      jump(tag_120)\n    tag_121:\n      0x60\n      swap2\n      pop\n    tag_120:\n      pop\n      pop\n      pop\n        /* \"TFGv3/Contracts/SCStorage.sol\":4598:4604  uint n */\n      0x00\n        /* \"TFGv3/Contracts/SCStorage.sol\":4607:4616  coinArray */\n      0x02\n        /* \"TFGv3/Contracts/SCStorage.sol\":4607:4623  coinArray.length */\n      dup1\n      sload\n      swap1\n      pop\n        /* \"TFGv3/Contracts/SCStorage.sol\":4598:4623  uint n = coinArray.length */\n      swap1\n      pop\n        /* \"TFGv3/Contracts/SCStorage.sol\":4637:4643  uint i */\n      0x00\n        /* \"TFGv3/Contracts/SCStorage.sol\":4633:4837  for(uint i = 0; i < n; i++)... */\n    tag_122:\n        /* \"TFGv3/Contracts/SCStorage.sol\":4653:4654  n */\n      dup2\n        /* \"TFGv3/Contracts/SCStorage.sol\":4649:4650  i */\n      dup2\n        /* \"TFGv3/Contracts/SCStorage.sol\":4649:4654  i < n */\n      lt\n        /* \"TFGv3/Contracts/SCStorage.sol\":4633:4837  for(uint i = 0; i < n; i++)... */\n      iszero\n      tag_123\n      jumpi\n        /* \"TFGv3/Contracts/SCStorage.sol\":4683:4706  address tokenToTransfer */\n      0x00\n        /* \"TFGv3/Contracts/SCStorage.sol\":4709:4718  coinArray */\n      0x02\n        /* \"TFGv3/Contracts/SCStorage.sol\":4719:4720  i */\n      dup3\n        /* \"TFGv3/Contracts/SCStorage.sol\":4709:4721  coinArray[i] */\n      dup2\n      sload\n      dup2\n      lt\n      tag_125\n      jumpi\n      tag_126\n      tag_127\n      jump\t// in\n    tag_126:\n    tag_125:\n      swap1\n      0x00\n      mstore\n      keccak256(0x00, 0x20)\n      add\n      0x00\n      swap1\n      sload\n      swap1\n      0x0100\n      exp\n      swap1\n      div\n      0xffffffffffffffffffffffffffffffffffffffff\n      and\n        /* \"TFGv3/Contracts/SCStorage.sol\":4683:4721  address tokenToTransfer = coinArray[i] */\n      swap1\n      pop\n        /* \"TFGv3/Contracts/SCStorage.sol\":4742:4757  tokenToTransfer */\n      dup1\n        /* \"TFGv3/Contracts/SCStorage.sol\":4735:4767  IERC20(tokenToTransfer).transfer */\n      0xffffffffffffffffffffffffffffffffffffffff\n      and\n      0xa9059cbb\n        /* \"TFGv3/Contracts/SCStorage.sol\":4768:4775  newAddr */\n      dup7\n        /* \"TFGv3/Contracts/SCStorage.sol\":4784:4799  tokenToTransfer */\n      dup4\n        /* \"TFGv3/Contracts/SCStorage.sol\":4777:4810  IERC20(tokenToTransfer).balanceOf */\n      0xffffffffffffffffffffffffffffffffffffffff\n      and\n      0x70a08231\n        /* \"TFGv3/Contracts/SCStorage.sol\":4819:4823  this */\n      address\n        /* \"TFGv3/Contracts/SCStorage.sol\":4777:4825  IERC20(tokenToTransfer).balanceOf(address(this)) */\n      mload(0x40)\n      dup3\n      0xffffffff\n      and\n      0xe0\n      shl\n      dup2\n      mstore\n      0x04\n      add\n      tag_129\n      swap2\n      swap1\n      tag_38\n      jump\t// in\n    tag_129:\n      0x20\n      mload(0x40)\n      dup1\n      dup4\n      sub\n      dup2\n      dup7\n      gas\n      staticcall\n      iszero\n      dup1\n      iszero\n      tag_131\n      jumpi\n      returndatasize\n      0x00\n      dup1\n      returndatacopy\n      revert(0x00, returndatasize)\n    tag_131:\n      pop\n      pop\n      pop\n      pop\n      mload(0x40)\n      returndatasize\n      not(0x1f)\n      0x1f\n      dup3\n      add\n      and\n      dup3\n      add\n      dup1\n      0x40\n      mstore\n      pop\n      dup2\n      add\n      swap1\n      tag_132\n      swap2\n      swap1\n      tag_133\n      jump\t// in\n    tag_132:\n        /* \"TFGv3/Contracts/SCStorage.sol\":4735:4826  IERC20(tokenToTransfer).transfer(newAddr, IERC20(tokenToTransfer).balanceOf(address(this))) */\n      mload(0x40)\n      dup4\n      0xffffffff\n      and\n      0xe0\n      shl\n      dup2\n      mstore\n      0x04\n      add\n      tag_134\n      swap3\n      swap2\n      swap1\n      tag_135\n      jump\t// in\n    tag_134:\n      0x20\n      mload(0x40)\n      dup1\n      dup4\n      sub\n      dup2\n      0x00\n      dup8\n      gas\n      call\n      iszero\n      dup1\n      iszero\n      tag_137\n      jumpi\n      returndatasize\n      0x00\n      dup1\n      returndatacopy\n      revert(0x00, returndatasize)\n    tag_137:\n      pop\n      pop\n      pop\n      pop\n      mload(0x40)\n      returndatasize\n      not(0x1f)\n      0x1f\n      dup3\n      add\n      and\n      dup3\n      add\n      dup1\n      0x40\n      mstore\n      pop\n      dup2\n      add\n      swap1\n      tag_138\n      swap2\n      swap1\n      tag_139\n      jump\t// in\n    tag_138:\n      pop\n        /* \"TFGv3/Contracts/SCStorage.sol\":4669:4837  {... */\n      pop\n        /* \"TFGv3/Contracts/SCStorage.sol\":4656:4659  i++ */\n      dup1\n      dup1\n      tag_140\n      swap1\n      tag_141\n      jump\t// in\n    tag_140:\n      swap2\n      pop\n      pop\n        /* \"TFGv3/Contracts/SCStorage.sol\":4633:4837  for(uint i = 0; i < n; i++)... */\n      jump(tag_122)\n    tag_123:\n      pop\n        /* \"TFGv3/Contracts/SCStorage.sol\":4867:4875  deployer */\n      immutable(\"0xcdf1dd2e8742ccca482be714f2ab38acb16e66300c9790cd19a8abbcdf150d1c\")\n        /* \"TFGv3/Contracts/SCStorage.sol\":4846:4877  selfdestruct(payable(deployer)) */\n      0xffffffffffffffffffffffffffffffffffffffff\n      and\n      selfdestruct\n        /* \"TFGv3/Contracts/SCStorage.sol\":3714:4173  function delCoin(address coinAddr) external... */\n    tag_46:\n        /* \"TFGv3/Contracts/SCStorage.sol\":3794:3802  deployer */\n      immutable(\"0xcdf1dd2e8742ccca482be714f2ab38acb16e66300c9790cd19a8abbcdf150d1c\")\n        /* \"TFGv3/Contracts/SCStorage.sol\":3780:3802  msg.sender == deployer */\n      0xffffffffffffffffffffffffffffffffffffffff\n      and\n        /* \"TFGv3/Contracts/SCStorage.sol\":3780:3790  msg.sender */\n      caller\n        /* \"TFGv3/Contracts/SCStorage.sol\":3780:3802  msg.sender == deployer */\n      0xffffffffffffffffffffffffffffffffffffffff\n      and\n      eq\n        /* \"TFGv3/Contracts/SCStorage.sol\":3780:3852  msg.sender == deployer || msg.sender == IProxy(proxy).exchangeContract() */\n      dup1\n      tag_143\n      jumpi\n      pop\n        /* \"TFGv3/Contracts/SCStorage.sol\":3827:3832  proxy */\n      0x01\n      0x02\n      swap1\n      sload\n      swap1\n      0x0100\n      exp\n      swap1\n      div\n      0xffffffffffffffffffffffffffffffffffffffff\n      and\n        /* \"TFGv3/Contracts/SCStorage.sol\":3820:3850  IProxy(proxy).exchangeContract */\n      0xffffffffffffffffffffffffffffffffffffffff\n      and\n      0x3f0a0797\n        /* \"TFGv3/Contracts/SCStorage.sol\":3820:3852  IProxy(proxy).exchangeContract() */\n      mload(0x40)\n      dup2\n      0xffffffff\n      and\n      0xe0\n      shl\n      dup2\n      mstore\n      0x04\n      add\n      0x20\n      mload(0x40)\n      dup1\n      dup4\n      sub\n      dup2\n      dup7\n      gas\n      staticcall\n      iszero\n      dup1\n      iszero\n      tag_145\n      jumpi\n      returndatasize\n      0x00\n      dup1\n      returndatacopy\n      revert(0x00, returndatasize)\n    tag_145:\n      pop\n      pop\n      pop\n      pop\n      mload(0x40)\n      returndatasize\n      not(0x1f)\n      0x1f\n      dup3\n      add\n      and\n      dup3\n      add\n      dup1\n      0x40\n      mstore\n      pop\n      dup2\n      add\n      swap1\n      tag_146\n      swap2\n      swap1\n      tag_103\n      jump\t// in\n    tag_146:\n        /* \"TFGv3/Contracts/SCStorage.sol\":3806:3852  msg.sender == IProxy(proxy).exchangeContract() */\n      0xffffffffffffffffffffffffffffffffffffffff\n      and\n        /* \"TFGv3/Contracts/SCStorage.sol\":3806:3816  msg.sender */\n      caller\n        /* \"TFGv3/Contracts/SCStorage.sol\":3806:3852  msg.sender == IProxy(proxy).exchangeContract() */\n      0xffffffffffffffffffffffffffffffffffffffff\n      and\n      eq\n        /* \"TFGv3/Contracts/SCStorage.sol\":3780:3852  msg.sender == deployer || msg.sender == IProxy(proxy).exchangeContract() */\n    tag_143:\n        /* \"TFGv3/Contracts/SCStorage.sol\":3772:3853  require(msg.sender == deployer || msg.sender == IProxy(proxy).exchangeContract()) */\n      tag_147\n      jumpi\n      0x00\n      dup1\n      revert\n    tag_147:\n        /* \"TFGv3/Contracts/SCStorage.sol\":3885:3886  2 */\n      0x02\n        /* \"TFGv3/Contracts/SCStorage.sol\":3866:3871  coins */\n      0x03\n        /* \"TFGv3/Contracts/SCStorage.sol\":3866:3881  coins[coinAddr] */\n      0x00\n        /* \"TFGv3/Contracts/SCStorage.sol\":3872:3880  coinAddr */\n      dup4\n        /* \"TFGv3/Contracts/SCStorage.sol\":3866:3881  coins[coinAddr] */\n      0xffffffffffffffffffffffffffffffffffffffff\n      and\n      0xffffffffffffffffffffffffffffffffffffffff\n      and\n      dup2\n      mstore\n      0x20\n      add\n      swap1\n      dup2\n      mstore\n      0x20\n      add\n      0x00\n      keccak256\n      sload\n        /* \"TFGv3/Contracts/SCStorage.sol\":3866:3886  coins[coinAddr] == 2 */\n      sub\n        /* \"TFGv3/Contracts/SCStorage.sol\":3863:3897  if(coins[coinAddr] == 2) nStable-- */\n      tag_148\n      jumpi\n        /* \"TFGv3/Contracts/SCStorage.sol\":3888:3895  nStable */\n      0x01\n      dup1\n        /* \"TFGv3/Contracts/SCStorage.sol\":3888:3897  nStable-- */\n      dup2\n      dup2\n      swap1\n      sload\n      swap1\n      0x0100\n      exp\n      swap1\n      div\n      0xff\n      and\n      dup1\n      swap3\n      swap2\n      swap1\n      tag_149\n      swap1\n      tag_150\n      jump\t// in\n    tag_149:\n      swap2\n      swap1\n      0x0100\n      exp\n      dup2\n      sload\n      dup2\n      0xff\n      mul\n      not\n      and\n      swap1\n      dup4\n      0xff\n      and\n      mul\n      or\n      swap1\n      sstore\n      pop\n      pop\n        /* \"TFGv3/Contracts/SCStorage.sol\":3863:3897  if(coins[coinAddr] == 2) nStable-- */\n    tag_148:\n        /* \"TFGv3/Contracts/SCStorage.sol\":3925:3926  0 */\n      0x00\n        /* \"TFGv3/Contracts/SCStorage.sol\":3907:3912  coins */\n      0x03\n        /* \"TFGv3/Contracts/SCStorage.sol\":3907:3922  coins[coinAddr] */\n      0x00\n        /* \"TFGv3/Contracts/SCStorage.sol\":3913:3921  coinAddr */\n      dup4\n        /* \"TFGv3/Contracts/SCStorage.sol\":3907:3922  coins[coinAddr] */\n      0xffffffffffffffffffffffffffffffffffffffff\n      and\n      0xffffffffffffffffffffffffffffffffffffffff\n      and\n      dup2\n      mstore\n      0x20\n      add\n      swap1\n      dup2\n      mstore\n      0x20\n      add\n      0x00\n      keccak256\n        /* \"TFGv3/Contracts/SCStorage.sol\":3907:3926  coins[coinAddr] = 0 */\n      dup2\n      swap1\n      sstore\n      pop\n        /* \"TFGv3/Contracts/SCStorage.sol\":3936:3942  uint n */\n      0x00\n        /* \"TFGv3/Contracts/SCStorage.sol\":3945:3954  coinArray */\n      0x02\n        /* \"TFGv3/Contracts/SCStorage.sol\":3945:3961  coinArray.length */\n      dup1\n      sload\n      swap1\n      pop\n        /* \"TFGv3/Contracts/SCStorage.sol\":3936:3961  uint n = coinArray.length */\n      swap1\n      pop\n        /* \"TFGv3/Contracts/SCStorage.sol\":3975:3981  uint i */\n      0x00\n        /* \"TFGv3/Contracts/SCStorage.sol\":3971:4167  for(uint i = 0; i < n; i++)... */\n    tag_151:\n        /* \"TFGv3/Contracts/SCStorage.sol\":3991:3992  n */\n      dup2\n        /* \"TFGv3/Contracts/SCStorage.sol\":3987:3988  i */\n      dup2\n        /* \"TFGv3/Contracts/SCStorage.sol\":3987:3992  i < n */\n      lt\n        /* \"TFGv3/Contracts/SCStorage.sol\":3971:4167  for(uint i = 0; i < n; i++)... */\n      iszero\n      tag_152\n      jumpi\n        /* \"TFGv3/Contracts/SCStorage.sol\":4040:4048  coinAddr */\n      dup3\n        /* \"TFGv3/Contracts/SCStorage.sol\":4024:4048  coinArray[i] == coinAddr */\n      0xffffffffffffffffffffffffffffffffffffffff\n      and\n        /* \"TFGv3/Contracts/SCStorage.sol\":4024:4033  coinArray */\n      0x02\n        /* \"TFGv3/Contracts/SCStorage.sol\":4034:4035  i */\n      dup3\n        /* \"TFGv3/Contracts/SCStorage.sol\":4024:4036  coinArray[i] */\n      dup2\n      sload\n      dup2\n      lt\n      tag_154\n      jumpi\n      tag_155\n      tag_127\n      jump\t// in\n    tag_155:\n    tag_154:\n      swap1\n      0x00\n      mstore\n      keccak256(0x00, 0x20)\n      add\n      0x00\n      swap1\n      sload\n      swap1\n      0x0100\n      exp\n      swap1\n      div\n      0xffffffffffffffffffffffffffffffffffffffff\n      and\n        /* \"TFGv3/Contracts/SCStorage.sol\":4024:4048  coinArray[i] == coinAddr */\n      0xffffffffffffffffffffffffffffffffffffffff\n      and\n      sub\n        /* \"TFGv3/Contracts/SCStorage.sol\":4021:4157  if(coinArray[i] == coinAddr)... */\n      tag_157\n      jumpi\n        /* \"TFGv3/Contracts/SCStorage.sol\":4095:4104  coinArray */\n      0x02\n        /* \"TFGv3/Contracts/SCStorage.sol\":4107:4108  1 */\n      0x01\n        /* \"TFGv3/Contracts/SCStorage.sol\":4105:4106  n */\n      dup4\n        /* \"TFGv3/Contracts/SCStorage.sol\":4105:4108  n-1 */\n      tag_158\n      swap2\n      swap1\n      tag_108\n      jump\t// in\n    tag_158:\n        /* \"TFGv3/Contracts/SCStorage.sol\":4095:4109  coinArray[n-1] */\n      dup2\n      sload\n      dup2\n      lt\n      tag_159\n      jumpi\n      tag_160\n      tag_127\n      jump\t// in\n    tag_160:\n    tag_159:\n      swap1\n      0x00\n      mstore\n      keccak256(0x00, 0x20)\n      add\n      0x00\n      swap1\n      sload\n      swap1\n      0x0100\n      exp\n      swap1\n      div\n      0xffffffffffffffffffffffffffffffffffffffff\n      and\n        /* \"TFGv3/Contracts/SCStorage.sol\":4080:4089  coinArray */\n      0x02\n        /* \"TFGv3/Contracts/SCStorage.sol\":4090:4091  i */\n      dup3\n        /* \"TFGv3/Contracts/SCStorage.sol\":4080:4092  coinArray[i] */\n      dup2\n      sload\n      dup2\n      lt\n      tag_162\n      jumpi\n      tag_163\n      tag_127\n      jump\t// in\n    tag_163:\n    tag_162:\n      swap1\n      0x00\n      mstore\n      keccak256(0x00, 0x20)\n      add\n      0x00\n        /* \"TFGv3/Contracts/SCStorage.sol\":4080:4109  coinArray[i] = coinArray[n-1] */\n      0x0100\n      exp\n      dup2\n      sload\n      dup2\n      0xffffffffffffffffffffffffffffffffffffffff\n      mul\n      not\n      and\n      swap1\n      dup4\n      0xffffffffffffffffffffffffffffffffffffffff\n      and\n      mul\n      or\n      swap1\n      sstore\n      pop\n        /* \"TFGv3/Contracts/SCStorage.sol\":4127:4136  coinArray */\n      0x02\n        /* \"TFGv3/Contracts/SCStorage.sol\":4127:4142  coinArray.pop() */\n      dup1\n      sload\n      dup1\n      tag_165\n      jumpi\n      tag_166\n      tag_167\n      jump\t// in\n    tag_166:\n    tag_165:\n      0x01\n      swap1\n      sub\n      dup2\n      dup2\n      swap1\n      0x00\n      mstore\n      keccak256(0x00, 0x20)\n      add\n      exp(0x0100, 0x00)\n      dup2\n      sload\n      swap1\n      0xffffffffffffffffffffffffffffffffffffffff\n      mul\n      not\n      and\n      swap1\n      sstore\n      swap1\n      sstore\n        /* \"TFGv3/Contracts/SCStorage.sol\":4021:4157  if(coinArray[i] == coinAddr)... */\n    tag_157:\n        /* \"TFGv3/Contracts/SCStorage.sol\":3994:3997  i++ */\n      dup1\n      dup1\n      tag_169\n      swap1\n      tag_141\n      jump\t// in\n    tag_169:\n      swap2\n      pop\n      pop\n        /* \"TFGv3/Contracts/SCStorage.sol\":3971:4167  for(uint i = 0; i < n; i++)... */\n      jump(tag_151)\n    tag_152:\n      pop\n        /* \"TFGv3/Contracts/SCStorage.sol\":3762:4173  {... */\n      pop\n        /* \"TFGv3/Contracts/SCStorage.sol\":3714:4173  function delCoin(address coinAddr) external... */\n      pop\n      jump\t// out\n        /* \"TFGv3/Contracts/SCStorage.sol\":215:230  uint public NAV */\n    tag_49:\n      sload(0x00)\n      dup2\n      jump\t// out\n        /* \"TFGv3/Contracts/SCStorage.sol\":308:334  address[] public coinArray */\n    tag_54:\n      0x02\n      dup2\n      dup2\n      sload\n      dup2\n      lt\n      tag_170\n      jumpi\n      0x00\n      dup1\n      revert\n    tag_170:\n      swap1\n      0x00\n      mstore\n      keccak256(0x00, 0x20)\n      add\n      0x00\n      swap2\n      pop\n      sload\n      swap1\n      0x0100\n      exp\n      swap1\n      div\n      0xffffffffffffffffffffffffffffffffffffffff\n      and\n      dup2\n      jump\t// out\n        /* \"TFGv3/Contracts/SCStorage.sol\":337:375  mapping (address => uint) public coins */\n    tag_59:\n      mstore(0x20, 0x03)\n      dup1\n      0x00\n      mstore\n      keccak256(0x00, 0x40)\n      0x00\n      swap2\n      pop\n      swap1\n      pop\n      sload\n      dup2\n      jump\t// out\n        /* \"TFGv3/Contracts/SCStorage.sol\":1216:1988  function transferFunds(address to, uint totalToTransfer) external virtual override returns (bool)... */\n    tag_65:\n        /* \"TFGv3/Contracts/SCStorage.sol\":1308:1312  bool */\n      0x00\n        /* \"TFGv3/Contracts/SCStorage.sol\":1328:1345  address proxyAddr */\n      dup1\n        /* \"TFGv3/Contracts/SCStorage.sol\":1348:1353  proxy */\n      0x01\n      0x02\n      swap1\n      sload\n      swap1\n      0x0100\n      exp\n      swap1\n      div\n      0xffffffffffffffffffffffffffffffffffffffff\n      and\n        /* \"TFGv3/Contracts/SCStorage.sol\":1328:1353  address proxyAddr = proxy */\n      swap1\n      pop\n        /* \"TFGv3/Contracts/SCStorage.sol\":1392:1401  proxyAddr */\n      dup1\n        /* \"TFGv3/Contracts/SCStorage.sol\":1385:1419  IProxy(proxyAddr).exchangeContract */\n      0xffffffffffffffffffffffffffffffffffffffff\n      and\n      0x3f0a0797\n        /* \"TFGv3/Contracts/SCStorage.sol\":1385:1421  IProxy(proxyAddr).exchangeContract() */\n      mload(0x40)\n      dup2\n      0xffffffff\n      and\n      0xe0\n      shl\n      dup2\n      mstore\n      0x04\n      add\n      0x20\n      mload(0x40)\n      dup1\n      dup4\n      sub\n      dup2\n      dup7\n      gas\n      staticcall\n      iszero\n      dup1\n      iszero\n      tag_174\n      jumpi\n      returndatasize\n      0x00\n      dup1\n      returndatacopy\n      revert(0x00, returndatasize)\n    tag_174:\n      pop\n      pop\n      pop\n      pop\n      mload(0x40)\n      returndatasize\n      not(0x1f)\n      0x1f\n      dup3\n      add\n      and\n      dup3\n      add\n      dup1\n      0x40\n      mstore\n      pop\n      dup2\n      add\n      swap1\n      tag_175\n      swap2\n      swap1\n      tag_103\n      jump\t// in\n    tag_175:\n        /* \"TFGv3/Contracts/SCStorage.sol\":1371:1421  msg.sender == IProxy(proxyAddr).exchangeContract() */\n      0xffffffffffffffffffffffffffffffffffffffff\n      and\n        /* \"TFGv3/Contracts/SCStorage.sol\":1371:1381  msg.sender */\n      caller\n        /* \"TFGv3/Contracts/SCStorage.sol\":1371:1421  msg.sender == IProxy(proxyAddr).exchangeContract() */\n      0xffffffffffffffffffffffffffffffffffffffff\n      and\n      eq\n        /* \"TFGv3/Contracts/SCStorage.sol\":1371:1477  msg.sender == IProxy(proxyAddr).exchangeContract() || msg.sender == IProxy(proxyAddr).commissionContract() */\n      dup1\n      tag_176\n      jumpi\n      pop\n        /* \"TFGv3/Contracts/SCStorage.sol\":1446:1455  proxyAddr */\n      dup1\n        /* \"TFGv3/Contracts/SCStorage.sol\":1439:1475  IProxy(proxyAddr).commissionContract */\n      0xffffffffffffffffffffffffffffffffffffffff\n      and\n      0xda8909e5\n        /* \"TFGv3/Contracts/SCStorage.sol\":1439:1477  IProxy(proxyAddr).commissionContract() */\n      mload(0x40)\n      dup2\n      0xffffffff\n      and\n      0xe0\n      shl\n      dup2\n      mstore\n      0x04\n      add\n      0x20\n      mload(0x40)\n      dup1\n      dup4\n      sub\n      dup2\n      dup7\n      gas\n      staticcall\n      iszero\n      dup1\n      iszero\n      tag_178\n      jumpi\n      returndatasize\n      0x00\n      dup1\n      returndatacopy\n      revert(0x00, returndatasize)\n    tag_178:\n      pop\n      pop\n      pop\n      pop\n      mload(0x40)\n      returndatasize\n      not(0x1f)\n      0x1f\n      dup3\n      add\n      and\n      dup3\n      add\n      dup1\n      0x40\n      mstore\n      pop\n      dup2\n      add\n      swap1\n      tag_179\n      swap2\n      swap1\n      tag_103\n      jump\t// in\n    tag_179:\n        /* \"TFGv3/Contracts/SCStorage.sol\":1425:1477  msg.sender == IProxy(proxyAddr).commissionContract() */\n      0xffffffffffffffffffffffffffffffffffffffff\n      and\n        /* \"TFGv3/Contracts/SCStorage.sol\":1425:1435  msg.sender */\n      caller\n        /* \"TFGv3/Contracts/SCStorage.sol\":1425:1477  msg.sender == IProxy(proxyAddr).commissionContract() */\n      0xffffffffffffffffffffffffffffffffffffffff\n      and\n      eq\n        /* \"TFGv3/Contracts/SCStorage.sol\":1371:1477  msg.sender == IProxy(proxyAddr).exchangeContract() || msg.sender == IProxy(proxyAddr).commissionContract() */\n    tag_176:\n        /* \"TFGv3/Contracts/SCStorage.sol\":1363:1478  require(msg.sender == IProxy(proxyAddr).exchangeContract() || msg.sender == IProxy(proxyAddr).commissionContract()) */\n      tag_180\n      jumpi\n      0x00\n      dup1\n      revert\n    tag_180:\n        /* \"TFGv3/Contracts/SCStorage.sol\":1488:1494  uint n */\n      0x00\n        /* \"TFGv3/Contracts/SCStorage.sol\":1497:1506  coinArray */\n      0x02\n        /* \"TFGv3/Contracts/SCStorage.sol\":1497:1513  coinArray.length */\n      dup1\n      sload\n      swap1\n      pop\n        /* \"TFGv3/Contracts/SCStorage.sol\":1488:1513  uint n = coinArray.length */\n      swap1\n      pop\n        /* \"TFGv3/Contracts/SCStorage.sol\":1536:1542  uint i */\n      0x00\n        /* \"TFGv3/Contracts/SCStorage.sol\":1532:1961  for(uint i = 0; i < n; i++)... */\n    tag_181:\n        /* \"TFGv3/Contracts/SCStorage.sol\":1552:1553  n */\n      dup2\n        /* \"TFGv3/Contracts/SCStorage.sol\":1548:1549  i */\n      dup2\n        /* \"TFGv3/Contracts/SCStorage.sol\":1548:1553  i < n */\n      lt\n        /* \"TFGv3/Contracts/SCStorage.sol\":1532:1961  for(uint i = 0; i < n; i++)... */\n      iszero\n      tag_182\n      jumpi\n        /* \"TFGv3/Contracts/SCStorage.sol\":1582:1598  address coinAddr */\n      0x00\n        /* \"TFGv3/Contracts/SCStorage.sol\":1601:1610  coinArray */\n      0x02\n        /* \"TFGv3/Contracts/SCStorage.sol\":1611:1612  i */\n      dup3\n        /* \"TFGv3/Contracts/SCStorage.sol\":1601:1613  coinArray[i] */\n      dup2\n      sload\n      dup2\n      lt\n      tag_184\n      jumpi\n      tag_185\n      tag_127\n      jump\t// in\n    tag_185:\n    tag_184:\n      swap1\n      0x00\n      mstore\n      keccak256(0x00, 0x20)\n      add\n      0x00\n      swap1\n      sload\n      swap1\n      0x0100\n      exp\n      swap1\n      div\n      0xffffffffffffffffffffffffffffffffffffffff\n      and\n        /* \"TFGv3/Contracts/SCStorage.sol\":1582:1613  address coinAddr = coinArray[i] */\n      swap1\n      pop\n        /* \"TFGv3/Contracts/SCStorage.sol\":1649:1650  2 */\n      0x02\n        /* \"TFGv3/Contracts/SCStorage.sol\":1630:1635  coins */\n      0x03\n        /* \"TFGv3/Contracts/SCStorage.sol\":1630:1645  coins[coinAddr] */\n      0x00\n        /* \"TFGv3/Contracts/SCStorage.sol\":1636:1644  coinAddr */\n      dup4\n        /* \"TFGv3/Contracts/SCStorage.sol\":1630:1645  coins[coinAddr] */\n      0xffffffffffffffffffffffffffffffffffffffff\n      and\n      0xffffffffffffffffffffffffffffffffffffffff\n      and\n      dup2\n      mstore\n      0x20\n      add\n      swap1\n      dup2\n      mstore\n      0x20\n      add\n      0x00\n      keccak256\n      sload\n        /* \"TFGv3/Contracts/SCStorage.sol\":1630:1650  coins[coinAddr] == 2 */\n      sub\n        /* \"TFGv3/Contracts/SCStorage.sol\":1627:1951  if(coins[coinAddr] == 2)... */\n      tag_187\n      jumpi\n        /* \"TFGv3/Contracts/SCStorage.sol\":1682:1696  uint8 decimals */\n      0x00\n        /* \"TFGv3/Contracts/SCStorage.sol\":1706:1714  coinAddr */\n      dup2\n        /* \"TFGv3/Contracts/SCStorage.sol\":1699:1724  IERC20(coinAddr).decimals */\n      0xffffffffffffffffffffffffffffffffffffffff\n      and\n      0x313ce567\n        /* \"TFGv3/Contracts/SCStorage.sol\":1699:1726  IERC20(coinAddr).decimals() */\n      mload(0x40)\n      dup2\n      0xffffffff\n      and\n      0xe0\n      shl\n      dup2\n      mstore\n      0x04\n      add\n      0x20\n      mload(0x40)\n      dup1\n      dup4\n      sub\n      dup2\n      dup7\n      gas\n      staticcall\n      iszero\n      dup1\n      iszero\n      tag_189\n      jumpi\n      returndatasize\n      0x00\n      dup1\n      returndatacopy\n      revert(0x00, returndatasize)\n    tag_189:\n      pop\n      pop\n      pop\n      pop\n      mload(0x40)\n      returndatasize\n      not(0x1f)\n      0x1f\n      dup3\n      add\n      and\n      dup3\n      add\n      dup1\n      0x40\n      mstore\n      pop\n      dup2\n      add\n      swap1\n      tag_190\n      swap2\n      swap1\n      tag_191\n      jump\t// in\n    tag_190:\n        /* \"TFGv3/Contracts/SCStorage.sol\":1682:1726  uint8 decimals = IERC20(coinAddr).decimals() */\n      swap1\n      pop\n        /* \"TFGv3/Contracts/SCStorage.sol\":1758:1760  18 */\n      0x12\n        /* \"TFGv3/Contracts/SCStorage.sol\":1747:1755  decimals */\n      dup2\n        /* \"TFGv3/Contracts/SCStorage.sol\":1747:1760  decimals < 18 */\n      0xff\n      and\n      lt\n        /* \"TFGv3/Contracts/SCStorage.sol\":1744:1936  if(decimals < 18) IERC20(coinAddr).transfer(to, totalToTransfer/nStable/10**(uint(decimals)-18));... */\n      iszero\n      tag_192\n      jumpi\n        /* \"TFGv3/Contracts/SCStorage.sol\":1769:1777  coinAddr */\n      dup2\n        /* \"TFGv3/Contracts/SCStorage.sol\":1762:1787  IERC20(coinAddr).transfer */\n      0xffffffffffffffffffffffffffffffffffffffff\n      and\n      0xa9059cbb\n        /* \"TFGv3/Contracts/SCStorage.sol\":1788:1790  to */\n      dup10\n        /* \"TFGv3/Contracts/SCStorage.sol\":1836:1838  18 */\n      0x12\n        /* \"TFGv3/Contracts/SCStorage.sol\":1826:1834  decimals */\n      dup5\n        /* \"TFGv3/Contracts/SCStorage.sol\":1821:1835  uint(decimals) */\n      0xff\n      and\n        /* \"TFGv3/Contracts/SCStorage.sol\":1821:1838  uint(decimals)-18 */\n      tag_193\n      swap2\n      swap1\n      tag_108\n      jump\t// in\n    tag_193:\n        /* \"TFGv3/Contracts/SCStorage.sol\":1816:1818  10 */\n      0x0a\n        /* \"TFGv3/Contracts/SCStorage.sol\":1816:1839  10**(uint(decimals)-18) */\n      tag_194\n      swap2\n      swap1\n      tag_195\n      jump\t// in\n    tag_194:\n        /* \"TFGv3/Contracts/SCStorage.sol\":1808:1815  nStable */\n      0x01\n      dup1\n      sload\n      swap1\n      0x0100\n      exp\n      swap1\n      div\n      0xff\n      and\n        /* \"TFGv3/Contracts/SCStorage.sol\":1792:1815  totalToTransfer/nStable */\n      0xff\n      and\n        /* \"TFGv3/Contracts/SCStorage.sol\":1792:1807  totalToTransfer */\n      dup12\n        /* \"TFGv3/Contracts/SCStorage.sol\":1792:1815  totalToTransfer/nStable */\n      tag_196\n      swap2\n      swap1\n      tag_197\n      jump\t// in\n    tag_196:\n        /* \"TFGv3/Contracts/SCStorage.sol\":1792:1839  totalToTransfer/nStable/10**(uint(decimals)-18) */\n      tag_198\n      swap2\n      swap1\n      tag_197\n      jump\t// in\n    tag_198:\n        /* \"TFGv3/Contracts/SCStorage.sol\":1762:1840  IERC20(coinAddr).transfer(to, totalToTransfer/nStable/10**(uint(decimals)-18)) */\n      mload(0x40)\n      dup4\n      0xffffffff\n      and\n      0xe0\n      shl\n      dup2\n      mstore\n      0x04\n      add\n      tag_199\n      swap3\n      swap2\n      swap1\n      tag_135\n      jump\t// in\n    tag_199:\n      0x20\n      mload(0x40)\n      dup1\n      dup4\n      sub\n      dup2\n      0x00\n      dup8\n      gas\n      call\n      iszero\n      dup1\n      iszero\n      tag_201\n      jumpi\n      returndatasize\n      0x00\n      dup1\n      returndatacopy\n      revert(0x00, returndatasize)\n    tag_201:\n      pop\n      pop\n      pop\n      pop\n      mload(0x40)\n      returndatasize\n      not(0x1f)\n      0x1f\n      dup3\n      add\n      and\n      dup3\n      add\n      dup1\n      0x40\n      mstore\n      pop\n      dup2\n      add\n      swap1\n      tag_202\n      swap2\n      swap1\n      tag_139\n      jump\t// in\n    tag_202:\n      pop\n        /* \"TFGv3/Contracts/SCStorage.sol\":1744:1936  if(decimals < 18) IERC20(coinAddr).transfer(to, totalToTransfer/nStable/10**(uint(decimals)-18));... */\n      jump(tag_203)\n    tag_192:\n        /* \"TFGv3/Contracts/SCStorage.sol\":1878:1880  18 */\n      0x12\n        /* \"TFGv3/Contracts/SCStorage.sol\":1866:1874  decimals */\n      dup2\n        /* \"TFGv3/Contracts/SCStorage.sol\":1866:1880  decimals == 18 */\n      0xff\n      and\n      sub\n        /* \"TFGv3/Contracts/SCStorage.sol\":1863:1936  if(decimals == 18) IERC20(coinAddr).transfer(to, totalToTransfer/nStable) */\n      tag_204\n      jumpi\n        /* \"TFGv3/Contracts/SCStorage.sol\":1889:1897  coinAddr */\n      dup2\n        /* \"TFGv3/Contracts/SCStorage.sol\":1882:1907  IERC20(coinAddr).transfer */\n      0xffffffffffffffffffffffffffffffffffffffff\n      and\n      0xa9059cbb\n        /* \"TFGv3/Contracts/SCStorage.sol\":1908:1910  to */\n      dup10\n        /* \"TFGv3/Contracts/SCStorage.sol\":1928:1935  nStable */\n      0x01\n      dup1\n      sload\n      swap1\n      0x0100\n      exp\n      swap1\n      div\n      0xff\n      and\n        /* \"TFGv3/Contracts/SCStorage.sol\":1912:1935  totalToTransfer/nStable */\n      0xff\n      and\n        /* \"TFGv3/Contracts/SCStorage.sol\":1912:1927  totalToTransfer */\n      dup11\n        /* \"TFGv3/Contracts/SCStorage.sol\":1912:1935  totalToTransfer/nStable */\n      tag_205\n      swap2\n      swap1\n      tag_197\n      jump\t// in\n    tag_205:\n        /* \"TFGv3/Contracts/SCStorage.sol\":1882:1936  IERC20(coinAddr).transfer(to, totalToTransfer/nStable) */\n      mload(0x40)\n      dup4\n      0xffffffff\n      and\n      0xe0\n      shl\n      dup2\n      mstore\n      0x04\n      add\n      tag_206\n      swap3\n      swap2\n      swap1\n      tag_135\n      jump\t// in\n    tag_206:\n      0x20\n      mload(0x40)\n      dup1\n      dup4\n      sub\n      dup2\n      0x00\n      dup8\n      gas\n      call\n      iszero\n      dup1\n      iszero\n      tag_208\n      jumpi\n      returndatasize\n      0x00\n      dup1\n      returndatacopy\n      revert(0x00, returndatasize)\n    tag_208:\n      pop\n      pop\n      pop\n      pop\n      mload(0x40)\n      returndatasize\n      not(0x1f)\n      0x1f\n      dup3\n      add\n      and\n      dup3\n      add\n      dup1\n      0x40\n      mstore\n      pop\n      dup2\n      add\n      swap1\n      tag_209\n      swap2\n      swap1\n      tag_139\n      jump\t// in\n    tag_209:\n      pop\n        /* \"TFGv3/Contracts/SCStorage.sol\":1863:1936  if(decimals == 18) IERC20(coinAddr).transfer(to, totalToTransfer/nStable) */\n    tag_204:\n        /* \"TFGv3/Contracts/SCStorage.sol\":1744:1936  if(decimals < 18) IERC20(coinAddr).transfer(to, totalToTransfer/nStable/10**(uint(decimals)-18));... */\n    tag_203:\n        /* \"TFGv3/Contracts/SCStorage.sol\":1664:1951  {... */\n      pop\n        /* \"TFGv3/Contracts/SCStorage.sol\":1627:1951  if(coins[coinAddr] == 2)... */\n    tag_187:\n        /* \"TFGv3/Contracts/SCStorage.sol\":1568:1961  {... */\n      pop\n        /* \"TFGv3/Contracts/SCStorage.sol\":1555:1558  i++ */\n      dup1\n      dup1\n      tag_210\n      swap1\n      tag_141\n      jump\t// in\n    tag_210:\n      swap2\n      pop\n      pop\n        /* \"TFGv3/Contracts/SCStorage.sol\":1532:1961  for(uint i = 0; i < n; i++)... */\n      jump(tag_181)\n    tag_182:\n      pop\n        /* \"TFGv3/Contracts/SCStorage.sol\":1977:1981  true */\n      0x01\n        /* \"TFGv3/Contracts/SCStorage.sol\":1970:1981  return true */\n      swap3\n      pop\n      pop\n      pop\n        /* \"TFGv3/Contracts/SCStorage.sol\":1216:1988  function transferFunds(address to, uint totalToTransfer) external virtual override returns (bool)... */\n      swap3\n      swap2\n      pop\n      pop\n      jump\t// out\n        /* \"TFGv3/Contracts/SCStorage.sol\":4179:4317  function updateProxy(address newAddr) external virtual override... */\n    tag_71:\n        /* \"TFGv3/Contracts/SCStorage.sol\":4279:4284  proxy */\n      0x01\n      0x02\n      swap1\n      sload\n      swap1\n      0x0100\n      exp\n      swap1\n      div\n      0xffffffffffffffffffffffffffffffffffffffff\n      and\n        /* \"TFGv3/Contracts/SCStorage.sol\":4265:4284  msg.sender == proxy */\n      0xffffffffffffffffffffffffffffffffffffffff\n      and\n        /* \"TFGv3/Contracts/SCStorage.sol\":4265:4275  msg.sender */\n      caller\n        /* \"TFGv3/Contracts/SCStorage.sol\":4265:4284  msg.sender == proxy */\n      0xffffffffffffffffffffffffffffffffffffffff\n      and\n      eq\n        /* \"TFGv3/Contracts/SCStorage.sol\":4257:4285  require(msg.sender == proxy) */\n      tag_212\n      jumpi\n      0x00\n      dup1\n      revert\n    tag_212:\n        /* \"TFGv3/Contracts/SCStorage.sol\":4303:4310  newAddr */\n      dup1\n        /* \"TFGv3/Contracts/SCStorage.sol\":4295:4300  proxy */\n      0x01\n      0x02\n        /* \"TFGv3/Contracts/SCStorage.sol\":4295:4310  proxy = newAddr */\n      0x0100\n      exp\n      dup2\n      sload\n      dup2\n      0xffffffffffffffffffffffffffffffffffffffff\n      mul\n      not\n      and\n      swap1\n      dup4\n      0xffffffffffffffffffffffffffffffffffffffff\n      and\n      mul\n      or\n      swap1\n      sstore\n      pop\n        /* \"TFGv3/Contracts/SCStorage.sol\":4179:4317  function updateProxy(address newAddr) external virtual override... */\n      pop\n      jump\t// out\n        /* \"TFGv3/Contracts/SCStorage.sol\":3438:3704  function addCoin(address coinAddr, uint stable) external  OnlyDeployer... */\n    tag_75:\n        /* \"TFGv3/Contracts/SCStorage.sol\":731:739  deployer */\n      immutable(\"0xcdf1dd2e8742ccca482be714f2ab38acb16e66300c9790cd19a8abbcdf150d1c\")\n        /* \"TFGv3/Contracts/SCStorage.sol\":717:739  msg.sender == deployer */\n      0xffffffffffffffffffffffffffffffffffffffff\n      and\n        /* \"TFGv3/Contracts/SCStorage.sol\":717:727  msg.sender */\n      caller\n        /* \"TFGv3/Contracts/SCStorage.sol\":717:739  msg.sender == deployer */\n      0xffffffffffffffffffffffffffffffffffffffff\n      and\n      eq\n        /* \"TFGv3/Contracts/SCStorage.sol\":709:740  require(msg.sender == deployer) */\n      tag_214\n      jumpi\n      0x00\n      dup1\n      revert\n    tag_214:\n        /* \"TFGv3/Contracts/SCStorage.sol\":3536:3537  0 */\n      0x00\n        /* \"TFGv3/Contracts/SCStorage.sol\":3526:3532  stable */\n      dup2\n        /* \"TFGv3/Contracts/SCStorage.sol\":3526:3537  stable == 0 */\n      sub\n        /* \"TFGv3/Contracts/SCStorage.sol\":3523:3664  if(stable == 0) coins[coinAddr] = 1;... */\n      tag_216\n      jumpi\n        /* \"TFGv3/Contracts/SCStorage.sol\":3557:3558  1 */\n      0x01\n        /* \"TFGv3/Contracts/SCStorage.sol\":3539:3544  coins */\n      0x03\n        /* \"TFGv3/Contracts/SCStorage.sol\":3539:3554  coins[coinAddr] */\n      0x00\n        /* \"TFGv3/Contracts/SCStorage.sol\":3545:3553  coinAddr */\n      dup5\n        /* \"TFGv3/Contracts/SCStorage.sol\":3539:3554  coins[coinAddr] */\n      0xffffffffffffffffffffffffffffffffffffffff\n      and\n      0xffffffffffffffffffffffffffffffffffffffff\n      and\n      dup2\n      mstore\n      0x20\n      add\n      swap1\n      dup2\n      mstore\n      0x20\n      add\n      0x00\n      keccak256\n        /* \"TFGv3/Contracts/SCStorage.sol\":3539:3558  coins[coinAddr] = 1 */\n      dup2\n      swap1\n      sstore\n      pop\n        /* \"TFGv3/Contracts/SCStorage.sol\":3523:3664  if(stable == 0) coins[coinAddr] = 1;... */\n      jump(tag_217)\n    tag_216:\n        /* \"TFGv3/Contracts/SCStorage.sol\":3586:3587  1 */\n      0x01\n        /* \"TFGv3/Contracts/SCStorage.sol\":3576:3582  stable */\n      dup2\n        /* \"TFGv3/Contracts/SCStorage.sol\":3576:3587  stable == 1 */\n      sub\n        /* \"TFGv3/Contracts/SCStorage.sol\":3573:3664  if(stable == 1)... */\n      tag_218\n      jumpi\n        /* \"TFGv3/Contracts/SCStorage.sol\":3629:3630  2 */\n      0x02\n        /* \"TFGv3/Contracts/SCStorage.sol\":3611:3616  coins */\n      0x03\n        /* \"TFGv3/Contracts/SCStorage.sol\":3611:3626  coins[coinAddr] */\n      0x00\n        /* \"TFGv3/Contracts/SCStorage.sol\":3617:3625  coinAddr */\n      dup5\n        /* \"TFGv3/Contracts/SCStorage.sol\":3611:3626  coins[coinAddr] */\n      0xffffffffffffffffffffffffffffffffffffffff\n      and\n      0xffffffffffffffffffffffffffffffffffffffff\n      and\n      dup2\n      mstore\n      0x20\n      add\n      swap1\n      dup2\n      mstore\n      0x20\n      add\n      0x00\n      keccak256\n        /* \"TFGv3/Contracts/SCStorage.sol\":3611:3630  coins[coinAddr] = 2 */\n      dup2\n      swap1\n      sstore\n      pop\n        /* \"TFGv3/Contracts/SCStorage.sol\":3644:3651  nStable */\n      0x01\n      dup1\n        /* \"TFGv3/Contracts/SCStorage.sol\":3644:3653  nStable++ */\n      dup2\n      dup2\n      swap1\n      sload\n      swap1\n      0x0100\n      exp\n      swap1\n      div\n      0xff\n      and\n      dup1\n      swap3\n      swap2\n      swap1\n      tag_219\n      swap1\n      tag_220\n      jump\t// in\n    tag_219:\n      swap2\n      swap1\n      0x0100\n      exp\n      dup2\n      sload\n      dup2\n      0xff\n      mul\n      not\n      and\n      swap1\n      dup4\n      0xff\n      and\n      mul\n      or\n      swap1\n      sstore\n      pop\n      pop\n        /* \"TFGv3/Contracts/SCStorage.sol\":3573:3664  if(stable == 1)... */\n    tag_218:\n        /* \"TFGv3/Contracts/SCStorage.sol\":3523:3664  if(stable == 0) coins[coinAddr] = 1;... */\n    tag_217:\n        /* \"TFGv3/Contracts/SCStorage.sol\":3673:3682  coinArray */\n      0x02\n        /* \"TFGv3/Contracts/SCStorage.sol\":3688:3696  coinAddr */\n      dup3\n        /* \"TFGv3/Contracts/SCStorage.sol\":3673:3697  coinArray.push(coinAddr) */\n      swap1\n      dup1\n      0x01\n      dup2\n      sload\n      add\n      dup1\n      dup3\n      sstore\n      dup1\n      swap2\n      pop\n      pop\n      0x01\n      swap1\n      sub\n      swap1\n      0x00\n      mstore\n      keccak256(0x00, 0x20)\n      add\n      0x00\n      swap1\n      swap2\n      swap1\n      swap2\n      swap1\n      swap2\n      0x0100\n      exp\n      dup2\n      sload\n      dup2\n      0xffffffffffffffffffffffffffffffffffffffff\n      mul\n      not\n      and\n      swap1\n      dup4\n      0xffffffffffffffffffffffffffffffffffffffff\n      and\n      mul\n      or\n      swap1\n      sstore\n      pop\n        /* \"TFGv3/Contracts/SCStorage.sol\":3438:3704  function addCoin(address coinAddr, uint stable) external  OnlyDeployer... */\n      pop\n      pop\n      jump\t// out\n        /* \"TFGv3/Contracts/SCStorage.sol\":843:974  function initContract(address proxyAddr) external OnlyDeployer NonInit... */\n    tag_79:\n        /* \"TFGv3/Contracts/SCStorage.sol\":731:739  deployer */\n      immutable(\"0xcdf1dd2e8742ccca482be714f2ab38acb16e66300c9790cd19a8abbcdf150d1c\")\n        /* \"TFGv3/Contracts/SCStorage.sol\":717:739  msg.sender == deployer */\n      0xffffffffffffffffffffffffffffffffffffffff\n      and\n        /* \"TFGv3/Contracts/SCStorage.sol\":717:727  msg.sender */\n      caller\n        /* \"TFGv3/Contracts/SCStorage.sol\":717:739  msg.sender == deployer */\n      0xffffffffffffffffffffffffffffffffffffffff\n      and\n      eq\n        /* \"TFGv3/Contracts/SCStorage.sol\":709:740  require(msg.sender == deployer) */\n      tag_223\n      jumpi\n      0x00\n      dup1\n      revert\n    tag_223:\n        /* \"TFGv3/Contracts/SCStorage.sol\":817:818  0 */\n      0x00\n        /* \"TFGv3/Contracts/SCStorage.sol\":805:813  initDone */\n      0x01\n      0x00\n      swap1\n      sload\n      swap1\n      0x0100\n      exp\n      swap1\n      div\n      0xff\n      and\n        /* \"TFGv3/Contracts/SCStorage.sol\":805:818  initDone == 0 */\n      0xff\n      and\n      eq\n        /* \"TFGv3/Contracts/SCStorage.sol\":797:819  require(initDone == 0) */\n      tag_225\n      jumpi\n      0x00\n      dup1\n      revert\n    tag_225:\n        /* \"TFGv3/Contracts/SCStorage.sol\":936:945  proxyAddr */\n      dup1\n        /* \"TFGv3/Contracts/SCStorage.sol\":928:933  proxy */\n      0x01\n      0x02\n        /* \"TFGv3/Contracts/SCStorage.sol\":928:945  proxy = proxyAddr */\n      0x0100\n      exp\n      dup2\n      sload\n      dup2\n      0xffffffffffffffffffffffffffffffffffffffff\n      mul\n      not\n      and\n      swap1\n      dup4\n      0xffffffffffffffffffffffffffffffffffffffff\n      and\n      mul\n      or\n      swap1\n      sstore\n      pop\n        /* \"TFGv3/Contracts/SCStorage.sol\":966:967  1 */\n      0x01\n        /* \"TFGv3/Contracts/SCStorage.sol\":955:963  initDone */\n      dup1\n      0x00\n        /* \"TFGv3/Contracts/SCStorage.sol\":955:967  initDone = 1 */\n      0x0100\n      exp\n      dup2\n      sload\n      dup2\n      0xff\n      mul\n      not\n      and\n      swap1\n      dup4\n      0xff\n      and\n      mul\n      or\n      swap1\n      sstore\n      pop\n        /* \"TFGv3/Contracts/SCStorage.sol\":843:974  function initContract(address proxyAddr) external OnlyDeployer NonInit... */\n      pop\n      jump\t// out\n        /* \"TFGv3/Contracts/SCStorage.sol\":484:527  mapping (address => address) public quoteIn */\n    tag_83:\n      mstore(0x20, 0x05)\n      dup1\n      0x00\n      mstore\n      keccak256(0x00, 0x40)\n      0x00\n      swap2\n      pop\n      sload\n      swap1\n      0x0100\n      exp\n      swap1\n      div\n      0xffffffffffffffffffffffffffffffffffffffff\n      and\n      dup2\n      jump\t// out\n        /* \"TFGv3/Contracts/SCStorage.sol\":1998:2528  function oracleNAV() external view returns (uint, uint)... */\n    tag_87:\n        /* \"TFGv3/Contracts/SCStorage.sol\":2042:2046  uint */\n      0x00\n        /* \"TFGv3/Contracts/SCStorage.sol\":2048:2052  uint */\n      dup1\n        /* \"TFGv3/Contracts/SCStorage.sol\":2297:2313  uint lastUpdated */\n      0x00\n        /* \"TFGv3/Contracts/SCStorage.sol\":2337:2342  proxy */\n      0x01\n      0x02\n      swap1\n      sload\n      swap1\n      0x0100\n      exp\n      swap1\n      div\n      0xffffffffffffffffffffffffffffffffffffffff\n      and\n        /* \"TFGv3/Contracts/SCStorage.sol\":2330:2362  IProxy(proxy).commissionContract */\n      0xffffffffffffffffffffffffffffffffffffffff\n      and\n      0xda8909e5\n        /* \"TFGv3/Contracts/SCStorage.sol\":2330:2364  IProxy(proxy).commissionContract() */\n      mload(0x40)\n      dup2\n      0xffffffff\n      and\n      0xe0\n      shl\n      dup2\n      mstore\n      0x04\n      add\n      0x20\n      mload(0x40)\n      dup1\n      dup4\n      sub\n      dup2\n      dup7\n      gas\n      staticcall\n      iszero\n      dup1\n      iszero\n      tag_229\n      jumpi\n      returndatasize\n      0x00\n      dup1\n      returndatacopy\n      revert(0x00, returndatasize)\n    tag_229:\n      pop\n      pop\n      pop\n      pop\n      mload(0x40)\n      returndatasize\n      not(0x1f)\n      0x1f\n      dup3\n      add\n      and\n      dup3\n      add\n      dup1\n      0x40\n      mstore\n      pop\n      dup2\n      add\n      swap1\n      tag_230\n      swap2\n      swap1\n      tag_103\n      jump\t// in\n    tag_230:\n        /* \"TFGv3/Contracts/SCStorage.sol\":2316:2377  ISCCommission(IProxy(proxy).commissionContract()).lastUpdated */\n      0xffffffffffffffffffffffffffffffffffffffff\n      and\n      0xd0b06f5d\n        /* \"TFGv3/Contracts/SCStorage.sol\":2316:2379  ISCCommission(IProxy(proxy).commissionContract()).lastUpdated() */\n      mload(0x40)\n      dup2\n      0xffffffff\n      and\n      0xe0\n      shl\n      dup2\n      mstore\n      0x04\n      add\n      0x20\n      mload(0x40)\n      dup1\n      dup4\n      sub\n      dup2\n      dup7\n      gas\n      staticcall\n      iszero\n      dup1\n      iszero\n      tag_232\n      jumpi\n      returndatasize\n      0x00\n      dup1\n      returndatacopy\n      revert(0x00, returndatasize)\n    tag_232:\n      pop\n      pop\n      pop\n      pop\n      mload(0x40)\n      returndatasize\n      not(0x1f)\n      0x1f\n      dup3\n      add\n      and\n      dup3\n      add\n      dup1\n      0x40\n      mstore\n      pop\n      dup2\n      add\n      swap1\n      tag_233\n      swap2\n      swap1\n      tag_133\n      jump\t// in\n    tag_233:\n        /* \"TFGv3/Contracts/SCStorage.sol\":2297:2379  uint lastUpdated = ISCCommission(IProxy(proxy).commissionContract()).lastUpdated() */\n      swap1\n      pop\n        /* \"TFGv3/Contracts/SCStorage.sol\":2389:2398  uint acum */\n      0x00\n        /* \"TFGv3/Contracts/SCStorage.sol\":2422:2427  proxy */\n      0x01\n      0x02\n      swap1\n      sload\n      swap1\n      0x0100\n      exp\n      swap1\n      div\n      0xffffffffffffffffffffffffffffffffffffffff\n      and\n        /* \"TFGv3/Contracts/SCStorage.sol\":2415:2447  IProxy(proxy).commissionContract */\n      0xffffffffffffffffffffffffffffffffffffffff\n      and\n      0xda8909e5\n        /* \"TFGv3/Contracts/SCStorage.sol\":2415:2449  IProxy(proxy).commissionContract() */\n      mload(0x40)\n      dup2\n      0xffffffff\n      and\n      0xe0\n      shl\n      dup2\n      mstore\n      0x04\n      add\n      0x20\n      mload(0x40)\n      dup1\n      dup4\n      sub\n      dup2\n      dup7\n      gas\n      staticcall\n      iszero\n      dup1\n      iszero\n      tag_235\n      jumpi\n      returndatasize\n      0x00\n      dup1\n      returndatacopy\n      revert(0x00, returndatasize)\n    tag_235:\n      pop\n      pop\n      pop\n      pop\n      mload(0x40)\n      returndatasize\n      not(0x1f)\n      0x1f\n      dup3\n      add\n      and\n      dup3\n      add\n      dup1\n      0x40\n      mstore\n      pop\n      dup2\n      add\n      swap1\n      tag_236\n      swap2\n      swap1\n      tag_103\n      jump\t// in\n    tag_236:\n        /* \"TFGv3/Contracts/SCStorage.sol\":2401:2466  ISCCommission(IProxy(proxy).commissionContract()).accumCommission */\n      0xffffffffffffffffffffffffffffffffffffffff\n      and\n      0x7f8483a4\n        /* \"TFGv3/Contracts/SCStorage.sol\":2401:2468  ISCCommission(IProxy(proxy).commissionContract()).accumCommission() */\n      mload(0x40)\n      dup2\n      0xffffffff\n      and\n      0xe0\n      shl\n      dup2\n      mstore\n      0x04\n      add\n      0x20\n      mload(0x40)\n      dup1\n      dup4\n      sub\n      dup2\n      dup7\n      gas\n      staticcall\n      iszero\n      dup1\n      iszero\n      tag_238\n      jumpi\n      returndatasize\n      0x00\n      dup1\n      returndatacopy\n      revert(0x00, returndatasize)\n    tag_238:\n      pop\n      pop\n      pop\n      pop\n      mload(0x40)\n      returndatasize\n      not(0x1f)\n      0x1f\n      dup3\n      add\n      and\n      dup3\n      add\n      dup1\n      0x40\n      mstore\n      pop\n      dup2\n      add\n      swap1\n      tag_239\n      swap2\n      swap1\n      tag_133\n      jump\t// in\n    tag_239:\n        /* \"TFGv3/Contracts/SCStorage.sol\":2389:2468  uint acum = ISCCommission(IProxy(proxy).commissionContract()).accumCommission() */\n      swap1\n      pop\n        /* \"TFGv3/Contracts/SCStorage.sol\":2503:2507  acum */\n      dup1\n        /* \"TFGv3/Contracts/SCStorage.sol\":2486:2500  calculateNAV() */\n      tag_240\n        /* \"TFGv3/Contracts/SCStorage.sol\":2486:2498  calculateNAV */\n      tag_106\n        /* \"TFGv3/Contracts/SCStorage.sol\":2486:2500  calculateNAV() */\n      jump\t// in\n    tag_240:\n        /* \"TFGv3/Contracts/SCStorage.sol\":2486:2507  calculateNAV() - acum */\n      tag_241\n      swap2\n      swap1\n      tag_108\n      jump\t// in\n    tag_241:\n        /* \"TFGv3/Contracts/SCStorage.sol\":2509:2520  lastUpdated */\n      dup3\n        /* \"TFGv3/Contracts/SCStorage.sol\":2478:2521  return (calculateNAV() - acum, lastUpdated) */\n      swap4\n      pop\n      swap4\n      pop\n      pop\n      pop\n        /* \"TFGv3/Contracts/SCStorage.sol\":1998:2528  function oracleNAV() external view returns (uint, uint)... */\n      swap1\n      swap2\n      jump\t// out\n        /* \"TFGv3/Contracts/SCStorage.sol\":284:304  address public proxy */\n    tag_92:\n      0x01\n      0x02\n      swap1\n      sload\n      swap1\n      0x0100\n      exp\n      swap1\n      div\n      0xffffffffffffffffffffffffffffffffffffffff\n      and\n      dup2\n      jump\t// out\n        /* \"TFGv3/Contracts/SCStorage.sol\":236:257  uint8 public initDone */\n    tag_96:\n      0x01\n      0x00\n      swap1\n      sload\n      swap1\n      0x0100\n      exp\n      swap1\n      div\n      0xff\n      and\n      dup2\n      jump\t// out\n        /* \"TFGv3/Contracts/SCStorage.sol\":2538:3428  function calculateNAV() internal view returns (uint newNAV)... */\n    tag_106:\n        /* \"TFGv3/Contracts/SCStorage.sol\":2585:2596  uint newNAV */\n      0x00\n        /* \"TFGv3/Contracts/SCStorage.sol\":2742:2748  uint n */\n      dup1\n        /* \"TFGv3/Contracts/SCStorage.sol\":2751:2760  coinArray */\n      0x02\n        /* \"TFGv3/Contracts/SCStorage.sol\":2751:2767  coinArray.length */\n      dup1\n      sload\n      swap1\n      pop\n        /* \"TFGv3/Contracts/SCStorage.sol\":2742:2767  uint n = coinArray.length */\n      swap1\n      pop\n        /* \"TFGv3/Contracts/SCStorage.sol\":2781:2787  uint i */\n      0x00\n        /* \"TFGv3/Contracts/SCStorage.sol\":2777:3422  for(uint i = 0; i < n; i++)... */\n    tag_243:\n        /* \"TFGv3/Contracts/SCStorage.sol\":2797:2798  n */\n      dup2\n        /* \"TFGv3/Contracts/SCStorage.sol\":2793:2794  i */\n      dup2\n        /* \"TFGv3/Contracts/SCStorage.sol\":2793:2798  i < n */\n      lt\n        /* \"TFGv3/Contracts/SCStorage.sol\":2777:3422  for(uint i = 0; i < n; i++)... */\n      iszero\n      tag_244\n      jumpi\n        /* \"TFGv3/Contracts/SCStorage.sol\":2827:2839  address coin */\n      0x00\n        /* \"TFGv3/Contracts/SCStorage.sol\":2842:2851  coinArray */\n      0x02\n        /* \"TFGv3/Contracts/SCStorage.sol\":2852:2853  i */\n      dup3\n        /* \"TFGv3/Contracts/SCStorage.sol\":2842:2854  coinArray[i] */\n      dup2\n      sload\n      dup2\n      lt\n      tag_246\n      jumpi\n      tag_247\n      tag_127\n      jump\t// in\n    tag_247:\n    tag_246:\n      swap1\n      0x00\n      mstore\n      keccak256(0x00, 0x20)\n      add\n      0x00\n      swap1\n      sload\n      swap1\n      0x0100\n      exp\n      swap1\n      div\n      0xffffffffffffffffffffffffffffffffffffffff\n      and\n        /* \"TFGv3/Contracts/SCStorage.sol\":2827:2854  address coin = coinArray[i] */\n      swap1\n      pop\n        /* \"TFGv3/Contracts/SCStorage.sol\":2868:2880  uint balance */\n      0x00\n        /* \"TFGv3/Contracts/SCStorage.sol\":2890:2894  coin */\n      dup2\n        /* \"TFGv3/Contracts/SCStorage.sol\":2883:2905  IERC20(coin).balanceOf */\n      0xffffffffffffffffffffffffffffffffffffffff\n      and\n      0x70a08231\n        /* \"TFGv3/Contracts/SCStorage.sol\":2914:2918  this */\n      address\n        /* \"TFGv3/Contracts/SCStorage.sol\":2883:2920  IERC20(coin).balanceOf(address(this)) */\n      mload(0x40)\n      dup3\n      0xffffffff\n      and\n      0xe0\n      shl\n      dup2\n      mstore\n      0x04\n      add\n      tag_249\n      swap2\n      swap1\n      tag_38\n      jump\t// in\n    tag_249:\n      0x20\n      mload(0x40)\n      dup1\n      dup4\n      sub\n      dup2\n      dup7\n      gas\n      staticcall\n      iszero\n      dup1\n      iszero\n      tag_251\n      jumpi\n      returndatasize\n      0x00\n      dup1\n      returndatacopy\n      revert(0x00, returndatasize)\n    tag_251:\n      pop\n      pop\n      pop\n      pop\n      mload(0x40)\n      returndatasize\n      not(0x1f)\n      0x1f\n      dup3\n      add\n      and\n      dup3\n      add\n      dup1\n      0x40\n      mstore\n      pop\n      dup2\n      add\n      swap1\n      tag_252\n      swap2\n      swap1\n      tag_133\n      jump\t// in\n    tag_252:\n        /* \"TFGv3/Contracts/SCStorage.sol\":2868:2920  uint balance = IERC20(coin).balanceOf(address(this)) */\n      swap1\n      pop\n        /* \"TFGv3/Contracts/SCStorage.sol\":2934:2945  uint stable */\n      0x00\n        /* \"TFGv3/Contracts/SCStorage.sol\":2948:2953  coins */\n      0x03\n        /* \"TFGv3/Contracts/SCStorage.sol\":2948:2959  coins[coin] */\n      0x00\n        /* \"TFGv3/Contracts/SCStorage.sol\":2954:2958  coin */\n      dup5\n        /* \"TFGv3/Contracts/SCStorage.sol\":2948:2959  coins[coin] */\n      0xffffffffffffffffffffffffffffffffffffffff\n      and\n      0xffffffffffffffffffffffffffffffffffffffff\n      and\n      dup2\n      mstore\n      0x20\n      add\n      swap1\n      dup2\n      mstore\n      0x20\n      add\n      0x00\n      keccak256\n      sload\n        /* \"TFGv3/Contracts/SCStorage.sol\":2934:2959  uint stable = coins[coin] */\n      swap1\n      pop\n        /* \"TFGv3/Contracts/SCStorage.sol\":2999:3000  1 */\n      0x01\n        /* \"TFGv3/Contracts/SCStorage.sol\":2989:2995  stable */\n      dup2\n        /* \"TFGv3/Contracts/SCStorage.sol\":2989:3000  stable == 1 */\n      sub\n        /* \"TFGv3/Contracts/SCStorage.sol\":2986:3411  if(stable == 1)... */\n      tag_253\n      jumpi\n        /* \"TFGv3/Contracts/SCStorage.sol\":3032:3042  uint quote */\n      0x00\n        /* \"TFGv3/Contracts/SCStorage.sol\":3092:3116  int24 arithmeticMeanTick */\n      dup1\n        /* \"TFGv3/Contracts/SCStorage.sol\":3121:3167  OracleLibrary.consult(coinOracleAddr[coin], 0) */\n      tag_254\n        /* \"TFGv3/Contracts/SCStorage.sol\":3143:3157  coinOracleAddr */\n      0x04\n        /* \"TFGv3/Contracts/SCStorage.sol\":3143:3163  coinOracleAddr[coin] */\n      0x00\n        /* \"TFGv3/Contracts/SCStorage.sol\":3158:3162  coin */\n      dup8\n        /* \"TFGv3/Contracts/SCStorage.sol\":3143:3163  coinOracleAddr[coin] */\n      0xffffffffffffffffffffffffffffffffffffffff\n      and\n      0xffffffffffffffffffffffffffffffffffffffff\n      and\n      dup2\n      mstore\n      0x20\n      add\n      swap1\n      dup2\n      mstore\n      0x20\n      add\n      0x00\n      keccak256\n      0x00\n      swap1\n      sload\n      swap1\n      0x0100\n      exp\n      swap1\n      div\n      0xffffffffffffffffffffffffffffffffffffffff\n      and\n        /* \"TFGv3/Contracts/SCStorage.sol\":3165:3166  0 */\n      0x00\n        /* \"TFGv3/Contracts/SCStorage.sol\":3121:3142  OracleLibrary.consult */\n      tag_255\n        /* \"TFGv3/Contracts/SCStorage.sol\":3121:3167  OracleLibrary.consult(coinOracleAddr[coin], 0) */\n      jump\t// in\n    tag_254:\n        /* \"TFGv3/Contracts/SCStorage.sol\":3091:3167  (int24 arithmeticMeanTick,) = OracleLibrary.consult(coinOracleAddr[coin], 0) */\n      pop\n      swap1\n      pop\n        /* \"TFGv3/Contracts/SCStorage.sol\":3197:3284  OracleLibrary.getQuoteAtTick(arithmeticMeanTick, uint128(balance), coin, quoteIn[coin]) */\n      tag_256\n        /* \"TFGv3/Contracts/SCStorage.sol\":3226:3244  arithmeticMeanTick */\n      dup2\n        /* \"TFGv3/Contracts/SCStorage.sol\":3254:3261  balance */\n      dup6\n        /* \"TFGv3/Contracts/SCStorage.sol\":3264:3268  coin */\n      dup8\n        /* \"TFGv3/Contracts/SCStorage.sol\":3270:3277  quoteIn */\n      0x05\n        /* \"TFGv3/Contracts/SCStorage.sol\":3270:3283  quoteIn[coin] */\n      0x00\n        /* \"TFGv3/Contracts/SCStorage.sol\":3278:3282  coin */\n      dup11\n        /* \"TFGv3/Contracts/SCStorage.sol\":3270:3283  quoteIn[coin] */\n      0xffffffffffffffffffffffffffffffffffffffff\n      and\n      0xffffffffffffffffffffffffffffffffffffffff\n      and\n      dup2\n      mstore\n      0x20\n      add\n      swap1\n      dup2\n      mstore\n      0x20\n      add\n      0x00\n      keccak256\n      0x00\n      swap1\n      sload\n      swap1\n      0x0100\n      exp\n      swap1\n      div\n      0xffffffffffffffffffffffffffffffffffffffff\n      and\n        /* \"TFGv3/Contracts/SCStorage.sol\":3197:3225  OracleLibrary.getQuoteAtTick */\n      tag_257\n        /* \"TFGv3/Contracts/SCStorage.sol\":3197:3284  OracleLibrary.getQuoteAtTick(arithmeticMeanTick, uint128(balance), coin, quoteIn[coin]) */\n      jump\t// in\n    tag_256:\n        /* \"TFGv3/Contracts/SCStorage.sol\":3189:3284  quote = OracleLibrary.getQuoteAtTick(arithmeticMeanTick, uint128(balance), coin, quoteIn[coin]) */\n      swap2\n      pop\n        /* \"TFGv3/Contracts/SCStorage.sol\":3060:3303  unchecked{... */\n      pop\n        /* \"TFGv3/Contracts/SCStorage.sol\":3340:3345  quote */\n      dup1\n        /* \"TFGv3/Contracts/SCStorage.sol\":3330:3337  balance */\n      dup4\n        /* \"TFGv3/Contracts/SCStorage.sol\":3330:3345  balance * quote */\n      tag_258\n      swap2\n      swap1\n      tag_259\n      jump\t// in\n    tag_258:\n        /* \"TFGv3/Contracts/SCStorage.sol\":3320:3345  newNAV += balance * quote */\n      dup8\n      tag_260\n      swap2\n      swap1\n      tag_261\n      jump\t// in\n    tag_260:\n      swap7\n      pop\n        /* \"TFGv3/Contracts/SCStorage.sol\":3014:3360  {... */\n      pop\n        /* \"TFGv3/Contracts/SCStorage.sol\":2986:3411  if(stable == 1)... */\n      jump(tag_262)\n    tag_253:\n        /* \"TFGv3/Contracts/SCStorage.sol\":3391:3392  2 */\n      0x02\n        /* \"TFGv3/Contracts/SCStorage.sol\":3381:3387  stable */\n      dup2\n        /* \"TFGv3/Contracts/SCStorage.sol\":3381:3392  stable == 2 */\n      sub\n        /* \"TFGv3/Contracts/SCStorage.sol\":3378:3411  if(stable == 2) newNAV += balance */\n      tag_263\n      jumpi\n        /* \"TFGv3/Contracts/SCStorage.sol\":3404:3411  balance */\n      dup2\n        /* \"TFGv3/Contracts/SCStorage.sol\":3394:3411  newNAV += balance */\n      dup7\n      tag_264\n      swap2\n      swap1\n      tag_261\n      jump\t// in\n    tag_264:\n      swap6\n      pop\n        /* \"TFGv3/Contracts/SCStorage.sol\":3378:3411  if(stable == 2) newNAV += balance */\n    tag_263:\n        /* \"TFGv3/Contracts/SCStorage.sol\":2986:3411  if(stable == 1)... */\n    tag_262:\n        /* \"TFGv3/Contracts/SCStorage.sol\":2813:3422  {... */\n      pop\n      pop\n      pop\n        /* \"TFGv3/Contracts/SCStorage.sol\":2800:2803  i++ */\n      dup1\n      dup1\n      tag_265\n      swap1\n      tag_141\n      jump\t// in\n    tag_265:\n      swap2\n      pop\n      pop\n        /* \"TFGv3/Contracts/SCStorage.sol\":2777:3422  for(uint i = 0; i < n; i++)... */\n      jump(tag_243)\n    tag_244:\n      pop\n        /* \"TFGv3/Contracts/SCStorage.sol\":2602:3428  {... */\n      pop\n        /* \"TFGv3/Contracts/SCStorage.sol\":2538:3428  function calculateNAV() internal view returns (uint newNAV)... */\n      swap1\n      jump\t// out\n        /* \"TFGv3/Contracts/libraries/OracleLibrary.sol\":808:2049  function consult(address pool, uint32 secondsAgo)... */\n    tag_255:\n        /* \"TFGv3/Contracts/libraries/OracleLibrary.sol\":905:929  int24 arithmeticMeanTick */\n      0x00\n        /* \"TFGv3/Contracts/libraries/OracleLibrary.sol\":931:960  uint128 harmonicMeanLiquidity */\n      dup1\n        /* \"TFGv3/Contracts/libraries/OracleLibrary.sol\":998:999  0 */\n      0x00\n        /* \"TFGv3/Contracts/libraries/OracleLibrary.sol\":984:994  secondsAgo */\n      dup4\n        /* \"TFGv3/Contracts/libraries/OracleLibrary.sol\":984:999  secondsAgo != 0 */\n      0xffffffff\n      and\n      sub\n        /* \"TFGv3/Contracts/libraries/OracleLibrary.sol\":976:1006  require(secondsAgo != 0, 'BP') */\n      tag_267\n      jumpi\n      mload(0x40)\n      0x08c379a000000000000000000000000000000000000000000000000000000000\n      dup2\n      mstore\n      0x04\n      add\n      tag_268\n      swap1\n      tag_269\n      jump\t// in\n    tag_268:\n      mload(0x40)\n      dup1\n      swap2\n      sub\n      swap1\n      revert\n    tag_267:\n        /* \"TFGv3/Contracts/libraries/OracleLibrary.sol\":1017:1044  uint32[] memory secondsAgos */\n      0x00\n        /* \"TFGv3/Contracts/libraries/OracleLibrary.sol\":1060:1061  2 */\n      0x02\n        /* \"TFGv3/Contracts/libraries/OracleLibrary.sol\":1047:1062  new uint32[](2) */\n      0xffffffffffffffff\n      dup2\n      gt\n      iszero\n      tag_270\n      jumpi\n      tag_271\n      tag_272\n      jump\t// in\n    tag_271:\n    tag_270:\n      mload(0x40)\n      swap1\n      dup1\n      dup3\n      mstore\n      dup1\n      0x20\n      mul\n      0x20\n      add\n      dup3\n      add\n      0x40\n      mstore\n      dup1\n      iszero\n      tag_273\n      jumpi\n      dup2\n      0x20\n      add\n      0x20\n      dup3\n      mul\n      dup1\n      calldatasize\n      dup4\n      calldatacopy\n      dup1\n      dup3\n      add\n      swap2\n      pop\n      pop\n      swap1\n      pop\n    tag_273:\n      pop\n        /* \"TFGv3/Contracts/libraries/OracleLibrary.sol\":1017:1062  uint32[] memory secondsAgos = new uint32[](2) */\n      swap1\n      pop\n        /* \"TFGv3/Contracts/libraries/OracleLibrary.sol\":1089:1099  secondsAgo */\n      dup4\n        /* \"TFGv3/Contracts/libraries/OracleLibrary.sol\":1072:1083  secondsAgos */\n      dup2\n        /* \"TFGv3/Contracts/libraries/OracleLibrary.sol\":1084:1085  0 */\n      0x00\n        /* \"TFGv3/Contracts/libraries/OracleLibrary.sol\":1072:1086  secondsAgos[0] */\n      dup2\n      mload\n      dup2\n      lt\n      tag_274\n      jumpi\n      tag_275\n      tag_127\n      jump\t// in\n    tag_275:\n    tag_274:\n      0x20\n      mul\n      0x20\n      add\n      add\n        /* \"TFGv3/Contracts/libraries/OracleLibrary.sol\":1072:1099  secondsAgos[0] = secondsAgo */\n      swap1\n      0xffffffff\n      and\n      swap1\n      dup2\n      0xffffffff\n      and\n      dup2\n      mstore\n      pop\n      pop\n        /* \"TFGv3/Contracts/libraries/OracleLibrary.sol\":1126:1127  0 */\n      0x00\n        /* \"TFGv3/Contracts/libraries/OracleLibrary.sol\":1109:1120  secondsAgos */\n      dup2\n        /* \"TFGv3/Contracts/libraries/OracleLibrary.sol\":1121:1122  1 */\n      0x01\n        /* \"TFGv3/Contracts/libraries/OracleLibrary.sol\":1109:1123  secondsAgos[1] */\n      dup2\n      mload\n      dup2\n      lt\n      tag_276\n      jumpi\n      tag_277\n      tag_127\n      jump\t// in\n    tag_277:\n    tag_276:\n      0x20\n      mul\n      0x20\n      add\n      add\n        /* \"TFGv3/Contracts/libraries/OracleLibrary.sol\":1109:1127  secondsAgos[1] = 0 */\n      swap1\n      0xffffffff\n      and\n      swap1\n      dup2\n      0xffffffff\n      and\n      dup2\n      mstore\n      pop\n      pop\n        /* \"TFGv3/Contracts/libraries/OracleLibrary.sol\":1139:1169  int56[] memory tickCumulatives */\n      0x00\n        /* \"TFGv3/Contracts/libraries/OracleLibrary.sol\":1171:1222  uint160[] memory secondsPerLiquidityCumulativeX128s */\n      dup1\n        /* \"TFGv3/Contracts/libraries/OracleLibrary.sol\":1253:1257  pool */\n      dup7\n        /* \"TFGv3/Contracts/libraries/OracleLibrary.sol\":1238:1266  IUniswapV3Pool(pool).observe */\n      0xffffffffffffffffffffffffffffffffffffffff\n      and\n      0x883bdbfd\n        /* \"TFGv3/Contracts/libraries/OracleLibrary.sol\":1267:1278  secondsAgos */\n      dup5\n        /* \"TFGv3/Contracts/libraries/OracleLibrary.sol\":1238:1279  IUniswapV3Pool(pool).observe(secondsAgos) */\n      mload(0x40)\n      dup3\n      0xffffffff\n      and\n      0xe0\n      shl\n      dup2\n      mstore\n      0x04\n      add\n      tag_278\n      swap2\n      swap1\n      tag_279\n      jump\t// in\n    tag_278:\n      0x00\n      mload(0x40)\n      dup1\n      dup4\n      sub\n      dup2\n      dup7\n      gas\n      staticcall\n      iszero\n      dup1\n      iszero\n      tag_281\n      jumpi\n      returndatasize\n      0x00\n      dup1\n      returndatacopy\n      revert(0x00, returndatasize)\n    tag_281:\n      pop\n      pop\n      pop\n      pop\n      mload(0x40)\n      returndatasize\n      0x00\n      dup3\n      returndatacopy\n      returndatasize\n      not(0x1f)\n      0x1f\n      dup3\n      add\n      and\n      dup3\n      add\n      dup1\n      0x40\n      mstore\n      pop\n      dup2\n      add\n      swap1\n      tag_282\n      swap2\n      swap1\n      tag_283\n      jump\t// in\n    tag_282:\n        /* \"TFGv3/Contracts/libraries/OracleLibrary.sol\":1138:1279  (int56[] memory tickCumulatives, uint160[] memory secondsPerLiquidityCumulativeX128s) =... */\n      swap2\n      pop\n      swap2\n      pop\n        /* \"TFGv3/Contracts/libraries/OracleLibrary.sol\":1290:1316  int56 tickCumulativesDelta */\n      0x00\n        /* \"TFGv3/Contracts/libraries/OracleLibrary.sol\":1340:1355  tickCumulatives */\n      dup3\n        /* \"TFGv3/Contracts/libraries/OracleLibrary.sol\":1356:1357  0 */\n      0x00\n        /* \"TFGv3/Contracts/libraries/OracleLibrary.sol\":1340:1358  tickCumulatives[0] */\n      dup2\n      mload\n      dup2\n      lt\n      tag_284\n      jumpi\n      tag_285\n      tag_127\n      jump\t// in\n    tag_285:\n    tag_284:\n      0x20\n      mul\n      0x20\n      add\n      add\n      mload\n        /* \"TFGv3/Contracts/libraries/OracleLibrary.sol\":1319:1334  tickCumulatives */\n      dup4\n        /* \"TFGv3/Contracts/libraries/OracleLibrary.sol\":1335:1336  1 */\n      0x01\n        /* \"TFGv3/Contracts/libraries/OracleLibrary.sol\":1319:1337  tickCumulatives[1] */\n      dup2\n      mload\n      dup2\n      lt\n      tag_286\n      jumpi\n      tag_287\n      tag_127\n      jump\t// in\n    tag_287:\n    tag_286:\n      0x20\n      mul\n      0x20\n      add\n      add\n      mload\n        /* \"TFGv3/Contracts/libraries/OracleLibrary.sol\":1319:1358  tickCumulatives[1] - tickCumulatives[0] */\n      tag_288\n      swap2\n      swap1\n      tag_289\n      jump\t// in\n    tag_288:\n        /* \"TFGv3/Contracts/libraries/OracleLibrary.sol\":1290:1358  int56 tickCumulativesDelta = tickCumulatives[1] - tickCumulatives[0] */\n      swap1\n      pop\n        /* \"TFGv3/Contracts/libraries/OracleLibrary.sol\":1368:1411  uint160 secondsPerLiquidityCumulativesDelta */\n      0x00\n        /* \"TFGv3/Contracts/libraries/OracleLibrary.sol\":1466:1500  secondsPerLiquidityCumulativeX128s */\n      dup3\n        /* \"TFGv3/Contracts/libraries/OracleLibrary.sol\":1501:1502  0 */\n      0x00\n        /* \"TFGv3/Contracts/libraries/OracleLibrary.sol\":1466:1503  secondsPerLiquidityCumulativeX128s[0] */\n      dup2\n      mload\n      dup2\n      lt\n      tag_290\n      jumpi\n      tag_291\n      tag_127\n      jump\t// in\n    tag_291:\n    tag_290:\n      0x20\n      mul\n      0x20\n      add\n      add\n      mload\n        /* \"TFGv3/Contracts/libraries/OracleLibrary.sol\":1426:1460  secondsPerLiquidityCumulativeX128s */\n      dup4\n        /* \"TFGv3/Contracts/libraries/OracleLibrary.sol\":1461:1462  1 */\n      0x01\n        /* \"TFGv3/Contracts/libraries/OracleLibrary.sol\":1426:1463  secondsPerLiquidityCumulativeX128s[1] */\n      dup2\n      mload\n      dup2\n      lt\n      tag_292\n      jumpi\n      tag_293\n      tag_127\n      jump\t// in\n    tag_293:\n    tag_292:\n      0x20\n      mul\n      0x20\n      add\n      add\n      mload\n        /* \"TFGv3/Contracts/libraries/OracleLibrary.sol\":1426:1503  secondsPerLiquidityCumulativeX128s[1] - secondsPerLiquidityCumulativeX128s[0] */\n      tag_294\n      swap2\n      swap1\n      tag_295\n      jump\t// in\n    tag_294:\n        /* \"TFGv3/Contracts/libraries/OracleLibrary.sol\":1368:1503  uint160 secondsPerLiquidityCumulativesDelta =... */\n      swap1\n      pop\n        /* \"TFGv3/Contracts/libraries/OracleLibrary.sol\":1570:1580  secondsAgo */\n      dup8\n        /* \"TFGv3/Contracts/libraries/OracleLibrary.sol\":1541:1581  tickCumulativesDelta / int32(secondsAgo) */\n      0x03\n      signextend\n        /* \"TFGv3/Contracts/libraries/OracleLibrary.sol\":1541:1561  tickCumulativesDelta */\n      dup3\n        /* \"TFGv3/Contracts/libraries/OracleLibrary.sol\":1541:1581  tickCumulativesDelta / int32(secondsAgo) */\n      tag_296\n      swap2\n      swap1\n      tag_297\n      jump\t// in\n    tag_296:\n        /* \"TFGv3/Contracts/libraries/OracleLibrary.sol\":1514:1582  arithmeticMeanTick = int24(tickCumulativesDelta / int32(secondsAgo)) */\n      swap7\n      pop\n        /* \"TFGv3/Contracts/libraries/OracleLibrary.sol\":1664:1665  0 */\n      0x00\n        /* \"TFGv3/Contracts/libraries/OracleLibrary.sol\":1641:1661  tickCumulativesDelta */\n      dup3\n        /* \"TFGv3/Contracts/libraries/OracleLibrary.sol\":1641:1665  tickCumulativesDelta < 0 */\n      0x06\n      signextend\n      slt\n        /* \"TFGv3/Contracts/libraries/OracleLibrary.sol\":1641:1716  tickCumulativesDelta < 0 && (tickCumulativesDelta % int32(secondsAgo) != 0) */\n      dup1\n      iszero\n      tag_298\n      jumpi\n      pop\n        /* \"TFGv3/Contracts/libraries/OracleLibrary.sol\":1714:1715  0 */\n      0x00\n        /* \"TFGv3/Contracts/libraries/OracleLibrary.sol\":1699:1709  secondsAgo */\n      dup9\n        /* \"TFGv3/Contracts/libraries/OracleLibrary.sol\":1670:1710  tickCumulativesDelta % int32(secondsAgo) */\n      0x03\n      signextend\n        /* \"TFGv3/Contracts/libraries/OracleLibrary.sol\":1670:1690  tickCumulativesDelta */\n      dup4\n        /* \"TFGv3/Contracts/libraries/OracleLibrary.sol\":1670:1710  tickCumulativesDelta % int32(secondsAgo) */\n      tag_299\n      swap2\n      swap1\n      tag_300\n      jump\t// in\n    tag_299:\n        /* \"TFGv3/Contracts/libraries/OracleLibrary.sol\":1670:1715  tickCumulativesDelta % int32(secondsAgo) != 0 */\n      0x06\n      signextend\n      eq\n      iszero\n        /* \"TFGv3/Contracts/libraries/OracleLibrary.sol\":1641:1716  tickCumulativesDelta < 0 && (tickCumulativesDelta % int32(secondsAgo) != 0) */\n    tag_298:\n        /* \"TFGv3/Contracts/libraries/OracleLibrary.sol\":1637:1738  if (tickCumulativesDelta < 0 && (tickCumulativesDelta % int32(secondsAgo) != 0)) arithmeticMeanTick-- */\n      iszero\n      tag_301\n      jumpi\n        /* \"TFGv3/Contracts/libraries/OracleLibrary.sol\":1718:1738  arithmeticMeanTick-- */\n      dup7\n      dup1\n      tag_302\n      swap1\n      tag_303\n      jump\t// in\n    tag_302:\n      swap8\n      pop\n      pop\n        /* \"TFGv3/Contracts/libraries/OracleLibrary.sol\":1637:1738  if (tickCumulativesDelta < 0 && (tickCumulativesDelta % int32(secondsAgo) != 0)) arithmeticMeanTick-- */\n    tag_301:\n        /* \"TFGv3/Contracts/libraries/OracleLibrary.sol\":1866:1888  uint192 secondsAgoX160 */\n      0x00\n        /* \"TFGv3/Contracts/libraries/OracleLibrary.sol\":1913:1930  type(uint160).max */\n      0xffffffffffffffffffffffffffffffffffffffff\n        /* \"TFGv3/Contracts/libraries/OracleLibrary.sol\":1891:1930  uint192(secondsAgo) * type(uint160).max */\n      dup1\n      and\n        /* \"TFGv3/Contracts/libraries/OracleLibrary.sol\":1899:1909  secondsAgo */\n      dup10\n        /* \"TFGv3/Contracts/libraries/OracleLibrary.sol\":1891:1910  uint192(secondsAgo) */\n      0xffffffff\n      and\n        /* \"TFGv3/Contracts/libraries/OracleLibrary.sol\":1891:1930  uint192(secondsAgo) * type(uint160).max */\n      tag_304\n      swap2\n      swap1\n      tag_305\n      jump\t// in\n    tag_304:\n        /* \"TFGv3/Contracts/libraries/OracleLibrary.sol\":1866:1930  uint192 secondsAgoX160 = uint192(secondsAgo) * type(uint160).max */\n      swap1\n      pop\n        /* \"TFGv3/Contracts/libraries/OracleLibrary.sol\":2038:2040  32 */\n      0x20\n        /* \"TFGv3/Contracts/libraries/OracleLibrary.sol\":1998:2033  secondsPerLiquidityCumulativesDelta */\n      dup3\n        /* \"TFGv3/Contracts/libraries/OracleLibrary.sol\":1990:2034  uint192(secondsPerLiquidityCumulativesDelta) */\n      0xffffffffffffffffffffffffffffffffffffffff\n      and\n        /* \"TFGv3/Contracts/libraries/OracleLibrary.sol\":1990:2040  uint192(secondsPerLiquidityCumulativesDelta) << 32 */\n      0xffffffffffffffffffffffffffffffffffffffffffffffff\n      and\n      swap1\n      shl\n        /* \"TFGv3/Contracts/libraries/OracleLibrary.sol\":1972:1986  secondsAgoX160 */\n      dup2\n        /* \"TFGv3/Contracts/libraries/OracleLibrary.sol\":1972:2041  secondsAgoX160 / (uint192(secondsPerLiquidityCumulativesDelta) << 32) */\n      tag_306\n      swap2\n      swap1\n      tag_307\n      jump\t// in\n    tag_306:\n        /* \"TFGv3/Contracts/libraries/OracleLibrary.sol\":1940:2042  harmonicMeanLiquidity = uint128(secondsAgoX160 / (uint192(secondsPerLiquidityCumulativesDelta) << 32)) */\n      swap7\n      pop\n        /* \"TFGv3/Contracts/libraries/OracleLibrary.sol\":966:2049  {... */\n      pop\n      pop\n      pop\n      pop\n      pop\n      pop\n        /* \"TFGv3/Contracts/libraries/OracleLibrary.sol\":808:2049  function consult(address pool, uint32 secondsAgo)... */\n      swap3\n      pop\n      swap3\n      swap1\n      pop\n      jump\t// out\n        /* \"TFGv3/Contracts/libraries/OracleLibrary.sol\":2553:3508  function getQuoteAtTick(... */\n    tag_257:\n        /* \"TFGv3/Contracts/libraries/OracleLibrary.sol\":2709:2728  uint256 quoteAmount */\n      0x00\n        /* \"TFGv3/Contracts/libraries/OracleLibrary.sol\":2740:2760  uint160 sqrtRatioX96 */\n      dup1\n        /* \"TFGv3/Contracts/libraries/OracleLibrary.sol\":2763:2796  TickMath.getSqrtRatioAtTick(tick) */\n      tag_309\n        /* \"TFGv3/Contracts/libraries/OracleLibrary.sol\":2791:2795  tick */\n      dup7\n        /* \"TFGv3/Contracts/libraries/OracleLibrary.sol\":2763:2790  TickMath.getSqrtRatioAtTick */\n      tag_310\n        /* \"TFGv3/Contracts/libraries/OracleLibrary.sol\":2763:2796  TickMath.getSqrtRatioAtTick(tick) */\n      jump\t// in\n    tag_309:\n        /* \"TFGv3/Contracts/libraries/OracleLibrary.sol\":2740:2796  uint160 sqrtRatioX96 = TickMath.getSqrtRatioAtTick(tick) */\n      swap1\n      pop\n        /* \"TFGv3/Contracts/libraries/OracleLibrary.sol\":2931:2948  type(uint128).max */\n      0xffffffffffffffffffffffffffffffff\n        /* \"TFGv3/Contracts/libraries/OracleLibrary.sol\":2915:2948  sqrtRatioX96 <= type(uint128).max */\n      dup1\n      and\n        /* \"TFGv3/Contracts/libraries/OracleLibrary.sol\":2915:2927  sqrtRatioX96 */\n      dup2\n        /* \"TFGv3/Contracts/libraries/OracleLibrary.sol\":2915:2948  sqrtRatioX96 <= type(uint128).max */\n      0xffffffffffffffffffffffffffffffffffffffff\n      and\n      gt\n        /* \"TFGv3/Contracts/libraries/OracleLibrary.sol\":2911:3502  if (sqrtRatioX96 <= type(uint128).max) {... */\n      tag_311\n      jumpi\n        /* \"TFGv3/Contracts/libraries/OracleLibrary.sol\":2964:2981  uint256 ratioX192 */\n      0x00\n        /* \"TFGv3/Contracts/libraries/OracleLibrary.sol\":3008:3020  sqrtRatioX96 */\n      dup2\n        /* \"TFGv3/Contracts/libraries/OracleLibrary.sol\":2984:3020  uint256(sqrtRatioX96) * sqrtRatioX96 */\n      0xffffffffffffffffffffffffffffffffffffffff\n      and\n        /* \"TFGv3/Contracts/libraries/OracleLibrary.sol\":2992:3004  sqrtRatioX96 */\n      dup3\n        /* \"TFGv3/Contracts/libraries/OracleLibrary.sol\":2984:3005  uint256(sqrtRatioX96) */\n      0xffffffffffffffffffffffffffffffffffffffff\n      and\n        /* \"TFGv3/Contracts/libraries/OracleLibrary.sol\":2984:3020  uint256(sqrtRatioX96) * sqrtRatioX96 */\n      tag_312\n      swap2\n      swap1\n      tag_259\n      jump\t// in\n    tag_312:\n        /* \"TFGv3/Contracts/libraries/OracleLibrary.sol\":2964:3020  uint256 ratioX192 = uint256(sqrtRatioX96) * sqrtRatioX96 */\n      swap1\n      pop\n        /* \"TFGv3/Contracts/libraries/OracleLibrary.sol\":3060:3070  quoteToken */\n      dup4\n        /* \"TFGv3/Contracts/libraries/OracleLibrary.sol\":3048:3070  baseToken < quoteToken */\n      0xffffffffffffffffffffffffffffffffffffffff\n      and\n        /* \"TFGv3/Contracts/libraries/OracleLibrary.sol\":3048:3057  baseToken */\n      dup6\n        /* \"TFGv3/Contracts/libraries/OracleLibrary.sol\":3048:3070  baseToken < quoteToken */\n      0xffffffffffffffffffffffffffffffffffffffff\n      and\n      lt\n        /* \"TFGv3/Contracts/libraries/OracleLibrary.sol\":3048:3204  baseToken < quoteToken... */\n      tag_313\n      jumpi\n        /* \"TFGv3/Contracts/libraries/OracleLibrary.sol\":3156:3204  FullMath.mulDiv(1 << 192, baseAmount, ratioX192) */\n      tag_314\n        /* \"TFGv3/Contracts/libraries/OracleLibrary.sol\":3172:3180  1 << 192 */\n      0x01000000000000000000000000000000000000000000000000\n        /* \"TFGv3/Contracts/libraries/OracleLibrary.sol\":3182:3192  baseAmount */\n      dup8\n        /* \"TFGv3/Contracts/libraries/OracleLibrary.sol\":3156:3204  FullMath.mulDiv(1 << 192, baseAmount, ratioX192) */\n      0xffffffffffffffffffffffffffffffff\n      and\n        /* \"TFGv3/Contracts/libraries/OracleLibrary.sol\":3194:3203  ratioX192 */\n      dup4\n        /* \"TFGv3/Contracts/libraries/OracleLibrary.sol\":3156:3171  FullMath.mulDiv */\n      tag_315\n        /* \"TFGv3/Contracts/libraries/OracleLibrary.sol\":3156:3204  FullMath.mulDiv(1 << 192, baseAmount, ratioX192) */\n      jump\t// in\n    tag_314:\n        /* \"TFGv3/Contracts/libraries/OracleLibrary.sol\":3048:3204  baseToken < quoteToken... */\n      jump(tag_316)\n    tag_313:\n        /* \"TFGv3/Contracts/libraries/OracleLibrary.sol\":3089:3137  FullMath.mulDiv(ratioX192, baseAmount, 1 << 192) */\n      tag_317\n        /* \"TFGv3/Contracts/libraries/OracleLibrary.sol\":3105:3114  ratioX192 */\n      dup2\n        /* \"TFGv3/Contracts/libraries/OracleLibrary.sol\":3116:3126  baseAmount */\n      dup8\n        /* \"TFGv3/Contracts/libraries/OracleLibrary.sol\":3089:3137  FullMath.mulDiv(ratioX192, baseAmount, 1 << 192) */\n      0xffffffffffffffffffffffffffffffff\n      and\n        /* \"TFGv3/Contracts/libraries/OracleLibrary.sol\":3128:3136  1 << 192 */\n      0x01000000000000000000000000000000000000000000000000\n        /* \"TFGv3/Contracts/libraries/OracleLibrary.sol\":3089:3104  FullMath.mulDiv */\n      tag_315\n        /* \"TFGv3/Contracts/libraries/OracleLibrary.sol\":3089:3137  FullMath.mulDiv(ratioX192, baseAmount, 1 << 192) */\n      jump\t// in\n    tag_317:\n        /* \"TFGv3/Contracts/libraries/OracleLibrary.sol\":3048:3204  baseToken < quoteToken... */\n    tag_316:\n        /* \"TFGv3/Contracts/libraries/OracleLibrary.sol\":3034:3204  quoteAmount = baseToken < quoteToken... */\n      swap3\n      pop\n        /* \"TFGv3/Contracts/libraries/OracleLibrary.sol\":2950:3215  {... */\n      pop\n        /* \"TFGv3/Contracts/libraries/OracleLibrary.sol\":2911:3502  if (sqrtRatioX96 <= type(uint128).max) {... */\n      jump(tag_318)\n    tag_311:\n        /* \"TFGv3/Contracts/libraries/OracleLibrary.sol\":3235:3252  uint256 ratioX128 */\n      0x00\n        /* \"TFGv3/Contracts/libraries/OracleLibrary.sol\":3255:3307  FullMath.mulDiv(sqrtRatioX96, sqrtRatioX96, 1 << 64) */\n      tag_319\n        /* \"TFGv3/Contracts/libraries/OracleLibrary.sol\":3271:3283  sqrtRatioX96 */\n      dup3\n        /* \"TFGv3/Contracts/libraries/OracleLibrary.sol\":3255:3307  FullMath.mulDiv(sqrtRatioX96, sqrtRatioX96, 1 << 64) */\n      0xffffffffffffffffffffffffffffffffffffffff\n      and\n        /* \"TFGv3/Contracts/libraries/OracleLibrary.sol\":3285:3297  sqrtRatioX96 */\n      dup4\n        /* \"TFGv3/Contracts/libraries/OracleLibrary.sol\":3255:3307  FullMath.mulDiv(sqrtRatioX96, sqrtRatioX96, 1 << 64) */\n      0xffffffffffffffffffffffffffffffffffffffff\n      and\n        /* \"TFGv3/Contracts/libraries/OracleLibrary.sol\":3299:3306  1 << 64 */\n      0x010000000000000000\n        /* \"TFGv3/Contracts/libraries/OracleLibrary.sol\":3255:3270  FullMath.mulDiv */\n      tag_315\n        /* \"TFGv3/Contracts/libraries/OracleLibrary.sol\":3255:3307  FullMath.mulDiv(sqrtRatioX96, sqrtRatioX96, 1 << 64) */\n      jump\t// in\n    tag_319:\n        /* \"TFGv3/Contracts/libraries/OracleLibrary.sol\":3235:3307  uint256 ratioX128 = FullMath.mulDiv(sqrtRatioX96, sqrtRatioX96, 1 << 64) */\n      swap1\n      pop\n        /* \"TFGv3/Contracts/libraries/OracleLibrary.sol\":3347:3357  quoteToken */\n      dup4\n        /* \"TFGv3/Contracts/libraries/OracleLibrary.sol\":3335:3357  baseToken < quoteToken */\n      0xffffffffffffffffffffffffffffffffffffffff\n      and\n        /* \"TFGv3/Contracts/libraries/OracleLibrary.sol\":3335:3344  baseToken */\n      dup6\n        /* \"TFGv3/Contracts/libraries/OracleLibrary.sol\":3335:3357  baseToken < quoteToken */\n      0xffffffffffffffffffffffffffffffffffffffff\n      and\n      lt\n        /* \"TFGv3/Contracts/libraries/OracleLibrary.sol\":3335:3491  baseToken < quoteToken... */\n      tag_320\n      jumpi\n        /* \"TFGv3/Contracts/libraries/OracleLibrary.sol\":3443:3491  FullMath.mulDiv(1 << 128, baseAmount, ratioX128) */\n      tag_321\n        /* \"TFGv3/Contracts/libraries/OracleLibrary.sol\":3459:3467  1 << 128 */\n      0x0100000000000000000000000000000000\n        /* \"TFGv3/Contracts/libraries/OracleLibrary.sol\":3469:3479  baseAmount */\n      dup8\n        /* \"TFGv3/Contracts/libraries/OracleLibrary.sol\":3443:3491  FullMath.mulDiv(1 << 128, baseAmount, ratioX128) */\n      0xffffffffffffffffffffffffffffffff\n      and\n        /* \"TFGv3/Contracts/libraries/OracleLibrary.sol\":3481:3490  ratioX128 */\n      dup4\n        /* \"TFGv3/Contracts/libraries/OracleLibrary.sol\":3443:3458  FullMath.mulDiv */\n      tag_315\n        /* \"TFGv3/Contracts/libraries/OracleLibrary.sol\":3443:3491  FullMath.mulDiv(1 << 128, baseAmount, ratioX128) */\n      jump\t// in\n    tag_321:\n        /* \"TFGv3/Contracts/libraries/OracleLibrary.sol\":3335:3491  baseToken < quoteToken... */\n      jump(tag_322)\n    tag_320:\n        /* \"TFGv3/Contracts/libraries/OracleLibrary.sol\":3376:3424  FullMath.mulDiv(ratioX128, baseAmount, 1 << 128) */\n      tag_323\n        /* \"TFGv3/Contracts/libraries/OracleLibrary.sol\":3392:3401  ratioX128 */\n      dup2\n        /* \"TFGv3/Contracts/libraries/OracleLibrary.sol\":3403:3413  baseAmount */\n      dup8\n        /* \"TFGv3/Contracts/libraries/OracleLibrary.sol\":3376:3424  FullMath.mulDiv(ratioX128, baseAmount, 1 << 128) */\n      0xffffffffffffffffffffffffffffffff\n      and\n        /* \"TFGv3/Contracts/libraries/OracleLibrary.sol\":3415:3423  1 << 128 */\n      0x0100000000000000000000000000000000\n        /* \"TFGv3/Contracts/libraries/OracleLibrary.sol\":3376:3391  FullMath.mulDiv */\n      tag_315\n        /* \"TFGv3/Contracts/libraries/OracleLibrary.sol\":3376:3424  FullMath.mulDiv(ratioX128, baseAmount, 1 << 128) */\n      jump\t// in\n    tag_323:\n        /* \"TFGv3/Contracts/libraries/OracleLibrary.sol\":3335:3491  baseToken < quoteToken... */\n    tag_322:\n        /* \"TFGv3/Contracts/libraries/OracleLibrary.sol\":3321:3491  quoteAmount = baseToken < quoteToken... */\n      swap3\n      pop\n        /* \"TFGv3/Contracts/libraries/OracleLibrary.sol\":3221:3502  {... */\n      pop\n        /* \"TFGv3/Contracts/libraries/OracleLibrary.sol\":2911:3502  if (sqrtRatioX96 <= type(uint128).max) {... */\n    tag_318:\n        /* \"TFGv3/Contracts/libraries/OracleLibrary.sol\":2730:3508  {... */\n      pop\n        /* \"TFGv3/Contracts/libraries/OracleLibrary.sol\":2553:3508  function getQuoteAtTick(... */\n      swap5\n      swap4\n      pop\n      pop\n      pop\n      pop\n      jump\t// out\n        /* \"TFGv3/Contracts/libraries/TickMath.sol\":1355:3943  function getSqrtRatioAtTick(int24 tick) internal pure returns (uint160 sqrtPriceX96) {... */\n    tag_310:\n        /* \"TFGv3/Contracts/libraries/TickMath.sol\":1418:1438  uint160 sqrtPriceX96 */\n      0x00\n        /* \"TFGv3/Contracts/libraries/TickMath.sol\":1450:1465  uint256 absTick */\n      dup1\n        /* \"TFGv3/Contracts/libraries/TickMath.sol\":1475:1476  0 */\n      0x00\n        /* \"TFGv3/Contracts/libraries/TickMath.sol\":1468:1472  tick */\n      dup4\n        /* \"TFGv3/Contracts/libraries/TickMath.sol\":1468:1476  tick < 0 */\n      0x02\n      signextend\n      slt\n        /* \"TFGv3/Contracts/libraries/TickMath.sol\":1468:1525  tick < 0 ? uint256(-int256(tick)) : uint256(int256(tick)) */\n      tag_325\n      jumpi\n        /* \"TFGv3/Contracts/libraries/TickMath.sol\":1519:1523  tick */\n      dup3\n        /* \"TFGv3/Contracts/libraries/TickMath.sol\":1512:1524  int256(tick) */\n      0x02\n      signextend\n        /* \"TFGv3/Contracts/libraries/TickMath.sol\":1468:1525  tick < 0 ? uint256(-int256(tick)) : uint256(int256(tick)) */\n      jump(tag_326)\n    tag_325:\n        /* \"TFGv3/Contracts/libraries/TickMath.sol\":1495:1499  tick */\n      dup3\n        /* \"TFGv3/Contracts/libraries/TickMath.sol\":1488:1500  int256(tick) */\n      0x02\n      signextend\n        /* \"TFGv3/Contracts/libraries/TickMath.sol\":1487:1500  -int256(tick) */\n      tag_327\n      swap1\n      tag_328\n      jump\t// in\n    tag_327:\n        /* \"TFGv3/Contracts/libraries/TickMath.sol\":1468:1525  tick < 0 ? uint256(-int256(tick)) : uint256(int256(tick)) */\n    tag_326:\n        /* \"TFGv3/Contracts/libraries/TickMath.sol\":1450:1525  uint256 absTick = tick < 0 ? uint256(-int256(tick)) : uint256(int256(tick)) */\n      swap1\n      pop\n        /* \"TFGv3/Contracts/libraries/TickMath.sol\":477:484  -887272 */\n      0xfffffffffffffffffffffffffffffffffffffffffffffffffffffffffff27618\n        /* \"TFGv3/Contracts/libraries/TickMath.sol\":637:646  -MIN_TICK */\n      tag_329\n      swap1\n      tag_330\n      jump\t// in\n    tag_329:\n        /* \"TFGv3/Contracts/libraries/TickMath.sol\":1554:1579  uint256(uint24(MAX_TICK)) */\n      0xffffff\n      and\n        /* \"TFGv3/Contracts/libraries/TickMath.sol\":1543:1550  absTick */\n      dup2\n        /* \"TFGv3/Contracts/libraries/TickMath.sol\":1543:1579  absTick <= uint256(uint24(MAX_TICK)) */\n      gt\n      iszero\n        /* \"TFGv3/Contracts/libraries/TickMath.sol\":1535:1585  require(absTick <= uint256(uint24(MAX_TICK)), 'T') */\n      tag_331\n      jumpi\n      mload(0x40)\n      0x08c379a000000000000000000000000000000000000000000000000000000000\n      dup2\n      mstore\n      0x04\n      add\n      tag_332\n      swap1\n      tag_333\n      jump\t// in\n    tag_332:\n      mload(0x40)\n      dup1\n      swap2\n      sub\n      swap1\n      revert\n    tag_331:\n        /* \"TFGv3/Contracts/libraries/TickMath.sol\":1596:1609  uint256 ratio */\n      0x00\n        /* \"TFGv3/Contracts/libraries/TickMath.sol\":1629:1630  0 */\n      dup1\n        /* \"TFGv3/Contracts/libraries/TickMath.sol\":1622:1625  0x1 */\n      0x01\n        /* \"TFGv3/Contracts/libraries/TickMath.sol\":1612:1619  absTick */\n      dup4\n        /* \"TFGv3/Contracts/libraries/TickMath.sol\":1612:1625  absTick & 0x1 */\n      and\n        /* \"TFGv3/Contracts/libraries/TickMath.sol\":1612:1630  absTick & 0x1 != 0 */\n      sub\n        /* \"TFGv3/Contracts/libraries/TickMath.sol\":1612:1705  absTick & 0x1 != 0 ? 0xfffcb933bd6fad37aa2d162d1a594001 : 0x100000000000000000000000000000000 */\n      tag_334\n      jumpi\n        /* \"TFGv3/Contracts/libraries/TickMath.sol\":1670:1705  0x100000000000000000000000000000000 */\n      0x0100000000000000000000000000000000\n        /* \"TFGv3/Contracts/libraries/TickMath.sol\":1612:1705  absTick & 0x1 != 0 ? 0xfffcb933bd6fad37aa2d162d1a594001 : 0x100000000000000000000000000000000 */\n      jump(tag_335)\n    tag_334:\n        /* \"TFGv3/Contracts/libraries/TickMath.sol\":1633:1667  0xfffcb933bd6fad37aa2d162d1a594001 */\n      0xfffcb933bd6fad37aa2d162d1a594001\n        /* \"TFGv3/Contracts/libraries/TickMath.sol\":1612:1705  absTick & 0x1 != 0 ? 0xfffcb933bd6fad37aa2d162d1a594001 : 0x100000000000000000000000000000000 */\n    tag_335:\n        /* \"TFGv3/Contracts/libraries/TickMath.sol\":1596:1705  uint256 ratio = absTick & 0x1 != 0 ? 0xfffcb933bd6fad37aa2d162d1a594001 : 0x100000000000000000000000000000000 */\n      0xffffffffffffffffffffffffffffffffff\n      and\n      swap1\n      pop\n        /* \"TFGv3/Contracts/libraries/TickMath.sol\":1736:1737  0 */\n      0x00\n        /* \"TFGv3/Contracts/libraries/TickMath.sol\":1729:1732  0x2 */\n      0x02\n        /* \"TFGv3/Contracts/libraries/TickMath.sol\":1719:1726  absTick */\n      dup4\n        /* \"TFGv3/Contracts/libraries/TickMath.sol\":1719:1732  absTick & 0x2 */\n      and\n        /* \"TFGv3/Contracts/libraries/TickMath.sol\":1719:1737  absTick & 0x2 != 0 */\n      eq\n        /* \"TFGv3/Contracts/libraries/TickMath.sol\":1715:1798  if (absTick & 0x2 != 0) ratio = (ratio * 0xfff97272373d413259a46990580e213a) >> 128 */\n      tag_336\n      jumpi\n        /* \"TFGv3/Contracts/libraries/TickMath.sol\":1795:1798  128 */\n      0x80\n        /* \"TFGv3/Contracts/libraries/TickMath.sol\":1756:1790  0xfff97272373d413259a46990580e213a */\n      0xfff97272373d413259a46990580e213a\n        /* \"TFGv3/Contracts/libraries/TickMath.sol\":1748:1753  ratio */\n      dup3\n        /* \"TFGv3/Contracts/libraries/TickMath.sol\":1748:1790  ratio * 0xfff97272373d413259a46990580e213a */\n      tag_337\n      swap2\n      swap1\n      tag_259\n      jump\t// in\n    tag_337:\n        /* \"TFGv3/Contracts/libraries/TickMath.sol\":1747:1798  (ratio * 0xfff97272373d413259a46990580e213a) >> 128 */\n      swap1\n      shr\n        /* \"TFGv3/Contracts/libraries/TickMath.sol\":1739:1798  ratio = (ratio * 0xfff97272373d413259a46990580e213a) >> 128 */\n      swap1\n      pop\n        /* \"TFGv3/Contracts/libraries/TickMath.sol\":1715:1798  if (absTick & 0x2 != 0) ratio = (ratio * 0xfff97272373d413259a46990580e213a) >> 128 */\n    tag_336:\n        /* \"TFGv3/Contracts/libraries/TickMath.sol\":1829:1830  0 */\n      0x00\n        /* \"TFGv3/Contracts/libraries/TickMath.sol\":1822:1825  0x4 */\n      0x04\n        /* \"TFGv3/Contracts/libraries/TickMath.sol\":1812:1819  absTick */\n      dup4\n        /* \"TFGv3/Contracts/libraries/TickMath.sol\":1812:1825  absTick & 0x4 */\n      and\n        /* \"TFGv3/Contracts/libraries/TickMath.sol\":1812:1830  absTick & 0x4 != 0 */\n      eq\n        /* \"TFGv3/Contracts/libraries/TickMath.sol\":1808:1891  if (absTick & 0x4 != 0) ratio = (ratio * 0xfff2e50f5f656932ef12357cf3c7fdcc) >> 128 */\n      tag_338\n      jumpi\n        /* \"TFGv3/Contracts/libraries/TickMath.sol\":1888:1891  128 */\n      0x80\n        /* \"TFGv3/Contracts/libraries/TickMath.sol\":1849:1883  0xfff2e50f5f656932ef12357cf3c7fdcc */\n      0xfff2e50f5f656932ef12357cf3c7fdcc\n        /* \"TFGv3/Contracts/libraries/TickMath.sol\":1841:1846  ratio */\n      dup3\n        /* \"TFGv3/Contracts/libraries/TickMath.sol\":1841:1883  ratio * 0xfff2e50f5f656932ef12357cf3c7fdcc */\n      tag_339\n      swap2\n      swap1\n      tag_259\n      jump\t// in\n    tag_339:\n        /* \"TFGv3/Contracts/libraries/TickMath.sol\":1840:1891  (ratio * 0xfff2e50f5f656932ef12357cf3c7fdcc) >> 128 */\n      swap1\n      shr\n        /* \"TFGv3/Contracts/libraries/TickMath.sol\":1832:1891  ratio = (ratio * 0xfff2e50f5f656932ef12357cf3c7fdcc) >> 128 */\n      swap1\n      pop\n        /* \"TFGv3/Contracts/libraries/TickMath.sol\":1808:1891  if (absTick & 0x4 != 0) ratio = (ratio * 0xfff2e50f5f656932ef12357cf3c7fdcc) >> 128 */\n    tag_338:\n        /* \"TFGv3/Contracts/libraries/TickMath.sol\":1922:1923  0 */\n      0x00\n        /* \"TFGv3/Contracts/libraries/TickMath.sol\":1915:1918  0x8 */\n      0x08\n        /* \"TFGv3/Contracts/libraries/TickMath.sol\":1905:1912  absTick */\n      dup4\n        /* \"TFGv3/Contracts/libraries/TickMath.sol\":1905:1918  absTick & 0x8 */\n      and\n        /* \"TFGv3/Contracts/libraries/TickMath.sol\":1905:1923  absTick & 0x8 != 0 */\n      eq\n        /* \"TFGv3/Contracts/libraries/TickMath.sol\":1901:1984  if (absTick & 0x8 != 0) ratio = (ratio * 0xffe5caca7e10e4e61c3624eaa0941cd0) >> 128 */\n      tag_340\n      jumpi\n        /* \"TFGv3/Contracts/libraries/TickMath.sol\":1981:1984  128 */\n      0x80\n        /* \"TFGv3/Contracts/libraries/TickMath.sol\":1942:1976  0xffe5caca7e10e4e61c3624eaa0941cd0 */\n      0xffe5caca7e10e4e61c3624eaa0941cd0\n        /* \"TFGv3/Contracts/libraries/TickMath.sol\":1934:1939  ratio */\n      dup3\n        /* \"TFGv3/Contracts/libraries/TickMath.sol\":1934:1976  ratio * 0xffe5caca7e10e4e61c3624eaa0941cd0 */\n      tag_341\n      swap2\n      swap1\n      tag_259\n      jump\t// in\n    tag_341:\n        /* \"TFGv3/Contracts/libraries/TickMath.sol\":1933:1984  (ratio * 0xffe5caca7e10e4e61c3624eaa0941cd0) >> 128 */\n      swap1\n      shr\n        /* \"TFGv3/Contracts/libraries/TickMath.sol\":1925:1984  ratio = (ratio * 0xffe5caca7e10e4e61c3624eaa0941cd0) >> 128 */\n      swap1\n      pop\n        /* \"TFGv3/Contracts/libraries/TickMath.sol\":1901:1984  if (absTick & 0x8 != 0) ratio = (ratio * 0xffe5caca7e10e4e61c3624eaa0941cd0) >> 128 */\n    tag_340:\n        /* \"TFGv3/Contracts/libraries/TickMath.sol\":2016:2017  0 */\n      0x00\n        /* \"TFGv3/Contracts/libraries/TickMath.sol\":2008:2012  0x10 */\n      0x10\n        /* \"TFGv3/Contracts/libraries/TickMath.sol\":1998:2005  absTick */\n      dup4\n        /* \"TFGv3/Contracts/libraries/TickMath.sol\":1998:2012  absTick & 0x10 */\n      and\n        /* \"TFGv3/Contracts/libraries/TickMath.sol\":1998:2017  absTick & 0x10 != 0 */\n      eq\n        /* \"TFGv3/Contracts/libraries/TickMath.sol\":1994:2078  if (absTick & 0x10 != 0) ratio = (ratio * 0xffcb9843d60f6159c9db58835c926644) >> 128 */\n      tag_342\n      jumpi\n        /* \"TFGv3/Contracts/libraries/TickMath.sol\":2075:2078  128 */\n      0x80\n        /* \"TFGv3/Contracts/libraries/TickMath.sol\":2036:2070  0xffcb9843d60f6159c9db58835c926644 */\n      0xffcb9843d60f6159c9db58835c926644\n        /* \"TFGv3/Contracts/libraries/TickMath.sol\":2028:2033  ratio */\n      dup3\n        /* \"TFGv3/Contracts/libraries/TickMath.sol\":2028:2070  ratio * 0xffcb9843d60f6159c9db58835c926644 */\n      tag_343\n      swap2\n      swap1\n      tag_259\n      jump\t// in\n    tag_343:\n        /* \"TFGv3/Contracts/libraries/TickMath.sol\":2027:2078  (ratio * 0xffcb9843d60f6159c9db58835c926644) >> 128 */\n      swap1\n      shr\n        /* \"TFGv3/Contracts/libraries/TickMath.sol\":2019:2078  ratio = (ratio * 0xffcb9843d60f6159c9db58835c926644) >> 128 */\n      swap1\n      pop\n        /* \"TFGv3/Contracts/libraries/TickMath.sol\":1994:2078  if (absTick & 0x10 != 0) ratio = (ratio * 0xffcb9843d60f6159c9db58835c926644) >> 128 */\n    tag_342:\n        /* \"TFGv3/Contracts/libraries/TickMath.sol\":2110:2111  0 */\n      0x00\n        /* \"TFGv3/Contracts/libraries/TickMath.sol\":2102:2106  0x20 */\n      0x20\n        /* \"TFGv3/Contracts/libraries/TickMath.sol\":2092:2099  absTick */\n      dup4\n        /* \"TFGv3/Contracts/libraries/TickMath.sol\":2092:2106  absTick & 0x20 */\n      and\n        /* \"TFGv3/Contracts/libraries/TickMath.sol\":2092:2111  absTick & 0x20 != 0 */\n      eq\n        /* \"TFGv3/Contracts/libraries/TickMath.sol\":2088:2172  if (absTick & 0x20 != 0) ratio = (ratio * 0xff973b41fa98c081472e6896dfb254c0) >> 128 */\n      tag_344\n      jumpi\n        /* \"TFGv3/Contracts/libraries/TickMath.sol\":2169:2172  128 */\n      0x80\n        /* \"TFGv3/Contracts/libraries/TickMath.sol\":2130:2164  0xff973b41fa98c081472e6896dfb254c0 */\n      0xff973b41fa98c081472e6896dfb254c0\n        /* \"TFGv3/Contracts/libraries/TickMath.sol\":2122:2127  ratio */\n      dup3\n        /* \"TFGv3/Contracts/libraries/TickMath.sol\":2122:2164  ratio * 0xff973b41fa98c081472e6896dfb254c0 */\n      tag_345\n      swap2\n      swap1\n      tag_259\n      jump\t// in\n    tag_345:\n        /* \"TFGv3/Contracts/libraries/TickMath.sol\":2121:2172  (ratio * 0xff973b41fa98c081472e6896dfb254c0) >> 128 */\n      swap1\n      shr\n        /* \"TFGv3/Contracts/libraries/TickMath.sol\":2113:2172  ratio = (ratio * 0xff973b41fa98c081472e6896dfb254c0) >> 128 */\n      swap1\n      pop\n        /* \"TFGv3/Contracts/libraries/TickMath.sol\":2088:2172  if (absTick & 0x20 != 0) ratio = (ratio * 0xff973b41fa98c081472e6896dfb254c0) >> 128 */\n    tag_344:\n        /* \"TFGv3/Contracts/libraries/TickMath.sol\":2204:2205  0 */\n      0x00\n        /* \"TFGv3/Contracts/libraries/TickMath.sol\":2196:2200  0x40 */\n      0x40\n        /* \"TFGv3/Contracts/libraries/TickMath.sol\":2186:2193  absTick */\n      dup4\n        /* \"TFGv3/Contracts/libraries/TickMath.sol\":2186:2200  absTick & 0x40 */\n      and\n        /* \"TFGv3/Contracts/libraries/TickMath.sol\":2186:2205  absTick & 0x40 != 0 */\n      eq\n        /* \"TFGv3/Contracts/libraries/TickMath.sol\":2182:2266  if (absTick & 0x40 != 0) ratio = (ratio * 0xff2ea16466c96a3843ec78b326b52861) >> 128 */\n      tag_346\n      jumpi\n        /* \"TFGv3/Contracts/libraries/TickMath.sol\":2263:2266  128 */\n      0x80\n        /* \"TFGv3/Contracts/libraries/TickMath.sol\":2224:2258  0xff2ea16466c96a3843ec78b326b52861 */\n      0xff2ea16466c96a3843ec78b326b52861\n        /* \"TFGv3/Contracts/libraries/TickMath.sol\":2216:2221  ratio */\n      dup3\n        /* \"TFGv3/Contracts/libraries/TickMath.sol\":2216:2258  ratio * 0xff2ea16466c96a3843ec78b326b52861 */\n      tag_347\n      swap2\n      swap1\n      tag_259\n      jump\t// in\n    tag_347:\n        /* \"TFGv3/Contracts/libraries/TickMath.sol\":2215:2266  (ratio * 0xff2ea16466c96a3843ec78b326b52861) >> 128 */\n      swap1\n      shr\n        /* \"TFGv3/Contracts/libraries/TickMath.sol\":2207:2266  ratio = (ratio * 0xff2ea16466c96a3843ec78b326b52861) >> 128 */\n      swap1\n      pop\n        /* \"TFGv3/Contracts/libraries/TickMath.sol\":2182:2266  if (absTick & 0x40 != 0) ratio = (ratio * 0xff2ea16466c96a3843ec78b326b52861) >> 128 */\n    tag_346:\n        /* \"TFGv3/Contracts/libraries/TickMath.sol\":2298:2299  0 */\n      0x00\n        /* \"TFGv3/Contracts/libraries/TickMath.sol\":2290:2294  0x80 */\n      0x80\n        /* \"TFGv3/Contracts/libraries/TickMath.sol\":2280:2287  absTick */\n      dup4\n        /* \"TFGv3/Contracts/libraries/TickMath.sol\":2280:2294  absTick & 0x80 */\n      and\n        /* \"TFGv3/Contracts/libraries/TickMath.sol\":2280:2299  absTick & 0x80 != 0 */\n      eq\n        /* \"TFGv3/Contracts/libraries/TickMath.sol\":2276:2360  if (absTick & 0x80 != 0) ratio = (ratio * 0xfe5dee046a99a2a811c461f1969c3053) >> 128 */\n      tag_348\n      jumpi\n        /* \"TFGv3/Contracts/libraries/TickMath.sol\":2357:2360  128 */\n      0x80\n        /* \"TFGv3/Contracts/libraries/TickMath.sol\":2318:2352  0xfe5dee046a99a2a811c461f1969c3053 */\n      0xfe5dee046a99a2a811c461f1969c3053\n        /* \"TFGv3/Contracts/libraries/TickMath.sol\":2310:2315  ratio */\n      dup3\n        /* \"TFGv3/Contracts/libraries/TickMath.sol\":2310:2352  ratio * 0xfe5dee046a99a2a811c461f1969c3053 */\n      tag_349\n      swap2\n      swap1\n      tag_259\n      jump\t// in\n    tag_349:\n        /* \"TFGv3/Contracts/libraries/TickMath.sol\":2309:2360  (ratio * 0xfe5dee046a99a2a811c461f1969c3053) >> 128 */\n      swap1\n      shr\n        /* \"TFGv3/Contracts/libraries/TickMath.sol\":2301:2360  ratio = (ratio * 0xfe5dee046a99a2a811c461f1969c3053) >> 128 */\n      swap1\n      pop\n        /* \"TFGv3/Contracts/libraries/TickMath.sol\":2276:2360  if (absTick & 0x80 != 0) ratio = (ratio * 0xfe5dee046a99a2a811c461f1969c3053) >> 128 */\n    tag_348:\n        /* \"TFGv3/Contracts/libraries/TickMath.sol\":2393:2394  0 */\n      0x00\n        /* \"TFGv3/Contracts/libraries/TickMath.sol\":2384:2389  0x100 */\n      0x0100\n        /* \"TFGv3/Contracts/libraries/TickMath.sol\":2374:2381  absTick */\n      dup4\n        /* \"TFGv3/Contracts/libraries/TickMath.sol\":2374:2389  absTick & 0x100 */\n      and\n        /* \"TFGv3/Contracts/libraries/TickMath.sol\":2374:2394  absTick & 0x100 != 0 */\n      eq\n        /* \"TFGv3/Contracts/libraries/TickMath.sol\":2370:2455  if (absTick & 0x100 != 0) ratio = (ratio * 0xfcbe86c7900a88aedcffc83b479aa3a4) >> 128 */\n      tag_350\n      jumpi\n        /* \"TFGv3/Contracts/libraries/TickMath.sol\":2452:2455  128 */\n      0x80\n        /* \"TFGv3/Contracts/libraries/TickMath.sol\":2413:2447  0xfcbe86c7900a88aedcffc83b479aa3a4 */\n      0xfcbe86c7900a88aedcffc83b479aa3a4\n        /* \"TFGv3/Contracts/libraries/TickMath.sol\":2405:2410  ratio */\n      dup3\n        /* \"TFGv3/Contracts/libraries/TickMath.sol\":2405:2447  ratio * 0xfcbe86c7900a88aedcffc83b479aa3a4 */\n      tag_351\n      swap2\n      swap1\n      tag_259\n      jump\t// in\n    tag_351:\n        /* \"TFGv3/Contracts/libraries/TickMath.sol\":2404:2455  (ratio * 0xfcbe86c7900a88aedcffc83b479aa3a4) >> 128 */\n      swap1\n      shr\n        /* \"TFGv3/Contracts/libraries/TickMath.sol\":2396:2455  ratio = (ratio * 0xfcbe86c7900a88aedcffc83b479aa3a4) >> 128 */\n      swap1\n      pop\n        /* \"TFGv3/Contracts/libraries/TickMath.sol\":2370:2455  if (absTick & 0x100 != 0) ratio = (ratio * 0xfcbe86c7900a88aedcffc83b479aa3a4) >> 128 */\n    tag_350:\n        /* \"TFGv3/Contracts/libraries/TickMath.sol\":2488:2489  0 */\n      0x00\n        /* \"TFGv3/Contracts/libraries/TickMath.sol\":2479:2484  0x200 */\n      0x0200\n        /* \"TFGv3/Contracts/libraries/TickMath.sol\":2469:2476  absTick */\n      dup4\n        /* \"TFGv3/Contracts/libraries/TickMath.sol\":2469:2484  absTick & 0x200 */\n      and\n        /* \"TFGv3/Contracts/libraries/TickMath.sol\":2469:2489  absTick & 0x200 != 0 */\n      eq\n        /* \"TFGv3/Contracts/libraries/TickMath.sol\":2465:2550  if (absTick & 0x200 != 0) ratio = (ratio * 0xf987a7253ac413176f2b074cf7815e54) >> 128 */\n      tag_352\n      jumpi\n        /* \"TFGv3/Contracts/libraries/TickMath.sol\":2547:2550  128 */\n      0x80\n        /* \"TFGv3/Contracts/libraries/TickMath.sol\":2508:2542  0xf987a7253ac413176f2b074cf7815e54 */\n      0xf987a7253ac413176f2b074cf7815e54\n        /* \"TFGv3/Contracts/libraries/TickMath.sol\":2500:2505  ratio */\n      dup3\n        /* \"TFGv3/Contracts/libraries/TickMath.sol\":2500:2542  ratio * 0xf987a7253ac413176f2b074cf7815e54 */\n      tag_353\n      swap2\n      swap1\n      tag_259\n      jump\t// in\n    tag_353:\n        /* \"TFGv3/Contracts/libraries/TickMath.sol\":2499:2550  (ratio * 0xf987a7253ac413176f2b074cf7815e54) >> 128 */\n      swap1\n      shr\n        /* \"TFGv3/Contracts/libraries/TickMath.sol\":2491:2550  ratio = (ratio * 0xf987a7253ac413176f2b074cf7815e54) >> 128 */\n      swap1\n      pop\n        /* \"TFGv3/Contracts/libraries/TickMath.sol\":2465:2550  if (absTick & 0x200 != 0) ratio = (ratio * 0xf987a7253ac413176f2b074cf7815e54) >> 128 */\n    tag_352:\n        /* \"TFGv3/Contracts/libraries/TickMath.sol\":2583:2584  0 */\n      0x00\n        /* \"TFGv3/Contracts/libraries/TickMath.sol\":2574:2579  0x400 */\n      0x0400\n        /* \"TFGv3/Contracts/libraries/TickMath.sol\":2564:2571  absTick */\n      dup4\n        /* \"TFGv3/Contracts/libraries/TickMath.sol\":2564:2579  absTick & 0x400 */\n      and\n        /* \"TFGv3/Contracts/libraries/TickMath.sol\":2564:2584  absTick & 0x400 != 0 */\n      eq\n        /* \"TFGv3/Contracts/libraries/TickMath.sol\":2560:2645  if (absTick & 0x400 != 0) ratio = (ratio * 0xf3392b0822b70005940c7a398e4b70f3) >> 128 */\n      tag_354\n      jumpi\n        /* \"TFGv3/Contracts/libraries/TickMath.sol\":2642:2645  128 */\n      0x80\n        /* \"TFGv3/Contracts/libraries/TickMath.sol\":2603:2637  0xf3392b0822b70005940c7a398e4b70f3 */\n      0xf3392b0822b70005940c7a398e4b70f3\n        /* \"TFGv3/Contracts/libraries/TickMath.sol\":2595:2600  ratio */\n      dup3\n        /* \"TFGv3/Contracts/libraries/TickMath.sol\":2595:2637  ratio * 0xf3392b0822b70005940c7a398e4b70f3 */\n      tag_355\n      swap2\n      swap1\n      tag_259\n      jump\t// in\n    tag_355:\n        /* \"TFGv3/Contracts/libraries/TickMath.sol\":2594:2645  (ratio * 0xf3392b0822b70005940c7a398e4b70f3) >> 128 */\n      swap1\n      shr\n        /* \"TFGv3/Contracts/libraries/TickMath.sol\":2586:2645  ratio = (ratio * 0xf3392b0822b70005940c7a398e4b70f3) >> 128 */\n      swap1\n      pop\n        /* \"TFGv3/Contracts/libraries/TickMath.sol\":2560:2645  if (absTick & 0x400 != 0) ratio = (ratio * 0xf3392b0822b70005940c7a398e4b70f3) >> 128 */\n    tag_354:\n        /* \"TFGv3/Contracts/libraries/TickMath.sol\":2678:2679  0 */\n      0x00\n        /* \"TFGv3/Contracts/libraries/TickMath.sol\":2669:2674  0x800 */\n      0x0800\n        /* \"TFGv3/Contracts/libraries/TickMath.sol\":2659:2666  absTick */\n      dup4\n        /* \"TFGv3/Contracts/libraries/TickMath.sol\":2659:2674  absTick & 0x800 */\n      and\n        /* \"TFGv3/Contracts/libraries/TickMath.sol\":2659:2679  absTick & 0x800 != 0 */\n      eq\n        /* \"TFGv3/Contracts/libraries/TickMath.sol\":2655:2740  if (absTick & 0x800 != 0) ratio = (ratio * 0xe7159475a2c29b7443b29c7fa6e889d9) >> 128 */\n      tag_356\n      jumpi\n        /* \"TFGv3/Contracts/libraries/TickMath.sol\":2737:2740  128 */\n      0x80\n        /* \"TFGv3/Contracts/libraries/TickMath.sol\":2698:2732  0xe7159475a2c29b7443b29c7fa6e889d9 */\n      0xe7159475a2c29b7443b29c7fa6e889d9\n        /* \"TFGv3/Contracts/libraries/TickMath.sol\":2690:2695  ratio */\n      dup3\n        /* \"TFGv3/Contracts/libraries/TickMath.sol\":2690:2732  ratio * 0xe7159475a2c29b7443b29c7fa6e889d9 */\n      tag_357\n      swap2\n      swap1\n      tag_259\n      jump\t// in\n    tag_357:\n        /* \"TFGv3/Contracts/libraries/TickMath.sol\":2689:2740  (ratio * 0xe7159475a2c29b7443b29c7fa6e889d9) >> 128 */\n      swap1\n      shr\n        /* \"TFGv3/Contracts/libraries/TickMath.sol\":2681:2740  ratio = (ratio * 0xe7159475a2c29b7443b29c7fa6e889d9) >> 128 */\n      swap1\n      pop\n        /* \"TFGv3/Contracts/libraries/TickMath.sol\":2655:2740  if (absTick & 0x800 != 0) ratio = (ratio * 0xe7159475a2c29b7443b29c7fa6e889d9) >> 128 */\n    tag_356:\n        /* \"TFGv3/Contracts/libraries/TickMath.sol\":2774:2775  0 */\n      0x00\n        /* \"TFGv3/Contracts/libraries/TickMath.sol\":2764:2770  0x1000 */\n      0x1000\n        /* \"TFGv3/Contracts/libraries/TickMath.sol\":2754:2761  absTick */\n      dup4\n        /* \"TFGv3/Contracts/libraries/TickMath.sol\":2754:2770  absTick & 0x1000 */\n      and\n        /* \"TFGv3/Contracts/libraries/TickMath.sol\":2754:2775  absTick & 0x1000 != 0 */\n      eq\n        /* \"TFGv3/Contracts/libraries/TickMath.sol\":2750:2836  if (absTick & 0x1000 != 0) ratio = (ratio * 0xd097f3bdfd2022b8845ad8f792aa5825) >> 128 */\n      tag_358\n      jumpi\n        /* \"TFGv3/Contracts/libraries/TickMath.sol\":2833:2836  128 */\n      0x80\n        /* \"TFGv3/Contracts/libraries/TickMath.sol\":2794:2828  0xd097f3bdfd2022b8845ad8f792aa5825 */\n      0xd097f3bdfd2022b8845ad8f792aa5825\n        /* \"TFGv3/Contracts/libraries/TickMath.sol\":2786:2791  ratio */\n      dup3\n        /* \"TFGv3/Contracts/libraries/TickMath.sol\":2786:2828  ratio * 0xd097f3bdfd2022b8845ad8f792aa5825 */\n      tag_359\n      swap2\n      swap1\n      tag_259\n      jump\t// in\n    tag_359:\n        /* \"TFGv3/Contracts/libraries/TickMath.sol\":2785:2836  (ratio * 0xd097f3bdfd2022b8845ad8f792aa5825) >> 128 */\n      swap1\n      shr\n        /* \"TFGv3/Contracts/libraries/TickMath.sol\":2777:2836  ratio = (ratio * 0xd097f3bdfd2022b8845ad8f792aa5825) >> 128 */\n      swap1\n      pop\n        /* \"TFGv3/Contracts/libraries/TickMath.sol\":2750:2836  if (absTick & 0x1000 != 0) ratio = (ratio * 0xd097f3bdfd2022b8845ad8f792aa5825) >> 128 */\n    tag_358:\n        /* \"TFGv3/Contracts/libraries/TickMath.sol\":2870:2871  0 */\n      0x00\n        /* \"TFGv3/Contracts/libraries/TickMath.sol\":2860:2866  0x2000 */\n      0x2000\n        /* \"TFGv3/Contracts/libraries/TickMath.sol\":2850:2857  absTick */\n      dup4\n        /* \"TFGv3/Contracts/libraries/TickMath.sol\":2850:2866  absTick & 0x2000 */\n      and\n        /* \"TFGv3/Contracts/libraries/TickMath.sol\":2850:2871  absTick & 0x2000 != 0 */\n      eq\n        /* \"TFGv3/Contracts/libraries/TickMath.sol\":2846:2932  if (absTick & 0x2000 != 0) ratio = (ratio * 0xa9f746462d870fdf8a65dc1f90e061e5) >> 128 */\n      tag_360\n      jumpi\n        /* \"TFGv3/Contracts/libraries/TickMath.sol\":2929:2932  128 */\n      0x80\n        /* \"TFGv3/Contracts/libraries/TickMath.sol\":2890:2924  0xa9f746462d870fdf8a65dc1f90e061e5 */\n      0xa9f746462d870fdf8a65dc1f90e061e5\n        /* \"TFGv3/Contracts/libraries/TickMath.sol\":2882:2887  ratio */\n      dup3\n        /* \"TFGv3/Contracts/libraries/TickMath.sol\":2882:2924  ratio * 0xa9f746462d870fdf8a65dc1f90e061e5 */\n      tag_361\n      swap2\n      swap1\n      tag_259\n      jump\t// in\n    tag_361:\n        /* \"TFGv3/Contracts/libraries/TickMath.sol\":2881:2932  (ratio * 0xa9f746462d870fdf8a65dc1f90e061e5) >> 128 */\n      swap1\n      shr\n        /* \"TFGv3/Contracts/libraries/TickMath.sol\":2873:2932  ratio = (ratio * 0xa9f746462d870fdf8a65dc1f90e061e5) >> 128 */\n      swap1\n      pop\n        /* \"TFGv3/Contracts/libraries/TickMath.sol\":2846:2932  if (absTick & 0x2000 != 0) ratio = (ratio * 0xa9f746462d870fdf8a65dc1f90e061e5) >> 128 */\n    tag_360:\n        /* \"TFGv3/Contracts/libraries/TickMath.sol\":2966:2967  0 */\n      0x00\n        /* \"TFGv3/Contracts/libraries/TickMath.sol\":2956:2962  0x4000 */\n      0x4000\n        /* \"TFGv3/Contracts/libraries/TickMath.sol\":2946:2953  absTick */\n      dup4\n        /* \"TFGv3/Contracts/libraries/TickMath.sol\":2946:2962  absTick & 0x4000 */\n      and\n        /* \"TFGv3/Contracts/libraries/TickMath.sol\":2946:2967  absTick & 0x4000 != 0 */\n      eq\n        /* \"TFGv3/Contracts/libraries/TickMath.sol\":2942:3028  if (absTick & 0x4000 != 0) ratio = (ratio * 0x70d869a156d2a1b890bb3df62baf32f7) >> 128 */\n      tag_362\n      jumpi\n        /* \"TFGv3/Contracts/libraries/TickMath.sol\":3025:3028  128 */\n      0x80\n        /* \"TFGv3/Contracts/libraries/TickMath.sol\":2986:3020  0x70d869a156d2a1b890bb3df62baf32f7 */\n      0x70d869a156d2a1b890bb3df62baf32f7\n        /* \"TFGv3/Contracts/libraries/TickMath.sol\":2978:2983  ratio */\n      dup3\n        /* \"TFGv3/Contracts/libraries/TickMath.sol\":2978:3020  ratio * 0x70d869a156d2a1b890bb3df62baf32f7 */\n      tag_363\n      swap2\n      swap1\n      tag_259\n      jump\t// in\n    tag_363:\n        /* \"TFGv3/Contracts/libraries/TickMath.sol\":2977:3028  (ratio * 0x70d869a156d2a1b890bb3df62baf32f7) >> 128 */\n      swap1\n      shr\n        /* \"TFGv3/Contracts/libraries/TickMath.sol\":2969:3028  ratio = (ratio * 0x70d869a156d2a1b890bb3df62baf32f7) >> 128 */\n      swap1\n      pop\n        /* \"TFGv3/Contracts/libraries/TickMath.sol\":2942:3028  if (absTick & 0x4000 != 0) ratio = (ratio * 0x70d869a156d2a1b890bb3df62baf32f7) >> 128 */\n    tag_362:\n        /* \"TFGv3/Contracts/libraries/TickMath.sol\":3062:3063  0 */\n      0x00\n        /* \"TFGv3/Contracts/libraries/TickMath.sol\":3052:3058  0x8000 */\n      0x8000\n        /* \"TFGv3/Contracts/libraries/TickMath.sol\":3042:3049  absTick */\n      dup4\n        /* \"TFGv3/Contracts/libraries/TickMath.sol\":3042:3058  absTick & 0x8000 */\n      and\n        /* \"TFGv3/Contracts/libraries/TickMath.sol\":3042:3063  absTick & 0x8000 != 0 */\n      eq\n        /* \"TFGv3/Contracts/libraries/TickMath.sol\":3038:3124  if (absTick & 0x8000 != 0) ratio = (ratio * 0x31be135f97d08fd981231505542fcfa6) >> 128 */\n      tag_364\n      jumpi\n        /* \"TFGv3/Contracts/libraries/TickMath.sol\":3121:3124  128 */\n      0x80\n        /* \"TFGv3/Contracts/libraries/TickMath.sol\":3082:3116  0x31be135f97d08fd981231505542fcfa6 */\n      0x31be135f97d08fd981231505542fcfa6\n        /* \"TFGv3/Contracts/libraries/TickMath.sol\":3074:3079  ratio */\n      dup3\n        /* \"TFGv3/Contracts/libraries/TickMath.sol\":3074:3116  ratio * 0x31be135f97d08fd981231505542fcfa6 */\n      tag_365\n      swap2\n      swap1\n      tag_259\n      jump\t// in\n    tag_365:\n        /* \"TFGv3/Contracts/libraries/TickMath.sol\":3073:3124  (ratio * 0x31be135f97d08fd981231505542fcfa6) >> 128 */\n      swap1\n      shr\n        /* \"TFGv3/Contracts/libraries/TickMath.sol\":3065:3124  ratio = (ratio * 0x31be135f97d08fd981231505542fcfa6) >> 128 */\n      swap1\n      pop\n        /* \"TFGv3/Contracts/libraries/TickMath.sol\":3038:3124  if (absTick & 0x8000 != 0) ratio = (ratio * 0x31be135f97d08fd981231505542fcfa6) >> 128 */\n    tag_364:\n        /* \"TFGv3/Contracts/libraries/TickMath.sol\":3159:3160  0 */\n      0x00\n        /* \"TFGv3/Contracts/libraries/TickMath.sol\":3148:3155  0x10000 */\n      0x010000\n        /* \"TFGv3/Contracts/libraries/TickMath.sol\":3138:3145  absTick */\n      dup4\n        /* \"TFGv3/Contracts/libraries/TickMath.sol\":3138:3155  absTick & 0x10000 */\n      and\n        /* \"TFGv3/Contracts/libraries/TickMath.sol\":3138:3160  absTick & 0x10000 != 0 */\n      eq\n        /* \"TFGv3/Contracts/libraries/TickMath.sol\":3134:3220  if (absTick & 0x10000 != 0) ratio = (ratio * 0x9aa508b5b7a84e1c677de54f3e99bc9) >> 128 */\n      tag_366\n      jumpi\n        /* \"TFGv3/Contracts/libraries/TickMath.sol\":3217:3220  128 */\n      0x80\n        /* \"TFGv3/Contracts/libraries/TickMath.sol\":3179:3212  0x9aa508b5b7a84e1c677de54f3e99bc9 */\n      0x09aa508b5b7a84e1c677de54f3e99bc9\n        /* \"TFGv3/Contracts/libraries/TickMath.sol\":3171:3176  ratio */\n      dup3\n        /* \"TFGv3/Contracts/libraries/TickMath.sol\":3171:3212  ratio * 0x9aa508b5b7a84e1c677de54f3e99bc9 */\n      tag_367\n      swap2\n      swap1\n      tag_259\n      jump\t// in\n    tag_367:\n        /* \"TFGv3/Contracts/libraries/TickMath.sol\":3170:3220  (ratio * 0x9aa508b5b7a84e1c677de54f3e99bc9) >> 128 */\n      swap1\n      shr\n        /* \"TFGv3/Contracts/libraries/TickMath.sol\":3162:3220  ratio = (ratio * 0x9aa508b5b7a84e1c677de54f3e99bc9) >> 128 */\n      swap1\n      pop\n        /* \"TFGv3/Contracts/libraries/TickMath.sol\":3134:3220  if (absTick & 0x10000 != 0) ratio = (ratio * 0x9aa508b5b7a84e1c677de54f3e99bc9) >> 128 */\n    tag_366:\n        /* \"TFGv3/Contracts/libraries/TickMath.sol\":3255:3256  0 */\n      0x00\n        /* \"TFGv3/Contracts/libraries/TickMath.sol\":3244:3251  0x20000 */\n      0x020000\n        /* \"TFGv3/Contracts/libraries/TickMath.sol\":3234:3241  absTick */\n      dup4\n        /* \"TFGv3/Contracts/libraries/TickMath.sol\":3234:3251  absTick & 0x20000 */\n      and\n        /* \"TFGv3/Contracts/libraries/TickMath.sol\":3234:3256  absTick & 0x20000 != 0 */\n      eq\n        /* \"TFGv3/Contracts/libraries/TickMath.sol\":3230:3315  if (absTick & 0x20000 != 0) ratio = (ratio * 0x5d6af8dedb81196699c329225ee604) >> 128 */\n      tag_368\n      jumpi\n        /* \"TFGv3/Contracts/libraries/TickMath.sol\":3312:3315  128 */\n      0x80\n        /* \"TFGv3/Contracts/libraries/TickMath.sol\":3275:3307  0x5d6af8dedb81196699c329225ee604 */\n      0x5d6af8dedb81196699c329225ee604\n        /* \"TFGv3/Contracts/libraries/TickMath.sol\":3267:3272  ratio */\n      dup3\n        /* \"TFGv3/Contracts/libraries/TickMath.sol\":3267:3307  ratio * 0x5d6af8dedb81196699c329225ee604 */\n      tag_369\n      swap2\n      swap1\n      tag_259\n      jump\t// in\n    tag_369:\n        /* \"TFGv3/Contracts/libraries/TickMath.sol\":3266:3315  (ratio * 0x5d6af8dedb81196699c329225ee604) >> 128 */\n      swap1\n      shr\n        /* \"TFGv3/Contracts/libraries/TickMath.sol\":3258:3315  ratio = (ratio * 0x5d6af8dedb81196699c329225ee604) >> 128 */\n      swap1\n      pop\n        /* \"TFGv3/Contracts/libraries/TickMath.sol\":3230:3315  if (absTick & 0x20000 != 0) ratio = (ratio * 0x5d6af8dedb81196699c329225ee604) >> 128 */\n    tag_368:\n        /* \"TFGv3/Contracts/libraries/TickMath.sol\":3350:3351  0 */\n      0x00\n        /* \"TFGv3/Contracts/libraries/TickMath.sol\":3339:3346  0x40000 */\n      0x040000\n        /* \"TFGv3/Contracts/libraries/TickMath.sol\":3329:3336  absTick */\n      dup4\n        /* \"TFGv3/Contracts/libraries/TickMath.sol\":3329:3346  absTick & 0x40000 */\n      and\n        /* \"TFGv3/Contracts/libraries/TickMath.sol\":3329:3351  absTick & 0x40000 != 0 */\n      eq\n        /* \"TFGv3/Contracts/libraries/TickMath.sol\":3325:3408  if (absTick & 0x40000 != 0) ratio = (ratio * 0x2216e584f5fa1ea926041bedfe98) >> 128 */\n      tag_370\n      jumpi\n        /* \"TFGv3/Contracts/libraries/TickMath.sol\":3405:3408  128 */\n      0x80\n        /* \"TFGv3/Contracts/libraries/TickMath.sol\":3370:3400  0x2216e584f5fa1ea926041bedfe98 */\n      0x2216e584f5fa1ea926041bedfe98\n        /* \"TFGv3/Contracts/libraries/TickMath.sol\":3362:3367  ratio */\n      dup3\n        /* \"TFGv3/Contracts/libraries/TickMath.sol\":3362:3400  ratio * 0x2216e584f5fa1ea926041bedfe98 */\n      tag_371\n      swap2\n      swap1\n      tag_259\n      jump\t// in\n    tag_371:\n        /* \"TFGv3/Contracts/libraries/TickMath.sol\":3361:3408  (ratio * 0x2216e584f5fa1ea926041bedfe98) >> 128 */\n      swap1\n      shr\n        /* \"TFGv3/Contracts/libraries/TickMath.sol\":3353:3408  ratio = (ratio * 0x2216e584f5fa1ea926041bedfe98) >> 128 */\n      swap1\n      pop\n        /* \"TFGv3/Contracts/libraries/TickMath.sol\":3325:3408  if (absTick & 0x40000 != 0) ratio = (ratio * 0x2216e584f5fa1ea926041bedfe98) >> 128 */\n    tag_370:\n        /* \"TFGv3/Contracts/libraries/TickMath.sol\":3443:3444  0 */\n      0x00\n        /* \"TFGv3/Contracts/libraries/TickMath.sol\":3432:3439  0x80000 */\n      0x080000\n        /* \"TFGv3/Contracts/libraries/TickMath.sol\":3422:3429  absTick */\n      dup4\n        /* \"TFGv3/Contracts/libraries/TickMath.sol\":3422:3439  absTick & 0x80000 */\n      and\n        /* \"TFGv3/Contracts/libraries/TickMath.sol\":3422:3444  absTick & 0x80000 != 0 */\n      eq\n        /* \"TFGv3/Contracts/libraries/TickMath.sol\":3418:3496  if (absTick & 0x80000 != 0) ratio = (ratio * 0x48a170391f7dc42444e8fa2) >> 128 */\n      tag_372\n      jumpi\n        /* \"TFGv3/Contracts/libraries/TickMath.sol\":3493:3496  128 */\n      0x80\n        /* \"TFGv3/Contracts/libraries/TickMath.sol\":3463:3488  0x48a170391f7dc42444e8fa2 */\n      0x048a170391f7dc42444e8fa2\n        /* \"TFGv3/Contracts/libraries/TickMath.sol\":3455:3460  ratio */\n      dup3\n        /* \"TFGv3/Contracts/libraries/TickMath.sol\":3455:3488  ratio * 0x48a170391f7dc42444e8fa2 */\n      tag_373\n      swap2\n      swap1\n      tag_259\n      jump\t// in\n    tag_373:\n        /* \"TFGv3/Contracts/libraries/TickMath.sol\":3454:3496  (ratio * 0x48a170391f7dc42444e8fa2) >> 128 */\n      swap1\n      shr\n        /* \"TFGv3/Contracts/libraries/TickMath.sol\":3446:3496  ratio = (ratio * 0x48a170391f7dc42444e8fa2) >> 128 */\n      swap1\n      pop\n        /* \"TFGv3/Contracts/libraries/TickMath.sol\":3418:3496  if (absTick & 0x80000 != 0) ratio = (ratio * 0x48a170391f7dc42444e8fa2) >> 128 */\n    tag_372:\n        /* \"TFGv3/Contracts/libraries/TickMath.sol\":3518:3519  0 */\n      0x00\n        /* \"TFGv3/Contracts/libraries/TickMath.sol\":3511:3515  tick */\n      dup5\n        /* \"TFGv3/Contracts/libraries/TickMath.sol\":3511:3519  tick > 0 */\n      0x02\n      signextend\n      sgt\n        /* \"TFGv3/Contracts/libraries/TickMath.sol\":3507:3554  if (tick > 0) ratio = type(uint256).max / ratio */\n      iszero\n      tag_374\n      jumpi\n        /* \"TFGv3/Contracts/libraries/TickMath.sol\":3549:3554  ratio */\n      dup1\n        /* \"TFGv3/Contracts/libraries/TickMath.sol\":3529:3546  type(uint256).max */\n      0xffffffffffffffffffffffffffffffffffffffffffffffffffffffffffffffff\n        /* \"TFGv3/Contracts/libraries/TickMath.sol\":3529:3554  type(uint256).max / ratio */\n      tag_375\n      swap2\n      swap1\n      tag_197\n      jump\t// in\n    tag_375:\n        /* \"TFGv3/Contracts/libraries/TickMath.sol\":3521:3554  ratio = type(uint256).max / ratio */\n      swap1\n      pop\n        /* \"TFGv3/Contracts/libraries/TickMath.sol\":3507:3554  if (tick > 0) ratio = type(uint256).max / ratio */\n    tag_374:\n        /* \"TFGv3/Contracts/libraries/TickMath.sol\":3925:3926  0 */\n      0x00\n        /* \"TFGv3/Contracts/libraries/TickMath.sol\":3913:3920  1 << 32 */\n      0x0100000000\n        /* \"TFGv3/Contracts/libraries/TickMath.sol\":3904:3909  ratio */\n      dup3\n        /* \"TFGv3/Contracts/libraries/TickMath.sol\":3904:3921  ratio % (1 << 32) */\n      tag_376\n      swap2\n      swap1\n      tag_377\n      jump\t// in\n    tag_376:\n        /* \"TFGv3/Contracts/libraries/TickMath.sol\":3904:3926  ratio % (1 << 32) == 0 */\n      eq\n        /* \"TFGv3/Contracts/libraries/TickMath.sol\":3904:3934  ratio % (1 << 32) == 0 ? 0 : 1 */\n      tag_378\n      jumpi\n        /* \"TFGv3/Contracts/libraries/TickMath.sol\":3933:3934  1 */\n      0x01\n        /* \"TFGv3/Contracts/libraries/TickMath.sol\":3904:3934  ratio % (1 << 32) == 0 ? 0 : 1 */\n      jump(tag_379)\n    tag_378:\n        /* \"TFGv3/Contracts/libraries/TickMath.sol\":3929:3930  0 */\n      0x00\n        /* \"TFGv3/Contracts/libraries/TickMath.sol\":3904:3934  ratio % (1 << 32) == 0 ? 0 : 1 */\n    tag_379:\n        /* \"TFGv3/Contracts/libraries/TickMath.sol\":3887:3935  (ratio >> 32) + (ratio % (1 << 32) == 0 ? 0 : 1) */\n      0xff\n      and\n        /* \"TFGv3/Contracts/libraries/TickMath.sol\":3897:3899  32 */\n      0x20\n        /* \"TFGv3/Contracts/libraries/TickMath.sol\":3888:3893  ratio */\n      dup3\n        /* \"TFGv3/Contracts/libraries/TickMath.sol\":3888:3899  ratio >> 32 */\n      swap1\n      shr\n        /* \"TFGv3/Contracts/libraries/TickMath.sol\":3887:3935  (ratio >> 32) + (ratio % (1 << 32) == 0 ? 0 : 1) */\n      tag_380\n      swap2\n      swap1\n      tag_261\n      jump\t// in\n    tag_380:\n        /* \"TFGv3/Contracts/libraries/TickMath.sol\":3864:3936  sqrtPriceX96 = uint160((ratio >> 32) + (ratio % (1 << 32) == 0 ? 0 : 1)) */\n      swap3\n      pop\n        /* \"TFGv3/Contracts/libraries/TickMath.sol\":1440:3943  {... */\n      pop\n      pop\n        /* \"TFGv3/Contracts/libraries/TickMath.sol\":1355:3943  function getSqrtRatioAtTick(int24 tick) internal pure returns (uint160 sqrtPriceX96) {... */\n      swap2\n      swap1\n      pop\n      jump\t// out\n        /* \"TFGv3/Contracts/libraries/FullMath.sol\":742:4543  function mulDiv(... */\n    tag_315:\n        /* \"TFGv3/Contracts/libraries/FullMath.sol\":854:868  uint256 result */\n      0x00\n        /* \"TFGv3/Contracts/libraries/FullMath.sol\":1183:1196  uint256 prod0 */\n      dup1\n        /* \"TFGv3/Contracts/libraries/FullMath.sol\":1251:1264  uint256 prod1 */\n      0x00\n        /* \"TFGv3/Contracts/libraries/FullMath.sol\":1368:1369  0 */\n      dup1\n        /* \"TFGv3/Contracts/libraries/FullMath.sol\":1364:1370  not(0) */\n      not\n        /* \"TFGv3/Contracts/libraries/FullMath.sol\":1361:1362  b */\n      dup6\n        /* \"TFGv3/Contracts/libraries/FullMath.sol\":1358:1359  a */\n      dup8\n        /* \"TFGv3/Contracts/libraries/FullMath.sol\":1351:1371  mulmod(a, b, not(0)) */\n      mulmod\n        /* \"TFGv3/Contracts/libraries/FullMath.sol\":1400:1401  b */\n      dup6\n        /* \"TFGv3/Contracts/libraries/FullMath.sol\":1397:1398  a */\n      dup8\n        /* \"TFGv3/Contracts/libraries/FullMath.sol\":1393:1402  mul(a, b) */\n      mul\n        /* \"TFGv3/Contracts/libraries/FullMath.sol\":1384:1402  prod0 := mul(a, b) */\n      swap3\n      pop\n        /* \"TFGv3/Contracts/libraries/FullMath.sol\":1451:1456  prod0 */\n      dup3\n        /* \"TFGv3/Contracts/libraries/FullMath.sol\":1447:1449  mm */\n      dup2\n        /* \"TFGv3/Contracts/libraries/FullMath.sol\":1444:1457  lt(mm, prod0) */\n      lt\n        /* \"TFGv3/Contracts/libraries/FullMath.sol\":1436:1441  prod0 */\n      dup4\n        /* \"TFGv3/Contracts/libraries/FullMath.sol\":1432:1434  mm */\n      dup3\n        /* \"TFGv3/Contracts/libraries/FullMath.sol\":1428:1442  sub(mm, prod0) */\n      sub\n        /* \"TFGv3/Contracts/libraries/FullMath.sol\":1424:1458  sub(sub(mm, prod0), lt(mm, prod0)) */\n      sub\n        /* \"TFGv3/Contracts/libraries/FullMath.sol\":1415:1458  prod1 := sub(sub(mm, prod0), lt(mm, prod0)) */\n      swap2\n      pop\n        /* \"TFGv3/Contracts/libraries/FullMath.sol\":1327:1468  {... */\n      pop\n        /* \"TFGv3/Contracts/libraries/FullMath.sol\":1549:1550  0 */\n      0x00\n        /* \"TFGv3/Contracts/libraries/FullMath.sol\":1540:1545  prod1 */\n      dup2\n        /* \"TFGv3/Contracts/libraries/FullMath.sol\":1540:1550  prod1 == 0 */\n      sub\n        /* \"TFGv3/Contracts/libraries/FullMath.sol\":1536:1715  if (prod1 == 0) {... */\n      tag_382\n      jumpi\n        /* \"TFGv3/Contracts/libraries/FullMath.sol\":1588:1589  0 */\n      0x00\n        /* \"TFGv3/Contracts/libraries/FullMath.sol\":1574:1585  denominator */\n      dup5\n        /* \"TFGv3/Contracts/libraries/FullMath.sol\":1574:1589  denominator > 0 */\n      gt\n        /* \"TFGv3/Contracts/libraries/FullMath.sol\":1566:1590  require(denominator > 0) */\n      tag_383\n      jumpi\n      0x00\n      dup1\n      revert\n    tag_383:\n        /* \"TFGv3/Contracts/libraries/FullMath.sol\":1652:1663  denominator */\n      dup4\n        /* \"TFGv3/Contracts/libraries/FullMath.sol\":1645:1650  prod0 */\n      dup3\n        /* \"TFGv3/Contracts/libraries/FullMath.sol\":1641:1664  div(prod0, denominator) */\n      div\n        /* \"TFGv3/Contracts/libraries/FullMath.sol\":1631:1664  result := div(prod0, denominator) */\n      swap3\n      pop\n        /* \"TFGv3/Contracts/libraries/FullMath.sol\":1691:1704  return result */\n      pop\n      pop\n      jump(tag_381)\n        /* \"TFGv3/Contracts/libraries/FullMath.sol\":1536:1715  if (prod1 == 0) {... */\n    tag_382:\n        /* \"TFGv3/Contracts/libraries/FullMath.sol\":1842:1847  prod1 */\n      dup1\n        /* \"TFGv3/Contracts/libraries/FullMath.sol\":1828:1839  denominator */\n      dup5\n        /* \"TFGv3/Contracts/libraries/FullMath.sol\":1828:1847  denominator > prod1 */\n      gt\n        /* \"TFGv3/Contracts/libraries/FullMath.sol\":1820:1848  require(denominator > prod1) */\n      tag_384\n      jumpi\n      0x00\n      dup1\n      revert\n    tag_384:\n        /* \"TFGv3/Contracts/libraries/FullMath.sol\":2125:2142  uint256 remainder */\n      0x00\n        /* \"TFGv3/Contracts/libraries/FullMath.sol\":2201:2212  denominator */\n      dup5\n        /* \"TFGv3/Contracts/libraries/FullMath.sol\":2198:2199  b */\n      dup7\n        /* \"TFGv3/Contracts/libraries/FullMath.sol\":2195:2196  a */\n      dup9\n        /* \"TFGv3/Contracts/libraries/FullMath.sol\":2188:2213  mulmod(a, b, denominator) */\n      mulmod\n        /* \"TFGv3/Contracts/libraries/FullMath.sol\":2175:2213  remainder := mulmod(a, b, denominator) */\n      swap1\n      pop\n        /* \"TFGv3/Contracts/libraries/FullMath.sol\":2344:2349  prod0 */\n      dup3\n        /* \"TFGv3/Contracts/libraries/FullMath.sol\":2333:2342  remainder */\n      dup2\n        /* \"TFGv3/Contracts/libraries/FullMath.sol\":2330:2350  gt(remainder, prod0) */\n      gt\n        /* \"TFGv3/Contracts/libraries/FullMath.sol\":2323:2328  prod1 */\n      dup3\n        /* \"TFGv3/Contracts/libraries/FullMath.sol\":2319:2351  sub(prod1, gt(remainder, prod0)) */\n      sub\n        /* \"TFGv3/Contracts/libraries/FullMath.sol\":2310:2351  prod1 := sub(prod1, gt(remainder, prod0)) */\n      swap2\n      pop\n        /* \"TFGv3/Contracts/libraries/FullMath.sol\":2384:2393  remainder */\n      dup1\n        /* \"TFGv3/Contracts/libraries/FullMath.sol\":2377:2382  prod0 */\n      dup4\n        /* \"TFGv3/Contracts/libraries/FullMath.sol\":2373:2394  sub(prod0, remainder) */\n      sub\n        /* \"TFGv3/Contracts/libraries/FullMath.sol\":2364:2394  prod0 := sub(prod0, remainder) */\n      swap3\n      pop\n        /* \"TFGv3/Contracts/libraries/FullMath.sol\":2553:2565  uint256 twos */\n      0x00\n        /* \"TFGv3/Contracts/libraries/FullMath.sol\":2608:2619  denominator */\n      dup6\n        /* \"TFGv3/Contracts/libraries/FullMath.sol\":2603:2604  1 */\n      0x01\n        /* \"TFGv3/Contracts/libraries/FullMath.sol\":2589:2600  denominator */\n      dup8\n        /* \"TFGv3/Contracts/libraries/FullMath.sol\":2569:2586  type(uint256).max */\n      0xffffffffffffffffffffffffffffffffffffffffffffffffffffffffffffffff\n        /* \"TFGv3/Contracts/libraries/FullMath.sol\":2569:2600  type(uint256).max - denominator */\n      tag_385\n      swap2\n      swap1\n      tag_108\n      jump\t// in\n    tag_385:\n        /* \"TFGv3/Contracts/libraries/FullMath.sol\":2569:2604  type(uint256).max - denominator + 1 */\n      tag_386\n      swap2\n      swap1\n      tag_261\n      jump\t// in\n    tag_386:\n        /* \"TFGv3/Contracts/libraries/FullMath.sol\":2568:2619  (type(uint256).max - denominator + 1) & denominator */\n      and\n        /* \"TFGv3/Contracts/libraries/FullMath.sol\":2553:2619  uint256 twos = (type(uint256).max - denominator + 1) & denominator */\n      swap1\n      pop\n        /* \"TFGv3/Contracts/libraries/FullMath.sol\":2730:2734  twos */\n      dup1\n        /* \"TFGv3/Contracts/libraries/FullMath.sol\":2717:2728  denominator */\n      dup7\n        /* \"TFGv3/Contracts/libraries/FullMath.sol\":2713:2735  div(denominator, twos) */\n      div\n        /* \"TFGv3/Contracts/libraries/FullMath.sol\":2698:2735  denominator := div(denominator, twos) */\n      swap6\n      pop\n        /* \"TFGv3/Contracts/libraries/FullMath.sol\":2852:2856  twos */\n      dup1\n        /* \"TFGv3/Contracts/libraries/FullMath.sol\":2845:2850  prod0 */\n      dup5\n        /* \"TFGv3/Contracts/libraries/FullMath.sol\":2841:2857  div(prod0, twos) */\n      div\n        /* \"TFGv3/Contracts/libraries/FullMath.sol\":2832:2857  prod0 := div(prod0, twos) */\n      swap4\n      pop\n        /* \"TFGv3/Contracts/libraries/FullMath.sol\":3106:3107  1 */\n      0x01\n        /* \"TFGv3/Contracts/libraries/FullMath.sol\":3099:3103  twos */\n      dup2\n        /* \"TFGv3/Contracts/libraries/FullMath.sol\":3092:3096  twos */\n      dup3\n        /* \"TFGv3/Contracts/libraries/FullMath.sol\":3089:3090  0 */\n      0x00\n        /* \"TFGv3/Contracts/libraries/FullMath.sol\":3085:3097  sub(0, twos) */\n      sub\n        /* \"TFGv3/Contracts/libraries/FullMath.sol\":3081:3104  div(sub(0, twos), twos) */\n      div\n        /* \"TFGv3/Contracts/libraries/FullMath.sol\":3077:3108  add(div(sub(0, twos), twos), 1) */\n      add\n        /* \"TFGv3/Contracts/libraries/FullMath.sol\":3069:3108  twos := add(div(sub(0, twos), twos), 1) */\n      swap1\n      pop\n        /* \"TFGv3/Contracts/libraries/FullMath.sol\":3144:3148  twos */\n      dup1\n        /* \"TFGv3/Contracts/libraries/FullMath.sol\":3136:3141  prod1 */\n      dup4\n        /* \"TFGv3/Contracts/libraries/FullMath.sol\":3136:3148  prod1 * twos */\n      tag_387\n      swap2\n      swap1\n      tag_259\n      jump\t// in\n    tag_387:\n        /* \"TFGv3/Contracts/libraries/FullMath.sol\":3127:3148  prod0 |= prod1 * twos */\n      dup5\n      or\n      swap4\n      pop\n        /* \"TFGv3/Contracts/libraries/FullMath.sol\":3482:3493  uint256 inv */\n      0x00\n        /* \"TFGv3/Contracts/libraries/FullMath.sol\":3516:3517  2 */\n      0x02\n        /* \"TFGv3/Contracts/libraries/FullMath.sol\":3501:3512  denominator */\n      dup8\n        /* \"TFGv3/Contracts/libraries/FullMath.sol\":3497:3498  3 */\n      0x03\n        /* \"TFGv3/Contracts/libraries/FullMath.sol\":3497:3512  3 * denominator */\n      tag_388\n      swap2\n      swap1\n      tag_259\n      jump\t// in\n    tag_388:\n        /* \"TFGv3/Contracts/libraries/FullMath.sol\":3496:3517  (3 * denominator) ^ 2 */\n      xor\n        /* \"TFGv3/Contracts/libraries/FullMath.sol\":3482:3517  uint256 inv = (3 * denominator) ^ 2 */\n      swap1\n      pop\n        /* \"TFGv3/Contracts/libraries/FullMath.sol\":3757:3760  inv */\n      dup1\n        /* \"TFGv3/Contracts/libraries/FullMath.sol\":3743:3754  denominator */\n      dup8\n        /* \"TFGv3/Contracts/libraries/FullMath.sol\":3743:3760  denominator * inv */\n      tag_389\n      swap2\n      swap1\n      tag_259\n      jump\t// in\n    tag_389:\n        /* \"TFGv3/Contracts/libraries/FullMath.sol\":3739:3740  2 */\n      0x02\n        /* \"TFGv3/Contracts/libraries/FullMath.sol\":3739:3760  2 - denominator * inv */\n      tag_390\n      swap2\n      swap1\n      tag_108\n      jump\t// in\n    tag_390:\n        /* \"TFGv3/Contracts/libraries/FullMath.sol\":3732:3760  inv *= 2 - denominator * inv */\n      dup2\n      tag_391\n      swap2\n      swap1\n      tag_259\n      jump\t// in\n    tag_391:\n      swap1\n      pop\n        /* \"TFGv3/Contracts/libraries/FullMath.sol\":3815:3818  inv */\n      dup1\n        /* \"TFGv3/Contracts/libraries/FullMath.sol\":3801:3812  denominator */\n      dup8\n        /* \"TFGv3/Contracts/libraries/FullMath.sol\":3801:3818  denominator * inv */\n      tag_392\n      swap2\n      swap1\n      tag_259\n      jump\t// in\n    tag_392:\n        /* \"TFGv3/Contracts/libraries/FullMath.sol\":3797:3798  2 */\n      0x02\n        /* \"TFGv3/Contracts/libraries/FullMath.sol\":3797:3818  2 - denominator * inv */\n      tag_393\n      swap2\n      swap1\n      tag_108\n      jump\t// in\n    tag_393:\n        /* \"TFGv3/Contracts/libraries/FullMath.sol\":3790:3818  inv *= 2 - denominator * inv */\n      dup2\n      tag_394\n      swap2\n      swap1\n      tag_259\n      jump\t// in\n    tag_394:\n      swap1\n      pop\n        /* \"TFGv3/Contracts/libraries/FullMath.sol\":3874:3877  inv */\n      dup1\n        /* \"TFGv3/Contracts/libraries/FullMath.sol\":3860:3871  denominator */\n      dup8\n        /* \"TFGv3/Contracts/libraries/FullMath.sol\":3860:3877  denominator * inv */\n      tag_395\n      swap2\n      swap1\n      tag_259\n      jump\t// in\n    tag_395:\n        /* \"TFGv3/Contracts/libraries/FullMath.sol\":3856:3857  2 */\n      0x02\n        /* \"TFGv3/Contracts/libraries/FullMath.sol\":3856:3877  2 - denominator * inv */\n      tag_396\n      swap2\n      swap1\n      tag_108\n      jump\t// in\n    tag_396:\n        /* \"TFGv3/Contracts/libraries/FullMath.sol\":3849:3877  inv *= 2 - denominator * inv */\n      dup2\n      tag_397\n      swap2\n      swap1\n      tag_259\n      jump\t// in\n    tag_397:\n      swap1\n      pop\n        /* \"TFGv3/Contracts/libraries/FullMath.sol\":3933:3936  inv */\n      dup1\n        /* \"TFGv3/Contracts/libraries/FullMath.sol\":3919:3930  denominator */\n      dup8\n        /* \"TFGv3/Contracts/libraries/FullMath.sol\":3919:3936  denominator * inv */\n      tag_398\n      swap2\n      swap1\n      tag_259\n      jump\t// in\n    tag_398:\n        /* \"TFGv3/Contracts/libraries/FullMath.sol\":3915:3916  2 */\n      0x02\n        /* \"TFGv3/Contracts/libraries/FullMath.sol\":3915:3936  2 - denominator * inv */\n      tag_399\n      swap2\n      swap1\n      tag_108\n      jump\t// in\n    tag_399:\n        /* \"TFGv3/Contracts/libraries/FullMath.sol\":3908:3936  inv *= 2 - denominator * inv */\n      dup2\n      tag_400\n      swap2\n      swap1\n      tag_259\n      jump\t// in\n    tag_400:\n      swap1\n      pop\n        /* \"TFGv3/Contracts/libraries/FullMath.sol\":3992:3995  inv */\n      dup1\n        /* \"TFGv3/Contracts/libraries/FullMath.sol\":3978:3989  denominator */\n      dup8\n        /* \"TFGv3/Contracts/libraries/FullMath.sol\":3978:3995  denominator * inv */\n      tag_401\n      swap2\n      swap1\n      tag_259\n      jump\t// in\n    tag_401:\n        /* \"TFGv3/Contracts/libraries/FullMath.sol\":3974:3975  2 */\n      0x02\n        /* \"TFGv3/Contracts/libraries/FullMath.sol\":3974:3995  2 - denominator * inv */\n      tag_402\n      swap2\n      swap1\n      tag_108\n      jump\t// in\n    tag_402:\n        /* \"TFGv3/Contracts/libraries/FullMath.sol\":3967:3995  inv *= 2 - denominator * inv */\n      dup2\n      tag_403\n      swap2\n      swap1\n      tag_259\n      jump\t// in\n    tag_403:\n      swap1\n      pop\n        /* \"TFGv3/Contracts/libraries/FullMath.sol\":4052:4055  inv */\n      dup1\n        /* \"TFGv3/Contracts/libraries/FullMath.sol\":4038:4049  denominator */\n      dup8\n        /* \"TFGv3/Contracts/libraries/FullMath.sol\":4038:4055  denominator * inv */\n      tag_404\n      swap2\n      swap1\n      tag_259\n      jump\t// in\n    tag_404:\n        /* \"TFGv3/Contracts/libraries/FullMath.sol\":4034:4035  2 */\n      0x02\n        /* \"TFGv3/Contracts/libraries/FullMath.sol\":4034:4055  2 - denominator * inv */\n      tag_405\n      swap2\n      swap1\n      tag_108\n      jump\t// in\n    tag_405:\n        /* \"TFGv3/Contracts/libraries/FullMath.sol\":4027:4055  inv *= 2 - denominator * inv */\n      dup2\n      tag_406\n      swap2\n      swap1\n      tag_259\n      jump\t// in\n    tag_406:\n      swap1\n      pop\n        /* \"TFGv3/Contracts/libraries/FullMath.sol\":4510:4513  inv */\n      dup1\n        /* \"TFGv3/Contracts/libraries/FullMath.sol\":4502:4507  prod0 */\n      dup6\n        /* \"TFGv3/Contracts/libraries/FullMath.sol\":4502:4513  prod0 * inv */\n      tag_407\n      swap2\n      swap1\n      tag_259\n      jump\t// in\n    tag_407:\n        /* \"TFGv3/Contracts/libraries/FullMath.sol\":4493:4513  result = prod0 * inv */\n      swap6\n      pop\n        /* \"TFGv3/Contracts/libraries/FullMath.sol\":4523:4536  return result */\n      pop\n      pop\n      pop\n      pop\n      pop\n        /* \"TFGv3/Contracts/libraries/FullMath.sol\":742:4543  function mulDiv(... */\n    tag_381:\n      swap4\n      swap3\n      pop\n      pop\n      pop\n      jump\t// out\n        /* \"#utility.yul\":7:82   */\n    tag_408:\n        /* \"#utility.yul\":40:46   */\n      0x00\n        /* \"#utility.yul\":73:75   */\n      0x40\n        /* \"#utility.yul\":67:76   */\n      mload\n        /* \"#utility.yul\":57:76   */\n      swap1\n      pop\n        /* \"#utility.yul\":7:82   */\n      swap1\n      jump\t// out\n        /* \"#utility.yul\":88:205   */\n    tag_409:\n        /* \"#utility.yul\":197:198   */\n      0x00\n        /* \"#utility.yul\":194:195   */\n      dup1\n        /* \"#utility.yul\":187:199   */\n      revert\n        /* \"#utility.yul\":211:328   */\n    tag_410:\n        /* \"#utility.yul\":320:321   */\n      0x00\n        /* \"#utility.yul\":317:318   */\n      dup1\n        /* \"#utility.yul\":310:322   */\n      revert\n        /* \"#utility.yul\":334:411   */\n    tag_411:\n        /* \"#utility.yul\":371:378   */\n      0x00\n        /* \"#utility.yul\":400:405   */\n      dup2\n        /* \"#utility.yul\":389:405   */\n      swap1\n      pop\n        /* \"#utility.yul\":334:411   */\n      swap2\n      swap1\n      pop\n      jump\t// out\n        /* \"#utility.yul\":417:539   */\n    tag_412:\n        /* \"#utility.yul\":490:514   */\n      tag_477\n        /* \"#utility.yul\":508:513   */\n      dup2\n        /* \"#utility.yul\":490:514   */\n      tag_411\n      jump\t// in\n    tag_477:\n        /* \"#utility.yul\":483:488   */\n      dup2\n        /* \"#utility.yul\":480:515   */\n      eq\n        /* \"#utility.yul\":470:533   */\n      tag_478\n      jumpi\n        /* \"#utility.yul\":529:530   */\n      0x00\n        /* \"#utility.yul\":526:527   */\n      dup1\n        /* \"#utility.yul\":519:531   */\n      revert\n        /* \"#utility.yul\":470:533   */\n    tag_478:\n        /* \"#utility.yul\":417:539   */\n      pop\n      jump\t// out\n        /* \"#utility.yul\":545:684   */\n    tag_413:\n        /* \"#utility.yul\":591:596   */\n      0x00\n        /* \"#utility.yul\":629:635   */\n      dup2\n        /* \"#utility.yul\":616:636   */\n      calldataload\n        /* \"#utility.yul\":607:636   */\n      swap1\n      pop\n        /* \"#utility.yul\":645:678   */\n      tag_480\n        /* \"#utility.yul\":672:677   */\n      dup2\n        /* \"#utility.yul\":645:678   */\n      tag_412\n      jump\t// in\n    tag_480:\n        /* \"#utility.yul\":545:684   */\n      swap3\n      swap2\n      pop\n      pop\n      jump\t// out\n        /* \"#utility.yul\":690:1019   */\n    tag_28:\n        /* \"#utility.yul\":749:755   */\n      0x00\n        /* \"#utility.yul\":798:800   */\n      0x20\n        /* \"#utility.yul\":786:795   */\n      dup3\n        /* \"#utility.yul\":777:784   */\n      dup5\n        /* \"#utility.yul\":773:796   */\n      sub\n        /* \"#utility.yul\":769:801   */\n      slt\n        /* \"#utility.yul\":766:885   */\n      iszero\n      tag_482\n      jumpi\n        /* \"#utility.yul\":804:883   */\n      tag_483\n      tag_409\n      jump\t// in\n    tag_483:\n        /* \"#utility.yul\":766:885   */\n    tag_482:\n        /* \"#utility.yul\":924:925   */\n      0x00\n        /* \"#utility.yul\":949:1002   */\n      tag_484\n        /* \"#utility.yul\":994:1001   */\n      dup5\n        /* \"#utility.yul\":985:991   */\n      dup3\n        /* \"#utility.yul\":974:983   */\n      dup6\n        /* \"#utility.yul\":970:992   */\n      add\n        /* \"#utility.yul\":949:1002   */\n      tag_413\n      jump\t// in\n    tag_484:\n        /* \"#utility.yul\":939:1002   */\n      swap2\n      pop\n        /* \"#utility.yul\":895:1012   */\n      pop\n        /* \"#utility.yul\":690:1019   */\n      swap3\n      swap2\n      pop\n      pop\n      jump\t// out\n        /* \"#utility.yul\":1025:1143   */\n    tag_414:\n        /* \"#utility.yul\":1112:1136   */\n      tag_486\n        /* \"#utility.yul\":1130:1135   */\n      dup2\n        /* \"#utility.yul\":1112:1136   */\n      tag_411\n      jump\t// in\n    tag_486:\n        /* \"#utility.yul\":1107:1110   */\n      dup3\n        /* \"#utility.yul\":1100:1137   */\n      mstore\n        /* \"#utility.yul\":1025:1143   */\n      pop\n      pop\n      jump\t// out\n        /* \"#utility.yul\":1149:1371   */\n    tag_31:\n        /* \"#utility.yul\":1242:1246   */\n      0x00\n        /* \"#utility.yul\":1280:1282   */\n      0x20\n        /* \"#utility.yul\":1269:1278   */\n      dup3\n        /* \"#utility.yul\":1265:1283   */\n      add\n        /* \"#utility.yul\":1257:1283   */\n      swap1\n      pop\n        /* \"#utility.yul\":1293:1364   */\n      tag_488\n        /* \"#utility.yul\":1361:1362   */\n      0x00\n        /* \"#utility.yul\":1350:1359   */\n      dup4\n        /* \"#utility.yul\":1346:1363   */\n      add\n        /* \"#utility.yul\":1337:1343   */\n      dup5\n        /* \"#utility.yul\":1293:1364   */\n      tag_414\n      jump\t// in\n    tag_488:\n        /* \"#utility.yul\":1149:1371   */\n      swap3\n      swap2\n      pop\n      pop\n      jump\t// out\n        /* \"#utility.yul\":1377:1503   */\n    tag_415:\n        /* \"#utility.yul\":1414:1421   */\n      0x00\n        /* \"#utility.yul\":1454:1496   */\n      0xffffffffffffffffffffffffffffffffffffffff\n        /* \"#utility.yul\":1447:1452   */\n      dup3\n        /* \"#utility.yul\":1443:1497   */\n      and\n        /* \"#utility.yul\":1432:1497   */\n      swap1\n      pop\n        /* \"#utility.yul\":1377:1503   */\n      swap2\n      swap1\n      pop\n      jump\t// out\n        /* \"#utility.yul\":1509:1605   */\n    tag_416:\n        /* \"#utility.yul\":1546:1553   */\n      0x00\n        /* \"#utility.yul\":1575:1599   */\n      tag_491\n        /* \"#utility.yul\":1593:1598   */\n      dup3\n        /* \"#utility.yul\":1575:1599   */\n      tag_415\n      jump\t// in\n    tag_491:\n        /* \"#utility.yul\":1564:1599   */\n      swap1\n      pop\n        /* \"#utility.yul\":1509:1605   */\n      swap2\n      swap1\n      pop\n      jump\t// out\n        /* \"#utility.yul\":1611:1733   */\n    tag_417:\n        /* \"#utility.yul\":1684:1708   */\n      tag_493\n        /* \"#utility.yul\":1702:1707   */\n      dup2\n        /* \"#utility.yul\":1684:1708   */\n      tag_416\n      jump\t// in\n    tag_493:\n        /* \"#utility.yul\":1677:1682   */\n      dup2\n        /* \"#utility.yul\":1674:1709   */\n      eq\n        /* \"#utility.yul\":1664:1727   */\n      tag_494\n      jumpi\n        /* \"#utility.yul\":1723:1724   */\n      0x00\n        /* \"#utility.yul\":1720:1721   */\n      dup1\n        /* \"#utility.yul\":1713:1725   */\n      revert\n        /* \"#utility.yul\":1664:1727   */\n    tag_494:\n        /* \"#utility.yul\":1611:1733   */\n      pop\n      jump\t// out\n        /* \"#utility.yul\":1739:1878   */\n    tag_418:\n        /* \"#utility.yul\":1785:1790   */\n      0x00\n        /* \"#utility.yul\":1823:1829   */\n      dup2\n        /* \"#utility.yul\":1810:1830   */\n      calldataload\n        /* \"#utility.yul\":1801:1830   */\n      swap1\n      pop\n        /* \"#utility.yul\":1839:1872   */\n      tag_496\n        /* \"#utility.yul\":1866:1871   */\n      dup2\n        /* \"#utility.yul\":1839:1872   */\n      tag_417\n      jump\t// in\n    tag_496:\n        /* \"#utility.yul\":1739:1878   */\n      swap3\n      swap2\n      pop\n      pop\n      jump\t// out\n        /* \"#utility.yul\":1884:2213   */\n    tag_35:\n        /* \"#utility.yul\":1943:1949   */\n      0x00\n        /* \"#utility.yul\":1992:1994   */\n      0x20\n        /* \"#utility.yul\":1980:1989   */\n      dup3\n        /* \"#utility.yul\":1971:1978   */\n      dup5\n        /* \"#utility.yul\":1967:1990   */\n      sub\n        /* \"#utility.yul\":1963:1995   */\n      slt\n        /* \"#utility.yul\":1960:2079   */\n      iszero\n      tag_498\n      jumpi\n        /* \"#utility.yul\":1998:2077   */\n      tag_499\n      tag_409\n      jump\t// in\n    tag_499:\n        /* \"#utility.yul\":1960:2079   */\n    tag_498:\n        /* \"#utility.yul\":2118:2119   */\n      0x00\n        /* \"#utility.yul\":2143:2196   */\n      tag_500\n        /* \"#utility.yul\":2188:2195   */\n      dup5\n        /* \"#utility.yul\":2179:2185   */\n      dup3\n        /* \"#utility.yul\":2168:2177   */\n      dup6\n        /* \"#utility.yul\":2164:2186   */\n      add\n        /* \"#utility.yul\":2143:2196   */\n      tag_418\n      jump\t// in\n    tag_500:\n        /* \"#utility.yul\":2133:2196   */\n      swap2\n      pop\n        /* \"#utility.yul\":2089:2206   */\n      pop\n        /* \"#utility.yul\":1884:2213   */\n      swap3\n      swap2\n      pop\n      pop\n      jump\t// out\n        /* \"#utility.yul\":2219:2337   */\n    tag_419:\n        /* \"#utility.yul\":2306:2330   */\n      tag_502\n        /* \"#utility.yul\":2324:2329   */\n      dup2\n        /* \"#utility.yul\":2306:2330   */\n      tag_416\n      jump\t// in\n    tag_502:\n        /* \"#utility.yul\":2301:2304   */\n      dup3\n        /* \"#utility.yul\":2294:2331   */\n      mstore\n        /* \"#utility.yul\":2219:2337   */\n      pop\n      pop\n      jump\t// out\n        /* \"#utility.yul\":2343:2565   */\n    tag_38:\n        /* \"#utility.yul\":2436:2440   */\n      0x00\n        /* \"#utility.yul\":2474:2476   */\n      0x20\n        /* \"#utility.yul\":2463:2472   */\n      dup3\n        /* \"#utility.yul\":2459:2477   */\n      add\n        /* \"#utility.yul\":2451:2477   */\n      swap1\n      pop\n        /* \"#utility.yul\":2487:2558   */\n      tag_504\n        /* \"#utility.yul\":2555:2556   */\n      0x00\n        /* \"#utility.yul\":2544:2553   */\n      dup4\n        /* \"#utility.yul\":2540:2557   */\n      add\n        /* \"#utility.yul\":2531:2537   */\n      dup5\n        /* \"#utility.yul\":2487:2558   */\n      tag_419\n      jump\t// in\n    tag_504:\n        /* \"#utility.yul\":2343:2565   */\n      swap3\n      swap2\n      pop\n      pop\n      jump\t// out\n        /* \"#utility.yul\":2571:3045   */\n    tag_64:\n        /* \"#utility.yul\":2639:2645   */\n      0x00\n        /* \"#utility.yul\":2647:2653   */\n      dup1\n        /* \"#utility.yul\":2696:2698   */\n      0x40\n        /* \"#utility.yul\":2684:2693   */\n      dup4\n        /* \"#utility.yul\":2675:2682   */\n      dup6\n        /* \"#utility.yul\":2671:2694   */\n      sub\n        /* \"#utility.yul\":2667:2699   */\n      slt\n        /* \"#utility.yul\":2664:2783   */\n      iszero\n      tag_506\n      jumpi\n        /* \"#utility.yul\":2702:2781   */\n      tag_507\n      tag_409\n      jump\t// in\n    tag_507:\n        /* \"#utility.yul\":2664:2783   */\n    tag_506:\n        /* \"#utility.yul\":2822:2823   */\n      0x00\n        /* \"#utility.yul\":2847:2900   */\n      tag_508\n        /* \"#utility.yul\":2892:2899   */\n      dup6\n        /* \"#utility.yul\":2883:2889   */\n      dup3\n        /* \"#utility.yul\":2872:2881   */\n      dup7\n        /* \"#utility.yul\":2868:2890   */\n      add\n        /* \"#utility.yul\":2847:2900   */\n      tag_418\n      jump\t// in\n    tag_508:\n        /* \"#utility.yul\":2837:2900   */\n      swap3\n      pop\n        /* \"#utility.yul\":2793:2910   */\n      pop\n        /* \"#utility.yul\":2949:2951   */\n      0x20\n        /* \"#utility.yul\":2975:3028   */\n      tag_509\n        /* \"#utility.yul\":3020:3027   */\n      dup6\n        /* \"#utility.yul\":3011:3017   */\n      dup3\n        /* \"#utility.yul\":3000:3009   */\n      dup7\n        /* \"#utility.yul\":2996:3018   */\n      add\n        /* \"#utility.yul\":2975:3028   */\n      tag_413\n      jump\t// in\n    tag_509:\n        /* \"#utility.yul\":2965:3028   */\n      swap2\n      pop\n        /* \"#utility.yul\":2920:3038   */\n      pop\n        /* \"#utility.yul\":2571:3045   */\n      swap3\n      pop\n      swap3\n      swap1\n      pop\n      jump\t// out\n        /* \"#utility.yul\":3051:3141   */\n    tag_420:\n        /* \"#utility.yul\":3085:3092   */\n      0x00\n        /* \"#utility.yul\":3128:3133   */\n      dup2\n        /* \"#utility.yul\":3121:3134   */\n      iszero\n        /* \"#utility.yul\":3114:3135   */\n      iszero\n        /* \"#utility.yul\":3103:3135   */\n      swap1\n      pop\n        /* \"#utility.yul\":3051:3141   */\n      swap2\n      swap1\n      pop\n      jump\t// out\n        /* \"#utility.yul\":3147:3256   */\n    tag_421:\n        /* \"#utility.yul\":3228:3249   */\n      tag_512\n        /* \"#utility.yul\":3243:3248   */\n      dup2\n        /* \"#utility.yul\":3228:3249   */\n      tag_420\n      jump\t// in\n    tag_512:\n        /* \"#utility.yul\":3223:3226   */\n      dup3\n        /* \"#utility.yul\":3216:3250   */\n      mstore\n        /* \"#utility.yul\":3147:3256   */\n      pop\n      pop\n      jump\t// out\n        /* \"#utility.yul\":3262:3472   */\n    tag_67:\n        /* \"#utility.yul\":3349:3353   */\n      0x00\n        /* \"#utility.yul\":3387:3389   */\n      0x20\n        /* \"#utility.yul\":3376:3385   */\n      dup3\n        /* \"#utility.yul\":3372:3390   */\n      add\n        /* \"#utility.yul\":3364:3390   */\n      swap1\n      pop\n        /* \"#utility.yul\":3400:3465   */\n      tag_514\n        /* \"#utility.yul\":3462:3463   */\n      0x00\n        /* \"#utility.yul\":3451:3460   */\n      dup4\n        /* \"#utility.yul\":3447:3464   */\n      add\n        /* \"#utility.yul\":3438:3444   */\n      dup5\n        /* \"#utility.yul\":3400:3465   */\n      tag_421\n      jump\t// in\n    tag_514:\n        /* \"#utility.yul\":3262:3472   */\n      swap3\n      swap2\n      pop\n      pop\n      jump\t// out\n        /* \"#utility.yul\":3478:3810   */\n    tag_89:\n        /* \"#utility.yul\":3599:3603   */\n      0x00\n        /* \"#utility.yul\":3637:3639   */\n      0x40\n        /* \"#utility.yul\":3626:3635   */\n      dup3\n        /* \"#utility.yul\":3622:3640   */\n      add\n        /* \"#utility.yul\":3614:3640   */\n      swap1\n      pop\n        /* \"#utility.yul\":3650:3721   */\n      tag_516\n        /* \"#utility.yul\":3718:3719   */\n      0x00\n        /* \"#utility.yul\":3707:3716   */\n      dup4\n        /* \"#utility.yul\":3703:3720   */\n      add\n        /* \"#utility.yul\":3694:3700   */\n      dup6\n        /* \"#utility.yul\":3650:3721   */\n      tag_414\n      jump\t// in\n    tag_516:\n        /* \"#utility.yul\":3731:3803   */\n      tag_517\n        /* \"#utility.yul\":3799:3801   */\n      0x20\n        /* \"#utility.yul\":3788:3797   */\n      dup4\n        /* \"#utility.yul\":3784:3802   */\n      add\n        /* \"#utility.yul\":3775:3781   */\n      dup5\n        /* \"#utility.yul\":3731:3803   */\n      tag_414\n      jump\t// in\n    tag_517:\n        /* \"#utility.yul\":3478:3810   */\n      swap4\n      swap3\n      pop\n      pop\n      pop\n      jump\t// out\n        /* \"#utility.yul\":3816:3902   */\n    tag_422:\n        /* \"#utility.yul\":3851:3858   */\n      0x00\n        /* \"#utility.yul\":3891:3895   */\n      0xff\n        /* \"#utility.yul\":3884:3889   */\n      dup3\n        /* \"#utility.yul\":3880:3896   */\n      and\n        /* \"#utility.yul\":3869:3896   */\n      swap1\n      pop\n        /* \"#utility.yul\":3816:3902   */\n      swap2\n      swap1\n      pop\n      jump\t// out\n        /* \"#utility.yul\":3908:4020   */\n    tag_423:\n        /* \"#utility.yul\":3991:4013   */\n      tag_520\n        /* \"#utility.yul\":4007:4012   */\n      dup2\n        /* \"#utility.yul\":3991:4013   */\n      tag_422\n      jump\t// in\n    tag_520:\n        /* \"#utility.yul\":3986:3989   */\n      dup3\n        /* \"#utility.yul\":3979:4014   */\n      mstore\n        /* \"#utility.yul\":3908:4020   */\n      pop\n      pop\n      jump\t// out\n        /* \"#utility.yul\":4026:4240   */\n    tag_98:\n        /* \"#utility.yul\":4115:4119   */\n      0x00\n        /* \"#utility.yul\":4153:4155   */\n      0x20\n        /* \"#utility.yul\":4142:4151   */\n      dup3\n        /* \"#utility.yul\":4138:4156   */\n      add\n        /* \"#utility.yul\":4130:4156   */\n      swap1\n      pop\n        /* \"#utility.yul\":4166:4233   */\n      tag_522\n        /* \"#utility.yul\":4230:4231   */\n      0x00\n        /* \"#utility.yul\":4219:4228   */\n      dup4\n        /* \"#utility.yul\":4215:4232   */\n      add\n        /* \"#utility.yul\":4206:4212   */\n      dup5\n        /* \"#utility.yul\":4166:4233   */\n      tag_423\n      jump\t// in\n    tag_522:\n        /* \"#utility.yul\":4026:4240   */\n      swap3\n      swap2\n      pop\n      pop\n      jump\t// out\n        /* \"#utility.yul\":4246:4389   */\n    tag_424:\n        /* \"#utility.yul\":4303:4308   */\n      0x00\n        /* \"#utility.yul\":4334:4340   */\n      dup2\n        /* \"#utility.yul\":4328:4341   */\n      mload\n        /* \"#utility.yul\":4319:4341   */\n      swap1\n      pop\n        /* \"#utility.yul\":4350:4383   */\n      tag_524\n        /* \"#utility.yul\":4377:4382   */\n      dup2\n        /* \"#utility.yul\":4350:4383   */\n      tag_417\n      jump\t// in\n    tag_524:\n        /* \"#utility.yul\":4246:4389   */\n      swap3\n      swap2\n      pop\n      pop\n      jump\t// out\n        /* \"#utility.yul\":4395:4746   */\n    tag_103:\n        /* \"#utility.yul\":4465:4471   */\n      0x00\n        /* \"#utility.yul\":4514:4516   */\n      0x20\n        /* \"#utility.yul\":4502:4511   */\n      dup3\n        /* \"#utility.yul\":4493:4500   */\n      dup5\n        /* \"#utility.yul\":4489:4512   */\n      sub\n        /* \"#utility.yul\":4485:4517   */\n      slt\n        /* \"#utility.yul\":4482:4601   */\n      iszero\n      tag_526\n      jumpi\n        /* \"#utility.yul\":4520:4599   */\n      tag_527\n      tag_409\n      jump\t// in\n    tag_527:\n        /* \"#utility.yul\":4482:4601   */\n    tag_526:\n        /* \"#utility.yul\":4640:4641   */\n      0x00\n        /* \"#utility.yul\":4665:4729   */\n      tag_528\n        /* \"#utility.yul\":4721:4728   */\n      dup5\n        /* \"#utility.yul\":4712:4718   */\n      dup3\n        /* \"#utility.yul\":4701:4710   */\n      dup6\n        /* \"#utility.yul\":4697:4719   */\n      add\n        /* \"#utility.yul\":4665:4729   */\n      tag_424\n      jump\t// in\n    tag_528:\n        /* \"#utility.yul\":4655:4729   */\n      swap2\n      pop\n        /* \"#utility.yul\":4611:4739   */\n      pop\n        /* \"#utility.yul\":4395:4746   */\n      swap3\n      swap2\n      pop\n      pop\n      jump\t// out\n        /* \"#utility.yul\":4752:4932   */\n    tag_425:\n        /* \"#utility.yul\":4800:4877   */\n      0x4e487b7100000000000000000000000000000000000000000000000000000000\n        /* \"#utility.yul\":4797:4798   */\n      0x00\n        /* \"#utility.yul\":4790:4878   */\n      mstore\n        /* \"#utility.yul\":4897:4901   */\n      0x11\n        /* \"#utility.yul\":4894:4895   */\n      0x04\n        /* \"#utility.yul\":4887:4902   */\n      mstore\n        /* \"#utility.yul\":4921:4925   */\n      0x24\n        /* \"#utility.yul\":4918:4919   */\n      0x00\n        /* \"#utility.yul\":4911:4926   */\n      revert\n        /* \"#utility.yul\":4938:5129   */\n    tag_108:\n        /* \"#utility.yul\":4978:4982   */\n      0x00\n        /* \"#utility.yul\":4998:5018   */\n      tag_531\n        /* \"#utility.yul\":5016:5017   */\n      dup3\n        /* \"#utility.yul\":4998:5018   */\n      tag_411\n      jump\t// in\n    tag_531:\n        /* \"#utility.yul\":4993:5018   */\n      swap2\n      pop\n        /* \"#utility.yul\":5032:5052   */\n      tag_532\n        /* \"#utility.yul\":5050:5051   */\n      dup4\n        /* \"#utility.yul\":5032:5052   */\n      tag_411\n      jump\t// in\n    tag_532:\n        /* \"#utility.yul\":5027:5052   */\n      swap3\n      pop\n        /* \"#utility.yul\":5071:5072   */\n      dup3\n        /* \"#utility.yul\":5068:5069   */\n      dup3\n        /* \"#utility.yul\":5065:5073   */\n      lt\n        /* \"#utility.yul\":5062:5096   */\n      iszero\n      tag_533\n      jumpi\n        /* \"#utility.yul\":5076:5094   */\n      tag_534\n      tag_425\n      jump\t// in\n    tag_534:\n        /* \"#utility.yul\":5062:5096   */\n    tag_533:\n        /* \"#utility.yul\":5121:5122   */\n      dup3\n        /* \"#utility.yul\":5118:5119   */\n      dup3\n        /* \"#utility.yul\":5114:5123   */\n      sub\n        /* \"#utility.yul\":5106:5123   */\n      swap1\n      pop\n        /* \"#utility.yul\":4938:5129   */\n      swap3\n      swap2\n      pop\n      pop\n      jump\t// out\n        /* \"#utility.yul\":5135:5233   */\n    tag_426:\n        /* \"#utility.yul\":5186:5192   */\n      0x00\n        /* \"#utility.yul\":5220:5225   */\n      dup2\n        /* \"#utility.yul\":5214:5226   */\n      mload\n        /* \"#utility.yul\":5204:5226   */\n      swap1\n      pop\n        /* \"#utility.yul\":5135:5233   */\n      swap2\n      swap1\n      pop\n      jump\t// out\n        /* \"#utility.yul\":5239:5386   */\n    tag_427:\n        /* \"#utility.yul\":5340:5351   */\n      0x00\n        /* \"#utility.yul\":5377:5380   */\n      dup2\n        /* \"#utility.yul\":5362:5380   */\n      swap1\n      pop\n        /* \"#utility.yul\":5239:5386   */\n      swap3\n      swap2\n      pop\n      pop\n      jump\t// out\n        /* \"#utility.yul\":5392:5699   */\n    tag_428:\n        /* \"#utility.yul\":5460:5461   */\n      0x00\n        /* \"#utility.yul\":5470:5583   */\n    tag_538:\n        /* \"#utility.yul\":5484:5490   */\n      dup4\n        /* \"#utility.yul\":5481:5482   */\n      dup2\n        /* \"#utility.yul\":5478:5491   */\n      lt\n        /* \"#utility.yul\":5470:5583   */\n      iszero\n      tag_540\n      jumpi\n        /* \"#utility.yul\":5569:5570   */\n      dup1\n        /* \"#utility.yul\":5564:5567   */\n      dup3\n        /* \"#utility.yul\":5560:5571   */\n      add\n        /* \"#utility.yul\":5554:5572   */\n      mload\n        /* \"#utility.yul\":5550:5551   */\n      dup2\n        /* \"#utility.yul\":5545:5548   */\n      dup5\n        /* \"#utility.yul\":5541:5552   */\n      add\n        /* \"#utility.yul\":5534:5573   */\n      mstore\n        /* \"#utility.yul\":5506:5508   */\n      0x20\n        /* \"#utility.yul\":5503:5504   */\n      dup2\n        /* \"#utility.yul\":5499:5509   */\n      add\n        /* \"#utility.yul\":5494:5509   */\n      swap1\n      pop\n        /* \"#utility.yul\":5470:5583   */\n      jump(tag_538)\n    tag_540:\n        /* \"#utility.yul\":5601:5607   */\n      dup4\n        /* \"#utility.yul\":5598:5599   */\n      dup2\n        /* \"#utility.yul\":5595:5608   */\n      gt\n        /* \"#utility.yul\":5592:5693   */\n      iszero\n      tag_541\n      jumpi\n        /* \"#utility.yul\":5681:5682   */\n      0x00\n        /* \"#utility.yul\":5672:5678   */\n      dup5\n        /* \"#utility.yul\":5667:5670   */\n      dup5\n        /* \"#utility.yul\":5663:5679   */\n      add\n        /* \"#utility.yul\":5656:5683   */\n      mstore\n        /* \"#utility.yul\":5592:5693   */\n    tag_541:\n        /* \"#utility.yul\":5441:5699   */\n      pop\n        /* \"#utility.yul\":5392:5699   */\n      pop\n      pop\n      pop\n      jump\t// out\n        /* \"#utility.yul\":5705:6078   */\n    tag_429:\n        /* \"#utility.yul\":5809:5812   */\n      0x00\n        /* \"#utility.yul\":5837:5875   */\n      tag_543\n        /* \"#utility.yul\":5869:5874   */\n      dup3\n        /* \"#utility.yul\":5837:5875   */\n      tag_426\n      jump\t// in\n    tag_543:\n        /* \"#utility.yul\":5891:5979   */\n      tag_544\n        /* \"#utility.yul\":5972:5978   */\n      dup2\n        /* \"#utility.yul\":5967:5970   */\n      dup6\n        /* \"#utility.yul\":5891:5979   */\n      tag_427\n      jump\t// in\n    tag_544:\n        /* \"#utility.yul\":5884:5979   */\n      swap4\n      pop\n        /* \"#utility.yul\":5988:6040   */\n      tag_545\n        /* \"#utility.yul\":6033:6039   */\n      dup2\n        /* \"#utility.yul\":6028:6031   */\n      dup6\n        /* \"#utility.yul\":6021:6025   */\n      0x20\n        /* \"#utility.yul\":6014:6019   */\n      dup7\n        /* \"#utility.yul\":6010:6026   */\n      add\n        /* \"#utility.yul\":5988:6040   */\n      tag_428\n      jump\t// in\n    tag_545:\n        /* \"#utility.yul\":6065:6071   */\n      dup1\n        /* \"#utility.yul\":6060:6063   */\n      dup5\n        /* \"#utility.yul\":6056:6072   */\n      add\n        /* \"#utility.yul\":6049:6072   */\n      swap2\n      pop\n        /* \"#utility.yul\":5813:6078   */\n      pop\n        /* \"#utility.yul\":5705:6078   */\n      swap3\n      swap2\n      pop\n      pop\n      jump\t// out\n        /* \"#utility.yul\":6084:6355   */\n    tag_118:\n        /* \"#utility.yul\":6214:6217   */\n      0x00\n        /* \"#utility.yul\":6236:6329   */\n      tag_547\n        /* \"#utility.yul\":6325:6328   */\n      dup3\n        /* \"#utility.yul\":6316:6322   */\n      dup5\n        /* \"#utility.yul\":6236:6329   */\n      tag_429\n      jump\t// in\n    tag_547:\n        /* \"#utility.yul\":6229:6329   */\n      swap2\n      pop\n        /* \"#utility.yul\":6346:6349   */\n      dup2\n        /* \"#utility.yul\":6339:6349   */\n      swap1\n      pop\n        /* \"#utility.yul\":6084:6355   */\n      swap3\n      swap2\n      pop\n      pop\n      jump\t// out\n        /* \"#utility.yul\":6361:6541   */\n    tag_127:\n        /* \"#utility.yul\":6409:6486   */\n      0x4e487b7100000000000000000000000000000000000000000000000000000000\n        /* \"#utility.yul\":6406:6407   */\n      0x00\n        /* \"#utility.yul\":6399:6487   */\n      mstore\n        /* \"#utility.yul\":6506:6510   */\n      0x32\n        /* \"#utility.yul\":6503:6504   */\n      0x04\n        /* \"#utility.yul\":6496:6511   */\n      mstore\n        /* \"#utility.yul\":6530:6534   */\n      0x24\n        /* \"#utility.yul\":6527:6528   */\n      0x00\n        /* \"#utility.yul\":6520:6535   */\n      revert\n        /* \"#utility.yul\":6547:6690   */\n    tag_430:\n        /* \"#utility.yul\":6604:6609   */\n      0x00\n        /* \"#utility.yul\":6635:6641   */\n      dup2\n        /* \"#utility.yul\":6629:6642   */\n      mload\n        /* \"#utility.yul\":6620:6642   */\n      swap1\n      pop\n        /* \"#utility.yul\":6651:6684   */\n      tag_550\n        /* \"#utility.yul\":6678:6683   */\n      dup2\n        /* \"#utility.yul\":6651:6684   */\n      tag_412\n      jump\t// in\n    tag_550:\n        /* \"#utility.yul\":6547:6690   */\n      swap3\n      swap2\n      pop\n      pop\n      jump\t// out\n        /* \"#utility.yul\":6696:7047   */\n    tag_133:\n        /* \"#utility.yul\":6766:6772   */\n      0x00\n        /* \"#utility.yul\":6815:6817   */\n      0x20\n        /* \"#utility.yul\":6803:6812   */\n      dup3\n        /* \"#utility.yul\":6794:6801   */\n      dup5\n        /* \"#utility.yul\":6790:6813   */\n      sub\n        /* \"#utility.yul\":6786:6818   */\n      slt\n        /* \"#utility.yul\":6783:6902   */\n      iszero\n      tag_552\n      jumpi\n        /* \"#utility.yul\":6821:6900   */\n      tag_553\n      tag_409\n      jump\t// in\n    tag_553:\n        /* \"#utility.yul\":6783:6902   */\n    tag_552:\n        /* \"#utility.yul\":6941:6942   */\n      0x00\n        /* \"#utility.yul\":6966:7030   */\n      tag_554\n        /* \"#utility.yul\":7022:7029   */\n      dup5\n        /* \"#utility.yul\":7013:7019   */\n      dup3\n        /* \"#utility.yul\":7002:7011   */\n      dup6\n        /* \"#utility.yul\":6998:7020   */\n      add\n        /* \"#utility.yul\":6966:7030   */\n      tag_430\n      jump\t// in\n    tag_554:\n        /* \"#utility.yul\":6956:7030   */\n      swap2\n      pop\n        /* \"#utility.yul\":6912:7040   */\n      pop\n        /* \"#utility.yul\":6696:7047   */\n      swap3\n      swap2\n      pop\n      pop\n      jump\t// out\n        /* \"#utility.yul\":7053:7385   */\n    tag_135:\n        /* \"#utility.yul\":7174:7178   */\n      0x00\n        /* \"#utility.yul\":7212:7214   */\n      0x40\n        /* \"#utility.yul\":7201:7210   */\n      dup3\n        /* \"#utility.yul\":7197:7215   */\n      add\n        /* \"#utility.yul\":7189:7215   */\n      swap1\n      pop\n        /* \"#utility.yul\":7225:7296   */\n      tag_556\n        /* \"#utility.yul\":7293:7294   */\n      0x00\n        /* \"#utility.yul\":7282:7291   */\n      dup4\n        /* \"#utility.yul\":7278:7295   */\n      add\n        /* \"#utility.yul\":7269:7275   */\n      dup6\n        /* \"#utility.yul\":7225:7296   */\n      tag_419\n      jump\t// in\n    tag_556:\n        /* \"#utility.yul\":7306:7378   */\n      tag_557\n        /* \"#utility.yul\":7374:7376   */\n      0x20\n        /* \"#utility.yul\":7363:7372   */\n      dup4\n        /* \"#utility.yul\":7359:7377   */\n      add\n        /* \"#utility.yul\":7350:7356   */\n      dup5\n        /* \"#utility.yul\":7306:7378   */\n      tag_414\n      jump\t// in\n    tag_557:\n        /* \"#utility.yul\":7053:7385   */\n      swap4\n      swap3\n      pop\n      pop\n      pop\n      jump\t// out\n        /* \"#utility.yul\":7391:7507   */\n    tag_431:\n        /* \"#utility.yul\":7461:7482   */\n      tag_559\n        /* \"#utility.yul\":7476:7481   */\n      dup2\n        /* \"#utility.yul\":7461:7482   */\n      tag_420\n      jump\t// in\n    tag_559:\n        /* \"#utility.yul\":7454:7459   */\n      dup2\n        /* \"#utility.yul\":7451:7483   */\n      eq\n        /* \"#utility.yul\":7441:7501   */\n      tag_560\n      jumpi\n        /* \"#utility.yul\":7497:7498   */\n      0x00\n        /* \"#utility.yul\":7494:7495   */\n      dup1\n        /* \"#utility.yul\":7487:7499   */\n      revert\n        /* \"#utility.yul\":7441:7501   */\n    tag_560:\n        /* \"#utility.yul\":7391:7507   */\n      pop\n      jump\t// out\n        /* \"#utility.yul\":7513:7650   */\n    tag_432:\n        /* \"#utility.yul\":7567:7572   */\n      0x00\n        /* \"#utility.yul\":7598:7604   */\n      dup2\n        /* \"#utility.yul\":7592:7605   */\n      mload\n        /* \"#utility.yul\":7583:7605   */\n      swap1\n      pop\n        /* \"#utility.yul\":7614:7644   */\n      tag_562\n        /* \"#utility.yul\":7638:7643   */\n      dup2\n        /* \"#utility.yul\":7614:7644   */\n      tag_431\n      jump\t// in\n    tag_562:\n        /* \"#utility.yul\":7513:7650   */\n      swap3\n      swap2\n      pop\n      pop\n      jump\t// out\n        /* \"#utility.yul\":7656:8001   */\n    tag_139:\n        /* \"#utility.yul\":7723:7729   */\n      0x00\n        /* \"#utility.yul\":7772:7774   */\n      0x20\n        /* \"#utility.yul\":7760:7769   */\n      dup3\n        /* \"#utility.yul\":7751:7758   */\n      dup5\n        /* \"#utility.yul\":7747:7770   */\n      sub\n        /* \"#utility.yul\":7743:7775   */\n      slt\n        /* \"#utility.yul\":7740:7859   */\n      iszero\n      tag_564\n      jumpi\n        /* \"#utility.yul\":7778:7857   */\n      tag_565\n      tag_409\n      jump\t// in\n    tag_565:\n        /* \"#utility.yul\":7740:7859   */\n    tag_564:\n        /* \"#utility.yul\":7898:7899   */\n      0x00\n        /* \"#utility.yul\":7923:7984   */\n      tag_566\n        /* \"#utility.yul\":7976:7983   */\n      dup5\n        /* \"#utility.yul\":7967:7973   */\n      dup3\n        /* \"#utility.yul\":7956:7965   */\n      dup6\n        /* \"#utility.yul\":7952:7974   */\n      add\n        /* \"#utility.yul\":7923:7984   */\n      tag_432\n      jump\t// in\n    tag_566:\n        /* \"#utility.yul\":7913:7984   */\n      swap2\n      pop\n        /* \"#utility.yul\":7869:7994   */\n      pop\n        /* \"#utility.yul\":7656:8001   */\n      swap3\n      swap2\n      pop\n      pop\n      jump\t// out\n        /* \"#utility.yul\":8007:8240   */\n    tag_141:\n        /* \"#utility.yul\":8046:8049   */\n      0x00\n        /* \"#utility.yul\":8069:8093   */\n      tag_568\n        /* \"#utility.yul\":8087:8092   */\n      dup3\n        /* \"#utility.yul\":8069:8093   */\n      tag_411\n      jump\t// in\n    tag_568:\n        /* \"#utility.yul\":8060:8093   */\n      swap2\n      pop\n        /* \"#utility.yul\":8115:8181   */\n      0xffffffffffffffffffffffffffffffffffffffffffffffffffffffffffffffff\n        /* \"#utility.yul\":8108:8113   */\n      dup3\n        /* \"#utility.yul\":8105:8182   */\n      sub\n        /* \"#utility.yul\":8102:8205   */\n      tag_569\n      jumpi\n        /* \"#utility.yul\":8185:8203   */\n      tag_570\n      tag_425\n      jump\t// in\n    tag_570:\n        /* \"#utility.yul\":8102:8205   */\n    tag_569:\n        /* \"#utility.yul\":8232:8233   */\n      0x01\n        /* \"#utility.yul\":8225:8230   */\n      dup3\n        /* \"#utility.yul\":8221:8234   */\n      add\n        /* \"#utility.yul\":8214:8234   */\n      swap1\n      pop\n        /* \"#utility.yul\":8007:8240   */\n      swap2\n      swap1\n      pop\n      jump\t// out\n        /* \"#utility.yul\":8246:8413   */\n    tag_150:\n        /* \"#utility.yul\":8283:8286   */\n      0x00\n        /* \"#utility.yul\":8306:8328   */\n      tag_572\n        /* \"#utility.yul\":8322:8327   */\n      dup3\n        /* \"#utility.yul\":8306:8328   */\n      tag_422\n      jump\t// in\n    tag_572:\n        /* \"#utility.yul\":8297:8328   */\n      swap2\n      pop\n        /* \"#utility.yul\":8350:8354   */\n      0x00\n        /* \"#utility.yul\":8343:8348   */\n      dup3\n        /* \"#utility.yul\":8340:8355   */\n      sub\n        /* \"#utility.yul\":8337:8378   */\n      tag_573\n      jumpi\n        /* \"#utility.yul\":8358:8376   */\n      tag_574\n      tag_425\n      jump\t// in\n    tag_574:\n        /* \"#utility.yul\":8337:8378   */\n    tag_573:\n        /* \"#utility.yul\":8405:8406   */\n      0x01\n        /* \"#utility.yul\":8398:8403   */\n      dup3\n        /* \"#utility.yul\":8394:8407   */\n      sub\n        /* \"#utility.yul\":8387:8407   */\n      swap1\n      pop\n        /* \"#utility.yul\":8246:8413   */\n      swap2\n      swap1\n      pop\n      jump\t// out\n        /* \"#utility.yul\":8419:8599   */\n    tag_167:\n        /* \"#utility.yul\":8467:8544   */\n      0x4e487b7100000000000000000000000000000000000000000000000000000000\n        /* \"#utility.yul\":8464:8465   */\n      0x00\n        /* \"#utility.yul\":8457:8545   */\n      mstore\n        /* \"#utility.yul\":8564:8568   */\n      0x31\n        /* \"#utility.yul\":8561:8562   */\n      0x04\n        /* \"#utility.yul\":8554:8569   */\n      mstore\n        /* \"#utility.yul\":8588:8592   */\n      0x24\n        /* \"#utility.yul\":8585:8586   */\n      0x00\n        /* \"#utility.yul\":8578:8593   */\n      revert\n        /* \"#utility.yul\":8605:8723   */\n    tag_433:\n        /* \"#utility.yul\":8676:8698   */\n      tag_577\n        /* \"#utility.yul\":8692:8697   */\n      dup2\n        /* \"#utility.yul\":8676:8698   */\n      tag_422\n      jump\t// in\n    tag_577:\n        /* \"#utility.yul\":8669:8674   */\n      dup2\n        /* \"#utility.yul\":8666:8699   */\n      eq\n        /* \"#utility.yul\":8656:8717   */\n      tag_578\n      jumpi\n        /* \"#utility.yul\":8713:8714   */\n      0x00\n        /* \"#utility.yul\":8710:8711   */\n      dup1\n        /* \"#utility.yul\":8703:8715   */\n      revert\n        /* \"#utility.yul\":8656:8717   */\n    tag_578:\n        /* \"#utility.yul\":8605:8723   */\n      pop\n      jump\t// out\n        /* \"#utility.yul\":8729:8868   */\n    tag_434:\n        /* \"#utility.yul\":8784:8789   */\n      0x00\n        /* \"#utility.yul\":8815:8821   */\n      dup2\n        /* \"#utility.yul\":8809:8822   */\n      mload\n        /* \"#utility.yul\":8800:8822   */\n      swap1\n      pop\n        /* \"#utility.yul\":8831:8862   */\n      tag_580\n        /* \"#utility.yul\":8856:8861   */\n      dup2\n        /* \"#utility.yul\":8831:8862   */\n      tag_433\n      jump\t// in\n    tag_580:\n        /* \"#utility.yul\":8729:8868   */\n      swap3\n      swap2\n      pop\n      pop\n      jump\t// out\n        /* \"#utility.yul\":8874:9221   */\n    tag_191:\n        /* \"#utility.yul\":8942:8948   */\n      0x00\n        /* \"#utility.yul\":8991:8993   */\n      0x20\n        /* \"#utility.yul\":8979:8988   */\n      dup3\n        /* \"#utility.yul\":8970:8977   */\n      dup5\n        /* \"#utility.yul\":8966:8989   */\n      sub\n        /* \"#utility.yul\":8962:8994   */\n      slt\n        /* \"#utility.yul\":8959:9078   */\n      iszero\n      tag_582\n      jumpi\n        /* \"#utility.yul\":8997:9076   */\n      tag_583\n      tag_409\n      jump\t// in\n    tag_583:\n        /* \"#utility.yul\":8959:9078   */\n    tag_582:\n        /* \"#utility.yul\":9117:9118   */\n      0x00\n        /* \"#utility.yul\":9142:9204   */\n      tag_584\n        /* \"#utility.yul\":9196:9203   */\n      dup5\n        /* \"#utility.yul\":9187:9193   */\n      dup3\n        /* \"#utility.yul\":9176:9185   */\n      dup6\n        /* \"#utility.yul\":9172:9194   */\n      add\n        /* \"#utility.yul\":9142:9204   */\n      tag_434\n      jump\t// in\n    tag_584:\n        /* \"#utility.yul\":9132:9204   */\n      swap2\n      pop\n        /* \"#utility.yul\":9088:9214   */\n      pop\n        /* \"#utility.yul\":8874:9221   */\n      swap3\n      swap2\n      pop\n      pop\n      jump\t// out\n        /* \"#utility.yul\":9227:9329   */\n    tag_435:\n        /* \"#utility.yul\":9269:9277   */\n      0x00\n        /* \"#utility.yul\":9316:9321   */\n      dup2\n        /* \"#utility.yul\":9313:9314   */\n      0x01\n        /* \"#utility.yul\":9309:9322   */\n      shr\n        /* \"#utility.yul\":9288:9322   */\n      swap1\n      pop\n        /* \"#utility.yul\":9227:9329   */\n      swap2\n      swap1\n      pop\n      jump\t// out\n        /* \"#utility.yul\":9335:10183   */\n    tag_436:\n        /* \"#utility.yul\":9396:9401   */\n      0x00\n        /* \"#utility.yul\":9403:9407   */\n      dup1\n        /* \"#utility.yul\":9427:9433   */\n      dup3\n        /* \"#utility.yul\":9418:9433   */\n      swap2\n      pop\n        /* \"#utility.yul\":9451:9456   */\n      dup4\n        /* \"#utility.yul\":9442:9456   */\n      swap1\n      pop\n        /* \"#utility.yul\":9465:10177   */\n    tag_587:\n        /* \"#utility.yul\":9486:9487   */\n      0x01\n        /* \"#utility.yul\":9476:9484   */\n      dup6\n        /* \"#utility.yul\":9473:9488   */\n      gt\n        /* \"#utility.yul\":9465:10177   */\n      iszero\n      tag_589\n      jumpi\n        /* \"#utility.yul\":9581:9585   */\n      dup1\n        /* \"#utility.yul\":9576:9579   */\n      dup7\n        /* \"#utility.yul\":9572:9586   */\n      div\n        /* \"#utility.yul\":9566:9570   */\n      dup2\n        /* \"#utility.yul\":9563:9587   */\n      gt\n        /* \"#utility.yul\":9560:9610   */\n      iszero\n      tag_590\n      jumpi\n        /* \"#utility.yul\":9590:9608   */\n      tag_591\n      tag_425\n      jump\t// in\n    tag_591:\n        /* \"#utility.yul\":9560:9610   */\n    tag_590:\n        /* \"#utility.yul\":9640:9641   */\n      0x01\n        /* \"#utility.yul\":9630:9638   */\n      dup6\n        /* \"#utility.yul\":9626:9642   */\n      and\n        /* \"#utility.yul\":9623:10074   */\n      iszero\n      tag_592\n      jumpi\n        /* \"#utility.yul\":10055:10059   */\n      dup1\n        /* \"#utility.yul\":10048:10053   */\n      dup3\n        /* \"#utility.yul\":10044:10060   */\n      mul\n        /* \"#utility.yul\":10035:10060   */\n      swap2\n      pop\n        /* \"#utility.yul\":9623:10074   */\n    tag_592:\n        /* \"#utility.yul\":10105:10109   */\n      dup1\n        /* \"#utility.yul\":10099:10103   */\n      dup2\n        /* \"#utility.yul\":10095:10110   */\n      mul\n        /* \"#utility.yul\":10087:10110   */\n      swap1\n      pop\n        /* \"#utility.yul\":10135:10167   */\n      tag_593\n        /* \"#utility.yul\":10158:10166   */\n      dup6\n        /* \"#utility.yul\":10135:10167   */\n      tag_435\n      jump\t// in\n    tag_593:\n        /* \"#utility.yul\":10123:10167   */\n      swap5\n      pop\n        /* \"#utility.yul\":9465:10177   */\n      jump(tag_587)\n    tag_589:\n        /* \"#utility.yul\":9335:10183   */\n      swap5\n      pop\n      swap5\n      swap3\n      pop\n      pop\n      pop\n      jump\t// out\n        /* \"#utility.yul\":10189:11262   */\n    tag_437:\n        /* \"#utility.yul\":10243:10248   */\n      0x00\n        /* \"#utility.yul\":10434:10442   */\n      dup3\n        /* \"#utility.yul\":10424:10464   */\n      tag_595\n      jumpi\n        /* \"#utility.yul\":10455:10456   */\n      0x01\n        /* \"#utility.yul\":10446:10456   */\n      swap1\n      pop\n        /* \"#utility.yul\":10457:10462   */\n      jump(tag_594)\n        /* \"#utility.yul\":10424:10464   */\n    tag_595:\n        /* \"#utility.yul\":10483:10487   */\n      dup2\n        /* \"#utility.yul\":10473:10509   */\n      tag_596\n      jumpi\n        /* \"#utility.yul\":10500:10501   */\n      0x00\n        /* \"#utility.yul\":10491:10501   */\n      swap1\n      pop\n        /* \"#utility.yul\":10502:10507   */\n      jump(tag_594)\n        /* \"#utility.yul\":10473:10509   */\n    tag_596:\n        /* \"#utility.yul\":10569:10573   */\n      dup2\n        /* \"#utility.yul\":10617:10618   */\n      0x01\n        /* \"#utility.yul\":10612:10639   */\n      dup2\n      eq\n      tag_598\n      jumpi\n        /* \"#utility.yul\":10653:10654   */\n      0x02\n        /* \"#utility.yul\":10648:10839   */\n      dup2\n      eq\n      tag_599\n      jumpi\n        /* \"#utility.yul\":10562:10839   */\n      jump(tag_597)\n        /* \"#utility.yul\":10612:10639   */\n    tag_598:\n        /* \"#utility.yul\":10630:10631   */\n      0x01\n        /* \"#utility.yul\":10621:10631   */\n      swap2\n      pop\n        /* \"#utility.yul\":10632:10637   */\n      pop\n      jump(tag_594)\n        /* \"#utility.yul\":10648:10839   */\n    tag_599:\n        /* \"#utility.yul\":10693:10696   */\n      0xff\n        /* \"#utility.yul\":10683:10691   */\n      dup5\n        /* \"#utility.yul\":10680:10697   */\n      gt\n        /* \"#utility.yul\":10677:10720   */\n      iszero\n      tag_600\n      jumpi\n        /* \"#utility.yul\":10700:10718   */\n      tag_601\n      tag_425\n      jump\t// in\n    tag_601:\n        /* \"#utility.yul\":10677:10720   */\n    tag_600:\n        /* \"#utility.yul\":10749:10757   */\n      dup4\n        /* \"#utility.yul\":10746:10747   */\n      0x02\n        /* \"#utility.yul\":10742:10758   */\n      exp\n        /* \"#utility.yul\":10733:10758   */\n      swap2\n      pop\n        /* \"#utility.yul\":10784:10787   */\n      dup5\n        /* \"#utility.yul\":10777:10782   */\n      dup3\n        /* \"#utility.yul\":10774:10788   */\n      gt\n        /* \"#utility.yul\":10771:10811   */\n      iszero\n      tag_602\n      jumpi\n        /* \"#utility.yul\":10791:10809   */\n      tag_603\n      tag_425\n      jump\t// in\n    tag_603:\n        /* \"#utility.yul\":10771:10811   */\n    tag_602:\n        /* \"#utility.yul\":10824:10829   */\n      pop\n      jump(tag_594)\n        /* \"#utility.yul\":10562:10839   */\n    tag_597:\n      pop\n        /* \"#utility.yul\":10948:10950   */\n      0x20\n        /* \"#utility.yul\":10938:10946   */\n      dup4\n        /* \"#utility.yul\":10935:10951   */\n      lt\n        /* \"#utility.yul\":10929:10932   */\n      0x0133\n        /* \"#utility.yul\":10923:10927   */\n      dup4\n        /* \"#utility.yul\":10920:10933   */\n      lt\n        /* \"#utility.yul\":10916:10952   */\n      and\n        /* \"#utility.yul\":10898:10900   */\n      0x4e\n        /* \"#utility.yul\":10888:10896   */\n      dup5\n        /* \"#utility.yul\":10885:10901   */\n      lt\n        /* \"#utility.yul\":10880:10882   */\n      0x0b\n        /* \"#utility.yul\":10874:10878   */\n      dup5\n        /* \"#utility.yul\":10871:10883   */\n      lt\n        /* \"#utility.yul\":10867:10902   */\n      and\n        /* \"#utility.yul\":10851:10962   */\n      or\n        /* \"#utility.yul\":10848:11094   */\n      iszero\n      tag_604\n      jumpi\n        /* \"#utility.yul\":11004:11012   */\n      dup3\n        /* \"#utility.yul\":10998:11002   */\n      dup3\n        /* \"#utility.yul\":10994:11013   */\n      exp\n        /* \"#utility.yul\":10985:11013   */\n      swap1\n      pop\n        /* \"#utility.yul\":11039:11042   */\n      dup4\n        /* \"#utility.yul\":11032:11037   */\n      dup2\n        /* \"#utility.yul\":11029:11043   */\n      gt\n        /* \"#utility.yul\":11026:11066   */\n      iszero\n      tag_605\n      jumpi\n        /* \"#utility.yul\":11046:11064   */\n      tag_606\n      tag_425\n      jump\t// in\n    tag_606:\n        /* \"#utility.yul\":11026:11066   */\n    tag_605:\n        /* \"#utility.yul\":11079:11084   */\n      jump(tag_594)\n        /* \"#utility.yul\":10848:11094   */\n    tag_604:\n        /* \"#utility.yul\":11119:11161   */\n      tag_607\n        /* \"#utility.yul\":11157:11160   */\n      dup5\n        /* \"#utility.yul\":11147:11155   */\n      dup5\n        /* \"#utility.yul\":11141:11145   */\n      dup5\n        /* \"#utility.yul\":11138:11139   */\n      0x01\n        /* \"#utility.yul\":11119:11161   */\n      tag_436\n      jump\t// in\n    tag_607:\n        /* \"#utility.yul\":11104:11161   */\n      swap3\n      pop\n      swap1\n      pop\n        /* \"#utility.yul\":11193:11197   */\n      dup2\n        /* \"#utility.yul\":11188:11191   */\n      dup5\n        /* \"#utility.yul\":11184:11198   */\n      div\n        /* \"#utility.yul\":11177:11182   */\n      dup2\n        /* \"#utility.yul\":11174:11199   */\n      gt\n        /* \"#utility.yul\":11171:11222   */\n      iszero\n      tag_608\n      jumpi\n        /* \"#utility.yul\":11202:11220   */\n      tag_609\n      tag_425\n      jump\t// in\n    tag_609:\n        /* \"#utility.yul\":11171:11222   */\n    tag_608:\n        /* \"#utility.yul\":11251:11255   */\n      dup2\n        /* \"#utility.yul\":11244:11249   */\n      dup2\n        /* \"#utility.yul\":11240:11256   */\n      mul\n        /* \"#utility.yul\":11231:11256   */\n      swap1\n      pop\n        /* \"#utility.yul\":10189:11262   */\n    tag_594:\n      swap4\n      swap3\n      pop\n      pop\n      pop\n      jump\t// out\n        /* \"#utility.yul\":11268:11553   */\n    tag_195:\n        /* \"#utility.yul\":11328:11333   */\n      0x00\n        /* \"#utility.yul\":11352:11375   */\n      tag_611\n        /* \"#utility.yul\":11370:11374   */\n      dup3\n        /* \"#utility.yul\":11352:11375   */\n      tag_411\n      jump\t// in\n    tag_611:\n        /* \"#utility.yul\":11344:11375   */\n      swap2\n      pop\n        /* \"#utility.yul\":11396:11423   */\n      tag_612\n        /* \"#utility.yul\":11414:11422   */\n      dup4\n        /* \"#utility.yul\":11396:11423   */\n      tag_411\n      jump\t// in\n    tag_612:\n        /* \"#utility.yul\":11384:11423   */\n      swap3\n      pop\n        /* \"#utility.yul\":11442:11546   */\n      tag_613\n        /* \"#utility.yul\":11479:11545   */\n      0xffffffffffffffffffffffffffffffffffffffffffffffffffffffffffffffff\n        /* \"#utility.yul\":11469:11477   */\n      dup5\n        /* \"#utility.yul\":11463:11467   */\n      dup5\n        /* \"#utility.yul\":11442:11546   */\n      tag_437\n      jump\t// in\n    tag_613:\n        /* \"#utility.yul\":11433:11546   */\n      swap1\n      pop\n        /* \"#utility.yul\":11268:11553   */\n      swap3\n      swap2\n      pop\n      pop\n      jump\t// out\n        /* \"#utility.yul\":11559:11739   */\n    tag_438:\n        /* \"#utility.yul\":11607:11684   */\n      0x4e487b7100000000000000000000000000000000000000000000000000000000\n        /* \"#utility.yul\":11604:11605   */\n      0x00\n        /* \"#utility.yul\":11597:11685   */\n      mstore\n        /* \"#utility.yul\":11704:11708   */\n      0x12\n        /* \"#utility.yul\":11701:11702   */\n      0x04\n        /* \"#utility.yul\":11694:11709   */\n      mstore\n        /* \"#utility.yul\":11728:11732   */\n      0x24\n        /* \"#utility.yul\":11725:11726   */\n      0x00\n        /* \"#utility.yul\":11718:11733   */\n      revert\n        /* \"#utility.yul\":11745:11930   */\n    tag_197:\n        /* \"#utility.yul\":11785:11786   */\n      0x00\n        /* \"#utility.yul\":11802:11822   */\n      tag_616\n        /* \"#utility.yul\":11820:11821   */\n      dup3\n        /* \"#utility.yul\":11802:11822   */\n      tag_411\n      jump\t// in\n    tag_616:\n        /* \"#utility.yul\":11797:11822   */\n      swap2\n      pop\n        /* \"#utility.yul\":11836:11856   */\n      tag_617\n        /* \"#utility.yul\":11854:11855   */\n      dup4\n        /* \"#utility.yul\":11836:11856   */\n      tag_411\n      jump\t// in\n    tag_617:\n        /* \"#utility.yul\":11831:11856   */\n      swap3\n      pop\n        /* \"#utility.yul\":11875:11876   */\n      dup3\n        /* \"#utility.yul\":11865:11900   */\n      tag_618\n      jumpi\n        /* \"#utility.yul\":11880:11898   */\n      tag_619\n      tag_438\n      jump\t// in\n    tag_619:\n        /* \"#utility.yul\":11865:11900   */\n    tag_618:\n        /* \"#utility.yul\":11922:11923   */\n      dup3\n        /* \"#utility.yul\":11919:11920   */\n      dup3\n        /* \"#utility.yul\":11915:11924   */\n      div\n        /* \"#utility.yul\":11910:11924   */\n      swap1\n      pop\n        /* \"#utility.yul\":11745:11930   */\n      swap3\n      swap2\n      pop\n      pop\n      jump\t// out\n        /* \"#utility.yul\":11936:12103   */\n    tag_220:\n        /* \"#utility.yul\":11973:11976   */\n      0x00\n        /* \"#utility.yul\":11996:12018   */\n      tag_621\n        /* \"#utility.yul\":12012:12017   */\n      dup3\n        /* \"#utility.yul\":11996:12018   */\n      tag_422\n      jump\t// in\n    tag_621:\n        /* \"#utility.yul\":11987:12018   */\n      swap2\n      pop\n        /* \"#utility.yul\":12040:12044   */\n      0xff\n        /* \"#utility.yul\":12033:12038   */\n      dup3\n        /* \"#utility.yul\":12030:12045   */\n      sub\n        /* \"#utility.yul\":12027:12068   */\n      tag_622\n      jumpi\n        /* \"#utility.yul\":12048:12066   */\n      tag_623\n      tag_425\n      jump\t// in\n    tag_623:\n        /* \"#utility.yul\":12027:12068   */\n    tag_622:\n        /* \"#utility.yul\":12095:12096   */\n      0x01\n        /* \"#utility.yul\":12088:12093   */\n      dup3\n        /* \"#utility.yul\":12084:12097   */\n      add\n        /* \"#utility.yul\":12077:12097   */\n      swap1\n      pop\n        /* \"#utility.yul\":11936:12103   */\n      swap2\n      swap1\n      pop\n      jump\t// out\n        /* \"#utility.yul\":12109:12457   */\n    tag_259:\n        /* \"#utility.yul\":12149:12156   */\n      0x00\n        /* \"#utility.yul\":12172:12192   */\n      tag_625\n        /* \"#utility.yul\":12190:12191   */\n      dup3\n        /* \"#utility.yul\":12172:12192   */\n      tag_411\n      jump\t// in\n    tag_625:\n        /* \"#utility.yul\":12167:12192   */\n      swap2\n      pop\n        /* \"#utility.yul\":12206:12226   */\n      tag_626\n        /* \"#utility.yul\":12224:12225   */\n      dup4\n        /* \"#utility.yul\":12206:12226   */\n      tag_411\n      jump\t// in\n    tag_626:\n        /* \"#utility.yul\":12201:12226   */\n      swap3\n      pop\n        /* \"#utility.yul\":12394:12395   */\n      dup2\n        /* \"#utility.yul\":12326:12392   */\n      0xffffffffffffffffffffffffffffffffffffffffffffffffffffffffffffffff\n        /* \"#utility.yul\":12322:12396   */\n      div\n        /* \"#utility.yul\":12319:12320   */\n      dup4\n        /* \"#utility.yul\":12316:12397   */\n      gt\n        /* \"#utility.yul\":12311:12312   */\n      dup3\n        /* \"#utility.yul\":12304:12313   */\n      iszero\n        /* \"#utility.yul\":12297:12314   */\n      iszero\n        /* \"#utility.yul\":12293:12398   */\n      and\n        /* \"#utility.yul\":12290:12421   */\n      iszero\n      tag_627\n      jumpi\n        /* \"#utility.yul\":12401:12419   */\n      tag_628\n      tag_425\n      jump\t// in\n    tag_628:\n        /* \"#utility.yul\":12290:12421   */\n    tag_627:\n        /* \"#utility.yul\":12449:12450   */\n      dup3\n        /* \"#utility.yul\":12446:12447   */\n      dup3\n        /* \"#utility.yul\":12442:12451   */\n      mul\n        /* \"#utility.yul\":12431:12451   */\n      swap1\n      pop\n        /* \"#utility.yul\":12109:12457   */\n      swap3\n      swap2\n      pop\n      pop\n      jump\t// out\n        /* \"#utility.yul\":12463:12768   */\n    tag_261:\n        /* \"#utility.yul\":12503:12506   */\n      0x00\n        /* \"#utility.yul\":12522:12542   */\n      tag_630\n        /* \"#utility.yul\":12540:12541   */\n      dup3\n        /* \"#utility.yul\":12522:12542   */\n      tag_411\n      jump\t// in\n    tag_630:\n        /* \"#utility.yul\":12517:12542   */\n      swap2\n      pop\n        /* \"#utility.yul\":12556:12576   */\n      tag_631\n        /* \"#utility.yul\":12574:12575   */\n      dup4\n        /* \"#utility.yul\":12556:12576   */\n      tag_411\n      jump\t// in\n    tag_631:\n        /* \"#utility.yul\":12551:12576   */\n      swap3\n      pop\n        /* \"#utility.yul\":12710:12711   */\n      dup3\n        /* \"#utility.yul\":12642:12708   */\n      0xffffffffffffffffffffffffffffffffffffffffffffffffffffffffffffffff\n        /* \"#utility.yul\":12638:12712   */\n      sub\n        /* \"#utility.yul\":12635:12636   */\n      dup3\n        /* \"#utility.yul\":12632:12713   */\n      gt\n        /* \"#utility.yul\":12629:12736   */\n      iszero\n      tag_632\n      jumpi\n        /* \"#utility.yul\":12716:12734   */\n      tag_633\n      tag_425\n      jump\t// in\n    tag_633:\n        /* \"#utility.yul\":12629:12736   */\n    tag_632:\n        /* \"#utility.yul\":12760:12761   */\n      dup3\n        /* \"#utility.yul\":12757:12758   */\n      dup3\n        /* \"#utility.yul\":12753:12762   */\n      add\n        /* \"#utility.yul\":12746:12762   */\n      swap1\n      pop\n        /* \"#utility.yul\":12463:12768   */\n      swap3\n      swap2\n      pop\n      pop\n      jump\t// out\n        /* \"#utility.yul\":12774:12943   */\n    tag_439:\n        /* \"#utility.yul\":12858:12869   */\n      0x00\n        /* \"#utility.yul\":12892:12898   */\n      dup3\n        /* \"#utility.yul\":12887:12890   */\n      dup3\n        /* \"#utility.yul\":12880:12899   */\n      mstore\n        /* \"#utility.yul\":12932:12936   */\n      0x20\n        /* \"#utility.yul\":12927:12930   */\n      dup3\n        /* \"#utility.yul\":12923:12937   */\n      add\n        /* \"#utility.yul\":12908:12937   */\n      swap1\n      pop\n        /* \"#utility.yul\":12774:12943   */\n      swap3\n      swap2\n      pop\n      pop\n      jump\t// out\n        /* \"#utility.yul\":12949:13101   */\n    tag_440:\n        /* \"#utility.yul\":13089:13093   */\n      0x4250000000000000000000000000000000000000000000000000000000000000\n        /* \"#utility.yul\":13085:13086   */\n      0x00\n        /* \"#utility.yul\":13077:13083   */\n      dup3\n        /* \"#utility.yul\":13073:13087   */\n      add\n        /* \"#utility.yul\":13066:13094   */\n      mstore\n        /* \"#utility.yul\":12949:13101   */\n      pop\n      jump\t// out\n        /* \"#utility.yul\":13107:13472   */\n    tag_441:\n        /* \"#utility.yul\":13249:13252   */\n      0x00\n        /* \"#utility.yul\":13270:13336   */\n      tag_637\n        /* \"#utility.yul\":13334:13335   */\n      0x02\n        /* \"#utility.yul\":13329:13332   */\n      dup4\n        /* \"#utility.yul\":13270:13336   */\n      tag_439\n      jump\t// in\n    tag_637:\n        /* \"#utility.yul\":13263:13336   */\n      swap2\n      pop\n        /* \"#utility.yul\":13345:13438   */\n      tag_638\n        /* \"#utility.yul\":13434:13437   */\n      dup3\n        /* \"#utility.yul\":13345:13438   */\n      tag_440\n      jump\t// in\n    tag_638:\n        /* \"#utility.yul\":13463:13465   */\n      0x20\n        /* \"#utility.yul\":13458:13461   */\n      dup3\n        /* \"#utility.yul\":13454:13466   */\n      add\n        /* \"#utility.yul\":13447:13466   */\n      swap1\n      pop\n        /* \"#utility.yul\":13107:13472   */\n      swap2\n      swap1\n      pop\n      jump\t// out\n        /* \"#utility.yul\":13478:13897   */\n    tag_269:\n        /* \"#utility.yul\":13644:13648   */\n      0x00\n        /* \"#utility.yul\":13682:13684   */\n      0x20\n        /* \"#utility.yul\":13671:13680   */\n      dup3\n        /* \"#utility.yul\":13667:13685   */\n      add\n        /* \"#utility.yul\":13659:13685   */\n      swap1\n      pop\n        /* \"#utility.yul\":13731:13740   */\n      dup2\n        /* \"#utility.yul\":13725:13729   */\n      dup2\n        /* \"#utility.yul\":13721:13741   */\n      sub\n        /* \"#utility.yul\":13717:13718   */\n      0x00\n        /* \"#utility.yul\":13706:13715   */\n      dup4\n        /* \"#utility.yul\":13702:13719   */\n      add\n        /* \"#utility.yul\":13695:13742   */\n      mstore\n        /* \"#utility.yul\":13759:13890   */\n      tag_640\n        /* \"#utility.yul\":13885:13889   */\n      dup2\n        /* \"#utility.yul\":13759:13890   */\n      tag_441\n      jump\t// in\n    tag_640:\n        /* \"#utility.yul\":13751:13890   */\n      swap1\n      pop\n        /* \"#utility.yul\":13478:13897   */\n      swap2\n      swap1\n      pop\n      jump\t// out\n        /* \"#utility.yul\":13903:14083   */\n    tag_272:\n        /* \"#utility.yul\":13951:14028   */\n      0x4e487b7100000000000000000000000000000000000000000000000000000000\n        /* \"#utility.yul\":13948:13949   */\n      0x00\n        /* \"#utility.yul\":13941:14029   */\n      mstore\n        /* \"#utility.yul\":14048:14052   */\n      0x41\n        /* \"#utility.yul\":14045:14046   */\n      0x04\n        /* \"#utility.yul\":14038:14053   */\n      mstore\n        /* \"#utility.yul\":14072:14076   */\n      0x24\n        /* \"#utility.yul\":14069:14070   */\n      0x00\n        /* \"#utility.yul\":14062:14077   */\n      revert\n        /* \"#utility.yul\":14089:14202   */\n    tag_442:\n        /* \"#utility.yul\":14155:14161   */\n      0x00\n        /* \"#utility.yul\":14189:14194   */\n      dup2\n        /* \"#utility.yul\":14183:14195   */\n      mload\n        /* \"#utility.yul\":14173:14195   */\n      swap1\n      pop\n        /* \"#utility.yul\":14089:14202   */\n      swap2\n      swap1\n      pop\n      jump\t// out\n        /* \"#utility.yul\":14208:14391   */\n    tag_443:\n        /* \"#utility.yul\":14306:14317   */\n      0x00\n        /* \"#utility.yul\":14340:14346   */\n      dup3\n        /* \"#utility.yul\":14335:14338   */\n      dup3\n        /* \"#utility.yul\":14328:14347   */\n      mstore\n        /* \"#utility.yul\":14380:14384   */\n      0x20\n        /* \"#utility.yul\":14375:14378   */\n      dup3\n        /* \"#utility.yul\":14371:14385   */\n      add\n        /* \"#utility.yul\":14356:14385   */\n      swap1\n      pop\n        /* \"#utility.yul\":14208:14391   */\n      swap3\n      swap2\n      pop\n      pop\n      jump\t// out\n        /* \"#utility.yul\":14397:14528   */\n    tag_444:\n        /* \"#utility.yul\":14463:14467   */\n      0x00\n        /* \"#utility.yul\":14486:14489   */\n      dup2\n        /* \"#utility.yul\":14478:14489   */\n      swap1\n      pop\n        /* \"#utility.yul\":14516:14520   */\n      0x20\n        /* \"#utility.yul\":14511:14514   */\n      dup3\n        /* \"#utility.yul\":14507:14521   */\n      add\n        /* \"#utility.yul\":14499:14521   */\n      swap1\n      pop\n        /* \"#utility.yul\":14397:14528   */\n      swap2\n      swap1\n      pop\n      jump\t// out\n        /* \"#utility.yul\":14534:14627   */\n    tag_445:\n        /* \"#utility.yul\":14570:14577   */\n      0x00\n        /* \"#utility.yul\":14610:14620   */\n      0xffffffff\n        /* \"#utility.yul\":14603:14608   */\n      dup3\n        /* \"#utility.yul\":14599:14621   */\n      and\n        /* \"#utility.yul\":14588:14621   */\n      swap1\n      pop\n        /* \"#utility.yul\":14534:14627   */\n      swap2\n      swap1\n      pop\n      jump\t// out\n        /* \"#utility.yul\":14633:14738   */\n    tag_446:\n        /* \"#utility.yul\":14708:14731   */\n      tag_647\n        /* \"#utility.yul\":14725:14730   */\n      dup2\n        /* \"#utility.yul\":14708:14731   */\n      tag_445\n      jump\t// in\n    tag_647:\n        /* \"#utility.yul\":14703:14706   */\n      dup3\n        /* \"#utility.yul\":14696:14732   */\n      mstore\n        /* \"#utility.yul\":14633:14738   */\n      pop\n      pop\n      jump\t// out\n        /* \"#utility.yul\":14744:14919   */\n    tag_447:\n        /* \"#utility.yul\":14811:14821   */\n      0x00\n        /* \"#utility.yul\":14832:14876   */\n      tag_649\n        /* \"#utility.yul\":14872:14875   */\n      dup4\n        /* \"#utility.yul\":14864:14870   */\n      dup4\n        /* \"#utility.yul\":14832:14876   */\n      tag_446\n      jump\t// in\n    tag_649:\n        /* \"#utility.yul\":14908:14912   */\n      0x20\n        /* \"#utility.yul\":14903:14906   */\n      dup4\n        /* \"#utility.yul\":14899:14913   */\n      add\n        /* \"#utility.yul\":14885:14913   */\n      swap1\n      pop\n        /* \"#utility.yul\":14744:14919   */\n      swap3\n      swap2\n      pop\n      pop\n      jump\t// out\n        /* \"#utility.yul\":14925:15037   */\n    tag_448:\n        /* \"#utility.yul\":14994:14998   */\n      0x00\n        /* \"#utility.yul\":15026:15030   */\n      0x20\n        /* \"#utility.yul\":15021:15024   */\n      dup3\n        /* \"#utility.yul\":15017:15031   */\n      add\n        /* \"#utility.yul\":15009:15031   */\n      swap1\n      pop\n        /* \"#utility.yul\":14925:15037   */\n      swap2\n      swap1\n      pop\n      jump\t// out\n        /* \"#utility.yul\":15071:15795   */\n    tag_449:\n        /* \"#utility.yul\":15188:15191   */\n      0x00\n        /* \"#utility.yul\":15217:15270   */\n      tag_652\n        /* \"#utility.yul\":15264:15269   */\n      dup3\n        /* \"#utility.yul\":15217:15270   */\n      tag_442\n      jump\t// in\n    tag_652:\n        /* \"#utility.yul\":15286:15371   */\n      tag_653\n        /* \"#utility.yul\":15364:15370   */\n      dup2\n        /* \"#utility.yul\":15359:15362   */\n      dup6\n        /* \"#utility.yul\":15286:15371   */\n      tag_443\n      jump\t// in\n    tag_653:\n        /* \"#utility.yul\":15279:15371   */\n      swap4\n      pop\n        /* \"#utility.yul\":15395:15450   */\n      tag_654\n        /* \"#utility.yul\":15444:15449   */\n      dup4\n        /* \"#utility.yul\":15395:15450   */\n      tag_444\n      jump\t// in\n    tag_654:\n        /* \"#utility.yul\":15473:15480   */\n      dup1\n        /* \"#utility.yul\":15504:15505   */\n      0x00\n        /* \"#utility.yul\":15489:15770   */\n    tag_655:\n        /* \"#utility.yul\":15514:15520   */\n      dup4\n        /* \"#utility.yul\":15511:15512   */\n      dup2\n        /* \"#utility.yul\":15508:15521   */\n      lt\n        /* \"#utility.yul\":15489:15770   */\n      iszero\n      tag_657\n      jumpi\n        /* \"#utility.yul\":15590:15596   */\n      dup2\n        /* \"#utility.yul\":15584:15597   */\n      mload\n        /* \"#utility.yul\":15617:15678   */\n      tag_658\n        /* \"#utility.yul\":15674:15677   */\n      dup9\n        /* \"#utility.yul\":15659:15672   */\n      dup3\n        /* \"#utility.yul\":15617:15678   */\n      tag_447\n      jump\t// in\n    tag_658:\n        /* \"#utility.yul\":15610:15678   */\n      swap8\n      pop\n        /* \"#utility.yul\":15701:15760   */\n      tag_659\n        /* \"#utility.yul\":15753:15759   */\n      dup4\n        /* \"#utility.yul\":15701:15760   */\n      tag_448\n      jump\t// in\n    tag_659:\n        /* \"#utility.yul\":15691:15760   */\n      swap3\n      pop\n        /* \"#utility.yul\":15549:15770   */\n      pop\n        /* \"#utility.yul\":15536:15537   */\n      0x01\n        /* \"#utility.yul\":15533:15534   */\n      dup2\n        /* \"#utility.yul\":15529:15538   */\n      add\n        /* \"#utility.yul\":15524:15538   */\n      swap1\n      pop\n        /* \"#utility.yul\":15489:15770   */\n      jump(tag_655)\n    tag_657:\n        /* \"#utility.yul\":15493:15507   */\n      pop\n        /* \"#utility.yul\":15786:15789   */\n      dup6\n        /* \"#utility.yul\":15779:15789   */\n      swap4\n      pop\n        /* \"#utility.yul\":15193:15795   */\n      pop\n      pop\n      pop\n        /* \"#utility.yul\":15071:15795   */\n      swap3\n      swap2\n      pop\n      pop\n      jump\t// out\n        /* \"#utility.yul\":15801:16170   */\n    tag_279:\n        /* \"#utility.yul\":15942:15946   */\n      0x00\n        /* \"#utility.yul\":15980:15982   */\n      0x20\n        /* \"#utility.yul\":15969:15978   */\n      dup3\n        /* \"#utility.yul\":15965:15983   */\n      add\n        /* \"#utility.yul\":15957:15983   */\n      swap1\n      pop\n        /* \"#utility.yul\":16029:16038   */\n      dup2\n        /* \"#utility.yul\":16023:16027   */\n      dup2\n        /* \"#utility.yul\":16019:16039   */\n      sub\n        /* \"#utility.yul\":16015:16016   */\n      0x00\n        /* \"#utility.yul\":16004:16013   */\n      dup4\n        /* \"#utility.yul\":16000:16017   */\n      add\n        /* \"#utility.yul\":15993:16040   */\n      mstore\n        /* \"#utility.yul\":16057:16163   */\n      tag_661\n        /* \"#utility.yul\":16158:16162   */\n      dup2\n        /* \"#utility.yul\":16149:16155   */\n      dup5\n        /* \"#utility.yul\":16057:16163   */\n      tag_449\n      jump\t// in\n    tag_661:\n        /* \"#utility.yul\":16049:16163   */\n      swap1\n      pop\n        /* \"#utility.yul\":15801:16170   */\n      swap3\n      swap2\n      pop\n      pop\n      jump\t// out\n        /* \"#utility.yul\":16176:16293   */\n    tag_450:\n        /* \"#utility.yul\":16285:16286   */\n      0x00\n        /* \"#utility.yul\":16282:16283   */\n      dup1\n        /* \"#utility.yul\":16275:16287   */\n      revert\n        /* \"#utility.yul\":16299:16401   */\n    tag_451:\n        /* \"#utility.yul\":16340:16346   */\n      0x00\n        /* \"#utility.yul\":16391:16393   */\n      0x1f\n        /* \"#utility.yul\":16387:16394   */\n      not\n        /* \"#utility.yul\":16382:16384   */\n      0x1f\n        /* \"#utility.yul\":16375:16380   */\n      dup4\n        /* \"#utility.yul\":16371:16385   */\n      add\n        /* \"#utility.yul\":16367:16395   */\n      and\n        /* \"#utility.yul\":16357:16395   */\n      swap1\n      pop\n        /* \"#utility.yul\":16299:16401   */\n      swap2\n      swap1\n      pop\n      jump\t// out\n        /* \"#utility.yul\":16407:16688   */\n    tag_452:\n        /* \"#utility.yul\":16490:16517   */\n      tag_665\n        /* \"#utility.yul\":16512:16516   */\n      dup3\n        /* \"#utility.yul\":16490:16517   */\n      tag_451\n      jump\t// in\n    tag_665:\n        /* \"#utility.yul\":16482:16488   */\n      dup2\n        /* \"#utility.yul\":16478:16518   */\n      add\n        /* \"#utility.yul\":16620:16626   */\n      dup2\n        /* \"#utility.yul\":16608:16618   */\n      dup2\n        /* \"#utility.yul\":16605:16627   */\n      lt\n        /* \"#utility.yul\":16584:16602   */\n      0xffffffffffffffff\n        /* \"#utility.yul\":16572:16582   */\n      dup3\n        /* \"#utility.yul\":16569:16603   */\n      gt\n        /* \"#utility.yul\":16566:16628   */\n      or\n        /* \"#utility.yul\":16563:16651   */\n      iszero\n      tag_666\n      jumpi\n        /* \"#utility.yul\":16631:16649   */\n      tag_667\n      tag_272\n      jump\t// in\n    tag_667:\n        /* \"#utility.yul\":16563:16651   */\n    tag_666:\n        /* \"#utility.yul\":16671:16681   */\n      dup1\n        /* \"#utility.yul\":16667:16669   */\n      0x40\n        /* \"#utility.yul\":16660:16682   */\n      mstore\n        /* \"#utility.yul\":16450:16688   */\n      pop\n        /* \"#utility.yul\":16407:16688   */\n      pop\n      pop\n      jump\t// out\n        /* \"#utility.yul\":16694:16823   */\n    tag_453:\n        /* \"#utility.yul\":16728:16734   */\n      0x00\n        /* \"#utility.yul\":16755:16775   */\n      tag_669\n      tag_408\n      jump\t// in\n    tag_669:\n        /* \"#utility.yul\":16745:16775   */\n      swap1\n      pop\n        /* \"#utility.yul\":16784:16817   */\n      tag_670\n        /* \"#utility.yul\":16812:16816   */\n      dup3\n        /* \"#utility.yul\":16804:16810   */\n      dup3\n        /* \"#utility.yul\":16784:16817   */\n      tag_452\n      jump\t// in\n    tag_670:\n        /* \"#utility.yul\":16694:16823   */\n      swap2\n      swap1\n      pop\n      jump\t// out\n        /* \"#utility.yul\":16829:17138   */\n    tag_454:\n        /* \"#utility.yul\":16904:16908   */\n      0x00\n        /* \"#utility.yul\":16994:17012   */\n      0xffffffffffffffff\n        /* \"#utility.yul\":16986:16992   */\n      dup3\n        /* \"#utility.yul\":16983:17013   */\n      gt\n        /* \"#utility.yul\":16980:17036   */\n      iszero\n      tag_672\n      jumpi\n        /* \"#utility.yul\":17016:17034   */\n      tag_673\n      tag_272\n      jump\t// in\n    tag_673:\n        /* \"#utility.yul\":16980:17036   */\n    tag_672:\n        /* \"#utility.yul\":17066:17070   */\n      0x20\n        /* \"#utility.yul\":17058:17064   */\n      dup3\n        /* \"#utility.yul\":17054:17071   */\n      mul\n        /* \"#utility.yul\":17046:17071   */\n      swap1\n      pop\n        /* \"#utility.yul\":17126:17130   */\n      0x20\n        /* \"#utility.yul\":17120:17124   */\n      dup2\n        /* \"#utility.yul\":17116:17131   */\n      add\n        /* \"#utility.yul\":17108:17131   */\n      swap1\n      pop\n        /* \"#utility.yul\":16829:17138   */\n      swap2\n      swap1\n      pop\n      jump\t// out\n        /* \"#utility.yul\":17144:17261   */\n    tag_455:\n        /* \"#utility.yul\":17253:17254   */\n      0x00\n        /* \"#utility.yul\":17250:17251   */\n      dup1\n        /* \"#utility.yul\":17243:17255   */\n      revert\n        /* \"#utility.yul\":17267:17357   */\n    tag_456:\n        /* \"#utility.yul\":17302:17309   */\n      0x00\n        /* \"#utility.yul\":17345:17350   */\n      dup2\n        /* \"#utility.yul\":17342:17343   */\n      0x06\n        /* \"#utility.yul\":17331:17351   */\n      signextend\n        /* \"#utility.yul\":17320:17351   */\n      swap1\n      pop\n        /* \"#utility.yul\":17267:17357   */\n      swap2\n      swap1\n      pop\n      jump\t// out\n        /* \"#utility.yul\":17363:17481   */\n    tag_457:\n        /* \"#utility.yul\":17434:17456   */\n      tag_677\n        /* \"#utility.yul\":17450:17455   */\n      dup2\n        /* \"#utility.yul\":17434:17456   */\n      tag_456\n      jump\t// in\n    tag_677:\n        /* \"#utility.yul\":17427:17432   */\n      dup2\n        /* \"#utility.yul\":17424:17457   */\n      eq\n        /* \"#utility.yul\":17414:17475   */\n      tag_678\n      jumpi\n        /* \"#utility.yul\":17471:17472   */\n      0x00\n        /* \"#utility.yul\":17468:17469   */\n      dup1\n        /* \"#utility.yul\":17461:17473   */\n      revert\n        /* \"#utility.yul\":17414:17475   */\n    tag_678:\n        /* \"#utility.yul\":17363:17481   */\n      pop\n      jump\t// out\n        /* \"#utility.yul\":17487:17626   */\n    tag_458:\n        /* \"#utility.yul\":17542:17547   */\n      0x00\n        /* \"#utility.yul\":17573:17579   */\n      dup2\n        /* \"#utility.yul\":17567:17580   */\n      mload\n        /* \"#utility.yul\":17558:17580   */\n      swap1\n      pop\n        /* \"#utility.yul\":17589:17620   */\n      tag_680\n        /* \"#utility.yul\":17614:17619   */\n      dup2\n        /* \"#utility.yul\":17589:17620   */\n      tag_457\n      jump\t// in\n    tag_680:\n        /* \"#utility.yul\":17487:17626   */\n      swap3\n      swap2\n      pop\n      pop\n      jump\t// out\n        /* \"#utility.yul\":17647:18373   */\n    tag_459:\n        /* \"#utility.yul\":17752:17757   */\n      0x00\n        /* \"#utility.yul\":17777:17856   */\n      tag_682\n        /* \"#utility.yul\":17793:17855   */\n      tag_683\n        /* \"#utility.yul\":17848:17854   */\n      dup5\n        /* \"#utility.yul\":17793:17855   */\n      tag_454\n      jump\t// in\n    tag_683:\n        /* \"#utility.yul\":17777:17856   */\n      tag_453\n      jump\t// in\n    tag_682:\n        /* \"#utility.yul\":17768:17856   */\n      swap1\n      pop\n        /* \"#utility.yul\":17876:17881   */\n      dup1\n        /* \"#utility.yul\":17905:17911   */\n      dup4\n        /* \"#utility.yul\":17898:17903   */\n      dup3\n        /* \"#utility.yul\":17891:17912   */\n      mstore\n        /* \"#utility.yul\":17939:17943   */\n      0x20\n        /* \"#utility.yul\":17932:17937   */\n      dup3\n        /* \"#utility.yul\":17928:17944   */\n      add\n        /* \"#utility.yul\":17921:17944   */\n      swap1\n      pop\n        /* \"#utility.yul\":17992:17996   */\n      0x20\n        /* \"#utility.yul\":17984:17990   */\n      dup5\n        /* \"#utility.yul\":17980:17997   */\n      mul\n        /* \"#utility.yul\":17972:17978   */\n      dup4\n        /* \"#utility.yul\":17968:17998   */\n      add\n        /* \"#utility.yul\":18021:18024   */\n      dup6\n        /* \"#utility.yul\":18013:18019   */\n      dup2\n        /* \"#utility.yul\":18010:18025   */\n      gt\n        /* \"#utility.yul\":18007:18129   */\n      iszero\n      tag_684\n      jumpi\n        /* \"#utility.yul\":18040:18119   */\n      tag_685\n      tag_455\n      jump\t// in\n    tag_685:\n        /* \"#utility.yul\":18007:18129   */\n    tag_684:\n        /* \"#utility.yul\":18155:18161   */\n      dup4\n        /* \"#utility.yul\":18138:18367   */\n    tag_686:\n        /* \"#utility.yul\":18172:18178   */\n      dup2\n        /* \"#utility.yul\":18167:18170   */\n      dup2\n        /* \"#utility.yul\":18164:18179   */\n      lt\n        /* \"#utility.yul\":18138:18367   */\n      iszero\n      tag_688\n      jumpi\n        /* \"#utility.yul\":18247:18250   */\n      dup1\n        /* \"#utility.yul\":18276:18322   */\n      tag_689\n        /* \"#utility.yul\":18318:18321   */\n      dup9\n        /* \"#utility.yul\":18306:18316   */\n      dup3\n        /* \"#utility.yul\":18276:18322   */\n      tag_458\n      jump\t// in\n    tag_689:\n        /* \"#utility.yul\":18271:18274   */\n      dup5\n        /* \"#utility.yul\":18264:18323   */\n      mstore\n        /* \"#utility.yul\":18352:18356   */\n      0x20\n        /* \"#utility.yul\":18347:18350   */\n      dup5\n        /* \"#utility.yul\":18343:18357   */\n      add\n        /* \"#utility.yul\":18336:18357   */\n      swap4\n      pop\n        /* \"#utility.yul\":18214:18367   */\n      pop\n        /* \"#utility.yul\":18198:18202   */\n      0x20\n        /* \"#utility.yul\":18193:18196   */\n      dup2\n        /* \"#utility.yul\":18189:18203   */\n      add\n        /* \"#utility.yul\":18182:18203   */\n      swap1\n      pop\n        /* \"#utility.yul\":18138:18367   */\n      jump(tag_686)\n    tag_688:\n        /* \"#utility.yul\":18142:18163   */\n      pop\n        /* \"#utility.yul\":17758:18373   */\n      pop\n      pop\n        /* \"#utility.yul\":17647:18373   */\n      swap4\n      swap3\n      pop\n      pop\n      pop\n      jump\t// out\n        /* \"#utility.yul\":18394:18775   */\n    tag_460:\n        /* \"#utility.yul\":18474:18479   */\n      0x00\n        /* \"#utility.yul\":18523:18526   */\n      dup3\n        /* \"#utility.yul\":18516:18520   */\n      0x1f\n        /* \"#utility.yul\":18508:18514   */\n      dup4\n        /* \"#utility.yul\":18504:18521   */\n      add\n        /* \"#utility.yul\":18500:18527   */\n      slt\n        /* \"#utility.yul\":18490:18612   */\n      tag_691\n      jumpi\n        /* \"#utility.yul\":18531:18610   */\n      tag_692\n      tag_450\n      jump\t// in\n    tag_692:\n        /* \"#utility.yul\":18490:18612   */\n    tag_691:\n        /* \"#utility.yul\":18641:18647   */\n      dup2\n        /* \"#utility.yul\":18635:18648   */\n      mload\n        /* \"#utility.yul\":18666:18769   */\n      tag_693\n        /* \"#utility.yul\":18765:18768   */\n      dup5\n        /* \"#utility.yul\":18757:18763   */\n      dup3\n        /* \"#utility.yul\":18750:18754   */\n      0x20\n        /* \"#utility.yul\":18742:18748   */\n      dup7\n        /* \"#utility.yul\":18738:18755   */\n      add\n        /* \"#utility.yul\":18666:18769   */\n      tag_459\n      jump\t// in\n    tag_693:\n        /* \"#utility.yul\":18657:18769   */\n      swap2\n      pop\n        /* \"#utility.yul\":18480:18775   */\n      pop\n        /* \"#utility.yul\":18394:18775   */\n      swap3\n      swap2\n      pop\n      pop\n      jump\t// out\n        /* \"#utility.yul\":18781:19092   */\n    tag_461:\n        /* \"#utility.yul\":18858:18862   */\n      0x00\n        /* \"#utility.yul\":18948:18966   */\n      0xffffffffffffffff\n        /* \"#utility.yul\":18940:18946   */\n      dup3\n        /* \"#utility.yul\":18937:18967   */\n      gt\n        /* \"#utility.yul\":18934:18990   */\n      iszero\n      tag_695\n      jumpi\n        /* \"#utility.yul\":18970:18988   */\n      tag_696\n      tag_272\n      jump\t// in\n    tag_696:\n        /* \"#utility.yul\":18934:18990   */\n    tag_695:\n        /* \"#utility.yul\":19020:19024   */\n      0x20\n        /* \"#utility.yul\":19012:19018   */\n      dup3\n        /* \"#utility.yul\":19008:19025   */\n      mul\n        /* \"#utility.yul\":19000:19025   */\n      swap1\n      pop\n        /* \"#utility.yul\":19080:19084   */\n      0x20\n        /* \"#utility.yul\":19074:19078   */\n      dup2\n        /* \"#utility.yul\":19070:19085   */\n      add\n        /* \"#utility.yul\":19062:19085   */\n      swap1\n      pop\n        /* \"#utility.yul\":18781:19092   */\n      swap2\n      swap1\n      pop\n      jump\t// out\n        /* \"#utility.yul\":19098:19220   */\n    tag_462:\n        /* \"#utility.yul\":19171:19195   */\n      tag_698\n        /* \"#utility.yul\":19189:19194   */\n      dup2\n        /* \"#utility.yul\":19171:19195   */\n      tag_415\n      jump\t// in\n    tag_698:\n        /* \"#utility.yul\":19164:19169   */\n      dup2\n        /* \"#utility.yul\":19161:19196   */\n      eq\n        /* \"#utility.yul\":19151:19214   */\n      tag_699\n      jumpi\n        /* \"#utility.yul\":19210:19211   */\n      0x00\n        /* \"#utility.yul\":19207:19208   */\n      dup1\n        /* \"#utility.yul\":19200:19212   */\n      revert\n        /* \"#utility.yul\":19151:19214   */\n    tag_699:\n        /* \"#utility.yul\":19098:19220   */\n      pop\n      jump\t// out\n        /* \"#utility.yul\":19226:19369   */\n    tag_463:\n        /* \"#utility.yul\":19283:19288   */\n      0x00\n        /* \"#utility.yul\":19314:19320   */\n      dup2\n        /* \"#utility.yul\":19308:19321   */\n      mload\n        /* \"#utility.yul\":19299:19321   */\n      swap1\n      pop\n        /* \"#utility.yul\":19330:19363   */\n      tag_701\n        /* \"#utility.yul\":19357:19362   */\n      dup2\n        /* \"#utility.yul\":19330:19363   */\n      tag_462\n      jump\t// in\n    tag_701:\n        /* \"#utility.yul\":19226:19369   */\n      swap3\n      swap2\n      pop\n      pop\n      jump\t// out\n        /* \"#utility.yul\":19392:20124   */\n    tag_464:\n        /* \"#utility.yul\":19499:19504   */\n      0x00\n        /* \"#utility.yul\":19524:19605   */\n      tag_703\n        /* \"#utility.yul\":19540:19604   */\n      tag_704\n        /* \"#utility.yul\":19597:19603   */\n      dup5\n        /* \"#utility.yul\":19540:19604   */\n      tag_461\n      jump\t// in\n    tag_704:\n        /* \"#utility.yul\":19524:19605   */\n      tag_453\n      jump\t// in\n    tag_703:\n        /* \"#utility.yul\":19515:19605   */\n      swap1\n      pop\n        /* \"#utility.yul\":19625:19630   */\n      dup1\n        /* \"#utility.yul\":19654:19660   */\n      dup4\n        /* \"#utility.yul\":19647:19652   */\n      dup3\n        /* \"#utility.yul\":19640:19661   */\n      mstore\n        /* \"#utility.yul\":19688:19692   */\n      0x20\n        /* \"#utility.yul\":19681:19686   */\n      dup3\n        /* \"#utility.yul\":19677:19693   */\n      add\n        /* \"#utility.yul\":19670:19693   */\n      swap1\n      pop\n        /* \"#utility.yul\":19741:19745   */\n      0x20\n        /* \"#utility.yul\":19733:19739   */\n      dup5\n        /* \"#utility.yul\":19729:19746   */\n      mul\n        /* \"#utility.yul\":19721:19727   */\n      dup4\n        /* \"#utility.yul\":19717:19747   */\n      add\n        /* \"#utility.yul\":19770:19773   */\n      dup6\n        /* \"#utility.yul\":19762:19768   */\n      dup2\n        /* \"#utility.yul\":19759:19774   */\n      gt\n        /* \"#utility.yul\":19756:19878   */\n      iszero\n      tag_705\n      jumpi\n        /* \"#utility.yul\":19789:19868   */\n      tag_706\n      tag_455\n      jump\t// in\n    tag_706:\n        /* \"#utility.yul\":19756:19878   */\n    tag_705:\n        /* \"#utility.yul\":19904:19910   */\n      dup4\n        /* \"#utility.yul\":19887:20118   */\n    tag_707:\n        /* \"#utility.yul\":19921:19927   */\n      dup2\n        /* \"#utility.yul\":19916:19919   */\n      dup2\n        /* \"#utility.yul\":19913:19928   */\n      lt\n        /* \"#utility.yul\":19887:20118   */\n      iszero\n      tag_709\n      jumpi\n        /* \"#utility.yul\":19996:19999   */\n      dup1\n        /* \"#utility.yul\":20025:20073   */\n      tag_710\n        /* \"#utility.yul\":20069:20072   */\n      dup9\n        /* \"#utility.yul\":20057:20067   */\n      dup3\n        /* \"#utility.yul\":20025:20073   */\n      tag_463\n      jump\t// in\n    tag_710:\n        /* \"#utility.yul\":20020:20023   */\n      dup5\n        /* \"#utility.yul\":20013:20074   */\n      mstore\n        /* \"#utility.yul\":20103:20107   */\n      0x20\n        /* \"#utility.yul\":20098:20101   */\n      dup5\n        /* \"#utility.yul\":20094:20108   */\n      add\n        /* \"#utility.yul\":20087:20108   */\n      swap4\n      pop\n        /* \"#utility.yul\":19963:20118   */\n      pop\n        /* \"#utility.yul\":19947:19951   */\n      0x20\n        /* \"#utility.yul\":19942:19945   */\n      dup2\n        /* \"#utility.yul\":19938:19952   */\n      add\n        /* \"#utility.yul\":19931:19952   */\n      swap1\n      pop\n        /* \"#utility.yul\":19887:20118   */\n      jump(tag_707)\n    tag_709:\n        /* \"#utility.yul\":19891:19912   */\n      pop\n        /* \"#utility.yul\":19505:20124   */\n      pop\n      pop\n        /* \"#utility.yul\":19392:20124   */\n      swap4\n      swap3\n      pop\n      pop\n      pop\n      jump\t// out\n        /* \"#utility.yul\":20147:20532   */\n    tag_465:\n        /* \"#utility.yul\":20229:20234   */\n      0x00\n        /* \"#utility.yul\":20278:20281   */\n      dup3\n        /* \"#utility.yul\":20271:20275   */\n      0x1f\n        /* \"#utility.yul\":20263:20269   */\n      dup4\n        /* \"#utility.yul\":20259:20276   */\n      add\n        /* \"#utility.yul\":20255:20282   */\n      slt\n        /* \"#utility.yul\":20245:20367   */\n      tag_712\n      jumpi\n        /* \"#utility.yul\":20286:20365   */\n      tag_713\n      tag_450\n      jump\t// in\n    tag_713:\n        /* \"#utility.yul\":20245:20367   */\n    tag_712:\n        /* \"#utility.yul\":20396:20402   */\n      dup2\n        /* \"#utility.yul\":20390:20403   */\n      mload\n        /* \"#utility.yul\":20421:20526   */\n      tag_714\n        /* \"#utility.yul\":20522:20525   */\n      dup5\n        /* \"#utility.yul\":20514:20520   */\n      dup3\n        /* \"#utility.yul\":20507:20511   */\n      0x20\n        /* \"#utility.yul\":20499:20505   */\n      dup7\n        /* \"#utility.yul\":20495:20512   */\n      add\n        /* \"#utility.yul\":20421:20526   */\n      tag_464\n      jump\t// in\n    tag_714:\n        /* \"#utility.yul\":20412:20526   */\n      swap2\n      pop\n        /* \"#utility.yul\":20235:20532   */\n      pop\n        /* \"#utility.yul\":20147:20532   */\n      swap3\n      swap2\n      pop\n      pop\n      jump\t// out\n        /* \"#utility.yul\":20538:21447   */\n    tag_283:\n        /* \"#utility.yul\":20665:20671   */\n      0x00\n        /* \"#utility.yul\":20673:20679   */\n      dup1\n        /* \"#utility.yul\":20722:20724   */\n      0x40\n        /* \"#utility.yul\":20710:20719   */\n      dup4\n        /* \"#utility.yul\":20701:20708   */\n      dup6\n        /* \"#utility.yul\":20697:20720   */\n      sub\n        /* \"#utility.yul\":20693:20725   */\n      slt\n        /* \"#utility.yul\":20690:20809   */\n      iszero\n      tag_716\n      jumpi\n        /* \"#utility.yul\":20728:20807   */\n      tag_717\n      tag_409\n      jump\t// in\n    tag_717:\n        /* \"#utility.yul\":20690:20809   */\n    tag_716:\n        /* \"#utility.yul\":20869:20870   */\n      0x00\n        /* \"#utility.yul\":20858:20867   */\n      dup4\n        /* \"#utility.yul\":20854:20871   */\n      add\n        /* \"#utility.yul\":20848:20872   */\n      mload\n        /* \"#utility.yul\":20899:20917   */\n      0xffffffffffffffff\n        /* \"#utility.yul\":20891:20897   */\n      dup2\n        /* \"#utility.yul\":20888:20918   */\n      gt\n        /* \"#utility.yul\":20885:21002   */\n      iszero\n      tag_718\n      jumpi\n        /* \"#utility.yul\":20921:21000   */\n      tag_719\n      tag_410\n      jump\t// in\n    tag_719:\n        /* \"#utility.yul\":20885:21002   */\n    tag_718:\n        /* \"#utility.yul\":21026:21113   */\n      tag_720\n        /* \"#utility.yul\":21105:21112   */\n      dup6\n        /* \"#utility.yul\":21096:21102   */\n      dup3\n        /* \"#utility.yul\":21085:21094   */\n      dup7\n        /* \"#utility.yul\":21081:21103   */\n      add\n        /* \"#utility.yul\":21026:21113   */\n      tag_460\n      jump\t// in\n    tag_720:\n        /* \"#utility.yul\":21016:21113   */\n      swap3\n      pop\n        /* \"#utility.yul\":20819:21123   */\n      pop\n        /* \"#utility.yul\":21183:21185   */\n      0x20\n        /* \"#utility.yul\":21172:21181   */\n      dup4\n        /* \"#utility.yul\":21168:21186   */\n      add\n        /* \"#utility.yul\":21162:21187   */\n      mload\n        /* \"#utility.yul\":21214:21232   */\n      0xffffffffffffffff\n        /* \"#utility.yul\":21206:21212   */\n      dup2\n        /* \"#utility.yul\":21203:21233   */\n      gt\n        /* \"#utility.yul\":21200:21317   */\n      iszero\n      tag_721\n      jumpi\n        /* \"#utility.yul\":21236:21315   */\n      tag_722\n      tag_410\n      jump\t// in\n    tag_722:\n        /* \"#utility.yul\":21200:21317   */\n    tag_721:\n        /* \"#utility.yul\":21341:21430   */\n      tag_723\n        /* \"#utility.yul\":21422:21429   */\n      dup6\n        /* \"#utility.yul\":21413:21419   */\n      dup3\n        /* \"#utility.yul\":21402:21411   */\n      dup7\n        /* \"#utility.yul\":21398:21420   */\n      add\n        /* \"#utility.yul\":21341:21430   */\n      tag_465\n      jump\t// in\n    tag_723:\n        /* \"#utility.yul\":21331:21430   */\n      swap2\n      pop\n        /* \"#utility.yul\":21133:21440   */\n      pop\n        /* \"#utility.yul\":20538:21447   */\n      swap3\n      pop\n      swap3\n      swap1\n      pop\n      jump\t// out\n        /* \"#utility.yul\":21453:21927   */\n    tag_289:\n        /* \"#utility.yul\":21491:21495   */\n      0x00\n        /* \"#utility.yul\":21511:21529   */\n      tag_725\n        /* \"#utility.yul\":21527:21528   */\n      dup3\n        /* \"#utility.yul\":21511:21529   */\n      tag_456\n      jump\t// in\n    tag_725:\n        /* \"#utility.yul\":21506:21529   */\n      swap2\n      pop\n        /* \"#utility.yul\":21543:21561   */\n      tag_726\n        /* \"#utility.yul\":21559:21560   */\n      dup4\n        /* \"#utility.yul\":21543:21561   */\n      tag_456\n      jump\t// in\n    tag_726:\n        /* \"#utility.yul\":21538:21561   */\n      swap3\n      pop\n        /* \"#utility.yul\":21731:21732   */\n      dup3\n        /* \"#utility.yul\":21663:21729   */\n      0xffffffffffffffffffffffffffffffffffffffffffffffffff80000000000000\n        /* \"#utility.yul\":21659:21733   */\n      add\n        /* \"#utility.yul\":21656:21657   */\n      dup3\n        /* \"#utility.yul\":21652:21734   */\n      slt\n        /* \"#utility.yul\":21647:21648   */\n      0x00\n        /* \"#utility.yul\":21644:21645   */\n      dup5\n        /* \"#utility.yul\":21640:21649   */\n      slt\n        /* \"#utility.yul\":21633:21650   */\n      iszero\n        /* \"#utility.yul\":21629:21735   */\n      and\n        /* \"#utility.yul\":21626:21758   */\n      iszero\n      tag_727\n      jumpi\n        /* \"#utility.yul\":21738:21756   */\n      tag_728\n      tag_425\n      jump\t// in\n    tag_728:\n        /* \"#utility.yul\":21626:21758   */\n    tag_727:\n        /* \"#utility.yul\":21867:21868   */\n      dup3\n        /* \"#utility.yul\":21849:21865   */\n      0x7fffffffffffff\n        /* \"#utility.yul\":21845:21869   */\n      add\n        /* \"#utility.yul\":21842:21843   */\n      dup3\n        /* \"#utility.yul\":21838:21870   */\n      sgt\n        /* \"#utility.yul\":21834:21835   */\n      0x00\n        /* \"#utility.yul\":21831:21832   */\n      dup5\n        /* \"#utility.yul\":21827:21836   */\n      slt\n        /* \"#utility.yul\":21823:21871   */\n      and\n        /* \"#utility.yul\":21820:21894   */\n      iszero\n      tag_729\n      jumpi\n        /* \"#utility.yul\":21874:21892   */\n      tag_730\n      tag_425\n      jump\t// in\n    tag_730:\n        /* \"#utility.yul\":21820:21894   */\n    tag_729:\n        /* \"#utility.yul\":21919:21920   */\n      dup3\n        /* \"#utility.yul\":21916:21917   */\n      dup3\n        /* \"#utility.yul\":21912:21921   */\n      sub\n        /* \"#utility.yul\":21904:21921   */\n      swap1\n      pop\n        /* \"#utility.yul\":21453:21927   */\n      swap3\n      swap2\n      pop\n      pop\n      jump\t// out\n        /* \"#utility.yul\":21933:22124   */\n    tag_295:\n        /* \"#utility.yul\":21973:21977   */\n      0x00\n        /* \"#utility.yul\":21993:22013   */\n      tag_732\n        /* \"#utility.yul\":22011:22012   */\n      dup3\n        /* \"#utility.yul\":21993:22013   */\n      tag_415\n      jump\t// in\n    tag_732:\n        /* \"#utility.yul\":21988:22013   */\n      swap2\n      pop\n        /* \"#utility.yul\":22027:22047   */\n      tag_733\n        /* \"#utility.yul\":22045:22046   */\n      dup4\n        /* \"#utility.yul\":22027:22047   */\n      tag_415\n      jump\t// in\n    tag_733:\n        /* \"#utility.yul\":22022:22047   */\n      swap3\n      pop\n        /* \"#utility.yul\":22066:22067   */\n      dup3\n        /* \"#utility.yul\":22063:22064   */\n      dup3\n        /* \"#utility.yul\":22060:22068   */\n      lt\n        /* \"#utility.yul\":22057:22091   */\n      iszero\n      tag_734\n      jumpi\n        /* \"#utility.yul\":22071:22089   */\n      tag_735\n      tag_425\n      jump\t// in\n    tag_735:\n        /* \"#utility.yul\":22057:22091   */\n    tag_734:\n        /* \"#utility.yul\":22116:22117   */\n      dup3\n        /* \"#utility.yul\":22113:22114   */\n      dup3\n        /* \"#utility.yul\":22109:22118   */\n      sub\n        /* \"#utility.yul\":22101:22118   */\n      swap1\n      pop\n        /* \"#utility.yul\":21933:22124   */\n      swap3\n      swap2\n      pop\n      pop\n      jump\t// out\n        /* \"#utility.yul\":22130:22512   */\n    tag_297:\n        /* \"#utility.yul\":22168:22169   */\n      0x00\n        /* \"#utility.yul\":22185:22203   */\n      tag_737\n        /* \"#utility.yul\":22201:22202   */\n      dup3\n        /* \"#utility.yul\":22185:22203   */\n      tag_456\n      jump\t// in\n    tag_737:\n        /* \"#utility.yul\":22180:22203   */\n      swap2\n      pop\n        /* \"#utility.yul\":22217:22235   */\n      tag_738\n        /* \"#utility.yul\":22233:22234   */\n      dup4\n        /* \"#utility.yul\":22217:22235   */\n      tag_456\n      jump\t// in\n    tag_738:\n        /* \"#utility.yul\":22212:22235   */\n      swap3\n      pop\n        /* \"#utility.yul\":22254:22255   */\n      dup3\n        /* \"#utility.yul\":22244:22279   */\n      tag_739\n      jumpi\n        /* \"#utility.yul\":22259:22277   */\n      tag_740\n      tag_438\n      jump\t// in\n    tag_740:\n        /* \"#utility.yul\":22244:22279   */\n    tag_739:\n        /* \"#utility.yul\":22445:22446   */\n      0x01\n        /* \"#utility.yul\":22442:22443   */\n      0x00\n        /* \"#utility.yul\":22438:22447   */\n      sub\n        /* \"#utility.yul\":22435:22436   */\n      dup4\n        /* \"#utility.yul\":22432:22448   */\n      eq\n        /* \"#utility.yul\":22351:22417   */\n      0xffffffffffffffffffffffffffffffffffffffffffffffffff80000000000000\n        /* \"#utility.yul\":22348:22349   */\n      dup4\n        /* \"#utility.yul\":22345:22418   */\n      eq\n        /* \"#utility.yul\":22328:22458   */\n      and\n        /* \"#utility.yul\":22325:22481   */\n      iszero\n      tag_741\n      jumpi\n        /* \"#utility.yul\":22461:22479   */\n      tag_742\n      tag_425\n      jump\t// in\n    tag_742:\n        /* \"#utility.yul\":22325:22481   */\n    tag_741:\n        /* \"#utility.yul\":22504:22505   */\n      dup3\n        /* \"#utility.yul\":22501:22502   */\n      dup3\n        /* \"#utility.yul\":22496:22506   */\n      sdiv\n        /* \"#utility.yul\":22491:22506   */\n      swap1\n      pop\n        /* \"#utility.yul\":22130:22512   */\n      swap3\n      swap2\n      pop\n      pop\n      jump\t// out\n        /* \"#utility.yul\":22518:22689   */\n    tag_300:\n        /* \"#utility.yul\":22548:22549   */\n      0x00\n        /* \"#utility.yul\":22565:22583   */\n      tag_744\n        /* \"#utility.yul\":22581:22582   */\n      dup3\n        /* \"#utility.yul\":22565:22583   */\n      tag_456\n      jump\t// in\n    tag_744:\n        /* \"#utility.yul\":22560:22583   */\n      swap2\n      pop\n        /* \"#utility.yul\":22597:22615   */\n      tag_745\n        /* \"#utility.yul\":22613:22614   */\n      dup4\n        /* \"#utility.yul\":22597:22615   */\n      tag_456\n      jump\t// in\n    tag_745:\n        /* \"#utility.yul\":22592:22615   */\n      swap3\n      pop\n        /* \"#utility.yul\":22634:22635   */\n      dup3\n        /* \"#utility.yul\":22624:22659   */\n      tag_746\n      jumpi\n        /* \"#utility.yul\":22639:22657   */\n      tag_747\n      tag_438\n      jump\t// in\n    tag_747:\n        /* \"#utility.yul\":22624:22659   */\n    tag_746:\n        /* \"#utility.yul\":22681:22682   */\n      dup3\n        /* \"#utility.yul\":22678:22679   */\n      dup3\n        /* \"#utility.yul\":22673:22683   */\n      smod\n        /* \"#utility.yul\":22668:22683   */\n      swap1\n      pop\n        /* \"#utility.yul\":22518:22689   */\n      swap3\n      swap2\n      pop\n      pop\n      jump\t// out\n        /* \"#utility.yul\":22695:22785   */\n    tag_466:\n        /* \"#utility.yul\":22730:22737   */\n      0x00\n        /* \"#utility.yul\":22773:22778   */\n      dup2\n        /* \"#utility.yul\":22770:22771   */\n      0x02\n        /* \"#utility.yul\":22759:22779   */\n      signextend\n        /* \"#utility.yul\":22748:22779   */\n      swap1\n      pop\n        /* \"#utility.yul\":22695:22785   */\n      swap2\n      swap1\n      pop\n      jump\t// out\n        /* \"#utility.yul\":22791:23020   */\n    tag_303:\n        /* \"#utility.yul\":22828:22831   */\n      0x00\n        /* \"#utility.yul\":22851:22873   */\n      tag_750\n        /* \"#utility.yul\":22867:22872   */\n      dup3\n        /* \"#utility.yul\":22851:22873   */\n      tag_466\n      jump\t// in\n    tag_750:\n        /* \"#utility.yul\":22842:22873   */\n      swap2\n      pop\n        /* \"#utility.yul\":22895:22961   */\n      0xffffffffffffffffffffffffffffffffffffffffffffffffffffffffff800000\n        /* \"#utility.yul\":22888:22893   */\n      dup3\n        /* \"#utility.yul\":22885:22962   */\n      sub\n        /* \"#utility.yul\":22882:22985   */\n      tag_751\n      jumpi\n        /* \"#utility.yul\":22965:22983   */\n      tag_752\n      tag_425\n      jump\t// in\n    tag_752:\n        /* \"#utility.yul\":22882:22985   */\n    tag_751:\n        /* \"#utility.yul\":23012:23013   */\n      0x01\n        /* \"#utility.yul\":23005:23010   */\n      dup3\n        /* \"#utility.yul\":23001:23014   */\n      sub\n        /* \"#utility.yul\":22994:23014   */\n      swap1\n      pop\n        /* \"#utility.yul\":22791:23020   */\n      swap2\n      swap1\n      pop\n      jump\t// out\n        /* \"#utility.yul\":23026:23160   */\n    tag_467:\n        /* \"#utility.yul\":23063:23070   */\n      0x00\n        /* \"#utility.yul\":23103:23153   */\n      0xffffffffffffffffffffffffffffffffffffffffffffffff\n        /* \"#utility.yul\":23096:23101   */\n      dup3\n        /* \"#utility.yul\":23092:23154   */\n      and\n        /* \"#utility.yul\":23081:23154   */\n      swap1\n      pop\n        /* \"#utility.yul\":23026:23160   */\n      swap2\n      swap1\n      pop\n      jump\t// out\n        /* \"#utility.yul\":23166:23498   */\n    tag_305:\n        /* \"#utility.yul\":23206:23213   */\n      0x00\n        /* \"#utility.yul\":23229:23249   */\n      tag_755\n        /* \"#utility.yul\":23247:23248   */\n      dup3\n        /* \"#utility.yul\":23229:23249   */\n      tag_467\n      jump\t// in\n    tag_755:\n        /* \"#utility.yul\":23224:23249   */\n      swap2\n      pop\n        /* \"#utility.yul\":23263:23283   */\n      tag_756\n        /* \"#utility.yul\":23281:23282   */\n      dup4\n        /* \"#utility.yul\":23263:23283   */\n      tag_467\n      jump\t// in\n    tag_756:\n        /* \"#utility.yul\":23258:23283   */\n      swap3\n      pop\n        /* \"#utility.yul\":23435:23436   */\n      dup2\n        /* \"#utility.yul\":23383:23433   */\n      0xffffffffffffffffffffffffffffffffffffffffffffffff\n        /* \"#utility.yul\":23379:23437   */\n      div\n        /* \"#utility.yul\":23376:23377   */\n      dup4\n        /* \"#utility.yul\":23373:23438   */\n      gt\n        /* \"#utility.yul\":23368:23369   */\n      dup3\n        /* \"#utility.yul\":23361:23370   */\n      iszero\n        /* \"#utility.yul\":23354:23371   */\n      iszero\n        /* \"#utility.yul\":23350:23439   */\n      and\n        /* \"#utility.yul\":23347:23462   */\n      iszero\n      tag_757\n      jumpi\n        /* \"#utility.yul\":23442:23460   */\n      tag_758\n      tag_425\n      jump\t// in\n    tag_758:\n        /* \"#utility.yul\":23347:23462   */\n    tag_757:\n        /* \"#utility.yul\":23490:23491   */\n      dup3\n        /* \"#utility.yul\":23487:23488   */\n      dup3\n        /* \"#utility.yul\":23483:23492   */\n      mul\n        /* \"#utility.yul\":23472:23492   */\n      swap1\n      pop\n        /* \"#utility.yul\":23166:23498   */\n      swap3\n      swap2\n      pop\n      pop\n      jump\t// out\n        /* \"#utility.yul\":23504:23689   */\n    tag_307:\n        /* \"#utility.yul\":23544:23545   */\n      0x00\n        /* \"#utility.yul\":23561:23581   */\n      tag_760\n        /* \"#utility.yul\":23579:23580   */\n      dup3\n        /* \"#utility.yul\":23561:23581   */\n      tag_467\n      jump\t// in\n    tag_760:\n        /* \"#utility.yul\":23556:23581   */\n      swap2\n      pop\n        /* \"#utility.yul\":23595:23615   */\n      tag_761\n        /* \"#utility.yul\":23613:23614   */\n      dup4\n        /* \"#utility.yul\":23595:23615   */\n      tag_467\n      jump\t// in\n    tag_761:\n        /* \"#utility.yul\":23590:23615   */\n      swap3\n      pop\n        /* \"#utility.yul\":23634:23635   */\n      dup3\n        /* \"#utility.yul\":23624:23659   */\n      tag_762\n      jumpi\n        /* \"#utility.yul\":23639:23657   */\n      tag_763\n      tag_438\n      jump\t// in\n    tag_763:\n        /* \"#utility.yul\":23624:23659   */\n    tag_762:\n        /* \"#utility.yul\":23681:23682   */\n      dup3\n        /* \"#utility.yul\":23678:23679   */\n      dup3\n        /* \"#utility.yul\":23674:23683   */\n      div\n        /* \"#utility.yul\":23669:23683   */\n      swap1\n      pop\n        /* \"#utility.yul\":23504:23689   */\n      swap3\n      swap2\n      pop\n      pop\n      jump\t// out\n        /* \"#utility.yul\":23695:23771   */\n    tag_468:\n        /* \"#utility.yul\":23731:23738   */\n      0x00\n        /* \"#utility.yul\":23760:23765   */\n      dup2\n        /* \"#utility.yul\":23749:23765   */\n      swap1\n      pop\n        /* \"#utility.yul\":23695:23771   */\n      swap2\n      swap1\n      pop\n      jump\t// out\n        /* \"#utility.yul\":23777:24005   */\n    tag_328:\n        /* \"#utility.yul\":23812:23815   */\n      0x00\n        /* \"#utility.yul\":23835:23858   */\n      tag_766\n        /* \"#utility.yul\":23852:23857   */\n      dup3\n        /* \"#utility.yul\":23835:23858   */\n      tag_468\n      jump\t// in\n    tag_766:\n        /* \"#utility.yul\":23826:23858   */\n      swap2\n      pop\n        /* \"#utility.yul\":23880:23946   */\n      0x8000000000000000000000000000000000000000000000000000000000000000\n        /* \"#utility.yul\":23873:23878   */\n      dup3\n        /* \"#utility.yul\":23870:23947   */\n      sub\n        /* \"#utility.yul\":23867:23970   */\n      tag_767\n      jumpi\n        /* \"#utility.yul\":23950:23968   */\n      tag_768\n      tag_425\n      jump\t// in\n    tag_768:\n        /* \"#utility.yul\":23867:23970   */\n    tag_767:\n        /* \"#utility.yul\":23993:23998   */\n      dup2\n        /* \"#utility.yul\":23990:23991   */\n      0x00\n        /* \"#utility.yul\":23986:23999   */\n      sub\n        /* \"#utility.yul\":23979:23999   */\n      swap1\n      pop\n        /* \"#utility.yul\":23777:24005   */\n      swap2\n      swap1\n      pop\n      jump\t// out\n        /* \"#utility.yul\":24011:24237   */\n    tag_330:\n        /* \"#utility.yul\":24045:24048   */\n      0x00\n        /* \"#utility.yul\":24068:24090   */\n      tag_770\n        /* \"#utility.yul\":24084:24089   */\n      dup3\n        /* \"#utility.yul\":24068:24090   */\n      tag_466\n      jump\t// in\n    tag_770:\n        /* \"#utility.yul\":24059:24090   */\n      swap2\n      pop\n        /* \"#utility.yul\":24112:24178   */\n      0xffffffffffffffffffffffffffffffffffffffffffffffffffffffffff800000\n        /* \"#utility.yul\":24105:24110   */\n      dup3\n        /* \"#utility.yul\":24102:24179   */\n      sub\n        /* \"#utility.yul\":24099:24202   */\n      tag_771\n      jumpi\n        /* \"#utility.yul\":24182:24200   */\n      tag_772\n      tag_425\n      jump\t// in\n    tag_772:\n        /* \"#utility.yul\":24099:24202   */\n    tag_771:\n        /* \"#utility.yul\":24225:24230   */\n      dup2\n        /* \"#utility.yul\":24222:24223   */\n      0x00\n        /* \"#utility.yul\":24218:24231   */\n      sub\n        /* \"#utility.yul\":24211:24231   */\n      swap1\n      pop\n        /* \"#utility.yul\":24011:24237   */\n      swap2\n      swap1\n      pop\n      jump\t// out\n        /* \"#utility.yul\":24243:24394   */\n    tag_469:\n        /* \"#utility.yul\":24383:24386   */\n      0x5400000000000000000000000000000000000000000000000000000000000000\n        /* \"#utility.yul\":24379:24380   */\n      0x00\n        /* \"#utility.yul\":24371:24377   */\n      dup3\n        /* \"#utility.yul\":24367:24381   */\n      add\n        /* \"#utility.yul\":24360:24387   */\n      mstore\n        /* \"#utility.yul\":24243:24394   */\n      pop\n      jump\t// out\n        /* \"#utility.yul\":24400:24765   */\n    tag_470:\n        /* \"#utility.yul\":24542:24545   */\n      0x00\n        /* \"#utility.yul\":24563:24629   */\n      tag_775\n        /* \"#utility.yul\":24627:24628   */\n      0x01\n        /* \"#utility.yul\":24622:24625   */\n      dup4\n        /* \"#utility.yul\":24563:24629   */\n      tag_439\n      jump\t// in\n    tag_775:\n        /* \"#utility.yul\":24556:24629   */\n      swap2\n      pop\n        /* \"#utility.yul\":24638:24731   */\n      tag_776\n        /* \"#utility.yul\":24727:24730   */\n      dup3\n        /* \"#utility.yul\":24638:24731   */\n      tag_469\n      jump\t// in\n    tag_776:\n        /* \"#utility.yul\":24756:24758   */\n      0x20\n        /* \"#utility.yul\":24751:24754   */\n      dup3\n        /* \"#utility.yul\":24747:24759   */\n      add\n        /* \"#utility.yul\":24740:24759   */\n      swap1\n      pop\n        /* \"#utility.yul\":24400:24765   */\n      swap2\n      swap1\n      pop\n      jump\t// out\n        /* \"#utility.yul\":24771:25190   */\n    tag_333:\n        /* \"#utility.yul\":24937:24941   */\n      0x00\n        /* \"#utility.yul\":24975:24977   */\n      0x20\n        /* \"#utility.yul\":24964:24973   */\n      dup3\n        /* \"#utility.yul\":24960:24978   */\n      add\n        /* \"#utility.yul\":24952:24978   */\n      swap1\n      pop\n        /* \"#utility.yul\":25024:25033   */\n      dup2\n        /* \"#utility.yul\":25018:25022   */\n      dup2\n        /* \"#utility.yul\":25014:25034   */\n      sub\n        /* \"#utility.yul\":25010:25011   */\n      0x00\n        /* \"#utility.yul\":24999:25008   */\n      dup4\n        /* \"#utility.yul\":24995:25012   */\n      add\n        /* \"#utility.yul\":24988:25035   */\n      mstore\n        /* \"#utility.yul\":25052:25183   */\n      tag_778\n        /* \"#utility.yul\":25178:25182   */\n      dup2\n        /* \"#utility.yul\":25052:25183   */\n      tag_470\n      jump\t// in\n    tag_778:\n        /* \"#utility.yul\":25044:25183   */\n      swap1\n      pop\n        /* \"#utility.yul\":24771:25190   */\n      swap2\n      swap1\n      pop\n      jump\t// out\n        /* \"#utility.yul\":25196:25372   */\n    tag_377:\n        /* \"#utility.yul\":25228:25229   */\n      0x00\n        /* \"#utility.yul\":25245:25265   */\n      tag_780\n        /* \"#utility.yul\":25263:25264   */\n      dup3\n        /* \"#utility.yul\":25245:25265   */\n      tag_411\n      jump\t// in\n    tag_780:\n        /* \"#utility.yul\":25240:25265   */\n      swap2\n      pop\n        /* \"#utility.yul\":25279:25299   */\n      tag_781\n        /* \"#utility.yul\":25297:25298   */\n      dup4\n        /* \"#utility.yul\":25279:25299   */\n      tag_411\n      jump\t// in\n    tag_781:\n        /* \"#utility.yul\":25274:25299   */\n      swap3\n      pop\n        /* \"#utility.yul\":25318:25319   */\n      dup3\n        /* \"#utility.yul\":25308:25343   */\n      tag_782\n      jumpi\n        /* \"#utility.yul\":25323:25341   */\n      tag_783\n      tag_438\n      jump\t// in\n    tag_783:\n        /* \"#utility.yul\":25308:25343   */\n    tag_782:\n        /* \"#utility.yul\":25364:25365   */\n      dup3\n        /* \"#utility.yul\":25361:25362   */\n      dup3\n        /* \"#utility.yul\":25357:25366   */\n      mod\n        /* \"#utility.yul\":25352:25366   */\n      swap1\n      pop\n        /* \"#utility.yul\":25196:25372   */\n      swap3\n      swap2\n      pop\n      pop\n      jump\t// out\n\n    auxdata: 0xa2646970667358221220e411e61515cb12667beab63695944aa1802deb4b7b2f0efff52d3f77c949dee664736f6c634300080e0033\n}\n",
				"bytecode": {
					"linkReferences": {},
					"object": "60a060405234801561001057600080fd5b503373ffffffffffffffffffffffffffffffffffffffff1660808173ffffffffffffffffffffffffffffffffffffffff16815250506080516133eb61007c6000396000818161050301528181610847015281816108800152818161110901526112a001526133eb6000f3fe6080604052600436106100ec5760003560e01c8063990dc9db1161008a578063d825bfff11610059578063d825bfff14610324578063def1a5e814610361578063ec5568891461038d578063fed0a20e146103b8576100f6565b8063990dc9db1461026c5780639e955149146102a9578063b4014879146102d2578063cf9d4afa146102fb576100f6565b80634051b9aa116100c65780634051b9aa1461019e57806352fd856b146101c757806363b48ee6146101f25780637d0f7a881461022f576100f6565b80630cb1982b146100fb5780630fbbfa3e146101385780632637a47714610175576100f6565b366100f657600080fd5b600080fd5b34801561010757600080fd5b50610122600480360381019061011d9190612417565b6103e3565b60405161012f9190612453565b60405180910390f35b34801561014457600080fd5b5061015f600480360381019061015a91906124cc565b6104ce565b60405161016c9190612508565b60405180910390f35b34801561018157600080fd5b5061019c600480360381019061019791906124cc565b610501565b005b3480156101aa57600080fd5b506101c560048036038101906101c091906124cc565b61087e565b005b3480156101d357600080fd5b506101dc610bed565b6040516101e99190612453565b60405180910390f35b3480156101fe57600080fd5b5061021960048036038101906102149190612417565b610bf3565b6040516102269190612508565b60405180910390f35b34801561023b57600080fd5b50610256600480360381019061025191906124cc565b610c32565b6040516102639190612453565b60405180910390f35b34801561027857600080fd5b50610293600480360381019061028e9190612523565b610c4a565b6040516102a0919061257e565b60405180910390f35b3480156102b557600080fd5b506102d060048036038101906102cb91906124cc565b611069565b005b3480156102de57600080fd5b506102f960048036038101906102f49190612523565b611107565b005b34801561030757600080fd5b50610322600480360381019061031d91906124cc565b61129e565b005b34801561033057600080fd5b5061034b600480360381019061034691906124cc565b611374565b6040516103589190612508565b60405180910390f35b34801561036d57600080fd5b506103766113a7565b604051610384929190612599565b60405180910390f35b34801561039957600080fd5b506103a26115ce565b6040516103af9190612508565b60405180910390f35b3480156103c457600080fd5b506103cd6115f4565b6040516103da91906125de565b60405180910390f35b6000600160029054906101000a900473ffffffffffffffffffffffffffffffffffffffff1673ffffffffffffffffffffffffffffffffffffffff16633f0a07976040518163ffffffff1660e01b8152600401602060405180830381865afa158015610452573d6000803e3d6000fd5b505050506040513d601f19601f82011682018060405250810190610476919061260e565b73ffffffffffffffffffffffffffffffffffffffff163373ffffffffffffffffffffffffffffffffffffffff16146104ad57600080fd5b816104b6611607565b6104c0919061266a565b905080600081905550919050565b60046020528060005260406000206000915054906101000a900473ffffffffffffffffffffffffffffffffffffffff1681565b7f000000000000000000000000000000000000000000000000000000000000000073ffffffffffffffffffffffffffffffffffffffff163373ffffffffffffffffffffffffffffffffffffffff161461055957600080fd5b6000600160029054906101000a900473ffffffffffffffffffffffffffffffffffffffff1690508073ffffffffffffffffffffffffffffffffffffffff1663a6fa0b7b836040518263ffffffff1660e01b81526004016105b99190612508565b600060405180830381600087803b1580156105d357600080fd5b505af11580156105e7573d6000803e3d6000fd5b505050508173ffffffffffffffffffffffffffffffffffffffff16816040516024016106139190612508565b6040516020818303038152906040527fcf9d4afa000000000000000000000000000000000000000000000000000000007bffffffffffffffffffffffffffffffffffffffffffffffffffffffff19166020820180517bffffffffffffffffffffffffffffffffffffffffffffffffffffffff838183161783525050505060405161069d9190612718565b600060405180830381855af49150503d80600081146106d8576040519150601f19603f3d011682016040523d82523d6000602084013e6106dd565b606091505b5050506000600280549050905060005b818110156108445760006002828154811061070b5761070a61272f565b5b9060005260206000200160009054906101000a900473ffffffffffffffffffffffffffffffffffffffff1690508073ffffffffffffffffffffffffffffffffffffffff1663a9059cbb868373ffffffffffffffffffffffffffffffffffffffff166370a08231306040518263ffffffff1660e01b815260040161078e9190612508565b602060405180830381865afa1580156107ab573d6000803e3d6000fd5b505050506040513d601f19601f820116820180604052508101906107cf9190612773565b6040518363ffffffff1660e01b81526004016107ec9291906127a0565b6020604051808303816000875af115801561080b573d6000803e3d6000fd5b505050506040513d601f19601f8201168201806040525081019061082f91906127f5565b5050808061083c90612822565b9150506106ed565b507f000000000000000000000000000000000000000000000000000000000000000073ffffffffffffffffffffffffffffffffffffffff16ff5b7f000000000000000000000000000000000000000000000000000000000000000073ffffffffffffffffffffffffffffffffffffffff163373ffffffffffffffffffffffffffffffffffffffff1614806109935750600160029054906101000a900473ffffffffffffffffffffffffffffffffffffffff1673ffffffffffffffffffffffffffffffffffffffff16633f0a07976040518163ffffffff1660e01b8152600401602060405180830381865afa158015610940573d6000803e3d6000fd5b505050506040513d601f19601f82011682018060405250810190610964919061260e565b73ffffffffffffffffffffffffffffffffffffffff163373ffffffffffffffffffffffffffffffffffffffff16145b61099c57600080fd5b6002600360008373ffffffffffffffffffffffffffffffffffffffff1673ffffffffffffffffffffffffffffffffffffffff1681526020019081526020016000205403610a1b5760018081819054906101000a900460ff1680929190610a019061286a565b91906101000a81548160ff021916908360ff160217905550505b6000600360008373ffffffffffffffffffffffffffffffffffffffff1673ffffffffffffffffffffffffffffffffffffffff168152602001908152602001600020819055506000600280549050905060005b81811015610be8578273ffffffffffffffffffffffffffffffffffffffff1660028281548110610aa057610a9f61272f565b5b9060005260206000200160009054906101000a900473ffffffffffffffffffffffffffffffffffffffff1673ffffffffffffffffffffffffffffffffffffffff1603610bd5576002600183610af5919061266a565b81548110610b0657610b0561272f565b5b9060005260206000200160009054906101000a900473ffffffffffffffffffffffffffffffffffffffff1660028281548110610b4557610b4461272f565b5b9060005260206000200160006101000a81548173ffffffffffffffffffffffffffffffffffffffff021916908373ffffffffffffffffffffffffffffffffffffffff1602179055506002805480610b9f57610b9e612893565b5b6001900381819060005260206000200160006101000a81549073ffffffffffffffffffffffffffffffffffffffff021916905590555b8080610be090612822565b915050610a6d565b505050565b60005481565b60028181548110610c0357600080fd5b906000526020600020016000915054906101000a900473ffffffffffffffffffffffffffffffffffffffff1681565b60036020528060005260406000206000915090505481565b600080600160029054906101000a900473ffffffffffffffffffffffffffffffffffffffff1690508073ffffffffffffffffffffffffffffffffffffffff16633f0a07976040518163ffffffff1660e01b8152600401602060405180830381865afa158015610cbd573d6000803e3d6000fd5b505050506040513d601f19601f82011682018060405250810190610ce1919061260e565b73ffffffffffffffffffffffffffffffffffffffff163373ffffffffffffffffffffffffffffffffffffffff161480610db357508073ffffffffffffffffffffffffffffffffffffffff1663da8909e56040518163ffffffff1660e01b8152600401602060405180830381865afa158015610d60573d6000803e3d6000fd5b505050506040513d601f19601f82011682018060405250810190610d84919061260e565b73ffffffffffffffffffffffffffffffffffffffff163373ffffffffffffffffffffffffffffffffffffffff16145b610dbc57600080fd5b6000600280549050905060005b8181101561105c57600060028281548110610de757610de661272f565b5b9060005260206000200160009054906101000a900473ffffffffffffffffffffffffffffffffffffffff1690506002600360008373ffffffffffffffffffffffffffffffffffffffff1673ffffffffffffffffffffffffffffffffffffffff16815260200190815260200160002054036110485760008173ffffffffffffffffffffffffffffffffffffffff1663313ce5676040518163ffffffff1660e01b8152600401602060405180830381865afa158015610ea8573d6000803e3d6000fd5b505050506040513d601f19601f82011682018060405250810190610ecc91906128ee565b905060128160ff161015610f9f578173ffffffffffffffffffffffffffffffffffffffff1663a9059cbb8960128460ff16610f07919061266a565b600a610f139190612a4e565b60018054906101000a900460ff1660ff168b610f2f9190612ac8565b610f399190612ac8565b6040518363ffffffff1660e01b8152600401610f569291906127a0565b6020604051808303816000875af1158015610f75573d6000803e3d6000fd5b505050506040513d601f19601f82011682018060405250810190610f9991906127f5565b50611046565b60128160ff1603611045578173ffffffffffffffffffffffffffffffffffffffff1663a9059cbb8960018054906101000a900460ff1660ff168a610fe39190612ac8565b6040518363ffffffff1660e01b81526004016110009291906127a0565b6020604051808303816000875af115801561101f573d6000803e3d6000fd5b505050506040513d601f19601f8201168201806040525081019061104391906127f5565b505b5b505b50808061105490612822565b915050610dc9565b5060019250505092915050565b600160029054906101000a900473ffffffffffffffffffffffffffffffffffffffff1673ffffffffffffffffffffffffffffffffffffffff163373ffffffffffffffffffffffffffffffffffffffff16146110c357600080fd5b80600160026101000a81548173ffffffffffffffffffffffffffffffffffffffff021916908373ffffffffffffffffffffffffffffffffffffffff16021790555050565b7f000000000000000000000000000000000000000000000000000000000000000073ffffffffffffffffffffffffffffffffffffffff163373ffffffffffffffffffffffffffffffffffffffff161461115f57600080fd5b600081036111b1576001600360008473ffffffffffffffffffffffffffffffffffffffff1673ffffffffffffffffffffffffffffffffffffffff16815260200190815260200160002081905550611237565b60018103611236576002600360008473ffffffffffffffffffffffffffffffffffffffff1673ffffffffffffffffffffffffffffffffffffffff1681526020019081526020016000208190555060018081819054906101000a900460ff168092919061121c90612af9565b91906101000a81548160ff021916908360ff160217905550505b5b6002829080600181540180825580915050600190039060005260206000200160009091909190916101000a81548173ffffffffffffffffffffffffffffffffffffffff021916908373ffffffffffffffffffffffffffffffffffffffff1602179055505050565b7f000000000000000000000000000000000000000000000000000000000000000073ffffffffffffffffffffffffffffffffffffffff163373ffffffffffffffffffffffffffffffffffffffff16146112f657600080fd5b6000600160009054906101000a900460ff1660ff161461131557600080fd5b80600160026101000a81548173ffffffffffffffffffffffffffffffffffffffff021916908373ffffffffffffffffffffffffffffffffffffffff16021790555060018060006101000a81548160ff021916908360ff16021790555050565b60056020528060005260406000206000915054906101000a900473ffffffffffffffffffffffffffffffffffffffff1681565b6000806000600160029054906101000a900473ffffffffffffffffffffffffffffffffffffffff1673ffffffffffffffffffffffffffffffffffffffff1663da8909e56040518163ffffffff1660e01b8152600401602060405180830381865afa158015611419573d6000803e3d6000fd5b505050506040513d601f19601f8201168201806040525081019061143d919061260e565b73ffffffffffffffffffffffffffffffffffffffff1663d0b06f5d6040518163ffffffff1660e01b8152600401602060405180830381865afa158015611487573d6000803e3d6000fd5b505050506040513d601f19601f820116820180604052508101906114ab9190612773565b90506000600160029054906101000a900473ffffffffffffffffffffffffffffffffffffffff1673ffffffffffffffffffffffffffffffffffffffff1663da8909e56040518163ffffffff1660e01b8152600401602060405180830381865afa15801561151c573d6000803e3d6000fd5b505050506040513d601f19601f82011682018060405250810190611540919061260e565b73ffffffffffffffffffffffffffffffffffffffff16637f8483a46040518163ffffffff1660e01b8152600401602060405180830381865afa15801561158a573d6000803e3d6000fd5b505050506040513d601f19601f820116820180604052508101906115ae9190612773565b9050806115b9611607565b6115c3919061266a565b829350935050509091565b600160029054906101000a900473ffffffffffffffffffffffffffffffffffffffff1681565b600160009054906101000a900460ff1681565b600080600280549050905060005b81811015611855576000600282815481106116335761163261272f565b5b9060005260206000200160009054906101000a900473ffffffffffffffffffffffffffffffffffffffff16905060008173ffffffffffffffffffffffffffffffffffffffff166370a08231306040518263ffffffff1660e01b815260040161169b9190612508565b602060405180830381865afa1580156116b8573d6000803e3d6000fd5b505050506040513d601f19601f820116820180604052508101906116dc9190612773565b90506000600360008473ffffffffffffffffffffffffffffffffffffffff1673ffffffffffffffffffffffffffffffffffffffff1681526020019081526020016000205490506001810361182757600080611797600460008773ffffffffffffffffffffffffffffffffffffffff1673ffffffffffffffffffffffffffffffffffffffff16815260200190815260200160002060009054906101000a900473ffffffffffffffffffffffffffffffffffffffff16600061185a565b509050611805818587600560008a73ffffffffffffffffffffffffffffffffffffffff1673ffffffffffffffffffffffffffffffffffffffff16815260200190815260200160002060009054906101000a900473ffffffffffffffffffffffffffffffffffffffff16611b2a565b91505080836118149190612b22565b8761181f9190612b7c565b96505061183f565b6002810361183e57818661183b9190612b7c565b95505b5b505050808061184d90612822565b915050611615565b505090565b60008060008363ffffffff16036118a6576040517f08c379a000000000000000000000000000000000000000000000000000000000815260040161189d90612c2f565b60405180910390fd5b6000600267ffffffffffffffff8111156118c3576118c2612c4f565b5b6040519080825280602002602001820160405280156118f15781602001602082028036833780820191505090505b50905083816000815181106119095761190861272f565b5b602002602001019063ffffffff16908163ffffffff16815250506000816001815181106119395761193861272f565b5b602002602001019063ffffffff16908163ffffffff16815250506000808673ffffffffffffffffffffffffffffffffffffffff1663883bdbfd846040518263ffffffff1660e01b815260040161198f9190612d4c565b600060405180830381865afa1580156119ac573d6000803e3d6000fd5b505050506040513d6000823e3d601f19601f820116820180604052508101906119d59190612fc0565b915091506000826000815181106119ef576119ee61272f565b5b602002602001015183600181518110611a0b57611a0a61272f565b5b6020026020010151611a1d9190613038565b9050600082600081518110611a3557611a3461272f565b5b602002602001015183600181518110611a5157611a5061272f565b5b6020026020010151611a6391906130b3565b90508760030b82611a7491906130e7565b965060008260060b128015611a9b575060008860030b83611a959190613151565b60060b14155b15611aaf578680611aab9061318f565b9750505b600073ffffffffffffffffffffffffffffffffffffffff80168963ffffffff16611ad991906131fb565b905060208273ffffffffffffffffffffffffffffffffffffffff1677ffffffffffffffffffffffffffffffffffffffffffffffff16901b81611b1b919061324d565b96505050505050509250929050565b600080611b3686611d36565b90506fffffffffffffffffffffffffffffffff80168173ffffffffffffffffffffffffffffffffffffffff1611611c505760008173ffffffffffffffffffffffffffffffffffffffff168273ffffffffffffffffffffffffffffffffffffffff16611ba19190612b22565b90508373ffffffffffffffffffffffffffffffffffffffff168573ffffffffffffffffffffffffffffffffffffffff1610611c1157611c0c7801000000000000000000000000000000000000000000000000876fffffffffffffffffffffffffffffffff1683612203565b611c48565b611c4781876fffffffffffffffffffffffffffffffff167801000000000000000000000000000000000000000000000000612203565b5b925050611d2d565b6000611c928273ffffffffffffffffffffffffffffffffffffffff168373ffffffffffffffffffffffffffffffffffffffff1668010000000000000000612203565b90508373ffffffffffffffffffffffffffffffffffffffff168573ffffffffffffffffffffffffffffffffffffffff1610611cfa57611cf5700100000000000000000000000000000000876fffffffffffffffffffffffffffffffff1683612203565b611d29565b611d2881876fffffffffffffffffffffffffffffffff16700100000000000000000000000000000000612203565b5b9250505b50949350505050565b60008060008360020b12611d4d578260020b611d5b565b8260020b611d5a90613288565b5b90507ffffffffffffffffffffffffffffffffffffffffffffffffffffffffffff27618611d87906132d0565b62ffffff16811115611dce576040517f08c379a0000000000000000000000000000000000000000000000000000000008152600401611dc590613364565b60405180910390fd5b6000806001831603611df157700100000000000000000000000000000000611e03565b6ffffcb933bd6fad37aa2d162d1a5940015b70ffffffffffffffffffffffffffffffffff16905060006002831614611e465760806ffff97272373d413259a46990580e213a82611e419190612b22565b901c90505b60006004831614611e745760806ffff2e50f5f656932ef12357cf3c7fdcc82611e6f9190612b22565b901c90505b60006008831614611ea25760806fffe5caca7e10e4e61c3624eaa0941cd082611e9d9190612b22565b901c90505b60006010831614611ed05760806fffcb9843d60f6159c9db58835c92664482611ecb9190612b22565b901c90505b60006020831614611efe5760806fff973b41fa98c081472e6896dfb254c082611ef99190612b22565b901c90505b60006040831614611f2c5760806fff2ea16466c96a3843ec78b326b5286182611f279190612b22565b901c90505b60006080831614611f5a5760806ffe5dee046a99a2a811c461f1969c305382611f559190612b22565b901c90505b6000610100831614611f895760806ffcbe86c7900a88aedcffc83b479aa3a482611f849190612b22565b901c90505b6000610200831614611fb85760806ff987a7253ac413176f2b074cf7815e5482611fb39190612b22565b901c90505b6000610400831614611fe75760806ff3392b0822b70005940c7a398e4b70f382611fe29190612b22565b901c90505b60006108008316146120165760806fe7159475a2c29b7443b29c7fa6e889d9826120119190612b22565b901c90505b60006110008316146120455760806fd097f3bdfd2022b8845ad8f792aa5825826120409190612b22565b901c90505b60006120008316146120745760806fa9f746462d870fdf8a65dc1f90e061e58261206f9190612b22565b901c90505b60006140008316146120a35760806f70d869a156d2a1b890bb3df62baf32f78261209e9190612b22565b901c90505b60006180008316146120d25760806f31be135f97d08fd981231505542fcfa6826120cd9190612b22565b901c90505b6000620100008316146121025760806f09aa508b5b7a84e1c677de54f3e99bc9826120fd9190612b22565b901c90505b6000620200008316146121315760806e5d6af8dedb81196699c329225ee6048261212c9190612b22565b901c90505b60006204000083161461215f5760806d2216e584f5fa1ea926041bedfe988261215a9190612b22565b901c90505b60006208000083161461218b5760806b048a170391f7dc42444e8fa2826121869190612b22565b901c90505b60008460020b13156121c657807fffffffffffffffffffffffffffffffffffffffffffffffffffffffffffffffff6121c39190612ac8565b90505b6000640100000000826121d99190613384565b146121e55760016121e8565b60005b60ff16602082901c6121fa9190612b7c565b92505050919050565b600080600080198587098587029250828110838203039150506000810361223d576000841161223157600080fd5b838204925050506123c6565b80841161224957600080fd5b60008486880990508281118203915080830392506000856001877fffffffffffffffffffffffffffffffffffffffffffffffffffffffffffffffff61228e919061266a565b6122989190612b7c565b16905080860495508084049350600181826000030401905080836122bc9190612b22565b84179350600060028760036122d19190612b22565b18905080876122e09190612b22565b60026122ec919061266a565b816122f79190612b22565b905080876123059190612b22565b6002612311919061266a565b8161231c9190612b22565b9050808761232a9190612b22565b6002612336919061266a565b816123419190612b22565b9050808761234f9190612b22565b600261235b919061266a565b816123669190612b22565b905080876123749190612b22565b6002612380919061266a565b8161238b9190612b22565b905080876123999190612b22565b60026123a5919061266a565b816123b09190612b22565b905080856123be9190612b22565b955050505050505b9392505050565b6000604051905090565b600080fd5b600080fd5b6000819050919050565b6123f4816123e1565b81146123ff57600080fd5b50565b600081359050612411816123eb565b92915050565b60006020828403121561242d5761242c6123d7565b5b600061243b84828501612402565b91505092915050565b61244d816123e1565b82525050565b60006020820190506124686000830184612444565b92915050565b600073ffffffffffffffffffffffffffffffffffffffff82169050919050565b60006124998261246e565b9050919050565b6124a98161248e565b81146124b457600080fd5b50565b6000813590506124c6816124a0565b92915050565b6000602082840312156124e2576124e16123d7565b5b60006124f0848285016124b7565b91505092915050565b6125028161248e565b82525050565b600060208201905061251d60008301846124f9565b92915050565b6000806040838503121561253a576125396123d7565b5b6000612548858286016124b7565b925050602061255985828601612402565b9150509250929050565b60008115159050919050565b61257881612563565b82525050565b6000602082019050612593600083018461256f565b92915050565b60006040820190506125ae6000830185612444565b6125bb6020830184612444565b9392505050565b600060ff82169050919050565b6125d8816125c2565b82525050565b60006020820190506125f360008301846125cf565b92915050565b600081519050612608816124a0565b92915050565b600060208284031215612624576126236123d7565b5b6000612632848285016125f9565b91505092915050565b7f4e487b7100000000000000000000000000000000000000000000000000000000600052601160045260246000fd5b6000612675826123e1565b9150612680836123e1565b9250828210156126935761269261263b565b5b828203905092915050565b600081519050919050565b600081905092915050565b60005b838110156126d25780820151818401526020810190506126b7565b838111156126e1576000848401525b50505050565b60006126f28261269e565b6126fc81856126a9565b935061270c8185602086016126b4565b80840191505092915050565b600061272482846126e7565b915081905092915050565b7f4e487b7100000000000000000000000000000000000000000000000000000000600052603260045260246000fd5b60008151905061276d816123eb565b92915050565b600060208284031215612789576127886123d7565b5b60006127978482850161275e565b91505092915050565b60006040820190506127b560008301856124f9565b6127c26020830184612444565b9392505050565b6127d281612563565b81146127dd57600080fd5b50565b6000815190506127ef816127c9565b92915050565b60006020828403121561280b5761280a6123d7565b5b6000612819848285016127e0565b91505092915050565b600061282d826123e1565b91507fffffffffffffffffffffffffffffffffffffffffffffffffffffffffffffffff820361285f5761285e61263b565b5b600182019050919050565b6000612875826125c2565b9150600082036128885761288761263b565b5b600182039050919050565b7f4e487b7100000000000000000000000000000000000000000000000000000000600052603160045260246000fd5b6128cb816125c2565b81146128d657600080fd5b50565b6000815190506128e8816128c2565b92915050565b600060208284031215612904576129036123d7565b5b6000612912848285016128d9565b91505092915050565b60008160011c9050919050565b6000808291508390505b60018511156129725780860481111561294e5761294d61263b565b5b600185161561295d5780820291505b808102905061296b8561291b565b9450612932565b94509492505050565b60008261298b5760019050612a47565b816129995760009050612a47565b81600181146129af57600281146129b9576129e8565b6001915050612a47565b60ff8411156129cb576129ca61263b565b5b8360020a9150848211156129e2576129e161263b565b5b50612a47565b5060208310610133831016604e8410600b8410161715612a1d5782820a905083811115612a1857612a1761263b565b5b612a47565b612a2a8484846001612928565b92509050818404811115612a4157612a4061263b565b5b81810290505b9392505050565b6000612a59826123e1565b9150612a64836123e1565b9250612a917fffffffffffffffffffffffffffffffffffffffffffffffffffffffffffffffff848461297b565b905092915050565b7f4e487b7100000000000000000000000000000000000000000000000000000000600052601260045260246000fd5b6000612ad3826123e1565b9150612ade836123e1565b925082612aee57612aed612a99565b5b828204905092915050565b6000612b04826125c2565b915060ff8203612b1757612b1661263b565b5b600182019050919050565b6000612b2d826123e1565b9150612b38836123e1565b9250817fffffffffffffffffffffffffffffffffffffffffffffffffffffffffffffffff0483118215151615612b7157612b7061263b565b5b828202905092915050565b6000612b87826123e1565b9150612b92836123e1565b9250827fffffffffffffffffffffffffffffffffffffffffffffffffffffffffffffffff03821115612bc757612bc661263b565b5b828201905092915050565b600082825260208201905092915050565b7f4250000000000000000000000000000000000000000000000000000000000000600082015250565b6000612c19600283612bd2565b9150612c2482612be3565b602082019050919050565b60006020820190508181036000830152612c4881612c0c565b9050919050565b7f4e487b7100000000000000000000000000000000000000000000000000000000600052604160045260246000fd5b600081519050919050565b600082825260208201905092915050565b6000819050602082019050919050565b600063ffffffff82169050919050565b612cc381612caa565b82525050565b6000612cd58383612cba565b60208301905092915050565b6000602082019050919050565b6000612cf982612c7e565b612d038185612c89565b9350612d0e83612c9a565b8060005b83811015612d3f578151612d268882612cc9565b9750612d3183612ce1565b925050600181019050612d12565b5085935050505092915050565b60006020820190508181036000830152612d668184612cee565b905092915050565b600080fd5b6000601f19601f8301169050919050565b612d8d82612d73565b810181811067ffffffffffffffff82111715612dac57612dab612c4f565b5b80604052505050565b6000612dbf6123cd565b9050612dcb8282612d84565b919050565b600067ffffffffffffffff821115612deb57612dea612c4f565b5b602082029050602081019050919050565b600080fd5b60008160060b9050919050565b612e1781612e01565b8114612e2257600080fd5b50565b600081519050612e3481612e0e565b92915050565b6000612e4d612e4884612dd0565b612db5565b90508083825260208201905060208402830185811115612e7057612e6f612dfc565b5b835b81811015612e995780612e858882612e25565b845260208401935050602081019050612e72565b5050509392505050565b600082601f830112612eb857612eb7612d6e565b5b8151612ec8848260208601612e3a565b91505092915050565b600067ffffffffffffffff821115612eec57612eeb612c4f565b5b602082029050602081019050919050565b612f068161246e565b8114612f1157600080fd5b50565b600081519050612f2381612efd565b92915050565b6000612f3c612f3784612ed1565b612db5565b90508083825260208201905060208402830185811115612f5f57612f5e612dfc565b5b835b81811015612f885780612f748882612f14565b845260208401935050602081019050612f61565b5050509392505050565b600082601f830112612fa757612fa6612d6e565b5b8151612fb7848260208601612f29565b91505092915050565b60008060408385031215612fd757612fd66123d7565b5b600083015167ffffffffffffffff811115612ff557612ff46123dc565b5b61300185828601612ea3565b925050602083015167ffffffffffffffff811115613022576130216123dc565b5b61302e85828601612f92565b9150509250929050565b600061304382612e01565b915061304e83612e01565b9250827fffffffffffffffffffffffffffffffffffffffffffffffffff80000000000000018212600084121516156130895761308861263b565b5b82667fffffffffffff0182136000841216156130a8576130a761263b565b5b828203905092915050565b60006130be8261246e565b91506130c98361246e565b9250828210156130dc576130db61263b565b5b828203905092915050565b60006130f282612e01565b91506130fd83612e01565b92508261310d5761310c612a99565b5b600160000383147fffffffffffffffffffffffffffffffffffffffffffffffffff80000000000000831416156131465761314561263b565b5b828205905092915050565b600061315c82612e01565b915061316783612e01565b92508261317757613176612a99565b5b828207905092915050565b60008160020b9050919050565b600061319a82613182565b91507fffffffffffffffffffffffffffffffffffffffffffffffffffffffffff80000082036131cc576131cb61263b565b5b600182039050919050565b600077ffffffffffffffffffffffffffffffffffffffffffffffff82169050919050565b6000613206826131d7565b9150613211836131d7565b92508177ffffffffffffffffffffffffffffffffffffffffffffffff04831182151516156132425761324161263b565b5b828202905092915050565b6000613258826131d7565b9150613263836131d7565b92508261327357613272612a99565b5b828204905092915050565b6000819050919050565b60006132938261327e565b91507f800000000000000000000000000000000000000000000000000000000000000082036132c5576132c461263b565b5b816000039050919050565b60006132db82613182565b91507fffffffffffffffffffffffffffffffffffffffffffffffffffffffffff800000820361330d5761330c61263b565b5b816000039050919050565b7f5400000000000000000000000000000000000000000000000000000000000000600082015250565b600061334e600183612bd2565b915061335982613318565b602082019050919050565b6000602082019050818103600083015261337d81613341565b9050919050565b600061338f826123e1565b915061339a836123e1565b9250826133aa576133a9612a99565b5b82820690509291505056fea2646970667358221220e411e61515cb12667beab63695944aa1802deb4b7b2f0efff52d3f77c949dee664736f6c634300080e0033",
					"opcodes": "PUSH1 0xA0 PUSH1 0x40 MSTORE CALLVALUE DUP1 ISZERO PUSH2 0x10 JUMPI PUSH1 0x0 DUP1 REVERT JUMPDEST POP CALLER PUSH20 0xFFFFFFFFFFFFFFFFFFFFFFFFFFFFFFFFFFFFFFFF AND PUSH1 0x80 DUP2 PUSH20 0xFFFFFFFFFFFFFFFFFFFFFFFFFFFFFFFFFFFFFFFF AND DUP2 MSTORE POP POP PUSH1 0x80 MLOAD PUSH2 0x33EB PUSH2 0x7C PUSH1 0x0 CODECOPY PUSH1 0x0 DUP2 DUP2 PUSH2 0x503 ADD MSTORE DUP2 DUP2 PUSH2 0x847 ADD MSTORE DUP2 DUP2 PUSH2 0x880 ADD MSTORE DUP2 DUP2 PUSH2 0x1109 ADD MSTORE PUSH2 0x12A0 ADD MSTORE PUSH2 0x33EB PUSH1 0x0 RETURN INVALID PUSH1 0x80 PUSH1 0x40 MSTORE PUSH1 0x4 CALLDATASIZE LT PUSH2 0xEC JUMPI PUSH1 0x0 CALLDATALOAD PUSH1 0xE0 SHR DUP1 PUSH4 0x990DC9DB GT PUSH2 0x8A JUMPI DUP1 PUSH4 0xD825BFFF GT PUSH2 0x59 JUMPI DUP1 PUSH4 0xD825BFFF EQ PUSH2 0x324 JUMPI DUP1 PUSH4 0xDEF1A5E8 EQ PUSH2 0x361 JUMPI DUP1 PUSH4 0xEC556889 EQ PUSH2 0x38D JUMPI DUP1 PUSH4 0xFED0A20E EQ PUSH2 0x3B8 JUMPI PUSH2 0xF6 JUMP JUMPDEST DUP1 PUSH4 0x990DC9DB EQ PUSH2 0x26C JUMPI DUP1 PUSH4 0x9E955149 EQ PUSH2 0x2A9 JUMPI DUP1 PUSH4 0xB4014879 EQ PUSH2 0x2D2 JUMPI DUP1 PUSH4 0xCF9D4AFA EQ PUSH2 0x2FB JUMPI PUSH2 0xF6 JUMP JUMPDEST DUP1 PUSH4 0x4051B9AA GT PUSH2 0xC6 JUMPI DUP1 PUSH4 0x4051B9AA EQ PUSH2 0x19E JUMPI DUP1 PUSH4 0x52FD856B EQ PUSH2 0x1C7 JUMPI DUP1 PUSH4 0x63B48EE6 EQ PUSH2 0x1F2 JUMPI DUP1 PUSH4 0x7D0F7A88 EQ PUSH2 0x22F JUMPI PUSH2 0xF6 JUMP JUMPDEST DUP1 PUSH4 0xCB1982B EQ PUSH2 0xFB JUMPI DUP1 PUSH4 0xFBBFA3E EQ PUSH2 0x138 JUMPI DUP1 PUSH4 0x2637A477 EQ PUSH2 0x175 JUMPI PUSH2 0xF6 JUMP JUMPDEST CALLDATASIZE PUSH2 0xF6 JUMPI PUSH1 0x0 DUP1 REVERT JUMPDEST PUSH1 0x0 DUP1 REVERT JUMPDEST CALLVALUE DUP1 ISZERO PUSH2 0x107 JUMPI PUSH1 0x0 DUP1 REVERT JUMPDEST POP PUSH2 0x122 PUSH1 0x4 DUP1 CALLDATASIZE SUB DUP2 ADD SWAP1 PUSH2 0x11D SWAP2 SWAP1 PUSH2 0x2417 JUMP JUMPDEST PUSH2 0x3E3 JUMP JUMPDEST PUSH1 0x40 MLOAD PUSH2 0x12F SWAP2 SWAP1 PUSH2 0x2453 JUMP JUMPDEST PUSH1 0x40 MLOAD DUP1 SWAP2 SUB SWAP1 RETURN JUMPDEST CALLVALUE DUP1 ISZERO PUSH2 0x144 JUMPI PUSH1 0x0 DUP1 REVERT JUMPDEST POP PUSH2 0x15F PUSH1 0x4 DUP1 CALLDATASIZE SUB DUP2 ADD SWAP1 PUSH2 0x15A SWAP2 SWAP1 PUSH2 0x24CC JUMP JUMPDEST PUSH2 0x4CE JUMP JUMPDEST PUSH1 0x40 MLOAD PUSH2 0x16C SWAP2 SWAP1 PUSH2 0x2508 JUMP JUMPDEST PUSH1 0x40 MLOAD DUP1 SWAP2 SUB SWAP1 RETURN JUMPDEST CALLVALUE DUP1 ISZERO PUSH2 0x181 JUMPI PUSH1 0x0 DUP1 REVERT JUMPDEST POP PUSH2 0x19C PUSH1 0x4 DUP1 CALLDATASIZE SUB DUP2 ADD SWAP1 PUSH2 0x197 SWAP2 SWAP1 PUSH2 0x24CC JUMP JUMPDEST PUSH2 0x501 JUMP JUMPDEST STOP JUMPDEST CALLVALUE DUP1 ISZERO PUSH2 0x1AA JUMPI PUSH1 0x0 DUP1 REVERT JUMPDEST POP PUSH2 0x1C5 PUSH1 0x4 DUP1 CALLDATASIZE SUB DUP2 ADD SWAP1 PUSH2 0x1C0 SWAP2 SWAP1 PUSH2 0x24CC JUMP JUMPDEST PUSH2 0x87E JUMP JUMPDEST STOP JUMPDEST CALLVALUE DUP1 ISZERO PUSH2 0x1D3 JUMPI PUSH1 0x0 DUP1 REVERT JUMPDEST POP PUSH2 0x1DC PUSH2 0xBED JUMP JUMPDEST PUSH1 0x40 MLOAD PUSH2 0x1E9 SWAP2 SWAP1 PUSH2 0x2453 JUMP JUMPDEST PUSH1 0x40 MLOAD DUP1 SWAP2 SUB SWAP1 RETURN JUMPDEST CALLVALUE DUP1 ISZERO PUSH2 0x1FE JUMPI PUSH1 0x0 DUP1 REVERT JUMPDEST POP PUSH2 0x219 PUSH1 0x4 DUP1 CALLDATASIZE SUB DUP2 ADD SWAP1 PUSH2 0x214 SWAP2 SWAP1 PUSH2 0x2417 JUMP JUMPDEST PUSH2 0xBF3 JUMP JUMPDEST PUSH1 0x40 MLOAD PUSH2 0x226 SWAP2 SWAP1 PUSH2 0x2508 JUMP JUMPDEST PUSH1 0x40 MLOAD DUP1 SWAP2 SUB SWAP1 RETURN JUMPDEST CALLVALUE DUP1 ISZERO PUSH2 0x23B JUMPI PUSH1 0x0 DUP1 REVERT JUMPDEST POP PUSH2 0x256 PUSH1 0x4 DUP1 CALLDATASIZE SUB DUP2 ADD SWAP1 PUSH2 0x251 SWAP2 SWAP1 PUSH2 0x24CC JUMP JUMPDEST PUSH2 0xC32 JUMP JUMPDEST PUSH1 0x40 MLOAD PUSH2 0x263 SWAP2 SWAP1 PUSH2 0x2453 JUMP JUMPDEST PUSH1 0x40 MLOAD DUP1 SWAP2 SUB SWAP1 RETURN JUMPDEST CALLVALUE DUP1 ISZERO PUSH2 0x278 JUMPI PUSH1 0x0 DUP1 REVERT JUMPDEST POP PUSH2 0x293 PUSH1 0x4 DUP1 CALLDATASIZE SUB DUP2 ADD SWAP1 PUSH2 0x28E SWAP2 SWAP1 PUSH2 0x2523 JUMP JUMPDEST PUSH2 0xC4A JUMP JUMPDEST PUSH1 0x40 MLOAD PUSH2 0x2A0 SWAP2 SWAP1 PUSH2 0x257E JUMP JUMPDEST PUSH1 0x40 MLOAD DUP1 SWAP2 SUB SWAP1 RETURN JUMPDEST CALLVALUE DUP1 ISZERO PUSH2 0x2B5 JUMPI PUSH1 0x0 DUP1 REVERT JUMPDEST POP PUSH2 0x2D0 PUSH1 0x4 DUP1 CALLDATASIZE SUB DUP2 ADD SWAP1 PUSH2 0x2CB SWAP2 SWAP1 PUSH2 0x24CC JUMP JUMPDEST PUSH2 0x1069 JUMP JUMPDEST STOP JUMPDEST CALLVALUE DUP1 ISZERO PUSH2 0x2DE JUMPI PUSH1 0x0 DUP1 REVERT JUMPDEST POP PUSH2 0x2F9 PUSH1 0x4 DUP1 CALLDATASIZE SUB DUP2 ADD SWAP1 PUSH2 0x2F4 SWAP2 SWAP1 PUSH2 0x2523 JUMP JUMPDEST PUSH2 0x1107 JUMP JUMPDEST STOP JUMPDEST CALLVALUE DUP1 ISZERO PUSH2 0x307 JUMPI PUSH1 0x0 DUP1 REVERT JUMPDEST POP PUSH2 0x322 PUSH1 0x4 DUP1 CALLDATASIZE SUB DUP2 ADD SWAP1 PUSH2 0x31D SWAP2 SWAP1 PUSH2 0x24CC JUMP JUMPDEST PUSH2 0x129E JUMP JUMPDEST STOP JUMPDEST CALLVALUE DUP1 ISZERO PUSH2 0x330 JUMPI PUSH1 0x0 DUP1 REVERT JUMPDEST POP PUSH2 0x34B PUSH1 0x4 DUP1 CALLDATASIZE SUB DUP2 ADD SWAP1 PUSH2 0x346 SWAP2 SWAP1 PUSH2 0x24CC JUMP JUMPDEST PUSH2 0x1374 JUMP JUMPDEST PUSH1 0x40 MLOAD PUSH2 0x358 SWAP2 SWAP1 PUSH2 0x2508 JUMP JUMPDEST PUSH1 0x40 MLOAD DUP1 SWAP2 SUB SWAP1 RETURN JUMPDEST CALLVALUE DUP1 ISZERO PUSH2 0x36D JUMPI PUSH1 0x0 DUP1 REVERT JUMPDEST POP PUSH2 0x376 PUSH2 0x13A7 JUMP JUMPDEST PUSH1 0x40 MLOAD PUSH2 0x384 SWAP3 SWAP2 SWAP1 PUSH2 0x2599 JUMP JUMPDEST PUSH1 0x40 MLOAD DUP1 SWAP2 SUB SWAP1 RETURN JUMPDEST CALLVALUE DUP1 ISZERO PUSH2 0x399 JUMPI PUSH1 0x0 DUP1 REVERT JUMPDEST POP PUSH2 0x3A2 PUSH2 0x15CE JUMP JUMPDEST PUSH1 0x40 MLOAD PUSH2 0x3AF SWAP2 SWAP1 PUSH2 0x2508 JUMP JUMPDEST PUSH1 0x40 MLOAD DUP1 SWAP2 SUB SWAP1 RETURN JUMPDEST CALLVALUE DUP1 ISZERO PUSH2 0x3C4 JUMPI PUSH1 0x0 DUP1 REVERT JUMPDEST POP PUSH2 0x3CD PUSH2 0x15F4 JUMP JUMPDEST PUSH1 0x40 MLOAD PUSH2 0x3DA SWAP2 SWAP1 PUSH2 0x25DE JUMP JUMPDEST PUSH1 0x40 MLOAD DUP1 SWAP2 SUB SWAP1 RETURN JUMPDEST PUSH1 0x0 PUSH1 0x1 PUSH1 0x2 SWAP1 SLOAD SWAP1 PUSH2 0x100 EXP SWAP1 DIV PUSH20 0xFFFFFFFFFFFFFFFFFFFFFFFFFFFFFFFFFFFFFFFF AND PUSH20 0xFFFFFFFFFFFFFFFFFFFFFFFFFFFFFFFFFFFFFFFF AND PUSH4 0x3F0A0797 PUSH1 0x40 MLOAD DUP2 PUSH4 0xFFFFFFFF AND PUSH1 0xE0 SHL DUP2 MSTORE PUSH1 0x4 ADD PUSH1 0x20 PUSH1 0x40 MLOAD DUP1 DUP4 SUB DUP2 DUP7 GAS STATICCALL ISZERO DUP1 ISZERO PUSH2 0x452 JUMPI RETURNDATASIZE PUSH1 0x0 DUP1 RETURNDATACOPY RETURNDATASIZE PUSH1 0x0 REVERT JUMPDEST POP POP POP POP PUSH1 0x40 MLOAD RETURNDATASIZE PUSH1 0x1F NOT PUSH1 0x1F DUP3 ADD AND DUP3 ADD DUP1 PUSH1 0x40 MSTORE POP DUP2 ADD SWAP1 PUSH2 0x476 SWAP2 SWAP1 PUSH2 0x260E JUMP JUMPDEST PUSH20 0xFFFFFFFFFFFFFFFFFFFFFFFFFFFFFFFFFFFFFFFF AND CALLER PUSH20 0xFFFFFFFFFFFFFFFFFFFFFFFFFFFFFFFFFFFFFFFF AND EQ PUSH2 0x4AD JUMPI PUSH1 0x0 DUP1 REVERT JUMPDEST DUP2 PUSH2 0x4B6 PUSH2 0x1607 JUMP JUMPDEST PUSH2 0x4C0 SWAP2 SWAP1 PUSH2 0x266A JUMP JUMPDEST SWAP1 POP DUP1 PUSH1 0x0 DUP2 SWAP1 SSTORE POP SWAP2 SWAP1 POP JUMP JUMPDEST PUSH1 0x4 PUSH1 0x20 MSTORE DUP1 PUSH1 0x0 MSTORE PUSH1 0x40 PUSH1 0x0 KECCAK256 PUSH1 0x0 SWAP2 POP SLOAD SWAP1 PUSH2 0x100 EXP SWAP1 DIV PUSH20 0xFFFFFFFFFFFFFFFFFFFFFFFFFFFFFFFFFFFFFFFF AND DUP2 JUMP JUMPDEST PUSH32 0x0 PUSH20 0xFFFFFFFFFFFFFFFFFFFFFFFFFFFFFFFFFFFFFFFF AND CALLER PUSH20 0xFFFFFFFFFFFFFFFFFFFFFFFFFFFFFFFFFFFFFFFF AND EQ PUSH2 0x559 JUMPI PUSH1 0x0 DUP1 REVERT JUMPDEST PUSH1 0x0 PUSH1 0x1 PUSH1 0x2 SWAP1 SLOAD SWAP1 PUSH2 0x100 EXP SWAP1 DIV PUSH20 0xFFFFFFFFFFFFFFFFFFFFFFFFFFFFFFFFFFFFFFFF AND SWAP1 POP DUP1 PUSH20 0xFFFFFFFFFFFFFFFFFFFFFFFFFFFFFFFFFFFFFFFF AND PUSH4 0xA6FA0B7B DUP4 PUSH1 0x40 MLOAD DUP3 PUSH4 0xFFFFFFFF AND PUSH1 0xE0 SHL DUP2 MSTORE PUSH1 0x4 ADD PUSH2 0x5B9 SWAP2 SWAP1 PUSH2 0x2508 JUMP JUMPDEST PUSH1 0x0 PUSH1 0x40 MLOAD DUP1 DUP4 SUB DUP2 PUSH1 0x0 DUP8 DUP1 EXTCODESIZE ISZERO DUP1 ISZERO PUSH2 0x5D3 JUMPI PUSH1 0x0 DUP1 REVERT JUMPDEST POP GAS CALL ISZERO DUP1 ISZERO PUSH2 0x5E7 JUMPI RETURNDATASIZE PUSH1 0x0 DUP1 RETURNDATACOPY RETURNDATASIZE PUSH1 0x0 REVERT JUMPDEST POP POP POP POP DUP2 PUSH20 0xFFFFFFFFFFFFFFFFFFFFFFFFFFFFFFFFFFFFFFFF AND DUP2 PUSH1 0x40 MLOAD PUSH1 0x24 ADD PUSH2 0x613 SWAP2 SWAP1 PUSH2 0x2508 JUMP JUMPDEST PUSH1 0x40 MLOAD PUSH1 0x20 DUP2 DUP4 SUB SUB DUP2 MSTORE SWAP1 PUSH1 0x40 MSTORE PUSH32 0xCF9D4AFA00000000000000000000000000000000000000000000000000000000 PUSH28 0xFFFFFFFFFFFFFFFFFFFFFFFFFFFFFFFFFFFFFFFFFFFFFFFFFFFFFFFF NOT AND PUSH1 0x20 DUP3 ADD DUP1 MLOAD PUSH28 0xFFFFFFFFFFFFFFFFFFFFFFFFFFFFFFFFFFFFFFFFFFFFFFFFFFFFFFFF DUP4 DUP2 DUP4 AND OR DUP4 MSTORE POP POP POP POP PUSH1 0x40 MLOAD PUSH2 0x69D SWAP2 SWAP1 PUSH2 0x2718 JUMP JUMPDEST PUSH1 0x0 PUSH1 0x40 MLOAD DUP1 DUP4 SUB DUP2 DUP6 GAS DELEGATECALL SWAP2 POP POP RETURNDATASIZE DUP1 PUSH1 0x0 DUP2 EQ PUSH2 0x6D8 JUMPI PUSH1 0x40 MLOAD SWAP2 POP PUSH1 0x1F NOT PUSH1 0x3F RETURNDATASIZE ADD AND DUP3 ADD PUSH1 0x40 MSTORE RETURNDATASIZE DUP3 MSTORE RETURNDATASIZE PUSH1 0x0 PUSH1 0x20 DUP5 ADD RETURNDATACOPY PUSH2 0x6DD JUMP JUMPDEST PUSH1 0x60 SWAP2 POP JUMPDEST POP POP POP PUSH1 0x0 PUSH1 0x2 DUP1 SLOAD SWAP1 POP SWAP1 POP PUSH1 0x0 JUMPDEST DUP2 DUP2 LT ISZERO PUSH2 0x844 JUMPI PUSH1 0x0 PUSH1 0x2 DUP3 DUP2 SLOAD DUP2 LT PUSH2 0x70B JUMPI PUSH2 0x70A PUSH2 0x272F JUMP JUMPDEST JUMPDEST SWAP1 PUSH1 0x0 MSTORE PUSH1 0x20 PUSH1 0x0 KECCAK256 ADD PUSH1 0x0 SWAP1 SLOAD SWAP1 PUSH2 0x100 EXP SWAP1 DIV PUSH20 0xFFFFFFFFFFFFFFFFFFFFFFFFFFFFFFFFFFFFFFFF AND SWAP1 POP DUP1 PUSH20 0xFFFFFFFFFFFFFFFFFFFFFFFFFFFFFFFFFFFFFFFF AND PUSH4 0xA9059CBB DUP7 DUP4 PUSH20 0xFFFFFFFFFFFFFFFFFFFFFFFFFFFFFFFFFFFFFFFF AND PUSH4 0x70A08231 ADDRESS PUSH1 0x40 MLOAD DUP3 PUSH4 0xFFFFFFFF AND PUSH1 0xE0 SHL DUP2 MSTORE PUSH1 0x4 ADD PUSH2 0x78E SWAP2 SWAP1 PUSH2 0x2508 JUMP JUMPDEST PUSH1 0x20 PUSH1 0x40 MLOAD DUP1 DUP4 SUB DUP2 DUP7 GAS STATICCALL ISZERO DUP1 ISZERO PUSH2 0x7AB JUMPI RETURNDATASIZE PUSH1 0x0 DUP1 RETURNDATACOPY RETURNDATASIZE PUSH1 0x0 REVERT JUMPDEST POP POP POP POP PUSH1 0x40 MLOAD RETURNDATASIZE PUSH1 0x1F NOT PUSH1 0x1F DUP3 ADD AND DUP3 ADD DUP1 PUSH1 0x40 MSTORE POP DUP2 ADD SWAP1 PUSH2 0x7CF SWAP2 SWAP1 PUSH2 0x2773 JUMP JUMPDEST PUSH1 0x40 MLOAD DUP4 PUSH4 0xFFFFFFFF AND PUSH1 0xE0 SHL DUP2 MSTORE PUSH1 0x4 ADD PUSH2 0x7EC SWAP3 SWAP2 SWAP1 PUSH2 0x27A0 JUMP JUMPDEST PUSH1 0x20 PUSH1 0x40 MLOAD DUP1 DUP4 SUB DUP2 PUSH1 0x0 DUP8 GAS CALL ISZERO DUP1 ISZERO PUSH2 0x80B JUMPI RETURNDATASIZE PUSH1 0x0 DUP1 RETURNDATACOPY RETURNDATASIZE PUSH1 0x0 REVERT JUMPDEST POP POP POP POP PUSH1 0x40 MLOAD RETURNDATASIZE PUSH1 0x1F NOT PUSH1 0x1F DUP3 ADD AND DUP3 ADD DUP1 PUSH1 0x40 MSTORE POP DUP2 ADD SWAP1 PUSH2 0x82F SWAP2 SWAP1 PUSH2 0x27F5 JUMP JUMPDEST POP POP DUP1 DUP1 PUSH2 0x83C SWAP1 PUSH2 0x2822 JUMP JUMPDEST SWAP2 POP POP PUSH2 0x6ED JUMP JUMPDEST POP PUSH32 0x0 PUSH20 0xFFFFFFFFFFFFFFFFFFFFFFFFFFFFFFFFFFFFFFFF AND SELFDESTRUCT JUMPDEST PUSH32 0x0 PUSH20 0xFFFFFFFFFFFFFFFFFFFFFFFFFFFFFFFFFFFFFFFF AND CALLER PUSH20 0xFFFFFFFFFFFFFFFFFFFFFFFFFFFFFFFFFFFFFFFF AND EQ DUP1 PUSH2 0x993 JUMPI POP PUSH1 0x1 PUSH1 0x2 SWAP1 SLOAD SWAP1 PUSH2 0x100 EXP SWAP1 DIV PUSH20 0xFFFFFFFFFFFFFFFFFFFFFFFFFFFFFFFFFFFFFFFF AND PUSH20 0xFFFFFFFFFFFFFFFFFFFFFFFFFFFFFFFFFFFFFFFF AND PUSH4 0x3F0A0797 PUSH1 0x40 MLOAD DUP2 PUSH4 0xFFFFFFFF AND PUSH1 0xE0 SHL DUP2 MSTORE PUSH1 0x4 ADD PUSH1 0x20 PUSH1 0x40 MLOAD DUP1 DUP4 SUB DUP2 DUP7 GAS STATICCALL ISZERO DUP1 ISZERO PUSH2 0x940 JUMPI RETURNDATASIZE PUSH1 0x0 DUP1 RETURNDATACOPY RETURNDATASIZE PUSH1 0x0 REVERT JUMPDEST POP POP POP POP PUSH1 0x40 MLOAD RETURNDATASIZE PUSH1 0x1F NOT PUSH1 0x1F DUP3 ADD AND DUP3 ADD DUP1 PUSH1 0x40 MSTORE POP DUP2 ADD SWAP1 PUSH2 0x964 SWAP2 SWAP1 PUSH2 0x260E JUMP JUMPDEST PUSH20 0xFFFFFFFFFFFFFFFFFFFFFFFFFFFFFFFFFFFFFFFF AND CALLER PUSH20 0xFFFFFFFFFFFFFFFFFFFFFFFFFFFFFFFFFFFFFFFF AND EQ JUMPDEST PUSH2 0x99C JUMPI PUSH1 0x0 DUP1 REVERT JUMPDEST PUSH1 0x2 PUSH1 0x3 PUSH1 0x0 DUP4 PUSH20 0xFFFFFFFFFFFFFFFFFFFFFFFFFFFFFFFFFFFFFFFF AND PUSH20 0xFFFFFFFFFFFFFFFFFFFFFFFFFFFFFFFFFFFFFFFF AND DUP2 MSTORE PUSH1 0x20 ADD SWAP1 DUP2 MSTORE PUSH1 0x20 ADD PUSH1 0x0 KECCAK256 SLOAD SUB PUSH2 0xA1B JUMPI PUSH1 0x1 DUP1 DUP2 DUP2 SWAP1 SLOAD SWAP1 PUSH2 0x100 EXP SWAP1 DIV PUSH1 0xFF AND DUP1 SWAP3 SWAP2 SWAP1 PUSH2 0xA01 SWAP1 PUSH2 0x286A JUMP JUMPDEST SWAP2 SWAP1 PUSH2 0x100 EXP DUP2 SLOAD DUP2 PUSH1 0xFF MUL NOT AND SWAP1 DUP4 PUSH1 0xFF AND MUL OR SWAP1 SSTORE POP POP JUMPDEST PUSH1 0x0 PUSH1 0x3 PUSH1 0x0 DUP4 PUSH20 0xFFFFFFFFFFFFFFFFFFFFFFFFFFFFFFFFFFFFFFFF AND PUSH20 0xFFFFFFFFFFFFFFFFFFFFFFFFFFFFFFFFFFFFFFFF AND DUP2 MSTORE PUSH1 0x20 ADD SWAP1 DUP2 MSTORE PUSH1 0x20 ADD PUSH1 0x0 KECCAK256 DUP2 SWAP1 SSTORE POP PUSH1 0x0 PUSH1 0x2 DUP1 SLOAD SWAP1 POP SWAP1 POP PUSH1 0x0 JUMPDEST DUP2 DUP2 LT ISZERO PUSH2 0xBE8 JUMPI DUP3 PUSH20 0xFFFFFFFFFFFFFFFFFFFFFFFFFFFFFFFFFFFFFFFF AND PUSH1 0x2 DUP3 DUP2 SLOAD DUP2 LT PUSH2 0xAA0 JUMPI PUSH2 0xA9F PUSH2 0x272F JUMP JUMPDEST JUMPDEST SWAP1 PUSH1 0x0 MSTORE PUSH1 0x20 PUSH1 0x0 KECCAK256 ADD PUSH1 0x0 SWAP1 SLOAD SWAP1 PUSH2 0x100 EXP SWAP1 DIV PUSH20 0xFFFFFFFFFFFFFFFFFFFFFFFFFFFFFFFFFFFFFFFF AND PUSH20 0xFFFFFFFFFFFFFFFFFFFFFFFFFFFFFFFFFFFFFFFF AND SUB PUSH2 0xBD5 JUMPI PUSH1 0x2 PUSH1 0x1 DUP4 PUSH2 0xAF5 SWAP2 SWAP1 PUSH2 0x266A JUMP JUMPDEST DUP2 SLOAD DUP2 LT PUSH2 0xB06 JUMPI PUSH2 0xB05 PUSH2 0x272F JUMP JUMPDEST JUMPDEST SWAP1 PUSH1 0x0 MSTORE PUSH1 0x20 PUSH1 0x0 KECCAK256 ADD PUSH1 0x0 SWAP1 SLOAD SWAP1 PUSH2 0x100 EXP SWAP1 DIV PUSH20 0xFFFFFFFFFFFFFFFFFFFFFFFFFFFFFFFFFFFFFFFF AND PUSH1 0x2 DUP3 DUP2 SLOAD DUP2 LT PUSH2 0xB45 JUMPI PUSH2 0xB44 PUSH2 0x272F JUMP JUMPDEST JUMPDEST SWAP1 PUSH1 0x0 MSTORE PUSH1 0x20 PUSH1 0x0 KECCAK256 ADD PUSH1 0x0 PUSH2 0x100 EXP DUP2 SLOAD DUP2 PUSH20 0xFFFFFFFFFFFFFFFFFFFFFFFFFFFFFFFFFFFFFFFF MUL NOT AND SWAP1 DUP4 PUSH20 0xFFFFFFFFFFFFFFFFFFFFFFFFFFFFFFFFFFFFFFFF AND MUL OR SWAP1 SSTORE POP PUSH1 0x2 DUP1 SLOAD DUP1 PUSH2 0xB9F JUMPI PUSH2 0xB9E PUSH2 0x2893 JUMP JUMPDEST JUMPDEST PUSH1 0x1 SWAP1 SUB DUP2 DUP2 SWAP1 PUSH1 0x0 MSTORE PUSH1 0x20 PUSH1 0x0 KECCAK256 ADD PUSH1 0x0 PUSH2 0x100 EXP DUP2 SLOAD SWAP1 PUSH20 0xFFFFFFFFFFFFFFFFFFFFFFFFFFFFFFFFFFFFFFFF MUL NOT AND SWAP1 SSTORE SWAP1 SSTORE JUMPDEST DUP1 DUP1 PUSH2 0xBE0 SWAP1 PUSH2 0x2822 JUMP JUMPDEST SWAP2 POP POP PUSH2 0xA6D JUMP JUMPDEST POP POP POP JUMP JUMPDEST PUSH1 0x0 SLOAD DUP2 JUMP JUMPDEST PUSH1 0x2 DUP2 DUP2 SLOAD DUP2 LT PUSH2 0xC03 JUMPI PUSH1 0x0 DUP1 REVERT JUMPDEST SWAP1 PUSH1 0x0 MSTORE PUSH1 0x20 PUSH1 0x0 KECCAK256 ADD PUSH1 0x0 SWAP2 POP SLOAD SWAP1 PUSH2 0x100 EXP SWAP1 DIV PUSH20 0xFFFFFFFFFFFFFFFFFFFFFFFFFFFFFFFFFFFFFFFF AND DUP2 JUMP JUMPDEST PUSH1 0x3 PUSH1 0x20 MSTORE DUP1 PUSH1 0x0 MSTORE PUSH1 0x40 PUSH1 0x0 KECCAK256 PUSH1 0x0 SWAP2 POP SWAP1 POP SLOAD DUP2 JUMP JUMPDEST PUSH1 0x0 DUP1 PUSH1 0x1 PUSH1 0x2 SWAP1 SLOAD SWAP1 PUSH2 0x100 EXP SWAP1 DIV PUSH20 0xFFFFFFFFFFFFFFFFFFFFFFFFFFFFFFFFFFFFFFFF AND SWAP1 POP DUP1 PUSH20 0xFFFFFFFFFFFFFFFFFFFFFFFFFFFFFFFFFFFFFFFF AND PUSH4 0x3F0A0797 PUSH1 0x40 MLOAD DUP2 PUSH4 0xFFFFFFFF AND PUSH1 0xE0 SHL DUP2 MSTORE PUSH1 0x4 ADD PUSH1 0x20 PUSH1 0x40 MLOAD DUP1 DUP4 SUB DUP2 DUP7 GAS STATICCALL ISZERO DUP1 ISZERO PUSH2 0xCBD JUMPI RETURNDATASIZE PUSH1 0x0 DUP1 RETURNDATACOPY RETURNDATASIZE PUSH1 0x0 REVERT JUMPDEST POP POP POP POP PUSH1 0x40 MLOAD RETURNDATASIZE PUSH1 0x1F NOT PUSH1 0x1F DUP3 ADD AND DUP3 ADD DUP1 PUSH1 0x40 MSTORE POP DUP2 ADD SWAP1 PUSH2 0xCE1 SWAP2 SWAP1 PUSH2 0x260E JUMP JUMPDEST PUSH20 0xFFFFFFFFFFFFFFFFFFFFFFFFFFFFFFFFFFFFFFFF AND CALLER PUSH20 0xFFFFFFFFFFFFFFFFFFFFFFFFFFFFFFFFFFFFFFFF AND EQ DUP1 PUSH2 0xDB3 JUMPI POP DUP1 PUSH20 0xFFFFFFFFFFFFFFFFFFFFFFFFFFFFFFFFFFFFFFFF AND PUSH4 0xDA8909E5 PUSH1 0x40 MLOAD DUP2 PUSH4 0xFFFFFFFF AND PUSH1 0xE0 SHL DUP2 MSTORE PUSH1 0x4 ADD PUSH1 0x20 PUSH1 0x40 MLOAD DUP1 DUP4 SUB DUP2 DUP7 GAS STATICCALL ISZERO DUP1 ISZERO PUSH2 0xD60 JUMPI RETURNDATASIZE PUSH1 0x0 DUP1 RETURNDATACOPY RETURNDATASIZE PUSH1 0x0 REVERT JUMPDEST POP POP POP POP PUSH1 0x40 MLOAD RETURNDATASIZE PUSH1 0x1F NOT PUSH1 0x1F DUP3 ADD AND DUP3 ADD DUP1 PUSH1 0x40 MSTORE POP DUP2 ADD SWAP1 PUSH2 0xD84 SWAP2 SWAP1 PUSH2 0x260E JUMP JUMPDEST PUSH20 0xFFFFFFFFFFFFFFFFFFFFFFFFFFFFFFFFFFFFFFFF AND CALLER PUSH20 0xFFFFFFFFFFFFFFFFFFFFFFFFFFFFFFFFFFFFFFFF AND EQ JUMPDEST PUSH2 0xDBC JUMPI PUSH1 0x0 DUP1 REVERT JUMPDEST PUSH1 0x0 PUSH1 0x2 DUP1 SLOAD SWAP1 POP SWAP1 POP PUSH1 0x0 JUMPDEST DUP2 DUP2 LT ISZERO PUSH2 0x105C JUMPI PUSH1 0x0 PUSH1 0x2 DUP3 DUP2 SLOAD DUP2 LT PUSH2 0xDE7 JUMPI PUSH2 0xDE6 PUSH2 0x272F JUMP JUMPDEST JUMPDEST SWAP1 PUSH1 0x0 MSTORE PUSH1 0x20 PUSH1 0x0 KECCAK256 ADD PUSH1 0x0 SWAP1 SLOAD SWAP1 PUSH2 0x100 EXP SWAP1 DIV PUSH20 0xFFFFFFFFFFFFFFFFFFFFFFFFFFFFFFFFFFFFFFFF AND SWAP1 POP PUSH1 0x2 PUSH1 0x3 PUSH1 0x0 DUP4 PUSH20 0xFFFFFFFFFFFFFFFFFFFFFFFFFFFFFFFFFFFFFFFF AND PUSH20 0xFFFFFFFFFFFFFFFFFFFFFFFFFFFFFFFFFFFFFFFF AND DUP2 MSTORE PUSH1 0x20 ADD SWAP1 DUP2 MSTORE PUSH1 0x20 ADD PUSH1 0x0 KECCAK256 SLOAD SUB PUSH2 0x1048 JUMPI PUSH1 0x0 DUP2 PUSH20 0xFFFFFFFFFFFFFFFFFFFFFFFFFFFFFFFFFFFFFFFF AND PUSH4 0x313CE567 PUSH1 0x40 MLOAD DUP2 PUSH4 0xFFFFFFFF AND PUSH1 0xE0 SHL DUP2 MSTORE PUSH1 0x4 ADD PUSH1 0x20 PUSH1 0x40 MLOAD DUP1 DUP4 SUB DUP2 DUP7 GAS STATICCALL ISZERO DUP1 ISZERO PUSH2 0xEA8 JUMPI RETURNDATASIZE PUSH1 0x0 DUP1 RETURNDATACOPY RETURNDATASIZE PUSH1 0x0 REVERT JUMPDEST POP POP POP POP PUSH1 0x40 MLOAD RETURNDATASIZE PUSH1 0x1F NOT PUSH1 0x1F DUP3 ADD AND DUP3 ADD DUP1 PUSH1 0x40 MSTORE POP DUP2 ADD SWAP1 PUSH2 0xECC SWAP2 SWAP1 PUSH2 0x28EE JUMP JUMPDEST SWAP1 POP PUSH1 0x12 DUP2 PUSH1 0xFF AND LT ISZERO PUSH2 0xF9F JUMPI DUP2 PUSH20 0xFFFFFFFFFFFFFFFFFFFFFFFFFFFFFFFFFFFFFFFF AND PUSH4 0xA9059CBB DUP10 PUSH1 0x12 DUP5 PUSH1 0xFF AND PUSH2 0xF07 SWAP2 SWAP1 PUSH2 0x266A JUMP JUMPDEST PUSH1 0xA PUSH2 0xF13 SWAP2 SWAP1 PUSH2 0x2A4E JUMP JUMPDEST PUSH1 0x1 DUP1 SLOAD SWAP1 PUSH2 0x100 EXP SWAP1 DIV PUSH1 0xFF AND PUSH1 0xFF AND DUP12 PUSH2 0xF2F SWAP2 SWAP1 PUSH2 0x2AC8 JUMP JUMPDEST PUSH2 0xF39 SWAP2 SWAP1 PUSH2 0x2AC8 JUMP JUMPDEST PUSH1 0x40 MLOAD DUP4 PUSH4 0xFFFFFFFF AND PUSH1 0xE0 SHL DUP2 MSTORE PUSH1 0x4 ADD PUSH2 0xF56 SWAP3 SWAP2 SWAP1 PUSH2 0x27A0 JUMP JUMPDEST PUSH1 0x20 PUSH1 0x40 MLOAD DUP1 DUP4 SUB DUP2 PUSH1 0x0 DUP8 GAS CALL ISZERO DUP1 ISZERO PUSH2 0xF75 JUMPI RETURNDATASIZE PUSH1 0x0 DUP1 RETURNDATACOPY RETURNDATASIZE PUSH1 0x0 REVERT JUMPDEST POP POP POP POP PUSH1 0x40 MLOAD RETURNDATASIZE PUSH1 0x1F NOT PUSH1 0x1F DUP3 ADD AND DUP3 ADD DUP1 PUSH1 0x40 MSTORE POP DUP2 ADD SWAP1 PUSH2 0xF99 SWAP2 SWAP1 PUSH2 0x27F5 JUMP JUMPDEST POP PUSH2 0x1046 JUMP JUMPDEST PUSH1 0x12 DUP2 PUSH1 0xFF AND SUB PUSH2 0x1045 JUMPI DUP2 PUSH20 0xFFFFFFFFFFFFFFFFFFFFFFFFFFFFFFFFFFFFFFFF AND PUSH4 0xA9059CBB DUP10 PUSH1 0x1 DUP1 SLOAD SWAP1 PUSH2 0x100 EXP SWAP1 DIV PUSH1 0xFF AND PUSH1 0xFF AND DUP11 PUSH2 0xFE3 SWAP2 SWAP1 PUSH2 0x2AC8 JUMP JUMPDEST PUSH1 0x40 MLOAD DUP4 PUSH4 0xFFFFFFFF AND PUSH1 0xE0 SHL DUP2 MSTORE PUSH1 0x4 ADD PUSH2 0x1000 SWAP3 SWAP2 SWAP1 PUSH2 0x27A0 JUMP JUMPDEST PUSH1 0x20 PUSH1 0x40 MLOAD DUP1 DUP4 SUB DUP2 PUSH1 0x0 DUP8 GAS CALL ISZERO DUP1 ISZERO PUSH2 0x101F JUMPI RETURNDATASIZE PUSH1 0x0 DUP1 RETURNDATACOPY RETURNDATASIZE PUSH1 0x0 REVERT JUMPDEST POP POP POP POP PUSH1 0x40 MLOAD RETURNDATASIZE PUSH1 0x1F NOT PUSH1 0x1F DUP3 ADD AND DUP3 ADD DUP1 PUSH1 0x40 MSTORE POP DUP2 ADD SWAP1 PUSH2 0x1043 SWAP2 SWAP1 PUSH2 0x27F5 JUMP JUMPDEST POP JUMPDEST JUMPDEST POP JUMPDEST POP DUP1 DUP1 PUSH2 0x1054 SWAP1 PUSH2 0x2822 JUMP JUMPDEST SWAP2 POP POP PUSH2 0xDC9 JUMP JUMPDEST POP PUSH1 0x1 SWAP3 POP POP POP SWAP3 SWAP2 POP POP JUMP JUMPDEST PUSH1 0x1 PUSH1 0x2 SWAP1 SLOAD SWAP1 PUSH2 0x100 EXP SWAP1 DIV PUSH20 0xFFFFFFFFFFFFFFFFFFFFFFFFFFFFFFFFFFFFFFFF AND PUSH20 0xFFFFFFFFFFFFFFFFFFFFFFFFFFFFFFFFFFFFFFFF AND CALLER PUSH20 0xFFFFFFFFFFFFFFFFFFFFFFFFFFFFFFFFFFFFFFFF AND EQ PUSH2 0x10C3 JUMPI PUSH1 0x0 DUP1 REVERT JUMPDEST DUP1 PUSH1 0x1 PUSH1 0x2 PUSH2 0x100 EXP DUP2 SLOAD DUP2 PUSH20 0xFFFFFFFFFFFFFFFFFFFFFFFFFFFFFFFFFFFFFFFF MUL NOT AND SWAP1 DUP4 PUSH20 0xFFFFFFFFFFFFFFFFFFFFFFFFFFFFFFFFFFFFFFFF AND MUL OR SWAP1 SSTORE POP POP JUMP JUMPDEST PUSH32 0x0 PUSH20 0xFFFFFFFFFFFFFFFFFFFFFFFFFFFFFFFFFFFFFFFF AND CALLER PUSH20 0xFFFFFFFFFFFFFFFFFFFFFFFFFFFFFFFFFFFFFFFF AND EQ PUSH2 0x115F JUMPI PUSH1 0x0 DUP1 REVERT JUMPDEST PUSH1 0x0 DUP2 SUB PUSH2 0x11B1 JUMPI PUSH1 0x1 PUSH1 0x3 PUSH1 0x0 DUP5 PUSH20 0xFFFFFFFFFFFFFFFFFFFFFFFFFFFFFFFFFFFFFFFF AND PUSH20 0xFFFFFFFFFFFFFFFFFFFFFFFFFFFFFFFFFFFFFFFF AND DUP2 MSTORE PUSH1 0x20 ADD SWAP1 DUP2 MSTORE PUSH1 0x20 ADD PUSH1 0x0 KECCAK256 DUP2 SWAP1 SSTORE POP PUSH2 0x1237 JUMP JUMPDEST PUSH1 0x1 DUP2 SUB PUSH2 0x1236 JUMPI PUSH1 0x2 PUSH1 0x3 PUSH1 0x0 DUP5 PUSH20 0xFFFFFFFFFFFFFFFFFFFFFFFFFFFFFFFFFFFFFFFF AND PUSH20 0xFFFFFFFFFFFFFFFFFFFFFFFFFFFFFFFFFFFFFFFF AND DUP2 MSTORE PUSH1 0x20 ADD SWAP1 DUP2 MSTORE PUSH1 0x20 ADD PUSH1 0x0 KECCAK256 DUP2 SWAP1 SSTORE POP PUSH1 0x1 DUP1 DUP2 DUP2 SWAP1 SLOAD SWAP1 PUSH2 0x100 EXP SWAP1 DIV PUSH1 0xFF AND DUP1 SWAP3 SWAP2 SWAP1 PUSH2 0x121C SWAP1 PUSH2 0x2AF9 JUMP JUMPDEST SWAP2 SWAP1 PUSH2 0x100 EXP DUP2 SLOAD DUP2 PUSH1 0xFF MUL NOT AND SWAP1 DUP4 PUSH1 0xFF AND MUL OR SWAP1 SSTORE POP POP JUMPDEST JUMPDEST PUSH1 0x2 DUP3 SWAP1 DUP1 PUSH1 0x1 DUP2 SLOAD ADD DUP1 DUP3 SSTORE DUP1 SWAP2 POP POP PUSH1 0x1 SWAP1 SUB SWAP1 PUSH1 0x0 MSTORE PUSH1 0x20 PUSH1 0x0 KECCAK256 ADD PUSH1 0x0 SWAP1 SWAP2 SWAP1 SWAP2 SWAP1 SWAP2 PUSH2 0x100 EXP DUP2 SLOAD DUP2 PUSH20 0xFFFFFFFFFFFFFFFFFFFFFFFFFFFFFFFFFFFFFFFF MUL NOT AND SWAP1 DUP4 PUSH20 0xFFFFFFFFFFFFFFFFFFFFFFFFFFFFFFFFFFFFFFFF AND MUL OR SWAP1 SSTORE POP POP POP JUMP JUMPDEST PUSH32 0x0 PUSH20 0xFFFFFFFFFFFFFFFFFFFFFFFFFFFFFFFFFFFFFFFF AND CALLER PUSH20 0xFFFFFFFFFFFFFFFFFFFFFFFFFFFFFFFFFFFFFFFF AND EQ PUSH2 0x12F6 JUMPI PUSH1 0x0 DUP1 REVERT JUMPDEST PUSH1 0x0 PUSH1 0x1 PUSH1 0x0 SWAP1 SLOAD SWAP1 PUSH2 0x100 EXP SWAP1 DIV PUSH1 0xFF AND PUSH1 0xFF AND EQ PUSH2 0x1315 JUMPI PUSH1 0x0 DUP1 REVERT JUMPDEST DUP1 PUSH1 0x1 PUSH1 0x2 PUSH2 0x100 EXP DUP2 SLOAD DUP2 PUSH20 0xFFFFFFFFFFFFFFFFFFFFFFFFFFFFFFFFFFFFFFFF MUL NOT AND SWAP1 DUP4 PUSH20 0xFFFFFFFFFFFFFFFFFFFFFFFFFFFFFFFFFFFFFFFF AND MUL OR SWAP1 SSTORE POP PUSH1 0x1 DUP1 PUSH1 0x0 PUSH2 0x100 EXP DUP2 SLOAD DUP2 PUSH1 0xFF MUL NOT AND SWAP1 DUP4 PUSH1 0xFF AND MUL OR SWAP1 SSTORE POP POP JUMP JUMPDEST PUSH1 0x5 PUSH1 0x20 MSTORE DUP1 PUSH1 0x0 MSTORE PUSH1 0x40 PUSH1 0x0 KECCAK256 PUSH1 0x0 SWAP2 POP SLOAD SWAP1 PUSH2 0x100 EXP SWAP1 DIV PUSH20 0xFFFFFFFFFFFFFFFFFFFFFFFFFFFFFFFFFFFFFFFF AND DUP2 JUMP JUMPDEST PUSH1 0x0 DUP1 PUSH1 0x0 PUSH1 0x1 PUSH1 0x2 SWAP1 SLOAD SWAP1 PUSH2 0x100 EXP SWAP1 DIV PUSH20 0xFFFFFFFFFFFFFFFFFFFFFFFFFFFFFFFFFFFFFFFF AND PUSH20 0xFFFFFFFFFFFFFFFFFFFFFFFFFFFFFFFFFFFFFFFF AND PUSH4 0xDA8909E5 PUSH1 0x40 MLOAD DUP2 PUSH4 0xFFFFFFFF AND PUSH1 0xE0 SHL DUP2 MSTORE PUSH1 0x4 ADD PUSH1 0x20 PUSH1 0x40 MLOAD DUP1 DUP4 SUB DUP2 DUP7 GAS STATICCALL ISZERO DUP1 ISZERO PUSH2 0x1419 JUMPI RETURNDATASIZE PUSH1 0x0 DUP1 RETURNDATACOPY RETURNDATASIZE PUSH1 0x0 REVERT JUMPDEST POP POP POP POP PUSH1 0x40 MLOAD RETURNDATASIZE PUSH1 0x1F NOT PUSH1 0x1F DUP3 ADD AND DUP3 ADD DUP1 PUSH1 0x40 MSTORE POP DUP2 ADD SWAP1 PUSH2 0x143D SWAP2 SWAP1 PUSH2 0x260E JUMP JUMPDEST PUSH20 0xFFFFFFFFFFFFFFFFFFFFFFFFFFFFFFFFFFFFFFFF AND PUSH4 0xD0B06F5D PUSH1 0x40 MLOAD DUP2 PUSH4 0xFFFFFFFF AND PUSH1 0xE0 SHL DUP2 MSTORE PUSH1 0x4 ADD PUSH1 0x20 PUSH1 0x40 MLOAD DUP1 DUP4 SUB DUP2 DUP7 GAS STATICCALL ISZERO DUP1 ISZERO PUSH2 0x1487 JUMPI RETURNDATASIZE PUSH1 0x0 DUP1 RETURNDATACOPY RETURNDATASIZE PUSH1 0x0 REVERT JUMPDEST POP POP POP POP PUSH1 0x40 MLOAD RETURNDATASIZE PUSH1 0x1F NOT PUSH1 0x1F DUP3 ADD AND DUP3 ADD DUP1 PUSH1 0x40 MSTORE POP DUP2 ADD SWAP1 PUSH2 0x14AB SWAP2 SWAP1 PUSH2 0x2773 JUMP JUMPDEST SWAP1 POP PUSH1 0x0 PUSH1 0x1 PUSH1 0x2 SWAP1 SLOAD SWAP1 PUSH2 0x100 EXP SWAP1 DIV PUSH20 0xFFFFFFFFFFFFFFFFFFFFFFFFFFFFFFFFFFFFFFFF AND PUSH20 0xFFFFFFFFFFFFFFFFFFFFFFFFFFFFFFFFFFFFFFFF AND PUSH4 0xDA8909E5 PUSH1 0x40 MLOAD DUP2 PUSH4 0xFFFFFFFF AND PUSH1 0xE0 SHL DUP2 MSTORE PUSH1 0x4 ADD PUSH1 0x20 PUSH1 0x40 MLOAD DUP1 DUP4 SUB DUP2 DUP7 GAS STATICCALL ISZERO DUP1 ISZERO PUSH2 0x151C JUMPI RETURNDATASIZE PUSH1 0x0 DUP1 RETURNDATACOPY RETURNDATASIZE PUSH1 0x0 REVERT JUMPDEST POP POP POP POP PUSH1 0x40 MLOAD RETURNDATASIZE PUSH1 0x1F NOT PUSH1 0x1F DUP3 ADD AND DUP3 ADD DUP1 PUSH1 0x40 MSTORE POP DUP2 ADD SWAP1 PUSH2 0x1540 SWAP2 SWAP1 PUSH2 0x260E JUMP JUMPDEST PUSH20 0xFFFFFFFFFFFFFFFFFFFFFFFFFFFFFFFFFFFFFFFF AND PUSH4 0x7F8483A4 PUSH1 0x40 MLOAD DUP2 PUSH4 0xFFFFFFFF AND PUSH1 0xE0 SHL DUP2 MSTORE PUSH1 0x4 ADD PUSH1 0x20 PUSH1 0x40 MLOAD DUP1 DUP4 SUB DUP2 DUP7 GAS STATICCALL ISZERO DUP1 ISZERO PUSH2 0x158A JUMPI RETURNDATASIZE PUSH1 0x0 DUP1 RETURNDATACOPY RETURNDATASIZE PUSH1 0x0 REVERT JUMPDEST POP POP POP POP PUSH1 0x40 MLOAD RETURNDATASIZE PUSH1 0x1F NOT PUSH1 0x1F DUP3 ADD AND DUP3 ADD DUP1 PUSH1 0x40 MSTORE POP DUP2 ADD SWAP1 PUSH2 0x15AE SWAP2 SWAP1 PUSH2 0x2773 JUMP JUMPDEST SWAP1 POP DUP1 PUSH2 0x15B9 PUSH2 0x1607 JUMP JUMPDEST PUSH2 0x15C3 SWAP2 SWAP1 PUSH2 0x266A JUMP JUMPDEST DUP3 SWAP4 POP SWAP4 POP POP POP SWAP1 SWAP2 JUMP JUMPDEST PUSH1 0x1 PUSH1 0x2 SWAP1 SLOAD SWAP1 PUSH2 0x100 EXP SWAP1 DIV PUSH20 0xFFFFFFFFFFFFFFFFFFFFFFFFFFFFFFFFFFFFFFFF AND DUP2 JUMP JUMPDEST PUSH1 0x1 PUSH1 0x0 SWAP1 SLOAD SWAP1 PUSH2 0x100 EXP SWAP1 DIV PUSH1 0xFF AND DUP2 JUMP JUMPDEST PUSH1 0x0 DUP1 PUSH1 0x2 DUP1 SLOAD SWAP1 POP SWAP1 POP PUSH1 0x0 JUMPDEST DUP2 DUP2 LT ISZERO PUSH2 0x1855 JUMPI PUSH1 0x0 PUSH1 0x2 DUP3 DUP2 SLOAD DUP2 LT PUSH2 0x1633 JUMPI PUSH2 0x1632 PUSH2 0x272F JUMP JUMPDEST JUMPDEST SWAP1 PUSH1 0x0 MSTORE PUSH1 0x20 PUSH1 0x0 KECCAK256 ADD PUSH1 0x0 SWAP1 SLOAD SWAP1 PUSH2 0x100 EXP SWAP1 DIV PUSH20 0xFFFFFFFFFFFFFFFFFFFFFFFFFFFFFFFFFFFFFFFF AND SWAP1 POP PUSH1 0x0 DUP2 PUSH20 0xFFFFFFFFFFFFFFFFFFFFFFFFFFFFFFFFFFFFFFFF AND PUSH4 0x70A08231 ADDRESS PUSH1 0x40 MLOAD DUP3 PUSH4 0xFFFFFFFF AND PUSH1 0xE0 SHL DUP2 MSTORE PUSH1 0x4 ADD PUSH2 0x169B SWAP2 SWAP1 PUSH2 0x2508 JUMP JUMPDEST PUSH1 0x20 PUSH1 0x40 MLOAD DUP1 DUP4 SUB DUP2 DUP7 GAS STATICCALL ISZERO DUP1 ISZERO PUSH2 0x16B8 JUMPI RETURNDATASIZE PUSH1 0x0 DUP1 RETURNDATACOPY RETURNDATASIZE PUSH1 0x0 REVERT JUMPDEST POP POP POP POP PUSH1 0x40 MLOAD RETURNDATASIZE PUSH1 0x1F NOT PUSH1 0x1F DUP3 ADD AND DUP3 ADD DUP1 PUSH1 0x40 MSTORE POP DUP2 ADD SWAP1 PUSH2 0x16DC SWAP2 SWAP1 PUSH2 0x2773 JUMP JUMPDEST SWAP1 POP PUSH1 0x0 PUSH1 0x3 PUSH1 0x0 DUP5 PUSH20 0xFFFFFFFFFFFFFFFFFFFFFFFFFFFFFFFFFFFFFFFF AND PUSH20 0xFFFFFFFFFFFFFFFFFFFFFFFFFFFFFFFFFFFFFFFF AND DUP2 MSTORE PUSH1 0x20 ADD SWAP1 DUP2 MSTORE PUSH1 0x20 ADD PUSH1 0x0 KECCAK256 SLOAD SWAP1 POP PUSH1 0x1 DUP2 SUB PUSH2 0x1827 JUMPI PUSH1 0x0 DUP1 PUSH2 0x1797 PUSH1 0x4 PUSH1 0x0 DUP8 PUSH20 0xFFFFFFFFFFFFFFFFFFFFFFFFFFFFFFFFFFFFFFFF AND PUSH20 0xFFFFFFFFFFFFFFFFFFFFFFFFFFFFFFFFFFFFFFFF AND DUP2 MSTORE PUSH1 0x20 ADD SWAP1 DUP2 MSTORE PUSH1 0x20 ADD PUSH1 0x0 KECCAK256 PUSH1 0x0 SWAP1 SLOAD SWAP1 PUSH2 0x100 EXP SWAP1 DIV PUSH20 0xFFFFFFFFFFFFFFFFFFFFFFFFFFFFFFFFFFFFFFFF AND PUSH1 0x0 PUSH2 0x185A JUMP JUMPDEST POP SWAP1 POP PUSH2 0x1805 DUP2 DUP6 DUP8 PUSH1 0x5 PUSH1 0x0 DUP11 PUSH20 0xFFFFFFFFFFFFFFFFFFFFFFFFFFFFFFFFFFFFFFFF AND PUSH20 0xFFFFFFFFFFFFFFFFFFFFFFFFFFFFFFFFFFFFFFFF AND DUP2 MSTORE PUSH1 0x20 ADD SWAP1 DUP2 MSTORE PUSH1 0x20 ADD PUSH1 0x0 KECCAK256 PUSH1 0x0 SWAP1 SLOAD SWAP1 PUSH2 0x100 EXP SWAP1 DIV PUSH20 0xFFFFFFFFFFFFFFFFFFFFFFFFFFFFFFFFFFFFFFFF AND PUSH2 0x1B2A JUMP JUMPDEST SWAP2 POP POP DUP1 DUP4 PUSH2 0x1814 SWAP2 SWAP1 PUSH2 0x2B22 JUMP JUMPDEST DUP8 PUSH2 0x181F SWAP2 SWAP1 PUSH2 0x2B7C JUMP JUMPDEST SWAP7 POP POP PUSH2 0x183F JUMP JUMPDEST PUSH1 0x2 DUP2 SUB PUSH2 0x183E JUMPI DUP2 DUP7 PUSH2 0x183B SWAP2 SWAP1 PUSH2 0x2B7C JUMP JUMPDEST SWAP6 POP JUMPDEST JUMPDEST POP POP POP DUP1 DUP1 PUSH2 0x184D SWAP1 PUSH2 0x2822 JUMP JUMPDEST SWAP2 POP POP PUSH2 0x1615 JUMP JUMPDEST POP POP SWAP1 JUMP JUMPDEST PUSH1 0x0 DUP1 PUSH1 0x0 DUP4 PUSH4 0xFFFFFFFF AND SUB PUSH2 0x18A6 JUMPI PUSH1 0x40 MLOAD PUSH32 0x8C379A000000000000000000000000000000000000000000000000000000000 DUP2 MSTORE PUSH1 0x4 ADD PUSH2 0x189D SWAP1 PUSH2 0x2C2F JUMP JUMPDEST PUSH1 0x40 MLOAD DUP1 SWAP2 SUB SWAP1 REVERT JUMPDEST PUSH1 0x0 PUSH1 0x2 PUSH8 0xFFFFFFFFFFFFFFFF DUP2 GT ISZERO PUSH2 0x18C3 JUMPI PUSH2 0x18C2 PUSH2 0x2C4F JUMP JUMPDEST JUMPDEST PUSH1 0x40 MLOAD SWAP1 DUP1 DUP3 MSTORE DUP1 PUSH1 0x20 MUL PUSH1 0x20 ADD DUP3 ADD PUSH1 0x40 MSTORE DUP1 ISZERO PUSH2 0x18F1 JUMPI DUP2 PUSH1 0x20 ADD PUSH1 0x20 DUP3 MUL DUP1 CALLDATASIZE DUP4 CALLDATACOPY DUP1 DUP3 ADD SWAP2 POP POP SWAP1 POP JUMPDEST POP SWAP1 POP DUP4 DUP2 PUSH1 0x0 DUP2 MLOAD DUP2 LT PUSH2 0x1909 JUMPI PUSH2 0x1908 PUSH2 0x272F JUMP JUMPDEST JUMPDEST PUSH1 0x20 MUL PUSH1 0x20 ADD ADD SWAP1 PUSH4 0xFFFFFFFF AND SWAP1 DUP2 PUSH4 0xFFFFFFFF AND DUP2 MSTORE POP POP PUSH1 0x0 DUP2 PUSH1 0x1 DUP2 MLOAD DUP2 LT PUSH2 0x1939 JUMPI PUSH2 0x1938 PUSH2 0x272F JUMP JUMPDEST JUMPDEST PUSH1 0x20 MUL PUSH1 0x20 ADD ADD SWAP1 PUSH4 0xFFFFFFFF AND SWAP1 DUP2 PUSH4 0xFFFFFFFF AND DUP2 MSTORE POP POP PUSH1 0x0 DUP1 DUP7 PUSH20 0xFFFFFFFFFFFFFFFFFFFFFFFFFFFFFFFFFFFFFFFF AND PUSH4 0x883BDBFD DUP5 PUSH1 0x40 MLOAD DUP3 PUSH4 0xFFFFFFFF AND PUSH1 0xE0 SHL DUP2 MSTORE PUSH1 0x4 ADD PUSH2 0x198F SWAP2 SWAP1 PUSH2 0x2D4C JUMP JUMPDEST PUSH1 0x0 PUSH1 0x40 MLOAD DUP1 DUP4 SUB DUP2 DUP7 GAS STATICCALL ISZERO DUP1 ISZERO PUSH2 0x19AC JUMPI RETURNDATASIZE PUSH1 0x0 DUP1 RETURNDATACOPY RETURNDATASIZE PUSH1 0x0 REVERT JUMPDEST POP POP POP POP PUSH1 0x40 MLOAD RETURNDATASIZE PUSH1 0x0 DUP3 RETURNDATACOPY RETURNDATASIZE PUSH1 0x1F NOT PUSH1 0x1F DUP3 ADD AND DUP3 ADD DUP1 PUSH1 0x40 MSTORE POP DUP2 ADD SWAP1 PUSH2 0x19D5 SWAP2 SWAP1 PUSH2 0x2FC0 JUMP JUMPDEST SWAP2 POP SWAP2 POP PUSH1 0x0 DUP3 PUSH1 0x0 DUP2 MLOAD DUP2 LT PUSH2 0x19EF JUMPI PUSH2 0x19EE PUSH2 0x272F JUMP JUMPDEST JUMPDEST PUSH1 0x20 MUL PUSH1 0x20 ADD ADD MLOAD DUP4 PUSH1 0x1 DUP2 MLOAD DUP2 LT PUSH2 0x1A0B JUMPI PUSH2 0x1A0A PUSH2 0x272F JUMP JUMPDEST JUMPDEST PUSH1 0x20 MUL PUSH1 0x20 ADD ADD MLOAD PUSH2 0x1A1D SWAP2 SWAP1 PUSH2 0x3038 JUMP JUMPDEST SWAP1 POP PUSH1 0x0 DUP3 PUSH1 0x0 DUP2 MLOAD DUP2 LT PUSH2 0x1A35 JUMPI PUSH2 0x1A34 PUSH2 0x272F JUMP JUMPDEST JUMPDEST PUSH1 0x20 MUL PUSH1 0x20 ADD ADD MLOAD DUP4 PUSH1 0x1 DUP2 MLOAD DUP2 LT PUSH2 0x1A51 JUMPI PUSH2 0x1A50 PUSH2 0x272F JUMP JUMPDEST JUMPDEST PUSH1 0x20 MUL PUSH1 0x20 ADD ADD MLOAD PUSH2 0x1A63 SWAP2 SWAP1 PUSH2 0x30B3 JUMP JUMPDEST SWAP1 POP DUP8 PUSH1 0x3 SIGNEXTEND DUP3 PUSH2 0x1A74 SWAP2 SWAP1 PUSH2 0x30E7 JUMP JUMPDEST SWAP7 POP PUSH1 0x0 DUP3 PUSH1 0x6 SIGNEXTEND SLT DUP1 ISZERO PUSH2 0x1A9B JUMPI POP PUSH1 0x0 DUP9 PUSH1 0x3 SIGNEXTEND DUP4 PUSH2 0x1A95 SWAP2 SWAP1 PUSH2 0x3151 JUMP JUMPDEST PUSH1 0x6 SIGNEXTEND EQ ISZERO JUMPDEST ISZERO PUSH2 0x1AAF JUMPI DUP7 DUP1 PUSH2 0x1AAB SWAP1 PUSH2 0x318F JUMP JUMPDEST SWAP8 POP POP JUMPDEST PUSH1 0x0 PUSH20 0xFFFFFFFFFFFFFFFFFFFFFFFFFFFFFFFFFFFFFFFF DUP1 AND DUP10 PUSH4 0xFFFFFFFF AND PUSH2 0x1AD9 SWAP2 SWAP1 PUSH2 0x31FB JUMP JUMPDEST SWAP1 POP PUSH1 0x20 DUP3 PUSH20 0xFFFFFFFFFFFFFFFFFFFFFFFFFFFFFFFFFFFFFFFF AND PUSH24 0xFFFFFFFFFFFFFFFFFFFFFFFFFFFFFFFFFFFFFFFFFFFFFFFF AND SWAP1 SHL DUP2 PUSH2 0x1B1B SWAP2 SWAP1 PUSH2 0x324D JUMP JUMPDEST SWAP7 POP POP POP POP POP POP POP SWAP3 POP SWAP3 SWAP1 POP JUMP JUMPDEST PUSH1 0x0 DUP1 PUSH2 0x1B36 DUP7 PUSH2 0x1D36 JUMP JUMPDEST SWAP1 POP PUSH16 0xFFFFFFFFFFFFFFFFFFFFFFFFFFFFFFFF DUP1 AND DUP2 PUSH20 0xFFFFFFFFFFFFFFFFFFFFFFFFFFFFFFFFFFFFFFFF AND GT PUSH2 0x1C50 JUMPI PUSH1 0x0 DUP2 PUSH20 0xFFFFFFFFFFFFFFFFFFFFFFFFFFFFFFFFFFFFFFFF AND DUP3 PUSH20 0xFFFFFFFFFFFFFFFFFFFFFFFFFFFFFFFFFFFFFFFF AND PUSH2 0x1BA1 SWAP2 SWAP1 PUSH2 0x2B22 JUMP JUMPDEST SWAP1 POP DUP4 PUSH20 0xFFFFFFFFFFFFFFFFFFFFFFFFFFFFFFFFFFFFFFFF AND DUP6 PUSH20 0xFFFFFFFFFFFFFFFFFFFFFFFFFFFFFFFFFFFFFFFF AND LT PUSH2 0x1C11 JUMPI PUSH2 0x1C0C PUSH25 0x1000000000000000000000000000000000000000000000000 DUP8 PUSH16 0xFFFFFFFFFFFFFFFFFFFFFFFFFFFFFFFF AND DUP4 PUSH2 0x2203 JUMP JUMPDEST PUSH2 0x1C48 JUMP JUMPDEST PUSH2 0x1C47 DUP2 DUP8 PUSH16 0xFFFFFFFFFFFFFFFFFFFFFFFFFFFFFFFF AND PUSH25 0x1000000000000000000000000000000000000000000000000 PUSH2 0x2203 JUMP JUMPDEST JUMPDEST SWAP3 POP POP PUSH2 0x1D2D JUMP JUMPDEST PUSH1 0x0 PUSH2 0x1C92 DUP3 PUSH20 0xFFFFFFFFFFFFFFFFFFFFFFFFFFFFFFFFFFFFFFFF AND DUP4 PUSH20 0xFFFFFFFFFFFFFFFFFFFFFFFFFFFFFFFFFFFFFFFF AND PUSH9 0x10000000000000000 PUSH2 0x2203 JUMP JUMPDEST SWAP1 POP DUP4 PUSH20 0xFFFFFFFFFFFFFFFFFFFFFFFFFFFFFFFFFFFFFFFF AND DUP6 PUSH20 0xFFFFFFFFFFFFFFFFFFFFFFFFFFFFFFFFFFFFFFFF AND LT PUSH2 0x1CFA JUMPI PUSH2 0x1CF5 PUSH17 0x100000000000000000000000000000000 DUP8 PUSH16 0xFFFFFFFFFFFFFFFFFFFFFFFFFFFFFFFF AND DUP4 PUSH2 0x2203 JUMP JUMPDEST PUSH2 0x1D29 JUMP JUMPDEST PUSH2 0x1D28 DUP2 DUP8 PUSH16 0xFFFFFFFFFFFFFFFFFFFFFFFFFFFFFFFF AND PUSH17 0x100000000000000000000000000000000 PUSH2 0x2203 JUMP JUMPDEST JUMPDEST SWAP3 POP POP JUMPDEST POP SWAP5 SWAP4 POP POP POP POP JUMP JUMPDEST PUSH1 0x0 DUP1 PUSH1 0x0 DUP4 PUSH1 0x2 SIGNEXTEND SLT PUSH2 0x1D4D JUMPI DUP3 PUSH1 0x2 SIGNEXTEND PUSH2 0x1D5B JUMP JUMPDEST DUP3 PUSH1 0x2 SIGNEXTEND PUSH2 0x1D5A SWAP1 PUSH2 0x3288 JUMP JUMPDEST JUMPDEST SWAP1 POP PUSH32 0xFFFFFFFFFFFFFFFFFFFFFFFFFFFFFFFFFFFFFFFFFFFFFFFFFFFFFFFFFFF27618 PUSH2 0x1D87 SWAP1 PUSH2 0x32D0 JUMP JUMPDEST PUSH3 0xFFFFFF AND DUP2 GT ISZERO PUSH2 0x1DCE JUMPI PUSH1 0x40 MLOAD PUSH32 0x8C379A000000000000000000000000000000000000000000000000000000000 DUP2 MSTORE PUSH1 0x4 ADD PUSH2 0x1DC5 SWAP1 PUSH2 0x3364 JUMP JUMPDEST PUSH1 0x40 MLOAD DUP1 SWAP2 SUB SWAP1 REVERT JUMPDEST PUSH1 0x0 DUP1 PUSH1 0x1 DUP4 AND SUB PUSH2 0x1DF1 JUMPI PUSH17 0x100000000000000000000000000000000 PUSH2 0x1E03 JUMP JUMPDEST PUSH16 0xFFFCB933BD6FAD37AA2D162D1A594001 JUMPDEST PUSH17 0xFFFFFFFFFFFFFFFFFFFFFFFFFFFFFFFFFF AND SWAP1 POP PUSH1 0x0 PUSH1 0x2 DUP4 AND EQ PUSH2 0x1E46 JUMPI PUSH1 0x80 PUSH16 0xFFF97272373D413259A46990580E213A DUP3 PUSH2 0x1E41 SWAP2 SWAP1 PUSH2 0x2B22 JUMP JUMPDEST SWAP1 SHR SWAP1 POP JUMPDEST PUSH1 0x0 PUSH1 0x4 DUP4 AND EQ PUSH2 0x1E74 JUMPI PUSH1 0x80 PUSH16 0xFFF2E50F5F656932EF12357CF3C7FDCC DUP3 PUSH2 0x1E6F SWAP2 SWAP1 PUSH2 0x2B22 JUMP JUMPDEST SWAP1 SHR SWAP1 POP JUMPDEST PUSH1 0x0 PUSH1 0x8 DUP4 AND EQ PUSH2 0x1EA2 JUMPI PUSH1 0x80 PUSH16 0xFFE5CACA7E10E4E61C3624EAA0941CD0 DUP3 PUSH2 0x1E9D SWAP2 SWAP1 PUSH2 0x2B22 JUMP JUMPDEST SWAP1 SHR SWAP1 POP JUMPDEST PUSH1 0x0 PUSH1 0x10 DUP4 AND EQ PUSH2 0x1ED0 JUMPI PUSH1 0x80 PUSH16 0xFFCB9843D60F6159C9DB58835C926644 DUP3 PUSH2 0x1ECB SWAP2 SWAP1 PUSH2 0x2B22 JUMP JUMPDEST SWAP1 SHR SWAP1 POP JUMPDEST PUSH1 0x0 PUSH1 0x20 DUP4 AND EQ PUSH2 0x1EFE JUMPI PUSH1 0x80 PUSH16 0xFF973B41FA98C081472E6896DFB254C0 DUP3 PUSH2 0x1EF9 SWAP2 SWAP1 PUSH2 0x2B22 JUMP JUMPDEST SWAP1 SHR SWAP1 POP JUMPDEST PUSH1 0x0 PUSH1 0x40 DUP4 AND EQ PUSH2 0x1F2C JUMPI PUSH1 0x80 PUSH16 0xFF2EA16466C96A3843EC78B326B52861 DUP3 PUSH2 0x1F27 SWAP2 SWAP1 PUSH2 0x2B22 JUMP JUMPDEST SWAP1 SHR SWAP1 POP JUMPDEST PUSH1 0x0 PUSH1 0x80 DUP4 AND EQ PUSH2 0x1F5A JUMPI PUSH1 0x80 PUSH16 0xFE5DEE046A99A2A811C461F1969C3053 DUP3 PUSH2 0x1F55 SWAP2 SWAP1 PUSH2 0x2B22 JUMP JUMPDEST SWAP1 SHR SWAP1 POP JUMPDEST PUSH1 0x0 PUSH2 0x100 DUP4 AND EQ PUSH2 0x1F89 JUMPI PUSH1 0x80 PUSH16 0xFCBE86C7900A88AEDCFFC83B479AA3A4 DUP3 PUSH2 0x1F84 SWAP2 SWAP1 PUSH2 0x2B22 JUMP JUMPDEST SWAP1 SHR SWAP1 POP JUMPDEST PUSH1 0x0 PUSH2 0x200 DUP4 AND EQ PUSH2 0x1FB8 JUMPI PUSH1 0x80 PUSH16 0xF987A7253AC413176F2B074CF7815E54 DUP3 PUSH2 0x1FB3 SWAP2 SWAP1 PUSH2 0x2B22 JUMP JUMPDEST SWAP1 SHR SWAP1 POP JUMPDEST PUSH1 0x0 PUSH2 0x400 DUP4 AND EQ PUSH2 0x1FE7 JUMPI PUSH1 0x80 PUSH16 0xF3392B0822B70005940C7A398E4B70F3 DUP3 PUSH2 0x1FE2 SWAP2 SWAP1 PUSH2 0x2B22 JUMP JUMPDEST SWAP1 SHR SWAP1 POP JUMPDEST PUSH1 0x0 PUSH2 0x800 DUP4 AND EQ PUSH2 0x2016 JUMPI PUSH1 0x80 PUSH16 0xE7159475A2C29B7443B29C7FA6E889D9 DUP3 PUSH2 0x2011 SWAP2 SWAP1 PUSH2 0x2B22 JUMP JUMPDEST SWAP1 SHR SWAP1 POP JUMPDEST PUSH1 0x0 PUSH2 0x1000 DUP4 AND EQ PUSH2 0x2045 JUMPI PUSH1 0x80 PUSH16 0xD097F3BDFD2022B8845AD8F792AA5825 DUP3 PUSH2 0x2040 SWAP2 SWAP1 PUSH2 0x2B22 JUMP JUMPDEST SWAP1 SHR SWAP1 POP JUMPDEST PUSH1 0x0 PUSH2 0x2000 DUP4 AND EQ PUSH2 0x2074 JUMPI PUSH1 0x80 PUSH16 0xA9F746462D870FDF8A65DC1F90E061E5 DUP3 PUSH2 0x206F SWAP2 SWAP1 PUSH2 0x2B22 JUMP JUMPDEST SWAP1 SHR SWAP1 POP JUMPDEST PUSH1 0x0 PUSH2 0x4000 DUP4 AND EQ PUSH2 0x20A3 JUMPI PUSH1 0x80 PUSH16 0x70D869A156D2A1B890BB3DF62BAF32F7 DUP3 PUSH2 0x209E SWAP2 SWAP1 PUSH2 0x2B22 JUMP JUMPDEST SWAP1 SHR SWAP1 POP JUMPDEST PUSH1 0x0 PUSH2 0x8000 DUP4 AND EQ PUSH2 0x20D2 JUMPI PUSH1 0x80 PUSH16 0x31BE135F97D08FD981231505542FCFA6 DUP3 PUSH2 0x20CD SWAP2 SWAP1 PUSH2 0x2B22 JUMP JUMPDEST SWAP1 SHR SWAP1 POP JUMPDEST PUSH1 0x0 PUSH3 0x10000 DUP4 AND EQ PUSH2 0x2102 JUMPI PUSH1 0x80 PUSH16 0x9AA508B5B7A84E1C677DE54F3E99BC9 DUP3 PUSH2 0x20FD SWAP2 SWAP1 PUSH2 0x2B22 JUMP JUMPDEST SWAP1 SHR SWAP1 POP JUMPDEST PUSH1 0x0 PUSH3 0x20000 DUP4 AND EQ PUSH2 0x2131 JUMPI PUSH1 0x80 PUSH15 0x5D6AF8DEDB81196699C329225EE604 DUP3 PUSH2 0x212C SWAP2 SWAP1 PUSH2 0x2B22 JUMP JUMPDEST SWAP1 SHR SWAP1 POP JUMPDEST PUSH1 0x0 PUSH3 0x40000 DUP4 AND EQ PUSH2 0x215F JUMPI PUSH1 0x80 PUSH14 0x2216E584F5FA1EA926041BEDFE98 DUP3 PUSH2 0x215A SWAP2 SWAP1 PUSH2 0x2B22 JUMP JUMPDEST SWAP1 SHR SWAP1 POP JUMPDEST PUSH1 0x0 PUSH3 0x80000 DUP4 AND EQ PUSH2 0x218B JUMPI PUSH1 0x80 PUSH12 0x48A170391F7DC42444E8FA2 DUP3 PUSH2 0x2186 SWAP2 SWAP1 PUSH2 0x2B22 JUMP JUMPDEST SWAP1 SHR SWAP1 POP JUMPDEST PUSH1 0x0 DUP5 PUSH1 0x2 SIGNEXTEND SGT ISZERO PUSH2 0x21C6 JUMPI DUP1 PUSH32 0xFFFFFFFFFFFFFFFFFFFFFFFFFFFFFFFFFFFFFFFFFFFFFFFFFFFFFFFFFFFFFFFF PUSH2 0x21C3 SWAP2 SWAP1 PUSH2 0x2AC8 JUMP JUMPDEST SWAP1 POP JUMPDEST PUSH1 0x0 PUSH5 0x100000000 DUP3 PUSH2 0x21D9 SWAP2 SWAP1 PUSH2 0x3384 JUMP JUMPDEST EQ PUSH2 0x21E5 JUMPI PUSH1 0x1 PUSH2 0x21E8 JUMP JUMPDEST PUSH1 0x0 JUMPDEST PUSH1 0xFF AND PUSH1 0x20 DUP3 SWAP1 SHR PUSH2 0x21FA SWAP2 SWAP1 PUSH2 0x2B7C JUMP JUMPDEST SWAP3 POP POP POP SWAP2 SWAP1 POP JUMP JUMPDEST PUSH1 0x0 DUP1 PUSH1 0x0 DUP1 NOT DUP6 DUP8 MULMOD DUP6 DUP8 MUL SWAP3 POP DUP3 DUP2 LT DUP4 DUP3 SUB SUB SWAP2 POP POP PUSH1 0x0 DUP2 SUB PUSH2 0x223D JUMPI PUSH1 0x0 DUP5 GT PUSH2 0x2231 JUMPI PUSH1 0x0 DUP1 REVERT JUMPDEST DUP4 DUP3 DIV SWAP3 POP POP POP PUSH2 0x23C6 JUMP JUMPDEST DUP1 DUP5 GT PUSH2 0x2249 JUMPI PUSH1 0x0 DUP1 REVERT JUMPDEST PUSH1 0x0 DUP5 DUP7 DUP9 MULMOD SWAP1 POP DUP3 DUP2 GT DUP3 SUB SWAP2 POP DUP1 DUP4 SUB SWAP3 POP PUSH1 0x0 DUP6 PUSH1 0x1 DUP8 PUSH32 0xFFFFFFFFFFFFFFFFFFFFFFFFFFFFFFFFFFFFFFFFFFFFFFFFFFFFFFFFFFFFFFFF PUSH2 0x228E SWAP2 SWAP1 PUSH2 0x266A JUMP JUMPDEST PUSH2 0x2298 SWAP2 SWAP1 PUSH2 0x2B7C JUMP JUMPDEST AND SWAP1 POP DUP1 DUP7 DIV SWAP6 POP DUP1 DUP5 DIV SWAP4 POP PUSH1 0x1 DUP2 DUP3 PUSH1 0x0 SUB DIV ADD SWAP1 POP DUP1 DUP4 PUSH2 0x22BC SWAP2 SWAP1 PUSH2 0x2B22 JUMP JUMPDEST DUP5 OR SWAP4 POP PUSH1 0x0 PUSH1 0x2 DUP8 PUSH1 0x3 PUSH2 0x22D1 SWAP2 SWAP1 PUSH2 0x2B22 JUMP JUMPDEST XOR SWAP1 POP DUP1 DUP8 PUSH2 0x22E0 SWAP2 SWAP1 PUSH2 0x2B22 JUMP JUMPDEST PUSH1 0x2 PUSH2 0x22EC SWAP2 SWAP1 PUSH2 0x266A JUMP JUMPDEST DUP2 PUSH2 0x22F7 SWAP2 SWAP1 PUSH2 0x2B22 JUMP JUMPDEST SWAP1 POP DUP1 DUP8 PUSH2 0x2305 SWAP2 SWAP1 PUSH2 0x2B22 JUMP JUMPDEST PUSH1 0x2 PUSH2 0x2311 SWAP2 SWAP1 PUSH2 0x266A JUMP JUMPDEST DUP2 PUSH2 0x231C SWAP2 SWAP1 PUSH2 0x2B22 JUMP JUMPDEST SWAP1 POP DUP1 DUP8 PUSH2 0x232A SWAP2 SWAP1 PUSH2 0x2B22 JUMP JUMPDEST PUSH1 0x2 PUSH2 0x2336 SWAP2 SWAP1 PUSH2 0x266A JUMP JUMPDEST DUP2 PUSH2 0x2341 SWAP2 SWAP1 PUSH2 0x2B22 JUMP JUMPDEST SWAP1 POP DUP1 DUP8 PUSH2 0x234F SWAP2 SWAP1 PUSH2 0x2B22 JUMP JUMPDEST PUSH1 0x2 PUSH2 0x235B SWAP2 SWAP1 PUSH2 0x266A JUMP JUMPDEST DUP2 PUSH2 0x2366 SWAP2 SWAP1 PUSH2 0x2B22 JUMP JUMPDEST SWAP1 POP DUP1 DUP8 PUSH2 0x2374 SWAP2 SWAP1 PUSH2 0x2B22 JUMP JUMPDEST PUSH1 0x2 PUSH2 0x2380 SWAP2 SWAP1 PUSH2 0x266A JUMP JUMPDEST DUP2 PUSH2 0x238B SWAP2 SWAP1 PUSH2 0x2B22 JUMP JUMPDEST SWAP1 POP DUP1 DUP8 PUSH2 0x2399 SWAP2 SWAP1 PUSH2 0x2B22 JUMP JUMPDEST PUSH1 0x2 PUSH2 0x23A5 SWAP2 SWAP1 PUSH2 0x266A JUMP JUMPDEST DUP2 PUSH2 0x23B0 SWAP2 SWAP1 PUSH2 0x2B22 JUMP JUMPDEST SWAP1 POP DUP1 DUP6 PUSH2 0x23BE SWAP2 SWAP1 PUSH2 0x2B22 JUMP JUMPDEST SWAP6 POP POP POP POP POP POP JUMPDEST SWAP4 SWAP3 POP POP POP JUMP JUMPDEST PUSH1 0x0 PUSH1 0x40 MLOAD SWAP1 POP SWAP1 JUMP JUMPDEST PUSH1 0x0 DUP1 REVERT JUMPDEST PUSH1 0x0 DUP1 REVERT JUMPDEST PUSH1 0x0 DUP2 SWAP1 POP SWAP2 SWAP1 POP JUMP JUMPDEST PUSH2 0x23F4 DUP2 PUSH2 0x23E1 JUMP JUMPDEST DUP2 EQ PUSH2 0x23FF JUMPI PUSH1 0x0 DUP1 REVERT JUMPDEST POP JUMP JUMPDEST PUSH1 0x0 DUP2 CALLDATALOAD SWAP1 POP PUSH2 0x2411 DUP2 PUSH2 0x23EB JUMP JUMPDEST SWAP3 SWAP2 POP POP JUMP JUMPDEST PUSH1 0x0 PUSH1 0x20 DUP3 DUP5 SUB SLT ISZERO PUSH2 0x242D JUMPI PUSH2 0x242C PUSH2 0x23D7 JUMP JUMPDEST JUMPDEST PUSH1 0x0 PUSH2 0x243B DUP5 DUP3 DUP6 ADD PUSH2 0x2402 JUMP JUMPDEST SWAP2 POP POP SWAP3 SWAP2 POP POP JUMP JUMPDEST PUSH2 0x244D DUP2 PUSH2 0x23E1 JUMP JUMPDEST DUP3 MSTORE POP POP JUMP JUMPDEST PUSH1 0x0 PUSH1 0x20 DUP3 ADD SWAP1 POP PUSH2 0x2468 PUSH1 0x0 DUP4 ADD DUP5 PUSH2 0x2444 JUMP JUMPDEST SWAP3 SWAP2 POP POP JUMP JUMPDEST PUSH1 0x0 PUSH20 0xFFFFFFFFFFFFFFFFFFFFFFFFFFFFFFFFFFFFFFFF DUP3 AND SWAP1 POP SWAP2 SWAP1 POP JUMP JUMPDEST PUSH1 0x0 PUSH2 0x2499 DUP3 PUSH2 0x246E JUMP JUMPDEST SWAP1 POP SWAP2 SWAP1 POP JUMP JUMPDEST PUSH2 0x24A9 DUP2 PUSH2 0x248E JUMP JUMPDEST DUP2 EQ PUSH2 0x24B4 JUMPI PUSH1 0x0 DUP1 REVERT JUMPDEST POP JUMP JUMPDEST PUSH1 0x0 DUP2 CALLDATALOAD SWAP1 POP PUSH2 0x24C6 DUP2 PUSH2 0x24A0 JUMP JUMPDEST SWAP3 SWAP2 POP POP JUMP JUMPDEST PUSH1 0x0 PUSH1 0x20 DUP3 DUP5 SUB SLT ISZERO PUSH2 0x24E2 JUMPI PUSH2 0x24E1 PUSH2 0x23D7 JUMP JUMPDEST JUMPDEST PUSH1 0x0 PUSH2 0x24F0 DUP5 DUP3 DUP6 ADD PUSH2 0x24B7 JUMP JUMPDEST SWAP2 POP POP SWAP3 SWAP2 POP POP JUMP JUMPDEST PUSH2 0x2502 DUP2 PUSH2 0x248E JUMP JUMPDEST DUP3 MSTORE POP POP JUMP JUMPDEST PUSH1 0x0 PUSH1 0x20 DUP3 ADD SWAP1 POP PUSH2 0x251D PUSH1 0x0 DUP4 ADD DUP5 PUSH2 0x24F9 JUMP JUMPDEST SWAP3 SWAP2 POP POP JUMP JUMPDEST PUSH1 0x0 DUP1 PUSH1 0x40 DUP4 DUP6 SUB SLT ISZERO PUSH2 0x253A JUMPI PUSH2 0x2539 PUSH2 0x23D7 JUMP JUMPDEST JUMPDEST PUSH1 0x0 PUSH2 0x2548 DUP6 DUP3 DUP7 ADD PUSH2 0x24B7 JUMP JUMPDEST SWAP3 POP POP PUSH1 0x20 PUSH2 0x2559 DUP6 DUP3 DUP7 ADD PUSH2 0x2402 JUMP JUMPDEST SWAP2 POP POP SWAP3 POP SWAP3 SWAP1 POP JUMP JUMPDEST PUSH1 0x0 DUP2 ISZERO ISZERO SWAP1 POP SWAP2 SWAP1 POP JUMP JUMPDEST PUSH2 0x2578 DUP2 PUSH2 0x2563 JUMP JUMPDEST DUP3 MSTORE POP POP JUMP JUMPDEST PUSH1 0x0 PUSH1 0x20 DUP3 ADD SWAP1 POP PUSH2 0x2593 PUSH1 0x0 DUP4 ADD DUP5 PUSH2 0x256F JUMP JUMPDEST SWAP3 SWAP2 POP POP JUMP JUMPDEST PUSH1 0x0 PUSH1 0x40 DUP3 ADD SWAP1 POP PUSH2 0x25AE PUSH1 0x0 DUP4 ADD DUP6 PUSH2 0x2444 JUMP JUMPDEST PUSH2 0x25BB PUSH1 0x20 DUP4 ADD DUP5 PUSH2 0x2444 JUMP JUMPDEST SWAP4 SWAP3 POP POP POP JUMP JUMPDEST PUSH1 0x0 PUSH1 0xFF DUP3 AND SWAP1 POP SWAP2 SWAP1 POP JUMP JUMPDEST PUSH2 0x25D8 DUP2 PUSH2 0x25C2 JUMP JUMPDEST DUP3 MSTORE POP POP JUMP JUMPDEST PUSH1 0x0 PUSH1 0x20 DUP3 ADD SWAP1 POP PUSH2 0x25F3 PUSH1 0x0 DUP4 ADD DUP5 PUSH2 0x25CF JUMP JUMPDEST SWAP3 SWAP2 POP POP JUMP JUMPDEST PUSH1 0x0 DUP2 MLOAD SWAP1 POP PUSH2 0x2608 DUP2 PUSH2 0x24A0 JUMP JUMPDEST SWAP3 SWAP2 POP POP JUMP JUMPDEST PUSH1 0x0 PUSH1 0x20 DUP3 DUP5 SUB SLT ISZERO PUSH2 0x2624 JUMPI PUSH2 0x2623 PUSH2 0x23D7 JUMP JUMPDEST JUMPDEST PUSH1 0x0 PUSH2 0x2632 DUP5 DUP3 DUP6 ADD PUSH2 0x25F9 JUMP JUMPDEST SWAP2 POP POP SWAP3 SWAP2 POP POP JUMP JUMPDEST PUSH32 0x4E487B7100000000000000000000000000000000000000000000000000000000 PUSH1 0x0 MSTORE PUSH1 0x11 PUSH1 0x4 MSTORE PUSH1 0x24 PUSH1 0x0 REVERT JUMPDEST PUSH1 0x0 PUSH2 0x2675 DUP3 PUSH2 0x23E1 JUMP JUMPDEST SWAP2 POP PUSH2 0x2680 DUP4 PUSH2 0x23E1 JUMP JUMPDEST SWAP3 POP DUP3 DUP3 LT ISZERO PUSH2 0x2693 JUMPI PUSH2 0x2692 PUSH2 0x263B JUMP JUMPDEST JUMPDEST DUP3 DUP3 SUB SWAP1 POP SWAP3 SWAP2 POP POP JUMP JUMPDEST PUSH1 0x0 DUP2 MLOAD SWAP1 POP SWAP2 SWAP1 POP JUMP JUMPDEST PUSH1 0x0 DUP2 SWAP1 POP SWAP3 SWAP2 POP POP JUMP JUMPDEST PUSH1 0x0 JUMPDEST DUP4 DUP2 LT ISZERO PUSH2 0x26D2 JUMPI DUP1 DUP3 ADD MLOAD DUP2 DUP5 ADD MSTORE PUSH1 0x20 DUP2 ADD SWAP1 POP PUSH2 0x26B7 JUMP JUMPDEST DUP4 DUP2 GT ISZERO PUSH2 0x26E1 JUMPI PUSH1 0x0 DUP5 DUP5 ADD MSTORE JUMPDEST POP POP POP POP JUMP JUMPDEST PUSH1 0x0 PUSH2 0x26F2 DUP3 PUSH2 0x269E JUMP JUMPDEST PUSH2 0x26FC DUP2 DUP6 PUSH2 0x26A9 JUMP JUMPDEST SWAP4 POP PUSH2 0x270C DUP2 DUP6 PUSH1 0x20 DUP7 ADD PUSH2 0x26B4 JUMP JUMPDEST DUP1 DUP5 ADD SWAP2 POP POP SWAP3 SWAP2 POP POP JUMP JUMPDEST PUSH1 0x0 PUSH2 0x2724 DUP3 DUP5 PUSH2 0x26E7 JUMP JUMPDEST SWAP2 POP DUP2 SWAP1 POP SWAP3 SWAP2 POP POP JUMP JUMPDEST PUSH32 0x4E487B7100000000000000000000000000000000000000000000000000000000 PUSH1 0x0 MSTORE PUSH1 0x32 PUSH1 0x4 MSTORE PUSH1 0x24 PUSH1 0x0 REVERT JUMPDEST PUSH1 0x0 DUP2 MLOAD SWAP1 POP PUSH2 0x276D DUP2 PUSH2 0x23EB JUMP JUMPDEST SWAP3 SWAP2 POP POP JUMP JUMPDEST PUSH1 0x0 PUSH1 0x20 DUP3 DUP5 SUB SLT ISZERO PUSH2 0x2789 JUMPI PUSH2 0x2788 PUSH2 0x23D7 JUMP JUMPDEST JUMPDEST PUSH1 0x0 PUSH2 0x2797 DUP5 DUP3 DUP6 ADD PUSH2 0x275E JUMP JUMPDEST SWAP2 POP POP SWAP3 SWAP2 POP POP JUMP JUMPDEST PUSH1 0x0 PUSH1 0x40 DUP3 ADD SWAP1 POP PUSH2 0x27B5 PUSH1 0x0 DUP4 ADD DUP6 PUSH2 0x24F9 JUMP JUMPDEST PUSH2 0x27C2 PUSH1 0x20 DUP4 ADD DUP5 PUSH2 0x2444 JUMP JUMPDEST SWAP4 SWAP3 POP POP POP JUMP JUMPDEST PUSH2 0x27D2 DUP2 PUSH2 0x2563 JUMP JUMPDEST DUP2 EQ PUSH2 0x27DD JUMPI PUSH1 0x0 DUP1 REVERT JUMPDEST POP JUMP JUMPDEST PUSH1 0x0 DUP2 MLOAD SWAP1 POP PUSH2 0x27EF DUP2 PUSH2 0x27C9 JUMP JUMPDEST SWAP3 SWAP2 POP POP JUMP JUMPDEST PUSH1 0x0 PUSH1 0x20 DUP3 DUP5 SUB SLT ISZERO PUSH2 0x280B JUMPI PUSH2 0x280A PUSH2 0x23D7 JUMP JUMPDEST JUMPDEST PUSH1 0x0 PUSH2 0x2819 DUP5 DUP3 DUP6 ADD PUSH2 0x27E0 JUMP JUMPDEST SWAP2 POP POP SWAP3 SWAP2 POP POP JUMP JUMPDEST PUSH1 0x0 PUSH2 0x282D DUP3 PUSH2 0x23E1 JUMP JUMPDEST SWAP2 POP PUSH32 0xFFFFFFFFFFFFFFFFFFFFFFFFFFFFFFFFFFFFFFFFFFFFFFFFFFFFFFFFFFFFFFFF DUP3 SUB PUSH2 0x285F JUMPI PUSH2 0x285E PUSH2 0x263B JUMP JUMPDEST JUMPDEST PUSH1 0x1 DUP3 ADD SWAP1 POP SWAP2 SWAP1 POP JUMP JUMPDEST PUSH1 0x0 PUSH2 0x2875 DUP3 PUSH2 0x25C2 JUMP JUMPDEST SWAP2 POP PUSH1 0x0 DUP3 SUB PUSH2 0x2888 JUMPI PUSH2 0x2887 PUSH2 0x263B JUMP JUMPDEST JUMPDEST PUSH1 0x1 DUP3 SUB SWAP1 POP SWAP2 SWAP1 POP JUMP JUMPDEST PUSH32 0x4E487B7100000000000000000000000000000000000000000000000000000000 PUSH1 0x0 MSTORE PUSH1 0x31 PUSH1 0x4 MSTORE PUSH1 0x24 PUSH1 0x0 REVERT JUMPDEST PUSH2 0x28CB DUP2 PUSH2 0x25C2 JUMP JUMPDEST DUP2 EQ PUSH2 0x28D6 JUMPI PUSH1 0x0 DUP1 REVERT JUMPDEST POP JUMP JUMPDEST PUSH1 0x0 DUP2 MLOAD SWAP1 POP PUSH2 0x28E8 DUP2 PUSH2 0x28C2 JUMP JUMPDEST SWAP3 SWAP2 POP POP JUMP JUMPDEST PUSH1 0x0 PUSH1 0x20 DUP3 DUP5 SUB SLT ISZERO PUSH2 0x2904 JUMPI PUSH2 0x2903 PUSH2 0x23D7 JUMP JUMPDEST JUMPDEST PUSH1 0x0 PUSH2 0x2912 DUP5 DUP3 DUP6 ADD PUSH2 0x28D9 JUMP JUMPDEST SWAP2 POP POP SWAP3 SWAP2 POP POP JUMP JUMPDEST PUSH1 0x0 DUP2 PUSH1 0x1 SHR SWAP1 POP SWAP2 SWAP1 POP JUMP JUMPDEST PUSH1 0x0 DUP1 DUP3 SWAP2 POP DUP4 SWAP1 POP JUMPDEST PUSH1 0x1 DUP6 GT ISZERO PUSH2 0x2972 JUMPI DUP1 DUP7 DIV DUP2 GT ISZERO PUSH2 0x294E JUMPI PUSH2 0x294D PUSH2 0x263B JUMP JUMPDEST JUMPDEST PUSH1 0x1 DUP6 AND ISZERO PUSH2 0x295D JUMPI DUP1 DUP3 MUL SWAP2 POP JUMPDEST DUP1 DUP2 MUL SWAP1 POP PUSH2 0x296B DUP6 PUSH2 0x291B JUMP JUMPDEST SWAP5 POP PUSH2 0x2932 JUMP JUMPDEST SWAP5 POP SWAP5 SWAP3 POP POP POP JUMP JUMPDEST PUSH1 0x0 DUP3 PUSH2 0x298B JUMPI PUSH1 0x1 SWAP1 POP PUSH2 0x2A47 JUMP JUMPDEST DUP2 PUSH2 0x2999 JUMPI PUSH1 0x0 SWAP1 POP PUSH2 0x2A47 JUMP JUMPDEST DUP2 PUSH1 0x1 DUP2 EQ PUSH2 0x29AF JUMPI PUSH1 0x2 DUP2 EQ PUSH2 0x29B9 JUMPI PUSH2 0x29E8 JUMP JUMPDEST PUSH1 0x1 SWAP2 POP POP PUSH2 0x2A47 JUMP JUMPDEST PUSH1 0xFF DUP5 GT ISZERO PUSH2 0x29CB JUMPI PUSH2 0x29CA PUSH2 0x263B JUMP JUMPDEST JUMPDEST DUP4 PUSH1 0x2 EXP SWAP2 POP DUP5 DUP3 GT ISZERO PUSH2 0x29E2 JUMPI PUSH2 0x29E1 PUSH2 0x263B JUMP JUMPDEST JUMPDEST POP PUSH2 0x2A47 JUMP JUMPDEST POP PUSH1 0x20 DUP4 LT PUSH2 0x133 DUP4 LT AND PUSH1 0x4E DUP5 LT PUSH1 0xB DUP5 LT AND OR ISZERO PUSH2 0x2A1D JUMPI DUP3 DUP3 EXP SWAP1 POP DUP4 DUP2 GT ISZERO PUSH2 0x2A18 JUMPI PUSH2 0x2A17 PUSH2 0x263B JUMP JUMPDEST JUMPDEST PUSH2 0x2A47 JUMP JUMPDEST PUSH2 0x2A2A DUP5 DUP5 DUP5 PUSH1 0x1 PUSH2 0x2928 JUMP JUMPDEST SWAP3 POP SWAP1 POP DUP2 DUP5 DIV DUP2 GT ISZERO PUSH2 0x2A41 JUMPI PUSH2 0x2A40 PUSH2 0x263B JUMP JUMPDEST JUMPDEST DUP2 DUP2 MUL SWAP1 POP JUMPDEST SWAP4 SWAP3 POP POP POP JUMP JUMPDEST PUSH1 0x0 PUSH2 0x2A59 DUP3 PUSH2 0x23E1 JUMP JUMPDEST SWAP2 POP PUSH2 0x2A64 DUP4 PUSH2 0x23E1 JUMP JUMPDEST SWAP3 POP PUSH2 0x2A91 PUSH32 0xFFFFFFFFFFFFFFFFFFFFFFFFFFFFFFFFFFFFFFFFFFFFFFFFFFFFFFFFFFFFFFFF DUP5 DUP5 PUSH2 0x297B JUMP JUMPDEST SWAP1 POP SWAP3 SWAP2 POP POP JUMP JUMPDEST PUSH32 0x4E487B7100000000000000000000000000000000000000000000000000000000 PUSH1 0x0 MSTORE PUSH1 0x12 PUSH1 0x4 MSTORE PUSH1 0x24 PUSH1 0x0 REVERT JUMPDEST PUSH1 0x0 PUSH2 0x2AD3 DUP3 PUSH2 0x23E1 JUMP JUMPDEST SWAP2 POP PUSH2 0x2ADE DUP4 PUSH2 0x23E1 JUMP JUMPDEST SWAP3 POP DUP3 PUSH2 0x2AEE JUMPI PUSH2 0x2AED PUSH2 0x2A99 JUMP JUMPDEST JUMPDEST DUP3 DUP3 DIV SWAP1 POP SWAP3 SWAP2 POP POP JUMP JUMPDEST PUSH1 0x0 PUSH2 0x2B04 DUP3 PUSH2 0x25C2 JUMP JUMPDEST SWAP2 POP PUSH1 0xFF DUP3 SUB PUSH2 0x2B17 JUMPI PUSH2 0x2B16 PUSH2 0x263B JUMP JUMPDEST JUMPDEST PUSH1 0x1 DUP3 ADD SWAP1 POP SWAP2 SWAP1 POP JUMP JUMPDEST PUSH1 0x0 PUSH2 0x2B2D DUP3 PUSH2 0x23E1 JUMP JUMPDEST SWAP2 POP PUSH2 0x2B38 DUP4 PUSH2 0x23E1 JUMP JUMPDEST SWAP3 POP DUP2 PUSH32 0xFFFFFFFFFFFFFFFFFFFFFFFFFFFFFFFFFFFFFFFFFFFFFFFFFFFFFFFFFFFFFFFF DIV DUP4 GT DUP3 ISZERO ISZERO AND ISZERO PUSH2 0x2B71 JUMPI PUSH2 0x2B70 PUSH2 0x263B JUMP JUMPDEST JUMPDEST DUP3 DUP3 MUL SWAP1 POP SWAP3 SWAP2 POP POP JUMP JUMPDEST PUSH1 0x0 PUSH2 0x2B87 DUP3 PUSH2 0x23E1 JUMP JUMPDEST SWAP2 POP PUSH2 0x2B92 DUP4 PUSH2 0x23E1 JUMP JUMPDEST SWAP3 POP DUP3 PUSH32 0xFFFFFFFFFFFFFFFFFFFFFFFFFFFFFFFFFFFFFFFFFFFFFFFFFFFFFFFFFFFFFFFF SUB DUP3 GT ISZERO PUSH2 0x2BC7 JUMPI PUSH2 0x2BC6 PUSH2 0x263B JUMP JUMPDEST JUMPDEST DUP3 DUP3 ADD SWAP1 POP SWAP3 SWAP2 POP POP JUMP JUMPDEST PUSH1 0x0 DUP3 DUP3 MSTORE PUSH1 0x20 DUP3 ADD SWAP1 POP SWAP3 SWAP2 POP POP JUMP JUMPDEST PUSH32 0x4250000000000000000000000000000000000000000000000000000000000000 PUSH1 0x0 DUP3 ADD MSTORE POP JUMP JUMPDEST PUSH1 0x0 PUSH2 0x2C19 PUSH1 0x2 DUP4 PUSH2 0x2BD2 JUMP JUMPDEST SWAP2 POP PUSH2 0x2C24 DUP3 PUSH2 0x2BE3 JUMP JUMPDEST PUSH1 0x20 DUP3 ADD SWAP1 POP SWAP2 SWAP1 POP JUMP JUMPDEST PUSH1 0x0 PUSH1 0x20 DUP3 ADD SWAP1 POP DUP2 DUP2 SUB PUSH1 0x0 DUP4 ADD MSTORE PUSH2 0x2C48 DUP2 PUSH2 0x2C0C JUMP JUMPDEST SWAP1 POP SWAP2 SWAP1 POP JUMP JUMPDEST PUSH32 0x4E487B7100000000000000000000000000000000000000000000000000000000 PUSH1 0x0 MSTORE PUSH1 0x41 PUSH1 0x4 MSTORE PUSH1 0x24 PUSH1 0x0 REVERT JUMPDEST PUSH1 0x0 DUP2 MLOAD SWAP1 POP SWAP2 SWAP1 POP JUMP JUMPDEST PUSH1 0x0 DUP3 DUP3 MSTORE PUSH1 0x20 DUP3 ADD SWAP1 POP SWAP3 SWAP2 POP POP JUMP JUMPDEST PUSH1 0x0 DUP2 SWAP1 POP PUSH1 0x20 DUP3 ADD SWAP1 POP SWAP2 SWAP1 POP JUMP JUMPDEST PUSH1 0x0 PUSH4 0xFFFFFFFF DUP3 AND SWAP1 POP SWAP2 SWAP1 POP JUMP JUMPDEST PUSH2 0x2CC3 DUP2 PUSH2 0x2CAA JUMP JUMPDEST DUP3 MSTORE POP POP JUMP JUMPDEST PUSH1 0x0 PUSH2 0x2CD5 DUP4 DUP4 PUSH2 0x2CBA JUMP JUMPDEST PUSH1 0x20 DUP4 ADD SWAP1 POP SWAP3 SWAP2 POP POP JUMP JUMPDEST PUSH1 0x0 PUSH1 0x20 DUP3 ADD SWAP1 POP SWAP2 SWAP1 POP JUMP JUMPDEST PUSH1 0x0 PUSH2 0x2CF9 DUP3 PUSH2 0x2C7E JUMP JUMPDEST PUSH2 0x2D03 DUP2 DUP6 PUSH2 0x2C89 JUMP JUMPDEST SWAP4 POP PUSH2 0x2D0E DUP4 PUSH2 0x2C9A JUMP JUMPDEST DUP1 PUSH1 0x0 JUMPDEST DUP4 DUP2 LT ISZERO PUSH2 0x2D3F JUMPI DUP2 MLOAD PUSH2 0x2D26 DUP9 DUP3 PUSH2 0x2CC9 JUMP JUMPDEST SWAP8 POP PUSH2 0x2D31 DUP4 PUSH2 0x2CE1 JUMP JUMPDEST SWAP3 POP POP PUSH1 0x1 DUP2 ADD SWAP1 POP PUSH2 0x2D12 JUMP JUMPDEST POP DUP6 SWAP4 POP POP POP POP SWAP3 SWAP2 POP POP JUMP JUMPDEST PUSH1 0x0 PUSH1 0x20 DUP3 ADD SWAP1 POP DUP2 DUP2 SUB PUSH1 0x0 DUP4 ADD MSTORE PUSH2 0x2D66 DUP2 DUP5 PUSH2 0x2CEE JUMP JUMPDEST SWAP1 POP SWAP3 SWAP2 POP POP JUMP JUMPDEST PUSH1 0x0 DUP1 REVERT JUMPDEST PUSH1 0x0 PUSH1 0x1F NOT PUSH1 0x1F DUP4 ADD AND SWAP1 POP SWAP2 SWAP1 POP JUMP JUMPDEST PUSH2 0x2D8D DUP3 PUSH2 0x2D73 JUMP JUMPDEST DUP2 ADD DUP2 DUP2 LT PUSH8 0xFFFFFFFFFFFFFFFF DUP3 GT OR ISZERO PUSH2 0x2DAC JUMPI PUSH2 0x2DAB PUSH2 0x2C4F JUMP JUMPDEST JUMPDEST DUP1 PUSH1 0x40 MSTORE POP POP POP JUMP JUMPDEST PUSH1 0x0 PUSH2 0x2DBF PUSH2 0x23CD JUMP JUMPDEST SWAP1 POP PUSH2 0x2DCB DUP3 DUP3 PUSH2 0x2D84 JUMP JUMPDEST SWAP2 SWAP1 POP JUMP JUMPDEST PUSH1 0x0 PUSH8 0xFFFFFFFFFFFFFFFF DUP3 GT ISZERO PUSH2 0x2DEB JUMPI PUSH2 0x2DEA PUSH2 0x2C4F JUMP JUMPDEST JUMPDEST PUSH1 0x20 DUP3 MUL SWAP1 POP PUSH1 0x20 DUP2 ADD SWAP1 POP SWAP2 SWAP1 POP JUMP JUMPDEST PUSH1 0x0 DUP1 REVERT JUMPDEST PUSH1 0x0 DUP2 PUSH1 0x6 SIGNEXTEND SWAP1 POP SWAP2 SWAP1 POP JUMP JUMPDEST PUSH2 0x2E17 DUP2 PUSH2 0x2E01 JUMP JUMPDEST DUP2 EQ PUSH2 0x2E22 JUMPI PUSH1 0x0 DUP1 REVERT JUMPDEST POP JUMP JUMPDEST PUSH1 0x0 DUP2 MLOAD SWAP1 POP PUSH2 0x2E34 DUP2 PUSH2 0x2E0E JUMP JUMPDEST SWAP3 SWAP2 POP POP JUMP JUMPDEST PUSH1 0x0 PUSH2 0x2E4D PUSH2 0x2E48 DUP5 PUSH2 0x2DD0 JUMP JUMPDEST PUSH2 0x2DB5 JUMP JUMPDEST SWAP1 POP DUP1 DUP4 DUP3 MSTORE PUSH1 0x20 DUP3 ADD SWAP1 POP PUSH1 0x20 DUP5 MUL DUP4 ADD DUP6 DUP2 GT ISZERO PUSH2 0x2E70 JUMPI PUSH2 0x2E6F PUSH2 0x2DFC JUMP JUMPDEST JUMPDEST DUP4 JUMPDEST DUP2 DUP2 LT ISZERO PUSH2 0x2E99 JUMPI DUP1 PUSH2 0x2E85 DUP9 DUP3 PUSH2 0x2E25 JUMP JUMPDEST DUP5 MSTORE PUSH1 0x20 DUP5 ADD SWAP4 POP POP PUSH1 0x20 DUP2 ADD SWAP1 POP PUSH2 0x2E72 JUMP JUMPDEST POP POP POP SWAP4 SWAP3 POP POP POP JUMP JUMPDEST PUSH1 0x0 DUP3 PUSH1 0x1F DUP4 ADD SLT PUSH2 0x2EB8 JUMPI PUSH2 0x2EB7 PUSH2 0x2D6E JUMP JUMPDEST JUMPDEST DUP2 MLOAD PUSH2 0x2EC8 DUP5 DUP3 PUSH1 0x20 DUP7 ADD PUSH2 0x2E3A JUMP JUMPDEST SWAP2 POP POP SWAP3 SWAP2 POP POP JUMP JUMPDEST PUSH1 0x0 PUSH8 0xFFFFFFFFFFFFFFFF DUP3 GT ISZERO PUSH2 0x2EEC JUMPI PUSH2 0x2EEB PUSH2 0x2C4F JUMP JUMPDEST JUMPDEST PUSH1 0x20 DUP3 MUL SWAP1 POP PUSH1 0x20 DUP2 ADD SWAP1 POP SWAP2 SWAP1 POP JUMP JUMPDEST PUSH2 0x2F06 DUP2 PUSH2 0x246E JUMP JUMPDEST DUP2 EQ PUSH2 0x2F11 JUMPI PUSH1 0x0 DUP1 REVERT JUMPDEST POP JUMP JUMPDEST PUSH1 0x0 DUP2 MLOAD SWAP1 POP PUSH2 0x2F23 DUP2 PUSH2 0x2EFD JUMP JUMPDEST SWAP3 SWAP2 POP POP JUMP JUMPDEST PUSH1 0x0 PUSH2 0x2F3C PUSH2 0x2F37 DUP5 PUSH2 0x2ED1 JUMP JUMPDEST PUSH2 0x2DB5 JUMP JUMPDEST SWAP1 POP DUP1 DUP4 DUP3 MSTORE PUSH1 0x20 DUP3 ADD SWAP1 POP PUSH1 0x20 DUP5 MUL DUP4 ADD DUP6 DUP2 GT ISZERO PUSH2 0x2F5F JUMPI PUSH2 0x2F5E PUSH2 0x2DFC JUMP JUMPDEST JUMPDEST DUP4 JUMPDEST DUP2 DUP2 LT ISZERO PUSH2 0x2F88 JUMPI DUP1 PUSH2 0x2F74 DUP9 DUP3 PUSH2 0x2F14 JUMP JUMPDEST DUP5 MSTORE PUSH1 0x20 DUP5 ADD SWAP4 POP POP PUSH1 0x20 DUP2 ADD SWAP1 POP PUSH2 0x2F61 JUMP JUMPDEST POP POP POP SWAP4 SWAP3 POP POP POP JUMP JUMPDEST PUSH1 0x0 DUP3 PUSH1 0x1F DUP4 ADD SLT PUSH2 0x2FA7 JUMPI PUSH2 0x2FA6 PUSH2 0x2D6E JUMP JUMPDEST JUMPDEST DUP2 MLOAD PUSH2 0x2FB7 DUP5 DUP3 PUSH1 0x20 DUP7 ADD PUSH2 0x2F29 JUMP JUMPDEST SWAP2 POP POP SWAP3 SWAP2 POP POP JUMP JUMPDEST PUSH1 0x0 DUP1 PUSH1 0x40 DUP4 DUP6 SUB SLT ISZERO PUSH2 0x2FD7 JUMPI PUSH2 0x2FD6 PUSH2 0x23D7 JUMP JUMPDEST JUMPDEST PUSH1 0x0 DUP4 ADD MLOAD PUSH8 0xFFFFFFFFFFFFFFFF DUP2 GT ISZERO PUSH2 0x2FF5 JUMPI PUSH2 0x2FF4 PUSH2 0x23DC JUMP JUMPDEST JUMPDEST PUSH2 0x3001 DUP6 DUP3 DUP7 ADD PUSH2 0x2EA3 JUMP JUMPDEST SWAP3 POP POP PUSH1 0x20 DUP4 ADD MLOAD PUSH8 0xFFFFFFFFFFFFFFFF DUP2 GT ISZERO PUSH2 0x3022 JUMPI PUSH2 0x3021 PUSH2 0x23DC JUMP JUMPDEST JUMPDEST PUSH2 0x302E DUP6 DUP3 DUP7 ADD PUSH2 0x2F92 JUMP JUMPDEST SWAP2 POP POP SWAP3 POP SWAP3 SWAP1 POP JUMP JUMPDEST PUSH1 0x0 PUSH2 0x3043 DUP3 PUSH2 0x2E01 JUMP JUMPDEST SWAP2 POP PUSH2 0x304E DUP4 PUSH2 0x2E01 JUMP JUMPDEST SWAP3 POP DUP3 PUSH32 0xFFFFFFFFFFFFFFFFFFFFFFFFFFFFFFFFFFFFFFFFFFFFFFFFFF80000000000000 ADD DUP3 SLT PUSH1 0x0 DUP5 SLT ISZERO AND ISZERO PUSH2 0x3089 JUMPI PUSH2 0x3088 PUSH2 0x263B JUMP JUMPDEST JUMPDEST DUP3 PUSH7 0x7FFFFFFFFFFFFF ADD DUP3 SGT PUSH1 0x0 DUP5 SLT AND ISZERO PUSH2 0x30A8 JUMPI PUSH2 0x30A7 PUSH2 0x263B JUMP JUMPDEST JUMPDEST DUP3 DUP3 SUB SWAP1 POP SWAP3 SWAP2 POP POP JUMP JUMPDEST PUSH1 0x0 PUSH2 0x30BE DUP3 PUSH2 0x246E JUMP JUMPDEST SWAP2 POP PUSH2 0x30C9 DUP4 PUSH2 0x246E JUMP JUMPDEST SWAP3 POP DUP3 DUP3 LT ISZERO PUSH2 0x30DC JUMPI PUSH2 0x30DB PUSH2 0x263B JUMP JUMPDEST JUMPDEST DUP3 DUP3 SUB SWAP1 POP SWAP3 SWAP2 POP POP JUMP JUMPDEST PUSH1 0x0 PUSH2 0x30F2 DUP3 PUSH2 0x2E01 JUMP JUMPDEST SWAP2 POP PUSH2 0x30FD DUP4 PUSH2 0x2E01 JUMP JUMPDEST SWAP3 POP DUP3 PUSH2 0x310D JUMPI PUSH2 0x310C PUSH2 0x2A99 JUMP JUMPDEST JUMPDEST PUSH1 0x1 PUSH1 0x0 SUB DUP4 EQ PUSH32 0xFFFFFFFFFFFFFFFFFFFFFFFFFFFFFFFFFFFFFFFFFFFFFFFFFF80000000000000 DUP4 EQ AND ISZERO PUSH2 0x3146 JUMPI PUSH2 0x3145 PUSH2 0x263B JUMP JUMPDEST JUMPDEST DUP3 DUP3 SDIV SWAP1 POP SWAP3 SWAP2 POP POP JUMP JUMPDEST PUSH1 0x0 PUSH2 0x315C DUP3 PUSH2 0x2E01 JUMP JUMPDEST SWAP2 POP PUSH2 0x3167 DUP4 PUSH2 0x2E01 JUMP JUMPDEST SWAP3 POP DUP3 PUSH2 0x3177 JUMPI PUSH2 0x3176 PUSH2 0x2A99 JUMP JUMPDEST JUMPDEST DUP3 DUP3 SMOD SWAP1 POP SWAP3 SWAP2 POP POP JUMP JUMPDEST PUSH1 0x0 DUP2 PUSH1 0x2 SIGNEXTEND SWAP1 POP SWAP2 SWAP1 POP JUMP JUMPDEST PUSH1 0x0 PUSH2 0x319A DUP3 PUSH2 0x3182 JUMP JUMPDEST SWAP2 POP PUSH32 0xFFFFFFFFFFFFFFFFFFFFFFFFFFFFFFFFFFFFFFFFFFFFFFFFFFFFFFFFFF800000 DUP3 SUB PUSH2 0x31CC JUMPI PUSH2 0x31CB PUSH2 0x263B JUMP JUMPDEST JUMPDEST PUSH1 0x1 DUP3 SUB SWAP1 POP SWAP2 SWAP1 POP JUMP JUMPDEST PUSH1 0x0 PUSH24 0xFFFFFFFFFFFFFFFFFFFFFFFFFFFFFFFFFFFFFFFFFFFFFFFF DUP3 AND SWAP1 POP SWAP2 SWAP1 POP JUMP JUMPDEST PUSH1 0x0 PUSH2 0x3206 DUP3 PUSH2 0x31D7 JUMP JUMPDEST SWAP2 POP PUSH2 0x3211 DUP4 PUSH2 0x31D7 JUMP JUMPDEST SWAP3 POP DUP2 PUSH24 0xFFFFFFFFFFFFFFFFFFFFFFFFFFFFFFFFFFFFFFFFFFFFFFFF DIV DUP4 GT DUP3 ISZERO ISZERO AND ISZERO PUSH2 0x3242 JUMPI PUSH2 0x3241 PUSH2 0x263B JUMP JUMPDEST JUMPDEST DUP3 DUP3 MUL SWAP1 POP SWAP3 SWAP2 POP POP JUMP JUMPDEST PUSH1 0x0 PUSH2 0x3258 DUP3 PUSH2 0x31D7 JUMP JUMPDEST SWAP2 POP PUSH2 0x3263 DUP4 PUSH2 0x31D7 JUMP JUMPDEST SWAP3 POP DUP3 PUSH2 0x3273 JUMPI PUSH2 0x3272 PUSH2 0x2A99 JUMP JUMPDEST JUMPDEST DUP3 DUP3 DIV SWAP1 POP SWAP3 SWAP2 POP POP JUMP JUMPDEST PUSH1 0x0 DUP2 SWAP1 POP SWAP2 SWAP1 POP JUMP JUMPDEST PUSH1 0x0 PUSH2 0x3293 DUP3 PUSH2 0x327E JUMP JUMPDEST SWAP2 POP PUSH32 0x8000000000000000000000000000000000000000000000000000000000000000 DUP3 SUB PUSH2 0x32C5 JUMPI PUSH2 0x32C4 PUSH2 0x263B JUMP JUMPDEST JUMPDEST DUP2 PUSH1 0x0 SUB SWAP1 POP SWAP2 SWAP1 POP JUMP JUMPDEST PUSH1 0x0 PUSH2 0x32DB DUP3 PUSH2 0x3182 JUMP JUMPDEST SWAP2 POP PUSH32 0xFFFFFFFFFFFFFFFFFFFFFFFFFFFFFFFFFFFFFFFFFFFFFFFFFFFFFFFFFF800000 DUP3 SUB PUSH2 0x330D JUMPI PUSH2 0x330C PUSH2 0x263B JUMP JUMPDEST JUMPDEST DUP2 PUSH1 0x0 SUB SWAP1 POP SWAP2 SWAP1 POP JUMP JUMPDEST PUSH32 0x5400000000000000000000000000000000000000000000000000000000000000 PUSH1 0x0 DUP3 ADD MSTORE POP JUMP JUMPDEST PUSH1 0x0 PUSH2 0x334E PUSH1 0x1 DUP4 PUSH2 0x2BD2 JUMP JUMPDEST SWAP2 POP PUSH2 0x3359 DUP3 PUSH2 0x3318 JUMP JUMPDEST PUSH1 0x20 DUP3 ADD SWAP1 POP SWAP2 SWAP1 POP JUMP JUMPDEST PUSH1 0x0 PUSH1 0x20 DUP3 ADD SWAP1 POP DUP2 DUP2 SUB PUSH1 0x0 DUP4 ADD MSTORE PUSH2 0x337D DUP2 PUSH2 0x3341 JUMP JUMPDEST SWAP1 POP SWAP2 SWAP1 POP JUMP JUMPDEST PUSH1 0x0 PUSH2 0x338F DUP3 PUSH2 0x23E1 JUMP JUMPDEST SWAP2 POP PUSH2 0x339A DUP4 PUSH2 0x23E1 JUMP JUMPDEST SWAP3 POP DUP3 PUSH2 0x33AA JUMPI PUSH2 0x33A9 PUSH2 0x2A99 JUMP JUMPDEST JUMPDEST DUP3 DUP3 MOD SWAP1 POP SWAP3 SWAP2 POP POP JUMP INVALID LOG2 PUSH5 0x6970667358 0x22 SLT KECCAK256 0xE4 GT 0xE6 ISZERO ISZERO 0xCB SLT PUSH7 0x7BEAB63695944A LOG1 DUP1 0x2D 0xEB 0x4B PUSH28 0x2F0EFFF52D3F77C949DEE664736F6C634300080E0033000000000000 "
				},
				"gasEstimates": {
					"creation": {
						"codeDepositCost": "2658200",
						"executionCost": "infinite",
						"totalCost": "infinite"
					},
					"external": {
						"": "181",
						"NAV()": "2474",
						"addCoin(address,uint256)": "infinite",
						"coinArray(uint256)": "5023",
						"coinOracleAddr(address)": "infinite",
						"coins(address)": "2903",
						"delCoin(address)": "infinite",
						"deleteContract(address)": "infinite",
						"initContract(address)": "infinite",
						"initDone()": "2559",
						"oracleNAV()": "infinite",
						"proxy()": "2630",
						"quoteIn(address)": "infinite",
						"transferFunds(address,uint256)": "infinite",
						"updateNAV(uint256)": "infinite",
						"updateProxy(address)": "27037"
					},
					"internal": {
						"calculateNAV()": "infinite"
					}
				},
				"methodIdentifiers": {
					"NAV()": "52fd856b",
					"addCoin(address,uint256)": "b4014879",
					"coinArray(uint256)": "63b48ee6",
					"coinOracleAddr(address)": "0fbbfa3e",
					"coins(address)": "7d0f7a88",
					"delCoin(address)": "4051b9aa",
					"deleteContract(address)": "2637a477",
					"initContract(address)": "cf9d4afa",
					"initDone()": "fed0a20e",
					"oracleNAV()": "def1a5e8",
					"proxy()": "ec556889",
					"quoteIn(address)": "d825bfff",
					"transferFunds(address,uint256)": "990dc9db",
					"updateNAV(uint256)": "0cb1982b",
					"updateProxy(address)": "9e955149"
				}
			},
			"storageLayout": {
				"storage": [
					{
						"astId": 830,
						"contract": "TFGv3/Contracts/SCStorage.sol:SCStorage",
						"label": "NAV",
						"offset": 0,
						"slot": "0",
						"type": "t_uint256"
					},
					{
						"astId": 832,
						"contract": "TFGv3/Contracts/SCStorage.sol:SCStorage",
						"label": "initDone",
						"offset": 0,
						"slot": "1",
						"type": "t_uint8"
					},
					{
						"astId": 834,
						"contract": "TFGv3/Contracts/SCStorage.sol:SCStorage",
						"label": "nStable",
						"offset": 1,
						"slot": "1",
						"type": "t_uint8"
					},
					{
						"astId": 836,
						"contract": "TFGv3/Contracts/SCStorage.sol:SCStorage",
						"label": "proxy",
						"offset": 2,
						"slot": "1",
						"type": "t_address"
					},
					{
						"astId": 839,
						"contract": "TFGv3/Contracts/SCStorage.sol:SCStorage",
						"label": "coinArray",
						"offset": 0,
						"slot": "2",
						"type": "t_array(t_address)dyn_storage"
					},
					{
						"astId": 843,
						"contract": "TFGv3/Contracts/SCStorage.sol:SCStorage",
						"label": "coins",
						"offset": 0,
						"slot": "3",
						"type": "t_mapping(t_address,t_uint256)"
					},
					{
						"astId": 847,
						"contract": "TFGv3/Contracts/SCStorage.sol:SCStorage",
						"label": "coinOracleAddr",
						"offset": 0,
						"slot": "4",
						"type": "t_mapping(t_address,t_address)"
					},
					{
						"astId": 851,
						"contract": "TFGv3/Contracts/SCStorage.sol:SCStorage",
						"label": "quoteIn",
						"offset": 0,
						"slot": "5",
						"type": "t_mapping(t_address,t_address)"
					}
				],
				"types": {
					"t_address": {
						"encoding": "inplace",
						"label": "address",
						"numberOfBytes": "20"
					},
					"t_array(t_address)dyn_storage": {
						"base": "t_address",
						"encoding": "dynamic_array",
						"label": "address[]",
						"numberOfBytes": "32"
					},
					"t_mapping(t_address,t_address)": {
						"encoding": "mapping",
						"key": "t_address",
						"label": "mapping(address => address)",
						"numberOfBytes": "32",
						"value": "t_address"
					},
					"t_mapping(t_address,t_uint256)": {
						"encoding": "mapping",
						"key": "t_address",
						"label": "mapping(address => uint256)",
						"numberOfBytes": "32",
						"value": "t_uint256"
					},
					"t_uint256": {
						"encoding": "inplace",
						"label": "uint256",
						"numberOfBytes": "32"
					},
					"t_uint8": {
						"encoding": "inplace",
						"label": "uint8",
						"numberOfBytes": "1"
					}
				}
			},
			"userdoc": {
				"kind": "user",
				"methods": {},
				"version": 1
			}
		}
	}
}