{
	"TFGv3/Contracts/SCExchange.sol": {
		"SCExchange": {
			"abi": [
				{
					"inputs": [],
					"stateMutability": "nonpayable",
					"type": "constructor"
				},
				{
					"stateMutability": "payable",
					"type": "fallback"
				},
				{
					"inputs": [
						{
							"internalType": "address",
							"name": "coinAddr",
							"type": "address"
						}
					],
					"name": "addCoin",
					"outputs": [],
					"stateMutability": "nonpayable",
					"type": "function"
				},
				{
					"inputs": [
						{
							"internalType": "address",
							"name": "to",
							"type": "address"
						}
					],
					"name": "addToBlacklist",
					"outputs": [
						{
							"internalType": "bool",
							"name": "",
							"type": "bool"
						}
					],
					"stateMutability": "nonpayable",
					"type": "function"
				},
				{
					"inputs": [
						{
							"internalType": "address",
							"name": "",
							"type": "address"
						}
					],
					"name": "blacklist",
					"outputs": [
						{
							"internalType": "uint256",
							"name": "",
							"type": "uint256"
						}
					],
					"stateMutability": "view",
					"type": "function"
				},
				{
					"inputs": [
						{
							"internalType": "address",
							"name": "stableAddr",
							"type": "address"
						},
						{
							"internalType": "uint256",
							"name": "qtyIn",
							"type": "uint256"
						}
					],
					"name": "buyTokensInput",
					"outputs": [],
					"stateMutability": "nonpayable",
					"type": "function"
				},
				{
					"inputs": [
						{
							"internalType": "address",
							"name": "stableAddr",
							"type": "address"
						},
						{
							"internalType": "uint256",
							"name": "tokensOut",
							"type": "uint256"
						}
					],
					"name": "buyTokensOutput",
					"outputs": [],
					"stateMutability": "nonpayable",
					"type": "function"
				},
				{
					"inputs": [
						{
							"internalType": "address",
							"name": "",
							"type": "address"
						}
					],
					"name": "coins",
					"outputs": [
						{
							"internalType": "uint256",
							"name": "",
							"type": "uint256"
						}
					],
					"stateMutability": "view",
					"type": "function"
				},
				{
					"inputs": [
						{
							"internalType": "address",
							"name": "coinAddr",
							"type": "address"
						}
					],
					"name": "delCoin",
					"outputs": [],
					"stateMutability": "nonpayable",
					"type": "function"
				},
				{
					"inputs": [
						{
							"internalType": "address",
							"name": "newAddr",
							"type": "address"
						}
					],
					"name": "deleteContract",
					"outputs": [],
					"stateMutability": "nonpayable",
					"type": "function"
				},
				{
					"inputs": [
						{
							"internalType": "address",
							"name": "proxyAddr",
							"type": "address"
						}
					],
					"name": "initContract",
					"outputs": [],
					"stateMutability": "nonpayable",
					"type": "function"
				},
				{
					"inputs": [],
					"name": "initDone",
					"outputs": [
						{
							"internalType": "uint8",
							"name": "",
							"type": "uint8"
						}
					],
					"stateMutability": "view",
					"type": "function"
				},
				{
					"inputs": [],
					"name": "lock",
					"outputs": [
						{
							"internalType": "uint8",
							"name": "",
							"type": "uint8"
						}
					],
					"stateMutability": "view",
					"type": "function"
				},
				{
					"inputs": [],
					"name": "lockOff",
					"outputs": [],
					"stateMutability": "nonpayable",
					"type": "function"
				},
				{
					"inputs": [],
					"name": "lockOn",
					"outputs": [],
					"stateMutability": "nonpayable",
					"type": "function"
				},
				{
					"inputs": [],
					"name": "proxy",
					"outputs": [
						{
							"internalType": "address",
							"name": "",
							"type": "address"
						}
					],
					"stateMutability": "view",
					"type": "function"
				},
				{
					"inputs": [
						{
							"internalType": "address",
							"name": "to",
							"type": "address"
						}
					],
					"name": "removeFromBlacklist",
					"outputs": [
						{
							"internalType": "bool",
							"name": "",
							"type": "bool"
						}
					],
					"stateMutability": "nonpayable",
					"type": "function"
				},
				{
					"inputs": [
						{
							"internalType": "uint256",
							"name": "qty",
							"type": "uint256"
						}
					],
					"name": "sellTokens",
					"outputs": [],
					"stateMutability": "nonpayable",
					"type": "function"
				},
				{
					"inputs": [
						{
							"internalType": "address",
							"name": "newAddr",
							"type": "address"
						}
					],
					"name": "updateProxy",
					"outputs": [],
					"stateMutability": "nonpayable",
					"type": "function"
				},
				{
					"stateMutability": "payable",
					"type": "receive"
				}
			],
			"devdoc": {
				"kind": "dev",
				"methods": {},
				"version": 1
			},
			"evm": {
				"assembly": "    /* \"TFGv3/Contracts/SCExchange.sol\":108:5610  contract SCExchange is ISCExchange... */\n  mstore(0x40, 0xa0)\n    /* \"TFGv3/Contracts/SCExchange.sol\":341:415  constructor()... */\n  callvalue\n  dup1\n  iszero\n  tag_1\n  jumpi\n  0x00\n  dup1\n  revert\ntag_1:\n  pop\n    /* \"TFGv3/Contracts/SCExchange.sol\":380:390  msg.sender */\n  caller\n    /* \"TFGv3/Contracts/SCExchange.sol\":369:390  deployer = msg.sender */\n  0xffffffffffffffffffffffffffffffffffffffff\n  and\n  0x80\n  dup2\n  0xffffffffffffffffffffffffffffffffffffffff\n  and\n  dup2\n  mstore\n  pop\n  pop\n    /* \"TFGv3/Contracts/SCExchange.sol\":407:408  1 */\n  0x01\n    /* \"TFGv3/Contracts/SCExchange.sol\":400:404  lock */\n  0x03\n  0x00\n    /* \"TFGv3/Contracts/SCExchange.sol\":400:408  lock = 1 */\n  0x0100\n  exp\n  dup2\n  sload\n  dup2\n  0xff\n  mul\n  not\n  and\n  swap1\n  dup4\n  0xff\n  and\n  mul\n  or\n  swap1\n  sstore\n  pop\n    /* \"TFGv3/Contracts/SCExchange.sol\":108:5610  contract SCExchange is ISCExchange... */\n  mload(0x80)\n  codecopy(0x00, dataOffset(sub_0), dataSize(sub_0))\n  0x00\n  assignImmutable(\"0x5081277725af21b52adfcd8be9eaf5a350f1ec111a4413c31b8ff210fe7f74ef\")\n  return(0x00, dataSize(sub_0))\nstop\n\nsub_0: assembly {\n        /* \"TFGv3/Contracts/SCExchange.sol\":108:5610  contract SCExchange is ISCExchange... */\n      mstore(0x40, 0x80)\n      jumpi(tag_1, lt(calldatasize, 0x04))\n      shr(0xe0, calldataload(0x00))\n      dup1\n      0x7d0f7a88\n      gt\n      tag_20\n      jumpi\n      dup1\n      0xcf9d4afa\n      gt\n      tag_21\n      jumpi\n      dup1\n      0xcf9d4afa\n      eq\n      tag_15\n      jumpi\n      dup1\n      0xec556889\n      eq\n      tag_16\n      jumpi\n      dup1\n      0xf83d08ba\n      eq\n      tag_17\n      jumpi\n      dup1\n      0xf9f92be4\n      eq\n      tag_18\n      jumpi\n      dup1\n      0xfed0a20e\n      eq\n      tag_19\n      jumpi\n      jump(tag_2)\n    tag_21:\n      dup1\n      0x7d0f7a88\n      eq\n      tag_11\n      jumpi\n      dup1\n      0x9be56034\n      eq\n      tag_12\n      jumpi\n      dup1\n      0x9e955149\n      eq\n      tag_13\n      jumpi\n      dup1\n      0xb4b15df5\n      eq\n      tag_14\n      jumpi\n      jump(tag_2)\n    tag_20:\n      dup1\n      0x44337ea1\n      gt\n      tag_22\n      jumpi\n      dup1\n      0x44337ea1\n      eq\n      tag_7\n      jumpi\n      dup1\n      0x537df3b6\n      eq\n      tag_8\n      jumpi\n      dup1\n      0x5ecaf1c8\n      eq\n      tag_9\n      jumpi\n      dup1\n      0x6c11bcd3\n      eq\n      tag_10\n      jumpi\n      jump(tag_2)\n    tag_22:\n      dup1\n      0x16da8632\n      eq\n      tag_3\n      jumpi\n      dup1\n      0x2637a477\n      eq\n      tag_4\n      jumpi\n      dup1\n      0x365afe2f\n      eq\n      tag_5\n      jumpi\n      dup1\n      0x4051b9aa\n      eq\n      tag_6\n      jumpi\n      jump(tag_2)\n    tag_1:\n      jumpi(tag_2, calldatasize)\n        /* \"TFGv3/Contracts/SCExchange.sol\":5526:5534  revert() */\n      0x00\n      dup1\n      revert\n        /* \"TFGv3/Contracts/SCExchange.sol\":108:5610  contract SCExchange is ISCExchange... */\n    tag_2:\n        /* \"TFGv3/Contracts/SCExchange.sol\":5593:5601  revert() */\n      0x00\n      dup1\n      revert\n        /* \"TFGv3/Contracts/SCExchange.sol\":4477:4575  function addCoin(address coinAddr) external  OnlyDeployer... */\n    tag_3:\n      callvalue\n      dup1\n      iszero\n      tag_27\n      jumpi\n      0x00\n      dup1\n      revert\n    tag_27:\n      pop\n      tag_28\n      0x04\n      dup1\n      calldatasize\n      sub\n      dup2\n      add\n      swap1\n      tag_29\n      swap2\n      swap1\n      tag_30\n      jump\t// in\n    tag_29:\n      tag_31\n      jump\t// in\n    tag_28:\n      stop\n        /* \"TFGv3/Contracts/SCExchange.sol\":5165:5475  function deleteContract(address newAddr) external virtual override OnlyDeployer... */\n    tag_4:\n      callvalue\n      dup1\n      iszero\n      tag_32\n      jumpi\n      0x00\n      dup1\n      revert\n    tag_32:\n      pop\n      tag_33\n      0x04\n      dup1\n      calldatasize\n      sub\n      dup2\n      add\n      swap1\n      tag_34\n      swap2\n      swap1\n      tag_30\n      jump\t// in\n    tag_34:\n      tag_35\n      jump\t// in\n    tag_33:\n      stop\n        /* \"TFGv3/Contracts/SCExchange.sol\":1173:2162  function buyTokensOutput(address stableAddr, uint tokensOut) external virtual override Blacklisted Locked Coin(stableAddr)... */\n    tag_5:\n      callvalue\n      dup1\n      iszero\n      tag_36\n      jumpi\n      0x00\n      dup1\n      revert\n    tag_36:\n      pop\n      tag_37\n      0x04\n      dup1\n      calldatasize\n      sub\n      dup2\n      add\n      swap1\n      tag_38\n      swap2\n      swap1\n      tag_39\n      jump\t// in\n    tag_38:\n      tag_40\n      jump\t// in\n    tag_37:\n      stop\n        /* \"TFGv3/Contracts/SCExchange.sol\":4585:4682  function delCoin(address coinAddr) external OnlyDeployer... */\n    tag_6:\n      callvalue\n      dup1\n      iszero\n      tag_41\n      jumpi\n      0x00\n      dup1\n      revert\n    tag_41:\n      pop\n      tag_42\n      0x04\n      dup1\n      calldatasize\n      sub\n      dup2\n      add\n      swap1\n      tag_43\n      swap2\n      swap1\n      tag_30\n      jump\t// in\n    tag_43:\n      tag_44\n      jump\t// in\n    tag_42:\n      stop\n        /* \"TFGv3/Contracts/SCExchange.sol\":4685:4834  function addToBlacklist(address to) external virtual override OnlyDeployer returns (bool)... */\n    tag_7:\n      callvalue\n      dup1\n      iszero\n      tag_45\n      jumpi\n      0x00\n      dup1\n      revert\n    tag_45:\n      pop\n      tag_46\n      0x04\n      dup1\n      calldatasize\n      sub\n      dup2\n      add\n      swap1\n      tag_47\n      swap2\n      swap1\n      tag_30\n      jump\t// in\n    tag_47:\n      tag_48\n      jump\t// in\n    tag_46:\n      mload(0x40)\n      tag_49\n      swap2\n      swap1\n      tag_50\n      jump\t// in\n    tag_49:\n      mload(0x40)\n      dup1\n      swap2\n      sub\n      swap1\n      return\n        /* \"TFGv3/Contracts/SCExchange.sol\":4840:4994  function removeFromBlacklist(address to) external virtual override OnlyDeployer returns (bool)... */\n    tag_8:\n      callvalue\n      dup1\n      iszero\n      tag_51\n      jumpi\n      0x00\n      dup1\n      revert\n    tag_51:\n      pop\n      tag_52\n      0x04\n      dup1\n      calldatasize\n      sub\n      dup2\n      add\n      swap1\n      tag_53\n      swap2\n      swap1\n      tag_30\n      jump\t// in\n    tag_53:\n      tag_54\n      jump\t// in\n    tag_52:\n      mload(0x40)\n      tag_55\n      swap2\n      swap1\n      tag_50\n      jump\t// in\n    tag_55:\n      mload(0x40)\n      dup1\n      swap2\n      sub\n      swap1\n      return\n        /* \"TFGv3/Contracts/SCExchange.sol\":1097:1167  function lockOff() external OnlyDeployer... */\n    tag_9:\n      callvalue\n      dup1\n      iszero\n      tag_56\n      jumpi\n      0x00\n      dup1\n      revert\n    tag_56:\n      pop\n      tag_57\n      tag_58\n      jump\t// in\n    tag_57:\n      stop\n        /* \"TFGv3/Contracts/SCExchange.sol\":3805:4471  function sellTokens(uint qty) external virtual override Blacklisted Locked... */\n    tag_10:\n      callvalue\n      dup1\n      iszero\n      tag_59\n      jumpi\n      0x00\n      dup1\n      revert\n    tag_59:\n      pop\n      tag_60\n      0x04\n      dup1\n      calldatasize\n      sub\n      dup2\n      add\n      swap1\n      tag_61\n      swap2\n      swap1\n      tag_62\n      jump\t// in\n    tag_61:\n      tag_63\n      jump\t// in\n    tag_60:\n      stop\n        /* \"TFGv3/Contracts/SCExchange.sol\":202:239  mapping(address => uint) public coins */\n    tag_11:\n      callvalue\n      dup1\n      iszero\n      tag_64\n      jumpi\n      0x00\n      dup1\n      revert\n    tag_64:\n      pop\n      tag_65\n      0x04\n      dup1\n      calldatasize\n      sub\n      dup2\n      add\n      swap1\n      tag_66\n      swap2\n      swap1\n      tag_30\n      jump\t// in\n    tag_66:\n      tag_67\n      jump\t// in\n    tag_65:\n      mload(0x40)\n      tag_68\n      swap2\n      swap1\n      tag_69\n      jump\t// in\n    tag_68:\n      mload(0x40)\n      dup1\n      swap2\n      sub\n      swap1\n      return\n        /* \"TFGv3/Contracts/SCExchange.sol\":2172:3802  function buyTokensInput(address stableAddr, uint qtyIn) external virtual override Blacklisted Locked Coin(stableAddr)... */\n    tag_12:\n      callvalue\n      dup1\n      iszero\n      tag_70\n      jumpi\n      0x00\n      dup1\n      revert\n    tag_70:\n      pop\n      tag_71\n      0x04\n      dup1\n      calldatasize\n      sub\n      dup2\n      add\n      swap1\n      tag_72\n      swap2\n      swap1\n      tag_39\n      jump\t// in\n    tag_72:\n      tag_73\n      jump\t// in\n    tag_71:\n      stop\n        /* \"TFGv3/Contracts/SCExchange.sol\":5004:5155  function updateProxy(address newAddr) external virtual override OnlyDeployer... */\n    tag_13:\n      callvalue\n      dup1\n      iszero\n      tag_74\n      jumpi\n      0x00\n      dup1\n      revert\n    tag_74:\n      pop\n      tag_75\n      0x04\n      dup1\n      calldatasize\n      sub\n      dup2\n      add\n      swap1\n      tag_76\n      swap2\n      swap1\n      tag_30\n      jump\t// in\n    tag_76:\n      tag_77\n      jump\t// in\n    tag_75:\n      stop\n        /* \"TFGv3/Contracts/SCExchange.sol\":1018:1087  function lockOn() external OnlyDeployer... */\n    tag_14:\n      callvalue\n      dup1\n      iszero\n      tag_78\n      jumpi\n      0x00\n      dup1\n      revert\n    tag_78:\n      pop\n      tag_79\n      tag_80\n      jump\t// in\n    tag_79:\n      stop\n        /* \"TFGv3/Contracts/SCExchange.sol\":863:1012  function initContract(address proxyAddr) external OnlyDeployer NonInit... */\n    tag_15:\n      callvalue\n      dup1\n      iszero\n      tag_81\n      jumpi\n      0x00\n      dup1\n      revert\n    tag_81:\n      pop\n      tag_82\n      0x04\n      dup1\n      calldatasize\n      sub\n      dup2\n      add\n      swap1\n      tag_83\n      swap2\n      swap1\n      tag_30\n      jump\t// in\n    tag_83:\n      tag_84\n      jump\t// in\n    tag_82:\n      stop\n        /* \"TFGv3/Contracts/SCExchange.sol\":178:198  address public proxy */\n    tag_16:\n      callvalue\n      dup1\n      iszero\n      tag_85\n      jumpi\n      0x00\n      dup1\n      revert\n    tag_85:\n      pop\n      tag_86\n      tag_87\n      jump\t// in\n    tag_86:\n      mload(0x40)\n      tag_88\n      swap2\n      swap1\n      tag_89\n      jump\t// in\n    tag_88:\n      mload(0x40)\n      dup1\n      swap2\n      sub\n      swap1\n      return\n        /* \"TFGv3/Contracts/SCExchange.sol\":286:303  uint8 public lock */\n    tag_17:\n      callvalue\n      dup1\n      iszero\n      tag_90\n      jumpi\n      0x00\n      dup1\n      revert\n    tag_90:\n      pop\n      tag_91\n      tag_92\n      jump\t// in\n    tag_91:\n      mload(0x40)\n      tag_93\n      swap2\n      swap1\n      tag_94\n      jump\t// in\n    tag_93:\n      mload(0x40)\n      dup1\n      swap2\n      sub\n      swap1\n      return\n        /* \"TFGv3/Contracts/SCExchange.sol\":242:283  mapping(address => uint) public blacklist */\n    tag_18:\n      callvalue\n      dup1\n      iszero\n      tag_95\n      jumpi\n      0x00\n      dup1\n      revert\n    tag_95:\n      pop\n      tag_96\n      0x04\n      dup1\n      calldatasize\n      sub\n      dup2\n      add\n      swap1\n      tag_97\n      swap2\n      swap1\n      tag_30\n      jump\t// in\n    tag_97:\n      tag_98\n      jump\t// in\n    tag_96:\n      mload(0x40)\n      tag_99\n      swap2\n      swap1\n      tag_69\n      jump\t// in\n    tag_99:\n      mload(0x40)\n      dup1\n      swap2\n      sub\n      swap1\n      return\n        /* \"TFGv3/Contracts/SCExchange.sol\":309:330  uint8 public initDone */\n    tag_19:\n      callvalue\n      dup1\n      iszero\n      tag_100\n      jumpi\n      0x00\n      dup1\n      revert\n    tag_100:\n      pop\n      tag_101\n      tag_102\n      jump\t// in\n    tag_101:\n      mload(0x40)\n      tag_103\n      swap2\n      swap1\n      tag_94\n      jump\t// in\n    tag_103:\n      mload(0x40)\n      dup1\n      swap2\n      sub\n      swap1\n      return\n        /* \"TFGv3/Contracts/SCExchange.sol\":4477:4575  function addCoin(address coinAddr) external  OnlyDeployer... */\n    tag_31:\n        /* \"TFGv3/Contracts/SCExchange.sol\":482:490  deployer */\n      immutable(\"0x5081277725af21b52adfcd8be9eaf5a350f1ec111a4413c31b8ff210fe7f74ef\")\n        /* \"TFGv3/Contracts/SCExchange.sol\":468:490  msg.sender == deployer */\n      0xffffffffffffffffffffffffffffffffffffffff\n      and\n        /* \"TFGv3/Contracts/SCExchange.sol\":468:478  msg.sender */\n      caller\n        /* \"TFGv3/Contracts/SCExchange.sol\":468:490  msg.sender == deployer */\n      0xffffffffffffffffffffffffffffffffffffffff\n      and\n      eq\n        /* \"TFGv3/Contracts/SCExchange.sol\":460:491  require(msg.sender == deployer) */\n      tag_105\n      jumpi\n      0x00\n      dup1\n      revert\n    tag_105:\n        /* \"TFGv3/Contracts/SCExchange.sol\":4567:4568  1 */\n      0x01\n        /* \"TFGv3/Contracts/SCExchange.sol\":4549:4554  coins */\n      dup1\n        /* \"TFGv3/Contracts/SCExchange.sol\":4549:4564  coins[coinAddr] */\n      0x00\n        /* \"TFGv3/Contracts/SCExchange.sol\":4555:4563  coinAddr */\n      dup4\n        /* \"TFGv3/Contracts/SCExchange.sol\":4549:4564  coins[coinAddr] */\n      0xffffffffffffffffffffffffffffffffffffffff\n      and\n      0xffffffffffffffffffffffffffffffffffffffff\n      and\n      dup2\n      mstore\n      0x20\n      add\n      swap1\n      dup2\n      mstore\n      0x20\n      add\n      0x00\n      keccak256\n        /* \"TFGv3/Contracts/SCExchange.sol\":4549:4568  coins[coinAddr] = 1 */\n      dup2\n      swap1\n      sstore\n      pop\n        /* \"TFGv3/Contracts/SCExchange.sol\":4477:4575  function addCoin(address coinAddr) external  OnlyDeployer... */\n      pop\n      jump\t// out\n        /* \"TFGv3/Contracts/SCExchange.sol\":5165:5475  function deleteContract(address newAddr) external virtual override OnlyDeployer... */\n    tag_35:\n        /* \"TFGv3/Contracts/SCExchange.sol\":482:490  deployer */\n      immutable(\"0x5081277725af21b52adfcd8be9eaf5a350f1ec111a4413c31b8ff210fe7f74ef\")\n        /* \"TFGv3/Contracts/SCExchange.sol\":468:490  msg.sender == deployer */\n      0xffffffffffffffffffffffffffffffffffffffff\n      and\n        /* \"TFGv3/Contracts/SCExchange.sol\":468:478  msg.sender */\n      caller\n        /* \"TFGv3/Contracts/SCExchange.sol\":468:490  msg.sender == deployer */\n      0xffffffffffffffffffffffffffffffffffffffff\n      and\n      eq\n        /* \"TFGv3/Contracts/SCExchange.sol\":460:491  require(msg.sender == deployer) */\n      tag_108\n      jumpi\n      0x00\n      dup1\n      revert\n    tag_108:\n        /* \"TFGv3/Contracts/SCExchange.sol\":5259:5276  address proxyAddr */\n      0x00\n        /* \"TFGv3/Contracts/SCExchange.sol\":5279:5284  proxy */\n      dup1\n      0x00\n      swap1\n      sload\n      swap1\n      0x0100\n      exp\n      swap1\n      div\n      0xffffffffffffffffffffffffffffffffffffffff\n      and\n        /* \"TFGv3/Contracts/SCExchange.sol\":5259:5284  address proxyAddr = proxy */\n      swap1\n      pop\n        /* \"TFGv3/Contracts/SCExchange.sol\":5301:5310  proxyAddr */\n      dup1\n        /* \"TFGv3/Contracts/SCExchange.sol\":5294:5327  IProxy(proxyAddr).setExchangeAddr */\n      0xffffffffffffffffffffffffffffffffffffffff\n      and\n      0x8ae91695\n        /* \"TFGv3/Contracts/SCExchange.sol\":5328:5335  newAddr */\n      dup4\n        /* \"TFGv3/Contracts/SCExchange.sol\":5294:5336  IProxy(proxyAddr).setExchangeAddr(newAddr) */\n      mload(0x40)\n      dup3\n      0xffffffff\n      and\n      0xe0\n      shl\n      dup2\n      mstore\n      0x04\n      add\n      tag_110\n      swap2\n      swap1\n      tag_89\n      jump\t// in\n    tag_110:\n      0x00\n      mload(0x40)\n      dup1\n      dup4\n      sub\n      dup2\n      0x00\n      dup8\n      dup1\n      extcodesize\n      iszero\n      dup1\n      iszero\n      tag_111\n      jumpi\n      0x00\n      dup1\n      revert\n    tag_111:\n      pop\n      gas\n      call\n      iszero\n      dup1\n      iszero\n      tag_113\n      jumpi\n      returndatasize\n      0x00\n      dup1\n      returndatacopy\n      revert(0x00, returndatasize)\n    tag_113:\n      pop\n      pop\n      pop\n      pop\n        /* \"TFGv3/Contracts/SCExchange.sol\":5346:5353  newAddr */\n      dup2\n        /* \"TFGv3/Contracts/SCExchange.sol\":5346:5366  newAddr.delegatecall */\n      0xffffffffffffffffffffffffffffffffffffffff\n      and\n        /* \"TFGv3/Contracts/SCExchange.sol\":5416:5425  proxyAddr */\n      dup2\n        /* \"TFGv3/Contracts/SCExchange.sol\":5367:5426  abi.encodeWithSignature(\"initContract(address)\", proxyAddr) */\n      add(0x24, mload(0x40))\n      tag_114\n      swap2\n      swap1\n      tag_89\n      jump\t// in\n    tag_114:\n      mload(0x40)\n      0x20\n      dup2\n      dup4\n      sub\n      sub\n      dup2\n      mstore\n      swap1\n      0x40\n      mstore\n      and(not(0xffffffffffffffffffffffffffffffffffffffffffffffffffffffff), 0xcf9d4afa00000000000000000000000000000000000000000000000000000000)\n      0x20\n      dup3\n      add\n      dup1\n      mload\n      0xffffffffffffffffffffffffffffffffffffffffffffffffffffffff\n      dup4\n      dup2\n      dup4\n      and\n      or\n      dup4\n      mstore\n      pop\n      pop\n      pop\n      pop\n        /* \"TFGv3/Contracts/SCExchange.sol\":5346:5427  newAddr.delegatecall(abi.encodeWithSignature(\"initContract(address)\", proxyAddr)) */\n      mload(0x40)\n      tag_115\n      swap2\n      swap1\n      tag_116\n      jump\t// in\n    tag_115:\n      0x00\n      mload(0x40)\n      dup1\n      dup4\n      sub\n      dup2\n      dup6\n      gas\n      delegatecall\n      swap2\n      pop\n      pop\n      returndatasize\n      dup1\n      0x00\n      dup2\n      eq\n      tag_119\n      jumpi\n      mload(0x40)\n      swap2\n      pop\n      and(add(returndatasize, 0x3f), not(0x1f))\n      dup3\n      add\n      0x40\n      mstore\n      returndatasize\n      dup3\n      mstore\n      returndatasize\n      0x00\n      0x20\n      dup5\n      add\n      returndatacopy\n      jump(tag_118)\n    tag_119:\n      0x60\n      swap2\n      pop\n    tag_118:\n      pop\n      pop\n      pop\n        /* \"TFGv3/Contracts/SCExchange.sol\":5458:5466  deployer */\n      immutable(\"0x5081277725af21b52adfcd8be9eaf5a350f1ec111a4413c31b8ff210fe7f74ef\")\n        /* \"TFGv3/Contracts/SCExchange.sol\":5437:5468  selfdestruct(payable(deployer)) */\n      0xffffffffffffffffffffffffffffffffffffffff\n      and\n      selfdestruct\n        /* \"TFGv3/Contracts/SCExchange.sol\":1173:2162  function buyTokensOutput(address stableAddr, uint tokensOut) external virtual override Blacklisted Locked Coin(stableAddr)... */\n    tag_40:\n        /* \"TFGv3/Contracts/SCExchange.sol\":582:583  1 */\n      0x01\n        /* \"TFGv3/Contracts/SCExchange.sol\":557:566  blacklist */\n      0x02\n        /* \"TFGv3/Contracts/SCExchange.sol\":557:578  blacklist[msg.sender] */\n      0x00\n        /* \"TFGv3/Contracts/SCExchange.sol\":567:577  msg.sender */\n      caller\n        /* \"TFGv3/Contracts/SCExchange.sol\":557:578  blacklist[msg.sender] */\n      0xffffffffffffffffffffffffffffffffffffffff\n      and\n      0xffffffffffffffffffffffffffffffffffffffff\n      and\n      dup2\n      mstore\n      0x20\n      add\n      swap1\n      dup2\n      mstore\n      0x20\n      add\n      0x00\n      keccak256\n      sload\n        /* \"TFGv3/Contracts/SCExchange.sol\":557:583  blacklist[msg.sender] != 1 */\n      sub\n        /* \"TFGv3/Contracts/SCExchange.sol\":549:584  require(blacklist[msg.sender] != 1) */\n      tag_121\n      jumpi\n      0x00\n      dup1\n      revert\n    tag_121:\n        /* \"TFGv3/Contracts/SCExchange.sol\":754:755  0 */\n      0x00\n        /* \"TFGv3/Contracts/SCExchange.sol\":746:750  lock */\n      0x03\n      0x00\n      swap1\n      sload\n      swap1\n      0x0100\n      exp\n      swap1\n      div\n      0xff\n      and\n        /* \"TFGv3/Contracts/SCExchange.sol\":746:755  lock == 0 */\n      0xff\n      and\n      eq\n        /* \"TFGv3/Contracts/SCExchange.sol\":738:756  require(lock == 0) */\n      tag_123\n      jumpi\n      0x00\n      dup1\n      revert\n    tag_123:\n        /* \"TFGv3/Contracts/SCExchange.sol\":1284:1294  stableAddr */\n      dup2\n        /* \"TFGv3/Contracts/SCExchange.sol\":679:680  1 */\n      0x01\n        /* \"TFGv3/Contracts/SCExchange.sol\":658:663  coins */\n      dup1\n        /* \"TFGv3/Contracts/SCExchange.sol\":658:675  coins[stableAddr] */\n      0x00\n        /* \"TFGv3/Contracts/SCExchange.sol\":664:674  stableAddr */\n      dup4\n        /* \"TFGv3/Contracts/SCExchange.sol\":658:675  coins[stableAddr] */\n      0xffffffffffffffffffffffffffffffffffffffff\n      and\n      0xffffffffffffffffffffffffffffffffffffffff\n      and\n      dup2\n      mstore\n      0x20\n      add\n      swap1\n      dup2\n      mstore\n      0x20\n      add\n      0x00\n      keccak256\n      sload\n        /* \"TFGv3/Contracts/SCExchange.sol\":658:680  coins[stableAddr] == 1 */\n      eq\n        /* \"TFGv3/Contracts/SCExchange.sol\":650:681  require(coins[stableAddr] == 1) */\n      tag_125\n      jumpi\n      0x00\n      dup1\n      revert\n    tag_125:\n        /* \"TFGv3/Contracts/SCExchange.sol\":1310:1327  address proxyAddr */\n      0x00\n        /* \"TFGv3/Contracts/SCExchange.sol\":1330:1335  proxy */\n      dup1\n      0x00\n      swap1\n      sload\n      swap1\n      0x0100\n      exp\n      swap1\n      div\n      0xffffffffffffffffffffffffffffffffffffffff\n      and\n        /* \"TFGv3/Contracts/SCExchange.sol\":1310:1335  address proxyAddr = proxy */\n      swap1\n      pop\n        /* \"TFGv3/Contracts/SCExchange.sol\":1345:1364  address storageAddr */\n      0x00\n        /* \"TFGv3/Contracts/SCExchange.sol\":1374:1383  proxyAddr */\n      dup2\n        /* \"TFGv3/Contracts/SCExchange.sol\":1367:1400  IProxy(proxyAddr).storageContract */\n      0xffffffffffffffffffffffffffffffffffffffff\n      and\n      0x11ce0267\n        /* \"TFGv3/Contracts/SCExchange.sol\":1367:1402  IProxy(proxyAddr).storageContract() */\n      mload(0x40)\n      dup2\n      0xffffffff\n      and\n      0xe0\n      shl\n      dup2\n      mstore\n      0x04\n      add\n      0x20\n      mload(0x40)\n      dup1\n      dup4\n      sub\n      dup2\n      dup7\n      gas\n      staticcall\n      iszero\n      dup1\n      iszero\n      tag_128\n      jumpi\n      returndatasize\n      0x00\n      dup1\n      returndatacopy\n      revert(0x00, returndatasize)\n    tag_128:\n      pop\n      pop\n      pop\n      pop\n      mload(0x40)\n      returndatasize\n      not(0x1f)\n      0x1f\n      dup3\n      add\n      and\n      dup3\n      add\n      dup1\n      0x40\n      mstore\n      pop\n      dup2\n      add\n      swap1\n      tag_129\n      swap2\n      swap1\n      tag_130\n      jump\t// in\n    tag_129:\n        /* \"TFGv3/Contracts/SCExchange.sol\":1345:1402  address storageAddr = IProxy(proxyAddr).storageContract() */\n      swap1\n      pop\n        /* \"TFGv3/Contracts/SCExchange.sol\":1421:1434  uint NAVvalue */\n      0x00\n        /* \"TFGv3/Contracts/SCExchange.sol\":1448:1459  storageAddr */\n      dup2\n        /* \"TFGv3/Contracts/SCExchange.sol\":1437:1470  ISCStorage(storageAddr).updateNAV */\n      0xffffffffffffffffffffffffffffffffffffffff\n      and\n      0x0cb1982b\n        /* \"TFGv3/Contracts/SCExchange.sol\":1492:1501  proxyAddr */\n      dup5\n        /* \"TFGv3/Contracts/SCExchange.sol\":1485:1521  IProxy(proxyAddr).commissionContract */\n      0xffffffffffffffffffffffffffffffffffffffff\n      and\n      0xda8909e5\n        /* \"TFGv3/Contracts/SCExchange.sol\":1485:1523  IProxy(proxyAddr).commissionContract() */\n      mload(0x40)\n      dup2\n      0xffffffff\n      and\n      0xe0\n      shl\n      dup2\n      mstore\n      0x04\n      add\n      0x20\n      mload(0x40)\n      dup1\n      dup4\n      sub\n      dup2\n      dup7\n      gas\n      staticcall\n      iszero\n      dup1\n      iszero\n      tag_132\n      jumpi\n      returndatasize\n      0x00\n      dup1\n      returndatacopy\n      revert(0x00, returndatasize)\n    tag_132:\n      pop\n      pop\n      pop\n      pop\n      mload(0x40)\n      returndatasize\n      not(0x1f)\n      0x1f\n      dup3\n      add\n      and\n      dup3\n      add\n      dup1\n      0x40\n      mstore\n      pop\n      dup2\n      add\n      swap1\n      tag_133\n      swap2\n      swap1\n      tag_130\n      jump\t// in\n    tag_133:\n        /* \"TFGv3/Contracts/SCExchange.sol\":1471:1538  ISCCommission(IProxy(proxyAddr).commissionContract()).payComissions */\n      0xffffffffffffffffffffffffffffffffffffffff\n      and\n      0xbdedd45e\n        /* \"TFGv3/Contracts/SCExchange.sol\":1539:1540  0 */\n      0x00\n        /* \"TFGv3/Contracts/SCExchange.sol\":1471:1541  ISCCommission(IProxy(proxyAddr).commissionContract()).payComissions(0) */\n      mload(0x40)\n      dup3\n      0xffffffff\n      and\n      0xe0\n      shl\n      dup2\n      mstore\n      0x04\n      add\n      tag_134\n      swap2\n      swap1\n      tag_135\n      jump\t// in\n    tag_134:\n      0x20\n      mload(0x40)\n      dup1\n      dup4\n      sub\n      dup2\n      0x00\n      dup8\n      gas\n      call\n      iszero\n      dup1\n      iszero\n      tag_137\n      jumpi\n      returndatasize\n      0x00\n      dup1\n      returndatacopy\n      revert(0x00, returndatasize)\n    tag_137:\n      pop\n      pop\n      pop\n      pop\n      mload(0x40)\n      returndatasize\n      not(0x1f)\n      0x1f\n      dup3\n      add\n      and\n      dup3\n      add\n      dup1\n      0x40\n      mstore\n      pop\n      dup2\n      add\n      swap1\n      tag_138\n      swap2\n      swap1\n      tag_139\n      jump\t// in\n    tag_138:\n        /* \"TFGv3/Contracts/SCExchange.sol\":1437:1542  ISCStorage(storageAddr).updateNAV(ISCCommission(IProxy(proxyAddr).commissionContract()).payComissions(0)) */\n      mload(0x40)\n      dup3\n      0xffffffff\n      and\n      0xe0\n      shl\n      dup2\n      mstore\n      0x04\n      add\n      tag_140\n      swap2\n      swap1\n      tag_69\n      jump\t// in\n    tag_140:\n      0x20\n      mload(0x40)\n      dup1\n      dup4\n      sub\n      dup2\n      0x00\n      dup8\n      gas\n      call\n      iszero\n      dup1\n      iszero\n      tag_142\n      jumpi\n      returndatasize\n      0x00\n      dup1\n      returndatacopy\n      revert(0x00, returndatasize)\n    tag_142:\n      pop\n      pop\n      pop\n      pop\n      mload(0x40)\n      returndatasize\n      not(0x1f)\n      0x1f\n      dup3\n      add\n      and\n      dup3\n      add\n      dup1\n      0x40\n      mstore\n      pop\n      dup2\n      add\n      swap1\n      tag_143\n      swap2\n      swap1\n      tag_139\n      jump\t// in\n    tag_143:\n        /* \"TFGv3/Contracts/SCExchange.sol\":1421:1542  uint NAVvalue = ISCStorage(storageAddr).updateNAV(ISCCommission(IProxy(proxyAddr).commissionContract()).payComissions(0)) */\n      swap1\n      pop\n        /* \"TFGv3/Contracts/SCExchange.sol\":1572:1584  uint payment */\n      0x00\n        /* \"TFGv3/Contracts/SCExchange.sol\":1594:1612  uint tokenDecimals */\n      dup1\n        /* \"TFGv3/Contracts/SCExchange.sol\":1622:1632  stableAddr */\n      dup8\n        /* \"TFGv3/Contracts/SCExchange.sol\":1615:1642  IERC20(stableAddr).decimals */\n      0xffffffffffffffffffffffffffffffffffffffff\n      and\n      0x313ce567\n        /* \"TFGv3/Contracts/SCExchange.sol\":1615:1644  IERC20(stableAddr).decimals() */\n      mload(0x40)\n      dup2\n      0xffffffff\n      and\n      0xe0\n      shl\n      dup2\n      mstore\n      0x04\n      add\n      0x20\n      mload(0x40)\n      dup1\n      dup4\n      sub\n      dup2\n      dup7\n      gas\n      staticcall\n      iszero\n      dup1\n      iszero\n      tag_145\n      jumpi\n      returndatasize\n      0x00\n      dup1\n      returndatacopy\n      revert(0x00, returndatasize)\n    tag_145:\n      pop\n      pop\n      pop\n      pop\n      mload(0x40)\n      returndatasize\n      not(0x1f)\n      0x1f\n      dup3\n      add\n      and\n      dup3\n      add\n      dup1\n      0x40\n      mstore\n      pop\n      dup2\n      add\n      swap1\n      tag_146\n      swap2\n      swap1\n      tag_147\n      jump\t// in\n    tag_146:\n        /* \"TFGv3/Contracts/SCExchange.sol\":1594:1644  uint tokenDecimals = IERC20(stableAddr).decimals() */\n      0xff\n      and\n      swap1\n      pop\n        /* \"TFGv3/Contracts/SCExchange.sol\":1654:1670  uint tokenSupply */\n      0x00\n        /* \"TFGv3/Contracts/SCExchange.sol\":1680:1690  stableAddr */\n      dup9\n        /* \"TFGv3/Contracts/SCExchange.sol\":1673:1703  IERC20(stableAddr).totalSupply */\n      0xffffffffffffffffffffffffffffffffffffffff\n      and\n      0x18160ddd\n        /* \"TFGv3/Contracts/SCExchange.sol\":1673:1705  IERC20(stableAddr).totalSupply() */\n      mload(0x40)\n      dup2\n      0xffffffff\n      and\n      0xe0\n      shl\n      dup2\n      mstore\n      0x04\n      add\n      0x20\n      mload(0x40)\n      dup1\n      dup4\n      sub\n      dup2\n      dup7\n      gas\n      staticcall\n      iszero\n      dup1\n      iszero\n      tag_149\n      jumpi\n      returndatasize\n      0x00\n      dup1\n      returndatacopy\n      revert(0x00, returndatasize)\n    tag_149:\n      pop\n      pop\n      pop\n      pop\n      mload(0x40)\n      returndatasize\n      not(0x1f)\n      0x1f\n      dup3\n      add\n      and\n      dup3\n      add\n      dup1\n      0x40\n      mstore\n      pop\n      dup2\n      add\n      swap1\n      tag_150\n      swap2\n      swap1\n      tag_139\n      jump\t// in\n    tag_150:\n        /* \"TFGv3/Contracts/SCExchange.sol\":1654:1705  uint tokenSupply = IERC20(stableAddr).totalSupply() */\n      swap1\n      pop\n        /* \"TFGv3/Contracts/SCExchange.sol\":1739:1740  0 */\n      0x00\n        /* \"TFGv3/Contracts/SCExchange.sol\":1724:1735  tokenSupply */\n      dup2\n        /* \"TFGv3/Contracts/SCExchange.sol\":1724:1740  tokenSupply == 0 */\n      eq\n        /* \"TFGv3/Contracts/SCExchange.sol\":1724:1757  tokenSupply == 0 && NAVvalue == 0 */\n      dup1\n      iszero\n      tag_151\n      jumpi\n      pop\n        /* \"TFGv3/Contracts/SCExchange.sol\":1756:1757  0 */\n      0x00\n        /* \"TFGv3/Contracts/SCExchange.sol\":1744:1752  NAVvalue */\n      dup5\n        /* \"TFGv3/Contracts/SCExchange.sol\":1744:1757  NAVvalue == 0 */\n      eq\n        /* \"TFGv3/Contracts/SCExchange.sol\":1724:1757  tokenSupply == 0 && NAVvalue == 0 */\n    tag_151:\n        /* \"TFGv3/Contracts/SCExchange.sol\":1721:1779  if(tokenSupply == 0 && NAVvalue == 0)... */\n      pop\n        /* \"TFGv3/Contracts/SCExchange.sol\":1807:1809  18 */\n      0x12\n        /* \"TFGv3/Contracts/SCExchange.sol\":1791:1804  tokenDecimals */\n      dup3\n        /* \"TFGv3/Contracts/SCExchange.sol\":1791:1809  tokenDecimals < 18 */\n      lt\n        /* \"TFGv3/Contracts/SCExchange.sol\":1788:1985  if(tokenDecimals < 18) //Decimales del NAV... */\n      iszero\n      tag_153\n      jumpi\n        /* \"TFGv3/Contracts/SCExchange.sol\":1906:1919  tokenDecimals */\n      dup2\n        /* \"TFGv3/Contracts/SCExchange.sol\":1901:1903  18 */\n      0x12\n        /* \"TFGv3/Contracts/SCExchange.sol\":1901:1919  18 - tokenDecimals */\n      tag_154\n      swap2\n      swap1\n      tag_155\n      jump\t// in\n    tag_154:\n        /* \"TFGv3/Contracts/SCExchange.sol\":1896:1898  10 */\n      0x0a\n        /* \"TFGv3/Contracts/SCExchange.sol\":1896:1920  10**(18 - tokenDecimals) */\n      tag_156\n      swap2\n      swap1\n      tag_157\n      jump\t// in\n    tag_156:\n        /* \"TFGv3/Contracts/SCExchange.sol\":1881:1892  tokenSupply */\n      dup2\n        /* \"TFGv3/Contracts/SCExchange.sol\":1870:1878  NAVvalue */\n      dup6\n        /* \"TFGv3/Contracts/SCExchange.sol\":1870:1892  NAVvalue / tokenSupply */\n      tag_158\n      swap2\n      swap1\n      tag_159\n      jump\t// in\n    tag_158:\n        /* \"TFGv3/Contracts/SCExchange.sol\":1857:1866  tokensOut */\n      dup10\n        /* \"TFGv3/Contracts/SCExchange.sol\":1857:1893  tokensOut * (NAVvalue / tokenSupply) */\n      tag_160\n      swap2\n      swap1\n      tag_161\n      jump\t// in\n    tag_160:\n        /* \"TFGv3/Contracts/SCExchange.sol\":1857:1920  tokensOut * (NAVvalue / tokenSupply) / 10**(18 - tokenDecimals) */\n      tag_162\n      swap2\n      swap1\n      tag_159\n      jump\t// in\n    tag_162:\n        /* \"TFGv3/Contracts/SCExchange.sol\":1847:1920  payment = tokensOut * (NAVvalue / tokenSupply) / 10**(18 - tokenDecimals) */\n      swap3\n      pop\n        /* \"TFGv3/Contracts/SCExchange.sol\":1788:1985  if(tokenDecimals < 18) //Decimales del NAV... */\n      jump(tag_163)\n    tag_153:\n        /* \"TFGv3/Contracts/SCExchange.sol\":1973:1984  tokenSupply */\n      dup1\n        /* \"TFGv3/Contracts/SCExchange.sol\":1962:1970  NAVvalue */\n      dup5\n        /* \"TFGv3/Contracts/SCExchange.sol\":1962:1984  NAVvalue / tokenSupply */\n      tag_164\n      swap2\n      swap1\n      tag_159\n      jump\t// in\n    tag_164:\n        /* \"TFGv3/Contracts/SCExchange.sol\":1949:1958  tokensOut */\n      dup9\n        /* \"TFGv3/Contracts/SCExchange.sol\":1949:1985  tokensOut * (NAVvalue / tokenSupply) */\n      tag_165\n      swap2\n      swap1\n      tag_161\n      jump\t// in\n    tag_165:\n        /* \"TFGv3/Contracts/SCExchange.sol\":1939:1985  payment = tokensOut * (NAVvalue / tokenSupply) */\n      swap3\n      pop\n        /* \"TFGv3/Contracts/SCExchange.sol\":1788:1985  if(tokenDecimals < 18) //Decimales del NAV... */\n    tag_163:\n        /* \"TFGv3/Contracts/SCExchange.sol\":2016:2026  stableAddr */\n      dup9\n        /* \"TFGv3/Contracts/SCExchange.sol\":2009:2040  IERC20(stableAddr).transferFrom */\n      0xffffffffffffffffffffffffffffffffffffffff\n      and\n      0x23b872dd\n        /* \"TFGv3/Contracts/SCExchange.sol\":2041:2051  msg.sender */\n      caller\n        /* \"TFGv3/Contracts/SCExchange.sol\":2053:2064  storageAddr */\n      dup8\n        /* \"TFGv3/Contracts/SCExchange.sol\":2066:2073  payment */\n      dup7\n        /* \"TFGv3/Contracts/SCExchange.sol\":2009:2074  IERC20(stableAddr).transferFrom(msg.sender, storageAddr, payment) */\n      mload(0x40)\n      dup5\n      0xffffffff\n      and\n      0xe0\n      shl\n      dup2\n      mstore\n      0x04\n      add\n      tag_166\n      swap4\n      swap3\n      swap2\n      swap1\n      tag_167\n      jump\t// in\n    tag_166:\n      0x20\n      mload(0x40)\n      dup1\n      dup4\n      sub\n      dup2\n      0x00\n      dup8\n      gas\n      call\n      iszero\n      dup1\n      iszero\n      tag_169\n      jumpi\n      returndatasize\n      0x00\n      dup1\n      returndatacopy\n      revert(0x00, returndatasize)\n    tag_169:\n      pop\n      pop\n      pop\n      pop\n      mload(0x40)\n      returndatasize\n      not(0x1f)\n      0x1f\n      dup3\n      add\n      and\n      dup3\n      add\n      dup1\n      0x40\n      mstore\n      pop\n      dup2\n      add\n      swap1\n      tag_170\n      swap2\n      swap1\n      tag_171\n      jump\t// in\n    tag_170:\n        /* \"TFGv3/Contracts/SCExchange.sol\":2001:2075  require(IERC20(stableAddr).transferFrom(msg.sender, storageAddr, payment)) */\n      tag_172\n      jumpi\n      0x00\n      dup1\n      revert\n    tag_172:\n        /* \"TFGv3/Contracts/SCExchange.sol\":2107:2116  proxyAddr */\n      dup6\n        /* \"TFGv3/Contracts/SCExchange.sol\":2100:2123  IProxy(proxyAddr).token */\n      0xffffffffffffffffffffffffffffffffffffffff\n      and\n      0xfc0c546a\n        /* \"TFGv3/Contracts/SCExchange.sol\":2100:2125  IProxy(proxyAddr).token() */\n      mload(0x40)\n      dup2\n      0xffffffff\n      and\n      0xe0\n      shl\n      dup2\n      mstore\n      0x04\n      add\n      0x20\n      mload(0x40)\n      dup1\n      dup4\n      sub\n      dup2\n      dup7\n      gas\n      staticcall\n      iszero\n      dup1\n      iszero\n      tag_174\n      jumpi\n      returndatasize\n      0x00\n      dup1\n      returndatacopy\n      revert(0x00, returndatasize)\n    tag_174:\n      pop\n      pop\n      pop\n      pop\n      mload(0x40)\n      returndatasize\n      not(0x1f)\n      0x1f\n      dup3\n      add\n      and\n      dup3\n      add\n      dup1\n      0x40\n      mstore\n      pop\n      dup2\n      add\n      swap1\n      tag_175\n      swap2\n      swap1\n      tag_130\n      jump\t// in\n    tag_175:\n        /* \"TFGv3/Contracts/SCExchange.sol\":2093:2131  IERC20(IProxy(proxyAddr).token()).mint */\n      0xffffffffffffffffffffffffffffffffffffffff\n      and\n      0x40c10f19\n        /* \"TFGv3/Contracts/SCExchange.sol\":2132:2142  msg.sender */\n      caller\n        /* \"TFGv3/Contracts/SCExchange.sol\":2144:2153  tokensOut */\n      dup11\n        /* \"TFGv3/Contracts/SCExchange.sol\":2093:2154  IERC20(IProxy(proxyAddr).token()).mint(msg.sender, tokensOut) */\n      mload(0x40)\n      dup4\n      0xffffffff\n      and\n      0xe0\n      shl\n      dup2\n      mstore\n      0x04\n      add\n      tag_176\n      swap3\n      swap2\n      swap1\n      tag_177\n      jump\t// in\n    tag_176:\n      0x20\n      mload(0x40)\n      dup1\n      dup4\n      sub\n      dup2\n      0x00\n      dup8\n      gas\n      call\n      iszero\n      dup1\n      iszero\n      tag_179\n      jumpi\n      returndatasize\n      0x00\n      dup1\n      returndatacopy\n      revert(0x00, returndatasize)\n    tag_179:\n      pop\n      pop\n      pop\n      pop\n      mload(0x40)\n      returndatasize\n      not(0x1f)\n      0x1f\n      dup3\n      add\n      and\n      dup3\n      add\n      dup1\n      0x40\n      mstore\n      pop\n      dup2\n      add\n      swap1\n      tag_180\n      swap2\n      swap1\n      tag_171\n      jump\t// in\n    tag_180:\n        /* \"TFGv3/Contracts/SCExchange.sol\":2085:2155  require(IERC20(IProxy(proxyAddr).token()).mint(msg.sender, tokensOut)) */\n      tag_181\n      jumpi\n      0x00\n      dup1\n      revert\n    tag_181:\n        /* \"TFGv3/Contracts/SCExchange.sol\":1300:2162  {... */\n      pop\n      pop\n      pop\n      pop\n      pop\n      pop\n        /* \"TFGv3/Contracts/SCExchange.sol\":766:767  _ */\n      pop\n        /* \"TFGv3/Contracts/SCExchange.sol\":1173:2162  function buyTokensOutput(address stableAddr, uint tokensOut) external virtual override Blacklisted Locked Coin(stableAddr)... */\n      pop\n      pop\n      jump\t// out\n        /* \"TFGv3/Contracts/SCExchange.sol\":4585:4682  function delCoin(address coinAddr) external OnlyDeployer... */\n    tag_44:\n        /* \"TFGv3/Contracts/SCExchange.sol\":482:490  deployer */\n      immutable(\"0x5081277725af21b52adfcd8be9eaf5a350f1ec111a4413c31b8ff210fe7f74ef\")\n        /* \"TFGv3/Contracts/SCExchange.sol\":468:490  msg.sender == deployer */\n      0xffffffffffffffffffffffffffffffffffffffff\n      and\n        /* \"TFGv3/Contracts/SCExchange.sol\":468:478  msg.sender */\n      caller\n        /* \"TFGv3/Contracts/SCExchange.sol\":468:490  msg.sender == deployer */\n      0xffffffffffffffffffffffffffffffffffffffff\n      and\n      eq\n        /* \"TFGv3/Contracts/SCExchange.sol\":460:491  require(msg.sender == deployer) */\n      tag_183\n      jumpi\n      0x00\n      dup1\n      revert\n    tag_183:\n        /* \"TFGv3/Contracts/SCExchange.sol\":4674:4675  0 */\n      0x00\n        /* \"TFGv3/Contracts/SCExchange.sol\":4656:4661  coins */\n      0x01\n        /* \"TFGv3/Contracts/SCExchange.sol\":4656:4671  coins[coinAddr] */\n      0x00\n        /* \"TFGv3/Contracts/SCExchange.sol\":4662:4670  coinAddr */\n      dup4\n        /* \"TFGv3/Contracts/SCExchange.sol\":4656:4671  coins[coinAddr] */\n      0xffffffffffffffffffffffffffffffffffffffff\n      and\n      0xffffffffffffffffffffffffffffffffffffffff\n      and\n      dup2\n      mstore\n      0x20\n      add\n      swap1\n      dup2\n      mstore\n      0x20\n      add\n      0x00\n      keccak256\n        /* \"TFGv3/Contracts/SCExchange.sol\":4656:4675  coins[coinAddr] = 0 */\n      dup2\n      swap1\n      sstore\n      pop\n        /* \"TFGv3/Contracts/SCExchange.sol\":4585:4682  function delCoin(address coinAddr) external OnlyDeployer... */\n      pop\n      jump\t// out\n        /* \"TFGv3/Contracts/SCExchange.sol\":4685:4834  function addToBlacklist(address to) external virtual override OnlyDeployer returns (bool)... */\n    tag_48:\n        /* \"TFGv3/Contracts/SCExchange.sol\":4769:4773  bool */\n      0x00\n        /* \"TFGv3/Contracts/SCExchange.sol\":482:490  deployer */\n      immutable(\"0x5081277725af21b52adfcd8be9eaf5a350f1ec111a4413c31b8ff210fe7f74ef\")\n        /* \"TFGv3/Contracts/SCExchange.sol\":468:490  msg.sender == deployer */\n      0xffffffffffffffffffffffffffffffffffffffff\n      and\n        /* \"TFGv3/Contracts/SCExchange.sol\":468:478  msg.sender */\n      caller\n        /* \"TFGv3/Contracts/SCExchange.sol\":468:490  msg.sender == deployer */\n      0xffffffffffffffffffffffffffffffffffffffff\n      and\n      eq\n        /* \"TFGv3/Contracts/SCExchange.sol\":460:491  require(msg.sender == deployer) */\n      tag_186\n      jumpi\n      0x00\n      dup1\n      revert\n    tag_186:\n        /* \"TFGv3/Contracts/SCExchange.sol\":4805:4806  1 */\n      0x01\n        /* \"TFGv3/Contracts/SCExchange.sol\":4789:4798  blacklist */\n      0x02\n        /* \"TFGv3/Contracts/SCExchange.sol\":4789:4802  blacklist[to] */\n      0x00\n        /* \"TFGv3/Contracts/SCExchange.sol\":4799:4801  to */\n      dup5\n        /* \"TFGv3/Contracts/SCExchange.sol\":4789:4802  blacklist[to] */\n      0xffffffffffffffffffffffffffffffffffffffff\n      and\n      0xffffffffffffffffffffffffffffffffffffffff\n      and\n      dup2\n      mstore\n      0x20\n      add\n      swap1\n      dup2\n      mstore\n      0x20\n      add\n      0x00\n      keccak256\n        /* \"TFGv3/Contracts/SCExchange.sol\":4789:4806  blacklist[to] = 1 */\n      dup2\n      swap1\n      sstore\n      pop\n        /* \"TFGv3/Contracts/SCExchange.sol\":4823:4827  true */\n      0x01\n        /* \"TFGv3/Contracts/SCExchange.sol\":4816:4827  return true */\n      swap1\n      pop\n        /* \"TFGv3/Contracts/SCExchange.sol\":4685:4834  function addToBlacklist(address to) external virtual override OnlyDeployer returns (bool)... */\n      swap2\n      swap1\n      pop\n      jump\t// out\n        /* \"TFGv3/Contracts/SCExchange.sol\":4840:4994  function removeFromBlacklist(address to) external virtual override OnlyDeployer returns (bool)... */\n    tag_54:\n        /* \"TFGv3/Contracts/SCExchange.sol\":4929:4933  bool */\n      0x00\n        /* \"TFGv3/Contracts/SCExchange.sol\":482:490  deployer */\n      immutable(\"0x5081277725af21b52adfcd8be9eaf5a350f1ec111a4413c31b8ff210fe7f74ef\")\n        /* \"TFGv3/Contracts/SCExchange.sol\":468:490  msg.sender == deployer */\n      0xffffffffffffffffffffffffffffffffffffffff\n      and\n        /* \"TFGv3/Contracts/SCExchange.sol\":468:478  msg.sender */\n      caller\n        /* \"TFGv3/Contracts/SCExchange.sol\":468:490  msg.sender == deployer */\n      0xffffffffffffffffffffffffffffffffffffffff\n      and\n      eq\n        /* \"TFGv3/Contracts/SCExchange.sol\":460:491  require(msg.sender == deployer) */\n      tag_189\n      jumpi\n      0x00\n      dup1\n      revert\n    tag_189:\n        /* \"TFGv3/Contracts/SCExchange.sol\":4965:4966  0 */\n      0x00\n        /* \"TFGv3/Contracts/SCExchange.sol\":4949:4958  blacklist */\n      0x02\n        /* \"TFGv3/Contracts/SCExchange.sol\":4949:4962  blacklist[to] */\n      0x00\n        /* \"TFGv3/Contracts/SCExchange.sol\":4959:4961  to */\n      dup5\n        /* \"TFGv3/Contracts/SCExchange.sol\":4949:4962  blacklist[to] */\n      0xffffffffffffffffffffffffffffffffffffffff\n      and\n      0xffffffffffffffffffffffffffffffffffffffff\n      and\n      dup2\n      mstore\n      0x20\n      add\n      swap1\n      dup2\n      mstore\n      0x20\n      add\n      0x00\n      keccak256\n        /* \"TFGv3/Contracts/SCExchange.sol\":4949:4966  blacklist[to] = 0 */\n      dup2\n      swap1\n      sstore\n      pop\n        /* \"TFGv3/Contracts/SCExchange.sol\":4983:4987  true */\n      0x01\n        /* \"TFGv3/Contracts/SCExchange.sol\":4976:4987  return true */\n      swap1\n      pop\n        /* \"TFGv3/Contracts/SCExchange.sol\":4840:4994  function removeFromBlacklist(address to) external virtual override OnlyDeployer returns (bool)... */\n      swap2\n      swap1\n      pop\n      jump\t// out\n        /* \"TFGv3/Contracts/SCExchange.sol\":1097:1167  function lockOff() external OnlyDeployer... */\n    tag_58:\n        /* \"TFGv3/Contracts/SCExchange.sol\":482:490  deployer */\n      immutable(\"0x5081277725af21b52adfcd8be9eaf5a350f1ec111a4413c31b8ff210fe7f74ef\")\n        /* \"TFGv3/Contracts/SCExchange.sol\":468:490  msg.sender == deployer */\n      0xffffffffffffffffffffffffffffffffffffffff\n      and\n        /* \"TFGv3/Contracts/SCExchange.sol\":468:478  msg.sender */\n      caller\n        /* \"TFGv3/Contracts/SCExchange.sol\":468:490  msg.sender == deployer */\n      0xffffffffffffffffffffffffffffffffffffffff\n      and\n      eq\n        /* \"TFGv3/Contracts/SCExchange.sol\":460:491  require(msg.sender == deployer) */\n      tag_192\n      jumpi\n      0x00\n      dup1\n      revert\n    tag_192:\n        /* \"TFGv3/Contracts/SCExchange.sol\":1159:1160  0 */\n      0x00\n        /* \"TFGv3/Contracts/SCExchange.sol\":1152:1156  lock */\n      0x03\n      0x00\n        /* \"TFGv3/Contracts/SCExchange.sol\":1152:1160  lock = 0 */\n      0x0100\n      exp\n      dup2\n      sload\n      dup2\n      0xff\n      mul\n      not\n      and\n      swap1\n      dup4\n      0xff\n      and\n      mul\n      or\n      swap1\n      sstore\n      pop\n        /* \"TFGv3/Contracts/SCExchange.sol\":1097:1167  function lockOff() external OnlyDeployer... */\n      jump\t// out\n        /* \"TFGv3/Contracts/SCExchange.sol\":3805:4471  function sellTokens(uint qty) external virtual override Blacklisted Locked... */\n    tag_63:\n        /* \"TFGv3/Contracts/SCExchange.sol\":582:583  1 */\n      0x01\n        /* \"TFGv3/Contracts/SCExchange.sol\":557:566  blacklist */\n      0x02\n        /* \"TFGv3/Contracts/SCExchange.sol\":557:578  blacklist[msg.sender] */\n      0x00\n        /* \"TFGv3/Contracts/SCExchange.sol\":567:577  msg.sender */\n      caller\n        /* \"TFGv3/Contracts/SCExchange.sol\":557:578  blacklist[msg.sender] */\n      0xffffffffffffffffffffffffffffffffffffffff\n      and\n      0xffffffffffffffffffffffffffffffffffffffff\n      and\n      dup2\n      mstore\n      0x20\n      add\n      swap1\n      dup2\n      mstore\n      0x20\n      add\n      0x00\n      keccak256\n      sload\n        /* \"TFGv3/Contracts/SCExchange.sol\":557:583  blacklist[msg.sender] != 1 */\n      sub\n        /* \"TFGv3/Contracts/SCExchange.sol\":549:584  require(blacklist[msg.sender] != 1) */\n      tag_195\n      jumpi\n      0x00\n      dup1\n      revert\n    tag_195:\n        /* \"TFGv3/Contracts/SCExchange.sol\":754:755  0 */\n      0x00\n        /* \"TFGv3/Contracts/SCExchange.sol\":746:750  lock */\n      0x03\n      0x00\n      swap1\n      sload\n      swap1\n      0x0100\n      exp\n      swap1\n      div\n      0xff\n      and\n        /* \"TFGv3/Contracts/SCExchange.sol\":746:755  lock == 0 */\n      0xff\n      and\n      eq\n        /* \"TFGv3/Contracts/SCExchange.sol\":738:756  require(lock == 0) */\n      tag_197\n      jumpi\n      0x00\n      dup1\n      revert\n    tag_197:\n        /* \"TFGv3/Contracts/SCExchange.sol\":3894:3911  address proxyAddr */\n      0x00\n        /* \"TFGv3/Contracts/SCExchange.sol\":3914:3919  proxy */\n      dup1\n      0x00\n      swap1\n      sload\n      swap1\n      0x0100\n      exp\n      swap1\n      div\n      0xffffffffffffffffffffffffffffffffffffffff\n      and\n        /* \"TFGv3/Contracts/SCExchange.sol\":3894:3919  address proxyAddr = proxy */\n      swap1\n      pop\n        /* \"TFGv3/Contracts/SCExchange.sol\":3929:3948  address storageAddr */\n      0x00\n        /* \"TFGv3/Contracts/SCExchange.sol\":3958:3967  proxyAddr */\n      dup2\n        /* \"TFGv3/Contracts/SCExchange.sol\":3951:3984  IProxy(proxyAddr).storageContract */\n      0xffffffffffffffffffffffffffffffffffffffff\n      and\n      0x11ce0267\n        /* \"TFGv3/Contracts/SCExchange.sol\":3951:3986  IProxy(proxyAddr).storageContract() */\n      mload(0x40)\n      dup2\n      0xffffffff\n      and\n      0xe0\n      shl\n      dup2\n      mstore\n      0x04\n      add\n      0x20\n      mload(0x40)\n      dup1\n      dup4\n      sub\n      dup2\n      dup7\n      gas\n      staticcall\n      iszero\n      dup1\n      iszero\n      tag_200\n      jumpi\n      returndatasize\n      0x00\n      dup1\n      returndatacopy\n      revert(0x00, returndatasize)\n    tag_200:\n      pop\n      pop\n      pop\n      pop\n      mload(0x40)\n      returndatasize\n      not(0x1f)\n      0x1f\n      dup3\n      add\n      and\n      dup3\n      add\n      dup1\n      0x40\n      mstore\n      pop\n      dup2\n      add\n      swap1\n      tag_201\n      swap2\n      swap1\n      tag_130\n      jump\t// in\n    tag_201:\n        /* \"TFGv3/Contracts/SCExchange.sol\":3929:3986  address storageAddr = IProxy(proxyAddr).storageContract() */\n      swap1\n      pop\n        /* \"TFGv3/Contracts/SCExchange.sol\":3996:4013  address tokenAddr */\n      0x00\n        /* \"TFGv3/Contracts/SCExchange.sol\":4023:4032  proxyAddr */\n      dup3\n        /* \"TFGv3/Contracts/SCExchange.sol\":4016:4039  IProxy(proxyAddr).token */\n      0xffffffffffffffffffffffffffffffffffffffff\n      and\n      0xfc0c546a\n        /* \"TFGv3/Contracts/SCExchange.sol\":4016:4041  IProxy(proxyAddr).token() */\n      mload(0x40)\n      dup2\n      0xffffffff\n      and\n      0xe0\n      shl\n      dup2\n      mstore\n      0x04\n      add\n      0x20\n      mload(0x40)\n      dup1\n      dup4\n      sub\n      dup2\n      dup7\n      gas\n      staticcall\n      iszero\n      dup1\n      iszero\n      tag_203\n      jumpi\n      returndatasize\n      0x00\n      dup1\n      returndatacopy\n      revert(0x00, returndatasize)\n    tag_203:\n      pop\n      pop\n      pop\n      pop\n      mload(0x40)\n      returndatasize\n      not(0x1f)\n      0x1f\n      dup3\n      add\n      and\n      dup3\n      add\n      dup1\n      0x40\n      mstore\n      pop\n      dup2\n      add\n      swap1\n      tag_204\n      swap2\n      swap1\n      tag_130\n      jump\t// in\n    tag_204:\n        /* \"TFGv3/Contracts/SCExchange.sol\":3996:4041  address tokenAddr = IProxy(proxyAddr).token() */\n      swap1\n      pop\n        /* \"TFGv3/Contracts/SCExchange.sol\":4075:4084  tokenAddr */\n      dup1\n        /* \"TFGv3/Contracts/SCExchange.sol\":4068:4094  IERC20(tokenAddr).burnFrom */\n      0xffffffffffffffffffffffffffffffffffffffff\n      and\n      0x79cc6790\n        /* \"TFGv3/Contracts/SCExchange.sol\":4095:4105  msg.sender */\n      caller\n        /* \"TFGv3/Contracts/SCExchange.sol\":4107:4110  qty */\n      dup7\n        /* \"TFGv3/Contracts/SCExchange.sol\":4068:4111  IERC20(tokenAddr).burnFrom(msg.sender, qty) */\n      mload(0x40)\n      dup4\n      0xffffffff\n      and\n      0xe0\n      shl\n      dup2\n      mstore\n      0x04\n      add\n      tag_205\n      swap3\n      swap2\n      swap1\n      tag_177\n      jump\t// in\n    tag_205:\n      0x20\n      mload(0x40)\n      dup1\n      dup4\n      sub\n      dup2\n      0x00\n      dup8\n      gas\n      call\n      iszero\n      dup1\n      iszero\n      tag_207\n      jumpi\n      returndatasize\n      0x00\n      dup1\n      returndatacopy\n      revert(0x00, returndatasize)\n    tag_207:\n      pop\n      pop\n      pop\n      pop\n      mload(0x40)\n      returndatasize\n      not(0x1f)\n      0x1f\n      dup3\n      add\n      and\n      dup3\n      add\n      dup1\n      0x40\n      mstore\n      pop\n      dup2\n      add\n      swap1\n      tag_208\n      swap2\n      swap1\n      tag_171\n      jump\t// in\n    tag_208:\n        /* \"TFGv3/Contracts/SCExchange.sol\":4060:4112  require(IERC20(tokenAddr).burnFrom(msg.sender, qty)) */\n      tag_209\n      jumpi\n      0x00\n      dup1\n      revert\n    tag_209:\n        /* \"TFGv3/Contracts/SCExchange.sol\":4128:4141  uint NAVvalue */\n      0x00\n        /* \"TFGv3/Contracts/SCExchange.sol\":4155:4166  storageAddr */\n      dup3\n        /* \"TFGv3/Contracts/SCExchange.sol\":4144:4177  ISCStorage(storageAddr).updateNAV */\n      0xffffffffffffffffffffffffffffffffffffffff\n      and\n      0x0cb1982b\n        /* \"TFGv3/Contracts/SCExchange.sol\":4199:4208  proxyAddr */\n      dup6\n        /* \"TFGv3/Contracts/SCExchange.sol\":4192:4228  IProxy(proxyAddr).commissionContract */\n      0xffffffffffffffffffffffffffffffffffffffff\n      and\n      0xda8909e5\n        /* \"TFGv3/Contracts/SCExchange.sol\":4192:4230  IProxy(proxyAddr).commissionContract() */\n      mload(0x40)\n      dup2\n      0xffffffff\n      and\n      0xe0\n      shl\n      dup2\n      mstore\n      0x04\n      add\n      0x20\n      mload(0x40)\n      dup1\n      dup4\n      sub\n      dup2\n      dup7\n      gas\n      staticcall\n      iszero\n      dup1\n      iszero\n      tag_211\n      jumpi\n      returndatasize\n      0x00\n      dup1\n      returndatacopy\n      revert(0x00, returndatasize)\n    tag_211:\n      pop\n      pop\n      pop\n      pop\n      mload(0x40)\n      returndatasize\n      not(0x1f)\n      0x1f\n      dup3\n      add\n      and\n      dup3\n      add\n      dup1\n      0x40\n      mstore\n      pop\n      dup2\n      add\n      swap1\n      tag_212\n      swap2\n      swap1\n      tag_130\n      jump\t// in\n    tag_212:\n        /* \"TFGv3/Contracts/SCExchange.sol\":4178:4245  ISCCommission(IProxy(proxyAddr).commissionContract()).payComissions */\n      0xffffffffffffffffffffffffffffffffffffffff\n      and\n      0xbdedd45e\n        /* \"TFGv3/Contracts/SCExchange.sol\":4246:4247  1 */\n      0x01\n        /* \"TFGv3/Contracts/SCExchange.sol\":4178:4248  ISCCommission(IProxy(proxyAddr).commissionContract()).payComissions(1) */\n      mload(0x40)\n      dup3\n      0xffffffff\n      and\n      0xe0\n      shl\n      dup2\n      mstore\n      0x04\n      add\n      tag_213\n      swap2\n      swap1\n      tag_214\n      jump\t// in\n    tag_213:\n      0x20\n      mload(0x40)\n      dup1\n      dup4\n      sub\n      dup2\n      0x00\n      dup8\n      gas\n      call\n      iszero\n      dup1\n      iszero\n      tag_216\n      jumpi\n      returndatasize\n      0x00\n      dup1\n      returndatacopy\n      revert(0x00, returndatasize)\n    tag_216:\n      pop\n      pop\n      pop\n      pop\n      mload(0x40)\n      returndatasize\n      not(0x1f)\n      0x1f\n      dup3\n      add\n      and\n      dup3\n      add\n      dup1\n      0x40\n      mstore\n      pop\n      dup2\n      add\n      swap1\n      tag_217\n      swap2\n      swap1\n      tag_139\n      jump\t// in\n    tag_217:\n        /* \"TFGv3/Contracts/SCExchange.sol\":4144:4249  ISCStorage(storageAddr).updateNAV(ISCCommission(IProxy(proxyAddr).commissionContract()).payComissions(1)) */\n      mload(0x40)\n      dup3\n      0xffffffff\n      and\n      0xe0\n      shl\n      dup2\n      mstore\n      0x04\n      add\n      tag_218\n      swap2\n      swap1\n      tag_69\n      jump\t// in\n    tag_218:\n      0x20\n      mload(0x40)\n      dup1\n      dup4\n      sub\n      dup2\n      0x00\n      dup8\n      gas\n      call\n      iszero\n      dup1\n      iszero\n      tag_220\n      jumpi\n      returndatasize\n      0x00\n      dup1\n      returndatacopy\n      revert(0x00, returndatasize)\n    tag_220:\n      pop\n      pop\n      pop\n      pop\n      mload(0x40)\n      returndatasize\n      not(0x1f)\n      0x1f\n      dup3\n      add\n      and\n      dup3\n      add\n      dup1\n      0x40\n      mstore\n      pop\n      dup2\n      add\n      swap1\n      tag_221\n      swap2\n      swap1\n      tag_139\n      jump\t// in\n    tag_221:\n        /* \"TFGv3/Contracts/SCExchange.sol\":4128:4249  uint NAVvalue = ISCStorage(storageAddr).updateNAV(ISCCommission(IProxy(proxyAddr).commissionContract()).payComissions(1)) */\n      swap1\n      pop\n        /* \"TFGv3/Contracts/SCExchange.sol\":4275:4286  uint supply */\n      0x00\n        /* \"TFGv3/Contracts/SCExchange.sol\":4296:4305  tokenAddr */\n      dup3\n        /* \"TFGv3/Contracts/SCExchange.sol\":4289:4318  IERC20(tokenAddr).totalSupply */\n      0xffffffffffffffffffffffffffffffffffffffff\n      and\n      0x18160ddd\n        /* \"TFGv3/Contracts/SCExchange.sol\":4289:4320  IERC20(tokenAddr).totalSupply() */\n      mload(0x40)\n      dup2\n      0xffffffff\n      and\n      0xe0\n      shl\n      dup2\n      mstore\n      0x04\n      add\n      0x20\n      mload(0x40)\n      dup1\n      dup4\n      sub\n      dup2\n      dup7\n      gas\n      staticcall\n      iszero\n      dup1\n      iszero\n      tag_223\n      jumpi\n      returndatasize\n      0x00\n      dup1\n      returndatacopy\n      revert(0x00, returndatasize)\n    tag_223:\n      pop\n      pop\n      pop\n      pop\n      mload(0x40)\n      returndatasize\n      not(0x1f)\n      0x1f\n      dup3\n      add\n      and\n      dup3\n      add\n      dup1\n      0x40\n      mstore\n      pop\n      dup2\n      add\n      swap1\n      tag_224\n      swap2\n      swap1\n      tag_139\n      jump\t// in\n    tag_224:\n        /* \"TFGv3/Contracts/SCExchange.sol\":4275:4320  uint supply = IERC20(tokenAddr).totalSupply() */\n      swap1\n      pop\n        /* \"TFGv3/Contracts/SCExchange.sol\":4330:4350  uint totalToTransfer */\n      0x00\n        /* \"TFGv3/Contracts/SCExchange.sol\":4371:4377  supply */\n      dup2\n        /* \"TFGv3/Contracts/SCExchange.sol\":4360:4368  NAVvalue */\n      dup4\n        /* \"TFGv3/Contracts/SCExchange.sol\":4360:4377  NAVvalue / supply */\n      tag_225\n      swap2\n      swap1\n      tag_159\n      jump\t// in\n    tag_225:\n        /* \"TFGv3/Contracts/SCExchange.sol\":4353:4356  qty */\n      dup8\n        /* \"TFGv3/Contracts/SCExchange.sol\":4353:4378  qty * (NAVvalue / supply) */\n      tag_226\n      swap2\n      swap1\n      tag_161\n      jump\t// in\n    tag_226:\n        /* \"TFGv3/Contracts/SCExchange.sol\":4330:4378  uint totalToTransfer = qty * (NAVvalue / supply) */\n      swap1\n      pop\n        /* \"TFGv3/Contracts/SCExchange.sol\":4408:4419  storageAddr */\n      dup5\n        /* \"TFGv3/Contracts/SCExchange.sol\":4397:4434  ISCStorage(storageAddr).transferFunds */\n      0xffffffffffffffffffffffffffffffffffffffff\n      and\n      0x990dc9db\n        /* \"TFGv3/Contracts/SCExchange.sol\":4435:4445  msg.sender */\n      caller\n        /* \"TFGv3/Contracts/SCExchange.sol\":4447:4462  totalToTransfer */\n      dup4\n        /* \"TFGv3/Contracts/SCExchange.sol\":4397:4463  ISCStorage(storageAddr).transferFunds(msg.sender, totalToTransfer) */\n      mload(0x40)\n      dup4\n      0xffffffff\n      and\n      0xe0\n      shl\n      dup2\n      mstore\n      0x04\n      add\n      tag_227\n      swap3\n      swap2\n      swap1\n      tag_177\n      jump\t// in\n    tag_227:\n      0x20\n      mload(0x40)\n      dup1\n      dup4\n      sub\n      dup2\n      0x00\n      dup8\n      gas\n      call\n      iszero\n      dup1\n      iszero\n      tag_229\n      jumpi\n      returndatasize\n      0x00\n      dup1\n      returndatacopy\n      revert(0x00, returndatasize)\n    tag_229:\n      pop\n      pop\n      pop\n      pop\n      mload(0x40)\n      returndatasize\n      not(0x1f)\n      0x1f\n      dup3\n      add\n      and\n      dup3\n      add\n      dup1\n      0x40\n      mstore\n      pop\n      dup2\n      add\n      swap1\n      tag_230\n      swap2\n      swap1\n      tag_171\n      jump\t// in\n    tag_230:\n        /* \"TFGv3/Contracts/SCExchange.sol\":4389:4464  require(ISCStorage(storageAddr).transferFunds(msg.sender, totalToTransfer)) */\n      tag_231\n      jumpi\n      0x00\n      dup1\n      revert\n    tag_231:\n        /* \"TFGv3/Contracts/SCExchange.sol\":3884:4471  {... */\n      pop\n      pop\n      pop\n      pop\n      pop\n      pop\n        /* \"TFGv3/Contracts/SCExchange.sol\":3805:4471  function sellTokens(uint qty) external virtual override Blacklisted Locked... */\n      pop\n      jump\t// out\n        /* \"TFGv3/Contracts/SCExchange.sol\":202:239  mapping(address => uint) public coins */\n    tag_67:\n      mstore(0x20, 0x01)\n      dup1\n      0x00\n      mstore\n      keccak256(0x00, 0x40)\n      0x00\n      swap2\n      pop\n      swap1\n      pop\n      sload\n      dup2\n      jump\t// out\n        /* \"TFGv3/Contracts/SCExchange.sol\":2172:3802  function buyTokensInput(address stableAddr, uint qtyIn) external virtual override Blacklisted Locked Coin(stableAddr)... */\n    tag_73:\n        /* \"TFGv3/Contracts/SCExchange.sol\":582:583  1 */\n      0x01\n        /* \"TFGv3/Contracts/SCExchange.sol\":557:566  blacklist */\n      0x02\n        /* \"TFGv3/Contracts/SCExchange.sol\":557:578  blacklist[msg.sender] */\n      0x00\n        /* \"TFGv3/Contracts/SCExchange.sol\":567:577  msg.sender */\n      caller\n        /* \"TFGv3/Contracts/SCExchange.sol\":557:578  blacklist[msg.sender] */\n      0xffffffffffffffffffffffffffffffffffffffff\n      and\n      0xffffffffffffffffffffffffffffffffffffffff\n      and\n      dup2\n      mstore\n      0x20\n      add\n      swap1\n      dup2\n      mstore\n      0x20\n      add\n      0x00\n      keccak256\n      sload\n        /* \"TFGv3/Contracts/SCExchange.sol\":557:583  blacklist[msg.sender] != 1 */\n      sub\n        /* \"TFGv3/Contracts/SCExchange.sol\":549:584  require(blacklist[msg.sender] != 1) */\n      tag_233\n      jumpi\n      0x00\n      dup1\n      revert\n    tag_233:\n        /* \"TFGv3/Contracts/SCExchange.sol\":754:755  0 */\n      0x00\n        /* \"TFGv3/Contracts/SCExchange.sol\":746:750  lock */\n      0x03\n      0x00\n      swap1\n      sload\n      swap1\n      0x0100\n      exp\n      swap1\n      div\n      0xff\n      and\n        /* \"TFGv3/Contracts/SCExchange.sol\":746:755  lock == 0 */\n      0xff\n      and\n      eq\n        /* \"TFGv3/Contracts/SCExchange.sol\":738:756  require(lock == 0) */\n      tag_235\n      jumpi\n      0x00\n      dup1\n      revert\n    tag_235:\n        /* \"TFGv3/Contracts/SCExchange.sol\":2278:2288  stableAddr */\n      dup2\n        /* \"TFGv3/Contracts/SCExchange.sol\":679:680  1 */\n      0x01\n        /* \"TFGv3/Contracts/SCExchange.sol\":658:663  coins */\n      dup1\n        /* \"TFGv3/Contracts/SCExchange.sol\":658:675  coins[stableAddr] */\n      0x00\n        /* \"TFGv3/Contracts/SCExchange.sol\":664:674  stableAddr */\n      dup4\n        /* \"TFGv3/Contracts/SCExchange.sol\":658:675  coins[stableAddr] */\n      0xffffffffffffffffffffffffffffffffffffffff\n      and\n      0xffffffffffffffffffffffffffffffffffffffff\n      and\n      dup2\n      mstore\n      0x20\n      add\n      swap1\n      dup2\n      mstore\n      0x20\n      add\n      0x00\n      keccak256\n      sload\n        /* \"TFGv3/Contracts/SCExchange.sol\":658:680  coins[stableAddr] == 1 */\n      eq\n        /* \"TFGv3/Contracts/SCExchange.sol\":650:681  require(coins[stableAddr] == 1) */\n      tag_237\n      jumpi\n      0x00\n      dup1\n      revert\n    tag_237:\n        /* \"TFGv3/Contracts/SCExchange.sol\":2320:2321  0 */\n      0x00\n        /* \"TFGv3/Contracts/SCExchange.sol\":2312:2317  qtyIn */\n      dup3\n        /* \"TFGv3/Contracts/SCExchange.sol\":2312:2321  qtyIn > 0 */\n      gt\n        /* \"TFGv3/Contracts/SCExchange.sol\":2304:2322  require(qtyIn > 0) */\n      tag_239\n      jumpi\n      0x00\n      dup1\n      revert\n    tag_239:\n        /* \"TFGv3/Contracts/SCExchange.sol\":2332:2349  address proxyAddr */\n      0x00\n        /* \"TFGv3/Contracts/SCExchange.sol\":2352:2357  proxy */\n      dup1\n      0x00\n      swap1\n      sload\n      swap1\n      0x0100\n      exp\n      swap1\n      div\n      0xffffffffffffffffffffffffffffffffffffffff\n      and\n        /* \"TFGv3/Contracts/SCExchange.sol\":2332:2357  address proxyAddr = proxy */\n      swap1\n      pop\n        /* \"TFGv3/Contracts/SCExchange.sol\":2367:2386  address storageAddr */\n      0x00\n        /* \"TFGv3/Contracts/SCExchange.sol\":2396:2405  proxyAddr */\n      dup2\n        /* \"TFGv3/Contracts/SCExchange.sol\":2389:2422  IProxy(proxyAddr).storageContract */\n      0xffffffffffffffffffffffffffffffffffffffff\n      and\n      0x11ce0267\n        /* \"TFGv3/Contracts/SCExchange.sol\":2389:2424  IProxy(proxyAddr).storageContract() */\n      mload(0x40)\n      dup2\n      0xffffffff\n      and\n      0xe0\n      shl\n      dup2\n      mstore\n      0x04\n      add\n      0x20\n      mload(0x40)\n      dup1\n      dup4\n      sub\n      dup2\n      dup7\n      gas\n      staticcall\n      iszero\n      dup1\n      iszero\n      tag_241\n      jumpi\n      returndatasize\n      0x00\n      dup1\n      returndatacopy\n      revert(0x00, returndatasize)\n    tag_241:\n      pop\n      pop\n      pop\n      pop\n      mload(0x40)\n      returndatasize\n      not(0x1f)\n      0x1f\n      dup3\n      add\n      and\n      dup3\n      add\n      dup1\n      0x40\n      mstore\n      pop\n      dup2\n      add\n      swap1\n      tag_242\n      swap2\n      swap1\n      tag_130\n      jump\t// in\n    tag_242:\n        /* \"TFGv3/Contracts/SCExchange.sol\":2367:2424  address storageAddr = IProxy(proxyAddr).storageContract() */\n      swap1\n      pop\n        /* \"TFGv3/Contracts/SCExchange.sol\":2435:2448  uint NAVvalue */\n      0x00\n        /* \"TFGv3/Contracts/SCExchange.sol\":2462:2473  storageAddr */\n      dup2\n        /* \"TFGv3/Contracts/SCExchange.sol\":2451:2484  ISCStorage(storageAddr).updateNAV */\n      0xffffffffffffffffffffffffffffffffffffffff\n      and\n      0x0cb1982b\n        /* \"TFGv3/Contracts/SCExchange.sol\":2506:2515  proxyAddr */\n      dup5\n        /* \"TFGv3/Contracts/SCExchange.sol\":2499:2535  IProxy(proxyAddr).commissionContract */\n      0xffffffffffffffffffffffffffffffffffffffff\n      and\n      0xda8909e5\n        /* \"TFGv3/Contracts/SCExchange.sol\":2499:2537  IProxy(proxyAddr).commissionContract() */\n      mload(0x40)\n      dup2\n      0xffffffff\n      and\n      0xe0\n      shl\n      dup2\n      mstore\n      0x04\n      add\n      0x20\n      mload(0x40)\n      dup1\n      dup4\n      sub\n      dup2\n      dup7\n      gas\n      staticcall\n      iszero\n      dup1\n      iszero\n      tag_244\n      jumpi\n      returndatasize\n      0x00\n      dup1\n      returndatacopy\n      revert(0x00, returndatasize)\n    tag_244:\n      pop\n      pop\n      pop\n      pop\n      mload(0x40)\n      returndatasize\n      not(0x1f)\n      0x1f\n      dup3\n      add\n      and\n      dup3\n      add\n      dup1\n      0x40\n      mstore\n      pop\n      dup2\n      add\n      swap1\n      tag_245\n      swap2\n      swap1\n      tag_130\n      jump\t// in\n    tag_245:\n        /* \"TFGv3/Contracts/SCExchange.sol\":2485:2552  ISCCommission(IProxy(proxyAddr).commissionContract()).payComissions */\n      0xffffffffffffffffffffffffffffffffffffffff\n      and\n      0xbdedd45e\n        /* \"TFGv3/Contracts/SCExchange.sol\":2553:2554  0 */\n      0x00\n        /* \"TFGv3/Contracts/SCExchange.sol\":2485:2555  ISCCommission(IProxy(proxyAddr).commissionContract()).payComissions(0) */\n      mload(0x40)\n      dup3\n      0xffffffff\n      and\n      0xe0\n      shl\n      dup2\n      mstore\n      0x04\n      add\n      tag_246\n      swap2\n      swap1\n      tag_135\n      jump\t// in\n    tag_246:\n      0x20\n      mload(0x40)\n      dup1\n      dup4\n      sub\n      dup2\n      0x00\n      dup8\n      gas\n      call\n      iszero\n      dup1\n      iszero\n      tag_248\n      jumpi\n      returndatasize\n      0x00\n      dup1\n      returndatacopy\n      revert(0x00, returndatasize)\n    tag_248:\n      pop\n      pop\n      pop\n      pop\n      mload(0x40)\n      returndatasize\n      not(0x1f)\n      0x1f\n      dup3\n      add\n      and\n      dup3\n      add\n      dup1\n      0x40\n      mstore\n      pop\n      dup2\n      add\n      swap1\n      tag_249\n      swap2\n      swap1\n      tag_139\n      jump\t// in\n    tag_249:\n        /* \"TFGv3/Contracts/SCExchange.sol\":2451:2556  ISCStorage(storageAddr).updateNAV(ISCCommission(IProxy(proxyAddr).commissionContract()).payComissions(0)) */\n      mload(0x40)\n      dup3\n      0xffffffff\n      and\n      0xe0\n      shl\n      dup2\n      mstore\n      0x04\n      add\n      tag_250\n      swap2\n      swap1\n      tag_69\n      jump\t// in\n    tag_250:\n      0x20\n      mload(0x40)\n      dup1\n      dup4\n      sub\n      dup2\n      0x00\n      dup8\n      gas\n      call\n      iszero\n      dup1\n      iszero\n      tag_252\n      jumpi\n      returndatasize\n      0x00\n      dup1\n      returndatacopy\n      revert(0x00, returndatasize)\n    tag_252:\n      pop\n      pop\n      pop\n      pop\n      mload(0x40)\n      returndatasize\n      not(0x1f)\n      0x1f\n      dup3\n      add\n      and\n      dup3\n      add\n      dup1\n      0x40\n      mstore\n      pop\n      dup2\n      add\n      swap1\n      tag_253\n      swap2\n      swap1\n      tag_139\n      jump\t// in\n    tag_253:\n        /* \"TFGv3/Contracts/SCExchange.sol\":2435:2556  uint NAVvalue = ISCStorage(storageAddr).updateNAV(ISCCommission(IProxy(proxyAddr).commissionContract()).payComissions(0)) */\n      swap1\n      pop\n        /* \"TFGv3/Contracts/SCExchange.sol\":2589:2601  uint payment */\n      0x00\n        /* \"TFGv3/Contracts/SCExchange.sol\":2611:2629  uint tokenDecimals */\n      dup1\n        /* \"TFGv3/Contracts/SCExchange.sol\":2639:2649  stableAddr */\n      dup8\n        /* \"TFGv3/Contracts/SCExchange.sol\":2632:2659  IERC20(stableAddr).decimals */\n      0xffffffffffffffffffffffffffffffffffffffff\n      and\n      0x313ce567\n        /* \"TFGv3/Contracts/SCExchange.sol\":2632:2661  IERC20(stableAddr).decimals() */\n      mload(0x40)\n      dup2\n      0xffffffff\n      and\n      0xe0\n      shl\n      dup2\n      mstore\n      0x04\n      add\n      0x20\n      mload(0x40)\n      dup1\n      dup4\n      sub\n      dup2\n      dup7\n      gas\n      staticcall\n      iszero\n      dup1\n      iszero\n      tag_255\n      jumpi\n      returndatasize\n      0x00\n      dup1\n      returndatacopy\n      revert(0x00, returndatasize)\n    tag_255:\n      pop\n      pop\n      pop\n      pop\n      mload(0x40)\n      returndatasize\n      not(0x1f)\n      0x1f\n      dup3\n      add\n      and\n      dup3\n      add\n      dup1\n      0x40\n      mstore\n      pop\n      dup2\n      add\n      swap1\n      tag_256\n      swap2\n      swap1\n      tag_147\n      jump\t// in\n    tag_256:\n        /* \"TFGv3/Contracts/SCExchange.sol\":2611:2661  uint tokenDecimals = IERC20(stableAddr).decimals() */\n      0xff\n      and\n      swap1\n      pop\n        /* \"TFGv3/Contracts/SCExchange.sol\":2671:2687  uint tokenSupply */\n      0x00\n        /* \"TFGv3/Contracts/SCExchange.sol\":2697:2707  stableAddr */\n      dup9\n        /* \"TFGv3/Contracts/SCExchange.sol\":2690:2720  IERC20(stableAddr).totalSupply */\n      0xffffffffffffffffffffffffffffffffffffffff\n      and\n      0x18160ddd\n        /* \"TFGv3/Contracts/SCExchange.sol\":2690:2722  IERC20(stableAddr).totalSupply() */\n      mload(0x40)\n      dup2\n      0xffffffff\n      and\n      0xe0\n      shl\n      dup2\n      mstore\n      0x04\n      add\n      0x20\n      mload(0x40)\n      dup1\n      dup4\n      sub\n      dup2\n      dup7\n      gas\n      staticcall\n      iszero\n      dup1\n      iszero\n      tag_258\n      jumpi\n      returndatasize\n      0x00\n      dup1\n      returndatacopy\n      revert(0x00, returndatasize)\n    tag_258:\n      pop\n      pop\n      pop\n      pop\n      mload(0x40)\n      returndatasize\n      not(0x1f)\n      0x1f\n      dup3\n      add\n      and\n      dup3\n      add\n      dup1\n      0x40\n      mstore\n      pop\n      dup2\n      add\n      swap1\n      tag_259\n      swap2\n      swap1\n      tag_139\n      jump\t// in\n    tag_259:\n        /* \"TFGv3/Contracts/SCExchange.sol\":2671:2722  uint tokenSupply = IERC20(stableAddr).totalSupply() */\n      swap1\n      pop\n        /* \"TFGv3/Contracts/SCExchange.sol\":2732:2746  uint tokensOut */\n      0x00\n        /* \"TFGv3/Contracts/SCExchange.sol\":2773:2775  18 */\n      0x12\n        /* \"TFGv3/Contracts/SCExchange.sol\":2757:2770  tokenDecimals */\n      dup4\n        /* \"TFGv3/Contracts/SCExchange.sol\":2757:2775  tokenDecimals < 18 */\n      lt\n        /* \"TFGv3/Contracts/SCExchange.sol\":2754:3638  if(tokenDecimals < 18) //Decimales del NAV... */\n      iszero\n      tag_260\n      jumpi\n        /* \"TFGv3/Contracts/SCExchange.sol\":2813:2828  uint qtyWithDec */\n      0x00\n        /* \"TFGv3/Contracts/SCExchange.sol\":2849:2862  tokenDecimals */\n      dup4\n        /* \"TFGv3/Contracts/SCExchange.sol\":2844:2846  18 */\n      0x12\n        /* \"TFGv3/Contracts/SCExchange.sol\":2844:2862  18 - tokenDecimals */\n      tag_261\n      swap2\n      swap1\n      tag_155\n      jump\t// in\n    tag_261:\n        /* \"TFGv3/Contracts/SCExchange.sol\":2839:2841  10 */\n      0x0a\n        /* \"TFGv3/Contracts/SCExchange.sol\":2839:2863  10**(18 - tokenDecimals) */\n      tag_262\n      swap2\n      swap1\n      tag_157\n      jump\t// in\n    tag_262:\n        /* \"TFGv3/Contracts/SCExchange.sol\":2831:2836  qtyIn */\n      dup11\n        /* \"TFGv3/Contracts/SCExchange.sol\":2831:2863  qtyIn * 10**(18 - tokenDecimals) */\n      tag_263\n      swap2\n      swap1\n      tag_161\n      jump\t// in\n    tag_263:\n        /* \"TFGv3/Contracts/SCExchange.sol\":2813:2863  uint qtyWithDec = qtyIn * 10**(18 - tokenDecimals) */\n      swap1\n      pop\n        /* \"TFGv3/Contracts/SCExchange.sol\":2892:2893  0 */\n      0x00\n        /* \"TFGv3/Contracts/SCExchange.sol\":2880:2888  NAVvalue */\n      dup7\n        /* \"TFGv3/Contracts/SCExchange.sol\":2880:2893  NAVvalue == 0 */\n      eq\n        /* \"TFGv3/Contracts/SCExchange.sol\":2880:2913  NAVvalue == 0 && tokenSupply == 0 */\n      dup1\n      iszero\n      tag_264\n      jumpi\n      pop\n        /* \"TFGv3/Contracts/SCExchange.sol\":2912:2913  0 */\n      0x00\n        /* \"TFGv3/Contracts/SCExchange.sol\":2897:2908  tokenSupply */\n      dup4\n        /* \"TFGv3/Contracts/SCExchange.sol\":2897:2913  tokenSupply == 0 */\n      eq\n        /* \"TFGv3/Contracts/SCExchange.sol\":2880:2913  NAVvalue == 0 && tokenSupply == 0 */\n    tag_264:\n        /* \"TFGv3/Contracts/SCExchange.sol\":2877:3264  if(NAVvalue == 0 && tokenSupply == 0)... */\n      iszero\n      tag_265\n      jumpi\n        /* \"TFGv3/Contracts/SCExchange.sol\":2970:2974  1e18 */\n      0x0de0b6b3a7640000\n        /* \"TFGv3/Contracts/SCExchange.sol\":2957:2967  qtyWithDec */\n      dup2\n        /* \"TFGv3/Contracts/SCExchange.sol\":2957:2974  qtyWithDec / 1e18 */\n      tag_266\n      swap2\n      swap1\n      tag_159\n      jump\t// in\n    tag_266:\n        /* \"TFGv3/Contracts/SCExchange.sol\":2945:2974  tokensOut = qtyWithDec / 1e18 */\n      swap2\n      pop\n        /* \"TFGv3/Contracts/SCExchange.sol\":3018:3031  tokenDecimals */\n      dup4\n        /* \"TFGv3/Contracts/SCExchange.sol\":3014:3016  10 */\n      0x0a\n        /* \"TFGv3/Contracts/SCExchange.sol\":3014:3031  10**tokenDecimals */\n      tag_267\n      swap2\n      swap1\n      tag_157\n      jump\t// in\n    tag_267:\n        /* \"TFGv3/Contracts/SCExchange.sol\":3002:3011  tokensOut */\n      dup3\n        /* \"TFGv3/Contracts/SCExchange.sol\":3002:3031  tokensOut * 10**tokenDecimals */\n      tag_268\n      swap2\n      swap1\n      tag_161\n      jump\t// in\n    tag_268:\n        /* \"TFGv3/Contracts/SCExchange.sol\":2992:3031  payment = tokensOut * 10**tokenDecimals */\n      swap5\n      pop\n        /* \"TFGv3/Contracts/SCExchange.sol\":2877:3264  if(NAVvalue == 0 && tokenSupply == 0)... */\n      jump(tag_269)\n    tag_265:\n        /* \"TFGv3/Contracts/SCExchange.sol\":3142:3153  tokenSupply */\n      dup3\n        /* \"TFGv3/Contracts/SCExchange.sol\":3131:3139  NAVvalue */\n      dup7\n        /* \"TFGv3/Contracts/SCExchange.sol\":3131:3153  NAVvalue / tokenSupply */\n      tag_270\n      swap2\n      swap1\n      tag_159\n      jump\t// in\n    tag_270:\n        /* \"TFGv3/Contracts/SCExchange.sol\":3117:3127  qtyWithDec */\n      dup2\n        /* \"TFGv3/Contracts/SCExchange.sol\":3117:3154  qtyWithDec / (NAVvalue / tokenSupply) */\n      tag_271\n      swap2\n      swap1\n      tag_159\n      jump\t// in\n    tag_271:\n        /* \"TFGv3/Contracts/SCExchange.sol\":3105:3154  tokensOut = qtyWithDec / (NAVvalue / tokenSupply) */\n      swap2\n      pop\n        /* \"TFGv3/Contracts/SCExchange.sol\":3248:3249  1 */\n      0x01\n        /* \"TFGv3/Contracts/SCExchange.sol\":3231:3244  tokenDecimals */\n      dup5\n        /* \"TFGv3/Contracts/SCExchange.sol\":3226:3228  18 */\n      0x12\n        /* \"TFGv3/Contracts/SCExchange.sol\":3226:3244  18 - tokenDecimals */\n      tag_272\n      swap2\n      swap1\n      tag_155\n      jump\t// in\n    tag_272:\n        /* \"TFGv3/Contracts/SCExchange.sol\":3221:3223  10 */\n      0x0a\n        /* \"TFGv3/Contracts/SCExchange.sol\":3221:3245  10**(18 - tokenDecimals) */\n      tag_273\n      swap2\n      swap1\n      tag_157\n      jump\t// in\n    tag_273:\n        /* \"TFGv3/Contracts/SCExchange.sol\":3206:3217  tokenSupply */\n      dup5\n        /* \"TFGv3/Contracts/SCExchange.sol\":3195:3203  NAVvalue */\n      dup9\n        /* \"TFGv3/Contracts/SCExchange.sol\":3183:3192  tokensOut */\n      dup6\n        /* \"TFGv3/Contracts/SCExchange.sol\":3183:3203  tokensOut * NAVvalue */\n      tag_274\n      swap2\n      swap1\n      tag_161\n      jump\t// in\n    tag_274:\n        /* \"TFGv3/Contracts/SCExchange.sol\":3183:3217  tokensOut * NAVvalue / tokenSupply */\n      tag_275\n      swap2\n      swap1\n      tag_159\n      jump\t// in\n    tag_275:\n        /* \"TFGv3/Contracts/SCExchange.sol\":3182:3245  (tokensOut * NAVvalue / tokenSupply) / 10**(18 - tokenDecimals) */\n      tag_276\n      swap2\n      swap1\n      tag_159\n      jump\t// in\n    tag_276:\n        /* \"TFGv3/Contracts/SCExchange.sol\":3182:3249  (tokensOut * NAVvalue / tokenSupply) / 10**(18 - tokenDecimals) + 1 */\n      tag_277\n      swap2\n      swap1\n      tag_278\n      jump\t// in\n    tag_277:\n        /* \"TFGv3/Contracts/SCExchange.sol\":3172:3249  payment = (tokensOut * NAVvalue / tokenSupply) / 10**(18 - tokenDecimals) + 1 */\n      swap5\n      pop\n        /* \"TFGv3/Contracts/SCExchange.sol\":2877:3264  if(NAVvalue == 0 && tokenSupply == 0)... */\n    tag_269:\n        /* \"TFGv3/Contracts/SCExchange.sol\":2802:3274  {... */\n      pop\n        /* \"TFGv3/Contracts/SCExchange.sol\":2754:3638  if(tokenDecimals < 18) //Decimales del NAV... */\n      jump(tag_279)\n    tag_260:\n        /* \"TFGv3/Contracts/SCExchange.sol\":3323:3324  0 */\n      0x00\n        /* \"TFGv3/Contracts/SCExchange.sol\":3311:3319  NAVvalue */\n      dup6\n        /* \"TFGv3/Contracts/SCExchange.sol\":3311:3324  NAVvalue == 0 */\n      eq\n        /* \"TFGv3/Contracts/SCExchange.sol\":3311:3344  NAVvalue == 0 || tokenSupply == 0 */\n      dup1\n      tag_280\n      jumpi\n      pop\n        /* \"TFGv3/Contracts/SCExchange.sol\":3343:3344  0 */\n      0x00\n        /* \"TFGv3/Contracts/SCExchange.sol\":3328:3339  tokenSupply */\n      dup3\n        /* \"TFGv3/Contracts/SCExchange.sol\":3328:3344  tokenSupply == 0 */\n      eq\n        /* \"TFGv3/Contracts/SCExchange.sol\":3311:3344  NAVvalue == 0 || tokenSupply == 0 */\n    tag_280:\n        /* \"TFGv3/Contracts/SCExchange.sol\":3308:3628  if(NAVvalue == 0 || tokenSupply == 0)... */\n      iszero\n      tag_281\n      jumpi\n        /* \"TFGv3/Contracts/SCExchange.sol\":3396:3400  1e18 */\n      0x0de0b6b3a7640000\n        /* \"TFGv3/Contracts/SCExchange.sol\":3388:3393  qtyIn */\n      dup10\n        /* \"TFGv3/Contracts/SCExchange.sol\":3388:3400  qtyIn / 1e18 */\n      tag_282\n      swap2\n      swap1\n      tag_159\n      jump\t// in\n    tag_282:\n        /* \"TFGv3/Contracts/SCExchange.sol\":3376:3400  tokensOut = qtyIn / 1e18 */\n      swap1\n      pop\n        /* \"TFGv3/Contracts/SCExchange.sol\":3440:3444  1e18 */\n      0x0de0b6b3a7640000\n        /* \"TFGv3/Contracts/SCExchange.sol\":3428:3437  tokensOut */\n      dup2\n        /* \"TFGv3/Contracts/SCExchange.sol\":3428:3444  tokensOut * 1e18 */\n      tag_283\n      swap2\n      swap1\n      tag_161\n      jump\t// in\n    tag_283:\n        /* \"TFGv3/Contracts/SCExchange.sol\":3418:3444  payment = tokensOut * 1e18 */\n      swap4\n      pop\n        /* \"TFGv3/Contracts/SCExchange.sol\":3308:3628  if(NAVvalue == 0 || tokenSupply == 0)... */\n      jump(tag_284)\n    tag_281:\n        /* \"TFGv3/Contracts/SCExchange.sol\":3539:3550  tokenSupply */\n      dup2\n        /* \"TFGv3/Contracts/SCExchange.sol\":3528:3536  NAVvalue */\n      dup6\n        /* \"TFGv3/Contracts/SCExchange.sol\":3528:3550  NAVvalue / tokenSupply */\n      tag_285\n      swap2\n      swap1\n      tag_159\n      jump\t// in\n    tag_285:\n        /* \"TFGv3/Contracts/SCExchange.sol\":3519:3524  qtyIn */\n      dup10\n        /* \"TFGv3/Contracts/SCExchange.sol\":3519:3551  qtyIn / (NAVvalue / tokenSupply) */\n      tag_286\n      swap2\n      swap1\n      tag_159\n      jump\t// in\n    tag_286:\n        /* \"TFGv3/Contracts/SCExchange.sol\":3507:3551  tokensOut = qtyIn / (NAVvalue / tokenSupply) */\n      swap1\n      pop\n        /* \"TFGv3/Contracts/SCExchange.sol\":3601:3612  tokenSupply */\n      dup2\n        /* \"TFGv3/Contracts/SCExchange.sol\":3592:3600  NAVvalue */\n      dup6\n        /* \"TFGv3/Contracts/SCExchange.sol\":3592:3612  NAVvalue/tokenSupply */\n      tag_287\n      swap2\n      swap1\n      tag_159\n      jump\t// in\n    tag_287:\n        /* \"TFGv3/Contracts/SCExchange.sol\":3579:3588  tokensOut */\n      dup2\n        /* \"TFGv3/Contracts/SCExchange.sol\":3579:3613  tokensOut * (NAVvalue/tokenSupply) */\n      tag_288\n      swap2\n      swap1\n      tag_161\n      jump\t// in\n    tag_288:\n        /* \"TFGv3/Contracts/SCExchange.sol\":3569:3613  payment = tokensOut * (NAVvalue/tokenSupply) */\n      swap4\n      pop\n        /* \"TFGv3/Contracts/SCExchange.sol\":3308:3628  if(NAVvalue == 0 || tokenSupply == 0)... */\n    tag_284:\n        /* \"TFGv3/Contracts/SCExchange.sol\":2754:3638  if(tokenDecimals < 18) //Decimales del NAV... */\n    tag_279:\n        /* \"TFGv3/Contracts/SCExchange.sol\":3659:3669  stableAddr */\n      dup10\n        /* \"TFGv3/Contracts/SCExchange.sol\":3652:3683  IERC20(stableAddr).transferFrom */\n      0xffffffffffffffffffffffffffffffffffffffff\n      and\n      0x23b872dd\n        /* \"TFGv3/Contracts/SCExchange.sol\":3684:3694  msg.sender */\n      caller\n        /* \"TFGv3/Contracts/SCExchange.sol\":3696:3707  storageAddr */\n      dup9\n        /* \"TFGv3/Contracts/SCExchange.sol\":3709:3716  payment */\n      dup8\n        /* \"TFGv3/Contracts/SCExchange.sol\":3652:3717  IERC20(stableAddr).transferFrom(msg.sender, storageAddr, payment) */\n      mload(0x40)\n      dup5\n      0xffffffff\n      and\n      0xe0\n      shl\n      dup2\n      mstore\n      0x04\n      add\n      tag_289\n      swap4\n      swap3\n      swap2\n      swap1\n      tag_167\n      jump\t// in\n    tag_289:\n      0x20\n      mload(0x40)\n      dup1\n      dup4\n      sub\n      dup2\n      0x00\n      dup8\n      gas\n      call\n      iszero\n      dup1\n      iszero\n      tag_291\n      jumpi\n      returndatasize\n      0x00\n      dup1\n      returndatacopy\n      revert(0x00, returndatasize)\n    tag_291:\n      pop\n      pop\n      pop\n      pop\n      mload(0x40)\n      returndatasize\n      not(0x1f)\n      0x1f\n      dup3\n      add\n      and\n      dup3\n      add\n      dup1\n      0x40\n      mstore\n      pop\n      dup2\n      add\n      swap1\n      tag_292\n      swap2\n      swap1\n      tag_171\n      jump\t// in\n    tag_292:\n        /* \"TFGv3/Contracts/SCExchange.sol\":3644:3718  require(IERC20(stableAddr).transferFrom(msg.sender, storageAddr, payment)) */\n      tag_293\n      jumpi\n      0x00\n      dup1\n      revert\n    tag_293:\n        /* \"TFGv3/Contracts/SCExchange.sol\":3747:3756  proxyAddr */\n      dup7\n        /* \"TFGv3/Contracts/SCExchange.sol\":3740:3763  IProxy(proxyAddr).token */\n      0xffffffffffffffffffffffffffffffffffffffff\n      and\n      0xfc0c546a\n        /* \"TFGv3/Contracts/SCExchange.sol\":3740:3765  IProxy(proxyAddr).token() */\n      mload(0x40)\n      dup2\n      0xffffffff\n      and\n      0xe0\n      shl\n      dup2\n      mstore\n      0x04\n      add\n      0x20\n      mload(0x40)\n      dup1\n      dup4\n      sub\n      dup2\n      dup7\n      gas\n      staticcall\n      iszero\n      dup1\n      iszero\n      tag_295\n      jumpi\n      returndatasize\n      0x00\n      dup1\n      returndatacopy\n      revert(0x00, returndatasize)\n    tag_295:\n      pop\n      pop\n      pop\n      pop\n      mload(0x40)\n      returndatasize\n      not(0x1f)\n      0x1f\n      dup3\n      add\n      and\n      dup3\n      add\n      dup1\n      0x40\n      mstore\n      pop\n      dup2\n      add\n      swap1\n      tag_296\n      swap2\n      swap1\n      tag_130\n      jump\t// in\n    tag_296:\n        /* \"TFGv3/Contracts/SCExchange.sol\":3733:3771  IERC20(IProxy(proxyAddr).token()).mint */\n      0xffffffffffffffffffffffffffffffffffffffff\n      and\n      0x40c10f19\n        /* \"TFGv3/Contracts/SCExchange.sol\":3772:3782  msg.sender */\n      caller\n        /* \"TFGv3/Contracts/SCExchange.sol\":3784:3793  tokensOut */\n      dup4\n        /* \"TFGv3/Contracts/SCExchange.sol\":3733:3794  IERC20(IProxy(proxyAddr).token()).mint(msg.sender, tokensOut) */\n      mload(0x40)\n      dup4\n      0xffffffff\n      and\n      0xe0\n      shl\n      dup2\n      mstore\n      0x04\n      add\n      tag_297\n      swap3\n      swap2\n      swap1\n      tag_177\n      jump\t// in\n    tag_297:\n      0x20\n      mload(0x40)\n      dup1\n      dup4\n      sub\n      dup2\n      0x00\n      dup8\n      gas\n      call\n      iszero\n      dup1\n      iszero\n      tag_299\n      jumpi\n      returndatasize\n      0x00\n      dup1\n      returndatacopy\n      revert(0x00, returndatasize)\n    tag_299:\n      pop\n      pop\n      pop\n      pop\n      mload(0x40)\n      returndatasize\n      not(0x1f)\n      0x1f\n      dup3\n      add\n      and\n      dup3\n      add\n      dup1\n      0x40\n      mstore\n      pop\n      dup2\n      add\n      swap1\n      tag_300\n      swap2\n      swap1\n      tag_171\n      jump\t// in\n    tag_300:\n        /* \"TFGv3/Contracts/SCExchange.sol\":3725:3795  require(IERC20(IProxy(proxyAddr).token()).mint(msg.sender, tokensOut)) */\n      tag_301\n      jumpi\n      0x00\n      dup1\n      revert\n    tag_301:\n        /* \"TFGv3/Contracts/SCExchange.sol\":2294:3802  {... */\n      pop\n      pop\n      pop\n      pop\n      pop\n      pop\n      pop\n        /* \"TFGv3/Contracts/SCExchange.sol\":766:767  _ */\n      pop\n        /* \"TFGv3/Contracts/SCExchange.sol\":2172:3802  function buyTokensInput(address stableAddr, uint qtyIn) external virtual override Blacklisted Locked Coin(stableAddr)... */\n      pop\n      pop\n      jump\t// out\n        /* \"TFGv3/Contracts/SCExchange.sol\":5004:5155  function updateProxy(address newAddr) external virtual override OnlyDeployer... */\n    tag_77:\n        /* \"TFGv3/Contracts/SCExchange.sol\":482:490  deployer */\n      immutable(\"0x5081277725af21b52adfcd8be9eaf5a350f1ec111a4413c31b8ff210fe7f74ef\")\n        /* \"TFGv3/Contracts/SCExchange.sol\":468:490  msg.sender == deployer */\n      0xffffffffffffffffffffffffffffffffffffffff\n      and\n        /* \"TFGv3/Contracts/SCExchange.sol\":468:478  msg.sender */\n      caller\n        /* \"TFGv3/Contracts/SCExchange.sol\":468:490  msg.sender == deployer */\n      0xffffffffffffffffffffffffffffffffffffffff\n      and\n      eq\n        /* \"TFGv3/Contracts/SCExchange.sol\":460:491  require(msg.sender == deployer) */\n      tag_303\n      jumpi\n      0x00\n      dup1\n      revert\n    tag_303:\n        /* \"TFGv3/Contracts/SCExchange.sol\":5117:5122  proxy */\n      0x00\n      dup1\n      sload\n      swap1\n      0x0100\n      exp\n      swap1\n      div\n      0xffffffffffffffffffffffffffffffffffffffff\n      and\n        /* \"TFGv3/Contracts/SCExchange.sol\":5103:5122  msg.sender == proxy */\n      0xffffffffffffffffffffffffffffffffffffffff\n      and\n        /* \"TFGv3/Contracts/SCExchange.sol\":5103:5113  msg.sender */\n      caller\n        /* \"TFGv3/Contracts/SCExchange.sol\":5103:5122  msg.sender == proxy */\n      0xffffffffffffffffffffffffffffffffffffffff\n      and\n      eq\n        /* \"TFGv3/Contracts/SCExchange.sol\":5095:5123  require(msg.sender == proxy) */\n      tag_305\n      jumpi\n      0x00\n      dup1\n      revert\n    tag_305:\n        /* \"TFGv3/Contracts/SCExchange.sol\":5141:5148  newAddr */\n      dup1\n        /* \"TFGv3/Contracts/SCExchange.sol\":5133:5138  proxy */\n      0x00\n      dup1\n        /* \"TFGv3/Contracts/SCExchange.sol\":5133:5148  proxy = newAddr */\n      0x0100\n      exp\n      dup2\n      sload\n      dup2\n      0xffffffffffffffffffffffffffffffffffffffff\n      mul\n      not\n      and\n      swap1\n      dup4\n      0xffffffffffffffffffffffffffffffffffffffff\n      and\n      mul\n      or\n      swap1\n      sstore\n      pop\n        /* \"TFGv3/Contracts/SCExchange.sol\":5004:5155  function updateProxy(address newAddr) external virtual override OnlyDeployer... */\n      pop\n      jump\t// out\n        /* \"TFGv3/Contracts/SCExchange.sol\":1018:1087  function lockOn() external OnlyDeployer... */\n    tag_80:\n        /* \"TFGv3/Contracts/SCExchange.sol\":482:490  deployer */\n      immutable(\"0x5081277725af21b52adfcd8be9eaf5a350f1ec111a4413c31b8ff210fe7f74ef\")\n        /* \"TFGv3/Contracts/SCExchange.sol\":468:490  msg.sender == deployer */\n      0xffffffffffffffffffffffffffffffffffffffff\n      and\n        /* \"TFGv3/Contracts/SCExchange.sol\":468:478  msg.sender */\n      caller\n        /* \"TFGv3/Contracts/SCExchange.sol\":468:490  msg.sender == deployer */\n      0xffffffffffffffffffffffffffffffffffffffff\n      and\n      eq\n        /* \"TFGv3/Contracts/SCExchange.sol\":460:491  require(msg.sender == deployer) */\n      tag_307\n      jumpi\n      0x00\n      dup1\n      revert\n    tag_307:\n        /* \"TFGv3/Contracts/SCExchange.sol\":1079:1080  1 */\n      0x01\n        /* \"TFGv3/Contracts/SCExchange.sol\":1072:1076  lock */\n      0x03\n      0x00\n        /* \"TFGv3/Contracts/SCExchange.sol\":1072:1080  lock = 1 */\n      0x0100\n      exp\n      dup2\n      sload\n      dup2\n      0xff\n      mul\n      not\n      and\n      swap1\n      dup4\n      0xff\n      and\n      mul\n      or\n      swap1\n      sstore\n      pop\n        /* \"TFGv3/Contracts/SCExchange.sol\":1018:1087  function lockOn() external OnlyDeployer... */\n      jump\t// out\n        /* \"TFGv3/Contracts/SCExchange.sol\":863:1012  function initContract(address proxyAddr) external OnlyDeployer NonInit... */\n    tag_84:\n        /* \"TFGv3/Contracts/SCExchange.sol\":482:490  deployer */\n      immutable(\"0x5081277725af21b52adfcd8be9eaf5a350f1ec111a4413c31b8ff210fe7f74ef\")\n        /* \"TFGv3/Contracts/SCExchange.sol\":468:490  msg.sender == deployer */\n      0xffffffffffffffffffffffffffffffffffffffff\n      and\n        /* \"TFGv3/Contracts/SCExchange.sol\":468:478  msg.sender */\n      caller\n        /* \"TFGv3/Contracts/SCExchange.sol\":468:490  msg.sender == deployer */\n      0xffffffffffffffffffffffffffffffffffffffff\n      and\n      eq\n        /* \"TFGv3/Contracts/SCExchange.sol\":460:491  require(msg.sender == deployer) */\n      tag_310\n      jumpi\n      0x00\n      dup1\n      revert\n    tag_310:\n        /* \"TFGv3/Contracts/SCExchange.sol\":833:834  0 */\n      0x00\n        /* \"TFGv3/Contracts/SCExchange.sol\":821:829  initDone */\n      0x03\n      0x01\n      swap1\n      sload\n      swap1\n      0x0100\n      exp\n      swap1\n      div\n      0xff\n      and\n        /* \"TFGv3/Contracts/SCExchange.sol\":821:834  initDone == 0 */\n      0xff\n      and\n      eq\n        /* \"TFGv3/Contracts/SCExchange.sol\":813:835  require(initDone == 0) */\n      tag_312\n      jumpi\n      0x00\n      dup1\n      revert\n    tag_312:\n        /* \"TFGv3/Contracts/SCExchange.sol\":955:956  0 */\n      0x00\n        /* \"TFGv3/Contracts/SCExchange.sol\":948:952  lock */\n      0x03\n      0x00\n        /* \"TFGv3/Contracts/SCExchange.sol\":948:956  lock = 0 */\n      0x0100\n      exp\n      dup2\n      sload\n      dup2\n      0xff\n      mul\n      not\n      and\n      swap1\n      dup4\n      0xff\n      and\n      mul\n      or\n      swap1\n      sstore\n      pop\n        /* \"TFGv3/Contracts/SCExchange.sol\":974:983  proxyAddr */\n      dup1\n        /* \"TFGv3/Contracts/SCExchange.sol\":966:971  proxy */\n      0x00\n      dup1\n        /* \"TFGv3/Contracts/SCExchange.sol\":966:983  proxy = proxyAddr */\n      0x0100\n      exp\n      dup2\n      sload\n      dup2\n      0xffffffffffffffffffffffffffffffffffffffff\n      mul\n      not\n      and\n      swap1\n      dup4\n      0xffffffffffffffffffffffffffffffffffffffff\n      and\n      mul\n      or\n      swap1\n      sstore\n      pop\n        /* \"TFGv3/Contracts/SCExchange.sol\":1004:1005  1 */\n      0x01\n        /* \"TFGv3/Contracts/SCExchange.sol\":993:1001  initDone */\n      0x03\n      0x01\n        /* \"TFGv3/Contracts/SCExchange.sol\":993:1005  initDone = 1 */\n      0x0100\n      exp\n      dup2\n      sload\n      dup2\n      0xff\n      mul\n      not\n      and\n      swap1\n      dup4\n      0xff\n      and\n      mul\n      or\n      swap1\n      sstore\n      pop\n        /* \"TFGv3/Contracts/SCExchange.sol\":863:1012  function initContract(address proxyAddr) external OnlyDeployer NonInit... */\n      pop\n      jump\t// out\n        /* \"TFGv3/Contracts/SCExchange.sol\":178:198  address public proxy */\n    tag_87:\n      0x00\n      dup1\n      sload\n      swap1\n      0x0100\n      exp\n      swap1\n      div\n      0xffffffffffffffffffffffffffffffffffffffff\n      and\n      dup2\n      jump\t// out\n        /* \"TFGv3/Contracts/SCExchange.sol\":286:303  uint8 public lock */\n    tag_92:\n      0x03\n      0x00\n      swap1\n      sload\n      swap1\n      0x0100\n      exp\n      swap1\n      div\n      0xff\n      and\n      dup2\n      jump\t// out\n        /* \"TFGv3/Contracts/SCExchange.sol\":242:283  mapping(address => uint) public blacklist */\n    tag_98:\n      mstore(0x20, 0x02)\n      dup1\n      0x00\n      mstore\n      keccak256(0x00, 0x40)\n      0x00\n      swap2\n      pop\n      swap1\n      pop\n      sload\n      dup2\n      jump\t// out\n        /* \"TFGv3/Contracts/SCExchange.sol\":309:330  uint8 public initDone */\n    tag_102:\n      0x03\n      0x01\n      swap1\n      sload\n      swap1\n      0x0100\n      exp\n      swap1\n      div\n      0xff\n      and\n      dup2\n      jump\t// out\n        /* \"#utility.yul\":88:205   */\n    tag_315:\n        /* \"#utility.yul\":197:198   */\n      0x00\n        /* \"#utility.yul\":194:195   */\n      dup1\n        /* \"#utility.yul\":187:199   */\n      revert\n        /* \"#utility.yul\":334:460   */\n    tag_317:\n        /* \"#utility.yul\":371:378   */\n      0x00\n        /* \"#utility.yul\":411:453   */\n      0xffffffffffffffffffffffffffffffffffffffff\n        /* \"#utility.yul\":404:409   */\n      dup3\n        /* \"#utility.yul\":400:454   */\n      and\n        /* \"#utility.yul\":389:454   */\n      swap1\n      pop\n        /* \"#utility.yul\":334:460   */\n      swap2\n      swap1\n      pop\n      jump\t// out\n        /* \"#utility.yul\":466:562   */\n    tag_318:\n        /* \"#utility.yul\":503:510   */\n      0x00\n        /* \"#utility.yul\":532:556   */\n      tag_358\n        /* \"#utility.yul\":550:555   */\n      dup3\n        /* \"#utility.yul\":532:556   */\n      tag_317\n      jump\t// in\n    tag_358:\n        /* \"#utility.yul\":521:556   */\n      swap1\n      pop\n        /* \"#utility.yul\":466:562   */\n      swap2\n      swap1\n      pop\n      jump\t// out\n        /* \"#utility.yul\":568:690   */\n    tag_319:\n        /* \"#utility.yul\":641:665   */\n      tag_360\n        /* \"#utility.yul\":659:664   */\n      dup2\n        /* \"#utility.yul\":641:665   */\n      tag_318\n      jump\t// in\n    tag_360:\n        /* \"#utility.yul\":634:639   */\n      dup2\n        /* \"#utility.yul\":631:666   */\n      eq\n        /* \"#utility.yul\":621:684   */\n      tag_361\n      jumpi\n        /* \"#utility.yul\":680:681   */\n      0x00\n        /* \"#utility.yul\":677:678   */\n      dup1\n        /* \"#utility.yul\":670:682   */\n      revert\n        /* \"#utility.yul\":621:684   */\n    tag_361:\n        /* \"#utility.yul\":568:690   */\n      pop\n      jump\t// out\n        /* \"#utility.yul\":696:835   */\n    tag_320:\n        /* \"#utility.yul\":742:747   */\n      0x00\n        /* \"#utility.yul\":780:786   */\n      dup2\n        /* \"#utility.yul\":767:787   */\n      calldataload\n        /* \"#utility.yul\":758:787   */\n      swap1\n      pop\n        /* \"#utility.yul\":796:829   */\n      tag_363\n        /* \"#utility.yul\":823:828   */\n      dup2\n        /* \"#utility.yul\":796:829   */\n      tag_319\n      jump\t// in\n    tag_363:\n        /* \"#utility.yul\":696:835   */\n      swap3\n      swap2\n      pop\n      pop\n      jump\t// out\n        /* \"#utility.yul\":841:1170   */\n    tag_30:\n        /* \"#utility.yul\":900:906   */\n      0x00\n        /* \"#utility.yul\":949:951   */\n      0x20\n        /* \"#utility.yul\":937:946   */\n      dup3\n        /* \"#utility.yul\":928:935   */\n      dup5\n        /* \"#utility.yul\":924:947   */\n      sub\n        /* \"#utility.yul\":920:952   */\n      slt\n        /* \"#utility.yul\":917:1036   */\n      iszero\n      tag_365\n      jumpi\n        /* \"#utility.yul\":955:1034   */\n      tag_366\n      tag_315\n      jump\t// in\n    tag_366:\n        /* \"#utility.yul\":917:1036   */\n    tag_365:\n        /* \"#utility.yul\":1075:1076   */\n      0x00\n        /* \"#utility.yul\":1100:1153   */\n      tag_367\n        /* \"#utility.yul\":1145:1152   */\n      dup5\n        /* \"#utility.yul\":1136:1142   */\n      dup3\n        /* \"#utility.yul\":1125:1134   */\n      dup6\n        /* \"#utility.yul\":1121:1143   */\n      add\n        /* \"#utility.yul\":1100:1153   */\n      tag_320\n      jump\t// in\n    tag_367:\n        /* \"#utility.yul\":1090:1153   */\n      swap2\n      pop\n        /* \"#utility.yul\":1046:1163   */\n      pop\n        /* \"#utility.yul\":841:1170   */\n      swap3\n      swap2\n      pop\n      pop\n      jump\t// out\n        /* \"#utility.yul\":1176:1253   */\n    tag_321:\n        /* \"#utility.yul\":1213:1220   */\n      0x00\n        /* \"#utility.yul\":1242:1247   */\n      dup2\n        /* \"#utility.yul\":1231:1247   */\n      swap1\n      pop\n        /* \"#utility.yul\":1176:1253   */\n      swap2\n      swap1\n      pop\n      jump\t// out\n        /* \"#utility.yul\":1259:1381   */\n    tag_322:\n        /* \"#utility.yul\":1332:1356   */\n      tag_370\n        /* \"#utility.yul\":1350:1355   */\n      dup2\n        /* \"#utility.yul\":1332:1356   */\n      tag_321\n      jump\t// in\n    tag_370:\n        /* \"#utility.yul\":1325:1330   */\n      dup2\n        /* \"#utility.yul\":1322:1357   */\n      eq\n        /* \"#utility.yul\":1312:1375   */\n      tag_371\n      jumpi\n        /* \"#utility.yul\":1371:1372   */\n      0x00\n        /* \"#utility.yul\":1368:1369   */\n      dup1\n        /* \"#utility.yul\":1361:1373   */\n      revert\n        /* \"#utility.yul\":1312:1375   */\n    tag_371:\n        /* \"#utility.yul\":1259:1381   */\n      pop\n      jump\t// out\n        /* \"#utility.yul\":1387:1526   */\n    tag_323:\n        /* \"#utility.yul\":1433:1438   */\n      0x00\n        /* \"#utility.yul\":1471:1477   */\n      dup2\n        /* \"#utility.yul\":1458:1478   */\n      calldataload\n        /* \"#utility.yul\":1449:1478   */\n      swap1\n      pop\n        /* \"#utility.yul\":1487:1520   */\n      tag_373\n        /* \"#utility.yul\":1514:1519   */\n      dup2\n        /* \"#utility.yul\":1487:1520   */\n      tag_322\n      jump\t// in\n    tag_373:\n        /* \"#utility.yul\":1387:1526   */\n      swap3\n      swap2\n      pop\n      pop\n      jump\t// out\n        /* \"#utility.yul\":1532:2006   */\n    tag_39:\n        /* \"#utility.yul\":1600:1606   */\n      0x00\n        /* \"#utility.yul\":1608:1614   */\n      dup1\n        /* \"#utility.yul\":1657:1659   */\n      0x40\n        /* \"#utility.yul\":1645:1654   */\n      dup4\n        /* \"#utility.yul\":1636:1643   */\n      dup6\n        /* \"#utility.yul\":1632:1655   */\n      sub\n        /* \"#utility.yul\":1628:1660   */\n      slt\n        /* \"#utility.yul\":1625:1744   */\n      iszero\n      tag_375\n      jumpi\n        /* \"#utility.yul\":1663:1742   */\n      tag_376\n      tag_315\n      jump\t// in\n    tag_376:\n        /* \"#utility.yul\":1625:1744   */\n    tag_375:\n        /* \"#utility.yul\":1783:1784   */\n      0x00\n        /* \"#utility.yul\":1808:1861   */\n      tag_377\n        /* \"#utility.yul\":1853:1860   */\n      dup6\n        /* \"#utility.yul\":1844:1850   */\n      dup3\n        /* \"#utility.yul\":1833:1842   */\n      dup7\n        /* \"#utility.yul\":1829:1851   */\n      add\n        /* \"#utility.yul\":1808:1861   */\n      tag_320\n      jump\t// in\n    tag_377:\n        /* \"#utility.yul\":1798:1861   */\n      swap3\n      pop\n        /* \"#utility.yul\":1754:1871   */\n      pop\n        /* \"#utility.yul\":1910:1912   */\n      0x20\n        /* \"#utility.yul\":1936:1989   */\n      tag_378\n        /* \"#utility.yul\":1981:1988   */\n      dup6\n        /* \"#utility.yul\":1972:1978   */\n      dup3\n        /* \"#utility.yul\":1961:1970   */\n      dup7\n        /* \"#utility.yul\":1957:1979   */\n      add\n        /* \"#utility.yul\":1936:1989   */\n      tag_323\n      jump\t// in\n    tag_378:\n        /* \"#utility.yul\":1926:1989   */\n      swap2\n      pop\n        /* \"#utility.yul\":1881:1999   */\n      pop\n        /* \"#utility.yul\":1532:2006   */\n      swap3\n      pop\n      swap3\n      swap1\n      pop\n      jump\t// out\n        /* \"#utility.yul\":2012:2102   */\n    tag_324:\n        /* \"#utility.yul\":2046:2053   */\n      0x00\n        /* \"#utility.yul\":2089:2094   */\n      dup2\n        /* \"#utility.yul\":2082:2095   */\n      iszero\n        /* \"#utility.yul\":2075:2096   */\n      iszero\n        /* \"#utility.yul\":2064:2096   */\n      swap1\n      pop\n        /* \"#utility.yul\":2012:2102   */\n      swap2\n      swap1\n      pop\n      jump\t// out\n        /* \"#utility.yul\":2108:2217   */\n    tag_325:\n        /* \"#utility.yul\":2189:2210   */\n      tag_381\n        /* \"#utility.yul\":2204:2209   */\n      dup2\n        /* \"#utility.yul\":2189:2210   */\n      tag_324\n      jump\t// in\n    tag_381:\n        /* \"#utility.yul\":2184:2187   */\n      dup3\n        /* \"#utility.yul\":2177:2211   */\n      mstore\n        /* \"#utility.yul\":2108:2217   */\n      pop\n      pop\n      jump\t// out\n        /* \"#utility.yul\":2223:2433   */\n    tag_50:\n        /* \"#utility.yul\":2310:2314   */\n      0x00\n        /* \"#utility.yul\":2348:2350   */\n      0x20\n        /* \"#utility.yul\":2337:2346   */\n      dup3\n        /* \"#utility.yul\":2333:2351   */\n      add\n        /* \"#utility.yul\":2325:2351   */\n      swap1\n      pop\n        /* \"#utility.yul\":2361:2426   */\n      tag_383\n        /* \"#utility.yul\":2423:2424   */\n      0x00\n        /* \"#utility.yul\":2412:2421   */\n      dup4\n        /* \"#utility.yul\":2408:2425   */\n      add\n        /* \"#utility.yul\":2399:2405   */\n      dup5\n        /* \"#utility.yul\":2361:2426   */\n      tag_325\n      jump\t// in\n    tag_383:\n        /* \"#utility.yul\":2223:2433   */\n      swap3\n      swap2\n      pop\n      pop\n      jump\t// out\n        /* \"#utility.yul\":2439:2768   */\n    tag_62:\n        /* \"#utility.yul\":2498:2504   */\n      0x00\n        /* \"#utility.yul\":2547:2549   */\n      0x20\n        /* \"#utility.yul\":2535:2544   */\n      dup3\n        /* \"#utility.yul\":2526:2533   */\n      dup5\n        /* \"#utility.yul\":2522:2545   */\n      sub\n        /* \"#utility.yul\":2518:2550   */\n      slt\n        /* \"#utility.yul\":2515:2634   */\n      iszero\n      tag_385\n      jumpi\n        /* \"#utility.yul\":2553:2632   */\n      tag_386\n      tag_315\n      jump\t// in\n    tag_386:\n        /* \"#utility.yul\":2515:2634   */\n    tag_385:\n        /* \"#utility.yul\":2673:2674   */\n      0x00\n        /* \"#utility.yul\":2698:2751   */\n      tag_387\n        /* \"#utility.yul\":2743:2750   */\n      dup5\n        /* \"#utility.yul\":2734:2740   */\n      dup3\n        /* \"#utility.yul\":2723:2732   */\n      dup6\n        /* \"#utility.yul\":2719:2741   */\n      add\n        /* \"#utility.yul\":2698:2751   */\n      tag_323\n      jump\t// in\n    tag_387:\n        /* \"#utility.yul\":2688:2751   */\n      swap2\n      pop\n        /* \"#utility.yul\":2644:2761   */\n      pop\n        /* \"#utility.yul\":2439:2768   */\n      swap3\n      swap2\n      pop\n      pop\n      jump\t// out\n        /* \"#utility.yul\":2774:2892   */\n    tag_326:\n        /* \"#utility.yul\":2861:2885   */\n      tag_389\n        /* \"#utility.yul\":2879:2884   */\n      dup2\n        /* \"#utility.yul\":2861:2885   */\n      tag_321\n      jump\t// in\n    tag_389:\n        /* \"#utility.yul\":2856:2859   */\n      dup3\n        /* \"#utility.yul\":2849:2886   */\n      mstore\n        /* \"#utility.yul\":2774:2892   */\n      pop\n      pop\n      jump\t// out\n        /* \"#utility.yul\":2898:3120   */\n    tag_69:\n        /* \"#utility.yul\":2991:2995   */\n      0x00\n        /* \"#utility.yul\":3029:3031   */\n      0x20\n        /* \"#utility.yul\":3018:3027   */\n      dup3\n        /* \"#utility.yul\":3014:3032   */\n      add\n        /* \"#utility.yul\":3006:3032   */\n      swap1\n      pop\n        /* \"#utility.yul\":3042:3113   */\n      tag_391\n        /* \"#utility.yul\":3110:3111   */\n      0x00\n        /* \"#utility.yul\":3099:3108   */\n      dup4\n        /* \"#utility.yul\":3095:3112   */\n      add\n        /* \"#utility.yul\":3086:3092   */\n      dup5\n        /* \"#utility.yul\":3042:3113   */\n      tag_326\n      jump\t// in\n    tag_391:\n        /* \"#utility.yul\":2898:3120   */\n      swap3\n      swap2\n      pop\n      pop\n      jump\t// out\n        /* \"#utility.yul\":3126:3244   */\n    tag_327:\n        /* \"#utility.yul\":3213:3237   */\n      tag_393\n        /* \"#utility.yul\":3231:3236   */\n      dup2\n        /* \"#utility.yul\":3213:3237   */\n      tag_318\n      jump\t// in\n    tag_393:\n        /* \"#utility.yul\":3208:3211   */\n      dup3\n        /* \"#utility.yul\":3201:3238   */\n      mstore\n        /* \"#utility.yul\":3126:3244   */\n      pop\n      pop\n      jump\t// out\n        /* \"#utility.yul\":3250:3472   */\n    tag_89:\n        /* \"#utility.yul\":3343:3347   */\n      0x00\n        /* \"#utility.yul\":3381:3383   */\n      0x20\n        /* \"#utility.yul\":3370:3379   */\n      dup3\n        /* \"#utility.yul\":3366:3384   */\n      add\n        /* \"#utility.yul\":3358:3384   */\n      swap1\n      pop\n        /* \"#utility.yul\":3394:3465   */\n      tag_395\n        /* \"#utility.yul\":3462:3463   */\n      0x00\n        /* \"#utility.yul\":3451:3460   */\n      dup4\n        /* \"#utility.yul\":3447:3464   */\n      add\n        /* \"#utility.yul\":3438:3444   */\n      dup5\n        /* \"#utility.yul\":3394:3465   */\n      tag_327\n      jump\t// in\n    tag_395:\n        /* \"#utility.yul\":3250:3472   */\n      swap3\n      swap2\n      pop\n      pop\n      jump\t// out\n        /* \"#utility.yul\":3478:3564   */\n    tag_328:\n        /* \"#utility.yul\":3513:3520   */\n      0x00\n        /* \"#utility.yul\":3553:3557   */\n      0xff\n        /* \"#utility.yul\":3546:3551   */\n      dup3\n        /* \"#utility.yul\":3542:3558   */\n      and\n        /* \"#utility.yul\":3531:3558   */\n      swap1\n      pop\n        /* \"#utility.yul\":3478:3564   */\n      swap2\n      swap1\n      pop\n      jump\t// out\n        /* \"#utility.yul\":3570:3682   */\n    tag_329:\n        /* \"#utility.yul\":3653:3675   */\n      tag_398\n        /* \"#utility.yul\":3669:3674   */\n      dup2\n        /* \"#utility.yul\":3653:3675   */\n      tag_328\n      jump\t// in\n    tag_398:\n        /* \"#utility.yul\":3648:3651   */\n      dup3\n        /* \"#utility.yul\":3641:3676   */\n      mstore\n        /* \"#utility.yul\":3570:3682   */\n      pop\n      pop\n      jump\t// out\n        /* \"#utility.yul\":3688:3902   */\n    tag_94:\n        /* \"#utility.yul\":3777:3781   */\n      0x00\n        /* \"#utility.yul\":3815:3817   */\n      0x20\n        /* \"#utility.yul\":3804:3813   */\n      dup3\n        /* \"#utility.yul\":3800:3818   */\n      add\n        /* \"#utility.yul\":3792:3818   */\n      swap1\n      pop\n        /* \"#utility.yul\":3828:3895   */\n      tag_400\n        /* \"#utility.yul\":3892:3893   */\n      0x00\n        /* \"#utility.yul\":3881:3890   */\n      dup4\n        /* \"#utility.yul\":3877:3894   */\n      add\n        /* \"#utility.yul\":3868:3874   */\n      dup5\n        /* \"#utility.yul\":3828:3895   */\n      tag_329\n      jump\t// in\n    tag_400:\n        /* \"#utility.yul\":3688:3902   */\n      swap3\n      swap2\n      pop\n      pop\n      jump\t// out\n        /* \"#utility.yul\":3908:4006   */\n    tag_330:\n        /* \"#utility.yul\":3959:3965   */\n      0x00\n        /* \"#utility.yul\":3993:3998   */\n      dup2\n        /* \"#utility.yul\":3987:3999   */\n      mload\n        /* \"#utility.yul\":3977:3999   */\n      swap1\n      pop\n        /* \"#utility.yul\":3908:4006   */\n      swap2\n      swap1\n      pop\n      jump\t// out\n        /* \"#utility.yul\":4012:4159   */\n    tag_331:\n        /* \"#utility.yul\":4113:4124   */\n      0x00\n        /* \"#utility.yul\":4150:4153   */\n      dup2\n        /* \"#utility.yul\":4135:4153   */\n      swap1\n      pop\n        /* \"#utility.yul\":4012:4159   */\n      swap3\n      swap2\n      pop\n      pop\n      jump\t// out\n        /* \"#utility.yul\":4165:4472   */\n    tag_332:\n        /* \"#utility.yul\":4233:4234   */\n      0x00\n        /* \"#utility.yul\":4243:4356   */\n    tag_404:\n        /* \"#utility.yul\":4257:4263   */\n      dup4\n        /* \"#utility.yul\":4254:4255   */\n      dup2\n        /* \"#utility.yul\":4251:4264   */\n      lt\n        /* \"#utility.yul\":4243:4356   */\n      iszero\n      tag_406\n      jumpi\n        /* \"#utility.yul\":4342:4343   */\n      dup1\n        /* \"#utility.yul\":4337:4340   */\n      dup3\n        /* \"#utility.yul\":4333:4344   */\n      add\n        /* \"#utility.yul\":4327:4345   */\n      mload\n        /* \"#utility.yul\":4323:4324   */\n      dup2\n        /* \"#utility.yul\":4318:4321   */\n      dup5\n        /* \"#utility.yul\":4314:4325   */\n      add\n        /* \"#utility.yul\":4307:4346   */\n      mstore\n        /* \"#utility.yul\":4279:4281   */\n      0x20\n        /* \"#utility.yul\":4276:4277   */\n      dup2\n        /* \"#utility.yul\":4272:4282   */\n      add\n        /* \"#utility.yul\":4267:4282   */\n      swap1\n      pop\n        /* \"#utility.yul\":4243:4356   */\n      jump(tag_404)\n    tag_406:\n        /* \"#utility.yul\":4374:4380   */\n      dup4\n        /* \"#utility.yul\":4371:4372   */\n      dup2\n        /* \"#utility.yul\":4368:4381   */\n      gt\n        /* \"#utility.yul\":4365:4466   */\n      iszero\n      tag_407\n      jumpi\n        /* \"#utility.yul\":4454:4455   */\n      0x00\n        /* \"#utility.yul\":4445:4451   */\n      dup5\n        /* \"#utility.yul\":4440:4443   */\n      dup5\n        /* \"#utility.yul\":4436:4452   */\n      add\n        /* \"#utility.yul\":4429:4456   */\n      mstore\n        /* \"#utility.yul\":4365:4466   */\n    tag_407:\n        /* \"#utility.yul\":4214:4472   */\n      pop\n        /* \"#utility.yul\":4165:4472   */\n      pop\n      pop\n      pop\n      jump\t// out\n        /* \"#utility.yul\":4478:4851   */\n    tag_333:\n        /* \"#utility.yul\":4582:4585   */\n      0x00\n        /* \"#utility.yul\":4610:4648   */\n      tag_409\n        /* \"#utility.yul\":4642:4647   */\n      dup3\n        /* \"#utility.yul\":4610:4648   */\n      tag_330\n      jump\t// in\n    tag_409:\n        /* \"#utility.yul\":4664:4752   */\n      tag_410\n        /* \"#utility.yul\":4745:4751   */\n      dup2\n        /* \"#utility.yul\":4740:4743   */\n      dup6\n        /* \"#utility.yul\":4664:4752   */\n      tag_331\n      jump\t// in\n    tag_410:\n        /* \"#utility.yul\":4657:4752   */\n      swap4\n      pop\n        /* \"#utility.yul\":4761:4813   */\n      tag_411\n        /* \"#utility.yul\":4806:4812   */\n      dup2\n        /* \"#utility.yul\":4801:4804   */\n      dup6\n        /* \"#utility.yul\":4794:4798   */\n      0x20\n        /* \"#utility.yul\":4787:4792   */\n      dup7\n        /* \"#utility.yul\":4783:4799   */\n      add\n        /* \"#utility.yul\":4761:4813   */\n      tag_332\n      jump\t// in\n    tag_411:\n        /* \"#utility.yul\":4838:4844   */\n      dup1\n        /* \"#utility.yul\":4833:4836   */\n      dup5\n        /* \"#utility.yul\":4829:4845   */\n      add\n        /* \"#utility.yul\":4822:4845   */\n      swap2\n      pop\n        /* \"#utility.yul\":4586:4851   */\n      pop\n        /* \"#utility.yul\":4478:4851   */\n      swap3\n      swap2\n      pop\n      pop\n      jump\t// out\n        /* \"#utility.yul\":4857:5128   */\n    tag_116:\n        /* \"#utility.yul\":4987:4990   */\n      0x00\n        /* \"#utility.yul\":5009:5102   */\n      tag_413\n        /* \"#utility.yul\":5098:5101   */\n      dup3\n        /* \"#utility.yul\":5089:5095   */\n      dup5\n        /* \"#utility.yul\":5009:5102   */\n      tag_333\n      jump\t// in\n    tag_413:\n        /* \"#utility.yul\":5002:5102   */\n      swap2\n      pop\n        /* \"#utility.yul\":5119:5122   */\n      dup2\n        /* \"#utility.yul\":5112:5122   */\n      swap1\n      pop\n        /* \"#utility.yul\":4857:5128   */\n      swap3\n      swap2\n      pop\n      pop\n      jump\t// out\n        /* \"#utility.yul\":5134:5277   */\n    tag_334:\n        /* \"#utility.yul\":5191:5196   */\n      0x00\n        /* \"#utility.yul\":5222:5228   */\n      dup2\n        /* \"#utility.yul\":5216:5229   */\n      mload\n        /* \"#utility.yul\":5207:5229   */\n      swap1\n      pop\n        /* \"#utility.yul\":5238:5271   */\n      tag_415\n        /* \"#utility.yul\":5265:5270   */\n      dup2\n        /* \"#utility.yul\":5238:5271   */\n      tag_319\n      jump\t// in\n    tag_415:\n        /* \"#utility.yul\":5134:5277   */\n      swap3\n      swap2\n      pop\n      pop\n      jump\t// out\n        /* \"#utility.yul\":5283:5634   */\n    tag_130:\n        /* \"#utility.yul\":5353:5359   */\n      0x00\n        /* \"#utility.yul\":5402:5404   */\n      0x20\n        /* \"#utility.yul\":5390:5399   */\n      dup3\n        /* \"#utility.yul\":5381:5388   */\n      dup5\n        /* \"#utility.yul\":5377:5400   */\n      sub\n        /* \"#utility.yul\":5373:5405   */\n      slt\n        /* \"#utility.yul\":5370:5489   */\n      iszero\n      tag_417\n      jumpi\n        /* \"#utility.yul\":5408:5487   */\n      tag_418\n      tag_315\n      jump\t// in\n    tag_418:\n        /* \"#utility.yul\":5370:5489   */\n    tag_417:\n        /* \"#utility.yul\":5528:5529   */\n      0x00\n        /* \"#utility.yul\":5553:5617   */\n      tag_419\n        /* \"#utility.yul\":5609:5616   */\n      dup5\n        /* \"#utility.yul\":5600:5606   */\n      dup3\n        /* \"#utility.yul\":5589:5598   */\n      dup6\n        /* \"#utility.yul\":5585:5607   */\n      add\n        /* \"#utility.yul\":5553:5617   */\n      tag_334\n      jump\t// in\n    tag_419:\n        /* \"#utility.yul\":5543:5617   */\n      swap2\n      pop\n        /* \"#utility.yul\":5499:5627   */\n      pop\n        /* \"#utility.yul\":5283:5634   */\n      swap3\n      swap2\n      pop\n      pop\n      jump\t// out\n        /* \"#utility.yul\":5640:5725   */\n    tag_335:\n        /* \"#utility.yul\":5685:5692   */\n      0x00\n        /* \"#utility.yul\":5714:5719   */\n      dup2\n        /* \"#utility.yul\":5703:5719   */\n      swap1\n      pop\n        /* \"#utility.yul\":5640:5725   */\n      swap2\n      swap1\n      pop\n      jump\t// out\n        /* \"#utility.yul\":5731:5791   */\n    tag_336:\n        /* \"#utility.yul\":5759:5762   */\n      0x00\n        /* \"#utility.yul\":5780:5785   */\n      dup2\n        /* \"#utility.yul\":5773:5785   */\n      swap1\n      pop\n        /* \"#utility.yul\":5731:5791   */\n      swap2\n      swap1\n      pop\n      jump\t// out\n        /* \"#utility.yul\":5797:5955   */\n    tag_337:\n        /* \"#utility.yul\":5855:5864   */\n      0x00\n        /* \"#utility.yul\":5888:5949   */\n      tag_423\n        /* \"#utility.yul\":5906:5948   */\n      tag_424\n        /* \"#utility.yul\":5915:5947   */\n      tag_425\n        /* \"#utility.yul\":5941:5946   */\n      dup5\n        /* \"#utility.yul\":5915:5947   */\n      tag_335\n      jump\t// in\n    tag_425:\n        /* \"#utility.yul\":5906:5948   */\n      tag_336\n      jump\t// in\n    tag_424:\n        /* \"#utility.yul\":5888:5949   */\n      tag_321\n      jump\t// in\n    tag_423:\n        /* \"#utility.yul\":5875:5949   */\n      swap1\n      pop\n        /* \"#utility.yul\":5797:5955   */\n      swap2\n      swap1\n      pop\n      jump\t// out\n        /* \"#utility.yul\":5961:6108   */\n    tag_338:\n        /* \"#utility.yul\":6056:6101   */\n      tag_427\n        /* \"#utility.yul\":6095:6100   */\n      dup2\n        /* \"#utility.yul\":6056:6101   */\n      tag_337\n      jump\t// in\n    tag_427:\n        /* \"#utility.yul\":6051:6054   */\n      dup3\n        /* \"#utility.yul\":6044:6102   */\n      mstore\n        /* \"#utility.yul\":5961:6108   */\n      pop\n      pop\n      jump\t// out\n        /* \"#utility.yul\":6114:6352   */\n    tag_135:\n        /* \"#utility.yul\":6215:6219   */\n      0x00\n        /* \"#utility.yul\":6253:6255   */\n      0x20\n        /* \"#utility.yul\":6242:6251   */\n      dup3\n        /* \"#utility.yul\":6238:6256   */\n      add\n        /* \"#utility.yul\":6230:6256   */\n      swap1\n      pop\n        /* \"#utility.yul\":6266:6345   */\n      tag_429\n        /* \"#utility.yul\":6342:6343   */\n      0x00\n        /* \"#utility.yul\":6331:6340   */\n      dup4\n        /* \"#utility.yul\":6327:6344   */\n      add\n        /* \"#utility.yul\":6318:6324   */\n      dup5\n        /* \"#utility.yul\":6266:6345   */\n      tag_338\n      jump\t// in\n    tag_429:\n        /* \"#utility.yul\":6114:6352   */\n      swap3\n      swap2\n      pop\n      pop\n      jump\t// out\n        /* \"#utility.yul\":6358:6501   */\n    tag_339:\n        /* \"#utility.yul\":6415:6420   */\n      0x00\n        /* \"#utility.yul\":6446:6452   */\n      dup2\n        /* \"#utility.yul\":6440:6453   */\n      mload\n        /* \"#utility.yul\":6431:6453   */\n      swap1\n      pop\n        /* \"#utility.yul\":6462:6495   */\n      tag_431\n        /* \"#utility.yul\":6489:6494   */\n      dup2\n        /* \"#utility.yul\":6462:6495   */\n      tag_322\n      jump\t// in\n    tag_431:\n        /* \"#utility.yul\":6358:6501   */\n      swap3\n      swap2\n      pop\n      pop\n      jump\t// out\n        /* \"#utility.yul\":6507:6858   */\n    tag_139:\n        /* \"#utility.yul\":6577:6583   */\n      0x00\n        /* \"#utility.yul\":6626:6628   */\n      0x20\n        /* \"#utility.yul\":6614:6623   */\n      dup3\n        /* \"#utility.yul\":6605:6612   */\n      dup5\n        /* \"#utility.yul\":6601:6624   */\n      sub\n        /* \"#utility.yul\":6597:6629   */\n      slt\n        /* \"#utility.yul\":6594:6713   */\n      iszero\n      tag_433\n      jumpi\n        /* \"#utility.yul\":6632:6711   */\n      tag_434\n      tag_315\n      jump\t// in\n    tag_434:\n        /* \"#utility.yul\":6594:6713   */\n    tag_433:\n        /* \"#utility.yul\":6752:6753   */\n      0x00\n        /* \"#utility.yul\":6777:6841   */\n      tag_435\n        /* \"#utility.yul\":6833:6840   */\n      dup5\n        /* \"#utility.yul\":6824:6830   */\n      dup3\n        /* \"#utility.yul\":6813:6822   */\n      dup6\n        /* \"#utility.yul\":6809:6831   */\n      add\n        /* \"#utility.yul\":6777:6841   */\n      tag_339\n      jump\t// in\n    tag_435:\n        /* \"#utility.yul\":6767:6841   */\n      swap2\n      pop\n        /* \"#utility.yul\":6723:6851   */\n      pop\n        /* \"#utility.yul\":6507:6858   */\n      swap3\n      swap2\n      pop\n      pop\n      jump\t// out\n        /* \"#utility.yul\":6864:6982   */\n    tag_340:\n        /* \"#utility.yul\":6935:6957   */\n      tag_437\n        /* \"#utility.yul\":6951:6956   */\n      dup2\n        /* \"#utility.yul\":6935:6957   */\n      tag_328\n      jump\t// in\n    tag_437:\n        /* \"#utility.yul\":6928:6933   */\n      dup2\n        /* \"#utility.yul\":6925:6958   */\n      eq\n        /* \"#utility.yul\":6915:6976   */\n      tag_438\n      jumpi\n        /* \"#utility.yul\":6972:6973   */\n      0x00\n        /* \"#utility.yul\":6969:6970   */\n      dup1\n        /* \"#utility.yul\":6962:6974   */\n      revert\n        /* \"#utility.yul\":6915:6976   */\n    tag_438:\n        /* \"#utility.yul\":6864:6982   */\n      pop\n      jump\t// out\n        /* \"#utility.yul\":6988:7127   */\n    tag_341:\n        /* \"#utility.yul\":7043:7048   */\n      0x00\n        /* \"#utility.yul\":7074:7080   */\n      dup2\n        /* \"#utility.yul\":7068:7081   */\n      mload\n        /* \"#utility.yul\":7059:7081   */\n      swap1\n      pop\n        /* \"#utility.yul\":7090:7121   */\n      tag_440\n        /* \"#utility.yul\":7115:7120   */\n      dup2\n        /* \"#utility.yul\":7090:7121   */\n      tag_340\n      jump\t// in\n    tag_440:\n        /* \"#utility.yul\":6988:7127   */\n      swap3\n      swap2\n      pop\n      pop\n      jump\t// out\n        /* \"#utility.yul\":7133:7480   */\n    tag_147:\n        /* \"#utility.yul\":7201:7207   */\n      0x00\n        /* \"#utility.yul\":7250:7252   */\n      0x20\n        /* \"#utility.yul\":7238:7247   */\n      dup3\n        /* \"#utility.yul\":7229:7236   */\n      dup5\n        /* \"#utility.yul\":7225:7248   */\n      sub\n        /* \"#utility.yul\":7221:7253   */\n      slt\n        /* \"#utility.yul\":7218:7337   */\n      iszero\n      tag_442\n      jumpi\n        /* \"#utility.yul\":7256:7335   */\n      tag_443\n      tag_315\n      jump\t// in\n    tag_443:\n        /* \"#utility.yul\":7218:7337   */\n    tag_442:\n        /* \"#utility.yul\":7376:7377   */\n      0x00\n        /* \"#utility.yul\":7401:7463   */\n      tag_444\n        /* \"#utility.yul\":7455:7462   */\n      dup5\n        /* \"#utility.yul\":7446:7452   */\n      dup3\n        /* \"#utility.yul\":7435:7444   */\n      dup6\n        /* \"#utility.yul\":7431:7453   */\n      add\n        /* \"#utility.yul\":7401:7463   */\n      tag_341\n      jump\t// in\n    tag_444:\n        /* \"#utility.yul\":7391:7463   */\n      swap2\n      pop\n        /* \"#utility.yul\":7347:7473   */\n      pop\n        /* \"#utility.yul\":7133:7480   */\n      swap3\n      swap2\n      pop\n      pop\n      jump\t// out\n        /* \"#utility.yul\":7486:7666   */\n    tag_342:\n        /* \"#utility.yul\":7534:7611   */\n      0x4e487b7100000000000000000000000000000000000000000000000000000000\n        /* \"#utility.yul\":7531:7532   */\n      0x00\n        /* \"#utility.yul\":7524:7612   */\n      mstore\n        /* \"#utility.yul\":7631:7635   */\n      0x11\n        /* \"#utility.yul\":7628:7629   */\n      0x04\n        /* \"#utility.yul\":7621:7636   */\n      mstore\n        /* \"#utility.yul\":7655:7659   */\n      0x24\n        /* \"#utility.yul\":7652:7653   */\n      0x00\n        /* \"#utility.yul\":7645:7660   */\n      revert\n        /* \"#utility.yul\":7672:7863   */\n    tag_155:\n        /* \"#utility.yul\":7712:7716   */\n      0x00\n        /* \"#utility.yul\":7732:7752   */\n      tag_447\n        /* \"#utility.yul\":7750:7751   */\n      dup3\n        /* \"#utility.yul\":7732:7752   */\n      tag_321\n      jump\t// in\n    tag_447:\n        /* \"#utility.yul\":7727:7752   */\n      swap2\n      pop\n        /* \"#utility.yul\":7766:7786   */\n      tag_448\n        /* \"#utility.yul\":7784:7785   */\n      dup4\n        /* \"#utility.yul\":7766:7786   */\n      tag_321\n      jump\t// in\n    tag_448:\n        /* \"#utility.yul\":7761:7786   */\n      swap3\n      pop\n        /* \"#utility.yul\":7805:7806   */\n      dup3\n        /* \"#utility.yul\":7802:7803   */\n      dup3\n        /* \"#utility.yul\":7799:7807   */\n      lt\n        /* \"#utility.yul\":7796:7830   */\n      iszero\n      tag_449\n      jumpi\n        /* \"#utility.yul\":7810:7828   */\n      tag_450\n      tag_342\n      jump\t// in\n    tag_450:\n        /* \"#utility.yul\":7796:7830   */\n    tag_449:\n        /* \"#utility.yul\":7855:7856   */\n      dup3\n        /* \"#utility.yul\":7852:7853   */\n      dup3\n        /* \"#utility.yul\":7848:7857   */\n      sub\n        /* \"#utility.yul\":7840:7857   */\n      swap1\n      pop\n        /* \"#utility.yul\":7672:7863   */\n      swap3\n      swap2\n      pop\n      pop\n      jump\t// out\n        /* \"#utility.yul\":7869:7971   */\n    tag_343:\n        /* \"#utility.yul\":7911:7919   */\n      0x00\n        /* \"#utility.yul\":7958:7963   */\n      dup2\n        /* \"#utility.yul\":7955:7956   */\n      0x01\n        /* \"#utility.yul\":7951:7964   */\n      shr\n        /* \"#utility.yul\":7930:7964   */\n      swap1\n      pop\n        /* \"#utility.yul\":7869:7971   */\n      swap2\n      swap1\n      pop\n      jump\t// out\n        /* \"#utility.yul\":7977:8825   */\n    tag_344:\n        /* \"#utility.yul\":8038:8043   */\n      0x00\n        /* \"#utility.yul\":8045:8049   */\n      dup1\n        /* \"#utility.yul\":8069:8075   */\n      dup3\n        /* \"#utility.yul\":8060:8075   */\n      swap2\n      pop\n        /* \"#utility.yul\":8093:8098   */\n      dup4\n        /* \"#utility.yul\":8084:8098   */\n      swap1\n      pop\n        /* \"#utility.yul\":8107:8819   */\n    tag_453:\n        /* \"#utility.yul\":8128:8129   */\n      0x01\n        /* \"#utility.yul\":8118:8126   */\n      dup6\n        /* \"#utility.yul\":8115:8130   */\n      gt\n        /* \"#utility.yul\":8107:8819   */\n      iszero\n      tag_455\n      jumpi\n        /* \"#utility.yul\":8223:8227   */\n      dup1\n        /* \"#utility.yul\":8218:8221   */\n      dup7\n        /* \"#utility.yul\":8214:8228   */\n      div\n        /* \"#utility.yul\":8208:8212   */\n      dup2\n        /* \"#utility.yul\":8205:8229   */\n      gt\n        /* \"#utility.yul\":8202:8252   */\n      iszero\n      tag_456\n      jumpi\n        /* \"#utility.yul\":8232:8250   */\n      tag_457\n      tag_342\n      jump\t// in\n    tag_457:\n        /* \"#utility.yul\":8202:8252   */\n    tag_456:\n        /* \"#utility.yul\":8282:8283   */\n      0x01\n        /* \"#utility.yul\":8272:8280   */\n      dup6\n        /* \"#utility.yul\":8268:8284   */\n      and\n        /* \"#utility.yul\":8265:8716   */\n      iszero\n      tag_458\n      jumpi\n        /* \"#utility.yul\":8697:8701   */\n      dup1\n        /* \"#utility.yul\":8690:8695   */\n      dup3\n        /* \"#utility.yul\":8686:8702   */\n      mul\n        /* \"#utility.yul\":8677:8702   */\n      swap2\n      pop\n        /* \"#utility.yul\":8265:8716   */\n    tag_458:\n        /* \"#utility.yul\":8747:8751   */\n      dup1\n        /* \"#utility.yul\":8741:8745   */\n      dup2\n        /* \"#utility.yul\":8737:8752   */\n      mul\n        /* \"#utility.yul\":8729:8752   */\n      swap1\n      pop\n        /* \"#utility.yul\":8777:8809   */\n      tag_459\n        /* \"#utility.yul\":8800:8808   */\n      dup6\n        /* \"#utility.yul\":8777:8809   */\n      tag_343\n      jump\t// in\n    tag_459:\n        /* \"#utility.yul\":8765:8809   */\n      swap5\n      pop\n        /* \"#utility.yul\":8107:8819   */\n      jump(tag_453)\n    tag_455:\n        /* \"#utility.yul\":7977:8825   */\n      swap5\n      pop\n      swap5\n      swap3\n      pop\n      pop\n      pop\n      jump\t// out\n        /* \"#utility.yul\":8831:9904   */\n    tag_345:\n        /* \"#utility.yul\":8885:8890   */\n      0x00\n        /* \"#utility.yul\":9076:9084   */\n      dup3\n        /* \"#utility.yul\":9066:9106   */\n      tag_461\n      jumpi\n        /* \"#utility.yul\":9097:9098   */\n      0x01\n        /* \"#utility.yul\":9088:9098   */\n      swap1\n      pop\n        /* \"#utility.yul\":9099:9104   */\n      jump(tag_460)\n        /* \"#utility.yul\":9066:9106   */\n    tag_461:\n        /* \"#utility.yul\":9125:9129   */\n      dup2\n        /* \"#utility.yul\":9115:9151   */\n      tag_462\n      jumpi\n        /* \"#utility.yul\":9142:9143   */\n      0x00\n        /* \"#utility.yul\":9133:9143   */\n      swap1\n      pop\n        /* \"#utility.yul\":9144:9149   */\n      jump(tag_460)\n        /* \"#utility.yul\":9115:9151   */\n    tag_462:\n        /* \"#utility.yul\":9211:9215   */\n      dup2\n        /* \"#utility.yul\":9259:9260   */\n      0x01\n        /* \"#utility.yul\":9254:9281   */\n      dup2\n      eq\n      tag_464\n      jumpi\n        /* \"#utility.yul\":9295:9296   */\n      0x02\n        /* \"#utility.yul\":9290:9481   */\n      dup2\n      eq\n      tag_465\n      jumpi\n        /* \"#utility.yul\":9204:9481   */\n      jump(tag_463)\n        /* \"#utility.yul\":9254:9281   */\n    tag_464:\n        /* \"#utility.yul\":9272:9273   */\n      0x01\n        /* \"#utility.yul\":9263:9273   */\n      swap2\n      pop\n        /* \"#utility.yul\":9274:9279   */\n      pop\n      jump(tag_460)\n        /* \"#utility.yul\":9290:9481   */\n    tag_465:\n        /* \"#utility.yul\":9335:9338   */\n      0xff\n        /* \"#utility.yul\":9325:9333   */\n      dup5\n        /* \"#utility.yul\":9322:9339   */\n      gt\n        /* \"#utility.yul\":9319:9362   */\n      iszero\n      tag_466\n      jumpi\n        /* \"#utility.yul\":9342:9360   */\n      tag_467\n      tag_342\n      jump\t// in\n    tag_467:\n        /* \"#utility.yul\":9319:9362   */\n    tag_466:\n        /* \"#utility.yul\":9391:9399   */\n      dup4\n        /* \"#utility.yul\":9388:9389   */\n      0x02\n        /* \"#utility.yul\":9384:9400   */\n      exp\n        /* \"#utility.yul\":9375:9400   */\n      swap2\n      pop\n        /* \"#utility.yul\":9426:9429   */\n      dup5\n        /* \"#utility.yul\":9419:9424   */\n      dup3\n        /* \"#utility.yul\":9416:9430   */\n      gt\n        /* \"#utility.yul\":9413:9453   */\n      iszero\n      tag_468\n      jumpi\n        /* \"#utility.yul\":9433:9451   */\n      tag_469\n      tag_342\n      jump\t// in\n    tag_469:\n        /* \"#utility.yul\":9413:9453   */\n    tag_468:\n        /* \"#utility.yul\":9466:9471   */\n      pop\n      jump(tag_460)\n        /* \"#utility.yul\":9204:9481   */\n    tag_463:\n      pop\n        /* \"#utility.yul\":9590:9592   */\n      0x20\n        /* \"#utility.yul\":9580:9588   */\n      dup4\n        /* \"#utility.yul\":9577:9593   */\n      lt\n        /* \"#utility.yul\":9571:9574   */\n      0x0133\n        /* \"#utility.yul\":9565:9569   */\n      dup4\n        /* \"#utility.yul\":9562:9575   */\n      lt\n        /* \"#utility.yul\":9558:9594   */\n      and\n        /* \"#utility.yul\":9540:9542   */\n      0x4e\n        /* \"#utility.yul\":9530:9538   */\n      dup5\n        /* \"#utility.yul\":9527:9543   */\n      lt\n        /* \"#utility.yul\":9522:9524   */\n      0x0b\n        /* \"#utility.yul\":9516:9520   */\n      dup5\n        /* \"#utility.yul\":9513:9525   */\n      lt\n        /* \"#utility.yul\":9509:9544   */\n      and\n        /* \"#utility.yul\":9493:9604   */\n      or\n        /* \"#utility.yul\":9490:9736   */\n      iszero\n      tag_470\n      jumpi\n        /* \"#utility.yul\":9646:9654   */\n      dup3\n        /* \"#utility.yul\":9640:9644   */\n      dup3\n        /* \"#utility.yul\":9636:9655   */\n      exp\n        /* \"#utility.yul\":9627:9655   */\n      swap1\n      pop\n        /* \"#utility.yul\":9681:9684   */\n      dup4\n        /* \"#utility.yul\":9674:9679   */\n      dup2\n        /* \"#utility.yul\":9671:9685   */\n      gt\n        /* \"#utility.yul\":9668:9708   */\n      iszero\n      tag_471\n      jumpi\n        /* \"#utility.yul\":9688:9706   */\n      tag_472\n      tag_342\n      jump\t// in\n    tag_472:\n        /* \"#utility.yul\":9668:9708   */\n    tag_471:\n        /* \"#utility.yul\":9721:9726   */\n      jump(tag_460)\n        /* \"#utility.yul\":9490:9736   */\n    tag_470:\n        /* \"#utility.yul\":9761:9803   */\n      tag_473\n        /* \"#utility.yul\":9799:9802   */\n      dup5\n        /* \"#utility.yul\":9789:9797   */\n      dup5\n        /* \"#utility.yul\":9783:9787   */\n      dup5\n        /* \"#utility.yul\":9780:9781   */\n      0x01\n        /* \"#utility.yul\":9761:9803   */\n      tag_344\n      jump\t// in\n    tag_473:\n        /* \"#utility.yul\":9746:9803   */\n      swap3\n      pop\n      swap1\n      pop\n        /* \"#utility.yul\":9835:9839   */\n      dup2\n        /* \"#utility.yul\":9830:9833   */\n      dup5\n        /* \"#utility.yul\":9826:9840   */\n      div\n        /* \"#utility.yul\":9819:9824   */\n      dup2\n        /* \"#utility.yul\":9816:9841   */\n      gt\n        /* \"#utility.yul\":9813:9864   */\n      iszero\n      tag_474\n      jumpi\n        /* \"#utility.yul\":9844:9862   */\n      tag_475\n      tag_342\n      jump\t// in\n    tag_475:\n        /* \"#utility.yul\":9813:9864   */\n    tag_474:\n        /* \"#utility.yul\":9893:9897   */\n      dup2\n        /* \"#utility.yul\":9886:9891   */\n      dup2\n        /* \"#utility.yul\":9882:9898   */\n      mul\n        /* \"#utility.yul\":9873:9898   */\n      swap1\n      pop\n        /* \"#utility.yul\":8831:9904   */\n    tag_460:\n      swap4\n      swap3\n      pop\n      pop\n      pop\n      jump\t// out\n        /* \"#utility.yul\":9910:10195   */\n    tag_157:\n        /* \"#utility.yul\":9970:9975   */\n      0x00\n        /* \"#utility.yul\":9994:10017   */\n      tag_477\n        /* \"#utility.yul\":10012:10016   */\n      dup3\n        /* \"#utility.yul\":9994:10017   */\n      tag_321\n      jump\t// in\n    tag_477:\n        /* \"#utility.yul\":9986:10017   */\n      swap2\n      pop\n        /* \"#utility.yul\":10038:10065   */\n      tag_478\n        /* \"#utility.yul\":10056:10064   */\n      dup4\n        /* \"#utility.yul\":10038:10065   */\n      tag_321\n      jump\t// in\n    tag_478:\n        /* \"#utility.yul\":10026:10065   */\n      swap3\n      pop\n        /* \"#utility.yul\":10084:10188   */\n      tag_479\n        /* \"#utility.yul\":10121:10187   */\n      0xffffffffffffffffffffffffffffffffffffffffffffffffffffffffffffffff\n        /* \"#utility.yul\":10111:10119   */\n      dup5\n        /* \"#utility.yul\":10105:10109   */\n      dup5\n        /* \"#utility.yul\":10084:10188   */\n      tag_345\n      jump\t// in\n    tag_479:\n        /* \"#utility.yul\":10075:10188   */\n      swap1\n      pop\n        /* \"#utility.yul\":9910:10195   */\n      swap3\n      swap2\n      pop\n      pop\n      jump\t// out\n        /* \"#utility.yul\":10201:10381   */\n    tag_346:\n        /* \"#utility.yul\":10249:10326   */\n      0x4e487b7100000000000000000000000000000000000000000000000000000000\n        /* \"#utility.yul\":10246:10247   */\n      0x00\n        /* \"#utility.yul\":10239:10327   */\n      mstore\n        /* \"#utility.yul\":10346:10350   */\n      0x12\n        /* \"#utility.yul\":10343:10344   */\n      0x04\n        /* \"#utility.yul\":10336:10351   */\n      mstore\n        /* \"#utility.yul\":10370:10374   */\n      0x24\n        /* \"#utility.yul\":10367:10368   */\n      0x00\n        /* \"#utility.yul\":10360:10375   */\n      revert\n        /* \"#utility.yul\":10387:10572   */\n    tag_159:\n        /* \"#utility.yul\":10427:10428   */\n      0x00\n        /* \"#utility.yul\":10444:10464   */\n      tag_482\n        /* \"#utility.yul\":10462:10463   */\n      dup3\n        /* \"#utility.yul\":10444:10464   */\n      tag_321\n      jump\t// in\n    tag_482:\n        /* \"#utility.yul\":10439:10464   */\n      swap2\n      pop\n        /* \"#utility.yul\":10478:10498   */\n      tag_483\n        /* \"#utility.yul\":10496:10497   */\n      dup4\n        /* \"#utility.yul\":10478:10498   */\n      tag_321\n      jump\t// in\n    tag_483:\n        /* \"#utility.yul\":10473:10498   */\n      swap3\n      pop\n        /* \"#utility.yul\":10517:10518   */\n      dup3\n        /* \"#utility.yul\":10507:10542   */\n      tag_484\n      jumpi\n        /* \"#utility.yul\":10522:10540   */\n      tag_485\n      tag_346\n      jump\t// in\n    tag_485:\n        /* \"#utility.yul\":10507:10542   */\n    tag_484:\n        /* \"#utility.yul\":10564:10565   */\n      dup3\n        /* \"#utility.yul\":10561:10562   */\n      dup3\n        /* \"#utility.yul\":10557:10566   */\n      div\n        /* \"#utility.yul\":10552:10566   */\n      swap1\n      pop\n        /* \"#utility.yul\":10387:10572   */\n      swap3\n      swap2\n      pop\n      pop\n      jump\t// out\n        /* \"#utility.yul\":10578:10926   */\n    tag_161:\n        /* \"#utility.yul\":10618:10625   */\n      0x00\n        /* \"#utility.yul\":10641:10661   */\n      tag_487\n        /* \"#utility.yul\":10659:10660   */\n      dup3\n        /* \"#utility.yul\":10641:10661   */\n      tag_321\n      jump\t// in\n    tag_487:\n        /* \"#utility.yul\":10636:10661   */\n      swap2\n      pop\n        /* \"#utility.yul\":10675:10695   */\n      tag_488\n        /* \"#utility.yul\":10693:10694   */\n      dup4\n        /* \"#utility.yul\":10675:10695   */\n      tag_321\n      jump\t// in\n    tag_488:\n        /* \"#utility.yul\":10670:10695   */\n      swap3\n      pop\n        /* \"#utility.yul\":10863:10864   */\n      dup2\n        /* \"#utility.yul\":10795:10861   */\n      0xffffffffffffffffffffffffffffffffffffffffffffffffffffffffffffffff\n        /* \"#utility.yul\":10791:10865   */\n      div\n        /* \"#utility.yul\":10788:10789   */\n      dup4\n        /* \"#utility.yul\":10785:10866   */\n      gt\n        /* \"#utility.yul\":10780:10781   */\n      dup3\n        /* \"#utility.yul\":10773:10782   */\n      iszero\n        /* \"#utility.yul\":10766:10783   */\n      iszero\n        /* \"#utility.yul\":10762:10867   */\n      and\n        /* \"#utility.yul\":10759:10890   */\n      iszero\n      tag_489\n      jumpi\n        /* \"#utility.yul\":10870:10888   */\n      tag_490\n      tag_342\n      jump\t// in\n    tag_490:\n        /* \"#utility.yul\":10759:10890   */\n    tag_489:\n        /* \"#utility.yul\":10918:10919   */\n      dup3\n        /* \"#utility.yul\":10915:10916   */\n      dup3\n        /* \"#utility.yul\":10911:10920   */\n      mul\n        /* \"#utility.yul\":10900:10920   */\n      swap1\n      pop\n        /* \"#utility.yul\":10578:10926   */\n      swap3\n      swap2\n      pop\n      pop\n      jump\t// out\n        /* \"#utility.yul\":10932:11374   */\n    tag_167:\n        /* \"#utility.yul\":11081:11085   */\n      0x00\n        /* \"#utility.yul\":11119:11121   */\n      0x60\n        /* \"#utility.yul\":11108:11117   */\n      dup3\n        /* \"#utility.yul\":11104:11122   */\n      add\n        /* \"#utility.yul\":11096:11122   */\n      swap1\n      pop\n        /* \"#utility.yul\":11132:11203   */\n      tag_492\n        /* \"#utility.yul\":11200:11201   */\n      0x00\n        /* \"#utility.yul\":11189:11198   */\n      dup4\n        /* \"#utility.yul\":11185:11202   */\n      add\n        /* \"#utility.yul\":11176:11182   */\n      dup7\n        /* \"#utility.yul\":11132:11203   */\n      tag_327\n      jump\t// in\n    tag_492:\n        /* \"#utility.yul\":11213:11285   */\n      tag_493\n        /* \"#utility.yul\":11281:11283   */\n      0x20\n        /* \"#utility.yul\":11270:11279   */\n      dup4\n        /* \"#utility.yul\":11266:11284   */\n      add\n        /* \"#utility.yul\":11257:11263   */\n      dup6\n        /* \"#utility.yul\":11213:11285   */\n      tag_327\n      jump\t// in\n    tag_493:\n        /* \"#utility.yul\":11295:11367   */\n      tag_494\n        /* \"#utility.yul\":11363:11365   */\n      0x40\n        /* \"#utility.yul\":11352:11361   */\n      dup4\n        /* \"#utility.yul\":11348:11366   */\n      add\n        /* \"#utility.yul\":11339:11345   */\n      dup5\n        /* \"#utility.yul\":11295:11367   */\n      tag_326\n      jump\t// in\n    tag_494:\n        /* \"#utility.yul\":10932:11374   */\n      swap5\n      swap4\n      pop\n      pop\n      pop\n      pop\n      jump\t// out\n        /* \"#utility.yul\":11380:11496   */\n    tag_347:\n        /* \"#utility.yul\":11450:11471   */\n      tag_496\n        /* \"#utility.yul\":11465:11470   */\n      dup2\n        /* \"#utility.yul\":11450:11471   */\n      tag_324\n      jump\t// in\n    tag_496:\n        /* \"#utility.yul\":11443:11448   */\n      dup2\n        /* \"#utility.yul\":11440:11472   */\n      eq\n        /* \"#utility.yul\":11430:11490   */\n      tag_497\n      jumpi\n        /* \"#utility.yul\":11486:11487   */\n      0x00\n        /* \"#utility.yul\":11483:11484   */\n      dup1\n        /* \"#utility.yul\":11476:11488   */\n      revert\n        /* \"#utility.yul\":11430:11490   */\n    tag_497:\n        /* \"#utility.yul\":11380:11496   */\n      pop\n      jump\t// out\n        /* \"#utility.yul\":11502:11639   */\n    tag_348:\n        /* \"#utility.yul\":11556:11561   */\n      0x00\n        /* \"#utility.yul\":11587:11593   */\n      dup2\n        /* \"#utility.yul\":11581:11594   */\n      mload\n        /* \"#utility.yul\":11572:11594   */\n      swap1\n      pop\n        /* \"#utility.yul\":11603:11633   */\n      tag_499\n        /* \"#utility.yul\":11627:11632   */\n      dup2\n        /* \"#utility.yul\":11603:11633   */\n      tag_347\n      jump\t// in\n    tag_499:\n        /* \"#utility.yul\":11502:11639   */\n      swap3\n      swap2\n      pop\n      pop\n      jump\t// out\n        /* \"#utility.yul\":11645:11990   */\n    tag_171:\n        /* \"#utility.yul\":11712:11718   */\n      0x00\n        /* \"#utility.yul\":11761:11763   */\n      0x20\n        /* \"#utility.yul\":11749:11758   */\n      dup3\n        /* \"#utility.yul\":11740:11747   */\n      dup5\n        /* \"#utility.yul\":11736:11759   */\n      sub\n        /* \"#utility.yul\":11732:11764   */\n      slt\n        /* \"#utility.yul\":11729:11848   */\n      iszero\n      tag_501\n      jumpi\n        /* \"#utility.yul\":11767:11846   */\n      tag_502\n      tag_315\n      jump\t// in\n    tag_502:\n        /* \"#utility.yul\":11729:11848   */\n    tag_501:\n        /* \"#utility.yul\":11887:11888   */\n      0x00\n        /* \"#utility.yul\":11912:11973   */\n      tag_503\n        /* \"#utility.yul\":11965:11972   */\n      dup5\n        /* \"#utility.yul\":11956:11962   */\n      dup3\n        /* \"#utility.yul\":11945:11954   */\n      dup6\n        /* \"#utility.yul\":11941:11963   */\n      add\n        /* \"#utility.yul\":11912:11973   */\n      tag_348\n      jump\t// in\n    tag_503:\n        /* \"#utility.yul\":11902:11973   */\n      swap2\n      pop\n        /* \"#utility.yul\":11858:11983   */\n      pop\n        /* \"#utility.yul\":11645:11990   */\n      swap3\n      swap2\n      pop\n      pop\n      jump\t// out\n        /* \"#utility.yul\":11996:12328   */\n    tag_177:\n        /* \"#utility.yul\":12117:12121   */\n      0x00\n        /* \"#utility.yul\":12155:12157   */\n      0x40\n        /* \"#utility.yul\":12144:12153   */\n      dup3\n        /* \"#utility.yul\":12140:12158   */\n      add\n        /* \"#utility.yul\":12132:12158   */\n      swap1\n      pop\n        /* \"#utility.yul\":12168:12239   */\n      tag_505\n        /* \"#utility.yul\":12236:12237   */\n      0x00\n        /* \"#utility.yul\":12225:12234   */\n      dup4\n        /* \"#utility.yul\":12221:12238   */\n      add\n        /* \"#utility.yul\":12212:12218   */\n      dup6\n        /* \"#utility.yul\":12168:12239   */\n      tag_327\n      jump\t// in\n    tag_505:\n        /* \"#utility.yul\":12249:12321   */\n      tag_506\n        /* \"#utility.yul\":12317:12319   */\n      0x20\n        /* \"#utility.yul\":12306:12315   */\n      dup4\n        /* \"#utility.yul\":12302:12320   */\n      add\n        /* \"#utility.yul\":12293:12299   */\n      dup5\n        /* \"#utility.yul\":12249:12321   */\n      tag_326\n      jump\t// in\n    tag_506:\n        /* \"#utility.yul\":11996:12328   */\n      swap4\n      swap3\n      pop\n      pop\n      pop\n      jump\t// out\n        /* \"#utility.yul\":12334:12419   */\n    tag_349:\n        /* \"#utility.yul\":12379:12386   */\n      0x00\n        /* \"#utility.yul\":12408:12413   */\n      dup2\n        /* \"#utility.yul\":12397:12413   */\n      swap1\n      pop\n        /* \"#utility.yul\":12334:12419   */\n      swap2\n      swap1\n      pop\n      jump\t// out\n        /* \"#utility.yul\":12425:12583   */\n    tag_350:\n        /* \"#utility.yul\":12483:12492   */\n      0x00\n        /* \"#utility.yul\":12516:12577   */\n      tag_509\n        /* \"#utility.yul\":12534:12576   */\n      tag_510\n        /* \"#utility.yul\":12543:12575   */\n      tag_511\n        /* \"#utility.yul\":12569:12574   */\n      dup5\n        /* \"#utility.yul\":12543:12575   */\n      tag_349\n      jump\t// in\n    tag_511:\n        /* \"#utility.yul\":12534:12576   */\n      tag_336\n      jump\t// in\n    tag_510:\n        /* \"#utility.yul\":12516:12577   */\n      tag_321\n      jump\t// in\n    tag_509:\n        /* \"#utility.yul\":12503:12577   */\n      swap1\n      pop\n        /* \"#utility.yul\":12425:12583   */\n      swap2\n      swap1\n      pop\n      jump\t// out\n        /* \"#utility.yul\":12589:12736   */\n    tag_351:\n        /* \"#utility.yul\":12684:12729   */\n      tag_513\n        /* \"#utility.yul\":12723:12728   */\n      dup2\n        /* \"#utility.yul\":12684:12729   */\n      tag_350\n      jump\t// in\n    tag_513:\n        /* \"#utility.yul\":12679:12682   */\n      dup3\n        /* \"#utility.yul\":12672:12730   */\n      mstore\n        /* \"#utility.yul\":12589:12736   */\n      pop\n      pop\n      jump\t// out\n        /* \"#utility.yul\":12742:12980   */\n    tag_214:\n        /* \"#utility.yul\":12843:12847   */\n      0x00\n        /* \"#utility.yul\":12881:12883   */\n      0x20\n        /* \"#utility.yul\":12870:12879   */\n      dup3\n        /* \"#utility.yul\":12866:12884   */\n      add\n        /* \"#utility.yul\":12858:12884   */\n      swap1\n      pop\n        /* \"#utility.yul\":12894:12973   */\n      tag_515\n        /* \"#utility.yul\":12970:12971   */\n      0x00\n        /* \"#utility.yul\":12959:12968   */\n      dup4\n        /* \"#utility.yul\":12955:12972   */\n      add\n        /* \"#utility.yul\":12946:12952   */\n      dup5\n        /* \"#utility.yul\":12894:12973   */\n      tag_351\n      jump\t// in\n    tag_515:\n        /* \"#utility.yul\":12742:12980   */\n      swap3\n      swap2\n      pop\n      pop\n      jump\t// out\n        /* \"#utility.yul\":12986:13291   */\n    tag_278:\n        /* \"#utility.yul\":13026:13029   */\n      0x00\n        /* \"#utility.yul\":13045:13065   */\n      tag_517\n        /* \"#utility.yul\":13063:13064   */\n      dup3\n        /* \"#utility.yul\":13045:13065   */\n      tag_321\n      jump\t// in\n    tag_517:\n        /* \"#utility.yul\":13040:13065   */\n      swap2\n      pop\n        /* \"#utility.yul\":13079:13099   */\n      tag_518\n        /* \"#utility.yul\":13097:13098   */\n      dup4\n        /* \"#utility.yul\":13079:13099   */\n      tag_321\n      jump\t// in\n    tag_518:\n        /* \"#utility.yul\":13074:13099   */\n      swap3\n      pop\n        /* \"#utility.yul\":13233:13234   */\n      dup3\n        /* \"#utility.yul\":13165:13231   */\n      0xffffffffffffffffffffffffffffffffffffffffffffffffffffffffffffffff\n        /* \"#utility.yul\":13161:13235   */\n      sub\n        /* \"#utility.yul\":13158:13159   */\n      dup3\n        /* \"#utility.yul\":13155:13236   */\n      gt\n        /* \"#utility.yul\":13152:13259   */\n      iszero\n      tag_519\n      jumpi\n        /* \"#utility.yul\":13239:13257   */\n      tag_520\n      tag_342\n      jump\t// in\n    tag_520:\n        /* \"#utility.yul\":13152:13259   */\n    tag_519:\n        /* \"#utility.yul\":13283:13284   */\n      dup3\n        /* \"#utility.yul\":13280:13281   */\n      dup3\n        /* \"#utility.yul\":13276:13285   */\n      add\n        /* \"#utility.yul\":13269:13285   */\n      swap1\n      pop\n        /* \"#utility.yul\":12986:13291   */\n      swap3\n      swap2\n      pop\n      pop\n      jump\t// out\n\n    auxdata: 0xa2646970667358221220aa78368a270e375e507addab4f3f6e4e6c1fa9743483c0a26c31c22287ba680964736f6c634300080e0033\n}\n",
				"bytecode": {
					"linkReferences": {},
					"object": "60a060405234801561001057600080fd5b503373ffffffffffffffffffffffffffffffffffffffff1660808173ffffffffffffffffffffffffffffffffffffffff16815250506001600360006101000a81548160ff021916908360ff1602179055506080516124a66100bb600039600081816103fe0152818161049d0152818161067b01528181610c5601528181610cf801528181610da001528181610e46015281816119f301528181611ae60152611b5c01526124a66000f3fe6080604052600436106101025760003560e01c80637d0f7a8811610095578063cf9d4afa11610064578063cf9d4afa14610315578063ec5568891461033e578063f83d08ba14610369578063f9f92be414610394578063fed0a20e146103d15761010c565b80637d0f7a881461026f5780639be56034146102ac5780639e955149146102d5578063b4b15df5146102fe5761010c565b806344337ea1116100d157806344337ea1146101b5578063537df3b6146101f25780635ecaf1c81461022f5780636c11bcd3146102465761010c565b806316da8632146101115780632637a4771461013a578063365afe2f146101635780634051b9aa1461018c5761010c565b3661010c57600080fd5b600080fd5b34801561011d57600080fd5b5061013860048036038101906101339190611d11565b6103fc565b005b34801561014657600080fd5b50610161600480360381019061015c9190611d11565b61049b565b005b34801561016f57600080fd5b5061018a60048036038101906101859190611d74565b6106b2565b005b34801561019857600080fd5b506101b360048036038101906101ae9190611d11565b610c54565b005b3480156101c157600080fd5b506101dc60048036038101906101d79190611d11565b610cf4565b6040516101e99190611dcf565b60405180910390f35b3480156101fe57600080fd5b5061021960048036038101906102149190611d11565b610d9c565b6040516102269190611dcf565b60405180910390f35b34801561023b57600080fd5b50610244610e44565b005b34801561025257600080fd5b5061026d60048036038101906102689190611dea565b610eba565b005b34801561027b57600080fd5b5061029660048036038101906102919190611d11565b611340565b6040516102a39190611e26565b60405180910390f35b3480156102b857600080fd5b506102d360048036038101906102ce9190611d74565b611358565b005b3480156102e157600080fd5b506102fc60048036038101906102f79190611d11565b6119f1565b005b34801561030a57600080fd5b50610313611ae4565b005b34801561032157600080fd5b5061033c60048036038101906103379190611d11565b611b5a565b005b34801561034a57600080fd5b50610353611c4c565b6040516103609190611e50565b60405180910390f35b34801561037557600080fd5b5061037e611c70565b60405161038b9190611e87565b60405180910390f35b3480156103a057600080fd5b506103bb60048036038101906103b69190611d11565b611c83565b6040516103c89190611e26565b60405180910390f35b3480156103dd57600080fd5b506103e6611c9b565b6040516103f39190611e87565b60405180910390f35b7f000000000000000000000000000000000000000000000000000000000000000073ffffffffffffffffffffffffffffffffffffffff163373ffffffffffffffffffffffffffffffffffffffff161461045457600080fd5b60018060008373ffffffffffffffffffffffffffffffffffffffff1673ffffffffffffffffffffffffffffffffffffffff1681526020019081526020016000208190555050565b7f000000000000000000000000000000000000000000000000000000000000000073ffffffffffffffffffffffffffffffffffffffff163373ffffffffffffffffffffffffffffffffffffffff16146104f357600080fd5b60008060009054906101000a900473ffffffffffffffffffffffffffffffffffffffff1690508073ffffffffffffffffffffffffffffffffffffffff16638ae91695836040518263ffffffff1660e01b81526004016105529190611e50565b600060405180830381600087803b15801561056c57600080fd5b505af1158015610580573d6000803e3d6000fd5b505050508173ffffffffffffffffffffffffffffffffffffffff16816040516024016105ac9190611e50565b6040516020818303038152906040527fcf9d4afa000000000000000000000000000000000000000000000000000000007bffffffffffffffffffffffffffffffffffffffffffffffffffffffff19166020820180517bffffffffffffffffffffffffffffffffffffffffffffffffffffffff83818316178352505050506040516106369190611f1c565b600060405180830381855af49150503d8060008114610671576040519150601f19603f3d011682016040523d82523d6000602084013e610676565b606091505b5050507f000000000000000000000000000000000000000000000000000000000000000073ffffffffffffffffffffffffffffffffffffffff16ff5b6001600260003373ffffffffffffffffffffffffffffffffffffffff1673ffffffffffffffffffffffffffffffffffffffff16815260200190815260200160002054036106fe57600080fd5b6000600360009054906101000a900460ff1660ff161461071d57600080fd5b8160018060008373ffffffffffffffffffffffffffffffffffffffff1673ffffffffffffffffffffffffffffffffffffffff168152602001908152602001600020541461076957600080fd5b60008060009054906101000a900473ffffffffffffffffffffffffffffffffffffffff16905060008173ffffffffffffffffffffffffffffffffffffffff166311ce02676040518163ffffffff1660e01b8152600401602060405180830381865afa1580156107dc573d6000803e3d6000fd5b505050506040513d601f19601f820116820180604052508101906108009190611f48565b905060008173ffffffffffffffffffffffffffffffffffffffff16630cb1982b8473ffffffffffffffffffffffffffffffffffffffff1663da8909e56040518163ffffffff1660e01b8152600401602060405180830381865afa15801561086b573d6000803e3d6000fd5b505050506040513d601f19601f8201168201806040525081019061088f9190611f48565b73ffffffffffffffffffffffffffffffffffffffff1663bdedd45e60006040518263ffffffff1660e01b81526004016108c89190611fba565b6020604051808303816000875af11580156108e7573d6000803e3d6000fd5b505050506040513d601f19601f8201168201806040525081019061090b9190611fea565b6040518263ffffffff1660e01b81526004016109279190611e26565b6020604051808303816000875af1158015610946573d6000803e3d6000fd5b505050506040513d601f19601f8201168201806040525081019061096a9190611fea565b90506000808773ffffffffffffffffffffffffffffffffffffffff1663313ce5676040518163ffffffff1660e01b8152600401602060405180830381865afa1580156109ba573d6000803e3d6000fd5b505050506040513d601f19601f820116820180604052508101906109de9190612043565b60ff16905060008873ffffffffffffffffffffffffffffffffffffffff166318160ddd6040518163ffffffff1660e01b8152600401602060405180830381865afa158015610a30573d6000803e3d6000fd5b505050506040513d601f19601f82011682018060405250810190610a549190611fea565b9050600081148015610a665750600084145b506012821015610ab157816012610a7d919061209f565b600a610a899190612206565b8185610a959190612280565b89610aa091906122b1565b610aaa9190612280565b9250610acb565b8084610abd9190612280565b88610ac891906122b1565b92505b8873ffffffffffffffffffffffffffffffffffffffff166323b872dd3387866040518463ffffffff1660e01b8152600401610b089392919061230b565b6020604051808303816000875af1158015610b27573d6000803e3d6000fd5b505050506040513d601f19601f82011682018060405250810190610b4b919061236e565b610b5457600080fd5b8573ffffffffffffffffffffffffffffffffffffffff1663fc0c546a6040518163ffffffff1660e01b8152600401602060405180830381865afa158015610b9f573d6000803e3d6000fd5b505050506040513d601f19601f82011682018060405250810190610bc39190611f48565b73ffffffffffffffffffffffffffffffffffffffff166340c10f19338a6040518363ffffffff1660e01b8152600401610bfd92919061239b565b6020604051808303816000875af1158015610c1c573d6000803e3d6000fd5b505050506040513d601f19601f82011682018060405250810190610c40919061236e565b610c4957600080fd5b505050505050505050565b7f000000000000000000000000000000000000000000000000000000000000000073ffffffffffffffffffffffffffffffffffffffff163373ffffffffffffffffffffffffffffffffffffffff1614610cac57600080fd5b6000600160008373ffffffffffffffffffffffffffffffffffffffff1673ffffffffffffffffffffffffffffffffffffffff1681526020019081526020016000208190555050565b60007f000000000000000000000000000000000000000000000000000000000000000073ffffffffffffffffffffffffffffffffffffffff163373ffffffffffffffffffffffffffffffffffffffff1614610d4e57600080fd5b6001600260008473ffffffffffffffffffffffffffffffffffffffff1673ffffffffffffffffffffffffffffffffffffffff1681526020019081526020016000208190555060019050919050565b60007f000000000000000000000000000000000000000000000000000000000000000073ffffffffffffffffffffffffffffffffffffffff163373ffffffffffffffffffffffffffffffffffffffff1614610df657600080fd5b6000600260008473ffffffffffffffffffffffffffffffffffffffff1673ffffffffffffffffffffffffffffffffffffffff1681526020019081526020016000208190555060019050919050565b7f000000000000000000000000000000000000000000000000000000000000000073ffffffffffffffffffffffffffffffffffffffff163373ffffffffffffffffffffffffffffffffffffffff1614610e9c57600080fd5b6000600360006101000a81548160ff021916908360ff160217905550565b6001600260003373ffffffffffffffffffffffffffffffffffffffff1673ffffffffffffffffffffffffffffffffffffffff1681526020019081526020016000205403610f0657600080fd5b6000600360009054906101000a900460ff1660ff1614610f2557600080fd5b60008060009054906101000a900473ffffffffffffffffffffffffffffffffffffffff16905060008173ffffffffffffffffffffffffffffffffffffffff166311ce02676040518163ffffffff1660e01b8152600401602060405180830381865afa158015610f98573d6000803e3d6000fd5b505050506040513d601f19601f82011682018060405250810190610fbc9190611f48565b905060008273ffffffffffffffffffffffffffffffffffffffff1663fc0c546a6040518163ffffffff1660e01b8152600401602060405180830381865afa15801561100b573d6000803e3d6000fd5b505050506040513d601f19601f8201168201806040525081019061102f9190611f48565b90508073ffffffffffffffffffffffffffffffffffffffff166379cc679033866040518363ffffffff1660e01b815260040161106c92919061239b565b6020604051808303816000875af115801561108b573d6000803e3d6000fd5b505050506040513d601f19601f820116820180604052508101906110af919061236e565b6110b857600080fd5b60008273ffffffffffffffffffffffffffffffffffffffff16630cb1982b8573ffffffffffffffffffffffffffffffffffffffff1663da8909e56040518163ffffffff1660e01b8152600401602060405180830381865afa158015611121573d6000803e3d6000fd5b505050506040513d601f19601f820116820180604052508101906111459190611f48565b73ffffffffffffffffffffffffffffffffffffffff1663bdedd45e60016040518263ffffffff1660e01b815260040161117e91906123ff565b6020604051808303816000875af115801561119d573d6000803e3d6000fd5b505050506040513d601f19601f820116820180604052508101906111c19190611fea565b6040518263ffffffff1660e01b81526004016111dd9190611e26565b6020604051808303816000875af11580156111fc573d6000803e3d6000fd5b505050506040513d601f19601f820116820180604052508101906112209190611fea565b905060008273ffffffffffffffffffffffffffffffffffffffff166318160ddd6040518163ffffffff1660e01b8152600401602060405180830381865afa15801561126f573d6000803e3d6000fd5b505050506040513d601f19601f820116820180604052508101906112939190611fea565b9050600081836112a39190612280565b876112ae91906122b1565b90508473ffffffffffffffffffffffffffffffffffffffff1663990dc9db33836040518363ffffffff1660e01b81526004016112eb92919061239b565b6020604051808303816000875af115801561130a573d6000803e3d6000fd5b505050506040513d601f19601f8201168201806040525081019061132e919061236e565b61133757600080fd5b50505050505050565b60016020528060005260406000206000915090505481565b6001600260003373ffffffffffffffffffffffffffffffffffffffff1673ffffffffffffffffffffffffffffffffffffffff16815260200190815260200160002054036113a457600080fd5b6000600360009054906101000a900460ff1660ff16146113c357600080fd5b8160018060008373ffffffffffffffffffffffffffffffffffffffff1673ffffffffffffffffffffffffffffffffffffffff168152602001908152602001600020541461140f57600080fd5b6000821161141c57600080fd5b60008060009054906101000a900473ffffffffffffffffffffffffffffffffffffffff16905060008173ffffffffffffffffffffffffffffffffffffffff166311ce02676040518163ffffffff1660e01b8152600401602060405180830381865afa15801561148f573d6000803e3d6000fd5b505050506040513d601f19601f820116820180604052508101906114b39190611f48565b905060008173ffffffffffffffffffffffffffffffffffffffff16630cb1982b8473ffffffffffffffffffffffffffffffffffffffff1663da8909e56040518163ffffffff1660e01b8152600401602060405180830381865afa15801561151e573d6000803e3d6000fd5b505050506040513d601f19601f820116820180604052508101906115429190611f48565b73ffffffffffffffffffffffffffffffffffffffff1663bdedd45e60006040518263ffffffff1660e01b815260040161157b9190611fba565b6020604051808303816000875af115801561159a573d6000803e3d6000fd5b505050506040513d601f19601f820116820180604052508101906115be9190611fea565b6040518263ffffffff1660e01b81526004016115da9190611e26565b6020604051808303816000875af11580156115f9573d6000803e3d6000fd5b505050506040513d601f19601f8201168201806040525081019061161d9190611fea565b90506000808773ffffffffffffffffffffffffffffffffffffffff1663313ce5676040518163ffffffff1660e01b8152600401602060405180830381865afa15801561166d573d6000803e3d6000fd5b505050506040513d601f19601f820116820180604052508101906116919190612043565b60ff16905060008873ffffffffffffffffffffffffffffffffffffffff166318160ddd6040518163ffffffff1660e01b8152600401602060405180830381865afa1580156116e3573d6000803e3d6000fd5b505050506040513d601f19601f820116820180604052508101906117079190611fea565b9050600060128310156117ee576000836012611723919061209f565b600a61172f9190612206565b8a61173a91906122b1565b905060008614801561174c5750600083145b1561178657670de0b6b3a7640000816117659190612280565b915083600a6117749190612206565b8261177f91906122b1565b94506117e8565b82866117929190612280565b8161179d9190612280565b915060018460126117ae919061209f565b600a6117ba9190612206565b8488856117c791906122b1565b6117d19190612280565b6117db9190612280565b6117e5919061241a565b94505b50611867565b60008514806117fd5750600082145b1561183357670de0b6b3a7640000896118169190612280565b9050670de0b6b3a76400008161182c91906122b1565b9350611866565b818561183f9190612280565b8961184a9190612280565b905081856118589190612280565b8161186391906122b1565b93505b5b8973ffffffffffffffffffffffffffffffffffffffff166323b872dd3388876040518463ffffffff1660e01b81526004016118a49392919061230b565b6020604051808303816000875af11580156118c3573d6000803e3d6000fd5b505050506040513d601f19601f820116820180604052508101906118e7919061236e565b6118f057600080fd5b8673ffffffffffffffffffffffffffffffffffffffff1663fc0c546a6040518163ffffffff1660e01b8152600401602060405180830381865afa15801561193b573d6000803e3d6000fd5b505050506040513d601f19601f8201168201806040525081019061195f9190611f48565b73ffffffffffffffffffffffffffffffffffffffff166340c10f1933836040518363ffffffff1660e01b815260040161199992919061239b565b6020604051808303816000875af11580156119b8573d6000803e3d6000fd5b505050506040513d601f19601f820116820180604052508101906119dc919061236e565b6119e557600080fd5b50505050505050505050565b7f000000000000000000000000000000000000000000000000000000000000000073ffffffffffffffffffffffffffffffffffffffff163373ffffffffffffffffffffffffffffffffffffffff1614611a4957600080fd5b60008054906101000a900473ffffffffffffffffffffffffffffffffffffffff1673ffffffffffffffffffffffffffffffffffffffff163373ffffffffffffffffffffffffffffffffffffffff1614611aa157600080fd5b806000806101000a81548173ffffffffffffffffffffffffffffffffffffffff021916908373ffffffffffffffffffffffffffffffffffffffff16021790555050565b7f000000000000000000000000000000000000000000000000000000000000000073ffffffffffffffffffffffffffffffffffffffff163373ffffffffffffffffffffffffffffffffffffffff1614611b3c57600080fd5b6001600360006101000a81548160ff021916908360ff160217905550565b7f000000000000000000000000000000000000000000000000000000000000000073ffffffffffffffffffffffffffffffffffffffff163373ffffffffffffffffffffffffffffffffffffffff1614611bb257600080fd5b6000600360019054906101000a900460ff1660ff1614611bd157600080fd5b6000600360006101000a81548160ff021916908360ff160217905550806000806101000a81548173ffffffffffffffffffffffffffffffffffffffff021916908373ffffffffffffffffffffffffffffffffffffffff1602179055506001600360016101000a81548160ff021916908360ff16021790555050565b60008054906101000a900473ffffffffffffffffffffffffffffffffffffffff1681565b600360009054906101000a900460ff1681565b60026020528060005260406000206000915090505481565b600360019054906101000a900460ff1681565b600080fd5b600073ffffffffffffffffffffffffffffffffffffffff82169050919050565b6000611cde82611cb3565b9050919050565b611cee81611cd3565b8114611cf957600080fd5b50565b600081359050611d0b81611ce5565b92915050565b600060208284031215611d2757611d26611cae565b5b6000611d3584828501611cfc565b91505092915050565b6000819050919050565b611d5181611d3e565b8114611d5c57600080fd5b50565b600081359050611d6e81611d48565b92915050565b60008060408385031215611d8b57611d8a611cae565b5b6000611d9985828601611cfc565b9250506020611daa85828601611d5f565b9150509250929050565b60008115159050919050565b611dc981611db4565b82525050565b6000602082019050611de46000830184611dc0565b92915050565b600060208284031215611e0057611dff611cae565b5b6000611e0e84828501611d5f565b91505092915050565b611e2081611d3e565b82525050565b6000602082019050611e3b6000830184611e17565b92915050565b611e4a81611cd3565b82525050565b6000602082019050611e656000830184611e41565b92915050565b600060ff82169050919050565b611e8181611e6b565b82525050565b6000602082019050611e9c6000830184611e78565b92915050565b600081519050919050565b600081905092915050565b60005b83811015611ed6578082015181840152602081019050611ebb565b83811115611ee5576000848401525b50505050565b6000611ef682611ea2565b611f008185611ead565b9350611f10818560208601611eb8565b80840191505092915050565b6000611f288284611eeb565b915081905092915050565b600081519050611f4281611ce5565b92915050565b600060208284031215611f5e57611f5d611cae565b5b6000611f6c84828501611f33565b91505092915050565b6000819050919050565b6000819050919050565b6000611fa4611f9f611f9a84611f75565b611f7f565b611d3e565b9050919050565b611fb481611f89565b82525050565b6000602082019050611fcf6000830184611fab565b92915050565b600081519050611fe481611d48565b92915050565b60006020828403121561200057611fff611cae565b5b600061200e84828501611fd5565b91505092915050565b61202081611e6b565b811461202b57600080fd5b50565b60008151905061203d81612017565b92915050565b60006020828403121561205957612058611cae565b5b60006120678482850161202e565b91505092915050565b7f4e487b7100000000000000000000000000000000000000000000000000000000600052601160045260246000fd5b60006120aa82611d3e565b91506120b583611d3e565b9250828210156120c8576120c7612070565b5b828203905092915050565b60008160011c9050919050565b6000808291508390505b600185111561212a5780860481111561210657612105612070565b5b60018516156121155780820291505b8081029050612123856120d3565b94506120ea565b94509492505050565b60008261214357600190506121ff565b8161215157600090506121ff565b81600181146121675760028114612171576121a0565b60019150506121ff565b60ff84111561218357612182612070565b5b8360020a91508482111561219a57612199612070565b5b506121ff565b5060208310610133831016604e8410600b84101617156121d55782820a9050838111156121d0576121cf612070565b5b6121ff565b6121e284848460016120e0565b925090508184048111156121f9576121f8612070565b5b81810290505b9392505050565b600061221182611d3e565b915061221c83611d3e565b92506122497fffffffffffffffffffffffffffffffffffffffffffffffffffffffffffffffff8484612133565b905092915050565b7f4e487b7100000000000000000000000000000000000000000000000000000000600052601260045260246000fd5b600061228b82611d3e565b915061229683611d3e565b9250826122a6576122a5612251565b5b828204905092915050565b60006122bc82611d3e565b91506122c783611d3e565b9250817fffffffffffffffffffffffffffffffffffffffffffffffffffffffffffffffff0483118215151615612300576122ff612070565b5b828202905092915050565b60006060820190506123206000830186611e41565b61232d6020830185611e41565b61233a6040830184611e17565b949350505050565b61234b81611db4565b811461235657600080fd5b50565b60008151905061236881612342565b92915050565b60006020828403121561238457612383611cae565b5b600061239284828501612359565b91505092915050565b60006040820190506123b06000830185611e41565b6123bd6020830184611e17565b9392505050565b6000819050919050565b60006123e96123e46123df846123c4565b611f7f565b611d3e565b9050919050565b6123f9816123ce565b82525050565b600060208201905061241460008301846123f0565b92915050565b600061242582611d3e565b915061243083611d3e565b9250827fffffffffffffffffffffffffffffffffffffffffffffffffffffffffffffffff0382111561246557612464612070565b5b82820190509291505056fea2646970667358221220aa78368a270e375e507addab4f3f6e4e6c1fa9743483c0a26c31c22287ba680964736f6c634300080e0033",
					"opcodes": "PUSH1 0xA0 PUSH1 0x40 MSTORE CALLVALUE DUP1 ISZERO PUSH2 0x10 JUMPI PUSH1 0x0 DUP1 REVERT JUMPDEST POP CALLER PUSH20 0xFFFFFFFFFFFFFFFFFFFFFFFFFFFFFFFFFFFFFFFF AND PUSH1 0x80 DUP2 PUSH20 0xFFFFFFFFFFFFFFFFFFFFFFFFFFFFFFFFFFFFFFFF AND DUP2 MSTORE POP POP PUSH1 0x1 PUSH1 0x3 PUSH1 0x0 PUSH2 0x100 EXP DUP2 SLOAD DUP2 PUSH1 0xFF MUL NOT AND SWAP1 DUP4 PUSH1 0xFF AND MUL OR SWAP1 SSTORE POP PUSH1 0x80 MLOAD PUSH2 0x24A6 PUSH2 0xBB PUSH1 0x0 CODECOPY PUSH1 0x0 DUP2 DUP2 PUSH2 0x3FE ADD MSTORE DUP2 DUP2 PUSH2 0x49D ADD MSTORE DUP2 DUP2 PUSH2 0x67B ADD MSTORE DUP2 DUP2 PUSH2 0xC56 ADD MSTORE DUP2 DUP2 PUSH2 0xCF8 ADD MSTORE DUP2 DUP2 PUSH2 0xDA0 ADD MSTORE DUP2 DUP2 PUSH2 0xE46 ADD MSTORE DUP2 DUP2 PUSH2 0x19F3 ADD MSTORE DUP2 DUP2 PUSH2 0x1AE6 ADD MSTORE PUSH2 0x1B5C ADD MSTORE PUSH2 0x24A6 PUSH1 0x0 RETURN INVALID PUSH1 0x80 PUSH1 0x40 MSTORE PUSH1 0x4 CALLDATASIZE LT PUSH2 0x102 JUMPI PUSH1 0x0 CALLDATALOAD PUSH1 0xE0 SHR DUP1 PUSH4 0x7D0F7A88 GT PUSH2 0x95 JUMPI DUP1 PUSH4 0xCF9D4AFA GT PUSH2 0x64 JUMPI DUP1 PUSH4 0xCF9D4AFA EQ PUSH2 0x315 JUMPI DUP1 PUSH4 0xEC556889 EQ PUSH2 0x33E JUMPI DUP1 PUSH4 0xF83D08BA EQ PUSH2 0x369 JUMPI DUP1 PUSH4 0xF9F92BE4 EQ PUSH2 0x394 JUMPI DUP1 PUSH4 0xFED0A20E EQ PUSH2 0x3D1 JUMPI PUSH2 0x10C JUMP JUMPDEST DUP1 PUSH4 0x7D0F7A88 EQ PUSH2 0x26F JUMPI DUP1 PUSH4 0x9BE56034 EQ PUSH2 0x2AC JUMPI DUP1 PUSH4 0x9E955149 EQ PUSH2 0x2D5 JUMPI DUP1 PUSH4 0xB4B15DF5 EQ PUSH2 0x2FE JUMPI PUSH2 0x10C JUMP JUMPDEST DUP1 PUSH4 0x44337EA1 GT PUSH2 0xD1 JUMPI DUP1 PUSH4 0x44337EA1 EQ PUSH2 0x1B5 JUMPI DUP1 PUSH4 0x537DF3B6 EQ PUSH2 0x1F2 JUMPI DUP1 PUSH4 0x5ECAF1C8 EQ PUSH2 0x22F JUMPI DUP1 PUSH4 0x6C11BCD3 EQ PUSH2 0x246 JUMPI PUSH2 0x10C JUMP JUMPDEST DUP1 PUSH4 0x16DA8632 EQ PUSH2 0x111 JUMPI DUP1 PUSH4 0x2637A477 EQ PUSH2 0x13A JUMPI DUP1 PUSH4 0x365AFE2F EQ PUSH2 0x163 JUMPI DUP1 PUSH4 0x4051B9AA EQ PUSH2 0x18C JUMPI PUSH2 0x10C JUMP JUMPDEST CALLDATASIZE PUSH2 0x10C JUMPI PUSH1 0x0 DUP1 REVERT JUMPDEST PUSH1 0x0 DUP1 REVERT JUMPDEST CALLVALUE DUP1 ISZERO PUSH2 0x11D JUMPI PUSH1 0x0 DUP1 REVERT JUMPDEST POP PUSH2 0x138 PUSH1 0x4 DUP1 CALLDATASIZE SUB DUP2 ADD SWAP1 PUSH2 0x133 SWAP2 SWAP1 PUSH2 0x1D11 JUMP JUMPDEST PUSH2 0x3FC JUMP JUMPDEST STOP JUMPDEST CALLVALUE DUP1 ISZERO PUSH2 0x146 JUMPI PUSH1 0x0 DUP1 REVERT JUMPDEST POP PUSH2 0x161 PUSH1 0x4 DUP1 CALLDATASIZE SUB DUP2 ADD SWAP1 PUSH2 0x15C SWAP2 SWAP1 PUSH2 0x1D11 JUMP JUMPDEST PUSH2 0x49B JUMP JUMPDEST STOP JUMPDEST CALLVALUE DUP1 ISZERO PUSH2 0x16F JUMPI PUSH1 0x0 DUP1 REVERT JUMPDEST POP PUSH2 0x18A PUSH1 0x4 DUP1 CALLDATASIZE SUB DUP2 ADD SWAP1 PUSH2 0x185 SWAP2 SWAP1 PUSH2 0x1D74 JUMP JUMPDEST PUSH2 0x6B2 JUMP JUMPDEST STOP JUMPDEST CALLVALUE DUP1 ISZERO PUSH2 0x198 JUMPI PUSH1 0x0 DUP1 REVERT JUMPDEST POP PUSH2 0x1B3 PUSH1 0x4 DUP1 CALLDATASIZE SUB DUP2 ADD SWAP1 PUSH2 0x1AE SWAP2 SWAP1 PUSH2 0x1D11 JUMP JUMPDEST PUSH2 0xC54 JUMP JUMPDEST STOP JUMPDEST CALLVALUE DUP1 ISZERO PUSH2 0x1C1 JUMPI PUSH1 0x0 DUP1 REVERT JUMPDEST POP PUSH2 0x1DC PUSH1 0x4 DUP1 CALLDATASIZE SUB DUP2 ADD SWAP1 PUSH2 0x1D7 SWAP2 SWAP1 PUSH2 0x1D11 JUMP JUMPDEST PUSH2 0xCF4 JUMP JUMPDEST PUSH1 0x40 MLOAD PUSH2 0x1E9 SWAP2 SWAP1 PUSH2 0x1DCF JUMP JUMPDEST PUSH1 0x40 MLOAD DUP1 SWAP2 SUB SWAP1 RETURN JUMPDEST CALLVALUE DUP1 ISZERO PUSH2 0x1FE JUMPI PUSH1 0x0 DUP1 REVERT JUMPDEST POP PUSH2 0x219 PUSH1 0x4 DUP1 CALLDATASIZE SUB DUP2 ADD SWAP1 PUSH2 0x214 SWAP2 SWAP1 PUSH2 0x1D11 JUMP JUMPDEST PUSH2 0xD9C JUMP JUMPDEST PUSH1 0x40 MLOAD PUSH2 0x226 SWAP2 SWAP1 PUSH2 0x1DCF JUMP JUMPDEST PUSH1 0x40 MLOAD DUP1 SWAP2 SUB SWAP1 RETURN JUMPDEST CALLVALUE DUP1 ISZERO PUSH2 0x23B JUMPI PUSH1 0x0 DUP1 REVERT JUMPDEST POP PUSH2 0x244 PUSH2 0xE44 JUMP JUMPDEST STOP JUMPDEST CALLVALUE DUP1 ISZERO PUSH2 0x252 JUMPI PUSH1 0x0 DUP1 REVERT JUMPDEST POP PUSH2 0x26D PUSH1 0x4 DUP1 CALLDATASIZE SUB DUP2 ADD SWAP1 PUSH2 0x268 SWAP2 SWAP1 PUSH2 0x1DEA JUMP JUMPDEST PUSH2 0xEBA JUMP JUMPDEST STOP JUMPDEST CALLVALUE DUP1 ISZERO PUSH2 0x27B JUMPI PUSH1 0x0 DUP1 REVERT JUMPDEST POP PUSH2 0x296 PUSH1 0x4 DUP1 CALLDATASIZE SUB DUP2 ADD SWAP1 PUSH2 0x291 SWAP2 SWAP1 PUSH2 0x1D11 JUMP JUMPDEST PUSH2 0x1340 JUMP JUMPDEST PUSH1 0x40 MLOAD PUSH2 0x2A3 SWAP2 SWAP1 PUSH2 0x1E26 JUMP JUMPDEST PUSH1 0x40 MLOAD DUP1 SWAP2 SUB SWAP1 RETURN JUMPDEST CALLVALUE DUP1 ISZERO PUSH2 0x2B8 JUMPI PUSH1 0x0 DUP1 REVERT JUMPDEST POP PUSH2 0x2D3 PUSH1 0x4 DUP1 CALLDATASIZE SUB DUP2 ADD SWAP1 PUSH2 0x2CE SWAP2 SWAP1 PUSH2 0x1D74 JUMP JUMPDEST PUSH2 0x1358 JUMP JUMPDEST STOP JUMPDEST CALLVALUE DUP1 ISZERO PUSH2 0x2E1 JUMPI PUSH1 0x0 DUP1 REVERT JUMPDEST POP PUSH2 0x2FC PUSH1 0x4 DUP1 CALLDATASIZE SUB DUP2 ADD SWAP1 PUSH2 0x2F7 SWAP2 SWAP1 PUSH2 0x1D11 JUMP JUMPDEST PUSH2 0x19F1 JUMP JUMPDEST STOP JUMPDEST CALLVALUE DUP1 ISZERO PUSH2 0x30A JUMPI PUSH1 0x0 DUP1 REVERT JUMPDEST POP PUSH2 0x313 PUSH2 0x1AE4 JUMP JUMPDEST STOP JUMPDEST CALLVALUE DUP1 ISZERO PUSH2 0x321 JUMPI PUSH1 0x0 DUP1 REVERT JUMPDEST POP PUSH2 0x33C PUSH1 0x4 DUP1 CALLDATASIZE SUB DUP2 ADD SWAP1 PUSH2 0x337 SWAP2 SWAP1 PUSH2 0x1D11 JUMP JUMPDEST PUSH2 0x1B5A JUMP JUMPDEST STOP JUMPDEST CALLVALUE DUP1 ISZERO PUSH2 0x34A JUMPI PUSH1 0x0 DUP1 REVERT JUMPDEST POP PUSH2 0x353 PUSH2 0x1C4C JUMP JUMPDEST PUSH1 0x40 MLOAD PUSH2 0x360 SWAP2 SWAP1 PUSH2 0x1E50 JUMP JUMPDEST PUSH1 0x40 MLOAD DUP1 SWAP2 SUB SWAP1 RETURN JUMPDEST CALLVALUE DUP1 ISZERO PUSH2 0x375 JUMPI PUSH1 0x0 DUP1 REVERT JUMPDEST POP PUSH2 0x37E PUSH2 0x1C70 JUMP JUMPDEST PUSH1 0x40 MLOAD PUSH2 0x38B SWAP2 SWAP1 PUSH2 0x1E87 JUMP JUMPDEST PUSH1 0x40 MLOAD DUP1 SWAP2 SUB SWAP1 RETURN JUMPDEST CALLVALUE DUP1 ISZERO PUSH2 0x3A0 JUMPI PUSH1 0x0 DUP1 REVERT JUMPDEST POP PUSH2 0x3BB PUSH1 0x4 DUP1 CALLDATASIZE SUB DUP2 ADD SWAP1 PUSH2 0x3B6 SWAP2 SWAP1 PUSH2 0x1D11 JUMP JUMPDEST PUSH2 0x1C83 JUMP JUMPDEST PUSH1 0x40 MLOAD PUSH2 0x3C8 SWAP2 SWAP1 PUSH2 0x1E26 JUMP JUMPDEST PUSH1 0x40 MLOAD DUP1 SWAP2 SUB SWAP1 RETURN JUMPDEST CALLVALUE DUP1 ISZERO PUSH2 0x3DD JUMPI PUSH1 0x0 DUP1 REVERT JUMPDEST POP PUSH2 0x3E6 PUSH2 0x1C9B JUMP JUMPDEST PUSH1 0x40 MLOAD PUSH2 0x3F3 SWAP2 SWAP1 PUSH2 0x1E87 JUMP JUMPDEST PUSH1 0x40 MLOAD DUP1 SWAP2 SUB SWAP1 RETURN JUMPDEST PUSH32 0x0 PUSH20 0xFFFFFFFFFFFFFFFFFFFFFFFFFFFFFFFFFFFFFFFF AND CALLER PUSH20 0xFFFFFFFFFFFFFFFFFFFFFFFFFFFFFFFFFFFFFFFF AND EQ PUSH2 0x454 JUMPI PUSH1 0x0 DUP1 REVERT JUMPDEST PUSH1 0x1 DUP1 PUSH1 0x0 DUP4 PUSH20 0xFFFFFFFFFFFFFFFFFFFFFFFFFFFFFFFFFFFFFFFF AND PUSH20 0xFFFFFFFFFFFFFFFFFFFFFFFFFFFFFFFFFFFFFFFF AND DUP2 MSTORE PUSH1 0x20 ADD SWAP1 DUP2 MSTORE PUSH1 0x20 ADD PUSH1 0x0 KECCAK256 DUP2 SWAP1 SSTORE POP POP JUMP JUMPDEST PUSH32 0x0 PUSH20 0xFFFFFFFFFFFFFFFFFFFFFFFFFFFFFFFFFFFFFFFF AND CALLER PUSH20 0xFFFFFFFFFFFFFFFFFFFFFFFFFFFFFFFFFFFFFFFF AND EQ PUSH2 0x4F3 JUMPI PUSH1 0x0 DUP1 REVERT JUMPDEST PUSH1 0x0 DUP1 PUSH1 0x0 SWAP1 SLOAD SWAP1 PUSH2 0x100 EXP SWAP1 DIV PUSH20 0xFFFFFFFFFFFFFFFFFFFFFFFFFFFFFFFFFFFFFFFF AND SWAP1 POP DUP1 PUSH20 0xFFFFFFFFFFFFFFFFFFFFFFFFFFFFFFFFFFFFFFFF AND PUSH4 0x8AE91695 DUP4 PUSH1 0x40 MLOAD DUP3 PUSH4 0xFFFFFFFF AND PUSH1 0xE0 SHL DUP2 MSTORE PUSH1 0x4 ADD PUSH2 0x552 SWAP2 SWAP1 PUSH2 0x1E50 JUMP JUMPDEST PUSH1 0x0 PUSH1 0x40 MLOAD DUP1 DUP4 SUB DUP2 PUSH1 0x0 DUP8 DUP1 EXTCODESIZE ISZERO DUP1 ISZERO PUSH2 0x56C JUMPI PUSH1 0x0 DUP1 REVERT JUMPDEST POP GAS CALL ISZERO DUP1 ISZERO PUSH2 0x580 JUMPI RETURNDATASIZE PUSH1 0x0 DUP1 RETURNDATACOPY RETURNDATASIZE PUSH1 0x0 REVERT JUMPDEST POP POP POP POP DUP2 PUSH20 0xFFFFFFFFFFFFFFFFFFFFFFFFFFFFFFFFFFFFFFFF AND DUP2 PUSH1 0x40 MLOAD PUSH1 0x24 ADD PUSH2 0x5AC SWAP2 SWAP1 PUSH2 0x1E50 JUMP JUMPDEST PUSH1 0x40 MLOAD PUSH1 0x20 DUP2 DUP4 SUB SUB DUP2 MSTORE SWAP1 PUSH1 0x40 MSTORE PUSH32 0xCF9D4AFA00000000000000000000000000000000000000000000000000000000 PUSH28 0xFFFFFFFFFFFFFFFFFFFFFFFFFFFFFFFFFFFFFFFFFFFFFFFFFFFFFFFF NOT AND PUSH1 0x20 DUP3 ADD DUP1 MLOAD PUSH28 0xFFFFFFFFFFFFFFFFFFFFFFFFFFFFFFFFFFFFFFFFFFFFFFFFFFFFFFFF DUP4 DUP2 DUP4 AND OR DUP4 MSTORE POP POP POP POP PUSH1 0x40 MLOAD PUSH2 0x636 SWAP2 SWAP1 PUSH2 0x1F1C JUMP JUMPDEST PUSH1 0x0 PUSH1 0x40 MLOAD DUP1 DUP4 SUB DUP2 DUP6 GAS DELEGATECALL SWAP2 POP POP RETURNDATASIZE DUP1 PUSH1 0x0 DUP2 EQ PUSH2 0x671 JUMPI PUSH1 0x40 MLOAD SWAP2 POP PUSH1 0x1F NOT PUSH1 0x3F RETURNDATASIZE ADD AND DUP3 ADD PUSH1 0x40 MSTORE RETURNDATASIZE DUP3 MSTORE RETURNDATASIZE PUSH1 0x0 PUSH1 0x20 DUP5 ADD RETURNDATACOPY PUSH2 0x676 JUMP JUMPDEST PUSH1 0x60 SWAP2 POP JUMPDEST POP POP POP PUSH32 0x0 PUSH20 0xFFFFFFFFFFFFFFFFFFFFFFFFFFFFFFFFFFFFFFFF AND SELFDESTRUCT JUMPDEST PUSH1 0x1 PUSH1 0x2 PUSH1 0x0 CALLER PUSH20 0xFFFFFFFFFFFFFFFFFFFFFFFFFFFFFFFFFFFFFFFF AND PUSH20 0xFFFFFFFFFFFFFFFFFFFFFFFFFFFFFFFFFFFFFFFF AND DUP2 MSTORE PUSH1 0x20 ADD SWAP1 DUP2 MSTORE PUSH1 0x20 ADD PUSH1 0x0 KECCAK256 SLOAD SUB PUSH2 0x6FE JUMPI PUSH1 0x0 DUP1 REVERT JUMPDEST PUSH1 0x0 PUSH1 0x3 PUSH1 0x0 SWAP1 SLOAD SWAP1 PUSH2 0x100 EXP SWAP1 DIV PUSH1 0xFF AND PUSH1 0xFF AND EQ PUSH2 0x71D JUMPI PUSH1 0x0 DUP1 REVERT JUMPDEST DUP2 PUSH1 0x1 DUP1 PUSH1 0x0 DUP4 PUSH20 0xFFFFFFFFFFFFFFFFFFFFFFFFFFFFFFFFFFFFFFFF AND PUSH20 0xFFFFFFFFFFFFFFFFFFFFFFFFFFFFFFFFFFFFFFFF AND DUP2 MSTORE PUSH1 0x20 ADD SWAP1 DUP2 MSTORE PUSH1 0x20 ADD PUSH1 0x0 KECCAK256 SLOAD EQ PUSH2 0x769 JUMPI PUSH1 0x0 DUP1 REVERT JUMPDEST PUSH1 0x0 DUP1 PUSH1 0x0 SWAP1 SLOAD SWAP1 PUSH2 0x100 EXP SWAP1 DIV PUSH20 0xFFFFFFFFFFFFFFFFFFFFFFFFFFFFFFFFFFFFFFFF AND SWAP1 POP PUSH1 0x0 DUP2 PUSH20 0xFFFFFFFFFFFFFFFFFFFFFFFFFFFFFFFFFFFFFFFF AND PUSH4 0x11CE0267 PUSH1 0x40 MLOAD DUP2 PUSH4 0xFFFFFFFF AND PUSH1 0xE0 SHL DUP2 MSTORE PUSH1 0x4 ADD PUSH1 0x20 PUSH1 0x40 MLOAD DUP1 DUP4 SUB DUP2 DUP7 GAS STATICCALL ISZERO DUP1 ISZERO PUSH2 0x7DC JUMPI RETURNDATASIZE PUSH1 0x0 DUP1 RETURNDATACOPY RETURNDATASIZE PUSH1 0x0 REVERT JUMPDEST POP POP POP POP PUSH1 0x40 MLOAD RETURNDATASIZE PUSH1 0x1F NOT PUSH1 0x1F DUP3 ADD AND DUP3 ADD DUP1 PUSH1 0x40 MSTORE POP DUP2 ADD SWAP1 PUSH2 0x800 SWAP2 SWAP1 PUSH2 0x1F48 JUMP JUMPDEST SWAP1 POP PUSH1 0x0 DUP2 PUSH20 0xFFFFFFFFFFFFFFFFFFFFFFFFFFFFFFFFFFFFFFFF AND PUSH4 0xCB1982B DUP5 PUSH20 0xFFFFFFFFFFFFFFFFFFFFFFFFFFFFFFFFFFFFFFFF AND PUSH4 0xDA8909E5 PUSH1 0x40 MLOAD DUP2 PUSH4 0xFFFFFFFF AND PUSH1 0xE0 SHL DUP2 MSTORE PUSH1 0x4 ADD PUSH1 0x20 PUSH1 0x40 MLOAD DUP1 DUP4 SUB DUP2 DUP7 GAS STATICCALL ISZERO DUP1 ISZERO PUSH2 0x86B JUMPI RETURNDATASIZE PUSH1 0x0 DUP1 RETURNDATACOPY RETURNDATASIZE PUSH1 0x0 REVERT JUMPDEST POP POP POP POP PUSH1 0x40 MLOAD RETURNDATASIZE PUSH1 0x1F NOT PUSH1 0x1F DUP3 ADD AND DUP3 ADD DUP1 PUSH1 0x40 MSTORE POP DUP2 ADD SWAP1 PUSH2 0x88F SWAP2 SWAP1 PUSH2 0x1F48 JUMP JUMPDEST PUSH20 0xFFFFFFFFFFFFFFFFFFFFFFFFFFFFFFFFFFFFFFFF AND PUSH4 0xBDEDD45E PUSH1 0x0 PUSH1 0x40 MLOAD DUP3 PUSH4 0xFFFFFFFF AND PUSH1 0xE0 SHL DUP2 MSTORE PUSH1 0x4 ADD PUSH2 0x8C8 SWAP2 SWAP1 PUSH2 0x1FBA JUMP JUMPDEST PUSH1 0x20 PUSH1 0x40 MLOAD DUP1 DUP4 SUB DUP2 PUSH1 0x0 DUP8 GAS CALL ISZERO DUP1 ISZERO PUSH2 0x8E7 JUMPI RETURNDATASIZE PUSH1 0x0 DUP1 RETURNDATACOPY RETURNDATASIZE PUSH1 0x0 REVERT JUMPDEST POP POP POP POP PUSH1 0x40 MLOAD RETURNDATASIZE PUSH1 0x1F NOT PUSH1 0x1F DUP3 ADD AND DUP3 ADD DUP1 PUSH1 0x40 MSTORE POP DUP2 ADD SWAP1 PUSH2 0x90B SWAP2 SWAP1 PUSH2 0x1FEA JUMP JUMPDEST PUSH1 0x40 MLOAD DUP3 PUSH4 0xFFFFFFFF AND PUSH1 0xE0 SHL DUP2 MSTORE PUSH1 0x4 ADD PUSH2 0x927 SWAP2 SWAP1 PUSH2 0x1E26 JUMP JUMPDEST PUSH1 0x20 PUSH1 0x40 MLOAD DUP1 DUP4 SUB DUP2 PUSH1 0x0 DUP8 GAS CALL ISZERO DUP1 ISZERO PUSH2 0x946 JUMPI RETURNDATASIZE PUSH1 0x0 DUP1 RETURNDATACOPY RETURNDATASIZE PUSH1 0x0 REVERT JUMPDEST POP POP POP POP PUSH1 0x40 MLOAD RETURNDATASIZE PUSH1 0x1F NOT PUSH1 0x1F DUP3 ADD AND DUP3 ADD DUP1 PUSH1 0x40 MSTORE POP DUP2 ADD SWAP1 PUSH2 0x96A SWAP2 SWAP1 PUSH2 0x1FEA JUMP JUMPDEST SWAP1 POP PUSH1 0x0 DUP1 DUP8 PUSH20 0xFFFFFFFFFFFFFFFFFFFFFFFFFFFFFFFFFFFFFFFF AND PUSH4 0x313CE567 PUSH1 0x40 MLOAD DUP2 PUSH4 0xFFFFFFFF AND PUSH1 0xE0 SHL DUP2 MSTORE PUSH1 0x4 ADD PUSH1 0x20 PUSH1 0x40 MLOAD DUP1 DUP4 SUB DUP2 DUP7 GAS STATICCALL ISZERO DUP1 ISZERO PUSH2 0x9BA JUMPI RETURNDATASIZE PUSH1 0x0 DUP1 RETURNDATACOPY RETURNDATASIZE PUSH1 0x0 REVERT JUMPDEST POP POP POP POP PUSH1 0x40 MLOAD RETURNDATASIZE PUSH1 0x1F NOT PUSH1 0x1F DUP3 ADD AND DUP3 ADD DUP1 PUSH1 0x40 MSTORE POP DUP2 ADD SWAP1 PUSH2 0x9DE SWAP2 SWAP1 PUSH2 0x2043 JUMP JUMPDEST PUSH1 0xFF AND SWAP1 POP PUSH1 0x0 DUP9 PUSH20 0xFFFFFFFFFFFFFFFFFFFFFFFFFFFFFFFFFFFFFFFF AND PUSH4 0x18160DDD PUSH1 0x40 MLOAD DUP2 PUSH4 0xFFFFFFFF AND PUSH1 0xE0 SHL DUP2 MSTORE PUSH1 0x4 ADD PUSH1 0x20 PUSH1 0x40 MLOAD DUP1 DUP4 SUB DUP2 DUP7 GAS STATICCALL ISZERO DUP1 ISZERO PUSH2 0xA30 JUMPI RETURNDATASIZE PUSH1 0x0 DUP1 RETURNDATACOPY RETURNDATASIZE PUSH1 0x0 REVERT JUMPDEST POP POP POP POP PUSH1 0x40 MLOAD RETURNDATASIZE PUSH1 0x1F NOT PUSH1 0x1F DUP3 ADD AND DUP3 ADD DUP1 PUSH1 0x40 MSTORE POP DUP2 ADD SWAP1 PUSH2 0xA54 SWAP2 SWAP1 PUSH2 0x1FEA JUMP JUMPDEST SWAP1 POP PUSH1 0x0 DUP2 EQ DUP1 ISZERO PUSH2 0xA66 JUMPI POP PUSH1 0x0 DUP5 EQ JUMPDEST POP PUSH1 0x12 DUP3 LT ISZERO PUSH2 0xAB1 JUMPI DUP2 PUSH1 0x12 PUSH2 0xA7D SWAP2 SWAP1 PUSH2 0x209F JUMP JUMPDEST PUSH1 0xA PUSH2 0xA89 SWAP2 SWAP1 PUSH2 0x2206 JUMP JUMPDEST DUP2 DUP6 PUSH2 0xA95 SWAP2 SWAP1 PUSH2 0x2280 JUMP JUMPDEST DUP10 PUSH2 0xAA0 SWAP2 SWAP1 PUSH2 0x22B1 JUMP JUMPDEST PUSH2 0xAAA SWAP2 SWAP1 PUSH2 0x2280 JUMP JUMPDEST SWAP3 POP PUSH2 0xACB JUMP JUMPDEST DUP1 DUP5 PUSH2 0xABD SWAP2 SWAP1 PUSH2 0x2280 JUMP JUMPDEST DUP9 PUSH2 0xAC8 SWAP2 SWAP1 PUSH2 0x22B1 JUMP JUMPDEST SWAP3 POP JUMPDEST DUP9 PUSH20 0xFFFFFFFFFFFFFFFFFFFFFFFFFFFFFFFFFFFFFFFF AND PUSH4 0x23B872DD CALLER DUP8 DUP7 PUSH1 0x40 MLOAD DUP5 PUSH4 0xFFFFFFFF AND PUSH1 0xE0 SHL DUP2 MSTORE PUSH1 0x4 ADD PUSH2 0xB08 SWAP4 SWAP3 SWAP2 SWAP1 PUSH2 0x230B JUMP JUMPDEST PUSH1 0x20 PUSH1 0x40 MLOAD DUP1 DUP4 SUB DUP2 PUSH1 0x0 DUP8 GAS CALL ISZERO DUP1 ISZERO PUSH2 0xB27 JUMPI RETURNDATASIZE PUSH1 0x0 DUP1 RETURNDATACOPY RETURNDATASIZE PUSH1 0x0 REVERT JUMPDEST POP POP POP POP PUSH1 0x40 MLOAD RETURNDATASIZE PUSH1 0x1F NOT PUSH1 0x1F DUP3 ADD AND DUP3 ADD DUP1 PUSH1 0x40 MSTORE POP DUP2 ADD SWAP1 PUSH2 0xB4B SWAP2 SWAP1 PUSH2 0x236E JUMP JUMPDEST PUSH2 0xB54 JUMPI PUSH1 0x0 DUP1 REVERT JUMPDEST DUP6 PUSH20 0xFFFFFFFFFFFFFFFFFFFFFFFFFFFFFFFFFFFFFFFF AND PUSH4 0xFC0C546A PUSH1 0x40 MLOAD DUP2 PUSH4 0xFFFFFFFF AND PUSH1 0xE0 SHL DUP2 MSTORE PUSH1 0x4 ADD PUSH1 0x20 PUSH1 0x40 MLOAD DUP1 DUP4 SUB DUP2 DUP7 GAS STATICCALL ISZERO DUP1 ISZERO PUSH2 0xB9F JUMPI RETURNDATASIZE PUSH1 0x0 DUP1 RETURNDATACOPY RETURNDATASIZE PUSH1 0x0 REVERT JUMPDEST POP POP POP POP PUSH1 0x40 MLOAD RETURNDATASIZE PUSH1 0x1F NOT PUSH1 0x1F DUP3 ADD AND DUP3 ADD DUP1 PUSH1 0x40 MSTORE POP DUP2 ADD SWAP1 PUSH2 0xBC3 SWAP2 SWAP1 PUSH2 0x1F48 JUMP JUMPDEST PUSH20 0xFFFFFFFFFFFFFFFFFFFFFFFFFFFFFFFFFFFFFFFF AND PUSH4 0x40C10F19 CALLER DUP11 PUSH1 0x40 MLOAD DUP4 PUSH4 0xFFFFFFFF AND PUSH1 0xE0 SHL DUP2 MSTORE PUSH1 0x4 ADD PUSH2 0xBFD SWAP3 SWAP2 SWAP1 PUSH2 0x239B JUMP JUMPDEST PUSH1 0x20 PUSH1 0x40 MLOAD DUP1 DUP4 SUB DUP2 PUSH1 0x0 DUP8 GAS CALL ISZERO DUP1 ISZERO PUSH2 0xC1C JUMPI RETURNDATASIZE PUSH1 0x0 DUP1 RETURNDATACOPY RETURNDATASIZE PUSH1 0x0 REVERT JUMPDEST POP POP POP POP PUSH1 0x40 MLOAD RETURNDATASIZE PUSH1 0x1F NOT PUSH1 0x1F DUP3 ADD AND DUP3 ADD DUP1 PUSH1 0x40 MSTORE POP DUP2 ADD SWAP1 PUSH2 0xC40 SWAP2 SWAP1 PUSH2 0x236E JUMP JUMPDEST PUSH2 0xC49 JUMPI PUSH1 0x0 DUP1 REVERT JUMPDEST POP POP POP POP POP POP POP POP POP JUMP JUMPDEST PUSH32 0x0 PUSH20 0xFFFFFFFFFFFFFFFFFFFFFFFFFFFFFFFFFFFFFFFF AND CALLER PUSH20 0xFFFFFFFFFFFFFFFFFFFFFFFFFFFFFFFFFFFFFFFF AND EQ PUSH2 0xCAC JUMPI PUSH1 0x0 DUP1 REVERT JUMPDEST PUSH1 0x0 PUSH1 0x1 PUSH1 0x0 DUP4 PUSH20 0xFFFFFFFFFFFFFFFFFFFFFFFFFFFFFFFFFFFFFFFF AND PUSH20 0xFFFFFFFFFFFFFFFFFFFFFFFFFFFFFFFFFFFFFFFF AND DUP2 MSTORE PUSH1 0x20 ADD SWAP1 DUP2 MSTORE PUSH1 0x20 ADD PUSH1 0x0 KECCAK256 DUP2 SWAP1 SSTORE POP POP JUMP JUMPDEST PUSH1 0x0 PUSH32 0x0 PUSH20 0xFFFFFFFFFFFFFFFFFFFFFFFFFFFFFFFFFFFFFFFF AND CALLER PUSH20 0xFFFFFFFFFFFFFFFFFFFFFFFFFFFFFFFFFFFFFFFF AND EQ PUSH2 0xD4E JUMPI PUSH1 0x0 DUP1 REVERT JUMPDEST PUSH1 0x1 PUSH1 0x2 PUSH1 0x0 DUP5 PUSH20 0xFFFFFFFFFFFFFFFFFFFFFFFFFFFFFFFFFFFFFFFF AND PUSH20 0xFFFFFFFFFFFFFFFFFFFFFFFFFFFFFFFFFFFFFFFF AND DUP2 MSTORE PUSH1 0x20 ADD SWAP1 DUP2 MSTORE PUSH1 0x20 ADD PUSH1 0x0 KECCAK256 DUP2 SWAP1 SSTORE POP PUSH1 0x1 SWAP1 POP SWAP2 SWAP1 POP JUMP JUMPDEST PUSH1 0x0 PUSH32 0x0 PUSH20 0xFFFFFFFFFFFFFFFFFFFFFFFFFFFFFFFFFFFFFFFF AND CALLER PUSH20 0xFFFFFFFFFFFFFFFFFFFFFFFFFFFFFFFFFFFFFFFF AND EQ PUSH2 0xDF6 JUMPI PUSH1 0x0 DUP1 REVERT JUMPDEST PUSH1 0x0 PUSH1 0x2 PUSH1 0x0 DUP5 PUSH20 0xFFFFFFFFFFFFFFFFFFFFFFFFFFFFFFFFFFFFFFFF AND PUSH20 0xFFFFFFFFFFFFFFFFFFFFFFFFFFFFFFFFFFFFFFFF AND DUP2 MSTORE PUSH1 0x20 ADD SWAP1 DUP2 MSTORE PUSH1 0x20 ADD PUSH1 0x0 KECCAK256 DUP2 SWAP1 SSTORE POP PUSH1 0x1 SWAP1 POP SWAP2 SWAP1 POP JUMP JUMPDEST PUSH32 0x0 PUSH20 0xFFFFFFFFFFFFFFFFFFFFFFFFFFFFFFFFFFFFFFFF AND CALLER PUSH20 0xFFFFFFFFFFFFFFFFFFFFFFFFFFFFFFFFFFFFFFFF AND EQ PUSH2 0xE9C JUMPI PUSH1 0x0 DUP1 REVERT JUMPDEST PUSH1 0x0 PUSH1 0x3 PUSH1 0x0 PUSH2 0x100 EXP DUP2 SLOAD DUP2 PUSH1 0xFF MUL NOT AND SWAP1 DUP4 PUSH1 0xFF AND MUL OR SWAP1 SSTORE POP JUMP JUMPDEST PUSH1 0x1 PUSH1 0x2 PUSH1 0x0 CALLER PUSH20 0xFFFFFFFFFFFFFFFFFFFFFFFFFFFFFFFFFFFFFFFF AND PUSH20 0xFFFFFFFFFFFFFFFFFFFFFFFFFFFFFFFFFFFFFFFF AND DUP2 MSTORE PUSH1 0x20 ADD SWAP1 DUP2 MSTORE PUSH1 0x20 ADD PUSH1 0x0 KECCAK256 SLOAD SUB PUSH2 0xF06 JUMPI PUSH1 0x0 DUP1 REVERT JUMPDEST PUSH1 0x0 PUSH1 0x3 PUSH1 0x0 SWAP1 SLOAD SWAP1 PUSH2 0x100 EXP SWAP1 DIV PUSH1 0xFF AND PUSH1 0xFF AND EQ PUSH2 0xF25 JUMPI PUSH1 0x0 DUP1 REVERT JUMPDEST PUSH1 0x0 DUP1 PUSH1 0x0 SWAP1 SLOAD SWAP1 PUSH2 0x100 EXP SWAP1 DIV PUSH20 0xFFFFFFFFFFFFFFFFFFFFFFFFFFFFFFFFFFFFFFFF AND SWAP1 POP PUSH1 0x0 DUP2 PUSH20 0xFFFFFFFFFFFFFFFFFFFFFFFFFFFFFFFFFFFFFFFF AND PUSH4 0x11CE0267 PUSH1 0x40 MLOAD DUP2 PUSH4 0xFFFFFFFF AND PUSH1 0xE0 SHL DUP2 MSTORE PUSH1 0x4 ADD PUSH1 0x20 PUSH1 0x40 MLOAD DUP1 DUP4 SUB DUP2 DUP7 GAS STATICCALL ISZERO DUP1 ISZERO PUSH2 0xF98 JUMPI RETURNDATASIZE PUSH1 0x0 DUP1 RETURNDATACOPY RETURNDATASIZE PUSH1 0x0 REVERT JUMPDEST POP POP POP POP PUSH1 0x40 MLOAD RETURNDATASIZE PUSH1 0x1F NOT PUSH1 0x1F DUP3 ADD AND DUP3 ADD DUP1 PUSH1 0x40 MSTORE POP DUP2 ADD SWAP1 PUSH2 0xFBC SWAP2 SWAP1 PUSH2 0x1F48 JUMP JUMPDEST SWAP1 POP PUSH1 0x0 DUP3 PUSH20 0xFFFFFFFFFFFFFFFFFFFFFFFFFFFFFFFFFFFFFFFF AND PUSH4 0xFC0C546A PUSH1 0x40 MLOAD DUP2 PUSH4 0xFFFFFFFF AND PUSH1 0xE0 SHL DUP2 MSTORE PUSH1 0x4 ADD PUSH1 0x20 PUSH1 0x40 MLOAD DUP1 DUP4 SUB DUP2 DUP7 GAS STATICCALL ISZERO DUP1 ISZERO PUSH2 0x100B JUMPI RETURNDATASIZE PUSH1 0x0 DUP1 RETURNDATACOPY RETURNDATASIZE PUSH1 0x0 REVERT JUMPDEST POP POP POP POP PUSH1 0x40 MLOAD RETURNDATASIZE PUSH1 0x1F NOT PUSH1 0x1F DUP3 ADD AND DUP3 ADD DUP1 PUSH1 0x40 MSTORE POP DUP2 ADD SWAP1 PUSH2 0x102F SWAP2 SWAP1 PUSH2 0x1F48 JUMP JUMPDEST SWAP1 POP DUP1 PUSH20 0xFFFFFFFFFFFFFFFFFFFFFFFFFFFFFFFFFFFFFFFF AND PUSH4 0x79CC6790 CALLER DUP7 PUSH1 0x40 MLOAD DUP4 PUSH4 0xFFFFFFFF AND PUSH1 0xE0 SHL DUP2 MSTORE PUSH1 0x4 ADD PUSH2 0x106C SWAP3 SWAP2 SWAP1 PUSH2 0x239B JUMP JUMPDEST PUSH1 0x20 PUSH1 0x40 MLOAD DUP1 DUP4 SUB DUP2 PUSH1 0x0 DUP8 GAS CALL ISZERO DUP1 ISZERO PUSH2 0x108B JUMPI RETURNDATASIZE PUSH1 0x0 DUP1 RETURNDATACOPY RETURNDATASIZE PUSH1 0x0 REVERT JUMPDEST POP POP POP POP PUSH1 0x40 MLOAD RETURNDATASIZE PUSH1 0x1F NOT PUSH1 0x1F DUP3 ADD AND DUP3 ADD DUP1 PUSH1 0x40 MSTORE POP DUP2 ADD SWAP1 PUSH2 0x10AF SWAP2 SWAP1 PUSH2 0x236E JUMP JUMPDEST PUSH2 0x10B8 JUMPI PUSH1 0x0 DUP1 REVERT JUMPDEST PUSH1 0x0 DUP3 PUSH20 0xFFFFFFFFFFFFFFFFFFFFFFFFFFFFFFFFFFFFFFFF AND PUSH4 0xCB1982B DUP6 PUSH20 0xFFFFFFFFFFFFFFFFFFFFFFFFFFFFFFFFFFFFFFFF AND PUSH4 0xDA8909E5 PUSH1 0x40 MLOAD DUP2 PUSH4 0xFFFFFFFF AND PUSH1 0xE0 SHL DUP2 MSTORE PUSH1 0x4 ADD PUSH1 0x20 PUSH1 0x40 MLOAD DUP1 DUP4 SUB DUP2 DUP7 GAS STATICCALL ISZERO DUP1 ISZERO PUSH2 0x1121 JUMPI RETURNDATASIZE PUSH1 0x0 DUP1 RETURNDATACOPY RETURNDATASIZE PUSH1 0x0 REVERT JUMPDEST POP POP POP POP PUSH1 0x40 MLOAD RETURNDATASIZE PUSH1 0x1F NOT PUSH1 0x1F DUP3 ADD AND DUP3 ADD DUP1 PUSH1 0x40 MSTORE POP DUP2 ADD SWAP1 PUSH2 0x1145 SWAP2 SWAP1 PUSH2 0x1F48 JUMP JUMPDEST PUSH20 0xFFFFFFFFFFFFFFFFFFFFFFFFFFFFFFFFFFFFFFFF AND PUSH4 0xBDEDD45E PUSH1 0x1 PUSH1 0x40 MLOAD DUP3 PUSH4 0xFFFFFFFF AND PUSH1 0xE0 SHL DUP2 MSTORE PUSH1 0x4 ADD PUSH2 0x117E SWAP2 SWAP1 PUSH2 0x23FF JUMP JUMPDEST PUSH1 0x20 PUSH1 0x40 MLOAD DUP1 DUP4 SUB DUP2 PUSH1 0x0 DUP8 GAS CALL ISZERO DUP1 ISZERO PUSH2 0x119D JUMPI RETURNDATASIZE PUSH1 0x0 DUP1 RETURNDATACOPY RETURNDATASIZE PUSH1 0x0 REVERT JUMPDEST POP POP POP POP PUSH1 0x40 MLOAD RETURNDATASIZE PUSH1 0x1F NOT PUSH1 0x1F DUP3 ADD AND DUP3 ADD DUP1 PUSH1 0x40 MSTORE POP DUP2 ADD SWAP1 PUSH2 0x11C1 SWAP2 SWAP1 PUSH2 0x1FEA JUMP JUMPDEST PUSH1 0x40 MLOAD DUP3 PUSH4 0xFFFFFFFF AND PUSH1 0xE0 SHL DUP2 MSTORE PUSH1 0x4 ADD PUSH2 0x11DD SWAP2 SWAP1 PUSH2 0x1E26 JUMP JUMPDEST PUSH1 0x20 PUSH1 0x40 MLOAD DUP1 DUP4 SUB DUP2 PUSH1 0x0 DUP8 GAS CALL ISZERO DUP1 ISZERO PUSH2 0x11FC JUMPI RETURNDATASIZE PUSH1 0x0 DUP1 RETURNDATACOPY RETURNDATASIZE PUSH1 0x0 REVERT JUMPDEST POP POP POP POP PUSH1 0x40 MLOAD RETURNDATASIZE PUSH1 0x1F NOT PUSH1 0x1F DUP3 ADD AND DUP3 ADD DUP1 PUSH1 0x40 MSTORE POP DUP2 ADD SWAP1 PUSH2 0x1220 SWAP2 SWAP1 PUSH2 0x1FEA JUMP JUMPDEST SWAP1 POP PUSH1 0x0 DUP3 PUSH20 0xFFFFFFFFFFFFFFFFFFFFFFFFFFFFFFFFFFFFFFFF AND PUSH4 0x18160DDD PUSH1 0x40 MLOAD DUP2 PUSH4 0xFFFFFFFF AND PUSH1 0xE0 SHL DUP2 MSTORE PUSH1 0x4 ADD PUSH1 0x20 PUSH1 0x40 MLOAD DUP1 DUP4 SUB DUP2 DUP7 GAS STATICCALL ISZERO DUP1 ISZERO PUSH2 0x126F JUMPI RETURNDATASIZE PUSH1 0x0 DUP1 RETURNDATACOPY RETURNDATASIZE PUSH1 0x0 REVERT JUMPDEST POP POP POP POP PUSH1 0x40 MLOAD RETURNDATASIZE PUSH1 0x1F NOT PUSH1 0x1F DUP3 ADD AND DUP3 ADD DUP1 PUSH1 0x40 MSTORE POP DUP2 ADD SWAP1 PUSH2 0x1293 SWAP2 SWAP1 PUSH2 0x1FEA JUMP JUMPDEST SWAP1 POP PUSH1 0x0 DUP2 DUP4 PUSH2 0x12A3 SWAP2 SWAP1 PUSH2 0x2280 JUMP JUMPDEST DUP8 PUSH2 0x12AE SWAP2 SWAP1 PUSH2 0x22B1 JUMP JUMPDEST SWAP1 POP DUP5 PUSH20 0xFFFFFFFFFFFFFFFFFFFFFFFFFFFFFFFFFFFFFFFF AND PUSH4 0x990DC9DB CALLER DUP4 PUSH1 0x40 MLOAD DUP4 PUSH4 0xFFFFFFFF AND PUSH1 0xE0 SHL DUP2 MSTORE PUSH1 0x4 ADD PUSH2 0x12EB SWAP3 SWAP2 SWAP1 PUSH2 0x239B JUMP JUMPDEST PUSH1 0x20 PUSH1 0x40 MLOAD DUP1 DUP4 SUB DUP2 PUSH1 0x0 DUP8 GAS CALL ISZERO DUP1 ISZERO PUSH2 0x130A JUMPI RETURNDATASIZE PUSH1 0x0 DUP1 RETURNDATACOPY RETURNDATASIZE PUSH1 0x0 REVERT JUMPDEST POP POP POP POP PUSH1 0x40 MLOAD RETURNDATASIZE PUSH1 0x1F NOT PUSH1 0x1F DUP3 ADD AND DUP3 ADD DUP1 PUSH1 0x40 MSTORE POP DUP2 ADD SWAP1 PUSH2 0x132E SWAP2 SWAP1 PUSH2 0x236E JUMP JUMPDEST PUSH2 0x1337 JUMPI PUSH1 0x0 DUP1 REVERT JUMPDEST POP POP POP POP POP POP POP JUMP JUMPDEST PUSH1 0x1 PUSH1 0x20 MSTORE DUP1 PUSH1 0x0 MSTORE PUSH1 0x40 PUSH1 0x0 KECCAK256 PUSH1 0x0 SWAP2 POP SWAP1 POP SLOAD DUP2 JUMP JUMPDEST PUSH1 0x1 PUSH1 0x2 PUSH1 0x0 CALLER PUSH20 0xFFFFFFFFFFFFFFFFFFFFFFFFFFFFFFFFFFFFFFFF AND PUSH20 0xFFFFFFFFFFFFFFFFFFFFFFFFFFFFFFFFFFFFFFFF AND DUP2 MSTORE PUSH1 0x20 ADD SWAP1 DUP2 MSTORE PUSH1 0x20 ADD PUSH1 0x0 KECCAK256 SLOAD SUB PUSH2 0x13A4 JUMPI PUSH1 0x0 DUP1 REVERT JUMPDEST PUSH1 0x0 PUSH1 0x3 PUSH1 0x0 SWAP1 SLOAD SWAP1 PUSH2 0x100 EXP SWAP1 DIV PUSH1 0xFF AND PUSH1 0xFF AND EQ PUSH2 0x13C3 JUMPI PUSH1 0x0 DUP1 REVERT JUMPDEST DUP2 PUSH1 0x1 DUP1 PUSH1 0x0 DUP4 PUSH20 0xFFFFFFFFFFFFFFFFFFFFFFFFFFFFFFFFFFFFFFFF AND PUSH20 0xFFFFFFFFFFFFFFFFFFFFFFFFFFFFFFFFFFFFFFFF AND DUP2 MSTORE PUSH1 0x20 ADD SWAP1 DUP2 MSTORE PUSH1 0x20 ADD PUSH1 0x0 KECCAK256 SLOAD EQ PUSH2 0x140F JUMPI PUSH1 0x0 DUP1 REVERT JUMPDEST PUSH1 0x0 DUP3 GT PUSH2 0x141C JUMPI PUSH1 0x0 DUP1 REVERT JUMPDEST PUSH1 0x0 DUP1 PUSH1 0x0 SWAP1 SLOAD SWAP1 PUSH2 0x100 EXP SWAP1 DIV PUSH20 0xFFFFFFFFFFFFFFFFFFFFFFFFFFFFFFFFFFFFFFFF AND SWAP1 POP PUSH1 0x0 DUP2 PUSH20 0xFFFFFFFFFFFFFFFFFFFFFFFFFFFFFFFFFFFFFFFF AND PUSH4 0x11CE0267 PUSH1 0x40 MLOAD DUP2 PUSH4 0xFFFFFFFF AND PUSH1 0xE0 SHL DUP2 MSTORE PUSH1 0x4 ADD PUSH1 0x20 PUSH1 0x40 MLOAD DUP1 DUP4 SUB DUP2 DUP7 GAS STATICCALL ISZERO DUP1 ISZERO PUSH2 0x148F JUMPI RETURNDATASIZE PUSH1 0x0 DUP1 RETURNDATACOPY RETURNDATASIZE PUSH1 0x0 REVERT JUMPDEST POP POP POP POP PUSH1 0x40 MLOAD RETURNDATASIZE PUSH1 0x1F NOT PUSH1 0x1F DUP3 ADD AND DUP3 ADD DUP1 PUSH1 0x40 MSTORE POP DUP2 ADD SWAP1 PUSH2 0x14B3 SWAP2 SWAP1 PUSH2 0x1F48 JUMP JUMPDEST SWAP1 POP PUSH1 0x0 DUP2 PUSH20 0xFFFFFFFFFFFFFFFFFFFFFFFFFFFFFFFFFFFFFFFF AND PUSH4 0xCB1982B DUP5 PUSH20 0xFFFFFFFFFFFFFFFFFFFFFFFFFFFFFFFFFFFFFFFF AND PUSH4 0xDA8909E5 PUSH1 0x40 MLOAD DUP2 PUSH4 0xFFFFFFFF AND PUSH1 0xE0 SHL DUP2 MSTORE PUSH1 0x4 ADD PUSH1 0x20 PUSH1 0x40 MLOAD DUP1 DUP4 SUB DUP2 DUP7 GAS STATICCALL ISZERO DUP1 ISZERO PUSH2 0x151E JUMPI RETURNDATASIZE PUSH1 0x0 DUP1 RETURNDATACOPY RETURNDATASIZE PUSH1 0x0 REVERT JUMPDEST POP POP POP POP PUSH1 0x40 MLOAD RETURNDATASIZE PUSH1 0x1F NOT PUSH1 0x1F DUP3 ADD AND DUP3 ADD DUP1 PUSH1 0x40 MSTORE POP DUP2 ADD SWAP1 PUSH2 0x1542 SWAP2 SWAP1 PUSH2 0x1F48 JUMP JUMPDEST PUSH20 0xFFFFFFFFFFFFFFFFFFFFFFFFFFFFFFFFFFFFFFFF AND PUSH4 0xBDEDD45E PUSH1 0x0 PUSH1 0x40 MLOAD DUP3 PUSH4 0xFFFFFFFF AND PUSH1 0xE0 SHL DUP2 MSTORE PUSH1 0x4 ADD PUSH2 0x157B SWAP2 SWAP1 PUSH2 0x1FBA JUMP JUMPDEST PUSH1 0x20 PUSH1 0x40 MLOAD DUP1 DUP4 SUB DUP2 PUSH1 0x0 DUP8 GAS CALL ISZERO DUP1 ISZERO PUSH2 0x159A JUMPI RETURNDATASIZE PUSH1 0x0 DUP1 RETURNDATACOPY RETURNDATASIZE PUSH1 0x0 REVERT JUMPDEST POP POP POP POP PUSH1 0x40 MLOAD RETURNDATASIZE PUSH1 0x1F NOT PUSH1 0x1F DUP3 ADD AND DUP3 ADD DUP1 PUSH1 0x40 MSTORE POP DUP2 ADD SWAP1 PUSH2 0x15BE SWAP2 SWAP1 PUSH2 0x1FEA JUMP JUMPDEST PUSH1 0x40 MLOAD DUP3 PUSH4 0xFFFFFFFF AND PUSH1 0xE0 SHL DUP2 MSTORE PUSH1 0x4 ADD PUSH2 0x15DA SWAP2 SWAP1 PUSH2 0x1E26 JUMP JUMPDEST PUSH1 0x20 PUSH1 0x40 MLOAD DUP1 DUP4 SUB DUP2 PUSH1 0x0 DUP8 GAS CALL ISZERO DUP1 ISZERO PUSH2 0x15F9 JUMPI RETURNDATASIZE PUSH1 0x0 DUP1 RETURNDATACOPY RETURNDATASIZE PUSH1 0x0 REVERT JUMPDEST POP POP POP POP PUSH1 0x40 MLOAD RETURNDATASIZE PUSH1 0x1F NOT PUSH1 0x1F DUP3 ADD AND DUP3 ADD DUP1 PUSH1 0x40 MSTORE POP DUP2 ADD SWAP1 PUSH2 0x161D SWAP2 SWAP1 PUSH2 0x1FEA JUMP JUMPDEST SWAP1 POP PUSH1 0x0 DUP1 DUP8 PUSH20 0xFFFFFFFFFFFFFFFFFFFFFFFFFFFFFFFFFFFFFFFF AND PUSH4 0x313CE567 PUSH1 0x40 MLOAD DUP2 PUSH4 0xFFFFFFFF AND PUSH1 0xE0 SHL DUP2 MSTORE PUSH1 0x4 ADD PUSH1 0x20 PUSH1 0x40 MLOAD DUP1 DUP4 SUB DUP2 DUP7 GAS STATICCALL ISZERO DUP1 ISZERO PUSH2 0x166D JUMPI RETURNDATASIZE PUSH1 0x0 DUP1 RETURNDATACOPY RETURNDATASIZE PUSH1 0x0 REVERT JUMPDEST POP POP POP POP PUSH1 0x40 MLOAD RETURNDATASIZE PUSH1 0x1F NOT PUSH1 0x1F DUP3 ADD AND DUP3 ADD DUP1 PUSH1 0x40 MSTORE POP DUP2 ADD SWAP1 PUSH2 0x1691 SWAP2 SWAP1 PUSH2 0x2043 JUMP JUMPDEST PUSH1 0xFF AND SWAP1 POP PUSH1 0x0 DUP9 PUSH20 0xFFFFFFFFFFFFFFFFFFFFFFFFFFFFFFFFFFFFFFFF AND PUSH4 0x18160DDD PUSH1 0x40 MLOAD DUP2 PUSH4 0xFFFFFFFF AND PUSH1 0xE0 SHL DUP2 MSTORE PUSH1 0x4 ADD PUSH1 0x20 PUSH1 0x40 MLOAD DUP1 DUP4 SUB DUP2 DUP7 GAS STATICCALL ISZERO DUP1 ISZERO PUSH2 0x16E3 JUMPI RETURNDATASIZE PUSH1 0x0 DUP1 RETURNDATACOPY RETURNDATASIZE PUSH1 0x0 REVERT JUMPDEST POP POP POP POP PUSH1 0x40 MLOAD RETURNDATASIZE PUSH1 0x1F NOT PUSH1 0x1F DUP3 ADD AND DUP3 ADD DUP1 PUSH1 0x40 MSTORE POP DUP2 ADD SWAP1 PUSH2 0x1707 SWAP2 SWAP1 PUSH2 0x1FEA JUMP JUMPDEST SWAP1 POP PUSH1 0x0 PUSH1 0x12 DUP4 LT ISZERO PUSH2 0x17EE JUMPI PUSH1 0x0 DUP4 PUSH1 0x12 PUSH2 0x1723 SWAP2 SWAP1 PUSH2 0x209F JUMP JUMPDEST PUSH1 0xA PUSH2 0x172F SWAP2 SWAP1 PUSH2 0x2206 JUMP JUMPDEST DUP11 PUSH2 0x173A SWAP2 SWAP1 PUSH2 0x22B1 JUMP JUMPDEST SWAP1 POP PUSH1 0x0 DUP7 EQ DUP1 ISZERO PUSH2 0x174C JUMPI POP PUSH1 0x0 DUP4 EQ JUMPDEST ISZERO PUSH2 0x1786 JUMPI PUSH8 0xDE0B6B3A7640000 DUP2 PUSH2 0x1765 SWAP2 SWAP1 PUSH2 0x2280 JUMP JUMPDEST SWAP2 POP DUP4 PUSH1 0xA PUSH2 0x1774 SWAP2 SWAP1 PUSH2 0x2206 JUMP JUMPDEST DUP3 PUSH2 0x177F SWAP2 SWAP1 PUSH2 0x22B1 JUMP JUMPDEST SWAP5 POP PUSH2 0x17E8 JUMP JUMPDEST DUP3 DUP7 PUSH2 0x1792 SWAP2 SWAP1 PUSH2 0x2280 JUMP JUMPDEST DUP2 PUSH2 0x179D SWAP2 SWAP1 PUSH2 0x2280 JUMP JUMPDEST SWAP2 POP PUSH1 0x1 DUP5 PUSH1 0x12 PUSH2 0x17AE SWAP2 SWAP1 PUSH2 0x209F JUMP JUMPDEST PUSH1 0xA PUSH2 0x17BA SWAP2 SWAP1 PUSH2 0x2206 JUMP JUMPDEST DUP5 DUP9 DUP6 PUSH2 0x17C7 SWAP2 SWAP1 PUSH2 0x22B1 JUMP JUMPDEST PUSH2 0x17D1 SWAP2 SWAP1 PUSH2 0x2280 JUMP JUMPDEST PUSH2 0x17DB SWAP2 SWAP1 PUSH2 0x2280 JUMP JUMPDEST PUSH2 0x17E5 SWAP2 SWAP1 PUSH2 0x241A JUMP JUMPDEST SWAP5 POP JUMPDEST POP PUSH2 0x1867 JUMP JUMPDEST PUSH1 0x0 DUP6 EQ DUP1 PUSH2 0x17FD JUMPI POP PUSH1 0x0 DUP3 EQ JUMPDEST ISZERO PUSH2 0x1833 JUMPI PUSH8 0xDE0B6B3A7640000 DUP10 PUSH2 0x1816 SWAP2 SWAP1 PUSH2 0x2280 JUMP JUMPDEST SWAP1 POP PUSH8 0xDE0B6B3A7640000 DUP2 PUSH2 0x182C SWAP2 SWAP1 PUSH2 0x22B1 JUMP JUMPDEST SWAP4 POP PUSH2 0x1866 JUMP JUMPDEST DUP2 DUP6 PUSH2 0x183F SWAP2 SWAP1 PUSH2 0x2280 JUMP JUMPDEST DUP10 PUSH2 0x184A SWAP2 SWAP1 PUSH2 0x2280 JUMP JUMPDEST SWAP1 POP DUP2 DUP6 PUSH2 0x1858 SWAP2 SWAP1 PUSH2 0x2280 JUMP JUMPDEST DUP2 PUSH2 0x1863 SWAP2 SWAP1 PUSH2 0x22B1 JUMP JUMPDEST SWAP4 POP JUMPDEST JUMPDEST DUP10 PUSH20 0xFFFFFFFFFFFFFFFFFFFFFFFFFFFFFFFFFFFFFFFF AND PUSH4 0x23B872DD CALLER DUP9 DUP8 PUSH1 0x40 MLOAD DUP5 PUSH4 0xFFFFFFFF AND PUSH1 0xE0 SHL DUP2 MSTORE PUSH1 0x4 ADD PUSH2 0x18A4 SWAP4 SWAP3 SWAP2 SWAP1 PUSH2 0x230B JUMP JUMPDEST PUSH1 0x20 PUSH1 0x40 MLOAD DUP1 DUP4 SUB DUP2 PUSH1 0x0 DUP8 GAS CALL ISZERO DUP1 ISZERO PUSH2 0x18C3 JUMPI RETURNDATASIZE PUSH1 0x0 DUP1 RETURNDATACOPY RETURNDATASIZE PUSH1 0x0 REVERT JUMPDEST POP POP POP POP PUSH1 0x40 MLOAD RETURNDATASIZE PUSH1 0x1F NOT PUSH1 0x1F DUP3 ADD AND DUP3 ADD DUP1 PUSH1 0x40 MSTORE POP DUP2 ADD SWAP1 PUSH2 0x18E7 SWAP2 SWAP1 PUSH2 0x236E JUMP JUMPDEST PUSH2 0x18F0 JUMPI PUSH1 0x0 DUP1 REVERT JUMPDEST DUP7 PUSH20 0xFFFFFFFFFFFFFFFFFFFFFFFFFFFFFFFFFFFFFFFF AND PUSH4 0xFC0C546A PUSH1 0x40 MLOAD DUP2 PUSH4 0xFFFFFFFF AND PUSH1 0xE0 SHL DUP2 MSTORE PUSH1 0x4 ADD PUSH1 0x20 PUSH1 0x40 MLOAD DUP1 DUP4 SUB DUP2 DUP7 GAS STATICCALL ISZERO DUP1 ISZERO PUSH2 0x193B JUMPI RETURNDATASIZE PUSH1 0x0 DUP1 RETURNDATACOPY RETURNDATASIZE PUSH1 0x0 REVERT JUMPDEST POP POP POP POP PUSH1 0x40 MLOAD RETURNDATASIZE PUSH1 0x1F NOT PUSH1 0x1F DUP3 ADD AND DUP3 ADD DUP1 PUSH1 0x40 MSTORE POP DUP2 ADD SWAP1 PUSH2 0x195F SWAP2 SWAP1 PUSH2 0x1F48 JUMP JUMPDEST PUSH20 0xFFFFFFFFFFFFFFFFFFFFFFFFFFFFFFFFFFFFFFFF AND PUSH4 0x40C10F19 CALLER DUP4 PUSH1 0x40 MLOAD DUP4 PUSH4 0xFFFFFFFF AND PUSH1 0xE0 SHL DUP2 MSTORE PUSH1 0x4 ADD PUSH2 0x1999 SWAP3 SWAP2 SWAP1 PUSH2 0x239B JUMP JUMPDEST PUSH1 0x20 PUSH1 0x40 MLOAD DUP1 DUP4 SUB DUP2 PUSH1 0x0 DUP8 GAS CALL ISZERO DUP1 ISZERO PUSH2 0x19B8 JUMPI RETURNDATASIZE PUSH1 0x0 DUP1 RETURNDATACOPY RETURNDATASIZE PUSH1 0x0 REVERT JUMPDEST POP POP POP POP PUSH1 0x40 MLOAD RETURNDATASIZE PUSH1 0x1F NOT PUSH1 0x1F DUP3 ADD AND DUP3 ADD DUP1 PUSH1 0x40 MSTORE POP DUP2 ADD SWAP1 PUSH2 0x19DC SWAP2 SWAP1 PUSH2 0x236E JUMP JUMPDEST PUSH2 0x19E5 JUMPI PUSH1 0x0 DUP1 REVERT JUMPDEST POP POP POP POP POP POP POP POP POP POP JUMP JUMPDEST PUSH32 0x0 PUSH20 0xFFFFFFFFFFFFFFFFFFFFFFFFFFFFFFFFFFFFFFFF AND CALLER PUSH20 0xFFFFFFFFFFFFFFFFFFFFFFFFFFFFFFFFFFFFFFFF AND EQ PUSH2 0x1A49 JUMPI PUSH1 0x0 DUP1 REVERT JUMPDEST PUSH1 0x0 DUP1 SLOAD SWAP1 PUSH2 0x100 EXP SWAP1 DIV PUSH20 0xFFFFFFFFFFFFFFFFFFFFFFFFFFFFFFFFFFFFFFFF AND PUSH20 0xFFFFFFFFFFFFFFFFFFFFFFFFFFFFFFFFFFFFFFFF AND CALLER PUSH20 0xFFFFFFFFFFFFFFFFFFFFFFFFFFFFFFFFFFFFFFFF AND EQ PUSH2 0x1AA1 JUMPI PUSH1 0x0 DUP1 REVERT JUMPDEST DUP1 PUSH1 0x0 DUP1 PUSH2 0x100 EXP DUP2 SLOAD DUP2 PUSH20 0xFFFFFFFFFFFFFFFFFFFFFFFFFFFFFFFFFFFFFFFF MUL NOT AND SWAP1 DUP4 PUSH20 0xFFFFFFFFFFFFFFFFFFFFFFFFFFFFFFFFFFFFFFFF AND MUL OR SWAP1 SSTORE POP POP JUMP JUMPDEST PUSH32 0x0 PUSH20 0xFFFFFFFFFFFFFFFFFFFFFFFFFFFFFFFFFFFFFFFF AND CALLER PUSH20 0xFFFFFFFFFFFFFFFFFFFFFFFFFFFFFFFFFFFFFFFF AND EQ PUSH2 0x1B3C JUMPI PUSH1 0x0 DUP1 REVERT JUMPDEST PUSH1 0x1 PUSH1 0x3 PUSH1 0x0 PUSH2 0x100 EXP DUP2 SLOAD DUP2 PUSH1 0xFF MUL NOT AND SWAP1 DUP4 PUSH1 0xFF AND MUL OR SWAP1 SSTORE POP JUMP JUMPDEST PUSH32 0x0 PUSH20 0xFFFFFFFFFFFFFFFFFFFFFFFFFFFFFFFFFFFFFFFF AND CALLER PUSH20 0xFFFFFFFFFFFFFFFFFFFFFFFFFFFFFFFFFFFFFFFF AND EQ PUSH2 0x1BB2 JUMPI PUSH1 0x0 DUP1 REVERT JUMPDEST PUSH1 0x0 PUSH1 0x3 PUSH1 0x1 SWAP1 SLOAD SWAP1 PUSH2 0x100 EXP SWAP1 DIV PUSH1 0xFF AND PUSH1 0xFF AND EQ PUSH2 0x1BD1 JUMPI PUSH1 0x0 DUP1 REVERT JUMPDEST PUSH1 0x0 PUSH1 0x3 PUSH1 0x0 PUSH2 0x100 EXP DUP2 SLOAD DUP2 PUSH1 0xFF MUL NOT AND SWAP1 DUP4 PUSH1 0xFF AND MUL OR SWAP1 SSTORE POP DUP1 PUSH1 0x0 DUP1 PUSH2 0x100 EXP DUP2 SLOAD DUP2 PUSH20 0xFFFFFFFFFFFFFFFFFFFFFFFFFFFFFFFFFFFFFFFF MUL NOT AND SWAP1 DUP4 PUSH20 0xFFFFFFFFFFFFFFFFFFFFFFFFFFFFFFFFFFFFFFFF AND MUL OR SWAP1 SSTORE POP PUSH1 0x1 PUSH1 0x3 PUSH1 0x1 PUSH2 0x100 EXP DUP2 SLOAD DUP2 PUSH1 0xFF MUL NOT AND SWAP1 DUP4 PUSH1 0xFF AND MUL OR SWAP1 SSTORE POP POP JUMP JUMPDEST PUSH1 0x0 DUP1 SLOAD SWAP1 PUSH2 0x100 EXP SWAP1 DIV PUSH20 0xFFFFFFFFFFFFFFFFFFFFFFFFFFFFFFFFFFFFFFFF AND DUP2 JUMP JUMPDEST PUSH1 0x3 PUSH1 0x0 SWAP1 SLOAD SWAP1 PUSH2 0x100 EXP SWAP1 DIV PUSH1 0xFF AND DUP2 JUMP JUMPDEST PUSH1 0x2 PUSH1 0x20 MSTORE DUP1 PUSH1 0x0 MSTORE PUSH1 0x40 PUSH1 0x0 KECCAK256 PUSH1 0x0 SWAP2 POP SWAP1 POP SLOAD DUP2 JUMP JUMPDEST PUSH1 0x3 PUSH1 0x1 SWAP1 SLOAD SWAP1 PUSH2 0x100 EXP SWAP1 DIV PUSH1 0xFF AND DUP2 JUMP JUMPDEST PUSH1 0x0 DUP1 REVERT JUMPDEST PUSH1 0x0 PUSH20 0xFFFFFFFFFFFFFFFFFFFFFFFFFFFFFFFFFFFFFFFF DUP3 AND SWAP1 POP SWAP2 SWAP1 POP JUMP JUMPDEST PUSH1 0x0 PUSH2 0x1CDE DUP3 PUSH2 0x1CB3 JUMP JUMPDEST SWAP1 POP SWAP2 SWAP1 POP JUMP JUMPDEST PUSH2 0x1CEE DUP2 PUSH2 0x1CD3 JUMP JUMPDEST DUP2 EQ PUSH2 0x1CF9 JUMPI PUSH1 0x0 DUP1 REVERT JUMPDEST POP JUMP JUMPDEST PUSH1 0x0 DUP2 CALLDATALOAD SWAP1 POP PUSH2 0x1D0B DUP2 PUSH2 0x1CE5 JUMP JUMPDEST SWAP3 SWAP2 POP POP JUMP JUMPDEST PUSH1 0x0 PUSH1 0x20 DUP3 DUP5 SUB SLT ISZERO PUSH2 0x1D27 JUMPI PUSH2 0x1D26 PUSH2 0x1CAE JUMP JUMPDEST JUMPDEST PUSH1 0x0 PUSH2 0x1D35 DUP5 DUP3 DUP6 ADD PUSH2 0x1CFC JUMP JUMPDEST SWAP2 POP POP SWAP3 SWAP2 POP POP JUMP JUMPDEST PUSH1 0x0 DUP2 SWAP1 POP SWAP2 SWAP1 POP JUMP JUMPDEST PUSH2 0x1D51 DUP2 PUSH2 0x1D3E JUMP JUMPDEST DUP2 EQ PUSH2 0x1D5C JUMPI PUSH1 0x0 DUP1 REVERT JUMPDEST POP JUMP JUMPDEST PUSH1 0x0 DUP2 CALLDATALOAD SWAP1 POP PUSH2 0x1D6E DUP2 PUSH2 0x1D48 JUMP JUMPDEST SWAP3 SWAP2 POP POP JUMP JUMPDEST PUSH1 0x0 DUP1 PUSH1 0x40 DUP4 DUP6 SUB SLT ISZERO PUSH2 0x1D8B JUMPI PUSH2 0x1D8A PUSH2 0x1CAE JUMP JUMPDEST JUMPDEST PUSH1 0x0 PUSH2 0x1D99 DUP6 DUP3 DUP7 ADD PUSH2 0x1CFC JUMP JUMPDEST SWAP3 POP POP PUSH1 0x20 PUSH2 0x1DAA DUP6 DUP3 DUP7 ADD PUSH2 0x1D5F JUMP JUMPDEST SWAP2 POP POP SWAP3 POP SWAP3 SWAP1 POP JUMP JUMPDEST PUSH1 0x0 DUP2 ISZERO ISZERO SWAP1 POP SWAP2 SWAP1 POP JUMP JUMPDEST PUSH2 0x1DC9 DUP2 PUSH2 0x1DB4 JUMP JUMPDEST DUP3 MSTORE POP POP JUMP JUMPDEST PUSH1 0x0 PUSH1 0x20 DUP3 ADD SWAP1 POP PUSH2 0x1DE4 PUSH1 0x0 DUP4 ADD DUP5 PUSH2 0x1DC0 JUMP JUMPDEST SWAP3 SWAP2 POP POP JUMP JUMPDEST PUSH1 0x0 PUSH1 0x20 DUP3 DUP5 SUB SLT ISZERO PUSH2 0x1E00 JUMPI PUSH2 0x1DFF PUSH2 0x1CAE JUMP JUMPDEST JUMPDEST PUSH1 0x0 PUSH2 0x1E0E DUP5 DUP3 DUP6 ADD PUSH2 0x1D5F JUMP JUMPDEST SWAP2 POP POP SWAP3 SWAP2 POP POP JUMP JUMPDEST PUSH2 0x1E20 DUP2 PUSH2 0x1D3E JUMP JUMPDEST DUP3 MSTORE POP POP JUMP JUMPDEST PUSH1 0x0 PUSH1 0x20 DUP3 ADD SWAP1 POP PUSH2 0x1E3B PUSH1 0x0 DUP4 ADD DUP5 PUSH2 0x1E17 JUMP JUMPDEST SWAP3 SWAP2 POP POP JUMP JUMPDEST PUSH2 0x1E4A DUP2 PUSH2 0x1CD3 JUMP JUMPDEST DUP3 MSTORE POP POP JUMP JUMPDEST PUSH1 0x0 PUSH1 0x20 DUP3 ADD SWAP1 POP PUSH2 0x1E65 PUSH1 0x0 DUP4 ADD DUP5 PUSH2 0x1E41 JUMP JUMPDEST SWAP3 SWAP2 POP POP JUMP JUMPDEST PUSH1 0x0 PUSH1 0xFF DUP3 AND SWAP1 POP SWAP2 SWAP1 POP JUMP JUMPDEST PUSH2 0x1E81 DUP2 PUSH2 0x1E6B JUMP JUMPDEST DUP3 MSTORE POP POP JUMP JUMPDEST PUSH1 0x0 PUSH1 0x20 DUP3 ADD SWAP1 POP PUSH2 0x1E9C PUSH1 0x0 DUP4 ADD DUP5 PUSH2 0x1E78 JUMP JUMPDEST SWAP3 SWAP2 POP POP JUMP JUMPDEST PUSH1 0x0 DUP2 MLOAD SWAP1 POP SWAP2 SWAP1 POP JUMP JUMPDEST PUSH1 0x0 DUP2 SWAP1 POP SWAP3 SWAP2 POP POP JUMP JUMPDEST PUSH1 0x0 JUMPDEST DUP4 DUP2 LT ISZERO PUSH2 0x1ED6 JUMPI DUP1 DUP3 ADD MLOAD DUP2 DUP5 ADD MSTORE PUSH1 0x20 DUP2 ADD SWAP1 POP PUSH2 0x1EBB JUMP JUMPDEST DUP4 DUP2 GT ISZERO PUSH2 0x1EE5 JUMPI PUSH1 0x0 DUP5 DUP5 ADD MSTORE JUMPDEST POP POP POP POP JUMP JUMPDEST PUSH1 0x0 PUSH2 0x1EF6 DUP3 PUSH2 0x1EA2 JUMP JUMPDEST PUSH2 0x1F00 DUP2 DUP6 PUSH2 0x1EAD JUMP JUMPDEST SWAP4 POP PUSH2 0x1F10 DUP2 DUP6 PUSH1 0x20 DUP7 ADD PUSH2 0x1EB8 JUMP JUMPDEST DUP1 DUP5 ADD SWAP2 POP POP SWAP3 SWAP2 POP POP JUMP JUMPDEST PUSH1 0x0 PUSH2 0x1F28 DUP3 DUP5 PUSH2 0x1EEB JUMP JUMPDEST SWAP2 POP DUP2 SWAP1 POP SWAP3 SWAP2 POP POP JUMP JUMPDEST PUSH1 0x0 DUP2 MLOAD SWAP1 POP PUSH2 0x1F42 DUP2 PUSH2 0x1CE5 JUMP JUMPDEST SWAP3 SWAP2 POP POP JUMP JUMPDEST PUSH1 0x0 PUSH1 0x20 DUP3 DUP5 SUB SLT ISZERO PUSH2 0x1F5E JUMPI PUSH2 0x1F5D PUSH2 0x1CAE JUMP JUMPDEST JUMPDEST PUSH1 0x0 PUSH2 0x1F6C DUP5 DUP3 DUP6 ADD PUSH2 0x1F33 JUMP JUMPDEST SWAP2 POP POP SWAP3 SWAP2 POP POP JUMP JUMPDEST PUSH1 0x0 DUP2 SWAP1 POP SWAP2 SWAP1 POP JUMP JUMPDEST PUSH1 0x0 DUP2 SWAP1 POP SWAP2 SWAP1 POP JUMP JUMPDEST PUSH1 0x0 PUSH2 0x1FA4 PUSH2 0x1F9F PUSH2 0x1F9A DUP5 PUSH2 0x1F75 JUMP JUMPDEST PUSH2 0x1F7F JUMP JUMPDEST PUSH2 0x1D3E JUMP JUMPDEST SWAP1 POP SWAP2 SWAP1 POP JUMP JUMPDEST PUSH2 0x1FB4 DUP2 PUSH2 0x1F89 JUMP JUMPDEST DUP3 MSTORE POP POP JUMP JUMPDEST PUSH1 0x0 PUSH1 0x20 DUP3 ADD SWAP1 POP PUSH2 0x1FCF PUSH1 0x0 DUP4 ADD DUP5 PUSH2 0x1FAB JUMP JUMPDEST SWAP3 SWAP2 POP POP JUMP JUMPDEST PUSH1 0x0 DUP2 MLOAD SWAP1 POP PUSH2 0x1FE4 DUP2 PUSH2 0x1D48 JUMP JUMPDEST SWAP3 SWAP2 POP POP JUMP JUMPDEST PUSH1 0x0 PUSH1 0x20 DUP3 DUP5 SUB SLT ISZERO PUSH2 0x2000 JUMPI PUSH2 0x1FFF PUSH2 0x1CAE JUMP JUMPDEST JUMPDEST PUSH1 0x0 PUSH2 0x200E DUP5 DUP3 DUP6 ADD PUSH2 0x1FD5 JUMP JUMPDEST SWAP2 POP POP SWAP3 SWAP2 POP POP JUMP JUMPDEST PUSH2 0x2020 DUP2 PUSH2 0x1E6B JUMP JUMPDEST DUP2 EQ PUSH2 0x202B JUMPI PUSH1 0x0 DUP1 REVERT JUMPDEST POP JUMP JUMPDEST PUSH1 0x0 DUP2 MLOAD SWAP1 POP PUSH2 0x203D DUP2 PUSH2 0x2017 JUMP JUMPDEST SWAP3 SWAP2 POP POP JUMP JUMPDEST PUSH1 0x0 PUSH1 0x20 DUP3 DUP5 SUB SLT ISZERO PUSH2 0x2059 JUMPI PUSH2 0x2058 PUSH2 0x1CAE JUMP JUMPDEST JUMPDEST PUSH1 0x0 PUSH2 0x2067 DUP5 DUP3 DUP6 ADD PUSH2 0x202E JUMP JUMPDEST SWAP2 POP POP SWAP3 SWAP2 POP POP JUMP JUMPDEST PUSH32 0x4E487B7100000000000000000000000000000000000000000000000000000000 PUSH1 0x0 MSTORE PUSH1 0x11 PUSH1 0x4 MSTORE PUSH1 0x24 PUSH1 0x0 REVERT JUMPDEST PUSH1 0x0 PUSH2 0x20AA DUP3 PUSH2 0x1D3E JUMP JUMPDEST SWAP2 POP PUSH2 0x20B5 DUP4 PUSH2 0x1D3E JUMP JUMPDEST SWAP3 POP DUP3 DUP3 LT ISZERO PUSH2 0x20C8 JUMPI PUSH2 0x20C7 PUSH2 0x2070 JUMP JUMPDEST JUMPDEST DUP3 DUP3 SUB SWAP1 POP SWAP3 SWAP2 POP POP JUMP JUMPDEST PUSH1 0x0 DUP2 PUSH1 0x1 SHR SWAP1 POP SWAP2 SWAP1 POP JUMP JUMPDEST PUSH1 0x0 DUP1 DUP3 SWAP2 POP DUP4 SWAP1 POP JUMPDEST PUSH1 0x1 DUP6 GT ISZERO PUSH2 0x212A JUMPI DUP1 DUP7 DIV DUP2 GT ISZERO PUSH2 0x2106 JUMPI PUSH2 0x2105 PUSH2 0x2070 JUMP JUMPDEST JUMPDEST PUSH1 0x1 DUP6 AND ISZERO PUSH2 0x2115 JUMPI DUP1 DUP3 MUL SWAP2 POP JUMPDEST DUP1 DUP2 MUL SWAP1 POP PUSH2 0x2123 DUP6 PUSH2 0x20D3 JUMP JUMPDEST SWAP5 POP PUSH2 0x20EA JUMP JUMPDEST SWAP5 POP SWAP5 SWAP3 POP POP POP JUMP JUMPDEST PUSH1 0x0 DUP3 PUSH2 0x2143 JUMPI PUSH1 0x1 SWAP1 POP PUSH2 0x21FF JUMP JUMPDEST DUP2 PUSH2 0x2151 JUMPI PUSH1 0x0 SWAP1 POP PUSH2 0x21FF JUMP JUMPDEST DUP2 PUSH1 0x1 DUP2 EQ PUSH2 0x2167 JUMPI PUSH1 0x2 DUP2 EQ PUSH2 0x2171 JUMPI PUSH2 0x21A0 JUMP JUMPDEST PUSH1 0x1 SWAP2 POP POP PUSH2 0x21FF JUMP JUMPDEST PUSH1 0xFF DUP5 GT ISZERO PUSH2 0x2183 JUMPI PUSH2 0x2182 PUSH2 0x2070 JUMP JUMPDEST JUMPDEST DUP4 PUSH1 0x2 EXP SWAP2 POP DUP5 DUP3 GT ISZERO PUSH2 0x219A JUMPI PUSH2 0x2199 PUSH2 0x2070 JUMP JUMPDEST JUMPDEST POP PUSH2 0x21FF JUMP JUMPDEST POP PUSH1 0x20 DUP4 LT PUSH2 0x133 DUP4 LT AND PUSH1 0x4E DUP5 LT PUSH1 0xB DUP5 LT AND OR ISZERO PUSH2 0x21D5 JUMPI DUP3 DUP3 EXP SWAP1 POP DUP4 DUP2 GT ISZERO PUSH2 0x21D0 JUMPI PUSH2 0x21CF PUSH2 0x2070 JUMP JUMPDEST JUMPDEST PUSH2 0x21FF JUMP JUMPDEST PUSH2 0x21E2 DUP5 DUP5 DUP5 PUSH1 0x1 PUSH2 0x20E0 JUMP JUMPDEST SWAP3 POP SWAP1 POP DUP2 DUP5 DIV DUP2 GT ISZERO PUSH2 0x21F9 JUMPI PUSH2 0x21F8 PUSH2 0x2070 JUMP JUMPDEST JUMPDEST DUP2 DUP2 MUL SWAP1 POP JUMPDEST SWAP4 SWAP3 POP POP POP JUMP JUMPDEST PUSH1 0x0 PUSH2 0x2211 DUP3 PUSH2 0x1D3E JUMP JUMPDEST SWAP2 POP PUSH2 0x221C DUP4 PUSH2 0x1D3E JUMP JUMPDEST SWAP3 POP PUSH2 0x2249 PUSH32 0xFFFFFFFFFFFFFFFFFFFFFFFFFFFFFFFFFFFFFFFFFFFFFFFFFFFFFFFFFFFFFFFF DUP5 DUP5 PUSH2 0x2133 JUMP JUMPDEST SWAP1 POP SWAP3 SWAP2 POP POP JUMP JUMPDEST PUSH32 0x4E487B7100000000000000000000000000000000000000000000000000000000 PUSH1 0x0 MSTORE PUSH1 0x12 PUSH1 0x4 MSTORE PUSH1 0x24 PUSH1 0x0 REVERT JUMPDEST PUSH1 0x0 PUSH2 0x228B DUP3 PUSH2 0x1D3E JUMP JUMPDEST SWAP2 POP PUSH2 0x2296 DUP4 PUSH2 0x1D3E JUMP JUMPDEST SWAP3 POP DUP3 PUSH2 0x22A6 JUMPI PUSH2 0x22A5 PUSH2 0x2251 JUMP JUMPDEST JUMPDEST DUP3 DUP3 DIV SWAP1 POP SWAP3 SWAP2 POP POP JUMP JUMPDEST PUSH1 0x0 PUSH2 0x22BC DUP3 PUSH2 0x1D3E JUMP JUMPDEST SWAP2 POP PUSH2 0x22C7 DUP4 PUSH2 0x1D3E JUMP JUMPDEST SWAP3 POP DUP2 PUSH32 0xFFFFFFFFFFFFFFFFFFFFFFFFFFFFFFFFFFFFFFFFFFFFFFFFFFFFFFFFFFFFFFFF DIV DUP4 GT DUP3 ISZERO ISZERO AND ISZERO PUSH2 0x2300 JUMPI PUSH2 0x22FF PUSH2 0x2070 JUMP JUMPDEST JUMPDEST DUP3 DUP3 MUL SWAP1 POP SWAP3 SWAP2 POP POP JUMP JUMPDEST PUSH1 0x0 PUSH1 0x60 DUP3 ADD SWAP1 POP PUSH2 0x2320 PUSH1 0x0 DUP4 ADD DUP7 PUSH2 0x1E41 JUMP JUMPDEST PUSH2 0x232D PUSH1 0x20 DUP4 ADD DUP6 PUSH2 0x1E41 JUMP JUMPDEST PUSH2 0x233A PUSH1 0x40 DUP4 ADD DUP5 PUSH2 0x1E17 JUMP JUMPDEST SWAP5 SWAP4 POP POP POP POP JUMP JUMPDEST PUSH2 0x234B DUP2 PUSH2 0x1DB4 JUMP JUMPDEST DUP2 EQ PUSH2 0x2356 JUMPI PUSH1 0x0 DUP1 REVERT JUMPDEST POP JUMP JUMPDEST PUSH1 0x0 DUP2 MLOAD SWAP1 POP PUSH2 0x2368 DUP2 PUSH2 0x2342 JUMP JUMPDEST SWAP3 SWAP2 POP POP JUMP JUMPDEST PUSH1 0x0 PUSH1 0x20 DUP3 DUP5 SUB SLT ISZERO PUSH2 0x2384 JUMPI PUSH2 0x2383 PUSH2 0x1CAE JUMP JUMPDEST JUMPDEST PUSH1 0x0 PUSH2 0x2392 DUP5 DUP3 DUP6 ADD PUSH2 0x2359 JUMP JUMPDEST SWAP2 POP POP SWAP3 SWAP2 POP POP JUMP JUMPDEST PUSH1 0x0 PUSH1 0x40 DUP3 ADD SWAP1 POP PUSH2 0x23B0 PUSH1 0x0 DUP4 ADD DUP6 PUSH2 0x1E41 JUMP JUMPDEST PUSH2 0x23BD PUSH1 0x20 DUP4 ADD DUP5 PUSH2 0x1E17 JUMP JUMPDEST SWAP4 SWAP3 POP POP POP JUMP JUMPDEST PUSH1 0x0 DUP2 SWAP1 POP SWAP2 SWAP1 POP JUMP JUMPDEST PUSH1 0x0 PUSH2 0x23E9 PUSH2 0x23E4 PUSH2 0x23DF DUP5 PUSH2 0x23C4 JUMP JUMPDEST PUSH2 0x1F7F JUMP JUMPDEST PUSH2 0x1D3E JUMP JUMPDEST SWAP1 POP SWAP2 SWAP1 POP JUMP JUMPDEST PUSH2 0x23F9 DUP2 PUSH2 0x23CE JUMP JUMPDEST DUP3 MSTORE POP POP JUMP JUMPDEST PUSH1 0x0 PUSH1 0x20 DUP3 ADD SWAP1 POP PUSH2 0x2414 PUSH1 0x0 DUP4 ADD DUP5 PUSH2 0x23F0 JUMP JUMPDEST SWAP3 SWAP2 POP POP JUMP JUMPDEST PUSH1 0x0 PUSH2 0x2425 DUP3 PUSH2 0x1D3E JUMP JUMPDEST SWAP2 POP PUSH2 0x2430 DUP4 PUSH2 0x1D3E JUMP JUMPDEST SWAP3 POP DUP3 PUSH32 0xFFFFFFFFFFFFFFFFFFFFFFFFFFFFFFFFFFFFFFFFFFFFFFFFFFFFFFFFFFFFFFFF SUB DUP3 GT ISZERO PUSH2 0x2465 JUMPI PUSH2 0x2464 PUSH2 0x2070 JUMP JUMPDEST JUMPDEST DUP3 DUP3 ADD SWAP1 POP SWAP3 SWAP2 POP POP JUMP INVALID LOG2 PUSH5 0x6970667358 0x22 SLT KECCAK256 0xAA PUSH25 0x368A270E375E507ADDAB4F3F6E4E6C1FA9743483C0A26C31C2 0x22 DUP8 0xBA PUSH9 0x964736F6C63430008 0xE STOP CALLER "
				},
				"gasEstimates": {
					"creation": {
						"codeDepositCost": "1876400",
						"executionCost": "infinite",
						"totalCost": "infinite"
					},
					"external": {
						"": "203",
						"addCoin(address)": "infinite",
						"addToBlacklist(address)": "infinite",
						"blacklist(address)": "2902",
						"buyTokensInput(address,uint256)": "infinite",
						"buyTokensOutput(address,uint256)": "infinite",
						"coins(address)": "2837",
						"delCoin(address)": "infinite",
						"deleteContract(address)": "infinite",
						"initContract(address)": "infinite",
						"initDone()": "2631",
						"lock()": "2537",
						"lockOff()": "infinite",
						"lockOn()": "infinite",
						"proxy()": "2555",
						"removeFromBlacklist(address)": "infinite",
						"sellTokens(uint256)": "infinite",
						"updateProxy(address)": "infinite"
					}
				},
				"methodIdentifiers": {
					"addCoin(address)": "16da8632",
					"addToBlacklist(address)": "44337ea1",
					"blacklist(address)": "f9f92be4",
					"buyTokensInput(address,uint256)": "9be56034",
					"buyTokensOutput(address,uint256)": "365afe2f",
					"coins(address)": "7d0f7a88",
					"delCoin(address)": "4051b9aa",
					"deleteContract(address)": "2637a477",
					"initContract(address)": "cf9d4afa",
					"initDone()": "fed0a20e",
					"lock()": "f83d08ba",
					"lockOff()": "5ecaf1c8",
					"lockOn()": "b4b15df5",
					"proxy()": "ec556889",
					"removeFromBlacklist(address)": "537df3b6",
					"sellTokens(uint256)": "6c11bcd3",
					"updateProxy(address)": "9e955149"
				}
			},
			"storageLayout": {
				"storage": [
					{
						"astId": 387,
						"contract": "TFGv3/Contracts/SCExchange.sol:SCExchange",
						"label": "proxy",
						"offset": 0,
						"slot": "0",
						"type": "t_address"
					},
					{
						"astId": 391,
						"contract": "TFGv3/Contracts/SCExchange.sol:SCExchange",
						"label": "coins",
						"offset": 0,
						"slot": "1",
						"type": "t_mapping(t_address,t_uint256)"
					},
					{
						"astId": 395,
						"contract": "TFGv3/Contracts/SCExchange.sol:SCExchange",
						"label": "blacklist",
						"offset": 0,
						"slot": "2",
						"type": "t_mapping(t_address,t_uint256)"
					},
					{
						"astId": 397,
						"contract": "TFGv3/Contracts/SCExchange.sol:SCExchange",
						"label": "lock",
						"offset": 0,
						"slot": "3",
						"type": "t_uint8"
					},
					{
						"astId": 399,
						"contract": "TFGv3/Contracts/SCExchange.sol:SCExchange",
						"label": "initDone",
						"offset": 1,
						"slot": "3",
						"type": "t_uint8"
					}
				],
				"types": {
					"t_address": {
						"encoding": "inplace",
						"label": "address",
						"numberOfBytes": "20"
					},
					"t_mapping(t_address,t_uint256)": {
						"encoding": "mapping",
						"key": "t_address",
						"label": "mapping(address => uint256)",
						"numberOfBytes": "32",
						"value": "t_uint256"
					},
					"t_uint256": {
						"encoding": "inplace",
						"label": "uint256",
						"numberOfBytes": "32"
					},
					"t_uint8": {
						"encoding": "inplace",
						"label": "uint8",
						"numberOfBytes": "1"
					}
				}
			},
			"userdoc": {
				"kind": "user",
				"methods": {},
				"version": 1
			}
		}
	}
}