{
	"TFGv3/Contracts/CryptoFundToken.sol": {
		"CryptoFundToken": {
			"abi": [
				{
					"inputs": [
						{
							"internalType": "string",
							"name": "name_",
							"type": "string"
						},
						{
							"internalType": "string",
							"name": "symbol_",
							"type": "string"
						},
						{
							"internalType": "uint8",
							"name": "decimals_",
							"type": "uint8"
						}
					],
					"stateMutability": "nonpayable",
					"type": "constructor"
				},
				{
					"anonymous": false,
					"inputs": [
						{
							"indexed": true,
							"internalType": "address",
							"name": "owner",
							"type": "address"
						},
						{
							"indexed": true,
							"internalType": "address",
							"name": "spender",
							"type": "address"
						},
						{
							"indexed": false,
							"internalType": "uint256",
							"name": "value",
							"type": "uint256"
						}
					],
					"name": "Approval",
					"type": "event"
				},
				{
					"anonymous": false,
					"inputs": [
						{
							"indexed": true,
							"internalType": "address",
							"name": "to",
							"type": "address"
						},
						{
							"indexed": false,
							"internalType": "uint256",
							"name": "value",
							"type": "uint256"
						}
					],
					"name": "Mint",
					"type": "event"
				},
				{
					"anonymous": false,
					"inputs": [
						{
							"indexed": true,
							"internalType": "address",
							"name": "from",
							"type": "address"
						},
						{
							"indexed": true,
							"internalType": "address",
							"name": "to",
							"type": "address"
						},
						{
							"indexed": false,
							"internalType": "uint256",
							"name": "value",
							"type": "uint256"
						}
					],
					"name": "Transfer",
					"type": "event"
				},
				{
					"inputs": [],
					"name": "_totalSupply",
					"outputs": [
						{
							"internalType": "uint256",
							"name": "",
							"type": "uint256"
						}
					],
					"stateMutability": "view",
					"type": "function"
				},
				{
					"inputs": [
						{
							"internalType": "address",
							"name": "owner",
							"type": "address"
						},
						{
							"internalType": "address",
							"name": "spender",
							"type": "address"
						}
					],
					"name": "allowance",
					"outputs": [
						{
							"internalType": "uint256",
							"name": "",
							"type": "uint256"
						}
					],
					"stateMutability": "view",
					"type": "function"
				},
				{
					"inputs": [
						{
							"internalType": "address",
							"name": "spender",
							"type": "address"
						},
						{
							"internalType": "uint256",
							"name": "amount",
							"type": "uint256"
						}
					],
					"name": "approve",
					"outputs": [
						{
							"internalType": "bool",
							"name": "",
							"type": "bool"
						}
					],
					"stateMutability": "nonpayable",
					"type": "function"
				},
				{
					"inputs": [
						{
							"internalType": "address",
							"name": "account",
							"type": "address"
						}
					],
					"name": "balanceOf",
					"outputs": [
						{
							"internalType": "uint256",
							"name": "",
							"type": "uint256"
						}
					],
					"stateMutability": "view",
					"type": "function"
				},
				{
					"inputs": [
						{
							"internalType": "uint256",
							"name": "amount",
							"type": "uint256"
						}
					],
					"name": "burn",
					"outputs": [
						{
							"internalType": "bool",
							"name": "",
							"type": "bool"
						}
					],
					"stateMutability": "nonpayable",
					"type": "function"
				},
				{
					"inputs": [
						{
							"internalType": "address",
							"name": "from",
							"type": "address"
						},
						{
							"internalType": "uint256",
							"name": "amount",
							"type": "uint256"
						}
					],
					"name": "burnFrom",
					"outputs": [
						{
							"internalType": "bool",
							"name": "",
							"type": "bool"
						}
					],
					"stateMutability": "nonpayable",
					"type": "function"
				},
				{
					"inputs": [],
					"name": "decimals",
					"outputs": [
						{
							"internalType": "uint8",
							"name": "",
							"type": "uint8"
						}
					],
					"stateMutability": "view",
					"type": "function"
				},
				{
					"inputs": [
						{
							"internalType": "address",
							"name": "spender",
							"type": "address"
						},
						{
							"internalType": "uint256",
							"name": "subtractedValue",
							"type": "uint256"
						}
					],
					"name": "decreaseAllowance",
					"outputs": [
						{
							"internalType": "bool",
							"name": "",
							"type": "bool"
						}
					],
					"stateMutability": "nonpayable",
					"type": "function"
				},
				{
					"inputs": [
						{
							"internalType": "address",
							"name": "spender",
							"type": "address"
						},
						{
							"internalType": "uint256",
							"name": "addedValue",
							"type": "uint256"
						}
					],
					"name": "increaseAllowance",
					"outputs": [
						{
							"internalType": "bool",
							"name": "",
							"type": "bool"
						}
					],
					"stateMutability": "nonpayable",
					"type": "function"
				},
				{
					"inputs": [
						{
							"internalType": "address",
							"name": "account",
							"type": "address"
						},
						{
							"internalType": "uint256",
							"name": "amount",
							"type": "uint256"
						}
					],
					"name": "mint",
					"outputs": [
						{
							"internalType": "bool",
							"name": "",
							"type": "bool"
						}
					],
					"stateMutability": "nonpayable",
					"type": "function"
				},
				{
					"inputs": [],
					"name": "name",
					"outputs": [
						{
							"internalType": "string",
							"name": "",
							"type": "string"
						}
					],
					"stateMutability": "view",
					"type": "function"
				},
				{
					"inputs": [
						{
							"internalType": "address",
							"name": "newOwner",
							"type": "address"
						}
					],
					"name": "setOwner",
					"outputs": [],
					"stateMutability": "nonpayable",
					"type": "function"
				},
				{
					"inputs": [],
					"name": "symbol",
					"outputs": [
						{
							"internalType": "string",
							"name": "",
							"type": "string"
						}
					],
					"stateMutability": "view",
					"type": "function"
				},
				{
					"inputs": [],
					"name": "totalSupply",
					"outputs": [
						{
							"internalType": "uint256",
							"name": "",
							"type": "uint256"
						}
					],
					"stateMutability": "view",
					"type": "function"
				},
				{
					"inputs": [
						{
							"internalType": "address",
							"name": "to",
							"type": "address"
						},
						{
							"internalType": "uint256",
							"name": "amount",
							"type": "uint256"
						}
					],
					"name": "transfer",
					"outputs": [
						{
							"internalType": "bool",
							"name": "",
							"type": "bool"
						}
					],
					"stateMutability": "nonpayable",
					"type": "function"
				},
				{
					"inputs": [
						{
							"internalType": "address",
							"name": "from",
							"type": "address"
						},
						{
							"internalType": "address",
							"name": "to",
							"type": "address"
						},
						{
							"internalType": "uint256",
							"name": "amount",
							"type": "uint256"
						}
					],
					"name": "transferFrom",
					"outputs": [
						{
							"internalType": "bool",
							"name": "",
							"type": "bool"
						}
					],
					"stateMutability": "nonpayable",
					"type": "function"
				}
			],
			"devdoc": {
				"kind": "dev",
				"methods": {},
				"version": 1
			},
			"evm": {
				"assembly": "    /* \"TFGv3/Contracts/CryptoFundToken.sol\":108:5507  contract CryptoFundToken is IERC20... */\n  mstore(0x40, 0xa0)\n    /* \"TFGv3/Contracts/CryptoFundToken.sol\":447:669  constructor(string memory name_, string memory symbol_, uint8 decimals_)... */\n  callvalue\n  dup1\n  iszero\n  tag_1\n  jumpi\n  0x00\n  dup1\n  revert\ntag_1:\n  pop\n  mload(0x40)\n  sub(codesize, bytecodeSize)\n  dup1\n  bytecodeSize\n  dup4\n  codecopy\n  dup2\n  add\n  0x40\n  dup2\n  swap1\n  mstore\n  tag_2\n  swap2\n  tag_3\n  jump\t// in\ntag_2:\n    /* \"TFGv3/Contracts/CryptoFundToken.sol\":534:546  name = name_ */\n  dup3\n  mload\n  tag_6\n  swap1\n    /* \"TFGv3/Contracts/CryptoFundToken.sol\":534:538  name */\n  0x04\n  swap1\n    /* \"TFGv3/Contracts/CryptoFundToken.sol\":534:546  name = name_ */\n  0x20\n  dup7\n  add\n  swap1\n  tag_7\n  jump\t// in\ntag_6:\n  pop\n    /* \"TFGv3/Contracts/CryptoFundToken.sol\":556:572  symbol = symbol_ */\n  dup2\n  mload\n  tag_8\n  swap1\n    /* \"TFGv3/Contracts/CryptoFundToken.sol\":556:562  symbol */\n  0x05\n  swap1\n    /* \"TFGv3/Contracts/CryptoFundToken.sol\":556:572  symbol = symbol_ */\n  0x20\n  dup6\n  add\n  swap1\n  tag_7\n  jump\t// in\ntag_8:\n  pop\n    /* \"TFGv3/Contracts/CryptoFundToken.sol\":582:590  decimals */\n  0x06\n    /* \"TFGv3/Contracts/CryptoFundToken.sol\":582:602  decimals = decimals_ */\n  dup1\n  sload\n  not(0xff)\n  and\n  0xff\n  swap3\n  swap1\n  swap3\n  and\n  swap2\n  swap1\n  swap2\n  or\n  swap1\n  sstore\n  pop\n  pop\n    /* \"TFGv3/Contracts/CryptoFundToken.sol\":623:633  msg.sender */\n  caller\n    /* \"TFGv3/Contracts/CryptoFundToken.sol\":612:633  deployer = msg.sender */\n  0x80\n  dup2\n  swap1\n  mstore\n    /* \"TFGv3/Contracts/CryptoFundToken.sol\":643:649  _owner */\n  0x02\n    /* \"TFGv3/Contracts/CryptoFundToken.sol\":643:662  _owner = msg.sender */\n  dup1\n  sload\n  not(sub(shl(0xa0, 0x01), 0x01))\n  and\n  swap1\n  swap2\n  or\n  swap1\n  sstore\n    /* \"TFGv3/Contracts/CryptoFundToken.sol\":108:5507  contract CryptoFundToken is IERC20... */\n  jump(tag_23)\ntag_7:\n  dup3\n  dup1\n  sload\n  tag_10\n  swap1\n  tag_11\n  jump\t// in\ntag_10:\n  swap1\n  0x00\n  mstore\n  keccak256(0x00, 0x20)\n  swap1\n  0x1f\n  add\n  0x20\n  swap1\n  div\n  dup2\n  add\n  swap3\n  dup3\n  tag_13\n  jumpi\n  0x00\n  dup6\n  sstore\n  jump(tag_16)\ntag_13:\n  dup3\n  0x1f\n  lt\n  tag_14\n  jumpi\n  dup1\n  mload\n  not(0xff)\n  and\n  dup4\n  dup1\n  add\n  or\n  dup6\n  sstore\n  jump(tag_16)\ntag_14:\n  dup3\n  dup1\n  add\n  0x01\n  add\n  dup6\n  sstore\n  dup3\n  iszero\n  tag_16\n  jumpi\n  swap2\n  dup3\n  add\ntag_15:\n  dup3\n  dup2\n  gt\n  iszero\n  tag_16\n  jumpi\n  dup3\n  mload\n  dup3\n  sstore\n  swap2\n  0x20\n  add\n  swap2\n  swap1\n  0x01\n  add\n  swap1\n  jump(tag_15)\ntag_16:\n  pop\n  tag_17\n  swap3\n  swap2\n  pop\n  tag_18\n  jump\t// in\ntag_17:\n  pop\n  swap1\n  jump\t// out\ntag_18:\ntag_19:\n  dup1\n  dup3\n  gt\n  iszero\n  tag_17\n  jumpi\n  0x00\n  dup2\n  sstore\n  0x01\n  add\n  jump(tag_19)\n    /* \"#utility.yul\":14:141   */\ntag_21:\n    /* \"#utility.yul\":75:85   */\n  0x4e487b71\n    /* \"#utility.yul\":70:73   */\n  0xe0\n    /* \"#utility.yul\":66:86   */\n  shl\n    /* \"#utility.yul\":63:64   */\n  0x00\n    /* \"#utility.yul\":56:87   */\n  mstore\n    /* \"#utility.yul\":106:110   */\n  0x41\n    /* \"#utility.yul\":103:104   */\n  0x04\n    /* \"#utility.yul\":96:111   */\n  mstore\n    /* \"#utility.yul\":130:134   */\n  0x24\n    /* \"#utility.yul\":127:128   */\n  0x00\n    /* \"#utility.yul\":120:135   */\n  revert\n    /* \"#utility.yul\":146:1031   */\ntag_22:\n    /* \"#utility.yul\":200:205   */\n  0x00\n    /* \"#utility.yul\":253:256   */\n  dup3\n    /* \"#utility.yul\":246:250   */\n  0x1f\n    /* \"#utility.yul\":238:244   */\n  dup4\n    /* \"#utility.yul\":234:251   */\n  add\n    /* \"#utility.yul\":230:257   */\n  slt\n    /* \"#utility.yul\":220:275   */\n  tag_26\n  jumpi\n    /* \"#utility.yul\":271:272   */\n  0x00\n    /* \"#utility.yul\":268:269   */\n  dup1\n    /* \"#utility.yul\":261:273   */\n  revert\n    /* \"#utility.yul\":220:275   */\ntag_26:\n    /* \"#utility.yul\":294:307   */\n  dup2\n  mload\n  sub(shl(0x40, 0x01), 0x01)\n    /* \"#utility.yul\":356:366   */\n  dup1\n  dup3\n  gt\n    /* \"#utility.yul\":353:389   */\n  iszero\n  tag_28\n  jumpi\n    /* \"#utility.yul\":369:387   */\n  tag_28\n  tag_21\n  jump\t// in\ntag_28:\n    /* \"#utility.yul\":444:446   */\n  0x40\n    /* \"#utility.yul\":438:447   */\n  mload\n    /* \"#utility.yul\":412:414   */\n  0x1f\n    /* \"#utility.yul\":498:511   */\n  dup4\n  add\n  not(0x1f)\n    /* \"#utility.yul\":494:516   */\n  swap1\n  dup2\n  and\n    /* \"#utility.yul\":518:520   */\n  0x3f\n    /* \"#utility.yul\":490:521   */\n  add\n    /* \"#utility.yul\":486:526   */\n  and\n    /* \"#utility.yul\":474:527   */\n  dup2\n  add\n  swap1\n    /* \"#utility.yul\":542:560   */\n  dup3\n  dup3\n  gt\n    /* \"#utility.yul\":562:584   */\n  dup2\n  dup4\n  lt\n    /* \"#utility.yul\":539:585   */\n  or\n    /* \"#utility.yul\":536:608   */\n  iszero\n  tag_30\n  jumpi\n    /* \"#utility.yul\":588:606   */\n  tag_30\n  tag_21\n  jump\t// in\ntag_30:\n    /* \"#utility.yul\":628:638   */\n  dup2\n    /* \"#utility.yul\":624:626   */\n  0x40\n    /* \"#utility.yul\":617:639   */\n  mstore\n    /* \"#utility.yul\":663:665   */\n  dup4\n    /* \"#utility.yul\":655:661   */\n  dup2\n    /* \"#utility.yul\":648:666   */\n  mstore\n    /* \"#utility.yul\":685:689   */\n  0x20\n    /* \"#utility.yul\":675:689   */\n  swap3\n  pop\n    /* \"#utility.yul\":730:733   */\n  dup7\n    /* \"#utility.yul\":725:727   */\n  dup4\n    /* \"#utility.yul\":720:722   */\n  dup6\n    /* \"#utility.yul\":712:718   */\n  dup9\n    /* \"#utility.yul\":708:723   */\n  add\n    /* \"#utility.yul\":704:728   */\n  add\n    /* \"#utility.yul\":701:734   */\n  gt\n    /* \"#utility.yul\":698:751   */\n  iszero\n  tag_31\n  jumpi\n    /* \"#utility.yul\":747:748   */\n  0x00\n    /* \"#utility.yul\":744:745   */\n  dup1\n    /* \"#utility.yul\":737:749   */\n  revert\n    /* \"#utility.yul\":698:751   */\ntag_31:\n    /* \"#utility.yul\":769:770   */\n  0x00\n    /* \"#utility.yul\":760:770   */\n  swap2\n  pop\n    /* \"#utility.yul\":779:912   */\ntag_32:\n    /* \"#utility.yul\":793:795   */\n  dup4\n    /* \"#utility.yul\":790:791   */\n  dup3\n    /* \"#utility.yul\":787:796   */\n  lt\n    /* \"#utility.yul\":779:912   */\n  iszero\n  tag_34\n  jumpi\n    /* \"#utility.yul\":881:895   */\n  dup6\n  dup3\n  add\n    /* \"#utility.yul\":877:900   */\n  dup4\n  add\n    /* \"#utility.yul\":871:901   */\n  mload\n    /* \"#utility.yul\":850:864   */\n  dup2\n  dup4\n  add\n    /* \"#utility.yul\":846:869   */\n  dup5\n  add\n    /* \"#utility.yul\":839:902   */\n  mstore\n    /* \"#utility.yul\":804:814   */\n  swap1\n  dup3\n  add\n  swap1\n    /* \"#utility.yul\":779:912   */\n  jump(tag_32)\ntag_34:\n    /* \"#utility.yul\":930:932   */\n  dup4\n    /* \"#utility.yul\":927:928   */\n  dup3\n    /* \"#utility.yul\":924:933   */\n  gt\n    /* \"#utility.yul\":921:1001   */\n  iszero\n  tag_35\n  jumpi\n    /* \"#utility.yul\":989:990   */\n  0x00\n    /* \"#utility.yul\":984:986   */\n  dup4\n    /* \"#utility.yul\":979:981   */\n  dup6\n    /* \"#utility.yul\":971:977   */\n  dup4\n    /* \"#utility.yul\":967:982   */\n  add\n    /* \"#utility.yul\":963:987   */\n  add\n    /* \"#utility.yul\":956:991   */\n  mstore\n    /* \"#utility.yul\":921:1001   */\ntag_35:\n    /* \"#utility.yul\":1019:1025   */\n  swap7\n    /* \"#utility.yul\":146:1031   */\n  swap6\n  pop\n  pop\n  pop\n  pop\n  pop\n  pop\n  jump\t// out\n    /* \"#utility.yul\":1036:1748   */\ntag_3:\n    /* \"#utility.yul\":1142:1148   */\n  0x00\n    /* \"#utility.yul\":1150:1156   */\n  dup1\n    /* \"#utility.yul\":1158:1164   */\n  0x00\n    /* \"#utility.yul\":1211:1213   */\n  0x60\n    /* \"#utility.yul\":1199:1208   */\n  dup5\n    /* \"#utility.yul\":1190:1197   */\n  dup7\n    /* \"#utility.yul\":1186:1209   */\n  sub\n    /* \"#utility.yul\":1182:1214   */\n  slt\n    /* \"#utility.yul\":1179:1231   */\n  iszero\n  tag_37\n  jumpi\n    /* \"#utility.yul\":1227:1228   */\n  0x00\n    /* \"#utility.yul\":1224:1225   */\n  dup1\n    /* \"#utility.yul\":1217:1229   */\n  revert\n    /* \"#utility.yul\":1179:1231   */\ntag_37:\n    /* \"#utility.yul\":1254:1270   */\n  dup4\n  mload\n  sub(shl(0x40, 0x01), 0x01)\n    /* \"#utility.yul\":1319:1333   */\n  dup1\n  dup3\n  gt\n    /* \"#utility.yul\":1316:1350   */\n  iszero\n  tag_38\n  jumpi\n    /* \"#utility.yul\":1346:1347   */\n  0x00\n    /* \"#utility.yul\":1343:1344   */\n  dup1\n    /* \"#utility.yul\":1336:1348   */\n  revert\n    /* \"#utility.yul\":1316:1350   */\ntag_38:\n    /* \"#utility.yul\":1369:1430   */\n  tag_39\n    /* \"#utility.yul\":1422:1429   */\n  dup8\n    /* \"#utility.yul\":1413:1419   */\n  dup4\n    /* \"#utility.yul\":1402:1411   */\n  dup9\n    /* \"#utility.yul\":1398:1420   */\n  add\n    /* \"#utility.yul\":1369:1430   */\n  tag_22\n  jump\t// in\ntag_39:\n    /* \"#utility.yul\":1359:1430   */\n  swap5\n  pop\n    /* \"#utility.yul\":1476:1478   */\n  0x20\n    /* \"#utility.yul\":1465:1474   */\n  dup7\n    /* \"#utility.yul\":1461:1479   */\n  add\n    /* \"#utility.yul\":1455:1480   */\n  mload\n    /* \"#utility.yul\":1439:1480   */\n  swap2\n  pop\n    /* \"#utility.yul\":1505:1507   */\n  dup1\n    /* \"#utility.yul\":1495:1503   */\n  dup3\n    /* \"#utility.yul\":1492:1508   */\n  gt\n    /* \"#utility.yul\":1489:1525   */\n  iszero\n  tag_40\n  jumpi\n    /* \"#utility.yul\":1521:1522   */\n  0x00\n    /* \"#utility.yul\":1518:1519   */\n  dup1\n    /* \"#utility.yul\":1511:1523   */\n  revert\n    /* \"#utility.yul\":1489:1525   */\ntag_40:\n  pop\n    /* \"#utility.yul\":1544:1607   */\n  tag_41\n    /* \"#utility.yul\":1599:1606   */\n  dup7\n    /* \"#utility.yul\":1588:1596   */\n  dup3\n    /* \"#utility.yul\":1577:1586   */\n  dup8\n    /* \"#utility.yul\":1573:1597   */\n  add\n    /* \"#utility.yul\":1544:1607   */\n  tag_22\n  jump\t// in\ntag_41:\n    /* \"#utility.yul\":1534:1607   */\n  swap3\n  pop\n  pop\n    /* \"#utility.yul\":1650:1652   */\n  0x40\n    /* \"#utility.yul\":1639:1648   */\n  dup5\n    /* \"#utility.yul\":1635:1653   */\n  add\n    /* \"#utility.yul\":1629:1654   */\n  mload\n    /* \"#utility.yul\":1694:1698   */\n  0xff\n    /* \"#utility.yul\":1687:1692   */\n  dup2\n    /* \"#utility.yul\":1683:1699   */\n  and\n    /* \"#utility.yul\":1676:1681   */\n  dup2\n    /* \"#utility.yul\":1673:1700   */\n  eq\n    /* \"#utility.yul\":1663:1718   */\n  tag_42\n  jumpi\n    /* \"#utility.yul\":1714:1715   */\n  0x00\n    /* \"#utility.yul\":1711:1712   */\n  dup1\n    /* \"#utility.yul\":1704:1716   */\n  revert\n    /* \"#utility.yul\":1663:1718   */\ntag_42:\n    /* \"#utility.yul\":1737:1742   */\n  dup1\n    /* \"#utility.yul\":1727:1742   */\n  swap2\n  pop\n  pop\n    /* \"#utility.yul\":1036:1748   */\n  swap3\n  pop\n  swap3\n  pop\n  swap3\n  jump\t// out\n    /* \"#utility.yul\":1753:2133   */\ntag_11:\n    /* \"#utility.yul\":1832:1833   */\n  0x01\n    /* \"#utility.yul\":1828:1840   */\n  dup2\n  dup2\n  shr\n  swap1\n    /* \"#utility.yul\":1875:1887   */\n  dup3\n  and\n  dup1\n    /* \"#utility.yul\":1896:1957   */\n  tag_44\n  jumpi\n    /* \"#utility.yul\":1950:1954   */\n  0x7f\n    /* \"#utility.yul\":1942:1948   */\n  dup3\n    /* \"#utility.yul\":1938:1955   */\n  and\n    /* \"#utility.yul\":1928:1955   */\n  swap2\n  pop\n    /* \"#utility.yul\":1896:1957   */\ntag_44:\n    /* \"#utility.yul\":2003:2005   */\n  0x20\n    /* \"#utility.yul\":1995:2001   */\n  dup3\n    /* \"#utility.yul\":1992:2006   */\n  lt\n    /* \"#utility.yul\":1972:1990   */\n  dup2\n    /* \"#utility.yul\":1969:2007   */\n  sub\n    /* \"#utility.yul\":1966:2127   */\n  tag_45\n  jumpi\n    /* \"#utility.yul\":2049:2059   */\n  0x4e487b71\n    /* \"#utility.yul\":2044:2047   */\n  0xe0\n    /* \"#utility.yul\":2040:2060   */\n  shl\n    /* \"#utility.yul\":2037:2038   */\n  0x00\n    /* \"#utility.yul\":2030:2061   */\n  mstore\n    /* \"#utility.yul\":2084:2088   */\n  0x22\n    /* \"#utility.yul\":2081:2082   */\n  0x04\n    /* \"#utility.yul\":2074:2089   */\n  mstore\n    /* \"#utility.yul\":2112:2116   */\n  0x24\n    /* \"#utility.yul\":2109:2110   */\n  0x00\n    /* \"#utility.yul\":2102:2117   */\n  revert\n    /* \"#utility.yul\":1966:2127   */\ntag_45:\n  pop\n    /* \"#utility.yul\":1753:2133   */\n  swap2\n  swap1\n  pop\n  jump\t// out\ntag_23:\n    /* \"TFGv3/Contracts/CryptoFundToken.sol\":108:5507  contract CryptoFundToken is IERC20... */\n  mload(0x80)\n  codecopy(0x00, dataOffset(sub_0), dataSize(sub_0))\n  0x00\n  assignImmutable(\"0x277ab82e5a4641341820a4a2933a62c1de997e42e92548657ae21b3728d580fe\")\n  return(0x00, dataSize(sub_0))\nstop\n\nsub_0: assembly {\n        /* \"TFGv3/Contracts/CryptoFundToken.sol\":108:5507  contract CryptoFundToken is IERC20... */\n      mstore(0x40, 0x80)\n      callvalue\n      dup1\n      iszero\n      tag_1\n      jumpi\n      0x00\n      dup1\n      revert\n    tag_1:\n      pop\n      jumpi(tag_2, lt(calldatasize, 0x04))\n      shr(0xe0, calldataload(0x00))\n      dup1\n      0x40c10f19\n      gt\n      tag_19\n      jumpi\n      dup1\n      0x95d89b41\n      gt\n      tag_20\n      jumpi\n      dup1\n      0x95d89b41\n      eq\n      tag_15\n      jumpi\n      dup1\n      0xa457c2d7\n      eq\n      tag_16\n      jumpi\n      dup1\n      0xa9059cbb\n      eq\n      tag_17\n      jumpi\n      dup1\n      0xdd62ed3e\n      eq\n      tag_18\n      jumpi\n      0x00\n      dup1\n      revert\n    tag_20:\n      dup1\n      0x40c10f19\n      eq\n      tag_11\n      jumpi\n      dup1\n      0x42966c68\n      eq\n      tag_12\n      jumpi\n      dup1\n      0x70a08231\n      eq\n      tag_13\n      jumpi\n      dup1\n      0x79cc6790\n      eq\n      tag_14\n      jumpi\n      0x00\n      dup1\n      revert\n    tag_19:\n      dup1\n      0x23b872dd\n      gt\n      tag_21\n      jumpi\n      dup1\n      0x23b872dd\n      eq\n      tag_7\n      jumpi\n      dup1\n      0x313ce567\n      eq\n      tag_8\n      jumpi\n      dup1\n      0x39509351\n      eq\n      tag_9\n      jumpi\n      dup1\n      0x3eaaf86b\n      eq\n      tag_10\n      jumpi\n      0x00\n      dup1\n      revert\n    tag_21:\n      dup1\n      0x06fdde03\n      eq\n      tag_3\n      jumpi\n      dup1\n      0x095ea7b3\n      eq\n      tag_4\n      jumpi\n      dup1\n      0x13af4035\n      eq\n      tag_5\n      jumpi\n      dup1\n      0x18160ddd\n      eq\n      tag_6\n      jumpi\n    tag_2:\n      0x00\n      dup1\n      revert\n        /* \"TFGv3/Contracts/CryptoFundToken.sol\":369:387  string public name */\n    tag_3:\n      tag_22\n      tag_23\n      jump\t// in\n    tag_22:\n      mload(0x40)\n      tag_24\n      swap2\n      swap1\n      tag_25\n      jump\t// in\n    tag_24:\n      mload(0x40)\n      dup1\n      swap2\n      sub\n      swap1\n      return\n        /* \"TFGv3/Contracts/CryptoFundToken.sol\":1732:1902  function approve(address spender, uint256 amount) external virtual override returns (bool)... */\n    tag_4:\n      tag_26\n      tag_27\n      calldatasize\n      0x04\n      tag_28\n      jump\t// in\n    tag_27:\n      tag_29\n      jump\t// in\n    tag_26:\n      mload(0x40)\n        /* \"#utility.yul\":1300:1314   */\n      swap1\n      iszero\n        /* \"#utility.yul\":1293:1315   */\n      iszero\n        /* \"#utility.yul\":1275:1316   */\n      dup2\n      mstore\n        /* \"#utility.yul\":1263:1265   */\n      0x20\n        /* \"#utility.yul\":1248:1266   */\n      add\n        /* \"TFGv3/Contracts/CryptoFundToken.sol\":1732:1902  function approve(address spender, uint256 amount) external virtual override returns (bool)... */\n      tag_24\n        /* \"#utility.yul\":1135:1322   */\n      jump\n        /* \"TFGv3/Contracts/CryptoFundToken.sol\":926:1022  function setOwner(address newOwner) external OnlyDeployer... */\n    tag_5:\n      tag_32\n      tag_33\n      calldatasize\n      0x04\n      tag_34\n      jump\t// in\n    tag_33:\n      tag_35\n      jump\t// in\n    tag_32:\n      stop\n        /* \"TFGv3/Contracts/CryptoFundToken.sol\":1028:1140  function totalSupply() external view virtual override returns (uint256)... */\n    tag_6:\n        /* \"TFGv3/Contracts/CryptoFundToken.sol\":1121:1133  _totalSupply */\n      sload(0x03)\n        /* \"TFGv3/Contracts/CryptoFundToken.sol\":1028:1140  function totalSupply() external view virtual override returns (uint256)... */\n    tag_36:\n      mload(0x40)\n        /* \"#utility.yul\":1664:1689   */\n      swap1\n      dup2\n      mstore\n        /* \"#utility.yul\":1652:1654   */\n      0x20\n        /* \"#utility.yul\":1637:1655   */\n      add\n        /* \"TFGv3/Contracts/CryptoFundToken.sol\":1028:1140  function totalSupply() external view virtual override returns (uint256)... */\n      tag_24\n        /* \"#utility.yul\":1518:1695   */\n      jump\n        /* \"TFGv3/Contracts/CryptoFundToken.sol\":1908:2133  function transferFrom(address from, address to, uint256 amount) external virtual override returns (bool)... */\n    tag_7:\n      tag_26\n      tag_41\n      calldatasize\n      0x04\n      tag_42\n      jump\t// in\n    tag_41:\n      tag_43\n      jump\t// in\n        /* \"TFGv3/Contracts/CryptoFundToken.sol\":419:440  uint8 public decimals */\n    tag_8:\n      sload(0x06)\n      tag_45\n      swap1\n      0xff\n      and\n      dup2\n      jump\n    tag_45:\n      mload(0x40)\n        /* \"#utility.yul\":2205:2209   */\n      0xff\n        /* \"#utility.yul\":2193:2210   */\n      swap1\n      swap2\n      and\n        /* \"#utility.yul\":2175:2211   */\n      dup2\n      mstore\n        /* \"#utility.yul\":2163:2165   */\n      0x20\n        /* \"#utility.yul\":2148:2166   */\n      add\n        /* \"TFGv3/Contracts/CryptoFundToken.sol\":419:440  uint8 public decimals */\n      tag_24\n        /* \"#utility.yul\":2033:2217   */\n      jump\n        /* \"TFGv3/Contracts/CryptoFundToken.sol\":2139:2353  function increaseAllowance(address spender, uint256 addedValue) external virtual returns (bool)... */\n    tag_9:\n      tag_26\n      tag_50\n      calldatasize\n      0x04\n      tag_28\n      jump\t// in\n    tag_50:\n      tag_51\n      jump\t// in\n        /* \"TFGv3/Contracts/CryptoFundToken.sol\":335:362  uint256 public _totalSupply */\n    tag_10:\n      tag_36\n      sload(0x03)\n      dup2\n      jump\n        /* \"TFGv3/Contracts/CryptoFundToken.sol\":4994:5154  function mint(address account, uint amount) external virtual override OnlyOwners returns (bool)... */\n    tag_11:\n      tag_26\n      tag_57\n      calldatasize\n      0x04\n      tag_28\n      jump\t// in\n    tag_57:\n      tag_58\n      jump\t// in\n        /* \"TFGv3/Contracts/CryptoFundToken.sol\":5160:5298  function burn(uint256 amount) external virtual override returns (bool)... */\n    tag_12:\n      tag_26\n      tag_61\n      calldatasize\n      0x04\n      tag_62\n      jump\t// in\n    tag_61:\n      tag_63\n      jump\t// in\n        /* \"TFGv3/Contracts/CryptoFundToken.sol\":1146:1277  function balanceOf(address account) external view virtual override returns (uint256)... */\n    tag_13:\n      tag_36\n      tag_66\n      calldatasize\n      0x04\n      tag_34\n      jump\t// in\n    tag_66:\n      sub(shl(0xa0, 0x01), 0x01)\n        /* \"TFGv3/Contracts/CryptoFundToken.sol\":1252:1270  _balances[account] */\n      and\n        /* \"TFGv3/Contracts/CryptoFundToken.sol\":1222:1229  uint256 */\n      0x00\n        /* \"TFGv3/Contracts/CryptoFundToken.sol\":1252:1270  _balances[account] */\n      swap1\n      dup2\n      mstore\n      0x20\n      dup2\n      swap1\n      mstore\n      0x40\n      swap1\n      keccak256\n      sload\n      swap1\n        /* \"TFGv3/Contracts/CryptoFundToken.sol\":1146:1277  function balanceOf(address account) external view virtual override returns (uint256)... */\n      jump\n        /* \"TFGv3/Contracts/CryptoFundToken.sol\":5304:5505  function burnFrom(address from, uint256 amount) external virtual override returns (bool)... */\n    tag_14:\n      tag_26\n      tag_70\n      calldatasize\n      0x04\n      tag_28\n      jump\t// in\n    tag_70:\n      tag_71\n      jump\t// in\n        /* \"TFGv3/Contracts/CryptoFundToken.sol\":393:413  string public symbol */\n    tag_15:\n      tag_22\n      tag_74\n      jump\t// in\n        /* \"TFGv3/Contracts/CryptoFundToken.sol\":2359:2773  function decreaseAllowance(address spender, uint256 subtractedValue) external virtual returns (bool)... */\n    tag_16:\n      tag_26\n      tag_77\n      calldatasize\n      0x04\n      tag_28\n      jump\t// in\n    tag_77:\n      tag_78\n      jump\t// in\n        /* \"TFGv3/Contracts/CryptoFundToken.sol\":1403:1565  function transfer(address to, uint256 amount) external virtual override returns (bool)... */\n    tag_17:\n      tag_26\n      tag_81\n      calldatasize\n      0x04\n      tag_28\n      jump\t// in\n    tag_81:\n      tag_82\n      jump\t// in\n        /* \"TFGv3/Contracts/CryptoFundToken.sol\":1571:1726  function allowance(address owner, address spender) external view virtual override returns (uint256)... */\n    tag_18:\n      tag_36\n      tag_85\n      calldatasize\n      0x04\n      tag_86\n      jump\t// in\n    tag_85:\n      sub(shl(0xa0, 0x01), 0x01)\n        /* \"TFGv3/Contracts/CryptoFundToken.sol\":1692:1710  _allowances[owner] */\n      swap2\n      dup3\n      and\n        /* \"TFGv3/Contracts/CryptoFundToken.sol\":1662:1669  uint256 */\n      0x00\n        /* \"TFGv3/Contracts/CryptoFundToken.sol\":1692:1710  _allowances[owner] */\n      swap1\n      dup2\n      mstore\n        /* \"TFGv3/Contracts/CryptoFundToken.sol\":1692:1703  _allowances */\n      0x01\n        /* \"TFGv3/Contracts/CryptoFundToken.sol\":1692:1710  _allowances[owner] */\n      0x20\n      swap1\n      dup2\n      mstore\n      0x40\n      dup1\n      dup4\n      keccak256\n        /* \"TFGv3/Contracts/CryptoFundToken.sol\":1692:1719  _allowances[owner][spender] */\n      swap4\n      swap1\n      swap5\n      and\n      dup3\n      mstore\n      swap2\n      swap1\n      swap2\n      mstore\n      keccak256\n      sload\n      swap1\n        /* \"TFGv3/Contracts/CryptoFundToken.sol\":1571:1726  function allowance(address owner, address spender) external view virtual override returns (uint256)... */\n      jump\n        /* \"TFGv3/Contracts/CryptoFundToken.sol\":369:387  string public name */\n    tag_23:\n      0x04\n      dup1\n      sload\n      tag_89\n      swap1\n      tag_90\n      jump\t// in\n    tag_89:\n      dup1\n      0x1f\n      add\n      0x20\n      dup1\n      swap2\n      div\n      mul\n      0x20\n      add\n      mload(0x40)\n      swap1\n      dup2\n      add\n      0x40\n      mstore\n      dup1\n      swap3\n      swap2\n      swap1\n      dup2\n      dup2\n      mstore\n      0x20\n      add\n      dup3\n      dup1\n      sload\n      tag_91\n      swap1\n      tag_90\n      jump\t// in\n    tag_91:\n      dup1\n      iszero\n      tag_92\n      jumpi\n      dup1\n      0x1f\n      lt\n      tag_93\n      jumpi\n      0x0100\n      dup1\n      dup4\n      sload\n      div\n      mul\n      dup4\n      mstore\n      swap2\n      0x20\n      add\n      swap2\n      jump(tag_92)\n    tag_93:\n      dup3\n      add\n      swap2\n      swap1\n      0x00\n      mstore\n      keccak256(0x00, 0x20)\n      swap1\n    tag_94:\n      dup2\n      sload\n      dup2\n      mstore\n      swap1\n      0x01\n      add\n      swap1\n      0x20\n      add\n      dup1\n      dup4\n      gt\n      tag_94\n      jumpi\n      dup3\n      swap1\n      sub\n      0x1f\n      and\n      dup3\n      add\n      swap2\n    tag_92:\n      pop\n      pop\n      pop\n      pop\n      pop\n      dup2\n      jump\t// out\n        /* \"TFGv3/Contracts/CryptoFundToken.sol\":1732:1902  function approve(address spender, uint256 amount) external virtual override returns (bool)... */\n    tag_29:\n        /* \"TFGv3/Contracts/CryptoFundToken.sol\":1817:1821  bool */\n      0x00\n        /* \"TFGv3/Contracts/CryptoFundToken.sol\":1837:1874  _approve(msg.sender, spender, amount) */\n      tag_96\n        /* \"TFGv3/Contracts/CryptoFundToken.sol\":1846:1856  msg.sender */\n      caller\n        /* \"TFGv3/Contracts/CryptoFundToken.sol\":1858:1865  spender */\n      dup5\n        /* \"TFGv3/Contracts/CryptoFundToken.sol\":1867:1873  amount */\n      dup5\n        /* \"TFGv3/Contracts/CryptoFundToken.sol\":1837:1845  _approve */\n      tag_97\n        /* \"TFGv3/Contracts/CryptoFundToken.sol\":1837:1874  _approve(msg.sender, spender, amount) */\n      jump\t// in\n    tag_96:\n      pop\n        /* \"TFGv3/Contracts/CryptoFundToken.sol\":1891:1895  true */\n      0x01\n        /* \"TFGv3/Contracts/CryptoFundToken.sol\":1732:1902  function approve(address spender, uint256 amount) external virtual override returns (bool)... */\n      swap3\n      swap2\n      pop\n      pop\n      jump\t// out\n        /* \"TFGv3/Contracts/CryptoFundToken.sol\":926:1022  function setOwner(address newOwner) external OnlyDeployer... */\n    tag_35:\n        /* \"TFGv3/Contracts/CryptoFundToken.sol\":721:731  msg.sender */\n      caller\n      sub(shl(0xa0, 0x01), 0x01)\n        /* \"TFGv3/Contracts/CryptoFundToken.sol\":735:743  deployer */\n      immutable(\"0x277ab82e5a4641341820a4a2933a62c1de997e42e92548657ae21b3728d580fe\")\n        /* \"TFGv3/Contracts/CryptoFundToken.sol\":721:743  msg.sender == deployer */\n      and\n      eq\n        /* \"TFGv3/Contracts/CryptoFundToken.sol\":713:767  require(msg.sender == deployer, \"Sender not deployer\") */\n      tag_99\n      jumpi\n      mload(0x40)\n      shl(0xe5, 0x461bcd)\n      dup2\n      mstore\n        /* \"#utility.yul\":3316:3318   */\n      0x20\n        /* \"TFGv3/Contracts/CryptoFundToken.sol\":713:767  require(msg.sender == deployer, \"Sender not deployer\") */\n      0x04\n      dup3\n      add\n        /* \"#utility.yul\":3298:3319   */\n      mstore\n        /* \"#utility.yul\":3355:3357   */\n      0x13\n        /* \"#utility.yul\":3335:3353   */\n      0x24\n      dup3\n      add\n        /* \"#utility.yul\":3328:3358   */\n      mstore\n        /* \"#utility.yul\":3394:3415   */\n      0x53656e646572206e6f74206465706c6f79657200000000000000000000000000\n        /* \"#utility.yul\":3374:3392   */\n      0x44\n      dup3\n      add\n        /* \"#utility.yul\":3367:3416   */\n      mstore\n        /* \"#utility.yul\":3433:3451   */\n      0x64\n      add\n        /* \"TFGv3/Contracts/CryptoFundToken.sol\":713:767  require(msg.sender == deployer, \"Sender not deployer\") */\n    tag_100:\n      mload(0x40)\n      dup1\n      swap2\n      sub\n      swap1\n      revert\n    tag_99:\n        /* \"TFGv3/Contracts/CryptoFundToken.sol\":998:1004  _owner */\n      0x02\n        /* \"TFGv3/Contracts/CryptoFundToken.sol\":998:1015  _owner = newOwner */\n      dup1\n      sload\n      0xffffffffffffffffffffffff0000000000000000000000000000000000000000\n      and\n      sub(shl(0xa0, 0x01), 0x01)\n      swap3\n      swap1\n      swap3\n      and\n      swap2\n      swap1\n      swap2\n      or\n      swap1\n      sstore\n        /* \"TFGv3/Contracts/CryptoFundToken.sol\":926:1022  function setOwner(address newOwner) external OnlyDeployer... */\n      jump\t// out\n        /* \"TFGv3/Contracts/CryptoFundToken.sol\":1908:2133  function transferFrom(address from, address to, uint256 amount) external virtual override returns (bool)... */\n    tag_43:\n        /* \"TFGv3/Contracts/CryptoFundToken.sol\":2007:2011  bool */\n      0x00\n        /* \"TFGv3/Contracts/CryptoFundToken.sol\":2027:2068  _spendAllowance(from, msg.sender, amount) */\n      tag_105\n        /* \"TFGv3/Contracts/CryptoFundToken.sol\":2043:2047  from */\n      dup5\n        /* \"TFGv3/Contracts/CryptoFundToken.sol\":2049:2059  msg.sender */\n      caller\n        /* \"TFGv3/Contracts/CryptoFundToken.sol\":2061:2067  amount */\n      dup5\n        /* \"TFGv3/Contracts/CryptoFundToken.sol\":2027:2042  _spendAllowance */\n      tag_106\n        /* \"TFGv3/Contracts/CryptoFundToken.sol\":2027:2068  _spendAllowance(from, msg.sender, amount) */\n      jump\t// in\n    tag_105:\n        /* \"TFGv3/Contracts/CryptoFundToken.sol\":2078:2105  _transfer(from, to, amount) */\n      tag_107\n        /* \"TFGv3/Contracts/CryptoFundToken.sol\":2088:2092  from */\n      dup5\n        /* \"TFGv3/Contracts/CryptoFundToken.sol\":2094:2096  to */\n      dup5\n        /* \"TFGv3/Contracts/CryptoFundToken.sol\":2098:2104  amount */\n      dup5\n        /* \"TFGv3/Contracts/CryptoFundToken.sol\":2078:2087  _transfer */\n      tag_108\n        /* \"TFGv3/Contracts/CryptoFundToken.sol\":2078:2105  _transfer(from, to, amount) */\n      jump\t// in\n    tag_107:\n      pop\n        /* \"TFGv3/Contracts/CryptoFundToken.sol\":2122:2126  true */\n      0x01\n        /* \"TFGv3/Contracts/CryptoFundToken.sol\":1908:2133  function transferFrom(address from, address to, uint256 amount) external virtual override returns (bool)... */\n      swap4\n      swap3\n      pop\n      pop\n      pop\n      jump\t// out\n        /* \"TFGv3/Contracts/CryptoFundToken.sol\":2139:2353  function increaseAllowance(address spender, uint256 addedValue) external virtual returns (bool)... */\n    tag_51:\n        /* \"TFGv3/Contracts/CryptoFundToken.sol\":2258:2268  msg.sender */\n      caller\n        /* \"TFGv3/Contracts/CryptoFundToken.sol\":2229:2233  bool */\n      0x00\n        /* \"TFGv3/Contracts/CryptoFundToken.sol\":2279:2302  _allowances[msg.sender] */\n      dup2\n      dup2\n      mstore\n        /* \"TFGv3/Contracts/CryptoFundToken.sol\":2279:2290  _allowances */\n      0x01\n        /* \"TFGv3/Contracts/CryptoFundToken.sol\":2279:2302  _allowances[msg.sender] */\n      0x20\n      swap1\n      dup2\n      mstore\n      0x40\n      dup1\n      dup4\n      keccak256\n      sub(shl(0xa0, 0x01), 0x01)\n        /* \"TFGv3/Contracts/CryptoFundToken.sol\":2279:2311  _allowances[msg.sender][spender] */\n      dup8\n      and\n      dup5\n      mstore\n      swap1\n      swap2\n      mstore\n      dup2\n      keccak256\n      sload\n        /* \"TFGv3/Contracts/CryptoFundToken.sol\":2229:2233  bool */\n      swap1\n      swap2\n        /* \"TFGv3/Contracts/CryptoFundToken.sol\":2249:2325  _approve(msg.sender, spender, _allowances[msg.sender][spender] + addedValue) */\n      tag_96\n      swap2\n        /* \"TFGv3/Contracts/CryptoFundToken.sol\":2270:2277  spender */\n      dup6\n      swap1\n        /* \"TFGv3/Contracts/CryptoFundToken.sol\":2279:2324  _allowances[msg.sender][spender] + addedValue */\n      tag_111\n      swap1\n        /* \"TFGv3/Contracts/CryptoFundToken.sol\":2314:2324  addedValue */\n      dup7\n      swap1\n        /* \"TFGv3/Contracts/CryptoFundToken.sol\":2279:2324  _allowances[msg.sender][spender] + addedValue */\n      tag_112\n      jump\t// in\n    tag_111:\n        /* \"TFGv3/Contracts/CryptoFundToken.sol\":2249:2257  _approve */\n      tag_97\n        /* \"TFGv3/Contracts/CryptoFundToken.sol\":2249:2325  _approve(msg.sender, spender, _allowances[msg.sender][spender] + addedValue) */\n      jump\t// in\n        /* \"TFGv3/Contracts/CryptoFundToken.sol\":4994:5154  function mint(address account, uint amount) external virtual override OnlyOwners returns (bool)... */\n    tag_58:\n        /* \"TFGv3/Contracts/CryptoFundToken.sol\":849:855  _owner */\n      sload(0x02)\n        /* \"TFGv3/Contracts/CryptoFundToken.sol\":5084:5088  bool */\n      0x00\n      swap1\n      sub(shl(0xa0, 0x01), 0x01)\n        /* \"TFGv3/Contracts/CryptoFundToken.sol\":849:855  _owner */\n      and\n        /* \"TFGv3/Contracts/CryptoFundToken.sol\":835:845  msg.sender */\n      caller\n        /* \"TFGv3/Contracts/CryptoFundToken.sol\":835:855  msg.sender == _owner */\n      eq\n      dup1\n        /* \"TFGv3/Contracts/CryptoFundToken.sol\":835:881  msg.sender == _owner || msg.sender == deployer */\n      tag_114\n      jumpi\n      pop\n        /* \"TFGv3/Contracts/CryptoFundToken.sol\":859:869  msg.sender */\n      caller\n      sub(shl(0xa0, 0x01), 0x01)\n        /* \"TFGv3/Contracts/CryptoFundToken.sol\":873:881  deployer */\n      immutable(\"0x277ab82e5a4641341820a4a2933a62c1de997e42e92548657ae21b3728d580fe\")\n        /* \"TFGv3/Contracts/CryptoFundToken.sol\":859:881  msg.sender == deployer */\n      and\n      eq\n        /* \"TFGv3/Contracts/CryptoFundToken.sol\":835:881  msg.sender == _owner || msg.sender == deployer */\n    tag_114:\n        /* \"TFGv3/Contracts/CryptoFundToken.sol\":827:902  require(msg.sender == _owner || msg.sender == deployer, \"Sender not owner\") */\n      tag_115\n      jumpi\n      mload(0x40)\n      shl(0xe5, 0x461bcd)\n      dup2\n      mstore\n        /* \"#utility.yul\":3986:3988   */\n      0x20\n        /* \"TFGv3/Contracts/CryptoFundToken.sol\":827:902  require(msg.sender == _owner || msg.sender == deployer, \"Sender not owner\") */\n      0x04\n      dup3\n      add\n        /* \"#utility.yul\":3968:3989   */\n      mstore\n        /* \"#utility.yul\":4025:4027   */\n      0x10\n        /* \"#utility.yul\":4005:4023   */\n      0x24\n      dup3\n      add\n        /* \"#utility.yul\":3998:4028   */\n      mstore\n        /* \"#utility.yul\":4064:4082   */\n      0x53656e646572206e6f74206f776e657200000000000000000000000000000000\n        /* \"#utility.yul\":4044:4062   */\n      0x44\n      dup3\n      add\n        /* \"#utility.yul\":4037:4083   */\n      mstore\n        /* \"#utility.yul\":4100:4118   */\n      0x64\n      add\n        /* \"TFGv3/Contracts/CryptoFundToken.sol\":827:902  require(msg.sender == _owner || msg.sender == deployer, \"Sender not owner\") */\n      tag_100\n        /* \"#utility.yul\":3784:4124   */\n      jump\n        /* \"TFGv3/Contracts/CryptoFundToken.sol\":827:902  require(msg.sender == _owner || msg.sender == deployer, \"Sender not owner\") */\n    tag_115:\n        /* \"TFGv3/Contracts/CryptoFundToken.sol\":5104:5126  _mint(account, amount) */\n      tag_96\n        /* \"TFGv3/Contracts/CryptoFundToken.sol\":5110:5117  account */\n      dup4\n        /* \"TFGv3/Contracts/CryptoFundToken.sol\":5119:5125  amount */\n      dup4\n        /* \"TFGv3/Contracts/CryptoFundToken.sol\":5104:5109  _mint */\n      tag_120\n        /* \"TFGv3/Contracts/CryptoFundToken.sol\":5104:5126  _mint(account, amount) */\n      jump\t// in\n        /* \"TFGv3/Contracts/CryptoFundToken.sol\":5160:5298  function burn(uint256 amount) external virtual override returns (bool)... */\n    tag_63:\n        /* \"TFGv3/Contracts/CryptoFundToken.sol\":5225:5229  bool */\n      0x00\n        /* \"TFGv3/Contracts/CryptoFundToken.sol\":5245:5270  _burn(msg.sender, amount) */\n      tag_122\n        /* \"TFGv3/Contracts/CryptoFundToken.sol\":5251:5261  msg.sender */\n      caller\n        /* \"TFGv3/Contracts/CryptoFundToken.sol\":5263:5269  amount */\n      dup4\n        /* \"TFGv3/Contracts/CryptoFundToken.sol\":5245:5250  _burn */\n      tag_123\n        /* \"TFGv3/Contracts/CryptoFundToken.sol\":5245:5270  _burn(msg.sender, amount) */\n      jump\t// in\n    tag_122:\n      pop\n        /* \"TFGv3/Contracts/CryptoFundToken.sol\":5287:5291  true */\n      0x01\n      swap2\n        /* \"TFGv3/Contracts/CryptoFundToken.sol\":5160:5298  function burn(uint256 amount) external virtual override returns (bool)... */\n      swap1\n      pop\n      jump\t// out\n        /* \"TFGv3/Contracts/CryptoFundToken.sol\":5304:5505  function burnFrom(address from, uint256 amount) external virtual override returns (bool)... */\n    tag_71:\n        /* \"TFGv3/Contracts/CryptoFundToken.sol\":5387:5391  bool */\n      0x00\n        /* \"TFGv3/Contracts/CryptoFundToken.sol\":5407:5448  _spendAllowance(from, msg.sender, amount) */\n      tag_126\n        /* \"TFGv3/Contracts/CryptoFundToken.sol\":5423:5427  from */\n      dup4\n        /* \"TFGv3/Contracts/CryptoFundToken.sol\":5429:5439  msg.sender */\n      caller\n        /* \"TFGv3/Contracts/CryptoFundToken.sol\":5441:5447  amount */\n      dup5\n        /* \"TFGv3/Contracts/CryptoFundToken.sol\":5407:5422  _spendAllowance */\n      tag_106\n        /* \"TFGv3/Contracts/CryptoFundToken.sol\":5407:5448  _spendAllowance(from, msg.sender, amount) */\n      jump\t// in\n    tag_126:\n        /* \"TFGv3/Contracts/CryptoFundToken.sol\":5458:5477  _burn(from, amount) */\n      tag_96\n        /* \"TFGv3/Contracts/CryptoFundToken.sol\":5464:5468  from */\n      dup4\n        /* \"TFGv3/Contracts/CryptoFundToken.sol\":5470:5476  amount */\n      dup4\n        /* \"TFGv3/Contracts/CryptoFundToken.sol\":5458:5463  _burn */\n      tag_123\n        /* \"TFGv3/Contracts/CryptoFundToken.sol\":5458:5477  _burn(from, amount) */\n      jump\t// in\n        /* \"TFGv3/Contracts/CryptoFundToken.sol\":393:413  string public symbol */\n    tag_74:\n      0x05\n      dup1\n      sload\n      tag_89\n      swap1\n      tag_90\n      jump\t// in\n        /* \"TFGv3/Contracts/CryptoFundToken.sol\":2359:2773  function decreaseAllowance(address spender, uint256 subtractedValue) external virtual returns (bool)... */\n    tag_78:\n        /* \"TFGv3/Contracts/CryptoFundToken.sol\":2513:2523  msg.sender */\n      caller\n        /* \"TFGv3/Contracts/CryptoFundToken.sol\":2454:2458  bool */\n      0x00\n        /* \"TFGv3/Contracts/CryptoFundToken.sol\":2501:2524  _allowances[msg.sender] */\n      swap1\n      dup2\n      mstore\n        /* \"TFGv3/Contracts/CryptoFundToken.sol\":2501:2512  _allowances */\n      0x01\n        /* \"TFGv3/Contracts/CryptoFundToken.sol\":2501:2524  _allowances[msg.sender] */\n      0x20\n      swap1\n      dup2\n      mstore\n      0x40\n      dup1\n      dup4\n      keccak256\n      sub(shl(0xa0, 0x01), 0x01)\n        /* \"TFGv3/Contracts/CryptoFundToken.sol\":2501:2533  _allowances[msg.sender][spender] */\n      dup7\n      and\n      dup5\n      mstore\n      swap1\n      swap2\n      mstore\n      dup2\n      keccak256\n      sload\n        /* \"TFGv3/Contracts/CryptoFundToken.sol\":2551:2586  currentAllowance >= subtractedValue */\n      dup3\n      dup2\n      lt\n      iszero\n        /* \"TFGv3/Contracts/CryptoFundToken.sol\":2543:2628  require(currentAllowance >= subtractedValue, \"ERC20: decreased allowance below zero\") */\n      tag_134\n      jumpi\n      mload(0x40)\n      shl(0xe5, 0x461bcd)\n      dup2\n      mstore\n        /* \"#utility.yul\":4331:4333   */\n      0x20\n        /* \"TFGv3/Contracts/CryptoFundToken.sol\":2543:2628  require(currentAllowance >= subtractedValue, \"ERC20: decreased allowance below zero\") */\n      0x04\n      dup3\n      add\n        /* \"#utility.yul\":4313:4334   */\n      mstore\n        /* \"#utility.yul\":4370:4372   */\n      0x25\n        /* \"#utility.yul\":4350:4368   */\n      0x24\n      dup3\n      add\n        /* \"#utility.yul\":4343:4373   */\n      mstore\n        /* \"#utility.yul\":4409:4443   */\n      0x45524332303a2064656372656173656420616c6c6f77616e63652062656c6f77\n        /* \"#utility.yul\":4389:4407   */\n      0x44\n      dup3\n      add\n        /* \"#utility.yul\":4382:4444   */\n      mstore\n        /* \"#utility.yul\":4480:4487   */\n      0x207a65726f000000000000000000000000000000000000000000000000000000\n        /* \"#utility.yul\":4460:4478   */\n      0x64\n      dup3\n      add\n        /* \"#utility.yul\":4453:4488   */\n      mstore\n        /* \"#utility.yul\":4505:4524   */\n      0x84\n      add\n        /* \"TFGv3/Contracts/CryptoFundToken.sol\":2543:2628  require(currentAllowance >= subtractedValue, \"ERC20: decreased allowance below zero\") */\n      tag_100\n        /* \"#utility.yul\":4129:4530   */\n      jump\n        /* \"TFGv3/Contracts/CryptoFundToken.sol\":2543:2628  require(currentAllowance >= subtractedValue, \"ERC20: decreased allowance below zero\") */\n    tag_134:\n        /* \"TFGv3/Contracts/CryptoFundToken.sol\":2670:2735  _approve(msg.sender, spender, currentAllowance - subtractedValue) */\n      tag_107\n        /* \"TFGv3/Contracts/CryptoFundToken.sol\":2679:2689  msg.sender */\n      caller\n        /* \"TFGv3/Contracts/CryptoFundToken.sol\":2691:2698  spender */\n      dup6\n        /* \"TFGv3/Contracts/CryptoFundToken.sol\":2719:2734  subtractedValue */\n      dup6\n        /* \"TFGv3/Contracts/CryptoFundToken.sol\":2700:2716  currentAllowance */\n      dup5\n        /* \"TFGv3/Contracts/CryptoFundToken.sol\":2700:2734  currentAllowance - subtractedValue */\n      sub\n        /* \"TFGv3/Contracts/CryptoFundToken.sol\":2670:2678  _approve */\n      tag_97\n        /* \"TFGv3/Contracts/CryptoFundToken.sol\":2670:2735  _approve(msg.sender, spender, currentAllowance - subtractedValue) */\n      jump\t// in\n        /* \"TFGv3/Contracts/CryptoFundToken.sol\":1403:1565  function transfer(address to, uint256 amount) external virtual override returns (bool)... */\n    tag_82:\n        /* \"TFGv3/Contracts/CryptoFundToken.sol\":1484:1488  bool */\n      0x00\n        /* \"TFGv3/Contracts/CryptoFundToken.sol\":1504:1537  _transfer(msg.sender, to, amount) */\n      tag_96\n        /* \"TFGv3/Contracts/CryptoFundToken.sol\":1514:1524  msg.sender */\n      caller\n        /* \"TFGv3/Contracts/CryptoFundToken.sol\":1526:1528  to */\n      dup5\n        /* \"TFGv3/Contracts/CryptoFundToken.sol\":1530:1536  amount */\n      dup5\n        /* \"TFGv3/Contracts/CryptoFundToken.sol\":1504:1513  _transfer */\n      tag_108\n        /* \"TFGv3/Contracts/CryptoFundToken.sol\":1504:1537  _transfer(msg.sender, to, amount) */\n      jump\t// in\n        /* \"TFGv3/Contracts/CryptoFundToken.sol\":4076:4420  function _approve(address owner, address spender, uint256 amount) internal virtual... */\n    tag_97:\n      sub(shl(0xa0, 0x01), 0x01)\n        /* \"TFGv3/Contracts/CryptoFundToken.sol\":4181:4200  owner != address(0) */\n      dup4\n      and\n        /* \"TFGv3/Contracts/CryptoFundToken.sol\":4173:4241  require(owner != address(0), \"ERC20: approve from the zero address\") */\n      tag_142\n      jumpi\n      mload(0x40)\n      shl(0xe5, 0x461bcd)\n      dup2\n      mstore\n        /* \"#utility.yul\":4737:4739   */\n      0x20\n        /* \"TFGv3/Contracts/CryptoFundToken.sol\":4173:4241  require(owner != address(0), \"ERC20: approve from the zero address\") */\n      0x04\n      dup3\n      add\n        /* \"#utility.yul\":4719:4740   */\n      mstore\n        /* \"#utility.yul\":4776:4778   */\n      0x24\n        /* \"#utility.yul\":4756:4774   */\n      dup1\n      dup3\n      add\n        /* \"#utility.yul\":4749:4779   */\n      mstore\n        /* \"#utility.yul\":4815:4849   */\n      0x45524332303a20617070726f76652066726f6d20746865207a65726f20616464\n        /* \"#utility.yul\":4795:4813   */\n      0x44\n      dup3\n      add\n        /* \"#utility.yul\":4788:4850   */\n      mstore\n        /* \"#utility.yul\":4886:4892   */\n      0x7265737300000000000000000000000000000000000000000000000000000000\n        /* \"#utility.yul\":4866:4884   */\n      0x64\n      dup3\n      add\n        /* \"#utility.yul\":4859:4893   */\n      mstore\n        /* \"#utility.yul\":4910:4929   */\n      0x84\n      add\n        /* \"TFGv3/Contracts/CryptoFundToken.sol\":4173:4241  require(owner != address(0), \"ERC20: approve from the zero address\") */\n      tag_100\n        /* \"#utility.yul\":4535:4935   */\n      jump\n        /* \"TFGv3/Contracts/CryptoFundToken.sol\":4173:4241  require(owner != address(0), \"ERC20: approve from the zero address\") */\n    tag_142:\n      sub(shl(0xa0, 0x01), 0x01)\n        /* \"TFGv3/Contracts/CryptoFundToken.sol\":4259:4280  spender != address(0) */\n      dup3\n      and\n        /* \"TFGv3/Contracts/CryptoFundToken.sol\":4251:4319  require(spender != address(0), \"ERC20: approve to the zero address\") */\n      tag_145\n      jumpi\n      mload(0x40)\n      shl(0xe5, 0x461bcd)\n      dup2\n      mstore\n        /* \"#utility.yul\":5142:5144   */\n      0x20\n        /* \"TFGv3/Contracts/CryptoFundToken.sol\":4251:4319  require(spender != address(0), \"ERC20: approve to the zero address\") */\n      0x04\n      dup3\n      add\n        /* \"#utility.yul\":5124:5145   */\n      mstore\n        /* \"#utility.yul\":5181:5183   */\n      0x22\n        /* \"#utility.yul\":5161:5179   */\n      0x24\n      dup3\n      add\n        /* \"#utility.yul\":5154:5184   */\n      mstore\n        /* \"#utility.yul\":5220:5254   */\n      0x45524332303a20617070726f766520746f20746865207a65726f206164647265\n        /* \"#utility.yul\":5200:5218   */\n      0x44\n      dup3\n      add\n        /* \"#utility.yul\":5193:5255   */\n      mstore\n        /* \"#utility.yul\":5291:5295   */\n      0x7373000000000000000000000000000000000000000000000000000000000000\n        /* \"#utility.yul\":5271:5289   */\n      0x64\n      dup3\n      add\n        /* \"#utility.yul\":5264:5296   */\n      mstore\n        /* \"#utility.yul\":5313:5332   */\n      0x84\n      add\n        /* \"TFGv3/Contracts/CryptoFundToken.sol\":4251:4319  require(spender != address(0), \"ERC20: approve to the zero address\") */\n      tag_100\n        /* \"#utility.yul\":4940:5338   */\n      jump\n        /* \"TFGv3/Contracts/CryptoFundToken.sol\":4251:4319  require(spender != address(0), \"ERC20: approve to the zero address\") */\n    tag_145:\n      sub(shl(0xa0, 0x01), 0x01)\n        /* \"TFGv3/Contracts/CryptoFundToken.sol\":4330:4348  _allowances[owner] */\n      dup4\n      dup2\n      and\n      0x00\n      dup2\n      dup2\n      mstore\n        /* \"TFGv3/Contracts/CryptoFundToken.sol\":4330:4341  _allowances */\n      0x01\n        /* \"TFGv3/Contracts/CryptoFundToken.sol\":4330:4348  _allowances[owner] */\n      0x20\n      swap1\n      dup2\n      mstore\n      0x40\n      dup1\n      dup4\n      keccak256\n        /* \"TFGv3/Contracts/CryptoFundToken.sol\":4330:4357  _allowances[owner][spender] */\n      swap5\n      dup8\n      and\n      dup1\n      dup5\n      mstore\n      swap5\n      dup3\n      mstore\n      swap2\n      dup3\n      swap1\n      keccak256\n        /* \"TFGv3/Contracts/CryptoFundToken.sol\":4330:4366  _allowances[owner][spender] = amount */\n      dup6\n      swap1\n      sstore\n        /* \"TFGv3/Contracts/CryptoFundToken.sol\":4381:4413  Approval(owner, spender, amount) */\n      swap1\n      mload\n        /* \"#utility.yul\":1664:1689   */\n      dup5\n      dup2\n      mstore\n        /* \"TFGv3/Contracts/CryptoFundToken.sol\":4381:4413  Approval(owner, spender, amount) */\n      0x8c5be1e5ebec7d5bd14f71427d1e84f3dd0314c0f7b2291e5b200ac8c7c3b925\n      swap2\n        /* \"#utility.yul\":1637:1655   */\n      add\n        /* \"TFGv3/Contracts/CryptoFundToken.sol\":4381:4413  Approval(owner, spender, amount) */\n    tag_148:\n      mload(0x40)\n      dup1\n      swap2\n      sub\n      swap1\n      log3\n        /* \"TFGv3/Contracts/CryptoFundToken.sol\":4076:4420  function _approve(address owner, address spender, uint256 amount) internal virtual... */\n      pop\n      pop\n      pop\n      jump\t// out\n        /* \"TFGv3/Contracts/CryptoFundToken.sol\":4426:4868  function _spendAllowance(address owner, address spender, uint256 amount) internal virtual... */\n    tag_106:\n        /* \"TFGv3/Contracts/CryptoFundToken.sol\":4569:4579  msg.sender */\n      caller\n        /* \"TFGv3/Contracts/CryptoFundToken.sol\":4530:4554  uint256 currentAllowance */\n      0x00\n        /* \"TFGv3/Contracts/CryptoFundToken.sol\":4557:4580  _allowances[msg.sender] */\n      swap1\n      dup2\n      mstore\n        /* \"TFGv3/Contracts/CryptoFundToken.sol\":4557:4568  _allowances */\n      0x01\n        /* \"TFGv3/Contracts/CryptoFundToken.sol\":4557:4580  _allowances[msg.sender] */\n      0x20\n      swap1\n      dup2\n      mstore\n      0x40\n      dup1\n      dup4\n      keccak256\n      sub(shl(0xa0, 0x01), 0x01)\n        /* \"TFGv3/Contracts/CryptoFundToken.sol\":4557:4589  _allowances[msg.sender][spender] */\n      dup7\n      and\n      dup5\n      mstore\n      swap1\n      swap2\n      mstore\n      swap1\n      keccak256\n      sload\n        /* \"TFGv3/Contracts/CryptoFundToken.sol\":4623:4640  type(uint256).max */\n      0xffffffffffffffffffffffffffffffffffffffffffffffffffffffffffffffff\n        /* \"TFGv3/Contracts/CryptoFundToken.sol\":4603:4640  currentAllowance != type(uint256).max */\n      dup2\n      eq\n        /* \"TFGv3/Contracts/CryptoFundToken.sol\":4599:4862  if (currentAllowance != type(uint256).max)... */\n      tag_154\n      jumpi\n        /* \"TFGv3/Contracts/CryptoFundToken.sol\":4692:4698  amount */\n      dup2\n        /* \"TFGv3/Contracts/CryptoFundToken.sol\":4672:4688  currentAllowance */\n      dup2\n        /* \"TFGv3/Contracts/CryptoFundToken.sol\":4672:4698  currentAllowance >= amount */\n      lt\n      iszero\n        /* \"TFGv3/Contracts/CryptoFundToken.sol\":4664:4732  require(currentAllowance >= amount, \"ERC20: insufficient allowance\") */\n      tag_151\n      jumpi\n      mload(0x40)\n      shl(0xe5, 0x461bcd)\n      dup2\n      mstore\n        /* \"#utility.yul\":5545:5547   */\n      0x20\n        /* \"TFGv3/Contracts/CryptoFundToken.sol\":4664:4732  require(currentAllowance >= amount, \"ERC20: insufficient allowance\") */\n      0x04\n      dup3\n      add\n        /* \"#utility.yul\":5527:5548   */\n      mstore\n        /* \"#utility.yul\":5584:5586   */\n      0x1d\n        /* \"#utility.yul\":5564:5582   */\n      0x24\n      dup3\n      add\n        /* \"#utility.yul\":5557:5587   */\n      mstore\n        /* \"#utility.yul\":5623:5654   */\n      0x45524332303a20696e73756666696369656e7420616c6c6f77616e6365000000\n        /* \"#utility.yul\":5603:5621   */\n      0x44\n      dup3\n      add\n        /* \"#utility.yul\":5596:5655   */\n      mstore\n        /* \"#utility.yul\":5672:5690   */\n      0x64\n      add\n        /* \"TFGv3/Contracts/CryptoFundToken.sol\":4664:4732  require(currentAllowance >= amount, \"ERC20: insufficient allowance\") */\n      tag_100\n        /* \"#utility.yul\":5343:5696   */\n      jump\n        /* \"TFGv3/Contracts/CryptoFundToken.sol\":4664:4732  require(currentAllowance >= amount, \"ERC20: insufficient allowance\") */\n    tag_151:\n        /* \"TFGv3/Contracts/CryptoFundToken.sol\":4786:4837  _approve(owner, spender, currentAllowance - amount) */\n      tag_154\n        /* \"TFGv3/Contracts/CryptoFundToken.sol\":4795:4800  owner */\n      dup5\n        /* \"TFGv3/Contracts/CryptoFundToken.sol\":4802:4809  spender */\n      dup5\n        /* \"TFGv3/Contracts/CryptoFundToken.sol\":4830:4836  amount */\n      dup5\n        /* \"TFGv3/Contracts/CryptoFundToken.sol\":4811:4827  currentAllowance */\n      dup5\n        /* \"TFGv3/Contracts/CryptoFundToken.sol\":4811:4836  currentAllowance - amount */\n      sub\n        /* \"TFGv3/Contracts/CryptoFundToken.sol\":4786:4794  _approve */\n      tag_97\n        /* \"TFGv3/Contracts/CryptoFundToken.sol\":4786:4837  _approve(owner, spender, currentAllowance - amount) */\n      jump\t// in\n    tag_154:\n        /* \"TFGv3/Contracts/CryptoFundToken.sol\":4520:4868  {... */\n      pop\n        /* \"TFGv3/Contracts/CryptoFundToken.sol\":4426:4868  function _spendAllowance(address owner, address spender, uint256 amount) internal virtual... */\n      pop\n      pop\n      pop\n      jump\t// out\n        /* \"TFGv3/Contracts/CryptoFundToken.sol\":2779:3315  function _transfer(address from, address to, uint256 amount) internal virtual... */\n    tag_108:\n      sub(shl(0xa0, 0x01), 0x01)\n        /* \"TFGv3/Contracts/CryptoFundToken.sol\":2879:2897  from != address(0) */\n      dup4\n      and\n        /* \"TFGv3/Contracts/CryptoFundToken.sol\":2871:2939  require(from != address(0), \"ERC20: transfer from the zero address\") */\n      tag_156\n      jumpi\n      mload(0x40)\n      shl(0xe5, 0x461bcd)\n      dup2\n      mstore\n        /* \"#utility.yul\":5903:5905   */\n      0x20\n        /* \"TFGv3/Contracts/CryptoFundToken.sol\":2871:2939  require(from != address(0), \"ERC20: transfer from the zero address\") */\n      0x04\n      dup3\n      add\n        /* \"#utility.yul\":5885:5906   */\n      mstore\n        /* \"#utility.yul\":5942:5944   */\n      0x25\n        /* \"#utility.yul\":5922:5940   */\n      0x24\n      dup3\n      add\n        /* \"#utility.yul\":5915:5945   */\n      mstore\n        /* \"#utility.yul\":5981:6015   */\n      0x45524332303a207472616e736665722066726f6d20746865207a65726f206164\n        /* \"#utility.yul\":5961:5979   */\n      0x44\n      dup3\n      add\n        /* \"#utility.yul\":5954:6016   */\n      mstore\n        /* \"#utility.yul\":6052:6059   */\n      0x6472657373000000000000000000000000000000000000000000000000000000\n        /* \"#utility.yul\":6032:6050   */\n      0x64\n      dup3\n      add\n        /* \"#utility.yul\":6025:6060   */\n      mstore\n        /* \"#utility.yul\":6077:6096   */\n      0x84\n      add\n        /* \"TFGv3/Contracts/CryptoFundToken.sol\":2871:2939  require(from != address(0), \"ERC20: transfer from the zero address\") */\n      tag_100\n        /* \"#utility.yul\":5701:6102   */\n      jump\n        /* \"TFGv3/Contracts/CryptoFundToken.sol\":2871:2939  require(from != address(0), \"ERC20: transfer from the zero address\") */\n    tag_156:\n      sub(shl(0xa0, 0x01), 0x01)\n        /* \"TFGv3/Contracts/CryptoFundToken.sol\":2957:2973  to != address(0) */\n      dup3\n      and\n        /* \"TFGv3/Contracts/CryptoFundToken.sol\":2949:3013  require(to != address(0), \"ERC20: transfer to the zero address\") */\n      tag_159\n      jumpi\n      mload(0x40)\n      shl(0xe5, 0x461bcd)\n      dup2\n      mstore\n        /* \"#utility.yul\":6309:6311   */\n      0x20\n        /* \"TFGv3/Contracts/CryptoFundToken.sol\":2949:3013  require(to != address(0), \"ERC20: transfer to the zero address\") */\n      0x04\n      dup3\n      add\n        /* \"#utility.yul\":6291:6312   */\n      mstore\n        /* \"#utility.yul\":6348:6350   */\n      0x23\n        /* \"#utility.yul\":6328:6346   */\n      0x24\n      dup3\n      add\n        /* \"#utility.yul\":6321:6351   */\n      mstore\n        /* \"#utility.yul\":6387:6421   */\n      0x45524332303a207472616e7366657220746f20746865207a65726f2061646472\n        /* \"#utility.yul\":6367:6385   */\n      0x44\n      dup3\n      add\n        /* \"#utility.yul\":6360:6422   */\n      mstore\n        /* \"#utility.yul\":6458:6463   */\n      0x6573730000000000000000000000000000000000000000000000000000000000\n        /* \"#utility.yul\":6438:6456   */\n      0x64\n      dup3\n      add\n        /* \"#utility.yul\":6431:6464   */\n      mstore\n        /* \"#utility.yul\":6481:6500   */\n      0x84\n      add\n        /* \"TFGv3/Contracts/CryptoFundToken.sol\":2949:3013  require(to != address(0), \"ERC20: transfer to the zero address\") */\n      tag_100\n        /* \"#utility.yul\":6107:6506   */\n      jump\n        /* \"TFGv3/Contracts/CryptoFundToken.sol\":2949:3013  require(to != address(0), \"ERC20: transfer to the zero address\") */\n    tag_159:\n      sub(shl(0xa0, 0x01), 0x01)\n        /* \"TFGv3/Contracts/CryptoFundToken.sol\":3046:3061  _balances[from] */\n      dup4\n      and\n        /* \"TFGv3/Contracts/CryptoFundToken.sol\":3024:3043  uint256 fromBalance */\n      0x00\n        /* \"TFGv3/Contracts/CryptoFundToken.sol\":3046:3061  _balances[from] */\n      swap1\n      dup2\n      mstore\n      0x20\n      dup2\n      swap1\n      mstore\n      0x40\n      swap1\n      keccak256\n      sload\n        /* \"TFGv3/Contracts/CryptoFundToken.sol\":3079:3100  fromBalance >= amount */\n      dup2\n      dup2\n      lt\n      iszero\n        /* \"TFGv3/Contracts/CryptoFundToken.sol\":3071:3143  require(fromBalance >= amount, \"ERC20: transfer amount exceeds balance\") */\n      tag_162\n      jumpi\n      mload(0x40)\n      shl(0xe5, 0x461bcd)\n      dup2\n      mstore\n        /* \"#utility.yul\":6713:6715   */\n      0x20\n        /* \"TFGv3/Contracts/CryptoFundToken.sol\":3071:3143  require(fromBalance >= amount, \"ERC20: transfer amount exceeds balance\") */\n      0x04\n      dup3\n      add\n        /* \"#utility.yul\":6695:6716   */\n      mstore\n        /* \"#utility.yul\":6752:6754   */\n      0x26\n        /* \"#utility.yul\":6732:6750   */\n      0x24\n      dup3\n      add\n        /* \"#utility.yul\":6725:6755   */\n      mstore\n        /* \"#utility.yul\":6791:6825   */\n      0x45524332303a207472616e7366657220616d6f756e7420657863656564732062\n        /* \"#utility.yul\":6771:6789   */\n      0x44\n      dup3\n      add\n        /* \"#utility.yul\":6764:6826   */\n      mstore\n        /* \"#utility.yul\":6862:6870   */\n      0x616c616e63650000000000000000000000000000000000000000000000000000\n        /* \"#utility.yul\":6842:6860   */\n      0x64\n      dup3\n      add\n        /* \"#utility.yul\":6835:6871   */\n      mstore\n        /* \"#utility.yul\":6888:6907   */\n      0x84\n      add\n        /* \"TFGv3/Contracts/CryptoFundToken.sol\":3071:3143  require(fromBalance >= amount, \"ERC20: transfer amount exceeds balance\") */\n      tag_100\n        /* \"#utility.yul\":6511:6913   */\n      jump\n        /* \"TFGv3/Contracts/CryptoFundToken.sol\":3071:3143  require(fromBalance >= amount, \"ERC20: transfer amount exceeds balance\") */\n    tag_162:\n      sub(shl(0xa0, 0x01), 0x01)\n        /* \"TFGv3/Contracts/CryptoFundToken.sol\":3185:3200  _balances[from] */\n      dup1\n      dup6\n      and\n        /* \"TFGv3/Contracts/CryptoFundToken.sol\":3185:3194  _balances */\n      0x00\n        /* \"TFGv3/Contracts/CryptoFundToken.sol\":3185:3200  _balances[from] */\n      swap1\n      dup2\n      mstore\n      0x20\n      dup2\n      swap1\n      mstore\n      0x40\n      dup1\n      dup3\n      keccak256\n        /* \"TFGv3/Contracts/CryptoFundToken.sol\":3203:3223  fromBalance - amount */\n      dup6\n      dup6\n      sub\n        /* \"TFGv3/Contracts/CryptoFundToken.sol\":3185:3223  _balances[from] = fromBalance - amount */\n      swap1\n      sstore\n        /* \"TFGv3/Contracts/CryptoFundToken.sol\":3243:3256  _balances[to] */\n      swap2\n      dup6\n      and\n      dup2\n      mstore\n      swap1\n      dup2\n      keccak256\n        /* \"TFGv3/Contracts/CryptoFundToken.sol\":3243:3266  _balances[to] += amount */\n      dup1\n      sload\n        /* \"TFGv3/Contracts/CryptoFundToken.sol\":3217:3223  amount */\n      dup5\n      swap3\n        /* \"TFGv3/Contracts/CryptoFundToken.sol\":3185:3194  _balances */\n      swap1\n        /* \"TFGv3/Contracts/CryptoFundToken.sol\":3243:3266  _balances[to] += amount */\n      tag_165\n      swap1\n        /* \"TFGv3/Contracts/CryptoFundToken.sol\":3217:3223  amount */\n      dup5\n      swap1\n        /* \"TFGv3/Contracts/CryptoFundToken.sol\":3243:3266  _balances[to] += amount */\n      tag_112\n      jump\t// in\n    tag_165:\n      swap3\n      pop\n      pop\n      dup2\n      swap1\n      sstore\n      pop\n        /* \"TFGv3/Contracts/CryptoFundToken.sol\":3297:3299  to */\n      dup3\n      sub(shl(0xa0, 0x01), 0x01)\n        /* \"TFGv3/Contracts/CryptoFundToken.sol\":3282:3308  Transfer(from, to, amount) */\n      and\n        /* \"TFGv3/Contracts/CryptoFundToken.sol\":3291:3295  from */\n      dup5\n      sub(shl(0xa0, 0x01), 0x01)\n        /* \"TFGv3/Contracts/CryptoFundToken.sol\":3282:3308  Transfer(from, to, amount) */\n      and\n      0xddf252ad1be2c89b69c2b068fc378daa952ba7f163c4a11628f55a4df523b3ef\n        /* \"TFGv3/Contracts/CryptoFundToken.sol\":3301:3307  amount */\n      dup5\n        /* \"TFGv3/Contracts/CryptoFundToken.sol\":3282:3308  Transfer(from, to, amount) */\n      mload(0x40)\n      tag_166\n      swap2\n        /* \"#utility.yul\":1664:1689   */\n      dup2\n      mstore\n        /* \"#utility.yul\":1652:1654   */\n      0x20\n        /* \"#utility.yul\":1637:1655   */\n      add\n      swap1\n        /* \"#utility.yul\":1518:1695   */\n      jump\n        /* \"TFGv3/Contracts/CryptoFundToken.sol\":3282:3308  Transfer(from, to, amount) */\n    tag_166:\n      mload(0x40)\n      dup1\n      swap2\n      sub\n      swap1\n      log3\n        /* \"TFGv3/Contracts/CryptoFundToken.sol\":2861:3315  {... */\n      pop\n        /* \"TFGv3/Contracts/CryptoFundToken.sol\":2779:3315  function _transfer(address from, address to, uint256 amount) internal virtual... */\n      pop\n      pop\n      pop\n      jump\t// out\n        /* \"TFGv3/Contracts/CryptoFundToken.sol\":3321:3595  function _mint(address account, uint256 amount) internal virtual... */\n    tag_120:\n      sub(shl(0xa0, 0x01), 0x01)\n        /* \"TFGv3/Contracts/CryptoFundToken.sol\":3408:3429  account != address(0) */\n      dup3\n      and\n        /* \"TFGv3/Contracts/CryptoFundToken.sol\":3400:3465  require(account != address(0), \"ERC20: mint to the zero address\") */\n      tag_168\n      jumpi\n      mload(0x40)\n      shl(0xe5, 0x461bcd)\n      dup2\n      mstore\n        /* \"#utility.yul\":7120:7122   */\n      0x20\n        /* \"TFGv3/Contracts/CryptoFundToken.sol\":3400:3465  require(account != address(0), \"ERC20: mint to the zero address\") */\n      0x04\n      dup3\n      add\n        /* \"#utility.yul\":7102:7123   */\n      mstore\n        /* \"#utility.yul\":7159:7161   */\n      0x1f\n        /* \"#utility.yul\":7139:7157   */\n      0x24\n      dup3\n      add\n        /* \"#utility.yul\":7132:7162   */\n      mstore\n        /* \"#utility.yul\":7198:7231   */\n      0x45524332303a206d696e7420746f20746865207a65726f206164647265737300\n        /* \"#utility.yul\":7178:7196   */\n      0x44\n      dup3\n      add\n        /* \"#utility.yul\":7171:7232   */\n      mstore\n        /* \"#utility.yul\":7249:7267   */\n      0x64\n      add\n        /* \"TFGv3/Contracts/CryptoFundToken.sol\":3400:3465  require(account != address(0), \"ERC20: mint to the zero address\") */\n      tag_100\n        /* \"#utility.yul\":6918:7273   */\n      jump\n        /* \"TFGv3/Contracts/CryptoFundToken.sol\":3400:3465  require(account != address(0), \"ERC20: mint to the zero address\") */\n    tag_168:\n        /* \"TFGv3/Contracts/CryptoFundToken.sol\":3492:3498  amount */\n      dup1\n        /* \"TFGv3/Contracts/CryptoFundToken.sol\":3476:3488  _totalSupply */\n      0x03\n      0x00\n        /* \"TFGv3/Contracts/CryptoFundToken.sol\":3476:3498  _totalSupply += amount */\n      dup3\n      dup3\n      sload\n      tag_171\n      swap2\n      swap1\n      tag_112\n      jump\t// in\n    tag_171:\n      swap1\n      swap2\n      sstore\n      pop\n      pop\n      sub(shl(0xa0, 0x01), 0x01)\n        /* \"TFGv3/Contracts/CryptoFundToken.sol\":3508:3526  _balances[account] */\n      dup3\n      and\n        /* \"TFGv3/Contracts/CryptoFundToken.sol\":3508:3517  _balances */\n      0x00\n        /* \"TFGv3/Contracts/CryptoFundToken.sol\":3508:3526  _balances[account] */\n      swap1\n      dup2\n      mstore\n      0x20\n      dup2\n      swap1\n      mstore\n      0x40\n      dup2\n      keccak256\n        /* \"TFGv3/Contracts/CryptoFundToken.sol\":3508:3536  _balances[account] += amount */\n      dup1\n      sload\n        /* \"TFGv3/Contracts/CryptoFundToken.sol\":3530:3536  amount */\n      dup4\n      swap3\n        /* \"TFGv3/Contracts/CryptoFundToken.sol\":3508:3517  _balances */\n      swap1\n        /* \"TFGv3/Contracts/CryptoFundToken.sol\":3508:3536  _balances[account] += amount */\n      tag_172\n      swap1\n        /* \"TFGv3/Contracts/CryptoFundToken.sol\":3530:3536  amount */\n      dup5\n      swap1\n        /* \"TFGv3/Contracts/CryptoFundToken.sol\":3508:3536  _balances[account] += amount */\n      tag_112\n      jump\t// in\n    tag_172:\n      swap1\n      swap2\n      sstore\n      pop\n      pop\n        /* \"TFGv3/Contracts/CryptoFundToken.sol\":3551:3588  Transfer(address(0), account, amount) */\n      mload(0x40)\n        /* \"#utility.yul\":1664:1689   */\n      dup2\n      dup2\n      mstore\n      sub(shl(0xa0, 0x01), 0x01)\n        /* \"TFGv3/Contracts/CryptoFundToken.sol\":3551:3588  Transfer(address(0), account, amount) */\n      dup4\n      and\n      swap1\n        /* \"TFGv3/Contracts/CryptoFundToken.sol\":3568:3569  0 */\n      0x00\n      swap1\n        /* \"TFGv3/Contracts/CryptoFundToken.sol\":3551:3588  Transfer(address(0), account, amount) */\n      0xddf252ad1be2c89b69c2b068fc378daa952ba7f163c4a11628f55a4df523b3ef\n      swap1\n        /* \"#utility.yul\":1652:1654   */\n      0x20\n        /* \"#utility.yul\":1637:1655   */\n      add\n        /* \"TFGv3/Contracts/CryptoFundToken.sol\":3551:3588  Transfer(address(0), account, amount) */\n      mload(0x40)\n      dup1\n      swap2\n      sub\n      swap1\n      log3\n        /* \"TFGv3/Contracts/CryptoFundToken.sol\":3321:3595  function _mint(address account, uint256 amount) internal virtual... */\n      pop\n      pop\n      jump\t// out\n        /* \"TFGv3/Contracts/CryptoFundToken.sol\":3601:4070  function _burn(address account, uint256 amount) internal virtual... */\n    tag_123:\n      sub(shl(0xa0, 0x01), 0x01)\n        /* \"TFGv3/Contracts/CryptoFundToken.sol\":3688:3709  account != address(0) */\n      dup3\n      and\n        /* \"TFGv3/Contracts/CryptoFundToken.sol\":3680:3747  require(account != address(0), \"ERC20: burn from the zero address\") */\n      tag_175\n      jumpi\n      mload(0x40)\n      shl(0xe5, 0x461bcd)\n      dup2\n      mstore\n        /* \"#utility.yul\":7480:7482   */\n      0x20\n        /* \"TFGv3/Contracts/CryptoFundToken.sol\":3680:3747  require(account != address(0), \"ERC20: burn from the zero address\") */\n      0x04\n      dup3\n      add\n        /* \"#utility.yul\":7462:7483   */\n      mstore\n        /* \"#utility.yul\":7519:7521   */\n      0x21\n        /* \"#utility.yul\":7499:7517   */\n      0x24\n      dup3\n      add\n        /* \"#utility.yul\":7492:7522   */\n      mstore\n        /* \"#utility.yul\":7558:7592   */\n      0x45524332303a206275726e2066726f6d20746865207a65726f20616464726573\n        /* \"#utility.yul\":7538:7556   */\n      0x44\n      dup3\n      add\n        /* \"#utility.yul\":7531:7593   */\n      mstore\n        /* \"#utility.yul\":7629:7632   */\n      0x7300000000000000000000000000000000000000000000000000000000000000\n        /* \"#utility.yul\":7609:7627   */\n      0x64\n      dup3\n      add\n        /* \"#utility.yul\":7602:7633   */\n      mstore\n        /* \"#utility.yul\":7650:7669   */\n      0x84\n      add\n        /* \"TFGv3/Contracts/CryptoFundToken.sol\":3680:3747  require(account != address(0), \"ERC20: burn from the zero address\") */\n      tag_100\n        /* \"#utility.yul\":7278:7675   */\n      jump\n        /* \"TFGv3/Contracts/CryptoFundToken.sol\":3680:3747  require(account != address(0), \"ERC20: burn from the zero address\") */\n    tag_175:\n      sub(shl(0xa0, 0x01), 0x01)\n        /* \"TFGv3/Contracts/CryptoFundToken.sol\":3783:3801  _balances[account] */\n      dup3\n      and\n        /* \"TFGv3/Contracts/CryptoFundToken.sol\":3758:3780  uint256 accountBalance */\n      0x00\n        /* \"TFGv3/Contracts/CryptoFundToken.sol\":3783:3801  _balances[account] */\n      swap1\n      dup2\n      mstore\n      0x20\n      dup2\n      swap1\n      mstore\n      0x40\n      swap1\n      keccak256\n      sload\n        /* \"TFGv3/Contracts/CryptoFundToken.sol\":3819:3843  accountBalance >= amount */\n      dup2\n      dup2\n      lt\n      iszero\n        /* \"TFGv3/Contracts/CryptoFundToken.sol\":3811:3882  require(accountBalance >= amount, \"ERC20: burn amount exceeds balance\") */\n      tag_178\n      jumpi\n      mload(0x40)\n      shl(0xe5, 0x461bcd)\n      dup2\n      mstore\n        /* \"#utility.yul\":7882:7884   */\n      0x20\n        /* \"TFGv3/Contracts/CryptoFundToken.sol\":3811:3882  require(accountBalance >= amount, \"ERC20: burn amount exceeds balance\") */\n      0x04\n      dup3\n      add\n        /* \"#utility.yul\":7864:7885   */\n      mstore\n        /* \"#utility.yul\":7921:7923   */\n      0x22\n        /* \"#utility.yul\":7901:7919   */\n      0x24\n      dup3\n      add\n        /* \"#utility.yul\":7894:7924   */\n      mstore\n        /* \"#utility.yul\":7960:7994   */\n      0x45524332303a206275726e20616d6f756e7420657863656564732062616c616e\n        /* \"#utility.yul\":7940:7958   */\n      0x44\n      dup3\n      add\n        /* \"#utility.yul\":7933:7995   */\n      mstore\n        /* \"#utility.yul\":8031:8035   */\n      0x6365000000000000000000000000000000000000000000000000000000000000\n        /* \"#utility.yul\":8011:8029   */\n      0x64\n      dup3\n      add\n        /* \"#utility.yul\":8004:8036   */\n      mstore\n        /* \"#utility.yul\":8053:8072   */\n      0x84\n      add\n        /* \"TFGv3/Contracts/CryptoFundToken.sol\":3811:3882  require(accountBalance >= amount, \"ERC20: burn amount exceeds balance\") */\n      tag_100\n        /* \"#utility.yul\":7680:8078   */\n      jump\n        /* \"TFGv3/Contracts/CryptoFundToken.sol\":3811:3882  require(accountBalance >= amount, \"ERC20: burn amount exceeds balance\") */\n    tag_178:\n      sub(shl(0xa0, 0x01), 0x01)\n        /* \"TFGv3/Contracts/CryptoFundToken.sol\":3924:3942  _balances[account] */\n      dup4\n      and\n        /* \"TFGv3/Contracts/CryptoFundToken.sol\":3924:3933  _balances */\n      0x00\n        /* \"TFGv3/Contracts/CryptoFundToken.sol\":3924:3942  _balances[account] */\n      swap1\n      dup2\n      mstore\n      0x20\n      dup2\n      swap1\n      mstore\n      0x40\n      dup2\n      keccak256\n        /* \"TFGv3/Contracts/CryptoFundToken.sol\":3945:3968  accountBalance - amount */\n      dup4\n      dup4\n      sub\n        /* \"TFGv3/Contracts/CryptoFundToken.sol\":3924:3968  _balances[account] = accountBalance - amount */\n      swap1\n      sstore\n        /* \"TFGv3/Contracts/CryptoFundToken.sol\":3988:4000  _totalSupply */\n      0x03\n        /* \"TFGv3/Contracts/CryptoFundToken.sol\":3988:4010  _totalSupply -= amount */\n      dup1\n      sload\n        /* \"TFGv3/Contracts/CryptoFundToken.sol\":3962:3968  amount */\n      dup5\n      swap3\n        /* \"TFGv3/Contracts/CryptoFundToken.sol\":3924:3933  _balances */\n      swap1\n        /* \"TFGv3/Contracts/CryptoFundToken.sol\":3988:4010  _totalSupply -= amount */\n      tag_181\n      swap1\n        /* \"TFGv3/Contracts/CryptoFundToken.sol\":3962:3968  amount */\n      dup5\n      swap1\n        /* \"TFGv3/Contracts/CryptoFundToken.sol\":3988:4010  _totalSupply -= amount */\n      tag_182\n      jump\t// in\n    tag_181:\n      swap1\n      swap2\n      sstore\n      pop\n      pop\n        /* \"TFGv3/Contracts/CryptoFundToken.sol\":4026:4063  Transfer(account, address(0), amount) */\n      mload(0x40)\n        /* \"#utility.yul\":1664:1689   */\n      dup3\n      dup2\n      mstore\n        /* \"TFGv3/Contracts/CryptoFundToken.sol\":4052:4053  0 */\n      0x00\n      swap1\n      sub(shl(0xa0, 0x01), 0x01)\n        /* \"TFGv3/Contracts/CryptoFundToken.sol\":4026:4063  Transfer(account, address(0), amount) */\n      dup6\n      and\n      swap1\n      0xddf252ad1be2c89b69c2b068fc378daa952ba7f163c4a11628f55a4df523b3ef\n      swap1\n        /* \"#utility.yul\":1652:1654   */\n      0x20\n        /* \"#utility.yul\":1637:1655   */\n      add\n        /* \"TFGv3/Contracts/CryptoFundToken.sol\":4026:4063  Transfer(account, address(0), amount) */\n      tag_148\n        /* \"#utility.yul\":1518:1695   */\n      jump\n        /* \"#utility.yul\":14:670   */\n    tag_25:\n        /* \"#utility.yul\":126:130   */\n      0x00\n        /* \"#utility.yul\":155:157   */\n      0x20\n        /* \"#utility.yul\":184:186   */\n      dup1\n        /* \"#utility.yul\":173:182   */\n      dup4\n        /* \"#utility.yul\":166:187   */\n      mstore\n        /* \"#utility.yul\":216:222   */\n      dup4\n        /* \"#utility.yul\":210:223   */\n      mload\n        /* \"#utility.yul\":259:265   */\n      dup1\n        /* \"#utility.yul\":254:256   */\n      dup3\n        /* \"#utility.yul\":243:252   */\n      dup6\n        /* \"#utility.yul\":239:257   */\n      add\n        /* \"#utility.yul\":232:266   */\n      mstore\n        /* \"#utility.yul\":284:285   */\n      0x00\n        /* \"#utility.yul\":294:434   */\n    tag_188:\n        /* \"#utility.yul\":308:314   */\n      dup2\n        /* \"#utility.yul\":305:306   */\n      dup2\n        /* \"#utility.yul\":302:315   */\n      lt\n        /* \"#utility.yul\":294:434   */\n      iszero\n      tag_190\n      jumpi\n        /* \"#utility.yul\":403:417   */\n      dup6\n      dup2\n      add\n        /* \"#utility.yul\":399:422   */\n      dup4\n      add\n        /* \"#utility.yul\":393:423   */\n      mload\n        /* \"#utility.yul\":369:386   */\n      dup6\n      dup3\n      add\n        /* \"#utility.yul\":388:390   */\n      0x40\n        /* \"#utility.yul\":365:391   */\n      add\n        /* \"#utility.yul\":358:424   */\n      mstore\n        /* \"#utility.yul\":323:333   */\n      dup3\n      add\n        /* \"#utility.yul\":294:434   */\n      jump(tag_188)\n    tag_190:\n        /* \"#utility.yul\":452:458   */\n      dup2\n        /* \"#utility.yul\":449:450   */\n      dup2\n        /* \"#utility.yul\":446:459   */\n      gt\n        /* \"#utility.yul\":443:534   */\n      iszero\n      tag_191\n      jumpi\n        /* \"#utility.yul\":522:523   */\n      0x00\n        /* \"#utility.yul\":517:519   */\n      0x40\n        /* \"#utility.yul\":508:514   */\n      dup4\n        /* \"#utility.yul\":497:506   */\n      dup8\n        /* \"#utility.yul\":493:515   */\n      add\n        /* \"#utility.yul\":489:520   */\n      add\n        /* \"#utility.yul\":482:524   */\n      mstore\n        /* \"#utility.yul\":443:534   */\n    tag_191:\n      pop\n        /* \"#utility.yul\":586:588   */\n      0x1f\n        /* \"#utility.yul\":574:589   */\n      add\n        /* \"#utility.yul\":591:657   */\n      0xffffffffffffffffffffffffffffffffffffffffffffffffffffffffffffffe0\n        /* \"#utility.yul\":570:658   */\n      and\n        /* \"#utility.yul\":555:659   */\n      swap3\n      swap1\n      swap3\n      add\n        /* \"#utility.yul\":661:663   */\n      0x40\n        /* \"#utility.yul\":551:664   */\n      add\n      swap4\n        /* \"#utility.yul\":14:670   */\n      swap3\n      pop\n      pop\n      pop\n      jump\t// out\n        /* \"#utility.yul\":675:871   */\n    tag_184:\n        /* \"#utility.yul\":743:763   */\n      dup1\n      calldataload\n      sub(shl(0xa0, 0x01), 0x01)\n        /* \"#utility.yul\":792:846   */\n      dup2\n      and\n        /* \"#utility.yul\":782:847   */\n      dup2\n      eq\n        /* \"#utility.yul\":772:865   */\n      tag_193\n      jumpi\n        /* \"#utility.yul\":861:862   */\n      0x00\n        /* \"#utility.yul\":858:859   */\n      dup1\n        /* \"#utility.yul\":851:863   */\n      revert\n        /* \"#utility.yul\":772:865   */\n    tag_193:\n        /* \"#utility.yul\":675:871   */\n      swap2\n      swap1\n      pop\n      jump\t// out\n        /* \"#utility.yul\":876:1130   */\n    tag_28:\n        /* \"#utility.yul\":944:950   */\n      0x00\n        /* \"#utility.yul\":952:958   */\n      dup1\n        /* \"#utility.yul\":1005:1007   */\n      0x40\n        /* \"#utility.yul\":993:1002   */\n      dup4\n        /* \"#utility.yul\":984:991   */\n      dup6\n        /* \"#utility.yul\":980:1003   */\n      sub\n        /* \"#utility.yul\":976:1008   */\n      slt\n        /* \"#utility.yul\":973:1025   */\n      iszero\n      tag_195\n      jumpi\n        /* \"#utility.yul\":1021:1022   */\n      0x00\n        /* \"#utility.yul\":1018:1019   */\n      dup1\n        /* \"#utility.yul\":1011:1023   */\n      revert\n        /* \"#utility.yul\":973:1025   */\n    tag_195:\n        /* \"#utility.yul\":1044:1073   */\n      tag_196\n        /* \"#utility.yul\":1063:1072   */\n      dup4\n        /* \"#utility.yul\":1044:1073   */\n      tag_184\n      jump\t// in\n    tag_196:\n        /* \"#utility.yul\":1034:1073   */\n      swap5\n        /* \"#utility.yul\":1120:1122   */\n      0x20\n        /* \"#utility.yul\":1105:1123   */\n      swap4\n      swap1\n      swap4\n      add\n        /* \"#utility.yul\":1092:1124   */\n      calldataload\n      swap4\n      pop\n      pop\n      pop\n        /* \"#utility.yul\":876:1130   */\n      jump\t// out\n        /* \"#utility.yul\":1327:1513   */\n    tag_34:\n        /* \"#utility.yul\":1386:1392   */\n      0x00\n        /* \"#utility.yul\":1439:1441   */\n      0x20\n        /* \"#utility.yul\":1427:1436   */\n      dup3\n        /* \"#utility.yul\":1418:1425   */\n      dup5\n        /* \"#utility.yul\":1414:1437   */\n      sub\n        /* \"#utility.yul\":1410:1442   */\n      slt\n        /* \"#utility.yul\":1407:1459   */\n      iszero\n      tag_199\n      jumpi\n        /* \"#utility.yul\":1455:1456   */\n      0x00\n        /* \"#utility.yul\":1452:1453   */\n      dup1\n        /* \"#utility.yul\":1445:1457   */\n      revert\n        /* \"#utility.yul\":1407:1459   */\n    tag_199:\n        /* \"#utility.yul\":1478:1507   */\n      tag_200\n        /* \"#utility.yul\":1497:1506   */\n      dup3\n        /* \"#utility.yul\":1478:1507   */\n      tag_184\n      jump\t// in\n    tag_200:\n        /* \"#utility.yul\":1468:1507   */\n      swap4\n        /* \"#utility.yul\":1327:1513   */\n      swap3\n      pop\n      pop\n      pop\n      jump\t// out\n        /* \"#utility.yul\":1700:2028   */\n    tag_42:\n        /* \"#utility.yul\":1777:1783   */\n      0x00\n        /* \"#utility.yul\":1785:1791   */\n      dup1\n        /* \"#utility.yul\":1793:1799   */\n      0x00\n        /* \"#utility.yul\":1846:1848   */\n      0x60\n        /* \"#utility.yul\":1834:1843   */\n      dup5\n        /* \"#utility.yul\":1825:1832   */\n      dup7\n        /* \"#utility.yul\":1821:1844   */\n      sub\n        /* \"#utility.yul\":1817:1849   */\n      slt\n        /* \"#utility.yul\":1814:1866   */\n      iszero\n      tag_203\n      jumpi\n        /* \"#utility.yul\":1862:1863   */\n      0x00\n        /* \"#utility.yul\":1859:1860   */\n      dup1\n        /* \"#utility.yul\":1852:1864   */\n      revert\n        /* \"#utility.yul\":1814:1866   */\n    tag_203:\n        /* \"#utility.yul\":1885:1914   */\n      tag_204\n        /* \"#utility.yul\":1904:1913   */\n      dup5\n        /* \"#utility.yul\":1885:1914   */\n      tag_184\n      jump\t// in\n    tag_204:\n        /* \"#utility.yul\":1875:1914   */\n      swap3\n      pop\n        /* \"#utility.yul\":1933:1971   */\n      tag_205\n        /* \"#utility.yul\":1967:1969   */\n      0x20\n        /* \"#utility.yul\":1956:1965   */\n      dup6\n        /* \"#utility.yul\":1952:1970   */\n      add\n        /* \"#utility.yul\":1933:1971   */\n      tag_184\n      jump\t// in\n    tag_205:\n        /* \"#utility.yul\":1923:1971   */\n      swap2\n      pop\n        /* \"#utility.yul\":2018:2020   */\n      0x40\n        /* \"#utility.yul\":2007:2016   */\n      dup5\n        /* \"#utility.yul\":2003:2021   */\n      add\n        /* \"#utility.yul\":1990:2022   */\n      calldataload\n        /* \"#utility.yul\":1980:2022   */\n      swap1\n      pop\n        /* \"#utility.yul\":1700:2028   */\n      swap3\n      pop\n      swap3\n      pop\n      swap3\n      jump\t// out\n        /* \"#utility.yul\":2222:2402   */\n    tag_62:\n        /* \"#utility.yul\":2281:2287   */\n      0x00\n        /* \"#utility.yul\":2334:2336   */\n      0x20\n        /* \"#utility.yul\":2322:2331   */\n      dup3\n        /* \"#utility.yul\":2313:2320   */\n      dup5\n        /* \"#utility.yul\":2309:2332   */\n      sub\n        /* \"#utility.yul\":2305:2337   */\n      slt\n        /* \"#utility.yul\":2302:2354   */\n      iszero\n      tag_208\n      jumpi\n        /* \"#utility.yul\":2350:2351   */\n      0x00\n        /* \"#utility.yul\":2347:2348   */\n      dup1\n        /* \"#utility.yul\":2340:2352   */\n      revert\n        /* \"#utility.yul\":2302:2354   */\n    tag_208:\n      pop\n        /* \"#utility.yul\":2373:2396   */\n      calldataload\n      swap2\n        /* \"#utility.yul\":2222:2402   */\n      swap1\n      pop\n      jump\t// out\n        /* \"#utility.yul\":2407:2667   */\n    tag_86:\n        /* \"#utility.yul\":2475:2481   */\n      0x00\n        /* \"#utility.yul\":2483:2489   */\n      dup1\n        /* \"#utility.yul\":2536:2538   */\n      0x40\n        /* \"#utility.yul\":2524:2533   */\n      dup4\n        /* \"#utility.yul\":2515:2522   */\n      dup6\n        /* \"#utility.yul\":2511:2534   */\n      sub\n        /* \"#utility.yul\":2507:2539   */\n      slt\n        /* \"#utility.yul\":2504:2556   */\n      iszero\n      tag_210\n      jumpi\n        /* \"#utility.yul\":2552:2553   */\n      0x00\n        /* \"#utility.yul\":2549:2550   */\n      dup1\n        /* \"#utility.yul\":2542:2554   */\n      revert\n        /* \"#utility.yul\":2504:2556   */\n    tag_210:\n        /* \"#utility.yul\":2575:2604   */\n      tag_211\n        /* \"#utility.yul\":2594:2603   */\n      dup4\n        /* \"#utility.yul\":2575:2604   */\n      tag_184\n      jump\t// in\n    tag_211:\n        /* \"#utility.yul\":2565:2604   */\n      swap2\n      pop\n        /* \"#utility.yul\":2623:2661   */\n      tag_212\n        /* \"#utility.yul\":2657:2659   */\n      0x20\n        /* \"#utility.yul\":2646:2655   */\n      dup5\n        /* \"#utility.yul\":2642:2660   */\n      add\n        /* \"#utility.yul\":2623:2661   */\n      tag_184\n      jump\t// in\n    tag_212:\n        /* \"#utility.yul\":2613:2661   */\n      swap1\n      pop\n        /* \"#utility.yul\":2407:2667   */\n      swap3\n      pop\n      swap3\n      swap1\n      pop\n      jump\t// out\n        /* \"#utility.yul\":2672:3109   */\n    tag_90:\n        /* \"#utility.yul\":2751:2752   */\n      0x01\n        /* \"#utility.yul\":2747:2759   */\n      dup2\n      dup2\n      shr\n      swap1\n        /* \"#utility.yul\":2794:2806   */\n      dup3\n      and\n      dup1\n        /* \"#utility.yul\":2815:2876   */\n      tag_214\n      jumpi\n        /* \"#utility.yul\":2869:2873   */\n      0x7f\n        /* \"#utility.yul\":2861:2867   */\n      dup3\n        /* \"#utility.yul\":2857:2874   */\n      and\n        /* \"#utility.yul\":2847:2874   */\n      swap2\n      pop\n        /* \"#utility.yul\":2815:2876   */\n    tag_214:\n        /* \"#utility.yul\":2922:2924   */\n      0x20\n        /* \"#utility.yul\":2914:2920   */\n      dup3\n        /* \"#utility.yul\":2911:2925   */\n      lt\n        /* \"#utility.yul\":2891:2909   */\n      dup2\n        /* \"#utility.yul\":2888:2926   */\n      sub\n        /* \"#utility.yul\":2885:3103   */\n      tag_215\n      jumpi\n        /* \"#utility.yul\":2959:3036   */\n      0x4e487b7100000000000000000000000000000000000000000000000000000000\n        /* \"#utility.yul\":2956:2957   */\n      0x00\n        /* \"#utility.yul\":2949:3037   */\n      mstore\n        /* \"#utility.yul\":3060:3064   */\n      0x22\n        /* \"#utility.yul\":3057:3058   */\n      0x04\n        /* \"#utility.yul\":3050:3065   */\n      mstore\n        /* \"#utility.yul\":3088:3092   */\n      0x24\n        /* \"#utility.yul\":3085:3086   */\n      0x00\n        /* \"#utility.yul\":3078:3093   */\n      revert\n        /* \"#utility.yul\":2885:3103   */\n    tag_215:\n      pop\n        /* \"#utility.yul\":2672:3109   */\n      swap2\n      swap1\n      pop\n      jump\t// out\n        /* \"#utility.yul\":3462:3646   */\n    tag_185:\n        /* \"#utility.yul\":3514:3591   */\n      0x4e487b7100000000000000000000000000000000000000000000000000000000\n        /* \"#utility.yul\":3511:3512   */\n      0x00\n        /* \"#utility.yul\":3504:3592   */\n      mstore\n        /* \"#utility.yul\":3611:3615   */\n      0x11\n        /* \"#utility.yul\":3608:3609   */\n      0x04\n        /* \"#utility.yul\":3601:3616   */\n      mstore\n        /* \"#utility.yul\":3635:3639   */\n      0x24\n        /* \"#utility.yul\":3632:3633   */\n      0x00\n        /* \"#utility.yul\":3625:3640   */\n      revert\n        /* \"#utility.yul\":3651:3779   */\n    tag_112:\n        /* \"#utility.yul\":3691:3694   */\n      0x00\n        /* \"#utility.yul\":3722:3723   */\n      dup3\n        /* \"#utility.yul\":3718:3724   */\n      not\n        /* \"#utility.yul\":3715:3716   */\n      dup3\n        /* \"#utility.yul\":3712:3725   */\n      gt\n        /* \"#utility.yul\":3709:3748   */\n      iszero\n      tag_220\n      jumpi\n        /* \"#utility.yul\":3728:3746   */\n      tag_220\n      tag_185\n      jump\t// in\n    tag_220:\n      pop\n        /* \"#utility.yul\":3764:3773   */\n      add\n      swap1\n        /* \"#utility.yul\":3651:3779   */\n      jump\t// out\n        /* \"#utility.yul\":8083:8208   */\n    tag_182:\n        /* \"#utility.yul\":8123:8127   */\n      0x00\n        /* \"#utility.yul\":8151:8152   */\n      dup3\n        /* \"#utility.yul\":8148:8149   */\n      dup3\n        /* \"#utility.yul\":8145:8153   */\n      lt\n        /* \"#utility.yul\":8142:8176   */\n      iszero\n      tag_234\n      jumpi\n        /* \"#utility.yul\":8156:8174   */\n      tag_234\n      tag_185\n      jump\t// in\n    tag_234:\n      pop\n        /* \"#utility.yul\":8193:8202   */\n      sub\n      swap1\n        /* \"#utility.yul\":8083:8208   */\n      jump\t// out\n\n    auxdata: 0xa26469706673582212207a905737a15565257b0ed70ff1a167c72f6becf3bd1e7fc2b247dff8295ad88464736f6c634300080e0033\n}\n",
				"bytecode": {
					"linkReferences": {},
					"object": "60a06040523480156200001157600080fd5b506040516200117438038062001174833981016040819052620000349162000208565b82516200004990600490602086019062000095565b5081516200005f90600590602085019062000095565b506006805460ff191660ff929092169190911790555050336080819052600280546001600160a01b0319169091179055620002c9565b828054620000a3906200028d565b90600052602060002090601f016020900481019282620000c7576000855562000112565b82601f10620000e257805160ff191683800117855562000112565b8280016001018555821562000112579182015b8281111562000112578251825591602001919060010190620000f5565b506200012092915062000124565b5090565b5b8082111562000120576000815560010162000125565b634e487b7160e01b600052604160045260246000fd5b600082601f8301126200016357600080fd5b81516001600160401b03808211156200018057620001806200013b565b604051601f8301601f19908116603f01168101908282118183101715620001ab57620001ab6200013b565b81604052838152602092508683858801011115620001c857600080fd5b600091505b83821015620001ec5785820183015181830184015290820190620001cd565b83821115620001fe5760008385830101525b9695505050505050565b6000806000606084860312156200021e57600080fd5b83516001600160401b03808211156200023657600080fd5b620002448783880162000151565b945060208601519150808211156200025b57600080fd5b506200026a8682870162000151565b925050604084015160ff811681146200028257600080fd5b809150509250925092565b600181811c90821680620002a257607f821691505b602082108103620002c357634e487b7160e01b600052602260045260246000fd5b50919050565b608051610e88620002ec60003960008181610333015261045f0152610e886000f3fe608060405234801561001057600080fd5b50600436106101005760003560e01c806340c10f191161009757806395d89b411161006657806395d89b411461021d578063a457c2d714610225578063a9059cbb14610238578063dd62ed3e1461024b57600080fd5b806340c10f19146101bb57806342966c68146101ce57806370a08231146101e157806379cc67901461020a57600080fd5b806323b872dd116100d357806323b872dd1461016d578063313ce56714610180578063395093511461019f5780633eaaf86b146101b257600080fd5b806306fdde0314610105578063095ea7b31461012357806313af40351461014657806318160ddd1461015b575b600080fd5b61010d610284565b60405161011a9190610c3e565b60405180910390f35b610136610131366004610ccd565b610312565b604051901515815260200161011a565b610159610154366004610cf7565b610328565b005b6003545b60405190815260200161011a565b61013661017b366004610d19565b6103df565b60065461018d9060ff1681565b60405160ff909116815260200161011a565b6101366101ad366004610ccd565b610401565b61015f60035481565b6101366101c9366004610ccd565b61043d565b6101366101dc366004610d55565b6104d7565b61015f6101ef366004610cf7565b6001600160a01b031660009081526020819052604090205490565b610136610218366004610ccd565b6104eb565b61010d610502565b610136610233366004610ccd565b61050f565b610136610246366004610ccd565b6105b6565b61015f610259366004610d6e565b6001600160a01b03918216600090815260016020908152604080832093909416825291909152205490565b6004805461029190610da1565b80601f01602080910402602001604051908101604052809291908181526020018280546102bd90610da1565b801561030a5780601f106102df5761010080835404028352916020019161030a565b820191906000526020600020905b8154815290600101906020018083116102ed57829003601f168201915b505050505081565b600061031f3384846105c3565b50600192915050565b336001600160a01b037f000000000000000000000000000000000000000000000000000000000000000016146103a55760405162461bcd60e51b815260206004820152601360248201527f53656e646572206e6f74206465706c6f7965720000000000000000000000000060448201526064015b60405180910390fd5b600280547fffffffffffffffffffffffff0000000000000000000000000000000000000000166001600160a01b0392909216919091179055565b60006103ec84338461071c565b6103f78484846107ca565b5060019392505050565b3360008181526001602090815260408083206001600160a01b0387168452909152812054909161031f918590610438908690610e23565b6105c3565b6002546000906001600160a01b03163314806104815750336001600160a01b037f000000000000000000000000000000000000000000000000000000000000000016145b6104cd5760405162461bcd60e51b815260206004820152601060248201527f53656e646572206e6f74206f776e657200000000000000000000000000000000604482015260640161039c565b61031f83836109e2565b60006104e33383610ac1565b506001919050565b60006104f883338461071c565b61031f8383610ac1565b6005805461029190610da1565b3360009081526001602090815260408083206001600160a01b0386168452909152812054828110156105a95760405162461bcd60e51b815260206004820152602560248201527f45524332303a2064656372656173656420616c6c6f77616e63652062656c6f7760448201527f207a65726f000000000000000000000000000000000000000000000000000000606482015260840161039c565b6103f733858584036105c3565b600061031f3384846107ca565b6001600160a01b03831661063e5760405162461bcd60e51b8152602060048201526024808201527f45524332303a20617070726f76652066726f6d20746865207a65726f2061646460448201527f7265737300000000000000000000000000000000000000000000000000000000606482015260840161039c565b6001600160a01b0382166106ba5760405162461bcd60e51b815260206004820152602260248201527f45524332303a20617070726f766520746f20746865207a65726f20616464726560448201527f7373000000000000000000000000000000000000000000000000000000000000606482015260840161039c565b6001600160a01b0383811660008181526001602090815260408083209487168084529482529182902085905590518481527f8c5be1e5ebec7d5bd14f71427d1e84f3dd0314c0f7b2291e5b200ac8c7c3b92591015b60405180910390a3505050565b3360009081526001602090815260408083206001600160a01b03861684529091529020547fffffffffffffffffffffffffffffffffffffffffffffffffffffffffffffffff81146107c457818110156107b75760405162461bcd60e51b815260206004820152601d60248201527f45524332303a20696e73756666696369656e7420616c6c6f77616e6365000000604482015260640161039c565b6107c484848484036105c3565b50505050565b6001600160a01b0383166108465760405162461bcd60e51b815260206004820152602560248201527f45524332303a207472616e736665722066726f6d20746865207a65726f20616460448201527f6472657373000000000000000000000000000000000000000000000000000000606482015260840161039c565b6001600160a01b0382166108c25760405162461bcd60e51b815260206004820152602360248201527f45524332303a207472616e7366657220746f20746865207a65726f206164647260448201527f6573730000000000000000000000000000000000000000000000000000000000606482015260840161039c565b6001600160a01b038316600090815260208190526040902054818110156109515760405162461bcd60e51b815260206004820152602660248201527f45524332303a207472616e7366657220616d6f756e742065786365656473206260448201527f616c616e63650000000000000000000000000000000000000000000000000000606482015260840161039c565b6001600160a01b03808516600090815260208190526040808220858503905591851681529081208054849290610988908490610e23565b92505081905550826001600160a01b0316846001600160a01b03167fddf252ad1be2c89b69c2b068fc378daa952ba7f163c4a11628f55a4df523b3ef846040516109d491815260200190565b60405180910390a350505050565b6001600160a01b038216610a385760405162461bcd60e51b815260206004820152601f60248201527f45524332303a206d696e7420746f20746865207a65726f206164647265737300604482015260640161039c565b8060036000828254610a4a9190610e23565b90915550506001600160a01b03821660009081526020819052604081208054839290610a77908490610e23565b90915550506040518181526001600160a01b038316906000907fddf252ad1be2c89b69c2b068fc378daa952ba7f163c4a11628f55a4df523b3ef9060200160405180910390a35050565b6001600160a01b038216610b3d5760405162461bcd60e51b815260206004820152602160248201527f45524332303a206275726e2066726f6d20746865207a65726f2061646472657360448201527f7300000000000000000000000000000000000000000000000000000000000000606482015260840161039c565b6001600160a01b03821660009081526020819052604090205481811015610bcc5760405162461bcd60e51b815260206004820152602260248201527f45524332303a206275726e20616d6f756e7420657863656564732062616c616e60448201527f6365000000000000000000000000000000000000000000000000000000000000606482015260840161039c565b6001600160a01b0383166000908152602081905260408120838303905560038054849290610bfb908490610e3b565b90915550506040518281526000906001600160a01b038516907fddf252ad1be2c89b69c2b068fc378daa952ba7f163c4a11628f55a4df523b3ef9060200161070f565b600060208083528351808285015260005b81811015610c6b57858101830151858201604001528201610c4f565b81811115610c7d576000604083870101525b50601f017fffffffffffffffffffffffffffffffffffffffffffffffffffffffffffffffe016929092016040019392505050565b80356001600160a01b0381168114610cc857600080fd5b919050565b60008060408385031215610ce057600080fd5b610ce983610cb1565b946020939093013593505050565b600060208284031215610d0957600080fd5b610d1282610cb1565b9392505050565b600080600060608486031215610d2e57600080fd5b610d3784610cb1565b9250610d4560208501610cb1565b9150604084013590509250925092565b600060208284031215610d6757600080fd5b5035919050565b60008060408385031215610d8157600080fd5b610d8a83610cb1565b9150610d9860208401610cb1565b90509250929050565b600181811c90821680610db557607f821691505b602082108103610dee577f4e487b7100000000000000000000000000000000000000000000000000000000600052602260045260246000fd5b50919050565b7f4e487b7100000000000000000000000000000000000000000000000000000000600052601160045260246000fd5b60008219821115610e3657610e36610df4565b500190565b600082821015610e4d57610e4d610df4565b50039056fea26469706673582212207a905737a15565257b0ed70ff1a167c72f6becf3bd1e7fc2b247dff8295ad88464736f6c634300080e0033",
					"opcodes": "PUSH1 0xA0 PUSH1 0x40 MSTORE CALLVALUE DUP1 ISZERO PUSH3 0x11 JUMPI PUSH1 0x0 DUP1 REVERT JUMPDEST POP PUSH1 0x40 MLOAD PUSH3 0x1174 CODESIZE SUB DUP1 PUSH3 0x1174 DUP4 CODECOPY DUP2 ADD PUSH1 0x40 DUP2 SWAP1 MSTORE PUSH3 0x34 SWAP2 PUSH3 0x208 JUMP JUMPDEST DUP3 MLOAD PUSH3 0x49 SWAP1 PUSH1 0x4 SWAP1 PUSH1 0x20 DUP7 ADD SWAP1 PUSH3 0x95 JUMP JUMPDEST POP DUP2 MLOAD PUSH3 0x5F SWAP1 PUSH1 0x5 SWAP1 PUSH1 0x20 DUP6 ADD SWAP1 PUSH3 0x95 JUMP JUMPDEST POP PUSH1 0x6 DUP1 SLOAD PUSH1 0xFF NOT AND PUSH1 0xFF SWAP3 SWAP1 SWAP3 AND SWAP2 SWAP1 SWAP2 OR SWAP1 SSTORE POP POP CALLER PUSH1 0x80 DUP2 SWAP1 MSTORE PUSH1 0x2 DUP1 SLOAD PUSH1 0x1 PUSH1 0x1 PUSH1 0xA0 SHL SUB NOT AND SWAP1 SWAP2 OR SWAP1 SSTORE PUSH3 0x2C9 JUMP JUMPDEST DUP3 DUP1 SLOAD PUSH3 0xA3 SWAP1 PUSH3 0x28D JUMP JUMPDEST SWAP1 PUSH1 0x0 MSTORE PUSH1 0x20 PUSH1 0x0 KECCAK256 SWAP1 PUSH1 0x1F ADD PUSH1 0x20 SWAP1 DIV DUP2 ADD SWAP3 DUP3 PUSH3 0xC7 JUMPI PUSH1 0x0 DUP6 SSTORE PUSH3 0x112 JUMP JUMPDEST DUP3 PUSH1 0x1F LT PUSH3 0xE2 JUMPI DUP1 MLOAD PUSH1 0xFF NOT AND DUP4 DUP1 ADD OR DUP6 SSTORE PUSH3 0x112 JUMP JUMPDEST DUP3 DUP1 ADD PUSH1 0x1 ADD DUP6 SSTORE DUP3 ISZERO PUSH3 0x112 JUMPI SWAP2 DUP3 ADD JUMPDEST DUP3 DUP2 GT ISZERO PUSH3 0x112 JUMPI DUP3 MLOAD DUP3 SSTORE SWAP2 PUSH1 0x20 ADD SWAP2 SWAP1 PUSH1 0x1 ADD SWAP1 PUSH3 0xF5 JUMP JUMPDEST POP PUSH3 0x120 SWAP3 SWAP2 POP PUSH3 0x124 JUMP JUMPDEST POP SWAP1 JUMP JUMPDEST JUMPDEST DUP1 DUP3 GT ISZERO PUSH3 0x120 JUMPI PUSH1 0x0 DUP2 SSTORE PUSH1 0x1 ADD PUSH3 0x125 JUMP JUMPDEST PUSH4 0x4E487B71 PUSH1 0xE0 SHL PUSH1 0x0 MSTORE PUSH1 0x41 PUSH1 0x4 MSTORE PUSH1 0x24 PUSH1 0x0 REVERT JUMPDEST PUSH1 0x0 DUP3 PUSH1 0x1F DUP4 ADD SLT PUSH3 0x163 JUMPI PUSH1 0x0 DUP1 REVERT JUMPDEST DUP2 MLOAD PUSH1 0x1 PUSH1 0x1 PUSH1 0x40 SHL SUB DUP1 DUP3 GT ISZERO PUSH3 0x180 JUMPI PUSH3 0x180 PUSH3 0x13B JUMP JUMPDEST PUSH1 0x40 MLOAD PUSH1 0x1F DUP4 ADD PUSH1 0x1F NOT SWAP1 DUP2 AND PUSH1 0x3F ADD AND DUP2 ADD SWAP1 DUP3 DUP3 GT DUP2 DUP4 LT OR ISZERO PUSH3 0x1AB JUMPI PUSH3 0x1AB PUSH3 0x13B JUMP JUMPDEST DUP2 PUSH1 0x40 MSTORE DUP4 DUP2 MSTORE PUSH1 0x20 SWAP3 POP DUP7 DUP4 DUP6 DUP9 ADD ADD GT ISZERO PUSH3 0x1C8 JUMPI PUSH1 0x0 DUP1 REVERT JUMPDEST PUSH1 0x0 SWAP2 POP JUMPDEST DUP4 DUP3 LT ISZERO PUSH3 0x1EC JUMPI DUP6 DUP3 ADD DUP4 ADD MLOAD DUP2 DUP4 ADD DUP5 ADD MSTORE SWAP1 DUP3 ADD SWAP1 PUSH3 0x1CD JUMP JUMPDEST DUP4 DUP3 GT ISZERO PUSH3 0x1FE JUMPI PUSH1 0x0 DUP4 DUP6 DUP4 ADD ADD MSTORE JUMPDEST SWAP7 SWAP6 POP POP POP POP POP POP JUMP JUMPDEST PUSH1 0x0 DUP1 PUSH1 0x0 PUSH1 0x60 DUP5 DUP7 SUB SLT ISZERO PUSH3 0x21E JUMPI PUSH1 0x0 DUP1 REVERT JUMPDEST DUP4 MLOAD PUSH1 0x1 PUSH1 0x1 PUSH1 0x40 SHL SUB DUP1 DUP3 GT ISZERO PUSH3 0x236 JUMPI PUSH1 0x0 DUP1 REVERT JUMPDEST PUSH3 0x244 DUP8 DUP4 DUP9 ADD PUSH3 0x151 JUMP JUMPDEST SWAP5 POP PUSH1 0x20 DUP7 ADD MLOAD SWAP2 POP DUP1 DUP3 GT ISZERO PUSH3 0x25B JUMPI PUSH1 0x0 DUP1 REVERT JUMPDEST POP PUSH3 0x26A DUP7 DUP3 DUP8 ADD PUSH3 0x151 JUMP JUMPDEST SWAP3 POP POP PUSH1 0x40 DUP5 ADD MLOAD PUSH1 0xFF DUP2 AND DUP2 EQ PUSH3 0x282 JUMPI PUSH1 0x0 DUP1 REVERT JUMPDEST DUP1 SWAP2 POP POP SWAP3 POP SWAP3 POP SWAP3 JUMP JUMPDEST PUSH1 0x1 DUP2 DUP2 SHR SWAP1 DUP3 AND DUP1 PUSH3 0x2A2 JUMPI PUSH1 0x7F DUP3 AND SWAP2 POP JUMPDEST PUSH1 0x20 DUP3 LT DUP2 SUB PUSH3 0x2C3 JUMPI PUSH4 0x4E487B71 PUSH1 0xE0 SHL PUSH1 0x0 MSTORE PUSH1 0x22 PUSH1 0x4 MSTORE PUSH1 0x24 PUSH1 0x0 REVERT JUMPDEST POP SWAP2 SWAP1 POP JUMP JUMPDEST PUSH1 0x80 MLOAD PUSH2 0xE88 PUSH3 0x2EC PUSH1 0x0 CODECOPY PUSH1 0x0 DUP2 DUP2 PUSH2 0x333 ADD MSTORE PUSH2 0x45F ADD MSTORE PUSH2 0xE88 PUSH1 0x0 RETURN INVALID PUSH1 0x80 PUSH1 0x40 MSTORE CALLVALUE DUP1 ISZERO PUSH2 0x10 JUMPI PUSH1 0x0 DUP1 REVERT JUMPDEST POP PUSH1 0x4 CALLDATASIZE LT PUSH2 0x100 JUMPI PUSH1 0x0 CALLDATALOAD PUSH1 0xE0 SHR DUP1 PUSH4 0x40C10F19 GT PUSH2 0x97 JUMPI DUP1 PUSH4 0x95D89B41 GT PUSH2 0x66 JUMPI DUP1 PUSH4 0x95D89B41 EQ PUSH2 0x21D JUMPI DUP1 PUSH4 0xA457C2D7 EQ PUSH2 0x225 JUMPI DUP1 PUSH4 0xA9059CBB EQ PUSH2 0x238 JUMPI DUP1 PUSH4 0xDD62ED3E EQ PUSH2 0x24B JUMPI PUSH1 0x0 DUP1 REVERT JUMPDEST DUP1 PUSH4 0x40C10F19 EQ PUSH2 0x1BB JUMPI DUP1 PUSH4 0x42966C68 EQ PUSH2 0x1CE JUMPI DUP1 PUSH4 0x70A08231 EQ PUSH2 0x1E1 JUMPI DUP1 PUSH4 0x79CC6790 EQ PUSH2 0x20A JUMPI PUSH1 0x0 DUP1 REVERT JUMPDEST DUP1 PUSH4 0x23B872DD GT PUSH2 0xD3 JUMPI DUP1 PUSH4 0x23B872DD EQ PUSH2 0x16D JUMPI DUP1 PUSH4 0x313CE567 EQ PUSH2 0x180 JUMPI DUP1 PUSH4 0x39509351 EQ PUSH2 0x19F JUMPI DUP1 PUSH4 0x3EAAF86B EQ PUSH2 0x1B2 JUMPI PUSH1 0x0 DUP1 REVERT JUMPDEST DUP1 PUSH4 0x6FDDE03 EQ PUSH2 0x105 JUMPI DUP1 PUSH4 0x95EA7B3 EQ PUSH2 0x123 JUMPI DUP1 PUSH4 0x13AF4035 EQ PUSH2 0x146 JUMPI DUP1 PUSH4 0x18160DDD EQ PUSH2 0x15B JUMPI JUMPDEST PUSH1 0x0 DUP1 REVERT JUMPDEST PUSH2 0x10D PUSH2 0x284 JUMP JUMPDEST PUSH1 0x40 MLOAD PUSH2 0x11A SWAP2 SWAP1 PUSH2 0xC3E JUMP JUMPDEST PUSH1 0x40 MLOAD DUP1 SWAP2 SUB SWAP1 RETURN JUMPDEST PUSH2 0x136 PUSH2 0x131 CALLDATASIZE PUSH1 0x4 PUSH2 0xCCD JUMP JUMPDEST PUSH2 0x312 JUMP JUMPDEST PUSH1 0x40 MLOAD SWAP1 ISZERO ISZERO DUP2 MSTORE PUSH1 0x20 ADD PUSH2 0x11A JUMP JUMPDEST PUSH2 0x159 PUSH2 0x154 CALLDATASIZE PUSH1 0x4 PUSH2 0xCF7 JUMP JUMPDEST PUSH2 0x328 JUMP JUMPDEST STOP JUMPDEST PUSH1 0x3 SLOAD JUMPDEST PUSH1 0x40 MLOAD SWAP1 DUP2 MSTORE PUSH1 0x20 ADD PUSH2 0x11A JUMP JUMPDEST PUSH2 0x136 PUSH2 0x17B CALLDATASIZE PUSH1 0x4 PUSH2 0xD19 JUMP JUMPDEST PUSH2 0x3DF JUMP JUMPDEST PUSH1 0x6 SLOAD PUSH2 0x18D SWAP1 PUSH1 0xFF AND DUP2 JUMP JUMPDEST PUSH1 0x40 MLOAD PUSH1 0xFF SWAP1 SWAP2 AND DUP2 MSTORE PUSH1 0x20 ADD PUSH2 0x11A JUMP JUMPDEST PUSH2 0x136 PUSH2 0x1AD CALLDATASIZE PUSH1 0x4 PUSH2 0xCCD JUMP JUMPDEST PUSH2 0x401 JUMP JUMPDEST PUSH2 0x15F PUSH1 0x3 SLOAD DUP2 JUMP JUMPDEST PUSH2 0x136 PUSH2 0x1C9 CALLDATASIZE PUSH1 0x4 PUSH2 0xCCD JUMP JUMPDEST PUSH2 0x43D JUMP JUMPDEST PUSH2 0x136 PUSH2 0x1DC CALLDATASIZE PUSH1 0x4 PUSH2 0xD55 JUMP JUMPDEST PUSH2 0x4D7 JUMP JUMPDEST PUSH2 0x15F PUSH2 0x1EF CALLDATASIZE PUSH1 0x4 PUSH2 0xCF7 JUMP JUMPDEST PUSH1 0x1 PUSH1 0x1 PUSH1 0xA0 SHL SUB AND PUSH1 0x0 SWAP1 DUP2 MSTORE PUSH1 0x20 DUP2 SWAP1 MSTORE PUSH1 0x40 SWAP1 KECCAK256 SLOAD SWAP1 JUMP JUMPDEST PUSH2 0x136 PUSH2 0x218 CALLDATASIZE PUSH1 0x4 PUSH2 0xCCD JUMP JUMPDEST PUSH2 0x4EB JUMP JUMPDEST PUSH2 0x10D PUSH2 0x502 JUMP JUMPDEST PUSH2 0x136 PUSH2 0x233 CALLDATASIZE PUSH1 0x4 PUSH2 0xCCD JUMP JUMPDEST PUSH2 0x50F JUMP JUMPDEST PUSH2 0x136 PUSH2 0x246 CALLDATASIZE PUSH1 0x4 PUSH2 0xCCD JUMP JUMPDEST PUSH2 0x5B6 JUMP JUMPDEST PUSH2 0x15F PUSH2 0x259 CALLDATASIZE PUSH1 0x4 PUSH2 0xD6E JUMP JUMPDEST PUSH1 0x1 PUSH1 0x1 PUSH1 0xA0 SHL SUB SWAP2 DUP3 AND PUSH1 0x0 SWAP1 DUP2 MSTORE PUSH1 0x1 PUSH1 0x20 SWAP1 DUP2 MSTORE PUSH1 0x40 DUP1 DUP4 KECCAK256 SWAP4 SWAP1 SWAP5 AND DUP3 MSTORE SWAP2 SWAP1 SWAP2 MSTORE KECCAK256 SLOAD SWAP1 JUMP JUMPDEST PUSH1 0x4 DUP1 SLOAD PUSH2 0x291 SWAP1 PUSH2 0xDA1 JUMP JUMPDEST DUP1 PUSH1 0x1F ADD PUSH1 0x20 DUP1 SWAP2 DIV MUL PUSH1 0x20 ADD PUSH1 0x40 MLOAD SWAP1 DUP2 ADD PUSH1 0x40 MSTORE DUP1 SWAP3 SWAP2 SWAP1 DUP2 DUP2 MSTORE PUSH1 0x20 ADD DUP3 DUP1 SLOAD PUSH2 0x2BD SWAP1 PUSH2 0xDA1 JUMP JUMPDEST DUP1 ISZERO PUSH2 0x30A JUMPI DUP1 PUSH1 0x1F LT PUSH2 0x2DF JUMPI PUSH2 0x100 DUP1 DUP4 SLOAD DIV MUL DUP4 MSTORE SWAP2 PUSH1 0x20 ADD SWAP2 PUSH2 0x30A JUMP JUMPDEST DUP3 ADD SWAP2 SWAP1 PUSH1 0x0 MSTORE PUSH1 0x20 PUSH1 0x0 KECCAK256 SWAP1 JUMPDEST DUP2 SLOAD DUP2 MSTORE SWAP1 PUSH1 0x1 ADD SWAP1 PUSH1 0x20 ADD DUP1 DUP4 GT PUSH2 0x2ED JUMPI DUP3 SWAP1 SUB PUSH1 0x1F AND DUP3 ADD SWAP2 JUMPDEST POP POP POP POP POP DUP2 JUMP JUMPDEST PUSH1 0x0 PUSH2 0x31F CALLER DUP5 DUP5 PUSH2 0x5C3 JUMP JUMPDEST POP PUSH1 0x1 SWAP3 SWAP2 POP POP JUMP JUMPDEST CALLER PUSH1 0x1 PUSH1 0x1 PUSH1 0xA0 SHL SUB PUSH32 0x0 AND EQ PUSH2 0x3A5 JUMPI PUSH1 0x40 MLOAD PUSH3 0x461BCD PUSH1 0xE5 SHL DUP2 MSTORE PUSH1 0x20 PUSH1 0x4 DUP3 ADD MSTORE PUSH1 0x13 PUSH1 0x24 DUP3 ADD MSTORE PUSH32 0x53656E646572206E6F74206465706C6F79657200000000000000000000000000 PUSH1 0x44 DUP3 ADD MSTORE PUSH1 0x64 ADD JUMPDEST PUSH1 0x40 MLOAD DUP1 SWAP2 SUB SWAP1 REVERT JUMPDEST PUSH1 0x2 DUP1 SLOAD PUSH32 0xFFFFFFFFFFFFFFFFFFFFFFFF0000000000000000000000000000000000000000 AND PUSH1 0x1 PUSH1 0x1 PUSH1 0xA0 SHL SUB SWAP3 SWAP1 SWAP3 AND SWAP2 SWAP1 SWAP2 OR SWAP1 SSTORE JUMP JUMPDEST PUSH1 0x0 PUSH2 0x3EC DUP5 CALLER DUP5 PUSH2 0x71C JUMP JUMPDEST PUSH2 0x3F7 DUP5 DUP5 DUP5 PUSH2 0x7CA JUMP JUMPDEST POP PUSH1 0x1 SWAP4 SWAP3 POP POP POP JUMP JUMPDEST CALLER PUSH1 0x0 DUP2 DUP2 MSTORE PUSH1 0x1 PUSH1 0x20 SWAP1 DUP2 MSTORE PUSH1 0x40 DUP1 DUP4 KECCAK256 PUSH1 0x1 PUSH1 0x1 PUSH1 0xA0 SHL SUB DUP8 AND DUP5 MSTORE SWAP1 SWAP2 MSTORE DUP2 KECCAK256 SLOAD SWAP1 SWAP2 PUSH2 0x31F SWAP2 DUP6 SWAP1 PUSH2 0x438 SWAP1 DUP7 SWAP1 PUSH2 0xE23 JUMP JUMPDEST PUSH2 0x5C3 JUMP JUMPDEST PUSH1 0x2 SLOAD PUSH1 0x0 SWAP1 PUSH1 0x1 PUSH1 0x1 PUSH1 0xA0 SHL SUB AND CALLER EQ DUP1 PUSH2 0x481 JUMPI POP CALLER PUSH1 0x1 PUSH1 0x1 PUSH1 0xA0 SHL SUB PUSH32 0x0 AND EQ JUMPDEST PUSH2 0x4CD JUMPI PUSH1 0x40 MLOAD PUSH3 0x461BCD PUSH1 0xE5 SHL DUP2 MSTORE PUSH1 0x20 PUSH1 0x4 DUP3 ADD MSTORE PUSH1 0x10 PUSH1 0x24 DUP3 ADD MSTORE PUSH32 0x53656E646572206E6F74206F776E657200000000000000000000000000000000 PUSH1 0x44 DUP3 ADD MSTORE PUSH1 0x64 ADD PUSH2 0x39C JUMP JUMPDEST PUSH2 0x31F DUP4 DUP4 PUSH2 0x9E2 JUMP JUMPDEST PUSH1 0x0 PUSH2 0x4E3 CALLER DUP4 PUSH2 0xAC1 JUMP JUMPDEST POP PUSH1 0x1 SWAP2 SWAP1 POP JUMP JUMPDEST PUSH1 0x0 PUSH2 0x4F8 DUP4 CALLER DUP5 PUSH2 0x71C JUMP JUMPDEST PUSH2 0x31F DUP4 DUP4 PUSH2 0xAC1 JUMP JUMPDEST PUSH1 0x5 DUP1 SLOAD PUSH2 0x291 SWAP1 PUSH2 0xDA1 JUMP JUMPDEST CALLER PUSH1 0x0 SWAP1 DUP2 MSTORE PUSH1 0x1 PUSH1 0x20 SWAP1 DUP2 MSTORE PUSH1 0x40 DUP1 DUP4 KECCAK256 PUSH1 0x1 PUSH1 0x1 PUSH1 0xA0 SHL SUB DUP7 AND DUP5 MSTORE SWAP1 SWAP2 MSTORE DUP2 KECCAK256 SLOAD DUP3 DUP2 LT ISZERO PUSH2 0x5A9 JUMPI PUSH1 0x40 MLOAD PUSH3 0x461BCD PUSH1 0xE5 SHL DUP2 MSTORE PUSH1 0x20 PUSH1 0x4 DUP3 ADD MSTORE PUSH1 0x25 PUSH1 0x24 DUP3 ADD MSTORE PUSH32 0x45524332303A2064656372656173656420616C6C6F77616E63652062656C6F77 PUSH1 0x44 DUP3 ADD MSTORE PUSH32 0x207A65726F000000000000000000000000000000000000000000000000000000 PUSH1 0x64 DUP3 ADD MSTORE PUSH1 0x84 ADD PUSH2 0x39C JUMP JUMPDEST PUSH2 0x3F7 CALLER DUP6 DUP6 DUP5 SUB PUSH2 0x5C3 JUMP JUMPDEST PUSH1 0x0 PUSH2 0x31F CALLER DUP5 DUP5 PUSH2 0x7CA JUMP JUMPDEST PUSH1 0x1 PUSH1 0x1 PUSH1 0xA0 SHL SUB DUP4 AND PUSH2 0x63E JUMPI PUSH1 0x40 MLOAD PUSH3 0x461BCD PUSH1 0xE5 SHL DUP2 MSTORE PUSH1 0x20 PUSH1 0x4 DUP3 ADD MSTORE PUSH1 0x24 DUP1 DUP3 ADD MSTORE PUSH32 0x45524332303A20617070726F76652066726F6D20746865207A65726F20616464 PUSH1 0x44 DUP3 ADD MSTORE PUSH32 0x7265737300000000000000000000000000000000000000000000000000000000 PUSH1 0x64 DUP3 ADD MSTORE PUSH1 0x84 ADD PUSH2 0x39C JUMP JUMPDEST PUSH1 0x1 PUSH1 0x1 PUSH1 0xA0 SHL SUB DUP3 AND PUSH2 0x6BA JUMPI PUSH1 0x40 MLOAD PUSH3 0x461BCD PUSH1 0xE5 SHL DUP2 MSTORE PUSH1 0x20 PUSH1 0x4 DUP3 ADD MSTORE PUSH1 0x22 PUSH1 0x24 DUP3 ADD MSTORE PUSH32 0x45524332303A20617070726F766520746F20746865207A65726F206164647265 PUSH1 0x44 DUP3 ADD MSTORE PUSH32 0x7373000000000000000000000000000000000000000000000000000000000000 PUSH1 0x64 DUP3 ADD MSTORE PUSH1 0x84 ADD PUSH2 0x39C JUMP JUMPDEST PUSH1 0x1 PUSH1 0x1 PUSH1 0xA0 SHL SUB DUP4 DUP2 AND PUSH1 0x0 DUP2 DUP2 MSTORE PUSH1 0x1 PUSH1 0x20 SWAP1 DUP2 MSTORE PUSH1 0x40 DUP1 DUP4 KECCAK256 SWAP5 DUP8 AND DUP1 DUP5 MSTORE SWAP5 DUP3 MSTORE SWAP2 DUP3 SWAP1 KECCAK256 DUP6 SWAP1 SSTORE SWAP1 MLOAD DUP5 DUP2 MSTORE PUSH32 0x8C5BE1E5EBEC7D5BD14F71427D1E84F3DD0314C0F7B2291E5B200AC8C7C3B925 SWAP2 ADD JUMPDEST PUSH1 0x40 MLOAD DUP1 SWAP2 SUB SWAP1 LOG3 POP POP POP JUMP JUMPDEST CALLER PUSH1 0x0 SWAP1 DUP2 MSTORE PUSH1 0x1 PUSH1 0x20 SWAP1 DUP2 MSTORE PUSH1 0x40 DUP1 DUP4 KECCAK256 PUSH1 0x1 PUSH1 0x1 PUSH1 0xA0 SHL SUB DUP7 AND DUP5 MSTORE SWAP1 SWAP2 MSTORE SWAP1 KECCAK256 SLOAD PUSH32 0xFFFFFFFFFFFFFFFFFFFFFFFFFFFFFFFFFFFFFFFFFFFFFFFFFFFFFFFFFFFFFFFF DUP2 EQ PUSH2 0x7C4 JUMPI DUP2 DUP2 LT ISZERO PUSH2 0x7B7 JUMPI PUSH1 0x40 MLOAD PUSH3 0x461BCD PUSH1 0xE5 SHL DUP2 MSTORE PUSH1 0x20 PUSH1 0x4 DUP3 ADD MSTORE PUSH1 0x1D PUSH1 0x24 DUP3 ADD MSTORE PUSH32 0x45524332303A20696E73756666696369656E7420616C6C6F77616E6365000000 PUSH1 0x44 DUP3 ADD MSTORE PUSH1 0x64 ADD PUSH2 0x39C JUMP JUMPDEST PUSH2 0x7C4 DUP5 DUP5 DUP5 DUP5 SUB PUSH2 0x5C3 JUMP JUMPDEST POP POP POP POP JUMP JUMPDEST PUSH1 0x1 PUSH1 0x1 PUSH1 0xA0 SHL SUB DUP4 AND PUSH2 0x846 JUMPI PUSH1 0x40 MLOAD PUSH3 0x461BCD PUSH1 0xE5 SHL DUP2 MSTORE PUSH1 0x20 PUSH1 0x4 DUP3 ADD MSTORE PUSH1 0x25 PUSH1 0x24 DUP3 ADD MSTORE PUSH32 0x45524332303A207472616E736665722066726F6D20746865207A65726F206164 PUSH1 0x44 DUP3 ADD MSTORE PUSH32 0x6472657373000000000000000000000000000000000000000000000000000000 PUSH1 0x64 DUP3 ADD MSTORE PUSH1 0x84 ADD PUSH2 0x39C JUMP JUMPDEST PUSH1 0x1 PUSH1 0x1 PUSH1 0xA0 SHL SUB DUP3 AND PUSH2 0x8C2 JUMPI PUSH1 0x40 MLOAD PUSH3 0x461BCD PUSH1 0xE5 SHL DUP2 MSTORE PUSH1 0x20 PUSH1 0x4 DUP3 ADD MSTORE PUSH1 0x23 PUSH1 0x24 DUP3 ADD MSTORE PUSH32 0x45524332303A207472616E7366657220746F20746865207A65726F2061646472 PUSH1 0x44 DUP3 ADD MSTORE PUSH32 0x6573730000000000000000000000000000000000000000000000000000000000 PUSH1 0x64 DUP3 ADD MSTORE PUSH1 0x84 ADD PUSH2 0x39C JUMP JUMPDEST PUSH1 0x1 PUSH1 0x1 PUSH1 0xA0 SHL SUB DUP4 AND PUSH1 0x0 SWAP1 DUP2 MSTORE PUSH1 0x20 DUP2 SWAP1 MSTORE PUSH1 0x40 SWAP1 KECCAK256 SLOAD DUP2 DUP2 LT ISZERO PUSH2 0x951 JUMPI PUSH1 0x40 MLOAD PUSH3 0x461BCD PUSH1 0xE5 SHL DUP2 MSTORE PUSH1 0x20 PUSH1 0x4 DUP3 ADD MSTORE PUSH1 0x26 PUSH1 0x24 DUP3 ADD MSTORE PUSH32 0x45524332303A207472616E7366657220616D6F756E7420657863656564732062 PUSH1 0x44 DUP3 ADD MSTORE PUSH32 0x616C616E63650000000000000000000000000000000000000000000000000000 PUSH1 0x64 DUP3 ADD MSTORE PUSH1 0x84 ADD PUSH2 0x39C JUMP JUMPDEST PUSH1 0x1 PUSH1 0x1 PUSH1 0xA0 SHL SUB DUP1 DUP6 AND PUSH1 0x0 SWAP1 DUP2 MSTORE PUSH1 0x20 DUP2 SWAP1 MSTORE PUSH1 0x40 DUP1 DUP3 KECCAK256 DUP6 DUP6 SUB SWAP1 SSTORE SWAP2 DUP6 AND DUP2 MSTORE SWAP1 DUP2 KECCAK256 DUP1 SLOAD DUP5 SWAP3 SWAP1 PUSH2 0x988 SWAP1 DUP5 SWAP1 PUSH2 0xE23 JUMP JUMPDEST SWAP3 POP POP DUP2 SWAP1 SSTORE POP DUP3 PUSH1 0x1 PUSH1 0x1 PUSH1 0xA0 SHL SUB AND DUP5 PUSH1 0x1 PUSH1 0x1 PUSH1 0xA0 SHL SUB AND PUSH32 0xDDF252AD1BE2C89B69C2B068FC378DAA952BA7F163C4A11628F55A4DF523B3EF DUP5 PUSH1 0x40 MLOAD PUSH2 0x9D4 SWAP2 DUP2 MSTORE PUSH1 0x20 ADD SWAP1 JUMP JUMPDEST PUSH1 0x40 MLOAD DUP1 SWAP2 SUB SWAP1 LOG3 POP POP POP POP JUMP JUMPDEST PUSH1 0x1 PUSH1 0x1 PUSH1 0xA0 SHL SUB DUP3 AND PUSH2 0xA38 JUMPI PUSH1 0x40 MLOAD PUSH3 0x461BCD PUSH1 0xE5 SHL DUP2 MSTORE PUSH1 0x20 PUSH1 0x4 DUP3 ADD MSTORE PUSH1 0x1F PUSH1 0x24 DUP3 ADD MSTORE PUSH32 0x45524332303A206D696E7420746F20746865207A65726F206164647265737300 PUSH1 0x44 DUP3 ADD MSTORE PUSH1 0x64 ADD PUSH2 0x39C JUMP JUMPDEST DUP1 PUSH1 0x3 PUSH1 0x0 DUP3 DUP3 SLOAD PUSH2 0xA4A SWAP2 SWAP1 PUSH2 0xE23 JUMP JUMPDEST SWAP1 SWAP2 SSTORE POP POP PUSH1 0x1 PUSH1 0x1 PUSH1 0xA0 SHL SUB DUP3 AND PUSH1 0x0 SWAP1 DUP2 MSTORE PUSH1 0x20 DUP2 SWAP1 MSTORE PUSH1 0x40 DUP2 KECCAK256 DUP1 SLOAD DUP4 SWAP3 SWAP1 PUSH2 0xA77 SWAP1 DUP5 SWAP1 PUSH2 0xE23 JUMP JUMPDEST SWAP1 SWAP2 SSTORE POP POP PUSH1 0x40 MLOAD DUP2 DUP2 MSTORE PUSH1 0x1 PUSH1 0x1 PUSH1 0xA0 SHL SUB DUP4 AND SWAP1 PUSH1 0x0 SWAP1 PUSH32 0xDDF252AD1BE2C89B69C2B068FC378DAA952BA7F163C4A11628F55A4DF523B3EF SWAP1 PUSH1 0x20 ADD PUSH1 0x40 MLOAD DUP1 SWAP2 SUB SWAP1 LOG3 POP POP JUMP JUMPDEST PUSH1 0x1 PUSH1 0x1 PUSH1 0xA0 SHL SUB DUP3 AND PUSH2 0xB3D JUMPI PUSH1 0x40 MLOAD PUSH3 0x461BCD PUSH1 0xE5 SHL DUP2 MSTORE PUSH1 0x20 PUSH1 0x4 DUP3 ADD MSTORE PUSH1 0x21 PUSH1 0x24 DUP3 ADD MSTORE PUSH32 0x45524332303A206275726E2066726F6D20746865207A65726F20616464726573 PUSH1 0x44 DUP3 ADD MSTORE PUSH32 0x7300000000000000000000000000000000000000000000000000000000000000 PUSH1 0x64 DUP3 ADD MSTORE PUSH1 0x84 ADD PUSH2 0x39C JUMP JUMPDEST PUSH1 0x1 PUSH1 0x1 PUSH1 0xA0 SHL SUB DUP3 AND PUSH1 0x0 SWAP1 DUP2 MSTORE PUSH1 0x20 DUP2 SWAP1 MSTORE PUSH1 0x40 SWAP1 KECCAK256 SLOAD DUP2 DUP2 LT ISZERO PUSH2 0xBCC JUMPI PUSH1 0x40 MLOAD PUSH3 0x461BCD PUSH1 0xE5 SHL DUP2 MSTORE PUSH1 0x20 PUSH1 0x4 DUP3 ADD MSTORE PUSH1 0x22 PUSH1 0x24 DUP3 ADD MSTORE PUSH32 0x45524332303A206275726E20616D6F756E7420657863656564732062616C616E PUSH1 0x44 DUP3 ADD MSTORE PUSH32 0x6365000000000000000000000000000000000000000000000000000000000000 PUSH1 0x64 DUP3 ADD MSTORE PUSH1 0x84 ADD PUSH2 0x39C JUMP JUMPDEST PUSH1 0x1 PUSH1 0x1 PUSH1 0xA0 SHL SUB DUP4 AND PUSH1 0x0 SWAP1 DUP2 MSTORE PUSH1 0x20 DUP2 SWAP1 MSTORE PUSH1 0x40 DUP2 KECCAK256 DUP4 DUP4 SUB SWAP1 SSTORE PUSH1 0x3 DUP1 SLOAD DUP5 SWAP3 SWAP1 PUSH2 0xBFB SWAP1 DUP5 SWAP1 PUSH2 0xE3B JUMP JUMPDEST SWAP1 SWAP2 SSTORE POP POP PUSH1 0x40 MLOAD DUP3 DUP2 MSTORE PUSH1 0x0 SWAP1 PUSH1 0x1 PUSH1 0x1 PUSH1 0xA0 SHL SUB DUP6 AND SWAP1 PUSH32 0xDDF252AD1BE2C89B69C2B068FC378DAA952BA7F163C4A11628F55A4DF523B3EF SWAP1 PUSH1 0x20 ADD PUSH2 0x70F JUMP JUMPDEST PUSH1 0x0 PUSH1 0x20 DUP1 DUP4 MSTORE DUP4 MLOAD DUP1 DUP3 DUP6 ADD MSTORE PUSH1 0x0 JUMPDEST DUP2 DUP2 LT ISZERO PUSH2 0xC6B JUMPI DUP6 DUP2 ADD DUP4 ADD MLOAD DUP6 DUP3 ADD PUSH1 0x40 ADD MSTORE DUP3 ADD PUSH2 0xC4F JUMP JUMPDEST DUP2 DUP2 GT ISZERO PUSH2 0xC7D JUMPI PUSH1 0x0 PUSH1 0x40 DUP4 DUP8 ADD ADD MSTORE JUMPDEST POP PUSH1 0x1F ADD PUSH32 0xFFFFFFFFFFFFFFFFFFFFFFFFFFFFFFFFFFFFFFFFFFFFFFFFFFFFFFFFFFFFFFE0 AND SWAP3 SWAP1 SWAP3 ADD PUSH1 0x40 ADD SWAP4 SWAP3 POP POP POP JUMP JUMPDEST DUP1 CALLDATALOAD PUSH1 0x1 PUSH1 0x1 PUSH1 0xA0 SHL SUB DUP2 AND DUP2 EQ PUSH2 0xCC8 JUMPI PUSH1 0x0 DUP1 REVERT JUMPDEST SWAP2 SWAP1 POP JUMP JUMPDEST PUSH1 0x0 DUP1 PUSH1 0x40 DUP4 DUP6 SUB SLT ISZERO PUSH2 0xCE0 JUMPI PUSH1 0x0 DUP1 REVERT JUMPDEST PUSH2 0xCE9 DUP4 PUSH2 0xCB1 JUMP JUMPDEST SWAP5 PUSH1 0x20 SWAP4 SWAP1 SWAP4 ADD CALLDATALOAD SWAP4 POP POP POP JUMP JUMPDEST PUSH1 0x0 PUSH1 0x20 DUP3 DUP5 SUB SLT ISZERO PUSH2 0xD09 JUMPI PUSH1 0x0 DUP1 REVERT JUMPDEST PUSH2 0xD12 DUP3 PUSH2 0xCB1 JUMP JUMPDEST SWAP4 SWAP3 POP POP POP JUMP JUMPDEST PUSH1 0x0 DUP1 PUSH1 0x0 PUSH1 0x60 DUP5 DUP7 SUB SLT ISZERO PUSH2 0xD2E JUMPI PUSH1 0x0 DUP1 REVERT JUMPDEST PUSH2 0xD37 DUP5 PUSH2 0xCB1 JUMP JUMPDEST SWAP3 POP PUSH2 0xD45 PUSH1 0x20 DUP6 ADD PUSH2 0xCB1 JUMP JUMPDEST SWAP2 POP PUSH1 0x40 DUP5 ADD CALLDATALOAD SWAP1 POP SWAP3 POP SWAP3 POP SWAP3 JUMP JUMPDEST PUSH1 0x0 PUSH1 0x20 DUP3 DUP5 SUB SLT ISZERO PUSH2 0xD67 JUMPI PUSH1 0x0 DUP1 REVERT JUMPDEST POP CALLDATALOAD SWAP2 SWAP1 POP JUMP JUMPDEST PUSH1 0x0 DUP1 PUSH1 0x40 DUP4 DUP6 SUB SLT ISZERO PUSH2 0xD81 JUMPI PUSH1 0x0 DUP1 REVERT JUMPDEST PUSH2 0xD8A DUP4 PUSH2 0xCB1 JUMP JUMPDEST SWAP2 POP PUSH2 0xD98 PUSH1 0x20 DUP5 ADD PUSH2 0xCB1 JUMP JUMPDEST SWAP1 POP SWAP3 POP SWAP3 SWAP1 POP JUMP JUMPDEST PUSH1 0x1 DUP2 DUP2 SHR SWAP1 DUP3 AND DUP1 PUSH2 0xDB5 JUMPI PUSH1 0x7F DUP3 AND SWAP2 POP JUMPDEST PUSH1 0x20 DUP3 LT DUP2 SUB PUSH2 0xDEE JUMPI PUSH32 0x4E487B7100000000000000000000000000000000000000000000000000000000 PUSH1 0x0 MSTORE PUSH1 0x22 PUSH1 0x4 MSTORE PUSH1 0x24 PUSH1 0x0 REVERT JUMPDEST POP SWAP2 SWAP1 POP JUMP JUMPDEST PUSH32 0x4E487B7100000000000000000000000000000000000000000000000000000000 PUSH1 0x0 MSTORE PUSH1 0x11 PUSH1 0x4 MSTORE PUSH1 0x24 PUSH1 0x0 REVERT JUMPDEST PUSH1 0x0 DUP3 NOT DUP3 GT ISZERO PUSH2 0xE36 JUMPI PUSH2 0xE36 PUSH2 0xDF4 JUMP JUMPDEST POP ADD SWAP1 JUMP JUMPDEST PUSH1 0x0 DUP3 DUP3 LT ISZERO PUSH2 0xE4D JUMPI PUSH2 0xE4D PUSH2 0xDF4 JUMP JUMPDEST POP SUB SWAP1 JUMP INVALID LOG2 PUSH5 0x6970667358 0x22 SLT KECCAK256 PUSH27 0x905737A15565257B0ED70FF1A167C72F6BECF3BD1E7FC2B247DFF8 0x29 GAS 0xD8 DUP5 PUSH5 0x736F6C6343 STOP ADDMOD 0xE STOP CALLER "
				},
				"gasEstimates": {
					"creation": {
						"codeDepositCost": "744000",
						"executionCost": "infinite",
						"totalCost": "infinite"
					},
					"external": {
						"_totalSupply()": "2384",
						"allowance(address,address)": "infinite",
						"approve(address,uint256)": "24643",
						"balanceOf(address)": "2607",
						"burn(uint256)": "50977",
						"burnFrom(address,uint256)": "infinite",
						"decimals()": "2358",
						"decreaseAllowance(address,uint256)": "26933",
						"increaseAllowance(address,uint256)": "27002",
						"mint(address,uint256)": "infinite",
						"name()": "infinite",
						"setOwner(address)": "infinite",
						"symbol()": "infinite",
						"totalSupply()": "2371",
						"transfer(address,uint256)": "51231",
						"transferFrom(address,address,uint256)": "infinite"
					},
					"internal": {
						"_approve(address,address,uint256)": "infinite",
						"_burn(address,uint256)": "infinite",
						"_mint(address,uint256)": "infinite",
						"_spendAllowance(address,address,uint256)": "infinite",
						"_transfer(address,address,uint256)": "infinite"
					}
				},
				"methodIdentifiers": {
					"_totalSupply()": "3eaaf86b",
					"allowance(address,address)": "dd62ed3e",
					"approve(address,uint256)": "095ea7b3",
					"balanceOf(address)": "70a08231",
					"burn(uint256)": "42966c68",
					"burnFrom(address,uint256)": "79cc6790",
					"decimals()": "313ce567",
					"decreaseAllowance(address,uint256)": "a457c2d7",
					"increaseAllowance(address,uint256)": "39509351",
					"mint(address,uint256)": "40c10f19",
					"name()": "06fdde03",
					"setOwner(address)": "13af4035",
					"symbol()": "95d89b41",
					"totalSupply()": "18160ddd",
					"transfer(address,uint256)": "a9059cbb",
					"transferFrom(address,address,uint256)": "23b872dd"
				}
			},
			"storageLayout": {
				"storage": [
					{
						"astId": 8,
						"contract": "TFGv3/Contracts/CryptoFundToken.sol:CryptoFundToken",
						"label": "_balances",
						"offset": 0,
						"slot": "0",
						"type": "t_mapping(t_address,t_uint256)"
					},
					{
						"astId": 14,
						"contract": "TFGv3/Contracts/CryptoFundToken.sol:CryptoFundToken",
						"label": "_allowances",
						"offset": 0,
						"slot": "1",
						"type": "t_mapping(t_address,t_mapping(t_address,t_uint256))"
					},
					{
						"astId": 18,
						"contract": "TFGv3/Contracts/CryptoFundToken.sol:CryptoFundToken",
						"label": "_owner",
						"offset": 0,
						"slot": "2",
						"type": "t_address"
					},
					{
						"astId": 20,
						"contract": "TFGv3/Contracts/CryptoFundToken.sol:CryptoFundToken",
						"label": "_totalSupply",
						"offset": 0,
						"slot": "3",
						"type": "t_uint256"
					},
					{
						"astId": 22,
						"contract": "TFGv3/Contracts/CryptoFundToken.sol:CryptoFundToken",
						"label": "name",
						"offset": 0,
						"slot": "4",
						"type": "t_string_storage"
					},
					{
						"astId": 24,
						"contract": "TFGv3/Contracts/CryptoFundToken.sol:CryptoFundToken",
						"label": "symbol",
						"offset": 0,
						"slot": "5",
						"type": "t_string_storage"
					},
					{
						"astId": 26,
						"contract": "TFGv3/Contracts/CryptoFundToken.sol:CryptoFundToken",
						"label": "decimals",
						"offset": 0,
						"slot": "6",
						"type": "t_uint8"
					}
				],
				"types": {
					"t_address": {
						"encoding": "inplace",
						"label": "address",
						"numberOfBytes": "20"
					},
					"t_mapping(t_address,t_mapping(t_address,t_uint256))": {
						"encoding": "mapping",
						"key": "t_address",
						"label": "mapping(address => mapping(address => uint256))",
						"numberOfBytes": "32",
						"value": "t_mapping(t_address,t_uint256)"
					},
					"t_mapping(t_address,t_uint256)": {
						"encoding": "mapping",
						"key": "t_address",
						"label": "mapping(address => uint256)",
						"numberOfBytes": "32",
						"value": "t_uint256"
					},
					"t_string_storage": {
						"encoding": "bytes",
						"label": "string",
						"numberOfBytes": "32"
					},
					"t_uint256": {
						"encoding": "inplace",
						"label": "uint256",
						"numberOfBytes": "32"
					},
					"t_uint8": {
						"encoding": "inplace",
						"label": "uint8",
						"numberOfBytes": "1"
					}
				}
			},
			"userdoc": {
				"kind": "user",
				"methods": {},
				"version": 1
			}
		}
	}
}