{
	"TFGv3/Contracts/SCExchange.sol": {
		"SCExchange": {
			"abi": [
				{
					"inputs": [],
					"stateMutability": "nonpayable",
					"type": "constructor"
				},
				{
					"stateMutability": "payable",
					"type": "fallback"
				},
				{
					"inputs": [
						{
							"internalType": "address",
							"name": "coinAddr",
							"type": "address"
						}
					],
					"name": "addCoin",
					"outputs": [],
					"stateMutability": "nonpayable",
					"type": "function"
				},
				{
					"inputs": [
						{
							"internalType": "address",
							"name": "to",
							"type": "address"
						}
					],
					"name": "addToBlacklist",
					"outputs": [
						{
							"internalType": "bool",
							"name": "",
							"type": "bool"
						}
					],
					"stateMutability": "nonpayable",
					"type": "function"
				},
				{
					"inputs": [
						{
							"internalType": "address",
							"name": "",
							"type": "address"
						}
					],
					"name": "blacklist",
					"outputs": [
						{
							"internalType": "uint256",
							"name": "",
							"type": "uint256"
						}
					],
					"stateMutability": "view",
					"type": "function"
				},
				{
					"inputs": [
						{
							"internalType": "address",
							"name": "stableAddr",
							"type": "address"
						},
						{
							"internalType": "uint256",
							"name": "qtyIn",
							"type": "uint256"
						}
					],
					"name": "buyTokensInput",
					"outputs": [],
					"stateMutability": "nonpayable",
					"type": "function"
				},
				{
					"inputs": [
						{
							"internalType": "address",
							"name": "stableAddr",
							"type": "address"
						},
						{
							"internalType": "uint256",
							"name": "tokensOut",
							"type": "uint256"
						}
					],
					"name": "buyTokensOutput",
					"outputs": [],
					"stateMutability": "nonpayable",
					"type": "function"
				},
				{
					"inputs": [
						{
							"internalType": "address",
							"name": "",
							"type": "address"
						}
					],
					"name": "coins",
					"outputs": [
						{
							"internalType": "uint256",
							"name": "",
							"type": "uint256"
						}
					],
					"stateMutability": "view",
					"type": "function"
				},
				{
					"inputs": [
						{
							"internalType": "address",
							"name": "coinAddr",
							"type": "address"
						}
					],
					"name": "delCoin",
					"outputs": [],
					"stateMutability": "nonpayable",
					"type": "function"
				},
				{
					"inputs": [
						{
							"internalType": "address",
							"name": "newAddr",
							"type": "address"
						}
					],
					"name": "deleteContract",
					"outputs": [],
					"stateMutability": "nonpayable",
					"type": "function"
				},
				{
					"inputs": [
						{
							"internalType": "address",
							"name": "proxyAddr",
							"type": "address"
						}
					],
					"name": "initContract",
					"outputs": [],
					"stateMutability": "nonpayable",
					"type": "function"
				},
				{
					"inputs": [],
					"name": "initDone",
					"outputs": [
						{
							"internalType": "uint8",
							"name": "",
							"type": "uint8"
						}
					],
					"stateMutability": "view",
					"type": "function"
				},
				{
					"inputs": [],
					"name": "lock",
					"outputs": [
						{
							"internalType": "uint8",
							"name": "",
							"type": "uint8"
						}
					],
					"stateMutability": "view",
					"type": "function"
				},
				{
					"inputs": [],
					"name": "lockOff",
					"outputs": [],
					"stateMutability": "nonpayable",
					"type": "function"
				},
				{
					"inputs": [],
					"name": "lockOn",
					"outputs": [],
					"stateMutability": "nonpayable",
					"type": "function"
				},
				{
					"inputs": [],
					"name": "proxy",
					"outputs": [
						{
							"internalType": "address",
							"name": "",
							"type": "address"
						}
					],
					"stateMutability": "view",
					"type": "function"
				},
				{
					"inputs": [
						{
							"internalType": "address",
							"name": "to",
							"type": "address"
						}
					],
					"name": "removeFromBlacklist",
					"outputs": [
						{
							"internalType": "bool",
							"name": "",
							"type": "bool"
						}
					],
					"stateMutability": "nonpayable",
					"type": "function"
				},
				{
					"inputs": [
						{
							"internalType": "uint256",
							"name": "qty",
							"type": "uint256"
						}
					],
					"name": "sellTokens",
					"outputs": [],
					"stateMutability": "nonpayable",
					"type": "function"
				},
				{
					"inputs": [
						{
							"internalType": "address",
							"name": "newAddr",
							"type": "address"
						}
					],
					"name": "updateProxy",
					"outputs": [],
					"stateMutability": "nonpayable",
					"type": "function"
				},
				{
					"stateMutability": "payable",
					"type": "receive"
				}
			],
			"devdoc": {
				"kind": "dev",
				"methods": {},
				"version": 1
			},
			"evm": {
				"assembly": "    /* \"TFGv3/Contracts/SCExchange.sol\":108:4852  contract SCExchange is ISCExchange... */\n  mstore(0x40, 0xa0)\n    /* \"TFGv3/Contracts/SCExchange.sol\":341:415  constructor()... */\n  callvalue\n  dup1\n  iszero\n  tag_1\n  jumpi\n  0x00\n  dup1\n  revert\ntag_1:\n  pop\n    /* \"TFGv3/Contracts/SCExchange.sol\":380:390  msg.sender */\n  caller\n    /* \"TFGv3/Contracts/SCExchange.sol\":369:390  deployer = msg.sender */\n  0xffffffffffffffffffffffffffffffffffffffff\n  and\n  0x80\n  dup2\n  0xffffffffffffffffffffffffffffffffffffffff\n  and\n  0x60\n  shl\n  dup2\n  mstore\n  pop\n  pop\n    /* \"TFGv3/Contracts/SCExchange.sol\":407:408  1 */\n  0x01\n    /* \"TFGv3/Contracts/SCExchange.sol\":400:404  lock */\n  0x03\n  0x00\n    /* \"TFGv3/Contracts/SCExchange.sol\":400:408  lock = 1 */\n  0x0100\n  exp\n  dup2\n  sload\n  dup2\n  0xff\n  mul\n  not\n  and\n  swap1\n  dup4\n  0xff\n  and\n  mul\n  or\n  swap1\n  sstore\n  pop\n    /* \"TFGv3/Contracts/SCExchange.sol\":108:4852  contract SCExchange is ISCExchange... */\n  shr(0x60, mload(0x80))\n  codecopy(0x00, dataOffset(sub_0), dataSize(sub_0))\n  0x00\n  assignImmutable(\"0x5081277725af21b52adfcd8be9eaf5a350f1ec111a4413c31b8ff210fe7f74ef\")\n  return(0x00, dataSize(sub_0))\nstop\n\nsub_0: assembly {\n        /* \"TFGv3/Contracts/SCExchange.sol\":108:4852  contract SCExchange is ISCExchange... */\n      mstore(0x40, 0x80)\n      jumpi(tag_1, lt(calldatasize, 0x04))\n      shr(0xe0, calldataload(0x00))\n      dup1\n      0x7d0f7a88\n      gt\n      tag_20\n      jumpi\n      dup1\n      0xcf9d4afa\n      gt\n      tag_21\n      jumpi\n      dup1\n      0xcf9d4afa\n      eq\n      tag_15\n      jumpi\n      dup1\n      0xec556889\n      eq\n      tag_16\n      jumpi\n      dup1\n      0xf83d08ba\n      eq\n      tag_17\n      jumpi\n      dup1\n      0xf9f92be4\n      eq\n      tag_18\n      jumpi\n      dup1\n      0xfed0a20e\n      eq\n      tag_19\n      jumpi\n      jump(tag_2)\n    tag_21:\n      dup1\n      0x7d0f7a88\n      eq\n      tag_11\n      jumpi\n      dup1\n      0x9be56034\n      eq\n      tag_12\n      jumpi\n      dup1\n      0x9e955149\n      eq\n      tag_13\n      jumpi\n      dup1\n      0xb4b15df5\n      eq\n      tag_14\n      jumpi\n      jump(tag_2)\n    tag_20:\n      dup1\n      0x44337ea1\n      gt\n      tag_22\n      jumpi\n      dup1\n      0x44337ea1\n      eq\n      tag_7\n      jumpi\n      dup1\n      0x537df3b6\n      eq\n      tag_8\n      jumpi\n      dup1\n      0x5ecaf1c8\n      eq\n      tag_9\n      jumpi\n      dup1\n      0x6c11bcd3\n      eq\n      tag_10\n      jumpi\n      jump(tag_2)\n    tag_22:\n      dup1\n      0x16da8632\n      eq\n      tag_3\n      jumpi\n      dup1\n      0x2637a477\n      eq\n      tag_4\n      jumpi\n      dup1\n      0x365afe2f\n      eq\n      tag_5\n      jumpi\n      dup1\n      0x4051b9aa\n      eq\n      tag_6\n      jumpi\n      jump(tag_2)\n    tag_1:\n      jumpi(tag_2, calldatasize)\n        /* \"TFGv3/Contracts/SCExchange.sol\":4768:4776  revert() */\n      0x00\n      dup1\n      revert\n        /* \"TFGv3/Contracts/SCExchange.sol\":108:4852  contract SCExchange is ISCExchange... */\n    tag_2:\n        /* \"TFGv3/Contracts/SCExchange.sol\":4835:4843  revert() */\n      0x00\n      dup1\n      revert\n        /* \"TFGv3/Contracts/SCExchange.sol\":3719:3817  function addCoin(address coinAddr) external  OnlyDeployer... */\n    tag_3:\n      callvalue\n      dup1\n      iszero\n      tag_27\n      jumpi\n      0x00\n      dup1\n      revert\n    tag_27:\n      pop\n      tag_28\n      0x04\n      dup1\n      calldatasize\n      sub\n      dup2\n      add\n      swap1\n      tag_29\n      swap2\n      swap1\n      tag_30\n      jump\t// in\n    tag_29:\n      tag_31\n      jump\t// in\n    tag_28:\n      stop\n        /* \"TFGv3/Contracts/SCExchange.sol\":4407:4717  function deleteContract(address newAddr) external virtual override OnlyDeployer... */\n    tag_4:\n      callvalue\n      dup1\n      iszero\n      tag_32\n      jumpi\n      0x00\n      dup1\n      revert\n    tag_32:\n      pop\n      tag_33\n      0x04\n      dup1\n      calldatasize\n      sub\n      dup2\n      add\n      swap1\n      tag_34\n      swap2\n      swap1\n      tag_30\n      jump\t// in\n    tag_34:\n      tag_35\n      jump\t// in\n    tag_33:\n      stop\n        /* \"TFGv3/Contracts/SCExchange.sol\":1173:2095  function buyTokensOutput(address stableAddr, uint tokensOut) external virtual override Blacklisted Locked Coin(stableAddr)... */\n    tag_5:\n      callvalue\n      dup1\n      iszero\n      tag_36\n      jumpi\n      0x00\n      dup1\n      revert\n    tag_36:\n      pop\n      tag_37\n      0x04\n      dup1\n      calldatasize\n      sub\n      dup2\n      add\n      swap1\n      tag_38\n      swap2\n      swap1\n      tag_39\n      jump\t// in\n    tag_38:\n      tag_40\n      jump\t// in\n    tag_37:\n      stop\n        /* \"TFGv3/Contracts/SCExchange.sol\":3827:3924  function delCoin(address coinAddr) external OnlyDeployer... */\n    tag_6:\n      callvalue\n      dup1\n      iszero\n      tag_41\n      jumpi\n      0x00\n      dup1\n      revert\n    tag_41:\n      pop\n      tag_42\n      0x04\n      dup1\n      calldatasize\n      sub\n      dup2\n      add\n      swap1\n      tag_43\n      swap2\n      swap1\n      tag_30\n      jump\t// in\n    tag_43:\n      tag_44\n      jump\t// in\n    tag_42:\n      stop\n        /* \"TFGv3/Contracts/SCExchange.sol\":3927:4076  function addToBlacklist(address to) external virtual override OnlyDeployer returns (bool)... */\n    tag_7:\n      callvalue\n      dup1\n      iszero\n      tag_45\n      jumpi\n      0x00\n      dup1\n      revert\n    tag_45:\n      pop\n      tag_46\n      0x04\n      dup1\n      calldatasize\n      sub\n      dup2\n      add\n      swap1\n      tag_47\n      swap2\n      swap1\n      tag_30\n      jump\t// in\n    tag_47:\n      tag_48\n      jump\t// in\n    tag_46:\n      mload(0x40)\n      tag_49\n      swap2\n      swap1\n      tag_50\n      jump\t// in\n    tag_49:\n      mload(0x40)\n      dup1\n      swap2\n      sub\n      swap1\n      return\n        /* \"TFGv3/Contracts/SCExchange.sol\":4082:4236  function removeFromBlacklist(address to) external virtual override OnlyDeployer returns (bool)... */\n    tag_8:\n      callvalue\n      dup1\n      iszero\n      tag_51\n      jumpi\n      0x00\n      dup1\n      revert\n    tag_51:\n      pop\n      tag_52\n      0x04\n      dup1\n      calldatasize\n      sub\n      dup2\n      add\n      swap1\n      tag_53\n      swap2\n      swap1\n      tag_30\n      jump\t// in\n    tag_53:\n      tag_54\n      jump\t// in\n    tag_52:\n      mload(0x40)\n      tag_55\n      swap2\n      swap1\n      tag_50\n      jump\t// in\n    tag_55:\n      mload(0x40)\n      dup1\n      swap2\n      sub\n      swap1\n      return\n        /* \"TFGv3/Contracts/SCExchange.sol\":1097:1167  function lockOff() external OnlyDeployer... */\n    tag_9:\n      callvalue\n      dup1\n      iszero\n      tag_56\n      jumpi\n      0x00\n      dup1\n      revert\n    tag_56:\n      pop\n      tag_57\n      tag_58\n      jump\t// in\n    tag_57:\n      stop\n        /* \"TFGv3/Contracts/SCExchange.sol\":3047:3713  function sellTokens(uint qty) external virtual override Blacklisted Locked... */\n    tag_10:\n      callvalue\n      dup1\n      iszero\n      tag_59\n      jumpi\n      0x00\n      dup1\n      revert\n    tag_59:\n      pop\n      tag_60\n      0x04\n      dup1\n      calldatasize\n      sub\n      dup2\n      add\n      swap1\n      tag_61\n      swap2\n      swap1\n      tag_62\n      jump\t// in\n    tag_61:\n      tag_63\n      jump\t// in\n    tag_60:\n      stop\n        /* \"TFGv3/Contracts/SCExchange.sol\":202:239  mapping(address => uint) public coins */\n    tag_11:\n      callvalue\n      dup1\n      iszero\n      tag_64\n      jumpi\n      0x00\n      dup1\n      revert\n    tag_64:\n      pop\n      tag_65\n      0x04\n      dup1\n      calldatasize\n      sub\n      dup2\n      add\n      swap1\n      tag_66\n      swap2\n      swap1\n      tag_30\n      jump\t// in\n    tag_66:\n      tag_67\n      jump\t// in\n    tag_65:\n      mload(0x40)\n      tag_68\n      swap2\n      swap1\n      tag_69\n      jump\t// in\n    tag_68:\n      mload(0x40)\n      dup1\n      swap2\n      sub\n      swap1\n      return\n        /* \"TFGv3/Contracts/SCExchange.sol\":2105:3044  function buyTokensInput(address stableAddr, uint qtyIn) external virtual override Blacklisted Locked Coin(stableAddr)... */\n    tag_12:\n      callvalue\n      dup1\n      iszero\n      tag_70\n      jumpi\n      0x00\n      dup1\n      revert\n    tag_70:\n      pop\n      tag_71\n      0x04\n      dup1\n      calldatasize\n      sub\n      dup2\n      add\n      swap1\n      tag_72\n      swap2\n      swap1\n      tag_39\n      jump\t// in\n    tag_72:\n      tag_73\n      jump\t// in\n    tag_71:\n      stop\n        /* \"TFGv3/Contracts/SCExchange.sol\":4246:4397  function updateProxy(address newAddr) external virtual override OnlyDeployer... */\n    tag_13:\n      callvalue\n      dup1\n      iszero\n      tag_74\n      jumpi\n      0x00\n      dup1\n      revert\n    tag_74:\n      pop\n      tag_75\n      0x04\n      dup1\n      calldatasize\n      sub\n      dup2\n      add\n      swap1\n      tag_76\n      swap2\n      swap1\n      tag_30\n      jump\t// in\n    tag_76:\n      tag_77\n      jump\t// in\n    tag_75:\n      stop\n        /* \"TFGv3/Contracts/SCExchange.sol\":1018:1087  function lockOn() external OnlyDeployer... */\n    tag_14:\n      callvalue\n      dup1\n      iszero\n      tag_78\n      jumpi\n      0x00\n      dup1\n      revert\n    tag_78:\n      pop\n      tag_79\n      tag_80\n      jump\t// in\n    tag_79:\n      stop\n        /* \"TFGv3/Contracts/SCExchange.sol\":863:1012  function initContract(address proxyAddr) external OnlyDeployer NonInit... */\n    tag_15:\n      callvalue\n      dup1\n      iszero\n      tag_81\n      jumpi\n      0x00\n      dup1\n      revert\n    tag_81:\n      pop\n      tag_82\n      0x04\n      dup1\n      calldatasize\n      sub\n      dup2\n      add\n      swap1\n      tag_83\n      swap2\n      swap1\n      tag_30\n      jump\t// in\n    tag_83:\n      tag_84\n      jump\t// in\n    tag_82:\n      stop\n        /* \"TFGv3/Contracts/SCExchange.sol\":178:198  address public proxy */\n    tag_16:\n      callvalue\n      dup1\n      iszero\n      tag_85\n      jumpi\n      0x00\n      dup1\n      revert\n    tag_85:\n      pop\n      tag_86\n      tag_87\n      jump\t// in\n    tag_86:\n      mload(0x40)\n      tag_88\n      swap2\n      swap1\n      tag_89\n      jump\t// in\n    tag_88:\n      mload(0x40)\n      dup1\n      swap2\n      sub\n      swap1\n      return\n        /* \"TFGv3/Contracts/SCExchange.sol\":286:303  uint8 public lock */\n    tag_17:\n      callvalue\n      dup1\n      iszero\n      tag_90\n      jumpi\n      0x00\n      dup1\n      revert\n    tag_90:\n      pop\n      tag_91\n      tag_92\n      jump\t// in\n    tag_91:\n      mload(0x40)\n      tag_93\n      swap2\n      swap1\n      tag_94\n      jump\t// in\n    tag_93:\n      mload(0x40)\n      dup1\n      swap2\n      sub\n      swap1\n      return\n        /* \"TFGv3/Contracts/SCExchange.sol\":242:283  mapping(address => uint) public blacklist */\n    tag_18:\n      callvalue\n      dup1\n      iszero\n      tag_95\n      jumpi\n      0x00\n      dup1\n      revert\n    tag_95:\n      pop\n      tag_96\n      0x04\n      dup1\n      calldatasize\n      sub\n      dup2\n      add\n      swap1\n      tag_97\n      swap2\n      swap1\n      tag_30\n      jump\t// in\n    tag_97:\n      tag_98\n      jump\t// in\n    tag_96:\n      mload(0x40)\n      tag_99\n      swap2\n      swap1\n      tag_69\n      jump\t// in\n    tag_99:\n      mload(0x40)\n      dup1\n      swap2\n      sub\n      swap1\n      return\n        /* \"TFGv3/Contracts/SCExchange.sol\":309:330  uint8 public initDone */\n    tag_19:\n      callvalue\n      dup1\n      iszero\n      tag_100\n      jumpi\n      0x00\n      dup1\n      revert\n    tag_100:\n      pop\n      tag_101\n      tag_102\n      jump\t// in\n    tag_101:\n      mload(0x40)\n      tag_103\n      swap2\n      swap1\n      tag_94\n      jump\t// in\n    tag_103:\n      mload(0x40)\n      dup1\n      swap2\n      sub\n      swap1\n      return\n        /* \"TFGv3/Contracts/SCExchange.sol\":3719:3817  function addCoin(address coinAddr) external  OnlyDeployer... */\n    tag_31:\n        /* \"TFGv3/Contracts/SCExchange.sol\":482:490  deployer */\n      immutable(\"0x5081277725af21b52adfcd8be9eaf5a350f1ec111a4413c31b8ff210fe7f74ef\")\n        /* \"TFGv3/Contracts/SCExchange.sol\":468:490  msg.sender == deployer */\n      0xffffffffffffffffffffffffffffffffffffffff\n      and\n        /* \"TFGv3/Contracts/SCExchange.sol\":468:478  msg.sender */\n      caller\n        /* \"TFGv3/Contracts/SCExchange.sol\":468:490  msg.sender == deployer */\n      0xffffffffffffffffffffffffffffffffffffffff\n      and\n      eq\n        /* \"TFGv3/Contracts/SCExchange.sol\":460:491  require(msg.sender == deployer) */\n      tag_105\n      jumpi\n      0x00\n      dup1\n      revert\n    tag_105:\n        /* \"TFGv3/Contracts/SCExchange.sol\":3809:3810  1 */\n      0x01\n        /* \"TFGv3/Contracts/SCExchange.sol\":3791:3796  coins */\n      dup1\n        /* \"TFGv3/Contracts/SCExchange.sol\":3791:3806  coins[coinAddr] */\n      0x00\n        /* \"TFGv3/Contracts/SCExchange.sol\":3797:3805  coinAddr */\n      dup4\n        /* \"TFGv3/Contracts/SCExchange.sol\":3791:3806  coins[coinAddr] */\n      0xffffffffffffffffffffffffffffffffffffffff\n      and\n      0xffffffffffffffffffffffffffffffffffffffff\n      and\n      dup2\n      mstore\n      0x20\n      add\n      swap1\n      dup2\n      mstore\n      0x20\n      add\n      0x00\n      keccak256\n        /* \"TFGv3/Contracts/SCExchange.sol\":3791:3810  coins[coinAddr] = 1 */\n      dup2\n      swap1\n      sstore\n      pop\n        /* \"TFGv3/Contracts/SCExchange.sol\":3719:3817  function addCoin(address coinAddr) external  OnlyDeployer... */\n      pop\n      jump\t// out\n        /* \"TFGv3/Contracts/SCExchange.sol\":4407:4717  function deleteContract(address newAddr) external virtual override OnlyDeployer... */\n    tag_35:\n        /* \"TFGv3/Contracts/SCExchange.sol\":482:490  deployer */\n      immutable(\"0x5081277725af21b52adfcd8be9eaf5a350f1ec111a4413c31b8ff210fe7f74ef\")\n        /* \"TFGv3/Contracts/SCExchange.sol\":468:490  msg.sender == deployer */\n      0xffffffffffffffffffffffffffffffffffffffff\n      and\n        /* \"TFGv3/Contracts/SCExchange.sol\":468:478  msg.sender */\n      caller\n        /* \"TFGv3/Contracts/SCExchange.sol\":468:490  msg.sender == deployer */\n      0xffffffffffffffffffffffffffffffffffffffff\n      and\n      eq\n        /* \"TFGv3/Contracts/SCExchange.sol\":460:491  require(msg.sender == deployer) */\n      tag_108\n      jumpi\n      0x00\n      dup1\n      revert\n    tag_108:\n        /* \"TFGv3/Contracts/SCExchange.sol\":4501:4518  address proxyAddr */\n      0x00\n        /* \"TFGv3/Contracts/SCExchange.sol\":4521:4526  proxy */\n      dup1\n      0x00\n      swap1\n      sload\n      swap1\n      0x0100\n      exp\n      swap1\n      div\n      0xffffffffffffffffffffffffffffffffffffffff\n      and\n        /* \"TFGv3/Contracts/SCExchange.sol\":4501:4526  address proxyAddr = proxy */\n      swap1\n      pop\n        /* \"TFGv3/Contracts/SCExchange.sol\":4543:4552  proxyAddr */\n      dup1\n        /* \"TFGv3/Contracts/SCExchange.sol\":4536:4569  IProxy(proxyAddr).setExchangeAddr */\n      0xffffffffffffffffffffffffffffffffffffffff\n      and\n      0x8ae91695\n        /* \"TFGv3/Contracts/SCExchange.sol\":4570:4577  newAddr */\n      dup4\n        /* \"TFGv3/Contracts/SCExchange.sol\":4536:4578  IProxy(proxyAddr).setExchangeAddr(newAddr) */\n      mload(0x40)\n      dup3\n      0xffffffff\n      and\n      0xe0\n      shl\n      dup2\n      mstore\n      0x04\n      add\n      tag_110\n      swap2\n      swap1\n      tag_89\n      jump\t// in\n    tag_110:\n      0x00\n      mload(0x40)\n      dup1\n      dup4\n      sub\n      dup2\n      0x00\n      dup8\n      dup1\n      extcodesize\n      iszero\n      dup1\n      iszero\n      tag_111\n      jumpi\n      0x00\n      dup1\n      revert\n    tag_111:\n      pop\n      gas\n      call\n      iszero\n      dup1\n      iszero\n      tag_113\n      jumpi\n      returndatasize\n      0x00\n      dup1\n      returndatacopy\n      revert(0x00, returndatasize)\n    tag_113:\n      pop\n      pop\n      pop\n      pop\n        /* \"TFGv3/Contracts/SCExchange.sol\":4588:4595  newAddr */\n      dup2\n        /* \"TFGv3/Contracts/SCExchange.sol\":4588:4608  newAddr.delegatecall */\n      0xffffffffffffffffffffffffffffffffffffffff\n      and\n        /* \"TFGv3/Contracts/SCExchange.sol\":4658:4667  proxyAddr */\n      dup2\n        /* \"TFGv3/Contracts/SCExchange.sol\":4609:4668  abi.encodeWithSignature(\"initContract(address)\", proxyAddr) */\n      add(0x24, mload(0x40))\n      tag_114\n      swap2\n      swap1\n      tag_89\n      jump\t// in\n    tag_114:\n      mload(0x40)\n      0x20\n      dup2\n      dup4\n      sub\n      sub\n      dup2\n      mstore\n      swap1\n      0x40\n      mstore\n      and(not(0xffffffffffffffffffffffffffffffffffffffffffffffffffffffff), 0xcf9d4afa00000000000000000000000000000000000000000000000000000000)\n      0x20\n      dup3\n      add\n      dup1\n      mload\n      0xffffffffffffffffffffffffffffffffffffffffffffffffffffffff\n      dup4\n      dup2\n      dup4\n      and\n      or\n      dup4\n      mstore\n      pop\n      pop\n      pop\n      pop\n        /* \"TFGv3/Contracts/SCExchange.sol\":4588:4669  newAddr.delegatecall(abi.encodeWithSignature(\"initContract(address)\", proxyAddr)) */\n      mload(0x40)\n      tag_115\n      swap2\n      swap1\n      tag_116\n      jump\t// in\n    tag_115:\n      0x00\n      mload(0x40)\n      dup1\n      dup4\n      sub\n      dup2\n      dup6\n      gas\n      delegatecall\n      swap2\n      pop\n      pop\n      returndatasize\n      dup1\n      0x00\n      dup2\n      eq\n      tag_119\n      jumpi\n      mload(0x40)\n      swap2\n      pop\n      and(add(returndatasize, 0x3f), not(0x1f))\n      dup3\n      add\n      0x40\n      mstore\n      returndatasize\n      dup3\n      mstore\n      returndatasize\n      0x00\n      0x20\n      dup5\n      add\n      returndatacopy\n      jump(tag_118)\n    tag_119:\n      0x60\n      swap2\n      pop\n    tag_118:\n      pop\n      pop\n      pop\n        /* \"TFGv3/Contracts/SCExchange.sol\":4700:4708  deployer */\n      immutable(\"0x5081277725af21b52adfcd8be9eaf5a350f1ec111a4413c31b8ff210fe7f74ef\")\n        /* \"TFGv3/Contracts/SCExchange.sol\":4679:4710  selfdestruct(payable(deployer)) */\n      0xffffffffffffffffffffffffffffffffffffffff\n      and\n      selfdestruct\n        /* \"TFGv3/Contracts/SCExchange.sol\":1173:2095  function buyTokensOutput(address stableAddr, uint tokensOut) external virtual override Blacklisted Locked Coin(stableAddr)... */\n    tag_40:\n        /* \"TFGv3/Contracts/SCExchange.sol\":582:583  1 */\n      0x01\n        /* \"TFGv3/Contracts/SCExchange.sol\":557:566  blacklist */\n      0x02\n        /* \"TFGv3/Contracts/SCExchange.sol\":557:578  blacklist[msg.sender] */\n      0x00\n        /* \"TFGv3/Contracts/SCExchange.sol\":567:577  msg.sender */\n      caller\n        /* \"TFGv3/Contracts/SCExchange.sol\":557:578  blacklist[msg.sender] */\n      0xffffffffffffffffffffffffffffffffffffffff\n      and\n      0xffffffffffffffffffffffffffffffffffffffff\n      and\n      dup2\n      mstore\n      0x20\n      add\n      swap1\n      dup2\n      mstore\n      0x20\n      add\n      0x00\n      keccak256\n      sload\n        /* \"TFGv3/Contracts/SCExchange.sol\":557:583  blacklist[msg.sender] != 1 */\n      eq\n      iszero\n        /* \"TFGv3/Contracts/SCExchange.sol\":549:584  require(blacklist[msg.sender] != 1) */\n      tag_121\n      jumpi\n      0x00\n      dup1\n      revert\n    tag_121:\n        /* \"TFGv3/Contracts/SCExchange.sol\":754:755  0 */\n      0x00\n        /* \"TFGv3/Contracts/SCExchange.sol\":746:750  lock */\n      0x03\n      0x00\n      swap1\n      sload\n      swap1\n      0x0100\n      exp\n      swap1\n      div\n      0xff\n      and\n        /* \"TFGv3/Contracts/SCExchange.sol\":746:755  lock == 0 */\n      0xff\n      and\n      eq\n        /* \"TFGv3/Contracts/SCExchange.sol\":738:756  require(lock == 0) */\n      tag_123\n      jumpi\n      0x00\n      dup1\n      revert\n    tag_123:\n        /* \"TFGv3/Contracts/SCExchange.sol\":1284:1294  stableAddr */\n      dup2\n        /* \"TFGv3/Contracts/SCExchange.sol\":679:680  1 */\n      0x01\n        /* \"TFGv3/Contracts/SCExchange.sol\":658:663  coins */\n      dup1\n        /* \"TFGv3/Contracts/SCExchange.sol\":658:675  coins[stableAddr] */\n      0x00\n        /* \"TFGv3/Contracts/SCExchange.sol\":664:674  stableAddr */\n      dup4\n        /* \"TFGv3/Contracts/SCExchange.sol\":658:675  coins[stableAddr] */\n      0xffffffffffffffffffffffffffffffffffffffff\n      and\n      0xffffffffffffffffffffffffffffffffffffffff\n      and\n      dup2\n      mstore\n      0x20\n      add\n      swap1\n      dup2\n      mstore\n      0x20\n      add\n      0x00\n      keccak256\n      sload\n        /* \"TFGv3/Contracts/SCExchange.sol\":658:680  coins[stableAddr] == 1 */\n      eq\n        /* \"TFGv3/Contracts/SCExchange.sol\":650:681  require(coins[stableAddr] == 1) */\n      tag_125\n      jumpi\n      0x00\n      dup1\n      revert\n    tag_125:\n        /* \"TFGv3/Contracts/SCExchange.sol\":1310:1327  address proxyAddr */\n      0x00\n        /* \"TFGv3/Contracts/SCExchange.sol\":1330:1335  proxy */\n      dup1\n      0x00\n      swap1\n      sload\n      swap1\n      0x0100\n      exp\n      swap1\n      div\n      0xffffffffffffffffffffffffffffffffffffffff\n      and\n        /* \"TFGv3/Contracts/SCExchange.sol\":1310:1335  address proxyAddr = proxy */\n      swap1\n      pop\n        /* \"TFGv3/Contracts/SCExchange.sol\":1345:1364  address storageAddr */\n      0x00\n        /* \"TFGv3/Contracts/SCExchange.sol\":1374:1383  proxyAddr */\n      dup2\n        /* \"TFGv3/Contracts/SCExchange.sol\":1367:1400  IProxy(proxyAddr).storageContract */\n      0xffffffffffffffffffffffffffffffffffffffff\n      and\n      0x11ce0267\n        /* \"TFGv3/Contracts/SCExchange.sol\":1367:1402  IProxy(proxyAddr).storageContract() */\n      mload(0x40)\n      dup2\n      0xffffffff\n      and\n      0xe0\n      shl\n      dup2\n      mstore\n      0x04\n      add\n      0x20\n      mload(0x40)\n      dup1\n      dup4\n      sub\n      dup2\n      dup7\n      dup1\n      extcodesize\n      iszero\n      dup1\n      iszero\n      tag_127\n      jumpi\n      0x00\n      dup1\n      revert\n    tag_127:\n      pop\n      gas\n      staticcall\n      iszero\n      dup1\n      iszero\n      tag_129\n      jumpi\n      returndatasize\n      0x00\n      dup1\n      returndatacopy\n      revert(0x00, returndatasize)\n    tag_129:\n      pop\n      pop\n      pop\n      pop\n      mload(0x40)\n      returndatasize\n      not(0x1f)\n      0x1f\n      dup3\n      add\n      and\n      dup3\n      add\n      dup1\n      0x40\n      mstore\n      pop\n      dup2\n      add\n      swap1\n      tag_130\n      swap2\n      swap1\n      tag_131\n      jump\t// in\n    tag_130:\n        /* \"TFGv3/Contracts/SCExchange.sol\":1345:1402  address storageAddr = IProxy(proxyAddr).storageContract() */\n      swap1\n      pop\n        /* \"TFGv3/Contracts/SCExchange.sol\":1421:1434  uint NAVvalue */\n      0x00\n        /* \"TFGv3/Contracts/SCExchange.sol\":1448:1459  storageAddr */\n      dup2\n        /* \"TFGv3/Contracts/SCExchange.sol\":1437:1470  ISCStorage(storageAddr).updateNAV */\n      0xffffffffffffffffffffffffffffffffffffffff\n      and\n      0x0cb1982b\n        /* \"TFGv3/Contracts/SCExchange.sol\":1492:1501  proxyAddr */\n      dup5\n        /* \"TFGv3/Contracts/SCExchange.sol\":1485:1521  IProxy(proxyAddr).commissionContract */\n      0xffffffffffffffffffffffffffffffffffffffff\n      and\n      0xda8909e5\n        /* \"TFGv3/Contracts/SCExchange.sol\":1485:1523  IProxy(proxyAddr).commissionContract() */\n      mload(0x40)\n      dup2\n      0xffffffff\n      and\n      0xe0\n      shl\n      dup2\n      mstore\n      0x04\n      add\n      0x20\n      mload(0x40)\n      dup1\n      dup4\n      sub\n      dup2\n      dup7\n      dup1\n      extcodesize\n      iszero\n      dup1\n      iszero\n      tag_132\n      jumpi\n      0x00\n      dup1\n      revert\n    tag_132:\n      pop\n      gas\n      staticcall\n      iszero\n      dup1\n      iszero\n      tag_134\n      jumpi\n      returndatasize\n      0x00\n      dup1\n      returndatacopy\n      revert(0x00, returndatasize)\n    tag_134:\n      pop\n      pop\n      pop\n      pop\n      mload(0x40)\n      returndatasize\n      not(0x1f)\n      0x1f\n      dup3\n      add\n      and\n      dup3\n      add\n      dup1\n      0x40\n      mstore\n      pop\n      dup2\n      add\n      swap1\n      tag_135\n      swap2\n      swap1\n      tag_131\n      jump\t// in\n    tag_135:\n        /* \"TFGv3/Contracts/SCExchange.sol\":1471:1538  ISCCommission(IProxy(proxyAddr).commissionContract()).payComissions */\n      0xffffffffffffffffffffffffffffffffffffffff\n      and\n      0xbdedd45e\n        /* \"TFGv3/Contracts/SCExchange.sol\":1539:1540  0 */\n      0x00\n        /* \"TFGv3/Contracts/SCExchange.sol\":1471:1541  ISCCommission(IProxy(proxyAddr).commissionContract()).payComissions(0) */\n      mload(0x40)\n      dup3\n      0xffffffff\n      and\n      0xe0\n      shl\n      dup2\n      mstore\n      0x04\n      add\n      tag_136\n      swap2\n      swap1\n      tag_137\n      jump\t// in\n    tag_136:\n      0x20\n      mload(0x40)\n      dup1\n      dup4\n      sub\n      dup2\n      0x00\n      dup8\n      dup1\n      extcodesize\n      iszero\n      dup1\n      iszero\n      tag_138\n      jumpi\n      0x00\n      dup1\n      revert\n    tag_138:\n      pop\n      gas\n      call\n      iszero\n      dup1\n      iszero\n      tag_140\n      jumpi\n      returndatasize\n      0x00\n      dup1\n      returndatacopy\n      revert(0x00, returndatasize)\n    tag_140:\n      pop\n      pop\n      pop\n      pop\n      mload(0x40)\n      returndatasize\n      not(0x1f)\n      0x1f\n      dup3\n      add\n      and\n      dup3\n      add\n      dup1\n      0x40\n      mstore\n      pop\n      dup2\n      add\n      swap1\n      tag_141\n      swap2\n      swap1\n      tag_142\n      jump\t// in\n    tag_141:\n        /* \"TFGv3/Contracts/SCExchange.sol\":1437:1542  ISCStorage(storageAddr).updateNAV(ISCCommission(IProxy(proxyAddr).commissionContract()).payComissions(0)) */\n      mload(0x40)\n      dup3\n      0xffffffff\n      and\n      0xe0\n      shl\n      dup2\n      mstore\n      0x04\n      add\n      tag_143\n      swap2\n      swap1\n      tag_69\n      jump\t// in\n    tag_143:\n      0x20\n      mload(0x40)\n      dup1\n      dup4\n      sub\n      dup2\n      0x00\n      dup8\n      dup1\n      extcodesize\n      iszero\n      dup1\n      iszero\n      tag_144\n      jumpi\n      0x00\n      dup1\n      revert\n    tag_144:\n      pop\n      gas\n      call\n      iszero\n      dup1\n      iszero\n      tag_146\n      jumpi\n      returndatasize\n      0x00\n      dup1\n      returndatacopy\n      revert(0x00, returndatasize)\n    tag_146:\n      pop\n      pop\n      pop\n      pop\n      mload(0x40)\n      returndatasize\n      not(0x1f)\n      0x1f\n      dup3\n      add\n      and\n      dup3\n      add\n      dup1\n      0x40\n      mstore\n      pop\n      dup2\n      add\n      swap1\n      tag_147\n      swap2\n      swap1\n      tag_142\n      jump\t// in\n    tag_147:\n        /* \"TFGv3/Contracts/SCExchange.sol\":1421:1542  uint NAVvalue = ISCStorage(storageAddr).updateNAV(ISCCommission(IProxy(proxyAddr).commissionContract()).payComissions(0)) */\n      swap1\n      pop\n        /* \"TFGv3/Contracts/SCExchange.sol\":1572:1584  uint payment */\n      0x00\n        /* \"TFGv3/Contracts/SCExchange.sol\":1594:1612  uint tokenDecimals */\n      dup1\n        /* \"TFGv3/Contracts/SCExchange.sol\":1622:1632  stableAddr */\n      dup8\n        /* \"TFGv3/Contracts/SCExchange.sol\":1615:1642  IERC20(stableAddr).decimals */\n      0xffffffffffffffffffffffffffffffffffffffff\n      and\n      0x313ce567\n        /* \"TFGv3/Contracts/SCExchange.sol\":1615:1644  IERC20(stableAddr).decimals() */\n      mload(0x40)\n      dup2\n      0xffffffff\n      and\n      0xe0\n      shl\n      dup2\n      mstore\n      0x04\n      add\n      0x20\n      mload(0x40)\n      dup1\n      dup4\n      sub\n      dup2\n      dup7\n      dup1\n      extcodesize\n      iszero\n      dup1\n      iszero\n      tag_148\n      jumpi\n      0x00\n      dup1\n      revert\n    tag_148:\n      pop\n      gas\n      staticcall\n      iszero\n      dup1\n      iszero\n      tag_150\n      jumpi\n      returndatasize\n      0x00\n      dup1\n      returndatacopy\n      revert(0x00, returndatasize)\n    tag_150:\n      pop\n      pop\n      pop\n      pop\n      mload(0x40)\n      returndatasize\n      not(0x1f)\n      0x1f\n      dup3\n      add\n      and\n      dup3\n      add\n      dup1\n      0x40\n      mstore\n      pop\n      dup2\n      add\n      swap1\n      tag_151\n      swap2\n      swap1\n      tag_152\n      jump\t// in\n    tag_151:\n        /* \"TFGv3/Contracts/SCExchange.sol\":1594:1644  uint tokenDecimals = IERC20(stableAddr).decimals() */\n      0xff\n      and\n      swap1\n      pop\n        /* \"TFGv3/Contracts/SCExchange.sol\":1654:1670  uint tokenSupply */\n      0x00\n        /* \"TFGv3/Contracts/SCExchange.sol\":1680:1690  stableAddr */\n      dup9\n        /* \"TFGv3/Contracts/SCExchange.sol\":1673:1703  IERC20(stableAddr).totalSupply */\n      0xffffffffffffffffffffffffffffffffffffffff\n      and\n      0x18160ddd\n        /* \"TFGv3/Contracts/SCExchange.sol\":1673:1705  IERC20(stableAddr).totalSupply() */\n      mload(0x40)\n      dup2\n      0xffffffff\n      and\n      0xe0\n      shl\n      dup2\n      mstore\n      0x04\n      add\n      0x20\n      mload(0x40)\n      dup1\n      dup4\n      sub\n      dup2\n      dup7\n      dup1\n      extcodesize\n      iszero\n      dup1\n      iszero\n      tag_153\n      jumpi\n      0x00\n      dup1\n      revert\n    tag_153:\n      pop\n      gas\n      staticcall\n      iszero\n      dup1\n      iszero\n      tag_155\n      jumpi\n      returndatasize\n      0x00\n      dup1\n      returndatacopy\n      revert(0x00, returndatasize)\n    tag_155:\n      pop\n      pop\n      pop\n      pop\n      mload(0x40)\n      returndatasize\n      not(0x1f)\n      0x1f\n      dup3\n      add\n      and\n      dup3\n      add\n      dup1\n      0x40\n      mstore\n      pop\n      dup2\n      add\n      swap1\n      tag_156\n      swap2\n      swap1\n      tag_142\n      jump\t// in\n    tag_156:\n        /* \"TFGv3/Contracts/SCExchange.sol\":1654:1705  uint tokenSupply = IERC20(stableAddr).totalSupply() */\n      swap1\n      pop\n        /* \"TFGv3/Contracts/SCExchange.sol\":1740:1742  18 */\n      0x12\n        /* \"TFGv3/Contracts/SCExchange.sol\":1724:1737  tokenDecimals */\n      dup3\n        /* \"TFGv3/Contracts/SCExchange.sol\":1724:1742  tokenDecimals < 18 */\n      lt\n        /* \"TFGv3/Contracts/SCExchange.sol\":1721:1918  if(tokenDecimals < 18) //Decimales del NAV... */\n      iszero\n      tag_157\n      jumpi\n        /* \"TFGv3/Contracts/SCExchange.sol\":1839:1852  tokenDecimals */\n      dup2\n        /* \"TFGv3/Contracts/SCExchange.sol\":1834:1836  18 */\n      0x12\n        /* \"TFGv3/Contracts/SCExchange.sol\":1834:1852  18 - tokenDecimals */\n      tag_158\n      swap2\n      swap1\n      tag_159\n      jump\t// in\n    tag_158:\n        /* \"TFGv3/Contracts/SCExchange.sol\":1829:1831  10 */\n      0x0a\n        /* \"TFGv3/Contracts/SCExchange.sol\":1829:1853  10**(18 - tokenDecimals) */\n      tag_160\n      swap2\n      swap1\n      tag_161\n      jump\t// in\n    tag_160:\n        /* \"TFGv3/Contracts/SCExchange.sol\":1814:1825  tokenSupply */\n      dup2\n        /* \"TFGv3/Contracts/SCExchange.sol\":1803:1811  NAVvalue */\n      dup6\n        /* \"TFGv3/Contracts/SCExchange.sol\":1803:1825  NAVvalue / tokenSupply */\n      tag_162\n      swap2\n      swap1\n      tag_163\n      jump\t// in\n    tag_162:\n        /* \"TFGv3/Contracts/SCExchange.sol\":1790:1799  tokensOut */\n      dup10\n        /* \"TFGv3/Contracts/SCExchange.sol\":1790:1826  tokensOut * (NAVvalue / tokenSupply) */\n      tag_164\n      swap2\n      swap1\n      tag_165\n      jump\t// in\n    tag_164:\n        /* \"TFGv3/Contracts/SCExchange.sol\":1790:1853  tokensOut * (NAVvalue / tokenSupply) / 10**(18 - tokenDecimals) */\n      tag_166\n      swap2\n      swap1\n      tag_163\n      jump\t// in\n    tag_166:\n        /* \"TFGv3/Contracts/SCExchange.sol\":1780:1853  payment = tokensOut * (NAVvalue / tokenSupply) / 10**(18 - tokenDecimals) */\n      swap3\n      pop\n        /* \"TFGv3/Contracts/SCExchange.sol\":1721:1918  if(tokenDecimals < 18) //Decimales del NAV... */\n      jump(tag_167)\n    tag_157:\n        /* \"TFGv3/Contracts/SCExchange.sol\":1906:1917  tokenSupply */\n      dup1\n        /* \"TFGv3/Contracts/SCExchange.sol\":1895:1903  NAVvalue */\n      dup5\n        /* \"TFGv3/Contracts/SCExchange.sol\":1895:1917  NAVvalue / tokenSupply */\n      tag_168\n      swap2\n      swap1\n      tag_163\n      jump\t// in\n    tag_168:\n        /* \"TFGv3/Contracts/SCExchange.sol\":1882:1891  tokensOut */\n      dup9\n        /* \"TFGv3/Contracts/SCExchange.sol\":1882:1918  tokensOut * (NAVvalue / tokenSupply) */\n      tag_169\n      swap2\n      swap1\n      tag_165\n      jump\t// in\n    tag_169:\n        /* \"TFGv3/Contracts/SCExchange.sol\":1872:1918  payment = tokensOut * (NAVvalue / tokenSupply) */\n      swap3\n      pop\n        /* \"TFGv3/Contracts/SCExchange.sol\":1721:1918  if(tokenDecimals < 18) //Decimales del NAV... */\n    tag_167:\n        /* \"TFGv3/Contracts/SCExchange.sol\":1949:1959  stableAddr */\n      dup9\n        /* \"TFGv3/Contracts/SCExchange.sol\":1942:1973  IERC20(stableAddr).transferFrom */\n      0xffffffffffffffffffffffffffffffffffffffff\n      and\n      0x23b872dd\n        /* \"TFGv3/Contracts/SCExchange.sol\":1974:1984  msg.sender */\n      caller\n        /* \"TFGv3/Contracts/SCExchange.sol\":1986:1997  storageAddr */\n      dup8\n        /* \"TFGv3/Contracts/SCExchange.sol\":1999:2006  payment */\n      dup7\n        /* \"TFGv3/Contracts/SCExchange.sol\":1942:2007  IERC20(stableAddr).transferFrom(msg.sender, storageAddr, payment) */\n      mload(0x40)\n      dup5\n      0xffffffff\n      and\n      0xe0\n      shl\n      dup2\n      mstore\n      0x04\n      add\n      tag_170\n      swap4\n      swap3\n      swap2\n      swap1\n      tag_171\n      jump\t// in\n    tag_170:\n      0x20\n      mload(0x40)\n      dup1\n      dup4\n      sub\n      dup2\n      0x00\n      dup8\n      dup1\n      extcodesize\n      iszero\n      dup1\n      iszero\n      tag_172\n      jumpi\n      0x00\n      dup1\n      revert\n    tag_172:\n      pop\n      gas\n      call\n      iszero\n      dup1\n      iszero\n      tag_174\n      jumpi\n      returndatasize\n      0x00\n      dup1\n      returndatacopy\n      revert(0x00, returndatasize)\n    tag_174:\n      pop\n      pop\n      pop\n      pop\n      mload(0x40)\n      returndatasize\n      not(0x1f)\n      0x1f\n      dup3\n      add\n      and\n      dup3\n      add\n      dup1\n      0x40\n      mstore\n      pop\n      dup2\n      add\n      swap1\n      tag_175\n      swap2\n      swap1\n      tag_176\n      jump\t// in\n    tag_175:\n        /* \"TFGv3/Contracts/SCExchange.sol\":1934:2008  require(IERC20(stableAddr).transferFrom(msg.sender, storageAddr, payment)) */\n      tag_177\n      jumpi\n      0x00\n      dup1\n      revert\n    tag_177:\n        /* \"TFGv3/Contracts/SCExchange.sol\":2040:2049  proxyAddr */\n      dup6\n        /* \"TFGv3/Contracts/SCExchange.sol\":2033:2056  IProxy(proxyAddr).token */\n      0xffffffffffffffffffffffffffffffffffffffff\n      and\n      0xfc0c546a\n        /* \"TFGv3/Contracts/SCExchange.sol\":2033:2058  IProxy(proxyAddr).token() */\n      mload(0x40)\n      dup2\n      0xffffffff\n      and\n      0xe0\n      shl\n      dup2\n      mstore\n      0x04\n      add\n      0x20\n      mload(0x40)\n      dup1\n      dup4\n      sub\n      dup2\n      dup7\n      dup1\n      extcodesize\n      iszero\n      dup1\n      iszero\n      tag_178\n      jumpi\n      0x00\n      dup1\n      revert\n    tag_178:\n      pop\n      gas\n      staticcall\n      iszero\n      dup1\n      iszero\n      tag_180\n      jumpi\n      returndatasize\n      0x00\n      dup1\n      returndatacopy\n      revert(0x00, returndatasize)\n    tag_180:\n      pop\n      pop\n      pop\n      pop\n      mload(0x40)\n      returndatasize\n      not(0x1f)\n      0x1f\n      dup3\n      add\n      and\n      dup3\n      add\n      dup1\n      0x40\n      mstore\n      pop\n      dup2\n      add\n      swap1\n      tag_181\n      swap2\n      swap1\n      tag_131\n      jump\t// in\n    tag_181:\n        /* \"TFGv3/Contracts/SCExchange.sol\":2026:2064  IERC20(IProxy(proxyAddr).token()).mint */\n      0xffffffffffffffffffffffffffffffffffffffff\n      and\n      0x40c10f19\n        /* \"TFGv3/Contracts/SCExchange.sol\":2065:2075  msg.sender */\n      caller\n        /* \"TFGv3/Contracts/SCExchange.sol\":2077:2086  tokensOut */\n      dup11\n        /* \"TFGv3/Contracts/SCExchange.sol\":2026:2087  IERC20(IProxy(proxyAddr).token()).mint(msg.sender, tokensOut) */\n      mload(0x40)\n      dup4\n      0xffffffff\n      and\n      0xe0\n      shl\n      dup2\n      mstore\n      0x04\n      add\n      tag_182\n      swap3\n      swap2\n      swap1\n      tag_183\n      jump\t// in\n    tag_182:\n      0x20\n      mload(0x40)\n      dup1\n      dup4\n      sub\n      dup2\n      0x00\n      dup8\n      dup1\n      extcodesize\n      iszero\n      dup1\n      iszero\n      tag_184\n      jumpi\n      0x00\n      dup1\n      revert\n    tag_184:\n      pop\n      gas\n      call\n      iszero\n      dup1\n      iszero\n      tag_186\n      jumpi\n      returndatasize\n      0x00\n      dup1\n      returndatacopy\n      revert(0x00, returndatasize)\n    tag_186:\n      pop\n      pop\n      pop\n      pop\n      mload(0x40)\n      returndatasize\n      not(0x1f)\n      0x1f\n      dup3\n      add\n      and\n      dup3\n      add\n      dup1\n      0x40\n      mstore\n      pop\n      dup2\n      add\n      swap1\n      tag_187\n      swap2\n      swap1\n      tag_176\n      jump\t// in\n    tag_187:\n        /* \"TFGv3/Contracts/SCExchange.sol\":2018:2088  require(IERC20(IProxy(proxyAddr).token()).mint(msg.sender, tokensOut)) */\n      tag_188\n      jumpi\n      0x00\n      dup1\n      revert\n    tag_188:\n        /* \"TFGv3/Contracts/SCExchange.sol\":688:689  _ */\n      pop\n      pop\n      pop\n      pop\n      pop\n      pop\n        /* \"TFGv3/Contracts/SCExchange.sol\":766:767  _ */\n      pop\n        /* \"TFGv3/Contracts/SCExchange.sol\":1173:2095  function buyTokensOutput(address stableAddr, uint tokensOut) external virtual override Blacklisted Locked Coin(stableAddr)... */\n      pop\n      pop\n      jump\t// out\n        /* \"TFGv3/Contracts/SCExchange.sol\":3827:3924  function delCoin(address coinAddr) external OnlyDeployer... */\n    tag_44:\n        /* \"TFGv3/Contracts/SCExchange.sol\":482:490  deployer */\n      immutable(\"0x5081277725af21b52adfcd8be9eaf5a350f1ec111a4413c31b8ff210fe7f74ef\")\n        /* \"TFGv3/Contracts/SCExchange.sol\":468:490  msg.sender == deployer */\n      0xffffffffffffffffffffffffffffffffffffffff\n      and\n        /* \"TFGv3/Contracts/SCExchange.sol\":468:478  msg.sender */\n      caller\n        /* \"TFGv3/Contracts/SCExchange.sol\":468:490  msg.sender == deployer */\n      0xffffffffffffffffffffffffffffffffffffffff\n      and\n      eq\n        /* \"TFGv3/Contracts/SCExchange.sol\":460:491  require(msg.sender == deployer) */\n      tag_190\n      jumpi\n      0x00\n      dup1\n      revert\n    tag_190:\n        /* \"TFGv3/Contracts/SCExchange.sol\":3916:3917  0 */\n      0x00\n        /* \"TFGv3/Contracts/SCExchange.sol\":3898:3903  coins */\n      0x01\n        /* \"TFGv3/Contracts/SCExchange.sol\":3898:3913  coins[coinAddr] */\n      0x00\n        /* \"TFGv3/Contracts/SCExchange.sol\":3904:3912  coinAddr */\n      dup4\n        /* \"TFGv3/Contracts/SCExchange.sol\":3898:3913  coins[coinAddr] */\n      0xffffffffffffffffffffffffffffffffffffffff\n      and\n      0xffffffffffffffffffffffffffffffffffffffff\n      and\n      dup2\n      mstore\n      0x20\n      add\n      swap1\n      dup2\n      mstore\n      0x20\n      add\n      0x00\n      keccak256\n        /* \"TFGv3/Contracts/SCExchange.sol\":3898:3917  coins[coinAddr] = 0 */\n      dup2\n      swap1\n      sstore\n      pop\n        /* \"TFGv3/Contracts/SCExchange.sol\":3827:3924  function delCoin(address coinAddr) external OnlyDeployer... */\n      pop\n      jump\t// out\n        /* \"TFGv3/Contracts/SCExchange.sol\":3927:4076  function addToBlacklist(address to) external virtual override OnlyDeployer returns (bool)... */\n    tag_48:\n        /* \"TFGv3/Contracts/SCExchange.sol\":4011:4015  bool */\n      0x00\n        /* \"TFGv3/Contracts/SCExchange.sol\":482:490  deployer */\n      immutable(\"0x5081277725af21b52adfcd8be9eaf5a350f1ec111a4413c31b8ff210fe7f74ef\")\n        /* \"TFGv3/Contracts/SCExchange.sol\":468:490  msg.sender == deployer */\n      0xffffffffffffffffffffffffffffffffffffffff\n      and\n        /* \"TFGv3/Contracts/SCExchange.sol\":468:478  msg.sender */\n      caller\n        /* \"TFGv3/Contracts/SCExchange.sol\":468:490  msg.sender == deployer */\n      0xffffffffffffffffffffffffffffffffffffffff\n      and\n      eq\n        /* \"TFGv3/Contracts/SCExchange.sol\":460:491  require(msg.sender == deployer) */\n      tag_193\n      jumpi\n      0x00\n      dup1\n      revert\n    tag_193:\n        /* \"TFGv3/Contracts/SCExchange.sol\":4047:4048  1 */\n      0x01\n        /* \"TFGv3/Contracts/SCExchange.sol\":4031:4040  blacklist */\n      0x02\n        /* \"TFGv3/Contracts/SCExchange.sol\":4031:4044  blacklist[to] */\n      0x00\n        /* \"TFGv3/Contracts/SCExchange.sol\":4041:4043  to */\n      dup5\n        /* \"TFGv3/Contracts/SCExchange.sol\":4031:4044  blacklist[to] */\n      0xffffffffffffffffffffffffffffffffffffffff\n      and\n      0xffffffffffffffffffffffffffffffffffffffff\n      and\n      dup2\n      mstore\n      0x20\n      add\n      swap1\n      dup2\n      mstore\n      0x20\n      add\n      0x00\n      keccak256\n        /* \"TFGv3/Contracts/SCExchange.sol\":4031:4048  blacklist[to] = 1 */\n      dup2\n      swap1\n      sstore\n      pop\n        /* \"TFGv3/Contracts/SCExchange.sol\":4065:4069  true */\n      0x01\n        /* \"TFGv3/Contracts/SCExchange.sol\":4058:4069  return true */\n      swap1\n      pop\n        /* \"TFGv3/Contracts/SCExchange.sol\":3927:4076  function addToBlacklist(address to) external virtual override OnlyDeployer returns (bool)... */\n      swap2\n      swap1\n      pop\n      jump\t// out\n        /* \"TFGv3/Contracts/SCExchange.sol\":4082:4236  function removeFromBlacklist(address to) external virtual override OnlyDeployer returns (bool)... */\n    tag_54:\n        /* \"TFGv3/Contracts/SCExchange.sol\":4171:4175  bool */\n      0x00\n        /* \"TFGv3/Contracts/SCExchange.sol\":482:490  deployer */\n      immutable(\"0x5081277725af21b52adfcd8be9eaf5a350f1ec111a4413c31b8ff210fe7f74ef\")\n        /* \"TFGv3/Contracts/SCExchange.sol\":468:490  msg.sender == deployer */\n      0xffffffffffffffffffffffffffffffffffffffff\n      and\n        /* \"TFGv3/Contracts/SCExchange.sol\":468:478  msg.sender */\n      caller\n        /* \"TFGv3/Contracts/SCExchange.sol\":468:490  msg.sender == deployer */\n      0xffffffffffffffffffffffffffffffffffffffff\n      and\n      eq\n        /* \"TFGv3/Contracts/SCExchange.sol\":460:491  require(msg.sender == deployer) */\n      tag_196\n      jumpi\n      0x00\n      dup1\n      revert\n    tag_196:\n        /* \"TFGv3/Contracts/SCExchange.sol\":4207:4208  0 */\n      0x00\n        /* \"TFGv3/Contracts/SCExchange.sol\":4191:4200  blacklist */\n      0x02\n        /* \"TFGv3/Contracts/SCExchange.sol\":4191:4204  blacklist[to] */\n      0x00\n        /* \"TFGv3/Contracts/SCExchange.sol\":4201:4203  to */\n      dup5\n        /* \"TFGv3/Contracts/SCExchange.sol\":4191:4204  blacklist[to] */\n      0xffffffffffffffffffffffffffffffffffffffff\n      and\n      0xffffffffffffffffffffffffffffffffffffffff\n      and\n      dup2\n      mstore\n      0x20\n      add\n      swap1\n      dup2\n      mstore\n      0x20\n      add\n      0x00\n      keccak256\n        /* \"TFGv3/Contracts/SCExchange.sol\":4191:4208  blacklist[to] = 0 */\n      dup2\n      swap1\n      sstore\n      pop\n        /* \"TFGv3/Contracts/SCExchange.sol\":4225:4229  true */\n      0x01\n        /* \"TFGv3/Contracts/SCExchange.sol\":4218:4229  return true */\n      swap1\n      pop\n        /* \"TFGv3/Contracts/SCExchange.sol\":4082:4236  function removeFromBlacklist(address to) external virtual override OnlyDeployer returns (bool)... */\n      swap2\n      swap1\n      pop\n      jump\t// out\n        /* \"TFGv3/Contracts/SCExchange.sol\":1097:1167  function lockOff() external OnlyDeployer... */\n    tag_58:\n        /* \"TFGv3/Contracts/SCExchange.sol\":482:490  deployer */\n      immutable(\"0x5081277725af21b52adfcd8be9eaf5a350f1ec111a4413c31b8ff210fe7f74ef\")\n        /* \"TFGv3/Contracts/SCExchange.sol\":468:490  msg.sender == deployer */\n      0xffffffffffffffffffffffffffffffffffffffff\n      and\n        /* \"TFGv3/Contracts/SCExchange.sol\":468:478  msg.sender */\n      caller\n        /* \"TFGv3/Contracts/SCExchange.sol\":468:490  msg.sender == deployer */\n      0xffffffffffffffffffffffffffffffffffffffff\n      and\n      eq\n        /* \"TFGv3/Contracts/SCExchange.sol\":460:491  require(msg.sender == deployer) */\n      tag_199\n      jumpi\n      0x00\n      dup1\n      revert\n    tag_199:\n        /* \"TFGv3/Contracts/SCExchange.sol\":1159:1160  0 */\n      0x00\n        /* \"TFGv3/Contracts/SCExchange.sol\":1152:1156  lock */\n      0x03\n      0x00\n        /* \"TFGv3/Contracts/SCExchange.sol\":1152:1160  lock = 0 */\n      0x0100\n      exp\n      dup2\n      sload\n      dup2\n      0xff\n      mul\n      not\n      and\n      swap1\n      dup4\n      0xff\n      and\n      mul\n      or\n      swap1\n      sstore\n      pop\n        /* \"TFGv3/Contracts/SCExchange.sol\":1097:1167  function lockOff() external OnlyDeployer... */\n      jump\t// out\n        /* \"TFGv3/Contracts/SCExchange.sol\":3047:3713  function sellTokens(uint qty) external virtual override Blacklisted Locked... */\n    tag_63:\n        /* \"TFGv3/Contracts/SCExchange.sol\":582:583  1 */\n      0x01\n        /* \"TFGv3/Contracts/SCExchange.sol\":557:566  blacklist */\n      0x02\n        /* \"TFGv3/Contracts/SCExchange.sol\":557:578  blacklist[msg.sender] */\n      0x00\n        /* \"TFGv3/Contracts/SCExchange.sol\":567:577  msg.sender */\n      caller\n        /* \"TFGv3/Contracts/SCExchange.sol\":557:578  blacklist[msg.sender] */\n      0xffffffffffffffffffffffffffffffffffffffff\n      and\n      0xffffffffffffffffffffffffffffffffffffffff\n      and\n      dup2\n      mstore\n      0x20\n      add\n      swap1\n      dup2\n      mstore\n      0x20\n      add\n      0x00\n      keccak256\n      sload\n        /* \"TFGv3/Contracts/SCExchange.sol\":557:583  blacklist[msg.sender] != 1 */\n      eq\n      iszero\n        /* \"TFGv3/Contracts/SCExchange.sol\":549:584  require(blacklist[msg.sender] != 1) */\n      tag_202\n      jumpi\n      0x00\n      dup1\n      revert\n    tag_202:\n        /* \"TFGv3/Contracts/SCExchange.sol\":754:755  0 */\n      0x00\n        /* \"TFGv3/Contracts/SCExchange.sol\":746:750  lock */\n      0x03\n      0x00\n      swap1\n      sload\n      swap1\n      0x0100\n      exp\n      swap1\n      div\n      0xff\n      and\n        /* \"TFGv3/Contracts/SCExchange.sol\":746:755  lock == 0 */\n      0xff\n      and\n      eq\n        /* \"TFGv3/Contracts/SCExchange.sol\":738:756  require(lock == 0) */\n      tag_204\n      jumpi\n      0x00\n      dup1\n      revert\n    tag_204:\n        /* \"TFGv3/Contracts/SCExchange.sol\":3136:3153  address proxyAddr */\n      0x00\n        /* \"TFGv3/Contracts/SCExchange.sol\":3156:3161  proxy */\n      dup1\n      0x00\n      swap1\n      sload\n      swap1\n      0x0100\n      exp\n      swap1\n      div\n      0xffffffffffffffffffffffffffffffffffffffff\n      and\n        /* \"TFGv3/Contracts/SCExchange.sol\":3136:3161  address proxyAddr = proxy */\n      swap1\n      pop\n        /* \"TFGv3/Contracts/SCExchange.sol\":3171:3190  address storageAddr */\n      0x00\n        /* \"TFGv3/Contracts/SCExchange.sol\":3200:3209  proxyAddr */\n      dup2\n        /* \"TFGv3/Contracts/SCExchange.sol\":3193:3226  IProxy(proxyAddr).storageContract */\n      0xffffffffffffffffffffffffffffffffffffffff\n      and\n      0x11ce0267\n        /* \"TFGv3/Contracts/SCExchange.sol\":3193:3228  IProxy(proxyAddr).storageContract() */\n      mload(0x40)\n      dup2\n      0xffffffff\n      and\n      0xe0\n      shl\n      dup2\n      mstore\n      0x04\n      add\n      0x20\n      mload(0x40)\n      dup1\n      dup4\n      sub\n      dup2\n      dup7\n      dup1\n      extcodesize\n      iszero\n      dup1\n      iszero\n      tag_206\n      jumpi\n      0x00\n      dup1\n      revert\n    tag_206:\n      pop\n      gas\n      staticcall\n      iszero\n      dup1\n      iszero\n      tag_208\n      jumpi\n      returndatasize\n      0x00\n      dup1\n      returndatacopy\n      revert(0x00, returndatasize)\n    tag_208:\n      pop\n      pop\n      pop\n      pop\n      mload(0x40)\n      returndatasize\n      not(0x1f)\n      0x1f\n      dup3\n      add\n      and\n      dup3\n      add\n      dup1\n      0x40\n      mstore\n      pop\n      dup2\n      add\n      swap1\n      tag_209\n      swap2\n      swap1\n      tag_131\n      jump\t// in\n    tag_209:\n        /* \"TFGv3/Contracts/SCExchange.sol\":3171:3228  address storageAddr = IProxy(proxyAddr).storageContract() */\n      swap1\n      pop\n        /* \"TFGv3/Contracts/SCExchange.sol\":3238:3255  address tokenAddr */\n      0x00\n        /* \"TFGv3/Contracts/SCExchange.sol\":3265:3274  proxyAddr */\n      dup3\n        /* \"TFGv3/Contracts/SCExchange.sol\":3258:3281  IProxy(proxyAddr).token */\n      0xffffffffffffffffffffffffffffffffffffffff\n      and\n      0xfc0c546a\n        /* \"TFGv3/Contracts/SCExchange.sol\":3258:3283  IProxy(proxyAddr).token() */\n      mload(0x40)\n      dup2\n      0xffffffff\n      and\n      0xe0\n      shl\n      dup2\n      mstore\n      0x04\n      add\n      0x20\n      mload(0x40)\n      dup1\n      dup4\n      sub\n      dup2\n      dup7\n      dup1\n      extcodesize\n      iszero\n      dup1\n      iszero\n      tag_210\n      jumpi\n      0x00\n      dup1\n      revert\n    tag_210:\n      pop\n      gas\n      staticcall\n      iszero\n      dup1\n      iszero\n      tag_212\n      jumpi\n      returndatasize\n      0x00\n      dup1\n      returndatacopy\n      revert(0x00, returndatasize)\n    tag_212:\n      pop\n      pop\n      pop\n      pop\n      mload(0x40)\n      returndatasize\n      not(0x1f)\n      0x1f\n      dup3\n      add\n      and\n      dup3\n      add\n      dup1\n      0x40\n      mstore\n      pop\n      dup2\n      add\n      swap1\n      tag_213\n      swap2\n      swap1\n      tag_131\n      jump\t// in\n    tag_213:\n        /* \"TFGv3/Contracts/SCExchange.sol\":3238:3283  address tokenAddr = IProxy(proxyAddr).token() */\n      swap1\n      pop\n        /* \"TFGv3/Contracts/SCExchange.sol\":3317:3326  tokenAddr */\n      dup1\n        /* \"TFGv3/Contracts/SCExchange.sol\":3310:3336  IERC20(tokenAddr).burnFrom */\n      0xffffffffffffffffffffffffffffffffffffffff\n      and\n      0x79cc6790\n        /* \"TFGv3/Contracts/SCExchange.sol\":3337:3347  msg.sender */\n      caller\n        /* \"TFGv3/Contracts/SCExchange.sol\":3349:3352  qty */\n      dup7\n        /* \"TFGv3/Contracts/SCExchange.sol\":3310:3353  IERC20(tokenAddr).burnFrom(msg.sender, qty) */\n      mload(0x40)\n      dup4\n      0xffffffff\n      and\n      0xe0\n      shl\n      dup2\n      mstore\n      0x04\n      add\n      tag_214\n      swap3\n      swap2\n      swap1\n      tag_183\n      jump\t// in\n    tag_214:\n      0x20\n      mload(0x40)\n      dup1\n      dup4\n      sub\n      dup2\n      0x00\n      dup8\n      dup1\n      extcodesize\n      iszero\n      dup1\n      iszero\n      tag_215\n      jumpi\n      0x00\n      dup1\n      revert\n    tag_215:\n      pop\n      gas\n      call\n      iszero\n      dup1\n      iszero\n      tag_217\n      jumpi\n      returndatasize\n      0x00\n      dup1\n      returndatacopy\n      revert(0x00, returndatasize)\n    tag_217:\n      pop\n      pop\n      pop\n      pop\n      mload(0x40)\n      returndatasize\n      not(0x1f)\n      0x1f\n      dup3\n      add\n      and\n      dup3\n      add\n      dup1\n      0x40\n      mstore\n      pop\n      dup2\n      add\n      swap1\n      tag_218\n      swap2\n      swap1\n      tag_176\n      jump\t// in\n    tag_218:\n        /* \"TFGv3/Contracts/SCExchange.sol\":3302:3354  require(IERC20(tokenAddr).burnFrom(msg.sender, qty)) */\n      tag_219\n      jumpi\n      0x00\n      dup1\n      revert\n    tag_219:\n        /* \"TFGv3/Contracts/SCExchange.sol\":3370:3383  uint NAVvalue */\n      0x00\n        /* \"TFGv3/Contracts/SCExchange.sol\":3397:3408  storageAddr */\n      dup3\n        /* \"TFGv3/Contracts/SCExchange.sol\":3386:3419  ISCStorage(storageAddr).updateNAV */\n      0xffffffffffffffffffffffffffffffffffffffff\n      and\n      0x0cb1982b\n        /* \"TFGv3/Contracts/SCExchange.sol\":3441:3450  proxyAddr */\n      dup6\n        /* \"TFGv3/Contracts/SCExchange.sol\":3434:3470  IProxy(proxyAddr).commissionContract */\n      0xffffffffffffffffffffffffffffffffffffffff\n      and\n      0xda8909e5\n        /* \"TFGv3/Contracts/SCExchange.sol\":3434:3472  IProxy(proxyAddr).commissionContract() */\n      mload(0x40)\n      dup2\n      0xffffffff\n      and\n      0xe0\n      shl\n      dup2\n      mstore\n      0x04\n      add\n      0x20\n      mload(0x40)\n      dup1\n      dup4\n      sub\n      dup2\n      dup7\n      dup1\n      extcodesize\n      iszero\n      dup1\n      iszero\n      tag_220\n      jumpi\n      0x00\n      dup1\n      revert\n    tag_220:\n      pop\n      gas\n      staticcall\n      iszero\n      dup1\n      iszero\n      tag_222\n      jumpi\n      returndatasize\n      0x00\n      dup1\n      returndatacopy\n      revert(0x00, returndatasize)\n    tag_222:\n      pop\n      pop\n      pop\n      pop\n      mload(0x40)\n      returndatasize\n      not(0x1f)\n      0x1f\n      dup3\n      add\n      and\n      dup3\n      add\n      dup1\n      0x40\n      mstore\n      pop\n      dup2\n      add\n      swap1\n      tag_223\n      swap2\n      swap1\n      tag_131\n      jump\t// in\n    tag_223:\n        /* \"TFGv3/Contracts/SCExchange.sol\":3420:3487  ISCCommission(IProxy(proxyAddr).commissionContract()).payComissions */\n      0xffffffffffffffffffffffffffffffffffffffff\n      and\n      0xbdedd45e\n        /* \"TFGv3/Contracts/SCExchange.sol\":3488:3489  1 */\n      0x01\n        /* \"TFGv3/Contracts/SCExchange.sol\":3420:3490  ISCCommission(IProxy(proxyAddr).commissionContract()).payComissions(1) */\n      mload(0x40)\n      dup3\n      0xffffffff\n      and\n      0xe0\n      shl\n      dup2\n      mstore\n      0x04\n      add\n      tag_224\n      swap2\n      swap1\n      tag_225\n      jump\t// in\n    tag_224:\n      0x20\n      mload(0x40)\n      dup1\n      dup4\n      sub\n      dup2\n      0x00\n      dup8\n      dup1\n      extcodesize\n      iszero\n      dup1\n      iszero\n      tag_226\n      jumpi\n      0x00\n      dup1\n      revert\n    tag_226:\n      pop\n      gas\n      call\n      iszero\n      dup1\n      iszero\n      tag_228\n      jumpi\n      returndatasize\n      0x00\n      dup1\n      returndatacopy\n      revert(0x00, returndatasize)\n    tag_228:\n      pop\n      pop\n      pop\n      pop\n      mload(0x40)\n      returndatasize\n      not(0x1f)\n      0x1f\n      dup3\n      add\n      and\n      dup3\n      add\n      dup1\n      0x40\n      mstore\n      pop\n      dup2\n      add\n      swap1\n      tag_229\n      swap2\n      swap1\n      tag_142\n      jump\t// in\n    tag_229:\n        /* \"TFGv3/Contracts/SCExchange.sol\":3386:3491  ISCStorage(storageAddr).updateNAV(ISCCommission(IProxy(proxyAddr).commissionContract()).payComissions(1)) */\n      mload(0x40)\n      dup3\n      0xffffffff\n      and\n      0xe0\n      shl\n      dup2\n      mstore\n      0x04\n      add\n      tag_230\n      swap2\n      swap1\n      tag_69\n      jump\t// in\n    tag_230:\n      0x20\n      mload(0x40)\n      dup1\n      dup4\n      sub\n      dup2\n      0x00\n      dup8\n      dup1\n      extcodesize\n      iszero\n      dup1\n      iszero\n      tag_231\n      jumpi\n      0x00\n      dup1\n      revert\n    tag_231:\n      pop\n      gas\n      call\n      iszero\n      dup1\n      iszero\n      tag_233\n      jumpi\n      returndatasize\n      0x00\n      dup1\n      returndatacopy\n      revert(0x00, returndatasize)\n    tag_233:\n      pop\n      pop\n      pop\n      pop\n      mload(0x40)\n      returndatasize\n      not(0x1f)\n      0x1f\n      dup3\n      add\n      and\n      dup3\n      add\n      dup1\n      0x40\n      mstore\n      pop\n      dup2\n      add\n      swap1\n      tag_234\n      swap2\n      swap1\n      tag_142\n      jump\t// in\n    tag_234:\n        /* \"TFGv3/Contracts/SCExchange.sol\":3370:3491  uint NAVvalue = ISCStorage(storageAddr).updateNAV(ISCCommission(IProxy(proxyAddr).commissionContract()).payComissions(1)) */\n      swap1\n      pop\n        /* \"TFGv3/Contracts/SCExchange.sol\":3517:3528  uint supply */\n      0x00\n        /* \"TFGv3/Contracts/SCExchange.sol\":3538:3547  tokenAddr */\n      dup3\n        /* \"TFGv3/Contracts/SCExchange.sol\":3531:3560  IERC20(tokenAddr).totalSupply */\n      0xffffffffffffffffffffffffffffffffffffffff\n      and\n      0x18160ddd\n        /* \"TFGv3/Contracts/SCExchange.sol\":3531:3562  IERC20(tokenAddr).totalSupply() */\n      mload(0x40)\n      dup2\n      0xffffffff\n      and\n      0xe0\n      shl\n      dup2\n      mstore\n      0x04\n      add\n      0x20\n      mload(0x40)\n      dup1\n      dup4\n      sub\n      dup2\n      dup7\n      dup1\n      extcodesize\n      iszero\n      dup1\n      iszero\n      tag_235\n      jumpi\n      0x00\n      dup1\n      revert\n    tag_235:\n      pop\n      gas\n      staticcall\n      iszero\n      dup1\n      iszero\n      tag_237\n      jumpi\n      returndatasize\n      0x00\n      dup1\n      returndatacopy\n      revert(0x00, returndatasize)\n    tag_237:\n      pop\n      pop\n      pop\n      pop\n      mload(0x40)\n      returndatasize\n      not(0x1f)\n      0x1f\n      dup3\n      add\n      and\n      dup3\n      add\n      dup1\n      0x40\n      mstore\n      pop\n      dup2\n      add\n      swap1\n      tag_238\n      swap2\n      swap1\n      tag_142\n      jump\t// in\n    tag_238:\n        /* \"TFGv3/Contracts/SCExchange.sol\":3517:3562  uint supply = IERC20(tokenAddr).totalSupply() */\n      swap1\n      pop\n        /* \"TFGv3/Contracts/SCExchange.sol\":3572:3592  uint totalToTransfer */\n      0x00\n        /* \"TFGv3/Contracts/SCExchange.sol\":3613:3619  supply */\n      dup2\n        /* \"TFGv3/Contracts/SCExchange.sol\":3602:3610  NAVvalue */\n      dup4\n        /* \"TFGv3/Contracts/SCExchange.sol\":3602:3619  NAVvalue / supply */\n      tag_239\n      swap2\n      swap1\n      tag_163\n      jump\t// in\n    tag_239:\n        /* \"TFGv3/Contracts/SCExchange.sol\":3595:3598  qty */\n      dup8\n        /* \"TFGv3/Contracts/SCExchange.sol\":3595:3620  qty * (NAVvalue / supply) */\n      tag_240\n      swap2\n      swap1\n      tag_165\n      jump\t// in\n    tag_240:\n        /* \"TFGv3/Contracts/SCExchange.sol\":3572:3620  uint totalToTransfer = qty * (NAVvalue / supply) */\n      swap1\n      pop\n        /* \"TFGv3/Contracts/SCExchange.sol\":3650:3661  storageAddr */\n      dup5\n        /* \"TFGv3/Contracts/SCExchange.sol\":3639:3676  ISCStorage(storageAddr).transferFunds */\n      0xffffffffffffffffffffffffffffffffffffffff\n      and\n      0x990dc9db\n        /* \"TFGv3/Contracts/SCExchange.sol\":3677:3687  msg.sender */\n      caller\n        /* \"TFGv3/Contracts/SCExchange.sol\":3689:3704  totalToTransfer */\n      dup4\n        /* \"TFGv3/Contracts/SCExchange.sol\":3639:3705  ISCStorage(storageAddr).transferFunds(msg.sender, totalToTransfer) */\n      mload(0x40)\n      dup4\n      0xffffffff\n      and\n      0xe0\n      shl\n      dup2\n      mstore\n      0x04\n      add\n      tag_241\n      swap3\n      swap2\n      swap1\n      tag_183\n      jump\t// in\n    tag_241:\n      0x20\n      mload(0x40)\n      dup1\n      dup4\n      sub\n      dup2\n      0x00\n      dup8\n      dup1\n      extcodesize\n      iszero\n      dup1\n      iszero\n      tag_242\n      jumpi\n      0x00\n      dup1\n      revert\n    tag_242:\n      pop\n      gas\n      call\n      iszero\n      dup1\n      iszero\n      tag_244\n      jumpi\n      returndatasize\n      0x00\n      dup1\n      returndatacopy\n      revert(0x00, returndatasize)\n    tag_244:\n      pop\n      pop\n      pop\n      pop\n      mload(0x40)\n      returndatasize\n      not(0x1f)\n      0x1f\n      dup3\n      add\n      and\n      dup3\n      add\n      dup1\n      0x40\n      mstore\n      pop\n      dup2\n      add\n      swap1\n      tag_245\n      swap2\n      swap1\n      tag_176\n      jump\t// in\n    tag_245:\n        /* \"TFGv3/Contracts/SCExchange.sol\":3631:3706  require(ISCStorage(storageAddr).transferFunds(msg.sender, totalToTransfer)) */\n      tag_246\n      jumpi\n      0x00\n      dup1\n      revert\n    tag_246:\n        /* \"TFGv3/Contracts/SCExchange.sol\":766:767  _ */\n      pop\n      pop\n      pop\n      pop\n      pop\n      pop\n        /* \"TFGv3/Contracts/SCExchange.sol\":3047:3713  function sellTokens(uint qty) external virtual override Blacklisted Locked... */\n      pop\n      jump\t// out\n        /* \"TFGv3/Contracts/SCExchange.sol\":202:239  mapping(address => uint) public coins */\n    tag_67:\n      mstore(0x20, 0x01)\n      dup1\n      0x00\n      mstore\n      keccak256(0x00, 0x40)\n      0x00\n      swap2\n      pop\n      swap1\n      pop\n      sload\n      dup2\n      jump\t// out\n        /* \"TFGv3/Contracts/SCExchange.sol\":2105:3044  function buyTokensInput(address stableAddr, uint qtyIn) external virtual override Blacklisted Locked Coin(stableAddr)... */\n    tag_73:\n        /* \"TFGv3/Contracts/SCExchange.sol\":582:583  1 */\n      0x01\n        /* \"TFGv3/Contracts/SCExchange.sol\":557:566  blacklist */\n      0x02\n        /* \"TFGv3/Contracts/SCExchange.sol\":557:578  blacklist[msg.sender] */\n      0x00\n        /* \"TFGv3/Contracts/SCExchange.sol\":567:577  msg.sender */\n      caller\n        /* \"TFGv3/Contracts/SCExchange.sol\":557:578  blacklist[msg.sender] */\n      0xffffffffffffffffffffffffffffffffffffffff\n      and\n      0xffffffffffffffffffffffffffffffffffffffff\n      and\n      dup2\n      mstore\n      0x20\n      add\n      swap1\n      dup2\n      mstore\n      0x20\n      add\n      0x00\n      keccak256\n      sload\n        /* \"TFGv3/Contracts/SCExchange.sol\":557:583  blacklist[msg.sender] != 1 */\n      eq\n      iszero\n        /* \"TFGv3/Contracts/SCExchange.sol\":549:584  require(blacklist[msg.sender] != 1) */\n      tag_248\n      jumpi\n      0x00\n      dup1\n      revert\n    tag_248:\n        /* \"TFGv3/Contracts/SCExchange.sol\":754:755  0 */\n      0x00\n        /* \"TFGv3/Contracts/SCExchange.sol\":746:750  lock */\n      0x03\n      0x00\n      swap1\n      sload\n      swap1\n      0x0100\n      exp\n      swap1\n      div\n      0xff\n      and\n        /* \"TFGv3/Contracts/SCExchange.sol\":746:755  lock == 0 */\n      0xff\n      and\n      eq\n        /* \"TFGv3/Contracts/SCExchange.sol\":738:756  require(lock == 0) */\n      tag_250\n      jumpi\n      0x00\n      dup1\n      revert\n    tag_250:\n        /* \"TFGv3/Contracts/SCExchange.sol\":2211:2221  stableAddr */\n      dup2\n        /* \"TFGv3/Contracts/SCExchange.sol\":679:680  1 */\n      0x01\n        /* \"TFGv3/Contracts/SCExchange.sol\":658:663  coins */\n      dup1\n        /* \"TFGv3/Contracts/SCExchange.sol\":658:675  coins[stableAddr] */\n      0x00\n        /* \"TFGv3/Contracts/SCExchange.sol\":664:674  stableAddr */\n      dup4\n        /* \"TFGv3/Contracts/SCExchange.sol\":658:675  coins[stableAddr] */\n      0xffffffffffffffffffffffffffffffffffffffff\n      and\n      0xffffffffffffffffffffffffffffffffffffffff\n      and\n      dup2\n      mstore\n      0x20\n      add\n      swap1\n      dup2\n      mstore\n      0x20\n      add\n      0x00\n      keccak256\n      sload\n        /* \"TFGv3/Contracts/SCExchange.sol\":658:680  coins[stableAddr] == 1 */\n      eq\n        /* \"TFGv3/Contracts/SCExchange.sol\":650:681  require(coins[stableAddr] == 1) */\n      tag_252\n      jumpi\n      0x00\n      dup1\n      revert\n    tag_252:\n        /* \"TFGv3/Contracts/SCExchange.sol\":2237:2254  address proxyAddr */\n      0x00\n        /* \"TFGv3/Contracts/SCExchange.sol\":2257:2262  proxy */\n      dup1\n      0x00\n      swap1\n      sload\n      swap1\n      0x0100\n      exp\n      swap1\n      div\n      0xffffffffffffffffffffffffffffffffffffffff\n      and\n        /* \"TFGv3/Contracts/SCExchange.sol\":2237:2262  address proxyAddr = proxy */\n      swap1\n      pop\n        /* \"TFGv3/Contracts/SCExchange.sol\":2272:2291  address storageAddr */\n      0x00\n        /* \"TFGv3/Contracts/SCExchange.sol\":2301:2310  proxyAddr */\n      dup2\n        /* \"TFGv3/Contracts/SCExchange.sol\":2294:2327  IProxy(proxyAddr).storageContract */\n      0xffffffffffffffffffffffffffffffffffffffff\n      and\n      0x11ce0267\n        /* \"TFGv3/Contracts/SCExchange.sol\":2294:2329  IProxy(proxyAddr).storageContract() */\n      mload(0x40)\n      dup2\n      0xffffffff\n      and\n      0xe0\n      shl\n      dup2\n      mstore\n      0x04\n      add\n      0x20\n      mload(0x40)\n      dup1\n      dup4\n      sub\n      dup2\n      dup7\n      dup1\n      extcodesize\n      iszero\n      dup1\n      iszero\n      tag_254\n      jumpi\n      0x00\n      dup1\n      revert\n    tag_254:\n      pop\n      gas\n      staticcall\n      iszero\n      dup1\n      iszero\n      tag_256\n      jumpi\n      returndatasize\n      0x00\n      dup1\n      returndatacopy\n      revert(0x00, returndatasize)\n    tag_256:\n      pop\n      pop\n      pop\n      pop\n      mload(0x40)\n      returndatasize\n      not(0x1f)\n      0x1f\n      dup3\n      add\n      and\n      dup3\n      add\n      dup1\n      0x40\n      mstore\n      pop\n      dup2\n      add\n      swap1\n      tag_257\n      swap2\n      swap1\n      tag_131\n      jump\t// in\n    tag_257:\n        /* \"TFGv3/Contracts/SCExchange.sol\":2272:2329  address storageAddr = IProxy(proxyAddr).storageContract() */\n      swap1\n      pop\n        /* \"TFGv3/Contracts/SCExchange.sol\":2340:2353  uint NAVvalue */\n      0x00\n        /* \"TFGv3/Contracts/SCExchange.sol\":2367:2378  storageAddr */\n      dup2\n        /* \"TFGv3/Contracts/SCExchange.sol\":2356:2389  ISCStorage(storageAddr).updateNAV */\n      0xffffffffffffffffffffffffffffffffffffffff\n      and\n      0x0cb1982b\n        /* \"TFGv3/Contracts/SCExchange.sol\":2411:2420  proxyAddr */\n      dup5\n        /* \"TFGv3/Contracts/SCExchange.sol\":2404:2440  IProxy(proxyAddr).commissionContract */\n      0xffffffffffffffffffffffffffffffffffffffff\n      and\n      0xda8909e5\n        /* \"TFGv3/Contracts/SCExchange.sol\":2404:2442  IProxy(proxyAddr).commissionContract() */\n      mload(0x40)\n      dup2\n      0xffffffff\n      and\n      0xe0\n      shl\n      dup2\n      mstore\n      0x04\n      add\n      0x20\n      mload(0x40)\n      dup1\n      dup4\n      sub\n      dup2\n      dup7\n      dup1\n      extcodesize\n      iszero\n      dup1\n      iszero\n      tag_258\n      jumpi\n      0x00\n      dup1\n      revert\n    tag_258:\n      pop\n      gas\n      staticcall\n      iszero\n      dup1\n      iszero\n      tag_260\n      jumpi\n      returndatasize\n      0x00\n      dup1\n      returndatacopy\n      revert(0x00, returndatasize)\n    tag_260:\n      pop\n      pop\n      pop\n      pop\n      mload(0x40)\n      returndatasize\n      not(0x1f)\n      0x1f\n      dup3\n      add\n      and\n      dup3\n      add\n      dup1\n      0x40\n      mstore\n      pop\n      dup2\n      add\n      swap1\n      tag_261\n      swap2\n      swap1\n      tag_131\n      jump\t// in\n    tag_261:\n        /* \"TFGv3/Contracts/SCExchange.sol\":2390:2457  ISCCommission(IProxy(proxyAddr).commissionContract()).payComissions */\n      0xffffffffffffffffffffffffffffffffffffffff\n      and\n      0xbdedd45e\n        /* \"TFGv3/Contracts/SCExchange.sol\":2458:2459  0 */\n      0x00\n        /* \"TFGv3/Contracts/SCExchange.sol\":2390:2460  ISCCommission(IProxy(proxyAddr).commissionContract()).payComissions(0) */\n      mload(0x40)\n      dup3\n      0xffffffff\n      and\n      0xe0\n      shl\n      dup2\n      mstore\n      0x04\n      add\n      tag_262\n      swap2\n      swap1\n      tag_137\n      jump\t// in\n    tag_262:\n      0x20\n      mload(0x40)\n      dup1\n      dup4\n      sub\n      dup2\n      0x00\n      dup8\n      dup1\n      extcodesize\n      iszero\n      dup1\n      iszero\n      tag_263\n      jumpi\n      0x00\n      dup1\n      revert\n    tag_263:\n      pop\n      gas\n      call\n      iszero\n      dup1\n      iszero\n      tag_265\n      jumpi\n      returndatasize\n      0x00\n      dup1\n      returndatacopy\n      revert(0x00, returndatasize)\n    tag_265:\n      pop\n      pop\n      pop\n      pop\n      mload(0x40)\n      returndatasize\n      not(0x1f)\n      0x1f\n      dup3\n      add\n      and\n      dup3\n      add\n      dup1\n      0x40\n      mstore\n      pop\n      dup2\n      add\n      swap1\n      tag_266\n      swap2\n      swap1\n      tag_142\n      jump\t// in\n    tag_266:\n        /* \"TFGv3/Contracts/SCExchange.sol\":2356:2461  ISCStorage(storageAddr).updateNAV(ISCCommission(IProxy(proxyAddr).commissionContract()).payComissions(0)) */\n      mload(0x40)\n      dup3\n      0xffffffff\n      and\n      0xe0\n      shl\n      dup2\n      mstore\n      0x04\n      add\n      tag_267\n      swap2\n      swap1\n      tag_69\n      jump\t// in\n    tag_267:\n      0x20\n      mload(0x40)\n      dup1\n      dup4\n      sub\n      dup2\n      0x00\n      dup8\n      dup1\n      extcodesize\n      iszero\n      dup1\n      iszero\n      tag_268\n      jumpi\n      0x00\n      dup1\n      revert\n    tag_268:\n      pop\n      gas\n      call\n      iszero\n      dup1\n      iszero\n      tag_270\n      jumpi\n      returndatasize\n      0x00\n      dup1\n      returndatacopy\n      revert(0x00, returndatasize)\n    tag_270:\n      pop\n      pop\n      pop\n      pop\n      mload(0x40)\n      returndatasize\n      not(0x1f)\n      0x1f\n      dup3\n      add\n      and\n      dup3\n      add\n      dup1\n      0x40\n      mstore\n      pop\n      dup2\n      add\n      swap1\n      tag_271\n      swap2\n      swap1\n      tag_142\n      jump\t// in\n    tag_271:\n        /* \"TFGv3/Contracts/SCExchange.sol\":2340:2461  uint NAVvalue = ISCStorage(storageAddr).updateNAV(ISCCommission(IProxy(proxyAddr).commissionContract()).payComissions(0)) */\n      swap1\n      pop\n        /* \"TFGv3/Contracts/SCExchange.sol\":2494:2506  uint payment */\n      0x00\n        /* \"TFGv3/Contracts/SCExchange.sol\":2516:2534  uint tokenDecimals */\n      dup1\n        /* \"TFGv3/Contracts/SCExchange.sol\":2544:2554  stableAddr */\n      dup8\n        /* \"TFGv3/Contracts/SCExchange.sol\":2537:2564  IERC20(stableAddr).decimals */\n      0xffffffffffffffffffffffffffffffffffffffff\n      and\n      0x313ce567\n        /* \"TFGv3/Contracts/SCExchange.sol\":2537:2566  IERC20(stableAddr).decimals() */\n      mload(0x40)\n      dup2\n      0xffffffff\n      and\n      0xe0\n      shl\n      dup2\n      mstore\n      0x04\n      add\n      0x20\n      mload(0x40)\n      dup1\n      dup4\n      sub\n      dup2\n      dup7\n      dup1\n      extcodesize\n      iszero\n      dup1\n      iszero\n      tag_272\n      jumpi\n      0x00\n      dup1\n      revert\n    tag_272:\n      pop\n      gas\n      staticcall\n      iszero\n      dup1\n      iszero\n      tag_274\n      jumpi\n      returndatasize\n      0x00\n      dup1\n      returndatacopy\n      revert(0x00, returndatasize)\n    tag_274:\n      pop\n      pop\n      pop\n      pop\n      mload(0x40)\n      returndatasize\n      not(0x1f)\n      0x1f\n      dup3\n      add\n      and\n      dup3\n      add\n      dup1\n      0x40\n      mstore\n      pop\n      dup2\n      add\n      swap1\n      tag_275\n      swap2\n      swap1\n      tag_152\n      jump\t// in\n    tag_275:\n        /* \"TFGv3/Contracts/SCExchange.sol\":2516:2566  uint tokenDecimals = IERC20(stableAddr).decimals() */\n      0xff\n      and\n      swap1\n      pop\n        /* \"TFGv3/Contracts/SCExchange.sol\":2576:2592  uint tokenSupply */\n      0x00\n        /* \"TFGv3/Contracts/SCExchange.sol\":2602:2612  stableAddr */\n      dup9\n        /* \"TFGv3/Contracts/SCExchange.sol\":2595:2625  IERC20(stableAddr).totalSupply */\n      0xffffffffffffffffffffffffffffffffffffffff\n      and\n      0x18160ddd\n        /* \"TFGv3/Contracts/SCExchange.sol\":2595:2627  IERC20(stableAddr).totalSupply() */\n      mload(0x40)\n      dup2\n      0xffffffff\n      and\n      0xe0\n      shl\n      dup2\n      mstore\n      0x04\n      add\n      0x20\n      mload(0x40)\n      dup1\n      dup4\n      sub\n      dup2\n      dup7\n      dup1\n      extcodesize\n      iszero\n      dup1\n      iszero\n      tag_276\n      jumpi\n      0x00\n      dup1\n      revert\n    tag_276:\n      pop\n      gas\n      staticcall\n      iszero\n      dup1\n      iszero\n      tag_278\n      jumpi\n      returndatasize\n      0x00\n      dup1\n      returndatacopy\n      revert(0x00, returndatasize)\n    tag_278:\n      pop\n      pop\n      pop\n      pop\n      mload(0x40)\n      returndatasize\n      not(0x1f)\n      0x1f\n      dup3\n      add\n      and\n      dup3\n      add\n      dup1\n      0x40\n      mstore\n      pop\n      dup2\n      add\n      swap1\n      tag_279\n      swap2\n      swap1\n      tag_142\n      jump\t// in\n    tag_279:\n        /* \"TFGv3/Contracts/SCExchange.sol\":2576:2627  uint tokenSupply = IERC20(stableAddr).totalSupply() */\n      swap1\n      pop\n        /* \"TFGv3/Contracts/SCExchange.sol\":2637:2651  uint tokensOut */\n      0x00\n        /* \"TFGv3/Contracts/SCExchange.sol\":2678:2680  18 */\n      0x12\n        /* \"TFGv3/Contracts/SCExchange.sol\":2662:2675  tokenDecimals */\n      dup4\n        /* \"TFGv3/Contracts/SCExchange.sol\":2662:2680  tokenDecimals < 18 */\n      lt\n        /* \"TFGv3/Contracts/SCExchange.sol\":2659:2882  if(tokenDecimals < 18) //Decimales del NAV... */\n      iszero\n      tag_280\n      jumpi\n        /* \"TFGv3/Contracts/SCExchange.sol\":2746:2759  tokenDecimals */\n      dup3\n        /* \"TFGv3/Contracts/SCExchange.sol\":2741:2743  18 */\n      0x12\n        /* \"TFGv3/Contracts/SCExchange.sol\":2741:2759  18 - tokenDecimals */\n      tag_281\n      swap2\n      swap1\n      tag_159\n      jump\t// in\n    tag_281:\n        /* \"TFGv3/Contracts/SCExchange.sol\":2736:2738  10 */\n      0x0a\n        /* \"TFGv3/Contracts/SCExchange.sol\":2736:2760  10**(18 - tokenDecimals) */\n      tag_282\n      swap2\n      swap1\n      tag_161\n      jump\t// in\n    tag_282:\n        /* \"TFGv3/Contracts/SCExchange.sol\":2728:2733  qtyIn */\n      dup10\n        /* \"TFGv3/Contracts/SCExchange.sol\":2728:2760  qtyIn * 10**(18 - tokenDecimals) */\n      tag_283\n      swap2\n      swap1\n      tag_165\n      jump\t// in\n    tag_283:\n        /* \"TFGv3/Contracts/SCExchange.sol\":2718:2760  payment = qtyIn * 10**(18 - tokenDecimals) */\n      swap4\n      pop\n        /* \"TFGv3/Contracts/SCExchange.sol\":2805:2816  tokenSupply */\n      dup2\n        /* \"TFGv3/Contracts/SCExchange.sol\":2794:2802  NAVvalue */\n      dup6\n        /* \"TFGv3/Contracts/SCExchange.sol\":2794:2816  NAVvalue / tokenSupply */\n      tag_284\n      swap2\n      swap1\n      tag_163\n      jump\t// in\n    tag_284:\n        /* \"TFGv3/Contracts/SCExchange.sol\":2783:2790  payment */\n      dup5\n        /* \"TFGv3/Contracts/SCExchange.sol\":2783:2817  payment / (NAVvalue / tokenSupply) */\n      tag_285\n      swap2\n      swap1\n      tag_163\n      jump\t// in\n    tag_285:\n        /* \"TFGv3/Contracts/SCExchange.sol\":2771:2817  tokensOut = payment / (NAVvalue / tokenSupply) */\n      swap1\n      pop\n        /* \"TFGv3/Contracts/SCExchange.sol\":2659:2882  if(tokenDecimals < 18) //Decimales del NAV... */\n      jump(tag_286)\n    tag_280:\n        /* \"TFGv3/Contracts/SCExchange.sol\":2870:2881  tokenSupply */\n      dup2\n        /* \"TFGv3/Contracts/SCExchange.sol\":2859:2867  NAVvalue */\n      dup6\n        /* \"TFGv3/Contracts/SCExchange.sol\":2859:2881  NAVvalue / tokenSupply */\n      tag_287\n      swap2\n      swap1\n      tag_163\n      jump\t// in\n    tag_287:\n        /* \"TFGv3/Contracts/SCExchange.sol\":2848:2855  payment */\n      dup5\n        /* \"TFGv3/Contracts/SCExchange.sol\":2848:2882  payment / (NAVvalue / tokenSupply) */\n      tag_288\n      swap2\n      swap1\n      tag_163\n      jump\t// in\n    tag_288:\n        /* \"TFGv3/Contracts/SCExchange.sol\":2836:2882  tokensOut = payment / (NAVvalue / tokenSupply) */\n      swap1\n      pop\n        /* \"TFGv3/Contracts/SCExchange.sol\":2659:2882  if(tokenDecimals < 18) //Decimales del NAV... */\n    tag_286:\n        /* \"TFGv3/Contracts/SCExchange.sol\":2905:2915  stableAddr */\n      dup10\n        /* \"TFGv3/Contracts/SCExchange.sol\":2898:2929  IERC20(stableAddr).transferFrom */\n      0xffffffffffffffffffffffffffffffffffffffff\n      and\n      0x23b872dd\n        /* \"TFGv3/Contracts/SCExchange.sol\":2930:2940  msg.sender */\n      caller\n        /* \"TFGv3/Contracts/SCExchange.sol\":2942:2953  storageAddr */\n      dup9\n        /* \"TFGv3/Contracts/SCExchange.sol\":2955:2962  payment */\n      dup8\n        /* \"TFGv3/Contracts/SCExchange.sol\":2898:2963  IERC20(stableAddr).transferFrom(msg.sender, storageAddr, payment) */\n      mload(0x40)\n      dup5\n      0xffffffff\n      and\n      0xe0\n      shl\n      dup2\n      mstore\n      0x04\n      add\n      tag_289\n      swap4\n      swap3\n      swap2\n      swap1\n      tag_171\n      jump\t// in\n    tag_289:\n      0x20\n      mload(0x40)\n      dup1\n      dup4\n      sub\n      dup2\n      0x00\n      dup8\n      dup1\n      extcodesize\n      iszero\n      dup1\n      iszero\n      tag_290\n      jumpi\n      0x00\n      dup1\n      revert\n    tag_290:\n      pop\n      gas\n      call\n      iszero\n      dup1\n      iszero\n      tag_292\n      jumpi\n      returndatasize\n      0x00\n      dup1\n      returndatacopy\n      revert(0x00, returndatasize)\n    tag_292:\n      pop\n      pop\n      pop\n      pop\n      mload(0x40)\n      returndatasize\n      not(0x1f)\n      0x1f\n      dup3\n      add\n      and\n      dup3\n      add\n      dup1\n      0x40\n      mstore\n      pop\n      dup2\n      add\n      swap1\n      tag_293\n      swap2\n      swap1\n      tag_176\n      jump\t// in\n    tag_293:\n        /* \"TFGv3/Contracts/SCExchange.sol\":2890:2964  require(IERC20(stableAddr).transferFrom(msg.sender, storageAddr, payment)) */\n      tag_294\n      jumpi\n      0x00\n      dup1\n      revert\n    tag_294:\n        /* \"TFGv3/Contracts/SCExchange.sol\":2993:3002  proxyAddr */\n      dup7\n        /* \"TFGv3/Contracts/SCExchange.sol\":2986:3009  IProxy(proxyAddr).token */\n      0xffffffffffffffffffffffffffffffffffffffff\n      and\n      0xfc0c546a\n        /* \"TFGv3/Contracts/SCExchange.sol\":2986:3011  IProxy(proxyAddr).token() */\n      mload(0x40)\n      dup2\n      0xffffffff\n      and\n      0xe0\n      shl\n      dup2\n      mstore\n      0x04\n      add\n      0x20\n      mload(0x40)\n      dup1\n      dup4\n      sub\n      dup2\n      dup7\n      dup1\n      extcodesize\n      iszero\n      dup1\n      iszero\n      tag_295\n      jumpi\n      0x00\n      dup1\n      revert\n    tag_295:\n      pop\n      gas\n      staticcall\n      iszero\n      dup1\n      iszero\n      tag_297\n      jumpi\n      returndatasize\n      0x00\n      dup1\n      returndatacopy\n      revert(0x00, returndatasize)\n    tag_297:\n      pop\n      pop\n      pop\n      pop\n      mload(0x40)\n      returndatasize\n      not(0x1f)\n      0x1f\n      dup3\n      add\n      and\n      dup3\n      add\n      dup1\n      0x40\n      mstore\n      pop\n      dup2\n      add\n      swap1\n      tag_298\n      swap2\n      swap1\n      tag_131\n      jump\t// in\n    tag_298:\n        /* \"TFGv3/Contracts/SCExchange.sol\":2979:3017  IERC20(IProxy(proxyAddr).token()).mint */\n      0xffffffffffffffffffffffffffffffffffffffff\n      and\n      0x40c10f19\n        /* \"TFGv3/Contracts/SCExchange.sol\":3018:3028  msg.sender */\n      caller\n        /* \"TFGv3/Contracts/SCExchange.sol\":3030:3035  qtyIn */\n      dup12\n        /* \"TFGv3/Contracts/SCExchange.sol\":2979:3036  IERC20(IProxy(proxyAddr).token()).mint(msg.sender, qtyIn) */\n      mload(0x40)\n      dup4\n      0xffffffff\n      and\n      0xe0\n      shl\n      dup2\n      mstore\n      0x04\n      add\n      tag_299\n      swap3\n      swap2\n      swap1\n      tag_183\n      jump\t// in\n    tag_299:\n      0x20\n      mload(0x40)\n      dup1\n      dup4\n      sub\n      dup2\n      0x00\n      dup8\n      dup1\n      extcodesize\n      iszero\n      dup1\n      iszero\n      tag_300\n      jumpi\n      0x00\n      dup1\n      revert\n    tag_300:\n      pop\n      gas\n      call\n      iszero\n      dup1\n      iszero\n      tag_302\n      jumpi\n      returndatasize\n      0x00\n      dup1\n      returndatacopy\n      revert(0x00, returndatasize)\n    tag_302:\n      pop\n      pop\n      pop\n      pop\n      mload(0x40)\n      returndatasize\n      not(0x1f)\n      0x1f\n      dup3\n      add\n      and\n      dup3\n      add\n      dup1\n      0x40\n      mstore\n      pop\n      dup2\n      add\n      swap1\n      tag_303\n      swap2\n      swap1\n      tag_176\n      jump\t// in\n    tag_303:\n        /* \"TFGv3/Contracts/SCExchange.sol\":2971:3037  require(IERC20(IProxy(proxyAddr).token()).mint(msg.sender, qtyIn)) */\n      tag_304\n      jumpi\n      0x00\n      dup1\n      revert\n    tag_304:\n        /* \"TFGv3/Contracts/SCExchange.sol\":688:689  _ */\n      pop\n      pop\n      pop\n      pop\n      pop\n      pop\n      pop\n        /* \"TFGv3/Contracts/SCExchange.sol\":766:767  _ */\n      pop\n        /* \"TFGv3/Contracts/SCExchange.sol\":2105:3044  function buyTokensInput(address stableAddr, uint qtyIn) external virtual override Blacklisted Locked Coin(stableAddr)... */\n      pop\n      pop\n      jump\t// out\n        /* \"TFGv3/Contracts/SCExchange.sol\":4246:4397  function updateProxy(address newAddr) external virtual override OnlyDeployer... */\n    tag_77:\n        /* \"TFGv3/Contracts/SCExchange.sol\":482:490  deployer */\n      immutable(\"0x5081277725af21b52adfcd8be9eaf5a350f1ec111a4413c31b8ff210fe7f74ef\")\n        /* \"TFGv3/Contracts/SCExchange.sol\":468:490  msg.sender == deployer */\n      0xffffffffffffffffffffffffffffffffffffffff\n      and\n        /* \"TFGv3/Contracts/SCExchange.sol\":468:478  msg.sender */\n      caller\n        /* \"TFGv3/Contracts/SCExchange.sol\":468:490  msg.sender == deployer */\n      0xffffffffffffffffffffffffffffffffffffffff\n      and\n      eq\n        /* \"TFGv3/Contracts/SCExchange.sol\":460:491  require(msg.sender == deployer) */\n      tag_306\n      jumpi\n      0x00\n      dup1\n      revert\n    tag_306:\n        /* \"TFGv3/Contracts/SCExchange.sol\":4359:4364  proxy */\n      0x00\n      dup1\n      sload\n      swap1\n      0x0100\n      exp\n      swap1\n      div\n      0xffffffffffffffffffffffffffffffffffffffff\n      and\n        /* \"TFGv3/Contracts/SCExchange.sol\":4345:4364  msg.sender == proxy */\n      0xffffffffffffffffffffffffffffffffffffffff\n      and\n        /* \"TFGv3/Contracts/SCExchange.sol\":4345:4355  msg.sender */\n      caller\n        /* \"TFGv3/Contracts/SCExchange.sol\":4345:4364  msg.sender == proxy */\n      0xffffffffffffffffffffffffffffffffffffffff\n      and\n      eq\n        /* \"TFGv3/Contracts/SCExchange.sol\":4337:4365  require(msg.sender == proxy) */\n      tag_308\n      jumpi\n      0x00\n      dup1\n      revert\n    tag_308:\n        /* \"TFGv3/Contracts/SCExchange.sol\":4383:4390  newAddr */\n      dup1\n        /* \"TFGv3/Contracts/SCExchange.sol\":4375:4380  proxy */\n      0x00\n      dup1\n        /* \"TFGv3/Contracts/SCExchange.sol\":4375:4390  proxy = newAddr */\n      0x0100\n      exp\n      dup2\n      sload\n      dup2\n      0xffffffffffffffffffffffffffffffffffffffff\n      mul\n      not\n      and\n      swap1\n      dup4\n      0xffffffffffffffffffffffffffffffffffffffff\n      and\n      mul\n      or\n      swap1\n      sstore\n      pop\n        /* \"TFGv3/Contracts/SCExchange.sol\":4246:4397  function updateProxy(address newAddr) external virtual override OnlyDeployer... */\n      pop\n      jump\t// out\n        /* \"TFGv3/Contracts/SCExchange.sol\":1018:1087  function lockOn() external OnlyDeployer... */\n    tag_80:\n        /* \"TFGv3/Contracts/SCExchange.sol\":482:490  deployer */\n      immutable(\"0x5081277725af21b52adfcd8be9eaf5a350f1ec111a4413c31b8ff210fe7f74ef\")\n        /* \"TFGv3/Contracts/SCExchange.sol\":468:490  msg.sender == deployer */\n      0xffffffffffffffffffffffffffffffffffffffff\n      and\n        /* \"TFGv3/Contracts/SCExchange.sol\":468:478  msg.sender */\n      caller\n        /* \"TFGv3/Contracts/SCExchange.sol\":468:490  msg.sender == deployer */\n      0xffffffffffffffffffffffffffffffffffffffff\n      and\n      eq\n        /* \"TFGv3/Contracts/SCExchange.sol\":460:491  require(msg.sender == deployer) */\n      tag_310\n      jumpi\n      0x00\n      dup1\n      revert\n    tag_310:\n        /* \"TFGv3/Contracts/SCExchange.sol\":1079:1080  1 */\n      0x01\n        /* \"TFGv3/Contracts/SCExchange.sol\":1072:1076  lock */\n      0x03\n      0x00\n        /* \"TFGv3/Contracts/SCExchange.sol\":1072:1080  lock = 1 */\n      0x0100\n      exp\n      dup2\n      sload\n      dup2\n      0xff\n      mul\n      not\n      and\n      swap1\n      dup4\n      0xff\n      and\n      mul\n      or\n      swap1\n      sstore\n      pop\n        /* \"TFGv3/Contracts/SCExchange.sol\":1018:1087  function lockOn() external OnlyDeployer... */\n      jump\t// out\n        /* \"TFGv3/Contracts/SCExchange.sol\":863:1012  function initContract(address proxyAddr) external OnlyDeployer NonInit... */\n    tag_84:\n        /* \"TFGv3/Contracts/SCExchange.sol\":482:490  deployer */\n      immutable(\"0x5081277725af21b52adfcd8be9eaf5a350f1ec111a4413c31b8ff210fe7f74ef\")\n        /* \"TFGv3/Contracts/SCExchange.sol\":468:490  msg.sender == deployer */\n      0xffffffffffffffffffffffffffffffffffffffff\n      and\n        /* \"TFGv3/Contracts/SCExchange.sol\":468:478  msg.sender */\n      caller\n        /* \"TFGv3/Contracts/SCExchange.sol\":468:490  msg.sender == deployer */\n      0xffffffffffffffffffffffffffffffffffffffff\n      and\n      eq\n        /* \"TFGv3/Contracts/SCExchange.sol\":460:491  require(msg.sender == deployer) */\n      tag_313\n      jumpi\n      0x00\n      dup1\n      revert\n    tag_313:\n        /* \"TFGv3/Contracts/SCExchange.sol\":833:834  0 */\n      0x00\n        /* \"TFGv3/Contracts/SCExchange.sol\":821:829  initDone */\n      0x03\n      0x01\n      swap1\n      sload\n      swap1\n      0x0100\n      exp\n      swap1\n      div\n      0xff\n      and\n        /* \"TFGv3/Contracts/SCExchange.sol\":821:834  initDone == 0 */\n      0xff\n      and\n      eq\n        /* \"TFGv3/Contracts/SCExchange.sol\":813:835  require(initDone == 0) */\n      tag_315\n      jumpi\n      0x00\n      dup1\n      revert\n    tag_315:\n        /* \"TFGv3/Contracts/SCExchange.sol\":955:956  0 */\n      0x00\n        /* \"TFGv3/Contracts/SCExchange.sol\":948:952  lock */\n      0x03\n      0x00\n        /* \"TFGv3/Contracts/SCExchange.sol\":948:956  lock = 0 */\n      0x0100\n      exp\n      dup2\n      sload\n      dup2\n      0xff\n      mul\n      not\n      and\n      swap1\n      dup4\n      0xff\n      and\n      mul\n      or\n      swap1\n      sstore\n      pop\n        /* \"TFGv3/Contracts/SCExchange.sol\":974:983  proxyAddr */\n      dup1\n        /* \"TFGv3/Contracts/SCExchange.sol\":966:971  proxy */\n      0x00\n      dup1\n        /* \"TFGv3/Contracts/SCExchange.sol\":966:983  proxy = proxyAddr */\n      0x0100\n      exp\n      dup2\n      sload\n      dup2\n      0xffffffffffffffffffffffffffffffffffffffff\n      mul\n      not\n      and\n      swap1\n      dup4\n      0xffffffffffffffffffffffffffffffffffffffff\n      and\n      mul\n      or\n      swap1\n      sstore\n      pop\n        /* \"TFGv3/Contracts/SCExchange.sol\":1004:1005  1 */\n      0x01\n        /* \"TFGv3/Contracts/SCExchange.sol\":993:1001  initDone */\n      0x03\n      0x01\n        /* \"TFGv3/Contracts/SCExchange.sol\":993:1005  initDone = 1 */\n      0x0100\n      exp\n      dup2\n      sload\n      dup2\n      0xff\n      mul\n      not\n      and\n      swap1\n      dup4\n      0xff\n      and\n      mul\n      or\n      swap1\n      sstore\n      pop\n        /* \"TFGv3/Contracts/SCExchange.sol\":863:1012  function initContract(address proxyAddr) external OnlyDeployer NonInit... */\n      pop\n      jump\t// out\n        /* \"TFGv3/Contracts/SCExchange.sol\":178:198  address public proxy */\n    tag_87:\n      0x00\n      dup1\n      sload\n      swap1\n      0x0100\n      exp\n      swap1\n      div\n      0xffffffffffffffffffffffffffffffffffffffff\n      and\n      dup2\n      jump\t// out\n        /* \"TFGv3/Contracts/SCExchange.sol\":286:303  uint8 public lock */\n    tag_92:\n      0x03\n      0x00\n      swap1\n      sload\n      swap1\n      0x0100\n      exp\n      swap1\n      div\n      0xff\n      and\n      dup2\n      jump\t// out\n        /* \"TFGv3/Contracts/SCExchange.sol\":242:283  mapping(address => uint) public blacklist */\n    tag_98:\n      mstore(0x20, 0x02)\n      dup1\n      0x00\n      mstore\n      keccak256(0x00, 0x40)\n      0x00\n      swap2\n      pop\n      swap1\n      pop\n      sload\n      dup2\n      jump\t// out\n        /* \"TFGv3/Contracts/SCExchange.sol\":309:330  uint8 public initDone */\n    tag_102:\n      0x03\n      0x01\n      swap1\n      sload\n      swap1\n      0x0100\n      exp\n      swap1\n      div\n      0xff\n      and\n      dup2\n      jump\t// out\n        /* \"#utility.yul\":7:146   */\n    tag_318:\n      0x00\n        /* \"#utility.yul\":91:97   */\n      dup2\n        /* \"#utility.yul\":78:98   */\n      calldataload\n        /* \"#utility.yul\":69:98   */\n      swap1\n      pop\n        /* \"#utility.yul\":107:140   */\n      tag_320\n        /* \"#utility.yul\":134:139   */\n      dup2\n        /* \"#utility.yul\":107:140   */\n      tag_321\n      jump\t// in\n    tag_320:\n        /* \"#utility.yul\":59:146   */\n      swap3\n      swap2\n      pop\n      pop\n      jump\t// out\n        /* \"#utility.yul\":152:295   */\n    tag_322:\n      0x00\n        /* \"#utility.yul\":240:246   */\n      dup2\n        /* \"#utility.yul\":234:247   */\n      mload\n        /* \"#utility.yul\":225:247   */\n      swap1\n      pop\n        /* \"#utility.yul\":256:289   */\n      tag_324\n        /* \"#utility.yul\":283:288   */\n      dup2\n        /* \"#utility.yul\":256:289   */\n      tag_321\n      jump\t// in\n    tag_324:\n        /* \"#utility.yul\":215:295   */\n      swap3\n      swap2\n      pop\n      pop\n      jump\t// out\n        /* \"#utility.yul\":301:438   */\n    tag_325:\n      0x00\n        /* \"#utility.yul\":386:392   */\n      dup2\n        /* \"#utility.yul\":380:393   */\n      mload\n        /* \"#utility.yul\":371:393   */\n      swap1\n      pop\n        /* \"#utility.yul\":402:432   */\n      tag_327\n        /* \"#utility.yul\":426:431   */\n      dup2\n        /* \"#utility.yul\":402:432   */\n      tag_328\n      jump\t// in\n    tag_327:\n        /* \"#utility.yul\":361:438   */\n      swap3\n      swap2\n      pop\n      pop\n      jump\t// out\n        /* \"#utility.yul\":444:583   */\n    tag_329:\n      0x00\n        /* \"#utility.yul\":528:534   */\n      dup2\n        /* \"#utility.yul\":515:535   */\n      calldataload\n        /* \"#utility.yul\":506:535   */\n      swap1\n      pop\n        /* \"#utility.yul\":544:577   */\n      tag_331\n        /* \"#utility.yul\":571:576   */\n      dup2\n        /* \"#utility.yul\":544:577   */\n      tag_332\n      jump\t// in\n    tag_331:\n        /* \"#utility.yul\":496:583   */\n      swap3\n      swap2\n      pop\n      pop\n      jump\t// out\n        /* \"#utility.yul\":589:732   */\n    tag_333:\n      0x00\n        /* \"#utility.yul\":677:683   */\n      dup2\n        /* \"#utility.yul\":671:684   */\n      mload\n        /* \"#utility.yul\":662:684   */\n      swap1\n      pop\n        /* \"#utility.yul\":693:726   */\n      tag_335\n        /* \"#utility.yul\":720:725   */\n      dup2\n        /* \"#utility.yul\":693:726   */\n      tag_332\n      jump\t// in\n    tag_335:\n        /* \"#utility.yul\":652:732   */\n      swap3\n      swap2\n      pop\n      pop\n      jump\t// out\n        /* \"#utility.yul\":738:877   */\n    tag_336:\n      0x00\n        /* \"#utility.yul\":824:830   */\n      dup2\n        /* \"#utility.yul\":818:831   */\n      mload\n        /* \"#utility.yul\":809:831   */\n      swap1\n      pop\n        /* \"#utility.yul\":840:871   */\n      tag_338\n        /* \"#utility.yul\":865:870   */\n      dup2\n        /* \"#utility.yul\":840:871   */\n      tag_339\n      jump\t// in\n    tag_338:\n        /* \"#utility.yul\":799:877   */\n      swap3\n      swap2\n      pop\n      pop\n      jump\t// out\n        /* \"#utility.yul\":883:1145   */\n    tag_30:\n      0x00\n        /* \"#utility.yul\":991:993   */\n      0x20\n        /* \"#utility.yul\":979:988   */\n      dup3\n        /* \"#utility.yul\":970:977   */\n      dup5\n        /* \"#utility.yul\":966:989   */\n      sub\n        /* \"#utility.yul\":962:994   */\n      slt\n        /* \"#utility.yul\":959:961   */\n      iszero\n      tag_341\n      jumpi\n        /* \"#utility.yul\":1007:1008   */\n      0x00\n        /* \"#utility.yul\":1004:1005   */\n      dup1\n        /* \"#utility.yul\":997:1009   */\n      revert\n        /* \"#utility.yul\":959:961   */\n    tag_341:\n        /* \"#utility.yul\":1050:1051   */\n      0x00\n        /* \"#utility.yul\":1075:1128   */\n      tag_342\n        /* \"#utility.yul\":1120:1127   */\n      dup5\n        /* \"#utility.yul\":1111:1117   */\n      dup3\n        /* \"#utility.yul\":1100:1109   */\n      dup6\n        /* \"#utility.yul\":1096:1118   */\n      add\n        /* \"#utility.yul\":1075:1128   */\n      tag_318\n      jump\t// in\n    tag_342:\n        /* \"#utility.yul\":1065:1128   */\n      swap2\n      pop\n        /* \"#utility.yul\":1021:1138   */\n      pop\n        /* \"#utility.yul\":949:1145   */\n      swap3\n      swap2\n      pop\n      pop\n      jump\t// out\n        /* \"#utility.yul\":1151:1435   */\n    tag_131:\n      0x00\n        /* \"#utility.yul\":1270:1272   */\n      0x20\n        /* \"#utility.yul\":1258:1267   */\n      dup3\n        /* \"#utility.yul\":1249:1256   */\n      dup5\n        /* \"#utility.yul\":1245:1268   */\n      sub\n        /* \"#utility.yul\":1241:1273   */\n      slt\n        /* \"#utility.yul\":1238:1240   */\n      iszero\n      tag_344\n      jumpi\n        /* \"#utility.yul\":1286:1287   */\n      0x00\n        /* \"#utility.yul\":1283:1284   */\n      dup1\n        /* \"#utility.yul\":1276:1288   */\n      revert\n        /* \"#utility.yul\":1238:1240   */\n    tag_344:\n        /* \"#utility.yul\":1329:1330   */\n      0x00\n        /* \"#utility.yul\":1354:1418   */\n      tag_345\n        /* \"#utility.yul\":1410:1417   */\n      dup5\n        /* \"#utility.yul\":1401:1407   */\n      dup3\n        /* \"#utility.yul\":1390:1399   */\n      dup6\n        /* \"#utility.yul\":1386:1408   */\n      add\n        /* \"#utility.yul\":1354:1418   */\n      tag_322\n      jump\t// in\n    tag_345:\n        /* \"#utility.yul\":1344:1418   */\n      swap2\n      pop\n        /* \"#utility.yul\":1300:1428   */\n      pop\n        /* \"#utility.yul\":1228:1435   */\n      swap3\n      swap2\n      pop\n      pop\n      jump\t// out\n        /* \"#utility.yul\":1441:1848   */\n    tag_39:\n      0x00\n      dup1\n        /* \"#utility.yul\":1566:1568   */\n      0x40\n        /* \"#utility.yul\":1554:1563   */\n      dup4\n        /* \"#utility.yul\":1545:1552   */\n      dup6\n        /* \"#utility.yul\":1541:1564   */\n      sub\n        /* \"#utility.yul\":1537:1569   */\n      slt\n        /* \"#utility.yul\":1534:1536   */\n      iszero\n      tag_347\n      jumpi\n        /* \"#utility.yul\":1582:1583   */\n      0x00\n        /* \"#utility.yul\":1579:1580   */\n      dup1\n        /* \"#utility.yul\":1572:1584   */\n      revert\n        /* \"#utility.yul\":1534:1536   */\n    tag_347:\n        /* \"#utility.yul\":1625:1626   */\n      0x00\n        /* \"#utility.yul\":1650:1703   */\n      tag_348\n        /* \"#utility.yul\":1695:1702   */\n      dup6\n        /* \"#utility.yul\":1686:1692   */\n      dup3\n        /* \"#utility.yul\":1675:1684   */\n      dup7\n        /* \"#utility.yul\":1671:1693   */\n      add\n        /* \"#utility.yul\":1650:1703   */\n      tag_318\n      jump\t// in\n    tag_348:\n        /* \"#utility.yul\":1640:1703   */\n      swap3\n      pop\n        /* \"#utility.yul\":1596:1713   */\n      pop\n        /* \"#utility.yul\":1752:1754   */\n      0x20\n        /* \"#utility.yul\":1778:1831   */\n      tag_349\n        /* \"#utility.yul\":1823:1830   */\n      dup6\n        /* \"#utility.yul\":1814:1820   */\n      dup3\n        /* \"#utility.yul\":1803:1812   */\n      dup7\n        /* \"#utility.yul\":1799:1821   */\n      add\n        /* \"#utility.yul\":1778:1831   */\n      tag_329\n      jump\t// in\n    tag_349:\n        /* \"#utility.yul\":1768:1831   */\n      swap2\n      pop\n        /* \"#utility.yul\":1723:1841   */\n      pop\n        /* \"#utility.yul\":1524:1848   */\n      swap3\n      pop\n      swap3\n      swap1\n      pop\n      jump\t// out\n        /* \"#utility.yul\":1854:2132   */\n    tag_176:\n      0x00\n        /* \"#utility.yul\":1970:1972   */\n      0x20\n        /* \"#utility.yul\":1958:1967   */\n      dup3\n        /* \"#utility.yul\":1949:1956   */\n      dup5\n        /* \"#utility.yul\":1945:1968   */\n      sub\n        /* \"#utility.yul\":1941:1973   */\n      slt\n        /* \"#utility.yul\":1938:1940   */\n      iszero\n      tag_351\n      jumpi\n        /* \"#utility.yul\":1986:1987   */\n      0x00\n        /* \"#utility.yul\":1983:1984   */\n      dup1\n        /* \"#utility.yul\":1976:1988   */\n      revert\n        /* \"#utility.yul\":1938:1940   */\n    tag_351:\n        /* \"#utility.yul\":2029:2030   */\n      0x00\n        /* \"#utility.yul\":2054:2115   */\n      tag_352\n        /* \"#utility.yul\":2107:2114   */\n      dup5\n        /* \"#utility.yul\":2098:2104   */\n      dup3\n        /* \"#utility.yul\":2087:2096   */\n      dup6\n        /* \"#utility.yul\":2083:2105   */\n      add\n        /* \"#utility.yul\":2054:2115   */\n      tag_325\n      jump\t// in\n    tag_352:\n        /* \"#utility.yul\":2044:2115   */\n      swap2\n      pop\n        /* \"#utility.yul\":2000:2125   */\n      pop\n        /* \"#utility.yul\":1928:2132   */\n      swap3\n      swap2\n      pop\n      pop\n      jump\t// out\n        /* \"#utility.yul\":2138:2400   */\n    tag_62:\n      0x00\n        /* \"#utility.yul\":2246:2248   */\n      0x20\n        /* \"#utility.yul\":2234:2243   */\n      dup3\n        /* \"#utility.yul\":2225:2232   */\n      dup5\n        /* \"#utility.yul\":2221:2244   */\n      sub\n        /* \"#utility.yul\":2217:2249   */\n      slt\n        /* \"#utility.yul\":2214:2216   */\n      iszero\n      tag_354\n      jumpi\n        /* \"#utility.yul\":2262:2263   */\n      0x00\n        /* \"#utility.yul\":2259:2260   */\n      dup1\n        /* \"#utility.yul\":2252:2264   */\n      revert\n        /* \"#utility.yul\":2214:2216   */\n    tag_354:\n        /* \"#utility.yul\":2305:2306   */\n      0x00\n        /* \"#utility.yul\":2330:2383   */\n      tag_355\n        /* \"#utility.yul\":2375:2382   */\n      dup5\n        /* \"#utility.yul\":2366:2372   */\n      dup3\n        /* \"#utility.yul\":2355:2364   */\n      dup6\n        /* \"#utility.yul\":2351:2373   */\n      add\n        /* \"#utility.yul\":2330:2383   */\n      tag_329\n      jump\t// in\n    tag_355:\n        /* \"#utility.yul\":2320:2383   */\n      swap2\n      pop\n        /* \"#utility.yul\":2276:2393   */\n      pop\n        /* \"#utility.yul\":2204:2400   */\n      swap3\n      swap2\n      pop\n      pop\n      jump\t// out\n        /* \"#utility.yul\":2406:2690   */\n    tag_142:\n      0x00\n        /* \"#utility.yul\":2525:2527   */\n      0x20\n        /* \"#utility.yul\":2513:2522   */\n      dup3\n        /* \"#utility.yul\":2504:2511   */\n      dup5\n        /* \"#utility.yul\":2500:2523   */\n      sub\n        /* \"#utility.yul\":2496:2528   */\n      slt\n        /* \"#utility.yul\":2493:2495   */\n      iszero\n      tag_357\n      jumpi\n        /* \"#utility.yul\":2541:2542   */\n      0x00\n        /* \"#utility.yul\":2538:2539   */\n      dup1\n        /* \"#utility.yul\":2531:2543   */\n      revert\n        /* \"#utility.yul\":2493:2495   */\n    tag_357:\n        /* \"#utility.yul\":2584:2585   */\n      0x00\n        /* \"#utility.yul\":2609:2673   */\n      tag_358\n        /* \"#utility.yul\":2665:2672   */\n      dup5\n        /* \"#utility.yul\":2656:2662   */\n      dup3\n        /* \"#utility.yul\":2645:2654   */\n      dup6\n        /* \"#utility.yul\":2641:2663   */\n      add\n        /* \"#utility.yul\":2609:2673   */\n      tag_333\n      jump\t// in\n    tag_358:\n        /* \"#utility.yul\":2599:2673   */\n      swap2\n      pop\n        /* \"#utility.yul\":2555:2683   */\n      pop\n        /* \"#utility.yul\":2483:2690   */\n      swap3\n      swap2\n      pop\n      pop\n      jump\t// out\n        /* \"#utility.yul\":2696:2976   */\n    tag_152:\n      0x00\n        /* \"#utility.yul\":2813:2815   */\n      0x20\n        /* \"#utility.yul\":2801:2810   */\n      dup3\n        /* \"#utility.yul\":2792:2799   */\n      dup5\n        /* \"#utility.yul\":2788:2811   */\n      sub\n        /* \"#utility.yul\":2784:2816   */\n      slt\n        /* \"#utility.yul\":2781:2783   */\n      iszero\n      tag_360\n      jumpi\n        /* \"#utility.yul\":2829:2830   */\n      0x00\n        /* \"#utility.yul\":2826:2827   */\n      dup1\n        /* \"#utility.yul\":2819:2831   */\n      revert\n        /* \"#utility.yul\":2781:2783   */\n    tag_360:\n        /* \"#utility.yul\":2872:2873   */\n      0x00\n        /* \"#utility.yul\":2897:2959   */\n      tag_361\n        /* \"#utility.yul\":2951:2958   */\n      dup5\n        /* \"#utility.yul\":2942:2948   */\n      dup3\n        /* \"#utility.yul\":2931:2940   */\n      dup6\n        /* \"#utility.yul\":2927:2949   */\n      add\n        /* \"#utility.yul\":2897:2959   */\n      tag_336\n      jump\t// in\n    tag_361:\n        /* \"#utility.yul\":2887:2959   */\n      swap2\n      pop\n        /* \"#utility.yul\":2843:2969   */\n      pop\n        /* \"#utility.yul\":2771:2976   */\n      swap3\n      swap2\n      pop\n      pop\n      jump\t// out\n        /* \"#utility.yul\":2982:3100   */\n    tag_362:\n        /* \"#utility.yul\":3069:3093   */\n      tag_364\n        /* \"#utility.yul\":3087:3092   */\n      dup2\n        /* \"#utility.yul\":3069:3093   */\n      tag_365\n      jump\t// in\n    tag_364:\n        /* \"#utility.yul\":3064:3067   */\n      dup3\n        /* \"#utility.yul\":3057:3094   */\n      mstore\n        /* \"#utility.yul\":3047:3100   */\n      pop\n      pop\n      jump\t// out\n        /* \"#utility.yul\":3106:3215   */\n    tag_366:\n        /* \"#utility.yul\":3187:3208   */\n      tag_368\n        /* \"#utility.yul\":3202:3207   */\n      dup2\n        /* \"#utility.yul\":3187:3208   */\n      tag_369\n      jump\t// in\n    tag_368:\n        /* \"#utility.yul\":3182:3185   */\n      dup3\n        /* \"#utility.yul\":3175:3209   */\n      mstore\n        /* \"#utility.yul\":3165:3215   */\n      pop\n      pop\n      jump\t// out\n        /* \"#utility.yul\":3221:3594   */\n    tag_370:\n      0x00\n        /* \"#utility.yul\":3353:3391   */\n      tag_372\n        /* \"#utility.yul\":3385:3390   */\n      dup3\n        /* \"#utility.yul\":3353:3391   */\n      tag_373\n      jump\t// in\n    tag_372:\n        /* \"#utility.yul\":3407:3495   */\n      tag_374\n        /* \"#utility.yul\":3488:3494   */\n      dup2\n        /* \"#utility.yul\":3483:3486   */\n      dup6\n        /* \"#utility.yul\":3407:3495   */\n      tag_375\n      jump\t// in\n    tag_374:\n        /* \"#utility.yul\":3400:3495   */\n      swap4\n      pop\n        /* \"#utility.yul\":3504:3556   */\n      tag_376\n        /* \"#utility.yul\":3549:3555   */\n      dup2\n        /* \"#utility.yul\":3544:3547   */\n      dup6\n        /* \"#utility.yul\":3537:3541   */\n      0x20\n        /* \"#utility.yul\":3530:3535   */\n      dup7\n        /* \"#utility.yul\":3526:3542   */\n      add\n        /* \"#utility.yul\":3504:3556   */\n      tag_377\n      jump\t// in\n    tag_376:\n        /* \"#utility.yul\":3581:3587   */\n      dup1\n        /* \"#utility.yul\":3576:3579   */\n      dup5\n        /* \"#utility.yul\":3572:3588   */\n      add\n        /* \"#utility.yul\":3565:3588   */\n      swap2\n      pop\n        /* \"#utility.yul\":3329:3594   */\n      pop\n      swap3\n      swap2\n      pop\n      pop\n      jump\t// out\n        /* \"#utility.yul\":3600:3747   */\n    tag_378:\n        /* \"#utility.yul\":3695:3740   */\n      tag_380\n        /* \"#utility.yul\":3734:3739   */\n      dup2\n        /* \"#utility.yul\":3695:3740   */\n      tag_381\n      jump\t// in\n    tag_380:\n        /* \"#utility.yul\":3690:3693   */\n      dup3\n        /* \"#utility.yul\":3683:3741   */\n      mstore\n        /* \"#utility.yul\":3673:3747   */\n      pop\n      pop\n      jump\t// out\n        /* \"#utility.yul\":3753:3900   */\n    tag_382:\n        /* \"#utility.yul\":3848:3893   */\n      tag_384\n        /* \"#utility.yul\":3887:3892   */\n      dup2\n        /* \"#utility.yul\":3848:3893   */\n      tag_385\n      jump\t// in\n    tag_384:\n        /* \"#utility.yul\":3843:3846   */\n      dup3\n        /* \"#utility.yul\":3836:3894   */\n      mstore\n        /* \"#utility.yul\":3826:3900   */\n      pop\n      pop\n      jump\t// out\n        /* \"#utility.yul\":3906:4024   */\n    tag_386:\n        /* \"#utility.yul\":3993:4017   */\n      tag_388\n        /* \"#utility.yul\":4011:4016   */\n      dup2\n        /* \"#utility.yul\":3993:4017   */\n      tag_389\n      jump\t// in\n    tag_388:\n        /* \"#utility.yul\":3988:3991   */\n      dup3\n        /* \"#utility.yul\":3981:4018   */\n      mstore\n        /* \"#utility.yul\":3971:4024   */\n      pop\n      pop\n      jump\t// out\n        /* \"#utility.yul\":4030:4142   */\n    tag_390:\n        /* \"#utility.yul\":4113:4135   */\n      tag_392\n        /* \"#utility.yul\":4129:4134   */\n      dup2\n        /* \"#utility.yul\":4113:4135   */\n      tag_393\n      jump\t// in\n    tag_392:\n        /* \"#utility.yul\":4108:4111   */\n      dup3\n        /* \"#utility.yul\":4101:4136   */\n      mstore\n        /* \"#utility.yul\":4091:4142   */\n      pop\n      pop\n      jump\t// out\n        /* \"#utility.yul\":4148:4419   */\n    tag_116:\n      0x00\n        /* \"#utility.yul\":4300:4393   */\n      tag_395\n        /* \"#utility.yul\":4389:4392   */\n      dup3\n        /* \"#utility.yul\":4380:4386   */\n      dup5\n        /* \"#utility.yul\":4300:4393   */\n      tag_370\n      jump\t// in\n    tag_395:\n        /* \"#utility.yul\":4293:4393   */\n      swap2\n      pop\n        /* \"#utility.yul\":4410:4413   */\n      dup2\n        /* \"#utility.yul\":4403:4413   */\n      swap1\n      pop\n        /* \"#utility.yul\":4282:4419   */\n      swap3\n      swap2\n      pop\n      pop\n      jump\t// out\n        /* \"#utility.yul\":4425:4647   */\n    tag_89:\n      0x00\n        /* \"#utility.yul\":4556:4558   */\n      0x20\n        /* \"#utility.yul\":4545:4554   */\n      dup3\n        /* \"#utility.yul\":4541:4559   */\n      add\n        /* \"#utility.yul\":4533:4559   */\n      swap1\n      pop\n        /* \"#utility.yul\":4569:4640   */\n      tag_397\n        /* \"#utility.yul\":4637:4638   */\n      0x00\n        /* \"#utility.yul\":4626:4635   */\n      dup4\n        /* \"#utility.yul\":4622:4639   */\n      add\n        /* \"#utility.yul\":4613:4619   */\n      dup5\n        /* \"#utility.yul\":4569:4640   */\n      tag_362\n      jump\t// in\n    tag_397:\n        /* \"#utility.yul\":4523:4647   */\n      swap3\n      swap2\n      pop\n      pop\n      jump\t// out\n        /* \"#utility.yul\":4653:5095   */\n    tag_171:\n      0x00\n        /* \"#utility.yul\":4840:4842   */\n      0x60\n        /* \"#utility.yul\":4829:4838   */\n      dup3\n        /* \"#utility.yul\":4825:4843   */\n      add\n        /* \"#utility.yul\":4817:4843   */\n      swap1\n      pop\n        /* \"#utility.yul\":4853:4924   */\n      tag_399\n        /* \"#utility.yul\":4921:4922   */\n      0x00\n        /* \"#utility.yul\":4910:4919   */\n      dup4\n        /* \"#utility.yul\":4906:4923   */\n      add\n        /* \"#utility.yul\":4897:4903   */\n      dup7\n        /* \"#utility.yul\":4853:4924   */\n      tag_362\n      jump\t// in\n    tag_399:\n        /* \"#utility.yul\":4934:5006   */\n      tag_400\n        /* \"#utility.yul\":5002:5004   */\n      0x20\n        /* \"#utility.yul\":4991:5000   */\n      dup4\n        /* \"#utility.yul\":4987:5005   */\n      add\n        /* \"#utility.yul\":4978:4984   */\n      dup6\n        /* \"#utility.yul\":4934:5006   */\n      tag_362\n      jump\t// in\n    tag_400:\n        /* \"#utility.yul\":5016:5088   */\n      tag_401\n        /* \"#utility.yul\":5084:5086   */\n      0x40\n        /* \"#utility.yul\":5073:5082   */\n      dup4\n        /* \"#utility.yul\":5069:5087   */\n      add\n        /* \"#utility.yul\":5060:5066   */\n      dup5\n        /* \"#utility.yul\":5016:5088   */\n      tag_386\n      jump\t// in\n    tag_401:\n        /* \"#utility.yul\":4807:5095   */\n      swap5\n      swap4\n      pop\n      pop\n      pop\n      pop\n      jump\t// out\n        /* \"#utility.yul\":5101:5433   */\n    tag_183:\n      0x00\n        /* \"#utility.yul\":5260:5262   */\n      0x40\n        /* \"#utility.yul\":5249:5258   */\n      dup3\n        /* \"#utility.yul\":5245:5263   */\n      add\n        /* \"#utility.yul\":5237:5263   */\n      swap1\n      pop\n        /* \"#utility.yul\":5273:5344   */\n      tag_403\n        /* \"#utility.yul\":5341:5342   */\n      0x00\n        /* \"#utility.yul\":5330:5339   */\n      dup4\n        /* \"#utility.yul\":5326:5343   */\n      add\n        /* \"#utility.yul\":5317:5323   */\n      dup6\n        /* \"#utility.yul\":5273:5344   */\n      tag_362\n      jump\t// in\n    tag_403:\n        /* \"#utility.yul\":5354:5426   */\n      tag_404\n        /* \"#utility.yul\":5422:5424   */\n      0x20\n        /* \"#utility.yul\":5411:5420   */\n      dup4\n        /* \"#utility.yul\":5407:5425   */\n      add\n        /* \"#utility.yul\":5398:5404   */\n      dup5\n        /* \"#utility.yul\":5354:5426   */\n      tag_386\n      jump\t// in\n    tag_404:\n        /* \"#utility.yul\":5227:5433   */\n      swap4\n      swap3\n      pop\n      pop\n      pop\n      jump\t// out\n        /* \"#utility.yul\":5439:5649   */\n    tag_50:\n      0x00\n        /* \"#utility.yul\":5564:5566   */\n      0x20\n        /* \"#utility.yul\":5553:5562   */\n      dup3\n        /* \"#utility.yul\":5549:5567   */\n      add\n        /* \"#utility.yul\":5541:5567   */\n      swap1\n      pop\n        /* \"#utility.yul\":5577:5642   */\n      tag_406\n        /* \"#utility.yul\":5639:5640   */\n      0x00\n        /* \"#utility.yul\":5628:5637   */\n      dup4\n        /* \"#utility.yul\":5624:5641   */\n      add\n        /* \"#utility.yul\":5615:5621   */\n      dup5\n        /* \"#utility.yul\":5577:5642   */\n      tag_366\n      jump\t// in\n    tag_406:\n        /* \"#utility.yul\":5531:5649   */\n      swap3\n      swap2\n      pop\n      pop\n      jump\t// out\n        /* \"#utility.yul\":5655:5893   */\n    tag_137:\n      0x00\n        /* \"#utility.yul\":5794:5796   */\n      0x20\n        /* \"#utility.yul\":5783:5792   */\n      dup3\n        /* \"#utility.yul\":5779:5797   */\n      add\n        /* \"#utility.yul\":5771:5797   */\n      swap1\n      pop\n        /* \"#utility.yul\":5807:5886   */\n      tag_408\n        /* \"#utility.yul\":5883:5884   */\n      0x00\n        /* \"#utility.yul\":5872:5881   */\n      dup4\n        /* \"#utility.yul\":5868:5885   */\n      add\n        /* \"#utility.yul\":5859:5865   */\n      dup5\n        /* \"#utility.yul\":5807:5886   */\n      tag_378\n      jump\t// in\n    tag_408:\n        /* \"#utility.yul\":5761:5893   */\n      swap3\n      swap2\n      pop\n      pop\n      jump\t// out\n        /* \"#utility.yul\":5899:6137   */\n    tag_225:\n      0x00\n        /* \"#utility.yul\":6038:6040   */\n      0x20\n        /* \"#utility.yul\":6027:6036   */\n      dup3\n        /* \"#utility.yul\":6023:6041   */\n      add\n        /* \"#utility.yul\":6015:6041   */\n      swap1\n      pop\n        /* \"#utility.yul\":6051:6130   */\n      tag_410\n        /* \"#utility.yul\":6127:6128   */\n      0x00\n        /* \"#utility.yul\":6116:6125   */\n      dup4\n        /* \"#utility.yul\":6112:6129   */\n      add\n        /* \"#utility.yul\":6103:6109   */\n      dup5\n        /* \"#utility.yul\":6051:6130   */\n      tag_382\n      jump\t// in\n    tag_410:\n        /* \"#utility.yul\":6005:6137   */\n      swap3\n      swap2\n      pop\n      pop\n      jump\t// out\n        /* \"#utility.yul\":6143:6365   */\n    tag_69:\n      0x00\n        /* \"#utility.yul\":6274:6276   */\n      0x20\n        /* \"#utility.yul\":6263:6272   */\n      dup3\n        /* \"#utility.yul\":6259:6277   */\n      add\n        /* \"#utility.yul\":6251:6277   */\n      swap1\n      pop\n        /* \"#utility.yul\":6287:6358   */\n      tag_412\n        /* \"#utility.yul\":6355:6356   */\n      0x00\n        /* \"#utility.yul\":6344:6353   */\n      dup4\n        /* \"#utility.yul\":6340:6357   */\n      add\n        /* \"#utility.yul\":6331:6337   */\n      dup5\n        /* \"#utility.yul\":6287:6358   */\n      tag_386\n      jump\t// in\n    tag_412:\n        /* \"#utility.yul\":6241:6365   */\n      swap3\n      swap2\n      pop\n      pop\n      jump\t// out\n        /* \"#utility.yul\":6371:6585   */\n    tag_94:\n      0x00\n        /* \"#utility.yul\":6498:6500   */\n      0x20\n        /* \"#utility.yul\":6487:6496   */\n      dup3\n        /* \"#utility.yul\":6483:6501   */\n      add\n        /* \"#utility.yul\":6475:6501   */\n      swap1\n      pop\n        /* \"#utility.yul\":6511:6578   */\n      tag_414\n        /* \"#utility.yul\":6575:6576   */\n      0x00\n        /* \"#utility.yul\":6564:6573   */\n      dup4\n        /* \"#utility.yul\":6560:6577   */\n      add\n        /* \"#utility.yul\":6551:6557   */\n      dup5\n        /* \"#utility.yul\":6511:6578   */\n      tag_390\n      jump\t// in\n    tag_414:\n        /* \"#utility.yul\":6465:6585   */\n      swap3\n      swap2\n      pop\n      pop\n      jump\t// out\n        /* \"#utility.yul\":6591:6689   */\n    tag_373:\n      0x00\n        /* \"#utility.yul\":6676:6681   */\n      dup2\n        /* \"#utility.yul\":6670:6682   */\n      mload\n        /* \"#utility.yul\":6660:6682   */\n      swap1\n      pop\n        /* \"#utility.yul\":6649:6689   */\n      swap2\n      swap1\n      pop\n      jump\t// out\n        /* \"#utility.yul\":6695:6842   */\n    tag_375:\n      0x00\n        /* \"#utility.yul\":6833:6836   */\n      dup2\n        /* \"#utility.yul\":6818:6836   */\n      swap1\n      pop\n        /* \"#utility.yul\":6808:6842   */\n      swap3\n      swap2\n      pop\n      pop\n      jump\t// out\n        /* \"#utility.yul\":6848:7033   */\n    tag_163:\n      0x00\n        /* \"#utility.yul\":6905:6925   */\n      tag_418\n        /* \"#utility.yul\":6923:6924   */\n      dup3\n        /* \"#utility.yul\":6905:6925   */\n      tag_389\n      jump\t// in\n    tag_418:\n        /* \"#utility.yul\":6900:6925   */\n      swap2\n      pop\n        /* \"#utility.yul\":6939:6959   */\n      tag_419\n        /* \"#utility.yul\":6957:6958   */\n      dup4\n        /* \"#utility.yul\":6939:6959   */\n      tag_389\n      jump\t// in\n    tag_419:\n        /* \"#utility.yul\":6934:6959   */\n      swap3\n      pop\n        /* \"#utility.yul\":6978:6979   */\n      dup3\n        /* \"#utility.yul\":6968:6970   */\n      tag_420\n      jumpi\n        /* \"#utility.yul\":6983:7001   */\n      tag_421\n      tag_422\n      jump\t// in\n    tag_421:\n        /* \"#utility.yul\":6968:6970   */\n    tag_420:\n        /* \"#utility.yul\":7025:7026   */\n      dup3\n        /* \"#utility.yul\":7022:7023   */\n      dup3\n        /* \"#utility.yul\":7018:7027   */\n      div\n        /* \"#utility.yul\":7013:7027   */\n      swap1\n      pop\n        /* \"#utility.yul\":6890:7033   */\n      swap3\n      swap2\n      pop\n      pop\n      jump\t// out\n        /* \"#utility.yul\":7039:7887   */\n    tag_423:\n      0x00\n      dup1\n        /* \"#utility.yul\":7131:7137   */\n      dup3\n        /* \"#utility.yul\":7122:7137   */\n      swap2\n      pop\n        /* \"#utility.yul\":7155:7160   */\n      dup4\n        /* \"#utility.yul\":7146:7160   */\n      swap1\n      pop\n        /* \"#utility.yul\":7169:7881   */\n    tag_425:\n        /* \"#utility.yul\":7190:7191   */\n      0x01\n        /* \"#utility.yul\":7180:7188   */\n      dup6\n        /* \"#utility.yul\":7177:7192   */\n      gt\n        /* \"#utility.yul\":7169:7881   */\n      iszero\n      tag_427\n      jumpi\n        /* \"#utility.yul\":7285:7289   */\n      dup1\n        /* \"#utility.yul\":7280:7283   */\n      dup7\n        /* \"#utility.yul\":7276:7290   */\n      div\n        /* \"#utility.yul\":7270:7274   */\n      dup2\n        /* \"#utility.yul\":7267:7291   */\n      gt\n        /* \"#utility.yul\":7264:7266   */\n      iszero\n      tag_428\n      jumpi\n        /* \"#utility.yul\":7294:7312   */\n      tag_429\n      tag_430\n      jump\t// in\n    tag_429:\n        /* \"#utility.yul\":7264:7266   */\n    tag_428:\n        /* \"#utility.yul\":7344:7345   */\n      0x01\n        /* \"#utility.yul\":7334:7342   */\n      dup6\n        /* \"#utility.yul\":7330:7346   */\n      and\n        /* \"#utility.yul\":7327:7329   */\n      iszero\n      tag_431\n      jumpi\n        /* \"#utility.yul\":7759:7763   */\n      dup1\n        /* \"#utility.yul\":7752:7757   */\n      dup3\n        /* \"#utility.yul\":7748:7764   */\n      mul\n        /* \"#utility.yul\":7739:7764   */\n      swap2\n      pop\n        /* \"#utility.yul\":7327:7329   */\n    tag_431:\n        /* \"#utility.yul\":7809:7813   */\n      dup1\n        /* \"#utility.yul\":7803:7807   */\n      dup2\n        /* \"#utility.yul\":7799:7814   */\n      mul\n        /* \"#utility.yul\":7791:7814   */\n      swap1\n      pop\n        /* \"#utility.yul\":7839:7871   */\n      tag_432\n        /* \"#utility.yul\":7862:7870   */\n      dup6\n        /* \"#utility.yul\":7839:7871   */\n      tag_433\n      jump\t// in\n    tag_432:\n        /* \"#utility.yul\":7827:7871   */\n      swap5\n      pop\n        /* \"#utility.yul\":7169:7881   */\n      jump(tag_425)\n    tag_427:\n        /* \"#utility.yul\":7112:7887   */\n      swap5\n      pop\n      swap5\n      swap3\n      pop\n      pop\n      pop\n      jump\t// out\n        /* \"#utility.yul\":7893:8178   */\n    tag_161:\n      0x00\n        /* \"#utility.yul\":7977:8000   */\n      tag_435\n        /* \"#utility.yul\":7995:7999   */\n      dup3\n        /* \"#utility.yul\":7977:8000   */\n      tag_389\n      jump\t// in\n    tag_435:\n        /* \"#utility.yul\":7969:8000   */\n      swap2\n      pop\n        /* \"#utility.yul\":8021:8048   */\n      tag_436\n        /* \"#utility.yul\":8039:8047   */\n      dup4\n        /* \"#utility.yul\":8021:8048   */\n      tag_389\n      jump\t// in\n    tag_436:\n        /* \"#utility.yul\":8009:8048   */\n      swap3\n      pop\n        /* \"#utility.yul\":8067:8171   */\n      tag_437\n        /* \"#utility.yul\":8104:8170   */\n      0xffffffffffffffffffffffffffffffffffffffffffffffffffffffffffffffff\n        /* \"#utility.yul\":8094:8102   */\n      dup5\n        /* \"#utility.yul\":8088:8092   */\n      dup5\n        /* \"#utility.yul\":8067:8171   */\n      tag_438\n      jump\t// in\n    tag_437:\n        /* \"#utility.yul\":8058:8171   */\n      swap1\n      pop\n        /* \"#utility.yul\":7959:8178   */\n      swap3\n      swap2\n      pop\n      pop\n      jump\t// out\n        /* \"#utility.yul\":8184:9257   */\n    tag_438:\n      0x00\n        /* \"#utility.yul\":8429:8437   */\n      dup3\n        /* \"#utility.yul\":8419:8421   */\n      tag_440\n      jumpi\n        /* \"#utility.yul\":8450:8451   */\n      0x01\n        /* \"#utility.yul\":8441:8451   */\n      swap1\n      pop\n        /* \"#utility.yul\":8452:8457   */\n      jump(tag_439)\n        /* \"#utility.yul\":8419:8421   */\n    tag_440:\n        /* \"#utility.yul\":8478:8482   */\n      dup2\n        /* \"#utility.yul\":8468:8470   */\n      tag_441\n      jumpi\n        /* \"#utility.yul\":8495:8496   */\n      0x00\n        /* \"#utility.yul\":8486:8496   */\n      swap1\n      pop\n        /* \"#utility.yul\":8497:8502   */\n      jump(tag_439)\n        /* \"#utility.yul\":8468:8470   */\n    tag_441:\n        /* \"#utility.yul\":8564:8568   */\n      dup2\n        /* \"#utility.yul\":8612:8613   */\n      0x01\n        /* \"#utility.yul\":8607:8634   */\n      dup2\n      eq\n      tag_443\n      jumpi\n        /* \"#utility.yul\":8648:8649   */\n      0x02\n        /* \"#utility.yul\":8643:8834   */\n      dup2\n      eq\n      tag_444\n      jumpi\n        /* \"#utility.yul\":8557:8834   */\n      jump(tag_442)\n        /* \"#utility.yul\":8607:8634   */\n    tag_443:\n        /* \"#utility.yul\":8625:8626   */\n      0x01\n        /* \"#utility.yul\":8616:8626   */\n      swap2\n      pop\n        /* \"#utility.yul\":8627:8632   */\n      pop\n      jump(tag_439)\n        /* \"#utility.yul\":8643:8834   */\n    tag_444:\n        /* \"#utility.yul\":8688:8691   */\n      0xff\n        /* \"#utility.yul\":8678:8686   */\n      dup5\n        /* \"#utility.yul\":8675:8692   */\n      gt\n        /* \"#utility.yul\":8672:8674   */\n      iszero\n      tag_445\n      jumpi\n        /* \"#utility.yul\":8695:8713   */\n      tag_446\n      tag_430\n      jump\t// in\n    tag_446:\n        /* \"#utility.yul\":8672:8674   */\n    tag_445:\n        /* \"#utility.yul\":8744:8752   */\n      dup4\n        /* \"#utility.yul\":8741:8742   */\n      0x02\n        /* \"#utility.yul\":8737:8753   */\n      exp\n        /* \"#utility.yul\":8728:8753   */\n      swap2\n      pop\n        /* \"#utility.yul\":8779:8782   */\n      dup5\n        /* \"#utility.yul\":8772:8777   */\n      dup3\n        /* \"#utility.yul\":8769:8783   */\n      gt\n        /* \"#utility.yul\":8766:8768   */\n      iszero\n      tag_447\n      jumpi\n        /* \"#utility.yul\":8786:8804   */\n      tag_448\n      tag_430\n      jump\t// in\n    tag_448:\n        /* \"#utility.yul\":8766:8768   */\n    tag_447:\n        /* \"#utility.yul\":8819:8824   */\n      pop\n      jump(tag_439)\n        /* \"#utility.yul\":8557:8834   */\n    tag_442:\n      pop\n        /* \"#utility.yul\":8943:8945   */\n      0x20\n        /* \"#utility.yul\":8933:8941   */\n      dup4\n        /* \"#utility.yul\":8930:8946   */\n      lt\n        /* \"#utility.yul\":8924:8927   */\n      0x0133\n        /* \"#utility.yul\":8918:8922   */\n      dup4\n        /* \"#utility.yul\":8915:8928   */\n      lt\n        /* \"#utility.yul\":8911:8947   */\n      and\n        /* \"#utility.yul\":8893:8895   */\n      0x4e\n        /* \"#utility.yul\":8883:8891   */\n      dup5\n        /* \"#utility.yul\":8880:8896   */\n      lt\n        /* \"#utility.yul\":8875:8877   */\n      0x0b\n        /* \"#utility.yul\":8869:8873   */\n      dup5\n        /* \"#utility.yul\":8866:8878   */\n      lt\n        /* \"#utility.yul\":8862:8897   */\n      and\n        /* \"#utility.yul\":8846:8957   */\n      or\n        /* \"#utility.yul\":8843:8845   */\n      iszero\n      tag_449\n      jumpi\n        /* \"#utility.yul\":8999:9007   */\n      dup3\n        /* \"#utility.yul\":8993:8997   */\n      dup3\n        /* \"#utility.yul\":8989:9008   */\n      exp\n        /* \"#utility.yul\":8980:9008   */\n      swap1\n      pop\n        /* \"#utility.yul\":9034:9037   */\n      dup4\n        /* \"#utility.yul\":9027:9032   */\n      dup2\n        /* \"#utility.yul\":9024:9038   */\n      gt\n        /* \"#utility.yul\":9021:9023   */\n      iszero\n      tag_450\n      jumpi\n        /* \"#utility.yul\":9041:9059   */\n      tag_451\n      tag_430\n      jump\t// in\n    tag_451:\n        /* \"#utility.yul\":9021:9023   */\n    tag_450:\n        /* \"#utility.yul\":9074:9079   */\n      jump(tag_439)\n        /* \"#utility.yul\":8843:8845   */\n    tag_449:\n        /* \"#utility.yul\":9114:9156   */\n      tag_452\n        /* \"#utility.yul\":9152:9155   */\n      dup5\n        /* \"#utility.yul\":9142:9150   */\n      dup5\n        /* \"#utility.yul\":9136:9140   */\n      dup5\n        /* \"#utility.yul\":9133:9134   */\n      0x01\n        /* \"#utility.yul\":9114:9156   */\n      tag_423\n      jump\t// in\n    tag_452:\n        /* \"#utility.yul\":9099:9156   */\n      swap3\n      pop\n      swap1\n      pop\n        /* \"#utility.yul\":9188:9192   */\n      dup2\n        /* \"#utility.yul\":9183:9186   */\n      dup5\n        /* \"#utility.yul\":9179:9193   */\n      div\n        /* \"#utility.yul\":9172:9177   */\n      dup2\n        /* \"#utility.yul\":9169:9194   */\n      gt\n        /* \"#utility.yul\":9166:9168   */\n      iszero\n      tag_453\n      jumpi\n        /* \"#utility.yul\":9197:9215   */\n      tag_454\n      tag_430\n      jump\t// in\n    tag_454:\n        /* \"#utility.yul\":9166:9168   */\n    tag_453:\n        /* \"#utility.yul\":9246:9250   */\n      dup2\n        /* \"#utility.yul\":9239:9244   */\n      dup2\n        /* \"#utility.yul\":9235:9251   */\n      mul\n        /* \"#utility.yul\":9226:9251   */\n      swap1\n      pop\n        /* \"#utility.yul\":8244:9257   */\n    tag_439:\n      swap4\n      swap3\n      pop\n      pop\n      pop\n      jump\t// out\n        /* \"#utility.yul\":9263:9611   */\n    tag_165:\n      0x00\n        /* \"#utility.yul\":9326:9346   */\n      tag_456\n        /* \"#utility.yul\":9344:9345   */\n      dup3\n        /* \"#utility.yul\":9326:9346   */\n      tag_389\n      jump\t// in\n    tag_456:\n        /* \"#utility.yul\":9321:9346   */\n      swap2\n      pop\n        /* \"#utility.yul\":9360:9380   */\n      tag_457\n        /* \"#utility.yul\":9378:9379   */\n      dup4\n        /* \"#utility.yul\":9360:9380   */\n      tag_389\n      jump\t// in\n    tag_457:\n        /* \"#utility.yul\":9355:9380   */\n      swap3\n      pop\n        /* \"#utility.yul\":9548:9549   */\n      dup2\n        /* \"#utility.yul\":9480:9546   */\n      0xffffffffffffffffffffffffffffffffffffffffffffffffffffffffffffffff\n        /* \"#utility.yul\":9476:9550   */\n      div\n        /* \"#utility.yul\":9473:9474   */\n      dup4\n        /* \"#utility.yul\":9470:9551   */\n      gt\n        /* \"#utility.yul\":9465:9466   */\n      dup3\n        /* \"#utility.yul\":9458:9467   */\n      iszero\n        /* \"#utility.yul\":9451:9468   */\n      iszero\n        /* \"#utility.yul\":9447:9552   */\n      and\n        /* \"#utility.yul\":9444:9446   */\n      iszero\n      tag_458\n      jumpi\n        /* \"#utility.yul\":9555:9573   */\n      tag_459\n      tag_430\n      jump\t// in\n    tag_459:\n        /* \"#utility.yul\":9444:9446   */\n    tag_458:\n        /* \"#utility.yul\":9603:9604   */\n      dup3\n        /* \"#utility.yul\":9600:9601   */\n      dup3\n        /* \"#utility.yul\":9596:9605   */\n      mul\n        /* \"#utility.yul\":9585:9605   */\n      swap1\n      pop\n        /* \"#utility.yul\":9311:9611   */\n      swap3\n      swap2\n      pop\n      pop\n      jump\t// out\n        /* \"#utility.yul\":9617:9808   */\n    tag_159:\n      0x00\n        /* \"#utility.yul\":9677:9697   */\n      tag_461\n        /* \"#utility.yul\":9695:9696   */\n      dup3\n        /* \"#utility.yul\":9677:9697   */\n      tag_389\n      jump\t// in\n    tag_461:\n        /* \"#utility.yul\":9672:9697   */\n      swap2\n      pop\n        /* \"#utility.yul\":9711:9731   */\n      tag_462\n        /* \"#utility.yul\":9729:9730   */\n      dup4\n        /* \"#utility.yul\":9711:9731   */\n      tag_389\n      jump\t// in\n    tag_462:\n        /* \"#utility.yul\":9706:9731   */\n      swap3\n      pop\n        /* \"#utility.yul\":9750:9751   */\n      dup3\n        /* \"#utility.yul\":9747:9748   */\n      dup3\n        /* \"#utility.yul\":9744:9752   */\n      lt\n        /* \"#utility.yul\":9741:9743   */\n      iszero\n      tag_463\n      jumpi\n        /* \"#utility.yul\":9755:9773   */\n      tag_464\n      tag_430\n      jump\t// in\n    tag_464:\n        /* \"#utility.yul\":9741:9743   */\n    tag_463:\n        /* \"#utility.yul\":9800:9801   */\n      dup3\n        /* \"#utility.yul\":9797:9798   */\n      dup3\n        /* \"#utility.yul\":9793:9802   */\n      sub\n        /* \"#utility.yul\":9785:9802   */\n      swap1\n      pop\n        /* \"#utility.yul\":9662:9808   */\n      swap3\n      swap2\n      pop\n      pop\n      jump\t// out\n        /* \"#utility.yul\":9814:9910   */\n    tag_365:\n      0x00\n        /* \"#utility.yul\":9880:9904   */\n      tag_466\n        /* \"#utility.yul\":9898:9903   */\n      dup3\n        /* \"#utility.yul\":9880:9904   */\n      tag_467\n      jump\t// in\n    tag_466:\n        /* \"#utility.yul\":9869:9904   */\n      swap1\n      pop\n        /* \"#utility.yul\":9859:9910   */\n      swap2\n      swap1\n      pop\n      jump\t// out\n        /* \"#utility.yul\":9916:10006   */\n    tag_369:\n      0x00\n        /* \"#utility.yul\":9993:9998   */\n      dup2\n        /* \"#utility.yul\":9986:9999   */\n      iszero\n        /* \"#utility.yul\":9979:10000   */\n      iszero\n        /* \"#utility.yul\":9968:10000   */\n      swap1\n      pop\n        /* \"#utility.yul\":9958:10006   */\n      swap2\n      swap1\n      pop\n      jump\t// out\n        /* \"#utility.yul\":10012:10138   */\n    tag_467:\n      0x00\n        /* \"#utility.yul\":10089:10131   */\n      0xffffffffffffffffffffffffffffffffffffffff\n        /* \"#utility.yul\":10082:10087   */\n      dup3\n        /* \"#utility.yul\":10078:10132   */\n      and\n        /* \"#utility.yul\":10067:10132   */\n      swap1\n      pop\n        /* \"#utility.yul\":10057:10138   */\n      swap2\n      swap1\n      pop\n      jump\t// out\n        /* \"#utility.yul\":10144:10221   */\n    tag_389:\n      0x00\n        /* \"#utility.yul\":10210:10215   */\n      dup2\n        /* \"#utility.yul\":10199:10215   */\n      swap1\n      pop\n        /* \"#utility.yul\":10189:10221   */\n      swap2\n      swap1\n      pop\n      jump\t// out\n        /* \"#utility.yul\":10227:10313   */\n    tag_393:\n      0x00\n        /* \"#utility.yul\":10302:10306   */\n      0xff\n        /* \"#utility.yul\":10295:10300   */\n      dup3\n        /* \"#utility.yul\":10291:10307   */\n      and\n        /* \"#utility.yul\":10280:10307   */\n      swap1\n      pop\n        /* \"#utility.yul\":10270:10313   */\n      swap2\n      swap1\n      pop\n      jump\t// out\n        /* \"#utility.yul\":10319:10440   */\n    tag_381:\n      0x00\n        /* \"#utility.yul\":10410:10434   */\n      tag_473\n        /* \"#utility.yul\":10428:10433   */\n      dup3\n        /* \"#utility.yul\":10410:10434   */\n      tag_389\n      jump\t// in\n    tag_473:\n        /* \"#utility.yul\":10397:10434   */\n      swap1\n      pop\n        /* \"#utility.yul\":10387:10440   */\n      swap2\n      swap1\n      pop\n      jump\t// out\n        /* \"#utility.yul\":10446:10567   */\n    tag_385:\n      0x00\n        /* \"#utility.yul\":10537:10561   */\n      tag_475\n        /* \"#utility.yul\":10555:10560   */\n      dup3\n        /* \"#utility.yul\":10537:10561   */\n      tag_389\n      jump\t// in\n    tag_475:\n        /* \"#utility.yul\":10524:10561   */\n      swap1\n      pop\n        /* \"#utility.yul\":10514:10567   */\n      swap2\n      swap1\n      pop\n      jump\t// out\n        /* \"#utility.yul\":10573:10880   */\n    tag_377:\n        /* \"#utility.yul\":10641:10642   */\n      0x00\n        /* \"#utility.yul\":10651:10764   */\n    tag_477:\n        /* \"#utility.yul\":10665:10671   */\n      dup4\n        /* \"#utility.yul\":10662:10663   */\n      dup2\n        /* \"#utility.yul\":10659:10672   */\n      lt\n        /* \"#utility.yul\":10651:10764   */\n      iszero\n      tag_479\n      jumpi\n        /* \"#utility.yul\":10750:10751   */\n      dup1\n        /* \"#utility.yul\":10745:10748   */\n      dup3\n        /* \"#utility.yul\":10741:10752   */\n      add\n        /* \"#utility.yul\":10735:10753   */\n      mload\n        /* \"#utility.yul\":10731:10732   */\n      dup2\n        /* \"#utility.yul\":10726:10729   */\n      dup5\n        /* \"#utility.yul\":10722:10733   */\n      add\n        /* \"#utility.yul\":10715:10754   */\n      mstore\n        /* \"#utility.yul\":10687:10689   */\n      0x20\n        /* \"#utility.yul\":10684:10685   */\n      dup2\n        /* \"#utility.yul\":10680:10690   */\n      add\n        /* \"#utility.yul\":10675:10690   */\n      swap1\n      pop\n        /* \"#utility.yul\":10651:10764   */\n      jump(tag_477)\n    tag_479:\n        /* \"#utility.yul\":10782:10788   */\n      dup4\n        /* \"#utility.yul\":10779:10780   */\n      dup2\n        /* \"#utility.yul\":10776:10789   */\n      gt\n        /* \"#utility.yul\":10773:10775   */\n      iszero\n      tag_480\n      jumpi\n        /* \"#utility.yul\":10862:10863   */\n      0x00\n        /* \"#utility.yul\":10853:10859   */\n      dup5\n        /* \"#utility.yul\":10848:10851   */\n      dup5\n        /* \"#utility.yul\":10844:10860   */\n      add\n        /* \"#utility.yul\":10837:10864   */\n      mstore\n        /* \"#utility.yul\":10773:10775   */\n    tag_480:\n        /* \"#utility.yul\":10622:10880   */\n      pop\n      pop\n      pop\n      pop\n      jump\t// out\n        /* \"#utility.yul\":10886:11066   */\n    tag_430:\n        /* \"#utility.yul\":10934:11011   */\n      0x4e487b7100000000000000000000000000000000000000000000000000000000\n        /* \"#utility.yul\":10931:10932   */\n      0x00\n        /* \"#utility.yul\":10924:11012   */\n      mstore\n        /* \"#utility.yul\":11031:11035   */\n      0x11\n        /* \"#utility.yul\":11028:11029   */\n      0x04\n        /* \"#utility.yul\":11021:11036   */\n      mstore\n        /* \"#utility.yul\":11055:11059   */\n      0x24\n        /* \"#utility.yul\":11052:11053   */\n      0x00\n        /* \"#utility.yul\":11045:11060   */\n      revert\n        /* \"#utility.yul\":11072:11252   */\n    tag_422:\n        /* \"#utility.yul\":11120:11197   */\n      0x4e487b7100000000000000000000000000000000000000000000000000000000\n        /* \"#utility.yul\":11117:11118   */\n      0x00\n        /* \"#utility.yul\":11110:11198   */\n      mstore\n        /* \"#utility.yul\":11217:11221   */\n      0x12\n        /* \"#utility.yul\":11214:11215   */\n      0x04\n        /* \"#utility.yul\":11207:11222   */\n      mstore\n        /* \"#utility.yul\":11241:11245   */\n      0x24\n        /* \"#utility.yul\":11238:11239   */\n      0x00\n        /* \"#utility.yul\":11231:11246   */\n      revert\n        /* \"#utility.yul\":11258:11360   */\n    tag_433:\n      0x00\n        /* \"#utility.yul\":11347:11352   */\n      dup2\n        /* \"#utility.yul\":11344:11345   */\n      0x01\n        /* \"#utility.yul\":11340:11353   */\n      shr\n        /* \"#utility.yul\":11319:11353   */\n      swap1\n      pop\n        /* \"#utility.yul\":11309:11360   */\n      swap2\n      swap1\n      pop\n      jump\t// out\n        /* \"#utility.yul\":11366:11488   */\n    tag_321:\n        /* \"#utility.yul\":11439:11463   */\n      tag_485\n        /* \"#utility.yul\":11457:11462   */\n      dup2\n        /* \"#utility.yul\":11439:11463   */\n      tag_365\n      jump\t// in\n    tag_485:\n        /* \"#utility.yul\":11432:11437   */\n      dup2\n        /* \"#utility.yul\":11429:11464   */\n      eq\n        /* \"#utility.yul\":11419:11421   */\n      tag_486\n      jumpi\n        /* \"#utility.yul\":11478:11479   */\n      0x00\n        /* \"#utility.yul\":11475:11476   */\n      dup1\n        /* \"#utility.yul\":11468:11480   */\n      revert\n        /* \"#utility.yul\":11419:11421   */\n    tag_486:\n        /* \"#utility.yul\":11409:11488   */\n      pop\n      jump\t// out\n        /* \"#utility.yul\":11494:11610   */\n    tag_328:\n        /* \"#utility.yul\":11564:11585   */\n      tag_488\n        /* \"#utility.yul\":11579:11584   */\n      dup2\n        /* \"#utility.yul\":11564:11585   */\n      tag_369\n      jump\t// in\n    tag_488:\n        /* \"#utility.yul\":11557:11562   */\n      dup2\n        /* \"#utility.yul\":11554:11586   */\n      eq\n        /* \"#utility.yul\":11544:11546   */\n      tag_489\n      jumpi\n        /* \"#utility.yul\":11600:11601   */\n      0x00\n        /* \"#utility.yul\":11597:11598   */\n      dup1\n        /* \"#utility.yul\":11590:11602   */\n      revert\n        /* \"#utility.yul\":11544:11546   */\n    tag_489:\n        /* \"#utility.yul\":11534:11610   */\n      pop\n      jump\t// out\n        /* \"#utility.yul\":11616:11738   */\n    tag_332:\n        /* \"#utility.yul\":11689:11713   */\n      tag_491\n        /* \"#utility.yul\":11707:11712   */\n      dup2\n        /* \"#utility.yul\":11689:11713   */\n      tag_389\n      jump\t// in\n    tag_491:\n        /* \"#utility.yul\":11682:11687   */\n      dup2\n        /* \"#utility.yul\":11679:11714   */\n      eq\n        /* \"#utility.yul\":11669:11671   */\n      tag_492\n      jumpi\n        /* \"#utility.yul\":11728:11729   */\n      0x00\n        /* \"#utility.yul\":11725:11726   */\n      dup1\n        /* \"#utility.yul\":11718:11730   */\n      revert\n        /* \"#utility.yul\":11669:11671   */\n    tag_492:\n        /* \"#utility.yul\":11659:11738   */\n      pop\n      jump\t// out\n        /* \"#utility.yul\":11744:11862   */\n    tag_339:\n        /* \"#utility.yul\":11815:11837   */\n      tag_494\n        /* \"#utility.yul\":11831:11836   */\n      dup2\n        /* \"#utility.yul\":11815:11837   */\n      tag_393\n      jump\t// in\n    tag_494:\n        /* \"#utility.yul\":11808:11813   */\n      dup2\n        /* \"#utility.yul\":11805:11838   */\n      eq\n        /* \"#utility.yul\":11795:11797   */\n      tag_495\n      jumpi\n        /* \"#utility.yul\":11852:11853   */\n      0x00\n        /* \"#utility.yul\":11849:11850   */\n      dup1\n        /* \"#utility.yul\":11842:11854   */\n      revert\n        /* \"#utility.yul\":11795:11797   */\n    tag_495:\n        /* \"#utility.yul\":11785:11862   */\n      pop\n      jump\t// out\n\n    auxdata: 0xa2646970667358221220a60eef13d1525ade256ba6db930ec0cfbfcf9435079e997330afc9bb0b00e5e964736f6c63430008010033\n}\n",
				"bytecode": {
					"linkReferences": {},
					"object": "60a060405234801561001057600080fd5b503373ffffffffffffffffffffffffffffffffffffffff1660808173ffffffffffffffffffffffffffffffffffffffff1660601b815250506001600360006101000a81548160ff021916908360ff16021790555060805160601c6124676100c1600039600081816103fe0152818161049d0152818161067b01528181610ccd01528181610d6f01528181610e1701528181610ebd01528181611a6901528181611b5c0152611bd201526124676000f3fe6080604052600436106101025760003560e01c80637d0f7a8811610095578063cf9d4afa11610064578063cf9d4afa14610315578063ec5568891461033e578063f83d08ba14610369578063f9f92be414610394578063fed0a20e146103d15761010c565b80637d0f7a881461026f5780639be56034146102ac5780639e955149146102d5578063b4b15df5146102fe5761010c565b806344337ea1116100d157806344337ea1146101b5578063537df3b6146101f25780635ecaf1c81461022f5780636c11bcd3146102465761010c565b806316da8632146101115780632637a4771461013a578063365afe2f146101635780634051b9aa1461018c5761010c565b3661010c57600080fd5b600080fd5b34801561011d57600080fd5b5061013860048036038101906101339190611da2565b6103fc565b005b34801561014657600080fd5b50610161600480360381019061015c9190611da2565b61049b565b005b34801561016f57600080fd5b5061018a60048036038101906101859190611df4565b6106b2565b005b34801561019857600080fd5b506101b360048036038101906101ae9190611da2565b610ccb565b005b3480156101c157600080fd5b506101dc60048036038101906101d79190611da2565b610d6b565b6040516101e99190611ff1565b60405180910390f35b3480156101fe57600080fd5b5061021960048036038101906102149190611da2565b610e13565b6040516102269190611ff1565b60405180910390f35b34801561023b57600080fd5b50610244610ebb565b005b34801561025257600080fd5b5061026d60048036038101906102689190611e59565b610f31565b005b34801561027b57600080fd5b5061029660048036038101906102919190611da2565b611430565b6040516102a39190612042565b60405180910390f35b3480156102b857600080fd5b506102d360048036038101906102ce9190611df4565b611448565b005b3480156102e157600080fd5b506102fc60048036038101906102f79190611da2565b611a67565b005b34801561030a57600080fd5b50610313611b5a565b005b34801561032157600080fd5b5061033c60048036038101906103379190611da2565b611bd0565b005b34801561034a57600080fd5b50610353611cc2565b6040516103609190611f76565b60405180910390f35b34801561037557600080fd5b5061037e611ce6565b60405161038b919061205d565b60405180910390f35b3480156103a057600080fd5b506103bb60048036038101906103b69190611da2565b611cf9565b6040516103c89190612042565b60405180910390f35b3480156103dd57600080fd5b506103e6611d11565b6040516103f3919061205d565b60405180910390f35b7f000000000000000000000000000000000000000000000000000000000000000073ffffffffffffffffffffffffffffffffffffffff163373ffffffffffffffffffffffffffffffffffffffff161461045457600080fd5b60018060008373ffffffffffffffffffffffffffffffffffffffff1673ffffffffffffffffffffffffffffffffffffffff1681526020019081526020016000208190555050565b7f000000000000000000000000000000000000000000000000000000000000000073ffffffffffffffffffffffffffffffffffffffff163373ffffffffffffffffffffffffffffffffffffffff16146104f357600080fd5b60008060009054906101000a900473ffffffffffffffffffffffffffffffffffffffff1690508073ffffffffffffffffffffffffffffffffffffffff16638ae91695836040518263ffffffff1660e01b81526004016105529190611f76565b600060405180830381600087803b15801561056c57600080fd5b505af1158015610580573d6000803e3d6000fd5b505050508173ffffffffffffffffffffffffffffffffffffffff16816040516024016105ac9190611f76565b6040516020818303038152906040527fcf9d4afa000000000000000000000000000000000000000000000000000000007bffffffffffffffffffffffffffffffffffffffffffffffffffffffff19166020820180517bffffffffffffffffffffffffffffffffffffffffffffffffffffffff83818316178352505050506040516106369190611f5f565b600060405180830381855af49150503d8060008114610671576040519150601f19603f3d011682016040523d82523d6000602084013e610676565b606091505b5050507f000000000000000000000000000000000000000000000000000000000000000073ffffffffffffffffffffffffffffffffffffffff16ff5b6001600260003373ffffffffffffffffffffffffffffffffffffffff1673ffffffffffffffffffffffffffffffffffffffff1681526020019081526020016000205414156106ff57600080fd5b6000600360009054906101000a900460ff1660ff161461071e57600080fd5b8160018060008373ffffffffffffffffffffffffffffffffffffffff1673ffffffffffffffffffffffffffffffffffffffff168152602001908152602001600020541461076a57600080fd5b60008060009054906101000a900473ffffffffffffffffffffffffffffffffffffffff16905060008173ffffffffffffffffffffffffffffffffffffffff166311ce02676040518163ffffffff1660e01b815260040160206040518083038186803b1580156107d857600080fd5b505afa1580156107ec573d6000803e3d6000fd5b505050506040513d601f19601f820116820180604052508101906108109190611dcb565b905060008173ffffffffffffffffffffffffffffffffffffffff16630cb1982b8473ffffffffffffffffffffffffffffffffffffffff1663da8909e56040518163ffffffff1660e01b815260040160206040518083038186803b15801561087657600080fd5b505afa15801561088a573d6000803e3d6000fd5b505050506040513d601f19601f820116820180604052508101906108ae9190611dcb565b73ffffffffffffffffffffffffffffffffffffffff1663bdedd45e60006040518263ffffffff1660e01b81526004016108e7919061200c565b602060405180830381600087803b15801561090157600080fd5b505af1158015610915573d6000803e3d6000fd5b505050506040513d601f19601f820116820180604052508101906109399190611e82565b6040518263ffffffff1660e01b81526004016109559190612042565b602060405180830381600087803b15801561096f57600080fd5b505af1158015610983573d6000803e3d6000fd5b505050506040513d601f19601f820116820180604052508101906109a79190611e82565b90506000808773ffffffffffffffffffffffffffffffffffffffff1663313ce5676040518163ffffffff1660e01b815260040160206040518083038186803b1580156109f257600080fd5b505afa158015610a06573d6000803e3d6000fd5b505050506040513d601f19601f82011682018060405250810190610a2a9190611eab565b60ff16905060008873ffffffffffffffffffffffffffffffffffffffff166318160ddd6040518163ffffffff1660e01b815260040160206040518083038186803b158015610a7757600080fd5b505afa158015610a8b573d6000803e3d6000fd5b505050506040513d601f19601f82011682018060405250810190610aaf9190611e82565b90506012821015610afb57816012610ac7919061228a565b600a610ad39190612112565b8185610adf919061208e565b89610aea9190612230565b610af4919061208e565b9250610b15565b8084610b07919061208e565b88610b129190612230565b92505b8873ffffffffffffffffffffffffffffffffffffffff166323b872dd3387866040518463ffffffff1660e01b8152600401610b5293929190611f91565b602060405180830381600087803b158015610b6c57600080fd5b505af1158015610b80573d6000803e3d6000fd5b505050506040513d601f19601f82011682018060405250810190610ba49190611e30565b610bad57600080fd5b8573ffffffffffffffffffffffffffffffffffffffff1663fc0c546a6040518163ffffffff1660e01b815260040160206040518083038186803b158015610bf357600080fd5b505afa158015610c07573d6000803e3d6000fd5b505050506040513d601f19601f82011682018060405250810190610c2b9190611dcb565b73ffffffffffffffffffffffffffffffffffffffff166340c10f19338a6040518363ffffffff1660e01b8152600401610c65929190611fc8565b602060405180830381600087803b158015610c7f57600080fd5b505af1158015610c93573d6000803e3d6000fd5b505050506040513d601f19601f82011682018060405250810190610cb79190611e30565b610cc057600080fd5b505050505050505050565b7f000000000000000000000000000000000000000000000000000000000000000073ffffffffffffffffffffffffffffffffffffffff163373ffffffffffffffffffffffffffffffffffffffff1614610d2357600080fd5b6000600160008373ffffffffffffffffffffffffffffffffffffffff1673ffffffffffffffffffffffffffffffffffffffff1681526020019081526020016000208190555050565b60007f000000000000000000000000000000000000000000000000000000000000000073ffffffffffffffffffffffffffffffffffffffff163373ffffffffffffffffffffffffffffffffffffffff1614610dc557600080fd5b6001600260008473ffffffffffffffffffffffffffffffffffffffff1673ffffffffffffffffffffffffffffffffffffffff1681526020019081526020016000208190555060019050919050565b60007f000000000000000000000000000000000000000000000000000000000000000073ffffffffffffffffffffffffffffffffffffffff163373ffffffffffffffffffffffffffffffffffffffff1614610e6d57600080fd5b6000600260008473ffffffffffffffffffffffffffffffffffffffff1673ffffffffffffffffffffffffffffffffffffffff1681526020019081526020016000208190555060019050919050565b7f000000000000000000000000000000000000000000000000000000000000000073ffffffffffffffffffffffffffffffffffffffff163373ffffffffffffffffffffffffffffffffffffffff1614610f1357600080fd5b6000600360006101000a81548160ff021916908360ff160217905550565b6001600260003373ffffffffffffffffffffffffffffffffffffffff1673ffffffffffffffffffffffffffffffffffffffff168152602001908152602001600020541415610f7e57600080fd5b6000600360009054906101000a900460ff1660ff1614610f9d57600080fd5b60008060009054906101000a900473ffffffffffffffffffffffffffffffffffffffff16905060008173ffffffffffffffffffffffffffffffffffffffff166311ce02676040518163ffffffff1660e01b815260040160206040518083038186803b15801561100b57600080fd5b505afa15801561101f573d6000803e3d6000fd5b505050506040513d601f19601f820116820180604052508101906110439190611dcb565b905060008273ffffffffffffffffffffffffffffffffffffffff1663fc0c546a6040518163ffffffff1660e01b815260040160206040518083038186803b15801561108d57600080fd5b505afa1580156110a1573d6000803e3d6000fd5b505050506040513d601f19601f820116820180604052508101906110c59190611dcb565b90508073ffffffffffffffffffffffffffffffffffffffff166379cc679033866040518363ffffffff1660e01b8152600401611102929190611fc8565b602060405180830381600087803b15801561111c57600080fd5b505af1158015611130573d6000803e3d6000fd5b505050506040513d601f19601f820116820180604052508101906111549190611e30565b61115d57600080fd5b60008273ffffffffffffffffffffffffffffffffffffffff16630cb1982b8573ffffffffffffffffffffffffffffffffffffffff1663da8909e56040518163ffffffff1660e01b815260040160206040518083038186803b1580156111c157600080fd5b505afa1580156111d5573d6000803e3d6000fd5b505050506040513d601f19601f820116820180604052508101906111f99190611dcb565b73ffffffffffffffffffffffffffffffffffffffff1663bdedd45e60016040518263ffffffff1660e01b81526004016112329190612027565b602060405180830381600087803b15801561124c57600080fd5b505af1158015611260573d6000803e3d6000fd5b505050506040513d601f19601f820116820180604052508101906112849190611e82565b6040518263ffffffff1660e01b81526004016112a09190612042565b602060405180830381600087803b1580156112ba57600080fd5b505af11580156112ce573d6000803e3d6000fd5b505050506040513d601f19601f820116820180604052508101906112f29190611e82565b905060008273ffffffffffffffffffffffffffffffffffffffff166318160ddd6040518163ffffffff1660e01b815260040160206040518083038186803b15801561133c57600080fd5b505afa158015611350573d6000803e3d6000fd5b505050506040513d601f19601f820116820180604052508101906113749190611e82565b905060008183611384919061208e565b8761138f9190612230565b90508473ffffffffffffffffffffffffffffffffffffffff1663990dc9db33836040518363ffffffff1660e01b81526004016113cc929190611fc8565b602060405180830381600087803b1580156113e657600080fd5b505af11580156113fa573d6000803e3d6000fd5b505050506040513d601f19601f8201168201806040525081019061141e9190611e30565b61142757600080fd5b50505050505050565b60016020528060005260406000206000915090505481565b6001600260003373ffffffffffffffffffffffffffffffffffffffff1673ffffffffffffffffffffffffffffffffffffffff16815260200190815260200160002054141561149557600080fd5b6000600360009054906101000a900460ff1660ff16146114b457600080fd5b8160018060008373ffffffffffffffffffffffffffffffffffffffff1673ffffffffffffffffffffffffffffffffffffffff168152602001908152602001600020541461150057600080fd5b60008060009054906101000a900473ffffffffffffffffffffffffffffffffffffffff16905060008173ffffffffffffffffffffffffffffffffffffffff166311ce02676040518163ffffffff1660e01b815260040160206040518083038186803b15801561156e57600080fd5b505afa158015611582573d6000803e3d6000fd5b505050506040513d601f19601f820116820180604052508101906115a69190611dcb565b905060008173ffffffffffffffffffffffffffffffffffffffff16630cb1982b8473ffffffffffffffffffffffffffffffffffffffff1663da8909e56040518163ffffffff1660e01b815260040160206040518083038186803b15801561160c57600080fd5b505afa158015611620573d6000803e3d6000fd5b505050506040513d601f19601f820116820180604052508101906116449190611dcb565b73ffffffffffffffffffffffffffffffffffffffff1663bdedd45e60006040518263ffffffff1660e01b815260040161167d919061200c565b602060405180830381600087803b15801561169757600080fd5b505af11580156116ab573d6000803e3d6000fd5b505050506040513d601f19601f820116820180604052508101906116cf9190611e82565b6040518263ffffffff1660e01b81526004016116eb9190612042565b602060405180830381600087803b15801561170557600080fd5b505af1158015611719573d6000803e3d6000fd5b505050506040513d601f19601f8201168201806040525081019061173d9190611e82565b90506000808773ffffffffffffffffffffffffffffffffffffffff1663313ce5676040518163ffffffff1660e01b815260040160206040518083038186803b15801561178857600080fd5b505afa15801561179c573d6000803e3d6000fd5b505050506040513d601f19601f820116820180604052508101906117c09190611eab565b60ff16905060008873ffffffffffffffffffffffffffffffffffffffff166318160ddd6040518163ffffffff1660e01b815260040160206040518083038186803b15801561180d57600080fd5b505afa158015611821573d6000803e3d6000fd5b505050506040513d601f19601f820116820180604052508101906118459190611e82565b9050600060128310156118965782601261185f919061228a565b600a61186b9190612112565b896118769190612230565b93508185611884919061208e565b8461188f919061208e565b90506118b0565b81856118a2919061208e565b846118ad919061208e565b90505b8973ffffffffffffffffffffffffffffffffffffffff166323b872dd3388876040518463ffffffff1660e01b81526004016118ed93929190611f91565b602060405180830381600087803b15801561190757600080fd5b505af115801561191b573d6000803e3d6000fd5b505050506040513d601f19601f8201168201806040525081019061193f9190611e30565b61194857600080fd5b8673ffffffffffffffffffffffffffffffffffffffff1663fc0c546a6040518163ffffffff1660e01b815260040160206040518083038186803b15801561198e57600080fd5b505afa1580156119a2573d6000803e3d6000fd5b505050506040513d601f19601f820116820180604052508101906119c69190611dcb565b73ffffffffffffffffffffffffffffffffffffffff166340c10f19338b6040518363ffffffff1660e01b8152600401611a00929190611fc8565b602060405180830381600087803b158015611a1a57600080fd5b505af1158015611a2e573d6000803e3d6000fd5b505050506040513d601f19601f82011682018060405250810190611a529190611e30565b611a5b57600080fd5b50505050505050505050565b7f000000000000000000000000000000000000000000000000000000000000000073ffffffffffffffffffffffffffffffffffffffff163373ffffffffffffffffffffffffffffffffffffffff1614611abf57600080fd5b60008054906101000a900473ffffffffffffffffffffffffffffffffffffffff1673ffffffffffffffffffffffffffffffffffffffff163373ffffffffffffffffffffffffffffffffffffffff1614611b1757600080fd5b806000806101000a81548173ffffffffffffffffffffffffffffffffffffffff021916908373ffffffffffffffffffffffffffffffffffffffff16021790555050565b7f000000000000000000000000000000000000000000000000000000000000000073ffffffffffffffffffffffffffffffffffffffff163373ffffffffffffffffffffffffffffffffffffffff1614611bb257600080fd5b6001600360006101000a81548160ff021916908360ff160217905550565b7f000000000000000000000000000000000000000000000000000000000000000073ffffffffffffffffffffffffffffffffffffffff163373ffffffffffffffffffffffffffffffffffffffff1614611c2857600080fd5b6000600360019054906101000a900460ff1660ff1614611c4757600080fd5b6000600360006101000a81548160ff021916908360ff160217905550806000806101000a81548173ffffffffffffffffffffffffffffffffffffffff021916908373ffffffffffffffffffffffffffffffffffffffff1602179055506001600360016101000a81548160ff021916908360ff16021790555050565b60008054906101000a900473ffffffffffffffffffffffffffffffffffffffff1681565b600360009054906101000a900460ff1681565b60026020528060005260406000206000915090505481565b600360019054906101000a900460ff1681565b600081359050611d33816123d5565b92915050565b600081519050611d48816123d5565b92915050565b600081519050611d5d816123ec565b92915050565b600081359050611d7281612403565b92915050565b600081519050611d8781612403565b92915050565b600081519050611d9c8161241a565b92915050565b600060208284031215611db457600080fd5b6000611dc284828501611d24565b91505092915050565b600060208284031215611ddd57600080fd5b6000611deb84828501611d39565b91505092915050565b60008060408385031215611e0757600080fd5b6000611e1585828601611d24565b9250506020611e2685828601611d63565b9150509250929050565b600060208284031215611e4257600080fd5b6000611e5084828501611d4e565b91505092915050565b600060208284031215611e6b57600080fd5b6000611e7984828501611d63565b91505092915050565b600060208284031215611e9457600080fd5b6000611ea284828501611d78565b91505092915050565b600060208284031215611ebd57600080fd5b6000611ecb84828501611d8d565b91505092915050565b611edd816122be565b82525050565b611eec816122d0565b82525050565b6000611efd82612078565b611f078185612083565b9350611f17818560208601612337565b80840191505092915050565b611f2c81612313565b82525050565b611f3b81612325565b82525050565b611f4a816122fc565b82525050565b611f5981612306565b82525050565b6000611f6b8284611ef2565b915081905092915050565b6000602082019050611f8b6000830184611ed4565b92915050565b6000606082019050611fa66000830186611ed4565b611fb36020830185611ed4565b611fc06040830184611f41565b949350505050565b6000604082019050611fdd6000830185611ed4565b611fea6020830184611f41565b9392505050565b60006020820190506120066000830184611ee3565b92915050565b60006020820190506120216000830184611f23565b92915050565b600060208201905061203c6000830184611f32565b92915050565b60006020820190506120576000830184611f41565b92915050565b60006020820190506120726000830184611f50565b92915050565b600081519050919050565b600081905092915050565b6000612099826122fc565b91506120a4836122fc565b9250826120b4576120b3612399565b5b828204905092915050565b6000808291508390505b6001851115612109578086048111156120e5576120e461236a565b5b60018516156120f45780820291505b8081029050612102856123c8565b94506120c9565b94509492505050565b600061211d826122fc565b9150612128836122fc565b92506121557fffffffffffffffffffffffffffffffffffffffffffffffffffffffffffffffff848461215d565b905092915050565b60008261216d5760019050612229565b8161217b5760009050612229565b8160018114612191576002811461219b576121ca565b6001915050612229565b60ff8411156121ad576121ac61236a565b5b8360020a9150848211156121c4576121c361236a565b5b50612229565b5060208310610133831016604e8410600b84101617156121ff5782820a9050838111156121fa576121f961236a565b5b612229565b61220c84848460016120bf565b925090508184048111156122235761222261236a565b5b81810290505b9392505050565b600061223b826122fc565b9150612246836122fc565b9250817fffffffffffffffffffffffffffffffffffffffffffffffffffffffffffffffff048311821515161561227f5761227e61236a565b5b828202905092915050565b6000612295826122fc565b91506122a0836122fc565b9250828210156122b3576122b261236a565b5b828203905092915050565b60006122c9826122dc565b9050919050565b60008115159050919050565b600073ffffffffffffffffffffffffffffffffffffffff82169050919050565b6000819050919050565b600060ff82169050919050565b600061231e826122fc565b9050919050565b6000612330826122fc565b9050919050565b60005b8381101561235557808201518184015260208101905061233a565b83811115612364576000848401525b50505050565b7f4e487b7100000000000000000000000000000000000000000000000000000000600052601160045260246000fd5b7f4e487b7100000000000000000000000000000000000000000000000000000000600052601260045260246000fd5b60008160011c9050919050565b6123de816122be565b81146123e957600080fd5b50565b6123f5816122d0565b811461240057600080fd5b50565b61240c816122fc565b811461241757600080fd5b50565b61242381612306565b811461242e57600080fd5b5056fea2646970667358221220a60eef13d1525ade256ba6db930ec0cfbfcf9435079e997330afc9bb0b00e5e964736f6c63430008010033",
					"opcodes": "PUSH1 0xA0 PUSH1 0x40 MSTORE CALLVALUE DUP1 ISZERO PUSH2 0x10 JUMPI PUSH1 0x0 DUP1 REVERT JUMPDEST POP CALLER PUSH20 0xFFFFFFFFFFFFFFFFFFFFFFFFFFFFFFFFFFFFFFFF AND PUSH1 0x80 DUP2 PUSH20 0xFFFFFFFFFFFFFFFFFFFFFFFFFFFFFFFFFFFFFFFF AND PUSH1 0x60 SHL DUP2 MSTORE POP POP PUSH1 0x1 PUSH1 0x3 PUSH1 0x0 PUSH2 0x100 EXP DUP2 SLOAD DUP2 PUSH1 0xFF MUL NOT AND SWAP1 DUP4 PUSH1 0xFF AND MUL OR SWAP1 SSTORE POP PUSH1 0x80 MLOAD PUSH1 0x60 SHR PUSH2 0x2467 PUSH2 0xC1 PUSH1 0x0 CODECOPY PUSH1 0x0 DUP2 DUP2 PUSH2 0x3FE ADD MSTORE DUP2 DUP2 PUSH2 0x49D ADD MSTORE DUP2 DUP2 PUSH2 0x67B ADD MSTORE DUP2 DUP2 PUSH2 0xCCD ADD MSTORE DUP2 DUP2 PUSH2 0xD6F ADD MSTORE DUP2 DUP2 PUSH2 0xE17 ADD MSTORE DUP2 DUP2 PUSH2 0xEBD ADD MSTORE DUP2 DUP2 PUSH2 0x1A69 ADD MSTORE DUP2 DUP2 PUSH2 0x1B5C ADD MSTORE PUSH2 0x1BD2 ADD MSTORE PUSH2 0x2467 PUSH1 0x0 RETURN INVALID PUSH1 0x80 PUSH1 0x40 MSTORE PUSH1 0x4 CALLDATASIZE LT PUSH2 0x102 JUMPI PUSH1 0x0 CALLDATALOAD PUSH1 0xE0 SHR DUP1 PUSH4 0x7D0F7A88 GT PUSH2 0x95 JUMPI DUP1 PUSH4 0xCF9D4AFA GT PUSH2 0x64 JUMPI DUP1 PUSH4 0xCF9D4AFA EQ PUSH2 0x315 JUMPI DUP1 PUSH4 0xEC556889 EQ PUSH2 0x33E JUMPI DUP1 PUSH4 0xF83D08BA EQ PUSH2 0x369 JUMPI DUP1 PUSH4 0xF9F92BE4 EQ PUSH2 0x394 JUMPI DUP1 PUSH4 0xFED0A20E EQ PUSH2 0x3D1 JUMPI PUSH2 0x10C JUMP JUMPDEST DUP1 PUSH4 0x7D0F7A88 EQ PUSH2 0x26F JUMPI DUP1 PUSH4 0x9BE56034 EQ PUSH2 0x2AC JUMPI DUP1 PUSH4 0x9E955149 EQ PUSH2 0x2D5 JUMPI DUP1 PUSH4 0xB4B15DF5 EQ PUSH2 0x2FE JUMPI PUSH2 0x10C JUMP JUMPDEST DUP1 PUSH4 0x44337EA1 GT PUSH2 0xD1 JUMPI DUP1 PUSH4 0x44337EA1 EQ PUSH2 0x1B5 JUMPI DUP1 PUSH4 0x537DF3B6 EQ PUSH2 0x1F2 JUMPI DUP1 PUSH4 0x5ECAF1C8 EQ PUSH2 0x22F JUMPI DUP1 PUSH4 0x6C11BCD3 EQ PUSH2 0x246 JUMPI PUSH2 0x10C JUMP JUMPDEST DUP1 PUSH4 0x16DA8632 EQ PUSH2 0x111 JUMPI DUP1 PUSH4 0x2637A477 EQ PUSH2 0x13A JUMPI DUP1 PUSH4 0x365AFE2F EQ PUSH2 0x163 JUMPI DUP1 PUSH4 0x4051B9AA EQ PUSH2 0x18C JUMPI PUSH2 0x10C JUMP JUMPDEST CALLDATASIZE PUSH2 0x10C JUMPI PUSH1 0x0 DUP1 REVERT JUMPDEST PUSH1 0x0 DUP1 REVERT JUMPDEST CALLVALUE DUP1 ISZERO PUSH2 0x11D JUMPI PUSH1 0x0 DUP1 REVERT JUMPDEST POP PUSH2 0x138 PUSH1 0x4 DUP1 CALLDATASIZE SUB DUP2 ADD SWAP1 PUSH2 0x133 SWAP2 SWAP1 PUSH2 0x1DA2 JUMP JUMPDEST PUSH2 0x3FC JUMP JUMPDEST STOP JUMPDEST CALLVALUE DUP1 ISZERO PUSH2 0x146 JUMPI PUSH1 0x0 DUP1 REVERT JUMPDEST POP PUSH2 0x161 PUSH1 0x4 DUP1 CALLDATASIZE SUB DUP2 ADD SWAP1 PUSH2 0x15C SWAP2 SWAP1 PUSH2 0x1DA2 JUMP JUMPDEST PUSH2 0x49B JUMP JUMPDEST STOP JUMPDEST CALLVALUE DUP1 ISZERO PUSH2 0x16F JUMPI PUSH1 0x0 DUP1 REVERT JUMPDEST POP PUSH2 0x18A PUSH1 0x4 DUP1 CALLDATASIZE SUB DUP2 ADD SWAP1 PUSH2 0x185 SWAP2 SWAP1 PUSH2 0x1DF4 JUMP JUMPDEST PUSH2 0x6B2 JUMP JUMPDEST STOP JUMPDEST CALLVALUE DUP1 ISZERO PUSH2 0x198 JUMPI PUSH1 0x0 DUP1 REVERT JUMPDEST POP PUSH2 0x1B3 PUSH1 0x4 DUP1 CALLDATASIZE SUB DUP2 ADD SWAP1 PUSH2 0x1AE SWAP2 SWAP1 PUSH2 0x1DA2 JUMP JUMPDEST PUSH2 0xCCB JUMP JUMPDEST STOP JUMPDEST CALLVALUE DUP1 ISZERO PUSH2 0x1C1 JUMPI PUSH1 0x0 DUP1 REVERT JUMPDEST POP PUSH2 0x1DC PUSH1 0x4 DUP1 CALLDATASIZE SUB DUP2 ADD SWAP1 PUSH2 0x1D7 SWAP2 SWAP1 PUSH2 0x1DA2 JUMP JUMPDEST PUSH2 0xD6B JUMP JUMPDEST PUSH1 0x40 MLOAD PUSH2 0x1E9 SWAP2 SWAP1 PUSH2 0x1FF1 JUMP JUMPDEST PUSH1 0x40 MLOAD DUP1 SWAP2 SUB SWAP1 RETURN JUMPDEST CALLVALUE DUP1 ISZERO PUSH2 0x1FE JUMPI PUSH1 0x0 DUP1 REVERT JUMPDEST POP PUSH2 0x219 PUSH1 0x4 DUP1 CALLDATASIZE SUB DUP2 ADD SWAP1 PUSH2 0x214 SWAP2 SWAP1 PUSH2 0x1DA2 JUMP JUMPDEST PUSH2 0xE13 JUMP JUMPDEST PUSH1 0x40 MLOAD PUSH2 0x226 SWAP2 SWAP1 PUSH2 0x1FF1 JUMP JUMPDEST PUSH1 0x40 MLOAD DUP1 SWAP2 SUB SWAP1 RETURN JUMPDEST CALLVALUE DUP1 ISZERO PUSH2 0x23B JUMPI PUSH1 0x0 DUP1 REVERT JUMPDEST POP PUSH2 0x244 PUSH2 0xEBB JUMP JUMPDEST STOP JUMPDEST CALLVALUE DUP1 ISZERO PUSH2 0x252 JUMPI PUSH1 0x0 DUP1 REVERT JUMPDEST POP PUSH2 0x26D PUSH1 0x4 DUP1 CALLDATASIZE SUB DUP2 ADD SWAP1 PUSH2 0x268 SWAP2 SWAP1 PUSH2 0x1E59 JUMP JUMPDEST PUSH2 0xF31 JUMP JUMPDEST STOP JUMPDEST CALLVALUE DUP1 ISZERO PUSH2 0x27B JUMPI PUSH1 0x0 DUP1 REVERT JUMPDEST POP PUSH2 0x296 PUSH1 0x4 DUP1 CALLDATASIZE SUB DUP2 ADD SWAP1 PUSH2 0x291 SWAP2 SWAP1 PUSH2 0x1DA2 JUMP JUMPDEST PUSH2 0x1430 JUMP JUMPDEST PUSH1 0x40 MLOAD PUSH2 0x2A3 SWAP2 SWAP1 PUSH2 0x2042 JUMP JUMPDEST PUSH1 0x40 MLOAD DUP1 SWAP2 SUB SWAP1 RETURN JUMPDEST CALLVALUE DUP1 ISZERO PUSH2 0x2B8 JUMPI PUSH1 0x0 DUP1 REVERT JUMPDEST POP PUSH2 0x2D3 PUSH1 0x4 DUP1 CALLDATASIZE SUB DUP2 ADD SWAP1 PUSH2 0x2CE SWAP2 SWAP1 PUSH2 0x1DF4 JUMP JUMPDEST PUSH2 0x1448 JUMP JUMPDEST STOP JUMPDEST CALLVALUE DUP1 ISZERO PUSH2 0x2E1 JUMPI PUSH1 0x0 DUP1 REVERT JUMPDEST POP PUSH2 0x2FC PUSH1 0x4 DUP1 CALLDATASIZE SUB DUP2 ADD SWAP1 PUSH2 0x2F7 SWAP2 SWAP1 PUSH2 0x1DA2 JUMP JUMPDEST PUSH2 0x1A67 JUMP JUMPDEST STOP JUMPDEST CALLVALUE DUP1 ISZERO PUSH2 0x30A JUMPI PUSH1 0x0 DUP1 REVERT JUMPDEST POP PUSH2 0x313 PUSH2 0x1B5A JUMP JUMPDEST STOP JUMPDEST CALLVALUE DUP1 ISZERO PUSH2 0x321 JUMPI PUSH1 0x0 DUP1 REVERT JUMPDEST POP PUSH2 0x33C PUSH1 0x4 DUP1 CALLDATASIZE SUB DUP2 ADD SWAP1 PUSH2 0x337 SWAP2 SWAP1 PUSH2 0x1DA2 JUMP JUMPDEST PUSH2 0x1BD0 JUMP JUMPDEST STOP JUMPDEST CALLVALUE DUP1 ISZERO PUSH2 0x34A JUMPI PUSH1 0x0 DUP1 REVERT JUMPDEST POP PUSH2 0x353 PUSH2 0x1CC2 JUMP JUMPDEST PUSH1 0x40 MLOAD PUSH2 0x360 SWAP2 SWAP1 PUSH2 0x1F76 JUMP JUMPDEST PUSH1 0x40 MLOAD DUP1 SWAP2 SUB SWAP1 RETURN JUMPDEST CALLVALUE DUP1 ISZERO PUSH2 0x375 JUMPI PUSH1 0x0 DUP1 REVERT JUMPDEST POP PUSH2 0x37E PUSH2 0x1CE6 JUMP JUMPDEST PUSH1 0x40 MLOAD PUSH2 0x38B SWAP2 SWAP1 PUSH2 0x205D JUMP JUMPDEST PUSH1 0x40 MLOAD DUP1 SWAP2 SUB SWAP1 RETURN JUMPDEST CALLVALUE DUP1 ISZERO PUSH2 0x3A0 JUMPI PUSH1 0x0 DUP1 REVERT JUMPDEST POP PUSH2 0x3BB PUSH1 0x4 DUP1 CALLDATASIZE SUB DUP2 ADD SWAP1 PUSH2 0x3B6 SWAP2 SWAP1 PUSH2 0x1DA2 JUMP JUMPDEST PUSH2 0x1CF9 JUMP JUMPDEST PUSH1 0x40 MLOAD PUSH2 0x3C8 SWAP2 SWAP1 PUSH2 0x2042 JUMP JUMPDEST PUSH1 0x40 MLOAD DUP1 SWAP2 SUB SWAP1 RETURN JUMPDEST CALLVALUE DUP1 ISZERO PUSH2 0x3DD JUMPI PUSH1 0x0 DUP1 REVERT JUMPDEST POP PUSH2 0x3E6 PUSH2 0x1D11 JUMP JUMPDEST PUSH1 0x40 MLOAD PUSH2 0x3F3 SWAP2 SWAP1 PUSH2 0x205D JUMP JUMPDEST PUSH1 0x40 MLOAD DUP1 SWAP2 SUB SWAP1 RETURN JUMPDEST PUSH32 0x0 PUSH20 0xFFFFFFFFFFFFFFFFFFFFFFFFFFFFFFFFFFFFFFFF AND CALLER PUSH20 0xFFFFFFFFFFFFFFFFFFFFFFFFFFFFFFFFFFFFFFFF AND EQ PUSH2 0x454 JUMPI PUSH1 0x0 DUP1 REVERT JUMPDEST PUSH1 0x1 DUP1 PUSH1 0x0 DUP4 PUSH20 0xFFFFFFFFFFFFFFFFFFFFFFFFFFFFFFFFFFFFFFFF AND PUSH20 0xFFFFFFFFFFFFFFFFFFFFFFFFFFFFFFFFFFFFFFFF AND DUP2 MSTORE PUSH1 0x20 ADD SWAP1 DUP2 MSTORE PUSH1 0x20 ADD PUSH1 0x0 KECCAK256 DUP2 SWAP1 SSTORE POP POP JUMP JUMPDEST PUSH32 0x0 PUSH20 0xFFFFFFFFFFFFFFFFFFFFFFFFFFFFFFFFFFFFFFFF AND CALLER PUSH20 0xFFFFFFFFFFFFFFFFFFFFFFFFFFFFFFFFFFFFFFFF AND EQ PUSH2 0x4F3 JUMPI PUSH1 0x0 DUP1 REVERT JUMPDEST PUSH1 0x0 DUP1 PUSH1 0x0 SWAP1 SLOAD SWAP1 PUSH2 0x100 EXP SWAP1 DIV PUSH20 0xFFFFFFFFFFFFFFFFFFFFFFFFFFFFFFFFFFFFFFFF AND SWAP1 POP DUP1 PUSH20 0xFFFFFFFFFFFFFFFFFFFFFFFFFFFFFFFFFFFFFFFF AND PUSH4 0x8AE91695 DUP4 PUSH1 0x40 MLOAD DUP3 PUSH4 0xFFFFFFFF AND PUSH1 0xE0 SHL DUP2 MSTORE PUSH1 0x4 ADD PUSH2 0x552 SWAP2 SWAP1 PUSH2 0x1F76 JUMP JUMPDEST PUSH1 0x0 PUSH1 0x40 MLOAD DUP1 DUP4 SUB DUP2 PUSH1 0x0 DUP8 DUP1 EXTCODESIZE ISZERO DUP1 ISZERO PUSH2 0x56C JUMPI PUSH1 0x0 DUP1 REVERT JUMPDEST POP GAS CALL ISZERO DUP1 ISZERO PUSH2 0x580 JUMPI RETURNDATASIZE PUSH1 0x0 DUP1 RETURNDATACOPY RETURNDATASIZE PUSH1 0x0 REVERT JUMPDEST POP POP POP POP DUP2 PUSH20 0xFFFFFFFFFFFFFFFFFFFFFFFFFFFFFFFFFFFFFFFF AND DUP2 PUSH1 0x40 MLOAD PUSH1 0x24 ADD PUSH2 0x5AC SWAP2 SWAP1 PUSH2 0x1F76 JUMP JUMPDEST PUSH1 0x40 MLOAD PUSH1 0x20 DUP2 DUP4 SUB SUB DUP2 MSTORE SWAP1 PUSH1 0x40 MSTORE PUSH32 0xCF9D4AFA00000000000000000000000000000000000000000000000000000000 PUSH28 0xFFFFFFFFFFFFFFFFFFFFFFFFFFFFFFFFFFFFFFFFFFFFFFFFFFFFFFFF NOT AND PUSH1 0x20 DUP3 ADD DUP1 MLOAD PUSH28 0xFFFFFFFFFFFFFFFFFFFFFFFFFFFFFFFFFFFFFFFFFFFFFFFFFFFFFFFF DUP4 DUP2 DUP4 AND OR DUP4 MSTORE POP POP POP POP PUSH1 0x40 MLOAD PUSH2 0x636 SWAP2 SWAP1 PUSH2 0x1F5F JUMP JUMPDEST PUSH1 0x0 PUSH1 0x40 MLOAD DUP1 DUP4 SUB DUP2 DUP6 GAS DELEGATECALL SWAP2 POP POP RETURNDATASIZE DUP1 PUSH1 0x0 DUP2 EQ PUSH2 0x671 JUMPI PUSH1 0x40 MLOAD SWAP2 POP PUSH1 0x1F NOT PUSH1 0x3F RETURNDATASIZE ADD AND DUP3 ADD PUSH1 0x40 MSTORE RETURNDATASIZE DUP3 MSTORE RETURNDATASIZE PUSH1 0x0 PUSH1 0x20 DUP5 ADD RETURNDATACOPY PUSH2 0x676 JUMP JUMPDEST PUSH1 0x60 SWAP2 POP JUMPDEST POP POP POP PUSH32 0x0 PUSH20 0xFFFFFFFFFFFFFFFFFFFFFFFFFFFFFFFFFFFFFFFF AND SELFDESTRUCT JUMPDEST PUSH1 0x1 PUSH1 0x2 PUSH1 0x0 CALLER PUSH20 0xFFFFFFFFFFFFFFFFFFFFFFFFFFFFFFFFFFFFFFFF AND PUSH20 0xFFFFFFFFFFFFFFFFFFFFFFFFFFFFFFFFFFFFFFFF AND DUP2 MSTORE PUSH1 0x20 ADD SWAP1 DUP2 MSTORE PUSH1 0x20 ADD PUSH1 0x0 KECCAK256 SLOAD EQ ISZERO PUSH2 0x6FF JUMPI PUSH1 0x0 DUP1 REVERT JUMPDEST PUSH1 0x0 PUSH1 0x3 PUSH1 0x0 SWAP1 SLOAD SWAP1 PUSH2 0x100 EXP SWAP1 DIV PUSH1 0xFF AND PUSH1 0xFF AND EQ PUSH2 0x71E JUMPI PUSH1 0x0 DUP1 REVERT JUMPDEST DUP2 PUSH1 0x1 DUP1 PUSH1 0x0 DUP4 PUSH20 0xFFFFFFFFFFFFFFFFFFFFFFFFFFFFFFFFFFFFFFFF AND PUSH20 0xFFFFFFFFFFFFFFFFFFFFFFFFFFFFFFFFFFFFFFFF AND DUP2 MSTORE PUSH1 0x20 ADD SWAP1 DUP2 MSTORE PUSH1 0x20 ADD PUSH1 0x0 KECCAK256 SLOAD EQ PUSH2 0x76A JUMPI PUSH1 0x0 DUP1 REVERT JUMPDEST PUSH1 0x0 DUP1 PUSH1 0x0 SWAP1 SLOAD SWAP1 PUSH2 0x100 EXP SWAP1 DIV PUSH20 0xFFFFFFFFFFFFFFFFFFFFFFFFFFFFFFFFFFFFFFFF AND SWAP1 POP PUSH1 0x0 DUP2 PUSH20 0xFFFFFFFFFFFFFFFFFFFFFFFFFFFFFFFFFFFFFFFF AND PUSH4 0x11CE0267 PUSH1 0x40 MLOAD DUP2 PUSH4 0xFFFFFFFF AND PUSH1 0xE0 SHL DUP2 MSTORE PUSH1 0x4 ADD PUSH1 0x20 PUSH1 0x40 MLOAD DUP1 DUP4 SUB DUP2 DUP7 DUP1 EXTCODESIZE ISZERO DUP1 ISZERO PUSH2 0x7D8 JUMPI PUSH1 0x0 DUP1 REVERT JUMPDEST POP GAS STATICCALL ISZERO DUP1 ISZERO PUSH2 0x7EC JUMPI RETURNDATASIZE PUSH1 0x0 DUP1 RETURNDATACOPY RETURNDATASIZE PUSH1 0x0 REVERT JUMPDEST POP POP POP POP PUSH1 0x40 MLOAD RETURNDATASIZE PUSH1 0x1F NOT PUSH1 0x1F DUP3 ADD AND DUP3 ADD DUP1 PUSH1 0x40 MSTORE POP DUP2 ADD SWAP1 PUSH2 0x810 SWAP2 SWAP1 PUSH2 0x1DCB JUMP JUMPDEST SWAP1 POP PUSH1 0x0 DUP2 PUSH20 0xFFFFFFFFFFFFFFFFFFFFFFFFFFFFFFFFFFFFFFFF AND PUSH4 0xCB1982B DUP5 PUSH20 0xFFFFFFFFFFFFFFFFFFFFFFFFFFFFFFFFFFFFFFFF AND PUSH4 0xDA8909E5 PUSH1 0x40 MLOAD DUP2 PUSH4 0xFFFFFFFF AND PUSH1 0xE0 SHL DUP2 MSTORE PUSH1 0x4 ADD PUSH1 0x20 PUSH1 0x40 MLOAD DUP1 DUP4 SUB DUP2 DUP7 DUP1 EXTCODESIZE ISZERO DUP1 ISZERO PUSH2 0x876 JUMPI PUSH1 0x0 DUP1 REVERT JUMPDEST POP GAS STATICCALL ISZERO DUP1 ISZERO PUSH2 0x88A JUMPI RETURNDATASIZE PUSH1 0x0 DUP1 RETURNDATACOPY RETURNDATASIZE PUSH1 0x0 REVERT JUMPDEST POP POP POP POP PUSH1 0x40 MLOAD RETURNDATASIZE PUSH1 0x1F NOT PUSH1 0x1F DUP3 ADD AND DUP3 ADD DUP1 PUSH1 0x40 MSTORE POP DUP2 ADD SWAP1 PUSH2 0x8AE SWAP2 SWAP1 PUSH2 0x1DCB JUMP JUMPDEST PUSH20 0xFFFFFFFFFFFFFFFFFFFFFFFFFFFFFFFFFFFFFFFF AND PUSH4 0xBDEDD45E PUSH1 0x0 PUSH1 0x40 MLOAD DUP3 PUSH4 0xFFFFFFFF AND PUSH1 0xE0 SHL DUP2 MSTORE PUSH1 0x4 ADD PUSH2 0x8E7 SWAP2 SWAP1 PUSH2 0x200C JUMP JUMPDEST PUSH1 0x20 PUSH1 0x40 MLOAD DUP1 DUP4 SUB DUP2 PUSH1 0x0 DUP8 DUP1 EXTCODESIZE ISZERO DUP1 ISZERO PUSH2 0x901 JUMPI PUSH1 0x0 DUP1 REVERT JUMPDEST POP GAS CALL ISZERO DUP1 ISZERO PUSH2 0x915 JUMPI RETURNDATASIZE PUSH1 0x0 DUP1 RETURNDATACOPY RETURNDATASIZE PUSH1 0x0 REVERT JUMPDEST POP POP POP POP PUSH1 0x40 MLOAD RETURNDATASIZE PUSH1 0x1F NOT PUSH1 0x1F DUP3 ADD AND DUP3 ADD DUP1 PUSH1 0x40 MSTORE POP DUP2 ADD SWAP1 PUSH2 0x939 SWAP2 SWAP1 PUSH2 0x1E82 JUMP JUMPDEST PUSH1 0x40 MLOAD DUP3 PUSH4 0xFFFFFFFF AND PUSH1 0xE0 SHL DUP2 MSTORE PUSH1 0x4 ADD PUSH2 0x955 SWAP2 SWAP1 PUSH2 0x2042 JUMP JUMPDEST PUSH1 0x20 PUSH1 0x40 MLOAD DUP1 DUP4 SUB DUP2 PUSH1 0x0 DUP8 DUP1 EXTCODESIZE ISZERO DUP1 ISZERO PUSH2 0x96F JUMPI PUSH1 0x0 DUP1 REVERT JUMPDEST POP GAS CALL ISZERO DUP1 ISZERO PUSH2 0x983 JUMPI RETURNDATASIZE PUSH1 0x0 DUP1 RETURNDATACOPY RETURNDATASIZE PUSH1 0x0 REVERT JUMPDEST POP POP POP POP PUSH1 0x40 MLOAD RETURNDATASIZE PUSH1 0x1F NOT PUSH1 0x1F DUP3 ADD AND DUP3 ADD DUP1 PUSH1 0x40 MSTORE POP DUP2 ADD SWAP1 PUSH2 0x9A7 SWAP2 SWAP1 PUSH2 0x1E82 JUMP JUMPDEST SWAP1 POP PUSH1 0x0 DUP1 DUP8 PUSH20 0xFFFFFFFFFFFFFFFFFFFFFFFFFFFFFFFFFFFFFFFF AND PUSH4 0x313CE567 PUSH1 0x40 MLOAD DUP2 PUSH4 0xFFFFFFFF AND PUSH1 0xE0 SHL DUP2 MSTORE PUSH1 0x4 ADD PUSH1 0x20 PUSH1 0x40 MLOAD DUP1 DUP4 SUB DUP2 DUP7 DUP1 EXTCODESIZE ISZERO DUP1 ISZERO PUSH2 0x9F2 JUMPI PUSH1 0x0 DUP1 REVERT JUMPDEST POP GAS STATICCALL ISZERO DUP1 ISZERO PUSH2 0xA06 JUMPI RETURNDATASIZE PUSH1 0x0 DUP1 RETURNDATACOPY RETURNDATASIZE PUSH1 0x0 REVERT JUMPDEST POP POP POP POP PUSH1 0x40 MLOAD RETURNDATASIZE PUSH1 0x1F NOT PUSH1 0x1F DUP3 ADD AND DUP3 ADD DUP1 PUSH1 0x40 MSTORE POP DUP2 ADD SWAP1 PUSH2 0xA2A SWAP2 SWAP1 PUSH2 0x1EAB JUMP JUMPDEST PUSH1 0xFF AND SWAP1 POP PUSH1 0x0 DUP9 PUSH20 0xFFFFFFFFFFFFFFFFFFFFFFFFFFFFFFFFFFFFFFFF AND PUSH4 0x18160DDD PUSH1 0x40 MLOAD DUP2 PUSH4 0xFFFFFFFF AND PUSH1 0xE0 SHL DUP2 MSTORE PUSH1 0x4 ADD PUSH1 0x20 PUSH1 0x40 MLOAD DUP1 DUP4 SUB DUP2 DUP7 DUP1 EXTCODESIZE ISZERO DUP1 ISZERO PUSH2 0xA77 JUMPI PUSH1 0x0 DUP1 REVERT JUMPDEST POP GAS STATICCALL ISZERO DUP1 ISZERO PUSH2 0xA8B JUMPI RETURNDATASIZE PUSH1 0x0 DUP1 RETURNDATACOPY RETURNDATASIZE PUSH1 0x0 REVERT JUMPDEST POP POP POP POP PUSH1 0x40 MLOAD RETURNDATASIZE PUSH1 0x1F NOT PUSH1 0x1F DUP3 ADD AND DUP3 ADD DUP1 PUSH1 0x40 MSTORE POP DUP2 ADD SWAP1 PUSH2 0xAAF SWAP2 SWAP1 PUSH2 0x1E82 JUMP JUMPDEST SWAP1 POP PUSH1 0x12 DUP3 LT ISZERO PUSH2 0xAFB JUMPI DUP2 PUSH1 0x12 PUSH2 0xAC7 SWAP2 SWAP1 PUSH2 0x228A JUMP JUMPDEST PUSH1 0xA PUSH2 0xAD3 SWAP2 SWAP1 PUSH2 0x2112 JUMP JUMPDEST DUP2 DUP6 PUSH2 0xADF SWAP2 SWAP1 PUSH2 0x208E JUMP JUMPDEST DUP10 PUSH2 0xAEA SWAP2 SWAP1 PUSH2 0x2230 JUMP JUMPDEST PUSH2 0xAF4 SWAP2 SWAP1 PUSH2 0x208E JUMP JUMPDEST SWAP3 POP PUSH2 0xB15 JUMP JUMPDEST DUP1 DUP5 PUSH2 0xB07 SWAP2 SWAP1 PUSH2 0x208E JUMP JUMPDEST DUP9 PUSH2 0xB12 SWAP2 SWAP1 PUSH2 0x2230 JUMP JUMPDEST SWAP3 POP JUMPDEST DUP9 PUSH20 0xFFFFFFFFFFFFFFFFFFFFFFFFFFFFFFFFFFFFFFFF AND PUSH4 0x23B872DD CALLER DUP8 DUP7 PUSH1 0x40 MLOAD DUP5 PUSH4 0xFFFFFFFF AND PUSH1 0xE0 SHL DUP2 MSTORE PUSH1 0x4 ADD PUSH2 0xB52 SWAP4 SWAP3 SWAP2 SWAP1 PUSH2 0x1F91 JUMP JUMPDEST PUSH1 0x20 PUSH1 0x40 MLOAD DUP1 DUP4 SUB DUP2 PUSH1 0x0 DUP8 DUP1 EXTCODESIZE ISZERO DUP1 ISZERO PUSH2 0xB6C JUMPI PUSH1 0x0 DUP1 REVERT JUMPDEST POP GAS CALL ISZERO DUP1 ISZERO PUSH2 0xB80 JUMPI RETURNDATASIZE PUSH1 0x0 DUP1 RETURNDATACOPY RETURNDATASIZE PUSH1 0x0 REVERT JUMPDEST POP POP POP POP PUSH1 0x40 MLOAD RETURNDATASIZE PUSH1 0x1F NOT PUSH1 0x1F DUP3 ADD AND DUP3 ADD DUP1 PUSH1 0x40 MSTORE POP DUP2 ADD SWAP1 PUSH2 0xBA4 SWAP2 SWAP1 PUSH2 0x1E30 JUMP JUMPDEST PUSH2 0xBAD JUMPI PUSH1 0x0 DUP1 REVERT JUMPDEST DUP6 PUSH20 0xFFFFFFFFFFFFFFFFFFFFFFFFFFFFFFFFFFFFFFFF AND PUSH4 0xFC0C546A PUSH1 0x40 MLOAD DUP2 PUSH4 0xFFFFFFFF AND PUSH1 0xE0 SHL DUP2 MSTORE PUSH1 0x4 ADD PUSH1 0x20 PUSH1 0x40 MLOAD DUP1 DUP4 SUB DUP2 DUP7 DUP1 EXTCODESIZE ISZERO DUP1 ISZERO PUSH2 0xBF3 JUMPI PUSH1 0x0 DUP1 REVERT JUMPDEST POP GAS STATICCALL ISZERO DUP1 ISZERO PUSH2 0xC07 JUMPI RETURNDATASIZE PUSH1 0x0 DUP1 RETURNDATACOPY RETURNDATASIZE PUSH1 0x0 REVERT JUMPDEST POP POP POP POP PUSH1 0x40 MLOAD RETURNDATASIZE PUSH1 0x1F NOT PUSH1 0x1F DUP3 ADD AND DUP3 ADD DUP1 PUSH1 0x40 MSTORE POP DUP2 ADD SWAP1 PUSH2 0xC2B SWAP2 SWAP1 PUSH2 0x1DCB JUMP JUMPDEST PUSH20 0xFFFFFFFFFFFFFFFFFFFFFFFFFFFFFFFFFFFFFFFF AND PUSH4 0x40C10F19 CALLER DUP11 PUSH1 0x40 MLOAD DUP4 PUSH4 0xFFFFFFFF AND PUSH1 0xE0 SHL DUP2 MSTORE PUSH1 0x4 ADD PUSH2 0xC65 SWAP3 SWAP2 SWAP1 PUSH2 0x1FC8 JUMP JUMPDEST PUSH1 0x20 PUSH1 0x40 MLOAD DUP1 DUP4 SUB DUP2 PUSH1 0x0 DUP8 DUP1 EXTCODESIZE ISZERO DUP1 ISZERO PUSH2 0xC7F JUMPI PUSH1 0x0 DUP1 REVERT JUMPDEST POP GAS CALL ISZERO DUP1 ISZERO PUSH2 0xC93 JUMPI RETURNDATASIZE PUSH1 0x0 DUP1 RETURNDATACOPY RETURNDATASIZE PUSH1 0x0 REVERT JUMPDEST POP POP POP POP PUSH1 0x40 MLOAD RETURNDATASIZE PUSH1 0x1F NOT PUSH1 0x1F DUP3 ADD AND DUP3 ADD DUP1 PUSH1 0x40 MSTORE POP DUP2 ADD SWAP1 PUSH2 0xCB7 SWAP2 SWAP1 PUSH2 0x1E30 JUMP JUMPDEST PUSH2 0xCC0 JUMPI PUSH1 0x0 DUP1 REVERT JUMPDEST POP POP POP POP POP POP POP POP POP JUMP JUMPDEST PUSH32 0x0 PUSH20 0xFFFFFFFFFFFFFFFFFFFFFFFFFFFFFFFFFFFFFFFF AND CALLER PUSH20 0xFFFFFFFFFFFFFFFFFFFFFFFFFFFFFFFFFFFFFFFF AND EQ PUSH2 0xD23 JUMPI PUSH1 0x0 DUP1 REVERT JUMPDEST PUSH1 0x0 PUSH1 0x1 PUSH1 0x0 DUP4 PUSH20 0xFFFFFFFFFFFFFFFFFFFFFFFFFFFFFFFFFFFFFFFF AND PUSH20 0xFFFFFFFFFFFFFFFFFFFFFFFFFFFFFFFFFFFFFFFF AND DUP2 MSTORE PUSH1 0x20 ADD SWAP1 DUP2 MSTORE PUSH1 0x20 ADD PUSH1 0x0 KECCAK256 DUP2 SWAP1 SSTORE POP POP JUMP JUMPDEST PUSH1 0x0 PUSH32 0x0 PUSH20 0xFFFFFFFFFFFFFFFFFFFFFFFFFFFFFFFFFFFFFFFF AND CALLER PUSH20 0xFFFFFFFFFFFFFFFFFFFFFFFFFFFFFFFFFFFFFFFF AND EQ PUSH2 0xDC5 JUMPI PUSH1 0x0 DUP1 REVERT JUMPDEST PUSH1 0x1 PUSH1 0x2 PUSH1 0x0 DUP5 PUSH20 0xFFFFFFFFFFFFFFFFFFFFFFFFFFFFFFFFFFFFFFFF AND PUSH20 0xFFFFFFFFFFFFFFFFFFFFFFFFFFFFFFFFFFFFFFFF AND DUP2 MSTORE PUSH1 0x20 ADD SWAP1 DUP2 MSTORE PUSH1 0x20 ADD PUSH1 0x0 KECCAK256 DUP2 SWAP1 SSTORE POP PUSH1 0x1 SWAP1 POP SWAP2 SWAP1 POP JUMP JUMPDEST PUSH1 0x0 PUSH32 0x0 PUSH20 0xFFFFFFFFFFFFFFFFFFFFFFFFFFFFFFFFFFFFFFFF AND CALLER PUSH20 0xFFFFFFFFFFFFFFFFFFFFFFFFFFFFFFFFFFFFFFFF AND EQ PUSH2 0xE6D JUMPI PUSH1 0x0 DUP1 REVERT JUMPDEST PUSH1 0x0 PUSH1 0x2 PUSH1 0x0 DUP5 PUSH20 0xFFFFFFFFFFFFFFFFFFFFFFFFFFFFFFFFFFFFFFFF AND PUSH20 0xFFFFFFFFFFFFFFFFFFFFFFFFFFFFFFFFFFFFFFFF AND DUP2 MSTORE PUSH1 0x20 ADD SWAP1 DUP2 MSTORE PUSH1 0x20 ADD PUSH1 0x0 KECCAK256 DUP2 SWAP1 SSTORE POP PUSH1 0x1 SWAP1 POP SWAP2 SWAP1 POP JUMP JUMPDEST PUSH32 0x0 PUSH20 0xFFFFFFFFFFFFFFFFFFFFFFFFFFFFFFFFFFFFFFFF AND CALLER PUSH20 0xFFFFFFFFFFFFFFFFFFFFFFFFFFFFFFFFFFFFFFFF AND EQ PUSH2 0xF13 JUMPI PUSH1 0x0 DUP1 REVERT JUMPDEST PUSH1 0x0 PUSH1 0x3 PUSH1 0x0 PUSH2 0x100 EXP DUP2 SLOAD DUP2 PUSH1 0xFF MUL NOT AND SWAP1 DUP4 PUSH1 0xFF AND MUL OR SWAP1 SSTORE POP JUMP JUMPDEST PUSH1 0x1 PUSH1 0x2 PUSH1 0x0 CALLER PUSH20 0xFFFFFFFFFFFFFFFFFFFFFFFFFFFFFFFFFFFFFFFF AND PUSH20 0xFFFFFFFFFFFFFFFFFFFFFFFFFFFFFFFFFFFFFFFF AND DUP2 MSTORE PUSH1 0x20 ADD SWAP1 DUP2 MSTORE PUSH1 0x20 ADD PUSH1 0x0 KECCAK256 SLOAD EQ ISZERO PUSH2 0xF7E JUMPI PUSH1 0x0 DUP1 REVERT JUMPDEST PUSH1 0x0 PUSH1 0x3 PUSH1 0x0 SWAP1 SLOAD SWAP1 PUSH2 0x100 EXP SWAP1 DIV PUSH1 0xFF AND PUSH1 0xFF AND EQ PUSH2 0xF9D JUMPI PUSH1 0x0 DUP1 REVERT JUMPDEST PUSH1 0x0 DUP1 PUSH1 0x0 SWAP1 SLOAD SWAP1 PUSH2 0x100 EXP SWAP1 DIV PUSH20 0xFFFFFFFFFFFFFFFFFFFFFFFFFFFFFFFFFFFFFFFF AND SWAP1 POP PUSH1 0x0 DUP2 PUSH20 0xFFFFFFFFFFFFFFFFFFFFFFFFFFFFFFFFFFFFFFFF AND PUSH4 0x11CE0267 PUSH1 0x40 MLOAD DUP2 PUSH4 0xFFFFFFFF AND PUSH1 0xE0 SHL DUP2 MSTORE PUSH1 0x4 ADD PUSH1 0x20 PUSH1 0x40 MLOAD DUP1 DUP4 SUB DUP2 DUP7 DUP1 EXTCODESIZE ISZERO DUP1 ISZERO PUSH2 0x100B JUMPI PUSH1 0x0 DUP1 REVERT JUMPDEST POP GAS STATICCALL ISZERO DUP1 ISZERO PUSH2 0x101F JUMPI RETURNDATASIZE PUSH1 0x0 DUP1 RETURNDATACOPY RETURNDATASIZE PUSH1 0x0 REVERT JUMPDEST POP POP POP POP PUSH1 0x40 MLOAD RETURNDATASIZE PUSH1 0x1F NOT PUSH1 0x1F DUP3 ADD AND DUP3 ADD DUP1 PUSH1 0x40 MSTORE POP DUP2 ADD SWAP1 PUSH2 0x1043 SWAP2 SWAP1 PUSH2 0x1DCB JUMP JUMPDEST SWAP1 POP PUSH1 0x0 DUP3 PUSH20 0xFFFFFFFFFFFFFFFFFFFFFFFFFFFFFFFFFFFFFFFF AND PUSH4 0xFC0C546A PUSH1 0x40 MLOAD DUP2 PUSH4 0xFFFFFFFF AND PUSH1 0xE0 SHL DUP2 MSTORE PUSH1 0x4 ADD PUSH1 0x20 PUSH1 0x40 MLOAD DUP1 DUP4 SUB DUP2 DUP7 DUP1 EXTCODESIZE ISZERO DUP1 ISZERO PUSH2 0x108D JUMPI PUSH1 0x0 DUP1 REVERT JUMPDEST POP GAS STATICCALL ISZERO DUP1 ISZERO PUSH2 0x10A1 JUMPI RETURNDATASIZE PUSH1 0x0 DUP1 RETURNDATACOPY RETURNDATASIZE PUSH1 0x0 REVERT JUMPDEST POP POP POP POP PUSH1 0x40 MLOAD RETURNDATASIZE PUSH1 0x1F NOT PUSH1 0x1F DUP3 ADD AND DUP3 ADD DUP1 PUSH1 0x40 MSTORE POP DUP2 ADD SWAP1 PUSH2 0x10C5 SWAP2 SWAP1 PUSH2 0x1DCB JUMP JUMPDEST SWAP1 POP DUP1 PUSH20 0xFFFFFFFFFFFFFFFFFFFFFFFFFFFFFFFFFFFFFFFF AND PUSH4 0x79CC6790 CALLER DUP7 PUSH1 0x40 MLOAD DUP4 PUSH4 0xFFFFFFFF AND PUSH1 0xE0 SHL DUP2 MSTORE PUSH1 0x4 ADD PUSH2 0x1102 SWAP3 SWAP2 SWAP1 PUSH2 0x1FC8 JUMP JUMPDEST PUSH1 0x20 PUSH1 0x40 MLOAD DUP1 DUP4 SUB DUP2 PUSH1 0x0 DUP8 DUP1 EXTCODESIZE ISZERO DUP1 ISZERO PUSH2 0x111C JUMPI PUSH1 0x0 DUP1 REVERT JUMPDEST POP GAS CALL ISZERO DUP1 ISZERO PUSH2 0x1130 JUMPI RETURNDATASIZE PUSH1 0x0 DUP1 RETURNDATACOPY RETURNDATASIZE PUSH1 0x0 REVERT JUMPDEST POP POP POP POP PUSH1 0x40 MLOAD RETURNDATASIZE PUSH1 0x1F NOT PUSH1 0x1F DUP3 ADD AND DUP3 ADD DUP1 PUSH1 0x40 MSTORE POP DUP2 ADD SWAP1 PUSH2 0x1154 SWAP2 SWAP1 PUSH2 0x1E30 JUMP JUMPDEST PUSH2 0x115D JUMPI PUSH1 0x0 DUP1 REVERT JUMPDEST PUSH1 0x0 DUP3 PUSH20 0xFFFFFFFFFFFFFFFFFFFFFFFFFFFFFFFFFFFFFFFF AND PUSH4 0xCB1982B DUP6 PUSH20 0xFFFFFFFFFFFFFFFFFFFFFFFFFFFFFFFFFFFFFFFF AND PUSH4 0xDA8909E5 PUSH1 0x40 MLOAD DUP2 PUSH4 0xFFFFFFFF AND PUSH1 0xE0 SHL DUP2 MSTORE PUSH1 0x4 ADD PUSH1 0x20 PUSH1 0x40 MLOAD DUP1 DUP4 SUB DUP2 DUP7 DUP1 EXTCODESIZE ISZERO DUP1 ISZERO PUSH2 0x11C1 JUMPI PUSH1 0x0 DUP1 REVERT JUMPDEST POP GAS STATICCALL ISZERO DUP1 ISZERO PUSH2 0x11D5 JUMPI RETURNDATASIZE PUSH1 0x0 DUP1 RETURNDATACOPY RETURNDATASIZE PUSH1 0x0 REVERT JUMPDEST POP POP POP POP PUSH1 0x40 MLOAD RETURNDATASIZE PUSH1 0x1F NOT PUSH1 0x1F DUP3 ADD AND DUP3 ADD DUP1 PUSH1 0x40 MSTORE POP DUP2 ADD SWAP1 PUSH2 0x11F9 SWAP2 SWAP1 PUSH2 0x1DCB JUMP JUMPDEST PUSH20 0xFFFFFFFFFFFFFFFFFFFFFFFFFFFFFFFFFFFFFFFF AND PUSH4 0xBDEDD45E PUSH1 0x1 PUSH1 0x40 MLOAD DUP3 PUSH4 0xFFFFFFFF AND PUSH1 0xE0 SHL DUP2 MSTORE PUSH1 0x4 ADD PUSH2 0x1232 SWAP2 SWAP1 PUSH2 0x2027 JUMP JUMPDEST PUSH1 0x20 PUSH1 0x40 MLOAD DUP1 DUP4 SUB DUP2 PUSH1 0x0 DUP8 DUP1 EXTCODESIZE ISZERO DUP1 ISZERO PUSH2 0x124C JUMPI PUSH1 0x0 DUP1 REVERT JUMPDEST POP GAS CALL ISZERO DUP1 ISZERO PUSH2 0x1260 JUMPI RETURNDATASIZE PUSH1 0x0 DUP1 RETURNDATACOPY RETURNDATASIZE PUSH1 0x0 REVERT JUMPDEST POP POP POP POP PUSH1 0x40 MLOAD RETURNDATASIZE PUSH1 0x1F NOT PUSH1 0x1F DUP3 ADD AND DUP3 ADD DUP1 PUSH1 0x40 MSTORE POP DUP2 ADD SWAP1 PUSH2 0x1284 SWAP2 SWAP1 PUSH2 0x1E82 JUMP JUMPDEST PUSH1 0x40 MLOAD DUP3 PUSH4 0xFFFFFFFF AND PUSH1 0xE0 SHL DUP2 MSTORE PUSH1 0x4 ADD PUSH2 0x12A0 SWAP2 SWAP1 PUSH2 0x2042 JUMP JUMPDEST PUSH1 0x20 PUSH1 0x40 MLOAD DUP1 DUP4 SUB DUP2 PUSH1 0x0 DUP8 DUP1 EXTCODESIZE ISZERO DUP1 ISZERO PUSH2 0x12BA JUMPI PUSH1 0x0 DUP1 REVERT JUMPDEST POP GAS CALL ISZERO DUP1 ISZERO PUSH2 0x12CE JUMPI RETURNDATASIZE PUSH1 0x0 DUP1 RETURNDATACOPY RETURNDATASIZE PUSH1 0x0 REVERT JUMPDEST POP POP POP POP PUSH1 0x40 MLOAD RETURNDATASIZE PUSH1 0x1F NOT PUSH1 0x1F DUP3 ADD AND DUP3 ADD DUP1 PUSH1 0x40 MSTORE POP DUP2 ADD SWAP1 PUSH2 0x12F2 SWAP2 SWAP1 PUSH2 0x1E82 JUMP JUMPDEST SWAP1 POP PUSH1 0x0 DUP3 PUSH20 0xFFFFFFFFFFFFFFFFFFFFFFFFFFFFFFFFFFFFFFFF AND PUSH4 0x18160DDD PUSH1 0x40 MLOAD DUP2 PUSH4 0xFFFFFFFF AND PUSH1 0xE0 SHL DUP2 MSTORE PUSH1 0x4 ADD PUSH1 0x20 PUSH1 0x40 MLOAD DUP1 DUP4 SUB DUP2 DUP7 DUP1 EXTCODESIZE ISZERO DUP1 ISZERO PUSH2 0x133C JUMPI PUSH1 0x0 DUP1 REVERT JUMPDEST POP GAS STATICCALL ISZERO DUP1 ISZERO PUSH2 0x1350 JUMPI RETURNDATASIZE PUSH1 0x0 DUP1 RETURNDATACOPY RETURNDATASIZE PUSH1 0x0 REVERT JUMPDEST POP POP POP POP PUSH1 0x40 MLOAD RETURNDATASIZE PUSH1 0x1F NOT PUSH1 0x1F DUP3 ADD AND DUP3 ADD DUP1 PUSH1 0x40 MSTORE POP DUP2 ADD SWAP1 PUSH2 0x1374 SWAP2 SWAP1 PUSH2 0x1E82 JUMP JUMPDEST SWAP1 POP PUSH1 0x0 DUP2 DUP4 PUSH2 0x1384 SWAP2 SWAP1 PUSH2 0x208E JUMP JUMPDEST DUP8 PUSH2 0x138F SWAP2 SWAP1 PUSH2 0x2230 JUMP JUMPDEST SWAP1 POP DUP5 PUSH20 0xFFFFFFFFFFFFFFFFFFFFFFFFFFFFFFFFFFFFFFFF AND PUSH4 0x990DC9DB CALLER DUP4 PUSH1 0x40 MLOAD DUP4 PUSH4 0xFFFFFFFF AND PUSH1 0xE0 SHL DUP2 MSTORE PUSH1 0x4 ADD PUSH2 0x13CC SWAP3 SWAP2 SWAP1 PUSH2 0x1FC8 JUMP JUMPDEST PUSH1 0x20 PUSH1 0x40 MLOAD DUP1 DUP4 SUB DUP2 PUSH1 0x0 DUP8 DUP1 EXTCODESIZE ISZERO DUP1 ISZERO PUSH2 0x13E6 JUMPI PUSH1 0x0 DUP1 REVERT JUMPDEST POP GAS CALL ISZERO DUP1 ISZERO PUSH2 0x13FA JUMPI RETURNDATASIZE PUSH1 0x0 DUP1 RETURNDATACOPY RETURNDATASIZE PUSH1 0x0 REVERT JUMPDEST POP POP POP POP PUSH1 0x40 MLOAD RETURNDATASIZE PUSH1 0x1F NOT PUSH1 0x1F DUP3 ADD AND DUP3 ADD DUP1 PUSH1 0x40 MSTORE POP DUP2 ADD SWAP1 PUSH2 0x141E SWAP2 SWAP1 PUSH2 0x1E30 JUMP JUMPDEST PUSH2 0x1427 JUMPI PUSH1 0x0 DUP1 REVERT JUMPDEST POP POP POP POP POP POP POP JUMP JUMPDEST PUSH1 0x1 PUSH1 0x20 MSTORE DUP1 PUSH1 0x0 MSTORE PUSH1 0x40 PUSH1 0x0 KECCAK256 PUSH1 0x0 SWAP2 POP SWAP1 POP SLOAD DUP2 JUMP JUMPDEST PUSH1 0x1 PUSH1 0x2 PUSH1 0x0 CALLER PUSH20 0xFFFFFFFFFFFFFFFFFFFFFFFFFFFFFFFFFFFFFFFF AND PUSH20 0xFFFFFFFFFFFFFFFFFFFFFFFFFFFFFFFFFFFFFFFF AND DUP2 MSTORE PUSH1 0x20 ADD SWAP1 DUP2 MSTORE PUSH1 0x20 ADD PUSH1 0x0 KECCAK256 SLOAD EQ ISZERO PUSH2 0x1495 JUMPI PUSH1 0x0 DUP1 REVERT JUMPDEST PUSH1 0x0 PUSH1 0x3 PUSH1 0x0 SWAP1 SLOAD SWAP1 PUSH2 0x100 EXP SWAP1 DIV PUSH1 0xFF AND PUSH1 0xFF AND EQ PUSH2 0x14B4 JUMPI PUSH1 0x0 DUP1 REVERT JUMPDEST DUP2 PUSH1 0x1 DUP1 PUSH1 0x0 DUP4 PUSH20 0xFFFFFFFFFFFFFFFFFFFFFFFFFFFFFFFFFFFFFFFF AND PUSH20 0xFFFFFFFFFFFFFFFFFFFFFFFFFFFFFFFFFFFFFFFF AND DUP2 MSTORE PUSH1 0x20 ADD SWAP1 DUP2 MSTORE PUSH1 0x20 ADD PUSH1 0x0 KECCAK256 SLOAD EQ PUSH2 0x1500 JUMPI PUSH1 0x0 DUP1 REVERT JUMPDEST PUSH1 0x0 DUP1 PUSH1 0x0 SWAP1 SLOAD SWAP1 PUSH2 0x100 EXP SWAP1 DIV PUSH20 0xFFFFFFFFFFFFFFFFFFFFFFFFFFFFFFFFFFFFFFFF AND SWAP1 POP PUSH1 0x0 DUP2 PUSH20 0xFFFFFFFFFFFFFFFFFFFFFFFFFFFFFFFFFFFFFFFF AND PUSH4 0x11CE0267 PUSH1 0x40 MLOAD DUP2 PUSH4 0xFFFFFFFF AND PUSH1 0xE0 SHL DUP2 MSTORE PUSH1 0x4 ADD PUSH1 0x20 PUSH1 0x40 MLOAD DUP1 DUP4 SUB DUP2 DUP7 DUP1 EXTCODESIZE ISZERO DUP1 ISZERO PUSH2 0x156E JUMPI PUSH1 0x0 DUP1 REVERT JUMPDEST POP GAS STATICCALL ISZERO DUP1 ISZERO PUSH2 0x1582 JUMPI RETURNDATASIZE PUSH1 0x0 DUP1 RETURNDATACOPY RETURNDATASIZE PUSH1 0x0 REVERT JUMPDEST POP POP POP POP PUSH1 0x40 MLOAD RETURNDATASIZE PUSH1 0x1F NOT PUSH1 0x1F DUP3 ADD AND DUP3 ADD DUP1 PUSH1 0x40 MSTORE POP DUP2 ADD SWAP1 PUSH2 0x15A6 SWAP2 SWAP1 PUSH2 0x1DCB JUMP JUMPDEST SWAP1 POP PUSH1 0x0 DUP2 PUSH20 0xFFFFFFFFFFFFFFFFFFFFFFFFFFFFFFFFFFFFFFFF AND PUSH4 0xCB1982B DUP5 PUSH20 0xFFFFFFFFFFFFFFFFFFFFFFFFFFFFFFFFFFFFFFFF AND PUSH4 0xDA8909E5 PUSH1 0x40 MLOAD DUP2 PUSH4 0xFFFFFFFF AND PUSH1 0xE0 SHL DUP2 MSTORE PUSH1 0x4 ADD PUSH1 0x20 PUSH1 0x40 MLOAD DUP1 DUP4 SUB DUP2 DUP7 DUP1 EXTCODESIZE ISZERO DUP1 ISZERO PUSH2 0x160C JUMPI PUSH1 0x0 DUP1 REVERT JUMPDEST POP GAS STATICCALL ISZERO DUP1 ISZERO PUSH2 0x1620 JUMPI RETURNDATASIZE PUSH1 0x0 DUP1 RETURNDATACOPY RETURNDATASIZE PUSH1 0x0 REVERT JUMPDEST POP POP POP POP PUSH1 0x40 MLOAD RETURNDATASIZE PUSH1 0x1F NOT PUSH1 0x1F DUP3 ADD AND DUP3 ADD DUP1 PUSH1 0x40 MSTORE POP DUP2 ADD SWAP1 PUSH2 0x1644 SWAP2 SWAP1 PUSH2 0x1DCB JUMP JUMPDEST PUSH20 0xFFFFFFFFFFFFFFFFFFFFFFFFFFFFFFFFFFFFFFFF AND PUSH4 0xBDEDD45E PUSH1 0x0 PUSH1 0x40 MLOAD DUP3 PUSH4 0xFFFFFFFF AND PUSH1 0xE0 SHL DUP2 MSTORE PUSH1 0x4 ADD PUSH2 0x167D SWAP2 SWAP1 PUSH2 0x200C JUMP JUMPDEST PUSH1 0x20 PUSH1 0x40 MLOAD DUP1 DUP4 SUB DUP2 PUSH1 0x0 DUP8 DUP1 EXTCODESIZE ISZERO DUP1 ISZERO PUSH2 0x1697 JUMPI PUSH1 0x0 DUP1 REVERT JUMPDEST POP GAS CALL ISZERO DUP1 ISZERO PUSH2 0x16AB JUMPI RETURNDATASIZE PUSH1 0x0 DUP1 RETURNDATACOPY RETURNDATASIZE PUSH1 0x0 REVERT JUMPDEST POP POP POP POP PUSH1 0x40 MLOAD RETURNDATASIZE PUSH1 0x1F NOT PUSH1 0x1F DUP3 ADD AND DUP3 ADD DUP1 PUSH1 0x40 MSTORE POP DUP2 ADD SWAP1 PUSH2 0x16CF SWAP2 SWAP1 PUSH2 0x1E82 JUMP JUMPDEST PUSH1 0x40 MLOAD DUP3 PUSH4 0xFFFFFFFF AND PUSH1 0xE0 SHL DUP2 MSTORE PUSH1 0x4 ADD PUSH2 0x16EB SWAP2 SWAP1 PUSH2 0x2042 JUMP JUMPDEST PUSH1 0x20 PUSH1 0x40 MLOAD DUP1 DUP4 SUB DUP2 PUSH1 0x0 DUP8 DUP1 EXTCODESIZE ISZERO DUP1 ISZERO PUSH2 0x1705 JUMPI PUSH1 0x0 DUP1 REVERT JUMPDEST POP GAS CALL ISZERO DUP1 ISZERO PUSH2 0x1719 JUMPI RETURNDATASIZE PUSH1 0x0 DUP1 RETURNDATACOPY RETURNDATASIZE PUSH1 0x0 REVERT JUMPDEST POP POP POP POP PUSH1 0x40 MLOAD RETURNDATASIZE PUSH1 0x1F NOT PUSH1 0x1F DUP3 ADD AND DUP3 ADD DUP1 PUSH1 0x40 MSTORE POP DUP2 ADD SWAP1 PUSH2 0x173D SWAP2 SWAP1 PUSH2 0x1E82 JUMP JUMPDEST SWAP1 POP PUSH1 0x0 DUP1 DUP8 PUSH20 0xFFFFFFFFFFFFFFFFFFFFFFFFFFFFFFFFFFFFFFFF AND PUSH4 0x313CE567 PUSH1 0x40 MLOAD DUP2 PUSH4 0xFFFFFFFF AND PUSH1 0xE0 SHL DUP2 MSTORE PUSH1 0x4 ADD PUSH1 0x20 PUSH1 0x40 MLOAD DUP1 DUP4 SUB DUP2 DUP7 DUP1 EXTCODESIZE ISZERO DUP1 ISZERO PUSH2 0x1788 JUMPI PUSH1 0x0 DUP1 REVERT JUMPDEST POP GAS STATICCALL ISZERO DUP1 ISZERO PUSH2 0x179C JUMPI RETURNDATASIZE PUSH1 0x0 DUP1 RETURNDATACOPY RETURNDATASIZE PUSH1 0x0 REVERT JUMPDEST POP POP POP POP PUSH1 0x40 MLOAD RETURNDATASIZE PUSH1 0x1F NOT PUSH1 0x1F DUP3 ADD AND DUP3 ADD DUP1 PUSH1 0x40 MSTORE POP DUP2 ADD SWAP1 PUSH2 0x17C0 SWAP2 SWAP1 PUSH2 0x1EAB JUMP JUMPDEST PUSH1 0xFF AND SWAP1 POP PUSH1 0x0 DUP9 PUSH20 0xFFFFFFFFFFFFFFFFFFFFFFFFFFFFFFFFFFFFFFFF AND PUSH4 0x18160DDD PUSH1 0x40 MLOAD DUP2 PUSH4 0xFFFFFFFF AND PUSH1 0xE0 SHL DUP2 MSTORE PUSH1 0x4 ADD PUSH1 0x20 PUSH1 0x40 MLOAD DUP1 DUP4 SUB DUP2 DUP7 DUP1 EXTCODESIZE ISZERO DUP1 ISZERO PUSH2 0x180D JUMPI PUSH1 0x0 DUP1 REVERT JUMPDEST POP GAS STATICCALL ISZERO DUP1 ISZERO PUSH2 0x1821 JUMPI RETURNDATASIZE PUSH1 0x0 DUP1 RETURNDATACOPY RETURNDATASIZE PUSH1 0x0 REVERT JUMPDEST POP POP POP POP PUSH1 0x40 MLOAD RETURNDATASIZE PUSH1 0x1F NOT PUSH1 0x1F DUP3 ADD AND DUP3 ADD DUP1 PUSH1 0x40 MSTORE POP DUP2 ADD SWAP1 PUSH2 0x1845 SWAP2 SWAP1 PUSH2 0x1E82 JUMP JUMPDEST SWAP1 POP PUSH1 0x0 PUSH1 0x12 DUP4 LT ISZERO PUSH2 0x1896 JUMPI DUP3 PUSH1 0x12 PUSH2 0x185F SWAP2 SWAP1 PUSH2 0x228A JUMP JUMPDEST PUSH1 0xA PUSH2 0x186B SWAP2 SWAP1 PUSH2 0x2112 JUMP JUMPDEST DUP10 PUSH2 0x1876 SWAP2 SWAP1 PUSH2 0x2230 JUMP JUMPDEST SWAP4 POP DUP2 DUP6 PUSH2 0x1884 SWAP2 SWAP1 PUSH2 0x208E JUMP JUMPDEST DUP5 PUSH2 0x188F SWAP2 SWAP1 PUSH2 0x208E JUMP JUMPDEST SWAP1 POP PUSH2 0x18B0 JUMP JUMPDEST DUP2 DUP6 PUSH2 0x18A2 SWAP2 SWAP1 PUSH2 0x208E JUMP JUMPDEST DUP5 PUSH2 0x18AD SWAP2 SWAP1 PUSH2 0x208E JUMP JUMPDEST SWAP1 POP JUMPDEST DUP10 PUSH20 0xFFFFFFFFFFFFFFFFFFFFFFFFFFFFFFFFFFFFFFFF AND PUSH4 0x23B872DD CALLER DUP9 DUP8 PUSH1 0x40 MLOAD DUP5 PUSH4 0xFFFFFFFF AND PUSH1 0xE0 SHL DUP2 MSTORE PUSH1 0x4 ADD PUSH2 0x18ED SWAP4 SWAP3 SWAP2 SWAP1 PUSH2 0x1F91 JUMP JUMPDEST PUSH1 0x20 PUSH1 0x40 MLOAD DUP1 DUP4 SUB DUP2 PUSH1 0x0 DUP8 DUP1 EXTCODESIZE ISZERO DUP1 ISZERO PUSH2 0x1907 JUMPI PUSH1 0x0 DUP1 REVERT JUMPDEST POP GAS CALL ISZERO DUP1 ISZERO PUSH2 0x191B JUMPI RETURNDATASIZE PUSH1 0x0 DUP1 RETURNDATACOPY RETURNDATASIZE PUSH1 0x0 REVERT JUMPDEST POP POP POP POP PUSH1 0x40 MLOAD RETURNDATASIZE PUSH1 0x1F NOT PUSH1 0x1F DUP3 ADD AND DUP3 ADD DUP1 PUSH1 0x40 MSTORE POP DUP2 ADD SWAP1 PUSH2 0x193F SWAP2 SWAP1 PUSH2 0x1E30 JUMP JUMPDEST PUSH2 0x1948 JUMPI PUSH1 0x0 DUP1 REVERT JUMPDEST DUP7 PUSH20 0xFFFFFFFFFFFFFFFFFFFFFFFFFFFFFFFFFFFFFFFF AND PUSH4 0xFC0C546A PUSH1 0x40 MLOAD DUP2 PUSH4 0xFFFFFFFF AND PUSH1 0xE0 SHL DUP2 MSTORE PUSH1 0x4 ADD PUSH1 0x20 PUSH1 0x40 MLOAD DUP1 DUP4 SUB DUP2 DUP7 DUP1 EXTCODESIZE ISZERO DUP1 ISZERO PUSH2 0x198E JUMPI PUSH1 0x0 DUP1 REVERT JUMPDEST POP GAS STATICCALL ISZERO DUP1 ISZERO PUSH2 0x19A2 JUMPI RETURNDATASIZE PUSH1 0x0 DUP1 RETURNDATACOPY RETURNDATASIZE PUSH1 0x0 REVERT JUMPDEST POP POP POP POP PUSH1 0x40 MLOAD RETURNDATASIZE PUSH1 0x1F NOT PUSH1 0x1F DUP3 ADD AND DUP3 ADD DUP1 PUSH1 0x40 MSTORE POP DUP2 ADD SWAP1 PUSH2 0x19C6 SWAP2 SWAP1 PUSH2 0x1DCB JUMP JUMPDEST PUSH20 0xFFFFFFFFFFFFFFFFFFFFFFFFFFFFFFFFFFFFFFFF AND PUSH4 0x40C10F19 CALLER DUP12 PUSH1 0x40 MLOAD DUP4 PUSH4 0xFFFFFFFF AND PUSH1 0xE0 SHL DUP2 MSTORE PUSH1 0x4 ADD PUSH2 0x1A00 SWAP3 SWAP2 SWAP1 PUSH2 0x1FC8 JUMP JUMPDEST PUSH1 0x20 PUSH1 0x40 MLOAD DUP1 DUP4 SUB DUP2 PUSH1 0x0 DUP8 DUP1 EXTCODESIZE ISZERO DUP1 ISZERO PUSH2 0x1A1A JUMPI PUSH1 0x0 DUP1 REVERT JUMPDEST POP GAS CALL ISZERO DUP1 ISZERO PUSH2 0x1A2E JUMPI RETURNDATASIZE PUSH1 0x0 DUP1 RETURNDATACOPY RETURNDATASIZE PUSH1 0x0 REVERT JUMPDEST POP POP POP POP PUSH1 0x40 MLOAD RETURNDATASIZE PUSH1 0x1F NOT PUSH1 0x1F DUP3 ADD AND DUP3 ADD DUP1 PUSH1 0x40 MSTORE POP DUP2 ADD SWAP1 PUSH2 0x1A52 SWAP2 SWAP1 PUSH2 0x1E30 JUMP JUMPDEST PUSH2 0x1A5B JUMPI PUSH1 0x0 DUP1 REVERT JUMPDEST POP POP POP POP POP POP POP POP POP POP JUMP JUMPDEST PUSH32 0x0 PUSH20 0xFFFFFFFFFFFFFFFFFFFFFFFFFFFFFFFFFFFFFFFF AND CALLER PUSH20 0xFFFFFFFFFFFFFFFFFFFFFFFFFFFFFFFFFFFFFFFF AND EQ PUSH2 0x1ABF JUMPI PUSH1 0x0 DUP1 REVERT JUMPDEST PUSH1 0x0 DUP1 SLOAD SWAP1 PUSH2 0x100 EXP SWAP1 DIV PUSH20 0xFFFFFFFFFFFFFFFFFFFFFFFFFFFFFFFFFFFFFFFF AND PUSH20 0xFFFFFFFFFFFFFFFFFFFFFFFFFFFFFFFFFFFFFFFF AND CALLER PUSH20 0xFFFFFFFFFFFFFFFFFFFFFFFFFFFFFFFFFFFFFFFF AND EQ PUSH2 0x1B17 JUMPI PUSH1 0x0 DUP1 REVERT JUMPDEST DUP1 PUSH1 0x0 DUP1 PUSH2 0x100 EXP DUP2 SLOAD DUP2 PUSH20 0xFFFFFFFFFFFFFFFFFFFFFFFFFFFFFFFFFFFFFFFF MUL NOT AND SWAP1 DUP4 PUSH20 0xFFFFFFFFFFFFFFFFFFFFFFFFFFFFFFFFFFFFFFFF AND MUL OR SWAP1 SSTORE POP POP JUMP JUMPDEST PUSH32 0x0 PUSH20 0xFFFFFFFFFFFFFFFFFFFFFFFFFFFFFFFFFFFFFFFF AND CALLER PUSH20 0xFFFFFFFFFFFFFFFFFFFFFFFFFFFFFFFFFFFFFFFF AND EQ PUSH2 0x1BB2 JUMPI PUSH1 0x0 DUP1 REVERT JUMPDEST PUSH1 0x1 PUSH1 0x3 PUSH1 0x0 PUSH2 0x100 EXP DUP2 SLOAD DUP2 PUSH1 0xFF MUL NOT AND SWAP1 DUP4 PUSH1 0xFF AND MUL OR SWAP1 SSTORE POP JUMP JUMPDEST PUSH32 0x0 PUSH20 0xFFFFFFFFFFFFFFFFFFFFFFFFFFFFFFFFFFFFFFFF AND CALLER PUSH20 0xFFFFFFFFFFFFFFFFFFFFFFFFFFFFFFFFFFFFFFFF AND EQ PUSH2 0x1C28 JUMPI PUSH1 0x0 DUP1 REVERT JUMPDEST PUSH1 0x0 PUSH1 0x3 PUSH1 0x1 SWAP1 SLOAD SWAP1 PUSH2 0x100 EXP SWAP1 DIV PUSH1 0xFF AND PUSH1 0xFF AND EQ PUSH2 0x1C47 JUMPI PUSH1 0x0 DUP1 REVERT JUMPDEST PUSH1 0x0 PUSH1 0x3 PUSH1 0x0 PUSH2 0x100 EXP DUP2 SLOAD DUP2 PUSH1 0xFF MUL NOT AND SWAP1 DUP4 PUSH1 0xFF AND MUL OR SWAP1 SSTORE POP DUP1 PUSH1 0x0 DUP1 PUSH2 0x100 EXP DUP2 SLOAD DUP2 PUSH20 0xFFFFFFFFFFFFFFFFFFFFFFFFFFFFFFFFFFFFFFFF MUL NOT AND SWAP1 DUP4 PUSH20 0xFFFFFFFFFFFFFFFFFFFFFFFFFFFFFFFFFFFFFFFF AND MUL OR SWAP1 SSTORE POP PUSH1 0x1 PUSH1 0x3 PUSH1 0x1 PUSH2 0x100 EXP DUP2 SLOAD DUP2 PUSH1 0xFF MUL NOT AND SWAP1 DUP4 PUSH1 0xFF AND MUL OR SWAP1 SSTORE POP POP JUMP JUMPDEST PUSH1 0x0 DUP1 SLOAD SWAP1 PUSH2 0x100 EXP SWAP1 DIV PUSH20 0xFFFFFFFFFFFFFFFFFFFFFFFFFFFFFFFFFFFFFFFF AND DUP2 JUMP JUMPDEST PUSH1 0x3 PUSH1 0x0 SWAP1 SLOAD SWAP1 PUSH2 0x100 EXP SWAP1 DIV PUSH1 0xFF AND DUP2 JUMP JUMPDEST PUSH1 0x2 PUSH1 0x20 MSTORE DUP1 PUSH1 0x0 MSTORE PUSH1 0x40 PUSH1 0x0 KECCAK256 PUSH1 0x0 SWAP2 POP SWAP1 POP SLOAD DUP2 JUMP JUMPDEST PUSH1 0x3 PUSH1 0x1 SWAP1 SLOAD SWAP1 PUSH2 0x100 EXP SWAP1 DIV PUSH1 0xFF AND DUP2 JUMP JUMPDEST PUSH1 0x0 DUP2 CALLDATALOAD SWAP1 POP PUSH2 0x1D33 DUP2 PUSH2 0x23D5 JUMP JUMPDEST SWAP3 SWAP2 POP POP JUMP JUMPDEST PUSH1 0x0 DUP2 MLOAD SWAP1 POP PUSH2 0x1D48 DUP2 PUSH2 0x23D5 JUMP JUMPDEST SWAP3 SWAP2 POP POP JUMP JUMPDEST PUSH1 0x0 DUP2 MLOAD SWAP1 POP PUSH2 0x1D5D DUP2 PUSH2 0x23EC JUMP JUMPDEST SWAP3 SWAP2 POP POP JUMP JUMPDEST PUSH1 0x0 DUP2 CALLDATALOAD SWAP1 POP PUSH2 0x1D72 DUP2 PUSH2 0x2403 JUMP JUMPDEST SWAP3 SWAP2 POP POP JUMP JUMPDEST PUSH1 0x0 DUP2 MLOAD SWAP1 POP PUSH2 0x1D87 DUP2 PUSH2 0x2403 JUMP JUMPDEST SWAP3 SWAP2 POP POP JUMP JUMPDEST PUSH1 0x0 DUP2 MLOAD SWAP1 POP PUSH2 0x1D9C DUP2 PUSH2 0x241A JUMP JUMPDEST SWAP3 SWAP2 POP POP JUMP JUMPDEST PUSH1 0x0 PUSH1 0x20 DUP3 DUP5 SUB SLT ISZERO PUSH2 0x1DB4 JUMPI PUSH1 0x0 DUP1 REVERT JUMPDEST PUSH1 0x0 PUSH2 0x1DC2 DUP5 DUP3 DUP6 ADD PUSH2 0x1D24 JUMP JUMPDEST SWAP2 POP POP SWAP3 SWAP2 POP POP JUMP JUMPDEST PUSH1 0x0 PUSH1 0x20 DUP3 DUP5 SUB SLT ISZERO PUSH2 0x1DDD JUMPI PUSH1 0x0 DUP1 REVERT JUMPDEST PUSH1 0x0 PUSH2 0x1DEB DUP5 DUP3 DUP6 ADD PUSH2 0x1D39 JUMP JUMPDEST SWAP2 POP POP SWAP3 SWAP2 POP POP JUMP JUMPDEST PUSH1 0x0 DUP1 PUSH1 0x40 DUP4 DUP6 SUB SLT ISZERO PUSH2 0x1E07 JUMPI PUSH1 0x0 DUP1 REVERT JUMPDEST PUSH1 0x0 PUSH2 0x1E15 DUP6 DUP3 DUP7 ADD PUSH2 0x1D24 JUMP JUMPDEST SWAP3 POP POP PUSH1 0x20 PUSH2 0x1E26 DUP6 DUP3 DUP7 ADD PUSH2 0x1D63 JUMP JUMPDEST SWAP2 POP POP SWAP3 POP SWAP3 SWAP1 POP JUMP JUMPDEST PUSH1 0x0 PUSH1 0x20 DUP3 DUP5 SUB SLT ISZERO PUSH2 0x1E42 JUMPI PUSH1 0x0 DUP1 REVERT JUMPDEST PUSH1 0x0 PUSH2 0x1E50 DUP5 DUP3 DUP6 ADD PUSH2 0x1D4E JUMP JUMPDEST SWAP2 POP POP SWAP3 SWAP2 POP POP JUMP JUMPDEST PUSH1 0x0 PUSH1 0x20 DUP3 DUP5 SUB SLT ISZERO PUSH2 0x1E6B JUMPI PUSH1 0x0 DUP1 REVERT JUMPDEST PUSH1 0x0 PUSH2 0x1E79 DUP5 DUP3 DUP6 ADD PUSH2 0x1D63 JUMP JUMPDEST SWAP2 POP POP SWAP3 SWAP2 POP POP JUMP JUMPDEST PUSH1 0x0 PUSH1 0x20 DUP3 DUP5 SUB SLT ISZERO PUSH2 0x1E94 JUMPI PUSH1 0x0 DUP1 REVERT JUMPDEST PUSH1 0x0 PUSH2 0x1EA2 DUP5 DUP3 DUP6 ADD PUSH2 0x1D78 JUMP JUMPDEST SWAP2 POP POP SWAP3 SWAP2 POP POP JUMP JUMPDEST PUSH1 0x0 PUSH1 0x20 DUP3 DUP5 SUB SLT ISZERO PUSH2 0x1EBD JUMPI PUSH1 0x0 DUP1 REVERT JUMPDEST PUSH1 0x0 PUSH2 0x1ECB DUP5 DUP3 DUP6 ADD PUSH2 0x1D8D JUMP JUMPDEST SWAP2 POP POP SWAP3 SWAP2 POP POP JUMP JUMPDEST PUSH2 0x1EDD DUP2 PUSH2 0x22BE JUMP JUMPDEST DUP3 MSTORE POP POP JUMP JUMPDEST PUSH2 0x1EEC DUP2 PUSH2 0x22D0 JUMP JUMPDEST DUP3 MSTORE POP POP JUMP JUMPDEST PUSH1 0x0 PUSH2 0x1EFD DUP3 PUSH2 0x2078 JUMP JUMPDEST PUSH2 0x1F07 DUP2 DUP6 PUSH2 0x2083 JUMP JUMPDEST SWAP4 POP PUSH2 0x1F17 DUP2 DUP6 PUSH1 0x20 DUP7 ADD PUSH2 0x2337 JUMP JUMPDEST DUP1 DUP5 ADD SWAP2 POP POP SWAP3 SWAP2 POP POP JUMP JUMPDEST PUSH2 0x1F2C DUP2 PUSH2 0x2313 JUMP JUMPDEST DUP3 MSTORE POP POP JUMP JUMPDEST PUSH2 0x1F3B DUP2 PUSH2 0x2325 JUMP JUMPDEST DUP3 MSTORE POP POP JUMP JUMPDEST PUSH2 0x1F4A DUP2 PUSH2 0x22FC JUMP JUMPDEST DUP3 MSTORE POP POP JUMP JUMPDEST PUSH2 0x1F59 DUP2 PUSH2 0x2306 JUMP JUMPDEST DUP3 MSTORE POP POP JUMP JUMPDEST PUSH1 0x0 PUSH2 0x1F6B DUP3 DUP5 PUSH2 0x1EF2 JUMP JUMPDEST SWAP2 POP DUP2 SWAP1 POP SWAP3 SWAP2 POP POP JUMP JUMPDEST PUSH1 0x0 PUSH1 0x20 DUP3 ADD SWAP1 POP PUSH2 0x1F8B PUSH1 0x0 DUP4 ADD DUP5 PUSH2 0x1ED4 JUMP JUMPDEST SWAP3 SWAP2 POP POP JUMP JUMPDEST PUSH1 0x0 PUSH1 0x60 DUP3 ADD SWAP1 POP PUSH2 0x1FA6 PUSH1 0x0 DUP4 ADD DUP7 PUSH2 0x1ED4 JUMP JUMPDEST PUSH2 0x1FB3 PUSH1 0x20 DUP4 ADD DUP6 PUSH2 0x1ED4 JUMP JUMPDEST PUSH2 0x1FC0 PUSH1 0x40 DUP4 ADD DUP5 PUSH2 0x1F41 JUMP JUMPDEST SWAP5 SWAP4 POP POP POP POP JUMP JUMPDEST PUSH1 0x0 PUSH1 0x40 DUP3 ADD SWAP1 POP PUSH2 0x1FDD PUSH1 0x0 DUP4 ADD DUP6 PUSH2 0x1ED4 JUMP JUMPDEST PUSH2 0x1FEA PUSH1 0x20 DUP4 ADD DUP5 PUSH2 0x1F41 JUMP JUMPDEST SWAP4 SWAP3 POP POP POP JUMP JUMPDEST PUSH1 0x0 PUSH1 0x20 DUP3 ADD SWAP1 POP PUSH2 0x2006 PUSH1 0x0 DUP4 ADD DUP5 PUSH2 0x1EE3 JUMP JUMPDEST SWAP3 SWAP2 POP POP JUMP JUMPDEST PUSH1 0x0 PUSH1 0x20 DUP3 ADD SWAP1 POP PUSH2 0x2021 PUSH1 0x0 DUP4 ADD DUP5 PUSH2 0x1F23 JUMP JUMPDEST SWAP3 SWAP2 POP POP JUMP JUMPDEST PUSH1 0x0 PUSH1 0x20 DUP3 ADD SWAP1 POP PUSH2 0x203C PUSH1 0x0 DUP4 ADD DUP5 PUSH2 0x1F32 JUMP JUMPDEST SWAP3 SWAP2 POP POP JUMP JUMPDEST PUSH1 0x0 PUSH1 0x20 DUP3 ADD SWAP1 POP PUSH2 0x2057 PUSH1 0x0 DUP4 ADD DUP5 PUSH2 0x1F41 JUMP JUMPDEST SWAP3 SWAP2 POP POP JUMP JUMPDEST PUSH1 0x0 PUSH1 0x20 DUP3 ADD SWAP1 POP PUSH2 0x2072 PUSH1 0x0 DUP4 ADD DUP5 PUSH2 0x1F50 JUMP JUMPDEST SWAP3 SWAP2 POP POP JUMP JUMPDEST PUSH1 0x0 DUP2 MLOAD SWAP1 POP SWAP2 SWAP1 POP JUMP JUMPDEST PUSH1 0x0 DUP2 SWAP1 POP SWAP3 SWAP2 POP POP JUMP JUMPDEST PUSH1 0x0 PUSH2 0x2099 DUP3 PUSH2 0x22FC JUMP JUMPDEST SWAP2 POP PUSH2 0x20A4 DUP4 PUSH2 0x22FC JUMP JUMPDEST SWAP3 POP DUP3 PUSH2 0x20B4 JUMPI PUSH2 0x20B3 PUSH2 0x2399 JUMP JUMPDEST JUMPDEST DUP3 DUP3 DIV SWAP1 POP SWAP3 SWAP2 POP POP JUMP JUMPDEST PUSH1 0x0 DUP1 DUP3 SWAP2 POP DUP4 SWAP1 POP JUMPDEST PUSH1 0x1 DUP6 GT ISZERO PUSH2 0x2109 JUMPI DUP1 DUP7 DIV DUP2 GT ISZERO PUSH2 0x20E5 JUMPI PUSH2 0x20E4 PUSH2 0x236A JUMP JUMPDEST JUMPDEST PUSH1 0x1 DUP6 AND ISZERO PUSH2 0x20F4 JUMPI DUP1 DUP3 MUL SWAP2 POP JUMPDEST DUP1 DUP2 MUL SWAP1 POP PUSH2 0x2102 DUP6 PUSH2 0x23C8 JUMP JUMPDEST SWAP5 POP PUSH2 0x20C9 JUMP JUMPDEST SWAP5 POP SWAP5 SWAP3 POP POP POP JUMP JUMPDEST PUSH1 0x0 PUSH2 0x211D DUP3 PUSH2 0x22FC JUMP JUMPDEST SWAP2 POP PUSH2 0x2128 DUP4 PUSH2 0x22FC JUMP JUMPDEST SWAP3 POP PUSH2 0x2155 PUSH32 0xFFFFFFFFFFFFFFFFFFFFFFFFFFFFFFFFFFFFFFFFFFFFFFFFFFFFFFFFFFFFFFFF DUP5 DUP5 PUSH2 0x215D JUMP JUMPDEST SWAP1 POP SWAP3 SWAP2 POP POP JUMP JUMPDEST PUSH1 0x0 DUP3 PUSH2 0x216D JUMPI PUSH1 0x1 SWAP1 POP PUSH2 0x2229 JUMP JUMPDEST DUP2 PUSH2 0x217B JUMPI PUSH1 0x0 SWAP1 POP PUSH2 0x2229 JUMP JUMPDEST DUP2 PUSH1 0x1 DUP2 EQ PUSH2 0x2191 JUMPI PUSH1 0x2 DUP2 EQ PUSH2 0x219B JUMPI PUSH2 0x21CA JUMP JUMPDEST PUSH1 0x1 SWAP2 POP POP PUSH2 0x2229 JUMP JUMPDEST PUSH1 0xFF DUP5 GT ISZERO PUSH2 0x21AD JUMPI PUSH2 0x21AC PUSH2 0x236A JUMP JUMPDEST JUMPDEST DUP4 PUSH1 0x2 EXP SWAP2 POP DUP5 DUP3 GT ISZERO PUSH2 0x21C4 JUMPI PUSH2 0x21C3 PUSH2 0x236A JUMP JUMPDEST JUMPDEST POP PUSH2 0x2229 JUMP JUMPDEST POP PUSH1 0x20 DUP4 LT PUSH2 0x133 DUP4 LT AND PUSH1 0x4E DUP5 LT PUSH1 0xB DUP5 LT AND OR ISZERO PUSH2 0x21FF JUMPI DUP3 DUP3 EXP SWAP1 POP DUP4 DUP2 GT ISZERO PUSH2 0x21FA JUMPI PUSH2 0x21F9 PUSH2 0x236A JUMP JUMPDEST JUMPDEST PUSH2 0x2229 JUMP JUMPDEST PUSH2 0x220C DUP5 DUP5 DUP5 PUSH1 0x1 PUSH2 0x20BF JUMP JUMPDEST SWAP3 POP SWAP1 POP DUP2 DUP5 DIV DUP2 GT ISZERO PUSH2 0x2223 JUMPI PUSH2 0x2222 PUSH2 0x236A JUMP JUMPDEST JUMPDEST DUP2 DUP2 MUL SWAP1 POP JUMPDEST SWAP4 SWAP3 POP POP POP JUMP JUMPDEST PUSH1 0x0 PUSH2 0x223B DUP3 PUSH2 0x22FC JUMP JUMPDEST SWAP2 POP PUSH2 0x2246 DUP4 PUSH2 0x22FC JUMP JUMPDEST SWAP3 POP DUP2 PUSH32 0xFFFFFFFFFFFFFFFFFFFFFFFFFFFFFFFFFFFFFFFFFFFFFFFFFFFFFFFFFFFFFFFF DIV DUP4 GT DUP3 ISZERO ISZERO AND ISZERO PUSH2 0x227F JUMPI PUSH2 0x227E PUSH2 0x236A JUMP JUMPDEST JUMPDEST DUP3 DUP3 MUL SWAP1 POP SWAP3 SWAP2 POP POP JUMP JUMPDEST PUSH1 0x0 PUSH2 0x2295 DUP3 PUSH2 0x22FC JUMP JUMPDEST SWAP2 POP PUSH2 0x22A0 DUP4 PUSH2 0x22FC JUMP JUMPDEST SWAP3 POP DUP3 DUP3 LT ISZERO PUSH2 0x22B3 JUMPI PUSH2 0x22B2 PUSH2 0x236A JUMP JUMPDEST JUMPDEST DUP3 DUP3 SUB SWAP1 POP SWAP3 SWAP2 POP POP JUMP JUMPDEST PUSH1 0x0 PUSH2 0x22C9 DUP3 PUSH2 0x22DC JUMP JUMPDEST SWAP1 POP SWAP2 SWAP1 POP JUMP JUMPDEST PUSH1 0x0 DUP2 ISZERO ISZERO SWAP1 POP SWAP2 SWAP1 POP JUMP JUMPDEST PUSH1 0x0 PUSH20 0xFFFFFFFFFFFFFFFFFFFFFFFFFFFFFFFFFFFFFFFF DUP3 AND SWAP1 POP SWAP2 SWAP1 POP JUMP JUMPDEST PUSH1 0x0 DUP2 SWAP1 POP SWAP2 SWAP1 POP JUMP JUMPDEST PUSH1 0x0 PUSH1 0xFF DUP3 AND SWAP1 POP SWAP2 SWAP1 POP JUMP JUMPDEST PUSH1 0x0 PUSH2 0x231E DUP3 PUSH2 0x22FC JUMP JUMPDEST SWAP1 POP SWAP2 SWAP1 POP JUMP JUMPDEST PUSH1 0x0 PUSH2 0x2330 DUP3 PUSH2 0x22FC JUMP JUMPDEST SWAP1 POP SWAP2 SWAP1 POP JUMP JUMPDEST PUSH1 0x0 JUMPDEST DUP4 DUP2 LT ISZERO PUSH2 0x2355 JUMPI DUP1 DUP3 ADD MLOAD DUP2 DUP5 ADD MSTORE PUSH1 0x20 DUP2 ADD SWAP1 POP PUSH2 0x233A JUMP JUMPDEST DUP4 DUP2 GT ISZERO PUSH2 0x2364 JUMPI PUSH1 0x0 DUP5 DUP5 ADD MSTORE JUMPDEST POP POP POP POP JUMP JUMPDEST PUSH32 0x4E487B7100000000000000000000000000000000000000000000000000000000 PUSH1 0x0 MSTORE PUSH1 0x11 PUSH1 0x4 MSTORE PUSH1 0x24 PUSH1 0x0 REVERT JUMPDEST PUSH32 0x4E487B7100000000000000000000000000000000000000000000000000000000 PUSH1 0x0 MSTORE PUSH1 0x12 PUSH1 0x4 MSTORE PUSH1 0x24 PUSH1 0x0 REVERT JUMPDEST PUSH1 0x0 DUP2 PUSH1 0x1 SHR SWAP1 POP SWAP2 SWAP1 POP JUMP JUMPDEST PUSH2 0x23DE DUP2 PUSH2 0x22BE JUMP JUMPDEST DUP2 EQ PUSH2 0x23E9 JUMPI PUSH1 0x0 DUP1 REVERT JUMPDEST POP JUMP JUMPDEST PUSH2 0x23F5 DUP2 PUSH2 0x22D0 JUMP JUMPDEST DUP2 EQ PUSH2 0x2400 JUMPI PUSH1 0x0 DUP1 REVERT JUMPDEST POP JUMP JUMPDEST PUSH2 0x240C DUP2 PUSH2 0x22FC JUMP JUMPDEST DUP2 EQ PUSH2 0x2417 JUMPI PUSH1 0x0 DUP1 REVERT JUMPDEST POP JUMP JUMPDEST PUSH2 0x2423 DUP2 PUSH2 0x2306 JUMP JUMPDEST DUP2 EQ PUSH2 0x242E JUMPI PUSH1 0x0 DUP1 REVERT JUMPDEST POP JUMP INVALID LOG2 PUSH5 0x6970667358 0x22 SLT KECCAK256 0xA6 0xE 0xEF SGT 0xD1 MSTORE GAS 0xDE 0x25 PUSH12 0xA6DB930EC0CFBFCF9435079E SWAP10 PUSH20 0x30AFC9BB0B00E5E964736F6C6343000801003300 "
				},
				"gasEstimates": {
					"creation": {
						"codeDepositCost": "1863800",
						"executionCost": "infinite",
						"totalCost": "infinite"
					},
					"external": {
						"": "203",
						"addCoin(address)": "infinite",
						"addToBlacklist(address)": "infinite",
						"blacklist(address)": "1602",
						"buyTokensInput(address,uint256)": "infinite",
						"buyTokensOutput(address,uint256)": "infinite",
						"coins(address)": "1537",
						"delCoin(address)": "infinite",
						"deleteContract(address)": "infinite",
						"initContract(address)": "infinite",
						"initDone()": "1331",
						"lock()": "1237",
						"lockOff()": "infinite",
						"lockOn()": "infinite",
						"proxy()": "1255",
						"removeFromBlacklist(address)": "infinite",
						"sellTokens(uint256)": "infinite",
						"updateProxy(address)": "infinite"
					}
				},
				"methodIdentifiers": {
					"addCoin(address)": "16da8632",
					"addToBlacklist(address)": "44337ea1",
					"blacklist(address)": "f9f92be4",
					"buyTokensInput(address,uint256)": "9be56034",
					"buyTokensOutput(address,uint256)": "365afe2f",
					"coins(address)": "7d0f7a88",
					"delCoin(address)": "4051b9aa",
					"deleteContract(address)": "2637a477",
					"initContract(address)": "cf9d4afa",
					"initDone()": "fed0a20e",
					"lock()": "f83d08ba",
					"lockOff()": "5ecaf1c8",
					"lockOn()": "b4b15df5",
					"proxy()": "ec556889",
					"removeFromBlacklist(address)": "537df3b6",
					"sellTokens(uint256)": "6c11bcd3",
					"updateProxy(address)": "9e955149"
				}
			},
			"storageLayout": {
				"storage": [
					{
						"astId": 387,
						"contract": "TFGv3/Contracts/SCExchange.sol:SCExchange",
						"label": "proxy",
						"offset": 0,
						"slot": "0",
						"type": "t_address"
					},
					{
						"astId": 391,
						"contract": "TFGv3/Contracts/SCExchange.sol:SCExchange",
						"label": "coins",
						"offset": 0,
						"slot": "1",
						"type": "t_mapping(t_address,t_uint256)"
					},
					{
						"astId": 395,
						"contract": "TFGv3/Contracts/SCExchange.sol:SCExchange",
						"label": "blacklist",
						"offset": 0,
						"slot": "2",
						"type": "t_mapping(t_address,t_uint256)"
					},
					{
						"astId": 397,
						"contract": "TFGv3/Contracts/SCExchange.sol:SCExchange",
						"label": "lock",
						"offset": 0,
						"slot": "3",
						"type": "t_uint8"
					},
					{
						"astId": 399,
						"contract": "TFGv3/Contracts/SCExchange.sol:SCExchange",
						"label": "initDone",
						"offset": 1,
						"slot": "3",
						"type": "t_uint8"
					}
				],
				"types": {
					"t_address": {
						"encoding": "inplace",
						"label": "address",
						"numberOfBytes": "20"
					},
					"t_mapping(t_address,t_uint256)": {
						"encoding": "mapping",
						"key": "t_address",
						"label": "mapping(address => uint256)",
						"numberOfBytes": "32",
						"value": "t_uint256"
					},
					"t_uint256": {
						"encoding": "inplace",
						"label": "uint256",
						"numberOfBytes": "32"
					},
					"t_uint8": {
						"encoding": "inplace",
						"label": "uint8",
						"numberOfBytes": "1"
					}
				}
			},
			"userdoc": {
				"kind": "user",
				"methods": {},
				"version": 1
			}
		}
	}
}