{
	"TFGv3/Contracts/Proxy.sol": {
		"Proxy": {
			"abi": [
				{
					"inputs": [],
					"stateMutability": "nonpayable",
					"type": "constructor"
				},
				{
					"stateMutability": "payable",
					"type": "fallback"
				},
				{
					"inputs": [],
					"name": "commissionContract",
					"outputs": [
						{
							"internalType": "address",
							"name": "",
							"type": "address"
						}
					],
					"stateMutability": "view",
					"type": "function"
				},
				{
					"inputs": [
						{
							"internalType": "address",
							"name": "newAddr",
							"type": "address"
						}
					],
					"name": "deleteContract",
					"outputs": [],
					"stateMutability": "nonpayable",
					"type": "function"
				},
				{
					"inputs": [],
					"name": "exchangeContract",
					"outputs": [
						{
							"internalType": "address",
							"name": "",
							"type": "address"
						}
					],
					"stateMutability": "view",
					"type": "function"
				},
				{
					"inputs": [
						{
							"internalType": "address",
							"name": "exchangeAddr",
							"type": "address"
						},
						{
							"internalType": "address",
							"name": "storageAddr",
							"type": "address"
						},
						{
							"internalType": "address",
							"name": "commissionAddr",
							"type": "address"
						},
						{
							"internalType": "address",
							"name": "opsAddr",
							"type": "address"
						},
						{
							"internalType": "address",
							"name": "tokenAddr",
							"type": "address"
						}
					],
					"name": "initAddrs",
					"outputs": [],
					"stateMutability": "nonpayable",
					"type": "function"
				},
				{
					"inputs": [
						{
							"internalType": "bytes[]",
							"name": "data",
							"type": "bytes[]"
						},
						{
							"internalType": "address[]",
							"name": "contractAddr",
							"type": "address[]"
						}
					],
					"name": "multicall",
					"outputs": [
						{
							"internalType": "bytes[]",
							"name": "results",
							"type": "bytes[]"
						}
					],
					"stateMutability": "nonpayable",
					"type": "function"
				},
				{
					"inputs": [],
					"name": "opsContract",
					"outputs": [
						{
							"internalType": "address",
							"name": "",
							"type": "address"
						}
					],
					"stateMutability": "view",
					"type": "function"
				},
				{
					"inputs": [
						{
							"internalType": "address",
							"name": "commissionAddr",
							"type": "address"
						}
					],
					"name": "setCommissionAddr",
					"outputs": [],
					"stateMutability": "nonpayable",
					"type": "function"
				},
				{
					"inputs": [
						{
							"internalType": "address",
							"name": "exchangeAddr",
							"type": "address"
						}
					],
					"name": "setExchangeAddr",
					"outputs": [],
					"stateMutability": "nonpayable",
					"type": "function"
				},
				{
					"inputs": [
						{
							"internalType": "address",
							"name": "opsAddr",
							"type": "address"
						}
					],
					"name": "setOpsAddr",
					"outputs": [],
					"stateMutability": "nonpayable",
					"type": "function"
				},
				{
					"inputs": [
						{
							"internalType": "address",
							"name": "storageAddr",
							"type": "address"
						}
					],
					"name": "setStorageAddr",
					"outputs": [],
					"stateMutability": "nonpayable",
					"type": "function"
				},
				{
					"inputs": [
						{
							"internalType": "address",
							"name": "tokenAddr",
							"type": "address"
						}
					],
					"name": "setTokenAddr",
					"outputs": [],
					"stateMutability": "nonpayable",
					"type": "function"
				},
				{
					"inputs": [],
					"name": "storageContract",
					"outputs": [
						{
							"internalType": "address",
							"name": "",
							"type": "address"
						}
					],
					"stateMutability": "view",
					"type": "function"
				},
				{
					"inputs": [],
					"name": "token",
					"outputs": [
						{
							"internalType": "address",
							"name": "",
							"type": "address"
						}
					],
					"stateMutability": "view",
					"type": "function"
				},
				{
					"inputs": [
						{
							"internalType": "address",
							"name": "",
							"type": "address"
						}
					],
					"name": "trustedContracts",
					"outputs": [
						{
							"internalType": "uint256",
							"name": "",
							"type": "uint256"
						}
					],
					"stateMutability": "view",
					"type": "function"
				},
				{
					"stateMutability": "payable",
					"type": "receive"
				}
			],
			"devdoc": {
				"kind": "dev",
				"methods": {},
				"version": 1
			},
			"evm": {
				"assembly": "    /* \"TFGv3/Contracts/Proxy.sol\":108:4022  contract Proxy is IProxy... */\n  mstore(0x40, 0xa0)\n    /* \"TFGv3/Contracts/Proxy.sol\":386:439  constructor()... */\n  callvalue\n  dup1\n  iszero\n  tag_1\n  jumpi\n  0x00\n  dup1\n  revert\ntag_1:\n  pop\n    /* \"TFGv3/Contracts/Proxy.sol\":422:432  msg.sender */\n  caller\n    /* \"TFGv3/Contracts/Proxy.sol\":414:432  owner = msg.sender */\n  0xffffffffffffffffffffffffffffffffffffffff\n  and\n  0x80\n  dup2\n  0xffffffffffffffffffffffffffffffffffffffff\n  and\n  dup2\n  mstore\n  pop\n  pop\n    /* \"TFGv3/Contracts/Proxy.sol\":108:4022  contract Proxy is IProxy... */\n  mload(0x80)\n  codecopy(0x00, dataOffset(sub_0), dataSize(sub_0))\n  0x00\n  assignImmutable(\"0x5081277725af21b52adfcd8be9eaf5a350f1ec111a4413c31b8ff210fe7f74ef\")\n  return(0x00, dataSize(sub_0))\nstop\n\nsub_0: assembly {\n        /* \"TFGv3/Contracts/Proxy.sol\":108:4022  contract Proxy is IProxy... */\n      mstore(0x40, 0x80)\n      jumpi(tag_1, lt(calldatasize, 0x04))\n      shr(0xe0, calldataload(0x00))\n      dup1\n      0x8ae91695\n      gt\n      tag_17\n      jumpi\n      dup1\n      0xda8909e5\n      gt\n      tag_18\n      jumpi\n      dup1\n      0xda8909e5\n      eq\n      tag_13\n      jumpi\n      dup1\n      0xdc96d689\n      eq\n      tag_14\n      jumpi\n      dup1\n      0xe5919a4f\n      eq\n      tag_15\n      jumpi\n      dup1\n      0xfc0c546a\n      eq\n      tag_16\n      jumpi\n      jump(tag_2)\n    tag_18:\n      dup1\n      0x8ae91695\n      eq\n      tag_10\n      jumpi\n      dup1\n      0xa6fa0b7b\n      eq\n      tag_11\n      jumpi\n      dup1\n      0xcf368a39\n      eq\n      tag_12\n      jumpi\n      jump(tag_2)\n    tag_17:\n      dup1\n      0x2637a477\n      gt\n      tag_19\n      jumpi\n      dup1\n      0x2637a477\n      eq\n      tag_6\n      jumpi\n      dup1\n      0x2ebd1e28\n      eq\n      tag_7\n      jumpi\n      dup1\n      0x3f0a0797\n      eq\n      tag_8\n      jumpi\n      dup1\n      0x600e1b2b\n      eq\n      tag_9\n      jumpi\n      jump(tag_2)\n    tag_19:\n      dup1\n      0x101dfd19\n      eq\n      tag_3\n      jumpi\n      dup1\n      0x11ce0267\n      eq\n      tag_4\n      jumpi\n      dup1\n      0x1b46a447\n      eq\n      tag_5\n      jumpi\n      jump(tag_2)\n    tag_1:\n      jumpi(tag_2, calldatasize)\n        /* \"TFGv3/Contracts/Proxy.sol\":3938:3946  revert() */\n      0x00\n      dup1\n      revert\n        /* \"TFGv3/Contracts/Proxy.sol\":108:4022  contract Proxy is IProxy... */\n    tag_2:\n        /* \"TFGv3/Contracts/Proxy.sol\":4005:4013  revert() */\n      0x00\n      dup1\n      revert\n        /* \"TFGv3/Contracts/Proxy.sol\":2374:2701  function setCommissionAddr(address commissionAddr) external OnlyOwner... */\n    tag_3:\n      callvalue\n      dup1\n      iszero\n      tag_24\n      jumpi\n      0x00\n      dup1\n      revert\n    tag_24:\n      pop\n      tag_25\n      0x04\n      dup1\n      calldatasize\n      sub\n      dup2\n      add\n      swap1\n      tag_26\n      swap2\n      swap1\n      tag_27\n      jump\t// in\n    tag_26:\n      tag_28\n      jump\t// in\n    tag_25:\n      stop\n        /* \"TFGv3/Contracts/Proxy.sol\":206:236  address public storageContract */\n    tag_4:\n      callvalue\n      dup1\n      iszero\n      tag_29\n      jumpi\n      0x00\n      dup1\n      revert\n    tag_29:\n      pop\n      tag_30\n      tag_31\n      jump\t// in\n    tag_30:\n      mload(0x40)\n      tag_32\n      swap2\n      swap1\n      tag_33\n      jump\t// in\n    tag_32:\n      mload(0x40)\n      dup1\n      swap2\n      sub\n      swap1\n      return\n        /* \"TFGv3/Contracts/Proxy.sol\":1394:1942  function initAddrs(address exchangeAddr, address storageAddr, address commissionAddr, address opsAddr, address tokenAddr) external OnlyOwner... */\n    tag_5:\n      callvalue\n      dup1\n      iszero\n      tag_34\n      jumpi\n      0x00\n      dup1\n      revert\n    tag_34:\n      pop\n      tag_35\n      0x04\n      dup1\n      calldatasize\n      sub\n      dup2\n      add\n      swap1\n      tag_36\n      swap2\n      swap1\n      tag_37\n      jump\t// in\n    tag_36:\n      tag_38\n      jump\t// in\n    tag_35:\n      stop\n        /* \"TFGv3/Contracts/Proxy.sol\":3249:3891  function deleteContract(address newAddr) external virtual override OnlyOwner... */\n    tag_6:\n      callvalue\n      dup1\n      iszero\n      tag_39\n      jumpi\n      0x00\n      dup1\n      revert\n    tag_39:\n      pop\n      tag_40\n      0x04\n      dup1\n      calldatasize\n      sub\n      dup2\n      add\n      swap1\n      tag_41\n      swap2\n      swap1\n      tag_27\n      jump\t// in\n    tag_41:\n      tag_42\n      jump\t// in\n    tag_40:\n      stop\n        /* \"TFGv3/Contracts/Proxy.sol\":2977:3243  function setTokenAddr(address tokenAddr) external OnlyOwner... */\n    tag_7:\n      callvalue\n      dup1\n      iszero\n      tag_43\n      jumpi\n      0x00\n      dup1\n      revert\n    tag_43:\n      pop\n      tag_44\n      0x04\n      dup1\n      calldatasize\n      sub\n      dup2\n      add\n      swap1\n      tag_45\n      swap2\n      swap1\n      tag_27\n      jump\t// in\n    tag_45:\n      tag_46\n      jump\t// in\n    tag_44:\n      stop\n        /* \"TFGv3/Contracts/Proxy.sol\":169:200  address public exchangeContract */\n    tag_8:\n      callvalue\n      dup1\n      iszero\n      tag_47\n      jumpi\n      0x00\n      dup1\n      revert\n    tag_47:\n      pop\n      tag_48\n      tag_49\n      jump\t// in\n    tag_48:\n      mload(0x40)\n      tag_50\n      swap2\n      swap1\n      tag_33\n      jump\t// in\n    tag_50:\n      mload(0x40)\n      dup1\n      swap2\n      sub\n      swap1\n      return\n        /* \"TFGv3/Contracts/Proxy.sol\":532:1388  function multicall(bytes[] calldata data, address[] calldata contractAddr) external virtual override returns (bytes[] memory results)... */\n    tag_9:\n      callvalue\n      dup1\n      iszero\n      tag_51\n      jumpi\n      0x00\n      dup1\n      revert\n    tag_51:\n      pop\n      tag_52\n      0x04\n      dup1\n      calldatasize\n      sub\n      dup2\n      add\n      swap1\n      tag_53\n      swap2\n      swap1\n      tag_54\n      jump\t// in\n    tag_53:\n      tag_55\n      jump\t// in\n    tag_52:\n      mload(0x40)\n      tag_56\n      swap2\n      swap1\n      tag_57\n      jump\t// in\n    tag_56:\n      mload(0x40)\n      dup1\n      swap2\n      sub\n      swap1\n      return\n        /* \"TFGv3/Contracts/Proxy.sol\":1948:2158  function setExchangeAddr(address exchangeAddr) external OnlyOwner... */\n    tag_10:\n      callvalue\n      dup1\n      iszero\n      tag_58\n      jumpi\n      0x00\n      dup1\n      revert\n    tag_58:\n      pop\n      tag_59\n      0x04\n      dup1\n      calldatasize\n      sub\n      dup2\n      add\n      swap1\n      tag_60\n      swap2\n      swap1\n      tag_27\n      jump\t// in\n    tag_60:\n      tag_61\n      jump\t// in\n    tag_59:\n      stop\n        /* \"TFGv3/Contracts/Proxy.sol\":2164:2368  function setStorageAddr(address storageAddr) external OnlyOwner... */\n    tag_11:\n      callvalue\n      dup1\n      iszero\n      tag_62\n      jumpi\n      0x00\n      dup1\n      revert\n    tag_62:\n      pop\n      tag_63\n      0x04\n      dup1\n      calldatasize\n      sub\n      dup2\n      add\n      swap1\n      tag_64\n      swap2\n      swap1\n      tag_27\n      jump\t// in\n    tag_64:\n      tag_65\n      jump\t// in\n    tag_63:\n      stop\n        /* \"TFGv3/Contracts/Proxy.sol\":2707:2971  function setOpsAddr(address opsAddr) external OnlyOwner... */\n    tag_12:\n      callvalue\n      dup1\n      iszero\n      tag_66\n      jumpi\n      0x00\n      dup1\n      revert\n    tag_66:\n      pop\n      tag_67\n      0x04\n      dup1\n      calldatasize\n      sub\n      dup2\n      add\n      swap1\n      tag_68\n      swap2\n      swap1\n      tag_27\n      jump\t// in\n    tag_68:\n      tag_69\n      jump\t// in\n    tag_67:\n      stop\n        /* \"TFGv3/Contracts/Proxy.sol\":239:272  address public commissionContract */\n    tag_13:\n      callvalue\n      dup1\n      iszero\n      tag_70\n      jumpi\n      0x00\n      dup1\n      revert\n    tag_70:\n      pop\n      tag_71\n      tag_72\n      jump\t// in\n    tag_71:\n      mload(0x40)\n      tag_73\n      swap2\n      swap1\n      tag_33\n      jump\t// in\n    tag_73:\n      mload(0x40)\n      dup1\n      swap2\n      sub\n      swap1\n      return\n        /* \"TFGv3/Contracts/Proxy.sol\":275:301  address public opsContract */\n    tag_14:\n      callvalue\n      dup1\n      iszero\n      tag_74\n      jumpi\n      0x00\n      dup1\n      revert\n    tag_74:\n      pop\n      tag_75\n      tag_76\n      jump\t// in\n    tag_75:\n      mload(0x40)\n      tag_77\n      swap2\n      swap1\n      tag_33\n      jump\t// in\n    tag_77:\n      mload(0x40)\n      dup1\n      swap2\n      sub\n      swap1\n      return\n        /* \"TFGv3/Contracts/Proxy.sol\":330:379  mapping (address => uint) public trustedContracts */\n    tag_15:\n      callvalue\n      dup1\n      iszero\n      tag_78\n      jumpi\n      0x00\n      dup1\n      revert\n    tag_78:\n      pop\n      tag_79\n      0x04\n      dup1\n      calldatasize\n      sub\n      dup2\n      add\n      swap1\n      tag_80\n      swap2\n      swap1\n      tag_27\n      jump\t// in\n    tag_80:\n      tag_81\n      jump\t// in\n    tag_79:\n      mload(0x40)\n      tag_82\n      swap2\n      swap1\n      tag_83\n      jump\t// in\n    tag_82:\n      mload(0x40)\n      dup1\n      swap2\n      sub\n      swap1\n      return\n        /* \"TFGv3/Contracts/Proxy.sol\":304:324  address public token */\n    tag_16:\n      callvalue\n      dup1\n      iszero\n      tag_84\n      jumpi\n      0x00\n      dup1\n      revert\n    tag_84:\n      pop\n      tag_85\n      tag_86\n      jump\t// in\n    tag_85:\n      mload(0x40)\n      tag_87\n      swap2\n      swap1\n      tag_33\n      jump\t// in\n    tag_87:\n      mload(0x40)\n      dup1\n      swap2\n      sub\n      swap1\n      return\n        /* \"TFGv3/Contracts/Proxy.sol\":2374:2701  function setCommissionAddr(address commissionAddr) external OnlyOwner... */\n    tag_28:\n        /* \"TFGv3/Contracts/Proxy.sol\":502:507  owner */\n      immutable(\"0x5081277725af21b52adfcd8be9eaf5a350f1ec111a4413c31b8ff210fe7f74ef\")\n        /* \"TFGv3/Contracts/Proxy.sol\":488:507  msg.sender == owner */\n      0xffffffffffffffffffffffffffffffffffffffff\n      and\n        /* \"TFGv3/Contracts/Proxy.sol\":488:498  msg.sender */\n      caller\n        /* \"TFGv3/Contracts/Proxy.sol\":488:507  msg.sender == owner */\n      0xffffffffffffffffffffffffffffffffffffffff\n      and\n      eq\n        /* \"TFGv3/Contracts/Proxy.sol\":480:508  require(msg.sender == owner) */\n      tag_89\n      jumpi\n      0x00\n      dup1\n      revert\n    tag_89:\n        /* \"TFGv3/Contracts/Proxy.sol\":2458:2483  address oldCommissionAddr */\n      0x00\n        /* \"TFGv3/Contracts/Proxy.sol\":2486:2504  commissionContract */\n      0x02\n      0x00\n      swap1\n      sload\n      swap1\n      0x0100\n      exp\n      swap1\n      div\n      0xffffffffffffffffffffffffffffffffffffffff\n      and\n        /* \"TFGv3/Contracts/Proxy.sol\":2458:2504  address oldCommissionAddr = commissionContract */\n      swap1\n      pop\n        /* \"TFGv3/Contracts/Proxy.sol\":2536:2553  oldCommissionAddr */\n      dup1\n        /* \"TFGv3/Contracts/Proxy.sol\":2522:2553  msg.sender == oldCommissionAddr */\n      0xffffffffffffffffffffffffffffffffffffffff\n      and\n        /* \"TFGv3/Contracts/Proxy.sol\":2522:2532  msg.sender */\n      caller\n        /* \"TFGv3/Contracts/Proxy.sol\":2522:2553  msg.sender == oldCommissionAddr */\n      0xffffffffffffffffffffffffffffffffffffffff\n      and\n      eq\n        /* \"TFGv3/Contracts/Proxy.sol\":2514:2554  require(msg.sender == oldCommissionAddr) */\n      tag_91\n      jumpi\n      0x00\n      dup1\n      revert\n    tag_91:\n        /* \"TFGv3/Contracts/Proxy.sol\":2602:2603  0 */\n      0x00\n        /* \"TFGv3/Contracts/Proxy.sol\":2564:2580  trustedContracts */\n      0x05\n        /* \"TFGv3/Contracts/Proxy.sol\":2564:2599  trustedContracts[oldCommissionAddr] */\n      0x00\n        /* \"TFGv3/Contracts/Proxy.sol\":2581:2598  oldCommissionAddr */\n      dup4\n        /* \"TFGv3/Contracts/Proxy.sol\":2564:2599  trustedContracts[oldCommissionAddr] */\n      0xffffffffffffffffffffffffffffffffffffffff\n      and\n      0xffffffffffffffffffffffffffffffffffffffff\n      and\n      dup2\n      mstore\n      0x20\n      add\n      swap1\n      dup2\n      mstore\n      0x20\n      add\n      0x00\n      keccak256\n        /* \"TFGv3/Contracts/Proxy.sol\":2564:2603  trustedContracts[oldCommissionAddr] = 0 */\n      dup2\n      swap1\n      sstore\n      pop\n        /* \"TFGv3/Contracts/Proxy.sol\":2634:2648  commissionAddr */\n      dup2\n        /* \"TFGv3/Contracts/Proxy.sol\":2613:2631  commissionContract */\n      0x02\n      0x00\n        /* \"TFGv3/Contracts/Proxy.sol\":2613:2648  commissionContract = commissionAddr */\n      0x0100\n      exp\n      dup2\n      sload\n      dup2\n      0xffffffffffffffffffffffffffffffffffffffff\n      mul\n      not\n      and\n      swap1\n      dup4\n      0xffffffffffffffffffffffffffffffffffffffff\n      and\n      mul\n      or\n      swap1\n      sstore\n      pop\n        /* \"TFGv3/Contracts/Proxy.sol\":2693:2694  1 */\n      0x01\n        /* \"TFGv3/Contracts/Proxy.sol\":2658:2674  trustedContracts */\n      0x05\n        /* \"TFGv3/Contracts/Proxy.sol\":2658:2690  trustedContracts[commissionAddr] */\n      0x00\n        /* \"TFGv3/Contracts/Proxy.sol\":2675:2689  commissionAddr */\n      dup5\n        /* \"TFGv3/Contracts/Proxy.sol\":2658:2690  trustedContracts[commissionAddr] */\n      0xffffffffffffffffffffffffffffffffffffffff\n      and\n      0xffffffffffffffffffffffffffffffffffffffff\n      and\n      dup2\n      mstore\n      0x20\n      add\n      swap1\n      dup2\n      mstore\n      0x20\n      add\n      0x00\n      keccak256\n        /* \"TFGv3/Contracts/Proxy.sol\":2658:2694  trustedContracts[commissionAddr] = 1 */\n      dup2\n      swap1\n      sstore\n      pop\n        /* \"TFGv3/Contracts/Proxy.sol\":2448:2701  {... */\n      pop\n        /* \"TFGv3/Contracts/Proxy.sol\":2374:2701  function setCommissionAddr(address commissionAddr) external OnlyOwner... */\n      pop\n      jump\t// out\n        /* \"TFGv3/Contracts/Proxy.sol\":206:236  address public storageContract */\n    tag_31:\n      0x01\n      0x00\n      swap1\n      sload\n      swap1\n      0x0100\n      exp\n      swap1\n      div\n      0xffffffffffffffffffffffffffffffffffffffff\n      and\n      dup2\n      jump\t// out\n        /* \"TFGv3/Contracts/Proxy.sol\":1394:1942  function initAddrs(address exchangeAddr, address storageAddr, address commissionAddr, address opsAddr, address tokenAddr) external OnlyOwner... */\n    tag_38:\n        /* \"TFGv3/Contracts/Proxy.sol\":502:507  owner */\n      immutable(\"0x5081277725af21b52adfcd8be9eaf5a350f1ec111a4413c31b8ff210fe7f74ef\")\n        /* \"TFGv3/Contracts/Proxy.sol\":488:507  msg.sender == owner */\n      0xffffffffffffffffffffffffffffffffffffffff\n      and\n        /* \"TFGv3/Contracts/Proxy.sol\":488:498  msg.sender */\n      caller\n        /* \"TFGv3/Contracts/Proxy.sol\":488:507  msg.sender == owner */\n      0xffffffffffffffffffffffffffffffffffffffff\n      and\n      eq\n        /* \"TFGv3/Contracts/Proxy.sol\":480:508  require(msg.sender == owner) */\n      tag_93\n      jumpi\n      0x00\n      dup1\n      revert\n    tag_93:\n        /* \"TFGv3/Contracts/Proxy.sol\":1568:1580  exchangeAddr */\n      dup5\n        /* \"TFGv3/Contracts/Proxy.sol\":1549:1565  exchangeContract */\n      0x00\n      dup1\n        /* \"TFGv3/Contracts/Proxy.sol\":1549:1580  exchangeContract = exchangeAddr */\n      0x0100\n      exp\n      dup2\n      sload\n      dup2\n      0xffffffffffffffffffffffffffffffffffffffff\n      mul\n      not\n      and\n      swap1\n      dup4\n      0xffffffffffffffffffffffffffffffffffffffff\n      and\n      mul\n      or\n      swap1\n      sstore\n      pop\n        /* \"TFGv3/Contracts/Proxy.sol\":1623:1624  1 */\n      0x01\n        /* \"TFGv3/Contracts/Proxy.sol\":1590:1606  trustedContracts */\n      0x05\n        /* \"TFGv3/Contracts/Proxy.sol\":1590:1620  trustedContracts[exchangeAddr] */\n      0x00\n        /* \"TFGv3/Contracts/Proxy.sol\":1607:1619  exchangeAddr */\n      dup8\n        /* \"TFGv3/Contracts/Proxy.sol\":1590:1620  trustedContracts[exchangeAddr] */\n      0xffffffffffffffffffffffffffffffffffffffff\n      and\n      0xffffffffffffffffffffffffffffffffffffffff\n      and\n      dup2\n      mstore\n      0x20\n      add\n      swap1\n      dup2\n      mstore\n      0x20\n      add\n      0x00\n      keccak256\n        /* \"TFGv3/Contracts/Proxy.sol\":1590:1624  trustedContracts[exchangeAddr] = 1 */\n      dup2\n      swap1\n      sstore\n      pop\n        /* \"TFGv3/Contracts/Proxy.sol\":1652:1663  storageAddr */\n      dup4\n        /* \"TFGv3/Contracts/Proxy.sol\":1634:1649  storageContract */\n      0x01\n      0x00\n        /* \"TFGv3/Contracts/Proxy.sol\":1634:1663  storageContract = storageAddr */\n      0x0100\n      exp\n      dup2\n      sload\n      dup2\n      0xffffffffffffffffffffffffffffffffffffffff\n      mul\n      not\n      and\n      swap1\n      dup4\n      0xffffffffffffffffffffffffffffffffffffffff\n      and\n      mul\n      or\n      swap1\n      sstore\n      pop\n        /* \"TFGv3/Contracts/Proxy.sol\":1705:1706  1 */\n      0x01\n        /* \"TFGv3/Contracts/Proxy.sol\":1673:1689  trustedContracts */\n      0x05\n        /* \"TFGv3/Contracts/Proxy.sol\":1673:1702  trustedContracts[storageAddr] */\n      0x00\n        /* \"TFGv3/Contracts/Proxy.sol\":1690:1701  storageAddr */\n      dup7\n        /* \"TFGv3/Contracts/Proxy.sol\":1673:1702  trustedContracts[storageAddr] */\n      0xffffffffffffffffffffffffffffffffffffffff\n      and\n      0xffffffffffffffffffffffffffffffffffffffff\n      and\n      dup2\n      mstore\n      0x20\n      add\n      swap1\n      dup2\n      mstore\n      0x20\n      add\n      0x00\n      keccak256\n        /* \"TFGv3/Contracts/Proxy.sol\":1673:1706  trustedContracts[storageAddr] = 1 */\n      dup2\n      swap1\n      sstore\n      pop\n        /* \"TFGv3/Contracts/Proxy.sol\":1737:1751  commissionAddr */\n      dup3\n        /* \"TFGv3/Contracts/Proxy.sol\":1716:1734  commissionContract */\n      0x02\n      0x00\n        /* \"TFGv3/Contracts/Proxy.sol\":1716:1751  commissionContract = commissionAddr */\n      0x0100\n      exp\n      dup2\n      sload\n      dup2\n      0xffffffffffffffffffffffffffffffffffffffff\n      mul\n      not\n      and\n      swap1\n      dup4\n      0xffffffffffffffffffffffffffffffffffffffff\n      and\n      mul\n      or\n      swap1\n      sstore\n      pop\n        /* \"TFGv3/Contracts/Proxy.sol\":1796:1797  1 */\n      0x01\n        /* \"TFGv3/Contracts/Proxy.sol\":1761:1777  trustedContracts */\n      0x05\n        /* \"TFGv3/Contracts/Proxy.sol\":1761:1793  trustedContracts[commissionAddr] */\n      0x00\n        /* \"TFGv3/Contracts/Proxy.sol\":1778:1792  commissionAddr */\n      dup6\n        /* \"TFGv3/Contracts/Proxy.sol\":1761:1793  trustedContracts[commissionAddr] */\n      0xffffffffffffffffffffffffffffffffffffffff\n      and\n      0xffffffffffffffffffffffffffffffffffffffff\n      and\n      dup2\n      mstore\n      0x20\n      add\n      swap1\n      dup2\n      mstore\n      0x20\n      add\n      0x00\n      keccak256\n        /* \"TFGv3/Contracts/Proxy.sol\":1761:1797  trustedContracts[commissionAddr] = 1 */\n      dup2\n      swap1\n      sstore\n      pop\n        /* \"TFGv3/Contracts/Proxy.sol\":1821:1828  opsAddr */\n      dup2\n        /* \"TFGv3/Contracts/Proxy.sol\":1807:1818  opsContract */\n      0x03\n      0x00\n        /* \"TFGv3/Contracts/Proxy.sol\":1807:1828  opsContract = opsAddr */\n      0x0100\n      exp\n      dup2\n      sload\n      dup2\n      0xffffffffffffffffffffffffffffffffffffffff\n      mul\n      not\n      and\n      swap1\n      dup4\n      0xffffffffffffffffffffffffffffffffffffffff\n      and\n      mul\n      or\n      swap1\n      sstore\n      pop\n        /* \"TFGv3/Contracts/Proxy.sol\":1866:1867  1 */\n      0x01\n        /* \"TFGv3/Contracts/Proxy.sol\":1838:1854  trustedContracts */\n      0x05\n        /* \"TFGv3/Contracts/Proxy.sol\":1838:1863  trustedContracts[opsAddr] */\n      0x00\n        /* \"TFGv3/Contracts/Proxy.sol\":1855:1862  opsAddr */\n      dup5\n        /* \"TFGv3/Contracts/Proxy.sol\":1838:1863  trustedContracts[opsAddr] */\n      0xffffffffffffffffffffffffffffffffffffffff\n      and\n      0xffffffffffffffffffffffffffffffffffffffff\n      and\n      dup2\n      mstore\n      0x20\n      add\n      swap1\n      dup2\n      mstore\n      0x20\n      add\n      0x00\n      keccak256\n        /* \"TFGv3/Contracts/Proxy.sol\":1838:1867  trustedContracts[opsAddr] = 1 */\n      dup2\n      swap1\n      sstore\n      pop\n        /* \"TFGv3/Contracts/Proxy.sol\":1885:1894  tokenAddr */\n      dup1\n        /* \"TFGv3/Contracts/Proxy.sol\":1877:1882  token */\n      0x04\n      0x00\n        /* \"TFGv3/Contracts/Proxy.sol\":1877:1894  token = tokenAddr */\n      0x0100\n      exp\n      dup2\n      sload\n      dup2\n      0xffffffffffffffffffffffffffffffffffffffff\n      mul\n      not\n      and\n      swap1\n      dup4\n      0xffffffffffffffffffffffffffffffffffffffff\n      and\n      mul\n      or\n      swap1\n      sstore\n      pop\n        /* \"TFGv3/Contracts/Proxy.sol\":1934:1935  1 */\n      0x01\n        /* \"TFGv3/Contracts/Proxy.sol\":1904:1920  trustedContracts */\n      0x05\n        /* \"TFGv3/Contracts/Proxy.sol\":1904:1931  trustedContracts[tokenAddr] */\n      0x00\n        /* \"TFGv3/Contracts/Proxy.sol\":1921:1930  tokenAddr */\n      dup4\n        /* \"TFGv3/Contracts/Proxy.sol\":1904:1931  trustedContracts[tokenAddr] */\n      0xffffffffffffffffffffffffffffffffffffffff\n      and\n      0xffffffffffffffffffffffffffffffffffffffff\n      and\n      dup2\n      mstore\n      0x20\n      add\n      swap1\n      dup2\n      mstore\n      0x20\n      add\n      0x00\n      keccak256\n        /* \"TFGv3/Contracts/Proxy.sol\":1904:1935  trustedContracts[tokenAddr] = 1 */\n      dup2\n      swap1\n      sstore\n      pop\n        /* \"TFGv3/Contracts/Proxy.sol\":1394:1942  function initAddrs(address exchangeAddr, address storageAddr, address commissionAddr, address opsAddr, address tokenAddr) external OnlyOwner... */\n      pop\n      pop\n      pop\n      pop\n      pop\n      jump\t// out\n        /* \"TFGv3/Contracts/Proxy.sol\":3249:3891  function deleteContract(address newAddr) external virtual override OnlyOwner... */\n    tag_42:\n        /* \"TFGv3/Contracts/Proxy.sol\":502:507  owner */\n      immutable(\"0x5081277725af21b52adfcd8be9eaf5a350f1ec111a4413c31b8ff210fe7f74ef\")\n        /* \"TFGv3/Contracts/Proxy.sol\":488:507  msg.sender == owner */\n      0xffffffffffffffffffffffffffffffffffffffff\n      and\n        /* \"TFGv3/Contracts/Proxy.sol\":488:498  msg.sender */\n      caller\n        /* \"TFGv3/Contracts/Proxy.sol\":488:507  msg.sender == owner */\n      0xffffffffffffffffffffffffffffffffffffffff\n      and\n      eq\n        /* \"TFGv3/Contracts/Proxy.sol\":480:508  require(msg.sender == owner) */\n      tag_96\n      jumpi\n      0x00\n      dup1\n      revert\n    tag_96:\n        /* \"TFGv3/Contracts/Proxy.sol\":3341:3358  address exchangeC */\n      0x00\n        /* \"TFGv3/Contracts/Proxy.sol\":3360:3376  address storageC */\n      dup1\n        /* \"TFGv3/Contracts/Proxy.sol\":3378:3397  address commissionC */\n      0x00\n        /* \"TFGv3/Contracts/Proxy.sol\":3399:3411  address opsC */\n      dup1\n        /* \"TFGv3/Contracts/Proxy.sol\":3413:3427  address tokenC */\n      0x00\n        /* \"TFGv3/Contracts/Proxy.sol\":3432:3448  exchangeContract */\n      dup1\n      0x00\n      swap1\n      sload\n      swap1\n      0x0100\n      exp\n      swap1\n      div\n      0xffffffffffffffffffffffffffffffffffffffff\n      and\n        /* \"TFGv3/Contracts/Proxy.sol\":3450:3465  storageContract */\n      0x01\n      0x00\n      swap1\n      sload\n      swap1\n      0x0100\n      exp\n      swap1\n      div\n      0xffffffffffffffffffffffffffffffffffffffff\n      and\n        /* \"TFGv3/Contracts/Proxy.sol\":3467:3485  commissionContract */\n      0x02\n      0x00\n      swap1\n      sload\n      swap1\n      0x0100\n      exp\n      swap1\n      div\n      0xffffffffffffffffffffffffffffffffffffffff\n      and\n        /* \"TFGv3/Contracts/Proxy.sol\":3487:3498  opsContract */\n      0x03\n      0x00\n      swap1\n      sload\n      swap1\n      0x0100\n      exp\n      swap1\n      div\n      0xffffffffffffffffffffffffffffffffffffffff\n      and\n        /* \"TFGv3/Contracts/Proxy.sol\":3500:3505  token */\n      0x04\n      0x00\n      swap1\n      sload\n      swap1\n      0x0100\n      exp\n      swap1\n      div\n      0xffffffffffffffffffffffffffffffffffffffff\n      and\n        /* \"TFGv3/Contracts/Proxy.sol\":3340:3506  (address exchangeC, address storageC, address commissionC, address opsC, address tokenC) = (exchangeContract, storageContract, commissionContract, opsContract, token) */\n      swap5\n      pop\n      swap5\n      pop\n      swap5\n      pop\n      swap5\n      pop\n      swap5\n      pop\n        /* \"TFGv3/Contracts/Proxy.sol\":3516:3523  newAddr */\n      dup6\n        /* \"TFGv3/Contracts/Proxy.sol\":3516:3536  newAddr.delegatecall */\n      0xffffffffffffffffffffffffffffffffffffffff\n      and\n        /* \"TFGv3/Contracts/Proxy.sol\":3615:3624  exchangeC */\n      dup6\n        /* \"TFGv3/Contracts/Proxy.sol\":3626:3634  storageC */\n      dup6\n        /* \"TFGv3/Contracts/Proxy.sol\":3636:3647  commissionC */\n      dup6\n        /* \"TFGv3/Contracts/Proxy.sol\":3649:3653  opsC */\n      dup6\n        /* \"TFGv3/Contracts/Proxy.sol\":3655:3661  tokenC */\n      dup6\n        /* \"TFGv3/Contracts/Proxy.sol\":3537:3662  abi.encodeWithSignature(\"initAddrs(address,address,address,address,address)\", exchangeC, storageC, commissionC, opsC, tokenC) */\n      add(0x24, mload(0x40))\n      tag_98\n      swap6\n      swap5\n      swap4\n      swap3\n      swap2\n      swap1\n      tag_99\n      jump\t// in\n    tag_98:\n      mload(0x40)\n      0x20\n      dup2\n      dup4\n      sub\n      sub\n      dup2\n      mstore\n      swap1\n      0x40\n      mstore\n      and(not(0xffffffffffffffffffffffffffffffffffffffffffffffffffffffff), 0x1b46a44700000000000000000000000000000000000000000000000000000000)\n      0x20\n      dup3\n      add\n      dup1\n      mload\n      0xffffffffffffffffffffffffffffffffffffffffffffffffffffffff\n      dup4\n      dup2\n      dup4\n      and\n      or\n      dup4\n      mstore\n      pop\n      pop\n      pop\n      pop\n        /* \"TFGv3/Contracts/Proxy.sol\":3516:3663  newAddr.delegatecall(abi.encodeWithSignature(\"initAddrs(address,address,address,address,address)\", exchangeC, storageC, commissionC, opsC, tokenC)) */\n      mload(0x40)\n      tag_100\n      swap2\n      swap1\n      tag_101\n      jump\t// in\n    tag_100:\n      0x00\n      mload(0x40)\n      dup1\n      dup4\n      sub\n      dup2\n      dup6\n      gas\n      delegatecall\n      swap2\n      pop\n      pop\n      returndatasize\n      dup1\n      0x00\n      dup2\n      eq\n      tag_104\n      jumpi\n      mload(0x40)\n      swap2\n      pop\n      and(add(returndatasize, 0x3f), not(0x1f))\n      dup3\n      add\n      0x40\n      mstore\n      returndatasize\n      dup3\n      mstore\n      returndatasize\n      0x00\n      0x20\n      dup5\n      add\n      returndatacopy\n      jump(tag_103)\n    tag_104:\n      0x60\n      swap2\n      pop\n    tag_103:\n      pop\n      pop\n      pop\n        /* \"TFGv3/Contracts/Proxy.sol\":3701:3702  0 */\n      0x00\n        /* \"TFGv3/Contracts/Proxy.sol\":3674:3690  exchangeContract */\n      dup1\n      0x00\n        /* \"TFGv3/Contracts/Proxy.sol\":3674:3703  exchangeContract = address(0) */\n      0x0100\n      exp\n      dup2\n      sload\n      dup2\n      0xffffffffffffffffffffffffffffffffffffffff\n      mul\n      not\n      and\n      swap1\n      dup4\n      0xffffffffffffffffffffffffffffffffffffffff\n      and\n      mul\n      or\n      swap1\n      sstore\n      pop\n        /* \"TFGv3/Contracts/Proxy.sol\":3739:3740  0 */\n      0x00\n        /* \"TFGv3/Contracts/Proxy.sol\":3713:3728  storageContract */\n      0x01\n      0x00\n        /* \"TFGv3/Contracts/Proxy.sol\":3713:3741  storageContract = address(0) */\n      0x0100\n      exp\n      dup2\n      sload\n      dup2\n      0xffffffffffffffffffffffffffffffffffffffff\n      mul\n      not\n      and\n      swap1\n      dup4\n      0xffffffffffffffffffffffffffffffffffffffff\n      and\n      mul\n      or\n      swap1\n      sstore\n      pop\n        /* \"TFGv3/Contracts/Proxy.sol\":3781:3782  0 */\n      0x00\n        /* \"TFGv3/Contracts/Proxy.sol\":3752:3770  commissionContract */\n      0x02\n      0x00\n        /* \"TFGv3/Contracts/Proxy.sol\":3752:3783  commissionContract = address(0) */\n      0x0100\n      exp\n      dup2\n      sload\n      dup2\n      0xffffffffffffffffffffffffffffffffffffffff\n      mul\n      not\n      and\n      swap1\n      dup4\n      0xffffffffffffffffffffffffffffffffffffffff\n      and\n      mul\n      or\n      swap1\n      sstore\n      pop\n        /* \"TFGv3/Contracts/Proxy.sol\":3816:3817  0 */\n      0x00\n        /* \"TFGv3/Contracts/Proxy.sol\":3794:3805  opsContract */\n      0x03\n      0x00\n        /* \"TFGv3/Contracts/Proxy.sol\":3794:3818  opsContract = address(0) */\n      0x0100\n      exp\n      dup2\n      sload\n      dup2\n      0xffffffffffffffffffffffffffffffffffffffff\n      mul\n      not\n      and\n      swap1\n      dup4\n      0xffffffffffffffffffffffffffffffffffffffff\n      and\n      mul\n      or\n      swap1\n      sstore\n      pop\n        /* \"TFGv3/Contracts/Proxy.sol\":3844:3845  0 */\n      0x00\n        /* \"TFGv3/Contracts/Proxy.sol\":3828:3833  token */\n      0x04\n      0x00\n        /* \"TFGv3/Contracts/Proxy.sol\":3828:3846  token = address(0) */\n      0x0100\n      exp\n      dup2\n      sload\n      dup2\n      0xffffffffffffffffffffffffffffffffffffffff\n      mul\n      not\n      and\n      swap1\n      dup4\n      0xffffffffffffffffffffffffffffffffffffffff\n      and\n      mul\n      or\n      swap1\n      sstore\n      pop\n        /* \"TFGv3/Contracts/Proxy.sol\":3877:3882  owner */\n      immutable(\"0x5081277725af21b52adfcd8be9eaf5a350f1ec111a4413c31b8ff210fe7f74ef\")\n        /* \"TFGv3/Contracts/Proxy.sol\":3856:3884  selfdestruct(payable(owner)) */\n      0xffffffffffffffffffffffffffffffffffffffff\n      and\n      selfdestruct\n        /* \"TFGv3/Contracts/Proxy.sol\":2977:3243  function setTokenAddr(address tokenAddr) external OnlyOwner... */\n    tag_46:\n        /* \"TFGv3/Contracts/Proxy.sol\":502:507  owner */\n      immutable(\"0x5081277725af21b52adfcd8be9eaf5a350f1ec111a4413c31b8ff210fe7f74ef\")\n        /* \"TFGv3/Contracts/Proxy.sol\":488:507  msg.sender == owner */\n      0xffffffffffffffffffffffffffffffffffffffff\n      and\n        /* \"TFGv3/Contracts/Proxy.sol\":488:498  msg.sender */\n      caller\n        /* \"TFGv3/Contracts/Proxy.sol\":488:507  msg.sender == owner */\n      0xffffffffffffffffffffffffffffffffffffffff\n      and\n      eq\n        /* \"TFGv3/Contracts/Proxy.sol\":480:508  require(msg.sender == owner) */\n      tag_106\n      jumpi\n      0x00\n      dup1\n      revert\n    tag_106:\n        /* \"TFGv3/Contracts/Proxy.sol\":3051:3071  address oldTokenAddr */\n      0x00\n        /* \"TFGv3/Contracts/Proxy.sol\":3074:3079  token */\n      0x04\n      0x00\n      swap1\n      sload\n      swap1\n      0x0100\n      exp\n      swap1\n      div\n      0xffffffffffffffffffffffffffffffffffffffff\n      and\n        /* \"TFGv3/Contracts/Proxy.sol\":3051:3079  address oldTokenAddr = token */\n      swap1\n      pop\n        /* \"TFGv3/Contracts/Proxy.sol\":3111:3123  oldTokenAddr */\n      dup1\n        /* \"TFGv3/Contracts/Proxy.sol\":3097:3123  msg.sender == oldTokenAddr */\n      0xffffffffffffffffffffffffffffffffffffffff\n      and\n        /* \"TFGv3/Contracts/Proxy.sol\":3097:3107  msg.sender */\n      caller\n        /* \"TFGv3/Contracts/Proxy.sol\":3097:3123  msg.sender == oldTokenAddr */\n      0xffffffffffffffffffffffffffffffffffffffff\n      and\n      eq\n        /* \"TFGv3/Contracts/Proxy.sol\":3089:3124  require(msg.sender == oldTokenAddr) */\n      tag_108\n      jumpi\n      0x00\n      dup1\n      revert\n    tag_108:\n        /* \"TFGv3/Contracts/Proxy.sol\":3167:3168  0 */\n      0x00\n        /* \"TFGv3/Contracts/Proxy.sol\":3134:3150  trustedContracts */\n      0x05\n        /* \"TFGv3/Contracts/Proxy.sol\":3134:3164  trustedContracts[oldTokenAddr] */\n      0x00\n        /* \"TFGv3/Contracts/Proxy.sol\":3151:3163  oldTokenAddr */\n      dup4\n        /* \"TFGv3/Contracts/Proxy.sol\":3134:3164  trustedContracts[oldTokenAddr] */\n      0xffffffffffffffffffffffffffffffffffffffff\n      and\n      0xffffffffffffffffffffffffffffffffffffffff\n      and\n      dup2\n      mstore\n      0x20\n      add\n      swap1\n      dup2\n      mstore\n      0x20\n      add\n      0x00\n      keccak256\n        /* \"TFGv3/Contracts/Proxy.sol\":3134:3168  trustedContracts[oldTokenAddr] = 0 */\n      dup2\n      swap1\n      sstore\n      pop\n        /* \"TFGv3/Contracts/Proxy.sol\":3186:3195  tokenAddr */\n      dup2\n        /* \"TFGv3/Contracts/Proxy.sol\":3178:3183  token */\n      0x04\n      0x00\n        /* \"TFGv3/Contracts/Proxy.sol\":3178:3195  token = tokenAddr */\n      0x0100\n      exp\n      dup2\n      sload\n      dup2\n      0xffffffffffffffffffffffffffffffffffffffff\n      mul\n      not\n      and\n      swap1\n      dup4\n      0xffffffffffffffffffffffffffffffffffffffff\n      and\n      mul\n      or\n      swap1\n      sstore\n      pop\n        /* \"TFGv3/Contracts/Proxy.sol\":3235:3236  1 */\n      0x01\n        /* \"TFGv3/Contracts/Proxy.sol\":3205:3221  trustedContracts */\n      0x05\n        /* \"TFGv3/Contracts/Proxy.sol\":3205:3232  trustedContracts[tokenAddr] */\n      0x00\n        /* \"TFGv3/Contracts/Proxy.sol\":3222:3231  tokenAddr */\n      dup5\n        /* \"TFGv3/Contracts/Proxy.sol\":3205:3232  trustedContracts[tokenAddr] */\n      0xffffffffffffffffffffffffffffffffffffffff\n      and\n      0xffffffffffffffffffffffffffffffffffffffff\n      and\n      dup2\n      mstore\n      0x20\n      add\n      swap1\n      dup2\n      mstore\n      0x20\n      add\n      0x00\n      keccak256\n        /* \"TFGv3/Contracts/Proxy.sol\":3205:3236  trustedContracts[tokenAddr] = 1 */\n      dup2\n      swap1\n      sstore\n      pop\n        /* \"TFGv3/Contracts/Proxy.sol\":3041:3243  {... */\n      pop\n        /* \"TFGv3/Contracts/Proxy.sol\":2977:3243  function setTokenAddr(address tokenAddr) external OnlyOwner... */\n      pop\n      jump\t// out\n        /* \"TFGv3/Contracts/Proxy.sol\":169:200  address public exchangeContract */\n    tag_49:\n      0x00\n      dup1\n      sload\n      swap1\n      0x0100\n      exp\n      swap1\n      div\n      0xffffffffffffffffffffffffffffffffffffffff\n      and\n      dup2\n      jump\t// out\n        /* \"TFGv3/Contracts/Proxy.sol\":532:1388  function multicall(bytes[] calldata data, address[] calldata contractAddr) external virtual override returns (bytes[] memory results)... */\n    tag_55:\n        /* \"TFGv3/Contracts/Proxy.sol\":642:664  bytes[] memory results */\n      0x60\n        /* \"TFGv3/Contracts/Proxy.sol\":684:690  uint i */\n      0x00\n        /* \"TFGv3/Contracts/Proxy.sol\":680:773  for(uint i = 0; i < contractAddr.length; i++) require(trustedContracts[contractAddr[i]] == 1) */\n    tag_110:\n        /* \"TFGv3/Contracts/Proxy.sol\":700:712  contractAddr */\n      dup4\n      dup4\n        /* \"TFGv3/Contracts/Proxy.sol\":700:719  contractAddr.length */\n      swap1\n      pop\n        /* \"TFGv3/Contracts/Proxy.sol\":696:697  i */\n      dup2\n        /* \"TFGv3/Contracts/Proxy.sol\":696:719  i < contractAddr.length */\n      lt\n        /* \"TFGv3/Contracts/Proxy.sol\":680:773  for(uint i = 0; i < contractAddr.length; i++) require(trustedContracts[contractAddr[i]] == 1) */\n      iszero\n      tag_111\n      jumpi\n        /* \"TFGv3/Contracts/Proxy.sol\":771:772  1 */\n      0x01\n        /* \"TFGv3/Contracts/Proxy.sol\":734:750  trustedContracts */\n      0x05\n        /* \"TFGv3/Contracts/Proxy.sol\":734:767  trustedContracts[contractAddr[i]] */\n      0x00\n        /* \"TFGv3/Contracts/Proxy.sol\":751:763  contractAddr */\n      dup7\n      dup7\n        /* \"TFGv3/Contracts/Proxy.sol\":764:765  i */\n      dup6\n        /* \"TFGv3/Contracts/Proxy.sol\":751:766  contractAddr[i] */\n      dup2\n      dup2\n      lt\n      tag_113\n      jumpi\n      tag_114\n      tag_115\n      jump\t// in\n    tag_114:\n    tag_113:\n      swap1\n      pop\n      0x20\n      mul\n      add\n      0x20\n      dup2\n      add\n      swap1\n      tag_116\n      swap2\n      swap1\n      tag_27\n      jump\t// in\n    tag_116:\n        /* \"TFGv3/Contracts/Proxy.sol\":734:767  trustedContracts[contractAddr[i]] */\n      0xffffffffffffffffffffffffffffffffffffffff\n      and\n      0xffffffffffffffffffffffffffffffffffffffff\n      and\n      dup2\n      mstore\n      0x20\n      add\n      swap1\n      dup2\n      mstore\n      0x20\n      add\n      0x00\n      keccak256\n      sload\n        /* \"TFGv3/Contracts/Proxy.sol\":734:772  trustedContracts[contractAddr[i]] == 1 */\n      eq\n        /* \"TFGv3/Contracts/Proxy.sol\":726:773  require(trustedContracts[contractAddr[i]] == 1) */\n      tag_117\n      jumpi\n      0x00\n      dup1\n      revert\n    tag_117:\n        /* \"TFGv3/Contracts/Proxy.sol\":721:724  i++ */\n      dup1\n      dup1\n      tag_118\n      swap1\n      tag_119\n      jump\t// in\n    tag_118:\n      swap2\n      pop\n      pop\n        /* \"TFGv3/Contracts/Proxy.sol\":680:773  for(uint i = 0; i < contractAddr.length; i++) require(trustedContracts[contractAddr[i]] == 1) */\n      jump(tag_110)\n    tag_111:\n      pop\n        /* \"TFGv3/Contracts/Proxy.sol\":959:963  data */\n      dup5\n      dup5\n        /* \"TFGv3/Contracts/Proxy.sol\":959:970  data.length */\n      swap1\n      pop\n        /* \"TFGv3/Contracts/Proxy.sol\":947:971  new bytes[](data.length) */\n      0xffffffffffffffff\n      dup2\n      gt\n      iszero\n      tag_120\n      jumpi\n      tag_121\n      tag_122\n      jump\t// in\n    tag_121:\n    tag_120:\n      mload(0x40)\n      swap1\n      dup1\n      dup3\n      mstore\n      dup1\n      0x20\n      mul\n      0x20\n      add\n      dup3\n      add\n      0x40\n      mstore\n      dup1\n      iszero\n      tag_123\n      jumpi\n      dup2\n      0x20\n      add\n    tag_124:\n      0x60\n      dup2\n      mstore\n      0x20\n      add\n      swap1\n      0x01\n      swap1\n      sub\n      swap1\n      dup2\n      tag_124\n      jumpi\n      swap1\n      pop\n    tag_123:\n      pop\n        /* \"TFGv3/Contracts/Proxy.sol\":937:971  results = new bytes[](data.length) */\n      swap1\n      pop\n        /* \"TFGv3/Contracts/Proxy.sol\":985:991  uint i */\n      0x00\n        /* \"TFGv3/Contracts/Proxy.sol\":981:1382  for(uint i = 0; i < data.length; i++)... */\n    tag_125:\n        /* \"TFGv3/Contracts/Proxy.sol\":1001:1005  data */\n      dup6\n      dup6\n        /* \"TFGv3/Contracts/Proxy.sol\":1001:1012  data.length */\n      swap1\n      pop\n        /* \"TFGv3/Contracts/Proxy.sol\":997:998  i */\n      dup2\n        /* \"TFGv3/Contracts/Proxy.sol\":997:1012  i < data.length */\n      lt\n        /* \"TFGv3/Contracts/Proxy.sol\":981:1382  for(uint i = 0; i < data.length; i++)... */\n      iszero\n      tag_126\n      jumpi\n        /* \"TFGv3/Contracts/Proxy.sol\":1042:1054  bool success */\n      0x00\n        /* \"TFGv3/Contracts/Proxy.sol\":1056:1075  bytes memory result */\n      dup1\n        /* \"TFGv3/Contracts/Proxy.sol\":1087:1099  contractAddr */\n      dup6\n      dup6\n        /* \"TFGv3/Contracts/Proxy.sol\":1100:1101  i */\n      dup5\n        /* \"TFGv3/Contracts/Proxy.sol\":1087:1102  contractAddr[i] */\n      dup2\n      dup2\n      lt\n      tag_128\n      jumpi\n      tag_129\n      tag_115\n      jump\t// in\n    tag_129:\n    tag_128:\n      swap1\n      pop\n      0x20\n      mul\n      add\n      0x20\n      dup2\n      add\n      swap1\n      tag_130\n      swap2\n      swap1\n      tag_27\n      jump\t// in\n    tag_130:\n        /* \"TFGv3/Contracts/Proxy.sol\":1079:1116  address(contractAddr[i]).delegatecall */\n      0xffffffffffffffffffffffffffffffffffffffff\n      and\n        /* \"TFGv3/Contracts/Proxy.sol\":1117:1121  data */\n      dup9\n      dup9\n        /* \"TFGv3/Contracts/Proxy.sol\":1122:1123  i */\n      dup6\n        /* \"TFGv3/Contracts/Proxy.sol\":1117:1124  data[i] */\n      dup2\n      dup2\n      lt\n      tag_131\n      jumpi\n      tag_132\n      tag_115\n      jump\t// in\n    tag_132:\n    tag_131:\n      swap1\n      pop\n      0x20\n      mul\n      dup2\n      add\n      swap1\n      tag_133\n      swap2\n      swap1\n      tag_134\n      jump\t// in\n    tag_133:\n        /* \"TFGv3/Contracts/Proxy.sol\":1079:1125  address(contractAddr[i]).delegatecall(data[i]) */\n      mload(0x40)\n      tag_135\n      swap3\n      swap2\n      swap1\n      tag_136\n      jump\t// in\n    tag_135:\n      0x00\n      mload(0x40)\n      dup1\n      dup4\n      sub\n      dup2\n      dup6\n      gas\n      delegatecall\n      swap2\n      pop\n      pop\n      returndatasize\n      dup1\n      0x00\n      dup2\n      eq\n      tag_139\n      jumpi\n      mload(0x40)\n      swap2\n      pop\n      and(add(returndatasize, 0x3f), not(0x1f))\n      dup3\n      add\n      0x40\n      mstore\n      returndatasize\n      dup3\n      mstore\n      returndatasize\n      0x00\n      0x20\n      dup5\n      add\n      returndatacopy\n      jump(tag_138)\n    tag_139:\n      0x60\n      swap2\n      pop\n    tag_138:\n      pop\n        /* \"TFGv3/Contracts/Proxy.sol\":1041:1125  (bool success, bytes memory result) = address(contractAddr[i]).delegatecall(data[i]) */\n      swap2\n      pop\n      swap2\n      pop\n        /* \"TFGv3/Contracts/Proxy.sol\":1144:1151  success */\n      dup2\n        /* \"TFGv3/Contracts/Proxy.sol\":1139:1339  if (!success)... */\n      tag_140\n      jumpi\n        /* \"TFGv3/Contracts/Proxy.sol\":1203:1205  68 */\n      0x44\n        /* \"TFGv3/Contracts/Proxy.sol\":1187:1193  result */\n      dup2\n        /* \"TFGv3/Contracts/Proxy.sol\":1187:1200  result.length */\n      mload\n        /* \"TFGv3/Contracts/Proxy.sol\":1187:1205  result.length < 68 */\n      lt\n        /* \"TFGv3/Contracts/Proxy.sol\":1183:1215  if (result.length < 68) revert() */\n      iszero\n      tag_141\n      jumpi\n        /* \"TFGv3/Contracts/Proxy.sol\":1207:1215  revert() */\n      0x00\n      dup1\n      revert\n        /* \"TFGv3/Contracts/Proxy.sol\":1183:1215  if (result.length < 68) revert() */\n    tag_141:\n        /* \"TFGv3/Contracts/Proxy.sol\":1265:1269  0x04 */\n      0x04\n        /* \"TFGv3/Contracts/Proxy.sol\":1257:1263  result */\n      dup2\n        /* \"TFGv3/Contracts/Proxy.sol\":1253:1270  add(result, 0x04) */\n      add\n        /* \"TFGv3/Contracts/Proxy.sol\":1243:1270  result := add(result, 0x04) */\n      swap1\n      pop\n        /* \"TFGv3/Contracts/Proxy.sol\":1306:1312  result */\n      dup1\n        /* \"TFGv3/Contracts/Proxy.sol\":1295:1323  abi.decode(result, (string)) */\n      dup1\n      0x20\n      add\n      swap1\n      mload\n      dup2\n      add\n      swap1\n      tag_142\n      swap2\n      swap1\n      tag_143\n      jump\t// in\n    tag_142:\n        /* \"TFGv3/Contracts/Proxy.sol\":1288:1324  revert(abi.decode(result, (string))) */\n      mload(0x40)\n      0x08c379a000000000000000000000000000000000000000000000000000000000\n      dup2\n      mstore\n      0x04\n      add\n      tag_144\n      swap2\n      swap1\n      tag_145\n      jump\t// in\n    tag_144:\n      mload(0x40)\n      dup1\n      swap2\n      sub\n      swap1\n      revert\n        /* \"TFGv3/Contracts/Proxy.sol\":1139:1339  if (!success)... */\n    tag_140:\n        /* \"TFGv3/Contracts/Proxy.sol\":1365:1371  result */\n      dup1\n        /* \"TFGv3/Contracts/Proxy.sol\":1352:1359  results */\n      dup5\n        /* \"TFGv3/Contracts/Proxy.sol\":1360:1361  i */\n      dup5\n        /* \"TFGv3/Contracts/Proxy.sol\":1352:1362  results[i] */\n      dup2\n      mload\n      dup2\n      lt\n      tag_146\n      jumpi\n      tag_147\n      tag_115\n      jump\t// in\n    tag_147:\n    tag_146:\n      0x20\n      mul\n      0x20\n      add\n      add\n        /* \"TFGv3/Contracts/Proxy.sol\":1352:1371  results[i] = result */\n      dup2\n      swap1\n      mstore\n      pop\n        /* \"TFGv3/Contracts/Proxy.sol\":1027:1382  {... */\n      pop\n      pop\n        /* \"TFGv3/Contracts/Proxy.sol\":1014:1017  i++ */\n      dup1\n      dup1\n      tag_148\n      swap1\n      tag_119\n      jump\t// in\n    tag_148:\n      swap2\n      pop\n      pop\n        /* \"TFGv3/Contracts/Proxy.sol\":981:1382  for(uint i = 0; i < data.length; i++)... */\n      jump(tag_125)\n    tag_126:\n      pop\n        /* \"TFGv3/Contracts/Proxy.sol\":532:1388  function multicall(bytes[] calldata data, address[] calldata contractAddr) external virtual override returns (bytes[] memory results)... */\n      swap5\n      swap4\n      pop\n      pop\n      pop\n      pop\n      jump\t// out\n        /* \"TFGv3/Contracts/Proxy.sol\":1948:2158  function setExchangeAddr(address exchangeAddr) external OnlyOwner... */\n    tag_61:\n        /* \"TFGv3/Contracts/Proxy.sol\":502:507  owner */\n      immutable(\"0x5081277725af21b52adfcd8be9eaf5a350f1ec111a4413c31b8ff210fe7f74ef\")\n        /* \"TFGv3/Contracts/Proxy.sol\":488:507  msg.sender == owner */\n      0xffffffffffffffffffffffffffffffffffffffff\n      and\n        /* \"TFGv3/Contracts/Proxy.sol\":488:498  msg.sender */\n      caller\n        /* \"TFGv3/Contracts/Proxy.sol\":488:507  msg.sender == owner */\n      0xffffffffffffffffffffffffffffffffffffffff\n      and\n      eq\n        /* \"TFGv3/Contracts/Proxy.sol\":480:508  require(msg.sender == owner) */\n      tag_150\n      jumpi\n      0x00\n      dup1\n      revert\n    tag_150:\n        /* \"TFGv3/Contracts/Proxy.sol\":2065:2066  0 */\n      0x00\n        /* \"TFGv3/Contracts/Proxy.sol\":2028:2044  trustedContracts */\n      0x05\n        /* \"TFGv3/Contracts/Proxy.sol\":2028:2062  trustedContracts[exchangeContract] */\n      0x00\n        /* \"TFGv3/Contracts/Proxy.sol\":2045:2061  exchangeContract */\n      dup1\n      0x00\n      swap1\n      sload\n      swap1\n      0x0100\n      exp\n      swap1\n      div\n      0xffffffffffffffffffffffffffffffffffffffff\n      and\n        /* \"TFGv3/Contracts/Proxy.sol\":2028:2062  trustedContracts[exchangeContract] */\n      0xffffffffffffffffffffffffffffffffffffffff\n      and\n      0xffffffffffffffffffffffffffffffffffffffff\n      and\n      dup2\n      mstore\n      0x20\n      add\n      swap1\n      dup2\n      mstore\n      0x20\n      add\n      0x00\n      keccak256\n        /* \"TFGv3/Contracts/Proxy.sol\":2028:2066  trustedContracts[exchangeContract] = 0 */\n      dup2\n      swap1\n      sstore\n      pop\n        /* \"TFGv3/Contracts/Proxy.sol\":2095:2107  exchangeAddr */\n      dup1\n        /* \"TFGv3/Contracts/Proxy.sol\":2076:2092  exchangeContract */\n      0x00\n      dup1\n        /* \"TFGv3/Contracts/Proxy.sol\":2076:2107  exchangeContract = exchangeAddr */\n      0x0100\n      exp\n      dup2\n      sload\n      dup2\n      0xffffffffffffffffffffffffffffffffffffffff\n      mul\n      not\n      and\n      swap1\n      dup4\n      0xffffffffffffffffffffffffffffffffffffffff\n      and\n      mul\n      or\n      swap1\n      sstore\n      pop\n        /* \"TFGv3/Contracts/Proxy.sol\":2150:2151  1 */\n      0x01\n        /* \"TFGv3/Contracts/Proxy.sol\":2117:2133  trustedContracts */\n      0x05\n        /* \"TFGv3/Contracts/Proxy.sol\":2117:2147  trustedContracts[exchangeAddr] */\n      0x00\n        /* \"TFGv3/Contracts/Proxy.sol\":2134:2146  exchangeAddr */\n      dup4\n        /* \"TFGv3/Contracts/Proxy.sol\":2117:2147  trustedContracts[exchangeAddr] */\n      0xffffffffffffffffffffffffffffffffffffffff\n      and\n      0xffffffffffffffffffffffffffffffffffffffff\n      and\n      dup2\n      mstore\n      0x20\n      add\n      swap1\n      dup2\n      mstore\n      0x20\n      add\n      0x00\n      keccak256\n        /* \"TFGv3/Contracts/Proxy.sol\":2117:2151  trustedContracts[exchangeAddr] = 1 */\n      dup2\n      swap1\n      sstore\n      pop\n        /* \"TFGv3/Contracts/Proxy.sol\":1948:2158  function setExchangeAddr(address exchangeAddr) external OnlyOwner... */\n      pop\n      jump\t// out\n        /* \"TFGv3/Contracts/Proxy.sol\":2164:2368  function setStorageAddr(address storageAddr) external OnlyOwner... */\n    tag_65:\n        /* \"TFGv3/Contracts/Proxy.sol\":502:507  owner */\n      immutable(\"0x5081277725af21b52adfcd8be9eaf5a350f1ec111a4413c31b8ff210fe7f74ef\")\n        /* \"TFGv3/Contracts/Proxy.sol\":488:507  msg.sender == owner */\n      0xffffffffffffffffffffffffffffffffffffffff\n      and\n        /* \"TFGv3/Contracts/Proxy.sol\":488:498  msg.sender */\n      caller\n        /* \"TFGv3/Contracts/Proxy.sol\":488:507  msg.sender == owner */\n      0xffffffffffffffffffffffffffffffffffffffff\n      and\n      eq\n        /* \"TFGv3/Contracts/Proxy.sol\":480:508  require(msg.sender == owner) */\n      tag_153\n      jumpi\n      0x00\n      dup1\n      revert\n    tag_153:\n        /* \"TFGv3/Contracts/Proxy.sol\":2278:2279  0 */\n      0x00\n        /* \"TFGv3/Contracts/Proxy.sol\":2242:2258  trustedContracts */\n      0x05\n        /* \"TFGv3/Contracts/Proxy.sol\":2242:2275  trustedContracts[storageContract] */\n      0x00\n        /* \"TFGv3/Contracts/Proxy.sol\":2259:2274  storageContract */\n      0x01\n      0x00\n      swap1\n      sload\n      swap1\n      0x0100\n      exp\n      swap1\n      div\n      0xffffffffffffffffffffffffffffffffffffffff\n      and\n        /* \"TFGv3/Contracts/Proxy.sol\":2242:2275  trustedContracts[storageContract] */\n      0xffffffffffffffffffffffffffffffffffffffff\n      and\n      0xffffffffffffffffffffffffffffffffffffffff\n      and\n      dup2\n      mstore\n      0x20\n      add\n      swap1\n      dup2\n      mstore\n      0x20\n      add\n      0x00\n      keccak256\n        /* \"TFGv3/Contracts/Proxy.sol\":2242:2279  trustedContracts[storageContract] = 0 */\n      dup2\n      swap1\n      sstore\n      pop\n        /* \"TFGv3/Contracts/Proxy.sol\":2307:2318  storageAddr */\n      dup1\n        /* \"TFGv3/Contracts/Proxy.sol\":2289:2304  storageContract */\n      0x01\n      0x00\n        /* \"TFGv3/Contracts/Proxy.sol\":2289:2318  storageContract = storageAddr */\n      0x0100\n      exp\n      dup2\n      sload\n      dup2\n      0xffffffffffffffffffffffffffffffffffffffff\n      mul\n      not\n      and\n      swap1\n      dup4\n      0xffffffffffffffffffffffffffffffffffffffff\n      and\n      mul\n      or\n      swap1\n      sstore\n      pop\n        /* \"TFGv3/Contracts/Proxy.sol\":2360:2361  1 */\n      0x01\n        /* \"TFGv3/Contracts/Proxy.sol\":2328:2344  trustedContracts */\n      0x05\n        /* \"TFGv3/Contracts/Proxy.sol\":2328:2357  trustedContracts[storageAddr] */\n      0x00\n        /* \"TFGv3/Contracts/Proxy.sol\":2345:2356  storageAddr */\n      dup4\n        /* \"TFGv3/Contracts/Proxy.sol\":2328:2357  trustedContracts[storageAddr] */\n      0xffffffffffffffffffffffffffffffffffffffff\n      and\n      0xffffffffffffffffffffffffffffffffffffffff\n      and\n      dup2\n      mstore\n      0x20\n      add\n      swap1\n      dup2\n      mstore\n      0x20\n      add\n      0x00\n      keccak256\n        /* \"TFGv3/Contracts/Proxy.sol\":2328:2361  trustedContracts[storageAddr] = 1 */\n      dup2\n      swap1\n      sstore\n      pop\n        /* \"TFGv3/Contracts/Proxy.sol\":2164:2368  function setStorageAddr(address storageAddr) external OnlyOwner... */\n      pop\n      jump\t// out\n        /* \"TFGv3/Contracts/Proxy.sol\":2707:2971  function setOpsAddr(address opsAddr) external OnlyOwner... */\n    tag_69:\n        /* \"TFGv3/Contracts/Proxy.sol\":502:507  owner */\n      immutable(\"0x5081277725af21b52adfcd8be9eaf5a350f1ec111a4413c31b8ff210fe7f74ef\")\n        /* \"TFGv3/Contracts/Proxy.sol\":488:507  msg.sender == owner */\n      0xffffffffffffffffffffffffffffffffffffffff\n      and\n        /* \"TFGv3/Contracts/Proxy.sol\":488:498  msg.sender */\n      caller\n        /* \"TFGv3/Contracts/Proxy.sol\":488:507  msg.sender == owner */\n      0xffffffffffffffffffffffffffffffffffffffff\n      and\n      eq\n        /* \"TFGv3/Contracts/Proxy.sol\":480:508  require(msg.sender == owner) */\n      tag_156\n      jumpi\n      0x00\n      dup1\n      revert\n    tag_156:\n        /* \"TFGv3/Contracts/Proxy.sol\":2777:2795  address oldOpsAddr */\n      0x00\n        /* \"TFGv3/Contracts/Proxy.sol\":2798:2809  opsContract */\n      0x03\n      0x00\n      swap1\n      sload\n      swap1\n      0x0100\n      exp\n      swap1\n      div\n      0xffffffffffffffffffffffffffffffffffffffff\n      and\n        /* \"TFGv3/Contracts/Proxy.sol\":2777:2809  address oldOpsAddr = opsContract */\n      swap1\n      pop\n        /* \"TFGv3/Contracts/Proxy.sol\":2841:2851  oldOpsAddr */\n      dup1\n        /* \"TFGv3/Contracts/Proxy.sol\":2827:2851  msg.sender == oldOpsAddr */\n      0xffffffffffffffffffffffffffffffffffffffff\n      and\n        /* \"TFGv3/Contracts/Proxy.sol\":2827:2837  msg.sender */\n      caller\n        /* \"TFGv3/Contracts/Proxy.sol\":2827:2851  msg.sender == oldOpsAddr */\n      0xffffffffffffffffffffffffffffffffffffffff\n      and\n      eq\n        /* \"TFGv3/Contracts/Proxy.sol\":2819:2852  require(msg.sender == oldOpsAddr) */\n      tag_158\n      jumpi\n      0x00\n      dup1\n      revert\n    tag_158:\n        /* \"TFGv3/Contracts/Proxy.sol\":2893:2894  0 */\n      0x00\n        /* \"TFGv3/Contracts/Proxy.sol\":2862:2878  trustedContracts */\n      0x05\n        /* \"TFGv3/Contracts/Proxy.sol\":2862:2890  trustedContracts[oldOpsAddr] */\n      0x00\n        /* \"TFGv3/Contracts/Proxy.sol\":2879:2889  oldOpsAddr */\n      dup4\n        /* \"TFGv3/Contracts/Proxy.sol\":2862:2890  trustedContracts[oldOpsAddr] */\n      0xffffffffffffffffffffffffffffffffffffffff\n      and\n      0xffffffffffffffffffffffffffffffffffffffff\n      and\n      dup2\n      mstore\n      0x20\n      add\n      swap1\n      dup2\n      mstore\n      0x20\n      add\n      0x00\n      keccak256\n        /* \"TFGv3/Contracts/Proxy.sol\":2862:2894  trustedContracts[oldOpsAddr] = 0 */\n      dup2\n      swap1\n      sstore\n      pop\n        /* \"TFGv3/Contracts/Proxy.sol\":2918:2925  opsAddr */\n      dup2\n        /* \"TFGv3/Contracts/Proxy.sol\":2904:2915  opsContract */\n      0x03\n      0x00\n        /* \"TFGv3/Contracts/Proxy.sol\":2904:2925  opsContract = opsAddr */\n      0x0100\n      exp\n      dup2\n      sload\n      dup2\n      0xffffffffffffffffffffffffffffffffffffffff\n      mul\n      not\n      and\n      swap1\n      dup4\n      0xffffffffffffffffffffffffffffffffffffffff\n      and\n      mul\n      or\n      swap1\n      sstore\n      pop\n        /* \"TFGv3/Contracts/Proxy.sol\":2963:2964  1 */\n      0x01\n        /* \"TFGv3/Contracts/Proxy.sol\":2935:2951  trustedContracts */\n      0x05\n        /* \"TFGv3/Contracts/Proxy.sol\":2935:2960  trustedContracts[opsAddr] */\n      0x00\n        /* \"TFGv3/Contracts/Proxy.sol\":2952:2959  opsAddr */\n      dup5\n        /* \"TFGv3/Contracts/Proxy.sol\":2935:2960  trustedContracts[opsAddr] */\n      0xffffffffffffffffffffffffffffffffffffffff\n      and\n      0xffffffffffffffffffffffffffffffffffffffff\n      and\n      dup2\n      mstore\n      0x20\n      add\n      swap1\n      dup2\n      mstore\n      0x20\n      add\n      0x00\n      keccak256\n        /* \"TFGv3/Contracts/Proxy.sol\":2935:2964  trustedContracts[opsAddr] = 1 */\n      dup2\n      swap1\n      sstore\n      pop\n        /* \"TFGv3/Contracts/Proxy.sol\":2767:2971  {... */\n      pop\n        /* \"TFGv3/Contracts/Proxy.sol\":2707:2971  function setOpsAddr(address opsAddr) external OnlyOwner... */\n      pop\n      jump\t// out\n        /* \"TFGv3/Contracts/Proxy.sol\":239:272  address public commissionContract */\n    tag_72:\n      0x02\n      0x00\n      swap1\n      sload\n      swap1\n      0x0100\n      exp\n      swap1\n      div\n      0xffffffffffffffffffffffffffffffffffffffff\n      and\n      dup2\n      jump\t// out\n        /* \"TFGv3/Contracts/Proxy.sol\":275:301  address public opsContract */\n    tag_76:\n      0x03\n      0x00\n      swap1\n      sload\n      swap1\n      0x0100\n      exp\n      swap1\n      div\n      0xffffffffffffffffffffffffffffffffffffffff\n      and\n      dup2\n      jump\t// out\n        /* \"TFGv3/Contracts/Proxy.sol\":330:379  mapping (address => uint) public trustedContracts */\n    tag_81:\n      mstore(0x20, 0x05)\n      dup1\n      0x00\n      mstore\n      keccak256(0x00, 0x40)\n      0x00\n      swap2\n      pop\n      swap1\n      pop\n      sload\n      dup2\n      jump\t// out\n        /* \"TFGv3/Contracts/Proxy.sol\":304:324  address public token */\n    tag_86:\n      0x04\n      0x00\n      swap1\n      sload\n      swap1\n      0x0100\n      exp\n      swap1\n      div\n      0xffffffffffffffffffffffffffffffffffffffff\n      and\n      dup2\n      jump\t// out\n        /* \"#utility.yul\":7:82   */\n    tag_159:\n        /* \"#utility.yul\":40:46   */\n      0x00\n        /* \"#utility.yul\":73:75   */\n      0x40\n        /* \"#utility.yul\":67:76   */\n      mload\n        /* \"#utility.yul\":57:76   */\n      swap1\n      pop\n        /* \"#utility.yul\":7:82   */\n      swap1\n      jump\t// out\n        /* \"#utility.yul\":88:205   */\n    tag_160:\n        /* \"#utility.yul\":197:198   */\n      0x00\n        /* \"#utility.yul\":194:195   */\n      dup1\n        /* \"#utility.yul\":187:199   */\n      revert\n        /* \"#utility.yul\":211:328   */\n    tag_161:\n        /* \"#utility.yul\":320:321   */\n      0x00\n        /* \"#utility.yul\":317:318   */\n      dup1\n        /* \"#utility.yul\":310:322   */\n      revert\n        /* \"#utility.yul\":334:460   */\n    tag_162:\n        /* \"#utility.yul\":371:378   */\n      0x00\n        /* \"#utility.yul\":411:453   */\n      0xffffffffffffffffffffffffffffffffffffffff\n        /* \"#utility.yul\":404:409   */\n      dup3\n        /* \"#utility.yul\":400:454   */\n      and\n        /* \"#utility.yul\":389:454   */\n      swap1\n      pop\n        /* \"#utility.yul\":334:460   */\n      swap2\n      swap1\n      pop\n      jump\t// out\n        /* \"#utility.yul\":466:562   */\n    tag_163:\n        /* \"#utility.yul\":503:510   */\n      0x00\n        /* \"#utility.yul\":532:556   */\n      tag_208\n        /* \"#utility.yul\":550:555   */\n      dup3\n        /* \"#utility.yul\":532:556   */\n      tag_162\n      jump\t// in\n    tag_208:\n        /* \"#utility.yul\":521:556   */\n      swap1\n      pop\n        /* \"#utility.yul\":466:562   */\n      swap2\n      swap1\n      pop\n      jump\t// out\n        /* \"#utility.yul\":568:690   */\n    tag_164:\n        /* \"#utility.yul\":641:665   */\n      tag_210\n        /* \"#utility.yul\":659:664   */\n      dup2\n        /* \"#utility.yul\":641:665   */\n      tag_163\n      jump\t// in\n    tag_210:\n        /* \"#utility.yul\":634:639   */\n      dup2\n        /* \"#utility.yul\":631:666   */\n      eq\n        /* \"#utility.yul\":621:684   */\n      tag_211\n      jumpi\n        /* \"#utility.yul\":680:681   */\n      0x00\n        /* \"#utility.yul\":677:678   */\n      dup1\n        /* \"#utility.yul\":670:682   */\n      revert\n        /* \"#utility.yul\":621:684   */\n    tag_211:\n        /* \"#utility.yul\":568:690   */\n      pop\n      jump\t// out\n        /* \"#utility.yul\":696:835   */\n    tag_165:\n        /* \"#utility.yul\":742:747   */\n      0x00\n        /* \"#utility.yul\":780:786   */\n      dup2\n        /* \"#utility.yul\":767:787   */\n      calldataload\n        /* \"#utility.yul\":758:787   */\n      swap1\n      pop\n        /* \"#utility.yul\":796:829   */\n      tag_213\n        /* \"#utility.yul\":823:828   */\n      dup2\n        /* \"#utility.yul\":796:829   */\n      tag_164\n      jump\t// in\n    tag_213:\n        /* \"#utility.yul\":696:835   */\n      swap3\n      swap2\n      pop\n      pop\n      jump\t// out\n        /* \"#utility.yul\":841:1170   */\n    tag_27:\n        /* \"#utility.yul\":900:906   */\n      0x00\n        /* \"#utility.yul\":949:951   */\n      0x20\n        /* \"#utility.yul\":937:946   */\n      dup3\n        /* \"#utility.yul\":928:935   */\n      dup5\n        /* \"#utility.yul\":924:947   */\n      sub\n        /* \"#utility.yul\":920:952   */\n      slt\n        /* \"#utility.yul\":917:1036   */\n      iszero\n      tag_215\n      jumpi\n        /* \"#utility.yul\":955:1034   */\n      tag_216\n      tag_160\n      jump\t// in\n    tag_216:\n        /* \"#utility.yul\":917:1036   */\n    tag_215:\n        /* \"#utility.yul\":1075:1076   */\n      0x00\n        /* \"#utility.yul\":1100:1153   */\n      tag_217\n        /* \"#utility.yul\":1145:1152   */\n      dup5\n        /* \"#utility.yul\":1136:1142   */\n      dup3\n        /* \"#utility.yul\":1125:1134   */\n      dup6\n        /* \"#utility.yul\":1121:1143   */\n      add\n        /* \"#utility.yul\":1100:1153   */\n      tag_165\n      jump\t// in\n    tag_217:\n        /* \"#utility.yul\":1090:1153   */\n      swap2\n      pop\n        /* \"#utility.yul\":1046:1163   */\n      pop\n        /* \"#utility.yul\":841:1170   */\n      swap3\n      swap2\n      pop\n      pop\n      jump\t// out\n        /* \"#utility.yul\":1176:1294   */\n    tag_166:\n        /* \"#utility.yul\":1263:1287   */\n      tag_219\n        /* \"#utility.yul\":1281:1286   */\n      dup2\n        /* \"#utility.yul\":1263:1287   */\n      tag_163\n      jump\t// in\n    tag_219:\n        /* \"#utility.yul\":1258:1261   */\n      dup3\n        /* \"#utility.yul\":1251:1288   */\n      mstore\n        /* \"#utility.yul\":1176:1294   */\n      pop\n      pop\n      jump\t// out\n        /* \"#utility.yul\":1300:1522   */\n    tag_33:\n        /* \"#utility.yul\":1393:1397   */\n      0x00\n        /* \"#utility.yul\":1431:1433   */\n      0x20\n        /* \"#utility.yul\":1420:1429   */\n      dup3\n        /* \"#utility.yul\":1416:1434   */\n      add\n        /* \"#utility.yul\":1408:1434   */\n      swap1\n      pop\n        /* \"#utility.yul\":1444:1515   */\n      tag_221\n        /* \"#utility.yul\":1512:1513   */\n      0x00\n        /* \"#utility.yul\":1501:1510   */\n      dup4\n        /* \"#utility.yul\":1497:1514   */\n      add\n        /* \"#utility.yul\":1488:1494   */\n      dup5\n        /* \"#utility.yul\":1444:1515   */\n      tag_166\n      jump\t// in\n    tag_221:\n        /* \"#utility.yul\":1300:1522   */\n      swap3\n      swap2\n      pop\n      pop\n      jump\t// out\n        /* \"#utility.yul\":1528:2439   */\n    tag_37:\n        /* \"#utility.yul\":1623:1629   */\n      0x00\n        /* \"#utility.yul\":1631:1637   */\n      dup1\n        /* \"#utility.yul\":1639:1645   */\n      0x00\n        /* \"#utility.yul\":1647:1653   */\n      dup1\n        /* \"#utility.yul\":1655:1661   */\n      0x00\n        /* \"#utility.yul\":1704:1707   */\n      0xa0\n        /* \"#utility.yul\":1692:1701   */\n      dup7\n        /* \"#utility.yul\":1683:1690   */\n      dup9\n        /* \"#utility.yul\":1679:1702   */\n      sub\n        /* \"#utility.yul\":1675:1708   */\n      slt\n        /* \"#utility.yul\":1672:1792   */\n      iszero\n      tag_223\n      jumpi\n        /* \"#utility.yul\":1711:1790   */\n      tag_224\n      tag_160\n      jump\t// in\n    tag_224:\n        /* \"#utility.yul\":1672:1792   */\n    tag_223:\n        /* \"#utility.yul\":1831:1832   */\n      0x00\n        /* \"#utility.yul\":1856:1909   */\n      tag_225\n        /* \"#utility.yul\":1901:1908   */\n      dup9\n        /* \"#utility.yul\":1892:1898   */\n      dup3\n        /* \"#utility.yul\":1881:1890   */\n      dup10\n        /* \"#utility.yul\":1877:1899   */\n      add\n        /* \"#utility.yul\":1856:1909   */\n      tag_165\n      jump\t// in\n    tag_225:\n        /* \"#utility.yul\":1846:1909   */\n      swap6\n      pop\n        /* \"#utility.yul\":1802:1919   */\n      pop\n        /* \"#utility.yul\":1958:1960   */\n      0x20\n        /* \"#utility.yul\":1984:2037   */\n      tag_226\n        /* \"#utility.yul\":2029:2036   */\n      dup9\n        /* \"#utility.yul\":2020:2026   */\n      dup3\n        /* \"#utility.yul\":2009:2018   */\n      dup10\n        /* \"#utility.yul\":2005:2027   */\n      add\n        /* \"#utility.yul\":1984:2037   */\n      tag_165\n      jump\t// in\n    tag_226:\n        /* \"#utility.yul\":1974:2037   */\n      swap5\n      pop\n        /* \"#utility.yul\":1929:2047   */\n      pop\n        /* \"#utility.yul\":2086:2088   */\n      0x40\n        /* \"#utility.yul\":2112:2165   */\n      tag_227\n        /* \"#utility.yul\":2157:2164   */\n      dup9\n        /* \"#utility.yul\":2148:2154   */\n      dup3\n        /* \"#utility.yul\":2137:2146   */\n      dup10\n        /* \"#utility.yul\":2133:2155   */\n      add\n        /* \"#utility.yul\":2112:2165   */\n      tag_165\n      jump\t// in\n    tag_227:\n        /* \"#utility.yul\":2102:2165   */\n      swap4\n      pop\n        /* \"#utility.yul\":2057:2175   */\n      pop\n        /* \"#utility.yul\":2214:2216   */\n      0x60\n        /* \"#utility.yul\":2240:2293   */\n      tag_228\n        /* \"#utility.yul\":2285:2292   */\n      dup9\n        /* \"#utility.yul\":2276:2282   */\n      dup3\n        /* \"#utility.yul\":2265:2274   */\n      dup10\n        /* \"#utility.yul\":2261:2283   */\n      add\n        /* \"#utility.yul\":2240:2293   */\n      tag_165\n      jump\t// in\n    tag_228:\n        /* \"#utility.yul\":2230:2293   */\n      swap3\n      pop\n        /* \"#utility.yul\":2185:2303   */\n      pop\n        /* \"#utility.yul\":2342:2345   */\n      0x80\n        /* \"#utility.yul\":2369:2422   */\n      tag_229\n        /* \"#utility.yul\":2414:2421   */\n      dup9\n        /* \"#utility.yul\":2405:2411   */\n      dup3\n        /* \"#utility.yul\":2394:2403   */\n      dup10\n        /* \"#utility.yul\":2390:2412   */\n      add\n        /* \"#utility.yul\":2369:2422   */\n      tag_165\n      jump\t// in\n    tag_229:\n        /* \"#utility.yul\":2359:2422   */\n      swap2\n      pop\n        /* \"#utility.yul\":2313:2432   */\n      pop\n        /* \"#utility.yul\":1528:2439   */\n      swap3\n      swap6\n      pop\n      swap3\n      swap6\n      swap1\n      swap4\n      pop\n      jump\t// out\n        /* \"#utility.yul\":2445:2562   */\n    tag_167:\n        /* \"#utility.yul\":2554:2555   */\n      0x00\n        /* \"#utility.yul\":2551:2552   */\n      dup1\n        /* \"#utility.yul\":2544:2556   */\n      revert\n        /* \"#utility.yul\":2568:2685   */\n    tag_168:\n        /* \"#utility.yul\":2677:2678   */\n      0x00\n        /* \"#utility.yul\":2674:2675   */\n      dup1\n        /* \"#utility.yul\":2667:2679   */\n      revert\n        /* \"#utility.yul\":2691:2808   */\n    tag_169:\n        /* \"#utility.yul\":2800:2801   */\n      0x00\n        /* \"#utility.yul\":2797:2798   */\n      dup1\n        /* \"#utility.yul\":2790:2802   */\n      revert\n        /* \"#utility.yul\":2829:3408   */\n    tag_170:\n        /* \"#utility.yul\":2913:2921   */\n      0x00\n        /* \"#utility.yul\":2923:2929   */\n      dup1\n        /* \"#utility.yul\":2973:2976   */\n      dup4\n        /* \"#utility.yul\":2966:2970   */\n      0x1f\n        /* \"#utility.yul\":2958:2964   */\n      dup5\n        /* \"#utility.yul\":2954:2971   */\n      add\n        /* \"#utility.yul\":2950:2977   */\n      slt\n        /* \"#utility.yul\":2940:3062   */\n      tag_234\n      jumpi\n        /* \"#utility.yul\":2981:3060   */\n      tag_235\n      tag_167\n      jump\t// in\n    tag_235:\n        /* \"#utility.yul\":2940:3062   */\n    tag_234:\n        /* \"#utility.yul\":3094:3100   */\n      dup3\n        /* \"#utility.yul\":3081:3101   */\n      calldataload\n        /* \"#utility.yul\":3071:3101   */\n      swap1\n      pop\n        /* \"#utility.yul\":3124:3142   */\n      0xffffffffffffffff\n        /* \"#utility.yul\":3116:3122   */\n      dup2\n        /* \"#utility.yul\":3113:3143   */\n      gt\n        /* \"#utility.yul\":3110:3227   */\n      iszero\n      tag_236\n      jumpi\n        /* \"#utility.yul\":3146:3225   */\n      tag_237\n      tag_168\n      jump\t// in\n    tag_237:\n        /* \"#utility.yul\":3110:3227   */\n    tag_236:\n        /* \"#utility.yul\":3260:3264   */\n      0x20\n        /* \"#utility.yul\":3252:3258   */\n      dup4\n        /* \"#utility.yul\":3248:3265   */\n      add\n        /* \"#utility.yul\":3236:3265   */\n      swap2\n      pop\n        /* \"#utility.yul\":3314:3317   */\n      dup4\n        /* \"#utility.yul\":3306:3310   */\n      0x20\n        /* \"#utility.yul\":3298:3304   */\n      dup3\n        /* \"#utility.yul\":3294:3311   */\n      mul\n        /* \"#utility.yul\":3284:3292   */\n      dup4\n        /* \"#utility.yul\":3280:3312   */\n      add\n        /* \"#utility.yul\":3277:3318   */\n      gt\n        /* \"#utility.yul\":3274:3402   */\n      iszero\n      tag_238\n      jumpi\n        /* \"#utility.yul\":3321:3400   */\n      tag_239\n      tag_169\n      jump\t// in\n    tag_239:\n        /* \"#utility.yul\":3274:3402   */\n    tag_238:\n        /* \"#utility.yul\":2829:3408   */\n      swap3\n      pop\n      swap3\n      swap1\n      pop\n      jump\t// out\n        /* \"#utility.yul\":3431:3999   */\n    tag_171:\n        /* \"#utility.yul\":3504:3512   */\n      0x00\n        /* \"#utility.yul\":3514:3520   */\n      dup1\n        /* \"#utility.yul\":3564:3567   */\n      dup4\n        /* \"#utility.yul\":3557:3561   */\n      0x1f\n        /* \"#utility.yul\":3549:3555   */\n      dup5\n        /* \"#utility.yul\":3545:3562   */\n      add\n        /* \"#utility.yul\":3541:3568   */\n      slt\n        /* \"#utility.yul\":3531:3653   */\n      tag_241\n      jumpi\n        /* \"#utility.yul\":3572:3651   */\n      tag_242\n      tag_167\n      jump\t// in\n    tag_242:\n        /* \"#utility.yul\":3531:3653   */\n    tag_241:\n        /* \"#utility.yul\":3685:3691   */\n      dup3\n        /* \"#utility.yul\":3672:3692   */\n      calldataload\n        /* \"#utility.yul\":3662:3692   */\n      swap1\n      pop\n        /* \"#utility.yul\":3715:3733   */\n      0xffffffffffffffff\n        /* \"#utility.yul\":3707:3713   */\n      dup2\n        /* \"#utility.yul\":3704:3734   */\n      gt\n        /* \"#utility.yul\":3701:3818   */\n      iszero\n      tag_243\n      jumpi\n        /* \"#utility.yul\":3737:3816   */\n      tag_244\n      tag_168\n      jump\t// in\n    tag_244:\n        /* \"#utility.yul\":3701:3818   */\n    tag_243:\n        /* \"#utility.yul\":3851:3855   */\n      0x20\n        /* \"#utility.yul\":3843:3849   */\n      dup4\n        /* \"#utility.yul\":3839:3856   */\n      add\n        /* \"#utility.yul\":3827:3856   */\n      swap2\n      pop\n        /* \"#utility.yul\":3905:3908   */\n      dup4\n        /* \"#utility.yul\":3897:3901   */\n      0x20\n        /* \"#utility.yul\":3889:3895   */\n      dup3\n        /* \"#utility.yul\":3885:3902   */\n      mul\n        /* \"#utility.yul\":3875:3883   */\n      dup4\n        /* \"#utility.yul\":3871:3903   */\n      add\n        /* \"#utility.yul\":3868:3909   */\n      gt\n        /* \"#utility.yul\":3865:3993   */\n      iszero\n      tag_245\n      jumpi\n        /* \"#utility.yul\":3912:3991   */\n      tag_246\n      tag_169\n      jump\t// in\n    tag_246:\n        /* \"#utility.yul\":3865:3993   */\n    tag_245:\n        /* \"#utility.yul\":3431:3999   */\n      swap3\n      pop\n      swap3\n      swap1\n      pop\n      jump\t// out\n        /* \"#utility.yul\":4005:4961   */\n    tag_54:\n        /* \"#utility.yul\":4138:4144   */\n      0x00\n        /* \"#utility.yul\":4146:4152   */\n      dup1\n        /* \"#utility.yul\":4154:4160   */\n      0x00\n        /* \"#utility.yul\":4162:4168   */\n      dup1\n        /* \"#utility.yul\":4211:4213   */\n      0x40\n        /* \"#utility.yul\":4199:4208   */\n      dup6\n        /* \"#utility.yul\":4190:4197   */\n      dup8\n        /* \"#utility.yul\":4186:4209   */\n      sub\n        /* \"#utility.yul\":4182:4214   */\n      slt\n        /* \"#utility.yul\":4179:4298   */\n      iszero\n      tag_248\n      jumpi\n        /* \"#utility.yul\":4217:4296   */\n      tag_249\n      tag_160\n      jump\t// in\n    tag_249:\n        /* \"#utility.yul\":4179:4298   */\n    tag_248:\n        /* \"#utility.yul\":4365:4366   */\n      0x00\n        /* \"#utility.yul\":4354:4363   */\n      dup6\n        /* \"#utility.yul\":4350:4367   */\n      add\n        /* \"#utility.yul\":4337:4368   */\n      calldataload\n        /* \"#utility.yul\":4395:4413   */\n      0xffffffffffffffff\n        /* \"#utility.yul\":4387:4393   */\n      dup2\n        /* \"#utility.yul\":4384:4414   */\n      gt\n        /* \"#utility.yul\":4381:4498   */\n      iszero\n      tag_250\n      jumpi\n        /* \"#utility.yul\":4417:4496   */\n      tag_251\n      tag_161\n      jump\t// in\n    tag_251:\n        /* \"#utility.yul\":4381:4498   */\n    tag_250:\n        /* \"#utility.yul\":4530:4621   */\n      tag_252\n        /* \"#utility.yul\":4613:4620   */\n      dup8\n        /* \"#utility.yul\":4604:4610   */\n      dup3\n        /* \"#utility.yul\":4593:4602   */\n      dup9\n        /* \"#utility.yul\":4589:4611   */\n      add\n        /* \"#utility.yul\":4530:4621   */\n      tag_170\n      jump\t// in\n    tag_252:\n        /* \"#utility.yul\":4512:4621   */\n      swap5\n      pop\n      swap5\n      pop\n        /* \"#utility.yul\":4308:4631   */\n      pop\n        /* \"#utility.yul\":4698:4700   */\n      0x20\n        /* \"#utility.yul\":4687:4696   */\n      dup6\n        /* \"#utility.yul\":4683:4701   */\n      add\n        /* \"#utility.yul\":4670:4702   */\n      calldataload\n        /* \"#utility.yul\":4729:4747   */\n      0xffffffffffffffff\n        /* \"#utility.yul\":4721:4727   */\n      dup2\n        /* \"#utility.yul\":4718:4748   */\n      gt\n        /* \"#utility.yul\":4715:4832   */\n      iszero\n      tag_253\n      jumpi\n        /* \"#utility.yul\":4751:4830   */\n      tag_254\n      tag_161\n      jump\t// in\n    tag_254:\n        /* \"#utility.yul\":4715:4832   */\n    tag_253:\n        /* \"#utility.yul\":4864:4944   */\n      tag_255\n        /* \"#utility.yul\":4936:4943   */\n      dup8\n        /* \"#utility.yul\":4927:4933   */\n      dup3\n        /* \"#utility.yul\":4916:4925   */\n      dup9\n        /* \"#utility.yul\":4912:4934   */\n      add\n        /* \"#utility.yul\":4864:4944   */\n      tag_171\n      jump\t// in\n    tag_255:\n        /* \"#utility.yul\":4846:4944   */\n      swap3\n      pop\n      swap3\n      pop\n        /* \"#utility.yul\":4641:4954   */\n      pop\n        /* \"#utility.yul\":4005:4961   */\n      swap3\n      swap6\n      swap2\n      swap5\n      pop\n      swap3\n      pop\n      jump\t// out\n        /* \"#utility.yul\":4967:5090   */\n    tag_172:\n        /* \"#utility.yul\":5043:5049   */\n      0x00\n        /* \"#utility.yul\":5077:5082   */\n      dup2\n        /* \"#utility.yul\":5071:5083   */\n      mload\n        /* \"#utility.yul\":5061:5083   */\n      swap1\n      pop\n        /* \"#utility.yul\":4967:5090   */\n      swap2\n      swap1\n      pop\n      jump\t// out\n        /* \"#utility.yul\":5096:5289   */\n    tag_173:\n        /* \"#utility.yul\":5204:5215   */\n      0x00\n        /* \"#utility.yul\":5238:5244   */\n      dup3\n        /* \"#utility.yul\":5233:5236   */\n      dup3\n        /* \"#utility.yul\":5226:5245   */\n      mstore\n        /* \"#utility.yul\":5278:5282   */\n      0x20\n        /* \"#utility.yul\":5273:5276   */\n      dup3\n        /* \"#utility.yul\":5269:5283   */\n      add\n        /* \"#utility.yul\":5254:5283   */\n      swap1\n      pop\n        /* \"#utility.yul\":5096:5289   */\n      swap3\n      swap2\n      pop\n      pop\n      jump\t// out\n        /* \"#utility.yul\":5295:5436   */\n    tag_174:\n        /* \"#utility.yul\":5371:5375   */\n      0x00\n        /* \"#utility.yul\":5394:5397   */\n      dup2\n        /* \"#utility.yul\":5386:5397   */\n      swap1\n      pop\n        /* \"#utility.yul\":5424:5428   */\n      0x20\n        /* \"#utility.yul\":5419:5422   */\n      dup3\n        /* \"#utility.yul\":5415:5429   */\n      add\n        /* \"#utility.yul\":5407:5429   */\n      swap1\n      pop\n        /* \"#utility.yul\":5295:5436   */\n      swap2\n      swap1\n      pop\n      jump\t// out\n        /* \"#utility.yul\":5442:5540   */\n    tag_175:\n        /* \"#utility.yul\":5493:5499   */\n      0x00\n        /* \"#utility.yul\":5527:5532   */\n      dup2\n        /* \"#utility.yul\":5521:5533   */\n      mload\n        /* \"#utility.yul\":5511:5533   */\n      swap1\n      pop\n        /* \"#utility.yul\":5442:5540   */\n      swap2\n      swap1\n      pop\n      jump\t// out\n        /* \"#utility.yul\":5546:5704   */\n    tag_176:\n        /* \"#utility.yul\":5619:5630   */\n      0x00\n        /* \"#utility.yul\":5653:5659   */\n      dup3\n        /* \"#utility.yul\":5648:5651   */\n      dup3\n        /* \"#utility.yul\":5641:5660   */\n      mstore\n        /* \"#utility.yul\":5693:5697   */\n      0x20\n        /* \"#utility.yul\":5688:5691   */\n      dup3\n        /* \"#utility.yul\":5684:5698   */\n      add\n        /* \"#utility.yul\":5669:5698   */\n      swap1\n      pop\n        /* \"#utility.yul\":5546:5704   */\n      swap3\n      swap2\n      pop\n      pop\n      jump\t// out\n        /* \"#utility.yul\":5710:6017   */\n    tag_177:\n        /* \"#utility.yul\":5778:5779   */\n      0x00\n        /* \"#utility.yul\":5788:5901   */\n    tag_262:\n        /* \"#utility.yul\":5802:5808   */\n      dup4\n        /* \"#utility.yul\":5799:5800   */\n      dup2\n        /* \"#utility.yul\":5796:5809   */\n      lt\n        /* \"#utility.yul\":5788:5901   */\n      iszero\n      tag_264\n      jumpi\n        /* \"#utility.yul\":5887:5888   */\n      dup1\n        /* \"#utility.yul\":5882:5885   */\n      dup3\n        /* \"#utility.yul\":5878:5889   */\n      add\n        /* \"#utility.yul\":5872:5890   */\n      mload\n        /* \"#utility.yul\":5868:5869   */\n      dup2\n        /* \"#utility.yul\":5863:5866   */\n      dup5\n        /* \"#utility.yul\":5859:5870   */\n      add\n        /* \"#utility.yul\":5852:5891   */\n      mstore\n        /* \"#utility.yul\":5824:5826   */\n      0x20\n        /* \"#utility.yul\":5821:5822   */\n      dup2\n        /* \"#utility.yul\":5817:5827   */\n      add\n        /* \"#utility.yul\":5812:5827   */\n      swap1\n      pop\n        /* \"#utility.yul\":5788:5901   */\n      jump(tag_262)\n    tag_264:\n        /* \"#utility.yul\":5919:5925   */\n      dup4\n        /* \"#utility.yul\":5916:5917   */\n      dup2\n        /* \"#utility.yul\":5913:5926   */\n      gt\n        /* \"#utility.yul\":5910:6011   */\n      iszero\n      tag_265\n      jumpi\n        /* \"#utility.yul\":5999:6000   */\n      0x00\n        /* \"#utility.yul\":5990:5996   */\n      dup5\n        /* \"#utility.yul\":5985:5988   */\n      dup5\n        /* \"#utility.yul\":5981:5997   */\n      add\n        /* \"#utility.yul\":5974:6001   */\n      mstore\n        /* \"#utility.yul\":5910:6011   */\n    tag_265:\n        /* \"#utility.yul\":5759:6017   */\n      pop\n        /* \"#utility.yul\":5710:6017   */\n      pop\n      pop\n      pop\n      jump\t// out\n        /* \"#utility.yul\":6023:6125   */\n    tag_178:\n        /* \"#utility.yul\":6064:6070   */\n      0x00\n        /* \"#utility.yul\":6115:6117   */\n      0x1f\n        /* \"#utility.yul\":6111:6118   */\n      not\n        /* \"#utility.yul\":6106:6108   */\n      0x1f\n        /* \"#utility.yul\":6099:6104   */\n      dup4\n        /* \"#utility.yul\":6095:6109   */\n      add\n        /* \"#utility.yul\":6091:6119   */\n      and\n        /* \"#utility.yul\":6081:6119   */\n      swap1\n      pop\n        /* \"#utility.yul\":6023:6125   */\n      swap2\n      swap1\n      pop\n      jump\t// out\n        /* \"#utility.yul\":6131:6471   */\n    tag_179:\n        /* \"#utility.yul\":6207:6210   */\n      0x00\n        /* \"#utility.yul\":6235:6273   */\n      tag_268\n        /* \"#utility.yul\":6267:6272   */\n      dup3\n        /* \"#utility.yul\":6235:6273   */\n      tag_175\n      jump\t// in\n    tag_268:\n        /* \"#utility.yul\":6289:6349   */\n      tag_269\n        /* \"#utility.yul\":6342:6348   */\n      dup2\n        /* \"#utility.yul\":6337:6340   */\n      dup6\n        /* \"#utility.yul\":6289:6349   */\n      tag_176\n      jump\t// in\n    tag_269:\n        /* \"#utility.yul\":6282:6349   */\n      swap4\n      pop\n        /* \"#utility.yul\":6358:6410   */\n      tag_270\n        /* \"#utility.yul\":6403:6409   */\n      dup2\n        /* \"#utility.yul\":6398:6401   */\n      dup6\n        /* \"#utility.yul\":6391:6395   */\n      0x20\n        /* \"#utility.yul\":6384:6389   */\n      dup7\n        /* \"#utility.yul\":6380:6396   */\n      add\n        /* \"#utility.yul\":6358:6410   */\n      tag_177\n      jump\t// in\n    tag_270:\n        /* \"#utility.yul\":6435:6464   */\n      tag_271\n        /* \"#utility.yul\":6457:6463   */\n      dup2\n        /* \"#utility.yul\":6435:6464   */\n      tag_178\n      jump\t// in\n    tag_271:\n        /* \"#utility.yul\":6430:6433   */\n      dup5\n        /* \"#utility.yul\":6426:6465   */\n      add\n        /* \"#utility.yul\":6419:6465   */\n      swap2\n      pop\n        /* \"#utility.yul\":6211:6471   */\n      pop\n        /* \"#utility.yul\":6131:6471   */\n      swap3\n      swap2\n      pop\n      pop\n      jump\t// out\n        /* \"#utility.yul\":6477:6669   */\n    tag_180:\n        /* \"#utility.yul\":6564:6574   */\n      0x00\n        /* \"#utility.yul\":6599:6663   */\n      tag_273\n        /* \"#utility.yul\":6659:6662   */\n      dup4\n        /* \"#utility.yul\":6651:6657   */\n      dup4\n        /* \"#utility.yul\":6599:6663   */\n      tag_179\n      jump\t// in\n    tag_273:\n        /* \"#utility.yul\":6585:6663   */\n      swap1\n      pop\n        /* \"#utility.yul\":6477:6669   */\n      swap3\n      swap2\n      pop\n      pop\n      jump\t// out\n        /* \"#utility.yul\":6675:6797   */\n    tag_181:\n        /* \"#utility.yul\":6754:6758   */\n      0x00\n        /* \"#utility.yul\":6786:6790   */\n      0x20\n        /* \"#utility.yul\":6781:6784   */\n      dup3\n        /* \"#utility.yul\":6777:6791   */\n      add\n        /* \"#utility.yul\":6769:6791   */\n      swap1\n      pop\n        /* \"#utility.yul\":6675:6797   */\n      swap2\n      swap1\n      pop\n      jump\t// out\n        /* \"#utility.yul\":6829:7812   */\n    tag_182:\n        /* \"#utility.yul\":6966:6969   */\n      0x00\n        /* \"#utility.yul\":6995:7058   */\n      tag_276\n        /* \"#utility.yul\":7052:7057   */\n      dup3\n        /* \"#utility.yul\":6995:7058   */\n      tag_172\n      jump\t// in\n    tag_276:\n        /* \"#utility.yul\":7074:7169   */\n      tag_277\n        /* \"#utility.yul\":7162:7168   */\n      dup2\n        /* \"#utility.yul\":7157:7160   */\n      dup6\n        /* \"#utility.yul\":7074:7169   */\n      tag_173\n      jump\t// in\n    tag_277:\n        /* \"#utility.yul\":7067:7169   */\n      swap4\n      pop\n        /* \"#utility.yul\":7195:7198   */\n      dup4\n        /* \"#utility.yul\":7240:7244   */\n      0x20\n        /* \"#utility.yul\":7232:7238   */\n      dup3\n        /* \"#utility.yul\":7228:7245   */\n      mul\n        /* \"#utility.yul\":7223:7226   */\n      dup6\n        /* \"#utility.yul\":7219:7246   */\n      add\n        /* \"#utility.yul\":7270:7335   */\n      tag_278\n        /* \"#utility.yul\":7329:7334   */\n      dup6\n        /* \"#utility.yul\":7270:7335   */\n      tag_174\n      jump\t// in\n    tag_278:\n        /* \"#utility.yul\":7358:7365   */\n      dup1\n        /* \"#utility.yul\":7389:7390   */\n      0x00\n        /* \"#utility.yul\":7374:7767   */\n    tag_279:\n        /* \"#utility.yul\":7399:7405   */\n      dup6\n        /* \"#utility.yul\":7396:7397   */\n      dup2\n        /* \"#utility.yul\":7393:7406   */\n      lt\n        /* \"#utility.yul\":7374:7767   */\n      iszero\n      tag_281\n      jumpi\n        /* \"#utility.yul\":7470:7479   */\n      dup5\n        /* \"#utility.yul\":7464:7468   */\n      dup5\n        /* \"#utility.yul\":7460:7480   */\n      sub\n        /* \"#utility.yul\":7455:7458   */\n      dup10\n        /* \"#utility.yul\":7448:7481   */\n      mstore\n        /* \"#utility.yul\":7521:7527   */\n      dup2\n        /* \"#utility.yul\":7515:7528   */\n      mload\n        /* \"#utility.yul\":7549:7631   */\n      tag_282\n        /* \"#utility.yul\":7626:7630   */\n      dup6\n        /* \"#utility.yul\":7611:7624   */\n      dup3\n        /* \"#utility.yul\":7549:7631   */\n      tag_180\n      jump\t// in\n    tag_282:\n        /* \"#utility.yul\":7541:7631   */\n      swap5\n      pop\n        /* \"#utility.yul\":7654:7723   */\n      tag_283\n        /* \"#utility.yul\":7716:7722   */\n      dup4\n        /* \"#utility.yul\":7654:7723   */\n      tag_181\n      jump\t// in\n    tag_283:\n        /* \"#utility.yul\":7644:7723   */\n      swap3\n      pop\n        /* \"#utility.yul\":7752:7756   */\n      0x20\n        /* \"#utility.yul\":7747:7750   */\n      dup11\n        /* \"#utility.yul\":7743:7757   */\n      add\n        /* \"#utility.yul\":7736:7757   */\n      swap10\n      pop\n        /* \"#utility.yul\":7434:7767   */\n      pop\n        /* \"#utility.yul\":7421:7422   */\n      0x01\n        /* \"#utility.yul\":7418:7419   */\n      dup2\n        /* \"#utility.yul\":7414:7423   */\n      add\n        /* \"#utility.yul\":7409:7423   */\n      swap1\n      pop\n        /* \"#utility.yul\":7374:7767   */\n      jump(tag_279)\n    tag_281:\n        /* \"#utility.yul\":7378:7392   */\n      pop\n        /* \"#utility.yul\":7783:7787   */\n      dup3\n        /* \"#utility.yul\":7776:7787   */\n      swap8\n      pop\n        /* \"#utility.yul\":7803:7806   */\n      dup8\n        /* \"#utility.yul\":7796:7806   */\n      swap6\n      pop\n        /* \"#utility.yul\":6971:7812   */\n      pop\n      pop\n      pop\n      pop\n      pop\n        /* \"#utility.yul\":6829:7812   */\n      swap3\n      swap2\n      pop\n      pop\n      jump\t// out\n        /* \"#utility.yul\":7818:8227   */\n    tag_57:\n        /* \"#utility.yul\":7979:7983   */\n      0x00\n        /* \"#utility.yul\":8017:8019   */\n      0x20\n        /* \"#utility.yul\":8006:8015   */\n      dup3\n        /* \"#utility.yul\":8002:8020   */\n      add\n        /* \"#utility.yul\":7994:8020   */\n      swap1\n      pop\n        /* \"#utility.yul\":8066:8075   */\n      dup2\n        /* \"#utility.yul\":8060:8064   */\n      dup2\n        /* \"#utility.yul\":8056:8076   */\n      sub\n        /* \"#utility.yul\":8052:8053   */\n      0x00\n        /* \"#utility.yul\":8041:8050   */\n      dup4\n        /* \"#utility.yul\":8037:8054   */\n      add\n        /* \"#utility.yul\":8030:8077   */\n      mstore\n        /* \"#utility.yul\":8094:8220   */\n      tag_285\n        /* \"#utility.yul\":8215:8219   */\n      dup2\n        /* \"#utility.yul\":8206:8212   */\n      dup5\n        /* \"#utility.yul\":8094:8220   */\n      tag_182\n      jump\t// in\n    tag_285:\n        /* \"#utility.yul\":8086:8220   */\n      swap1\n      pop\n        /* \"#utility.yul\":7818:8227   */\n      swap3\n      swap2\n      pop\n      pop\n      jump\t// out\n        /* \"#utility.yul\":8233:8310   */\n    tag_183:\n        /* \"#utility.yul\":8270:8277   */\n      0x00\n        /* \"#utility.yul\":8299:8304   */\n      dup2\n        /* \"#utility.yul\":8288:8304   */\n      swap1\n      pop\n        /* \"#utility.yul\":8233:8310   */\n      swap2\n      swap1\n      pop\n      jump\t// out\n        /* \"#utility.yul\":8316:8434   */\n    tag_184:\n        /* \"#utility.yul\":8403:8427   */\n      tag_288\n        /* \"#utility.yul\":8421:8426   */\n      dup2\n        /* \"#utility.yul\":8403:8427   */\n      tag_183\n      jump\t// in\n    tag_288:\n        /* \"#utility.yul\":8398:8401   */\n      dup3\n        /* \"#utility.yul\":8391:8428   */\n      mstore\n        /* \"#utility.yul\":8316:8434   */\n      pop\n      pop\n      jump\t// out\n        /* \"#utility.yul\":8440:8662   */\n    tag_83:\n        /* \"#utility.yul\":8533:8537   */\n      0x00\n        /* \"#utility.yul\":8571:8573   */\n      0x20\n        /* \"#utility.yul\":8560:8569   */\n      dup3\n        /* \"#utility.yul\":8556:8574   */\n      add\n        /* \"#utility.yul\":8548:8574   */\n      swap1\n      pop\n        /* \"#utility.yul\":8584:8655   */\n      tag_290\n        /* \"#utility.yul\":8652:8653   */\n      0x00\n        /* \"#utility.yul\":8641:8650   */\n      dup4\n        /* \"#utility.yul\":8637:8654   */\n      add\n        /* \"#utility.yul\":8628:8634   */\n      dup5\n        /* \"#utility.yul\":8584:8655   */\n      tag_184\n      jump\t// in\n    tag_290:\n        /* \"#utility.yul\":8440:8662   */\n      swap3\n      swap2\n      pop\n      pop\n      jump\t// out\n        /* \"#utility.yul\":8668:9332   */\n    tag_99:\n        /* \"#utility.yul\":8873:8877   */\n      0x00\n        /* \"#utility.yul\":8911:8914   */\n      0xa0\n        /* \"#utility.yul\":8900:8909   */\n      dup3\n        /* \"#utility.yul\":8896:8915   */\n      add\n        /* \"#utility.yul\":8888:8915   */\n      swap1\n      pop\n        /* \"#utility.yul\":8925:8996   */\n      tag_292\n        /* \"#utility.yul\":8993:8994   */\n      0x00\n        /* \"#utility.yul\":8982:8991   */\n      dup4\n        /* \"#utility.yul\":8978:8995   */\n      add\n        /* \"#utility.yul\":8969:8975   */\n      dup9\n        /* \"#utility.yul\":8925:8996   */\n      tag_166\n      jump\t// in\n    tag_292:\n        /* \"#utility.yul\":9006:9078   */\n      tag_293\n        /* \"#utility.yul\":9074:9076   */\n      0x20\n        /* \"#utility.yul\":9063:9072   */\n      dup4\n        /* \"#utility.yul\":9059:9077   */\n      add\n        /* \"#utility.yul\":9050:9056   */\n      dup8\n        /* \"#utility.yul\":9006:9078   */\n      tag_166\n      jump\t// in\n    tag_293:\n        /* \"#utility.yul\":9088:9160   */\n      tag_294\n        /* \"#utility.yul\":9156:9158   */\n      0x40\n        /* \"#utility.yul\":9145:9154   */\n      dup4\n        /* \"#utility.yul\":9141:9159   */\n      add\n        /* \"#utility.yul\":9132:9138   */\n      dup7\n        /* \"#utility.yul\":9088:9160   */\n      tag_166\n      jump\t// in\n    tag_294:\n        /* \"#utility.yul\":9170:9242   */\n      tag_295\n        /* \"#utility.yul\":9238:9240   */\n      0x60\n        /* \"#utility.yul\":9227:9236   */\n      dup4\n        /* \"#utility.yul\":9223:9241   */\n      add\n        /* \"#utility.yul\":9214:9220   */\n      dup6\n        /* \"#utility.yul\":9170:9242   */\n      tag_166\n      jump\t// in\n    tag_295:\n        /* \"#utility.yul\":9252:9325   */\n      tag_296\n        /* \"#utility.yul\":9320:9323   */\n      0x80\n        /* \"#utility.yul\":9309:9318   */\n      dup4\n        /* \"#utility.yul\":9305:9324   */\n      add\n        /* \"#utility.yul\":9296:9302   */\n      dup5\n        /* \"#utility.yul\":9252:9325   */\n      tag_166\n      jump\t// in\n    tag_296:\n        /* \"#utility.yul\":8668:9332   */\n      swap7\n      swap6\n      pop\n      pop\n      pop\n      pop\n      pop\n      pop\n      jump\t// out\n        /* \"#utility.yul\":9338:9485   */\n    tag_185:\n        /* \"#utility.yul\":9439:9450   */\n      0x00\n        /* \"#utility.yul\":9476:9479   */\n      dup2\n        /* \"#utility.yul\":9461:9479   */\n      swap1\n      pop\n        /* \"#utility.yul\":9338:9485   */\n      swap3\n      swap2\n      pop\n      pop\n      jump\t// out\n        /* \"#utility.yul\":9491:9864   */\n    tag_186:\n        /* \"#utility.yul\":9595:9598   */\n      0x00\n        /* \"#utility.yul\":9623:9661   */\n      tag_299\n        /* \"#utility.yul\":9655:9660   */\n      dup3\n        /* \"#utility.yul\":9623:9661   */\n      tag_175\n      jump\t// in\n    tag_299:\n        /* \"#utility.yul\":9677:9765   */\n      tag_300\n        /* \"#utility.yul\":9758:9764   */\n      dup2\n        /* \"#utility.yul\":9753:9756   */\n      dup6\n        /* \"#utility.yul\":9677:9765   */\n      tag_185\n      jump\t// in\n    tag_300:\n        /* \"#utility.yul\":9670:9765   */\n      swap4\n      pop\n        /* \"#utility.yul\":9774:9826   */\n      tag_301\n        /* \"#utility.yul\":9819:9825   */\n      dup2\n        /* \"#utility.yul\":9814:9817   */\n      dup6\n        /* \"#utility.yul\":9807:9811   */\n      0x20\n        /* \"#utility.yul\":9800:9805   */\n      dup7\n        /* \"#utility.yul\":9796:9812   */\n      add\n        /* \"#utility.yul\":9774:9826   */\n      tag_177\n      jump\t// in\n    tag_301:\n        /* \"#utility.yul\":9851:9857   */\n      dup1\n        /* \"#utility.yul\":9846:9849   */\n      dup5\n        /* \"#utility.yul\":9842:9858   */\n      add\n        /* \"#utility.yul\":9835:9858   */\n      swap2\n      pop\n        /* \"#utility.yul\":9599:9864   */\n      pop\n        /* \"#utility.yul\":9491:9864   */\n      swap3\n      swap2\n      pop\n      pop\n      jump\t// out\n        /* \"#utility.yul\":9870:10141   */\n    tag_101:\n        /* \"#utility.yul\":10000:10003   */\n      0x00\n        /* \"#utility.yul\":10022:10115   */\n      tag_303\n        /* \"#utility.yul\":10111:10114   */\n      dup3\n        /* \"#utility.yul\":10102:10108   */\n      dup5\n        /* \"#utility.yul\":10022:10115   */\n      tag_186\n      jump\t// in\n    tag_303:\n        /* \"#utility.yul\":10015:10115   */\n      swap2\n      pop\n        /* \"#utility.yul\":10132:10135   */\n      dup2\n        /* \"#utility.yul\":10125:10135   */\n      swap1\n      pop\n        /* \"#utility.yul\":9870:10141   */\n      swap3\n      swap2\n      pop\n      pop\n      jump\t// out\n        /* \"#utility.yul\":10147:10327   */\n    tag_115:\n        /* \"#utility.yul\":10195:10272   */\n      0x4e487b7100000000000000000000000000000000000000000000000000000000\n        /* \"#utility.yul\":10192:10193   */\n      0x00\n        /* \"#utility.yul\":10185:10273   */\n      mstore\n        /* \"#utility.yul\":10292:10296   */\n      0x32\n        /* \"#utility.yul\":10289:10290   */\n      0x04\n        /* \"#utility.yul\":10282:10297   */\n      mstore\n        /* \"#utility.yul\":10316:10320   */\n      0x24\n        /* \"#utility.yul\":10313:10314   */\n      0x00\n        /* \"#utility.yul\":10306:10321   */\n      revert\n        /* \"#utility.yul\":10333:10513   */\n    tag_187:\n        /* \"#utility.yul\":10381:10458   */\n      0x4e487b7100000000000000000000000000000000000000000000000000000000\n        /* \"#utility.yul\":10378:10379   */\n      0x00\n        /* \"#utility.yul\":10371:10459   */\n      mstore\n        /* \"#utility.yul\":10478:10482   */\n      0x11\n        /* \"#utility.yul\":10475:10476   */\n      0x04\n        /* \"#utility.yul\":10468:10483   */\n      mstore\n        /* \"#utility.yul\":10502:10506   */\n      0x24\n        /* \"#utility.yul\":10499:10500   */\n      0x00\n        /* \"#utility.yul\":10492:10507   */\n      revert\n        /* \"#utility.yul\":10519:10752   */\n    tag_119:\n        /* \"#utility.yul\":10558:10561   */\n      0x00\n        /* \"#utility.yul\":10581:10605   */\n      tag_307\n        /* \"#utility.yul\":10599:10604   */\n      dup3\n        /* \"#utility.yul\":10581:10605   */\n      tag_183\n      jump\t// in\n    tag_307:\n        /* \"#utility.yul\":10572:10605   */\n      swap2\n      pop\n        /* \"#utility.yul\":10627:10693   */\n      0xffffffffffffffffffffffffffffffffffffffffffffffffffffffffffffffff\n        /* \"#utility.yul\":10620:10625   */\n      dup3\n        /* \"#utility.yul\":10617:10694   */\n      sub\n        /* \"#utility.yul\":10614:10717   */\n      tag_308\n      jumpi\n        /* \"#utility.yul\":10697:10715   */\n      tag_309\n      tag_187\n      jump\t// in\n    tag_309:\n        /* \"#utility.yul\":10614:10717   */\n    tag_308:\n        /* \"#utility.yul\":10744:10745   */\n      0x01\n        /* \"#utility.yul\":10737:10742   */\n      dup3\n        /* \"#utility.yul\":10733:10746   */\n      add\n        /* \"#utility.yul\":10726:10746   */\n      swap1\n      pop\n        /* \"#utility.yul\":10519:10752   */\n      swap2\n      swap1\n      pop\n      jump\t// out\n        /* \"#utility.yul\":10758:10938   */\n    tag_122:\n        /* \"#utility.yul\":10806:10883   */\n      0x4e487b7100000000000000000000000000000000000000000000000000000000\n        /* \"#utility.yul\":10803:10804   */\n      0x00\n        /* \"#utility.yul\":10796:10884   */\n      mstore\n        /* \"#utility.yul\":10903:10907   */\n      0x41\n        /* \"#utility.yul\":10900:10901   */\n      0x04\n        /* \"#utility.yul\":10893:10908   */\n      mstore\n        /* \"#utility.yul\":10927:10931   */\n      0x24\n        /* \"#utility.yul\":10924:10925   */\n      0x00\n        /* \"#utility.yul\":10917:10932   */\n      revert\n        /* \"#utility.yul\":10944:11061   */\n    tag_188:\n        /* \"#utility.yul\":11053:11054   */\n      0x00\n        /* \"#utility.yul\":11050:11051   */\n      dup1\n        /* \"#utility.yul\":11043:11055   */\n      revert\n        /* \"#utility.yul\":11067:11184   */\n    tag_189:\n        /* \"#utility.yul\":11176:11177   */\n      0x00\n        /* \"#utility.yul\":11173:11174   */\n      dup1\n        /* \"#utility.yul\":11166:11178   */\n      revert\n        /* \"#utility.yul\":11190:11307   */\n    tag_190:\n        /* \"#utility.yul\":11299:11300   */\n      0x00\n        /* \"#utility.yul\":11296:11297   */\n      dup1\n        /* \"#utility.yul\":11289:11301   */\n      revert\n        /* \"#utility.yul\":11313:12037   */\n    tag_134:\n        /* \"#utility.yul\":11390:11394   */\n      0x00\n        /* \"#utility.yul\":11396:11402   */\n      dup1\n        /* \"#utility.yul\":11452:11463   */\n      dup4\n        /* \"#utility.yul\":11439:11464   */\n      calldataload\n        /* \"#utility.yul\":11552:11553   */\n      0x01\n        /* \"#utility.yul\":11546:11550   */\n      0x20\n        /* \"#utility.yul\":11542:11554   */\n      sub\n        /* \"#utility.yul\":11531:11539   */\n      dup5\n        /* \"#utility.yul\":11515:11529   */\n      calldatasize\n        /* \"#utility.yul\":11511:11540   */\n      sub\n        /* \"#utility.yul\":11507:11555   */\n      sub\n        /* \"#utility.yul\":11487:11505   */\n      dup2\n        /* \"#utility.yul\":11483:11556   */\n      slt\n        /* \"#utility.yul\":11473:11641   */\n      tag_315\n      jumpi\n        /* \"#utility.yul\":11560:11639   */\n      tag_316\n      tag_188\n      jump\t// in\n    tag_316:\n        /* \"#utility.yul\":11473:11641   */\n    tag_315:\n        /* \"#utility.yul\":11672:11690   */\n      dup1\n        /* \"#utility.yul\":11662:11670   */\n      dup5\n        /* \"#utility.yul\":11658:11691   */\n      add\n        /* \"#utility.yul\":11650:11691   */\n      swap3\n      pop\n        /* \"#utility.yul\":11724:11728   */\n      dup3\n        /* \"#utility.yul\":11711:11729   */\n      calldataload\n        /* \"#utility.yul\":11701:11729   */\n      swap2\n      pop\n        /* \"#utility.yul\":11752:11770   */\n      0xffffffffffffffff\n        /* \"#utility.yul\":11744:11750   */\n      dup3\n        /* \"#utility.yul\":11741:11771   */\n      gt\n        /* \"#utility.yul\":11738:11855   */\n      iszero\n      tag_317\n      jumpi\n        /* \"#utility.yul\":11774:11853   */\n      tag_318\n      tag_189\n      jump\t// in\n    tag_318:\n        /* \"#utility.yul\":11738:11855   */\n    tag_317:\n        /* \"#utility.yul\":11882:11884   */\n      0x20\n        /* \"#utility.yul\":11876:11880   */\n      dup4\n        /* \"#utility.yul\":11872:11885   */\n      add\n        /* \"#utility.yul\":11864:11885   */\n      swap3\n      pop\n        /* \"#utility.yul\":11939:11943   */\n      0x01\n        /* \"#utility.yul\":11931:11937   */\n      dup3\n        /* \"#utility.yul\":11927:11944   */\n      mul\n        /* \"#utility.yul\":11911:11925   */\n      calldatasize\n        /* \"#utility.yul\":11907:11945   */\n      sub\n        /* \"#utility.yul\":11901:11905   */\n      dup4\n        /* \"#utility.yul\":11897:11946   */\n      sgt\n        /* \"#utility.yul\":11894:12030   */\n      iszero\n      tag_319\n      jumpi\n        /* \"#utility.yul\":11949:12028   */\n      tag_320\n      tag_190\n      jump\t// in\n    tag_320:\n        /* \"#utility.yul\":11894:12030   */\n    tag_319:\n        /* \"#utility.yul\":11403:12037   */\n      pop\n        /* \"#utility.yul\":11313:12037   */\n      swap3\n      pop\n      swap3\n      swap1\n      pop\n      jump\t// out\n        /* \"#utility.yul\":12043:12197   */\n    tag_191:\n        /* \"#utility.yul\":12127:12133   */\n      dup3\n        /* \"#utility.yul\":12122:12125   */\n      dup2\n        /* \"#utility.yul\":12117:12120   */\n      dup4\n        /* \"#utility.yul\":12104:12134   */\n      calldatacopy\n        /* \"#utility.yul\":12189:12190   */\n      0x00\n        /* \"#utility.yul\":12180:12186   */\n      dup4\n        /* \"#utility.yul\":12175:12178   */\n      dup4\n        /* \"#utility.yul\":12171:12187   */\n      add\n        /* \"#utility.yul\":12164:12191   */\n      mstore\n        /* \"#utility.yul\":12043:12197   */\n      pop\n      pop\n      pop\n      jump\t// out\n        /* \"#utility.yul\":12225:12539   */\n    tag_192:\n        /* \"#utility.yul\":12339:12342   */\n      0x00\n        /* \"#utility.yul\":12360:12448   */\n      tag_323\n        /* \"#utility.yul\":12441:12447   */\n      dup4\n        /* \"#utility.yul\":12436:12439   */\n      dup6\n        /* \"#utility.yul\":12360:12448   */\n      tag_185\n      jump\t// in\n    tag_323:\n        /* \"#utility.yul\":12353:12448   */\n      swap4\n      pop\n        /* \"#utility.yul\":12458:12501   */\n      tag_324\n        /* \"#utility.yul\":12494:12500   */\n      dup4\n        /* \"#utility.yul\":12489:12492   */\n      dup6\n        /* \"#utility.yul\":12482:12487   */\n      dup5\n        /* \"#utility.yul\":12458:12501   */\n      tag_191\n      jump\t// in\n    tag_324:\n        /* \"#utility.yul\":12526:12532   */\n      dup3\n        /* \"#utility.yul\":12521:12524   */\n      dup5\n        /* \"#utility.yul\":12517:12533   */\n      add\n        /* \"#utility.yul\":12510:12533   */\n      swap1\n      pop\n        /* \"#utility.yul\":12225:12539   */\n      swap4\n      swap3\n      pop\n      pop\n      pop\n      jump\t// out\n        /* \"#utility.yul\":12545:12836   */\n    tag_136:\n        /* \"#utility.yul\":12685:12688   */\n      0x00\n        /* \"#utility.yul\":12707:12810   */\n      tag_326\n        /* \"#utility.yul\":12806:12809   */\n      dup3\n        /* \"#utility.yul\":12797:12803   */\n      dup5\n        /* \"#utility.yul\":12789:12795   */\n      dup7\n        /* \"#utility.yul\":12707:12810   */\n      tag_192\n      jump\t// in\n    tag_326:\n        /* \"#utility.yul\":12700:12810   */\n      swap2\n      pop\n        /* \"#utility.yul\":12827:12830   */\n      dup2\n        /* \"#utility.yul\":12820:12830   */\n      swap1\n      pop\n        /* \"#utility.yul\":12545:12836   */\n      swap4\n      swap3\n      pop\n      pop\n      pop\n      jump\t// out\n        /* \"#utility.yul\":12842:12959   */\n    tag_193:\n        /* \"#utility.yul\":12951:12952   */\n      0x00\n        /* \"#utility.yul\":12948:12949   */\n      dup1\n        /* \"#utility.yul\":12941:12953   */\n      revert\n        /* \"#utility.yul\":12965:13246   */\n    tag_194:\n        /* \"#utility.yul\":13048:13075   */\n      tag_329\n        /* \"#utility.yul\":13070:13074   */\n      dup3\n        /* \"#utility.yul\":13048:13075   */\n      tag_178\n      jump\t// in\n    tag_329:\n        /* \"#utility.yul\":13040:13046   */\n      dup2\n        /* \"#utility.yul\":13036:13076   */\n      add\n        /* \"#utility.yul\":13178:13184   */\n      dup2\n        /* \"#utility.yul\":13166:13176   */\n      dup2\n        /* \"#utility.yul\":13163:13185   */\n      lt\n        /* \"#utility.yul\":13142:13160   */\n      0xffffffffffffffff\n        /* \"#utility.yul\":13130:13140   */\n      dup3\n        /* \"#utility.yul\":13127:13161   */\n      gt\n        /* \"#utility.yul\":13124:13186   */\n      or\n        /* \"#utility.yul\":13121:13209   */\n      iszero\n      tag_330\n      jumpi\n        /* \"#utility.yul\":13189:13207   */\n      tag_331\n      tag_122\n      jump\t// in\n    tag_331:\n        /* \"#utility.yul\":13121:13209   */\n    tag_330:\n        /* \"#utility.yul\":13229:13239   */\n      dup1\n        /* \"#utility.yul\":13225:13227   */\n      0x40\n        /* \"#utility.yul\":13218:13240   */\n      mstore\n        /* \"#utility.yul\":13008:13246   */\n      pop\n        /* \"#utility.yul\":12965:13246   */\n      pop\n      pop\n      jump\t// out\n        /* \"#utility.yul\":13252:13381   */\n    tag_195:\n        /* \"#utility.yul\":13286:13292   */\n      0x00\n        /* \"#utility.yul\":13313:13333   */\n      tag_333\n      tag_159\n      jump\t// in\n    tag_333:\n        /* \"#utility.yul\":13303:13333   */\n      swap1\n      pop\n        /* \"#utility.yul\":13342:13375   */\n      tag_334\n        /* \"#utility.yul\":13370:13374   */\n      dup3\n        /* \"#utility.yul\":13362:13368   */\n      dup3\n        /* \"#utility.yul\":13342:13375   */\n      tag_194\n      jump\t// in\n    tag_334:\n        /* \"#utility.yul\":13252:13381   */\n      swap2\n      swap1\n      pop\n      jump\t// out\n        /* \"#utility.yul\":13387:13695   */\n    tag_196:\n        /* \"#utility.yul\":13449:13453   */\n      0x00\n        /* \"#utility.yul\":13539:13557   */\n      0xffffffffffffffff\n        /* \"#utility.yul\":13531:13537   */\n      dup3\n        /* \"#utility.yul\":13528:13558   */\n      gt\n        /* \"#utility.yul\":13525:13581   */\n      iszero\n      tag_336\n      jumpi\n        /* \"#utility.yul\":13561:13579   */\n      tag_337\n      tag_122\n      jump\t// in\n    tag_337:\n        /* \"#utility.yul\":13525:13581   */\n    tag_336:\n        /* \"#utility.yul\":13599:13628   */\n      tag_338\n        /* \"#utility.yul\":13621:13627   */\n      dup3\n        /* \"#utility.yul\":13599:13628   */\n      tag_178\n      jump\t// in\n    tag_338:\n        /* \"#utility.yul\":13591:13628   */\n      swap1\n      pop\n        /* \"#utility.yul\":13683:13687   */\n      0x20\n        /* \"#utility.yul\":13677:13681   */\n      dup2\n        /* \"#utility.yul\":13673:13688   */\n      add\n        /* \"#utility.yul\":13665:13688   */\n      swap1\n      pop\n        /* \"#utility.yul\":13387:13695   */\n      swap2\n      swap1\n      pop\n      jump\t// out\n        /* \"#utility.yul\":13701:14122   */\n    tag_197:\n        /* \"#utility.yul\":13790:13795   */\n      0x00\n        /* \"#utility.yul\":13815:13881   */\n      tag_340\n        /* \"#utility.yul\":13831:13880   */\n      tag_341\n        /* \"#utility.yul\":13873:13879   */\n      dup5\n        /* \"#utility.yul\":13831:13880   */\n      tag_196\n      jump\t// in\n    tag_341:\n        /* \"#utility.yul\":13815:13881   */\n      tag_195\n      jump\t// in\n    tag_340:\n        /* \"#utility.yul\":13806:13881   */\n      swap1\n      pop\n        /* \"#utility.yul\":13904:13910   */\n      dup3\n        /* \"#utility.yul\":13897:13902   */\n      dup2\n        /* \"#utility.yul\":13890:13911   */\n      mstore\n        /* \"#utility.yul\":13942:13946   */\n      0x20\n        /* \"#utility.yul\":13935:13940   */\n      dup2\n        /* \"#utility.yul\":13931:13947   */\n      add\n        /* \"#utility.yul\":13980:13983   */\n      dup5\n        /* \"#utility.yul\":13971:13977   */\n      dup5\n        /* \"#utility.yul\":13966:13969   */\n      dup5\n        /* \"#utility.yul\":13962:13978   */\n      add\n        /* \"#utility.yul\":13959:13984   */\n      gt\n        /* \"#utility.yul\":13956:14068   */\n      iszero\n      tag_342\n      jumpi\n        /* \"#utility.yul\":13987:14066   */\n      tag_343\n      tag_193\n      jump\t// in\n    tag_343:\n        /* \"#utility.yul\":13956:14068   */\n    tag_342:\n        /* \"#utility.yul\":14077:14116   */\n      tag_344\n        /* \"#utility.yul\":14109:14115   */\n      dup5\n        /* \"#utility.yul\":14104:14107   */\n      dup3\n        /* \"#utility.yul\":14099:14102   */\n      dup6\n        /* \"#utility.yul\":14077:14116   */\n      tag_177\n      jump\t// in\n    tag_344:\n        /* \"#utility.yul\":13796:14122   */\n      pop\n        /* \"#utility.yul\":13701:14122   */\n      swap4\n      swap3\n      pop\n      pop\n      pop\n      jump\t// out\n        /* \"#utility.yul\":14142:14497   */\n    tag_198:\n        /* \"#utility.yul\":14209:14214   */\n      0x00\n        /* \"#utility.yul\":14258:14261   */\n      dup3\n        /* \"#utility.yul\":14251:14255   */\n      0x1f\n        /* \"#utility.yul\":14243:14249   */\n      dup4\n        /* \"#utility.yul\":14239:14256   */\n      add\n        /* \"#utility.yul\":14235:14262   */\n      slt\n        /* \"#utility.yul\":14225:14347   */\n      tag_346\n      jumpi\n        /* \"#utility.yul\":14266:14345   */\n      tag_347\n      tag_167\n      jump\t// in\n    tag_347:\n        /* \"#utility.yul\":14225:14347   */\n    tag_346:\n        /* \"#utility.yul\":14376:14382   */\n      dup2\n        /* \"#utility.yul\":14370:14383   */\n      mload\n        /* \"#utility.yul\":14401:14491   */\n      tag_348\n        /* \"#utility.yul\":14487:14490   */\n      dup5\n        /* \"#utility.yul\":14479:14485   */\n      dup3\n        /* \"#utility.yul\":14472:14476   */\n      0x20\n        /* \"#utility.yul\":14464:14470   */\n      dup7\n        /* \"#utility.yul\":14460:14477   */\n      add\n        /* \"#utility.yul\":14401:14491   */\n      tag_197\n      jump\t// in\n    tag_348:\n        /* \"#utility.yul\":14392:14491   */\n      swap2\n      pop\n        /* \"#utility.yul\":14215:14497   */\n      pop\n        /* \"#utility.yul\":14142:14497   */\n      swap3\n      swap2\n      pop\n      pop\n      jump\t// out\n        /* \"#utility.yul\":14503:15027   */\n    tag_143:\n        /* \"#utility.yul\":14583:14589   */\n      0x00\n        /* \"#utility.yul\":14632:14634   */\n      0x20\n        /* \"#utility.yul\":14620:14629   */\n      dup3\n        /* \"#utility.yul\":14611:14618   */\n      dup5\n        /* \"#utility.yul\":14607:14630   */\n      sub\n        /* \"#utility.yul\":14603:14635   */\n      slt\n        /* \"#utility.yul\":14600:14719   */\n      iszero\n      tag_350\n      jumpi\n        /* \"#utility.yul\":14638:14717   */\n      tag_351\n      tag_160\n      jump\t// in\n    tag_351:\n        /* \"#utility.yul\":14600:14719   */\n    tag_350:\n        /* \"#utility.yul\":14779:14780   */\n      0x00\n        /* \"#utility.yul\":14768:14777   */\n      dup3\n        /* \"#utility.yul\":14764:14781   */\n      add\n        /* \"#utility.yul\":14758:14782   */\n      mload\n        /* \"#utility.yul\":14809:14827   */\n      0xffffffffffffffff\n        /* \"#utility.yul\":14801:14807   */\n      dup2\n        /* \"#utility.yul\":14798:14828   */\n      gt\n        /* \"#utility.yul\":14795:14912   */\n      iszero\n      tag_352\n      jumpi\n        /* \"#utility.yul\":14831:14910   */\n      tag_353\n      tag_161\n      jump\t// in\n    tag_353:\n        /* \"#utility.yul\":14795:14912   */\n    tag_352:\n        /* \"#utility.yul\":14936:15010   */\n      tag_354\n        /* \"#utility.yul\":15002:15009   */\n      dup5\n        /* \"#utility.yul\":14993:14999   */\n      dup3\n        /* \"#utility.yul\":14982:14991   */\n      dup6\n        /* \"#utility.yul\":14978:15000   */\n      add\n        /* \"#utility.yul\":14936:15010   */\n      tag_198\n      jump\t// in\n    tag_354:\n        /* \"#utility.yul\":14926:15010   */\n      swap2\n      pop\n        /* \"#utility.yul\":14729:15020   */\n      pop\n        /* \"#utility.yul\":14503:15027   */\n      swap3\n      swap2\n      pop\n      pop\n      jump\t// out\n        /* \"#utility.yul\":15033:15132   */\n    tag_199:\n        /* \"#utility.yul\":15085:15091   */\n      0x00\n        /* \"#utility.yul\":15119:15124   */\n      dup2\n        /* \"#utility.yul\":15113:15125   */\n      mload\n        /* \"#utility.yul\":15103:15125   */\n      swap1\n      pop\n        /* \"#utility.yul\":15033:15132   */\n      swap2\n      swap1\n      pop\n      jump\t// out\n        /* \"#utility.yul\":15138:15307   */\n    tag_200:\n        /* \"#utility.yul\":15222:15233   */\n      0x00\n        /* \"#utility.yul\":15256:15262   */\n      dup3\n        /* \"#utility.yul\":15251:15254   */\n      dup3\n        /* \"#utility.yul\":15244:15263   */\n      mstore\n        /* \"#utility.yul\":15296:15300   */\n      0x20\n        /* \"#utility.yul\":15291:15294   */\n      dup3\n        /* \"#utility.yul\":15287:15301   */\n      add\n        /* \"#utility.yul\":15272:15301   */\n      swap1\n      pop\n        /* \"#utility.yul\":15138:15307   */\n      swap3\n      swap2\n      pop\n      pop\n      jump\t// out\n        /* \"#utility.yul\":15313:15677   */\n    tag_201:\n        /* \"#utility.yul\":15401:15404   */\n      0x00\n        /* \"#utility.yul\":15429:15468   */\n      tag_358\n        /* \"#utility.yul\":15462:15467   */\n      dup3\n        /* \"#utility.yul\":15429:15468   */\n      tag_199\n      jump\t// in\n    tag_358:\n        /* \"#utility.yul\":15484:15555   */\n      tag_359\n        /* \"#utility.yul\":15548:15554   */\n      dup2\n        /* \"#utility.yul\":15543:15546   */\n      dup6\n        /* \"#utility.yul\":15484:15555   */\n      tag_200\n      jump\t// in\n    tag_359:\n        /* \"#utility.yul\":15477:15555   */\n      swap4\n      pop\n        /* \"#utility.yul\":15564:15616   */\n      tag_360\n        /* \"#utility.yul\":15609:15615   */\n      dup2\n        /* \"#utility.yul\":15604:15607   */\n      dup6\n        /* \"#utility.yul\":15597:15601   */\n      0x20\n        /* \"#utility.yul\":15590:15595   */\n      dup7\n        /* \"#utility.yul\":15586:15602   */\n      add\n        /* \"#utility.yul\":15564:15616   */\n      tag_177\n      jump\t// in\n    tag_360:\n        /* \"#utility.yul\":15641:15670   */\n      tag_361\n        /* \"#utility.yul\":15663:15669   */\n      dup2\n        /* \"#utility.yul\":15641:15670   */\n      tag_178\n      jump\t// in\n    tag_361:\n        /* \"#utility.yul\":15636:15639   */\n      dup5\n        /* \"#utility.yul\":15632:15671   */\n      add\n        /* \"#utility.yul\":15625:15671   */\n      swap2\n      pop\n        /* \"#utility.yul\":15405:15677   */\n      pop\n        /* \"#utility.yul\":15313:15677   */\n      swap3\n      swap2\n      pop\n      pop\n      jump\t// out\n        /* \"#utility.yul\":15683:15996   */\n    tag_145:\n        /* \"#utility.yul\":15796:15800   */\n      0x00\n        /* \"#utility.yul\":15834:15836   */\n      0x20\n        /* \"#utility.yul\":15823:15832   */\n      dup3\n        /* \"#utility.yul\":15819:15837   */\n      add\n        /* \"#utility.yul\":15811:15837   */\n      swap1\n      pop\n        /* \"#utility.yul\":15883:15892   */\n      dup2\n        /* \"#utility.yul\":15877:15881   */\n      dup2\n        /* \"#utility.yul\":15873:15893   */\n      sub\n        /* \"#utility.yul\":15869:15870   */\n      0x00\n        /* \"#utility.yul\":15858:15867   */\n      dup4\n        /* \"#utility.yul\":15854:15871   */\n      add\n        /* \"#utility.yul\":15847:15894   */\n      mstore\n        /* \"#utility.yul\":15911:15989   */\n      tag_363\n        /* \"#utility.yul\":15984:15988   */\n      dup2\n        /* \"#utility.yul\":15975:15981   */\n      dup5\n        /* \"#utility.yul\":15911:15989   */\n      tag_201\n      jump\t// in\n    tag_363:\n        /* \"#utility.yul\":15903:15989   */\n      swap1\n      pop\n        /* \"#utility.yul\":15683:15996   */\n      swap3\n      swap2\n      pop\n      pop\n      jump\t// out\n\n    auxdata: 0xa264697066735822122019bf3a76824ad2def25bdc685614cf08aecc8a0277e053bb1775ef6039d64c4d64736f6c634300080e0033\n}\n",
				"bytecode": {
					"linkReferences": {},
					"object": "60a060405234801561001057600080fd5b503373ffffffffffffffffffffffffffffffffffffffff1660808173ffffffffffffffffffffffffffffffffffffffff1681525050608051611c92610091600039600081816103620152818161050e0152818161080a01528181610b6801528181610ba101528181610fa3015281816110e901526112310152611c926000f3fe6080604052600436106100e15760003560e01c80638ae916951161007f578063da8909e511610059578063da8909e5146102a2578063dc96d689146102cd578063e5919a4f146102f8578063fc0c546a14610335576100eb565b80638ae9169514610227578063a6fa0b7b14610250578063cf368a3914610279576100eb565b80632637a477116100bb5780632637a4771461016d5780632ebd1e28146101965780633f0a0797146101bf578063600e1b2b146101ea576100eb565b8063101dfd19146100f057806311ce0267146101195780631b46a44714610144576100eb565b366100eb57600080fd5b600080fd5b3480156100fc57600080fd5b50610117600480360381019061011291906114b1565b610360565b005b34801561012557600080fd5b5061012e6104e6565b60405161013b91906114ed565b60405180910390f35b34801561015057600080fd5b5061016b60048036038101906101669190611508565b61050c565b005b34801561017957600080fd5b50610194600480360381019061018f91906114b1565b610808565b005b3480156101a257600080fd5b506101bd60048036038101906101b891906114b1565b610b9f565b005b3480156101cb57600080fd5b506101d4610d25565b6040516101e191906114ed565b60405180910390f35b3480156101f657600080fd5b50610211600480360381019061020c919061163e565b610d49565b60405161021e919061181a565b60405180910390f35b34801561023357600080fd5b5061024e600480360381019061024991906114b1565b610fa1565b005b34801561025c57600080fd5b50610277600480360381019061027291906114b1565b6110e7565b005b34801561028557600080fd5b506102a0600480360381019061029b91906114b1565b61122f565b005b3480156102ae57600080fd5b506102b76113b5565b6040516102c491906114ed565b60405180910390f35b3480156102d957600080fd5b506102e26113db565b6040516102ef91906114ed565b60405180910390f35b34801561030457600080fd5b5061031f600480360381019061031a91906114b1565b611401565b60405161032c9190611855565b60405180910390f35b34801561034157600080fd5b5061034a611419565b60405161035791906114ed565b60405180910390f35b7f000000000000000000000000000000000000000000000000000000000000000073ffffffffffffffffffffffffffffffffffffffff163373ffffffffffffffffffffffffffffffffffffffff16146103b857600080fd5b6000600260009054906101000a900473ffffffffffffffffffffffffffffffffffffffff1690508073ffffffffffffffffffffffffffffffffffffffff163373ffffffffffffffffffffffffffffffffffffffff161461041757600080fd5b6000600560008373ffffffffffffffffffffffffffffffffffffffff1673ffffffffffffffffffffffffffffffffffffffff1681526020019081526020016000208190555081600260006101000a81548173ffffffffffffffffffffffffffffffffffffffff021916908373ffffffffffffffffffffffffffffffffffffffff1602179055506001600560008473ffffffffffffffffffffffffffffffffffffffff1673ffffffffffffffffffffffffffffffffffffffff168152602001908152602001600020819055505050565b600160009054906101000a900473ffffffffffffffffffffffffffffffffffffffff1681565b7f000000000000000000000000000000000000000000000000000000000000000073ffffffffffffffffffffffffffffffffffffffff163373ffffffffffffffffffffffffffffffffffffffff161461056457600080fd5b846000806101000a81548173ffffffffffffffffffffffffffffffffffffffff021916908373ffffffffffffffffffffffffffffffffffffffff1602179055506001600560008773ffffffffffffffffffffffffffffffffffffffff1673ffffffffffffffffffffffffffffffffffffffff1681526020019081526020016000208190555083600160006101000a81548173ffffffffffffffffffffffffffffffffffffffff021916908373ffffffffffffffffffffffffffffffffffffffff1602179055506001600560008673ffffffffffffffffffffffffffffffffffffffff1673ffffffffffffffffffffffffffffffffffffffff1681526020019081526020016000208190555082600260006101000a81548173ffffffffffffffffffffffffffffffffffffffff021916908373ffffffffffffffffffffffffffffffffffffffff1602179055506001600560008573ffffffffffffffffffffffffffffffffffffffff1673ffffffffffffffffffffffffffffffffffffffff1681526020019081526020016000208190555081600360006101000a81548173ffffffffffffffffffffffffffffffffffffffff021916908373ffffffffffffffffffffffffffffffffffffffff1602179055506001600560008473ffffffffffffffffffffffffffffffffffffffff1673ffffffffffffffffffffffffffffffffffffffff1681526020019081526020016000208190555080600460006101000a81548173ffffffffffffffffffffffffffffffffffffffff021916908373ffffffffffffffffffffffffffffffffffffffff1602179055506001600560008373ffffffffffffffffffffffffffffffffffffffff1673ffffffffffffffffffffffffffffffffffffffff168152602001908152602001600020819055505050505050565b7f000000000000000000000000000000000000000000000000000000000000000073ffffffffffffffffffffffffffffffffffffffff163373ffffffffffffffffffffffffffffffffffffffff161461086057600080fd5b60008060008060008060009054906101000a900473ffffffffffffffffffffffffffffffffffffffff16600160009054906101000a900473ffffffffffffffffffffffffffffffffffffffff16600260009054906101000a900473ffffffffffffffffffffffffffffffffffffffff16600360009054906101000a900473ffffffffffffffffffffffffffffffffffffffff16600460009054906101000a900473ffffffffffffffffffffffffffffffffffffffff16945094509450945094508573ffffffffffffffffffffffffffffffffffffffff168585858585604051602401610950959493929190611870565b6040516020818303038152906040527f1b46a447000000000000000000000000000000000000000000000000000000007bffffffffffffffffffffffffffffffffffffffffffffffffffffffff19166020820180517bffffffffffffffffffffffffffffffffffffffffffffffffffffffff83818316178352505050506040516109da91906118ff565b600060405180830381855af49150503d8060008114610a15576040519150601f19603f3d011682016040523d82523d6000602084013e610a1a565b606091505b50505060008060006101000a81548173ffffffffffffffffffffffffffffffffffffffff021916908373ffffffffffffffffffffffffffffffffffffffff1602179055506000600160006101000a81548173ffffffffffffffffffffffffffffffffffffffff021916908373ffffffffffffffffffffffffffffffffffffffff1602179055506000600260006101000a81548173ffffffffffffffffffffffffffffffffffffffff021916908373ffffffffffffffffffffffffffffffffffffffff1602179055506000600360006101000a81548173ffffffffffffffffffffffffffffffffffffffff021916908373ffffffffffffffffffffffffffffffffffffffff1602179055506000600460006101000a81548173ffffffffffffffffffffffffffffffffffffffff021916908373ffffffffffffffffffffffffffffffffffffffff1602179055507f000000000000000000000000000000000000000000000000000000000000000073ffffffffffffffffffffffffffffffffffffffff16ff5b7f000000000000000000000000000000000000000000000000000000000000000073ffffffffffffffffffffffffffffffffffffffff163373ffffffffffffffffffffffffffffffffffffffff1614610bf757600080fd5b6000600460009054906101000a900473ffffffffffffffffffffffffffffffffffffffff1690508073ffffffffffffffffffffffffffffffffffffffff163373ffffffffffffffffffffffffffffffffffffffff1614610c5657600080fd5b6000600560008373ffffffffffffffffffffffffffffffffffffffff1673ffffffffffffffffffffffffffffffffffffffff1681526020019081526020016000208190555081600460006101000a81548173ffffffffffffffffffffffffffffffffffffffff021916908373ffffffffffffffffffffffffffffffffffffffff1602179055506001600560008473ffffffffffffffffffffffffffffffffffffffff1673ffffffffffffffffffffffffffffffffffffffff168152602001908152602001600020819055505050565b60008054906101000a900473ffffffffffffffffffffffffffffffffffffffff1681565b606060005b83839050811015610ddf57600160056000868685818110610d7257610d71611916565b5b9050602002016020810190610d8791906114b1565b73ffffffffffffffffffffffffffffffffffffffff1673ffffffffffffffffffffffffffffffffffffffff1681526020019081526020016000205414610dcc57600080fd5b8080610dd790611974565b915050610d4e565b508484905067ffffffffffffffff811115610dfd57610dfc6119bc565b5b604051908082528060200260200182016040528015610e3057816020015b6060815260200190600190039081610e1b5790505b50905060005b85859050811015610f9857600080858584818110610e5757610e56611916565b5b9050602002016020810190610e6c91906114b1565b73ffffffffffffffffffffffffffffffffffffffff16888885818110610e9557610e94611916565b5b9050602002810190610ea791906119fa565b604051610eb5929190611a91565b600060405180830381855af49150503d8060008114610ef0576040519150601f19603f3d011682016040523d82523d6000602084013e610ef5565b606091505b509150915081610f6457604481511015610f0e57600080fd5b60048101905080806020019051810190610f289190611b9c565b6040517f08c379a0000000000000000000000000000000000000000000000000000000008152600401610f5b9190611c3a565b60405180910390fd5b80848481518110610f7857610f77611916565b5b602002602001018190525050508080610f9090611974565b915050610e36565b50949350505050565b7f000000000000000000000000000000000000000000000000000000000000000073ffffffffffffffffffffffffffffffffffffffff163373ffffffffffffffffffffffffffffffffffffffff1614610ff957600080fd5b6000600560008060009054906101000a900473ffffffffffffffffffffffffffffffffffffffff1673ffffffffffffffffffffffffffffffffffffffff1673ffffffffffffffffffffffffffffffffffffffff16815260200190815260200160002081905550806000806101000a81548173ffffffffffffffffffffffffffffffffffffffff021916908373ffffffffffffffffffffffffffffffffffffffff1602179055506001600560008373ffffffffffffffffffffffffffffffffffffffff1673ffffffffffffffffffffffffffffffffffffffff1681526020019081526020016000208190555050565b7f000000000000000000000000000000000000000000000000000000000000000073ffffffffffffffffffffffffffffffffffffffff163373ffffffffffffffffffffffffffffffffffffffff161461113f57600080fd5b600060056000600160009054906101000a900473ffffffffffffffffffffffffffffffffffffffff1673ffffffffffffffffffffffffffffffffffffffff1673ffffffffffffffffffffffffffffffffffffffff1681526020019081526020016000208190555080600160006101000a81548173ffffffffffffffffffffffffffffffffffffffff021916908373ffffffffffffffffffffffffffffffffffffffff1602179055506001600560008373ffffffffffffffffffffffffffffffffffffffff1673ffffffffffffffffffffffffffffffffffffffff1681526020019081526020016000208190555050565b7f000000000000000000000000000000000000000000000000000000000000000073ffffffffffffffffffffffffffffffffffffffff163373ffffffffffffffffffffffffffffffffffffffff161461128757600080fd5b6000600360009054906101000a900473ffffffffffffffffffffffffffffffffffffffff1690508073ffffffffffffffffffffffffffffffffffffffff163373ffffffffffffffffffffffffffffffffffffffff16146112e657600080fd5b6000600560008373ffffffffffffffffffffffffffffffffffffffff1673ffffffffffffffffffffffffffffffffffffffff1681526020019081526020016000208190555081600360006101000a81548173ffffffffffffffffffffffffffffffffffffffff021916908373ffffffffffffffffffffffffffffffffffffffff1602179055506001600560008473ffffffffffffffffffffffffffffffffffffffff1673ffffffffffffffffffffffffffffffffffffffff168152602001908152602001600020819055505050565b600260009054906101000a900473ffffffffffffffffffffffffffffffffffffffff1681565b600360009054906101000a900473ffffffffffffffffffffffffffffffffffffffff1681565b60056020528060005260406000206000915090505481565b600460009054906101000a900473ffffffffffffffffffffffffffffffffffffffff1681565b6000604051905090565b600080fd5b600080fd5b600073ffffffffffffffffffffffffffffffffffffffff82169050919050565b600061147e82611453565b9050919050565b61148e81611473565b811461149957600080fd5b50565b6000813590506114ab81611485565b92915050565b6000602082840312156114c7576114c6611449565b5b60006114d58482850161149c565b91505092915050565b6114e781611473565b82525050565b600060208201905061150260008301846114de565b92915050565b600080600080600060a0868803121561152457611523611449565b5b60006115328882890161149c565b95505060206115438882890161149c565b94505060406115548882890161149c565b93505060606115658882890161149c565b92505060806115768882890161149c565b9150509295509295909350565b600080fd5b600080fd5b600080fd5b60008083601f8401126115a8576115a7611583565b5b8235905067ffffffffffffffff8111156115c5576115c4611588565b5b6020830191508360208202830111156115e1576115e061158d565b5b9250929050565b60008083601f8401126115fe576115fd611583565b5b8235905067ffffffffffffffff81111561161b5761161a611588565b5b6020830191508360208202830111156116375761163661158d565b5b9250929050565b6000806000806040858703121561165857611657611449565b5b600085013567ffffffffffffffff8111156116765761167561144e565b5b61168287828801611592565b9450945050602085013567ffffffffffffffff8111156116a5576116a461144e565b5b6116b1878288016115e8565b925092505092959194509250565b600081519050919050565b600082825260208201905092915050565b6000819050602082019050919050565b600081519050919050565b600082825260208201905092915050565b60005b8381101561172557808201518184015260208101905061170a565b83811115611734576000848401525b50505050565b6000601f19601f8301169050919050565b6000611756826116eb565b61176081856116f6565b9350611770818560208601611707565b6117798161173a565b840191505092915050565b6000611790838361174b565b905092915050565b6000602082019050919050565b60006117b0826116bf565b6117ba81856116ca565b9350836020820285016117cc856116db565b8060005b8581101561180857848403895281516117e98582611784565b94506117f483611798565b925060208a019950506001810190506117d0565b50829750879550505050505092915050565b6000602082019050818103600083015261183481846117a5565b905092915050565b6000819050919050565b61184f8161183c565b82525050565b600060208201905061186a6000830184611846565b92915050565b600060a08201905061188560008301886114de565b61189260208301876114de565b61189f60408301866114de565b6118ac60608301856114de565b6118b960808301846114de565b9695505050505050565b600081905092915050565b60006118d9826116eb565b6118e381856118c3565b93506118f3818560208601611707565b80840191505092915050565b600061190b82846118ce565b915081905092915050565b7f4e487b7100000000000000000000000000000000000000000000000000000000600052603260045260246000fd5b7f4e487b7100000000000000000000000000000000000000000000000000000000600052601160045260246000fd5b600061197f8261183c565b91507fffffffffffffffffffffffffffffffffffffffffffffffffffffffffffffffff82036119b1576119b0611945565b5b600182019050919050565b7f4e487b7100000000000000000000000000000000000000000000000000000000600052604160045260246000fd5b600080fd5b600080fd5b600080fd5b60008083356001602003843603038112611a1757611a166119eb565b5b80840192508235915067ffffffffffffffff821115611a3957611a386119f0565b5b602083019250600182023603831315611a5557611a546119f5565b5b509250929050565b82818337600083830152505050565b6000611a7883856118c3565b9350611a85838584611a5d565b82840190509392505050565b6000611a9e828486611a6c565b91508190509392505050565b600080fd5b611ab88261173a565b810181811067ffffffffffffffff82111715611ad757611ad66119bc565b5b80604052505050565b6000611aea61143f565b9050611af68282611aaf565b919050565b600067ffffffffffffffff821115611b1657611b156119bc565b5b611b1f8261173a565b9050602081019050919050565b6000611b3f611b3a84611afb565b611ae0565b905082815260208101848484011115611b5b57611b5a611aaa565b5b611b66848285611707565b509392505050565b600082601f830112611b8357611b82611583565b5b8151611b93848260208601611b2c565b91505092915050565b600060208284031215611bb257611bb1611449565b5b600082015167ffffffffffffffff811115611bd057611bcf61144e565b5b611bdc84828501611b6e565b91505092915050565b600081519050919050565b600082825260208201905092915050565b6000611c0c82611be5565b611c168185611bf0565b9350611c26818560208601611707565b611c2f8161173a565b840191505092915050565b60006020820190508181036000830152611c548184611c01565b90509291505056fea264697066735822122019bf3a76824ad2def25bdc685614cf08aecc8a0277e053bb1775ef6039d64c4d64736f6c634300080e0033",
					"opcodes": "PUSH1 0xA0 PUSH1 0x40 MSTORE CALLVALUE DUP1 ISZERO PUSH2 0x10 JUMPI PUSH1 0x0 DUP1 REVERT JUMPDEST POP CALLER PUSH20 0xFFFFFFFFFFFFFFFFFFFFFFFFFFFFFFFFFFFFFFFF AND PUSH1 0x80 DUP2 PUSH20 0xFFFFFFFFFFFFFFFFFFFFFFFFFFFFFFFFFFFFFFFF AND DUP2 MSTORE POP POP PUSH1 0x80 MLOAD PUSH2 0x1C92 PUSH2 0x91 PUSH1 0x0 CODECOPY PUSH1 0x0 DUP2 DUP2 PUSH2 0x362 ADD MSTORE DUP2 DUP2 PUSH2 0x50E ADD MSTORE DUP2 DUP2 PUSH2 0x80A ADD MSTORE DUP2 DUP2 PUSH2 0xB68 ADD MSTORE DUP2 DUP2 PUSH2 0xBA1 ADD MSTORE DUP2 DUP2 PUSH2 0xFA3 ADD MSTORE DUP2 DUP2 PUSH2 0x10E9 ADD MSTORE PUSH2 0x1231 ADD MSTORE PUSH2 0x1C92 PUSH1 0x0 RETURN INVALID PUSH1 0x80 PUSH1 0x40 MSTORE PUSH1 0x4 CALLDATASIZE LT PUSH2 0xE1 JUMPI PUSH1 0x0 CALLDATALOAD PUSH1 0xE0 SHR DUP1 PUSH4 0x8AE91695 GT PUSH2 0x7F JUMPI DUP1 PUSH4 0xDA8909E5 GT PUSH2 0x59 JUMPI DUP1 PUSH4 0xDA8909E5 EQ PUSH2 0x2A2 JUMPI DUP1 PUSH4 0xDC96D689 EQ PUSH2 0x2CD JUMPI DUP1 PUSH4 0xE5919A4F EQ PUSH2 0x2F8 JUMPI DUP1 PUSH4 0xFC0C546A EQ PUSH2 0x335 JUMPI PUSH2 0xEB JUMP JUMPDEST DUP1 PUSH4 0x8AE91695 EQ PUSH2 0x227 JUMPI DUP1 PUSH4 0xA6FA0B7B EQ PUSH2 0x250 JUMPI DUP1 PUSH4 0xCF368A39 EQ PUSH2 0x279 JUMPI PUSH2 0xEB JUMP JUMPDEST DUP1 PUSH4 0x2637A477 GT PUSH2 0xBB JUMPI DUP1 PUSH4 0x2637A477 EQ PUSH2 0x16D JUMPI DUP1 PUSH4 0x2EBD1E28 EQ PUSH2 0x196 JUMPI DUP1 PUSH4 0x3F0A0797 EQ PUSH2 0x1BF JUMPI DUP1 PUSH4 0x600E1B2B EQ PUSH2 0x1EA JUMPI PUSH2 0xEB JUMP JUMPDEST DUP1 PUSH4 0x101DFD19 EQ PUSH2 0xF0 JUMPI DUP1 PUSH4 0x11CE0267 EQ PUSH2 0x119 JUMPI DUP1 PUSH4 0x1B46A447 EQ PUSH2 0x144 JUMPI PUSH2 0xEB JUMP JUMPDEST CALLDATASIZE PUSH2 0xEB JUMPI PUSH1 0x0 DUP1 REVERT JUMPDEST PUSH1 0x0 DUP1 REVERT JUMPDEST CALLVALUE DUP1 ISZERO PUSH2 0xFC JUMPI PUSH1 0x0 DUP1 REVERT JUMPDEST POP PUSH2 0x117 PUSH1 0x4 DUP1 CALLDATASIZE SUB DUP2 ADD SWAP1 PUSH2 0x112 SWAP2 SWAP1 PUSH2 0x14B1 JUMP JUMPDEST PUSH2 0x360 JUMP JUMPDEST STOP JUMPDEST CALLVALUE DUP1 ISZERO PUSH2 0x125 JUMPI PUSH1 0x0 DUP1 REVERT JUMPDEST POP PUSH2 0x12E PUSH2 0x4E6 JUMP JUMPDEST PUSH1 0x40 MLOAD PUSH2 0x13B SWAP2 SWAP1 PUSH2 0x14ED JUMP JUMPDEST PUSH1 0x40 MLOAD DUP1 SWAP2 SUB SWAP1 RETURN JUMPDEST CALLVALUE DUP1 ISZERO PUSH2 0x150 JUMPI PUSH1 0x0 DUP1 REVERT JUMPDEST POP PUSH2 0x16B PUSH1 0x4 DUP1 CALLDATASIZE SUB DUP2 ADD SWAP1 PUSH2 0x166 SWAP2 SWAP1 PUSH2 0x1508 JUMP JUMPDEST PUSH2 0x50C JUMP JUMPDEST STOP JUMPDEST CALLVALUE DUP1 ISZERO PUSH2 0x179 JUMPI PUSH1 0x0 DUP1 REVERT JUMPDEST POP PUSH2 0x194 PUSH1 0x4 DUP1 CALLDATASIZE SUB DUP2 ADD SWAP1 PUSH2 0x18F SWAP2 SWAP1 PUSH2 0x14B1 JUMP JUMPDEST PUSH2 0x808 JUMP JUMPDEST STOP JUMPDEST CALLVALUE DUP1 ISZERO PUSH2 0x1A2 JUMPI PUSH1 0x0 DUP1 REVERT JUMPDEST POP PUSH2 0x1BD PUSH1 0x4 DUP1 CALLDATASIZE SUB DUP2 ADD SWAP1 PUSH2 0x1B8 SWAP2 SWAP1 PUSH2 0x14B1 JUMP JUMPDEST PUSH2 0xB9F JUMP JUMPDEST STOP JUMPDEST CALLVALUE DUP1 ISZERO PUSH2 0x1CB JUMPI PUSH1 0x0 DUP1 REVERT JUMPDEST POP PUSH2 0x1D4 PUSH2 0xD25 JUMP JUMPDEST PUSH1 0x40 MLOAD PUSH2 0x1E1 SWAP2 SWAP1 PUSH2 0x14ED JUMP JUMPDEST PUSH1 0x40 MLOAD DUP1 SWAP2 SUB SWAP1 RETURN JUMPDEST CALLVALUE DUP1 ISZERO PUSH2 0x1F6 JUMPI PUSH1 0x0 DUP1 REVERT JUMPDEST POP PUSH2 0x211 PUSH1 0x4 DUP1 CALLDATASIZE SUB DUP2 ADD SWAP1 PUSH2 0x20C SWAP2 SWAP1 PUSH2 0x163E JUMP JUMPDEST PUSH2 0xD49 JUMP JUMPDEST PUSH1 0x40 MLOAD PUSH2 0x21E SWAP2 SWAP1 PUSH2 0x181A JUMP JUMPDEST PUSH1 0x40 MLOAD DUP1 SWAP2 SUB SWAP1 RETURN JUMPDEST CALLVALUE DUP1 ISZERO PUSH2 0x233 JUMPI PUSH1 0x0 DUP1 REVERT JUMPDEST POP PUSH2 0x24E PUSH1 0x4 DUP1 CALLDATASIZE SUB DUP2 ADD SWAP1 PUSH2 0x249 SWAP2 SWAP1 PUSH2 0x14B1 JUMP JUMPDEST PUSH2 0xFA1 JUMP JUMPDEST STOP JUMPDEST CALLVALUE DUP1 ISZERO PUSH2 0x25C JUMPI PUSH1 0x0 DUP1 REVERT JUMPDEST POP PUSH2 0x277 PUSH1 0x4 DUP1 CALLDATASIZE SUB DUP2 ADD SWAP1 PUSH2 0x272 SWAP2 SWAP1 PUSH2 0x14B1 JUMP JUMPDEST PUSH2 0x10E7 JUMP JUMPDEST STOP JUMPDEST CALLVALUE DUP1 ISZERO PUSH2 0x285 JUMPI PUSH1 0x0 DUP1 REVERT JUMPDEST POP PUSH2 0x2A0 PUSH1 0x4 DUP1 CALLDATASIZE SUB DUP2 ADD SWAP1 PUSH2 0x29B SWAP2 SWAP1 PUSH2 0x14B1 JUMP JUMPDEST PUSH2 0x122F JUMP JUMPDEST STOP JUMPDEST CALLVALUE DUP1 ISZERO PUSH2 0x2AE JUMPI PUSH1 0x0 DUP1 REVERT JUMPDEST POP PUSH2 0x2B7 PUSH2 0x13B5 JUMP JUMPDEST PUSH1 0x40 MLOAD PUSH2 0x2C4 SWAP2 SWAP1 PUSH2 0x14ED JUMP JUMPDEST PUSH1 0x40 MLOAD DUP1 SWAP2 SUB SWAP1 RETURN JUMPDEST CALLVALUE DUP1 ISZERO PUSH2 0x2D9 JUMPI PUSH1 0x0 DUP1 REVERT JUMPDEST POP PUSH2 0x2E2 PUSH2 0x13DB JUMP JUMPDEST PUSH1 0x40 MLOAD PUSH2 0x2EF SWAP2 SWAP1 PUSH2 0x14ED JUMP JUMPDEST PUSH1 0x40 MLOAD DUP1 SWAP2 SUB SWAP1 RETURN JUMPDEST CALLVALUE DUP1 ISZERO PUSH2 0x304 JUMPI PUSH1 0x0 DUP1 REVERT JUMPDEST POP PUSH2 0x31F PUSH1 0x4 DUP1 CALLDATASIZE SUB DUP2 ADD SWAP1 PUSH2 0x31A SWAP2 SWAP1 PUSH2 0x14B1 JUMP JUMPDEST PUSH2 0x1401 JUMP JUMPDEST PUSH1 0x40 MLOAD PUSH2 0x32C SWAP2 SWAP1 PUSH2 0x1855 JUMP JUMPDEST PUSH1 0x40 MLOAD DUP1 SWAP2 SUB SWAP1 RETURN JUMPDEST CALLVALUE DUP1 ISZERO PUSH2 0x341 JUMPI PUSH1 0x0 DUP1 REVERT JUMPDEST POP PUSH2 0x34A PUSH2 0x1419 JUMP JUMPDEST PUSH1 0x40 MLOAD PUSH2 0x357 SWAP2 SWAP1 PUSH2 0x14ED JUMP JUMPDEST PUSH1 0x40 MLOAD DUP1 SWAP2 SUB SWAP1 RETURN JUMPDEST PUSH32 0x0 PUSH20 0xFFFFFFFFFFFFFFFFFFFFFFFFFFFFFFFFFFFFFFFF AND CALLER PUSH20 0xFFFFFFFFFFFFFFFFFFFFFFFFFFFFFFFFFFFFFFFF AND EQ PUSH2 0x3B8 JUMPI PUSH1 0x0 DUP1 REVERT JUMPDEST PUSH1 0x0 PUSH1 0x2 PUSH1 0x0 SWAP1 SLOAD SWAP1 PUSH2 0x100 EXP SWAP1 DIV PUSH20 0xFFFFFFFFFFFFFFFFFFFFFFFFFFFFFFFFFFFFFFFF AND SWAP1 POP DUP1 PUSH20 0xFFFFFFFFFFFFFFFFFFFFFFFFFFFFFFFFFFFFFFFF AND CALLER PUSH20 0xFFFFFFFFFFFFFFFFFFFFFFFFFFFFFFFFFFFFFFFF AND EQ PUSH2 0x417 JUMPI PUSH1 0x0 DUP1 REVERT JUMPDEST PUSH1 0x0 PUSH1 0x5 PUSH1 0x0 DUP4 PUSH20 0xFFFFFFFFFFFFFFFFFFFFFFFFFFFFFFFFFFFFFFFF AND PUSH20 0xFFFFFFFFFFFFFFFFFFFFFFFFFFFFFFFFFFFFFFFF AND DUP2 MSTORE PUSH1 0x20 ADD SWAP1 DUP2 MSTORE PUSH1 0x20 ADD PUSH1 0x0 KECCAK256 DUP2 SWAP1 SSTORE POP DUP2 PUSH1 0x2 PUSH1 0x0 PUSH2 0x100 EXP DUP2 SLOAD DUP2 PUSH20 0xFFFFFFFFFFFFFFFFFFFFFFFFFFFFFFFFFFFFFFFF MUL NOT AND SWAP1 DUP4 PUSH20 0xFFFFFFFFFFFFFFFFFFFFFFFFFFFFFFFFFFFFFFFF AND MUL OR SWAP1 SSTORE POP PUSH1 0x1 PUSH1 0x5 PUSH1 0x0 DUP5 PUSH20 0xFFFFFFFFFFFFFFFFFFFFFFFFFFFFFFFFFFFFFFFF AND PUSH20 0xFFFFFFFFFFFFFFFFFFFFFFFFFFFFFFFFFFFFFFFF AND DUP2 MSTORE PUSH1 0x20 ADD SWAP1 DUP2 MSTORE PUSH1 0x20 ADD PUSH1 0x0 KECCAK256 DUP2 SWAP1 SSTORE POP POP POP JUMP JUMPDEST PUSH1 0x1 PUSH1 0x0 SWAP1 SLOAD SWAP1 PUSH2 0x100 EXP SWAP1 DIV PUSH20 0xFFFFFFFFFFFFFFFFFFFFFFFFFFFFFFFFFFFFFFFF AND DUP2 JUMP JUMPDEST PUSH32 0x0 PUSH20 0xFFFFFFFFFFFFFFFFFFFFFFFFFFFFFFFFFFFFFFFF AND CALLER PUSH20 0xFFFFFFFFFFFFFFFFFFFFFFFFFFFFFFFFFFFFFFFF AND EQ PUSH2 0x564 JUMPI PUSH1 0x0 DUP1 REVERT JUMPDEST DUP5 PUSH1 0x0 DUP1 PUSH2 0x100 EXP DUP2 SLOAD DUP2 PUSH20 0xFFFFFFFFFFFFFFFFFFFFFFFFFFFFFFFFFFFFFFFF MUL NOT AND SWAP1 DUP4 PUSH20 0xFFFFFFFFFFFFFFFFFFFFFFFFFFFFFFFFFFFFFFFF AND MUL OR SWAP1 SSTORE POP PUSH1 0x1 PUSH1 0x5 PUSH1 0x0 DUP8 PUSH20 0xFFFFFFFFFFFFFFFFFFFFFFFFFFFFFFFFFFFFFFFF AND PUSH20 0xFFFFFFFFFFFFFFFFFFFFFFFFFFFFFFFFFFFFFFFF AND DUP2 MSTORE PUSH1 0x20 ADD SWAP1 DUP2 MSTORE PUSH1 0x20 ADD PUSH1 0x0 KECCAK256 DUP2 SWAP1 SSTORE POP DUP4 PUSH1 0x1 PUSH1 0x0 PUSH2 0x100 EXP DUP2 SLOAD DUP2 PUSH20 0xFFFFFFFFFFFFFFFFFFFFFFFFFFFFFFFFFFFFFFFF MUL NOT AND SWAP1 DUP4 PUSH20 0xFFFFFFFFFFFFFFFFFFFFFFFFFFFFFFFFFFFFFFFF AND MUL OR SWAP1 SSTORE POP PUSH1 0x1 PUSH1 0x5 PUSH1 0x0 DUP7 PUSH20 0xFFFFFFFFFFFFFFFFFFFFFFFFFFFFFFFFFFFFFFFF AND PUSH20 0xFFFFFFFFFFFFFFFFFFFFFFFFFFFFFFFFFFFFFFFF AND DUP2 MSTORE PUSH1 0x20 ADD SWAP1 DUP2 MSTORE PUSH1 0x20 ADD PUSH1 0x0 KECCAK256 DUP2 SWAP1 SSTORE POP DUP3 PUSH1 0x2 PUSH1 0x0 PUSH2 0x100 EXP DUP2 SLOAD DUP2 PUSH20 0xFFFFFFFFFFFFFFFFFFFFFFFFFFFFFFFFFFFFFFFF MUL NOT AND SWAP1 DUP4 PUSH20 0xFFFFFFFFFFFFFFFFFFFFFFFFFFFFFFFFFFFFFFFF AND MUL OR SWAP1 SSTORE POP PUSH1 0x1 PUSH1 0x5 PUSH1 0x0 DUP6 PUSH20 0xFFFFFFFFFFFFFFFFFFFFFFFFFFFFFFFFFFFFFFFF AND PUSH20 0xFFFFFFFFFFFFFFFFFFFFFFFFFFFFFFFFFFFFFFFF AND DUP2 MSTORE PUSH1 0x20 ADD SWAP1 DUP2 MSTORE PUSH1 0x20 ADD PUSH1 0x0 KECCAK256 DUP2 SWAP1 SSTORE POP DUP2 PUSH1 0x3 PUSH1 0x0 PUSH2 0x100 EXP DUP2 SLOAD DUP2 PUSH20 0xFFFFFFFFFFFFFFFFFFFFFFFFFFFFFFFFFFFFFFFF MUL NOT AND SWAP1 DUP4 PUSH20 0xFFFFFFFFFFFFFFFFFFFFFFFFFFFFFFFFFFFFFFFF AND MUL OR SWAP1 SSTORE POP PUSH1 0x1 PUSH1 0x5 PUSH1 0x0 DUP5 PUSH20 0xFFFFFFFFFFFFFFFFFFFFFFFFFFFFFFFFFFFFFFFF AND PUSH20 0xFFFFFFFFFFFFFFFFFFFFFFFFFFFFFFFFFFFFFFFF AND DUP2 MSTORE PUSH1 0x20 ADD SWAP1 DUP2 MSTORE PUSH1 0x20 ADD PUSH1 0x0 KECCAK256 DUP2 SWAP1 SSTORE POP DUP1 PUSH1 0x4 PUSH1 0x0 PUSH2 0x100 EXP DUP2 SLOAD DUP2 PUSH20 0xFFFFFFFFFFFFFFFFFFFFFFFFFFFFFFFFFFFFFFFF MUL NOT AND SWAP1 DUP4 PUSH20 0xFFFFFFFFFFFFFFFFFFFFFFFFFFFFFFFFFFFFFFFF AND MUL OR SWAP1 SSTORE POP PUSH1 0x1 PUSH1 0x5 PUSH1 0x0 DUP4 PUSH20 0xFFFFFFFFFFFFFFFFFFFFFFFFFFFFFFFFFFFFFFFF AND PUSH20 0xFFFFFFFFFFFFFFFFFFFFFFFFFFFFFFFFFFFFFFFF AND DUP2 MSTORE PUSH1 0x20 ADD SWAP1 DUP2 MSTORE PUSH1 0x20 ADD PUSH1 0x0 KECCAK256 DUP2 SWAP1 SSTORE POP POP POP POP POP POP JUMP JUMPDEST PUSH32 0x0 PUSH20 0xFFFFFFFFFFFFFFFFFFFFFFFFFFFFFFFFFFFFFFFF AND CALLER PUSH20 0xFFFFFFFFFFFFFFFFFFFFFFFFFFFFFFFFFFFFFFFF AND EQ PUSH2 0x860 JUMPI PUSH1 0x0 DUP1 REVERT JUMPDEST PUSH1 0x0 DUP1 PUSH1 0x0 DUP1 PUSH1 0x0 DUP1 PUSH1 0x0 SWAP1 SLOAD SWAP1 PUSH2 0x100 EXP SWAP1 DIV PUSH20 0xFFFFFFFFFFFFFFFFFFFFFFFFFFFFFFFFFFFFFFFF AND PUSH1 0x1 PUSH1 0x0 SWAP1 SLOAD SWAP1 PUSH2 0x100 EXP SWAP1 DIV PUSH20 0xFFFFFFFFFFFFFFFFFFFFFFFFFFFFFFFFFFFFFFFF AND PUSH1 0x2 PUSH1 0x0 SWAP1 SLOAD SWAP1 PUSH2 0x100 EXP SWAP1 DIV PUSH20 0xFFFFFFFFFFFFFFFFFFFFFFFFFFFFFFFFFFFFFFFF AND PUSH1 0x3 PUSH1 0x0 SWAP1 SLOAD SWAP1 PUSH2 0x100 EXP SWAP1 DIV PUSH20 0xFFFFFFFFFFFFFFFFFFFFFFFFFFFFFFFFFFFFFFFF AND PUSH1 0x4 PUSH1 0x0 SWAP1 SLOAD SWAP1 PUSH2 0x100 EXP SWAP1 DIV PUSH20 0xFFFFFFFFFFFFFFFFFFFFFFFFFFFFFFFFFFFFFFFF AND SWAP5 POP SWAP5 POP SWAP5 POP SWAP5 POP SWAP5 POP DUP6 PUSH20 0xFFFFFFFFFFFFFFFFFFFFFFFFFFFFFFFFFFFFFFFF AND DUP6 DUP6 DUP6 DUP6 DUP6 PUSH1 0x40 MLOAD PUSH1 0x24 ADD PUSH2 0x950 SWAP6 SWAP5 SWAP4 SWAP3 SWAP2 SWAP1 PUSH2 0x1870 JUMP JUMPDEST PUSH1 0x40 MLOAD PUSH1 0x20 DUP2 DUP4 SUB SUB DUP2 MSTORE SWAP1 PUSH1 0x40 MSTORE PUSH32 0x1B46A44700000000000000000000000000000000000000000000000000000000 PUSH28 0xFFFFFFFFFFFFFFFFFFFFFFFFFFFFFFFFFFFFFFFFFFFFFFFFFFFFFFFF NOT AND PUSH1 0x20 DUP3 ADD DUP1 MLOAD PUSH28 0xFFFFFFFFFFFFFFFFFFFFFFFFFFFFFFFFFFFFFFFFFFFFFFFFFFFFFFFF DUP4 DUP2 DUP4 AND OR DUP4 MSTORE POP POP POP POP PUSH1 0x40 MLOAD PUSH2 0x9DA SWAP2 SWAP1 PUSH2 0x18FF JUMP JUMPDEST PUSH1 0x0 PUSH1 0x40 MLOAD DUP1 DUP4 SUB DUP2 DUP6 GAS DELEGATECALL SWAP2 POP POP RETURNDATASIZE DUP1 PUSH1 0x0 DUP2 EQ PUSH2 0xA15 JUMPI PUSH1 0x40 MLOAD SWAP2 POP PUSH1 0x1F NOT PUSH1 0x3F RETURNDATASIZE ADD AND DUP3 ADD PUSH1 0x40 MSTORE RETURNDATASIZE DUP3 MSTORE RETURNDATASIZE PUSH1 0x0 PUSH1 0x20 DUP5 ADD RETURNDATACOPY PUSH2 0xA1A JUMP JUMPDEST PUSH1 0x60 SWAP2 POP JUMPDEST POP POP POP PUSH1 0x0 DUP1 PUSH1 0x0 PUSH2 0x100 EXP DUP2 SLOAD DUP2 PUSH20 0xFFFFFFFFFFFFFFFFFFFFFFFFFFFFFFFFFFFFFFFF MUL NOT AND SWAP1 DUP4 PUSH20 0xFFFFFFFFFFFFFFFFFFFFFFFFFFFFFFFFFFFFFFFF AND MUL OR SWAP1 SSTORE POP PUSH1 0x0 PUSH1 0x1 PUSH1 0x0 PUSH2 0x100 EXP DUP2 SLOAD DUP2 PUSH20 0xFFFFFFFFFFFFFFFFFFFFFFFFFFFFFFFFFFFFFFFF MUL NOT AND SWAP1 DUP4 PUSH20 0xFFFFFFFFFFFFFFFFFFFFFFFFFFFFFFFFFFFFFFFF AND MUL OR SWAP1 SSTORE POP PUSH1 0x0 PUSH1 0x2 PUSH1 0x0 PUSH2 0x100 EXP DUP2 SLOAD DUP2 PUSH20 0xFFFFFFFFFFFFFFFFFFFFFFFFFFFFFFFFFFFFFFFF MUL NOT AND SWAP1 DUP4 PUSH20 0xFFFFFFFFFFFFFFFFFFFFFFFFFFFFFFFFFFFFFFFF AND MUL OR SWAP1 SSTORE POP PUSH1 0x0 PUSH1 0x3 PUSH1 0x0 PUSH2 0x100 EXP DUP2 SLOAD DUP2 PUSH20 0xFFFFFFFFFFFFFFFFFFFFFFFFFFFFFFFFFFFFFFFF MUL NOT AND SWAP1 DUP4 PUSH20 0xFFFFFFFFFFFFFFFFFFFFFFFFFFFFFFFFFFFFFFFF AND MUL OR SWAP1 SSTORE POP PUSH1 0x0 PUSH1 0x4 PUSH1 0x0 PUSH2 0x100 EXP DUP2 SLOAD DUP2 PUSH20 0xFFFFFFFFFFFFFFFFFFFFFFFFFFFFFFFFFFFFFFFF MUL NOT AND SWAP1 DUP4 PUSH20 0xFFFFFFFFFFFFFFFFFFFFFFFFFFFFFFFFFFFFFFFF AND MUL OR SWAP1 SSTORE POP PUSH32 0x0 PUSH20 0xFFFFFFFFFFFFFFFFFFFFFFFFFFFFFFFFFFFFFFFF AND SELFDESTRUCT JUMPDEST PUSH32 0x0 PUSH20 0xFFFFFFFFFFFFFFFFFFFFFFFFFFFFFFFFFFFFFFFF AND CALLER PUSH20 0xFFFFFFFFFFFFFFFFFFFFFFFFFFFFFFFFFFFFFFFF AND EQ PUSH2 0xBF7 JUMPI PUSH1 0x0 DUP1 REVERT JUMPDEST PUSH1 0x0 PUSH1 0x4 PUSH1 0x0 SWAP1 SLOAD SWAP1 PUSH2 0x100 EXP SWAP1 DIV PUSH20 0xFFFFFFFFFFFFFFFFFFFFFFFFFFFFFFFFFFFFFFFF AND SWAP1 POP DUP1 PUSH20 0xFFFFFFFFFFFFFFFFFFFFFFFFFFFFFFFFFFFFFFFF AND CALLER PUSH20 0xFFFFFFFFFFFFFFFFFFFFFFFFFFFFFFFFFFFFFFFF AND EQ PUSH2 0xC56 JUMPI PUSH1 0x0 DUP1 REVERT JUMPDEST PUSH1 0x0 PUSH1 0x5 PUSH1 0x0 DUP4 PUSH20 0xFFFFFFFFFFFFFFFFFFFFFFFFFFFFFFFFFFFFFFFF AND PUSH20 0xFFFFFFFFFFFFFFFFFFFFFFFFFFFFFFFFFFFFFFFF AND DUP2 MSTORE PUSH1 0x20 ADD SWAP1 DUP2 MSTORE PUSH1 0x20 ADD PUSH1 0x0 KECCAK256 DUP2 SWAP1 SSTORE POP DUP2 PUSH1 0x4 PUSH1 0x0 PUSH2 0x100 EXP DUP2 SLOAD DUP2 PUSH20 0xFFFFFFFFFFFFFFFFFFFFFFFFFFFFFFFFFFFFFFFF MUL NOT AND SWAP1 DUP4 PUSH20 0xFFFFFFFFFFFFFFFFFFFFFFFFFFFFFFFFFFFFFFFF AND MUL OR SWAP1 SSTORE POP PUSH1 0x1 PUSH1 0x5 PUSH1 0x0 DUP5 PUSH20 0xFFFFFFFFFFFFFFFFFFFFFFFFFFFFFFFFFFFFFFFF AND PUSH20 0xFFFFFFFFFFFFFFFFFFFFFFFFFFFFFFFFFFFFFFFF AND DUP2 MSTORE PUSH1 0x20 ADD SWAP1 DUP2 MSTORE PUSH1 0x20 ADD PUSH1 0x0 KECCAK256 DUP2 SWAP1 SSTORE POP POP POP JUMP JUMPDEST PUSH1 0x0 DUP1 SLOAD SWAP1 PUSH2 0x100 EXP SWAP1 DIV PUSH20 0xFFFFFFFFFFFFFFFFFFFFFFFFFFFFFFFFFFFFFFFF AND DUP2 JUMP JUMPDEST PUSH1 0x60 PUSH1 0x0 JUMPDEST DUP4 DUP4 SWAP1 POP DUP2 LT ISZERO PUSH2 0xDDF JUMPI PUSH1 0x1 PUSH1 0x5 PUSH1 0x0 DUP7 DUP7 DUP6 DUP2 DUP2 LT PUSH2 0xD72 JUMPI PUSH2 0xD71 PUSH2 0x1916 JUMP JUMPDEST JUMPDEST SWAP1 POP PUSH1 0x20 MUL ADD PUSH1 0x20 DUP2 ADD SWAP1 PUSH2 0xD87 SWAP2 SWAP1 PUSH2 0x14B1 JUMP JUMPDEST PUSH20 0xFFFFFFFFFFFFFFFFFFFFFFFFFFFFFFFFFFFFFFFF AND PUSH20 0xFFFFFFFFFFFFFFFFFFFFFFFFFFFFFFFFFFFFFFFF AND DUP2 MSTORE PUSH1 0x20 ADD SWAP1 DUP2 MSTORE PUSH1 0x20 ADD PUSH1 0x0 KECCAK256 SLOAD EQ PUSH2 0xDCC JUMPI PUSH1 0x0 DUP1 REVERT JUMPDEST DUP1 DUP1 PUSH2 0xDD7 SWAP1 PUSH2 0x1974 JUMP JUMPDEST SWAP2 POP POP PUSH2 0xD4E JUMP JUMPDEST POP DUP5 DUP5 SWAP1 POP PUSH8 0xFFFFFFFFFFFFFFFF DUP2 GT ISZERO PUSH2 0xDFD JUMPI PUSH2 0xDFC PUSH2 0x19BC JUMP JUMPDEST JUMPDEST PUSH1 0x40 MLOAD SWAP1 DUP1 DUP3 MSTORE DUP1 PUSH1 0x20 MUL PUSH1 0x20 ADD DUP3 ADD PUSH1 0x40 MSTORE DUP1 ISZERO PUSH2 0xE30 JUMPI DUP2 PUSH1 0x20 ADD JUMPDEST PUSH1 0x60 DUP2 MSTORE PUSH1 0x20 ADD SWAP1 PUSH1 0x1 SWAP1 SUB SWAP1 DUP2 PUSH2 0xE1B JUMPI SWAP1 POP JUMPDEST POP SWAP1 POP PUSH1 0x0 JUMPDEST DUP6 DUP6 SWAP1 POP DUP2 LT ISZERO PUSH2 0xF98 JUMPI PUSH1 0x0 DUP1 DUP6 DUP6 DUP5 DUP2 DUP2 LT PUSH2 0xE57 JUMPI PUSH2 0xE56 PUSH2 0x1916 JUMP JUMPDEST JUMPDEST SWAP1 POP PUSH1 0x20 MUL ADD PUSH1 0x20 DUP2 ADD SWAP1 PUSH2 0xE6C SWAP2 SWAP1 PUSH2 0x14B1 JUMP JUMPDEST PUSH20 0xFFFFFFFFFFFFFFFFFFFFFFFFFFFFFFFFFFFFFFFF AND DUP9 DUP9 DUP6 DUP2 DUP2 LT PUSH2 0xE95 JUMPI PUSH2 0xE94 PUSH2 0x1916 JUMP JUMPDEST JUMPDEST SWAP1 POP PUSH1 0x20 MUL DUP2 ADD SWAP1 PUSH2 0xEA7 SWAP2 SWAP1 PUSH2 0x19FA JUMP JUMPDEST PUSH1 0x40 MLOAD PUSH2 0xEB5 SWAP3 SWAP2 SWAP1 PUSH2 0x1A91 JUMP JUMPDEST PUSH1 0x0 PUSH1 0x40 MLOAD DUP1 DUP4 SUB DUP2 DUP6 GAS DELEGATECALL SWAP2 POP POP RETURNDATASIZE DUP1 PUSH1 0x0 DUP2 EQ PUSH2 0xEF0 JUMPI PUSH1 0x40 MLOAD SWAP2 POP PUSH1 0x1F NOT PUSH1 0x3F RETURNDATASIZE ADD AND DUP3 ADD PUSH1 0x40 MSTORE RETURNDATASIZE DUP3 MSTORE RETURNDATASIZE PUSH1 0x0 PUSH1 0x20 DUP5 ADD RETURNDATACOPY PUSH2 0xEF5 JUMP JUMPDEST PUSH1 0x60 SWAP2 POP JUMPDEST POP SWAP2 POP SWAP2 POP DUP2 PUSH2 0xF64 JUMPI PUSH1 0x44 DUP2 MLOAD LT ISZERO PUSH2 0xF0E JUMPI PUSH1 0x0 DUP1 REVERT JUMPDEST PUSH1 0x4 DUP2 ADD SWAP1 POP DUP1 DUP1 PUSH1 0x20 ADD SWAP1 MLOAD DUP2 ADD SWAP1 PUSH2 0xF28 SWAP2 SWAP1 PUSH2 0x1B9C JUMP JUMPDEST PUSH1 0x40 MLOAD PUSH32 0x8C379A000000000000000000000000000000000000000000000000000000000 DUP2 MSTORE PUSH1 0x4 ADD PUSH2 0xF5B SWAP2 SWAP1 PUSH2 0x1C3A JUMP JUMPDEST PUSH1 0x40 MLOAD DUP1 SWAP2 SUB SWAP1 REVERT JUMPDEST DUP1 DUP5 DUP5 DUP2 MLOAD DUP2 LT PUSH2 0xF78 JUMPI PUSH2 0xF77 PUSH2 0x1916 JUMP JUMPDEST JUMPDEST PUSH1 0x20 MUL PUSH1 0x20 ADD ADD DUP2 SWAP1 MSTORE POP POP POP DUP1 DUP1 PUSH2 0xF90 SWAP1 PUSH2 0x1974 JUMP JUMPDEST SWAP2 POP POP PUSH2 0xE36 JUMP JUMPDEST POP SWAP5 SWAP4 POP POP POP POP JUMP JUMPDEST PUSH32 0x0 PUSH20 0xFFFFFFFFFFFFFFFFFFFFFFFFFFFFFFFFFFFFFFFF AND CALLER PUSH20 0xFFFFFFFFFFFFFFFFFFFFFFFFFFFFFFFFFFFFFFFF AND EQ PUSH2 0xFF9 JUMPI PUSH1 0x0 DUP1 REVERT JUMPDEST PUSH1 0x0 PUSH1 0x5 PUSH1 0x0 DUP1 PUSH1 0x0 SWAP1 SLOAD SWAP1 PUSH2 0x100 EXP SWAP1 DIV PUSH20 0xFFFFFFFFFFFFFFFFFFFFFFFFFFFFFFFFFFFFFFFF AND PUSH20 0xFFFFFFFFFFFFFFFFFFFFFFFFFFFFFFFFFFFFFFFF AND PUSH20 0xFFFFFFFFFFFFFFFFFFFFFFFFFFFFFFFFFFFFFFFF AND DUP2 MSTORE PUSH1 0x20 ADD SWAP1 DUP2 MSTORE PUSH1 0x20 ADD PUSH1 0x0 KECCAK256 DUP2 SWAP1 SSTORE POP DUP1 PUSH1 0x0 DUP1 PUSH2 0x100 EXP DUP2 SLOAD DUP2 PUSH20 0xFFFFFFFFFFFFFFFFFFFFFFFFFFFFFFFFFFFFFFFF MUL NOT AND SWAP1 DUP4 PUSH20 0xFFFFFFFFFFFFFFFFFFFFFFFFFFFFFFFFFFFFFFFF AND MUL OR SWAP1 SSTORE POP PUSH1 0x1 PUSH1 0x5 PUSH1 0x0 DUP4 PUSH20 0xFFFFFFFFFFFFFFFFFFFFFFFFFFFFFFFFFFFFFFFF AND PUSH20 0xFFFFFFFFFFFFFFFFFFFFFFFFFFFFFFFFFFFFFFFF AND DUP2 MSTORE PUSH1 0x20 ADD SWAP1 DUP2 MSTORE PUSH1 0x20 ADD PUSH1 0x0 KECCAK256 DUP2 SWAP1 SSTORE POP POP JUMP JUMPDEST PUSH32 0x0 PUSH20 0xFFFFFFFFFFFFFFFFFFFFFFFFFFFFFFFFFFFFFFFF AND CALLER PUSH20 0xFFFFFFFFFFFFFFFFFFFFFFFFFFFFFFFFFFFFFFFF AND EQ PUSH2 0x113F JUMPI PUSH1 0x0 DUP1 REVERT JUMPDEST PUSH1 0x0 PUSH1 0x5 PUSH1 0x0 PUSH1 0x1 PUSH1 0x0 SWAP1 SLOAD SWAP1 PUSH2 0x100 EXP SWAP1 DIV PUSH20 0xFFFFFFFFFFFFFFFFFFFFFFFFFFFFFFFFFFFFFFFF AND PUSH20 0xFFFFFFFFFFFFFFFFFFFFFFFFFFFFFFFFFFFFFFFF AND PUSH20 0xFFFFFFFFFFFFFFFFFFFFFFFFFFFFFFFFFFFFFFFF AND DUP2 MSTORE PUSH1 0x20 ADD SWAP1 DUP2 MSTORE PUSH1 0x20 ADD PUSH1 0x0 KECCAK256 DUP2 SWAP1 SSTORE POP DUP1 PUSH1 0x1 PUSH1 0x0 PUSH2 0x100 EXP DUP2 SLOAD DUP2 PUSH20 0xFFFFFFFFFFFFFFFFFFFFFFFFFFFFFFFFFFFFFFFF MUL NOT AND SWAP1 DUP4 PUSH20 0xFFFFFFFFFFFFFFFFFFFFFFFFFFFFFFFFFFFFFFFF AND MUL OR SWAP1 SSTORE POP PUSH1 0x1 PUSH1 0x5 PUSH1 0x0 DUP4 PUSH20 0xFFFFFFFFFFFFFFFFFFFFFFFFFFFFFFFFFFFFFFFF AND PUSH20 0xFFFFFFFFFFFFFFFFFFFFFFFFFFFFFFFFFFFFFFFF AND DUP2 MSTORE PUSH1 0x20 ADD SWAP1 DUP2 MSTORE PUSH1 0x20 ADD PUSH1 0x0 KECCAK256 DUP2 SWAP1 SSTORE POP POP JUMP JUMPDEST PUSH32 0x0 PUSH20 0xFFFFFFFFFFFFFFFFFFFFFFFFFFFFFFFFFFFFFFFF AND CALLER PUSH20 0xFFFFFFFFFFFFFFFFFFFFFFFFFFFFFFFFFFFFFFFF AND EQ PUSH2 0x1287 JUMPI PUSH1 0x0 DUP1 REVERT JUMPDEST PUSH1 0x0 PUSH1 0x3 PUSH1 0x0 SWAP1 SLOAD SWAP1 PUSH2 0x100 EXP SWAP1 DIV PUSH20 0xFFFFFFFFFFFFFFFFFFFFFFFFFFFFFFFFFFFFFFFF AND SWAP1 POP DUP1 PUSH20 0xFFFFFFFFFFFFFFFFFFFFFFFFFFFFFFFFFFFFFFFF AND CALLER PUSH20 0xFFFFFFFFFFFFFFFFFFFFFFFFFFFFFFFFFFFFFFFF AND EQ PUSH2 0x12E6 JUMPI PUSH1 0x0 DUP1 REVERT JUMPDEST PUSH1 0x0 PUSH1 0x5 PUSH1 0x0 DUP4 PUSH20 0xFFFFFFFFFFFFFFFFFFFFFFFFFFFFFFFFFFFFFFFF AND PUSH20 0xFFFFFFFFFFFFFFFFFFFFFFFFFFFFFFFFFFFFFFFF AND DUP2 MSTORE PUSH1 0x20 ADD SWAP1 DUP2 MSTORE PUSH1 0x20 ADD PUSH1 0x0 KECCAK256 DUP2 SWAP1 SSTORE POP DUP2 PUSH1 0x3 PUSH1 0x0 PUSH2 0x100 EXP DUP2 SLOAD DUP2 PUSH20 0xFFFFFFFFFFFFFFFFFFFFFFFFFFFFFFFFFFFFFFFF MUL NOT AND SWAP1 DUP4 PUSH20 0xFFFFFFFFFFFFFFFFFFFFFFFFFFFFFFFFFFFFFFFF AND MUL OR SWAP1 SSTORE POP PUSH1 0x1 PUSH1 0x5 PUSH1 0x0 DUP5 PUSH20 0xFFFFFFFFFFFFFFFFFFFFFFFFFFFFFFFFFFFFFFFF AND PUSH20 0xFFFFFFFFFFFFFFFFFFFFFFFFFFFFFFFFFFFFFFFF AND DUP2 MSTORE PUSH1 0x20 ADD SWAP1 DUP2 MSTORE PUSH1 0x20 ADD PUSH1 0x0 KECCAK256 DUP2 SWAP1 SSTORE POP POP POP JUMP JUMPDEST PUSH1 0x2 PUSH1 0x0 SWAP1 SLOAD SWAP1 PUSH2 0x100 EXP SWAP1 DIV PUSH20 0xFFFFFFFFFFFFFFFFFFFFFFFFFFFFFFFFFFFFFFFF AND DUP2 JUMP JUMPDEST PUSH1 0x3 PUSH1 0x0 SWAP1 SLOAD SWAP1 PUSH2 0x100 EXP SWAP1 DIV PUSH20 0xFFFFFFFFFFFFFFFFFFFFFFFFFFFFFFFFFFFFFFFF AND DUP2 JUMP JUMPDEST PUSH1 0x5 PUSH1 0x20 MSTORE DUP1 PUSH1 0x0 MSTORE PUSH1 0x40 PUSH1 0x0 KECCAK256 PUSH1 0x0 SWAP2 POP SWAP1 POP SLOAD DUP2 JUMP JUMPDEST PUSH1 0x4 PUSH1 0x0 SWAP1 SLOAD SWAP1 PUSH2 0x100 EXP SWAP1 DIV PUSH20 0xFFFFFFFFFFFFFFFFFFFFFFFFFFFFFFFFFFFFFFFF AND DUP2 JUMP JUMPDEST PUSH1 0x0 PUSH1 0x40 MLOAD SWAP1 POP SWAP1 JUMP JUMPDEST PUSH1 0x0 DUP1 REVERT JUMPDEST PUSH1 0x0 DUP1 REVERT JUMPDEST PUSH1 0x0 PUSH20 0xFFFFFFFFFFFFFFFFFFFFFFFFFFFFFFFFFFFFFFFF DUP3 AND SWAP1 POP SWAP2 SWAP1 POP JUMP JUMPDEST PUSH1 0x0 PUSH2 0x147E DUP3 PUSH2 0x1453 JUMP JUMPDEST SWAP1 POP SWAP2 SWAP1 POP JUMP JUMPDEST PUSH2 0x148E DUP2 PUSH2 0x1473 JUMP JUMPDEST DUP2 EQ PUSH2 0x1499 JUMPI PUSH1 0x0 DUP1 REVERT JUMPDEST POP JUMP JUMPDEST PUSH1 0x0 DUP2 CALLDATALOAD SWAP1 POP PUSH2 0x14AB DUP2 PUSH2 0x1485 JUMP JUMPDEST SWAP3 SWAP2 POP POP JUMP JUMPDEST PUSH1 0x0 PUSH1 0x20 DUP3 DUP5 SUB SLT ISZERO PUSH2 0x14C7 JUMPI PUSH2 0x14C6 PUSH2 0x1449 JUMP JUMPDEST JUMPDEST PUSH1 0x0 PUSH2 0x14D5 DUP5 DUP3 DUP6 ADD PUSH2 0x149C JUMP JUMPDEST SWAP2 POP POP SWAP3 SWAP2 POP POP JUMP JUMPDEST PUSH2 0x14E7 DUP2 PUSH2 0x1473 JUMP JUMPDEST DUP3 MSTORE POP POP JUMP JUMPDEST PUSH1 0x0 PUSH1 0x20 DUP3 ADD SWAP1 POP PUSH2 0x1502 PUSH1 0x0 DUP4 ADD DUP5 PUSH2 0x14DE JUMP JUMPDEST SWAP3 SWAP2 POP POP JUMP JUMPDEST PUSH1 0x0 DUP1 PUSH1 0x0 DUP1 PUSH1 0x0 PUSH1 0xA0 DUP7 DUP9 SUB SLT ISZERO PUSH2 0x1524 JUMPI PUSH2 0x1523 PUSH2 0x1449 JUMP JUMPDEST JUMPDEST PUSH1 0x0 PUSH2 0x1532 DUP9 DUP3 DUP10 ADD PUSH2 0x149C JUMP JUMPDEST SWAP6 POP POP PUSH1 0x20 PUSH2 0x1543 DUP9 DUP3 DUP10 ADD PUSH2 0x149C JUMP JUMPDEST SWAP5 POP POP PUSH1 0x40 PUSH2 0x1554 DUP9 DUP3 DUP10 ADD PUSH2 0x149C JUMP JUMPDEST SWAP4 POP POP PUSH1 0x60 PUSH2 0x1565 DUP9 DUP3 DUP10 ADD PUSH2 0x149C JUMP JUMPDEST SWAP3 POP POP PUSH1 0x80 PUSH2 0x1576 DUP9 DUP3 DUP10 ADD PUSH2 0x149C JUMP JUMPDEST SWAP2 POP POP SWAP3 SWAP6 POP SWAP3 SWAP6 SWAP1 SWAP4 POP JUMP JUMPDEST PUSH1 0x0 DUP1 REVERT JUMPDEST PUSH1 0x0 DUP1 REVERT JUMPDEST PUSH1 0x0 DUP1 REVERT JUMPDEST PUSH1 0x0 DUP1 DUP4 PUSH1 0x1F DUP5 ADD SLT PUSH2 0x15A8 JUMPI PUSH2 0x15A7 PUSH2 0x1583 JUMP JUMPDEST JUMPDEST DUP3 CALLDATALOAD SWAP1 POP PUSH8 0xFFFFFFFFFFFFFFFF DUP2 GT ISZERO PUSH2 0x15C5 JUMPI PUSH2 0x15C4 PUSH2 0x1588 JUMP JUMPDEST JUMPDEST PUSH1 0x20 DUP4 ADD SWAP2 POP DUP4 PUSH1 0x20 DUP3 MUL DUP4 ADD GT ISZERO PUSH2 0x15E1 JUMPI PUSH2 0x15E0 PUSH2 0x158D JUMP JUMPDEST JUMPDEST SWAP3 POP SWAP3 SWAP1 POP JUMP JUMPDEST PUSH1 0x0 DUP1 DUP4 PUSH1 0x1F DUP5 ADD SLT PUSH2 0x15FE JUMPI PUSH2 0x15FD PUSH2 0x1583 JUMP JUMPDEST JUMPDEST DUP3 CALLDATALOAD SWAP1 POP PUSH8 0xFFFFFFFFFFFFFFFF DUP2 GT ISZERO PUSH2 0x161B JUMPI PUSH2 0x161A PUSH2 0x1588 JUMP JUMPDEST JUMPDEST PUSH1 0x20 DUP4 ADD SWAP2 POP DUP4 PUSH1 0x20 DUP3 MUL DUP4 ADD GT ISZERO PUSH2 0x1637 JUMPI PUSH2 0x1636 PUSH2 0x158D JUMP JUMPDEST JUMPDEST SWAP3 POP SWAP3 SWAP1 POP JUMP JUMPDEST PUSH1 0x0 DUP1 PUSH1 0x0 DUP1 PUSH1 0x40 DUP6 DUP8 SUB SLT ISZERO PUSH2 0x1658 JUMPI PUSH2 0x1657 PUSH2 0x1449 JUMP JUMPDEST JUMPDEST PUSH1 0x0 DUP6 ADD CALLDATALOAD PUSH8 0xFFFFFFFFFFFFFFFF DUP2 GT ISZERO PUSH2 0x1676 JUMPI PUSH2 0x1675 PUSH2 0x144E JUMP JUMPDEST JUMPDEST PUSH2 0x1682 DUP8 DUP3 DUP9 ADD PUSH2 0x1592 JUMP JUMPDEST SWAP5 POP SWAP5 POP POP PUSH1 0x20 DUP6 ADD CALLDATALOAD PUSH8 0xFFFFFFFFFFFFFFFF DUP2 GT ISZERO PUSH2 0x16A5 JUMPI PUSH2 0x16A4 PUSH2 0x144E JUMP JUMPDEST JUMPDEST PUSH2 0x16B1 DUP8 DUP3 DUP9 ADD PUSH2 0x15E8 JUMP JUMPDEST SWAP3 POP SWAP3 POP POP SWAP3 SWAP6 SWAP2 SWAP5 POP SWAP3 POP JUMP JUMPDEST PUSH1 0x0 DUP2 MLOAD SWAP1 POP SWAP2 SWAP1 POP JUMP JUMPDEST PUSH1 0x0 DUP3 DUP3 MSTORE PUSH1 0x20 DUP3 ADD SWAP1 POP SWAP3 SWAP2 POP POP JUMP JUMPDEST PUSH1 0x0 DUP2 SWAP1 POP PUSH1 0x20 DUP3 ADD SWAP1 POP SWAP2 SWAP1 POP JUMP JUMPDEST PUSH1 0x0 DUP2 MLOAD SWAP1 POP SWAP2 SWAP1 POP JUMP JUMPDEST PUSH1 0x0 DUP3 DUP3 MSTORE PUSH1 0x20 DUP3 ADD SWAP1 POP SWAP3 SWAP2 POP POP JUMP JUMPDEST PUSH1 0x0 JUMPDEST DUP4 DUP2 LT ISZERO PUSH2 0x1725 JUMPI DUP1 DUP3 ADD MLOAD DUP2 DUP5 ADD MSTORE PUSH1 0x20 DUP2 ADD SWAP1 POP PUSH2 0x170A JUMP JUMPDEST DUP4 DUP2 GT ISZERO PUSH2 0x1734 JUMPI PUSH1 0x0 DUP5 DUP5 ADD MSTORE JUMPDEST POP POP POP POP JUMP JUMPDEST PUSH1 0x0 PUSH1 0x1F NOT PUSH1 0x1F DUP4 ADD AND SWAP1 POP SWAP2 SWAP1 POP JUMP JUMPDEST PUSH1 0x0 PUSH2 0x1756 DUP3 PUSH2 0x16EB JUMP JUMPDEST PUSH2 0x1760 DUP2 DUP6 PUSH2 0x16F6 JUMP JUMPDEST SWAP4 POP PUSH2 0x1770 DUP2 DUP6 PUSH1 0x20 DUP7 ADD PUSH2 0x1707 JUMP JUMPDEST PUSH2 0x1779 DUP2 PUSH2 0x173A JUMP JUMPDEST DUP5 ADD SWAP2 POP POP SWAP3 SWAP2 POP POP JUMP JUMPDEST PUSH1 0x0 PUSH2 0x1790 DUP4 DUP4 PUSH2 0x174B JUMP JUMPDEST SWAP1 POP SWAP3 SWAP2 POP POP JUMP JUMPDEST PUSH1 0x0 PUSH1 0x20 DUP3 ADD SWAP1 POP SWAP2 SWAP1 POP JUMP JUMPDEST PUSH1 0x0 PUSH2 0x17B0 DUP3 PUSH2 0x16BF JUMP JUMPDEST PUSH2 0x17BA DUP2 DUP6 PUSH2 0x16CA JUMP JUMPDEST SWAP4 POP DUP4 PUSH1 0x20 DUP3 MUL DUP6 ADD PUSH2 0x17CC DUP6 PUSH2 0x16DB JUMP JUMPDEST DUP1 PUSH1 0x0 JUMPDEST DUP6 DUP2 LT ISZERO PUSH2 0x1808 JUMPI DUP5 DUP5 SUB DUP10 MSTORE DUP2 MLOAD PUSH2 0x17E9 DUP6 DUP3 PUSH2 0x1784 JUMP JUMPDEST SWAP5 POP PUSH2 0x17F4 DUP4 PUSH2 0x1798 JUMP JUMPDEST SWAP3 POP PUSH1 0x20 DUP11 ADD SWAP10 POP POP PUSH1 0x1 DUP2 ADD SWAP1 POP PUSH2 0x17D0 JUMP JUMPDEST POP DUP3 SWAP8 POP DUP8 SWAP6 POP POP POP POP POP POP SWAP3 SWAP2 POP POP JUMP JUMPDEST PUSH1 0x0 PUSH1 0x20 DUP3 ADD SWAP1 POP DUP2 DUP2 SUB PUSH1 0x0 DUP4 ADD MSTORE PUSH2 0x1834 DUP2 DUP5 PUSH2 0x17A5 JUMP JUMPDEST SWAP1 POP SWAP3 SWAP2 POP POP JUMP JUMPDEST PUSH1 0x0 DUP2 SWAP1 POP SWAP2 SWAP1 POP JUMP JUMPDEST PUSH2 0x184F DUP2 PUSH2 0x183C JUMP JUMPDEST DUP3 MSTORE POP POP JUMP JUMPDEST PUSH1 0x0 PUSH1 0x20 DUP3 ADD SWAP1 POP PUSH2 0x186A PUSH1 0x0 DUP4 ADD DUP5 PUSH2 0x1846 JUMP JUMPDEST SWAP3 SWAP2 POP POP JUMP JUMPDEST PUSH1 0x0 PUSH1 0xA0 DUP3 ADD SWAP1 POP PUSH2 0x1885 PUSH1 0x0 DUP4 ADD DUP9 PUSH2 0x14DE JUMP JUMPDEST PUSH2 0x1892 PUSH1 0x20 DUP4 ADD DUP8 PUSH2 0x14DE JUMP JUMPDEST PUSH2 0x189F PUSH1 0x40 DUP4 ADD DUP7 PUSH2 0x14DE JUMP JUMPDEST PUSH2 0x18AC PUSH1 0x60 DUP4 ADD DUP6 PUSH2 0x14DE JUMP JUMPDEST PUSH2 0x18B9 PUSH1 0x80 DUP4 ADD DUP5 PUSH2 0x14DE JUMP JUMPDEST SWAP7 SWAP6 POP POP POP POP POP POP JUMP JUMPDEST PUSH1 0x0 DUP2 SWAP1 POP SWAP3 SWAP2 POP POP JUMP JUMPDEST PUSH1 0x0 PUSH2 0x18D9 DUP3 PUSH2 0x16EB JUMP JUMPDEST PUSH2 0x18E3 DUP2 DUP6 PUSH2 0x18C3 JUMP JUMPDEST SWAP4 POP PUSH2 0x18F3 DUP2 DUP6 PUSH1 0x20 DUP7 ADD PUSH2 0x1707 JUMP JUMPDEST DUP1 DUP5 ADD SWAP2 POP POP SWAP3 SWAP2 POP POP JUMP JUMPDEST PUSH1 0x0 PUSH2 0x190B DUP3 DUP5 PUSH2 0x18CE JUMP JUMPDEST SWAP2 POP DUP2 SWAP1 POP SWAP3 SWAP2 POP POP JUMP JUMPDEST PUSH32 0x4E487B7100000000000000000000000000000000000000000000000000000000 PUSH1 0x0 MSTORE PUSH1 0x32 PUSH1 0x4 MSTORE PUSH1 0x24 PUSH1 0x0 REVERT JUMPDEST PUSH32 0x4E487B7100000000000000000000000000000000000000000000000000000000 PUSH1 0x0 MSTORE PUSH1 0x11 PUSH1 0x4 MSTORE PUSH1 0x24 PUSH1 0x0 REVERT JUMPDEST PUSH1 0x0 PUSH2 0x197F DUP3 PUSH2 0x183C JUMP JUMPDEST SWAP2 POP PUSH32 0xFFFFFFFFFFFFFFFFFFFFFFFFFFFFFFFFFFFFFFFFFFFFFFFFFFFFFFFFFFFFFFFF DUP3 SUB PUSH2 0x19B1 JUMPI PUSH2 0x19B0 PUSH2 0x1945 JUMP JUMPDEST JUMPDEST PUSH1 0x1 DUP3 ADD SWAP1 POP SWAP2 SWAP1 POP JUMP JUMPDEST PUSH32 0x4E487B7100000000000000000000000000000000000000000000000000000000 PUSH1 0x0 MSTORE PUSH1 0x41 PUSH1 0x4 MSTORE PUSH1 0x24 PUSH1 0x0 REVERT JUMPDEST PUSH1 0x0 DUP1 REVERT JUMPDEST PUSH1 0x0 DUP1 REVERT JUMPDEST PUSH1 0x0 DUP1 REVERT JUMPDEST PUSH1 0x0 DUP1 DUP4 CALLDATALOAD PUSH1 0x1 PUSH1 0x20 SUB DUP5 CALLDATASIZE SUB SUB DUP2 SLT PUSH2 0x1A17 JUMPI PUSH2 0x1A16 PUSH2 0x19EB JUMP JUMPDEST JUMPDEST DUP1 DUP5 ADD SWAP3 POP DUP3 CALLDATALOAD SWAP2 POP PUSH8 0xFFFFFFFFFFFFFFFF DUP3 GT ISZERO PUSH2 0x1A39 JUMPI PUSH2 0x1A38 PUSH2 0x19F0 JUMP JUMPDEST JUMPDEST PUSH1 0x20 DUP4 ADD SWAP3 POP PUSH1 0x1 DUP3 MUL CALLDATASIZE SUB DUP4 SGT ISZERO PUSH2 0x1A55 JUMPI PUSH2 0x1A54 PUSH2 0x19F5 JUMP JUMPDEST JUMPDEST POP SWAP3 POP SWAP3 SWAP1 POP JUMP JUMPDEST DUP3 DUP2 DUP4 CALLDATACOPY PUSH1 0x0 DUP4 DUP4 ADD MSTORE POP POP POP JUMP JUMPDEST PUSH1 0x0 PUSH2 0x1A78 DUP4 DUP6 PUSH2 0x18C3 JUMP JUMPDEST SWAP4 POP PUSH2 0x1A85 DUP4 DUP6 DUP5 PUSH2 0x1A5D JUMP JUMPDEST DUP3 DUP5 ADD SWAP1 POP SWAP4 SWAP3 POP POP POP JUMP JUMPDEST PUSH1 0x0 PUSH2 0x1A9E DUP3 DUP5 DUP7 PUSH2 0x1A6C JUMP JUMPDEST SWAP2 POP DUP2 SWAP1 POP SWAP4 SWAP3 POP POP POP JUMP JUMPDEST PUSH1 0x0 DUP1 REVERT JUMPDEST PUSH2 0x1AB8 DUP3 PUSH2 0x173A JUMP JUMPDEST DUP2 ADD DUP2 DUP2 LT PUSH8 0xFFFFFFFFFFFFFFFF DUP3 GT OR ISZERO PUSH2 0x1AD7 JUMPI PUSH2 0x1AD6 PUSH2 0x19BC JUMP JUMPDEST JUMPDEST DUP1 PUSH1 0x40 MSTORE POP POP POP JUMP JUMPDEST PUSH1 0x0 PUSH2 0x1AEA PUSH2 0x143F JUMP JUMPDEST SWAP1 POP PUSH2 0x1AF6 DUP3 DUP3 PUSH2 0x1AAF JUMP JUMPDEST SWAP2 SWAP1 POP JUMP JUMPDEST PUSH1 0x0 PUSH8 0xFFFFFFFFFFFFFFFF DUP3 GT ISZERO PUSH2 0x1B16 JUMPI PUSH2 0x1B15 PUSH2 0x19BC JUMP JUMPDEST JUMPDEST PUSH2 0x1B1F DUP3 PUSH2 0x173A JUMP JUMPDEST SWAP1 POP PUSH1 0x20 DUP2 ADD SWAP1 POP SWAP2 SWAP1 POP JUMP JUMPDEST PUSH1 0x0 PUSH2 0x1B3F PUSH2 0x1B3A DUP5 PUSH2 0x1AFB JUMP JUMPDEST PUSH2 0x1AE0 JUMP JUMPDEST SWAP1 POP DUP3 DUP2 MSTORE PUSH1 0x20 DUP2 ADD DUP5 DUP5 DUP5 ADD GT ISZERO PUSH2 0x1B5B JUMPI PUSH2 0x1B5A PUSH2 0x1AAA JUMP JUMPDEST JUMPDEST PUSH2 0x1B66 DUP5 DUP3 DUP6 PUSH2 0x1707 JUMP JUMPDEST POP SWAP4 SWAP3 POP POP POP JUMP JUMPDEST PUSH1 0x0 DUP3 PUSH1 0x1F DUP4 ADD SLT PUSH2 0x1B83 JUMPI PUSH2 0x1B82 PUSH2 0x1583 JUMP JUMPDEST JUMPDEST DUP2 MLOAD PUSH2 0x1B93 DUP5 DUP3 PUSH1 0x20 DUP7 ADD PUSH2 0x1B2C JUMP JUMPDEST SWAP2 POP POP SWAP3 SWAP2 POP POP JUMP JUMPDEST PUSH1 0x0 PUSH1 0x20 DUP3 DUP5 SUB SLT ISZERO PUSH2 0x1BB2 JUMPI PUSH2 0x1BB1 PUSH2 0x1449 JUMP JUMPDEST JUMPDEST PUSH1 0x0 DUP3 ADD MLOAD PUSH8 0xFFFFFFFFFFFFFFFF DUP2 GT ISZERO PUSH2 0x1BD0 JUMPI PUSH2 0x1BCF PUSH2 0x144E JUMP JUMPDEST JUMPDEST PUSH2 0x1BDC DUP5 DUP3 DUP6 ADD PUSH2 0x1B6E JUMP JUMPDEST SWAP2 POP POP SWAP3 SWAP2 POP POP JUMP JUMPDEST PUSH1 0x0 DUP2 MLOAD SWAP1 POP SWAP2 SWAP1 POP JUMP JUMPDEST PUSH1 0x0 DUP3 DUP3 MSTORE PUSH1 0x20 DUP3 ADD SWAP1 POP SWAP3 SWAP2 POP POP JUMP JUMPDEST PUSH1 0x0 PUSH2 0x1C0C DUP3 PUSH2 0x1BE5 JUMP JUMPDEST PUSH2 0x1C16 DUP2 DUP6 PUSH2 0x1BF0 JUMP JUMPDEST SWAP4 POP PUSH2 0x1C26 DUP2 DUP6 PUSH1 0x20 DUP7 ADD PUSH2 0x1707 JUMP JUMPDEST PUSH2 0x1C2F DUP2 PUSH2 0x173A JUMP JUMPDEST DUP5 ADD SWAP2 POP POP SWAP3 SWAP2 POP POP JUMP JUMPDEST PUSH1 0x0 PUSH1 0x20 DUP3 ADD SWAP1 POP DUP2 DUP2 SUB PUSH1 0x0 DUP4 ADD MSTORE PUSH2 0x1C54 DUP2 DUP5 PUSH2 0x1C01 JUMP JUMPDEST SWAP1 POP SWAP3 SWAP2 POP POP JUMP INVALID LOG2 PUSH5 0x6970667358 0x22 SLT KECCAK256 NOT 0xBF GASPRICE PUSH23 0x824AD2DEF25BDC685614CF08AECC8A0277E053BB1775EF PUSH1 0x39 0xD6 0x4C 0x4D PUSH5 0x736F6C6343 STOP ADDMOD 0xE STOP CALLER "
				},
				"gasEstimates": {
					"creation": {
						"codeDepositCost": "1462800",
						"executionCost": "infinite",
						"totalCost": "infinite"
					},
					"external": {
						"": "181",
						"commissionContract()": "2536",
						"deleteContract(address)": "infinite",
						"exchangeContract()": "2578",
						"initAddrs(address,address,address,address,address)": "infinite",
						"multicall(bytes[],address[])": "infinite",
						"opsContract()": "2558",
						"setCommissionAddr(address)": "infinite",
						"setExchangeAddr(address)": "infinite",
						"setOpsAddr(address)": "infinite",
						"setStorageAddr(address)": "infinite",
						"setTokenAddr(address)": "infinite",
						"storageContract()": "2560",
						"token()": "2602",
						"trustedContracts(address)": "2880"
					}
				},
				"methodIdentifiers": {
					"commissionContract()": "da8909e5",
					"deleteContract(address)": "2637a477",
					"exchangeContract()": "3f0a0797",
					"initAddrs(address,address,address,address,address)": "1b46a447",
					"multicall(bytes[],address[])": "600e1b2b",
					"opsContract()": "dc96d689",
					"setCommissionAddr(address)": "101dfd19",
					"setExchangeAddr(address)": "8ae91695",
					"setOpsAddr(address)": "cf368a39",
					"setStorageAddr(address)": "a6fa0b7b",
					"setTokenAddr(address)": "2ebd1e28",
					"storageContract()": "11ce0267",
					"token()": "fc0c546a",
					"trustedContracts(address)": "e5919a4f"
				}
			},
			"storageLayout": {
				"storage": [
					{
						"astId": 387,
						"contract": "TFGv3/Contracts/Proxy.sol:Proxy",
						"label": "exchangeContract",
						"offset": 0,
						"slot": "0",
						"type": "t_address"
					},
					{
						"astId": 389,
						"contract": "TFGv3/Contracts/Proxy.sol:Proxy",
						"label": "storageContract",
						"offset": 0,
						"slot": "1",
						"type": "t_address"
					},
					{
						"astId": 391,
						"contract": "TFGv3/Contracts/Proxy.sol:Proxy",
						"label": "commissionContract",
						"offset": 0,
						"slot": "2",
						"type": "t_address"
					},
					{
						"astId": 393,
						"contract": "TFGv3/Contracts/Proxy.sol:Proxy",
						"label": "opsContract",
						"offset": 0,
						"slot": "3",
						"type": "t_address"
					},
					{
						"astId": 395,
						"contract": "TFGv3/Contracts/Proxy.sol:Proxy",
						"label": "token",
						"offset": 0,
						"slot": "4",
						"type": "t_address"
					},
					{
						"astId": 399,
						"contract": "TFGv3/Contracts/Proxy.sol:Proxy",
						"label": "trustedContracts",
						"offset": 0,
						"slot": "5",
						"type": "t_mapping(t_address,t_uint256)"
					}
				],
				"types": {
					"t_address": {
						"encoding": "inplace",
						"label": "address",
						"numberOfBytes": "20"
					},
					"t_mapping(t_address,t_uint256)": {
						"encoding": "mapping",
						"key": "t_address",
						"label": "mapping(address => uint256)",
						"numberOfBytes": "32",
						"value": "t_uint256"
					},
					"t_uint256": {
						"encoding": "inplace",
						"label": "uint256",
						"numberOfBytes": "32"
					}
				}
			},
			"userdoc": {
				"kind": "user",
				"methods": {},
				"version": 1
			}
		}
	}
}