{
	"data": {
		"bytecode": {
			"linkReferences": {},
			"object": "60a060405234801561001057600080fd5b5033608052600060055560805161117861005f6000396000818161028b0152818161052f01528181610564015281816105f8015281816106320152818161089d01526108c901526111786000f3fe6080604052600436106100d65760003560e01c80637f8483a41161007f578063d0b06f5d11610059578063d0b06f5d146101fc578063ec55688914610212578063fc6937861461024a578063fed0a20e1461026a57600080fd5b80637f8483a4146101a65780639e955149146101bc578063bdedd45e146101dc57600080fd5b8063674eb5ac116100b0578063674eb5ac146101505780636c8ae38c1461017057806375450f1b1461018657600080fd5b806313ab7042146100e55780631d69b1961461010e578063377996611461013057600080fd5b366100e057600080fd5b600080fd5b3480156100f157600080fd5b506100fb60035481565b6040519081526020015b60405180910390f35b34801561011a57600080fd5b5061012e610129366004610d65565b610280565b005b34801561013c57600080fd5b5061012e61014b366004610de8565b610559565b34801561015c57600080fd5b5061012e61016b366004610e2c565b6105ed565b34801561017c57600080fd5b506100fb60045481565b34801561019257600080fd5b5061012e6101a1366004610e2c565b610627565b3480156101b257600080fd5b506100fb60025481565b3480156101c857600080fd5b5061012e6101d7366004610e45565b610661565b3480156101e857600080fd5b506100fb6101f7366004610e2c565b6106b2565b34801561020857600080fd5b506100fb60015481565b34801561021e57600080fd5b50600054610232906001600160a01b031681565b6040516001600160a01b039091168152602001610105565b34801561025657600080fd5b5061012e610265366004610e69565b610892565b34801561027657600080fd5b506100fb60055481565b336001600160a01b037f000000000000000000000000000000000000000000000000000000000000000016146102b557600080fd5b6000546040517f101dfd190000000000000000000000000000000000000000000000000000000081526001600160a01b03878116600483015290911690819063101dfd1990602401600060405180830381600087803b15801561031757600080fd5b505af115801561032b573d6000803e3d6000fd5b50506001546002546003546004546040516001600160a01b03888116602483015260448201959095526064810193909352608483019190915260a4820152908916925060c4019050604080517fffffffffffffffffffffffffffffffffffffffffffffffffffffffffffffffe08184030181529181526020820180517bffffffffffffffffffffffffffffffffffffffffffffffffffffffff167f941ac60700000000000000000000000000000000000000000000000000000000179052516103f49190610ed5565b600060405180830381855af49150503d806000811461042f576040519150601f19603f3d011682016040523d82523d6000602084013e610434565b606091505b505060006001819055600281905560038190556004819055604051909250309150610469908790879087908790602401610f10565b604080517fffffffffffffffffffffffffffffffffffffffffffffffffffffffffffffffe08184030181529181526020820180517bffffffffffffffffffffffffffffffffffffffffffffffffffffffff167f4abcc5d500000000000000000000000000000000000000000000000000000000179052516104ea9190610ed5565b600060405180830381855af49150503d8060008114610525576040519150601f19603f3d011682016040523d82523d6000602084013e61052a565b606091505b5050507f00000000000000000000000000000000000000000000000000000000000000006001600160a01b0316ff5b336001600160a01b037f0000000000000000000000000000000000000000000000000000000000000000161461058e57600080fd5b6005541561059b57600080fd5b600080547fffffffffffffffffffffffff0000000000000000000000000000000000000000166001600160a01b0396909616959095179094556001928355600291909155600355600491909155600555565b336001600160a01b037f0000000000000000000000000000000000000000000000000000000000000000161461062257600080fd5b600455565b336001600160a01b037f0000000000000000000000000000000000000000000000000000000000000000161461065c57600080fd5b600355565b6000546001600160a01b0316331461067857600080fd5b600080547fffffffffffffffffffffffff0000000000000000000000000000000000000000166001600160a01b0392909216919091179055565b60008054604080517f3f0a079700000000000000000000000000000000000000000000000000000000815290516001600160a01b039092169133918391633f0a0797916004808201926020929091908290030181865afa15801561071a573d6000803e3d6000fd5b505050506040513d601f19601f8201168201806040525081019061073e9190610fad565b6001600160a01b03161461075157600080fd5b600061075b6109e6565b90508360000361077f57806002546107739190610ff9565b6002819055925061088b565b8360010361088b576002546107949082610ff9565b9250816001600160a01b031663da8909e56040518163ffffffff1660e01b8152600401602060405180830381865afa1580156107d4573d6000803e3d6000fd5b505050506040513d601f19601f820116820180604052508101906107f89190610fad565b6040517f990dc9db000000000000000000000000000000000000000000000000000000008152306004820152602481018590526001600160a01b03919091169063990dc9db906044016020604051808303816000875af1158015610860573d6000803e3d6000fd5b505050506040513d601f19601f820116820180604052508101906108849190611011565b5060006002555b5050919050565b336001600160a01b037f000000000000000000000000000000000000000000000000000000000000000016146108c757600080fd5b7f000000000000000000000000000000000000000000000000000000000000000060005b828110156109de5785858281811061090557610905611033565b905060200201602081019061091a9190610e45565b6001600160a01b031663a9059cbb8386868581811061093b5761093b611033565b6040517fffffffff0000000000000000000000000000000000000000000000000000000060e087901b1681526001600160a01b03909416600485015260200291909101356024830152506044016020604051808303816000875af11580156109a7573d6000803e3d6000fd5b505050506040513d601f19601f820116820180604052508101906109cb9190611011565b50806109d681611062565b9150506108eb565b505050505050565b60015460009081904281036109fe5760009250505090565b6000610a0a824261109a565b90506000600454905060008054906101000a90046001600160a01b03166001600160a01b03166311ce02676040518163ffffffff1660e01b8152600401602060405180830381865afa158015610a64573d6000803e3d6000fd5b505050506040513d601f19601f82011682018060405250810190610a889190610fad565b93506000846001600160a01b03166352fd856b6040518163ffffffff1660e01b8152600401602060405180830381865afa158015610aca573d6000803e3d6000fd5b505050506040513d601f19601f82011682018060405250810190610aee91906110b1565b90506018670de0b6b3a764000083818181818181610b0d60038d61109a565b610b1860028e61109a565b610b2360018f61109a565b610b2d8f8e6110ca565b610b3791906110ca565b610b4191906110ca565b610b4b91906110ca565b610b5591906110ca565b610b5f9190611107565b610b6991906110ca565b610b739190611107565b610b7d91906110ca565b610b879190611107565b610b9191906110ca565b610b9b9190611107565b610ba59190611107565b6ec097ce7bc90715b34b9f1000000000600684670de0b6b3a76400008180610bce60028b61109a565b610bd960018c61109a565b610be3908c6110ca565b610bed91906110ca565b610bf791906110ca565b610c0191906110ca565b610c0b9190611107565b610c1591906110ca565b610c1f9190611107565b610c2990846110ca565b610c339190611107565b6ec097ce7bc90715b34b9f100000000060028580610c5260018a61109a565b610c5c908a6110ca565b610c6691906110ca565b610c7091906110ca565b610c7a9190611107565b610c8490856110ca565b610c8e9190611107565b670de0b6b3a7640000610ca186886110ca565b610cb390670de0b6b3a764000061109a565b610cc590670de0b6b3a764000061109a565b610ccf90866110ca565b610cd99190611107565b610ce3919061109a565b610ced9190610ff9565b610cf7919061109a565b9550505050505090565b6001600160a01b0381168114610d1657600080fd5b50565b60008083601f840112610d2b57600080fd5b50813567ffffffffffffffff811115610d4357600080fd5b6020830191508360208260051b8501011115610d5e57600080fd5b9250929050565b600080600080600060608688031215610d7d57600080fd5b8535610d8881610d01565b9450602086013567ffffffffffffffff80821115610da557600080fd5b610db189838a01610d19565b90965094506040880135915080821115610dca57600080fd5b50610dd788828901610d19565b969995985093965092949392505050565b600080600080600060a08688031215610e0057600080fd5b8535610e0b81610d01565b97602087013597506040870135966060810135965060800135945092505050565b600060208284031215610e3e57600080fd5b5035919050565b600060208284031215610e5757600080fd5b8135610e6281610d01565b9392505050565b60008060008060408587031215610e7f57600080fd5b843567ffffffffffffffff80821115610e9757600080fd5b610ea388838901610d19565b90965094506020870135915080821115610ebc57600080fd5b50610ec987828801610d19565b95989497509550505050565b6000825160005b81811015610ef65760208186018101518583015201610edc565b81811115610f05576000828501525b509190910192915050565b6040808252810184905260008560608301825b87811015610f53578235610f3681610d01565b6001600160a01b0316825260209283019290910190600101610f23565b5083810360208501528481527f07ffffffffffffffffffffffffffffffffffffffffffffffffffffffffffffff851115610f8c57600080fd5b8460051b915081866020830137600091016020019081529695505050505050565b600060208284031215610fbf57600080fd5b8151610e6281610d01565b7f4e487b7100000000000000000000000000000000000000000000000000000000600052601160045260246000fd5b6000821982111561100c5761100c610fca565b500190565b60006020828403121561102357600080fd5b81518015158114610e6257600080fd5b7f4e487b7100000000000000000000000000000000000000000000000000000000600052603260045260246000fd5b60007fffffffffffffffffffffffffffffffffffffffffffffffffffffffffffffffff820361109357611093610fca565b5060010190565b6000828210156110ac576110ac610fca565b500390565b6000602082840312156110c357600080fd5b5051919050565b6000817fffffffffffffffffffffffffffffffffffffffffffffffffffffffffffffffff048311821515161561110257611102610fca565b500290565b60008261113d577f4e487b7100000000000000000000000000000000000000000000000000000000600052601260045260246000fd5b50049056fea2646970667358221220961c050f543aae95a74ca5d1f253e56e1c358812b49d2cf43c85b0842c55445964736f6c634300080e0033",
			"opcodes": "PUSH1 0xA0 PUSH1 0x40 MSTORE CALLVALUE DUP1 ISZERO PUSH2 0x10 JUMPI PUSH1 0x0 DUP1 REVERT JUMPDEST POP CALLER PUSH1 0x80 MSTORE PUSH1 0x0 PUSH1 0x5 SSTORE PUSH1 0x80 MLOAD PUSH2 0x1178 PUSH2 0x5F PUSH1 0x0 CODECOPY PUSH1 0x0 DUP2 DUP2 PUSH2 0x28B ADD MSTORE DUP2 DUP2 PUSH2 0x52F ADD MSTORE DUP2 DUP2 PUSH2 0x564 ADD MSTORE DUP2 DUP2 PUSH2 0x5F8 ADD MSTORE DUP2 DUP2 PUSH2 0x632 ADD MSTORE DUP2 DUP2 PUSH2 0x89D ADD MSTORE PUSH2 0x8C9 ADD MSTORE PUSH2 0x1178 PUSH1 0x0 RETURN INVALID PUSH1 0x80 PUSH1 0x40 MSTORE PUSH1 0x4 CALLDATASIZE LT PUSH2 0xD6 JUMPI PUSH1 0x0 CALLDATALOAD PUSH1 0xE0 SHR DUP1 PUSH4 0x7F8483A4 GT PUSH2 0x7F JUMPI DUP1 PUSH4 0xD0B06F5D GT PUSH2 0x59 JUMPI DUP1 PUSH4 0xD0B06F5D EQ PUSH2 0x1FC JUMPI DUP1 PUSH4 0xEC556889 EQ PUSH2 0x212 JUMPI DUP1 PUSH4 0xFC693786 EQ PUSH2 0x24A JUMPI DUP1 PUSH4 0xFED0A20E EQ PUSH2 0x26A JUMPI PUSH1 0x0 DUP1 REVERT JUMPDEST DUP1 PUSH4 0x7F8483A4 EQ PUSH2 0x1A6 JUMPI DUP1 PUSH4 0x9E955149 EQ PUSH2 0x1BC JUMPI DUP1 PUSH4 0xBDEDD45E EQ PUSH2 0x1DC JUMPI PUSH1 0x0 DUP1 REVERT JUMPDEST DUP1 PUSH4 0x674EB5AC GT PUSH2 0xB0 JUMPI DUP1 PUSH4 0x674EB5AC EQ PUSH2 0x150 JUMPI DUP1 PUSH4 0x6C8AE38C EQ PUSH2 0x170 JUMPI DUP1 PUSH4 0x75450F1B EQ PUSH2 0x186 JUMPI PUSH1 0x0 DUP1 REVERT JUMPDEST DUP1 PUSH4 0x13AB7042 EQ PUSH2 0xE5 JUMPI DUP1 PUSH4 0x1D69B196 EQ PUSH2 0x10E JUMPI DUP1 PUSH4 0x37799661 EQ PUSH2 0x130 JUMPI PUSH1 0x0 DUP1 REVERT JUMPDEST CALLDATASIZE PUSH2 0xE0 JUMPI PUSH1 0x0 DUP1 REVERT JUMPDEST PUSH1 0x0 DUP1 REVERT JUMPDEST CALLVALUE DUP1 ISZERO PUSH2 0xF1 JUMPI PUSH1 0x0 DUP1 REVERT JUMPDEST POP PUSH2 0xFB PUSH1 0x3 SLOAD DUP2 JUMP JUMPDEST PUSH1 0x40 MLOAD SWAP1 DUP2 MSTORE PUSH1 0x20 ADD JUMPDEST PUSH1 0x40 MLOAD DUP1 SWAP2 SUB SWAP1 RETURN JUMPDEST CALLVALUE DUP1 ISZERO PUSH2 0x11A JUMPI PUSH1 0x0 DUP1 REVERT JUMPDEST POP PUSH2 0x12E PUSH2 0x129 CALLDATASIZE PUSH1 0x4 PUSH2 0xD65 JUMP JUMPDEST PUSH2 0x280 JUMP JUMPDEST STOP JUMPDEST CALLVALUE DUP1 ISZERO PUSH2 0x13C JUMPI PUSH1 0x0 DUP1 REVERT JUMPDEST POP PUSH2 0x12E PUSH2 0x14B CALLDATASIZE PUSH1 0x4 PUSH2 0xDE8 JUMP JUMPDEST PUSH2 0x559 JUMP JUMPDEST CALLVALUE DUP1 ISZERO PUSH2 0x15C JUMPI PUSH1 0x0 DUP1 REVERT JUMPDEST POP PUSH2 0x12E PUSH2 0x16B CALLDATASIZE PUSH1 0x4 PUSH2 0xE2C JUMP JUMPDEST PUSH2 0x5ED JUMP JUMPDEST CALLVALUE DUP1 ISZERO PUSH2 0x17C JUMPI PUSH1 0x0 DUP1 REVERT JUMPDEST POP PUSH2 0xFB PUSH1 0x4 SLOAD DUP2 JUMP JUMPDEST CALLVALUE DUP1 ISZERO PUSH2 0x192 JUMPI PUSH1 0x0 DUP1 REVERT JUMPDEST POP PUSH2 0x12E PUSH2 0x1A1 CALLDATASIZE PUSH1 0x4 PUSH2 0xE2C JUMP JUMPDEST PUSH2 0x627 JUMP JUMPDEST CALLVALUE DUP1 ISZERO PUSH2 0x1B2 JUMPI PUSH1 0x0 DUP1 REVERT JUMPDEST POP PUSH2 0xFB PUSH1 0x2 SLOAD DUP2 JUMP JUMPDEST CALLVALUE DUP1 ISZERO PUSH2 0x1C8 JUMPI PUSH1 0x0 DUP1 REVERT JUMPDEST POP PUSH2 0x12E PUSH2 0x1D7 CALLDATASIZE PUSH1 0x4 PUSH2 0xE45 JUMP JUMPDEST PUSH2 0x661 JUMP JUMPDEST CALLVALUE DUP1 ISZERO PUSH2 0x1E8 JUMPI PUSH1 0x0 DUP1 REVERT JUMPDEST POP PUSH2 0xFB PUSH2 0x1F7 CALLDATASIZE PUSH1 0x4 PUSH2 0xE2C JUMP JUMPDEST PUSH2 0x6B2 JUMP JUMPDEST CALLVALUE DUP1 ISZERO PUSH2 0x208 JUMPI PUSH1 0x0 DUP1 REVERT JUMPDEST POP PUSH2 0xFB PUSH1 0x1 SLOAD DUP2 JUMP JUMPDEST CALLVALUE DUP1 ISZERO PUSH2 0x21E JUMPI PUSH1 0x0 DUP1 REVERT JUMPDEST POP PUSH1 0x0 SLOAD PUSH2 0x232 SWAP1 PUSH1 0x1 PUSH1 0x1 PUSH1 0xA0 SHL SUB AND DUP2 JUMP JUMPDEST PUSH1 0x40 MLOAD PUSH1 0x1 PUSH1 0x1 PUSH1 0xA0 SHL SUB SWAP1 SWAP2 AND DUP2 MSTORE PUSH1 0x20 ADD PUSH2 0x105 JUMP JUMPDEST CALLVALUE DUP1 ISZERO PUSH2 0x256 JUMPI PUSH1 0x0 DUP1 REVERT JUMPDEST POP PUSH2 0x12E PUSH2 0x265 CALLDATASIZE PUSH1 0x4 PUSH2 0xE69 JUMP JUMPDEST PUSH2 0x892 JUMP JUMPDEST CALLVALUE DUP1 ISZERO PUSH2 0x276 JUMPI PUSH1 0x0 DUP1 REVERT JUMPDEST POP PUSH2 0xFB PUSH1 0x5 SLOAD DUP2 JUMP JUMPDEST CALLER PUSH1 0x1 PUSH1 0x1 PUSH1 0xA0 SHL SUB PUSH32 0x0 AND EQ PUSH2 0x2B5 JUMPI PUSH1 0x0 DUP1 REVERT JUMPDEST PUSH1 0x0 SLOAD PUSH1 0x40 MLOAD PUSH32 0x101DFD1900000000000000000000000000000000000000000000000000000000 DUP2 MSTORE PUSH1 0x1 PUSH1 0x1 PUSH1 0xA0 SHL SUB DUP8 DUP2 AND PUSH1 0x4 DUP4 ADD MSTORE SWAP1 SWAP2 AND SWAP1 DUP2 SWAP1 PUSH4 0x101DFD19 SWAP1 PUSH1 0x24 ADD PUSH1 0x0 PUSH1 0x40 MLOAD DUP1 DUP4 SUB DUP2 PUSH1 0x0 DUP8 DUP1 EXTCODESIZE ISZERO DUP1 ISZERO PUSH2 0x317 JUMPI PUSH1 0x0 DUP1 REVERT JUMPDEST POP GAS CALL ISZERO DUP1 ISZERO PUSH2 0x32B JUMPI RETURNDATASIZE PUSH1 0x0 DUP1 RETURNDATACOPY RETURNDATASIZE PUSH1 0x0 REVERT JUMPDEST POP POP PUSH1 0x1 SLOAD PUSH1 0x2 SLOAD PUSH1 0x3 SLOAD PUSH1 0x4 SLOAD PUSH1 0x40 MLOAD PUSH1 0x1 PUSH1 0x1 PUSH1 0xA0 SHL SUB DUP9 DUP2 AND PUSH1 0x24 DUP4 ADD MSTORE PUSH1 0x44 DUP3 ADD SWAP6 SWAP1 SWAP6 MSTORE PUSH1 0x64 DUP2 ADD SWAP4 SWAP1 SWAP4 MSTORE PUSH1 0x84 DUP4 ADD SWAP2 SWAP1 SWAP2 MSTORE PUSH1 0xA4 DUP3 ADD MSTORE SWAP1 DUP10 AND SWAP3 POP PUSH1 0xC4 ADD SWAP1 POP PUSH1 0x40 DUP1 MLOAD PUSH32 0xFFFFFFFFFFFFFFFFFFFFFFFFFFFFFFFFFFFFFFFFFFFFFFFFFFFFFFFFFFFFFFE0 DUP2 DUP5 SUB ADD DUP2 MSTORE SWAP2 DUP2 MSTORE PUSH1 0x20 DUP3 ADD DUP1 MLOAD PUSH28 0xFFFFFFFFFFFFFFFFFFFFFFFFFFFFFFFFFFFFFFFFFFFFFFFFFFFFFFFF AND PUSH32 0x941AC60700000000000000000000000000000000000000000000000000000000 OR SWAP1 MSTORE MLOAD PUSH2 0x3F4 SWAP2 SWAP1 PUSH2 0xED5 JUMP JUMPDEST PUSH1 0x0 PUSH1 0x40 MLOAD DUP1 DUP4 SUB DUP2 DUP6 GAS DELEGATECALL SWAP2 POP POP RETURNDATASIZE DUP1 PUSH1 0x0 DUP2 EQ PUSH2 0x42F JUMPI PUSH1 0x40 MLOAD SWAP2 POP PUSH1 0x1F NOT PUSH1 0x3F RETURNDATASIZE ADD AND DUP3 ADD PUSH1 0x40 MSTORE RETURNDATASIZE DUP3 MSTORE RETURNDATASIZE PUSH1 0x0 PUSH1 0x20 DUP5 ADD RETURNDATACOPY PUSH2 0x434 JUMP JUMPDEST PUSH1 0x60 SWAP2 POP JUMPDEST POP POP PUSH1 0x0 PUSH1 0x1 DUP2 SWAP1 SSTORE PUSH1 0x2 DUP2 SWAP1 SSTORE PUSH1 0x3 DUP2 SWAP1 SSTORE PUSH1 0x4 DUP2 SWAP1 SSTORE PUSH1 0x40 MLOAD SWAP1 SWAP3 POP ADDRESS SWAP2 POP PUSH2 0x469 SWAP1 DUP8 SWAP1 DUP8 SWAP1 DUP8 SWAP1 DUP8 SWAP1 PUSH1 0x24 ADD PUSH2 0xF10 JUMP JUMPDEST PUSH1 0x40 DUP1 MLOAD PUSH32 0xFFFFFFFFFFFFFFFFFFFFFFFFFFFFFFFFFFFFFFFFFFFFFFFFFFFFFFFFFFFFFFE0 DUP2 DUP5 SUB ADD DUP2 MSTORE SWAP2 DUP2 MSTORE PUSH1 0x20 DUP3 ADD DUP1 MLOAD PUSH28 0xFFFFFFFFFFFFFFFFFFFFFFFFFFFFFFFFFFFFFFFFFFFFFFFFFFFFFFFF AND PUSH32 0x4ABCC5D500000000000000000000000000000000000000000000000000000000 OR SWAP1 MSTORE MLOAD PUSH2 0x4EA SWAP2 SWAP1 PUSH2 0xED5 JUMP JUMPDEST PUSH1 0x0 PUSH1 0x40 MLOAD DUP1 DUP4 SUB DUP2 DUP6 GAS DELEGATECALL SWAP2 POP POP RETURNDATASIZE DUP1 PUSH1 0x0 DUP2 EQ PUSH2 0x525 JUMPI PUSH1 0x40 MLOAD SWAP2 POP PUSH1 0x1F NOT PUSH1 0x3F RETURNDATASIZE ADD AND DUP3 ADD PUSH1 0x40 MSTORE RETURNDATASIZE DUP3 MSTORE RETURNDATASIZE PUSH1 0x0 PUSH1 0x20 DUP5 ADD RETURNDATACOPY PUSH2 0x52A JUMP JUMPDEST PUSH1 0x60 SWAP2 POP JUMPDEST POP POP POP PUSH32 0x0 PUSH1 0x1 PUSH1 0x1 PUSH1 0xA0 SHL SUB AND SELFDESTRUCT JUMPDEST CALLER PUSH1 0x1 PUSH1 0x1 PUSH1 0xA0 SHL SUB PUSH32 0x0 AND EQ PUSH2 0x58E JUMPI PUSH1 0x0 DUP1 REVERT JUMPDEST PUSH1 0x5 SLOAD ISZERO PUSH2 0x59B JUMPI PUSH1 0x0 DUP1 REVERT JUMPDEST PUSH1 0x0 DUP1 SLOAD PUSH32 0xFFFFFFFFFFFFFFFFFFFFFFFF0000000000000000000000000000000000000000 AND PUSH1 0x1 PUSH1 0x1 PUSH1 0xA0 SHL SUB SWAP7 SWAP1 SWAP7 AND SWAP6 SWAP1 SWAP6 OR SWAP1 SWAP5 SSTORE PUSH1 0x1 SWAP3 DUP4 SSTORE PUSH1 0x2 SWAP2 SWAP1 SWAP2 SSTORE PUSH1 0x3 SSTORE PUSH1 0x4 SWAP2 SWAP1 SWAP2 SSTORE PUSH1 0x5 SSTORE JUMP JUMPDEST CALLER PUSH1 0x1 PUSH1 0x1 PUSH1 0xA0 SHL SUB PUSH32 0x0 AND EQ PUSH2 0x622 JUMPI PUSH1 0x0 DUP1 REVERT JUMPDEST PUSH1 0x4 SSTORE JUMP JUMPDEST CALLER PUSH1 0x1 PUSH1 0x1 PUSH1 0xA0 SHL SUB PUSH32 0x0 AND EQ PUSH2 0x65C JUMPI PUSH1 0x0 DUP1 REVERT JUMPDEST PUSH1 0x3 SSTORE JUMP JUMPDEST PUSH1 0x0 SLOAD PUSH1 0x1 PUSH1 0x1 PUSH1 0xA0 SHL SUB AND CALLER EQ PUSH2 0x678 JUMPI PUSH1 0x0 DUP1 REVERT JUMPDEST PUSH1 0x0 DUP1 SLOAD PUSH32 0xFFFFFFFFFFFFFFFFFFFFFFFF0000000000000000000000000000000000000000 AND PUSH1 0x1 PUSH1 0x1 PUSH1 0xA0 SHL SUB SWAP3 SWAP1 SWAP3 AND SWAP2 SWAP1 SWAP2 OR SWAP1 SSTORE JUMP JUMPDEST PUSH1 0x0 DUP1 SLOAD PUSH1 0x40 DUP1 MLOAD PUSH32 0x3F0A079700000000000000000000000000000000000000000000000000000000 DUP2 MSTORE SWAP1 MLOAD PUSH1 0x1 PUSH1 0x1 PUSH1 0xA0 SHL SUB SWAP1 SWAP3 AND SWAP2 CALLER SWAP2 DUP4 SWAP2 PUSH4 0x3F0A0797 SWAP2 PUSH1 0x4 DUP1 DUP3 ADD SWAP3 PUSH1 0x20 SWAP3 SWAP1 SWAP2 SWAP1 DUP3 SWAP1 SUB ADD DUP2 DUP7 GAS STATICCALL ISZERO DUP1 ISZERO PUSH2 0x71A JUMPI RETURNDATASIZE PUSH1 0x0 DUP1 RETURNDATACOPY RETURNDATASIZE PUSH1 0x0 REVERT JUMPDEST POP POP POP POP PUSH1 0x40 MLOAD RETURNDATASIZE PUSH1 0x1F NOT PUSH1 0x1F DUP3 ADD AND DUP3 ADD DUP1 PUSH1 0x40 MSTORE POP DUP2 ADD SWAP1 PUSH2 0x73E SWAP2 SWAP1 PUSH2 0xFAD JUMP JUMPDEST PUSH1 0x1 PUSH1 0x1 PUSH1 0xA0 SHL SUB AND EQ PUSH2 0x751 JUMPI PUSH1 0x0 DUP1 REVERT JUMPDEST PUSH1 0x0 PUSH2 0x75B PUSH2 0x9E6 JUMP JUMPDEST SWAP1 POP DUP4 PUSH1 0x0 SUB PUSH2 0x77F JUMPI DUP1 PUSH1 0x2 SLOAD PUSH2 0x773 SWAP2 SWAP1 PUSH2 0xFF9 JUMP JUMPDEST PUSH1 0x2 DUP2 SWAP1 SSTORE SWAP3 POP PUSH2 0x88B JUMP JUMPDEST DUP4 PUSH1 0x1 SUB PUSH2 0x88B JUMPI PUSH1 0x2 SLOAD PUSH2 0x794 SWAP1 DUP3 PUSH2 0xFF9 JUMP JUMPDEST SWAP3 POP DUP2 PUSH1 0x1 PUSH1 0x1 PUSH1 0xA0 SHL SUB AND PUSH4 0xDA8909E5 PUSH1 0x40 MLOAD DUP2 PUSH4 0xFFFFFFFF AND PUSH1 0xE0 SHL DUP2 MSTORE PUSH1 0x4 ADD PUSH1 0x20 PUSH1 0x40 MLOAD DUP1 DUP4 SUB DUP2 DUP7 GAS STATICCALL ISZERO DUP1 ISZERO PUSH2 0x7D4 JUMPI RETURNDATASIZE PUSH1 0x0 DUP1 RETURNDATACOPY RETURNDATASIZE PUSH1 0x0 REVERT JUMPDEST POP POP POP POP PUSH1 0x40 MLOAD RETURNDATASIZE PUSH1 0x1F NOT PUSH1 0x1F DUP3 ADD AND DUP3 ADD DUP1 PUSH1 0x40 MSTORE POP DUP2 ADD SWAP1 PUSH2 0x7F8 SWAP2 SWAP1 PUSH2 0xFAD JUMP JUMPDEST PUSH1 0x40 MLOAD PUSH32 0x990DC9DB00000000000000000000000000000000000000000000000000000000 DUP2 MSTORE ADDRESS PUSH1 0x4 DUP3 ADD MSTORE PUSH1 0x24 DUP2 ADD DUP6 SWAP1 MSTORE PUSH1 0x1 PUSH1 0x1 PUSH1 0xA0 SHL SUB SWAP2 SWAP1 SWAP2 AND SWAP1 PUSH4 0x990DC9DB SWAP1 PUSH1 0x44 ADD PUSH1 0x20 PUSH1 0x40 MLOAD DUP1 DUP4 SUB DUP2 PUSH1 0x0 DUP8 GAS CALL ISZERO DUP1 ISZERO PUSH2 0x860 JUMPI RETURNDATASIZE PUSH1 0x0 DUP1 RETURNDATACOPY RETURNDATASIZE PUSH1 0x0 REVERT JUMPDEST POP POP POP POP PUSH1 0x40 MLOAD RETURNDATASIZE PUSH1 0x1F NOT PUSH1 0x1F DUP3 ADD AND DUP3 ADD DUP1 PUSH1 0x40 MSTORE POP DUP2 ADD SWAP1 PUSH2 0x884 SWAP2 SWAP1 PUSH2 0x1011 JUMP JUMPDEST POP PUSH1 0x0 PUSH1 0x2 SSTORE JUMPDEST POP POP SWAP2 SWAP1 POP JUMP JUMPDEST CALLER PUSH1 0x1 PUSH1 0x1 PUSH1 0xA0 SHL SUB PUSH32 0x0 AND EQ PUSH2 0x8C7 JUMPI PUSH1 0x0 DUP1 REVERT JUMPDEST PUSH32 0x0 PUSH1 0x0 JUMPDEST DUP3 DUP2 LT ISZERO PUSH2 0x9DE JUMPI DUP6 DUP6 DUP3 DUP2 DUP2 LT PUSH2 0x905 JUMPI PUSH2 0x905 PUSH2 0x1033 JUMP JUMPDEST SWAP1 POP PUSH1 0x20 MUL ADD PUSH1 0x20 DUP2 ADD SWAP1 PUSH2 0x91A SWAP2 SWAP1 PUSH2 0xE45 JUMP JUMPDEST PUSH1 0x1 PUSH1 0x1 PUSH1 0xA0 SHL SUB AND PUSH4 0xA9059CBB DUP4 DUP7 DUP7 DUP6 DUP2 DUP2 LT PUSH2 0x93B JUMPI PUSH2 0x93B PUSH2 0x1033 JUMP JUMPDEST PUSH1 0x40 MLOAD PUSH32 0xFFFFFFFF00000000000000000000000000000000000000000000000000000000 PUSH1 0xE0 DUP8 SWAP1 SHL AND DUP2 MSTORE PUSH1 0x1 PUSH1 0x1 PUSH1 0xA0 SHL SUB SWAP1 SWAP5 AND PUSH1 0x4 DUP6 ADD MSTORE PUSH1 0x20 MUL SWAP2 SWAP1 SWAP2 ADD CALLDATALOAD PUSH1 0x24 DUP4 ADD MSTORE POP PUSH1 0x44 ADD PUSH1 0x20 PUSH1 0x40 MLOAD DUP1 DUP4 SUB DUP2 PUSH1 0x0 DUP8 GAS CALL ISZERO DUP1 ISZERO PUSH2 0x9A7 JUMPI RETURNDATASIZE PUSH1 0x0 DUP1 RETURNDATACOPY RETURNDATASIZE PUSH1 0x0 REVERT JUMPDEST POP POP POP POP PUSH1 0x40 MLOAD RETURNDATASIZE PUSH1 0x1F NOT PUSH1 0x1F DUP3 ADD AND DUP3 ADD DUP1 PUSH1 0x40 MSTORE POP DUP2 ADD SWAP1 PUSH2 0x9CB SWAP2 SWAP1 PUSH2 0x1011 JUMP JUMPDEST POP DUP1 PUSH2 0x9D6 DUP2 PUSH2 0x1062 JUMP JUMPDEST SWAP2 POP POP PUSH2 0x8EB JUMP JUMPDEST POP POP POP POP POP POP JUMP JUMPDEST PUSH1 0x1 SLOAD PUSH1 0x0 SWAP1 DUP2 SWAP1 TIMESTAMP DUP2 SUB PUSH2 0x9FE JUMPI PUSH1 0x0 SWAP3 POP POP POP SWAP1 JUMP JUMPDEST PUSH1 0x0 PUSH2 0xA0A DUP3 TIMESTAMP PUSH2 0x109A JUMP JUMPDEST SWAP1 POP PUSH1 0x0 PUSH1 0x4 SLOAD SWAP1 POP PUSH1 0x0 DUP1 SLOAD SWAP1 PUSH2 0x100 EXP SWAP1 DIV PUSH1 0x1 PUSH1 0x1 PUSH1 0xA0 SHL SUB AND PUSH1 0x1 PUSH1 0x1 PUSH1 0xA0 SHL SUB AND PUSH4 0x11CE0267 PUSH1 0x40 MLOAD DUP2 PUSH4 0xFFFFFFFF AND PUSH1 0xE0 SHL DUP2 MSTORE PUSH1 0x4 ADD PUSH1 0x20 PUSH1 0x40 MLOAD DUP1 DUP4 SUB DUP2 DUP7 GAS STATICCALL ISZERO DUP1 ISZERO PUSH2 0xA64 JUMPI RETURNDATASIZE PUSH1 0x0 DUP1 RETURNDATACOPY RETURNDATASIZE PUSH1 0x0 REVERT JUMPDEST POP POP POP POP PUSH1 0x40 MLOAD RETURNDATASIZE PUSH1 0x1F NOT PUSH1 0x1F DUP3 ADD AND DUP3 ADD DUP1 PUSH1 0x40 MSTORE POP DUP2 ADD SWAP1 PUSH2 0xA88 SWAP2 SWAP1 PUSH2 0xFAD JUMP JUMPDEST SWAP4 POP PUSH1 0x0 DUP5 PUSH1 0x1 PUSH1 0x1 PUSH1 0xA0 SHL SUB AND PUSH4 0x52FD856B PUSH1 0x40 MLOAD DUP2 PUSH4 0xFFFFFFFF AND PUSH1 0xE0 SHL DUP2 MSTORE PUSH1 0x4 ADD PUSH1 0x20 PUSH1 0x40 MLOAD DUP1 DUP4 SUB DUP2 DUP7 GAS STATICCALL ISZERO DUP1 ISZERO PUSH2 0xACA JUMPI RETURNDATASIZE PUSH1 0x0 DUP1 RETURNDATACOPY RETURNDATASIZE PUSH1 0x0 REVERT JUMPDEST POP POP POP POP PUSH1 0x40 MLOAD RETURNDATASIZE PUSH1 0x1F NOT PUSH1 0x1F DUP3 ADD AND DUP3 ADD DUP1 PUSH1 0x40 MSTORE POP DUP2 ADD SWAP1 PUSH2 0xAEE SWAP2 SWAP1 PUSH2 0x10B1 JUMP JUMPDEST SWAP1 POP PUSH1 0x18 PUSH8 0xDE0B6B3A7640000 DUP4 DUP2 DUP2 DUP2 DUP2 DUP2 DUP2 PUSH2 0xB0D PUSH1 0x3 DUP14 PUSH2 0x109A JUMP JUMPDEST PUSH2 0xB18 PUSH1 0x2 DUP15 PUSH2 0x109A JUMP JUMPDEST PUSH2 0xB23 PUSH1 0x1 DUP16 PUSH2 0x109A JUMP JUMPDEST PUSH2 0xB2D DUP16 DUP15 PUSH2 0x10CA JUMP JUMPDEST PUSH2 0xB37 SWAP2 SWAP1 PUSH2 0x10CA JUMP JUMPDEST PUSH2 0xB41 SWAP2 SWAP1 PUSH2 0x10CA JUMP JUMPDEST PUSH2 0xB4B SWAP2 SWAP1 PUSH2 0x10CA JUMP JUMPDEST PUSH2 0xB55 SWAP2 SWAP1 PUSH2 0x10CA JUMP JUMPDEST PUSH2 0xB5F SWAP2 SWAP1 PUSH2 0x1107 JUMP JUMPDEST PUSH2 0xB69 SWAP2 SWAP1 PUSH2 0x10CA JUMP JUMPDEST PUSH2 0xB73 SWAP2 SWAP1 PUSH2 0x1107 JUMP JUMPDEST PUSH2 0xB7D SWAP2 SWAP1 PUSH2 0x10CA JUMP JUMPDEST PUSH2 0xB87 SWAP2 SWAP1 PUSH2 0x1107 JUMP JUMPDEST PUSH2 0xB91 SWAP2 SWAP1 PUSH2 0x10CA JUMP JUMPDEST PUSH2 0xB9B SWAP2 SWAP1 PUSH2 0x1107 JUMP JUMPDEST PUSH2 0xBA5 SWAP2 SWAP1 PUSH2 0x1107 JUMP JUMPDEST PUSH15 0xC097CE7BC90715B34B9F1000000000 PUSH1 0x6 DUP5 PUSH8 0xDE0B6B3A7640000 DUP2 DUP1 PUSH2 0xBCE PUSH1 0x2 DUP12 PUSH2 0x109A JUMP JUMPDEST PUSH2 0xBD9 PUSH1 0x1 DUP13 PUSH2 0x109A JUMP JUMPDEST PUSH2 0xBE3 SWAP1 DUP13 PUSH2 0x10CA JUMP JUMPDEST PUSH2 0xBED SWAP2 SWAP1 PUSH2 0x10CA JUMP JUMPDEST PUSH2 0xBF7 SWAP2 SWAP1 PUSH2 0x10CA JUMP JUMPDEST PUSH2 0xC01 SWAP2 SWAP1 PUSH2 0x10CA JUMP JUMPDEST PUSH2 0xC0B SWAP2 SWAP1 PUSH2 0x1107 JUMP JUMPDEST PUSH2 0xC15 SWAP2 SWAP1 PUSH2 0x10CA JUMP JUMPDEST PUSH2 0xC1F SWAP2 SWAP1 PUSH2 0x1107 JUMP JUMPDEST PUSH2 0xC29 SWAP1 DUP5 PUSH2 0x10CA JUMP JUMPDEST PUSH2 0xC33 SWAP2 SWAP1 PUSH2 0x1107 JUMP JUMPDEST PUSH15 0xC097CE7BC90715B34B9F1000000000 PUSH1 0x2 DUP6 DUP1 PUSH2 0xC52 PUSH1 0x1 DUP11 PUSH2 0x109A JUMP JUMPDEST PUSH2 0xC5C SWAP1 DUP11 PUSH2 0x10CA JUMP JUMPDEST PUSH2 0xC66 SWAP2 SWAP1 PUSH2 0x10CA JUMP JUMPDEST PUSH2 0xC70 SWAP2 SWAP1 PUSH2 0x10CA JUMP JUMPDEST PUSH2 0xC7A SWAP2 SWAP1 PUSH2 0x1107 JUMP JUMPDEST PUSH2 0xC84 SWAP1 DUP6 PUSH2 0x10CA JUMP JUMPDEST PUSH2 0xC8E SWAP2 SWAP1 PUSH2 0x1107 JUMP JUMPDEST PUSH8 0xDE0B6B3A7640000 PUSH2 0xCA1 DUP7 DUP9 PUSH2 0x10CA JUMP JUMPDEST PUSH2 0xCB3 SWAP1 PUSH8 0xDE0B6B3A7640000 PUSH2 0x109A JUMP JUMPDEST PUSH2 0xCC5 SWAP1 PUSH8 0xDE0B6B3A7640000 PUSH2 0x109A JUMP JUMPDEST PUSH2 0xCCF SWAP1 DUP7 PUSH2 0x10CA JUMP JUMPDEST PUSH2 0xCD9 SWAP2 SWAP1 PUSH2 0x1107 JUMP JUMPDEST PUSH2 0xCE3 SWAP2 SWAP1 PUSH2 0x109A JUMP JUMPDEST PUSH2 0xCED SWAP2 SWAP1 PUSH2 0xFF9 JUMP JUMPDEST PUSH2 0xCF7 SWAP2 SWAP1 PUSH2 0x109A JUMP JUMPDEST SWAP6 POP POP POP POP POP POP SWAP1 JUMP JUMPDEST PUSH1 0x1 PUSH1 0x1 PUSH1 0xA0 SHL SUB DUP2 AND DUP2 EQ PUSH2 0xD16 JUMPI PUSH1 0x0 DUP1 REVERT JUMPDEST POP JUMP JUMPDEST PUSH1 0x0 DUP1 DUP4 PUSH1 0x1F DUP5 ADD SLT PUSH2 0xD2B JUMPI PUSH1 0x0 DUP1 REVERT JUMPDEST POP DUP2 CALLDATALOAD PUSH8 0xFFFFFFFFFFFFFFFF DUP2 GT ISZERO PUSH2 0xD43 JUMPI PUSH1 0x0 DUP1 REVERT JUMPDEST PUSH1 0x20 DUP4 ADD SWAP2 POP DUP4 PUSH1 0x20 DUP3 PUSH1 0x5 SHL DUP6 ADD ADD GT ISZERO PUSH2 0xD5E JUMPI PUSH1 0x0 DUP1 REVERT JUMPDEST SWAP3 POP SWAP3 SWAP1 POP JUMP JUMPDEST PUSH1 0x0 DUP1 PUSH1 0x0 DUP1 PUSH1 0x0 PUSH1 0x60 DUP7 DUP9 SUB SLT ISZERO PUSH2 0xD7D JUMPI PUSH1 0x0 DUP1 REVERT JUMPDEST DUP6 CALLDATALOAD PUSH2 0xD88 DUP2 PUSH2 0xD01 JUMP JUMPDEST SWAP5 POP PUSH1 0x20 DUP7 ADD CALLDATALOAD PUSH8 0xFFFFFFFFFFFFFFFF DUP1 DUP3 GT ISZERO PUSH2 0xDA5 JUMPI PUSH1 0x0 DUP1 REVERT JUMPDEST PUSH2 0xDB1 DUP10 DUP4 DUP11 ADD PUSH2 0xD19 JUMP JUMPDEST SWAP1 SWAP7 POP SWAP5 POP PUSH1 0x40 DUP9 ADD CALLDATALOAD SWAP2 POP DUP1 DUP3 GT ISZERO PUSH2 0xDCA JUMPI PUSH1 0x0 DUP1 REVERT JUMPDEST POP PUSH2 0xDD7 DUP9 DUP3 DUP10 ADD PUSH2 0xD19 JUMP JUMPDEST SWAP7 SWAP10 SWAP6 SWAP9 POP SWAP4 SWAP7 POP SWAP3 SWAP5 SWAP4 SWAP3 POP POP POP JUMP JUMPDEST PUSH1 0x0 DUP1 PUSH1 0x0 DUP1 PUSH1 0x0 PUSH1 0xA0 DUP7 DUP9 SUB SLT ISZERO PUSH2 0xE00 JUMPI PUSH1 0x0 DUP1 REVERT JUMPDEST DUP6 CALLDATALOAD PUSH2 0xE0B DUP2 PUSH2 0xD01 JUMP JUMPDEST SWAP8 PUSH1 0x20 DUP8 ADD CALLDATALOAD SWAP8 POP PUSH1 0x40 DUP8 ADD CALLDATALOAD SWAP7 PUSH1 0x60 DUP2 ADD CALLDATALOAD SWAP7 POP PUSH1 0x80 ADD CALLDATALOAD SWAP5 POP SWAP3 POP POP POP JUMP JUMPDEST PUSH1 0x0 PUSH1 0x20 DUP3 DUP5 SUB SLT ISZERO PUSH2 0xE3E JUMPI PUSH1 0x0 DUP1 REVERT JUMPDEST POP CALLDATALOAD SWAP2 SWAP1 POP JUMP JUMPDEST PUSH1 0x0 PUSH1 0x20 DUP3 DUP5 SUB SLT ISZERO PUSH2 0xE57 JUMPI PUSH1 0x0 DUP1 REVERT JUMPDEST DUP2 CALLDATALOAD PUSH2 0xE62 DUP2 PUSH2 0xD01 JUMP JUMPDEST SWAP4 SWAP3 POP POP POP JUMP JUMPDEST PUSH1 0x0 DUP1 PUSH1 0x0 DUP1 PUSH1 0x40 DUP6 DUP8 SUB SLT ISZERO PUSH2 0xE7F JUMPI PUSH1 0x0 DUP1 REVERT JUMPDEST DUP5 CALLDATALOAD PUSH8 0xFFFFFFFFFFFFFFFF DUP1 DUP3 GT ISZERO PUSH2 0xE97 JUMPI PUSH1 0x0 DUP1 REVERT JUMPDEST PUSH2 0xEA3 DUP9 DUP4 DUP10 ADD PUSH2 0xD19 JUMP JUMPDEST SWAP1 SWAP7 POP SWAP5 POP PUSH1 0x20 DUP8 ADD CALLDATALOAD SWAP2 POP DUP1 DUP3 GT ISZERO PUSH2 0xEBC JUMPI PUSH1 0x0 DUP1 REVERT JUMPDEST POP PUSH2 0xEC9 DUP8 DUP3 DUP9 ADD PUSH2 0xD19 JUMP JUMPDEST SWAP6 SWAP9 SWAP5 SWAP8 POP SWAP6 POP POP POP POP JUMP JUMPDEST PUSH1 0x0 DUP3 MLOAD PUSH1 0x0 JUMPDEST DUP2 DUP2 LT ISZERO PUSH2 0xEF6 JUMPI PUSH1 0x20 DUP2 DUP7 ADD DUP2 ADD MLOAD DUP6 DUP4 ADD MSTORE ADD PUSH2 0xEDC JUMP JUMPDEST DUP2 DUP2 GT ISZERO PUSH2 0xF05 JUMPI PUSH1 0x0 DUP3 DUP6 ADD MSTORE JUMPDEST POP SWAP2 SWAP1 SWAP2 ADD SWAP3 SWAP2 POP POP JUMP JUMPDEST PUSH1 0x40 DUP1 DUP3 MSTORE DUP2 ADD DUP5 SWAP1 MSTORE PUSH1 0x0 DUP6 PUSH1 0x60 DUP4 ADD DUP3 JUMPDEST DUP8 DUP2 LT ISZERO PUSH2 0xF53 JUMPI DUP3 CALLDATALOAD PUSH2 0xF36 DUP2 PUSH2 0xD01 JUMP JUMPDEST PUSH1 0x1 PUSH1 0x1 PUSH1 0xA0 SHL SUB AND DUP3 MSTORE PUSH1 0x20 SWAP3 DUP4 ADD SWAP3 SWAP1 SWAP2 ADD SWAP1 PUSH1 0x1 ADD PUSH2 0xF23 JUMP JUMPDEST POP DUP4 DUP2 SUB PUSH1 0x20 DUP6 ADD MSTORE DUP5 DUP2 MSTORE PUSH32 0x7FFFFFFFFFFFFFFFFFFFFFFFFFFFFFFFFFFFFFFFFFFFFFFFFFFFFFFFFFFFFFF DUP6 GT ISZERO PUSH2 0xF8C JUMPI PUSH1 0x0 DUP1 REVERT JUMPDEST DUP5 PUSH1 0x5 SHL SWAP2 POP DUP2 DUP7 PUSH1 0x20 DUP4 ADD CALLDATACOPY PUSH1 0x0 SWAP2 ADD PUSH1 0x20 ADD SWAP1 DUP2 MSTORE SWAP7 SWAP6 POP POP POP POP POP POP JUMP JUMPDEST PUSH1 0x0 PUSH1 0x20 DUP3 DUP5 SUB SLT ISZERO PUSH2 0xFBF JUMPI PUSH1 0x0 DUP1 REVERT JUMPDEST DUP2 MLOAD PUSH2 0xE62 DUP2 PUSH2 0xD01 JUMP JUMPDEST PUSH32 0x4E487B7100000000000000000000000000000000000000000000000000000000 PUSH1 0x0 MSTORE PUSH1 0x11 PUSH1 0x4 MSTORE PUSH1 0x24 PUSH1 0x0 REVERT JUMPDEST PUSH1 0x0 DUP3 NOT DUP3 GT ISZERO PUSH2 0x100C JUMPI PUSH2 0x100C PUSH2 0xFCA JUMP JUMPDEST POP ADD SWAP1 JUMP JUMPDEST PUSH1 0x0 PUSH1 0x20 DUP3 DUP5 SUB SLT ISZERO PUSH2 0x1023 JUMPI PUSH1 0x0 DUP1 REVERT JUMPDEST DUP2 MLOAD DUP1 ISZERO ISZERO DUP2 EQ PUSH2 0xE62 JUMPI PUSH1 0x0 DUP1 REVERT JUMPDEST PUSH32 0x4E487B7100000000000000000000000000000000000000000000000000000000 PUSH1 0x0 MSTORE PUSH1 0x32 PUSH1 0x4 MSTORE PUSH1 0x24 PUSH1 0x0 REVERT JUMPDEST PUSH1 0x0 PUSH32 0xFFFFFFFFFFFFFFFFFFFFFFFFFFFFFFFFFFFFFFFFFFFFFFFFFFFFFFFFFFFFFFFF DUP3 SUB PUSH2 0x1093 JUMPI PUSH2 0x1093 PUSH2 0xFCA JUMP JUMPDEST POP PUSH1 0x1 ADD SWAP1 JUMP JUMPDEST PUSH1 0x0 DUP3 DUP3 LT ISZERO PUSH2 0x10AC JUMPI PUSH2 0x10AC PUSH2 0xFCA JUMP JUMPDEST POP SUB SWAP1 JUMP JUMPDEST PUSH1 0x0 PUSH1 0x20 DUP3 DUP5 SUB SLT ISZERO PUSH2 0x10C3 JUMPI PUSH1 0x0 DUP1 REVERT JUMPDEST POP MLOAD SWAP2 SWAP1 POP JUMP JUMPDEST PUSH1 0x0 DUP2 PUSH32 0xFFFFFFFFFFFFFFFFFFFFFFFFFFFFFFFFFFFFFFFFFFFFFFFFFFFFFFFFFFFFFFFF DIV DUP4 GT DUP3 ISZERO ISZERO AND ISZERO PUSH2 0x1102 JUMPI PUSH2 0x1102 PUSH2 0xFCA JUMP JUMPDEST POP MUL SWAP1 JUMP JUMPDEST PUSH1 0x0 DUP3 PUSH2 0x113D JUMPI PUSH32 0x4E487B7100000000000000000000000000000000000000000000000000000000 PUSH1 0x0 MSTORE PUSH1 0x12 PUSH1 0x4 MSTORE PUSH1 0x24 PUSH1 0x0 REVERT JUMPDEST POP DIV SWAP1 JUMP INVALID LOG2 PUSH5 0x6970667358 0x22 SLT KECCAK256 SWAP7 SHR SDIV 0xF SLOAD GASPRICE 0xAE SWAP6 0xA7 0x4C 0xA5 0xD1 CALLCODE MSTORE8 0xE5 PUSH15 0x1C358812B49D2CF43C85B0842C5544 MSIZE PUSH5 0x736F6C6343 STOP ADDMOD 0xE STOP CALLER "
		},
		"gasEstimates": {
			"creation": {
				"codeDepositCost": "894400",
				"executionCost": "infinite",
				"totalCost": "infinite"
			},
			"external": {
				"": "169",
				"accumCommission()": "2307",
				"collectCommission(address[],uint256[])": "infinite",
				"deleteContract(address,address[],uint256[])": "infinite",
				"feeYear()": "2308",
				"initContract(address,uint256,uint256,uint256,uint256)": "infinite",
				"initDone()": "2372",
				"lastUpdated()": "2306",
				"payComissions(uint256)": "infinite",
				"proxy()": "2381",
				"r()": "2329",
				"setFeeYear(uint256)": "infinite",
				"setR(uint256)": "infinite",
				"updateProxy(address)": "26735"
			},
			"internal": {
				"computeCommission()": "infinite"
			}
		},
		"methodIdentifiers": {
			"accumCommission()": "7f8483a4",
			"collectCommission(address[],uint256[])": "fc693786",
			"deleteContract(address,address[],uint256[])": "1d69b196",
			"feeYear()": "13ab7042",
			"initContract(address,uint256,uint256,uint256,uint256)": "37799661",
			"initDone()": "fed0a20e",
			"lastUpdated()": "d0b06f5d",
			"payComissions(uint256)": "bdedd45e",
			"proxy()": "ec556889",
			"r()": "6c8ae38c",
			"setFeeYear(uint256)": "75450f1b",
			"setR(uint256)": "674eb5ac",
			"updateProxy(address)": "9e955149"
		}
	},
	"abi": [
		{
			"inputs": [],
			"stateMutability": "nonpayable",
			"type": "constructor"
		},
		{
			"stateMutability": "payable",
			"type": "fallback"
		},
		{
			"inputs": [],
			"name": "accumCommission",
			"outputs": [
				{
					"internalType": "uint256",
					"name": "",
					"type": "uint256"
				}
			],
			"stateMutability": "view",
			"type": "function"
		},
		{
			"inputs": [
				{
					"internalType": "address[]",
					"name": "tokensToTransfer",
					"type": "address[]"
				},
				{
					"internalType": "uint256[]",
					"name": "qty",
					"type": "uint256[]"
				}
			],
			"name": "collectCommission",
			"outputs": [],
			"stateMutability": "nonpayable",
			"type": "function"
		},
		{
			"inputs": [
				{
					"internalType": "address",
					"name": "newAddr",
					"type": "address"
				},
				{
					"internalType": "address[]",
					"name": "tokensToTransfer",
					"type": "address[]"
				},
				{
					"internalType": "uint256[]",
					"name": "qty",
					"type": "uint256[]"
				}
			],
			"name": "deleteContract",
			"outputs": [],
			"stateMutability": "nonpayable",
			"type": "function"
		},
		{
			"inputs": [],
			"name": "feeYear",
			"outputs": [
				{
					"internalType": "uint256",
					"name": "",
					"type": "uint256"
				}
			],
			"stateMutability": "view",
			"type": "function"
		},
		{
			"inputs": [
				{
					"internalType": "address",
					"name": "proxyAddr",
					"type": "address"
				},
				{
					"internalType": "uint256",
					"name": "lastUpdated_",
					"type": "uint256"
				},
				{
					"internalType": "uint256",
					"name": "accumCommission_",
					"type": "uint256"
				},
				{
					"internalType": "uint256",
					"name": "feeYear_",
					"type": "uint256"
				},
				{
					"internalType": "uint256",
					"name": "r_",
					"type": "uint256"
				}
			],
			"name": "initContract",
			"outputs": [],
			"stateMutability": "nonpayable",
			"type": "function"
		},
		{
			"inputs": [],
			"name": "initDone",
			"outputs": [
				{
					"internalType": "uint256",
					"name": "",
					"type": "uint256"
				}
			],
			"stateMutability": "view",
			"type": "function"
		},
		{
			"inputs": [],
			"name": "lastUpdated",
			"outputs": [
				{
					"internalType": "uint256",
					"name": "",
					"type": "uint256"
				}
			],
			"stateMutability": "view",
			"type": "function"
		},
		{
			"inputs": [
				{
					"internalType": "uint256",
					"name": "buyOrSell",
					"type": "uint256"
				}
			],
			"name": "payComissions",
			"outputs": [
				{
					"internalType": "uint256",
					"name": "payedComissions",
					"type": "uint256"
				}
			],
			"stateMutability": "nonpayable",
			"type": "function"
		},
		{
			"inputs": [],
			"name": "proxy",
			"outputs": [
				{
					"internalType": "address",
					"name": "",
					"type": "address"
				}
			],
			"stateMutability": "view",
			"type": "function"
		},
		{
			"inputs": [],
			"name": "r",
			"outputs": [
				{
					"internalType": "uint256",
					"name": "",
					"type": "uint256"
				}
			],
			"stateMutability": "view",
			"type": "function"
		},
		{
			"inputs": [
				{
					"internalType": "uint256",
					"name": "newFee",
					"type": "uint256"
				}
			],
			"name": "setFeeYear",
			"outputs": [],
			"stateMutability": "nonpayable",
			"type": "function"
		},
		{
			"inputs": [
				{
					"internalType": "uint256",
					"name": "newR",
					"type": "uint256"
				}
			],
			"name": "setR",
			"outputs": [],
			"stateMutability": "nonpayable",
			"type": "function"
		},
		{
			"inputs": [
				{
					"internalType": "address",
					"name": "newAddr",
					"type": "address"
				}
			],
			"name": "updateProxy",
			"outputs": [],
			"stateMutability": "nonpayable",
			"type": "function"
		},
		{
			"stateMutability": "payable",
			"type": "receive"
		}
	]
}