{
	"data": {
		"bytecode": {
			"linkReferences": {},
			"object": "60a060405234801561001057600080fd5b50336080526080516124c761004c60003960008181610422015281816106eb0152818161072001528181610d870152610ea501526124c76000f3fe6080604052600436106100ec5760003560e01c8063990dc9db1161008a578063d825bfff11610059578063d825bfff146102b1578063def1a5e8146102e7578063ec55688914610311578063fed0a20e1461033757600080fd5b8063990dc9db146102215780639e95514914610251578063b401487914610271578063cf9d4afa1461029157600080fd5b80634051b9aa116100c65780634051b9aa1461019e57806352fd856b146101be57806363b48ee6146101d45780637d0f7a88146101f457600080fd5b80630cb1982b146100fb5780630fbbfa3e1461012e5780632637a4771461017c57600080fd5b366100f657600080fd5b600080fd5b34801561010757600080fd5b5061011b610116366004611cb1565b610363565b6040519081526020015b60405180910390f35b34801561013a57600080fd5b50610164610149366004611ce2565b6004602052600090815260409020546001600160a01b031681565b6040516001600160a01b039091168152602001610125565b34801561018857600080fd5b5061019c610197366004611ce2565b610417565b005b3480156101aa57600080fd5b5061019c6101b9366004611ce2565b610715565b3480156101ca57600080fd5b5061011b60005481565b3480156101e057600080fd5b506101646101ef366004611cb1565b610966565b34801561020057600080fd5b5061011b61020f366004611ce2565b60036020526000908152604090205481565b34801561022d57600080fd5b5061024161023c366004611cff565b610990565b6040519015158152602001610125565b34801561025d57600080fd5b5061019c61026c366004611ce2565b610d1f565b34801561027d57600080fd5b5061019c61028c366004611cff565b610d7c565b34801561029d57600080fd5b5061019c6102ac366004611ce2565b610e9a565b3480156102bd57600080fd5b506101646102cc366004611ce2565b6005602052600090815260409020546001600160a01b031681565b3480156102f357600080fd5b506102fc610f45565b60408051928352602083019190915201610125565b34801561031d57600080fd5b50600154610164906201000090046001600160a01b031681565b34801561034357600080fd5b506001546103519060ff1681565b60405160ff9091168152602001610125565b6000600160029054906101000a90046001600160a01b03166001600160a01b0316633f0a07976040518163ffffffff1660e01b8152600401602060405180830381865afa1580156103b8573d6000803e3d6000fd5b505050506040513d601f19601f820116820180604052508101906103dc9190611d2b565b6001600160a01b0316336001600160a01b0316146103f957600080fd5b8161040261111d565b61040c9190611d77565b600081905592915050565b336001600160a01b037f0000000000000000000000000000000000000000000000000000000000000000161461044c57600080fd5b6001546040517fa6fa0b7b0000000000000000000000000000000000000000000000000000000081526001600160a01b0383811660048301526201000090920490911690819063a6fa0b7b90602401600060405180830381600087803b1580156104b557600080fd5b505af11580156104c9573d6000803e3d6000fd5b50506040516001600160a01b03848116602483015285169250604401905060408051601f198184030181529181526020820180517bffffffffffffffffffffffffffffffffffffffffffffffffffffffff167fcf9d4afa000000000000000000000000000000000000000000000000000000001790525161054a9190611d8e565b600060405180830381855af49150503d8060008114610585576040519150601f19603f3d011682016040523d82523d6000602084013e61058a565b606091505b5050600254905060005b818110156106e8576000600282815481106105b1576105b1611dc9565b6000918252602090912001546040517f70a082310000000000000000000000000000000000000000000000000000000081523060048201526001600160a01b039091169150819063a9059cbb90879083906370a0823190602401602060405180830381865afa158015610628573d6000803e3d6000fd5b505050506040513d601f19601f8201168201806040525081019061064c9190611df8565b6040517fffffffff0000000000000000000000000000000000000000000000000000000060e085901b1681526001600160a01b03909216600483015260248201526044016020604051808303816000875af11580156106af573d6000803e3d6000fd5b505050506040513d601f19601f820116820180604052508101906106d39190611e11565b505080806106e090611e33565b915050610594565b507f00000000000000000000000000000000000000000000000000000000000000006001600160a01b0316ff5b336001600160a01b037f00000000000000000000000000000000000000000000000000000000000000001614806107d35750600160029054906101000a90046001600160a01b03166001600160a01b0316633f0a07976040518163ffffffff1660e01b8152600401602060405180830381865afa15801561079a573d6000803e3d6000fd5b505050506040513d601f19601f820116820180604052508101906107be9190611d2b565b6001600160a01b0316336001600160a01b0316145b6107dc57600080fd5b6001600160a01b03811660009081526003602052604090205460020361082d5760018054610100900460ff16908061081383611e4d565b91906101000a81548160ff021916908360ff160217905550505b6001600160a01b0381166000908152600360205260408120819055600254905b8181101561096157826001600160a01b03166002828154811061087257610872611dc9565b6000918252602090912001546001600160a01b03160361094f576002610899600184611d77565b815481106108a9576108a9611dc9565b600091825260209091200154600280546001600160a01b0390921691839081106108d5576108d5611dc9565b9060005260206000200160006101000a8154816001600160a01b0302191690836001600160a01b03160217905550600280548061091457610914611e6a565b600082815260209020810160001990810180547fffffffffffffffffffffffff00000000000000000000000000000000000000001690550190555b8061095981611e33565b91505061084d565b505050565b6002818154811061097657600080fd5b6000918252602090912001546001600160a01b0316905081565b600080600160029054906101000a90046001600160a01b03169050806001600160a01b0316633f0a07976040518163ffffffff1660e01b8152600401602060405180830381865afa1580156109e9573d6000803e3d6000fd5b505050506040513d601f19601f82011682018060405250810190610a0d9190611d2b565b6001600160a01b0316336001600160a01b03161480610a9e5750806001600160a01b031663da8909e56040518163ffffffff1660e01b8152600401602060405180830381865afa158015610a65573d6000803e3d6000fd5b505050506040513d601f19601f82011682018060405250810190610a899190611d2b565b6001600160a01b0316336001600160a01b0316145b610aa757600080fd5b60025460005b81811015610d1157600060028281548110610aca57610aca611dc9565b60009182526020808320909101546001600160a01b03168083526003909152604090912054909150600203610cfe576000816001600160a01b031663313ce5676040518163ffffffff1660e01b8152600401602060405180830381865afa158015610b39573d6000803e3d6000fd5b505050506040513d601f19601f82011682018060405250810190610b5d9190611e99565b905060128160ff161015610c40576001600160a01b03821663a9059cbb89610b89601260ff8616611d77565b610b9490600a611fa0565b600154610ba990610100900460ff168c611fdb565b610bb39190611fdb565b6040517fffffffff0000000000000000000000000000000000000000000000000000000060e085901b1681526001600160a01b03909216600483015260248201526044016020604051808303816000875af1158015610c16573d6000803e3d6000fd5b505050506040513d601f19601f82011682018060405250810190610c3a9190611e11565b50610cfc565b8060ff16601203610cfc576001546001600160a01b0383169063a9059cbb908a90610c7390610100900460ff168b611fdb565b6040517fffffffff0000000000000000000000000000000000000000000000000000000060e085901b1681526001600160a01b03909216600483015260248201526044016020604051808303816000875af1158015610cd6573d6000803e3d6000fd5b505050506040513d601f19601f82011682018060405250810190610cfa9190611e11565b505b505b5080610d0981611e33565b915050610aad565b506001925050505b92915050565b6001546201000090046001600160a01b03163314610d3c57600080fd5b600180546001600160a01b0390921662010000027fffffffffffffffffffff0000000000000000000000000000000000000000ffff909216919091179055565b336001600160a01b037f00000000000000000000000000000000000000000000000000000000000000001614610db157600080fd5b80600003610dda576001600160a01b038216600090815260036020526040902060019055610e2f565b80600103610e2f576001600160a01b03821660009081526003602052604090206002905560018054610100900460ff169080610e1583611fef565b91906101000a81548160ff021916908360ff160217905550505b50600280546001810182556000919091527f405787fa12a823e0f2b7631cc41b3ba8828b3321ca811111fa75cd3aa3bb5ace0180547fffffffffffffffffffffffff0000000000000000000000000000000000000000166001600160a01b0392909216919091179055565b336001600160a01b037f00000000000000000000000000000000000000000000000000000000000000001614610ecf57600080fd5b60015460ff1615610edf57600080fd5b600180547fffffffffffffffffffff0000000000000000000000000000000000000000ff0016620100006001600160a01b0393909316929092027fffffffffffffffffffffffffffffffffffffffffffffffffffffffffffffff00169190911781179055565b6000806000600160029054906101000a90046001600160a01b03166001600160a01b031663da8909e56040518163ffffffff1660e01b8152600401602060405180830381865afa158015610f9d573d6000803e3d6000fd5b505050506040513d601f19601f82011682018060405250810190610fc19190611d2b565b6001600160a01b031663d0b06f5d6040518163ffffffff1660e01b8152600401602060405180830381865afa158015610ffe573d6000803e3d6000fd5b505050506040513d601f19601f820116820180604052508101906110229190611df8565b90506000600160029054906101000a90046001600160a01b03166001600160a01b031663da8909e56040518163ffffffff1660e01b8152600401602060405180830381865afa158015611079573d6000803e3d6000fd5b505050506040513d601f19601f8201168201806040525081019061109d9190611d2b565b6001600160a01b0316637f8483a46040518163ffffffff1660e01b8152600401602060405180830381865afa1580156110da573d6000803e3d6000fd5b505050506040513d601f19601f820116820180604052508101906110fe9190611df8565b90508061110961111d565b6111139190611d77565b9491935090915050565b600254600090815b818110156112995760006002828154811061114257611142611dc9565b60009182526020822001546040517f70a082310000000000000000000000000000000000000000000000000000000081523060048201526001600160a01b03909116925082906370a0823190602401602060405180830381865afa1580156111ae573d6000803e3d6000fd5b505050506040513d601f19601f820116820180604052508101906111d29190611df8565b6001600160a01b038316600090815260036020526040902054909150600181900361126e576001600160a01b038084166000908152600460205260408120549091829161122091168261129e565b506001600160a01b0380871660009081526005602052604090205491925061124e918391879189911661152b565b915061125c9050818461200e565b611266908861202d565b965050611283565b8060020361128357611280828761202d565b95505b505050808061129190611e33565b915050611125565b505090565b6000808263ffffffff16600003611316576040517f08c379a000000000000000000000000000000000000000000000000000000000815260206004820152600260248201527f425000000000000000000000000000000000000000000000000000000000000060448201526064015b60405180910390fd5b604080516002808252606082018352600092602083019080368337019050509050838160008151811061134b5761134b611dc9565b602002602001019063ffffffff16908163ffffffff168152505060008160018151811061137a5761137a611dc9565b602002602001019063ffffffff16908163ffffffff1681525050600080866001600160a01b031663883bdbfd846040518263ffffffff1660e01b81526004016113c39190612074565b600060405180830381865afa1580156113e0573d6000803e3d6000fd5b505050506040513d6000823e601f3d908101601f191682016040526114089190810190612187565b9150915060008260008151811061142157611421611dc9565b60200260200101518360018151811061143c5761143c611dc9565b602002602001015161144e9190612253565b905060008260008151811061146557611465611dc9565b60200260200101518360018151811061148057611480611dc9565b602002602001015161149291906122bb565b90506114a2600389900b836122e3565b965060008260060b1280156114c657506114c0600389900b83612339565b60060b15155b156114d957866114d58161235b565b9750505b60006114f26001600160a01b0363ffffffff8b16612390565b905061151c77ffffffffffffffffffffffffffffffffffffffff00000000602084901b16826123d0565b96505050505050509250929050565b600080611537866116aa565b90506fffffffffffffffffffffffffffffffff6001600160a01b0382161161160257600061156e6001600160a01b0383168061200e565b9050836001600160a01b0316856001600160a01b0316106115c4576115bf7801000000000000000000000000000000000000000000000000876fffffffffffffffffffffffffffffffff1683611b2b565b6115fa565b6115fa81876fffffffffffffffffffffffffffffffff167801000000000000000000000000000000000000000000000000611b2b565b9250506116a1565b60006116216001600160a01b0383168068010000000000000000611b2b565b9050836001600160a01b0316856001600160a01b03161061166f5761166a700100000000000000000000000000000000876fffffffffffffffffffffffffffffffff1683611b2b565b61169d565b61169d81876fffffffffffffffffffffffffffffffff16700100000000000000000000000000000000611b2b565b9250505b50949350505050565b60008060008360020b126116c1578260020b6116ce565b8260020b6116ce90612407565b90506116f97ffffffffffffffffffffffffffffffffffffffffffffffffffffffffffff2761861243f565b62ffffff16811115611767576040517f08c379a000000000000000000000000000000000000000000000000000000000815260206004820152600160248201527f5400000000000000000000000000000000000000000000000000000000000000604482015260640161130d565b60008160011660000361178b5770010000000000000000000000000000000061179d565b6ffffcb933bd6fad37aa2d162d1a5940015b70ffffffffffffffffffffffffffffffffff16905060028216156117dc5760806117d7826ffff97272373d413259a46990580e213a61200e565b901c90505b6004821615611806576080611801826ffff2e50f5f656932ef12357cf3c7fdcc61200e565b901c90505b600882161561183057608061182b826fffe5caca7e10e4e61c3624eaa0941cd061200e565b901c90505b601082161561185a576080611855826fffcb9843d60f6159c9db58835c92664461200e565b901c90505b602082161561188457608061187f826fff973b41fa98c081472e6896dfb254c061200e565b901c90505b60408216156118ae5760806118a9826fff2ea16466c96a3843ec78b326b5286161200e565b901c90505b60808216156118d85760806118d3826ffe5dee046a99a2a811c461f1969c305361200e565b901c90505b6101008216156119035760806118fe826ffcbe86c7900a88aedcffc83b479aa3a461200e565b901c90505b61020082161561192e576080611929826ff987a7253ac413176f2b074cf7815e5461200e565b901c90505b610400821615611959576080611954826ff3392b0822b70005940c7a398e4b70f361200e565b901c90505b61080082161561198457608061197f826fe7159475a2c29b7443b29c7fa6e889d961200e565b901c90505b6110008216156119af5760806119aa826fd097f3bdfd2022b8845ad8f792aa582561200e565b901c90505b6120008216156119da5760806119d5826fa9f746462d870fdf8a65dc1f90e061e561200e565b901c90505b614000821615611a05576080611a00826f70d869a156d2a1b890bb3df62baf32f761200e565b901c90505b618000821615611a30576080611a2b826f31be135f97d08fd981231505542fcfa661200e565b901c90505b62010000821615611a5c576080611a57826f09aa508b5b7a84e1c677de54f3e99bc961200e565b901c90505b62020000821615611a87576080611a82826e5d6af8dedb81196699c329225ee60461200e565b901c90505b62040000821615611ab1576080611aac826d2216e584f5fa1ea926041bedfe9861200e565b901c90505b62080000821615611ad9576080611ad4826b048a170391f7dc42444e8fa261200e565b901c90505b60008460020b1315611af457611af181600019611fdb565b90505b611b036401000000008261247d565b15611b0f576001611b12565b60005b611b239060ff16602083901c61202d565b949350505050565b6000808060001985870985870292508281108382030391505080600003611b645760008411611b5957600080fd5b508290049050611caa565b808411611b7057600080fd5b600084868809808403938111909203919050600085611b9181600019611d77565b611b9c90600161202d565b16958690049593849004936000819003046001019050611bbc818461200e565b909317926000611bcd87600361200e565b6002189050611bdc818861200e565b611be7906002611d77565b611bf1908261200e565b9050611bfd818861200e565b611c08906002611d77565b611c12908261200e565b9050611c1e818861200e565b611c29906002611d77565b611c33908261200e565b9050611c3f818861200e565b611c4a906002611d77565b611c54908261200e565b9050611c60818861200e565b611c6b906002611d77565b611c75908261200e565b9050611c81818861200e565b611c8c906002611d77565b611c96908261200e565b9050611ca2818661200e565b955050505050505b9392505050565b600060208284031215611cc357600080fd5b5035919050565b6001600160a01b0381168114611cdf57600080fd5b50565b600060208284031215611cf457600080fd5b8135611caa81611cca565b60008060408385031215611d1257600080fd5b8235611d1d81611cca565b946020939093013593505050565b600060208284031215611d3d57600080fd5b8151611caa81611cca565b7f4e487b7100000000000000000000000000000000000000000000000000000000600052601160045260246000fd5b600082821015611d8957611d89611d48565b500390565b6000825160005b81811015611daf5760208186018101518583015201611d95565b81811115611dbe576000828501525b509190910192915050565b7f4e487b7100000000000000000000000000000000000000000000000000000000600052603260045260246000fd5b600060208284031215611e0a57600080fd5b5051919050565b600060208284031215611e2357600080fd5b81518015158114611caa57600080fd5b60006000198203611e4657611e46611d48565b5060010190565b600060ff821680611e6057611e60611d48565b6000190192915050565b7f4e487b7100000000000000000000000000000000000000000000000000000000600052603160045260246000fd5b600060208284031215611eab57600080fd5b815160ff81168114611caa57600080fd5b600181815b80851115611ef7578160001904821115611edd57611edd611d48565b80851615611eea57918102915b93841c9390800290611ec1565b509250929050565b600082611f0e57506001610d19565b81611f1b57506000610d19565b8160018114611f315760028114611f3b57611f57565b6001915050610d19565b60ff841115611f4c57611f4c611d48565b50506001821b610d19565b5060208310610133831016604e8410600b8410161715611f7a575081810a610d19565b611f848383611ebc565b8060001904821115611f9857611f98611d48565b029392505050565b6000611caa8383611eff565b7f4e487b7100000000000000000000000000000000000000000000000000000000600052601260045260246000fd5b600082611fea57611fea611fac565b500490565b600060ff821660ff810361200557612005611d48565b60010192915050565b600081600019048311821515161561202857612028611d48565b500290565b6000821982111561204057612040611d48565b500190565b7f4e487b7100000000000000000000000000000000000000000000000000000000600052604160045260246000fd5b6020808252825182820181905260009190848201906040850190845b818110156120b257835163ffffffff1683529284019291840191600101612090565b50909695505050505050565b604051601f8201601f1916810167ffffffffffffffff811182821017156120e7576120e7612045565b604052919050565b600067ffffffffffffffff82111561210957612109612045565b5060051b60200190565b600082601f83011261212457600080fd5b81516020612139612134836120ef565b6120be565b82815260059290921b8401810191818101908684111561215857600080fd5b8286015b8481101561217c57805161216f81611cca565b835291830191830161215c565b509695505050505050565b6000806040838503121561219a57600080fd5b825167ffffffffffffffff808211156121b257600080fd5b818501915085601f8301126121c657600080fd5b815160206121d6612134836120ef565b82815260059290921b840181019181810190898411156121f557600080fd5b948201945b838610156122235785518060060b81146122145760008081fd5b825294820194908201906121fa565b9188015191965090935050508082111561223c57600080fd5b5061224985828601612113565b9150509250929050565b60008160060b8360060b60008112817fffffffffffffffffffffffffffffffffffffffffffffffffff800000000000000183128115161561229657612296611d48565b81667fffffffffffff0183138116156122b1576122b1611d48565b5090039392505050565b60006001600160a01b03838116908316818110156122db576122db611d48565b039392505050565b60008160060b8360060b806122fa576122fa611fac565b60001981147fffffffffffffffffffffffffffffffffffffffffffffffffff800000000000008314161561233057612330611d48565b90059392505050565b60008260060b8061234c5761234c611fac565b808360060b0791505092915050565b60008160020b7fffffffffffffffffffffffffffffffffffffffffffffffffffffffffff8000008103611e6057611e60611d48565b600077ffffffffffffffffffffffffffffffffffffffffffffffff808316818516818304811182151516156123c7576123c7611d48565b02949350505050565b600077ffffffffffffffffffffffffffffffffffffffffffffffff808416806123fb576123fb611fac565b92169190910492915050565b60007f8000000000000000000000000000000000000000000000000000000000000000820361243857612438611d48565b5060000390565b60008160020b7fffffffffffffffffffffffffffffffffffffffffffffffffffffffffff800000810361247457612474611d48565b60000392915050565b60008261248c5761248c611fac565b50069056fea2646970667358221220ecec9a795266c982911a3ab5a99e3b530f7adc6c687bfca8d89c788007d5650a64736f6c634300080e0033",
			"opcodes": "PUSH1 0xA0 PUSH1 0x40 MSTORE CALLVALUE DUP1 ISZERO PUSH2 0x10 JUMPI PUSH1 0x0 DUP1 REVERT JUMPDEST POP CALLER PUSH1 0x80 MSTORE PUSH1 0x80 MLOAD PUSH2 0x24C7 PUSH2 0x4C PUSH1 0x0 CODECOPY PUSH1 0x0 DUP2 DUP2 PUSH2 0x422 ADD MSTORE DUP2 DUP2 PUSH2 0x6EB ADD MSTORE DUP2 DUP2 PUSH2 0x720 ADD MSTORE DUP2 DUP2 PUSH2 0xD87 ADD MSTORE PUSH2 0xEA5 ADD MSTORE PUSH2 0x24C7 PUSH1 0x0 RETURN INVALID PUSH1 0x80 PUSH1 0x40 MSTORE PUSH1 0x4 CALLDATASIZE LT PUSH2 0xEC JUMPI PUSH1 0x0 CALLDATALOAD PUSH1 0xE0 SHR DUP1 PUSH4 0x990DC9DB GT PUSH2 0x8A JUMPI DUP1 PUSH4 0xD825BFFF GT PUSH2 0x59 JUMPI DUP1 PUSH4 0xD825BFFF EQ PUSH2 0x2B1 JUMPI DUP1 PUSH4 0xDEF1A5E8 EQ PUSH2 0x2E7 JUMPI DUP1 PUSH4 0xEC556889 EQ PUSH2 0x311 JUMPI DUP1 PUSH4 0xFED0A20E EQ PUSH2 0x337 JUMPI PUSH1 0x0 DUP1 REVERT JUMPDEST DUP1 PUSH4 0x990DC9DB EQ PUSH2 0x221 JUMPI DUP1 PUSH4 0x9E955149 EQ PUSH2 0x251 JUMPI DUP1 PUSH4 0xB4014879 EQ PUSH2 0x271 JUMPI DUP1 PUSH4 0xCF9D4AFA EQ PUSH2 0x291 JUMPI PUSH1 0x0 DUP1 REVERT JUMPDEST DUP1 PUSH4 0x4051B9AA GT PUSH2 0xC6 JUMPI DUP1 PUSH4 0x4051B9AA EQ PUSH2 0x19E JUMPI DUP1 PUSH4 0x52FD856B EQ PUSH2 0x1BE JUMPI DUP1 PUSH4 0x63B48EE6 EQ PUSH2 0x1D4 JUMPI DUP1 PUSH4 0x7D0F7A88 EQ PUSH2 0x1F4 JUMPI PUSH1 0x0 DUP1 REVERT JUMPDEST DUP1 PUSH4 0xCB1982B EQ PUSH2 0xFB JUMPI DUP1 PUSH4 0xFBBFA3E EQ PUSH2 0x12E JUMPI DUP1 PUSH4 0x2637A477 EQ PUSH2 0x17C JUMPI PUSH1 0x0 DUP1 REVERT JUMPDEST CALLDATASIZE PUSH2 0xF6 JUMPI PUSH1 0x0 DUP1 REVERT JUMPDEST PUSH1 0x0 DUP1 REVERT JUMPDEST CALLVALUE DUP1 ISZERO PUSH2 0x107 JUMPI PUSH1 0x0 DUP1 REVERT JUMPDEST POP PUSH2 0x11B PUSH2 0x116 CALLDATASIZE PUSH1 0x4 PUSH2 0x1CB1 JUMP JUMPDEST PUSH2 0x363 JUMP JUMPDEST PUSH1 0x40 MLOAD SWAP1 DUP2 MSTORE PUSH1 0x20 ADD JUMPDEST PUSH1 0x40 MLOAD DUP1 SWAP2 SUB SWAP1 RETURN JUMPDEST CALLVALUE DUP1 ISZERO PUSH2 0x13A JUMPI PUSH1 0x0 DUP1 REVERT JUMPDEST POP PUSH2 0x164 PUSH2 0x149 CALLDATASIZE PUSH1 0x4 PUSH2 0x1CE2 JUMP JUMPDEST PUSH1 0x4 PUSH1 0x20 MSTORE PUSH1 0x0 SWAP1 DUP2 MSTORE PUSH1 0x40 SWAP1 KECCAK256 SLOAD PUSH1 0x1 PUSH1 0x1 PUSH1 0xA0 SHL SUB AND DUP2 JUMP JUMPDEST PUSH1 0x40 MLOAD PUSH1 0x1 PUSH1 0x1 PUSH1 0xA0 SHL SUB SWAP1 SWAP2 AND DUP2 MSTORE PUSH1 0x20 ADD PUSH2 0x125 JUMP JUMPDEST CALLVALUE DUP1 ISZERO PUSH2 0x188 JUMPI PUSH1 0x0 DUP1 REVERT JUMPDEST POP PUSH2 0x19C PUSH2 0x197 CALLDATASIZE PUSH1 0x4 PUSH2 0x1CE2 JUMP JUMPDEST PUSH2 0x417 JUMP JUMPDEST STOP JUMPDEST CALLVALUE DUP1 ISZERO PUSH2 0x1AA JUMPI PUSH1 0x0 DUP1 REVERT JUMPDEST POP PUSH2 0x19C PUSH2 0x1B9 CALLDATASIZE PUSH1 0x4 PUSH2 0x1CE2 JUMP JUMPDEST PUSH2 0x715 JUMP JUMPDEST CALLVALUE DUP1 ISZERO PUSH2 0x1CA JUMPI PUSH1 0x0 DUP1 REVERT JUMPDEST POP PUSH2 0x11B PUSH1 0x0 SLOAD DUP2 JUMP JUMPDEST CALLVALUE DUP1 ISZERO PUSH2 0x1E0 JUMPI PUSH1 0x0 DUP1 REVERT JUMPDEST POP PUSH2 0x164 PUSH2 0x1EF CALLDATASIZE PUSH1 0x4 PUSH2 0x1CB1 JUMP JUMPDEST PUSH2 0x966 JUMP JUMPDEST CALLVALUE DUP1 ISZERO PUSH2 0x200 JUMPI PUSH1 0x0 DUP1 REVERT JUMPDEST POP PUSH2 0x11B PUSH2 0x20F CALLDATASIZE PUSH1 0x4 PUSH2 0x1CE2 JUMP JUMPDEST PUSH1 0x3 PUSH1 0x20 MSTORE PUSH1 0x0 SWAP1 DUP2 MSTORE PUSH1 0x40 SWAP1 KECCAK256 SLOAD DUP2 JUMP JUMPDEST CALLVALUE DUP1 ISZERO PUSH2 0x22D JUMPI PUSH1 0x0 DUP1 REVERT JUMPDEST POP PUSH2 0x241 PUSH2 0x23C CALLDATASIZE PUSH1 0x4 PUSH2 0x1CFF JUMP JUMPDEST PUSH2 0x990 JUMP JUMPDEST PUSH1 0x40 MLOAD SWAP1 ISZERO ISZERO DUP2 MSTORE PUSH1 0x20 ADD PUSH2 0x125 JUMP JUMPDEST CALLVALUE DUP1 ISZERO PUSH2 0x25D JUMPI PUSH1 0x0 DUP1 REVERT JUMPDEST POP PUSH2 0x19C PUSH2 0x26C CALLDATASIZE PUSH1 0x4 PUSH2 0x1CE2 JUMP JUMPDEST PUSH2 0xD1F JUMP JUMPDEST CALLVALUE DUP1 ISZERO PUSH2 0x27D JUMPI PUSH1 0x0 DUP1 REVERT JUMPDEST POP PUSH2 0x19C PUSH2 0x28C CALLDATASIZE PUSH1 0x4 PUSH2 0x1CFF JUMP JUMPDEST PUSH2 0xD7C JUMP JUMPDEST CALLVALUE DUP1 ISZERO PUSH2 0x29D JUMPI PUSH1 0x0 DUP1 REVERT JUMPDEST POP PUSH2 0x19C PUSH2 0x2AC CALLDATASIZE PUSH1 0x4 PUSH2 0x1CE2 JUMP JUMPDEST PUSH2 0xE9A JUMP JUMPDEST CALLVALUE DUP1 ISZERO PUSH2 0x2BD JUMPI PUSH1 0x0 DUP1 REVERT JUMPDEST POP PUSH2 0x164 PUSH2 0x2CC CALLDATASIZE PUSH1 0x4 PUSH2 0x1CE2 JUMP JUMPDEST PUSH1 0x5 PUSH1 0x20 MSTORE PUSH1 0x0 SWAP1 DUP2 MSTORE PUSH1 0x40 SWAP1 KECCAK256 SLOAD PUSH1 0x1 PUSH1 0x1 PUSH1 0xA0 SHL SUB AND DUP2 JUMP JUMPDEST CALLVALUE DUP1 ISZERO PUSH2 0x2F3 JUMPI PUSH1 0x0 DUP1 REVERT JUMPDEST POP PUSH2 0x2FC PUSH2 0xF45 JUMP JUMPDEST PUSH1 0x40 DUP1 MLOAD SWAP3 DUP4 MSTORE PUSH1 0x20 DUP4 ADD SWAP2 SWAP1 SWAP2 MSTORE ADD PUSH2 0x125 JUMP JUMPDEST CALLVALUE DUP1 ISZERO PUSH2 0x31D JUMPI PUSH1 0x0 DUP1 REVERT JUMPDEST POP PUSH1 0x1 SLOAD PUSH2 0x164 SWAP1 PUSH3 0x10000 SWAP1 DIV PUSH1 0x1 PUSH1 0x1 PUSH1 0xA0 SHL SUB AND DUP2 JUMP JUMPDEST CALLVALUE DUP1 ISZERO PUSH2 0x343 JUMPI PUSH1 0x0 DUP1 REVERT JUMPDEST POP PUSH1 0x1 SLOAD PUSH2 0x351 SWAP1 PUSH1 0xFF AND DUP2 JUMP JUMPDEST PUSH1 0x40 MLOAD PUSH1 0xFF SWAP1 SWAP2 AND DUP2 MSTORE PUSH1 0x20 ADD PUSH2 0x125 JUMP JUMPDEST PUSH1 0x0 PUSH1 0x1 PUSH1 0x2 SWAP1 SLOAD SWAP1 PUSH2 0x100 EXP SWAP1 DIV PUSH1 0x1 PUSH1 0x1 PUSH1 0xA0 SHL SUB AND PUSH1 0x1 PUSH1 0x1 PUSH1 0xA0 SHL SUB AND PUSH4 0x3F0A0797 PUSH1 0x40 MLOAD DUP2 PUSH4 0xFFFFFFFF AND PUSH1 0xE0 SHL DUP2 MSTORE PUSH1 0x4 ADD PUSH1 0x20 PUSH1 0x40 MLOAD DUP1 DUP4 SUB DUP2 DUP7 GAS STATICCALL ISZERO DUP1 ISZERO PUSH2 0x3B8 JUMPI RETURNDATASIZE PUSH1 0x0 DUP1 RETURNDATACOPY RETURNDATASIZE PUSH1 0x0 REVERT JUMPDEST POP POP POP POP PUSH1 0x40 MLOAD RETURNDATASIZE PUSH1 0x1F NOT PUSH1 0x1F DUP3 ADD AND DUP3 ADD DUP1 PUSH1 0x40 MSTORE POP DUP2 ADD SWAP1 PUSH2 0x3DC SWAP2 SWAP1 PUSH2 0x1D2B JUMP JUMPDEST PUSH1 0x1 PUSH1 0x1 PUSH1 0xA0 SHL SUB AND CALLER PUSH1 0x1 PUSH1 0x1 PUSH1 0xA0 SHL SUB AND EQ PUSH2 0x3F9 JUMPI PUSH1 0x0 DUP1 REVERT JUMPDEST DUP2 PUSH2 0x402 PUSH2 0x111D JUMP JUMPDEST PUSH2 0x40C SWAP2 SWAP1 PUSH2 0x1D77 JUMP JUMPDEST PUSH1 0x0 DUP2 SWAP1 SSTORE SWAP3 SWAP2 POP POP JUMP JUMPDEST CALLER PUSH1 0x1 PUSH1 0x1 PUSH1 0xA0 SHL SUB PUSH32 0x0 AND EQ PUSH2 0x44C JUMPI PUSH1 0x0 DUP1 REVERT JUMPDEST PUSH1 0x1 SLOAD PUSH1 0x40 MLOAD PUSH32 0xA6FA0B7B00000000000000000000000000000000000000000000000000000000 DUP2 MSTORE PUSH1 0x1 PUSH1 0x1 PUSH1 0xA0 SHL SUB DUP4 DUP2 AND PUSH1 0x4 DUP4 ADD MSTORE PUSH3 0x10000 SWAP1 SWAP3 DIV SWAP1 SWAP2 AND SWAP1 DUP2 SWAP1 PUSH4 0xA6FA0B7B SWAP1 PUSH1 0x24 ADD PUSH1 0x0 PUSH1 0x40 MLOAD DUP1 DUP4 SUB DUP2 PUSH1 0x0 DUP8 DUP1 EXTCODESIZE ISZERO DUP1 ISZERO PUSH2 0x4B5 JUMPI PUSH1 0x0 DUP1 REVERT JUMPDEST POP GAS CALL ISZERO DUP1 ISZERO PUSH2 0x4C9 JUMPI RETURNDATASIZE PUSH1 0x0 DUP1 RETURNDATACOPY RETURNDATASIZE PUSH1 0x0 REVERT JUMPDEST POP POP PUSH1 0x40 MLOAD PUSH1 0x1 PUSH1 0x1 PUSH1 0xA0 SHL SUB DUP5 DUP2 AND PUSH1 0x24 DUP4 ADD MSTORE DUP6 AND SWAP3 POP PUSH1 0x44 ADD SWAP1 POP PUSH1 0x40 DUP1 MLOAD PUSH1 0x1F NOT DUP2 DUP5 SUB ADD DUP2 MSTORE SWAP2 DUP2 MSTORE PUSH1 0x20 DUP3 ADD DUP1 MLOAD PUSH28 0xFFFFFFFFFFFFFFFFFFFFFFFFFFFFFFFFFFFFFFFFFFFFFFFFFFFFFFFF AND PUSH32 0xCF9D4AFA00000000000000000000000000000000000000000000000000000000 OR SWAP1 MSTORE MLOAD PUSH2 0x54A SWAP2 SWAP1 PUSH2 0x1D8E JUMP JUMPDEST PUSH1 0x0 PUSH1 0x40 MLOAD DUP1 DUP4 SUB DUP2 DUP6 GAS DELEGATECALL SWAP2 POP POP RETURNDATASIZE DUP1 PUSH1 0x0 DUP2 EQ PUSH2 0x585 JUMPI PUSH1 0x40 MLOAD SWAP2 POP PUSH1 0x1F NOT PUSH1 0x3F RETURNDATASIZE ADD AND DUP3 ADD PUSH1 0x40 MSTORE RETURNDATASIZE DUP3 MSTORE RETURNDATASIZE PUSH1 0x0 PUSH1 0x20 DUP5 ADD RETURNDATACOPY PUSH2 0x58A JUMP JUMPDEST PUSH1 0x60 SWAP2 POP JUMPDEST POP POP PUSH1 0x2 SLOAD SWAP1 POP PUSH1 0x0 JUMPDEST DUP2 DUP2 LT ISZERO PUSH2 0x6E8 JUMPI PUSH1 0x0 PUSH1 0x2 DUP3 DUP2 SLOAD DUP2 LT PUSH2 0x5B1 JUMPI PUSH2 0x5B1 PUSH2 0x1DC9 JUMP JUMPDEST PUSH1 0x0 SWAP2 DUP3 MSTORE PUSH1 0x20 SWAP1 SWAP2 KECCAK256 ADD SLOAD PUSH1 0x40 MLOAD PUSH32 0x70A0823100000000000000000000000000000000000000000000000000000000 DUP2 MSTORE ADDRESS PUSH1 0x4 DUP3 ADD MSTORE PUSH1 0x1 PUSH1 0x1 PUSH1 0xA0 SHL SUB SWAP1 SWAP2 AND SWAP2 POP DUP2 SWAP1 PUSH4 0xA9059CBB SWAP1 DUP8 SWAP1 DUP4 SWAP1 PUSH4 0x70A08231 SWAP1 PUSH1 0x24 ADD PUSH1 0x20 PUSH1 0x40 MLOAD DUP1 DUP4 SUB DUP2 DUP7 GAS STATICCALL ISZERO DUP1 ISZERO PUSH2 0x628 JUMPI RETURNDATASIZE PUSH1 0x0 DUP1 RETURNDATACOPY RETURNDATASIZE PUSH1 0x0 REVERT JUMPDEST POP POP POP POP PUSH1 0x40 MLOAD RETURNDATASIZE PUSH1 0x1F NOT PUSH1 0x1F DUP3 ADD AND DUP3 ADD DUP1 PUSH1 0x40 MSTORE POP DUP2 ADD SWAP1 PUSH2 0x64C SWAP2 SWAP1 PUSH2 0x1DF8 JUMP JUMPDEST PUSH1 0x40 MLOAD PUSH32 0xFFFFFFFF00000000000000000000000000000000000000000000000000000000 PUSH1 0xE0 DUP6 SWAP1 SHL AND DUP2 MSTORE PUSH1 0x1 PUSH1 0x1 PUSH1 0xA0 SHL SUB SWAP1 SWAP3 AND PUSH1 0x4 DUP4 ADD MSTORE PUSH1 0x24 DUP3 ADD MSTORE PUSH1 0x44 ADD PUSH1 0x20 PUSH1 0x40 MLOAD DUP1 DUP4 SUB DUP2 PUSH1 0x0 DUP8 GAS CALL ISZERO DUP1 ISZERO PUSH2 0x6AF JUMPI RETURNDATASIZE PUSH1 0x0 DUP1 RETURNDATACOPY RETURNDATASIZE PUSH1 0x0 REVERT JUMPDEST POP POP POP POP PUSH1 0x40 MLOAD RETURNDATASIZE PUSH1 0x1F NOT PUSH1 0x1F DUP3 ADD AND DUP3 ADD DUP1 PUSH1 0x40 MSTORE POP DUP2 ADD SWAP1 PUSH2 0x6D3 SWAP2 SWAP1 PUSH2 0x1E11 JUMP JUMPDEST POP POP DUP1 DUP1 PUSH2 0x6E0 SWAP1 PUSH2 0x1E33 JUMP JUMPDEST SWAP2 POP POP PUSH2 0x594 JUMP JUMPDEST POP PUSH32 0x0 PUSH1 0x1 PUSH1 0x1 PUSH1 0xA0 SHL SUB AND SELFDESTRUCT JUMPDEST CALLER PUSH1 0x1 PUSH1 0x1 PUSH1 0xA0 SHL SUB PUSH32 0x0 AND EQ DUP1 PUSH2 0x7D3 JUMPI POP PUSH1 0x1 PUSH1 0x2 SWAP1 SLOAD SWAP1 PUSH2 0x100 EXP SWAP1 DIV PUSH1 0x1 PUSH1 0x1 PUSH1 0xA0 SHL SUB AND PUSH1 0x1 PUSH1 0x1 PUSH1 0xA0 SHL SUB AND PUSH4 0x3F0A0797 PUSH1 0x40 MLOAD DUP2 PUSH4 0xFFFFFFFF AND PUSH1 0xE0 SHL DUP2 MSTORE PUSH1 0x4 ADD PUSH1 0x20 PUSH1 0x40 MLOAD DUP1 DUP4 SUB DUP2 DUP7 GAS STATICCALL ISZERO DUP1 ISZERO PUSH2 0x79A JUMPI RETURNDATASIZE PUSH1 0x0 DUP1 RETURNDATACOPY RETURNDATASIZE PUSH1 0x0 REVERT JUMPDEST POP POP POP POP PUSH1 0x40 MLOAD RETURNDATASIZE PUSH1 0x1F NOT PUSH1 0x1F DUP3 ADD AND DUP3 ADD DUP1 PUSH1 0x40 MSTORE POP DUP2 ADD SWAP1 PUSH2 0x7BE SWAP2 SWAP1 PUSH2 0x1D2B JUMP JUMPDEST PUSH1 0x1 PUSH1 0x1 PUSH1 0xA0 SHL SUB AND CALLER PUSH1 0x1 PUSH1 0x1 PUSH1 0xA0 SHL SUB AND EQ JUMPDEST PUSH2 0x7DC JUMPI PUSH1 0x0 DUP1 REVERT JUMPDEST PUSH1 0x1 PUSH1 0x1 PUSH1 0xA0 SHL SUB DUP2 AND PUSH1 0x0 SWAP1 DUP2 MSTORE PUSH1 0x3 PUSH1 0x20 MSTORE PUSH1 0x40 SWAP1 KECCAK256 SLOAD PUSH1 0x2 SUB PUSH2 0x82D JUMPI PUSH1 0x1 DUP1 SLOAD PUSH2 0x100 SWAP1 DIV PUSH1 0xFF AND SWAP1 DUP1 PUSH2 0x813 DUP4 PUSH2 0x1E4D JUMP JUMPDEST SWAP2 SWAP1 PUSH2 0x100 EXP DUP2 SLOAD DUP2 PUSH1 0xFF MUL NOT AND SWAP1 DUP4 PUSH1 0xFF AND MUL OR SWAP1 SSTORE POP POP JUMPDEST PUSH1 0x1 PUSH1 0x1 PUSH1 0xA0 SHL SUB DUP2 AND PUSH1 0x0 SWAP1 DUP2 MSTORE PUSH1 0x3 PUSH1 0x20 MSTORE PUSH1 0x40 DUP2 KECCAK256 DUP2 SWAP1 SSTORE PUSH1 0x2 SLOAD SWAP1 JUMPDEST DUP2 DUP2 LT ISZERO PUSH2 0x961 JUMPI DUP3 PUSH1 0x1 PUSH1 0x1 PUSH1 0xA0 SHL SUB AND PUSH1 0x2 DUP3 DUP2 SLOAD DUP2 LT PUSH2 0x872 JUMPI PUSH2 0x872 PUSH2 0x1DC9 JUMP JUMPDEST PUSH1 0x0 SWAP2 DUP3 MSTORE PUSH1 0x20 SWAP1 SWAP2 KECCAK256 ADD SLOAD PUSH1 0x1 PUSH1 0x1 PUSH1 0xA0 SHL SUB AND SUB PUSH2 0x94F JUMPI PUSH1 0x2 PUSH2 0x899 PUSH1 0x1 DUP5 PUSH2 0x1D77 JUMP JUMPDEST DUP2 SLOAD DUP2 LT PUSH2 0x8A9 JUMPI PUSH2 0x8A9 PUSH2 0x1DC9 JUMP JUMPDEST PUSH1 0x0 SWAP2 DUP3 MSTORE PUSH1 0x20 SWAP1 SWAP2 KECCAK256 ADD SLOAD PUSH1 0x2 DUP1 SLOAD PUSH1 0x1 PUSH1 0x1 PUSH1 0xA0 SHL SUB SWAP1 SWAP3 AND SWAP2 DUP4 SWAP1 DUP2 LT PUSH2 0x8D5 JUMPI PUSH2 0x8D5 PUSH2 0x1DC9 JUMP JUMPDEST SWAP1 PUSH1 0x0 MSTORE PUSH1 0x20 PUSH1 0x0 KECCAK256 ADD PUSH1 0x0 PUSH2 0x100 EXP DUP2 SLOAD DUP2 PUSH1 0x1 PUSH1 0x1 PUSH1 0xA0 SHL SUB MUL NOT AND SWAP1 DUP4 PUSH1 0x1 PUSH1 0x1 PUSH1 0xA0 SHL SUB AND MUL OR SWAP1 SSTORE POP PUSH1 0x2 DUP1 SLOAD DUP1 PUSH2 0x914 JUMPI PUSH2 0x914 PUSH2 0x1E6A JUMP JUMPDEST PUSH1 0x0 DUP3 DUP2 MSTORE PUSH1 0x20 SWAP1 KECCAK256 DUP2 ADD PUSH1 0x0 NOT SWAP1 DUP2 ADD DUP1 SLOAD PUSH32 0xFFFFFFFFFFFFFFFFFFFFFFFF0000000000000000000000000000000000000000 AND SWAP1 SSTORE ADD SWAP1 SSTORE JUMPDEST DUP1 PUSH2 0x959 DUP2 PUSH2 0x1E33 JUMP JUMPDEST SWAP2 POP POP PUSH2 0x84D JUMP JUMPDEST POP POP POP JUMP JUMPDEST PUSH1 0x2 DUP2 DUP2 SLOAD DUP2 LT PUSH2 0x976 JUMPI PUSH1 0x0 DUP1 REVERT JUMPDEST PUSH1 0x0 SWAP2 DUP3 MSTORE PUSH1 0x20 SWAP1 SWAP2 KECCAK256 ADD SLOAD PUSH1 0x1 PUSH1 0x1 PUSH1 0xA0 SHL SUB AND SWAP1 POP DUP2 JUMP JUMPDEST PUSH1 0x0 DUP1 PUSH1 0x1 PUSH1 0x2 SWAP1 SLOAD SWAP1 PUSH2 0x100 EXP SWAP1 DIV PUSH1 0x1 PUSH1 0x1 PUSH1 0xA0 SHL SUB AND SWAP1 POP DUP1 PUSH1 0x1 PUSH1 0x1 PUSH1 0xA0 SHL SUB AND PUSH4 0x3F0A0797 PUSH1 0x40 MLOAD DUP2 PUSH4 0xFFFFFFFF AND PUSH1 0xE0 SHL DUP2 MSTORE PUSH1 0x4 ADD PUSH1 0x20 PUSH1 0x40 MLOAD DUP1 DUP4 SUB DUP2 DUP7 GAS STATICCALL ISZERO DUP1 ISZERO PUSH2 0x9E9 JUMPI RETURNDATASIZE PUSH1 0x0 DUP1 RETURNDATACOPY RETURNDATASIZE PUSH1 0x0 REVERT JUMPDEST POP POP POP POP PUSH1 0x40 MLOAD RETURNDATASIZE PUSH1 0x1F NOT PUSH1 0x1F DUP3 ADD AND DUP3 ADD DUP1 PUSH1 0x40 MSTORE POP DUP2 ADD SWAP1 PUSH2 0xA0D SWAP2 SWAP1 PUSH2 0x1D2B JUMP JUMPDEST PUSH1 0x1 PUSH1 0x1 PUSH1 0xA0 SHL SUB AND CALLER PUSH1 0x1 PUSH1 0x1 PUSH1 0xA0 SHL SUB AND EQ DUP1 PUSH2 0xA9E JUMPI POP DUP1 PUSH1 0x1 PUSH1 0x1 PUSH1 0xA0 SHL SUB AND PUSH4 0xDA8909E5 PUSH1 0x40 MLOAD DUP2 PUSH4 0xFFFFFFFF AND PUSH1 0xE0 SHL DUP2 MSTORE PUSH1 0x4 ADD PUSH1 0x20 PUSH1 0x40 MLOAD DUP1 DUP4 SUB DUP2 DUP7 GAS STATICCALL ISZERO DUP1 ISZERO PUSH2 0xA65 JUMPI RETURNDATASIZE PUSH1 0x0 DUP1 RETURNDATACOPY RETURNDATASIZE PUSH1 0x0 REVERT JUMPDEST POP POP POP POP PUSH1 0x40 MLOAD RETURNDATASIZE PUSH1 0x1F NOT PUSH1 0x1F DUP3 ADD AND DUP3 ADD DUP1 PUSH1 0x40 MSTORE POP DUP2 ADD SWAP1 PUSH2 0xA89 SWAP2 SWAP1 PUSH2 0x1D2B JUMP JUMPDEST PUSH1 0x1 PUSH1 0x1 PUSH1 0xA0 SHL SUB AND CALLER PUSH1 0x1 PUSH1 0x1 PUSH1 0xA0 SHL SUB AND EQ JUMPDEST PUSH2 0xAA7 JUMPI PUSH1 0x0 DUP1 REVERT JUMPDEST PUSH1 0x2 SLOAD PUSH1 0x0 JUMPDEST DUP2 DUP2 LT ISZERO PUSH2 0xD11 JUMPI PUSH1 0x0 PUSH1 0x2 DUP3 DUP2 SLOAD DUP2 LT PUSH2 0xACA JUMPI PUSH2 0xACA PUSH2 0x1DC9 JUMP JUMPDEST PUSH1 0x0 SWAP2 DUP3 MSTORE PUSH1 0x20 DUP1 DUP4 KECCAK256 SWAP1 SWAP2 ADD SLOAD PUSH1 0x1 PUSH1 0x1 PUSH1 0xA0 SHL SUB AND DUP1 DUP4 MSTORE PUSH1 0x3 SWAP1 SWAP2 MSTORE PUSH1 0x40 SWAP1 SWAP2 KECCAK256 SLOAD SWAP1 SWAP2 POP PUSH1 0x2 SUB PUSH2 0xCFE JUMPI PUSH1 0x0 DUP2 PUSH1 0x1 PUSH1 0x1 PUSH1 0xA0 SHL SUB AND PUSH4 0x313CE567 PUSH1 0x40 MLOAD DUP2 PUSH4 0xFFFFFFFF AND PUSH1 0xE0 SHL DUP2 MSTORE PUSH1 0x4 ADD PUSH1 0x20 PUSH1 0x40 MLOAD DUP1 DUP4 SUB DUP2 DUP7 GAS STATICCALL ISZERO DUP1 ISZERO PUSH2 0xB39 JUMPI RETURNDATASIZE PUSH1 0x0 DUP1 RETURNDATACOPY RETURNDATASIZE PUSH1 0x0 REVERT JUMPDEST POP POP POP POP PUSH1 0x40 MLOAD RETURNDATASIZE PUSH1 0x1F NOT PUSH1 0x1F DUP3 ADD AND DUP3 ADD DUP1 PUSH1 0x40 MSTORE POP DUP2 ADD SWAP1 PUSH2 0xB5D SWAP2 SWAP1 PUSH2 0x1E99 JUMP JUMPDEST SWAP1 POP PUSH1 0x12 DUP2 PUSH1 0xFF AND LT ISZERO PUSH2 0xC40 JUMPI PUSH1 0x1 PUSH1 0x1 PUSH1 0xA0 SHL SUB DUP3 AND PUSH4 0xA9059CBB DUP10 PUSH2 0xB89 PUSH1 0x12 PUSH1 0xFF DUP7 AND PUSH2 0x1D77 JUMP JUMPDEST PUSH2 0xB94 SWAP1 PUSH1 0xA PUSH2 0x1FA0 JUMP JUMPDEST PUSH1 0x1 SLOAD PUSH2 0xBA9 SWAP1 PUSH2 0x100 SWAP1 DIV PUSH1 0xFF AND DUP13 PUSH2 0x1FDB JUMP JUMPDEST PUSH2 0xBB3 SWAP2 SWAP1 PUSH2 0x1FDB JUMP JUMPDEST PUSH1 0x40 MLOAD PUSH32 0xFFFFFFFF00000000000000000000000000000000000000000000000000000000 PUSH1 0xE0 DUP6 SWAP1 SHL AND DUP2 MSTORE PUSH1 0x1 PUSH1 0x1 PUSH1 0xA0 SHL SUB SWAP1 SWAP3 AND PUSH1 0x4 DUP4 ADD MSTORE PUSH1 0x24 DUP3 ADD MSTORE PUSH1 0x44 ADD PUSH1 0x20 PUSH1 0x40 MLOAD DUP1 DUP4 SUB DUP2 PUSH1 0x0 DUP8 GAS CALL ISZERO DUP1 ISZERO PUSH2 0xC16 JUMPI RETURNDATASIZE PUSH1 0x0 DUP1 RETURNDATACOPY RETURNDATASIZE PUSH1 0x0 REVERT JUMPDEST POP POP POP POP PUSH1 0x40 MLOAD RETURNDATASIZE PUSH1 0x1F NOT PUSH1 0x1F DUP3 ADD AND DUP3 ADD DUP1 PUSH1 0x40 MSTORE POP DUP2 ADD SWAP1 PUSH2 0xC3A SWAP2 SWAP1 PUSH2 0x1E11 JUMP JUMPDEST POP PUSH2 0xCFC JUMP JUMPDEST DUP1 PUSH1 0xFF AND PUSH1 0x12 SUB PUSH2 0xCFC JUMPI PUSH1 0x1 SLOAD PUSH1 0x1 PUSH1 0x1 PUSH1 0xA0 SHL SUB DUP4 AND SWAP1 PUSH4 0xA9059CBB SWAP1 DUP11 SWAP1 PUSH2 0xC73 SWAP1 PUSH2 0x100 SWAP1 DIV PUSH1 0xFF AND DUP12 PUSH2 0x1FDB JUMP JUMPDEST PUSH1 0x40 MLOAD PUSH32 0xFFFFFFFF00000000000000000000000000000000000000000000000000000000 PUSH1 0xE0 DUP6 SWAP1 SHL AND DUP2 MSTORE PUSH1 0x1 PUSH1 0x1 PUSH1 0xA0 SHL SUB SWAP1 SWAP3 AND PUSH1 0x4 DUP4 ADD MSTORE PUSH1 0x24 DUP3 ADD MSTORE PUSH1 0x44 ADD PUSH1 0x20 PUSH1 0x40 MLOAD DUP1 DUP4 SUB DUP2 PUSH1 0x0 DUP8 GAS CALL ISZERO DUP1 ISZERO PUSH2 0xCD6 JUMPI RETURNDATASIZE PUSH1 0x0 DUP1 RETURNDATACOPY RETURNDATASIZE PUSH1 0x0 REVERT JUMPDEST POP POP POP POP PUSH1 0x40 MLOAD RETURNDATASIZE PUSH1 0x1F NOT PUSH1 0x1F DUP3 ADD AND DUP3 ADD DUP1 PUSH1 0x40 MSTORE POP DUP2 ADD SWAP1 PUSH2 0xCFA SWAP2 SWAP1 PUSH2 0x1E11 JUMP JUMPDEST POP JUMPDEST POP JUMPDEST POP DUP1 PUSH2 0xD09 DUP2 PUSH2 0x1E33 JUMP JUMPDEST SWAP2 POP POP PUSH2 0xAAD JUMP JUMPDEST POP PUSH1 0x1 SWAP3 POP POP POP JUMPDEST SWAP3 SWAP2 POP POP JUMP JUMPDEST PUSH1 0x1 SLOAD PUSH3 0x10000 SWAP1 DIV PUSH1 0x1 PUSH1 0x1 PUSH1 0xA0 SHL SUB AND CALLER EQ PUSH2 0xD3C JUMPI PUSH1 0x0 DUP1 REVERT JUMPDEST PUSH1 0x1 DUP1 SLOAD PUSH1 0x1 PUSH1 0x1 PUSH1 0xA0 SHL SUB SWAP1 SWAP3 AND PUSH3 0x10000 MUL PUSH32 0xFFFFFFFFFFFFFFFFFFFF0000000000000000000000000000000000000000FFFF SWAP1 SWAP3 AND SWAP2 SWAP1 SWAP2 OR SWAP1 SSTORE JUMP JUMPDEST CALLER PUSH1 0x1 PUSH1 0x1 PUSH1 0xA0 SHL SUB PUSH32 0x0 AND EQ PUSH2 0xDB1 JUMPI PUSH1 0x0 DUP1 REVERT JUMPDEST DUP1 PUSH1 0x0 SUB PUSH2 0xDDA JUMPI PUSH1 0x1 PUSH1 0x1 PUSH1 0xA0 SHL SUB DUP3 AND PUSH1 0x0 SWAP1 DUP2 MSTORE PUSH1 0x3 PUSH1 0x20 MSTORE PUSH1 0x40 SWAP1 KECCAK256 PUSH1 0x1 SWAP1 SSTORE PUSH2 0xE2F JUMP JUMPDEST DUP1 PUSH1 0x1 SUB PUSH2 0xE2F JUMPI PUSH1 0x1 PUSH1 0x1 PUSH1 0xA0 SHL SUB DUP3 AND PUSH1 0x0 SWAP1 DUP2 MSTORE PUSH1 0x3 PUSH1 0x20 MSTORE PUSH1 0x40 SWAP1 KECCAK256 PUSH1 0x2 SWAP1 SSTORE PUSH1 0x1 DUP1 SLOAD PUSH2 0x100 SWAP1 DIV PUSH1 0xFF AND SWAP1 DUP1 PUSH2 0xE15 DUP4 PUSH2 0x1FEF JUMP JUMPDEST SWAP2 SWAP1 PUSH2 0x100 EXP DUP2 SLOAD DUP2 PUSH1 0xFF MUL NOT AND SWAP1 DUP4 PUSH1 0xFF AND MUL OR SWAP1 SSTORE POP POP JUMPDEST POP PUSH1 0x2 DUP1 SLOAD PUSH1 0x1 DUP2 ADD DUP3 SSTORE PUSH1 0x0 SWAP2 SWAP1 SWAP2 MSTORE PUSH32 0x405787FA12A823E0F2B7631CC41B3BA8828B3321CA811111FA75CD3AA3BB5ACE ADD DUP1 SLOAD PUSH32 0xFFFFFFFFFFFFFFFFFFFFFFFF0000000000000000000000000000000000000000 AND PUSH1 0x1 PUSH1 0x1 PUSH1 0xA0 SHL SUB SWAP3 SWAP1 SWAP3 AND SWAP2 SWAP1 SWAP2 OR SWAP1 SSTORE JUMP JUMPDEST CALLER PUSH1 0x1 PUSH1 0x1 PUSH1 0xA0 SHL SUB PUSH32 0x0 AND EQ PUSH2 0xECF JUMPI PUSH1 0x0 DUP1 REVERT JUMPDEST PUSH1 0x1 SLOAD PUSH1 0xFF AND ISZERO PUSH2 0xEDF JUMPI PUSH1 0x0 DUP1 REVERT JUMPDEST PUSH1 0x1 DUP1 SLOAD PUSH32 0xFFFFFFFFFFFFFFFFFFFF0000000000000000000000000000000000000000FF00 AND PUSH3 0x10000 PUSH1 0x1 PUSH1 0x1 PUSH1 0xA0 SHL SUB SWAP4 SWAP1 SWAP4 AND SWAP3 SWAP1 SWAP3 MUL PUSH32 0xFFFFFFFFFFFFFFFFFFFFFFFFFFFFFFFFFFFFFFFFFFFFFFFFFFFFFFFFFFFFFF00 AND SWAP2 SWAP1 SWAP2 OR DUP2 OR SWAP1 SSTORE JUMP JUMPDEST PUSH1 0x0 DUP1 PUSH1 0x0 PUSH1 0x1 PUSH1 0x2 SWAP1 SLOAD SWAP1 PUSH2 0x100 EXP SWAP1 DIV PUSH1 0x1 PUSH1 0x1 PUSH1 0xA0 SHL SUB AND PUSH1 0x1 PUSH1 0x1 PUSH1 0xA0 SHL SUB AND PUSH4 0xDA8909E5 PUSH1 0x40 MLOAD DUP2 PUSH4 0xFFFFFFFF AND PUSH1 0xE0 SHL DUP2 MSTORE PUSH1 0x4 ADD PUSH1 0x20 PUSH1 0x40 MLOAD DUP1 DUP4 SUB DUP2 DUP7 GAS STATICCALL ISZERO DUP1 ISZERO PUSH2 0xF9D JUMPI RETURNDATASIZE PUSH1 0x0 DUP1 RETURNDATACOPY RETURNDATASIZE PUSH1 0x0 REVERT JUMPDEST POP POP POP POP PUSH1 0x40 MLOAD RETURNDATASIZE PUSH1 0x1F NOT PUSH1 0x1F DUP3 ADD AND DUP3 ADD DUP1 PUSH1 0x40 MSTORE POP DUP2 ADD SWAP1 PUSH2 0xFC1 SWAP2 SWAP1 PUSH2 0x1D2B JUMP JUMPDEST PUSH1 0x1 PUSH1 0x1 PUSH1 0xA0 SHL SUB AND PUSH4 0xD0B06F5D PUSH1 0x40 MLOAD DUP2 PUSH4 0xFFFFFFFF AND PUSH1 0xE0 SHL DUP2 MSTORE PUSH1 0x4 ADD PUSH1 0x20 PUSH1 0x40 MLOAD DUP1 DUP4 SUB DUP2 DUP7 GAS STATICCALL ISZERO DUP1 ISZERO PUSH2 0xFFE JUMPI RETURNDATASIZE PUSH1 0x0 DUP1 RETURNDATACOPY RETURNDATASIZE PUSH1 0x0 REVERT JUMPDEST POP POP POP POP PUSH1 0x40 MLOAD RETURNDATASIZE PUSH1 0x1F NOT PUSH1 0x1F DUP3 ADD AND DUP3 ADD DUP1 PUSH1 0x40 MSTORE POP DUP2 ADD SWAP1 PUSH2 0x1022 SWAP2 SWAP1 PUSH2 0x1DF8 JUMP JUMPDEST SWAP1 POP PUSH1 0x0 PUSH1 0x1 PUSH1 0x2 SWAP1 SLOAD SWAP1 PUSH2 0x100 EXP SWAP1 DIV PUSH1 0x1 PUSH1 0x1 PUSH1 0xA0 SHL SUB AND PUSH1 0x1 PUSH1 0x1 PUSH1 0xA0 SHL SUB AND PUSH4 0xDA8909E5 PUSH1 0x40 MLOAD DUP2 PUSH4 0xFFFFFFFF AND PUSH1 0xE0 SHL DUP2 MSTORE PUSH1 0x4 ADD PUSH1 0x20 PUSH1 0x40 MLOAD DUP1 DUP4 SUB DUP2 DUP7 GAS STATICCALL ISZERO DUP1 ISZERO PUSH2 0x1079 JUMPI RETURNDATASIZE PUSH1 0x0 DUP1 RETURNDATACOPY RETURNDATASIZE PUSH1 0x0 REVERT JUMPDEST POP POP POP POP PUSH1 0x40 MLOAD RETURNDATASIZE PUSH1 0x1F NOT PUSH1 0x1F DUP3 ADD AND DUP3 ADD DUP1 PUSH1 0x40 MSTORE POP DUP2 ADD SWAP1 PUSH2 0x109D SWAP2 SWAP1 PUSH2 0x1D2B JUMP JUMPDEST PUSH1 0x1 PUSH1 0x1 PUSH1 0xA0 SHL SUB AND PUSH4 0x7F8483A4 PUSH1 0x40 MLOAD DUP2 PUSH4 0xFFFFFFFF AND PUSH1 0xE0 SHL DUP2 MSTORE PUSH1 0x4 ADD PUSH1 0x20 PUSH1 0x40 MLOAD DUP1 DUP4 SUB DUP2 DUP7 GAS STATICCALL ISZERO DUP1 ISZERO PUSH2 0x10DA JUMPI RETURNDATASIZE PUSH1 0x0 DUP1 RETURNDATACOPY RETURNDATASIZE PUSH1 0x0 REVERT JUMPDEST POP POP POP POP PUSH1 0x40 MLOAD RETURNDATASIZE PUSH1 0x1F NOT PUSH1 0x1F DUP3 ADD AND DUP3 ADD DUP1 PUSH1 0x40 MSTORE POP DUP2 ADD SWAP1 PUSH2 0x10FE SWAP2 SWAP1 PUSH2 0x1DF8 JUMP JUMPDEST SWAP1 POP DUP1 PUSH2 0x1109 PUSH2 0x111D JUMP JUMPDEST PUSH2 0x1113 SWAP2 SWAP1 PUSH2 0x1D77 JUMP JUMPDEST SWAP5 SWAP2 SWAP4 POP SWAP1 SWAP2 POP POP JUMP JUMPDEST PUSH1 0x2 SLOAD PUSH1 0x0 SWAP1 DUP2 JUMPDEST DUP2 DUP2 LT ISZERO PUSH2 0x1299 JUMPI PUSH1 0x0 PUSH1 0x2 DUP3 DUP2 SLOAD DUP2 LT PUSH2 0x1142 JUMPI PUSH2 0x1142 PUSH2 0x1DC9 JUMP JUMPDEST PUSH1 0x0 SWAP2 DUP3 MSTORE PUSH1 0x20 DUP3 KECCAK256 ADD SLOAD PUSH1 0x40 MLOAD PUSH32 0x70A0823100000000000000000000000000000000000000000000000000000000 DUP2 MSTORE ADDRESS PUSH1 0x4 DUP3 ADD MSTORE PUSH1 0x1 PUSH1 0x1 PUSH1 0xA0 SHL SUB SWAP1 SWAP2 AND SWAP3 POP DUP3 SWAP1 PUSH4 0x70A08231 SWAP1 PUSH1 0x24 ADD PUSH1 0x20 PUSH1 0x40 MLOAD DUP1 DUP4 SUB DUP2 DUP7 GAS STATICCALL ISZERO DUP1 ISZERO PUSH2 0x11AE JUMPI RETURNDATASIZE PUSH1 0x0 DUP1 RETURNDATACOPY RETURNDATASIZE PUSH1 0x0 REVERT JUMPDEST POP POP POP POP PUSH1 0x40 MLOAD RETURNDATASIZE PUSH1 0x1F NOT PUSH1 0x1F DUP3 ADD AND DUP3 ADD DUP1 PUSH1 0x40 MSTORE POP DUP2 ADD SWAP1 PUSH2 0x11D2 SWAP2 SWAP1 PUSH2 0x1DF8 JUMP JUMPDEST PUSH1 0x1 PUSH1 0x1 PUSH1 0xA0 SHL SUB DUP4 AND PUSH1 0x0 SWAP1 DUP2 MSTORE PUSH1 0x3 PUSH1 0x20 MSTORE PUSH1 0x40 SWAP1 KECCAK256 SLOAD SWAP1 SWAP2 POP PUSH1 0x1 DUP2 SWAP1 SUB PUSH2 0x126E JUMPI PUSH1 0x1 PUSH1 0x1 PUSH1 0xA0 SHL SUB DUP1 DUP5 AND PUSH1 0x0 SWAP1 DUP2 MSTORE PUSH1 0x4 PUSH1 0x20 MSTORE PUSH1 0x40 DUP2 KECCAK256 SLOAD SWAP1 SWAP2 DUP3 SWAP2 PUSH2 0x1220 SWAP2 AND DUP3 PUSH2 0x129E JUMP JUMPDEST POP PUSH1 0x1 PUSH1 0x1 PUSH1 0xA0 SHL SUB DUP1 DUP8 AND PUSH1 0x0 SWAP1 DUP2 MSTORE PUSH1 0x5 PUSH1 0x20 MSTORE PUSH1 0x40 SWAP1 KECCAK256 SLOAD SWAP2 SWAP3 POP PUSH2 0x124E SWAP2 DUP4 SWAP2 DUP8 SWAP2 DUP10 SWAP2 AND PUSH2 0x152B JUMP JUMPDEST SWAP2 POP PUSH2 0x125C SWAP1 POP DUP2 DUP5 PUSH2 0x200E JUMP JUMPDEST PUSH2 0x1266 SWAP1 DUP9 PUSH2 0x202D JUMP JUMPDEST SWAP7 POP POP PUSH2 0x1283 JUMP JUMPDEST DUP1 PUSH1 0x2 SUB PUSH2 0x1283 JUMPI PUSH2 0x1280 DUP3 DUP8 PUSH2 0x202D JUMP JUMPDEST SWAP6 POP JUMPDEST POP POP POP DUP1 DUP1 PUSH2 0x1291 SWAP1 PUSH2 0x1E33 JUMP JUMPDEST SWAP2 POP POP PUSH2 0x1125 JUMP JUMPDEST POP POP SWAP1 JUMP JUMPDEST PUSH1 0x0 DUP1 DUP3 PUSH4 0xFFFFFFFF AND PUSH1 0x0 SUB PUSH2 0x1316 JUMPI PUSH1 0x40 MLOAD PUSH32 0x8C379A000000000000000000000000000000000000000000000000000000000 DUP2 MSTORE PUSH1 0x20 PUSH1 0x4 DUP3 ADD MSTORE PUSH1 0x2 PUSH1 0x24 DUP3 ADD MSTORE PUSH32 0x4250000000000000000000000000000000000000000000000000000000000000 PUSH1 0x44 DUP3 ADD MSTORE PUSH1 0x64 ADD JUMPDEST PUSH1 0x40 MLOAD DUP1 SWAP2 SUB SWAP1 REVERT JUMPDEST PUSH1 0x40 DUP1 MLOAD PUSH1 0x2 DUP1 DUP3 MSTORE PUSH1 0x60 DUP3 ADD DUP4 MSTORE PUSH1 0x0 SWAP3 PUSH1 0x20 DUP4 ADD SWAP1 DUP1 CALLDATASIZE DUP4 CALLDATACOPY ADD SWAP1 POP POP SWAP1 POP DUP4 DUP2 PUSH1 0x0 DUP2 MLOAD DUP2 LT PUSH2 0x134B JUMPI PUSH2 0x134B PUSH2 0x1DC9 JUMP JUMPDEST PUSH1 0x20 MUL PUSH1 0x20 ADD ADD SWAP1 PUSH4 0xFFFFFFFF AND SWAP1 DUP2 PUSH4 0xFFFFFFFF AND DUP2 MSTORE POP POP PUSH1 0x0 DUP2 PUSH1 0x1 DUP2 MLOAD DUP2 LT PUSH2 0x137A JUMPI PUSH2 0x137A PUSH2 0x1DC9 JUMP JUMPDEST PUSH1 0x20 MUL PUSH1 0x20 ADD ADD SWAP1 PUSH4 0xFFFFFFFF AND SWAP1 DUP2 PUSH4 0xFFFFFFFF AND DUP2 MSTORE POP POP PUSH1 0x0 DUP1 DUP7 PUSH1 0x1 PUSH1 0x1 PUSH1 0xA0 SHL SUB AND PUSH4 0x883BDBFD DUP5 PUSH1 0x40 MLOAD DUP3 PUSH4 0xFFFFFFFF AND PUSH1 0xE0 SHL DUP2 MSTORE PUSH1 0x4 ADD PUSH2 0x13C3 SWAP2 SWAP1 PUSH2 0x2074 JUMP JUMPDEST PUSH1 0x0 PUSH1 0x40 MLOAD DUP1 DUP4 SUB DUP2 DUP7 GAS STATICCALL ISZERO DUP1 ISZERO PUSH2 0x13E0 JUMPI RETURNDATASIZE PUSH1 0x0 DUP1 RETURNDATACOPY RETURNDATASIZE PUSH1 0x0 REVERT JUMPDEST POP POP POP POP PUSH1 0x40 MLOAD RETURNDATASIZE PUSH1 0x0 DUP3 RETURNDATACOPY PUSH1 0x1F RETURNDATASIZE SWAP1 DUP2 ADD PUSH1 0x1F NOT AND DUP3 ADD PUSH1 0x40 MSTORE PUSH2 0x1408 SWAP2 SWAP1 DUP2 ADD SWAP1 PUSH2 0x2187 JUMP JUMPDEST SWAP2 POP SWAP2 POP PUSH1 0x0 DUP3 PUSH1 0x0 DUP2 MLOAD DUP2 LT PUSH2 0x1421 JUMPI PUSH2 0x1421 PUSH2 0x1DC9 JUMP JUMPDEST PUSH1 0x20 MUL PUSH1 0x20 ADD ADD MLOAD DUP4 PUSH1 0x1 DUP2 MLOAD DUP2 LT PUSH2 0x143C JUMPI PUSH2 0x143C PUSH2 0x1DC9 JUMP JUMPDEST PUSH1 0x20 MUL PUSH1 0x20 ADD ADD MLOAD PUSH2 0x144E SWAP2 SWAP1 PUSH2 0x2253 JUMP JUMPDEST SWAP1 POP PUSH1 0x0 DUP3 PUSH1 0x0 DUP2 MLOAD DUP2 LT PUSH2 0x1465 JUMPI PUSH2 0x1465 PUSH2 0x1DC9 JUMP JUMPDEST PUSH1 0x20 MUL PUSH1 0x20 ADD ADD MLOAD DUP4 PUSH1 0x1 DUP2 MLOAD DUP2 LT PUSH2 0x1480 JUMPI PUSH2 0x1480 PUSH2 0x1DC9 JUMP JUMPDEST PUSH1 0x20 MUL PUSH1 0x20 ADD ADD MLOAD PUSH2 0x1492 SWAP2 SWAP1 PUSH2 0x22BB JUMP JUMPDEST SWAP1 POP PUSH2 0x14A2 PUSH1 0x3 DUP10 SWAP1 SIGNEXTEND DUP4 PUSH2 0x22E3 JUMP JUMPDEST SWAP7 POP PUSH1 0x0 DUP3 PUSH1 0x6 SIGNEXTEND SLT DUP1 ISZERO PUSH2 0x14C6 JUMPI POP PUSH2 0x14C0 PUSH1 0x3 DUP10 SWAP1 SIGNEXTEND DUP4 PUSH2 0x2339 JUMP JUMPDEST PUSH1 0x6 SIGNEXTEND ISZERO ISZERO JUMPDEST ISZERO PUSH2 0x14D9 JUMPI DUP7 PUSH2 0x14D5 DUP2 PUSH2 0x235B JUMP JUMPDEST SWAP8 POP POP JUMPDEST PUSH1 0x0 PUSH2 0x14F2 PUSH1 0x1 PUSH1 0x1 PUSH1 0xA0 SHL SUB PUSH4 0xFFFFFFFF DUP12 AND PUSH2 0x2390 JUMP JUMPDEST SWAP1 POP PUSH2 0x151C PUSH24 0xFFFFFFFFFFFFFFFFFFFFFFFFFFFFFFFFFFFFFFFF00000000 PUSH1 0x20 DUP5 SWAP1 SHL AND DUP3 PUSH2 0x23D0 JUMP JUMPDEST SWAP7 POP POP POP POP POP POP POP SWAP3 POP SWAP3 SWAP1 POP JUMP JUMPDEST PUSH1 0x0 DUP1 PUSH2 0x1537 DUP7 PUSH2 0x16AA JUMP JUMPDEST SWAP1 POP PUSH16 0xFFFFFFFFFFFFFFFFFFFFFFFFFFFFFFFF PUSH1 0x1 PUSH1 0x1 PUSH1 0xA0 SHL SUB DUP3 AND GT PUSH2 0x1602 JUMPI PUSH1 0x0 PUSH2 0x156E PUSH1 0x1 PUSH1 0x1 PUSH1 0xA0 SHL SUB DUP4 AND DUP1 PUSH2 0x200E JUMP JUMPDEST SWAP1 POP DUP4 PUSH1 0x1 PUSH1 0x1 PUSH1 0xA0 SHL SUB AND DUP6 PUSH1 0x1 PUSH1 0x1 PUSH1 0xA0 SHL SUB AND LT PUSH2 0x15C4 JUMPI PUSH2 0x15BF PUSH25 0x1000000000000000000000000000000000000000000000000 DUP8 PUSH16 0xFFFFFFFFFFFFFFFFFFFFFFFFFFFFFFFF AND DUP4 PUSH2 0x1B2B JUMP JUMPDEST PUSH2 0x15FA JUMP JUMPDEST PUSH2 0x15FA DUP2 DUP8 PUSH16 0xFFFFFFFFFFFFFFFFFFFFFFFFFFFFFFFF AND PUSH25 0x1000000000000000000000000000000000000000000000000 PUSH2 0x1B2B JUMP JUMPDEST SWAP3 POP POP PUSH2 0x16A1 JUMP JUMPDEST PUSH1 0x0 PUSH2 0x1621 PUSH1 0x1 PUSH1 0x1 PUSH1 0xA0 SHL SUB DUP4 AND DUP1 PUSH9 0x10000000000000000 PUSH2 0x1B2B JUMP JUMPDEST SWAP1 POP DUP4 PUSH1 0x1 PUSH1 0x1 PUSH1 0xA0 SHL SUB AND DUP6 PUSH1 0x1 PUSH1 0x1 PUSH1 0xA0 SHL SUB AND LT PUSH2 0x166F JUMPI PUSH2 0x166A PUSH17 0x100000000000000000000000000000000 DUP8 PUSH16 0xFFFFFFFFFFFFFFFFFFFFFFFFFFFFFFFF AND DUP4 PUSH2 0x1B2B JUMP JUMPDEST PUSH2 0x169D JUMP JUMPDEST PUSH2 0x169D DUP2 DUP8 PUSH16 0xFFFFFFFFFFFFFFFFFFFFFFFFFFFFFFFF AND PUSH17 0x100000000000000000000000000000000 PUSH2 0x1B2B JUMP JUMPDEST SWAP3 POP POP JUMPDEST POP SWAP5 SWAP4 POP POP POP POP JUMP JUMPDEST PUSH1 0x0 DUP1 PUSH1 0x0 DUP4 PUSH1 0x2 SIGNEXTEND SLT PUSH2 0x16C1 JUMPI DUP3 PUSH1 0x2 SIGNEXTEND PUSH2 0x16CE JUMP JUMPDEST DUP3 PUSH1 0x2 SIGNEXTEND PUSH2 0x16CE SWAP1 PUSH2 0x2407 JUMP JUMPDEST SWAP1 POP PUSH2 0x16F9 PUSH32 0xFFFFFFFFFFFFFFFFFFFFFFFFFFFFFFFFFFFFFFFFFFFFFFFFFFFFFFFFFFF27618 PUSH2 0x243F JUMP JUMPDEST PUSH3 0xFFFFFF AND DUP2 GT ISZERO PUSH2 0x1767 JUMPI PUSH1 0x40 MLOAD PUSH32 0x8C379A000000000000000000000000000000000000000000000000000000000 DUP2 MSTORE PUSH1 0x20 PUSH1 0x4 DUP3 ADD MSTORE PUSH1 0x1 PUSH1 0x24 DUP3 ADD MSTORE PUSH32 0x5400000000000000000000000000000000000000000000000000000000000000 PUSH1 0x44 DUP3 ADD MSTORE PUSH1 0x64 ADD PUSH2 0x130D JUMP JUMPDEST PUSH1 0x0 DUP2 PUSH1 0x1 AND PUSH1 0x0 SUB PUSH2 0x178B JUMPI PUSH17 0x100000000000000000000000000000000 PUSH2 0x179D JUMP JUMPDEST PUSH16 0xFFFCB933BD6FAD37AA2D162D1A594001 JUMPDEST PUSH17 0xFFFFFFFFFFFFFFFFFFFFFFFFFFFFFFFFFF AND SWAP1 POP PUSH1 0x2 DUP3 AND ISZERO PUSH2 0x17DC JUMPI PUSH1 0x80 PUSH2 0x17D7 DUP3 PUSH16 0xFFF97272373D413259A46990580E213A PUSH2 0x200E JUMP JUMPDEST SWAP1 SHR SWAP1 POP JUMPDEST PUSH1 0x4 DUP3 AND ISZERO PUSH2 0x1806 JUMPI PUSH1 0x80 PUSH2 0x1801 DUP3 PUSH16 0xFFF2E50F5F656932EF12357CF3C7FDCC PUSH2 0x200E JUMP JUMPDEST SWAP1 SHR SWAP1 POP JUMPDEST PUSH1 0x8 DUP3 AND ISZERO PUSH2 0x1830 JUMPI PUSH1 0x80 PUSH2 0x182B DUP3 PUSH16 0xFFE5CACA7E10E4E61C3624EAA0941CD0 PUSH2 0x200E JUMP JUMPDEST SWAP1 SHR SWAP1 POP JUMPDEST PUSH1 0x10 DUP3 AND ISZERO PUSH2 0x185A JUMPI PUSH1 0x80 PUSH2 0x1855 DUP3 PUSH16 0xFFCB9843D60F6159C9DB58835C926644 PUSH2 0x200E JUMP JUMPDEST SWAP1 SHR SWAP1 POP JUMPDEST PUSH1 0x20 DUP3 AND ISZERO PUSH2 0x1884 JUMPI PUSH1 0x80 PUSH2 0x187F DUP3 PUSH16 0xFF973B41FA98C081472E6896DFB254C0 PUSH2 0x200E JUMP JUMPDEST SWAP1 SHR SWAP1 POP JUMPDEST PUSH1 0x40 DUP3 AND ISZERO PUSH2 0x18AE JUMPI PUSH1 0x80 PUSH2 0x18A9 DUP3 PUSH16 0xFF2EA16466C96A3843EC78B326B52861 PUSH2 0x200E JUMP JUMPDEST SWAP1 SHR SWAP1 POP JUMPDEST PUSH1 0x80 DUP3 AND ISZERO PUSH2 0x18D8 JUMPI PUSH1 0x80 PUSH2 0x18D3 DUP3 PUSH16 0xFE5DEE046A99A2A811C461F1969C3053 PUSH2 0x200E JUMP JUMPDEST SWAP1 SHR SWAP1 POP JUMPDEST PUSH2 0x100 DUP3 AND ISZERO PUSH2 0x1903 JUMPI PUSH1 0x80 PUSH2 0x18FE DUP3 PUSH16 0xFCBE86C7900A88AEDCFFC83B479AA3A4 PUSH2 0x200E JUMP JUMPDEST SWAP1 SHR SWAP1 POP JUMPDEST PUSH2 0x200 DUP3 AND ISZERO PUSH2 0x192E JUMPI PUSH1 0x80 PUSH2 0x1929 DUP3 PUSH16 0xF987A7253AC413176F2B074CF7815E54 PUSH2 0x200E JUMP JUMPDEST SWAP1 SHR SWAP1 POP JUMPDEST PUSH2 0x400 DUP3 AND ISZERO PUSH2 0x1959 JUMPI PUSH1 0x80 PUSH2 0x1954 DUP3 PUSH16 0xF3392B0822B70005940C7A398E4B70F3 PUSH2 0x200E JUMP JUMPDEST SWAP1 SHR SWAP1 POP JUMPDEST PUSH2 0x800 DUP3 AND ISZERO PUSH2 0x1984 JUMPI PUSH1 0x80 PUSH2 0x197F DUP3 PUSH16 0xE7159475A2C29B7443B29C7FA6E889D9 PUSH2 0x200E JUMP JUMPDEST SWAP1 SHR SWAP1 POP JUMPDEST PUSH2 0x1000 DUP3 AND ISZERO PUSH2 0x19AF JUMPI PUSH1 0x80 PUSH2 0x19AA DUP3 PUSH16 0xD097F3BDFD2022B8845AD8F792AA5825 PUSH2 0x200E JUMP JUMPDEST SWAP1 SHR SWAP1 POP JUMPDEST PUSH2 0x2000 DUP3 AND ISZERO PUSH2 0x19DA JUMPI PUSH1 0x80 PUSH2 0x19D5 DUP3 PUSH16 0xA9F746462D870FDF8A65DC1F90E061E5 PUSH2 0x200E JUMP JUMPDEST SWAP1 SHR SWAP1 POP JUMPDEST PUSH2 0x4000 DUP3 AND ISZERO PUSH2 0x1A05 JUMPI PUSH1 0x80 PUSH2 0x1A00 DUP3 PUSH16 0x70D869A156D2A1B890BB3DF62BAF32F7 PUSH2 0x200E JUMP JUMPDEST SWAP1 SHR SWAP1 POP JUMPDEST PUSH2 0x8000 DUP3 AND ISZERO PUSH2 0x1A30 JUMPI PUSH1 0x80 PUSH2 0x1A2B DUP3 PUSH16 0x31BE135F97D08FD981231505542FCFA6 PUSH2 0x200E JUMP JUMPDEST SWAP1 SHR SWAP1 POP JUMPDEST PUSH3 0x10000 DUP3 AND ISZERO PUSH2 0x1A5C JUMPI PUSH1 0x80 PUSH2 0x1A57 DUP3 PUSH16 0x9AA508B5B7A84E1C677DE54F3E99BC9 PUSH2 0x200E JUMP JUMPDEST SWAP1 SHR SWAP1 POP JUMPDEST PUSH3 0x20000 DUP3 AND ISZERO PUSH2 0x1A87 JUMPI PUSH1 0x80 PUSH2 0x1A82 DUP3 PUSH15 0x5D6AF8DEDB81196699C329225EE604 PUSH2 0x200E JUMP JUMPDEST SWAP1 SHR SWAP1 POP JUMPDEST PUSH3 0x40000 DUP3 AND ISZERO PUSH2 0x1AB1 JUMPI PUSH1 0x80 PUSH2 0x1AAC DUP3 PUSH14 0x2216E584F5FA1EA926041BEDFE98 PUSH2 0x200E JUMP JUMPDEST SWAP1 SHR SWAP1 POP JUMPDEST PUSH3 0x80000 DUP3 AND ISZERO PUSH2 0x1AD9 JUMPI PUSH1 0x80 PUSH2 0x1AD4 DUP3 PUSH12 0x48A170391F7DC42444E8FA2 PUSH2 0x200E JUMP JUMPDEST SWAP1 SHR SWAP1 POP JUMPDEST PUSH1 0x0 DUP5 PUSH1 0x2 SIGNEXTEND SGT ISZERO PUSH2 0x1AF4 JUMPI PUSH2 0x1AF1 DUP2 PUSH1 0x0 NOT PUSH2 0x1FDB JUMP JUMPDEST SWAP1 POP JUMPDEST PUSH2 0x1B03 PUSH5 0x100000000 DUP3 PUSH2 0x247D JUMP JUMPDEST ISZERO PUSH2 0x1B0F JUMPI PUSH1 0x1 PUSH2 0x1B12 JUMP JUMPDEST PUSH1 0x0 JUMPDEST PUSH2 0x1B23 SWAP1 PUSH1 0xFF AND PUSH1 0x20 DUP4 SWAP1 SHR PUSH2 0x202D JUMP JUMPDEST SWAP5 SWAP4 POP POP POP POP JUMP JUMPDEST PUSH1 0x0 DUP1 DUP1 PUSH1 0x0 NOT DUP6 DUP8 MULMOD DUP6 DUP8 MUL SWAP3 POP DUP3 DUP2 LT DUP4 DUP3 SUB SUB SWAP2 POP POP DUP1 PUSH1 0x0 SUB PUSH2 0x1B64 JUMPI PUSH1 0x0 DUP5 GT PUSH2 0x1B59 JUMPI PUSH1 0x0 DUP1 REVERT JUMPDEST POP DUP3 SWAP1 DIV SWAP1 POP PUSH2 0x1CAA JUMP JUMPDEST DUP1 DUP5 GT PUSH2 0x1B70 JUMPI PUSH1 0x0 DUP1 REVERT JUMPDEST PUSH1 0x0 DUP5 DUP7 DUP9 MULMOD DUP1 DUP5 SUB SWAP4 DUP2 GT SWAP1 SWAP3 SUB SWAP2 SWAP1 POP PUSH1 0x0 DUP6 PUSH2 0x1B91 DUP2 PUSH1 0x0 NOT PUSH2 0x1D77 JUMP JUMPDEST PUSH2 0x1B9C SWAP1 PUSH1 0x1 PUSH2 0x202D JUMP JUMPDEST AND SWAP6 DUP7 SWAP1 DIV SWAP6 SWAP4 DUP5 SWAP1 DIV SWAP4 PUSH1 0x0 DUP2 SWAP1 SUB DIV PUSH1 0x1 ADD SWAP1 POP PUSH2 0x1BBC DUP2 DUP5 PUSH2 0x200E JUMP JUMPDEST SWAP1 SWAP4 OR SWAP3 PUSH1 0x0 PUSH2 0x1BCD DUP8 PUSH1 0x3 PUSH2 0x200E JUMP JUMPDEST PUSH1 0x2 XOR SWAP1 POP PUSH2 0x1BDC DUP2 DUP9 PUSH2 0x200E JUMP JUMPDEST PUSH2 0x1BE7 SWAP1 PUSH1 0x2 PUSH2 0x1D77 JUMP JUMPDEST PUSH2 0x1BF1 SWAP1 DUP3 PUSH2 0x200E JUMP JUMPDEST SWAP1 POP PUSH2 0x1BFD DUP2 DUP9 PUSH2 0x200E JUMP JUMPDEST PUSH2 0x1C08 SWAP1 PUSH1 0x2 PUSH2 0x1D77 JUMP JUMPDEST PUSH2 0x1C12 SWAP1 DUP3 PUSH2 0x200E JUMP JUMPDEST SWAP1 POP PUSH2 0x1C1E DUP2 DUP9 PUSH2 0x200E JUMP JUMPDEST PUSH2 0x1C29 SWAP1 PUSH1 0x2 PUSH2 0x1D77 JUMP JUMPDEST PUSH2 0x1C33 SWAP1 DUP3 PUSH2 0x200E JUMP JUMPDEST SWAP1 POP PUSH2 0x1C3F DUP2 DUP9 PUSH2 0x200E JUMP JUMPDEST PUSH2 0x1C4A SWAP1 PUSH1 0x2 PUSH2 0x1D77 JUMP JUMPDEST PUSH2 0x1C54 SWAP1 DUP3 PUSH2 0x200E JUMP JUMPDEST SWAP1 POP PUSH2 0x1C60 DUP2 DUP9 PUSH2 0x200E JUMP JUMPDEST PUSH2 0x1C6B SWAP1 PUSH1 0x2 PUSH2 0x1D77 JUMP JUMPDEST PUSH2 0x1C75 SWAP1 DUP3 PUSH2 0x200E JUMP JUMPDEST SWAP1 POP PUSH2 0x1C81 DUP2 DUP9 PUSH2 0x200E JUMP JUMPDEST PUSH2 0x1C8C SWAP1 PUSH1 0x2 PUSH2 0x1D77 JUMP JUMPDEST PUSH2 0x1C96 SWAP1 DUP3 PUSH2 0x200E JUMP JUMPDEST SWAP1 POP PUSH2 0x1CA2 DUP2 DUP7 PUSH2 0x200E JUMP JUMPDEST SWAP6 POP POP POP POP POP POP JUMPDEST SWAP4 SWAP3 POP POP POP JUMP JUMPDEST PUSH1 0x0 PUSH1 0x20 DUP3 DUP5 SUB SLT ISZERO PUSH2 0x1CC3 JUMPI PUSH1 0x0 DUP1 REVERT JUMPDEST POP CALLDATALOAD SWAP2 SWAP1 POP JUMP JUMPDEST PUSH1 0x1 PUSH1 0x1 PUSH1 0xA0 SHL SUB DUP2 AND DUP2 EQ PUSH2 0x1CDF JUMPI PUSH1 0x0 DUP1 REVERT JUMPDEST POP JUMP JUMPDEST PUSH1 0x0 PUSH1 0x20 DUP3 DUP5 SUB SLT ISZERO PUSH2 0x1CF4 JUMPI PUSH1 0x0 DUP1 REVERT JUMPDEST DUP2 CALLDATALOAD PUSH2 0x1CAA DUP2 PUSH2 0x1CCA JUMP JUMPDEST PUSH1 0x0 DUP1 PUSH1 0x40 DUP4 DUP6 SUB SLT ISZERO PUSH2 0x1D12 JUMPI PUSH1 0x0 DUP1 REVERT JUMPDEST DUP3 CALLDATALOAD PUSH2 0x1D1D DUP2 PUSH2 0x1CCA JUMP JUMPDEST SWAP5 PUSH1 0x20 SWAP4 SWAP1 SWAP4 ADD CALLDATALOAD SWAP4 POP POP POP JUMP JUMPDEST PUSH1 0x0 PUSH1 0x20 DUP3 DUP5 SUB SLT ISZERO PUSH2 0x1D3D JUMPI PUSH1 0x0 DUP1 REVERT JUMPDEST DUP2 MLOAD PUSH2 0x1CAA DUP2 PUSH2 0x1CCA JUMP JUMPDEST PUSH32 0x4E487B7100000000000000000000000000000000000000000000000000000000 PUSH1 0x0 MSTORE PUSH1 0x11 PUSH1 0x4 MSTORE PUSH1 0x24 PUSH1 0x0 REVERT JUMPDEST PUSH1 0x0 DUP3 DUP3 LT ISZERO PUSH2 0x1D89 JUMPI PUSH2 0x1D89 PUSH2 0x1D48 JUMP JUMPDEST POP SUB SWAP1 JUMP JUMPDEST PUSH1 0x0 DUP3 MLOAD PUSH1 0x0 JUMPDEST DUP2 DUP2 LT ISZERO PUSH2 0x1DAF JUMPI PUSH1 0x20 DUP2 DUP7 ADD DUP2 ADD MLOAD DUP6 DUP4 ADD MSTORE ADD PUSH2 0x1D95 JUMP JUMPDEST DUP2 DUP2 GT ISZERO PUSH2 0x1DBE JUMPI PUSH1 0x0 DUP3 DUP6 ADD MSTORE JUMPDEST POP SWAP2 SWAP1 SWAP2 ADD SWAP3 SWAP2 POP POP JUMP JUMPDEST PUSH32 0x4E487B7100000000000000000000000000000000000000000000000000000000 PUSH1 0x0 MSTORE PUSH1 0x32 PUSH1 0x4 MSTORE PUSH1 0x24 PUSH1 0x0 REVERT JUMPDEST PUSH1 0x0 PUSH1 0x20 DUP3 DUP5 SUB SLT ISZERO PUSH2 0x1E0A JUMPI PUSH1 0x0 DUP1 REVERT JUMPDEST POP MLOAD SWAP2 SWAP1 POP JUMP JUMPDEST PUSH1 0x0 PUSH1 0x20 DUP3 DUP5 SUB SLT ISZERO PUSH2 0x1E23 JUMPI PUSH1 0x0 DUP1 REVERT JUMPDEST DUP2 MLOAD DUP1 ISZERO ISZERO DUP2 EQ PUSH2 0x1CAA JUMPI PUSH1 0x0 DUP1 REVERT JUMPDEST PUSH1 0x0 PUSH1 0x0 NOT DUP3 SUB PUSH2 0x1E46 JUMPI PUSH2 0x1E46 PUSH2 0x1D48 JUMP JUMPDEST POP PUSH1 0x1 ADD SWAP1 JUMP JUMPDEST PUSH1 0x0 PUSH1 0xFF DUP3 AND DUP1 PUSH2 0x1E60 JUMPI PUSH2 0x1E60 PUSH2 0x1D48 JUMP JUMPDEST PUSH1 0x0 NOT ADD SWAP3 SWAP2 POP POP JUMP JUMPDEST PUSH32 0x4E487B7100000000000000000000000000000000000000000000000000000000 PUSH1 0x0 MSTORE PUSH1 0x31 PUSH1 0x4 MSTORE PUSH1 0x24 PUSH1 0x0 REVERT JUMPDEST PUSH1 0x0 PUSH1 0x20 DUP3 DUP5 SUB SLT ISZERO PUSH2 0x1EAB JUMPI PUSH1 0x0 DUP1 REVERT JUMPDEST DUP2 MLOAD PUSH1 0xFF DUP2 AND DUP2 EQ PUSH2 0x1CAA JUMPI PUSH1 0x0 DUP1 REVERT JUMPDEST PUSH1 0x1 DUP2 DUP2 JUMPDEST DUP1 DUP6 GT ISZERO PUSH2 0x1EF7 JUMPI DUP2 PUSH1 0x0 NOT DIV DUP3 GT ISZERO PUSH2 0x1EDD JUMPI PUSH2 0x1EDD PUSH2 0x1D48 JUMP JUMPDEST DUP1 DUP6 AND ISZERO PUSH2 0x1EEA JUMPI SWAP2 DUP2 MUL SWAP2 JUMPDEST SWAP4 DUP5 SHR SWAP4 SWAP1 DUP1 MUL SWAP1 PUSH2 0x1EC1 JUMP JUMPDEST POP SWAP3 POP SWAP3 SWAP1 POP JUMP JUMPDEST PUSH1 0x0 DUP3 PUSH2 0x1F0E JUMPI POP PUSH1 0x1 PUSH2 0xD19 JUMP JUMPDEST DUP2 PUSH2 0x1F1B JUMPI POP PUSH1 0x0 PUSH2 0xD19 JUMP JUMPDEST DUP2 PUSH1 0x1 DUP2 EQ PUSH2 0x1F31 JUMPI PUSH1 0x2 DUP2 EQ PUSH2 0x1F3B JUMPI PUSH2 0x1F57 JUMP JUMPDEST PUSH1 0x1 SWAP2 POP POP PUSH2 0xD19 JUMP JUMPDEST PUSH1 0xFF DUP5 GT ISZERO PUSH2 0x1F4C JUMPI PUSH2 0x1F4C PUSH2 0x1D48 JUMP JUMPDEST POP POP PUSH1 0x1 DUP3 SHL PUSH2 0xD19 JUMP JUMPDEST POP PUSH1 0x20 DUP4 LT PUSH2 0x133 DUP4 LT AND PUSH1 0x4E DUP5 LT PUSH1 0xB DUP5 LT AND OR ISZERO PUSH2 0x1F7A JUMPI POP DUP2 DUP2 EXP PUSH2 0xD19 JUMP JUMPDEST PUSH2 0x1F84 DUP4 DUP4 PUSH2 0x1EBC JUMP JUMPDEST DUP1 PUSH1 0x0 NOT DIV DUP3 GT ISZERO PUSH2 0x1F98 JUMPI PUSH2 0x1F98 PUSH2 0x1D48 JUMP JUMPDEST MUL SWAP4 SWAP3 POP POP POP JUMP JUMPDEST PUSH1 0x0 PUSH2 0x1CAA DUP4 DUP4 PUSH2 0x1EFF JUMP JUMPDEST PUSH32 0x4E487B7100000000000000000000000000000000000000000000000000000000 PUSH1 0x0 MSTORE PUSH1 0x12 PUSH1 0x4 MSTORE PUSH1 0x24 PUSH1 0x0 REVERT JUMPDEST PUSH1 0x0 DUP3 PUSH2 0x1FEA JUMPI PUSH2 0x1FEA PUSH2 0x1FAC JUMP JUMPDEST POP DIV SWAP1 JUMP JUMPDEST PUSH1 0x0 PUSH1 0xFF DUP3 AND PUSH1 0xFF DUP2 SUB PUSH2 0x2005 JUMPI PUSH2 0x2005 PUSH2 0x1D48 JUMP JUMPDEST PUSH1 0x1 ADD SWAP3 SWAP2 POP POP JUMP JUMPDEST PUSH1 0x0 DUP2 PUSH1 0x0 NOT DIV DUP4 GT DUP3 ISZERO ISZERO AND ISZERO PUSH2 0x2028 JUMPI PUSH2 0x2028 PUSH2 0x1D48 JUMP JUMPDEST POP MUL SWAP1 JUMP JUMPDEST PUSH1 0x0 DUP3 NOT DUP3 GT ISZERO PUSH2 0x2040 JUMPI PUSH2 0x2040 PUSH2 0x1D48 JUMP JUMPDEST POP ADD SWAP1 JUMP JUMPDEST PUSH32 0x4E487B7100000000000000000000000000000000000000000000000000000000 PUSH1 0x0 MSTORE PUSH1 0x41 PUSH1 0x4 MSTORE PUSH1 0x24 PUSH1 0x0 REVERT JUMPDEST PUSH1 0x20 DUP1 DUP3 MSTORE DUP3 MLOAD DUP3 DUP3 ADD DUP2 SWAP1 MSTORE PUSH1 0x0 SWAP2 SWAP1 DUP5 DUP3 ADD SWAP1 PUSH1 0x40 DUP6 ADD SWAP1 DUP5 JUMPDEST DUP2 DUP2 LT ISZERO PUSH2 0x20B2 JUMPI DUP4 MLOAD PUSH4 0xFFFFFFFF AND DUP4 MSTORE SWAP3 DUP5 ADD SWAP3 SWAP2 DUP5 ADD SWAP2 PUSH1 0x1 ADD PUSH2 0x2090 JUMP JUMPDEST POP SWAP1 SWAP7 SWAP6 POP POP POP POP POP POP JUMP JUMPDEST PUSH1 0x40 MLOAD PUSH1 0x1F DUP3 ADD PUSH1 0x1F NOT AND DUP2 ADD PUSH8 0xFFFFFFFFFFFFFFFF DUP2 GT DUP3 DUP3 LT OR ISZERO PUSH2 0x20E7 JUMPI PUSH2 0x20E7 PUSH2 0x2045 JUMP JUMPDEST PUSH1 0x40 MSTORE SWAP2 SWAP1 POP JUMP JUMPDEST PUSH1 0x0 PUSH8 0xFFFFFFFFFFFFFFFF DUP3 GT ISZERO PUSH2 0x2109 JUMPI PUSH2 0x2109 PUSH2 0x2045 JUMP JUMPDEST POP PUSH1 0x5 SHL PUSH1 0x20 ADD SWAP1 JUMP JUMPDEST PUSH1 0x0 DUP3 PUSH1 0x1F DUP4 ADD SLT PUSH2 0x2124 JUMPI PUSH1 0x0 DUP1 REVERT JUMPDEST DUP2 MLOAD PUSH1 0x20 PUSH2 0x2139 PUSH2 0x2134 DUP4 PUSH2 0x20EF JUMP JUMPDEST PUSH2 0x20BE JUMP JUMPDEST DUP3 DUP2 MSTORE PUSH1 0x5 SWAP3 SWAP1 SWAP3 SHL DUP5 ADD DUP2 ADD SWAP2 DUP2 DUP2 ADD SWAP1 DUP7 DUP5 GT ISZERO PUSH2 0x2158 JUMPI PUSH1 0x0 DUP1 REVERT JUMPDEST DUP3 DUP7 ADD JUMPDEST DUP5 DUP2 LT ISZERO PUSH2 0x217C JUMPI DUP1 MLOAD PUSH2 0x216F DUP2 PUSH2 0x1CCA JUMP JUMPDEST DUP4 MSTORE SWAP2 DUP4 ADD SWAP2 DUP4 ADD PUSH2 0x215C JUMP JUMPDEST POP SWAP7 SWAP6 POP POP POP POP POP POP JUMP JUMPDEST PUSH1 0x0 DUP1 PUSH1 0x40 DUP4 DUP6 SUB SLT ISZERO PUSH2 0x219A JUMPI PUSH1 0x0 DUP1 REVERT JUMPDEST DUP3 MLOAD PUSH8 0xFFFFFFFFFFFFFFFF DUP1 DUP3 GT ISZERO PUSH2 0x21B2 JUMPI PUSH1 0x0 DUP1 REVERT JUMPDEST DUP2 DUP6 ADD SWAP2 POP DUP6 PUSH1 0x1F DUP4 ADD SLT PUSH2 0x21C6 JUMPI PUSH1 0x0 DUP1 REVERT JUMPDEST DUP2 MLOAD PUSH1 0x20 PUSH2 0x21D6 PUSH2 0x2134 DUP4 PUSH2 0x20EF JUMP JUMPDEST DUP3 DUP2 MSTORE PUSH1 0x5 SWAP3 SWAP1 SWAP3 SHL DUP5 ADD DUP2 ADD SWAP2 DUP2 DUP2 ADD SWAP1 DUP10 DUP5 GT ISZERO PUSH2 0x21F5 JUMPI PUSH1 0x0 DUP1 REVERT JUMPDEST SWAP5 DUP3 ADD SWAP5 JUMPDEST DUP4 DUP7 LT ISZERO PUSH2 0x2223 JUMPI DUP6 MLOAD DUP1 PUSH1 0x6 SIGNEXTEND DUP2 EQ PUSH2 0x2214 JUMPI PUSH1 0x0 DUP1 DUP2 REVERT JUMPDEST DUP3 MSTORE SWAP5 DUP3 ADD SWAP5 SWAP1 DUP3 ADD SWAP1 PUSH2 0x21FA JUMP JUMPDEST SWAP2 DUP9 ADD MLOAD SWAP2 SWAP7 POP SWAP1 SWAP4 POP POP POP DUP1 DUP3 GT ISZERO PUSH2 0x223C JUMPI PUSH1 0x0 DUP1 REVERT JUMPDEST POP PUSH2 0x2249 DUP6 DUP3 DUP7 ADD PUSH2 0x2113 JUMP JUMPDEST SWAP2 POP POP SWAP3 POP SWAP3 SWAP1 POP JUMP JUMPDEST PUSH1 0x0 DUP2 PUSH1 0x6 SIGNEXTEND DUP4 PUSH1 0x6 SIGNEXTEND PUSH1 0x0 DUP2 SLT DUP2 PUSH32 0xFFFFFFFFFFFFFFFFFFFFFFFFFFFFFFFFFFFFFFFFFFFFFFFFFF80000000000000 ADD DUP4 SLT DUP2 ISZERO AND ISZERO PUSH2 0x2296 JUMPI PUSH2 0x2296 PUSH2 0x1D48 JUMP JUMPDEST DUP2 PUSH7 0x7FFFFFFFFFFFFF ADD DUP4 SGT DUP2 AND ISZERO PUSH2 0x22B1 JUMPI PUSH2 0x22B1 PUSH2 0x1D48 JUMP JUMPDEST POP SWAP1 SUB SWAP4 SWAP3 POP POP POP JUMP JUMPDEST PUSH1 0x0 PUSH1 0x1 PUSH1 0x1 PUSH1 0xA0 SHL SUB DUP4 DUP2 AND SWAP1 DUP4 AND DUP2 DUP2 LT ISZERO PUSH2 0x22DB JUMPI PUSH2 0x22DB PUSH2 0x1D48 JUMP JUMPDEST SUB SWAP4 SWAP3 POP POP POP JUMP JUMPDEST PUSH1 0x0 DUP2 PUSH1 0x6 SIGNEXTEND DUP4 PUSH1 0x6 SIGNEXTEND DUP1 PUSH2 0x22FA JUMPI PUSH2 0x22FA PUSH2 0x1FAC JUMP JUMPDEST PUSH1 0x0 NOT DUP2 EQ PUSH32 0xFFFFFFFFFFFFFFFFFFFFFFFFFFFFFFFFFFFFFFFFFFFFFFFFFF80000000000000 DUP4 EQ AND ISZERO PUSH2 0x2330 JUMPI PUSH2 0x2330 PUSH2 0x1D48 JUMP JUMPDEST SWAP1 SDIV SWAP4 SWAP3 POP POP POP JUMP JUMPDEST PUSH1 0x0 DUP3 PUSH1 0x6 SIGNEXTEND DUP1 PUSH2 0x234C JUMPI PUSH2 0x234C PUSH2 0x1FAC JUMP JUMPDEST DUP1 DUP4 PUSH1 0x6 SIGNEXTEND SMOD SWAP2 POP POP SWAP3 SWAP2 POP POP JUMP JUMPDEST PUSH1 0x0 DUP2 PUSH1 0x2 SIGNEXTEND PUSH32 0xFFFFFFFFFFFFFFFFFFFFFFFFFFFFFFFFFFFFFFFFFFFFFFFFFFFFFFFFFF800000 DUP2 SUB PUSH2 0x1E60 JUMPI PUSH2 0x1E60 PUSH2 0x1D48 JUMP JUMPDEST PUSH1 0x0 PUSH24 0xFFFFFFFFFFFFFFFFFFFFFFFFFFFFFFFFFFFFFFFFFFFFFFFF DUP1 DUP4 AND DUP2 DUP6 AND DUP2 DUP4 DIV DUP2 GT DUP3 ISZERO ISZERO AND ISZERO PUSH2 0x23C7 JUMPI PUSH2 0x23C7 PUSH2 0x1D48 JUMP JUMPDEST MUL SWAP5 SWAP4 POP POP POP POP JUMP JUMPDEST PUSH1 0x0 PUSH24 0xFFFFFFFFFFFFFFFFFFFFFFFFFFFFFFFFFFFFFFFFFFFFFFFF DUP1 DUP5 AND DUP1 PUSH2 0x23FB JUMPI PUSH2 0x23FB PUSH2 0x1FAC JUMP JUMPDEST SWAP3 AND SWAP2 SWAP1 SWAP2 DIV SWAP3 SWAP2 POP POP JUMP JUMPDEST PUSH1 0x0 PUSH32 0x8000000000000000000000000000000000000000000000000000000000000000 DUP3 SUB PUSH2 0x2438 JUMPI PUSH2 0x2438 PUSH2 0x1D48 JUMP JUMPDEST POP PUSH1 0x0 SUB SWAP1 JUMP JUMPDEST PUSH1 0x0 DUP2 PUSH1 0x2 SIGNEXTEND PUSH32 0xFFFFFFFFFFFFFFFFFFFFFFFFFFFFFFFFFFFFFFFFFFFFFFFFFFFFFFFFFF800000 DUP2 SUB PUSH2 0x2474 JUMPI PUSH2 0x2474 PUSH2 0x1D48 JUMP JUMPDEST PUSH1 0x0 SUB SWAP3 SWAP2 POP POP JUMP JUMPDEST PUSH1 0x0 DUP3 PUSH2 0x248C JUMPI PUSH2 0x248C PUSH2 0x1FAC JUMP JUMPDEST POP MOD SWAP1 JUMP INVALID LOG2 PUSH5 0x6970667358 0x22 SLT KECCAK256 0xEC 0xEC SWAP11 PUSH26 0x5266C982911A3AB5A99E3B530F7ADC6C687BFCA8D89C788007D5 PUSH6 0xA64736F6C63 NUMBER STOP ADDMOD 0xE STOP CALLER "
		},
		"gasEstimates": {
			"creation": {
				"codeDepositCost": "1883000",
				"executionCost": "infinite",
				"totalCost": "infinite"
			},
			"external": {
				"": "169",
				"NAV()": "2329",
				"addCoin(address,uint256)": "infinite",
				"coinArray(uint256)": "4681",
				"coinOracleAddr(address)": "2598",
				"coins(address)": "2591",
				"delCoin(address)": "infinite",
				"deleteContract(address)": "infinite",
				"initContract(address)": "infinite",
				"initDone()": "2401",
				"oracleNAV()": "infinite",
				"proxy()": "2414",
				"quoteIn(address)": "2574",
				"transferFunds(address,uint256)": "infinite",
				"updateNAV(uint256)": "infinite",
				"updateProxy(address)": "26757"
			},
			"internal": {
				"calculateNAV()": "infinite"
			}
		},
		"methodIdentifiers": {
			"NAV()": "52fd856b",
			"addCoin(address,uint256)": "b4014879",
			"coinArray(uint256)": "63b48ee6",
			"coinOracleAddr(address)": "0fbbfa3e",
			"coins(address)": "7d0f7a88",
			"delCoin(address)": "4051b9aa",
			"deleteContract(address)": "2637a477",
			"initContract(address)": "cf9d4afa",
			"initDone()": "fed0a20e",
			"oracleNAV()": "def1a5e8",
			"proxy()": "ec556889",
			"quoteIn(address)": "d825bfff",
			"transferFunds(address,uint256)": "990dc9db",
			"updateNAV(uint256)": "0cb1982b",
			"updateProxy(address)": "9e955149"
		}
	},
	"abi": [
		{
			"inputs": [],
			"stateMutability": "nonpayable",
			"type": "constructor"
		},
		{
			"stateMutability": "payable",
			"type": "fallback"
		},
		{
			"inputs": [],
			"name": "NAV",
			"outputs": [
				{
					"internalType": "uint256",
					"name": "",
					"type": "uint256"
				}
			],
			"stateMutability": "view",
			"type": "function"
		},
		{
			"inputs": [
				{
					"internalType": "address",
					"name": "coinAddr",
					"type": "address"
				},
				{
					"internalType": "uint256",
					"name": "stable",
					"type": "uint256"
				}
			],
			"name": "addCoin",
			"outputs": [],
			"stateMutability": "nonpayable",
			"type": "function"
		},
		{
			"inputs": [
				{
					"internalType": "uint256",
					"name": "",
					"type": "uint256"
				}
			],
			"name": "coinArray",
			"outputs": [
				{
					"internalType": "address",
					"name": "",
					"type": "address"
				}
			],
			"stateMutability": "view",
			"type": "function"
		},
		{
			"inputs": [
				{
					"internalType": "address",
					"name": "",
					"type": "address"
				}
			],
			"name": "coinOracleAddr",
			"outputs": [
				{
					"internalType": "address",
					"name": "",
					"type": "address"
				}
			],
			"stateMutability": "view",
			"type": "function"
		},
		{
			"inputs": [
				{
					"internalType": "address",
					"name": "",
					"type": "address"
				}
			],
			"name": "coins",
			"outputs": [
				{
					"internalType": "uint256",
					"name": "",
					"type": "uint256"
				}
			],
			"stateMutability": "view",
			"type": "function"
		},
		{
			"inputs": [
				{
					"internalType": "address",
					"name": "coinAddr",
					"type": "address"
				}
			],
			"name": "delCoin",
			"outputs": [],
			"stateMutability": "nonpayable",
			"type": "function"
		},
		{
			"inputs": [
				{
					"internalType": "address",
					"name": "newAddr",
					"type": "address"
				}
			],
			"name": "deleteContract",
			"outputs": [],
			"stateMutability": "nonpayable",
			"type": "function"
		},
		{
			"inputs": [
				{
					"internalType": "address",
					"name": "proxyAddr",
					"type": "address"
				}
			],
			"name": "initContract",
			"outputs": [],
			"stateMutability": "nonpayable",
			"type": "function"
		},
		{
			"inputs": [],
			"name": "initDone",
			"outputs": [
				{
					"internalType": "uint8",
					"name": "",
					"type": "uint8"
				}
			],
			"stateMutability": "view",
			"type": "function"
		},
		{
			"inputs": [],
			"name": "oracleNAV",
			"outputs": [
				{
					"internalType": "uint256",
					"name": "",
					"type": "uint256"
				},
				{
					"internalType": "uint256",
					"name": "",
					"type": "uint256"
				}
			],
			"stateMutability": "view",
			"type": "function"
		},
		{
			"inputs": [],
			"name": "proxy",
			"outputs": [
				{
					"internalType": "address",
					"name": "",
					"type": "address"
				}
			],
			"stateMutability": "view",
			"type": "function"
		},
		{
			"inputs": [
				{
					"internalType": "address",
					"name": "",
					"type": "address"
				}
			],
			"name": "quoteIn",
			"outputs": [
				{
					"internalType": "address",
					"name": "",
					"type": "address"
				}
			],
			"stateMutability": "view",
			"type": "function"
		},
		{
			"inputs": [
				{
					"internalType": "address",
					"name": "to",
					"type": "address"
				},
				{
					"internalType": "uint256",
					"name": "totalToTransfer",
					"type": "uint256"
				}
			],
			"name": "transferFunds",
			"outputs": [
				{
					"internalType": "bool",
					"name": "",
					"type": "bool"
				}
			],
			"stateMutability": "nonpayable",
			"type": "function"
		},
		{
			"inputs": [
				{
					"internalType": "uint256",
					"name": "comission",
					"type": "uint256"
				}
			],
			"name": "updateNAV",
			"outputs": [
				{
					"internalType": "uint256",
					"name": "newNAV",
					"type": "uint256"
				}
			],
			"stateMutability": "nonpayable",
			"type": "function"
		},
		{
			"inputs": [
				{
					"internalType": "address",
					"name": "newAddr",
					"type": "address"
				}
			],
			"name": "updateProxy",
			"outputs": [],
			"stateMutability": "nonpayable",
			"type": "function"
		},
		{
			"stateMutability": "payable",
			"type": "receive"
		}
	]
}